{
	"data": {
		"bytecode": {
			"linkReferences": {},
			"object": "608060405234801561000f575f80fd5b50613a548061001d5f395ff3fe608060405234801561000f575f80fd5b5060043610610140575f3560e01c80638d2110c2116100b6578063b2e18e801161007a578063b2e18e8014610358578063b88d4fde14610374578063bfcfb52c14610390578063c4dafd4d146103ac578063c87b56dd146103c8578063e985e9c5146103f857610140565b80638d2110c2146102ca57806395d89b41146102e65780639a94257114610304578063a22cb46514610320578063aba9520d1461033c57610140565b806323b872dd1161010857806323b872dd146101fa57806342842e0e146102165780634cd88b76146102325780636352211e1461024e57806370a082311461027e5780638248a3de146102ae57610140565b806301ffc9a71461014457806306fdde0314610174578063081812fc14610192578063095ea7b3146101c25780630bb43724146101de575b5f80fd5b61015e6004803603810190610159919061234f565b610428565b60405161016b9190612394565b60405180910390f35b61017c610509565b6040516101899190612437565b60405180910390f35b6101ac60048036038101906101a7919061248a565b610599565b6040516101b991906124f4565b60405180910390f35b6101dc60048036038101906101d79190612537565b6105db565b005b6101f860048036038101906101f391906126a1565b6106f1565b005b610214600480360381019061020f91906126fb565b6107aa565b005b610230600480360381019061022b91906126fb565b61080a565b005b61024c6004803603810190610247919061274b565b610829565b005b6102686004803603810190610263919061248a565b6109ac565b60405161027591906124f4565b60405180910390f35b610298600480360381019061029391906127c1565b610a30565b6040516102a591906127fb565b60405180910390f35b6102c860048036038101906102c391906127c1565b610ae4565b005b6102e460048036038101906102df9190612814565b610c4c565b005b6102ee610d6f565b6040516102fb9190612437565b60405180910390f35b61031e60048036038101906103199190612852565b610dff565b005b61033a6004803603810190610335919061290f565b610ffa565b005b610356600480360381019061035191906126a1565b611010565b005b610372600480360381019061036d919061294d565b611133565b005b61038e60048036038101906103899190612a6b565b611223565b005b6103aa60048036038101906103a59190612537565b611285565b005b6103c660048036038101906103c19190612aeb565b61146c565b005b6103e260048036038101906103dd919061248a565b611531565b6040516103ef9190612437565b60405180910390f35b610412600480360381019061040d9190612b29565b6115db565b60405161041f9190612394565b60405180910390f35b5f7f80ac58cd000000000000000000000000000000000000000000000000000000007bffffffffffffffffffffffffffffffffffffffffffffffffffffffff1916827bffffffffffffffffffffffffffffffffffffffffffffffffffffffff191614806104f257507f5b5e139f000000000000000000000000000000000000000000000000000000007bffffffffffffffffffffffffffffffffffffffffffffffffffffffff1916827bffffffffffffffffffffffffffffffffffffffffffffffffffffffff1916145b80610502575061050182611669565b5b9050919050565b60606065805461051890612b94565b80601f016020809104026020016040519081016040528092919081815260200182805461054490612b94565b801561058f5780601f106105665761010080835404028352916020019161058f565b820191905f5260205f20905b81548152906001019060200180831161057257829003601f168201915b5050505050905090565b5f6105a3826116d2565b60695f8381526020019081526020015f205f9054906101000a900473ffffffffffffffffffffffffffffffffffffffff169050919050565b5f6105e5826109ac565b90508073ffffffffffffffffffffffffffffffffffffffff168373ffffffffffffffffffffffffffffffffffffffff1603610655576040517f08c379a000000000000000000000000000000000000000000000000000000000815260040161064c90612c34565b60405180910390fd5b8073ffffffffffffffffffffffffffffffffffffffff1661067461171d565b73ffffffffffffffffffffffffffffffffffffffff1614806106a357506106a28161069d61171d565b6115db565b5b6106e2576040517f08c379a00000000000000000000000000000000000000000000000000000000081526004016106d990612cc2565b60405180910390fd5b6106ec8383611724565b505050565b60985f9054906101000a900473ffffffffffffffffffffffffffffffffffffffff1673ffffffffffffffffffffffffffffffffffffffff1661073161171d565b73ffffffffffffffffffffffffffffffffffffffff1614610787576040517f08c379a000000000000000000000000000000000000000000000000000000000815260040161077e90612d50565b60405180910390fd5b8060995f8481526020019081526020015f2090816107a59190612f0b565b505050565b6107bb6107b561171d565b826117da565b6107fa576040517f08c379a00000000000000000000000000000000000000000000000000000000081526004016107f19061304a565b60405180910390fd5b61080583838361186e565b505050565b61082483838360405180602001604052805f815250611223565b505050565b5f8060019054906101000a900460ff16159050808015610858575060015f8054906101000a900460ff1660ff16105b80610884575061086730611b5a565b158015610883575060015f8054906101000a900460ff1660ff16145b5b6108c3576040517f08c379a00000000000000000000000000000000000000000000000000000000081526004016108ba906130d8565b60405180910390fd5b60015f806101000a81548160ff021916908360ff16021790555080156108fe5760015f60016101000a81548160ff0219169083151502179055505b61090661171d565b60985f6101000a81548173ffffffffffffffffffffffffffffffffffffffff021916908373ffffffffffffffffffffffffffffffffffffffff16021790555061094f8383611b7c565b80156109a7575f8060016101000a81548160ff0219169083151502179055507f7f26b83ff96e1f2b6a682f133852f6798a09c465da95921460cefb3847402498600160405161099e919061313b565b60405180910390a15b505050565b5f806109b783611bd8565b90505f73ffffffffffffffffffffffffffffffffffffffff168173ffffffffffffffffffffffffffffffffffffffff1603610a27576040517f08c379a0000000000000000000000000000000000000000000000000000000008152600401610a1e9061319e565b60405180910390fd5b80915050919050565b5f8073ffffffffffffffffffffffffffffffffffffffff168273ffffffffffffffffffffffffffffffffffffffff1603610a9f576040517f08c379a0000000000000000000000000000000000000000000000000000000008152600401610a969061322c565b60405180910390fd5b60685f8373ffffffffffffffffffffffffffffffffffffffff1673ffffffffffffffffffffffffffffffffffffffff1681526020019081526020015f20549050919050565b60985f9054906101000a900473ffffffffffffffffffffffffffffffffffffffff1673ffffffffffffffffffffffffffffffffffffffff16610b2461171d565b73ffffffffffffffffffffffffffffffffffffffff1614610b7a576040517f08c379a0000000000000000000000000000000000000000000000000000000008152600401610b7190612d50565b60405180910390fd5b5f73ffffffffffffffffffffffffffffffffffffffff1660975f9054906101000a900473ffffffffffffffffffffffffffffffffffffffff1673ffffffffffffffffffffffffffffffffffffffff1614610c09576040517f08c379a0000000000000000000000000000000000000000000000000000000008152600401610c00906132ba565b60405180910390fd5b8060975f6101000a81548173ffffffffffffffffffffffffffffffffffffffff021916908373ffffffffffffffffffffffffffffffffffffffff16021790555050565b60985f9054906101000a900473ffffffffffffffffffffffffffffffffffffffff1673ffffffffffffffffffffffffffffffffffffffff16610c8c61171d565b73ffffffffffffffffffffffffffffffffffffffff1614610ce2576040517f08c379a0000000000000000000000000000000000000000000000000000000008152600401610cd990612d50565b60405180910390fd5b60975f9054906101000a900473ffffffffffffffffffffffffffffffffffffffff1673ffffffffffffffffffffffffffffffffffffffff16638d2110c283836040518363ffffffff1660e01b8152600401610d3e9291906132d8565b5f604051808303815f87803b158015610d55575f80fd5b505af1158015610d67573d5f803e3d5ffd5b505050505050565b606060668054610d7e90612b94565b80601f0160208091040260200160405190810160405280929190818152602001828054610daa90612b94565b8015610df55780601f10610dcc57610100808354040283529160200191610df5565b820191905f5260205f20905b815481529060010190602001808311610dd857829003601f168201915b5050505050905090565b60985f9054906101000a900473ffffffffffffffffffffffffffffffffffffffff1673ffffffffffffffffffffffffffffffffffffffff16610e3f61171d565b73ffffffffffffffffffffffffffffffffffffffff1614610e95576040517f08c379a0000000000000000000000000000000000000000000000000000000008152600401610e8c90612d50565b60405180910390fd5b609a5f8581526020019081526020015f206003015f9054906101000a900460ff16610ef5576040517f08c379a0000000000000000000000000000000000000000000000000000000008152600401610eec90613349565b60405180910390fd5b5f60975f9054906101000a900473ffffffffffffffffffffffffffffffffffffffff1673ffffffffffffffffffffffffffffffffffffffff1663830f11bf87878787876040518663ffffffff1660e01b8152600401610f58959493929190613367565b6020604051808303815f875af1158015610f74573d5f803e3d5ffd5b505050506040513d601f19601f82011682018060405250810190610f9891906133d3565b90508015610fca57609a5f8681526020019081526020015f206001015f815480929190610fc49061342b565b91905055505b609a5f8681526020019081526020015f205f015f815480929190610fed9061342b565b9190505550505050505050565b61100c61100561171d565b8383611c11565b5050565b60985f9054906101000a900473ffffffffffffffffffffffffffffffffffffffff1673ffffffffffffffffffffffffffffffffffffffff1661105061171d565b73ffffffffffffffffffffffffffffffffffffffff16146110a6576040517f08c379a000000000000000000000000000000000000000000000000000000000815260040161109d90612d50565b60405180910390fd5b60975f9054906101000a900473ffffffffffffffffffffffffffffffffffffffff1673ffffffffffffffffffffffffffffffffffffffff16630bb4372483836040518363ffffffff1660e01b8152600401611102929190613472565b5f604051808303815f87803b158015611119575f80fd5b505af115801561112b573d5f803e3d5ffd5b505050505050565b60985f9054906101000a900473ffffffffffffffffffffffffffffffffffffffff1673ffffffffffffffffffffffffffffffffffffffff1661117361171d565b73ffffffffffffffffffffffffffffffffffffffff16146111c9576040517f08c379a00000000000000000000000000000000000000000000000000000000081526004016111c090612d50565b60405180910390fd5b6111d38484611d78565b80609a5f8581526020019081526020015f206003015f6101000a81548160ff0219169083151502179055508160995f8581526020019081526020015f20908161121c9190612f0b565b5050505050565b61123461122e61171d565b836117da565b611273576040517f08c379a000000000000000000000000000000000000000000000000000000000815260040161126a9061304a565b60405180910390fd5b61127f84848484611d95565b50505050565b60985f9054906101000a900473ffffffffffffffffffffffffffffffffffffffff1673ffffffffffffffffffffffffffffffffffffffff166112c561171d565b73ffffffffffffffffffffffffffffffffffffffff161461131b576040517f08c379a000000000000000000000000000000000000000000000000000000000815260040161131290612d50565b60405180910390fd5b60975f9054906101000a900473ffffffffffffffffffffffffffffffffffffffff1673ffffffffffffffffffffffffffffffffffffffff1663bfcfb52c83836040518363ffffffff1660e01b81526004016113779291906134a0565b5f604051808303815f87803b15801561138e575f80fd5b505af11580156113a0573d5f803e3d5ffd5b50505050609a5f60975f9054906101000a900473ffffffffffffffffffffffffffffffffffffffff1673ffffffffffffffffffffffffffffffffffffffff16638167ac53846040518263ffffffff1660e01b815260040161140191906127fb565b606060405180830381865afa15801561141c573d5f803e3d5ffd5b505050506040513d601f19601f820116820180604052508101906114409190613540565b5f015181526020019081526020015f206002015f8154809291906114639061342b565b91905055505050565b60985f9054906101000a900473ffffffffffffffffffffffffffffffffffffffff1673ffffffffffffffffffffffffffffffffffffffff166114ac61171d565b73ffffffffffffffffffffffffffffffffffffffff1614611502576040517f08c379a00000000000000000000000000000000000000000000000000000000081526004016114f990612d50565b60405180910390fd5b80609a5f8481526020019081526020015f206003015f6101000a81548160ff0219169083151502179055505050565b606061153c82611df1565b60995f8381526020019081526020015f20805461155890612b94565b80601f016020809104026020016040519081016040528092919081815260200182805461158490612b94565b80156115cf5780601f106115a6576101008083540402835291602001916115cf565b820191905f5260205f20905b8154815290600101906020018083116115b257829003601f168201915b50505050509050919050565b5f606a5f8473ffffffffffffffffffffffffffffffffffffffff1673ffffffffffffffffffffffffffffffffffffffff1681526020019081526020015f205f8373ffffffffffffffffffffffffffffffffffffffff1673ffffffffffffffffffffffffffffffffffffffff1681526020019081526020015f205f9054906101000a900460ff16905092915050565b5f7f01ffc9a7000000000000000000000000000000000000000000000000000000007bffffffffffffffffffffffffffffffffffffffffffffffffffffffff1916827bffffffffffffffffffffffffffffffffffffffffffffffffffffffff1916149050919050565b6116db81611e3c565b61171a576040517f08c379a00000000000000000000000000000000000000000000000000000000081526004016117119061319e565b60405180910390fd5b50565b5f33905090565b8160695f8381526020019081526020015f205f6101000a81548173ffffffffffffffffffffffffffffffffffffffff021916908373ffffffffffffffffffffffffffffffffffffffff160217905550808273ffffffffffffffffffffffffffffffffffffffff16611794836109ac565b73ffffffffffffffffffffffffffffffffffffffff167f8c5be1e5ebec7d5bd14f71427d1e84f3dd0314c0f7b2291e5b200ac8c7c3b92560405160405180910390a45050565b5f806117e5836109ac565b90508073ffffffffffffffffffffffffffffffffffffffff168473ffffffffffffffffffffffffffffffffffffffff161480611827575061182681856115db565b5b8061186557508373ffffffffffffffffffffffffffffffffffffffff1661184d84610599565b73ffffffffffffffffffffffffffffffffffffffff16145b91505092915050565b8273ffffffffffffffffffffffffffffffffffffffff1661188e826109ac565b73ffffffffffffffffffffffffffffffffffffffff16146118e4576040517f08c379a00000000000000000000000000000000000000000000000000000000081526004016118db906135db565b60405180910390fd5b5f73ffffffffffffffffffffffffffffffffffffffff168273ffffffffffffffffffffffffffffffffffffffff1603611952576040517f08c379a000000000000000000000000000000000000000000000000000000000815260040161194990613669565b60405180910390fd5b61195f8383836001611e7c565b8273ffffffffffffffffffffffffffffffffffffffff1661197f826109ac565b73ffffffffffffffffffffffffffffffffffffffff16146119d5576040517f08c379a00000000000000000000000000000000000000000000000000000000081526004016119cc906135db565b60405180910390fd5b60695f8281526020019081526020015f205f6101000a81549073ffffffffffffffffffffffffffffffffffffffff0219169055600160685f8573ffffffffffffffffffffffffffffffffffffffff1673ffffffffffffffffffffffffffffffffffffffff1681526020019081526020015f205f8282540392505081905550600160685f8473ffffffffffffffffffffffffffffffffffffffff1673ffffffffffffffffffffffffffffffffffffffff1681526020019081526020015f205f82825401925050819055508160675f8381526020019081526020015f205f6101000a81548173ffffffffffffffffffffffffffffffffffffffff021916908373ffffffffffffffffffffffffffffffffffffffff160217905550808273ffffffffffffffffffffffffffffffffffffffff168473ffffffffffffffffffffffffffffffffffffffff167fddf252ad1be2c89b69c2b068fc378daa952ba7f163c4a11628f55a4df523b3ef60405160405180910390a4611b558383836001611e82565b505050565b5f808273ffffffffffffffffffffffffffffffffffffffff163b119050919050565b5f60019054906101000a900460ff16611bca576040517f08c379a0000000000000000000000000000000000000000000000000000000008152600401611bc1906136f7565b60405180910390fd5b611bd48282611e88565b5050565b5f60675f8381526020019081526020015f205f9054906101000a900473ffffffffffffffffffffffffffffffffffffffff169050919050565b8173ffffffffffffffffffffffffffffffffffffffff168373ffffffffffffffffffffffffffffffffffffffff1603611c7f576040517f08c379a0000000000000000000000000000000000000000000000000000000008152600401611c769061375f565b60405180910390fd5b80606a5f8573ffffffffffffffffffffffffffffffffffffffff1673ffffffffffffffffffffffffffffffffffffffff1681526020019081526020015f205f8473ffffffffffffffffffffffffffffffffffffffff1673ffffffffffffffffffffffffffffffffffffffff1681526020019081526020015f205f6101000a81548160ff0219169083151502179055508173ffffffffffffffffffffffffffffffffffffffff168373ffffffffffffffffffffffffffffffffffffffff167f17307eab39ab6107e8899845ad3d59bd9653f200f220920489ca2b5937696c3183604051611d6b9190612394565b60405180910390a3505050565b611d91828260405180602001604052805f815250611efa565b5050565b611da084848461186e565b611dac84848484611f54565b611deb576040517f08c379a0000000000000000000000000000000000000000000000000000000008152600401611de2906137ed565b60405180910390fd5b50505050565b611dfa81611e3c565b611e39576040517f08c379a0000000000000000000000000000000000000000000000000000000008152600401611e3090613855565b60405180910390fd5b50565b5f8073ffffffffffffffffffffffffffffffffffffffff16611e5d83611bd8565b73ffffffffffffffffffffffffffffffffffffffff1614159050919050565b50505050565b50505050565b5f60019054906101000a900460ff16611ed6576040517f08c379a0000000000000000000000000000000000000000000000000000000008152600401611ecd906136f7565b60405180910390fd5b8160659081611ee59190612f0b565b508060669081611ef59190612f0b565b505050565b611f0483836120d6565b611f105f848484611f54565b611f4f576040517f08c379a0000000000000000000000000000000000000000000000000000000008152600401611f46906137ed565b60405180910390fd5b505050565b5f611f748473ffffffffffffffffffffffffffffffffffffffff16611b5a565b156120c9578373ffffffffffffffffffffffffffffffffffffffff1663150b7a02611f9d61171d565b8786866040518563ffffffff1660e01b8152600401611fbf94939291906138c5565b6020604051808303815f875af1925050508015611ffa57506040513d601f19601f82011682018060405250810190611ff79190613923565b60015b612079573d805f8114612028576040519150601f19603f3d011682016040523d82523d5f602084013e61202d565b606091505b505f815103612071576040517f08c379a0000000000000000000000000000000000000000000000000000000008152600401612068906137ed565b60405180910390fd5b805181602001fd5b63150b7a0260e01b7bffffffffffffffffffffffffffffffffffffffffffffffffffffffff1916817bffffffffffffffffffffffffffffffffffffffffffffffffffffffff1916149150506120ce565b600190505b949350505050565b5f73ffffffffffffffffffffffffffffffffffffffff168273ffffffffffffffffffffffffffffffffffffffff1603612144576040517f08c379a000000000000000000000000000000000000000000000000000000000815260040161213b90613998565b60405180910390fd5b61214d81611e3c565b1561218d576040517f08c379a000000000000000000000000000000000000000000000000000000000815260040161218490613a00565b60405180910390fd5b61219a5f83836001611e7c565b6121a381611e3c565b156121e3576040517f08c379a00000000000000000000000000000000000000000000000000000000081526004016121da90613a00565b60405180910390fd5b600160685f8473ffffffffffffffffffffffffffffffffffffffff1673ffffffffffffffffffffffffffffffffffffffff1681526020019081526020015f205f82825401925050819055508160675f8381526020019081526020015f205f6101000a81548173ffffffffffffffffffffffffffffffffffffffff021916908373ffffffffffffffffffffffffffffffffffffffff160217905550808273ffffffffffffffffffffffffffffffffffffffff165f73ffffffffffffffffffffffffffffffffffffffff167fddf252ad1be2c89b69c2b068fc378daa952ba7f163c4a11628f55a4df523b3ef60405160405180910390a46122e55f83836001611e82565b5050565b5f604051905090565b5f80fd5b5f80fd5b5f7fffffffff0000000000000000000000000000000000000000000000000000000082169050919050565b61232e816122fa565b8114612338575f80fd5b50565b5f8135905061234981612325565b92915050565b5f60208284031215612364576123636122f2565b5b5f6123718482850161233b565b91505092915050565b5f8115159050919050565b61238e8161237a565b82525050565b5f6020820190506123a75f830184612385565b92915050565b5f81519050919050565b5f82825260208201905092915050565b5f5b838110156123e45780820151818401526020810190506123c9565b5f8484015250505050565b5f601f19601f8301169050919050565b5f612409826123ad565b61241381856123b7565b93506124238185602086016123c7565b61242c816123ef565b840191505092915050565b5f6020820190508181035f83015261244f81846123ff565b905092915050565b5f819050919050565b61246981612457565b8114612473575f80fd5b50565b5f8135905061248481612460565b92915050565b5f6020828403121561249f5761249e6122f2565b5b5f6124ac84828501612476565b91505092915050565b5f73ffffffffffffffffffffffffffffffffffffffff82169050919050565b5f6124de826124b5565b9050919050565b6124ee816124d4565b82525050565b5f6020820190506125075f8301846124e5565b92915050565b612516816124d4565b8114612520575f80fd5b50565b5f813590506125318161250d565b92915050565b5f806040838503121561254d5761254c6122f2565b5b5f61255a85828601612523565b925050602061256b85828601612476565b9150509250929050565b5f80fd5b5f80fd5b7f4e487b71000000000000000000000000000000000000000000000000000000005f52604160045260245ffd5b6125b3826123ef565b810181811067ffffffffffffffff821117156125d2576125d161257d565b5b80604052505050565b5f6125e46122e9565b90506125f082826125aa565b919050565b5f67ffffffffffffffff82111561260f5761260e61257d565b5b612618826123ef565b9050602081019050919050565b828183375f83830152505050565b5f612645612640846125f5565b6125db565b90508281526020810184848401111561266157612660612579565b5b61266c848285612625565b509392505050565b5f82601f83011261268857612687612575565b5b8135612698848260208601612633565b91505092915050565b5f80604083850312156126b7576126b66122f2565b5b5f6126c485828601612476565b925050602083013567ffffffffffffffff8111156126e5576126e46122f6565b5b6126f185828601612674565b9150509250929050565b5f805f60608486031215612712576127116122f2565b5b5f61271f86828701612523565b935050602061273086828701612523565b925050604061274186828701612476565b9150509250925092565b5f8060408385031215612761576127606122f2565b5b5f83013567ffffffffffffffff81111561277e5761277d6122f6565b5b61278a85828601612674565b925050602083013567ffffffffffffffff8111156127ab576127aa6122f6565b5b6127b785828601612674565b9150509250929050565b5f602082840312156127d6576127d56122f2565b5b5f6127e384828501612523565b91505092915050565b6127f581612457565b82525050565b5f60208201905061280e5f8301846127ec565b92915050565b5f806040838503121561282a576128296122f2565b5b5f61283785828601612476565b925050602061284885828601612476565b9150509250929050565b5f805f805f60a0868803121561286b5761286a6122f2565b5b5f61287888828901612523565b955050602061288988828901612476565b945050604061289a88828901612476565b93505060606128ab88828901612476565b925050608086013567ffffffffffffffff8111156128cc576128cb6122f6565b5b6128d888828901612674565b9150509295509295909350565b6128ee8161237a565b81146128f8575f80fd5b50565b5f81359050612909816128e5565b92915050565b5f8060408385031215612925576129246122f2565b5b5f61293285828601612523565b9250506020612943858286016128fb565b9150509250929050565b5f805f8060808587031215612965576129646122f2565b5b5f61297287828801612523565b945050602061298387828801612476565b935050604085013567ffffffffffffffff8111156129a4576129a36122f6565b5b6129b087828801612674565b92505060606129c1878288016128fb565b91505092959194509250565b5f67ffffffffffffffff8211156129e7576129e661257d565b5b6129f0826123ef565b9050602081019050919050565b5f612a0f612a0a846129cd565b6125db565b905082815260208101848484011115612a2b57612a2a612579565b5b612a36848285612625565b509392505050565b5f82601f830112612a5257612a51612575565b5b8135612a628482602086016129fd565b91505092915050565b5f805f8060808587031215612a8357612a826122f2565b5b5f612a9087828801612523565b9450506020612aa187828801612523565b9350506040612ab287828801612476565b925050606085013567ffffffffffffffff811115612ad357612ad26122f6565b5b612adf87828801612a3e565b91505092959194509250565b5f8060408385031215612b0157612b006122f2565b5b5f612b0e85828601612476565b9250506020612b1f858286016128fb565b9150509250929050565b5f8060408385031215612b3f57612b3e6122f2565b5b5f612b4c85828601612523565b9250506020612b5d85828601612523565b9150509250929050565b7f4e487b71000000000000000000000000000000000000000000000000000000005f52602260045260245ffd5b5f6002820490506001821680612bab57607f821691505b602082108103612bbe57612bbd612b67565b5b50919050565b7f4552433732313a20617070726f76616c20746f2063757272656e74206f776e655f8201527f7200000000000000000000000000000000000000000000000000000000000000602082015250565b5f612c1e6021836123b7565b9150612c2982612bc4565b604082019050919050565b5f6020820190508181035f830152612c4b81612c12565b9050919050565b7f4552433732313a20617070726f76652063616c6c6572206973206e6f7420746f5f8201527f6b656e206f776e6572206f7220617070726f76656420666f7220616c6c000000602082015250565b5f612cac603d836123b7565b9150612cb782612c52565b604082019050919050565b5f6020820190508181035f830152612cd981612ca0565b9050919050565b7f4f6e6c792074686520636f6e7472616374206f776e65722063616e2063616c6c5f8201527f20746869732066756e6374696f6e000000000000000000000000000000000000602082015250565b5f612d3a602e836123b7565b9150612d4582612ce0565b604082019050919050565b5f6020820190508181035f830152612d6781612d2e565b9050919050565b5f819050815f5260205f209050919050565b5f6020601f8301049050919050565b5f82821b905092915050565b5f60088302612dca7fffffffffffffffffffffffffffffffffffffffffffffffffffffffffffffffff82612d8f565b612dd48683612d8f565b95508019841693508086168417925050509392505050565b5f819050919050565b5f612e0f612e0a612e0584612457565b612dec565b612457565b9050919050565b5f819050919050565b612e2883612df5565b612e3c612e3482612e16565b848454612d9b565b825550505050565b5f90565b612e50612e44565b612e5b818484612e1f565b505050565b5b81811015612e7e57612e735f82612e48565b600181019050612e61565b5050565b601f821115612ec357612e9481612d6e565b612e9d84612d80565b81016020851015612eac578190505b612ec0612eb885612d80565b830182612e60565b50505b505050565b5f82821c905092915050565b5f612ee35f1984600802612ec8565b1980831691505092915050565b5f612efb8383612ed4565b9150826002028217905092915050565b612f14826123ad565b67ffffffffffffffff811115612f2d57612f2c61257d565b5b612f378254612b94565b612f42828285612e82565b5f60209050601f831160018114612f73575f8415612f61578287015190505b612f6b8582612ef0565b865550612fd2565b601f198416612f8186612d6e565b5f5b82811015612fa857848901518255600182019150602085019450602081019050612f83565b86831015612fc55784890151612fc1601f891682612ed4565b8355505b6001600288020188555050505b505050505050565b7f4552433732313a2063616c6c6572206973206e6f7420746f6b656e206f776e655f8201527f72206f7220617070726f76656400000000000000000000000000000000000000602082015250565b5f613034602d836123b7565b915061303f82612fda565b604082019050919050565b5f6020820190508181035f83015261306181613028565b9050919050565b7f496e697469616c697a61626c653a20636f6e747261637420697320616c7265615f8201527f647920696e697469616c697a6564000000000000000000000000000000000000602082015250565b5f6130c2602e836123b7565b91506130cd82613068565b604082019050919050565b5f6020820190508181035f8301526130ef816130b6565b9050919050565b5f819050919050565b5f60ff82169050919050565b5f61312561312061311b846130f6565b612dec565b6130ff565b9050919050565b6131358161310b565b82525050565b5f60208201905061314e5f83018461312c565b92915050565b7f4552433732313a20696e76616c696420746f6b656e20494400000000000000005f82015250565b5f6131886018836123b7565b915061319382613154565b602082019050919050565b5f6020820190508181035f8301526131b58161317c565b9050919050565b7f4552433732313a2061646472657373207a65726f206973206e6f7420612076615f8201527f6c6964206f776e65720000000000000000000000000000000000000000000000602082015250565b5f6132166029836123b7565b9150613221826131bc565b604082019050919050565b5f6020820190508181035f8301526132438161320a565b9050919050565b7f546865726520697320616c72656164792061207265676973746572656420646f5f8201527f776e6c6f616420636f6e74726163742e00000000000000000000000000000000602082015250565b5f6132a46030836123b7565b91506132af8261324a565b604082019050919050565b5f6020820190508181035f8301526132d181613298565b9050919050565b5f6040820190506132eb5f8301856127ec565b6132f860208301846127ec565b9392505050565b7f5468697320697320616e20756e736f6c642070726f647563742e0000000000005f82015250565b5f613333601a836123b7565b915061333e826132ff565b602082019050919050565b5f6020820190508181035f83015261336081613327565b9050919050565b5f60a08201905061337a5f8301886124e5565b61338760208301876127ec565b61339460408301866127ec565b6133a160608301856127ec565b81810360808301526133b381846123ff565b90509695505050505050565b5f815190506133cd816128e5565b92915050565b5f602082840312156133e8576133e76122f2565b5b5f6133f5848285016133bf565b91505092915050565b7f4e487b71000000000000000000000000000000000000000000000000000000005f52601160045260245ffd5b5f61343582612457565b91507fffffffffffffffffffffffffffffffffffffffffffffffffffffffffffffffff8203613467576134666133fe565b5b600182019050919050565b5f6040820190506134855f8301856127ec565b818103602083015261349781846123ff565b90509392505050565b5f6040820190506134b35f8301856124e5565b6134c060208301846127ec565b9392505050565b5f80fd5b5f815190506134d981612460565b92915050565b5f606082840312156134f4576134f36134c7565b5b6134fe60606125db565b90505f61350d848285016134cb565b5f830152506020613520848285016134cb565b6020830152506040613534848285016134cb565b60408301525092915050565b5f60608284031215613555576135546122f2565b5b5f613562848285016134df565b91505092915050565b7f4552433732313a207472616e736665722066726f6d20696e636f7272656374205f8201527f6f776e6572000000000000000000000000000000000000000000000000000000602082015250565b5f6135c56025836123b7565b91506135d08261356b565b604082019050919050565b5f6020820190508181035f8301526135f2816135b9565b9050919050565b7f4552433732313a207472616e7366657220746f20746865207a65726f206164645f8201527f7265737300000000000000000000000000000000000000000000000000000000602082015250565b5f6136536024836123b7565b915061365e826135f9565b604082019050919050565b5f6020820190508181035f83015261368081613647565b9050919050565b7f496e697469616c697a61626c653a20636f6e7472616374206973206e6f7420695f8201527f6e697469616c697a696e67000000000000000000000000000000000000000000602082015250565b5f6136e1602b836123b7565b91506136ec82613687565b604082019050919050565b5f6020820190508181035f83015261370e816136d5565b9050919050565b7f4552433732313a20617070726f766520746f2063616c6c6572000000000000005f82015250565b5f6137496019836123b7565b915061375482613715565b602082019050919050565b5f6020820190508181035f8301526137768161373d565b9050919050565b7f4552433732313a207472616e7366657220746f206e6f6e2045524337323152655f8201527f63656976657220696d706c656d656e7465720000000000000000000000000000602082015250565b5f6137d76032836123b7565b91506137e28261377d565b604082019050919050565b5f6020820190508181035f830152613804816137cb565b9050919050565b7f546f6b656e206e6f74206578697374732e0000000000000000000000000000005f82015250565b5f61383f6011836123b7565b915061384a8261380b565b602082019050919050565b5f6020820190508181035f83015261386c81613833565b9050919050565b5f81519050919050565b5f82825260208201905092915050565b5f61389782613873565b6138a1818561387d565b93506138b18185602086016123c7565b6138ba816123ef565b840191505092915050565b5f6080820190506138d85f8301876124e5565b6138e560208301866124e5565b6138f260408301856127ec565b8181036060830152613904818461388d565b905095945050505050565b5f8151905061391d81612325565b92915050565b5f60208284031215613938576139376122f2565b5b5f6139458482850161390f565b91505092915050565b7f4552433732313a206d696e7420746f20746865207a65726f20616464726573735f82015250565b5f6139826020836123b7565b915061398d8261394e565b602082019050919050565b5f6020820190508181035f8301526139af81613976565b9050919050565b7f4552433732313a20746f6b656e20616c7265616479206d696e746564000000005f82015250565b5f6139ea601c836123b7565b91506139f5826139b6565b602082019050919050565b5f6020820190508181035f830152613a17816139de565b905091905056fea2646970667358221220ef99a2fb90343fa2e1e5576a91de0161b1da8e08e7fc816d90a81bb7a53982cd64736f6c63430008140033",
			"opcodes": "PUSH1 0x80 PUSH1 0x40 MSTORE CALLVALUE DUP1 ISZERO PUSH2 0xF JUMPI PUSH0 DUP1 REVERT JUMPDEST POP PUSH2 0x3A54 DUP1 PUSH2 0x1D PUSH0 CODECOPY PUSH0 RETURN INVALID PUSH1 0x80 PUSH1 0x40 MSTORE CALLVALUE DUP1 ISZERO PUSH2 0xF JUMPI PUSH0 DUP1 REVERT JUMPDEST POP PUSH1 0x4 CALLDATASIZE LT PUSH2 0x140 JUMPI PUSH0 CALLDATALOAD PUSH1 0xE0 SHR DUP1 PUSH4 0x8D2110C2 GT PUSH2 0xB6 JUMPI DUP1 PUSH4 0xB2E18E80 GT PUSH2 0x7A JUMPI DUP1 PUSH4 0xB2E18E80 EQ PUSH2 0x358 JUMPI DUP1 PUSH4 0xB88D4FDE EQ PUSH2 0x374 JUMPI DUP1 PUSH4 0xBFCFB52C EQ PUSH2 0x390 JUMPI DUP1 PUSH4 0xC4DAFD4D EQ PUSH2 0x3AC JUMPI DUP1 PUSH4 0xC87B56DD EQ PUSH2 0x3C8 JUMPI DUP1 PUSH4 0xE985E9C5 EQ PUSH2 0x3F8 JUMPI PUSH2 0x140 JUMP JUMPDEST DUP1 PUSH4 0x8D2110C2 EQ PUSH2 0x2CA JUMPI DUP1 PUSH4 0x95D89B41 EQ PUSH2 0x2E6 JUMPI DUP1 PUSH4 0x9A942571 EQ PUSH2 0x304 JUMPI DUP1 PUSH4 0xA22CB465 EQ PUSH2 0x320 JUMPI DUP1 PUSH4 0xABA9520D EQ PUSH2 0x33C JUMPI PUSH2 0x140 JUMP JUMPDEST DUP1 PUSH4 0x23B872DD GT PUSH2 0x108 JUMPI DUP1 PUSH4 0x23B872DD EQ PUSH2 0x1FA JUMPI DUP1 PUSH4 0x42842E0E EQ PUSH2 0x216 JUMPI DUP1 PUSH4 0x4CD88B76 EQ PUSH2 0x232 JUMPI DUP1 PUSH4 0x6352211E EQ PUSH2 0x24E JUMPI DUP1 PUSH4 0x70A08231 EQ PUSH2 0x27E JUMPI DUP1 PUSH4 0x8248A3DE EQ PUSH2 0x2AE JUMPI PUSH2 0x140 JUMP JUMPDEST DUP1 PUSH4 0x1FFC9A7 EQ PUSH2 0x144 JUMPI DUP1 PUSH4 0x6FDDE03 EQ PUSH2 0x174 JUMPI DUP1 PUSH4 0x81812FC EQ PUSH2 0x192 JUMPI DUP1 PUSH4 0x95EA7B3 EQ PUSH2 0x1C2 JUMPI DUP1 PUSH4 0xBB43724 EQ PUSH2 0x1DE JUMPI JUMPDEST PUSH0 DUP1 REVERT JUMPDEST PUSH2 0x15E PUSH1 0x4 DUP1 CALLDATASIZE SUB DUP2 ADD SWAP1 PUSH2 0x159 SWAP2 SWAP1 PUSH2 0x234F JUMP JUMPDEST PUSH2 0x428 JUMP JUMPDEST PUSH1 0x40 MLOAD PUSH2 0x16B SWAP2 SWAP1 PUSH2 0x2394 JUMP JUMPDEST PUSH1 0x40 MLOAD DUP1 SWAP2 SUB SWAP1 RETURN JUMPDEST PUSH2 0x17C PUSH2 0x509 JUMP JUMPDEST PUSH1 0x40 MLOAD PUSH2 0x189 SWAP2 SWAP1 PUSH2 0x2437 JUMP JUMPDEST PUSH1 0x40 MLOAD DUP1 SWAP2 SUB SWAP1 RETURN JUMPDEST PUSH2 0x1AC PUSH1 0x4 DUP1 CALLDATASIZE SUB DUP2 ADD SWAP1 PUSH2 0x1A7 SWAP2 SWAP1 PUSH2 0x248A JUMP JUMPDEST PUSH2 0x599 JUMP JUMPDEST PUSH1 0x40 MLOAD PUSH2 0x1B9 SWAP2 SWAP1 PUSH2 0x24F4 JUMP JUMPDEST PUSH1 0x40 MLOAD DUP1 SWAP2 SUB SWAP1 RETURN JUMPDEST PUSH2 0x1DC PUSH1 0x4 DUP1 CALLDATASIZE SUB DUP2 ADD SWAP1 PUSH2 0x1D7 SWAP2 SWAP1 PUSH2 0x2537 JUMP JUMPDEST PUSH2 0x5DB JUMP JUMPDEST STOP JUMPDEST PUSH2 0x1F8 PUSH1 0x4 DUP1 CALLDATASIZE SUB DUP2 ADD SWAP1 PUSH2 0x1F3 SWAP2 SWAP1 PUSH2 0x26A1 JUMP JUMPDEST PUSH2 0x6F1 JUMP JUMPDEST STOP JUMPDEST PUSH2 0x214 PUSH1 0x4 DUP1 CALLDATASIZE SUB DUP2 ADD SWAP1 PUSH2 0x20F SWAP2 SWAP1 PUSH2 0x26FB JUMP JUMPDEST PUSH2 0x7AA JUMP JUMPDEST STOP JUMPDEST PUSH2 0x230 PUSH1 0x4 DUP1 CALLDATASIZE SUB DUP2 ADD SWAP1 PUSH2 0x22B SWAP2 SWAP1 PUSH2 0x26FB JUMP JUMPDEST PUSH2 0x80A JUMP JUMPDEST STOP JUMPDEST PUSH2 0x24C PUSH1 0x4 DUP1 CALLDATASIZE SUB DUP2 ADD SWAP1 PUSH2 0x247 SWAP2 SWAP1 PUSH2 0x274B JUMP JUMPDEST PUSH2 0x829 JUMP JUMPDEST STOP JUMPDEST PUSH2 0x268 PUSH1 0x4 DUP1 CALLDATASIZE SUB DUP2 ADD SWAP1 PUSH2 0x263 SWAP2 SWAP1 PUSH2 0x248A JUMP JUMPDEST PUSH2 0x9AC JUMP JUMPDEST PUSH1 0x40 MLOAD PUSH2 0x275 SWAP2 SWAP1 PUSH2 0x24F4 JUMP JUMPDEST PUSH1 0x40 MLOAD DUP1 SWAP2 SUB SWAP1 RETURN JUMPDEST PUSH2 0x298 PUSH1 0x4 DUP1 CALLDATASIZE SUB DUP2 ADD SWAP1 PUSH2 0x293 SWAP2 SWAP1 PUSH2 0x27C1 JUMP JUMPDEST PUSH2 0xA30 JUMP JUMPDEST PUSH1 0x40 MLOAD PUSH2 0x2A5 SWAP2 SWAP1 PUSH2 0x27FB JUMP JUMPDEST PUSH1 0x40 MLOAD DUP1 SWAP2 SUB SWAP1 RETURN JUMPDEST PUSH2 0x2C8 PUSH1 0x4 DUP1 CALLDATASIZE SUB DUP2 ADD SWAP1 PUSH2 0x2C3 SWAP2 SWAP1 PUSH2 0x27C1 JUMP JUMPDEST PUSH2 0xAE4 JUMP JUMPDEST STOP JUMPDEST PUSH2 0x2E4 PUSH1 0x4 DUP1 CALLDATASIZE SUB DUP2 ADD SWAP1 PUSH2 0x2DF SWAP2 SWAP1 PUSH2 0x2814 JUMP JUMPDEST PUSH2 0xC4C JUMP JUMPDEST STOP JUMPDEST PUSH2 0x2EE PUSH2 0xD6F JUMP JUMPDEST PUSH1 0x40 MLOAD PUSH2 0x2FB SWAP2 SWAP1 PUSH2 0x2437 JUMP JUMPDEST PUSH1 0x40 MLOAD DUP1 SWAP2 SUB SWAP1 RETURN JUMPDEST PUSH2 0x31E PUSH1 0x4 DUP1 CALLDATASIZE SUB DUP2 ADD SWAP1 PUSH2 0x319 SWAP2 SWAP1 PUSH2 0x2852 JUMP JUMPDEST PUSH2 0xDFF JUMP JUMPDEST STOP JUMPDEST PUSH2 0x33A PUSH1 0x4 DUP1 CALLDATASIZE SUB DUP2 ADD SWAP1 PUSH2 0x335 SWAP2 SWAP1 PUSH2 0x290F JUMP JUMPDEST PUSH2 0xFFA JUMP JUMPDEST STOP JUMPDEST PUSH2 0x356 PUSH1 0x4 DUP1 CALLDATASIZE SUB DUP2 ADD SWAP1 PUSH2 0x351 SWAP2 SWAP1 PUSH2 0x26A1 JUMP JUMPDEST PUSH2 0x1010 JUMP JUMPDEST STOP JUMPDEST PUSH2 0x372 PUSH1 0x4 DUP1 CALLDATASIZE SUB DUP2 ADD SWAP1 PUSH2 0x36D SWAP2 SWAP1 PUSH2 0x294D JUMP JUMPDEST PUSH2 0x1133 JUMP JUMPDEST STOP JUMPDEST PUSH2 0x38E PUSH1 0x4 DUP1 CALLDATASIZE SUB DUP2 ADD SWAP1 PUSH2 0x389 SWAP2 SWAP1 PUSH2 0x2A6B JUMP JUMPDEST PUSH2 0x1223 JUMP JUMPDEST STOP JUMPDEST PUSH2 0x3AA PUSH1 0x4 DUP1 CALLDATASIZE SUB DUP2 ADD SWAP1 PUSH2 0x3A5 SWAP2 SWAP1 PUSH2 0x2537 JUMP JUMPDEST PUSH2 0x1285 JUMP JUMPDEST STOP JUMPDEST PUSH2 0x3C6 PUSH1 0x4 DUP1 CALLDATASIZE SUB DUP2 ADD SWAP1 PUSH2 0x3C1 SWAP2 SWAP1 PUSH2 0x2AEB JUMP JUMPDEST PUSH2 0x146C JUMP JUMPDEST STOP JUMPDEST PUSH2 0x3E2 PUSH1 0x4 DUP1 CALLDATASIZE SUB DUP2 ADD SWAP1 PUSH2 0x3DD SWAP2 SWAP1 PUSH2 0x248A JUMP JUMPDEST PUSH2 0x1531 JUMP JUMPDEST PUSH1 0x40 MLOAD PUSH2 0x3EF SWAP2 SWAP1 PUSH2 0x2437 JUMP JUMPDEST PUSH1 0x40 MLOAD DUP1 SWAP2 SUB SWAP1 RETURN JUMPDEST PUSH2 0x412 PUSH1 0x4 DUP1 CALLDATASIZE SUB DUP2 ADD SWAP1 PUSH2 0x40D SWAP2 SWAP1 PUSH2 0x2B29 JUMP JUMPDEST PUSH2 0x15DB JUMP JUMPDEST PUSH1 0x40 MLOAD PUSH2 0x41F SWAP2 SWAP1 PUSH2 0x2394 JUMP JUMPDEST PUSH1 0x40 MLOAD DUP1 SWAP2 SUB SWAP1 RETURN JUMPDEST PUSH0 PUSH32 0x80AC58CD00000000000000000000000000000000000000000000000000000000 PUSH28 0xFFFFFFFFFFFFFFFFFFFFFFFFFFFFFFFFFFFFFFFFFFFFFFFFFFFFFFFF NOT AND DUP3 PUSH28 0xFFFFFFFFFFFFFFFFFFFFFFFFFFFFFFFFFFFFFFFFFFFFFFFFFFFFFFFF NOT AND EQ DUP1 PUSH2 0x4F2 JUMPI POP PUSH32 0x5B5E139F00000000000000000000000000000000000000000000000000000000 PUSH28 0xFFFFFFFFFFFFFFFFFFFFFFFFFFFFFFFFFFFFFFFFFFFFFFFFFFFFFFFF NOT AND DUP3 PUSH28 0xFFFFFFFFFFFFFFFFFFFFFFFFFFFFFFFFFFFFFFFFFFFFFFFFFFFFFFFF NOT AND EQ JUMPDEST DUP1 PUSH2 0x502 JUMPI POP PUSH2 0x501 DUP3 PUSH2 0x1669 JUMP JUMPDEST JUMPDEST SWAP1 POP SWAP2 SWAP1 POP JUMP JUMPDEST PUSH1 0x60 PUSH1 0x65 DUP1 SLOAD PUSH2 0x518 SWAP1 PUSH2 0x2B94 JUMP JUMPDEST DUP1 PUSH1 0x1F ADD PUSH1 0x20 DUP1 SWAP2 DIV MUL PUSH1 0x20 ADD PUSH1 0x40 MLOAD SWAP1 DUP2 ADD PUSH1 0x40 MSTORE DUP1 SWAP3 SWAP2 SWAP1 DUP2 DUP2 MSTORE PUSH1 0x20 ADD DUP3 DUP1 SLOAD PUSH2 0x544 SWAP1 PUSH2 0x2B94 JUMP JUMPDEST DUP1 ISZERO PUSH2 0x58F JUMPI DUP1 PUSH1 0x1F LT PUSH2 0x566 JUMPI PUSH2 0x100 DUP1 DUP4 SLOAD DIV MUL DUP4 MSTORE SWAP2 PUSH1 0x20 ADD SWAP2 PUSH2 0x58F JUMP JUMPDEST DUP3 ADD SWAP2 SWAP1 PUSH0 MSTORE PUSH1 0x20 PUSH0 KECCAK256 SWAP1 JUMPDEST DUP2 SLOAD DUP2 MSTORE SWAP1 PUSH1 0x1 ADD SWAP1 PUSH1 0x20 ADD DUP1 DUP4 GT PUSH2 0x572 JUMPI DUP3 SWAP1 SUB PUSH1 0x1F AND DUP3 ADD SWAP2 JUMPDEST POP POP POP POP POP SWAP1 POP SWAP1 JUMP JUMPDEST PUSH0 PUSH2 0x5A3 DUP3 PUSH2 0x16D2 JUMP JUMPDEST PUSH1 0x69 PUSH0 DUP4 DUP2 MSTORE PUSH1 0x20 ADD SWAP1 DUP2 MSTORE PUSH1 0x20 ADD PUSH0 KECCAK256 PUSH0 SWAP1 SLOAD SWAP1 PUSH2 0x100 EXP SWAP1 DIV PUSH20 0xFFFFFFFFFFFFFFFFFFFFFFFFFFFFFFFFFFFFFFFF AND SWAP1 POP SWAP2 SWAP1 POP JUMP JUMPDEST PUSH0 PUSH2 0x5E5 DUP3 PUSH2 0x9AC JUMP JUMPDEST SWAP1 POP DUP1 PUSH20 0xFFFFFFFFFFFFFFFFFFFFFFFFFFFFFFFFFFFFFFFF AND DUP4 PUSH20 0xFFFFFFFFFFFFFFFFFFFFFFFFFFFFFFFFFFFFFFFF AND SUB PUSH2 0x655 JUMPI PUSH1 0x40 MLOAD PUSH32 0x8C379A000000000000000000000000000000000000000000000000000000000 DUP2 MSTORE PUSH1 0x4 ADD PUSH2 0x64C SWAP1 PUSH2 0x2C34 JUMP JUMPDEST PUSH1 0x40 MLOAD DUP1 SWAP2 SUB SWAP1 REVERT JUMPDEST DUP1 PUSH20 0xFFFFFFFFFFFFFFFFFFFFFFFFFFFFFFFFFFFFFFFF AND PUSH2 0x674 PUSH2 0x171D JUMP JUMPDEST PUSH20 0xFFFFFFFFFFFFFFFFFFFFFFFFFFFFFFFFFFFFFFFF AND EQ DUP1 PUSH2 0x6A3 JUMPI POP PUSH2 0x6A2 DUP2 PUSH2 0x69D PUSH2 0x171D JUMP JUMPDEST PUSH2 0x15DB JUMP JUMPDEST JUMPDEST PUSH2 0x6E2 JUMPI PUSH1 0x40 MLOAD PUSH32 0x8C379A000000000000000000000000000000000000000000000000000000000 DUP2 MSTORE PUSH1 0x4 ADD PUSH2 0x6D9 SWAP1 PUSH2 0x2CC2 JUMP JUMPDEST PUSH1 0x40 MLOAD DUP1 SWAP2 SUB SWAP1 REVERT JUMPDEST PUSH2 0x6EC DUP4 DUP4 PUSH2 0x1724 JUMP JUMPDEST POP POP POP JUMP JUMPDEST PUSH1 0x98 PUSH0 SWAP1 SLOAD SWAP1 PUSH2 0x100 EXP SWAP1 DIV PUSH20 0xFFFFFFFFFFFFFFFFFFFFFFFFFFFFFFFFFFFFFFFF AND PUSH20 0xFFFFFFFFFFFFFFFFFFFFFFFFFFFFFFFFFFFFFFFF AND PUSH2 0x731 PUSH2 0x171D JUMP JUMPDEST PUSH20 0xFFFFFFFFFFFFFFFFFFFFFFFFFFFFFFFFFFFFFFFF AND EQ PUSH2 0x787 JUMPI PUSH1 0x40 MLOAD PUSH32 0x8C379A000000000000000000000000000000000000000000000000000000000 DUP2 MSTORE PUSH1 0x4 ADD PUSH2 0x77E SWAP1 PUSH2 0x2D50 JUMP JUMPDEST PUSH1 0x40 MLOAD DUP1 SWAP2 SUB SWAP1 REVERT JUMPDEST DUP1 PUSH1 0x99 PUSH0 DUP5 DUP2 MSTORE PUSH1 0x20 ADD SWAP1 DUP2 MSTORE PUSH1 0x20 ADD PUSH0 KECCAK256 SWAP1 DUP2 PUSH2 0x7A5 SWAP2 SWAP1 PUSH2 0x2F0B JUMP JUMPDEST POP POP POP JUMP JUMPDEST PUSH2 0x7BB PUSH2 0x7B5 PUSH2 0x171D JUMP JUMPDEST DUP3 PUSH2 0x17DA JUMP JUMPDEST PUSH2 0x7FA JUMPI PUSH1 0x40 MLOAD PUSH32 0x8C379A000000000000000000000000000000000000000000000000000000000 DUP2 MSTORE PUSH1 0x4 ADD PUSH2 0x7F1 SWAP1 PUSH2 0x304A JUMP JUMPDEST PUSH1 0x40 MLOAD DUP1 SWAP2 SUB SWAP1 REVERT JUMPDEST PUSH2 0x805 DUP4 DUP4 DUP4 PUSH2 0x186E JUMP JUMPDEST POP POP POP JUMP JUMPDEST PUSH2 0x824 DUP4 DUP4 DUP4 PUSH1 0x40 MLOAD DUP1 PUSH1 0x20 ADD PUSH1 0x40 MSTORE DUP1 PUSH0 DUP2 MSTORE POP PUSH2 0x1223 JUMP JUMPDEST POP POP POP JUMP JUMPDEST PUSH0 DUP1 PUSH1 0x1 SWAP1 SLOAD SWAP1 PUSH2 0x100 EXP SWAP1 DIV PUSH1 0xFF AND ISZERO SWAP1 POP DUP1 DUP1 ISZERO PUSH2 0x858 JUMPI POP PUSH1 0x1 PUSH0 DUP1 SLOAD SWAP1 PUSH2 0x100 EXP SWAP1 DIV PUSH1 0xFF AND PUSH1 0xFF AND LT JUMPDEST DUP1 PUSH2 0x884 JUMPI POP PUSH2 0x867 ADDRESS PUSH2 0x1B5A JUMP JUMPDEST ISZERO DUP1 ISZERO PUSH2 0x883 JUMPI POP PUSH1 0x1 PUSH0 DUP1 SLOAD SWAP1 PUSH2 0x100 EXP SWAP1 DIV PUSH1 0xFF AND PUSH1 0xFF AND EQ JUMPDEST JUMPDEST PUSH2 0x8C3 JUMPI PUSH1 0x40 MLOAD PUSH32 0x8C379A000000000000000000000000000000000000000000000000000000000 DUP2 MSTORE PUSH1 0x4 ADD PUSH2 0x8BA SWAP1 PUSH2 0x30D8 JUMP JUMPDEST PUSH1 0x40 MLOAD DUP1 SWAP2 SUB SWAP1 REVERT JUMPDEST PUSH1 0x1 PUSH0 DUP1 PUSH2 0x100 EXP DUP2 SLOAD DUP2 PUSH1 0xFF MUL NOT AND SWAP1 DUP4 PUSH1 0xFF AND MUL OR SWAP1 SSTORE POP DUP1 ISZERO PUSH2 0x8FE JUMPI PUSH1 0x1 PUSH0 PUSH1 0x1 PUSH2 0x100 EXP DUP2 SLOAD DUP2 PUSH1 0xFF MUL NOT AND SWAP1 DUP4 ISZERO ISZERO MUL OR SWAP1 SSTORE POP JUMPDEST PUSH2 0x906 PUSH2 0x171D JUMP JUMPDEST PUSH1 0x98 PUSH0 PUSH2 0x100 EXP DUP2 SLOAD DUP2 PUSH20 0xFFFFFFFFFFFFFFFFFFFFFFFFFFFFFFFFFFFFFFFF MUL NOT AND SWAP1 DUP4 PUSH20 0xFFFFFFFFFFFFFFFFFFFFFFFFFFFFFFFFFFFFFFFF AND MUL OR SWAP1 SSTORE POP PUSH2 0x94F DUP4 DUP4 PUSH2 0x1B7C JUMP JUMPDEST DUP1 ISZERO PUSH2 0x9A7 JUMPI PUSH0 DUP1 PUSH1 0x1 PUSH2 0x100 EXP DUP2 SLOAD DUP2 PUSH1 0xFF MUL NOT AND SWAP1 DUP4 ISZERO ISZERO MUL OR SWAP1 SSTORE POP PUSH32 0x7F26B83FF96E1F2B6A682F133852F6798A09C465DA95921460CEFB3847402498 PUSH1 0x1 PUSH1 0x40 MLOAD PUSH2 0x99E SWAP2 SWAP1 PUSH2 0x313B JUMP JUMPDEST PUSH1 0x40 MLOAD DUP1 SWAP2 SUB SWAP1 LOG1 JUMPDEST POP POP POP JUMP JUMPDEST PUSH0 DUP1 PUSH2 0x9B7 DUP4 PUSH2 0x1BD8 JUMP JUMPDEST SWAP1 POP PUSH0 PUSH20 0xFFFFFFFFFFFFFFFFFFFFFFFFFFFFFFFFFFFFFFFF AND DUP2 PUSH20 0xFFFFFFFFFFFFFFFFFFFFFFFFFFFFFFFFFFFFFFFF AND SUB PUSH2 0xA27 JUMPI PUSH1 0x40 MLOAD PUSH32 0x8C379A000000000000000000000000000000000000000000000000000000000 DUP2 MSTORE PUSH1 0x4 ADD PUSH2 0xA1E SWAP1 PUSH2 0x319E JUMP JUMPDEST PUSH1 0x40 MLOAD DUP1 SWAP2 SUB SWAP1 REVERT JUMPDEST DUP1 SWAP2 POP POP SWAP2 SWAP1 POP JUMP JUMPDEST PUSH0 DUP1 PUSH20 0xFFFFFFFFFFFFFFFFFFFFFFFFFFFFFFFFFFFFFFFF AND DUP3 PUSH20 0xFFFFFFFFFFFFFFFFFFFFFFFFFFFFFFFFFFFFFFFF AND SUB PUSH2 0xA9F JUMPI PUSH1 0x40 MLOAD PUSH32 0x8C379A000000000000000000000000000000000000000000000000000000000 DUP2 MSTORE PUSH1 0x4 ADD PUSH2 0xA96 SWAP1 PUSH2 0x322C JUMP JUMPDEST PUSH1 0x40 MLOAD DUP1 SWAP2 SUB SWAP1 REVERT JUMPDEST PUSH1 0x68 PUSH0 DUP4 PUSH20 0xFFFFFFFFFFFFFFFFFFFFFFFFFFFFFFFFFFFFFFFF AND PUSH20 0xFFFFFFFFFFFFFFFFFFFFFFFFFFFFFFFFFFFFFFFF AND DUP2 MSTORE PUSH1 0x20 ADD SWAP1 DUP2 MSTORE PUSH1 0x20 ADD PUSH0 KECCAK256 SLOAD SWAP1 POP SWAP2 SWAP1 POP JUMP JUMPDEST PUSH1 0x98 PUSH0 SWAP1 SLOAD SWAP1 PUSH2 0x100 EXP SWAP1 DIV PUSH20 0xFFFFFFFFFFFFFFFFFFFFFFFFFFFFFFFFFFFFFFFF AND PUSH20 0xFFFFFFFFFFFFFFFFFFFFFFFFFFFFFFFFFFFFFFFF AND PUSH2 0xB24 PUSH2 0x171D JUMP JUMPDEST PUSH20 0xFFFFFFFFFFFFFFFFFFFFFFFFFFFFFFFFFFFFFFFF AND EQ PUSH2 0xB7A JUMPI PUSH1 0x40 MLOAD PUSH32 0x8C379A000000000000000000000000000000000000000000000000000000000 DUP2 MSTORE PUSH1 0x4 ADD PUSH2 0xB71 SWAP1 PUSH2 0x2D50 JUMP JUMPDEST PUSH1 0x40 MLOAD DUP1 SWAP2 SUB SWAP1 REVERT JUMPDEST PUSH0 PUSH20 0xFFFFFFFFFFFFFFFFFFFFFFFFFFFFFFFFFFFFFFFF AND PUSH1 0x97 PUSH0 SWAP1 SLOAD SWAP1 PUSH2 0x100 EXP SWAP1 DIV PUSH20 0xFFFFFFFFFFFFFFFFFFFFFFFFFFFFFFFFFFFFFFFF AND PUSH20 0xFFFFFFFFFFFFFFFFFFFFFFFFFFFFFFFFFFFFFFFF AND EQ PUSH2 0xC09 JUMPI PUSH1 0x40 MLOAD PUSH32 0x8C379A000000000000000000000000000000000000000000000000000000000 DUP2 MSTORE PUSH1 0x4 ADD PUSH2 0xC00 SWAP1 PUSH2 0x32BA JUMP JUMPDEST PUSH1 0x40 MLOAD DUP1 SWAP2 SUB SWAP1 REVERT JUMPDEST DUP1 PUSH1 0x97 PUSH0 PUSH2 0x100 EXP DUP2 SLOAD DUP2 PUSH20 0xFFFFFFFFFFFFFFFFFFFFFFFFFFFFFFFFFFFFFFFF MUL NOT AND SWAP1 DUP4 PUSH20 0xFFFFFFFFFFFFFFFFFFFFFFFFFFFFFFFFFFFFFFFF AND MUL OR SWAP1 SSTORE POP POP JUMP JUMPDEST PUSH1 0x98 PUSH0 SWAP1 SLOAD SWAP1 PUSH2 0x100 EXP SWAP1 DIV PUSH20 0xFFFFFFFFFFFFFFFFFFFFFFFFFFFFFFFFFFFFFFFF AND PUSH20 0xFFFFFFFFFFFFFFFFFFFFFFFFFFFFFFFFFFFFFFFF AND PUSH2 0xC8C PUSH2 0x171D JUMP JUMPDEST PUSH20 0xFFFFFFFFFFFFFFFFFFFFFFFFFFFFFFFFFFFFFFFF AND EQ PUSH2 0xCE2 JUMPI PUSH1 0x40 MLOAD PUSH32 0x8C379A000000000000000000000000000000000000000000000000000000000 DUP2 MSTORE PUSH1 0x4 ADD PUSH2 0xCD9 SWAP1 PUSH2 0x2D50 JUMP JUMPDEST PUSH1 0x40 MLOAD DUP1 SWAP2 SUB SWAP1 REVERT JUMPDEST PUSH1 0x97 PUSH0 SWAP1 SLOAD SWAP1 PUSH2 0x100 EXP SWAP1 DIV PUSH20 0xFFFFFFFFFFFFFFFFFFFFFFFFFFFFFFFFFFFFFFFF AND PUSH20 0xFFFFFFFFFFFFFFFFFFFFFFFFFFFFFFFFFFFFFFFF AND PUSH4 0x8D2110C2 DUP4 DUP4 PUSH1 0x40 MLOAD DUP4 PUSH4 0xFFFFFFFF AND PUSH1 0xE0 SHL DUP2 MSTORE PUSH1 0x4 ADD PUSH2 0xD3E SWAP3 SWAP2 SWAP1 PUSH2 0x32D8 JUMP JUMPDEST PUSH0 PUSH1 0x40 MLOAD DUP1 DUP4 SUB DUP2 PUSH0 DUP8 DUP1 EXTCODESIZE ISZERO DUP1 ISZERO PUSH2 0xD55 JUMPI PUSH0 DUP1 REVERT JUMPDEST POP GAS CALL ISZERO DUP1 ISZERO PUSH2 0xD67 JUMPI RETURNDATASIZE PUSH0 DUP1 RETURNDATACOPY RETURNDATASIZE PUSH0 REVERT JUMPDEST POP POP POP POP POP POP JUMP JUMPDEST PUSH1 0x60 PUSH1 0x66 DUP1 SLOAD PUSH2 0xD7E SWAP1 PUSH2 0x2B94 JUMP JUMPDEST DUP1 PUSH1 0x1F ADD PUSH1 0x20 DUP1 SWAP2 DIV MUL PUSH1 0x20 ADD PUSH1 0x40 MLOAD SWAP1 DUP2 ADD PUSH1 0x40 MSTORE DUP1 SWAP3 SWAP2 SWAP1 DUP2 DUP2 MSTORE PUSH1 0x20 ADD DUP3 DUP1 SLOAD PUSH2 0xDAA SWAP1 PUSH2 0x2B94 JUMP JUMPDEST DUP1 ISZERO PUSH2 0xDF5 JUMPI DUP1 PUSH1 0x1F LT PUSH2 0xDCC JUMPI PUSH2 0x100 DUP1 DUP4 SLOAD DIV MUL DUP4 MSTORE SWAP2 PUSH1 0x20 ADD SWAP2 PUSH2 0xDF5 JUMP JUMPDEST DUP3 ADD SWAP2 SWAP1 PUSH0 MSTORE PUSH1 0x20 PUSH0 KECCAK256 SWAP1 JUMPDEST DUP2 SLOAD DUP2 MSTORE SWAP1 PUSH1 0x1 ADD SWAP1 PUSH1 0x20 ADD DUP1 DUP4 GT PUSH2 0xDD8 JUMPI DUP3 SWAP1 SUB PUSH1 0x1F AND DUP3 ADD SWAP2 JUMPDEST POP POP POP POP POP SWAP1 POP SWAP1 JUMP JUMPDEST PUSH1 0x98 PUSH0 SWAP1 SLOAD SWAP1 PUSH2 0x100 EXP SWAP1 DIV PUSH20 0xFFFFFFFFFFFFFFFFFFFFFFFFFFFFFFFFFFFFFFFF AND PUSH20 0xFFFFFFFFFFFFFFFFFFFFFFFFFFFFFFFFFFFFFFFF AND PUSH2 0xE3F PUSH2 0x171D JUMP JUMPDEST PUSH20 0xFFFFFFFFFFFFFFFFFFFFFFFFFFFFFFFFFFFFFFFF AND EQ PUSH2 0xE95 JUMPI PUSH1 0x40 MLOAD PUSH32 0x8C379A000000000000000000000000000000000000000000000000000000000 DUP2 MSTORE PUSH1 0x4 ADD PUSH2 0xE8C SWAP1 PUSH2 0x2D50 JUMP JUMPDEST PUSH1 0x40 MLOAD DUP1 SWAP2 SUB SWAP1 REVERT JUMPDEST PUSH1 0x9A PUSH0 DUP6 DUP2 MSTORE PUSH1 0x20 ADD SWAP1 DUP2 MSTORE PUSH1 0x20 ADD PUSH0 KECCAK256 PUSH1 0x3 ADD PUSH0 SWAP1 SLOAD SWAP1 PUSH2 0x100 EXP SWAP1 DIV PUSH1 0xFF AND PUSH2 0xEF5 JUMPI PUSH1 0x40 MLOAD PUSH32 0x8C379A000000000000000000000000000000000000000000000000000000000 DUP2 MSTORE PUSH1 0x4 ADD PUSH2 0xEEC SWAP1 PUSH2 0x3349 JUMP JUMPDEST PUSH1 0x40 MLOAD DUP1 SWAP2 SUB SWAP1 REVERT JUMPDEST PUSH0 PUSH1 0x97 PUSH0 SWAP1 SLOAD SWAP1 PUSH2 0x100 EXP SWAP1 DIV PUSH20 0xFFFFFFFFFFFFFFFFFFFFFFFFFFFFFFFFFFFFFFFF AND PUSH20 0xFFFFFFFFFFFFFFFFFFFFFFFFFFFFFFFFFFFFFFFF AND PUSH4 0x830F11BF DUP8 DUP8 DUP8 DUP8 DUP8 PUSH1 0x40 MLOAD DUP7 PUSH4 0xFFFFFFFF AND PUSH1 0xE0 SHL DUP2 MSTORE PUSH1 0x4 ADD PUSH2 0xF58 SWAP6 SWAP5 SWAP4 SWAP3 SWAP2 SWAP1 PUSH2 0x3367 JUMP JUMPDEST PUSH1 0x20 PUSH1 0x40 MLOAD DUP1 DUP4 SUB DUP2 PUSH0 DUP8 GAS CALL ISZERO DUP1 ISZERO PUSH2 0xF74 JUMPI RETURNDATASIZE PUSH0 DUP1 RETURNDATACOPY RETURNDATASIZE PUSH0 REVERT JUMPDEST POP POP POP POP PUSH1 0x40 MLOAD RETURNDATASIZE PUSH1 0x1F NOT PUSH1 0x1F DUP3 ADD AND DUP3 ADD DUP1 PUSH1 0x40 MSTORE POP DUP2 ADD SWAP1 PUSH2 0xF98 SWAP2 SWAP1 PUSH2 0x33D3 JUMP JUMPDEST SWAP1 POP DUP1 ISZERO PUSH2 0xFCA JUMPI PUSH1 0x9A PUSH0 DUP7 DUP2 MSTORE PUSH1 0x20 ADD SWAP1 DUP2 MSTORE PUSH1 0x20 ADD PUSH0 KECCAK256 PUSH1 0x1 ADD PUSH0 DUP2 SLOAD DUP1 SWAP3 SWAP2 SWAP1 PUSH2 0xFC4 SWAP1 PUSH2 0x342B JUMP JUMPDEST SWAP2 SWAP1 POP SSTORE POP JUMPDEST PUSH1 0x9A PUSH0 DUP7 DUP2 MSTORE PUSH1 0x20 ADD SWAP1 DUP2 MSTORE PUSH1 0x20 ADD PUSH0 KECCAK256 PUSH0 ADD PUSH0 DUP2 SLOAD DUP1 SWAP3 SWAP2 SWAP1 PUSH2 0xFED SWAP1 PUSH2 0x342B JUMP JUMPDEST SWAP2 SWAP1 POP SSTORE POP POP POP POP POP POP POP JUMP JUMPDEST PUSH2 0x100C PUSH2 0x1005 PUSH2 0x171D JUMP JUMPDEST DUP4 DUP4 PUSH2 0x1C11 JUMP JUMPDEST POP POP JUMP JUMPDEST PUSH1 0x98 PUSH0 SWAP1 SLOAD SWAP1 PUSH2 0x100 EXP SWAP1 DIV PUSH20 0xFFFFFFFFFFFFFFFFFFFFFFFFFFFFFFFFFFFFFFFF AND PUSH20 0xFFFFFFFFFFFFFFFFFFFFFFFFFFFFFFFFFFFFFFFF AND PUSH2 0x1050 PUSH2 0x171D JUMP JUMPDEST PUSH20 0xFFFFFFFFFFFFFFFFFFFFFFFFFFFFFFFFFFFFFFFF AND EQ PUSH2 0x10A6 JUMPI PUSH1 0x40 MLOAD PUSH32 0x8C379A000000000000000000000000000000000000000000000000000000000 DUP2 MSTORE PUSH1 0x4 ADD PUSH2 0x109D SWAP1 PUSH2 0x2D50 JUMP JUMPDEST PUSH1 0x40 MLOAD DUP1 SWAP2 SUB SWAP1 REVERT JUMPDEST PUSH1 0x97 PUSH0 SWAP1 SLOAD SWAP1 PUSH2 0x100 EXP SWAP1 DIV PUSH20 0xFFFFFFFFFFFFFFFFFFFFFFFFFFFFFFFFFFFFFFFF AND PUSH20 0xFFFFFFFFFFFFFFFFFFFFFFFFFFFFFFFFFFFFFFFF AND PUSH4 0xBB43724 DUP4 DUP4 PUSH1 0x40 MLOAD DUP4 PUSH4 0xFFFFFFFF AND PUSH1 0xE0 SHL DUP2 MSTORE PUSH1 0x4 ADD PUSH2 0x1102 SWAP3 SWAP2 SWAP1 PUSH2 0x3472 JUMP JUMPDEST PUSH0 PUSH1 0x40 MLOAD DUP1 DUP4 SUB DUP2 PUSH0 DUP8 DUP1 EXTCODESIZE ISZERO DUP1 ISZERO PUSH2 0x1119 JUMPI PUSH0 DUP1 REVERT JUMPDEST POP GAS CALL ISZERO DUP1 ISZERO PUSH2 0x112B JUMPI RETURNDATASIZE PUSH0 DUP1 RETURNDATACOPY RETURNDATASIZE PUSH0 REVERT JUMPDEST POP POP POP POP POP POP JUMP JUMPDEST PUSH1 0x98 PUSH0 SWAP1 SLOAD SWAP1 PUSH2 0x100 EXP SWAP1 DIV PUSH20 0xFFFFFFFFFFFFFFFFFFFFFFFFFFFFFFFFFFFFFFFF AND PUSH20 0xFFFFFFFFFFFFFFFFFFFFFFFFFFFFFFFFFFFFFFFF AND PUSH2 0x1173 PUSH2 0x171D JUMP JUMPDEST PUSH20 0xFFFFFFFFFFFFFFFFFFFFFFFFFFFFFFFFFFFFFFFF AND EQ PUSH2 0x11C9 JUMPI PUSH1 0x40 MLOAD PUSH32 0x8C379A000000000000000000000000000000000000000000000000000000000 DUP2 MSTORE PUSH1 0x4 ADD PUSH2 0x11C0 SWAP1 PUSH2 0x2D50 JUMP JUMPDEST PUSH1 0x40 MLOAD DUP1 SWAP2 SUB SWAP1 REVERT JUMPDEST PUSH2 0x11D3 DUP5 DUP5 PUSH2 0x1D78 JUMP JUMPDEST DUP1 PUSH1 0x9A PUSH0 DUP6 DUP2 MSTORE PUSH1 0x20 ADD SWAP1 DUP2 MSTORE PUSH1 0x20 ADD PUSH0 KECCAK256 PUSH1 0x3 ADD PUSH0 PUSH2 0x100 EXP DUP2 SLOAD DUP2 PUSH1 0xFF MUL NOT AND SWAP1 DUP4 ISZERO ISZERO MUL OR SWAP1 SSTORE POP DUP2 PUSH1 0x99 PUSH0 DUP6 DUP2 MSTORE PUSH1 0x20 ADD SWAP1 DUP2 MSTORE PUSH1 0x20 ADD PUSH0 KECCAK256 SWAP1 DUP2 PUSH2 0x121C SWAP2 SWAP1 PUSH2 0x2F0B JUMP JUMPDEST POP POP POP POP POP JUMP JUMPDEST PUSH2 0x1234 PUSH2 0x122E PUSH2 0x171D JUMP JUMPDEST DUP4 PUSH2 0x17DA JUMP JUMPDEST PUSH2 0x1273 JUMPI PUSH1 0x40 MLOAD PUSH32 0x8C379A000000000000000000000000000000000000000000000000000000000 DUP2 MSTORE PUSH1 0x4 ADD PUSH2 0x126A SWAP1 PUSH2 0x304A JUMP JUMPDEST PUSH1 0x40 MLOAD DUP1 SWAP2 SUB SWAP1 REVERT JUMPDEST PUSH2 0x127F DUP5 DUP5 DUP5 DUP5 PUSH2 0x1D95 JUMP JUMPDEST POP POP POP POP JUMP JUMPDEST PUSH1 0x98 PUSH0 SWAP1 SLOAD SWAP1 PUSH2 0x100 EXP SWAP1 DIV PUSH20 0xFFFFFFFFFFFFFFFFFFFFFFFFFFFFFFFFFFFFFFFF AND PUSH20 0xFFFFFFFFFFFFFFFFFFFFFFFFFFFFFFFFFFFFFFFF AND PUSH2 0x12C5 PUSH2 0x171D JUMP JUMPDEST PUSH20 0xFFFFFFFFFFFFFFFFFFFFFFFFFFFFFFFFFFFFFFFF AND EQ PUSH2 0x131B JUMPI PUSH1 0x40 MLOAD PUSH32 0x8C379A000000000000000000000000000000000000000000000000000000000 DUP2 MSTORE PUSH1 0x4 ADD PUSH2 0x1312 SWAP1 PUSH2 0x2D50 JUMP JUMPDEST PUSH1 0x40 MLOAD DUP1 SWAP2 SUB SWAP1 REVERT JUMPDEST PUSH1 0x97 PUSH0 SWAP1 SLOAD SWAP1 PUSH2 0x100 EXP SWAP1 DIV PUSH20 0xFFFFFFFFFFFFFFFFFFFFFFFFFFFFFFFFFFFFFFFF AND PUSH20 0xFFFFFFFFFFFFFFFFFFFFFFFFFFFFFFFFFFFFFFFF AND PUSH4 0xBFCFB52C DUP4 DUP4 PUSH1 0x40 MLOAD DUP4 PUSH4 0xFFFFFFFF AND PUSH1 0xE0 SHL DUP2 MSTORE PUSH1 0x4 ADD PUSH2 0x1377 SWAP3 SWAP2 SWAP1 PUSH2 0x34A0 JUMP JUMPDEST PUSH0 PUSH1 0x40 MLOAD DUP1 DUP4 SUB DUP2 PUSH0 DUP8 DUP1 EXTCODESIZE ISZERO DUP1 ISZERO PUSH2 0x138E JUMPI PUSH0 DUP1 REVERT JUMPDEST POP GAS CALL ISZERO DUP1 ISZERO PUSH2 0x13A0 JUMPI RETURNDATASIZE PUSH0 DUP1 RETURNDATACOPY RETURNDATASIZE PUSH0 REVERT JUMPDEST POP POP POP POP PUSH1 0x9A PUSH0 PUSH1 0x97 PUSH0 SWAP1 SLOAD SWAP1 PUSH2 0x100 EXP SWAP1 DIV PUSH20 0xFFFFFFFFFFFFFFFFFFFFFFFFFFFFFFFFFFFFFFFF AND PUSH20 0xFFFFFFFFFFFFFFFFFFFFFFFFFFFFFFFFFFFFFFFF AND PUSH4 0x8167AC53 DUP5 PUSH1 0x40 MLOAD DUP3 PUSH4 0xFFFFFFFF AND PUSH1 0xE0 SHL DUP2 MSTORE PUSH1 0x4 ADD PUSH2 0x1401 SWAP2 SWAP1 PUSH2 0x27FB JUMP JUMPDEST PUSH1 0x60 PUSH1 0x40 MLOAD DUP1 DUP4 SUB DUP2 DUP7 GAS STATICCALL ISZERO DUP1 ISZERO PUSH2 0x141C JUMPI RETURNDATASIZE PUSH0 DUP1 RETURNDATACOPY RETURNDATASIZE PUSH0 REVERT JUMPDEST POP POP POP POP PUSH1 0x40 MLOAD RETURNDATASIZE PUSH1 0x1F NOT PUSH1 0x1F DUP3 ADD AND DUP3 ADD DUP1 PUSH1 0x40 MSTORE POP DUP2 ADD SWAP1 PUSH2 0x1440 SWAP2 SWAP1 PUSH2 0x3540 JUMP JUMPDEST PUSH0 ADD MLOAD DUP2 MSTORE PUSH1 0x20 ADD SWAP1 DUP2 MSTORE PUSH1 0x20 ADD PUSH0 KECCAK256 PUSH1 0x2 ADD PUSH0 DUP2 SLOAD DUP1 SWAP3 SWAP2 SWAP1 PUSH2 0x1463 SWAP1 PUSH2 0x342B JUMP JUMPDEST SWAP2 SWAP1 POP SSTORE POP POP POP JUMP JUMPDEST PUSH1 0x98 PUSH0 SWAP1 SLOAD SWAP1 PUSH2 0x100 EXP SWAP1 DIV PUSH20 0xFFFFFFFFFFFFFFFFFFFFFFFFFFFFFFFFFFFFFFFF AND PUSH20 0xFFFFFFFFFFFFFFFFFFFFFFFFFFFFFFFFFFFFFFFF AND PUSH2 0x14AC PUSH2 0x171D JUMP JUMPDEST PUSH20 0xFFFFFFFFFFFFFFFFFFFFFFFFFFFFFFFFFFFFFFFF AND EQ PUSH2 0x1502 JUMPI PUSH1 0x40 MLOAD PUSH32 0x8C379A000000000000000000000000000000000000000000000000000000000 DUP2 MSTORE PUSH1 0x4 ADD PUSH2 0x14F9 SWAP1 PUSH2 0x2D50 JUMP JUMPDEST PUSH1 0x40 MLOAD DUP1 SWAP2 SUB SWAP1 REVERT JUMPDEST DUP1 PUSH1 0x9A PUSH0 DUP5 DUP2 MSTORE PUSH1 0x20 ADD SWAP1 DUP2 MSTORE PUSH1 0x20 ADD PUSH0 KECCAK256 PUSH1 0x3 ADD PUSH0 PUSH2 0x100 EXP DUP2 SLOAD DUP2 PUSH1 0xFF MUL NOT AND SWAP1 DUP4 ISZERO ISZERO MUL OR SWAP1 SSTORE POP POP POP JUMP JUMPDEST PUSH1 0x60 PUSH2 0x153C DUP3 PUSH2 0x1DF1 JUMP JUMPDEST PUSH1 0x99 PUSH0 DUP4 DUP2 MSTORE PUSH1 0x20 ADD SWAP1 DUP2 MSTORE PUSH1 0x20 ADD PUSH0 KECCAK256 DUP1 SLOAD PUSH2 0x1558 SWAP1 PUSH2 0x2B94 JUMP JUMPDEST DUP1 PUSH1 0x1F ADD PUSH1 0x20 DUP1 SWAP2 DIV MUL PUSH1 0x20 ADD PUSH1 0x40 MLOAD SWAP1 DUP2 ADD PUSH1 0x40 MSTORE DUP1 SWAP3 SWAP2 SWAP1 DUP2 DUP2 MSTORE PUSH1 0x20 ADD DUP3 DUP1 SLOAD PUSH2 0x1584 SWAP1 PUSH2 0x2B94 JUMP JUMPDEST DUP1 ISZERO PUSH2 0x15CF JUMPI DUP1 PUSH1 0x1F LT PUSH2 0x15A6 JUMPI PUSH2 0x100 DUP1 DUP4 SLOAD DIV MUL DUP4 MSTORE SWAP2 PUSH1 0x20 ADD SWAP2 PUSH2 0x15CF JUMP JUMPDEST DUP3 ADD SWAP2 SWAP1 PUSH0 MSTORE PUSH1 0x20 PUSH0 KECCAK256 SWAP1 JUMPDEST DUP2 SLOAD DUP2 MSTORE SWAP1 PUSH1 0x1 ADD SWAP1 PUSH1 0x20 ADD DUP1 DUP4 GT PUSH2 0x15B2 JUMPI DUP3 SWAP1 SUB PUSH1 0x1F AND DUP3 ADD SWAP2 JUMPDEST POP POP POP POP POP SWAP1 POP SWAP2 SWAP1 POP JUMP JUMPDEST PUSH0 PUSH1 0x6A PUSH0 DUP5 PUSH20 0xFFFFFFFFFFFFFFFFFFFFFFFFFFFFFFFFFFFFFFFF AND PUSH20 0xFFFFFFFFFFFFFFFFFFFFFFFFFFFFFFFFFFFFFFFF AND DUP2 MSTORE PUSH1 0x20 ADD SWAP1 DUP2 MSTORE PUSH1 0x20 ADD PUSH0 KECCAK256 PUSH0 DUP4 PUSH20 0xFFFFFFFFFFFFFFFFFFFFFFFFFFFFFFFFFFFFFFFF AND PUSH20 0xFFFFFFFFFFFFFFFFFFFFFFFFFFFFFFFFFFFFFFFF AND DUP2 MSTORE PUSH1 0x20 ADD SWAP1 DUP2 MSTORE PUSH1 0x20 ADD PUSH0 KECCAK256 PUSH0 SWAP1 SLOAD SWAP1 PUSH2 0x100 EXP SWAP1 DIV PUSH1 0xFF AND SWAP1 POP SWAP3 SWAP2 POP POP JUMP JUMPDEST PUSH0 PUSH32 0x1FFC9A700000000000000000000000000000000000000000000000000000000 PUSH28 0xFFFFFFFFFFFFFFFFFFFFFFFFFFFFFFFFFFFFFFFFFFFFFFFFFFFFFFFF NOT AND DUP3 PUSH28 0xFFFFFFFFFFFFFFFFFFFFFFFFFFFFFFFFFFFFFFFFFFFFFFFFFFFFFFFF NOT AND EQ SWAP1 POP SWAP2 SWAP1 POP JUMP JUMPDEST PUSH2 0x16DB DUP2 PUSH2 0x1E3C JUMP JUMPDEST PUSH2 0x171A JUMPI PUSH1 0x40 MLOAD PUSH32 0x8C379A000000000000000000000000000000000000000000000000000000000 DUP2 MSTORE PUSH1 0x4 ADD PUSH2 0x1711 SWAP1 PUSH2 0x319E JUMP JUMPDEST PUSH1 0x40 MLOAD DUP1 SWAP2 SUB SWAP1 REVERT JUMPDEST POP JUMP JUMPDEST PUSH0 CALLER SWAP1 POP SWAP1 JUMP JUMPDEST DUP2 PUSH1 0x69 PUSH0 DUP4 DUP2 MSTORE PUSH1 0x20 ADD SWAP1 DUP2 MSTORE PUSH1 0x20 ADD PUSH0 KECCAK256 PUSH0 PUSH2 0x100 EXP DUP2 SLOAD DUP2 PUSH20 0xFFFFFFFFFFFFFFFFFFFFFFFFFFFFFFFFFFFFFFFF MUL NOT AND SWAP1 DUP4 PUSH20 0xFFFFFFFFFFFFFFFFFFFFFFFFFFFFFFFFFFFFFFFF AND MUL OR SWAP1 SSTORE POP DUP1 DUP3 PUSH20 0xFFFFFFFFFFFFFFFFFFFFFFFFFFFFFFFFFFFFFFFF AND PUSH2 0x1794 DUP4 PUSH2 0x9AC JUMP JUMPDEST PUSH20 0xFFFFFFFFFFFFFFFFFFFFFFFFFFFFFFFFFFFFFFFF AND PUSH32 0x8C5BE1E5EBEC7D5BD14F71427D1E84F3DD0314C0F7B2291E5B200AC8C7C3B925 PUSH1 0x40 MLOAD PUSH1 0x40 MLOAD DUP1 SWAP2 SUB SWAP1 LOG4 POP POP JUMP JUMPDEST PUSH0 DUP1 PUSH2 0x17E5 DUP4 PUSH2 0x9AC JUMP JUMPDEST SWAP1 POP DUP1 PUSH20 0xFFFFFFFFFFFFFFFFFFFFFFFFFFFFFFFFFFFFFFFF AND DUP5 PUSH20 0xFFFFFFFFFFFFFFFFFFFFFFFFFFFFFFFFFFFFFFFF AND EQ DUP1 PUSH2 0x1827 JUMPI POP PUSH2 0x1826 DUP2 DUP6 PUSH2 0x15DB JUMP JUMPDEST JUMPDEST DUP1 PUSH2 0x1865 JUMPI POP DUP4 PUSH20 0xFFFFFFFFFFFFFFFFFFFFFFFFFFFFFFFFFFFFFFFF AND PUSH2 0x184D DUP5 PUSH2 0x599 JUMP JUMPDEST PUSH20 0xFFFFFFFFFFFFFFFFFFFFFFFFFFFFFFFFFFFFFFFF AND EQ JUMPDEST SWAP2 POP POP SWAP3 SWAP2 POP POP JUMP JUMPDEST DUP3 PUSH20 0xFFFFFFFFFFFFFFFFFFFFFFFFFFFFFFFFFFFFFFFF AND PUSH2 0x188E DUP3 PUSH2 0x9AC JUMP JUMPDEST PUSH20 0xFFFFFFFFFFFFFFFFFFFFFFFFFFFFFFFFFFFFFFFF AND EQ PUSH2 0x18E4 JUMPI PUSH1 0x40 MLOAD PUSH32 0x8C379A000000000000000000000000000000000000000000000000000000000 DUP2 MSTORE PUSH1 0x4 ADD PUSH2 0x18DB SWAP1 PUSH2 0x35DB JUMP JUMPDEST PUSH1 0x40 MLOAD DUP1 SWAP2 SUB SWAP1 REVERT JUMPDEST PUSH0 PUSH20 0xFFFFFFFFFFFFFFFFFFFFFFFFFFFFFFFFFFFFFFFF AND DUP3 PUSH20 0xFFFFFFFFFFFFFFFFFFFFFFFFFFFFFFFFFFFFFFFF AND SUB PUSH2 0x1952 JUMPI PUSH1 0x40 MLOAD PUSH32 0x8C379A000000000000000000000000000000000000000000000000000000000 DUP2 MSTORE PUSH1 0x4 ADD PUSH2 0x1949 SWAP1 PUSH2 0x3669 JUMP JUMPDEST PUSH1 0x40 MLOAD DUP1 SWAP2 SUB SWAP1 REVERT JUMPDEST PUSH2 0x195F DUP4 DUP4 DUP4 PUSH1 0x1 PUSH2 0x1E7C JUMP JUMPDEST DUP3 PUSH20 0xFFFFFFFFFFFFFFFFFFFFFFFFFFFFFFFFFFFFFFFF AND PUSH2 0x197F DUP3 PUSH2 0x9AC JUMP JUMPDEST PUSH20 0xFFFFFFFFFFFFFFFFFFFFFFFFFFFFFFFFFFFFFFFF AND EQ PUSH2 0x19D5 JUMPI PUSH1 0x40 MLOAD PUSH32 0x8C379A000000000000000000000000000000000000000000000000000000000 DUP2 MSTORE PUSH1 0x4 ADD PUSH2 0x19CC SWAP1 PUSH2 0x35DB JUMP JUMPDEST PUSH1 0x40 MLOAD DUP1 SWAP2 SUB SWAP1 REVERT JUMPDEST PUSH1 0x69 PUSH0 DUP3 DUP2 MSTORE PUSH1 0x20 ADD SWAP1 DUP2 MSTORE PUSH1 0x20 ADD PUSH0 KECCAK256 PUSH0 PUSH2 0x100 EXP DUP2 SLOAD SWAP1 PUSH20 0xFFFFFFFFFFFFFFFFFFFFFFFFFFFFFFFFFFFFFFFF MUL NOT AND SWAP1 SSTORE PUSH1 0x1 PUSH1 0x68 PUSH0 DUP6 PUSH20 0xFFFFFFFFFFFFFFFFFFFFFFFFFFFFFFFFFFFFFFFF AND PUSH20 0xFFFFFFFFFFFFFFFFFFFFFFFFFFFFFFFFFFFFFFFF AND DUP2 MSTORE PUSH1 0x20 ADD SWAP1 DUP2 MSTORE PUSH1 0x20 ADD PUSH0 KECCAK256 PUSH0 DUP3 DUP3 SLOAD SUB SWAP3 POP POP DUP2 SWAP1 SSTORE POP PUSH1 0x1 PUSH1 0x68 PUSH0 DUP5 PUSH20 0xFFFFFFFFFFFFFFFFFFFFFFFFFFFFFFFFFFFFFFFF AND PUSH20 0xFFFFFFFFFFFFFFFFFFFFFFFFFFFFFFFFFFFFFFFF AND DUP2 MSTORE PUSH1 0x20 ADD SWAP1 DUP2 MSTORE PUSH1 0x20 ADD PUSH0 KECCAK256 PUSH0 DUP3 DUP3 SLOAD ADD SWAP3 POP POP DUP2 SWAP1 SSTORE POP DUP2 PUSH1 0x67 PUSH0 DUP4 DUP2 MSTORE PUSH1 0x20 ADD SWAP1 DUP2 MSTORE PUSH1 0x20 ADD PUSH0 KECCAK256 PUSH0 PUSH2 0x100 EXP DUP2 SLOAD DUP2 PUSH20 0xFFFFFFFFFFFFFFFFFFFFFFFFFFFFFFFFFFFFFFFF MUL NOT AND SWAP1 DUP4 PUSH20 0xFFFFFFFFFFFFFFFFFFFFFFFFFFFFFFFFFFFFFFFF AND MUL OR SWAP1 SSTORE POP DUP1 DUP3 PUSH20 0xFFFFFFFFFFFFFFFFFFFFFFFFFFFFFFFFFFFFFFFF AND DUP5 PUSH20 0xFFFFFFFFFFFFFFFFFFFFFFFFFFFFFFFFFFFFFFFF AND PUSH32 0xDDF252AD1BE2C89B69C2B068FC378DAA952BA7F163C4A11628F55A4DF523B3EF PUSH1 0x40 MLOAD PUSH1 0x40 MLOAD DUP1 SWAP2 SUB SWAP1 LOG4 PUSH2 0x1B55 DUP4 DUP4 DUP4 PUSH1 0x1 PUSH2 0x1E82 JUMP JUMPDEST POP POP POP JUMP JUMPDEST PUSH0 DUP1 DUP3 PUSH20 0xFFFFFFFFFFFFFFFFFFFFFFFFFFFFFFFFFFFFFFFF AND EXTCODESIZE GT SWAP1 POP SWAP2 SWAP1 POP JUMP JUMPDEST PUSH0 PUSH1 0x1 SWAP1 SLOAD SWAP1 PUSH2 0x100 EXP SWAP1 DIV PUSH1 0xFF AND PUSH2 0x1BCA JUMPI PUSH1 0x40 MLOAD PUSH32 0x8C379A000000000000000000000000000000000000000000000000000000000 DUP2 MSTORE PUSH1 0x4 ADD PUSH2 0x1BC1 SWAP1 PUSH2 0x36F7 JUMP JUMPDEST PUSH1 0x40 MLOAD DUP1 SWAP2 SUB SWAP1 REVERT JUMPDEST PUSH2 0x1BD4 DUP3 DUP3 PUSH2 0x1E88 JUMP JUMPDEST POP POP JUMP JUMPDEST PUSH0 PUSH1 0x67 PUSH0 DUP4 DUP2 MSTORE PUSH1 0x20 ADD SWAP1 DUP2 MSTORE PUSH1 0x20 ADD PUSH0 KECCAK256 PUSH0 SWAP1 SLOAD SWAP1 PUSH2 0x100 EXP SWAP1 DIV PUSH20 0xFFFFFFFFFFFFFFFFFFFFFFFFFFFFFFFFFFFFFFFF AND SWAP1 POP SWAP2 SWAP1 POP JUMP JUMPDEST DUP2 PUSH20 0xFFFFFFFFFFFFFFFFFFFFFFFFFFFFFFFFFFFFFFFF AND DUP4 PUSH20 0xFFFFFFFFFFFFFFFFFFFFFFFFFFFFFFFFFFFFFFFF AND SUB PUSH2 0x1C7F JUMPI PUSH1 0x40 MLOAD PUSH32 0x8C379A000000000000000000000000000000000000000000000000000000000 DUP2 MSTORE PUSH1 0x4 ADD PUSH2 0x1C76 SWAP1 PUSH2 0x375F JUMP JUMPDEST PUSH1 0x40 MLOAD DUP1 SWAP2 SUB SWAP1 REVERT JUMPDEST DUP1 PUSH1 0x6A PUSH0 DUP6 PUSH20 0xFFFFFFFFFFFFFFFFFFFFFFFFFFFFFFFFFFFFFFFF AND PUSH20 0xFFFFFFFFFFFFFFFFFFFFFFFFFFFFFFFFFFFFFFFF AND DUP2 MSTORE PUSH1 0x20 ADD SWAP1 DUP2 MSTORE PUSH1 0x20 ADD PUSH0 KECCAK256 PUSH0 DUP5 PUSH20 0xFFFFFFFFFFFFFFFFFFFFFFFFFFFFFFFFFFFFFFFF AND PUSH20 0xFFFFFFFFFFFFFFFFFFFFFFFFFFFFFFFFFFFFFFFF AND DUP2 MSTORE PUSH1 0x20 ADD SWAP1 DUP2 MSTORE PUSH1 0x20 ADD PUSH0 KECCAK256 PUSH0 PUSH2 0x100 EXP DUP2 SLOAD DUP2 PUSH1 0xFF MUL NOT AND SWAP1 DUP4 ISZERO ISZERO MUL OR SWAP1 SSTORE POP DUP2 PUSH20 0xFFFFFFFFFFFFFFFFFFFFFFFFFFFFFFFFFFFFFFFF AND DUP4 PUSH20 0xFFFFFFFFFFFFFFFFFFFFFFFFFFFFFFFFFFFFFFFF AND PUSH32 0x17307EAB39AB6107E8899845AD3D59BD9653F200F220920489CA2B5937696C31 DUP4 PUSH1 0x40 MLOAD PUSH2 0x1D6B SWAP2 SWAP1 PUSH2 0x2394 JUMP JUMPDEST PUSH1 0x40 MLOAD DUP1 SWAP2 SUB SWAP1 LOG3 POP POP POP JUMP JUMPDEST PUSH2 0x1D91 DUP3 DUP3 PUSH1 0x40 MLOAD DUP1 PUSH1 0x20 ADD PUSH1 0x40 MSTORE DUP1 PUSH0 DUP2 MSTORE POP PUSH2 0x1EFA JUMP JUMPDEST POP POP JUMP JUMPDEST PUSH2 0x1DA0 DUP5 DUP5 DUP5 PUSH2 0x186E JUMP JUMPDEST PUSH2 0x1DAC DUP5 DUP5 DUP5 DUP5 PUSH2 0x1F54 JUMP JUMPDEST PUSH2 0x1DEB JUMPI PUSH1 0x40 MLOAD PUSH32 0x8C379A000000000000000000000000000000000000000000000000000000000 DUP2 MSTORE PUSH1 0x4 ADD PUSH2 0x1DE2 SWAP1 PUSH2 0x37ED JUMP JUMPDEST PUSH1 0x40 MLOAD DUP1 SWAP2 SUB SWAP1 REVERT JUMPDEST POP POP POP POP JUMP JUMPDEST PUSH2 0x1DFA DUP2 PUSH2 0x1E3C JUMP JUMPDEST PUSH2 0x1E39 JUMPI PUSH1 0x40 MLOAD PUSH32 0x8C379A000000000000000000000000000000000000000000000000000000000 DUP2 MSTORE PUSH1 0x4 ADD PUSH2 0x1E30 SWAP1 PUSH2 0x3855 JUMP JUMPDEST PUSH1 0x40 MLOAD DUP1 SWAP2 SUB SWAP1 REVERT JUMPDEST POP JUMP JUMPDEST PUSH0 DUP1 PUSH20 0xFFFFFFFFFFFFFFFFFFFFFFFFFFFFFFFFFFFFFFFF AND PUSH2 0x1E5D DUP4 PUSH2 0x1BD8 JUMP JUMPDEST PUSH20 0xFFFFFFFFFFFFFFFFFFFFFFFFFFFFFFFFFFFFFFFF AND EQ ISZERO SWAP1 POP SWAP2 SWAP1 POP JUMP JUMPDEST POP POP POP POP JUMP JUMPDEST POP POP POP POP JUMP JUMPDEST PUSH0 PUSH1 0x1 SWAP1 SLOAD SWAP1 PUSH2 0x100 EXP SWAP1 DIV PUSH1 0xFF AND PUSH2 0x1ED6 JUMPI PUSH1 0x40 MLOAD PUSH32 0x8C379A000000000000000000000000000000000000000000000000000000000 DUP2 MSTORE PUSH1 0x4 ADD PUSH2 0x1ECD SWAP1 PUSH2 0x36F7 JUMP JUMPDEST PUSH1 0x40 MLOAD DUP1 SWAP2 SUB SWAP1 REVERT JUMPDEST DUP2 PUSH1 0x65 SWAP1 DUP2 PUSH2 0x1EE5 SWAP2 SWAP1 PUSH2 0x2F0B JUMP JUMPDEST POP DUP1 PUSH1 0x66 SWAP1 DUP2 PUSH2 0x1EF5 SWAP2 SWAP1 PUSH2 0x2F0B JUMP JUMPDEST POP POP POP JUMP JUMPDEST PUSH2 0x1F04 DUP4 DUP4 PUSH2 0x20D6 JUMP JUMPDEST PUSH2 0x1F10 PUSH0 DUP5 DUP5 DUP5 PUSH2 0x1F54 JUMP JUMPDEST PUSH2 0x1F4F JUMPI PUSH1 0x40 MLOAD PUSH32 0x8C379A000000000000000000000000000000000000000000000000000000000 DUP2 MSTORE PUSH1 0x4 ADD PUSH2 0x1F46 SWAP1 PUSH2 0x37ED JUMP JUMPDEST PUSH1 0x40 MLOAD DUP1 SWAP2 SUB SWAP1 REVERT JUMPDEST POP POP POP JUMP JUMPDEST PUSH0 PUSH2 0x1F74 DUP5 PUSH20 0xFFFFFFFFFFFFFFFFFFFFFFFFFFFFFFFFFFFFFFFF AND PUSH2 0x1B5A JUMP JUMPDEST ISZERO PUSH2 0x20C9 JUMPI DUP4 PUSH20 0xFFFFFFFFFFFFFFFFFFFFFFFFFFFFFFFFFFFFFFFF AND PUSH4 0x150B7A02 PUSH2 0x1F9D PUSH2 0x171D JUMP JUMPDEST DUP8 DUP7 DUP7 PUSH1 0x40 MLOAD DUP6 PUSH4 0xFFFFFFFF AND PUSH1 0xE0 SHL DUP2 MSTORE PUSH1 0x4 ADD PUSH2 0x1FBF SWAP5 SWAP4 SWAP3 SWAP2 SWAP1 PUSH2 0x38C5 JUMP JUMPDEST PUSH1 0x20 PUSH1 0x40 MLOAD DUP1 DUP4 SUB DUP2 PUSH0 DUP8 GAS CALL SWAP3 POP POP POP DUP1 ISZERO PUSH2 0x1FFA JUMPI POP PUSH1 0x40 MLOAD RETURNDATASIZE PUSH1 0x1F NOT PUSH1 0x1F DUP3 ADD AND DUP3 ADD DUP1 PUSH1 0x40 MSTORE POP DUP2 ADD SWAP1 PUSH2 0x1FF7 SWAP2 SWAP1 PUSH2 0x3923 JUMP JUMPDEST PUSH1 0x1 JUMPDEST PUSH2 0x2079 JUMPI RETURNDATASIZE DUP1 PUSH0 DUP2 EQ PUSH2 0x2028 JUMPI PUSH1 0x40 MLOAD SWAP2 POP PUSH1 0x1F NOT PUSH1 0x3F RETURNDATASIZE ADD AND DUP3 ADD PUSH1 0x40 MSTORE RETURNDATASIZE DUP3 MSTORE RETURNDATASIZE PUSH0 PUSH1 0x20 DUP5 ADD RETURNDATACOPY PUSH2 0x202D JUMP JUMPDEST PUSH1 0x60 SWAP2 POP JUMPDEST POP PUSH0 DUP2 MLOAD SUB PUSH2 0x2071 JUMPI PUSH1 0x40 MLOAD PUSH32 0x8C379A000000000000000000000000000000000000000000000000000000000 DUP2 MSTORE PUSH1 0x4 ADD PUSH2 0x2068 SWAP1 PUSH2 0x37ED JUMP JUMPDEST PUSH1 0x40 MLOAD DUP1 SWAP2 SUB SWAP1 REVERT JUMPDEST DUP1 MLOAD DUP2 PUSH1 0x20 ADD REVERT JUMPDEST PUSH4 0x150B7A02 PUSH1 0xE0 SHL PUSH28 0xFFFFFFFFFFFFFFFFFFFFFFFFFFFFFFFFFFFFFFFFFFFFFFFFFFFFFFFF NOT AND DUP2 PUSH28 0xFFFFFFFFFFFFFFFFFFFFFFFFFFFFFFFFFFFFFFFFFFFFFFFFFFFFFFFF NOT AND EQ SWAP2 POP POP PUSH2 0x20CE JUMP JUMPDEST PUSH1 0x1 SWAP1 POP JUMPDEST SWAP5 SWAP4 POP POP POP POP JUMP JUMPDEST PUSH0 PUSH20 0xFFFFFFFFFFFFFFFFFFFFFFFFFFFFFFFFFFFFFFFF AND DUP3 PUSH20 0xFFFFFFFFFFFFFFFFFFFFFFFFFFFFFFFFFFFFFFFF AND SUB PUSH2 0x2144 JUMPI PUSH1 0x40 MLOAD PUSH32 0x8C379A000000000000000000000000000000000000000000000000000000000 DUP2 MSTORE PUSH1 0x4 ADD PUSH2 0x213B SWAP1 PUSH2 0x3998 JUMP JUMPDEST PUSH1 0x40 MLOAD DUP1 SWAP2 SUB SWAP1 REVERT JUMPDEST PUSH2 0x214D DUP2 PUSH2 0x1E3C JUMP JUMPDEST ISZERO PUSH2 0x218D JUMPI PUSH1 0x40 MLOAD PUSH32 0x8C379A000000000000000000000000000000000000000000000000000000000 DUP2 MSTORE PUSH1 0x4 ADD PUSH2 0x2184 SWAP1 PUSH2 0x3A00 JUMP JUMPDEST PUSH1 0x40 MLOAD DUP1 SWAP2 SUB SWAP1 REVERT JUMPDEST PUSH2 0x219A PUSH0 DUP4 DUP4 PUSH1 0x1 PUSH2 0x1E7C JUMP JUMPDEST PUSH2 0x21A3 DUP2 PUSH2 0x1E3C JUMP JUMPDEST ISZERO PUSH2 0x21E3 JUMPI PUSH1 0x40 MLOAD PUSH32 0x8C379A000000000000000000000000000000000000000000000000000000000 DUP2 MSTORE PUSH1 0x4 ADD PUSH2 0x21DA SWAP1 PUSH2 0x3A00 JUMP JUMPDEST PUSH1 0x40 MLOAD DUP1 SWAP2 SUB SWAP1 REVERT JUMPDEST PUSH1 0x1 PUSH1 0x68 PUSH0 DUP5 PUSH20 0xFFFFFFFFFFFFFFFFFFFFFFFFFFFFFFFFFFFFFFFF AND PUSH20 0xFFFFFFFFFFFFFFFFFFFFFFFFFFFFFFFFFFFFFFFF AND DUP2 MSTORE PUSH1 0x20 ADD SWAP1 DUP2 MSTORE PUSH1 0x20 ADD PUSH0 KECCAK256 PUSH0 DUP3 DUP3 SLOAD ADD SWAP3 POP POP DUP2 SWAP1 SSTORE POP DUP2 PUSH1 0x67 PUSH0 DUP4 DUP2 MSTORE PUSH1 0x20 ADD SWAP1 DUP2 MSTORE PUSH1 0x20 ADD PUSH0 KECCAK256 PUSH0 PUSH2 0x100 EXP DUP2 SLOAD DUP2 PUSH20 0xFFFFFFFFFFFFFFFFFFFFFFFFFFFFFFFFFFFFFFFF MUL NOT AND SWAP1 DUP4 PUSH20 0xFFFFFFFFFFFFFFFFFFFFFFFFFFFFFFFFFFFFFFFF AND MUL OR SWAP1 SSTORE POP DUP1 DUP3 PUSH20 0xFFFFFFFFFFFFFFFFFFFFFFFFFFFFFFFFFFFFFFFF AND PUSH0 PUSH20 0xFFFFFFFFFFFFFFFFFFFFFFFFFFFFFFFFFFFFFFFF AND PUSH32 0xDDF252AD1BE2C89B69C2B068FC378DAA952BA7F163C4A11628F55A4DF523B3EF PUSH1 0x40 MLOAD PUSH1 0x40 MLOAD DUP1 SWAP2 SUB SWAP1 LOG4 PUSH2 0x22E5 PUSH0 DUP4 DUP4 PUSH1 0x1 PUSH2 0x1E82 JUMP JUMPDEST POP POP JUMP JUMPDEST PUSH0 PUSH1 0x40 MLOAD SWAP1 POP SWAP1 JUMP JUMPDEST PUSH0 DUP1 REVERT JUMPDEST PUSH0 DUP1 REVERT JUMPDEST PUSH0 PUSH32 0xFFFFFFFF00000000000000000000000000000000000000000000000000000000 DUP3 AND SWAP1 POP SWAP2 SWAP1 POP JUMP JUMPDEST PUSH2 0x232E DUP2 PUSH2 0x22FA JUMP JUMPDEST DUP2 EQ PUSH2 0x2338 JUMPI PUSH0 DUP1 REVERT JUMPDEST POP JUMP JUMPDEST PUSH0 DUP2 CALLDATALOAD SWAP1 POP PUSH2 0x2349 DUP2 PUSH2 0x2325 JUMP JUMPDEST SWAP3 SWAP2 POP POP JUMP JUMPDEST PUSH0 PUSH1 0x20 DUP3 DUP5 SUB SLT ISZERO PUSH2 0x2364 JUMPI PUSH2 0x2363 PUSH2 0x22F2 JUMP JUMPDEST JUMPDEST PUSH0 PUSH2 0x2371 DUP5 DUP3 DUP6 ADD PUSH2 0x233B JUMP JUMPDEST SWAP2 POP POP SWAP3 SWAP2 POP POP JUMP JUMPDEST PUSH0 DUP2 ISZERO ISZERO SWAP1 POP SWAP2 SWAP1 POP JUMP JUMPDEST PUSH2 0x238E DUP2 PUSH2 0x237A JUMP JUMPDEST DUP3 MSTORE POP POP JUMP JUMPDEST PUSH0 PUSH1 0x20 DUP3 ADD SWAP1 POP PUSH2 0x23A7 PUSH0 DUP4 ADD DUP5 PUSH2 0x2385 JUMP JUMPDEST SWAP3 SWAP2 POP POP JUMP JUMPDEST PUSH0 DUP2 MLOAD SWAP1 POP SWAP2 SWAP1 POP JUMP JUMPDEST PUSH0 DUP3 DUP3 MSTORE PUSH1 0x20 DUP3 ADD SWAP1 POP SWAP3 SWAP2 POP POP JUMP JUMPDEST PUSH0 JUMPDEST DUP4 DUP2 LT ISZERO PUSH2 0x23E4 JUMPI DUP1 DUP3 ADD MLOAD DUP2 DUP5 ADD MSTORE PUSH1 0x20 DUP2 ADD SWAP1 POP PUSH2 0x23C9 JUMP JUMPDEST PUSH0 DUP5 DUP5 ADD MSTORE POP POP POP POP JUMP JUMPDEST PUSH0 PUSH1 0x1F NOT PUSH1 0x1F DUP4 ADD AND SWAP1 POP SWAP2 SWAP1 POP JUMP JUMPDEST PUSH0 PUSH2 0x2409 DUP3 PUSH2 0x23AD JUMP JUMPDEST PUSH2 0x2413 DUP2 DUP6 PUSH2 0x23B7 JUMP JUMPDEST SWAP4 POP PUSH2 0x2423 DUP2 DUP6 PUSH1 0x20 DUP7 ADD PUSH2 0x23C7 JUMP JUMPDEST PUSH2 0x242C DUP2 PUSH2 0x23EF JUMP JUMPDEST DUP5 ADD SWAP2 POP POP SWAP3 SWAP2 POP POP JUMP JUMPDEST PUSH0 PUSH1 0x20 DUP3 ADD SWAP1 POP DUP2 DUP2 SUB PUSH0 DUP4 ADD MSTORE PUSH2 0x244F DUP2 DUP5 PUSH2 0x23FF JUMP JUMPDEST SWAP1 POP SWAP3 SWAP2 POP POP JUMP JUMPDEST PUSH0 DUP2 SWAP1 POP SWAP2 SWAP1 POP JUMP JUMPDEST PUSH2 0x2469 DUP2 PUSH2 0x2457 JUMP JUMPDEST DUP2 EQ PUSH2 0x2473 JUMPI PUSH0 DUP1 REVERT JUMPDEST POP JUMP JUMPDEST PUSH0 DUP2 CALLDATALOAD SWAP1 POP PUSH2 0x2484 DUP2 PUSH2 0x2460 JUMP JUMPDEST SWAP3 SWAP2 POP POP JUMP JUMPDEST PUSH0 PUSH1 0x20 DUP3 DUP5 SUB SLT ISZERO PUSH2 0x249F JUMPI PUSH2 0x249E PUSH2 0x22F2 JUMP JUMPDEST JUMPDEST PUSH0 PUSH2 0x24AC DUP5 DUP3 DUP6 ADD PUSH2 0x2476 JUMP JUMPDEST SWAP2 POP POP SWAP3 SWAP2 POP POP JUMP JUMPDEST PUSH0 PUSH20 0xFFFFFFFFFFFFFFFFFFFFFFFFFFFFFFFFFFFFFFFF DUP3 AND SWAP1 POP SWAP2 SWAP1 POP JUMP JUMPDEST PUSH0 PUSH2 0x24DE DUP3 PUSH2 0x24B5 JUMP JUMPDEST SWAP1 POP SWAP2 SWAP1 POP JUMP JUMPDEST PUSH2 0x24EE DUP2 PUSH2 0x24D4 JUMP JUMPDEST DUP3 MSTORE POP POP JUMP JUMPDEST PUSH0 PUSH1 0x20 DUP3 ADD SWAP1 POP PUSH2 0x2507 PUSH0 DUP4 ADD DUP5 PUSH2 0x24E5 JUMP JUMPDEST SWAP3 SWAP2 POP POP JUMP JUMPDEST PUSH2 0x2516 DUP2 PUSH2 0x24D4 JUMP JUMPDEST DUP2 EQ PUSH2 0x2520 JUMPI PUSH0 DUP1 REVERT JUMPDEST POP JUMP JUMPDEST PUSH0 DUP2 CALLDATALOAD SWAP1 POP PUSH2 0x2531 DUP2 PUSH2 0x250D JUMP JUMPDEST SWAP3 SWAP2 POP POP JUMP JUMPDEST PUSH0 DUP1 PUSH1 0x40 DUP4 DUP6 SUB SLT ISZERO PUSH2 0x254D JUMPI PUSH2 0x254C PUSH2 0x22F2 JUMP JUMPDEST JUMPDEST PUSH0 PUSH2 0x255A DUP6 DUP3 DUP7 ADD PUSH2 0x2523 JUMP JUMPDEST SWAP3 POP POP PUSH1 0x20 PUSH2 0x256B DUP6 DUP3 DUP7 ADD PUSH2 0x2476 JUMP JUMPDEST SWAP2 POP POP SWAP3 POP SWAP3 SWAP1 POP JUMP JUMPDEST PUSH0 DUP1 REVERT JUMPDEST PUSH0 DUP1 REVERT JUMPDEST PUSH32 0x4E487B7100000000000000000000000000000000000000000000000000000000 PUSH0 MSTORE PUSH1 0x41 PUSH1 0x4 MSTORE PUSH1 0x24 PUSH0 REVERT JUMPDEST PUSH2 0x25B3 DUP3 PUSH2 0x23EF JUMP JUMPDEST DUP2 ADD DUP2 DUP2 LT PUSH8 0xFFFFFFFFFFFFFFFF DUP3 GT OR ISZERO PUSH2 0x25D2 JUMPI PUSH2 0x25D1 PUSH2 0x257D JUMP JUMPDEST JUMPDEST DUP1 PUSH1 0x40 MSTORE POP POP POP JUMP JUMPDEST PUSH0 PUSH2 0x25E4 PUSH2 0x22E9 JUMP JUMPDEST SWAP1 POP PUSH2 0x25F0 DUP3 DUP3 PUSH2 0x25AA JUMP JUMPDEST SWAP2 SWAP1 POP JUMP JUMPDEST PUSH0 PUSH8 0xFFFFFFFFFFFFFFFF DUP3 GT ISZERO PUSH2 0x260F JUMPI PUSH2 0x260E PUSH2 0x257D JUMP JUMPDEST JUMPDEST PUSH2 0x2618 DUP3 PUSH2 0x23EF JUMP JUMPDEST SWAP1 POP PUSH1 0x20 DUP2 ADD SWAP1 POP SWAP2 SWAP1 POP JUMP JUMPDEST DUP3 DUP2 DUP4 CALLDATACOPY PUSH0 DUP4 DUP4 ADD MSTORE POP POP POP JUMP JUMPDEST PUSH0 PUSH2 0x2645 PUSH2 0x2640 DUP5 PUSH2 0x25F5 JUMP JUMPDEST PUSH2 0x25DB JUMP JUMPDEST SWAP1 POP DUP3 DUP2 MSTORE PUSH1 0x20 DUP2 ADD DUP5 DUP5 DUP5 ADD GT ISZERO PUSH2 0x2661 JUMPI PUSH2 0x2660 PUSH2 0x2579 JUMP JUMPDEST JUMPDEST PUSH2 0x266C DUP5 DUP3 DUP6 PUSH2 0x2625 JUMP JUMPDEST POP SWAP4 SWAP3 POP POP POP JUMP JUMPDEST PUSH0 DUP3 PUSH1 0x1F DUP4 ADD SLT PUSH2 0x2688 JUMPI PUSH2 0x2687 PUSH2 0x2575 JUMP JUMPDEST JUMPDEST DUP2 CALLDATALOAD PUSH2 0x2698 DUP5 DUP3 PUSH1 0x20 DUP7 ADD PUSH2 0x2633 JUMP JUMPDEST SWAP2 POP POP SWAP3 SWAP2 POP POP JUMP JUMPDEST PUSH0 DUP1 PUSH1 0x40 DUP4 DUP6 SUB SLT ISZERO PUSH2 0x26B7 JUMPI PUSH2 0x26B6 PUSH2 0x22F2 JUMP JUMPDEST JUMPDEST PUSH0 PUSH2 0x26C4 DUP6 DUP3 DUP7 ADD PUSH2 0x2476 JUMP JUMPDEST SWAP3 POP POP PUSH1 0x20 DUP4 ADD CALLDATALOAD PUSH8 0xFFFFFFFFFFFFFFFF DUP2 GT ISZERO PUSH2 0x26E5 JUMPI PUSH2 0x26E4 PUSH2 0x22F6 JUMP JUMPDEST JUMPDEST PUSH2 0x26F1 DUP6 DUP3 DUP7 ADD PUSH2 0x2674 JUMP JUMPDEST SWAP2 POP POP SWAP3 POP SWAP3 SWAP1 POP JUMP JUMPDEST PUSH0 DUP1 PUSH0 PUSH1 0x60 DUP5 DUP7 SUB SLT ISZERO PUSH2 0x2712 JUMPI PUSH2 0x2711 PUSH2 0x22F2 JUMP JUMPDEST JUMPDEST PUSH0 PUSH2 0x271F DUP7 DUP3 DUP8 ADD PUSH2 0x2523 JUMP JUMPDEST SWAP4 POP POP PUSH1 0x20 PUSH2 0x2730 DUP7 DUP3 DUP8 ADD PUSH2 0x2523 JUMP JUMPDEST SWAP3 POP POP PUSH1 0x40 PUSH2 0x2741 DUP7 DUP3 DUP8 ADD PUSH2 0x2476 JUMP JUMPDEST SWAP2 POP POP SWAP3 POP SWAP3 POP SWAP3 JUMP JUMPDEST PUSH0 DUP1 PUSH1 0x40 DUP4 DUP6 SUB SLT ISZERO PUSH2 0x2761 JUMPI PUSH2 0x2760 PUSH2 0x22F2 JUMP JUMPDEST JUMPDEST PUSH0 DUP4 ADD CALLDATALOAD PUSH8 0xFFFFFFFFFFFFFFFF DUP2 GT ISZERO PUSH2 0x277E JUMPI PUSH2 0x277D PUSH2 0x22F6 JUMP JUMPDEST JUMPDEST PUSH2 0x278A DUP6 DUP3 DUP7 ADD PUSH2 0x2674 JUMP JUMPDEST SWAP3 POP POP PUSH1 0x20 DUP4 ADD CALLDATALOAD PUSH8 0xFFFFFFFFFFFFFFFF DUP2 GT ISZERO PUSH2 0x27AB JUMPI PUSH2 0x27AA PUSH2 0x22F6 JUMP JUMPDEST JUMPDEST PUSH2 0x27B7 DUP6 DUP3 DUP7 ADD PUSH2 0x2674 JUMP JUMPDEST SWAP2 POP POP SWAP3 POP SWAP3 SWAP1 POP JUMP JUMPDEST PUSH0 PUSH1 0x20 DUP3 DUP5 SUB SLT ISZERO PUSH2 0x27D6 JUMPI PUSH2 0x27D5 PUSH2 0x22F2 JUMP JUMPDEST JUMPDEST PUSH0 PUSH2 0x27E3 DUP5 DUP3 DUP6 ADD PUSH2 0x2523 JUMP JUMPDEST SWAP2 POP POP SWAP3 SWAP2 POP POP JUMP JUMPDEST PUSH2 0x27F5 DUP2 PUSH2 0x2457 JUMP JUMPDEST DUP3 MSTORE POP POP JUMP JUMPDEST PUSH0 PUSH1 0x20 DUP3 ADD SWAP1 POP PUSH2 0x280E PUSH0 DUP4 ADD DUP5 PUSH2 0x27EC JUMP JUMPDEST SWAP3 SWAP2 POP POP JUMP JUMPDEST PUSH0 DUP1 PUSH1 0x40 DUP4 DUP6 SUB SLT ISZERO PUSH2 0x282A JUMPI PUSH2 0x2829 PUSH2 0x22F2 JUMP JUMPDEST JUMPDEST PUSH0 PUSH2 0x2837 DUP6 DUP3 DUP7 ADD PUSH2 0x2476 JUMP JUMPDEST SWAP3 POP POP PUSH1 0x20 PUSH2 0x2848 DUP6 DUP3 DUP7 ADD PUSH2 0x2476 JUMP JUMPDEST SWAP2 POP POP SWAP3 POP SWAP3 SWAP1 POP JUMP JUMPDEST PUSH0 DUP1 PUSH0 DUP1 PUSH0 PUSH1 0xA0 DUP7 DUP9 SUB SLT ISZERO PUSH2 0x286B JUMPI PUSH2 0x286A PUSH2 0x22F2 JUMP JUMPDEST JUMPDEST PUSH0 PUSH2 0x2878 DUP9 DUP3 DUP10 ADD PUSH2 0x2523 JUMP JUMPDEST SWAP6 POP POP PUSH1 0x20 PUSH2 0x2889 DUP9 DUP3 DUP10 ADD PUSH2 0x2476 JUMP JUMPDEST SWAP5 POP POP PUSH1 0x40 PUSH2 0x289A DUP9 DUP3 DUP10 ADD PUSH2 0x2476 JUMP JUMPDEST SWAP4 POP POP PUSH1 0x60 PUSH2 0x28AB DUP9 DUP3 DUP10 ADD PUSH2 0x2476 JUMP JUMPDEST SWAP3 POP POP PUSH1 0x80 DUP7 ADD CALLDATALOAD PUSH8 0xFFFFFFFFFFFFFFFF DUP2 GT ISZERO PUSH2 0x28CC JUMPI PUSH2 0x28CB PUSH2 0x22F6 JUMP JUMPDEST JUMPDEST PUSH2 0x28D8 DUP9 DUP3 DUP10 ADD PUSH2 0x2674 JUMP JUMPDEST SWAP2 POP POP SWAP3 SWAP6 POP SWAP3 SWAP6 SWAP1 SWAP4 POP JUMP JUMPDEST PUSH2 0x28EE DUP2 PUSH2 0x237A JUMP JUMPDEST DUP2 EQ PUSH2 0x28F8 JUMPI PUSH0 DUP1 REVERT JUMPDEST POP JUMP JUMPDEST PUSH0 DUP2 CALLDATALOAD SWAP1 POP PUSH2 0x2909 DUP2 PUSH2 0x28E5 JUMP JUMPDEST SWAP3 SWAP2 POP POP JUMP JUMPDEST PUSH0 DUP1 PUSH1 0x40 DUP4 DUP6 SUB SLT ISZERO PUSH2 0x2925 JUMPI PUSH2 0x2924 PUSH2 0x22F2 JUMP JUMPDEST JUMPDEST PUSH0 PUSH2 0x2932 DUP6 DUP3 DUP7 ADD PUSH2 0x2523 JUMP JUMPDEST SWAP3 POP POP PUSH1 0x20 PUSH2 0x2943 DUP6 DUP3 DUP7 ADD PUSH2 0x28FB JUMP JUMPDEST SWAP2 POP POP SWAP3 POP SWAP3 SWAP1 POP JUMP JUMPDEST PUSH0 DUP1 PUSH0 DUP1 PUSH1 0x80 DUP6 DUP8 SUB SLT ISZERO PUSH2 0x2965 JUMPI PUSH2 0x2964 PUSH2 0x22F2 JUMP JUMPDEST JUMPDEST PUSH0 PUSH2 0x2972 DUP8 DUP3 DUP9 ADD PUSH2 0x2523 JUMP JUMPDEST SWAP5 POP POP PUSH1 0x20 PUSH2 0x2983 DUP8 DUP3 DUP9 ADD PUSH2 0x2476 JUMP JUMPDEST SWAP4 POP POP PUSH1 0x40 DUP6 ADD CALLDATALOAD PUSH8 0xFFFFFFFFFFFFFFFF DUP2 GT ISZERO PUSH2 0x29A4 JUMPI PUSH2 0x29A3 PUSH2 0x22F6 JUMP JUMPDEST JUMPDEST PUSH2 0x29B0 DUP8 DUP3 DUP9 ADD PUSH2 0x2674 JUMP JUMPDEST SWAP3 POP POP PUSH1 0x60 PUSH2 0x29C1 DUP8 DUP3 DUP9 ADD PUSH2 0x28FB JUMP JUMPDEST SWAP2 POP POP SWAP3 SWAP6 SWAP2 SWAP5 POP SWAP3 POP JUMP JUMPDEST PUSH0 PUSH8 0xFFFFFFFFFFFFFFFF DUP3 GT ISZERO PUSH2 0x29E7 JUMPI PUSH2 0x29E6 PUSH2 0x257D JUMP JUMPDEST JUMPDEST PUSH2 0x29F0 DUP3 PUSH2 0x23EF JUMP JUMPDEST SWAP1 POP PUSH1 0x20 DUP2 ADD SWAP1 POP SWAP2 SWAP1 POP JUMP JUMPDEST PUSH0 PUSH2 0x2A0F PUSH2 0x2A0A DUP5 PUSH2 0x29CD JUMP JUMPDEST PUSH2 0x25DB JUMP JUMPDEST SWAP1 POP DUP3 DUP2 MSTORE PUSH1 0x20 DUP2 ADD DUP5 DUP5 DUP5 ADD GT ISZERO PUSH2 0x2A2B JUMPI PUSH2 0x2A2A PUSH2 0x2579 JUMP JUMPDEST JUMPDEST PUSH2 0x2A36 DUP5 DUP3 DUP6 PUSH2 0x2625 JUMP JUMPDEST POP SWAP4 SWAP3 POP POP POP JUMP JUMPDEST PUSH0 DUP3 PUSH1 0x1F DUP4 ADD SLT PUSH2 0x2A52 JUMPI PUSH2 0x2A51 PUSH2 0x2575 JUMP JUMPDEST JUMPDEST DUP2 CALLDATALOAD PUSH2 0x2A62 DUP5 DUP3 PUSH1 0x20 DUP7 ADD PUSH2 0x29FD JUMP JUMPDEST SWAP2 POP POP SWAP3 SWAP2 POP POP JUMP JUMPDEST PUSH0 DUP1 PUSH0 DUP1 PUSH1 0x80 DUP6 DUP8 SUB SLT ISZERO PUSH2 0x2A83 JUMPI PUSH2 0x2A82 PUSH2 0x22F2 JUMP JUMPDEST JUMPDEST PUSH0 PUSH2 0x2A90 DUP8 DUP3 DUP9 ADD PUSH2 0x2523 JUMP JUMPDEST SWAP5 POP POP PUSH1 0x20 PUSH2 0x2AA1 DUP8 DUP3 DUP9 ADD PUSH2 0x2523 JUMP JUMPDEST SWAP4 POP POP PUSH1 0x40 PUSH2 0x2AB2 DUP8 DUP3 DUP9 ADD PUSH2 0x2476 JUMP JUMPDEST SWAP3 POP POP PUSH1 0x60 DUP6 ADD CALLDATALOAD PUSH8 0xFFFFFFFFFFFFFFFF DUP2 GT ISZERO PUSH2 0x2AD3 JUMPI PUSH2 0x2AD2 PUSH2 0x22F6 JUMP JUMPDEST JUMPDEST PUSH2 0x2ADF DUP8 DUP3 DUP9 ADD PUSH2 0x2A3E JUMP JUMPDEST SWAP2 POP POP SWAP3 SWAP6 SWAP2 SWAP5 POP SWAP3 POP JUMP JUMPDEST PUSH0 DUP1 PUSH1 0x40 DUP4 DUP6 SUB SLT ISZERO PUSH2 0x2B01 JUMPI PUSH2 0x2B00 PUSH2 0x22F2 JUMP JUMPDEST JUMPDEST PUSH0 PUSH2 0x2B0E DUP6 DUP3 DUP7 ADD PUSH2 0x2476 JUMP JUMPDEST SWAP3 POP POP PUSH1 0x20 PUSH2 0x2B1F DUP6 DUP3 DUP7 ADD PUSH2 0x28FB JUMP JUMPDEST SWAP2 POP POP SWAP3 POP SWAP3 SWAP1 POP JUMP JUMPDEST PUSH0 DUP1 PUSH1 0x40 DUP4 DUP6 SUB SLT ISZERO PUSH2 0x2B3F JUMPI PUSH2 0x2B3E PUSH2 0x22F2 JUMP JUMPDEST JUMPDEST PUSH0 PUSH2 0x2B4C DUP6 DUP3 DUP7 ADD PUSH2 0x2523 JUMP JUMPDEST SWAP3 POP POP PUSH1 0x20 PUSH2 0x2B5D DUP6 DUP3 DUP7 ADD PUSH2 0x2523 JUMP JUMPDEST SWAP2 POP POP SWAP3 POP SWAP3 SWAP1 POP JUMP JUMPDEST PUSH32 0x4E487B7100000000000000000000000000000000000000000000000000000000 PUSH0 MSTORE PUSH1 0x22 PUSH1 0x4 MSTORE PUSH1 0x24 PUSH0 REVERT JUMPDEST PUSH0 PUSH1 0x2 DUP3 DIV SWAP1 POP PUSH1 0x1 DUP3 AND DUP1 PUSH2 0x2BAB JUMPI PUSH1 0x7F DUP3 AND SWAP2 POP JUMPDEST PUSH1 0x20 DUP3 LT DUP2 SUB PUSH2 0x2BBE JUMPI PUSH2 0x2BBD PUSH2 0x2B67 JUMP JUMPDEST JUMPDEST POP SWAP2 SWAP1 POP JUMP JUMPDEST PUSH32 0x4552433732313A20617070726F76616C20746F2063757272656E74206F776E65 PUSH0 DUP3 ADD MSTORE PUSH32 0x7200000000000000000000000000000000000000000000000000000000000000 PUSH1 0x20 DUP3 ADD MSTORE POP JUMP JUMPDEST PUSH0 PUSH2 0x2C1E PUSH1 0x21 DUP4 PUSH2 0x23B7 JUMP JUMPDEST SWAP2 POP PUSH2 0x2C29 DUP3 PUSH2 0x2BC4 JUMP JUMPDEST PUSH1 0x40 DUP3 ADD SWAP1 POP SWAP2 SWAP1 POP JUMP JUMPDEST PUSH0 PUSH1 0x20 DUP3 ADD SWAP1 POP DUP2 DUP2 SUB PUSH0 DUP4 ADD MSTORE PUSH2 0x2C4B DUP2 PUSH2 0x2C12 JUMP JUMPDEST SWAP1 POP SWAP2 SWAP1 POP JUMP JUMPDEST PUSH32 0x4552433732313A20617070726F76652063616C6C6572206973206E6F7420746F PUSH0 DUP3 ADD MSTORE PUSH32 0x6B656E206F776E6572206F7220617070726F76656420666F7220616C6C000000 PUSH1 0x20 DUP3 ADD MSTORE POP JUMP JUMPDEST PUSH0 PUSH2 0x2CAC PUSH1 0x3D DUP4 PUSH2 0x23B7 JUMP JUMPDEST SWAP2 POP PUSH2 0x2CB7 DUP3 PUSH2 0x2C52 JUMP JUMPDEST PUSH1 0x40 DUP3 ADD SWAP1 POP SWAP2 SWAP1 POP JUMP JUMPDEST PUSH0 PUSH1 0x20 DUP3 ADD SWAP1 POP DUP2 DUP2 SUB PUSH0 DUP4 ADD MSTORE PUSH2 0x2CD9 DUP2 PUSH2 0x2CA0 JUMP JUMPDEST SWAP1 POP SWAP2 SWAP1 POP JUMP JUMPDEST PUSH32 0x4F6E6C792074686520636F6E7472616374206F776E65722063616E2063616C6C PUSH0 DUP3 ADD MSTORE PUSH32 0x20746869732066756E6374696F6E000000000000000000000000000000000000 PUSH1 0x20 DUP3 ADD MSTORE POP JUMP JUMPDEST PUSH0 PUSH2 0x2D3A PUSH1 0x2E DUP4 PUSH2 0x23B7 JUMP JUMPDEST SWAP2 POP PUSH2 0x2D45 DUP3 PUSH2 0x2CE0 JUMP JUMPDEST PUSH1 0x40 DUP3 ADD SWAP1 POP SWAP2 SWAP1 POP JUMP JUMPDEST PUSH0 PUSH1 0x20 DUP3 ADD SWAP1 POP DUP2 DUP2 SUB PUSH0 DUP4 ADD MSTORE PUSH2 0x2D67 DUP2 PUSH2 0x2D2E JUMP JUMPDEST SWAP1 POP SWAP2 SWAP1 POP JUMP JUMPDEST PUSH0 DUP2 SWAP1 POP DUP2 PUSH0 MSTORE PUSH1 0x20 PUSH0 KECCAK256 SWAP1 POP SWAP2 SWAP1 POP JUMP JUMPDEST PUSH0 PUSH1 0x20 PUSH1 0x1F DUP4 ADD DIV SWAP1 POP SWAP2 SWAP1 POP JUMP JUMPDEST PUSH0 DUP3 DUP3 SHL SWAP1 POP SWAP3 SWAP2 POP POP JUMP JUMPDEST PUSH0 PUSH1 0x8 DUP4 MUL PUSH2 0x2DCA PUSH32 0xFFFFFFFFFFFFFFFFFFFFFFFFFFFFFFFFFFFFFFFFFFFFFFFFFFFFFFFFFFFFFFFF DUP3 PUSH2 0x2D8F JUMP JUMPDEST PUSH2 0x2DD4 DUP7 DUP4 PUSH2 0x2D8F JUMP JUMPDEST SWAP6 POP DUP1 NOT DUP5 AND SWAP4 POP DUP1 DUP7 AND DUP5 OR SWAP3 POP POP POP SWAP4 SWAP3 POP POP POP JUMP JUMPDEST PUSH0 DUP2 SWAP1 POP SWAP2 SWAP1 POP JUMP JUMPDEST PUSH0 PUSH2 0x2E0F PUSH2 0x2E0A PUSH2 0x2E05 DUP5 PUSH2 0x2457 JUMP JUMPDEST PUSH2 0x2DEC JUMP JUMPDEST PUSH2 0x2457 JUMP JUMPDEST SWAP1 POP SWAP2 SWAP1 POP JUMP JUMPDEST PUSH0 DUP2 SWAP1 POP SWAP2 SWAP1 POP JUMP JUMPDEST PUSH2 0x2E28 DUP4 PUSH2 0x2DF5 JUMP JUMPDEST PUSH2 0x2E3C PUSH2 0x2E34 DUP3 PUSH2 0x2E16 JUMP JUMPDEST DUP5 DUP5 SLOAD PUSH2 0x2D9B JUMP JUMPDEST DUP3 SSTORE POP POP POP POP JUMP JUMPDEST PUSH0 SWAP1 JUMP JUMPDEST PUSH2 0x2E50 PUSH2 0x2E44 JUMP JUMPDEST PUSH2 0x2E5B DUP2 DUP5 DUP5 PUSH2 0x2E1F JUMP JUMPDEST POP POP POP JUMP JUMPDEST JUMPDEST DUP2 DUP2 LT ISZERO PUSH2 0x2E7E JUMPI PUSH2 0x2E73 PUSH0 DUP3 PUSH2 0x2E48 JUMP JUMPDEST PUSH1 0x1 DUP2 ADD SWAP1 POP PUSH2 0x2E61 JUMP JUMPDEST POP POP JUMP JUMPDEST PUSH1 0x1F DUP3 GT ISZERO PUSH2 0x2EC3 JUMPI PUSH2 0x2E94 DUP2 PUSH2 0x2D6E JUMP JUMPDEST PUSH2 0x2E9D DUP5 PUSH2 0x2D80 JUMP JUMPDEST DUP2 ADD PUSH1 0x20 DUP6 LT ISZERO PUSH2 0x2EAC JUMPI DUP2 SWAP1 POP JUMPDEST PUSH2 0x2EC0 PUSH2 0x2EB8 DUP6 PUSH2 0x2D80 JUMP JUMPDEST DUP4 ADD DUP3 PUSH2 0x2E60 JUMP JUMPDEST POP POP JUMPDEST POP POP POP JUMP JUMPDEST PUSH0 DUP3 DUP3 SHR SWAP1 POP SWAP3 SWAP2 POP POP JUMP JUMPDEST PUSH0 PUSH2 0x2EE3 PUSH0 NOT DUP5 PUSH1 0x8 MUL PUSH2 0x2EC8 JUMP JUMPDEST NOT DUP1 DUP4 AND SWAP2 POP POP SWAP3 SWAP2 POP POP JUMP JUMPDEST PUSH0 PUSH2 0x2EFB DUP4 DUP4 PUSH2 0x2ED4 JUMP JUMPDEST SWAP2 POP DUP3 PUSH1 0x2 MUL DUP3 OR SWAP1 POP SWAP3 SWAP2 POP POP JUMP JUMPDEST PUSH2 0x2F14 DUP3 PUSH2 0x23AD JUMP JUMPDEST PUSH8 0xFFFFFFFFFFFFFFFF DUP2 GT ISZERO PUSH2 0x2F2D JUMPI PUSH2 0x2F2C PUSH2 0x257D JUMP JUMPDEST JUMPDEST PUSH2 0x2F37 DUP3 SLOAD PUSH2 0x2B94 JUMP JUMPDEST PUSH2 0x2F42 DUP3 DUP3 DUP6 PUSH2 0x2E82 JUMP JUMPDEST PUSH0 PUSH1 0x20 SWAP1 POP PUSH1 0x1F DUP4 GT PUSH1 0x1 DUP2 EQ PUSH2 0x2F73 JUMPI PUSH0 DUP5 ISZERO PUSH2 0x2F61 JUMPI DUP3 DUP8 ADD MLOAD SWAP1 POP JUMPDEST PUSH2 0x2F6B DUP6 DUP3 PUSH2 0x2EF0 JUMP JUMPDEST DUP7 SSTORE POP PUSH2 0x2FD2 JUMP JUMPDEST PUSH1 0x1F NOT DUP5 AND PUSH2 0x2F81 DUP7 PUSH2 0x2D6E JUMP JUMPDEST PUSH0 JUMPDEST DUP3 DUP2 LT ISZERO PUSH2 0x2FA8 JUMPI DUP5 DUP10 ADD MLOAD DUP3 SSTORE PUSH1 0x1 DUP3 ADD SWAP2 POP PUSH1 0x20 DUP6 ADD SWAP5 POP PUSH1 0x20 DUP2 ADD SWAP1 POP PUSH2 0x2F83 JUMP JUMPDEST DUP7 DUP4 LT ISZERO PUSH2 0x2FC5 JUMPI DUP5 DUP10 ADD MLOAD PUSH2 0x2FC1 PUSH1 0x1F DUP10 AND DUP3 PUSH2 0x2ED4 JUMP JUMPDEST DUP4 SSTORE POP JUMPDEST PUSH1 0x1 PUSH1 0x2 DUP9 MUL ADD DUP9 SSTORE POP POP POP JUMPDEST POP POP POP POP POP POP JUMP JUMPDEST PUSH32 0x4552433732313A2063616C6C6572206973206E6F7420746F6B656E206F776E65 PUSH0 DUP3 ADD MSTORE PUSH32 0x72206F7220617070726F76656400000000000000000000000000000000000000 PUSH1 0x20 DUP3 ADD MSTORE POP JUMP JUMPDEST PUSH0 PUSH2 0x3034 PUSH1 0x2D DUP4 PUSH2 0x23B7 JUMP JUMPDEST SWAP2 POP PUSH2 0x303F DUP3 PUSH2 0x2FDA JUMP JUMPDEST PUSH1 0x40 DUP3 ADD SWAP1 POP SWAP2 SWAP1 POP JUMP JUMPDEST PUSH0 PUSH1 0x20 DUP3 ADD SWAP1 POP DUP2 DUP2 SUB PUSH0 DUP4 ADD MSTORE PUSH2 0x3061 DUP2 PUSH2 0x3028 JUMP JUMPDEST SWAP1 POP SWAP2 SWAP1 POP JUMP JUMPDEST PUSH32 0x496E697469616C697A61626C653A20636F6E747261637420697320616C726561 PUSH0 DUP3 ADD MSTORE PUSH32 0x647920696E697469616C697A6564000000000000000000000000000000000000 PUSH1 0x20 DUP3 ADD MSTORE POP JUMP JUMPDEST PUSH0 PUSH2 0x30C2 PUSH1 0x2E DUP4 PUSH2 0x23B7 JUMP JUMPDEST SWAP2 POP PUSH2 0x30CD DUP3 PUSH2 0x3068 JUMP JUMPDEST PUSH1 0x40 DUP3 ADD SWAP1 POP SWAP2 SWAP1 POP JUMP JUMPDEST PUSH0 PUSH1 0x20 DUP3 ADD SWAP1 POP DUP2 DUP2 SUB PUSH0 DUP4 ADD MSTORE PUSH2 0x30EF DUP2 PUSH2 0x30B6 JUMP JUMPDEST SWAP1 POP SWAP2 SWAP1 POP JUMP JUMPDEST PUSH0 DUP2 SWAP1 POP SWAP2 SWAP1 POP JUMP JUMPDEST PUSH0 PUSH1 0xFF DUP3 AND SWAP1 POP SWAP2 SWAP1 POP JUMP JUMPDEST PUSH0 PUSH2 0x3125 PUSH2 0x3120 PUSH2 0x311B DUP5 PUSH2 0x30F6 JUMP JUMPDEST PUSH2 0x2DEC JUMP JUMPDEST PUSH2 0x30FF JUMP JUMPDEST SWAP1 POP SWAP2 SWAP1 POP JUMP JUMPDEST PUSH2 0x3135 DUP2 PUSH2 0x310B JUMP JUMPDEST DUP3 MSTORE POP POP JUMP JUMPDEST PUSH0 PUSH1 0x20 DUP3 ADD SWAP1 POP PUSH2 0x314E PUSH0 DUP4 ADD DUP5 PUSH2 0x312C JUMP JUMPDEST SWAP3 SWAP2 POP POP JUMP JUMPDEST PUSH32 0x4552433732313A20696E76616C696420746F6B656E2049440000000000000000 PUSH0 DUP3 ADD MSTORE POP JUMP JUMPDEST PUSH0 PUSH2 0x3188 PUSH1 0x18 DUP4 PUSH2 0x23B7 JUMP JUMPDEST SWAP2 POP PUSH2 0x3193 DUP3 PUSH2 0x3154 JUMP JUMPDEST PUSH1 0x20 DUP3 ADD SWAP1 POP SWAP2 SWAP1 POP JUMP JUMPDEST PUSH0 PUSH1 0x20 DUP3 ADD SWAP1 POP DUP2 DUP2 SUB PUSH0 DUP4 ADD MSTORE PUSH2 0x31B5 DUP2 PUSH2 0x317C JUMP JUMPDEST SWAP1 POP SWAP2 SWAP1 POP JUMP JUMPDEST PUSH32 0x4552433732313A2061646472657373207A65726F206973206E6F742061207661 PUSH0 DUP3 ADD MSTORE PUSH32 0x6C6964206F776E65720000000000000000000000000000000000000000000000 PUSH1 0x20 DUP3 ADD MSTORE POP JUMP JUMPDEST PUSH0 PUSH2 0x3216 PUSH1 0x29 DUP4 PUSH2 0x23B7 JUMP JUMPDEST SWAP2 POP PUSH2 0x3221 DUP3 PUSH2 0x31BC JUMP JUMPDEST PUSH1 0x40 DUP3 ADD SWAP1 POP SWAP2 SWAP1 POP JUMP JUMPDEST PUSH0 PUSH1 0x20 DUP3 ADD SWAP1 POP DUP2 DUP2 SUB PUSH0 DUP4 ADD MSTORE PUSH2 0x3243 DUP2 PUSH2 0x320A JUMP JUMPDEST SWAP1 POP SWAP2 SWAP1 POP JUMP JUMPDEST PUSH32 0x546865726520697320616C72656164792061207265676973746572656420646F PUSH0 DUP3 ADD MSTORE PUSH32 0x776E6C6F616420636F6E74726163742E00000000000000000000000000000000 PUSH1 0x20 DUP3 ADD MSTORE POP JUMP JUMPDEST PUSH0 PUSH2 0x32A4 PUSH1 0x30 DUP4 PUSH2 0x23B7 JUMP JUMPDEST SWAP2 POP PUSH2 0x32AF DUP3 PUSH2 0x324A JUMP JUMPDEST PUSH1 0x40 DUP3 ADD SWAP1 POP SWAP2 SWAP1 POP JUMP JUMPDEST PUSH0 PUSH1 0x20 DUP3 ADD SWAP1 POP DUP2 DUP2 SUB PUSH0 DUP4 ADD MSTORE PUSH2 0x32D1 DUP2 PUSH2 0x3298 JUMP JUMPDEST SWAP1 POP SWAP2 SWAP1 POP JUMP JUMPDEST PUSH0 PUSH1 0x40 DUP3 ADD SWAP1 POP PUSH2 0x32EB PUSH0 DUP4 ADD DUP6 PUSH2 0x27EC JUMP JUMPDEST PUSH2 0x32F8 PUSH1 0x20 DUP4 ADD DUP5 PUSH2 0x27EC JUMP JUMPDEST SWAP4 SWAP3 POP POP POP JUMP JUMPDEST PUSH32 0x5468697320697320616E20756E736F6C642070726F647563742E000000000000 PUSH0 DUP3 ADD MSTORE POP JUMP JUMPDEST PUSH0 PUSH2 0x3333 PUSH1 0x1A DUP4 PUSH2 0x23B7 JUMP JUMPDEST SWAP2 POP PUSH2 0x333E DUP3 PUSH2 0x32FF JUMP JUMPDEST PUSH1 0x20 DUP3 ADD SWAP1 POP SWAP2 SWAP1 POP JUMP JUMPDEST PUSH0 PUSH1 0x20 DUP3 ADD SWAP1 POP DUP2 DUP2 SUB PUSH0 DUP4 ADD MSTORE PUSH2 0x3360 DUP2 PUSH2 0x3327 JUMP JUMPDEST SWAP1 POP SWAP2 SWAP1 POP JUMP JUMPDEST PUSH0 PUSH1 0xA0 DUP3 ADD SWAP1 POP PUSH2 0x337A PUSH0 DUP4 ADD DUP9 PUSH2 0x24E5 JUMP JUMPDEST PUSH2 0x3387 PUSH1 0x20 DUP4 ADD DUP8 PUSH2 0x27EC JUMP JUMPDEST PUSH2 0x3394 PUSH1 0x40 DUP4 ADD DUP7 PUSH2 0x27EC JUMP JUMPDEST PUSH2 0x33A1 PUSH1 0x60 DUP4 ADD DUP6 PUSH2 0x27EC JUMP JUMPDEST DUP2 DUP2 SUB PUSH1 0x80 DUP4 ADD MSTORE PUSH2 0x33B3 DUP2 DUP5 PUSH2 0x23FF JUMP JUMPDEST SWAP1 POP SWAP7 SWAP6 POP POP POP POP POP POP JUMP JUMPDEST PUSH0 DUP2 MLOAD SWAP1 POP PUSH2 0x33CD DUP2 PUSH2 0x28E5 JUMP JUMPDEST SWAP3 SWAP2 POP POP JUMP JUMPDEST PUSH0 PUSH1 0x20 DUP3 DUP5 SUB SLT ISZERO PUSH2 0x33E8 JUMPI PUSH2 0x33E7 PUSH2 0x22F2 JUMP JUMPDEST JUMPDEST PUSH0 PUSH2 0x33F5 DUP5 DUP3 DUP6 ADD PUSH2 0x33BF JUMP JUMPDEST SWAP2 POP POP SWAP3 SWAP2 POP POP JUMP JUMPDEST PUSH32 0x4E487B7100000000000000000000000000000000000000000000000000000000 PUSH0 MSTORE PUSH1 0x11 PUSH1 0x4 MSTORE PUSH1 0x24 PUSH0 REVERT JUMPDEST PUSH0 PUSH2 0x3435 DUP3 PUSH2 0x2457 JUMP JUMPDEST SWAP2 POP PUSH32 0xFFFFFFFFFFFFFFFFFFFFFFFFFFFFFFFFFFFFFFFFFFFFFFFFFFFFFFFFFFFFFFFF DUP3 SUB PUSH2 0x3467 JUMPI PUSH2 0x3466 PUSH2 0x33FE JUMP JUMPDEST JUMPDEST PUSH1 0x1 DUP3 ADD SWAP1 POP SWAP2 SWAP1 POP JUMP JUMPDEST PUSH0 PUSH1 0x40 DUP3 ADD SWAP1 POP PUSH2 0x3485 PUSH0 DUP4 ADD DUP6 PUSH2 0x27EC JUMP JUMPDEST DUP2 DUP2 SUB PUSH1 0x20 DUP4 ADD MSTORE PUSH2 0x3497 DUP2 DUP5 PUSH2 0x23FF JUMP JUMPDEST SWAP1 POP SWAP4 SWAP3 POP POP POP JUMP JUMPDEST PUSH0 PUSH1 0x40 DUP3 ADD SWAP1 POP PUSH2 0x34B3 PUSH0 DUP4 ADD DUP6 PUSH2 0x24E5 JUMP JUMPDEST PUSH2 0x34C0 PUSH1 0x20 DUP4 ADD DUP5 PUSH2 0x27EC JUMP JUMPDEST SWAP4 SWAP3 POP POP POP JUMP JUMPDEST PUSH0 DUP1 REVERT JUMPDEST PUSH0 DUP2 MLOAD SWAP1 POP PUSH2 0x34D9 DUP2 PUSH2 0x2460 JUMP JUMPDEST SWAP3 SWAP2 POP POP JUMP JUMPDEST PUSH0 PUSH1 0x60 DUP3 DUP5 SUB SLT ISZERO PUSH2 0x34F4 JUMPI PUSH2 0x34F3 PUSH2 0x34C7 JUMP JUMPDEST JUMPDEST PUSH2 0x34FE PUSH1 0x60 PUSH2 0x25DB JUMP JUMPDEST SWAP1 POP PUSH0 PUSH2 0x350D DUP5 DUP3 DUP6 ADD PUSH2 0x34CB JUMP JUMPDEST PUSH0 DUP4 ADD MSTORE POP PUSH1 0x20 PUSH2 0x3520 DUP5 DUP3 DUP6 ADD PUSH2 0x34CB JUMP JUMPDEST PUSH1 0x20 DUP4 ADD MSTORE POP PUSH1 0x40 PUSH2 0x3534 DUP5 DUP3 DUP6 ADD PUSH2 0x34CB JUMP JUMPDEST PUSH1 0x40 DUP4 ADD MSTORE POP SWAP3 SWAP2 POP POP JUMP JUMPDEST PUSH0 PUSH1 0x60 DUP3 DUP5 SUB SLT ISZERO PUSH2 0x3555 JUMPI PUSH2 0x3554 PUSH2 0x22F2 JUMP JUMPDEST JUMPDEST PUSH0 PUSH2 0x3562 DUP5 DUP3 DUP6 ADD PUSH2 0x34DF JUMP JUMPDEST SWAP2 POP POP SWAP3 SWAP2 POP POP JUMP JUMPDEST PUSH32 0x4552433732313A207472616E736665722066726F6D20696E636F727265637420 PUSH0 DUP3 ADD MSTORE PUSH32 0x6F776E6572000000000000000000000000000000000000000000000000000000 PUSH1 0x20 DUP3 ADD MSTORE POP JUMP JUMPDEST PUSH0 PUSH2 0x35C5 PUSH1 0x25 DUP4 PUSH2 0x23B7 JUMP JUMPDEST SWAP2 POP PUSH2 0x35D0 DUP3 PUSH2 0x356B JUMP JUMPDEST PUSH1 0x40 DUP3 ADD SWAP1 POP SWAP2 SWAP1 POP JUMP JUMPDEST PUSH0 PUSH1 0x20 DUP3 ADD SWAP1 POP DUP2 DUP2 SUB PUSH0 DUP4 ADD MSTORE PUSH2 0x35F2 DUP2 PUSH2 0x35B9 JUMP JUMPDEST SWAP1 POP SWAP2 SWAP1 POP JUMP JUMPDEST PUSH32 0x4552433732313A207472616E7366657220746F20746865207A65726F20616464 PUSH0 DUP3 ADD MSTORE PUSH32 0x7265737300000000000000000000000000000000000000000000000000000000 PUSH1 0x20 DUP3 ADD MSTORE POP JUMP JUMPDEST PUSH0 PUSH2 0x3653 PUSH1 0x24 DUP4 PUSH2 0x23B7 JUMP JUMPDEST SWAP2 POP PUSH2 0x365E DUP3 PUSH2 0x35F9 JUMP JUMPDEST PUSH1 0x40 DUP3 ADD SWAP1 POP SWAP2 SWAP1 POP JUMP JUMPDEST PUSH0 PUSH1 0x20 DUP3 ADD SWAP1 POP DUP2 DUP2 SUB PUSH0 DUP4 ADD MSTORE PUSH2 0x3680 DUP2 PUSH2 0x3647 JUMP JUMPDEST SWAP1 POP SWAP2 SWAP1 POP JUMP JUMPDEST PUSH32 0x496E697469616C697A61626C653A20636F6E7472616374206973206E6F742069 PUSH0 DUP3 ADD MSTORE PUSH32 0x6E697469616C697A696E67000000000000000000000000000000000000000000 PUSH1 0x20 DUP3 ADD MSTORE POP JUMP JUMPDEST PUSH0 PUSH2 0x36E1 PUSH1 0x2B DUP4 PUSH2 0x23B7 JUMP JUMPDEST SWAP2 POP PUSH2 0x36EC DUP3 PUSH2 0x3687 JUMP JUMPDEST PUSH1 0x40 DUP3 ADD SWAP1 POP SWAP2 SWAP1 POP JUMP JUMPDEST PUSH0 PUSH1 0x20 DUP3 ADD SWAP1 POP DUP2 DUP2 SUB PUSH0 DUP4 ADD MSTORE PUSH2 0x370E DUP2 PUSH2 0x36D5 JUMP JUMPDEST SWAP1 POP SWAP2 SWAP1 POP JUMP JUMPDEST PUSH32 0x4552433732313A20617070726F766520746F2063616C6C657200000000000000 PUSH0 DUP3 ADD MSTORE POP JUMP JUMPDEST PUSH0 PUSH2 0x3749 PUSH1 0x19 DUP4 PUSH2 0x23B7 JUMP JUMPDEST SWAP2 POP PUSH2 0x3754 DUP3 PUSH2 0x3715 JUMP JUMPDEST PUSH1 0x20 DUP3 ADD SWAP1 POP SWAP2 SWAP1 POP JUMP JUMPDEST PUSH0 PUSH1 0x20 DUP3 ADD SWAP1 POP DUP2 DUP2 SUB PUSH0 DUP4 ADD MSTORE PUSH2 0x3776 DUP2 PUSH2 0x373D JUMP JUMPDEST SWAP1 POP SWAP2 SWAP1 POP JUMP JUMPDEST PUSH32 0x4552433732313A207472616E7366657220746F206E6F6E204552433732315265 PUSH0 DUP3 ADD MSTORE PUSH32 0x63656976657220696D706C656D656E7465720000000000000000000000000000 PUSH1 0x20 DUP3 ADD MSTORE POP JUMP JUMPDEST PUSH0 PUSH2 0x37D7 PUSH1 0x32 DUP4 PUSH2 0x23B7 JUMP JUMPDEST SWAP2 POP PUSH2 0x37E2 DUP3 PUSH2 0x377D JUMP JUMPDEST PUSH1 0x40 DUP3 ADD SWAP1 POP SWAP2 SWAP1 POP JUMP JUMPDEST PUSH0 PUSH1 0x20 DUP3 ADD SWAP1 POP DUP2 DUP2 SUB PUSH0 DUP4 ADD MSTORE PUSH2 0x3804 DUP2 PUSH2 0x37CB JUMP JUMPDEST SWAP1 POP SWAP2 SWAP1 POP JUMP JUMPDEST PUSH32 0x546F6B656E206E6F74206578697374732E000000000000000000000000000000 PUSH0 DUP3 ADD MSTORE POP JUMP JUMPDEST PUSH0 PUSH2 0x383F PUSH1 0x11 DUP4 PUSH2 0x23B7 JUMP JUMPDEST SWAP2 POP PUSH2 0x384A DUP3 PUSH2 0x380B JUMP JUMPDEST PUSH1 0x20 DUP3 ADD SWAP1 POP SWAP2 SWAP1 POP JUMP JUMPDEST PUSH0 PUSH1 0x20 DUP3 ADD SWAP1 POP DUP2 DUP2 SUB PUSH0 DUP4 ADD MSTORE PUSH2 0x386C DUP2 PUSH2 0x3833 JUMP JUMPDEST SWAP1 POP SWAP2 SWAP1 POP JUMP JUMPDEST PUSH0 DUP2 MLOAD SWAP1 POP SWAP2 SWAP1 POP JUMP JUMPDEST PUSH0 DUP3 DUP3 MSTORE PUSH1 0x20 DUP3 ADD SWAP1 POP SWAP3 SWAP2 POP POP JUMP JUMPDEST PUSH0 PUSH2 0x3897 DUP3 PUSH2 0x3873 JUMP JUMPDEST PUSH2 0x38A1 DUP2 DUP6 PUSH2 0x387D JUMP JUMPDEST SWAP4 POP PUSH2 0x38B1 DUP2 DUP6 PUSH1 0x20 DUP7 ADD PUSH2 0x23C7 JUMP JUMPDEST PUSH2 0x38BA DUP2 PUSH2 0x23EF JUMP JUMPDEST DUP5 ADD SWAP2 POP POP SWAP3 SWAP2 POP POP JUMP JUMPDEST PUSH0 PUSH1 0x80 DUP3 ADD SWAP1 POP PUSH2 0x38D8 PUSH0 DUP4 ADD DUP8 PUSH2 0x24E5 JUMP JUMPDEST PUSH2 0x38E5 PUSH1 0x20 DUP4 ADD DUP7 PUSH2 0x24E5 JUMP JUMPDEST PUSH2 0x38F2 PUSH1 0x40 DUP4 ADD DUP6 PUSH2 0x27EC JUMP JUMPDEST DUP2 DUP2 SUB PUSH1 0x60 DUP4 ADD MSTORE PUSH2 0x3904 DUP2 DUP5 PUSH2 0x388D JUMP JUMPDEST SWAP1 POP SWAP6 SWAP5 POP POP POP POP POP JUMP JUMPDEST PUSH0 DUP2 MLOAD SWAP1 POP PUSH2 0x391D DUP2 PUSH2 0x2325 JUMP JUMPDEST SWAP3 SWAP2 POP POP JUMP JUMPDEST PUSH0 PUSH1 0x20 DUP3 DUP5 SUB SLT ISZERO PUSH2 0x3938 JUMPI PUSH2 0x3937 PUSH2 0x22F2 JUMP JUMPDEST JUMPDEST PUSH0 PUSH2 0x3945 DUP5 DUP3 DUP6 ADD PUSH2 0x390F JUMP JUMPDEST SWAP2 POP POP SWAP3 SWAP2 POP POP JUMP JUMPDEST PUSH32 0x4552433732313A206D696E7420746F20746865207A65726F2061646472657373 PUSH0 DUP3 ADD MSTORE POP JUMP JUMPDEST PUSH0 PUSH2 0x3982 PUSH1 0x20 DUP4 PUSH2 0x23B7 JUMP JUMPDEST SWAP2 POP PUSH2 0x398D DUP3 PUSH2 0x394E JUMP JUMPDEST PUSH1 0x20 DUP3 ADD SWAP1 POP SWAP2 SWAP1 POP JUMP JUMPDEST PUSH0 PUSH1 0x20 DUP3 ADD SWAP1 POP DUP2 DUP2 SUB PUSH0 DUP4 ADD MSTORE PUSH2 0x39AF DUP2 PUSH2 0x3976 JUMP JUMPDEST SWAP1 POP SWAP2 SWAP1 POP JUMP JUMPDEST PUSH32 0x4552433732313A20746F6B656E20616C7265616479206D696E74656400000000 PUSH0 DUP3 ADD MSTORE POP JUMP JUMPDEST PUSH0 PUSH2 0x39EA PUSH1 0x1C DUP4 PUSH2 0x23B7 JUMP JUMPDEST SWAP2 POP PUSH2 0x39F5 DUP3 PUSH2 0x39B6 JUMP JUMPDEST PUSH1 0x20 DUP3 ADD SWAP1 POP SWAP2 SWAP1 POP JUMP JUMPDEST PUSH0 PUSH1 0x20 DUP3 ADD SWAP1 POP DUP2 DUP2 SUB PUSH0 DUP4 ADD MSTORE PUSH2 0x3A17 DUP2 PUSH2 0x39DE JUMP JUMPDEST SWAP1 POP SWAP2 SWAP1 POP JUMP INVALID LOG2 PUSH5 0x6970667358 0x22 SLT KECCAK256 0xEF SWAP10 LOG2 0xFB SWAP1 CALLVALUE EXTCODEHASH LOG2 0xE1 0xE5 JUMPI PUSH11 0x91DE0161B1DA8E08E7FC81 PUSH14 0x90A81BB7A53982CD64736F6C6343 STOP ADDMOD EQ STOP CALLER "
		},
		"gasEstimates": {
			"creation": {
				"codeDepositCost": "2986400",
				"executionCost": "3276",
				"totalCost": "2989676"
			},
			"external": {
				"approve(address,uint256)": "infinite",
				"balanceOf(address)": "2975",
				"buyDownloadTicket(address,uint256,uint256,uint256,string)": "infinite",
				"getApproved(uint256)": "5282",
				"initialize(string,string)": "infinite",
				"isApprovedForAll(address,address)": "infinite",
				"mintCopyright(address,uint256,string,bool)": "infinite",
				"modifyDownloadTokenUri(uint256,string)": "infinite",
				"modifyDownloadTotalCnt(uint256,uint256)": "infinite",
				"modifySellYn(uint256,bool)": "27217",
				"modifyTokenUri(uint256,string)": "infinite",
				"name()": "infinite",
				"ownerOf(uint256)": "3072",
				"safeTransferFrom(address,address,uint256)": "infinite",
				"safeTransferFrom(address,address,uint256,bytes)": "infinite",
				"setApprovalForAll(address,bool)": "infinite",
				"setDownloadAddress(address)": "29220",
				"supportsInterface(bytes4)": "787",
				"symbol()": "infinite",
				"tokenURI(uint256)": "infinite",
				"transferFrom(address,address,uint256)": "infinite",
				"useDownload(address,uint256)": "infinite"
			},
			"internal": {
				"_checkExistsToken(uint256)": "infinite"
			}
		},
		"methodIdentifiers": {
			"approve(address,uint256)": "095ea7b3",
			"balanceOf(address)": "70a08231",
			"buyDownloadTicket(address,uint256,uint256,uint256,string)": "9a942571",
			"getApproved(uint256)": "081812fc",
			"initialize(string,string)": "4cd88b76",
			"isApprovedForAll(address,address)": "e985e9c5",
			"mintCopyright(address,uint256,string,bool)": "b2e18e80",
			"modifyDownloadTokenUri(uint256,string)": "aba9520d",
			"modifyDownloadTotalCnt(uint256,uint256)": "8d2110c2",
			"modifySellYn(uint256,bool)": "c4dafd4d",
			"modifyTokenUri(uint256,string)": "0bb43724",
			"name()": "06fdde03",
			"ownerOf(uint256)": "6352211e",
			"safeTransferFrom(address,address,uint256)": "42842e0e",
			"safeTransferFrom(address,address,uint256,bytes)": "b88d4fde",
			"setApprovalForAll(address,bool)": "a22cb465",
			"setDownloadAddress(address)": "8248a3de",
			"supportsInterface(bytes4)": "01ffc9a7",
			"symbol()": "95d89b41",
			"tokenURI(uint256)": "c87b56dd",
			"transferFrom(address,address,uint256)": "23b872dd",
			"useDownload(address,uint256)": "bfcfb52c"
		}
	},
	"abi": [
		{
			"anonymous": false,
			"inputs": [
				{
					"indexed": true,
					"internalType": "address",
					"name": "owner",
					"type": "address"
				},
				{
					"indexed": true,
					"internalType": "address",
					"name": "approved",
					"type": "address"
				},
				{
					"indexed": true,
					"internalType": "uint256",
					"name": "tokenId",
					"type": "uint256"
				}
			],
			"name": "Approval",
			"type": "event"
		},
		{
			"anonymous": false,
			"inputs": [
				{
					"indexed": true,
					"internalType": "address",
					"name": "owner",
					"type": "address"
				},
				{
					"indexed": true,
					"internalType": "address",
					"name": "operator",
					"type": "address"
				},
				{
					"indexed": false,
					"internalType": "bool",
					"name": "approved",
					"type": "bool"
				}
			],
			"name": "ApprovalForAll",
			"type": "event"
		},
		{
			"anonymous": false,
			"inputs": [
				{
					"indexed": false,
					"internalType": "uint8",
					"name": "version",
					"type": "uint8"
				}
			],
			"name": "Initialized",
			"type": "event"
		},
		{
			"anonymous": false,
			"inputs": [
				{
					"indexed": true,
					"internalType": "address",
					"name": "from",
					"type": "address"
				},
				{
					"indexed": true,
					"internalType": "address",
					"name": "to",
					"type": "address"
				},
				{
					"indexed": true,
					"internalType": "uint256",
					"name": "tokenId",
					"type": "uint256"
				}
			],
			"name": "Transfer",
			"type": "event"
		},
		{
			"inputs": [
				{
					"internalType": "address",
					"name": "to",
					"type": "address"
				},
				{
					"internalType": "uint256",
					"name": "tokenId",
					"type": "uint256"
				}
			],
			"name": "approve",
			"outputs": [],
			"stateMutability": "nonpayable",
			"type": "function"
		},
		{
			"inputs": [
				{
					"internalType": "address",
					"name": "owner",
					"type": "address"
				}
			],
			"name": "balanceOf",
			"outputs": [
				{
					"internalType": "uint256",
					"name": "",
					"type": "uint256"
				}
			],
			"stateMutability": "view",
			"type": "function"
		},
		{
			"inputs": [
				{
					"internalType": "address",
					"name": "to",
					"type": "address"
				},
				{
					"internalType": "uint256",
					"name": "copyrightId",
					"type": "uint256"
				},
				{
					"internalType": "uint256",
					"name": "downloadId",
					"type": "uint256"
				},
				{
					"internalType": "uint256",
					"name": "count",
					"type": "uint256"
				},
				{
					"internalType": "string",
					"name": "tokenUri",
					"type": "string"
				}
			],
			"name": "buyDownloadTicket",
			"outputs": [],
			"stateMutability": "nonpayable",
			"type": "function"
		},
		{
			"inputs": [
				{
					"internalType": "uint256",
					"name": "tokenId",
					"type": "uint256"
				}
			],
			"name": "getApproved",
			"outputs": [
				{
					"internalType": "address",
					"name": "",
					"type": "address"
				}
			],
			"stateMutability": "view",
			"type": "function"
		},
		{
			"inputs": [
				{
					"internalType": "string",
					"name": "name",
					"type": "string"
				},
				{
					"internalType": "string",
					"name": "symbol",
					"type": "string"
				}
			],
			"name": "initialize",
			"outputs": [],
			"stateMutability": "nonpayable",
			"type": "function"
		},
		{
			"inputs": [
				{
					"internalType": "address",
					"name": "owner",
					"type": "address"
				},
				{
					"internalType": "address",
					"name": "operator",
					"type": "address"
				}
			],
			"name": "isApprovedForAll",
			"outputs": [
				{
					"internalType": "bool",
					"name": "",
					"type": "bool"
				}
			],
			"stateMutability": "view",
			"type": "function"
		},
		{
			"inputs": [
				{
					"internalType": "address",
					"name": "to",
					"type": "address"
				},
				{
					"internalType": "uint256",
					"name": "copyrightId",
					"type": "uint256"
				},
				{
					"internalType": "string",
					"name": "tokenUri",
					"type": "string"
				},
				{
					"internalType": "bool",
					"name": "sellYn",
					"type": "bool"
				}
			],
			"name": "mintCopyright",
			"outputs": [],
			"stateMutability": "nonpayable",
			"type": "function"
		},
		{
			"inputs": [
				{
					"internalType": "uint256",
					"name": "downloadId",
					"type": "uint256"
				},
				{
					"internalType": "string",
					"name": "tokenUri",
					"type": "string"
				}
			],
			"name": "modifyDownloadTokenUri",
			"outputs": [],
			"stateMutability": "nonpayable",
			"type": "function"
		},
		{
			"inputs": [
				{
					"internalType": "uint256",
					"name": "downloadId",
					"type": "uint256"
				},
				{
					"internalType": "uint256",
					"name": "totalCnt",
					"type": "uint256"
				}
			],
			"name": "modifyDownloadTotalCnt",
			"outputs": [],
			"stateMutability": "nonpayable",
			"type": "function"
		},
		{
			"inputs": [
				{
					"internalType": "uint256",
					"name": "copyrightId",
					"type": "uint256"
				},
				{
					"internalType": "bool",
					"name": "sellYn",
					"type": "bool"
				}
			],
			"name": "modifySellYn",
			"outputs": [],
			"stateMutability": "nonpayable",
			"type": "function"
		},
		{
			"inputs": [
				{
					"internalType": "uint256",
					"name": "copyrightId",
					"type": "uint256"
				},
				{
					"internalType": "string",
					"name": "tokenUri",
					"type": "string"
				}
			],
			"name": "modifyTokenUri",
			"outputs": [],
			"stateMutability": "nonpayable",
			"type": "function"
		},
		{
			"inputs": [],
			"name": "name",
			"outputs": [
				{
					"internalType": "string",
					"name": "",
					"type": "string"
				}
			],
			"stateMutability": "view",
			"type": "function"
		},
		{
			"inputs": [
				{
					"internalType": "uint256",
					"name": "tokenId",
					"type": "uint256"
				}
			],
			"name": "ownerOf",
			"outputs": [
				{
					"internalType": "address",
					"name": "",
					"type": "address"
				}
			],
			"stateMutability": "view",
			"type": "function"
		},
		{
			"inputs": [
				{
					"internalType": "address",
					"name": "from",
					"type": "address"
				},
				{
					"internalType": "address",
					"name": "to",
					"type": "address"
				},
				{
					"internalType": "uint256",
					"name": "tokenId",
					"type": "uint256"
				}
			],
			"name": "safeTransferFrom",
			"outputs": [],
			"stateMutability": "nonpayable",
			"type": "function"
		},
		{
			"inputs": [
				{
					"internalType": "address",
					"name": "from",
					"type": "address"
				},
				{
					"internalType": "address",
					"name": "to",
					"type": "address"
				},
				{
					"internalType": "uint256",
					"name": "tokenId",
					"type": "uint256"
				},
				{
					"internalType": "bytes",
					"name": "data",
					"type": "bytes"
				}
			],
			"name": "safeTransferFrom",
			"outputs": [],
			"stateMutability": "nonpayable",
			"type": "function"
		},
		{
			"inputs": [
				{
					"internalType": "address",
					"name": "operator",
					"type": "address"
				},
				{
					"internalType": "bool",
					"name": "approved",
					"type": "bool"
				}
			],
			"name": "setApprovalForAll",
			"outputs": [],
			"stateMutability": "nonpayable",
			"type": "function"
		},
		{
			"inputs": [
				{
					"internalType": "address",
					"name": "downloadContractAddress",
					"type": "address"
				}
			],
			"name": "setDownloadAddress",
			"outputs": [],
			"stateMutability": "nonpayable",
			"type": "function"
		},
		{
			"inputs": [
				{
					"internalType": "bytes4",
					"name": "interfaceId",
					"type": "bytes4"
				}
			],
			"name": "supportsInterface",
			"outputs": [
				{
					"internalType": "bool",
					"name": "",
					"type": "bool"
				}
			],
			"stateMutability": "view",
			"type": "function"
		},
		{
			"inputs": [],
			"name": "symbol",
			"outputs": [
				{
					"internalType": "string",
					"name": "",
					"type": "string"
				}
			],
			"stateMutability": "view",
			"type": "function"
		},
		{
			"inputs": [
				{
					"internalType": "uint256",
					"name": "copyrightId",
					"type": "uint256"
				}
			],
			"name": "tokenURI",
			"outputs": [
				{
					"internalType": "string",
					"name": "",
					"type": "string"
				}
			],
			"stateMutability": "view",
			"type": "function"
		},
		{
			"inputs": [
				{
					"internalType": "address",
					"name": "from",
					"type": "address"
				},
				{
					"internalType": "address",
					"name": "to",
					"type": "address"
				},
				{
					"internalType": "uint256",
					"name": "tokenId",
					"type": "uint256"
				}
			],
			"name": "transferFrom",
			"outputs": [],
			"stateMutability": "nonpayable",
			"type": "function"
		},
		{
			"inputs": [
				{
					"internalType": "address",
					"name": "downloadOwner",
					"type": "address"
				},
				{
					"internalType": "uint256",
					"name": "downloadId",
					"type": "uint256"
				}
			],
			"name": "useDownload",
			"outputs": [],
			"stateMutability": "nonpayable",
			"type": "function"
		}
	]
}