{
  "contractName": "Ticket",
  "abi": [
    {
      "inputs": [],
      "stateMutability": "nonpayable",
      "type": "constructor"
    },
    {
      "anonymous": false,
      "inputs": [
        {
          "indexed": true,
          "internalType": "address",
          "name": "owner",
          "type": "address"
        },
        {
          "indexed": true,
          "internalType": "address",
          "name": "approved",
          "type": "address"
        },
        {
          "indexed": true,
          "internalType": "uint256",
          "name": "tokenId",
          "type": "uint256"
        }
      ],
      "name": "Approval",
      "type": "event"
    },
    {
      "anonymous": false,
      "inputs": [
        {
          "indexed": true,
          "internalType": "address",
          "name": "owner",
          "type": "address"
        },
        {
          "indexed": true,
          "internalType": "address",
          "name": "operator",
          "type": "address"
        },
        {
          "indexed": false,
          "internalType": "bool",
          "name": "approved",
          "type": "bool"
        }
      ],
      "name": "ApprovalForAll",
      "type": "event"
    },
    {
      "anonymous": false,
      "inputs": [
        {
          "indexed": false,
          "internalType": "uint256",
          "name": "_fromTokenId",
          "type": "uint256"
        },
        {
          "indexed": false,
          "internalType": "uint256",
          "name": "_toTokenId",
          "type": "uint256"
        }
      ],
      "name": "BatchMetadataUpdate",
      "type": "event"
    },
    {
      "anonymous": false,
      "inputs": [
        {
          "indexed": false,
          "internalType": "uint256",
          "name": "_tokenId",
          "type": "uint256"
        }
      ],
      "name": "MetadataUpdate",
      "type": "event"
    },
    {
      "anonymous": false,
      "inputs": [
        {
          "indexed": true,
          "internalType": "address",
          "name": "previousOwner",
          "type": "address"
        },
        {
          "indexed": true,
          "internalType": "address",
          "name": "newOwner",
          "type": "address"
        }
      ],
      "name": "OwnershipTransferred",
      "type": "event"
    },
    {
      "anonymous": false,
      "inputs": [
        {
          "indexed": true,
          "internalType": "address",
          "name": "from",
          "type": "address"
        },
        {
          "indexed": true,
          "internalType": "address",
          "name": "to",
          "type": "address"
        },
        {
          "indexed": true,
          "internalType": "uint256",
          "name": "tokenId",
          "type": "uint256"
        }
      ],
      "name": "Transfer",
      "type": "event"
    },
    {
      "anonymous": false,
      "inputs": [
        {
          "indexed": false,
          "internalType": "uint256",
          "name": "tokenId",
          "type": "uint256"
        }
      ],
      "name": "ticketuse",
      "type": "event"
    },
    {
      "inputs": [
        {
          "internalType": "address",
          "name": "to",
          "type": "address"
        },
        {
          "internalType": "uint256",
          "name": "tokenId",
          "type": "uint256"
        }
      ],
      "name": "approve",
      "outputs": [],
      "stateMutability": "nonpayable",
      "type": "function"
    },
    {
      "inputs": [
        {
          "internalType": "address",
          "name": "owner",
          "type": "address"
        }
      ],
      "name": "balanceOf",
      "outputs": [
        {
          "internalType": "uint256",
          "name": "",
          "type": "uint256"
        }
      ],
      "stateMutability": "view",
      "type": "function",
      "constant": true
    },
    {
      "inputs": [
        {
          "internalType": "uint256",
          "name": "tokenId",
          "type": "uint256"
        }
      ],
      "name": "getApproved",
      "outputs": [
        {
          "internalType": "address",
          "name": "",
          "type": "address"
        }
      ],
      "stateMutability": "view",
      "type": "function",
      "constant": true
    },
    {
      "inputs": [
        {
          "internalType": "address",
          "name": "owner",
          "type": "address"
        },
        {
          "internalType": "address",
          "name": "operator",
          "type": "address"
        }
      ],
      "name": "isApprovedForAll",
      "outputs": [
        {
          "internalType": "bool",
          "name": "",
          "type": "bool"
        }
      ],
      "stateMutability": "view",
      "type": "function",
      "constant": true
    },
    {
      "inputs": [],
      "name": "name",
      "outputs": [
        {
          "internalType": "string",
          "name": "",
          "type": "string"
        }
      ],
      "stateMutability": "view",
      "type": "function",
      "constant": true
    },
    {
      "inputs": [],
      "name": "owner",
      "outputs": [
        {
          "internalType": "address",
          "name": "",
          "type": "address"
        }
      ],
      "stateMutability": "view",
      "type": "function",
      "constant": true
    },
    {
      "inputs": [
        {
          "internalType": "uint256",
          "name": "tokenId",
          "type": "uint256"
        }
      ],
      "name": "ownerOf",
      "outputs": [
        {
          "internalType": "address",
          "name": "",
          "type": "address"
        }
      ],
      "stateMutability": "view",
      "type": "function",
      "constant": true
    },
    {
      "inputs": [
        {
          "internalType": "address",
          "name": "",
          "type": "address"
        }
      ],
      "name": "pendingWithdrawals",
      "outputs": [
        {
          "internalType": "uint256",
          "name": "",
          "type": "uint256"
        }
      ],
      "stateMutability": "view",
      "type": "function",
      "constant": true
    },
    {
      "inputs": [],
      "name": "renounceOwnership",
      "outputs": [],
      "stateMutability": "nonpayable",
      "type": "function"
    },
    {
      "inputs": [
        {
          "internalType": "address",
          "name": "from",
          "type": "address"
        },
        {
          "internalType": "address",
          "name": "to",
          "type": "address"
        },
        {
          "internalType": "uint256",
          "name": "tokenId",
          "type": "uint256"
        }
      ],
      "name": "safeTransferFrom",
      "outputs": [],
      "stateMutability": "nonpayable",
      "type": "function"
    },
    {
      "inputs": [
        {
          "internalType": "address",
          "name": "from",
          "type": "address"
        },
        {
          "internalType": "address",
          "name": "to",
          "type": "address"
        },
        {
          "internalType": "uint256",
          "name": "tokenId",
          "type": "uint256"
        },
        {
          "internalType": "bytes",
          "name": "data",
          "type": "bytes"
        }
      ],
      "name": "safeTransferFrom",
      "outputs": [],
      "stateMutability": "nonpayable",
      "type": "function"
    },
    {
      "inputs": [
        {
          "internalType": "address",
          "name": "operator",
          "type": "address"
        },
        {
          "internalType": "bool",
          "name": "approved",
          "type": "bool"
        }
      ],
      "name": "setApprovalForAll",
      "outputs": [],
      "stateMutability": "nonpayable",
      "type": "function"
    },
    {
      "inputs": [
        {
          "internalType": "bytes4",
          "name": "interfaceId",
          "type": "bytes4"
        }
      ],
      "name": "supportsInterface",
      "outputs": [
        {
          "internalType": "bool",
          "name": "",
          "type": "bool"
        }
      ],
      "stateMutability": "view",
      "type": "function",
      "constant": true
    },
    {
      "inputs": [],
      "name": "symbol",
      "outputs": [
        {
          "internalType": "string",
          "name": "",
          "type": "string"
        }
      ],
      "stateMutability": "view",
      "type": "function",
      "constant": true
    },
    {
      "inputs": [
        {
          "internalType": "uint256",
          "name": "tokenId",
          "type": "uint256"
        }
      ],
      "name": "tokenURI",
      "outputs": [
        {
          "internalType": "string",
          "name": "",
          "type": "string"
        }
      ],
      "stateMutability": "view",
      "type": "function",
      "constant": true
    },
    {
      "inputs": [
        {
          "internalType": "address",
          "name": "from",
          "type": "address"
        },
        {
          "internalType": "address",
          "name": "to",
          "type": "address"
        },
        {
          "internalType": "uint256",
          "name": "tokenId",
          "type": "uint256"
        }
      ],
      "name": "transferFrom",
      "outputs": [],
      "stateMutability": "nonpayable",
      "type": "function"
    },
    {
      "inputs": [
        {
          "internalType": "address",
          "name": "newOwner",
          "type": "address"
        }
      ],
      "name": "transferOwnership",
      "outputs": [],
      "stateMutability": "nonpayable",
      "type": "function"
    },
    {
      "inputs": [
        {
          "internalType": "address",
          "name": "to",
          "type": "address"
        },
        {
          "internalType": "uint256",
          "name": "tokenId",
          "type": "uint256"
        },
        {
          "internalType": "uint32",
          "name": "startTime",
          "type": "uint32"
        },
        {
          "internalType": "uint32",
          "name": "endTime",
          "type": "uint32"
        },
        {
          "internalType": "uint8",
          "name": "uses",
          "type": "uint8"
        },
        {
          "internalType": "uint256",
          "name": "price",
          "type": "uint256"
        },
        {
          "internalType": "string",
          "name": "seatNumber",
          "type": "string"
        },
        {
          "internalType": "string",
          "name": "tokenURI",
          "type": "string"
        }
      ],
      "name": "mintTicket",
      "outputs": [],
      "stateMutability": "nonpayable",
      "type": "function"
    },
    {
      "inputs": [
        {
          "internalType": "uint256",
          "name": "tokenId",
          "type": "uint256"
        }
      ],
      "name": "buyTicket",
      "outputs": [],
      "stateMutability": "payable",
      "type": "function",
      "payable": true
    },
    {
      "inputs": [
        {
          "internalType": "uint256",
          "name": "tokenId",
          "type": "uint256"
        }
      ],
      "name": "burnTicket",
      "outputs": [],
      "stateMutability": "nonpayable",
      "type": "function"
    },
    {
      "inputs": [
        {
          "internalType": "uint256",
          "name": "tokenId",
          "type": "uint256"
        }
      ],
      "name": "getTicketInfo",
      "outputs": [
        {
          "components": [
            {
              "internalType": "uint256",
              "name": "startTime",
              "type": "uint256"
            },
            {
              "internalType": "uint256",
              "name": "endTime",
              "type": "uint256"
            },
            {
              "internalType": "uint256",
              "name": "uses",
              "type": "uint256"
            },
            {
              "internalType": "uint256",
              "name": "price",
              "type": "uint256"
            },
            {
              "internalType": "string",
              "name": "seatNumber",
              "type": "string"
            },
            {
              "internalType": "bool",
              "name": "active",
              "type": "bool"
            }
          ],
          "internalType": "struct Ticket.TicketInfo",
          "name": "",
          "type": "tuple"
        }
      ],
      "stateMutability": "view",
      "type": "function",
      "constant": true
    },
    {
      "inputs": [
        {
          "internalType": "uint256",
          "name": "tokenId",
          "type": "uint256"
        }
      ],
      "name": "useTicket",
      "outputs": [],
      "stateMutability": "nonpayable",
      "type": "function"
    },
    {
      "inputs": [],
      "name": "withdraw",
      "outputs": [],
      "stateMutability": "nonpayable",
      "type": "function"
    }
  ],
  "bytecode": "0x60806040523480156200001157600080fd5b506040518060400160405280600b81526020017f4576656e745469636b65740000000000000000000000000000000000000000008152506040518060400160405280600481526020017f45544b540000000000000000000000000000000000000000000000000000000081525081600090816200008f919062000412565b508060019081620000a1919062000412565b505050620000c4620000b8620000ca60201b60201c565b620000d260201b60201c565b620004f9565b600033905090565b6000600760009054906101000a900473ffffffffffffffffffffffffffffffffffffffff16905081600760006101000a81548173ffffffffffffffffffffffffffffffffffffffff021916908373ffffffffffffffffffffffffffffffffffffffff1602179055508173ffffffffffffffffffffffffffffffffffffffff168173ffffffffffffffffffffffffffffffffffffffff167f8be0079c531659141344cd1fd0a4f28419497f9722a3daafe3b4186f6b6457e060405160405180910390a35050565b600081519050919050565b7f4e487b7100000000000000000000000000000000000000000000000000000000600052604160045260246000fd5b7f4e487b7100000000000000000000000000000000000000000000000000000000600052602260045260246000fd5b600060028204905060018216806200021a57607f821691505b60208210810362000230576200022f620001d2565b5b50919050565b60008190508160005260206000209050919050565b60006020601f8301049050919050565b600082821b905092915050565b6000600883026200029a7fffffffffffffffffffffffffffffffffffffffffffffffffffffffffffffffff826200025b565b620002a686836200025b565b95508019841693508086168417925050509392505050565b6000819050919050565b6000819050919050565b6000620002f3620002ed620002e784620002be565b620002c8565b620002be565b9050919050565b6000819050919050565b6200030f83620002d2565b620003276200031e82620002fa565b84845462000268565b825550505050565b600090565b6200033e6200032f565b6200034b81848462000304565b505050565b5b8181101562000373576200036760008262000334565b60018101905062000351565b5050565b601f821115620003c2576200038c8162000236565b62000397846200024b565b81016020851015620003a7578190505b620003bf620003b6856200024b565b83018262000350565b50505b505050565b600082821c905092915050565b6000620003e760001984600802620003c7565b1980831691505092915050565b6000620004028383620003d4565b9150826002028217905092915050565b6200041d8262000198565b67ffffffffffffffff811115620004395762000438620001a3565b5b62000445825462000201565b6200045282828562000377565b600060209050601f8311600181146200048a576000841562000475578287015190505b620004818582620003f4565b865550620004f1565b601f1984166200049a8662000236565b60005b82811015620004c4578489015182556001820191506020850194506020810190506200049d565b86831015620004e45784890151620004e0601f891682620003d4565b8355505b6001600288020188555050505b505050505050565b613e5d80620005096000396000f3fe6080604052600436106101405760003560e01c8063715018a6116100b6578063ba6e4e131161006f578063ba6e4e1314610423578063c87b56dd1461044c578063e985e9c514610489578063f2fde38b146104c6578063f3f43703146104ef578063ff99a0631461052c57610140565b8063715018a61461033b5780638da5cb5b1461035257806395d89b411461037d578063a22cb465146103a8578063a476b73d146103d1578063b88d4fde146103fa57610140565b80632660644811610108578063266064481461023c5780633ccfd60b1461026557806342842e0e1461027c5780636352211e146102a557806367dd74ca146102e257806370a08231146102fe57610140565b806301ffc9a71461014557806306fdde0314610182578063081812fc146101ad578063095ea7b3146101ea57806323b872dd14610213575b600080fd5b34801561015157600080fd5b5061016c600480360381019061016791906126ef565b610569565b6040516101799190612737565b60405180910390f35b34801561018e57600080fd5b506101976105ca565b6040516101a491906127e2565b60405180910390f35b3480156101b957600080fd5b506101d460048036038101906101cf919061283a565b61065c565b6040516101e191906128a8565b60405180910390f35b3480156101f657600080fd5b50610211600480360381019061020c91906128ef565b6106a2565b005b34801561021f57600080fd5b5061023a6004803603810190610235919061292f565b6107b9565b005b34801561024857600080fd5b50610263600480360381019061025e919061283a565b610819565b005b34801561027157600080fd5b5061027a610a0c565b005b34801561028857600080fd5b506102a3600480360381019061029e919061292f565b610b22565b005b3480156102b157600080fd5b506102cc60048036038101906102c7919061283a565b610b42565b6040516102d991906128a8565b60405180910390f35b6102fc60048036038101906102f7919061283a565b610bc8565b005b34801561030a57600080fd5b5061032560048036038101906103209190612982565b610cf5565b60405161033291906129be565b60405180910390f35b34801561034757600080fd5b50610350610dac565b005b34801561035e57600080fd5b50610367610dc0565b60405161037491906128a8565b60405180910390f35b34801561038957600080fd5b50610392610dea565b60405161039f91906127e2565b60405180910390f35b3480156103b457600080fd5b506103cf60048036038101906103ca9190612a05565b610e7c565b005b3480156103dd57600080fd5b506103f860048036038101906103f3919061283a565b610e92565b005b34801561040657600080fd5b50610421600480360381019061041c9190612b7a565b610f48565b005b34801561042f57600080fd5b5061044a60048036038101906104459190612d13565b610faa565b005b34801561045857600080fd5b50610473600480360381019061046e919061283a565b611083565b60405161048091906127e2565b60405180910390f35b34801561049557600080fd5b506104b060048036038101906104ab9190612e01565b611195565b6040516104bd9190612737565b60405180910390f35b3480156104d257600080fd5b506104ed60048036038101906104e89190612982565b611229565b005b3480156104fb57600080fd5b5061051660048036038101906105119190612982565b6112ac565b60405161052391906129be565b60405180910390f35b34801561053857600080fd5b50610553600480360381019061054e919061283a565b6112c4565b6040516105609190612f32565b60405180910390f35b6000634906490660e01b7bffffffffffffffffffffffffffffffffffffffffffffffffffffffff1916827bffffffffffffffffffffffffffffffffffffffffffffffffffffffff191614806105c357506105c2826113c6565b5b9050919050565b6060600080546105d990612f83565b80601f016020809104026020016040519081016040528092919081815260200182805461060590612f83565b80156106525780601f1061062757610100808354040283529160200191610652565b820191906000526020600020905b81548152906001019060200180831161063557829003601f168201915b5050505050905090565b6000610667826114a8565b6004600083815260200190815260200160002060009054906101000a900473ffffffffffffffffffffffffffffffffffffffff169050919050565b60006106ad82610b42565b90508073ffffffffffffffffffffffffffffffffffffffff168373ffffffffffffffffffffffffffffffffffffffff160361071d576040517f08c379a000000000000000000000000000000000000000000000000000000000815260040161071490613026565b60405180910390fd5b8073ffffffffffffffffffffffffffffffffffffffff1661073c6114f3565b73ffffffffffffffffffffffffffffffffffffffff16148061076b575061076a816107656114f3565b611195565b5b6107aa576040517f08c379a00000000000000000000000000000000000000000000000000000000081526004016107a1906130b8565b60405180910390fd5b6107b483836114fb565b505050565b6107ca6107c46114f3565b826115b4565b610809576040517f08c379a00000000000000000000000000000000000000000000000000000000081526004016108009061314a565b60405180910390fd5b610814838383611649565b505050565b61082a6108246114f3565b826115b4565b610869576040517f08c379a0000000000000000000000000000000000000000000000000000000008152600401610860906131b6565b60405180910390fd5b6008600082815260200190815260200160002060050160009054906101000a900460ff166108cc576040517f08c379a00000000000000000000000000000000000000000000000000000000081526004016108c390613222565b60405180910390fd5b60086000828152602001908152602001600020600001544210158015610908575060086000828152602001908152602001600020600101544211155b610947576040517f08c379a000000000000000000000000000000000000000000000000000000000815260040161093e9061328e565b60405180910390fd5b6001600860008381526020019081526020016000206002015461096a91906132dd565b60086000838152602001908152602001600020600201819055507f3ceedc57d5c556c4052cd5ade23dff441181b696a1bc75f0d6168f414ca26d9a816040516109b391906129be565b60405180910390a16000600860008381526020019081526020016000206002015403610a095760006008600083815260200190815260200160002060050160006101000a81548160ff0219169083151502179055505b50565b6000600960003373ffffffffffffffffffffffffffffffffffffffff1673ffffffffffffffffffffffffffffffffffffffff16815260200190815260200160002054905060008111610a93576040517f08c379a0000000000000000000000000000000000000000000000000000000008152600401610a8a9061335d565b60405180910390fd5b6000600960003373ffffffffffffffffffffffffffffffffffffffff1673ffffffffffffffffffffffffffffffffffffffff168152602001908152602001600020819055503373ffffffffffffffffffffffffffffffffffffffff166108fc829081150290604051600060405180830381858888f19350505050158015610b1e573d6000803e3d6000fd5b5050565b610b3d83838360405180602001604052806000815250610f48565b505050565b600080610b4e83611942565b9050600073ffffffffffffffffffffffffffffffffffffffff168173ffffffffffffffffffffffffffffffffffffffff1603610bbf576040517f08c379a0000000000000000000000000000000000000000000000000000000008152600401610bb6906133c9565b60405180910390fd5b80915050919050565b60086000828152602001908152602001600020600301543414610c20576040517f08c379a0000000000000000000000000000000000000000000000000000000008152600401610c1790613435565b60405180910390fd5b6008600082815260200190815260200160002060050160009054906101000a900460ff16610c83576040517f08c379a0000000000000000000000000000000000000000000000000000000008152600401610c7a90613222565b60405180910390fd5b6000610c8e82610b42565b905034600960008373ffffffffffffffffffffffffffffffffffffffff1673ffffffffffffffffffffffffffffffffffffffff1681526020019081526020016000206000828254610cdf9190613455565b92505081905550610cf1813384611649565b5050565b60008073ffffffffffffffffffffffffffffffffffffffff168273ffffffffffffffffffffffffffffffffffffffff1603610d65576040517f08c379a0000000000000000000000000000000000000000000000000000000008152600401610d5c906134fb565b60405180910390fd5b600360008373ffffffffffffffffffffffffffffffffffffffff1673ffffffffffffffffffffffffffffffffffffffff168152602001908152602001600020549050919050565b610db461197f565b610dbe60006119fd565b565b6000600760009054906101000a900473ffffffffffffffffffffffffffffffffffffffff16905090565b606060018054610df990612f83565b80601f0160208091040260200160405190810160405280929190818152602001828054610e2590612f83565b8015610e725780601f10610e4757610100808354040283529160200191610e72565b820191906000526020600020905b815481529060010190602001808311610e5557829003601f168201915b5050505050905090565b610e8e610e876114f3565b8383611ac3565b5050565b610ea3610e9d6114f3565b826115b4565b610ee2576040517f08c379a0000000000000000000000000000000000000000000000000000000008152600401610ed99061358d565b60405180910390fd5b610eeb81611c2f565b60086000828152602001908152602001600020600080820160009055600182016000905560028201600090556003820160009055600482016000610f2f91906125ee565b6005820160006101000a81549060ff0219169055505050565b610f59610f536114f3565b836115b4565b610f98576040517f08c379a0000000000000000000000000000000000000000000000000000000008152600401610f8f9061314a565b60405180910390fd5b610fa484848484611c82565b50505050565b610fb261197f565b610fbc8888611cde565b610fc68782611efb565b6040518060c001604052808763ffffffff1681526020018663ffffffff1681526020018560ff16815260200184815260200183815260200160011515815250600860008981526020019081526020016000206000820151816000015560208201518160010155604082015181600201556060820151816003015560808201518160040190816110559190613759565b5060a08201518160050160006101000a81548160ff0219169083151502179055509050505050505050505050565b606061108e826114a8565b60006006600084815260200190815260200160002080546110ae90612f83565b80601f01602080910402602001604051908101604052809291908181526020018280546110da90612f83565b80156111275780601f106110fc57610100808354040283529160200191611127565b820191906000526020600020905b81548152906001019060200180831161110a57829003601f168201915b505050505090506000611138611f9f565b9050600081510361114d578192505050611190565b60008251111561118257808260405160200161116a929190613867565b60405160208183030381529060405292505050611190565b61118b84611fb6565b925050505b919050565b6000600560008473ffffffffffffffffffffffffffffffffffffffff1673ffffffffffffffffffffffffffffffffffffffff16815260200190815260200160002060008373ffffffffffffffffffffffffffffffffffffffff1673ffffffffffffffffffffffffffffffffffffffff16815260200190815260200160002060009054906101000a900460ff16905092915050565b61123161197f565b600073ffffffffffffffffffffffffffffffffffffffff168173ffffffffffffffffffffffffffffffffffffffff16036112a0576040517f08c379a0000000000000000000000000000000000000000000000000000000008152600401611297906138fd565b60405180910390fd5b6112a9816119fd565b50565b60096020528060005260406000206000915090505481565b6112cc61262e565b600860008381526020019081526020016000206040518060c00160405290816000820154815260200160018201548152602001600282015481526020016003820154815260200160048201805461132290612f83565b80601f016020809104026020016040519081016040528092919081815260200182805461134e90612f83565b801561139b5780601f106113705761010080835404028352916020019161139b565b820191906000526020600020905b81548152906001019060200180831161137e57829003601f168201915b505050505081526020016005820160009054906101000a900460ff1615151515815250509050919050565b60007f80ac58cd000000000000000000000000000000000000000000000000000000007bffffffffffffffffffffffffffffffffffffffffffffffffffffffff1916827bffffffffffffffffffffffffffffffffffffffffffffffffffffffff1916148061149157507f5b5e139f000000000000000000000000000000000000000000000000000000007bffffffffffffffffffffffffffffffffffffffffffffffffffffffff1916827bffffffffffffffffffffffffffffffffffffffffffffffffffffffff1916145b806114a157506114a08261201e565b5b9050919050565b6114b181612088565b6114f0576040517f08c379a00000000000000000000000000000000000000000000000000000000081526004016114e7906133c9565b60405180910390fd5b50565b600033905090565b816004600083815260200190815260200160002060006101000a81548173ffffffffffffffffffffffffffffffffffffffff021916908373ffffffffffffffffffffffffffffffffffffffff160217905550808273ffffffffffffffffffffffffffffffffffffffff1661156e83610b42565b73ffffffffffffffffffffffffffffffffffffffff167f8c5be1e5ebec7d5bd14f71427d1e84f3dd0314c0f7b2291e5b200ac8c7c3b92560405160405180910390a45050565b6000806115c083610b42565b90508073ffffffffffffffffffffffffffffffffffffffff168473ffffffffffffffffffffffffffffffffffffffff16148061160257506116018185611195565b5b8061164057508373ffffffffffffffffffffffffffffffffffffffff166116288461065c565b73ffffffffffffffffffffffffffffffffffffffff16145b91505092915050565b8273ffffffffffffffffffffffffffffffffffffffff1661166982610b42565b73ffffffffffffffffffffffffffffffffffffffff16146116bf576040517f08c379a00000000000000000000000000000000000000000000000000000000081526004016116b69061398f565b60405180910390fd5b600073ffffffffffffffffffffffffffffffffffffffff168273ffffffffffffffffffffffffffffffffffffffff160361172e576040517f08c379a000000000000000000000000000000000000000000000000000000000815260040161172590613a21565b60405180910390fd5b61173b83838360016120c9565b8273ffffffffffffffffffffffffffffffffffffffff1661175b82610b42565b73ffffffffffffffffffffffffffffffffffffffff16146117b1576040517f08c379a00000000000000000000000000000000000000000000000000000000081526004016117a89061398f565b60405180910390fd5b6004600082815260200190815260200160002060006101000a81549073ffffffffffffffffffffffffffffffffffffffff02191690556001600360008573ffffffffffffffffffffffffffffffffffffffff1673ffffffffffffffffffffffffffffffffffffffff168152602001908152602001600020600082825403925050819055506001600360008473ffffffffffffffffffffffffffffffffffffffff1673ffffffffffffffffffffffffffffffffffffffff16815260200190815260200160002060008282540192505081905550816002600083815260200190815260200160002060006101000a81548173ffffffffffffffffffffffffffffffffffffffff021916908373ffffffffffffffffffffffffffffffffffffffff160217905550808273ffffffffffffffffffffffffffffffffffffffff168473ffffffffffffffffffffffffffffffffffffffff167fddf252ad1be2c89b69c2b068fc378daa952ba7f163c4a11628f55a4df523b3ef60405160405180910390a461193d83838360016120cf565b505050565b60006002600083815260200190815260200160002060009054906101000a900473ffffffffffffffffffffffffffffffffffffffff169050919050565b6119876114f3565b73ffffffffffffffffffffffffffffffffffffffff166119a5610dc0565b73ffffffffffffffffffffffffffffffffffffffff16146119fb576040517f08c379a00000000000000000000000000000000000000000000000000000000081526004016119f290613a8d565b60405180910390fd5b565b6000600760009054906101000a900473ffffffffffffffffffffffffffffffffffffffff16905081600760006101000a81548173ffffffffffffffffffffffffffffffffffffffff021916908373ffffffffffffffffffffffffffffffffffffffff1602179055508173ffffffffffffffffffffffffffffffffffffffff168173ffffffffffffffffffffffffffffffffffffffff167f8be0079c531659141344cd1fd0a4f28419497f9722a3daafe3b4186f6b6457e060405160405180910390a35050565b8173ffffffffffffffffffffffffffffffffffffffff168373ffffffffffffffffffffffffffffffffffffffff1603611b31576040517f08c379a0000000000000000000000000000000000000000000000000000000008152600401611b2890613af9565b60405180910390fd5b80600560008573ffffffffffffffffffffffffffffffffffffffff1673ffffffffffffffffffffffffffffffffffffffff16815260200190815260200160002060008473ffffffffffffffffffffffffffffffffffffffff1673ffffffffffffffffffffffffffffffffffffffff16815260200190815260200160002060006101000a81548160ff0219169083151502179055508173ffffffffffffffffffffffffffffffffffffffff168373ffffffffffffffffffffffffffffffffffffffff167f17307eab39ab6107e8899845ad3d59bd9653f200f220920489ca2b5937696c3183604051611c229190612737565b60405180910390a3505050565b611c38816120d5565b6000600660008381526020019081526020016000208054611c5890612f83565b905014611c7f57600660008281526020019081526020016000206000611c7e91906125ee565b5b50565b611c8d848484611649565b611c9984848484612223565b611cd8576040517f08c379a0000000000000000000000000000000000000000000000000000000008152600401611ccf90613b8b565b60405180910390fd5b50505050565b600073ffffffffffffffffffffffffffffffffffffffff168273ffffffffffffffffffffffffffffffffffffffff1603611d4d576040517f08c379a0000000000000000000000000000000000000000000000000000000008152600401611d4490613bf7565b60405180910390fd5b611d5681612088565b15611d96576040517f08c379a0000000000000000000000000000000000000000000000000000000008152600401611d8d90613c63565b60405180910390fd5b611da46000838360016120c9565b611dad81612088565b15611ded576040517f08c379a0000000000000000000000000000000000000000000000000000000008152600401611de490613c63565b60405180910390fd5b6001600360008473ffffffffffffffffffffffffffffffffffffffff1673ffffffffffffffffffffffffffffffffffffffff16815260200190815260200160002060008282540192505081905550816002600083815260200190815260200160002060006101000a81548173ffffffffffffffffffffffffffffffffffffffff021916908373ffffffffffffffffffffffffffffffffffffffff160217905550808273ffffffffffffffffffffffffffffffffffffffff16600073ffffffffffffffffffffffffffffffffffffffff167fddf252ad1be2c89b69c2b068fc378daa952ba7f163c4a11628f55a4df523b3ef60405160405180910390a4611ef76000838360016120cf565b5050565b611f0482612088565b611f43576040517f08c379a0000000000000000000000000000000000000000000000000000000008152600401611f3a90613cf5565b60405180910390fd5b80600660008481526020019081526020016000209081611f639190613759565b507ff8e1a15aba9398e019f0b49df1a4fde98ee17ae345cb5f6b5e2c27f5033e8ce782604051611f9391906129be565b60405180910390a15050565b606060405180602001604052806000815250905090565b6060611fc1826114a8565b6000611fcb611f9f565b90506000815111611feb5760405180602001604052806000815250612016565b80611ff5846123aa565b604051602001612006929190613867565b6040516020818303038152906040525b915050919050565b60007f01ffc9a7000000000000000000000000000000000000000000000000000000007bffffffffffffffffffffffffffffffffffffffffffffffffffffffff1916827bffffffffffffffffffffffffffffffffffffffffffffffffffffffff1916149050919050565b60008073ffffffffffffffffffffffffffffffffffffffff166120aa83611942565b73ffffffffffffffffffffffffffffffffffffffff1614159050919050565b50505050565b50505050565b60006120e082610b42565b90506120f08160008460016120c9565b6120f982610b42565b90506004600083815260200190815260200160002060006101000a81549073ffffffffffffffffffffffffffffffffffffffff02191690556001600360008373ffffffffffffffffffffffffffffffffffffffff1673ffffffffffffffffffffffffffffffffffffffff168152602001908152602001600020600082825403925050819055506002600083815260200190815260200160002060006101000a81549073ffffffffffffffffffffffffffffffffffffffff021916905581600073ffffffffffffffffffffffffffffffffffffffff168273ffffffffffffffffffffffffffffffffffffffff167fddf252ad1be2c89b69c2b068fc378daa952ba7f163c4a11628f55a4df523b3ef60405160405180910390a461221f8160008460016120cf565b5050565b60006122448473ffffffffffffffffffffffffffffffffffffffff16612478565b1561239d578373ffffffffffffffffffffffffffffffffffffffff1663150b7a0261226d6114f3565b8786866040518563ffffffff1660e01b815260040161228f9493929190613d6a565b6020604051808303816000875af19250505080156122cb57506040513d601f19601f820116820180604052508101906122c89190613dcb565b60015b61234d573d80600081146122fb576040519150601f19603f3d011682016040523d82523d6000602084013e612300565b606091505b506000815103612345576040517f08c379a000000000000000000000000000000000000000000000000000000000815260040161233c90613b8b565b60405180910390fd5b805181602001fd5b63150b7a0260e01b7bffffffffffffffffffffffffffffffffffffffffffffffffffffffff1916817bffffffffffffffffffffffffffffffffffffffffffffffffffffffff1916149150506123a2565b600190505b949350505050565b6060600060016123b98461249b565b01905060008167ffffffffffffffff8111156123d8576123d7612a4f565b5b6040519080825280601f01601f19166020018201604052801561240a5781602001600182028036833780820191505090505b509050600082602001820190505b60011561246d578080600190039150507f3031323334353637383961626364656600000000000000000000000000000000600a86061a8153600a858161246157612460613df8565b5b04945060008503612418575b819350505050919050565b6000808273ffffffffffffffffffffffffffffffffffffffff163b119050919050565b600080600090507a184f03e93ff9f4daa797ed6e38ed64bf6a1f01000000000000000083106124f9577a184f03e93ff9f4daa797ed6e38ed64bf6a1f01000000000000000083816124ef576124ee613df8565b5b0492506040810190505b6d04ee2d6d415b85acef81000000008310612536576d04ee2d6d415b85acef8100000000838161252c5761252b613df8565b5b0492506020810190505b662386f26fc10000831061256557662386f26fc10000838161255b5761255a613df8565b5b0492506010810190505b6305f5e100831061258e576305f5e100838161258457612583613df8565b5b0492506008810190505b61271083106125b35761271083816125a9576125a8613df8565b5b0492506004810190505b606483106125d657606483816125cc576125cb613df8565b5b0492506002810190505b600a83106125e5576001810190505b80915050919050565b5080546125fa90612f83565b6000825580601f1061260c575061262b565b601f01602090049060005260206000209081019061262a9190612666565b5b50565b6040518060c0016040528060008152602001600081526020016000815260200160008152602001606081526020016000151581525090565b5b8082111561267f576000816000905550600101612667565b5090565b6000604051905090565b600080fd5b600080fd5b60007fffffffff0000000000000000000000000000000000000000000000000000000082169050919050565b6126cc81612697565b81146126d757600080fd5b50565b6000813590506126e9816126c3565b92915050565b6000602082840312156127055761270461268d565b5b6000612713848285016126da565b91505092915050565b60008115159050919050565b6127318161271c565b82525050565b600060208201905061274c6000830184612728565b92915050565b600081519050919050565b600082825260208201905092915050565b60005b8381101561278c578082015181840152602081019050612771565b60008484015250505050565b6000601f19601f8301169050919050565b60006127b482612752565b6127be818561275d565b93506127ce81856020860161276e565b6127d781612798565b840191505092915050565b600060208201905081810360008301526127fc81846127a9565b905092915050565b6000819050919050565b61281781612804565b811461282257600080fd5b50565b6000813590506128348161280e565b92915050565b6000602082840312156128505761284f61268d565b5b600061285e84828501612825565b91505092915050565b600073ffffffffffffffffffffffffffffffffffffffff82169050919050565b600061289282612867565b9050919050565b6128a281612887565b82525050565b60006020820190506128bd6000830184612899565b92915050565b6128cc81612887565b81146128d757600080fd5b50565b6000813590506128e9816128c3565b92915050565b600080604083850312156129065761290561268d565b5b6000612914858286016128da565b925050602061292585828601612825565b9150509250929050565b6000806000606084860312156129485761294761268d565b5b6000612956868287016128da565b9350506020612967868287016128da565b925050604061297886828701612825565b9150509250925092565b6000602082840312156129985761299761268d565b5b60006129a6848285016128da565b91505092915050565b6129b881612804565b82525050565b60006020820190506129d360008301846129af565b92915050565b6129e28161271c565b81146129ed57600080fd5b50565b6000813590506129ff816129d9565b92915050565b60008060408385031215612a1c57612a1b61268d565b5b6000612a2a858286016128da565b9250506020612a3b858286016129f0565b9150509250929050565b600080fd5b600080fd5b7f4e487b7100000000000000000000000000000000000000000000000000000000600052604160045260246000fd5b612a8782612798565b810181811067ffffffffffffffff82111715612aa657612aa5612a4f565b5b80604052505050565b6000612ab9612683565b9050612ac58282612a7e565b919050565b600067ffffffffffffffff821115612ae557612ae4612a4f565b5b612aee82612798565b9050602081019050919050565b82818337600083830152505050565b6000612b1d612b1884612aca565b612aaf565b905082815260208101848484011115612b3957612b38612a4a565b5b612b44848285612afb565b509392505050565b600082601f830112612b6157612b60612a45565b5b8135612b71848260208601612b0a565b91505092915050565b60008060008060808587031215612b9457612b9361268d565b5b6000612ba2878288016128da565b9450506020612bb3878288016128da565b9350506040612bc487828801612825565b925050606085013567ffffffffffffffff811115612be557612be4612692565b5b612bf187828801612b4c565b91505092959194509250565b600063ffffffff82169050919050565b612c1681612bfd565b8114612c2157600080fd5b50565b600081359050612c3381612c0d565b92915050565b600060ff82169050919050565b612c4f81612c39565b8114612c5a57600080fd5b50565b600081359050612c6c81612c46565b92915050565b600067ffffffffffffffff821115612c8d57612c8c612a4f565b5b612c9682612798565b9050602081019050919050565b6000612cb6612cb184612c72565b612aaf565b905082815260208101848484011115612cd257612cd1612a4a565b5b612cdd848285612afb565b509392505050565b600082601f830112612cfa57612cf9612a45565b5b8135612d0a848260208601612ca3565b91505092915050565b600080600080600080600080610100898b031215612d3457612d3361268d565b5b6000612d428b828c016128da565b9850506020612d538b828c01612825565b9750506040612d648b828c01612c24565b9650506060612d758b828c01612c24565b9550506080612d868b828c01612c5d565b94505060a0612d978b828c01612825565b93505060c089013567ffffffffffffffff811115612db857612db7612692565b5b612dc48b828c01612ce5565b92505060e089013567ffffffffffffffff811115612de557612de4612692565b5b612df18b828c01612ce5565b9150509295985092959890939650565b60008060408385031215612e1857612e1761268d565b5b6000612e26858286016128da565b9250506020612e37858286016128da565b9150509250929050565b612e4a81612804565b82525050565b600082825260208201905092915050565b6000612e6c82612752565b612e768185612e50565b9350612e8681856020860161276e565b612e8f81612798565b840191505092915050565b612ea38161271c565b82525050565b600060c083016000830151612ec16000860182612e41565b506020830151612ed46020860182612e41565b506040830151612ee76040860182612e41565b506060830151612efa6060860182612e41565b5060808301518482036080860152612f128282612e61565b91505060a0830151612f2760a0860182612e9a565b508091505092915050565b60006020820190508181036000830152612f4c8184612ea9565b905092915050565b7f4e487b7100000000000000000000000000000000000000000000000000000000600052602260045260246000fd5b60006002820490506001821680612f9b57607f821691505b602082108103612fae57612fad612f54565b5b50919050565b7f4552433732313a20617070726f76616c20746f2063757272656e74206f776e6560008201527f7200000000000000000000000000000000000000000000000000000000000000602082015250565b600061301060218361275d565b915061301b82612fb4565b604082019050919050565b6000602082019050818103600083015261303f81613003565b9050919050565b7f4552433732313a20617070726f76652063616c6c6572206973206e6f7420746f60008201527f6b656e206f776e6572206f7220617070726f76656420666f7220616c6c000000602082015250565b60006130a2603d8361275d565b91506130ad82613046565b604082019050919050565b600060208201905081810360008301526130d181613095565b9050919050565b7f4552433732313a2063616c6c6572206973206e6f7420746f6b656e206f776e6560008201527f72206f7220617070726f76656400000000000000000000000000000000000000602082015250565b6000613134602d8361275d565b915061313f826130d8565b604082019050919050565b6000602082019050818103600083015261316381613127565b9050919050565b7f43616c6c6572206973206e6f74206f776e6572206e6f7220617070726f766564600082015250565b60006131a060208361275d565b91506131ab8261316a565b602082019050919050565b600060208201905081810360008301526131cf81613193565b9050919050565b7f5469636b6574206973206e6f7420616374697665000000000000000000000000600082015250565b600061320c60148361275d565b9150613217826131d6565b602082019050919050565b6000602082019050818103600083015261323b816131ff565b9050919050565b7f5469636b6574206973206e6f7420696e2076616c696420706572696f64000000600082015250565b6000613278601d8361275d565b915061328382613242565b602082019050919050565b600060208201905081810360008301526132a78161326b565b9050919050565b7f4e487b7100000000000000000000000000000000000000000000000000000000600052601160045260246000fd5b60006132e882612804565b91506132f383612804565b925082820390508181111561330b5761330a6132ae565b5b92915050565b7f4e6f7468696e6720746f20776974686472617700000000000000000000000000600082015250565b600061334760138361275d565b915061335282613311565b602082019050919050565b600060208201905081810360008301526133768161333a565b9050919050565b7f4552433732313a20696e76616c696420746f6b656e2049440000000000000000600082015250565b60006133b360188361275d565b91506133be8261337d565b602082019050919050565b600060208201905081810360008301526133e2816133a6565b9050919050565b7f496e636f72726563742076616c75652073656e74000000000000000000000000600082015250565b600061341f60148361275d565b915061342a826133e9565b602082019050919050565b6000602082019050818103600083015261344e81613412565b9050919050565b600061346082612804565b915061346b83612804565b9250828201905080821115613483576134826132ae565b5b92915050565b7f4552433732313a2061646472657373207a65726f206973206e6f74206120766160008201527f6c6964206f776e65720000000000000000000000000000000000000000000000602082015250565b60006134e560298361275d565b91506134f082613489565b604082019050919050565b60006020820190508181036000830152613514816134d8565b9050919050565b7f4552433732313a206275726e2063616c6c6572206973206e6f74206f776e657260008201527f206e6f7220617070726f76656400000000000000000000000000000000000000602082015250565b6000613577602d8361275d565b91506135828261351b565b604082019050919050565b600060208201905081810360008301526135a68161356a565b9050919050565b60008190508160005260206000209050919050565b60006020601f8301049050919050565b600082821b905092915050565b60006008830261360f7fffffffffffffffffffffffffffffffffffffffffffffffffffffffffffffffff826135d2565b61361986836135d2565b95508019841693508086168417925050509392505050565b6000819050919050565b600061365661365161364c84612804565b613631565b612804565b9050919050565b6000819050919050565b6136708361363b565b61368461367c8261365d565b8484546135df565b825550505050565b600090565b61369961368c565b6136a4818484613667565b505050565b5b818110156136c8576136bd600082613691565b6001810190506136aa565b5050565b601f82111561370d576136de816135ad565b6136e7846135c2565b810160208510156136f6578190505b61370a613702856135c2565b8301826136a9565b50505b505050565b600082821c905092915050565b600061373060001984600802613712565b1980831691505092915050565b6000613749838361371f565b9150826002028217905092915050565b61376282612752565b67ffffffffffffffff81111561377b5761377a612a4f565b5b6137858254612f83565b6137908282856136cc565b600060209050601f8311600181146137c357600084156137b1578287015190505b6137bb858261373d565b865550613823565b601f1984166137d1866135ad565b60005b828110156137f9578489015182556001820191506020850194506020810190506137d4565b868310156138165784890151613812601f89168261371f565b8355505b6001600288020188555050505b505050505050565b600081905092915050565b600061384182612752565b61384b818561382b565b935061385b81856020860161276e565b80840191505092915050565b60006138738285613836565b915061387f8284613836565b91508190509392505050565b7f4f776e61626c653a206e6577206f776e657220697320746865207a65726f206160008201527f6464726573730000000000000000000000000000000000000000000000000000602082015250565b60006138e760268361275d565b91506138f28261388b565b604082019050919050565b60006020820190508181036000830152613916816138da565b9050919050565b7f4552433732313a207472616e736665722066726f6d20696e636f72726563742060008201527f6f776e6572000000000000000000000000000000000000000000000000000000602082015250565b600061397960258361275d565b91506139848261391d565b604082019050919050565b600060208201905081810360008301526139a88161396c565b9050919050565b7f4552433732313a207472616e7366657220746f20746865207a65726f2061646460008201527f7265737300000000000000000000000000000000000000000000000000000000602082015250565b6000613a0b60248361275d565b9150613a16826139af565b604082019050919050565b60006020820190508181036000830152613a3a816139fe565b9050919050565b7f4f776e61626c653a2063616c6c6572206973206e6f7420746865206f776e6572600082015250565b6000613a7760208361275d565b9150613a8282613a41565b602082019050919050565b60006020820190508181036000830152613aa681613a6a565b9050919050565b7f4552433732313a20617070726f766520746f2063616c6c657200000000000000600082015250565b6000613ae360198361275d565b9150613aee82613aad565b602082019050919050565b60006020820190508181036000830152613b1281613ad6565b9050919050565b7f4552433732313a207472616e7366657220746f206e6f6e20455243373231526560008201527f63656976657220696d706c656d656e7465720000000000000000000000000000602082015250565b6000613b7560328361275d565b9150613b8082613b19565b604082019050919050565b60006020820190508181036000830152613ba481613b68565b9050919050565b7f4552433732313a206d696e7420746f20746865207a65726f2061646472657373600082015250565b6000613be160208361275d565b9150613bec82613bab565b602082019050919050565b60006020820190508181036000830152613c1081613bd4565b9050919050565b7f4552433732313a20746f6b656e20616c7265616479206d696e74656400000000600082015250565b6000613c4d601c8361275d565b9150613c5882613c17565b602082019050919050565b60006020820190508181036000830152613c7c81613c40565b9050919050565b7f45524337323155524953746f726167653a2055524920736574206f66206e6f6e60008201527f6578697374656e7420746f6b656e000000000000000000000000000000000000602082015250565b6000613cdf602e8361275d565b9150613cea82613c83565b604082019050919050565b60006020820190508181036000830152613d0e81613cd2565b9050919050565b600081519050919050565b600082825260208201905092915050565b6000613d3c82613d15565b613d468185613d20565b9350613d5681856020860161276e565b613d5f81612798565b840191505092915050565b6000608082019050613d7f6000830187612899565b613d8c6020830186612899565b613d9960408301856129af565b8181036060830152613dab8184613d31565b905095945050505050565b600081519050613dc5816126c3565b92915050565b600060208284031215613de157613de061268d565b5b6000613def84828501613db6565b91505092915050565b7f4e487b7100000000000000000000000000000000000000000000000000000000600052601260045260246000fdfea2646970667358221220328303e6aea6aab53dd397fb76af50741f582bd195b9f231583c8590a940662364736f6c63430008110033",
  "immutableReferences": {},
  "source": "// SPDX-License-Identifier: MIT\npragma solidity ^0.8.0;\n\nimport \"@openzeppelin/contracts/token/ERC721/ERC721.sol\";\nimport \"@openzeppelin/contracts/token/ERC721/extensions/ERC721URIStorage.sol\";\nimport \"@openzeppelin/contracts/access/Ownable.sol\";\n\n// @notice 1688137200 : 2023-07-01 00:00:00\n// @notice 1690729200 : 2023-07-31 00:00:00\n\ncontract Ticket is ERC721URIStorage, Ownable {\n    // @dev ERC 721    ERC721(_name, _symbol)\n    constructor() ERC721(\"EventTicket\", \"ETKT\"){}\n    event ticketuse(uint tokenId);\n\n    struct TicketInfo {\n        uint startTime;     // @param \n        uint endTime;\n        uint uses;          // @param \n        uint price;         // @param \n        string seatNumber;  // @param \n        bool active;        // @param \n    }\n\n    mapping(uint => TicketInfo) private _tickets;\n    mapping(address => uint) public pendingWithdrawals;\n\n    function mintTicket(    //  \n        address to, \n        uint tokenId, \n        uint32 startTime, \n        uint32 endTime, \n        uint8 uses,\n        uint price,\n        string memory seatNumber,\n        string memory tokenURI\n    ) public onlyOwner {\n        _mint(to, tokenId); \n        _setTokenURI(tokenId, tokenURI);\n        _tickets[tokenId] = TicketInfo(startTime, endTime, uses, price, seatNumber, true);\n    }\n\n    function buyTicket(uint256 tokenId) public payable {            //  \n        require(msg.value == _tickets[tokenId].price, \"Incorrect value sent\");\n        require(_tickets[tokenId].active, \"Ticket is not active\");  //  \n        address currentOwner = ownerOf(tokenId);\n        pendingWithdrawals[currentOwner] += msg.value;              //   \n        _transfer(currentOwner, msg.sender, tokenId);\n    }\n\n    function burnTicket(uint256 tokenId) public {                   //  \n        require(_isApprovedOrOwner(_msgSender(), tokenId), \"ERC721: burn caller is not owner nor approved\");\n        _burn(tokenId);\n        delete _tickets[tokenId];\n    }\n\n    function getTicketInfo(uint256 tokenId) public view returns (TicketInfo memory) {       //   \n        return _tickets[tokenId];\n    }\n\n    function useTicket(uint256 tokenId) public {                    //  \n        require(_isApprovedOrOwner(_msgSender(), tokenId), \"Caller is not owner nor approved\");\n        require(_tickets[tokenId].active, \"Ticket is not active\");\n        require(block.timestamp >= _tickets[tokenId].startTime && block.timestamp <= _tickets[tokenId].endTime, \"Ticket is not in valid period\");\n        //   \n        _tickets[tokenId].uses = _tickets[tokenId].uses - 1;        //    \n        emit ticketuse(tokenId);\n        \n        if (_tickets[tokenId].uses == 0) {\n            _tickets[tokenId].active = false;\n        }\n    }\n\n    function withdraw() public {                                    // \n        uint amount = pendingWithdrawals[msg.sender];\n        require(amount > 0, \"Nothing to withdraw\");\n        pendingWithdrawals[msg.sender] = 0;                         // @dev       \n        payable(msg.sender).transfer(amount);                       //  \n    }\n}",
  "sourcePath": "/Users/guarantable/bitbucket/2week_ticket/contracts/Ticket.sol",
  "compiler": {
    "name": "solc",
    "version": "0.8.17+commit.8df45f5f.Emscripten.clang"
  },
  "schemaVersion": "3.4.14",
  "updatedAt": "2023-07-24T03:04:10.326Z",
  "networkType": "ethereum",
  "devdoc": {
    "kind": "dev",
    "methods": {
      "approve(address,uint256)": {
        "details": "See {IERC721-approve}."
      },
      "balanceOf(address)": {
        "details": "See {IERC721-balanceOf}."
      },
      "getApproved(uint256)": {
        "details": "See {IERC721-getApproved}."
      },
      "isApprovedForAll(address,address)": {
        "details": "See {IERC721-isApprovedForAll}."
      },
      "name()": {
        "details": "See {IERC721Metadata-name}."
      },
      "owner()": {
        "details": "Returns the address of the current owner."
      },
      "ownerOf(uint256)": {
        "details": "See {IERC721-ownerOf}."
      },
      "renounceOwnership()": {
        "details": "Leaves the contract without owner. It will not be possible to call `onlyOwner` functions. Can only be called by the current owner. NOTE: Renouncing ownership will leave the contract without an owner, thereby disabling any functionality that is only available to the owner."
      },
      "safeTransferFrom(address,address,uint256)": {
        "details": "See {IERC721-safeTransferFrom}."
      },
      "safeTransferFrom(address,address,uint256,bytes)": {
        "details": "See {IERC721-safeTransferFrom}."
      },
      "setApprovalForAll(address,bool)": {
        "details": "See {IERC721-setApprovalForAll}."
      },
      "supportsInterface(bytes4)": {
        "details": "See {IERC165-supportsInterface}"
      },
      "symbol()": {
        "details": "See {IERC721Metadata-symbol}."
      },
      "tokenURI(uint256)": {
        "details": "See {IERC721Metadata-tokenURI}."
      },
      "transferFrom(address,address,uint256)": {
        "details": "See {IERC721-transferFrom}."
      },
      "transferOwnership(address)": {
        "details": "Transfers ownership of the contract to a new account (`newOwner`). Can only be called by the current owner."
      }
    },
    "version": 1
  },
  "userdoc": {
    "kind": "user",
    "methods": {},
    "version": 1
  }
}