{
  "contractName": "E1155test",
  "abi": [
    {
      "inputs": [],
      "stateMutability": "nonpayable",
      "type": "constructor"
    },
    {
      "anonymous": false,
      "inputs": [
        {
          "indexed": true,
          "internalType": "address",
          "name": "account",
          "type": "address"
        },
        {
          "indexed": true,
          "internalType": "address",
          "name": "operator",
          "type": "address"
        },
        {
          "indexed": false,
          "internalType": "bool",
          "name": "approved",
          "type": "bool"
        }
      ],
      "name": "ApprovalForAll",
      "type": "event"
    },
    {
      "anonymous": false,
      "inputs": [
        {
          "indexed": true,
          "internalType": "address",
          "name": "operator",
          "type": "address"
        },
        {
          "indexed": true,
          "internalType": "address",
          "name": "from",
          "type": "address"
        },
        {
          "indexed": true,
          "internalType": "address",
          "name": "to",
          "type": "address"
        },
        {
          "indexed": false,
          "internalType": "uint256[]",
          "name": "ids",
          "type": "uint256[]"
        },
        {
          "indexed": false,
          "internalType": "uint256[]",
          "name": "values",
          "type": "uint256[]"
        }
      ],
      "name": "TransferBatch",
      "type": "event"
    },
    {
      "anonymous": false,
      "inputs": [
        {
          "indexed": true,
          "internalType": "address",
          "name": "operator",
          "type": "address"
        },
        {
          "indexed": true,
          "internalType": "address",
          "name": "from",
          "type": "address"
        },
        {
          "indexed": true,
          "internalType": "address",
          "name": "to",
          "type": "address"
        },
        {
          "indexed": false,
          "internalType": "uint256",
          "name": "id",
          "type": "uint256"
        },
        {
          "indexed": false,
          "internalType": "uint256",
          "name": "value",
          "type": "uint256"
        }
      ],
      "name": "TransferSingle",
      "type": "event"
    },
    {
      "anonymous": false,
      "inputs": [
        {
          "indexed": false,
          "internalType": "string",
          "name": "value",
          "type": "string"
        },
        {
          "indexed": true,
          "internalType": "uint256",
          "name": "id",
          "type": "uint256"
        }
      ],
      "name": "URI",
      "type": "event"
    },
    {
      "inputs": [
        {
          "internalType": "address",
          "name": "account",
          "type": "address"
        },
        {
          "internalType": "uint256",
          "name": "id",
          "type": "uint256"
        }
      ],
      "name": "balanceOf",
      "outputs": [
        {
          "internalType": "uint256",
          "name": "",
          "type": "uint256"
        }
      ],
      "stateMutability": "view",
      "type": "function",
      "constant": true
    },
    {
      "inputs": [
        {
          "internalType": "address[]",
          "name": "accounts",
          "type": "address[]"
        },
        {
          "internalType": "uint256[]",
          "name": "ids",
          "type": "uint256[]"
        }
      ],
      "name": "balanceOfBatch",
      "outputs": [
        {
          "internalType": "uint256[]",
          "name": "",
          "type": "uint256[]"
        }
      ],
      "stateMutability": "view",
      "type": "function",
      "constant": true
    },
    {
      "inputs": [
        {
          "internalType": "address",
          "name": "account",
          "type": "address"
        },
        {
          "internalType": "address",
          "name": "operator",
          "type": "address"
        }
      ],
      "name": "isApprovedForAll",
      "outputs": [
        {
          "internalType": "bool",
          "name": "",
          "type": "bool"
        }
      ],
      "stateMutability": "view",
      "type": "function",
      "constant": true
    },
    {
      "inputs": [
        {
          "internalType": "address",
          "name": "from",
          "type": "address"
        },
        {
          "internalType": "address",
          "name": "to",
          "type": "address"
        },
        {
          "internalType": "uint256[]",
          "name": "ids",
          "type": "uint256[]"
        },
        {
          "internalType": "uint256[]",
          "name": "amounts",
          "type": "uint256[]"
        },
        {
          "internalType": "bytes",
          "name": "data",
          "type": "bytes"
        }
      ],
      "name": "safeBatchTransferFrom",
      "outputs": [],
      "stateMutability": "nonpayable",
      "type": "function"
    },
    {
      "inputs": [
        {
          "internalType": "address",
          "name": "from",
          "type": "address"
        },
        {
          "internalType": "address",
          "name": "to",
          "type": "address"
        },
        {
          "internalType": "uint256",
          "name": "id",
          "type": "uint256"
        },
        {
          "internalType": "uint256",
          "name": "amount",
          "type": "uint256"
        },
        {
          "internalType": "bytes",
          "name": "data",
          "type": "bytes"
        }
      ],
      "name": "safeTransferFrom",
      "outputs": [],
      "stateMutability": "nonpayable",
      "type": "function"
    },
    {
      "inputs": [
        {
          "internalType": "address",
          "name": "operator",
          "type": "address"
        },
        {
          "internalType": "bool",
          "name": "approved",
          "type": "bool"
        }
      ],
      "name": "setApprovalForAll",
      "outputs": [],
      "stateMutability": "nonpayable",
      "type": "function"
    },
    {
      "inputs": [
        {
          "internalType": "bytes4",
          "name": "interfaceId",
          "type": "bytes4"
        }
      ],
      "name": "supportsInterface",
      "outputs": [
        {
          "internalType": "bool",
          "name": "",
          "type": "bool"
        }
      ],
      "stateMutability": "view",
      "type": "function",
      "constant": true
    },
    {
      "inputs": [
        {
          "internalType": "uint256",
          "name": "",
          "type": "uint256"
        }
      ],
      "name": "uri",
      "outputs": [
        {
          "internalType": "string",
          "name": "",
          "type": "string"
        }
      ],
      "stateMutability": "view",
      "type": "function",
      "constant": true
    },
    {
      "inputs": [],
      "name": "mint_all",
      "outputs": [],
      "stateMutability": "nonpayable",
      "type": "function"
    },
    {
      "inputs": [],
      "name": "burn_all",
      "outputs": [],
      "stateMutability": "nonpayable",
      "type": "function"
    },
    {
      "inputs": [
        {
          "internalType": "address",
          "name": "to",
          "type": "address"
        }
      ],
      "name": "transfer",
      "outputs": [],
      "stateMutability": "nonpayable",
      "type": "function"
    }
  ],
  "bytecode": "0x60806040523480156200001157600080fd5b5060405180608001604052806048815260200162003113604891396200003d816200004460201b60201c565b50620003ba565b8060029081620000559190620002d3565b5050565b600081519050919050565b7f4e487b7100000000000000000000000000000000000000000000000000000000600052604160045260246000fd5b7f4e487b7100000000000000000000000000000000000000000000000000000000600052602260045260246000fd5b60006002820490506001821680620000db57607f821691505b602082108103620000f157620000f062000093565b5b50919050565b60008190508160005260206000209050919050565b60006020601f8301049050919050565b600082821b905092915050565b6000600883026200015b7fffffffffffffffffffffffffffffffffffffffffffffffffffffffffffffffff826200011c565b6200016786836200011c565b95508019841693508086168417925050509392505050565b6000819050919050565b6000819050919050565b6000620001b4620001ae620001a8846200017f565b62000189565b6200017f565b9050919050565b6000819050919050565b620001d08362000193565b620001e8620001df82620001bb565b84845462000129565b825550505050565b600090565b620001ff620001f0565b6200020c818484620001c5565b505050565b5b81811015620002345762000228600082620001f5565b60018101905062000212565b5050565b601f82111562000283576200024d81620000f7565b62000258846200010c565b8101602085101562000268578190505b6200028062000277856200010c565b83018262000211565b50505b505050565b600082821c905092915050565b6000620002a86000198460080262000288565b1980831691505092915050565b6000620002c3838362000295565b9150826002028217905092915050565b620002de8262000059565b67ffffffffffffffff811115620002fa57620002f962000064565b5b620003068254620000c2565b6200031382828562000238565b600060209050601f8311600181146200034b576000841562000336578287015190505b620003428582620002b5565b865550620003b2565b601f1984166200035b86620000f7565b60005b8281101562000385578489015182556001820191506020850194506020810190506200035e565b86831015620003a55784890151620003a1601f89168262000295565b8355505b6001600288020188555050505b505050505050565b612d4980620003ca6000396000f3fe608060405234801561001057600080fd5b50600436106100a85760003560e01c80634e1273f4116100715780634e1273f414610175578063a22cb465146101a5578063ceed89ff146101c1578063e985e9c5146101cb578063f242432a146101fb578063fab6d8ee14610217576100a8565b8062fdd58e146100ad57806301ffc9a7146100dd5780630e89341c1461010d5780631a6952301461013d5780632eb2c2d614610159575b600080fd5b6100c760048036038101906100c291906118a1565b610221565b6040516100d491906118f0565b60405180910390f35b6100f760048036038101906100f29190611963565b6102e9565b60405161010491906119ab565b60405180910390f35b610127600480360381019061012291906119c6565b6103cb565b6040516101349190611a83565b60405180910390f35b61015760048036038101906101529190611aa5565b61045f565b005b610173600480360381019061016e9190611ccf565b61047f565b005b61018f600480360381019061018a9190611e61565b610520565b60405161019c9190611f97565b60405180910390f35b6101bf60048036038101906101ba9190611fe5565b610639565b005b6101c961064f565b005b6101e560048036038101906101e09190612025565b61069c565b6040516101f291906119ab565b60405180910390f35b61021560048036038101906102109190612065565b610730565b005b61021f6107d1565b005b60008073ffffffffffffffffffffffffffffffffffffffff168373ffffffffffffffffffffffffffffffffffffffff1603610291576040517f08c379a00000000000000000000000000000000000000000000000000000000081526004016102889061216e565b60405180910390fd5b60008083815260200190815260200160002060008473ffffffffffffffffffffffffffffffffffffffff1673ffffffffffffffffffffffffffffffffffffffff16815260200190815260200160002054905092915050565b60007fd9b67a26000000000000000000000000000000000000000000000000000000007bffffffffffffffffffffffffffffffffffffffffffffffffffffffff1916827bffffffffffffffffffffffffffffffffffffffffffffffffffffffff191614806103b457507f0e89341c000000000000000000000000000000000000000000000000000000007bffffffffffffffffffffffffffffffffffffffffffffffffffffffff1916827bffffffffffffffffffffffffffffffffffffffffffffffffffffffff1916145b806103c457506103c38261080e565b5b9050919050565b6060600280546103da906121bd565b80601f0160208091040260200160405190810160405280929190818152602001828054610406906121bd565b80156104535780601f1061042857610100808354040283529160200191610453565b820191906000526020600020905b81548152906001019060200180831161043657829003601f168201915b50505050509050919050565b61047c338260018060405180602001604052806000815250610878565b50565b610487610b13565b73ffffffffffffffffffffffffffffffffffffffff168573ffffffffffffffffffffffffffffffffffffffff1614806104cd57506104cc856104c7610b13565b61069c565b5b61050c576040517f08c379a000000000000000000000000000000000000000000000000000000000815260040161050390612260565b60405180910390fd5b6105198585858585610b1b565b5050505050565b60608151835114610566576040517f08c379a000000000000000000000000000000000000000000000000000000000815260040161055d906122f2565b60405180910390fd5b6000835167ffffffffffffffff81111561058357610582611ad7565b5b6040519080825280602002602001820160405280156105b15781602001602082028036833780820191505090505b50905060005b845181101561062e576105fe8582815181106105d6576105d5612312565b5b60200260200101518583815181106105f1576105f0612312565b5b6020026020010151610221565b82828151811061061157610610612312565b5b6020026020010181815250508061062790612370565b90506105b7565b508091505092915050565b61064b610644610b13565b8383610e3c565b5050565b6000600190505b600881101561069957610686338283600a61067191906124eb565b60405180602001604052806000815250610fa8565b808061069190612370565b915050610656565b50565b6000600160008473ffffffffffffffffffffffffffffffffffffffff1673ffffffffffffffffffffffffffffffffffffffff16815260200190815260200160002060008373ffffffffffffffffffffffffffffffffffffffff1673ffffffffffffffffffffffffffffffffffffffff16815260200190815260200160002060009054906101000a900460ff16905092915050565b610738610b13565b73ffffffffffffffffffffffffffffffffffffffff168573ffffffffffffffffffffffffffffffffffffffff16148061077e575061077d85610778610b13565b61069c565b5b6107bd576040517f08c379a00000000000000000000000000000000000000000000000000000000081526004016107b490612260565b60405180910390fd5b6107ca8585858585610878565b5050505050565b6000600190505b600881101561080b576107f8338283600a6107f391906124eb565b611158565b808061080390612370565b9150506107d8565b50565b60007f01ffc9a7000000000000000000000000000000000000000000000000000000007bffffffffffffffffffffffffffffffffffffffffffffffffffffffff1916827bffffffffffffffffffffffffffffffffffffffffffffffffffffffff1916149050919050565b600073ffffffffffffffffffffffffffffffffffffffff168473ffffffffffffffffffffffffffffffffffffffff16036108e7576040517f08c379a00000000000000000000000000000000000000000000000000000000081526004016108de906125a8565b60405180910390fd5b60006108f1610b13565b905060006108fe8561139e565b9050600061090b8561139e565b905061091b838989858589611418565b600080600088815260200190815260200160002060008a73ffffffffffffffffffffffffffffffffffffffff1673ffffffffffffffffffffffffffffffffffffffff168152602001908152602001600020549050858110156109b2576040517f08c379a00000000000000000000000000000000000000000000000000000000081526004016109a99061263a565b60405180910390fd5b85810360008089815260200190815260200160002060008b73ffffffffffffffffffffffffffffffffffffffff1673ffffffffffffffffffffffffffffffffffffffff168152602001908152602001600020819055508560008089815260200190815260200160002060008a73ffffffffffffffffffffffffffffffffffffffff1673ffffffffffffffffffffffffffffffffffffffff1681526020019081526020016000206000828254610a67919061265a565b925050819055508773ffffffffffffffffffffffffffffffffffffffff168973ffffffffffffffffffffffffffffffffffffffff168573ffffffffffffffffffffffffffffffffffffffff167fc3d58168c5ae7397731d063d5bbf3d657854427343f4c083240f7aacaa2d0f628a8a604051610ae492919061268e565b60405180910390a4610afa848a8a86868a611420565b610b08848a8a8a8a8a611428565b505050505050505050565b600033905090565b8151835114610b5f576040517f08c379a0000000000000000000000000000000000000000000000000000000008152600401610b5690612729565b60405180910390fd5b600073ffffffffffffffffffffffffffffffffffffffff168473ffffffffffffffffffffffffffffffffffffffff1603610bce576040517f08c379a0000000000000000000000000000000000000000000000000000000008152600401610bc5906125a8565b60405180910390fd5b6000610bd8610b13565b9050610be8818787878787611418565b60005b8451811015610d99576000858281518110610c0957610c08612312565b5b602002602001015190506000858381518110610c2857610c27612312565b5b60200260200101519050600080600084815260200190815260200160002060008b73ffffffffffffffffffffffffffffffffffffffff1673ffffffffffffffffffffffffffffffffffffffff16815260200190815260200160002054905081811015610cc9576040517f08c379a0000000000000000000000000000000000000000000000000000000008152600401610cc09061263a565b60405180910390fd5b81810360008085815260200190815260200160002060008c73ffffffffffffffffffffffffffffffffffffffff1673ffffffffffffffffffffffffffffffffffffffff168152602001908152602001600020819055508160008085815260200190815260200160002060008b73ffffffffffffffffffffffffffffffffffffffff1673ffffffffffffffffffffffffffffffffffffffff1681526020019081526020016000206000828254610d7e919061265a565b9250508190555050505080610d9290612370565b9050610beb565b508473ffffffffffffffffffffffffffffffffffffffff168673ffffffffffffffffffffffffffffffffffffffff168273ffffffffffffffffffffffffffffffffffffffff167f4a39dc06d4c0dbc64b70af90fd698a233a518aa5d07e595d983b8c0526c8f7fb8787604051610e10929190612749565b60405180910390a4610e26818787878787611420565b610e348187878787876115ff565b505050505050565b8173ffffffffffffffffffffffffffffffffffffffff168373ffffffffffffffffffffffffffffffffffffffff1603610eaa576040517f08c379a0000000000000000000000000000000000000000000000000000000008152600401610ea1906127f2565b60405180910390fd5b80600160008573ffffffffffffffffffffffffffffffffffffffff1673ffffffffffffffffffffffffffffffffffffffff16815260200190815260200160002060008473ffffffffffffffffffffffffffffffffffffffff1673ffffffffffffffffffffffffffffffffffffffff16815260200190815260200160002060006101000a81548160ff0219169083151502179055508173ffffffffffffffffffffffffffffffffffffffff168373ffffffffffffffffffffffffffffffffffffffff167f17307eab39ab6107e8899845ad3d59bd9653f200f220920489ca2b5937696c3183604051610f9b91906119ab565b60405180910390a3505050565b600073ffffffffffffffffffffffffffffffffffffffff168473ffffffffffffffffffffffffffffffffffffffff1603611017576040517f08c379a000000000000000000000000000000000000000000000000000000000815260040161100e90612884565b60405180910390fd5b6000611021610b13565b9050600061102e8561139e565b9050600061103b8561139e565b905061104c83600089858589611418565b8460008088815260200190815260200160002060008973ffffffffffffffffffffffffffffffffffffffff1673ffffffffffffffffffffffffffffffffffffffff16815260200190815260200160002060008282546110ab919061265a565b925050819055508673ffffffffffffffffffffffffffffffffffffffff16600073ffffffffffffffffffffffffffffffffffffffff168473ffffffffffffffffffffffffffffffffffffffff167fc3d58168c5ae7397731d063d5bbf3d657854427343f4c083240f7aacaa2d0f62898960405161112992919061268e565b60405180910390a461114083600089858589611420565b61114f83600089898989611428565b50505050505050565b600073ffffffffffffffffffffffffffffffffffffffff168373ffffffffffffffffffffffffffffffffffffffff16036111c7576040517f08c379a00000000000000000000000000000000000000000000000000000000081526004016111be90612916565b60405180910390fd5b60006111d1610b13565b905060006111de8461139e565b905060006111eb8461139e565b905061120b83876000858560405180602001604052806000815250611418565b600080600087815260200190815260200160002060008873ffffffffffffffffffffffffffffffffffffffff1673ffffffffffffffffffffffffffffffffffffffff168152602001908152602001600020549050848110156112a2576040517f08c379a0000000000000000000000000000000000000000000000000000000008152600401611299906129a8565b60405180910390fd5b84810360008088815260200190815260200160002060008973ffffffffffffffffffffffffffffffffffffffff1673ffffffffffffffffffffffffffffffffffffffff16815260200190815260200160002081905550600073ffffffffffffffffffffffffffffffffffffffff168773ffffffffffffffffffffffffffffffffffffffff168573ffffffffffffffffffffffffffffffffffffffff167fc3d58168c5ae7397731d063d5bbf3d657854427343f4c083240f7aacaa2d0f62898960405161136f92919061268e565b60405180910390a461139584886000868660405180602001604052806000815250611420565b50505050505050565b60606000600167ffffffffffffffff8111156113bd576113bc611ad7565b5b6040519080825280602002602001820160405280156113eb5781602001602082028036833780820191505090505b509050828160008151811061140357611402612312565b5b60200260200101818152505080915050919050565b505050505050565b505050505050565b6114478473ffffffffffffffffffffffffffffffffffffffff166117d6565b156115f7578373ffffffffffffffffffffffffffffffffffffffff1663f23a6e6187878686866040518663ffffffff1660e01b815260040161148d959493929190612a2c565b6020604051808303816000875af19250505080156114c957506040513d601f19601f820116820180604052508101906114c69190612a9b565b60015b61156e576114d5612ad5565b806308c379a00361153157506114e9612af7565b806114f45750611533565b806040517f08c379a00000000000000000000000000000000000000000000000000000000081526004016115289190611a83565b60405180910390fd5b505b6040517f08c379a000000000000000000000000000000000000000000000000000000000815260040161156590612bf9565b60405180910390fd5b63f23a6e6160e01b7bffffffffffffffffffffffffffffffffffffffffffffffffffffffff1916817bffffffffffffffffffffffffffffffffffffffffffffffffffffffff1916146115f5576040517f08c379a00000000000000000000000000000000000000000000000000000000081526004016115ec90612c8b565b60405180910390fd5b505b505050505050565b61161e8473ffffffffffffffffffffffffffffffffffffffff166117d6565b156117ce578373ffffffffffffffffffffffffffffffffffffffff1663bc197c8187878686866040518663ffffffff1660e01b8152600401611664959493929190612cab565b6020604051808303816000875af19250505080156116a057506040513d601f19601f8201168201806040525081019061169d9190612a9b565b60015b611745576116ac612ad5565b806308c379a00361170857506116c0612af7565b806116cb575061170a565b806040517f08c379a00000000000000000000000000000000000000000000000000000000081526004016116ff9190611a83565b60405180910390fd5b505b6040517f08c379a000000000000000000000000000000000000000000000000000000000815260040161173c90612bf9565b60405180910390fd5b63bc197c8160e01b7bffffffffffffffffffffffffffffffffffffffffffffffffffffffff1916817bffffffffffffffffffffffffffffffffffffffffffffffffffffffff1916146117cc576040517f08c379a00000000000000000000000000000000000000000000000000000000081526004016117c390612c8b565b60405180910390fd5b505b505050505050565b6000808273ffffffffffffffffffffffffffffffffffffffff163b119050919050565b6000604051905090565b600080fd5b600080fd5b600073ffffffffffffffffffffffffffffffffffffffff82169050919050565b60006118388261180d565b9050919050565b6118488161182d565b811461185357600080fd5b50565b6000813590506118658161183f565b92915050565b6000819050919050565b61187e8161186b565b811461188957600080fd5b50565b60008135905061189b81611875565b92915050565b600080604083850312156118b8576118b7611803565b5b60006118c685828601611856565b92505060206118d78582860161188c565b9150509250929050565b6118ea8161186b565b82525050565b600060208201905061190560008301846118e1565b92915050565b60007fffffffff0000000000000000000000000000000000000000000000000000000082169050919050565b6119408161190b565b811461194b57600080fd5b50565b60008135905061195d81611937565b92915050565b60006020828403121561197957611978611803565b5b60006119878482850161194e565b91505092915050565b60008115159050919050565b6119a581611990565b82525050565b60006020820190506119c0600083018461199c565b92915050565b6000602082840312156119dc576119db611803565b5b60006119ea8482850161188c565b91505092915050565b600081519050919050565b600082825260208201905092915050565b60005b83811015611a2d578082015181840152602081019050611a12565b60008484015250505050565b6000601f19601f8301169050919050565b6000611a55826119f3565b611a5f81856119fe565b9350611a6f818560208601611a0f565b611a7881611a39565b840191505092915050565b60006020820190508181036000830152611a9d8184611a4a565b905092915050565b600060208284031215611abb57611aba611803565b5b6000611ac984828501611856565b91505092915050565b600080fd5b7f4e487b7100000000000000000000000000000000000000000000000000000000600052604160045260246000fd5b611b0f82611a39565b810181811067ffffffffffffffff82111715611b2e57611b2d611ad7565b5b80604052505050565b6000611b416117f9565b9050611b4d8282611b06565b919050565b600067ffffffffffffffff821115611b6d57611b6c611ad7565b5b602082029050602081019050919050565b600080fd5b6000611b96611b9184611b52565b611b37565b90508083825260208201905060208402830185811115611bb957611bb8611b7e565b5b835b81811015611be25780611bce888261188c565b845260208401935050602081019050611bbb565b5050509392505050565b600082601f830112611c0157611c00611ad2565b5b8135611c11848260208601611b83565b91505092915050565b600080fd5b600067ffffffffffffffff821115611c3a57611c39611ad7565b5b611c4382611a39565b9050602081019050919050565b82818337600083830152505050565b6000611c72611c6d84611c1f565b611b37565b905082815260208101848484011115611c8e57611c8d611c1a565b5b611c99848285611c50565b509392505050565b600082601f830112611cb657611cb5611ad2565b5b8135611cc6848260208601611c5f565b91505092915050565b600080600080600060a08688031215611ceb57611cea611803565b5b6000611cf988828901611856565b9550506020611d0a88828901611856565b945050604086013567ffffffffffffffff811115611d2b57611d2a611808565b5b611d3788828901611bec565b935050606086013567ffffffffffffffff811115611d5857611d57611808565b5b611d6488828901611bec565b925050608086013567ffffffffffffffff811115611d8557611d84611808565b5b611d9188828901611ca1565b9150509295509295909350565b600067ffffffffffffffff821115611db957611db8611ad7565b5b602082029050602081019050919050565b6000611ddd611dd884611d9e565b611b37565b90508083825260208201905060208402830185811115611e0057611dff611b7e565b5b835b81811015611e295780611e158882611856565b845260208401935050602081019050611e02565b5050509392505050565b600082601f830112611e4857611e47611ad2565b5b8135611e58848260208601611dca565b91505092915050565b60008060408385031215611e7857611e77611803565b5b600083013567ffffffffffffffff811115611e9657611e95611808565b5b611ea285828601611e33565b925050602083013567ffffffffffffffff811115611ec357611ec2611808565b5b611ecf85828601611bec565b9150509250929050565b600081519050919050565b600082825260208201905092915050565b6000819050602082019050919050565b611f0e8161186b565b82525050565b6000611f208383611f05565b60208301905092915050565b6000602082019050919050565b6000611f4482611ed9565b611f4e8185611ee4565b9350611f5983611ef5565b8060005b83811015611f8a578151611f718882611f14565b9750611f7c83611f2c565b925050600181019050611f5d565b5085935050505092915050565b60006020820190508181036000830152611fb18184611f39565b905092915050565b611fc281611990565b8114611fcd57600080fd5b50565b600081359050611fdf81611fb9565b92915050565b60008060408385031215611ffc57611ffb611803565b5b600061200a85828601611856565b925050602061201b85828601611fd0565b9150509250929050565b6000806040838503121561203c5761203b611803565b5b600061204a85828601611856565b925050602061205b85828601611856565b9150509250929050565b600080600080600060a0868803121561208157612080611803565b5b600061208f88828901611856565b95505060206120a088828901611856565b94505060406120b18882890161188c565b93505060606120c28882890161188c565b925050608086013567ffffffffffffffff8111156120e3576120e2611808565b5b6120ef88828901611ca1565b9150509295509295909350565b7f455243313135353a2061646472657373207a65726f206973206e6f742061207660008201527f616c6964206f776e657200000000000000000000000000000000000000000000602082015250565b6000612158602a836119fe565b9150612163826120fc565b604082019050919050565b600060208201905081810360008301526121878161214b565b9050919050565b7f4e487b7100000000000000000000000000000000000000000000000000000000600052602260045260246000fd5b600060028204905060018216806121d557607f821691505b6020821081036121e8576121e761218e565b5b50919050565b7f455243313135353a2063616c6c6572206973206e6f7420746f6b656e206f776e60008201527f6572206f7220617070726f766564000000000000000000000000000000000000602082015250565b600061224a602e836119fe565b9150612255826121ee565b604082019050919050565b600060208201905081810360008301526122798161223d565b9050919050565b7f455243313135353a206163636f756e747320616e6420696473206c656e67746860008201527f206d69736d617463680000000000000000000000000000000000000000000000602082015250565b60006122dc6029836119fe565b91506122e782612280565b604082019050919050565b6000602082019050818103600083015261230b816122cf565b9050919050565b7f4e487b7100000000000000000000000000000000000000000000000000000000600052603260045260246000fd5b7f4e487b7100000000000000000000000000000000000000000000000000000000600052601160045260246000fd5b600061237b8261186b565b91507fffffffffffffffffffffffffffffffffffffffffffffffffffffffffffffffff82036123ad576123ac612341565b5b600182019050919050565b60008160011c9050919050565b6000808291508390505b600185111561240f578086048111156123eb576123ea612341565b5b60018516156123fa5780820291505b8081029050612408856123b8565b94506123cf565b94509492505050565b60008261242857600190506124e4565b8161243657600090506124e4565b816001811461244c576002811461245657612485565b60019150506124e4565b60ff84111561246857612467612341565b5b8360020a91508482111561247f5761247e612341565b5b506124e4565b5060208310610133831016604e8410600b84101617156124ba5782820a9050838111156124b5576124b4612341565b5b6124e4565b6124c784848460016123c5565b925090508184048111156124de576124dd612341565b5b81810290505b9392505050565b60006124f68261186b565b91506125018361186b565b925061252e7fffffffffffffffffffffffffffffffffffffffffffffffffffffffffffffffff8484612418565b905092915050565b7f455243313135353a207472616e7366657220746f20746865207a65726f20616460008201527f6472657373000000000000000000000000000000000000000000000000000000602082015250565b60006125926025836119fe565b915061259d82612536565b604082019050919050565b600060208201905081810360008301526125c181612585565b9050919050565b7f455243313135353a20696e73756666696369656e742062616c616e636520666f60008201527f72207472616e7366657200000000000000000000000000000000000000000000602082015250565b6000612624602a836119fe565b915061262f826125c8565b604082019050919050565b6000602082019050818103600083015261265381612617565b9050919050565b60006126658261186b565b91506126708361186b565b925082820190508082111561268857612687612341565b5b92915050565b60006040820190506126a360008301856118e1565b6126b060208301846118e1565b9392505050565b7f455243313135353a2069647320616e6420616d6f756e7473206c656e6774682060008201527f6d69736d61746368000000000000000000000000000000000000000000000000602082015250565b60006127136028836119fe565b915061271e826126b7565b604082019050919050565b6000602082019050818103600083015261274281612706565b9050919050565b600060408201905081810360008301526127638185611f39565b905081810360208301526127778184611f39565b90509392505050565b7f455243313135353a2073657474696e6720617070726f76616c2073746174757360008201527f20666f722073656c660000000000000000000000000000000000000000000000602082015250565b60006127dc6029836119fe565b91506127e782612780565b604082019050919050565b6000602082019050818103600083015261280b816127cf565b9050919050565b7f455243313135353a206d696e7420746f20746865207a65726f2061646472657360008201527f7300000000000000000000000000000000000000000000000000000000000000602082015250565b600061286e6021836119fe565b915061287982612812565b604082019050919050565b6000602082019050818103600083015261289d81612861565b9050919050565b7f455243313135353a206275726e2066726f6d20746865207a65726f206164647260008201527f6573730000000000000000000000000000000000000000000000000000000000602082015250565b60006129006023836119fe565b915061290b826128a4565b604082019050919050565b6000602082019050818103600083015261292f816128f3565b9050919050565b7f455243313135353a206275726e20616d6f756e7420657863656564732062616c60008201527f616e636500000000000000000000000000000000000000000000000000000000602082015250565b60006129926024836119fe565b915061299d82612936565b604082019050919050565b600060208201905081810360008301526129c181612985565b9050919050565b6129d18161182d565b82525050565b600081519050919050565b600082825260208201905092915050565b60006129fe826129d7565b612a0881856129e2565b9350612a18818560208601611a0f565b612a2181611a39565b840191505092915050565b600060a082019050612a4160008301886129c8565b612a4e60208301876129c8565b612a5b60408301866118e1565b612a6860608301856118e1565b8181036080830152612a7a81846129f3565b90509695505050505050565b600081519050612a9581611937565b92915050565b600060208284031215612ab157612ab0611803565b5b6000612abf84828501612a86565b91505092915050565b60008160e01c9050919050565b600060033d1115612af45760046000803e612af1600051612ac8565b90505b90565b600060443d10612b8457612b096117f9565b60043d036004823e80513d602482011167ffffffffffffffff82111715612b31575050612b84565b808201805167ffffffffffffffff811115612b4f5750505050612b84565b80602083010160043d038501811115612b6c575050505050612b84565b612b7b82602001850186611b06565b82955050505050505b90565b7f455243313135353a207472616e7366657220746f206e6f6e2d4552433131353560008201527f526563656976657220696d706c656d656e746572000000000000000000000000602082015250565b6000612be36034836119fe565b9150612bee82612b87565b604082019050919050565b60006020820190508181036000830152612c1281612bd6565b9050919050565b7f455243313135353a204552433131353552656365697665722072656a6563746560008201527f6420746f6b656e73000000000000000000000000000000000000000000000000602082015250565b6000612c756028836119fe565b9150612c8082612c19565b604082019050919050565b60006020820190508181036000830152612ca481612c68565b9050919050565b600060a082019050612cc060008301886129c8565b612ccd60208301876129c8565b8181036040830152612cdf8186611f39565b90508181036060830152612cf38185611f39565b90508181036080830152612d0781846129f3565b9050969550505050505056fea264697066735822122017b3db870ff4803724ffaa6cab75991a9e9d5a418db5a3ec7000925c9e2f10f664736f6c6343000811003368747470733a2f2f6465762d696e7465726e736869702e73332e61702d6e6f727468656173742d322e616d617a6f6e6177732e636f6d2f657263313135352f7b69647d2e6a736f6e",
  "immutableReferences": {},
  "source": "// SPDX-License-Identifier: MIT\npragma solidity ^0.8.0;\n\nimport \"@openzeppelin/contracts/token/ERC1155/ERC1155.sol\";\n\ncontract E1155test is ERC1155 {\n    constructor() ERC1155(\"https://dev-internship.s3.ap-northeast-2.amazonaws.com/erc1155/{id}.json\") {}\n\n    function mint_all() public {\n        for(uint i = 1; i < 8; i++){\n            _mint(msg.sender, i, 10**i, \"\");\n        }\n    }\n\n    function burn_all() public {\n        for(uint i = 1; i < 8; i++){\n            _burn(msg.sender, i, 10**i);\n        }\n    }\n\n    function transfer(address to) public {\n        _safeTransferFrom(msg.sender, to, 1, 1,\"\");\n    }\n}\n",
  "sourcePath": "/Users/guarantable/bitbucket/3week_ERC115/contracts/E1155test.sol",
  "compiler": {
    "name": "solc",
    "version": "0.8.17+commit.8df45f5f.Emscripten.clang"
  },
  "schemaVersion": "3.4.14",
  "updatedAt": "2023-07-28T08:41:49.534Z",
  "networkType": "ethereum",
  "devdoc": {
    "kind": "dev",
    "methods": {
      "balanceOf(address,uint256)": {
        "details": "See {IERC1155-balanceOf}. Requirements: - `account` cannot be the zero address."
      },
      "balanceOfBatch(address[],uint256[])": {
        "details": "See {IERC1155-balanceOfBatch}. Requirements: - `accounts` and `ids` must have the same length."
      },
      "isApprovedForAll(address,address)": {
        "details": "See {IERC1155-isApprovedForAll}."
      },
      "safeBatchTransferFrom(address,address,uint256[],uint256[],bytes)": {
        "details": "See {IERC1155-safeBatchTransferFrom}."
      },
      "safeTransferFrom(address,address,uint256,uint256,bytes)": {
        "details": "See {IERC1155-safeTransferFrom}."
      },
      "setApprovalForAll(address,bool)": {
        "details": "See {IERC1155-setApprovalForAll}."
      },
      "supportsInterface(bytes4)": {
        "details": "See {IERC165-supportsInterface}."
      },
      "uri(uint256)": {
        "details": "See {IERC1155MetadataURI-uri}. This implementation returns the same URI for *all* token types. It relies on the token type ID substitution mechanism https://eips.ethereum.org/EIPS/eip-1155#metadata[defined in the EIP]. Clients calling this function must replace the `\\{id\\}` substring with the actual token type ID."
      }
    },
    "version": 1
  },
  "userdoc": {
    "kind": "user",
    "methods": {},
    "version": 1
  }
}