{
  "contractName": "Ticket1155",
  "abi": [
    {
      "inputs": [],
      "stateMutability": "nonpayable",
      "type": "constructor"
    },
    {
      "anonymous": false,
      "inputs": [
        {
          "indexed": true,
          "internalType": "address",
          "name": "account",
          "type": "address"
        },
        {
          "indexed": true,
          "internalType": "address",
          "name": "operator",
          "type": "address"
        },
        {
          "indexed": false,
          "internalType": "bool",
          "name": "approved",
          "type": "bool"
        }
      ],
      "name": "ApprovalForAll",
      "type": "event"
    },
    {
      "anonymous": false,
      "inputs": [
        {
          "indexed": true,
          "internalType": "address",
          "name": "previousOwner",
          "type": "address"
        },
        {
          "indexed": true,
          "internalType": "address",
          "name": "newOwner",
          "type": "address"
        }
      ],
      "name": "OwnershipTransferred",
      "type": "event"
    },
    {
      "anonymous": false,
      "inputs": [
        {
          "indexed": true,
          "internalType": "address",
          "name": "operator",
          "type": "address"
        },
        {
          "indexed": true,
          "internalType": "address",
          "name": "from",
          "type": "address"
        },
        {
          "indexed": true,
          "internalType": "address",
          "name": "to",
          "type": "address"
        },
        {
          "indexed": false,
          "internalType": "uint256[]",
          "name": "ids",
          "type": "uint256[]"
        },
        {
          "indexed": false,
          "internalType": "uint256[]",
          "name": "values",
          "type": "uint256[]"
        }
      ],
      "name": "TransferBatch",
      "type": "event"
    },
    {
      "anonymous": false,
      "inputs": [
        {
          "indexed": true,
          "internalType": "address",
          "name": "operator",
          "type": "address"
        },
        {
          "indexed": true,
          "internalType": "address",
          "name": "from",
          "type": "address"
        },
        {
          "indexed": true,
          "internalType": "address",
          "name": "to",
          "type": "address"
        },
        {
          "indexed": false,
          "internalType": "uint256",
          "name": "id",
          "type": "uint256"
        },
        {
          "indexed": false,
          "internalType": "uint256",
          "name": "value",
          "type": "uint256"
        }
      ],
      "name": "TransferSingle",
      "type": "event"
    },
    {
      "anonymous": false,
      "inputs": [
        {
          "indexed": false,
          "internalType": "string",
          "name": "value",
          "type": "string"
        },
        {
          "indexed": true,
          "internalType": "uint256",
          "name": "id",
          "type": "uint256"
        }
      ],
      "name": "URI",
      "type": "event"
    },
    {
      "inputs": [
        {
          "internalType": "address",
          "name": "account",
          "type": "address"
        },
        {
          "internalType": "uint256",
          "name": "id",
          "type": "uint256"
        }
      ],
      "name": "balanceOf",
      "outputs": [
        {
          "internalType": "uint256",
          "name": "",
          "type": "uint256"
        }
      ],
      "stateMutability": "view",
      "type": "function",
      "constant": true
    },
    {
      "inputs": [
        {
          "internalType": "address[]",
          "name": "accounts",
          "type": "address[]"
        },
        {
          "internalType": "uint256[]",
          "name": "ids",
          "type": "uint256[]"
        }
      ],
      "name": "balanceOfBatch",
      "outputs": [
        {
          "internalType": "uint256[]",
          "name": "",
          "type": "uint256[]"
        }
      ],
      "stateMutability": "view",
      "type": "function",
      "constant": true
    },
    {
      "inputs": [
        {
          "internalType": "address",
          "name": "account",
          "type": "address"
        },
        {
          "internalType": "address",
          "name": "operator",
          "type": "address"
        }
      ],
      "name": "isApprovedForAll",
      "outputs": [
        {
          "internalType": "bool",
          "name": "",
          "type": "bool"
        }
      ],
      "stateMutability": "view",
      "type": "function",
      "constant": true
    },
    {
      "inputs": [],
      "name": "name",
      "outputs": [
        {
          "internalType": "string",
          "name": "",
          "type": "string"
        }
      ],
      "stateMutability": "view",
      "type": "function",
      "constant": true
    },
    {
      "inputs": [],
      "name": "owner",
      "outputs": [
        {
          "internalType": "address",
          "name": "",
          "type": "address"
        }
      ],
      "stateMutability": "view",
      "type": "function",
      "constant": true
    },
    {
      "inputs": [],
      "name": "renounceOwnership",
      "outputs": [],
      "stateMutability": "nonpayable",
      "type": "function"
    },
    {
      "inputs": [
        {
          "internalType": "address",
          "name": "from",
          "type": "address"
        },
        {
          "internalType": "address",
          "name": "to",
          "type": "address"
        },
        {
          "internalType": "uint256[]",
          "name": "ids",
          "type": "uint256[]"
        },
        {
          "internalType": "uint256[]",
          "name": "amounts",
          "type": "uint256[]"
        },
        {
          "internalType": "bytes",
          "name": "data",
          "type": "bytes"
        }
      ],
      "name": "safeBatchTransferFrom",
      "outputs": [],
      "stateMutability": "nonpayable",
      "type": "function"
    },
    {
      "inputs": [
        {
          "internalType": "address",
          "name": "from",
          "type": "address"
        },
        {
          "internalType": "address",
          "name": "to",
          "type": "address"
        },
        {
          "internalType": "uint256",
          "name": "id",
          "type": "uint256"
        },
        {
          "internalType": "uint256",
          "name": "amount",
          "type": "uint256"
        },
        {
          "internalType": "bytes",
          "name": "data",
          "type": "bytes"
        }
      ],
      "name": "safeTransferFrom",
      "outputs": [],
      "stateMutability": "nonpayable",
      "type": "function"
    },
    {
      "inputs": [
        {
          "internalType": "address",
          "name": "operator",
          "type": "address"
        },
        {
          "internalType": "bool",
          "name": "approved",
          "type": "bool"
        }
      ],
      "name": "setApprovalForAll",
      "outputs": [],
      "stateMutability": "nonpayable",
      "type": "function"
    },
    {
      "inputs": [
        {
          "internalType": "bytes4",
          "name": "interfaceId",
          "type": "bytes4"
        }
      ],
      "name": "supportsInterface",
      "outputs": [
        {
          "internalType": "bool",
          "name": "",
          "type": "bool"
        }
      ],
      "stateMutability": "view",
      "type": "function",
      "constant": true
    },
    {
      "inputs": [],
      "name": "symbol",
      "outputs": [
        {
          "internalType": "string",
          "name": "",
          "type": "string"
        }
      ],
      "stateMutability": "view",
      "type": "function",
      "constant": true
    },
    {
      "inputs": [
        {
          "internalType": "address",
          "name": "newOwner",
          "type": "address"
        }
      ],
      "name": "transferOwnership",
      "outputs": [],
      "stateMutability": "nonpayable",
      "type": "function"
    },
    {
      "inputs": [
        {
          "internalType": "uint256",
          "name": "",
          "type": "uint256"
        }
      ],
      "name": "uri",
      "outputs": [
        {
          "internalType": "string",
          "name": "",
          "type": "string"
        }
      ],
      "stateMutability": "view",
      "type": "function",
      "constant": true
    },
    {
      "inputs": [
        {
          "internalType": "uint256",
          "name": "limitTime",
          "type": "uint256"
        },
        {
          "internalType": "uint256",
          "name": "price",
          "type": "uint256"
        },
        {
          "internalType": "uint256",
          "name": "limitAmount",
          "type": "uint256"
        },
        {
          "internalType": "uint256",
          "name": "amounts",
          "type": "uint256"
        },
        {
          "internalType": "string",
          "name": "ticketName",
          "type": "string"
        }
      ],
      "name": "mintTicket",
      "outputs": [],
      "stateMutability": "nonpayable",
      "type": "function"
    },
    {
      "inputs": [
        {
          "internalType": "uint256[]",
          "name": "ids",
          "type": "uint256[]"
        },
        {
          "internalType": "uint256[]",
          "name": "amounts",
          "type": "uint256[]"
        }
      ],
      "name": "buyTickets",
      "outputs": [],
      "stateMutability": "payable",
      "type": "function",
      "payable": true
    },
    {
      "inputs": [
        {
          "internalType": "uint256",
          "name": "id",
          "type": "uint256"
        },
        {
          "internalType": "uint256",
          "name": "amount",
          "type": "uint256"
        }
      ],
      "name": "buyTicket",
      "outputs": [],
      "stateMutability": "payable",
      "type": "function",
      "payable": true
    },
    {
      "inputs": [
        {
          "internalType": "uint256",
          "name": "id",
          "type": "uint256"
        }
      ],
      "name": "useTicket",
      "outputs": [],
      "stateMutability": "nonpayable",
      "type": "function"
    },
    {
      "inputs": [
        {
          "internalType": "uint256",
          "name": "id",
          "type": "uint256"
        }
      ],
      "name": "getTicketInfo",
      "outputs": [
        {
          "internalType": "string",
          "name": "ticketName",
          "type": "string"
        },
        {
          "internalType": "uint256",
          "name": "limitTime",
          "type": "uint256"
        },
        {
          "internalType": "uint256",
          "name": "price",
          "type": "uint256"
        },
        {
          "internalType": "uint256",
          "name": "limitAmount",
          "type": "uint256"
        }
      ],
      "stateMutability": "view",
      "type": "function",
      "constant": true
    }
  ],
  "bytecode": "0x6080604052606460065560016007553480156200001b57600080fd5b506040518060800160405280604881526020016200460c604891396200004781620000fc60201b60201c565b50620000686200005c6200011160201b60201c565b6200011960201b60201c565b6040518060400160405280600781526020017f4368756e7369630000000000000000000000000000000000000000000000000081525060049081620000ae919062000459565b506040518060400160405280600b81526020017f47756172616e7461626c6500000000000000000000000000000000000000000081525060059081620000f5919062000459565b5062000540565b80600290816200010d919062000459565b5050565b600033905090565b6000600360009054906101000a900473ffffffffffffffffffffffffffffffffffffffff16905081600360006101000a81548173ffffffffffffffffffffffffffffffffffffffff021916908373ffffffffffffffffffffffffffffffffffffffff1602179055508173ffffffffffffffffffffffffffffffffffffffff168173ffffffffffffffffffffffffffffffffffffffff167f8be0079c531659141344cd1fd0a4f28419497f9722a3daafe3b4186f6b6457e060405160405180910390a35050565b600081519050919050565b7f4e487b7100000000000000000000000000000000000000000000000000000000600052604160045260246000fd5b7f4e487b7100000000000000000000000000000000000000000000000000000000600052602260045260246000fd5b600060028204905060018216806200026157607f821691505b60208210810362000277576200027662000219565b5b50919050565b60008190508160005260206000209050919050565b60006020601f8301049050919050565b600082821b905092915050565b600060088302620002e17fffffffffffffffffffffffffffffffffffffffffffffffffffffffffffffffff82620002a2565b620002ed8683620002a2565b95508019841693508086168417925050509392505050565b6000819050919050565b6000819050919050565b60006200033a620003346200032e8462000305565b6200030f565b62000305565b9050919050565b6000819050919050565b620003568362000319565b6200036e620003658262000341565b848454620002af565b825550505050565b600090565b6200038562000376565b620003928184846200034b565b505050565b5b81811015620003ba57620003ae6000826200037b565b60018101905062000398565b5050565b601f8211156200040957620003d3816200027d565b620003de8462000292565b81016020851015620003ee578190505b62000406620003fd8562000292565b83018262000397565b50505b505050565b600082821c905092915050565b60006200042e600019846008026200040e565b1980831691505092915050565b60006200044983836200041b565b9150826002028217905092915050565b6200046482620001df565b67ffffffffffffffff81111562000480576200047f620001ea565b5b6200048c825462000248565b62000499828285620003be565b600060209050601f831160018114620004d15760008415620004bc578287015190505b620004c885826200043b565b86555062000538565b601f198416620004e1866200027d565b60005b828110156200050b57848901518255600182019150602085019450602081019050620004e4565b868310156200052b578489015162000527601f8916826200041b565b8355505b6001600288020188555050505b505050505050565b6140bc80620005506000396000f3fe6080604052600436106101085760003560e01c8063715018a611610095578063c058514411610064578063c058514414610359578063e985e9c514610375578063f242432a146103b2578063f2fde38b146103db578063ff99a0631461040457610108565b8063715018a6146102c35780638da5cb5b146102da57806395d89b4114610305578063a22cb4651461033057610108565b806326606448116100dc57806326606448146101ef578063298ec208146102185780632eb2c2d6146102345780634e1273f41461025d578063701b1d941461029a57610108565b8062fdd58e1461010d57806301ffc9a71461014a57806306fdde03146101875780630e89341c146101b2575b600080fd5b34801561011957600080fd5b50610134600480360381019061012f9190612489565b610444565b60405161014191906124d8565b60405180910390f35b34801561015657600080fd5b50610171600480360381019061016c919061254b565b61050c565b60405161017e9190612593565b60405180910390f35b34801561019357600080fd5b5061019c6105ee565b6040516101a9919061263e565b60405180910390f35b3480156101be57600080fd5b506101d960048036038101906101d49190612660565b61067c565b6040516101e6919061263e565b60405180910390f35b3480156101fb57600080fd5b5061021660048036038101906102119190612660565b610710565b005b610232600480360381019061022d919061268d565b6107c4565b005b34801561024057600080fd5b5061025b600480360381019061025691906128ca565b6108b2565b005b34801561026957600080fd5b50610284600480360381019061027f9190612a5c565b610953565b6040516102919190612b92565b60405180910390f35b3480156102a657600080fd5b506102c160048036038101906102bc9190612c55565b610a6c565b005b3480156102cf57600080fd5b506102d8610b7a565b005b3480156102e657600080fd5b506102ef610b8e565b6040516102fc9190612cfb565b60405180910390f35b34801561031157600080fd5b5061031a610bb8565b604051610327919061263e565b60405180910390f35b34801561033c57600080fd5b5061035760048036038101906103529190612d42565b610c46565b005b610373600480360381019061036e9190612d82565b610c5c565b005b34801561038157600080fd5b5061039c60048036038101906103979190612dfa565b610e70565b6040516103a99190612593565b60405180910390f35b3480156103be57600080fd5b506103d960048036038101906103d49190612e3a565b610f04565b005b3480156103e757600080fd5b5061040260048036038101906103fd9190612ed1565b610fa5565b005b34801561041057600080fd5b5061042b60048036038101906104269190612660565b611028565b60405161043b9493929190612efe565b60405180910390f35b60008073ffffffffffffffffffffffffffffffffffffffff168373ffffffffffffffffffffffffffffffffffffffff16036104b4576040517f08c379a00000000000000000000000000000000000000000000000000000000081526004016104ab90612fbc565b60405180910390fd5b60008083815260200190815260200160002060008473ffffffffffffffffffffffffffffffffffffffff1673ffffffffffffffffffffffffffffffffffffffff16815260200190815260200160002054905092915050565b60007fd9b67a26000000000000000000000000000000000000000000000000000000007bffffffffffffffffffffffffffffffffffffffffffffffffffffffff1916827bffffffffffffffffffffffffffffffffffffffffffffffffffffffff191614806105d757507f0e89341c000000000000000000000000000000000000000000000000000000007bffffffffffffffffffffffffffffffffffffffffffffffffffffffff1916827bffffffffffffffffffffffffffffffffffffffffffffffffffffffff1916145b806105e757506105e6826112b2565b5b9050919050565b600480546105fb9061300b565b80601f01602080910402602001604051908101604052809291908181526020018280546106279061300b565b80156106745780601f1061064957610100808354040283529160200191610674565b820191906000526020600020905b81548152906001019060200180831161065757829003601f168201915b505050505081565b60606002805461068b9061300b565b80601f01602080910402602001604051908101604052809291908181526020018280546106b79061300b565b80156107045780601f106106d957610100808354040283529160200191610704565b820191906000526020600020905b8154815290600101906020018083116106e757829003601f168201915b50505050509050919050565b600061071c3383610444565b1161075c576040517f08c379a000000000000000000000000000000000000000000000000000000000815260040161075390613088565b60405180910390fd5b60086000828152602001908152602001600020600101544211156107b5576040517f08c379a00000000000000000000000000000000000000000000000000000000081526004016107ac906130f4565b60405180910390fd5b6107c13382600161131c565b50565b6000600167ffffffffffffffff8111156107e1576107e06126d2565b5b60405190808252806020026020018201604052801561080f5781602001602082028036833780820191505090505b5090506000600167ffffffffffffffff81111561082f5761082e6126d2565b5b60405190808252806020026020018201604052801561085d5781602001602082028036833780820191505090505b509050838260008151811061087557610874613114565b5b602002602001018181525050828160008151811061089657610895613114565b5b6020026020010181815250506108ac8282610c5c565b50505050565b6108ba611562565b73ffffffffffffffffffffffffffffffffffffffff168573ffffffffffffffffffffffffffffffffffffffff16148061090057506108ff856108fa611562565b610e70565b5b61093f576040517f08c379a0000000000000000000000000000000000000000000000000000000008152600401610936906131b5565b60405180910390fd5b61094c858585858561156a565b5050505050565b60608151835114610999576040517f08c379a000000000000000000000000000000000000000000000000000000000815260040161099090613247565b60405180910390fd5b6000835167ffffffffffffffff8111156109b6576109b56126d2565b5b6040519080825280602002602001820160405280156109e45781602001602082028036833780820191505090505b50905060005b8451811015610a6157610a31858281518110610a0957610a08613114565b5b6020026020010151858381518110610a2457610a23613114565b5b6020026020010151610444565b828281518110610a4457610a43613114565b5b60200260200101818152505080610a5a90613296565b90506109ea565b508091505092915050565b610a7461188b565b600654821115610ab9576040517f08c379a0000000000000000000000000000000000000000000000000000000008152600401610ab09061332a565b60405180910390fd5b60006040518060a00160405280600754815260200187815260200186815260200185815260200183815250905080600860006007548152602001908152602001600020600082015181600001556020820151816001015560408201518160020155606082015181600301556080820151816004019081610b3991906134f6565b50905050610b5a336007548560405180602001604052806000815250611909565b60076000815480929190610b6d90613296565b9190505550505050505050565b610b8261188b565b610b8c6000611ab9565b565b6000600360009054906101000a900473ffffffffffffffffffffffffffffffffffffffff16905090565b60058054610bc59061300b565b80601f0160208091040260200160405190810160405280929190818152602001828054610bf19061300b565b8015610c3e5780601f10610c1357610100808354040283529160200191610c3e565b820191906000526020600020905b815481529060010190602001808311610c2157829003601f168201915b505050505081565b610c58610c51611562565b8383611b7f565b5050565b8051825114610ca0576040517f08c379a0000000000000000000000000000000000000000000000000000000008152600401610c9790613614565b60405180910390fd5b6000805b8351811015610db057828181518110610cc057610cbf613114565b5b602002602001015160086000868481518110610cdf57610cde613114565b5b60200260200101518152602001908152602001600020600301541015610d3a576040517f08c379a0000000000000000000000000000000000000000000000000000000008152600401610d3190613680565b60405180910390fd5b828181518110610d4d57610d4c613114565b5b602002602001015160086000868481518110610d6c57610d6b613114565b5b6020026020010151815260200190815260200160002060020154610d9091906136a0565b82610d9b91906136e2565b91508080610da890613296565b915050610ca4565b5080341015610df4576040517f08c379a0000000000000000000000000000000000000000000000000000000008152600401610deb90613762565b60405180910390fd5b60005b8351811015610e6a57610e57610e0b610b8e565b33868481518110610e1f57610e1e613114565b5b6020026020010151868581518110610e3a57610e39613114565b5b602002602001015160405180602001604052806000815250611ceb565b8080610e6290613296565b915050610df7565b50505050565b6000600160008473ffffffffffffffffffffffffffffffffffffffff1673ffffffffffffffffffffffffffffffffffffffff16815260200190815260200160002060008373ffffffffffffffffffffffffffffffffffffffff1673ffffffffffffffffffffffffffffffffffffffff16815260200190815260200160002060009054906101000a900460ff16905092915050565b610f0c611562565b73ffffffffffffffffffffffffffffffffffffffff168573ffffffffffffffffffffffffffffffffffffffff161480610f525750610f5185610f4c611562565b610e70565b5b610f91576040517f08c379a0000000000000000000000000000000000000000000000000000000008152600401610f88906131b5565b60405180910390fd5b610f9e8585858585611ceb565b5050505050565b610fad61188b565b600073ffffffffffffffffffffffffffffffffffffffff168173ffffffffffffffffffffffffffffffffffffffff160361101c576040517f08c379a0000000000000000000000000000000000000000000000000000000008152600401611013906137f4565b60405180910390fd5b61102581611ab9565b50565b60606000806000611037610b8e565b73ffffffffffffffffffffffffffffffffffffffff163373ffffffffffffffffffffffffffffffffffffffff161480611079575060006110773387610444565b115b6110b8576040517f08c379a00000000000000000000000000000000000000000000000000000000081526004016110af90613860565b60405180910390fd5b6110c0610b8e565b73ffffffffffffffffffffffffffffffffffffffff163373ffffffffffffffffffffffffffffffffffffffff16036111e657600860008681526020019081526020016000206004016008600087815260200190815260200160002060010154600860008881526020019081526020016000206002015460086000898152602001908152602001600020600301548380546111599061300b565b80601f01602080910402602001604051908101604052809291908181526020018280546111859061300b565b80156111d25780601f106111a7576101008083540402835291602001916111d2565b820191906000526020600020905b8154815290600101906020018083116111b557829003601f168201915b5050505050935093509350935093506112ab565b6008600086815260200190815260200160002060040160086000878152602001908152602001600020600101546000808380546112229061300b565b80601f016020809104026020016040519081016040528092919081815260200182805461124e9061300b565b801561129b5780601f106112705761010080835404028352916020019161129b565b820191906000526020600020905b81548152906001019060200180831161127e57829003601f168201915b5050505050935093509350935093505b9193509193565b60007f01ffc9a7000000000000000000000000000000000000000000000000000000007bffffffffffffffffffffffffffffffffffffffffffffffffffffffff1916827bffffffffffffffffffffffffffffffffffffffffffffffffffffffff1916149050919050565b600073ffffffffffffffffffffffffffffffffffffffff168373ffffffffffffffffffffffffffffffffffffffff160361138b576040517f08c379a0000000000000000000000000000000000000000000000000000000008152600401611382906138f2565b60405180910390fd5b6000611395611562565b905060006113a284611f86565b905060006113af84611f86565b90506113cf83876000858560405180602001604052806000815250612000565b600080600087815260200190815260200160002060008873ffffffffffffffffffffffffffffffffffffffff1673ffffffffffffffffffffffffffffffffffffffff16815260200190815260200160002054905084811015611466576040517f08c379a000000000000000000000000000000000000000000000000000000000815260040161145d90613984565b60405180910390fd5b84810360008088815260200190815260200160002060008973ffffffffffffffffffffffffffffffffffffffff1673ffffffffffffffffffffffffffffffffffffffff16815260200190815260200160002081905550600073ffffffffffffffffffffffffffffffffffffffff168773ffffffffffffffffffffffffffffffffffffffff168573ffffffffffffffffffffffffffffffffffffffff167fc3d58168c5ae7397731d063d5bbf3d657854427343f4c083240f7aacaa2d0f6289896040516115339291906139a4565b60405180910390a461155984886000868660405180602001604052806000815250612008565b50505050505050565b600033905090565b81518351146115ae576040517f08c379a00000000000000000000000000000000000000000000000000000000081526004016115a590613a3f565b60405180910390fd5b600073ffffffffffffffffffffffffffffffffffffffff168473ffffffffffffffffffffffffffffffffffffffff160361161d576040517f08c379a000000000000000000000000000000000000000000000000000000000815260040161161490613ad1565b60405180910390fd5b6000611627611562565b9050611637818787878787612000565b60005b84518110156117e857600085828151811061165857611657613114565b5b60200260200101519050600085838151811061167757611676613114565b5b60200260200101519050600080600084815260200190815260200160002060008b73ffffffffffffffffffffffffffffffffffffffff1673ffffffffffffffffffffffffffffffffffffffff16815260200190815260200160002054905081811015611718576040517f08c379a000000000000000000000000000000000000000000000000000000000815260040161170f90613b63565b60405180910390fd5b81810360008085815260200190815260200160002060008c73ffffffffffffffffffffffffffffffffffffffff1673ffffffffffffffffffffffffffffffffffffffff168152602001908152602001600020819055508160008085815260200190815260200160002060008b73ffffffffffffffffffffffffffffffffffffffff1673ffffffffffffffffffffffffffffffffffffffff16815260200190815260200160002060008282546117cd91906136e2565b92505081905550505050806117e190613296565b905061163a565b508473ffffffffffffffffffffffffffffffffffffffff168673ffffffffffffffffffffffffffffffffffffffff168273ffffffffffffffffffffffffffffffffffffffff167f4a39dc06d4c0dbc64b70af90fd698a233a518aa5d07e595d983b8c0526c8f7fb878760405161185f929190613b83565b60405180910390a4611875818787878787612008565b611883818787878787612010565b505050505050565b611893611562565b73ffffffffffffffffffffffffffffffffffffffff166118b1610b8e565b73ffffffffffffffffffffffffffffffffffffffff1614611907576040517f08c379a00000000000000000000000000000000000000000000000000000000081526004016118fe90613c06565b60405180910390fd5b565b600073ffffffffffffffffffffffffffffffffffffffff168473ffffffffffffffffffffffffffffffffffffffff1603611978576040517f08c379a000000000000000000000000000000000000000000000000000000000815260040161196f90613c98565b60405180910390fd5b6000611982611562565b9050600061198f85611f86565b9050600061199c85611f86565b90506119ad83600089858589612000565b8460008088815260200190815260200160002060008973ffffffffffffffffffffffffffffffffffffffff1673ffffffffffffffffffffffffffffffffffffffff1681526020019081526020016000206000828254611a0c91906136e2565b925050819055508673ffffffffffffffffffffffffffffffffffffffff16600073ffffffffffffffffffffffffffffffffffffffff168473ffffffffffffffffffffffffffffffffffffffff167fc3d58168c5ae7397731d063d5bbf3d657854427343f4c083240f7aacaa2d0f628989604051611a8a9291906139a4565b60405180910390a4611aa183600089858589612008565b611ab0836000898989896121e7565b50505050505050565b6000600360009054906101000a900473ffffffffffffffffffffffffffffffffffffffff16905081600360006101000a81548173ffffffffffffffffffffffffffffffffffffffff021916908373ffffffffffffffffffffffffffffffffffffffff1602179055508173ffffffffffffffffffffffffffffffffffffffff168173ffffffffffffffffffffffffffffffffffffffff167f8be0079c531659141344cd1fd0a4f28419497f9722a3daafe3b4186f6b6457e060405160405180910390a35050565b8173ffffffffffffffffffffffffffffffffffffffff168373ffffffffffffffffffffffffffffffffffffffff1603611bed576040517f08c379a0000000000000000000000000000000000000000000000000000000008152600401611be490613d2a565b60405180910390fd5b80600160008573ffffffffffffffffffffffffffffffffffffffff1673ffffffffffffffffffffffffffffffffffffffff16815260200190815260200160002060008473ffffffffffffffffffffffffffffffffffffffff1673ffffffffffffffffffffffffffffffffffffffff16815260200190815260200160002060006101000a81548160ff0219169083151502179055508173ffffffffffffffffffffffffffffffffffffffff168373ffffffffffffffffffffffffffffffffffffffff167f17307eab39ab6107e8899845ad3d59bd9653f200f220920489ca2b5937696c3183604051611cde9190612593565b60405180910390a3505050565b600073ffffffffffffffffffffffffffffffffffffffff168473ffffffffffffffffffffffffffffffffffffffff1603611d5a576040517f08c379a0000000000000000000000000000000000000000000000000000000008152600401611d5190613ad1565b60405180910390fd5b6000611d64611562565b90506000611d7185611f86565b90506000611d7e85611f86565b9050611d8e838989858589612000565b600080600088815260200190815260200160002060008a73ffffffffffffffffffffffffffffffffffffffff1673ffffffffffffffffffffffffffffffffffffffff16815260200190815260200160002054905085811015611e25576040517f08c379a0000000000000000000000000000000000000000000000000000000008152600401611e1c90613b63565b60405180910390fd5b85810360008089815260200190815260200160002060008b73ffffffffffffffffffffffffffffffffffffffff1673ffffffffffffffffffffffffffffffffffffffff168152602001908152602001600020819055508560008089815260200190815260200160002060008a73ffffffffffffffffffffffffffffffffffffffff1673ffffffffffffffffffffffffffffffffffffffff1681526020019081526020016000206000828254611eda91906136e2565b925050819055508773ffffffffffffffffffffffffffffffffffffffff168973ffffffffffffffffffffffffffffffffffffffff168573ffffffffffffffffffffffffffffffffffffffff167fc3d58168c5ae7397731d063d5bbf3d657854427343f4c083240f7aacaa2d0f628a8a604051611f579291906139a4565b60405180910390a4611f6d848a8a86868a612008565b611f7b848a8a8a8a8a6121e7565b505050505050505050565b60606000600167ffffffffffffffff811115611fa557611fa46126d2565b5b604051908082528060200260200182016040528015611fd35781602001602082028036833780820191505090505b5090508281600081518110611feb57611fea613114565b5b60200260200101818152505080915050919050565b505050505050565b505050505050565b61202f8473ffffffffffffffffffffffffffffffffffffffff166123be565b156121df578373ffffffffffffffffffffffffffffffffffffffff1663bc197c8187878686866040518663ffffffff1660e01b8152600401612075959493929190613d9f565b6020604051808303816000875af19250505080156120b157506040513d601f19601f820116820180604052508101906120ae9190613e1c565b60015b612156576120bd613e56565b806308c379a00361211957506120d1613e78565b806120dc575061211b565b806040517f08c379a0000000000000000000000000000000000000000000000000000000008152600401612110919061263e565b60405180910390fd5b505b6040517f08c379a000000000000000000000000000000000000000000000000000000000815260040161214d90613f7a565b60405180910390fd5b63bc197c8160e01b7bffffffffffffffffffffffffffffffffffffffffffffffffffffffff1916817bffffffffffffffffffffffffffffffffffffffffffffffffffffffff1916146121dd576040517f08c379a00000000000000000000000000000000000000000000000000000000081526004016121d49061400c565b60405180910390fd5b505b505050505050565b6122068473ffffffffffffffffffffffffffffffffffffffff166123be565b156123b6578373ffffffffffffffffffffffffffffffffffffffff1663f23a6e6187878686866040518663ffffffff1660e01b815260040161224c95949392919061402c565b6020604051808303816000875af192505050801561228857506040513d601f19601f820116820180604052508101906122859190613e1c565b60015b61232d57612294613e56565b806308c379a0036122f057506122a8613e78565b806122b357506122f2565b806040517f08c379a00000000000000000000000000000000000000000000000000000000081526004016122e7919061263e565b60405180910390fd5b505b6040517f08c379a000000000000000000000000000000000000000000000000000000000815260040161232490613f7a565b60405180910390fd5b63f23a6e6160e01b7bffffffffffffffffffffffffffffffffffffffffffffffffffffffff1916817bffffffffffffffffffffffffffffffffffffffffffffffffffffffff1916146123b4576040517f08c379a00000000000000000000000000000000000000000000000000000000081526004016123ab9061400c565b60405180910390fd5b505b505050505050565b6000808273ffffffffffffffffffffffffffffffffffffffff163b119050919050565b6000604051905090565b600080fd5b600080fd5b600073ffffffffffffffffffffffffffffffffffffffff82169050919050565b6000612420826123f5565b9050919050565b61243081612415565b811461243b57600080fd5b50565b60008135905061244d81612427565b92915050565b6000819050919050565b61246681612453565b811461247157600080fd5b50565b6000813590506124838161245d565b92915050565b600080604083850312156124a05761249f6123eb565b5b60006124ae8582860161243e565b92505060206124bf85828601612474565b9150509250929050565b6124d281612453565b82525050565b60006020820190506124ed60008301846124c9565b92915050565b60007fffffffff0000000000000000000000000000000000000000000000000000000082169050919050565b612528816124f3565b811461253357600080fd5b50565b6000813590506125458161251f565b92915050565b600060208284031215612561576125606123eb565b5b600061256f84828501612536565b91505092915050565b60008115159050919050565b61258d81612578565b82525050565b60006020820190506125a86000830184612584565b92915050565b600081519050919050565b600082825260208201905092915050565b60005b838110156125e85780820151818401526020810190506125cd565b60008484015250505050565b6000601f19601f8301169050919050565b6000612610826125ae565b61261a81856125b9565b935061262a8185602086016125ca565b612633816125f4565b840191505092915050565b600060208201905081810360008301526126588184612605565b905092915050565b600060208284031215612676576126756123eb565b5b600061268484828501612474565b91505092915050565b600080604083850312156126a4576126a36123eb565b5b60006126b285828601612474565b92505060206126c385828601612474565b9150509250929050565b600080fd5b7f4e487b7100000000000000000000000000000000000000000000000000000000600052604160045260246000fd5b61270a826125f4565b810181811067ffffffffffffffff82111715612729576127286126d2565b5b80604052505050565b600061273c6123e1565b90506127488282612701565b919050565b600067ffffffffffffffff821115612768576127676126d2565b5b602082029050602081019050919050565b600080fd5b600061279161278c8461274d565b612732565b905080838252602082019050602084028301858111156127b4576127b3612779565b5b835b818110156127dd57806127c98882612474565b8452602084019350506020810190506127b6565b5050509392505050565b600082601f8301126127fc576127fb6126cd565b5b813561280c84826020860161277e565b91505092915050565b600080fd5b600067ffffffffffffffff821115612835576128346126d2565b5b61283e826125f4565b9050602081019050919050565b82818337600083830152505050565b600061286d6128688461281a565b612732565b90508281526020810184848401111561288957612888612815565b5b61289484828561284b565b509392505050565b600082601f8301126128b1576128b06126cd565b5b81356128c184826020860161285a565b91505092915050565b600080600080600060a086880312156128e6576128e56123eb565b5b60006128f48882890161243e565b95505060206129058882890161243e565b945050604086013567ffffffffffffffff811115612926576129256123f0565b5b612932888289016127e7565b935050606086013567ffffffffffffffff811115612953576129526123f0565b5b61295f888289016127e7565b925050608086013567ffffffffffffffff8111156129805761297f6123f0565b5b61298c8882890161289c565b9150509295509295909350565b600067ffffffffffffffff8211156129b4576129b36126d2565b5b602082029050602081019050919050565b60006129d86129d384612999565b612732565b905080838252602082019050602084028301858111156129fb576129fa612779565b5b835b81811015612a245780612a10888261243e565b8452602084019350506020810190506129fd565b5050509392505050565b600082601f830112612a4357612a426126cd565b5b8135612a538482602086016129c5565b91505092915050565b60008060408385031215612a7357612a726123eb565b5b600083013567ffffffffffffffff811115612a9157612a906123f0565b5b612a9d85828601612a2e565b925050602083013567ffffffffffffffff811115612abe57612abd6123f0565b5b612aca858286016127e7565b9150509250929050565b600081519050919050565b600082825260208201905092915050565b6000819050602082019050919050565b612b0981612453565b82525050565b6000612b1b8383612b00565b60208301905092915050565b6000602082019050919050565b6000612b3f82612ad4565b612b498185612adf565b9350612b5483612af0565b8060005b83811015612b85578151612b6c8882612b0f565b9750612b7783612b27565b925050600181019050612b58565b5085935050505092915050565b60006020820190508181036000830152612bac8184612b34565b905092915050565b600067ffffffffffffffff821115612bcf57612bce6126d2565b5b612bd8826125f4565b9050602081019050919050565b6000612bf8612bf384612bb4565b612732565b905082815260208101848484011115612c1457612c13612815565b5b612c1f84828561284b565b509392505050565b600082601f830112612c3c57612c3b6126cd565b5b8135612c4c848260208601612be5565b91505092915050565b600080600080600060a08688031215612c7157612c706123eb565b5b6000612c7f88828901612474565b9550506020612c9088828901612474565b9450506040612ca188828901612474565b9350506060612cb288828901612474565b925050608086013567ffffffffffffffff811115612cd357612cd26123f0565b5b612cdf88828901612c27565b9150509295509295909350565b612cf581612415565b82525050565b6000602082019050612d106000830184612cec565b92915050565b612d1f81612578565b8114612d2a57600080fd5b50565b600081359050612d3c81612d16565b92915050565b60008060408385031215612d5957612d586123eb565b5b6000612d678582860161243e565b9250506020612d7885828601612d2d565b9150509250929050565b60008060408385031215612d9957612d986123eb565b5b600083013567ffffffffffffffff811115612db757612db66123f0565b5b612dc3858286016127e7565b925050602083013567ffffffffffffffff811115612de457612de36123f0565b5b612df0858286016127e7565b9150509250929050565b60008060408385031215612e1157612e106123eb565b5b6000612e1f8582860161243e565b9250506020612e308582860161243e565b9150509250929050565b600080600080600060a08688031215612e5657612e556123eb565b5b6000612e648882890161243e565b9550506020612e758882890161243e565b9450506040612e8688828901612474565b9350506060612e9788828901612474565b925050608086013567ffffffffffffffff811115612eb857612eb76123f0565b5b612ec48882890161289c565b9150509295509295909350565b600060208284031215612ee757612ee66123eb565b5b6000612ef58482850161243e565b91505092915050565b60006080820190508181036000830152612f188187612605565b9050612f2760208301866124c9565b612f3460408301856124c9565b612f4160608301846124c9565b95945050505050565b7f455243313135353a2061646472657373207a65726f206973206e6f742061207660008201527f616c6964206f776e657200000000000000000000000000000000000000000000602082015250565b6000612fa6602a836125b9565b9150612fb182612f4a565b604082019050919050565b60006020820190508181036000830152612fd581612f99565b9050919050565b7f4e487b7100000000000000000000000000000000000000000000000000000000600052602260045260246000fd5b6000600282049050600182168061302357607f821691505b60208210810361303657613035612fdc565b5b50919050565b7f4e6f207469636b657420746f2075736500000000000000000000000000000000600082015250565b60006130726010836125b9565b915061307d8261303c565b602082019050919050565b600060208201905081810360008301526130a181613065565b9050919050565b7f5469636b65742065787069726564000000000000000000000000000000000000600082015250565b60006130de600e836125b9565b91506130e9826130a8565b602082019050919050565b6000602082019050818103600083015261310d816130d1565b9050919050565b7f4e487b7100000000000000000000000000000000000000000000000000000000600052603260045260246000fd5b7f455243313135353a2063616c6c6572206973206e6f7420746f6b656e206f776e60008201527f6572206f7220617070726f766564000000000000000000000000000000000000602082015250565b600061319f602e836125b9565b91506131aa82613143565b604082019050919050565b600060208201905081810360008301526131ce81613192565b9050919050565b7f455243313135353a206163636f756e747320616e6420696473206c656e67746860008201527f206d69736d617463680000000000000000000000000000000000000000000000602082015250565b60006132316029836125b9565b915061323c826131d5565b604082019050919050565b6000602082019050818103600083015261326081613224565b9050919050565b7f4e487b7100000000000000000000000000000000000000000000000000000000600052601160045260246000fd5b60006132a182612453565b91507fffffffffffffffffffffffffffffffffffffffffffffffffffffffffffffffff82036132d3576132d2613267565b5b600182019050919050565b7f596f752063616e206d696e7420756e64657220616d6f756e7420313030000000600082015250565b6000613314601d836125b9565b915061331f826132de565b602082019050919050565b6000602082019050818103600083015261334381613307565b9050919050565b60008190508160005260206000209050919050565b60006020601f8301049050919050565b600082821b905092915050565b6000600883026133ac7fffffffffffffffffffffffffffffffffffffffffffffffffffffffffffffffff8261336f565b6133b6868361336f565b95508019841693508086168417925050509392505050565b6000819050919050565b60006133f36133ee6133e984612453565b6133ce565b612453565b9050919050565b6000819050919050565b61340d836133d8565b613421613419826133fa565b84845461337c565b825550505050565b600090565b613436613429565b613441818484613404565b505050565b5b818110156134655761345a60008261342e565b600181019050613447565b5050565b601f8211156134aa5761347b8161334a565b6134848461335f565b81016020851015613493578190505b6134a761349f8561335f565b830182613446565b50505b505050565b600082821c905092915050565b60006134cd600019846008026134af565b1980831691505092915050565b60006134e683836134bc565b9150826002028217905092915050565b6134ff826125ae565b67ffffffffffffffff811115613518576135176126d2565b5b613522825461300b565b61352d828285613469565b600060209050601f831160018114613560576000841561354e578287015190505b61355885826134da565b8655506135c0565b601f19841661356e8661334a565b60005b8281101561359657848901518255600182019150602085019450602081019050613571565b868310156135b357848901516135af601f8916826134bc565b8355505b6001600288020188555050505b505050505050565b7f4d69736d6174636865642069647320616e6420616d6f756e7473000000000000600082015250565b60006135fe601a836125b9565b9150613609826135c8565b602082019050919050565b6000602082019050818103600083015261362d816135f1565b9050919050565b7f446f206e6f742062757920746f6f206d616e79207469636b6574730000000000600082015250565b600061366a601b836125b9565b915061367582613634565b602082019050919050565b600060208201905081810360008301526136998161365d565b9050919050565b60006136ab82612453565b91506136b683612453565b92508282026136c481612453565b915082820484148315176136db576136da613267565b5b5092915050565b60006136ed82612453565b91506136f883612453565b92508282019050808211156137105761370f613267565b5b92915050565b7f4e6f7420656e6f75676820457468657200000000000000000000000000000000600082015250565b600061374c6010836125b9565b915061375782613716565b602082019050919050565b6000602082019050818103600083015261377b8161373f565b9050919050565b7f4f776e61626c653a206e6577206f776e657220697320746865207a65726f206160008201527f6464726573730000000000000000000000000000000000000000000000000000602082015250565b60006137de6026836125b9565b91506137e982613782565b604082019050919050565b6000602082019050818103600083015261380d816137d1565b9050919050565b7f43616e6e6f742071756572792074686973207469636b65740000000000000000600082015250565b600061384a6018836125b9565b915061385582613814565b602082019050919050565b600060208201905081810360008301526138798161383d565b9050919050565b7f455243313135353a206275726e2066726f6d20746865207a65726f206164647260008201527f6573730000000000000000000000000000000000000000000000000000000000602082015250565b60006138dc6023836125b9565b91506138e782613880565b604082019050919050565b6000602082019050818103600083015261390b816138cf565b9050919050565b7f455243313135353a206275726e20616d6f756e7420657863656564732062616c60008201527f616e636500000000000000000000000000000000000000000000000000000000602082015250565b600061396e6024836125b9565b915061397982613912565b604082019050919050565b6000602082019050818103600083015261399d81613961565b9050919050565b60006040820190506139b960008301856124c9565b6139c660208301846124c9565b9392505050565b7f455243313135353a2069647320616e6420616d6f756e7473206c656e6774682060008201527f6d69736d61746368000000000000000000000000000000000000000000000000602082015250565b6000613a296028836125b9565b9150613a34826139cd565b604082019050919050565b60006020820190508181036000830152613a5881613a1c565b9050919050565b7f455243313135353a207472616e7366657220746f20746865207a65726f20616460008201527f6472657373000000000000000000000000000000000000000000000000000000602082015250565b6000613abb6025836125b9565b9150613ac682613a5f565b604082019050919050565b60006020820190508181036000830152613aea81613aae565b9050919050565b7f455243313135353a20696e73756666696369656e742062616c616e636520666f60008201527f72207472616e7366657200000000000000000000000000000000000000000000602082015250565b6000613b4d602a836125b9565b9150613b5882613af1565b604082019050919050565b60006020820190508181036000830152613b7c81613b40565b9050919050565b60006040820190508181036000830152613b9d8185612b34565b90508181036020830152613bb18184612b34565b90509392505050565b7f4f776e61626c653a2063616c6c6572206973206e6f7420746865206f776e6572600082015250565b6000613bf06020836125b9565b9150613bfb82613bba565b602082019050919050565b60006020820190508181036000830152613c1f81613be3565b9050919050565b7f455243313135353a206d696e7420746f20746865207a65726f2061646472657360008201527f7300000000000000000000000000000000000000000000000000000000000000602082015250565b6000613c826021836125b9565b9150613c8d82613c26565b604082019050919050565b60006020820190508181036000830152613cb181613c75565b9050919050565b7f455243313135353a2073657474696e6720617070726f76616c2073746174757360008201527f20666f722073656c660000000000000000000000000000000000000000000000602082015250565b6000613d146029836125b9565b9150613d1f82613cb8565b604082019050919050565b60006020820190508181036000830152613d4381613d07565b9050919050565b600081519050919050565b600082825260208201905092915050565b6000613d7182613d4a565b613d7b8185613d55565b9350613d8b8185602086016125ca565b613d94816125f4565b840191505092915050565b600060a082019050613db46000830188612cec565b613dc16020830187612cec565b8181036040830152613dd38186612b34565b90508181036060830152613de78185612b34565b90508181036080830152613dfb8184613d66565b90509695505050505050565b600081519050613e168161251f565b92915050565b600060208284031215613e3257613e316123eb565b5b6000613e4084828501613e07565b91505092915050565b60008160e01c9050919050565b600060033d1115613e755760046000803e613e72600051613e49565b90505b90565b600060443d10613f0557613e8a6123e1565b60043d036004823e80513d602482011167ffffffffffffffff82111715613eb2575050613f05565b808201805167ffffffffffffffff811115613ed05750505050613f05565b80602083010160043d038501811115613eed575050505050613f05565b613efc82602001850186612701565b82955050505050505b90565b7f455243313135353a207472616e7366657220746f206e6f6e2d4552433131353560008201527f526563656976657220696d706c656d656e746572000000000000000000000000602082015250565b6000613f646034836125b9565b9150613f6f82613f08565b604082019050919050565b60006020820190508181036000830152613f9381613f57565b9050919050565b7f455243313135353a204552433131353552656365697665722072656a6563746560008201527f6420746f6b656e73000000000000000000000000000000000000000000000000602082015250565b6000613ff66028836125b9565b915061400182613f9a565b604082019050919050565b6000602082019050818103600083015261402581613fe9565b9050919050565b600060a0820190506140416000830188612cec565b61404e6020830187612cec565b61405b60408301866124c9565b61406860608301856124c9565b818103608083015261407a8184613d66565b9050969550505050505056fea264697066735822122043074f20a69f06fba5da86896d4da1b363e01f21c0e3358d4f37fc504f84280864736f6c6343000811003368747470733a2f2f6465762d696e7465726e736869702e73332e61702d6e6f727468656173742d322e616d617a6f6e6177732e636f6d2f657263313135352f7b69647d2e6a736f6e",
  "immutableReferences": {},
  "source": "// SPDX-License-Identifier: MIT\npragma solidity ^0.8.0;\n\nimport \"@openzeppelin/contracts/token/ERC1155/ERC1155.sol\";\nimport \"@openzeppelin/contracts/access/Ownable.sol\";\n\ncontract Ticket1155 is ERC1155, Ownable {\n    \n    string public name;\n    string public symbol;\n    \n    constructor() ERC1155(\"https://dev-internship.s3.ap-northeast-2.amazonaws.com/erc1155/{id}.json\") {\n        name = \"Chunsic\";\n        symbol = \"Guarantable\";\n    }\n\n    struct TicketInfo {\n        uint id;                // @param  Id\n        uint limitTime;         // @param   \n        uint price;             // @param  \n        uint limitAmount;       // @param     \n        string ticketName;            // @param  \n    }\n    \n    uint maxTicket = 100;\n    uint private ticketIndex = 1;\n    mapping(uint => TicketInfo) private tickets;\n\n    function mintTicket(uint limitTime, uint price, uint limitAmount,uint amounts, string memory ticketName) public onlyOwner {\n        require(amounts <= maxTicket, \"You can mint under amount 100\");\n        TicketInfo memory newTicket = TicketInfo({\n            id: ticketIndex,\n            limitTime: limitTime,\n            price: price,\n            limitAmount: limitAmount,\n            ticketName: ticketName\n        });\n        tickets[ticketIndex] = newTicket;\n        _mint(msg.sender, ticketIndex, amounts, \"\");\n        ticketIndex++;\n    }\n\n    function buyTickets(uint[] memory ids, uint[] memory amounts) public payable {\n        require(ids.length == amounts.length, \"Mismatched ids and amounts\");\n\n        uint totalCost = 0;\n        for(uint i = 0; i < ids.length; i++) {\n            require(tickets[ids[i]].limitAmount >= amounts[i], \"Do not buy too many tickets\");\n            totalCost += tickets[ids[i]].price * amounts[i];\n        }\n\n        require(msg.value >= totalCost, \"Not enough Ether\");\n\n        for(uint i = 0; i < ids.length; i++) {\n            _safeTransferFrom(owner(), msg.sender, ids[i], amounts[i], \"\");\n        }\n    }\n\n    function buyTicket(uint id, uint amount) public payable {\n        uint[] memory ids = new uint[](1);\n        uint[] memory amounts = new uint[](1);\n        ids[0] = id;\n        amounts[0] = amount;\n        buyTickets(ids, amounts);\n    }\n\n    function useTicket(uint256 id) public {\n        require(balanceOf(msg.sender, id) > 0, \"No ticket to use\");\n        require(block.timestamp <= tickets[id].limitTime, \"Ticket expired\");\n        _burn(msg.sender, id, 1);\n    }\n\n    function getTicketInfo(uint256 id) public view returns (string memory ticketName, uint limitTime, uint price, uint limitAmount) {\n        require(\n            msg.sender == owner() || balanceOf(msg.sender, id) > 0,\n            \"Cannot query this ticket\"\n        );\n        if (msg.sender == owner()) {\n            return (\n                tickets[id].ticketName, \n                tickets[id].limitTime, \n                tickets[id].price, \n                tickets[id].limitAmount\n            );\n        } else {\n            return (\n                tickets[id].ticketName, \n                tickets[id].limitTime, \n                0, \n                0\n            );\n        }\n    }\n}",
  "sourcePath": "/Users/guarantable/bitbucket/3week_ERC115/contracts/Ticket1155.sol",
  "compiler": {
    "name": "solc",
    "version": "0.8.17+commit.8df45f5f.Emscripten.clang"
  },
  "schemaVersion": "3.4.14",
  "updatedAt": "2023-07-28T08:41:53.000Z",
  "networkType": "ethereum",
  "devdoc": {
    "kind": "dev",
    "methods": {
      "balanceOf(address,uint256)": {
        "details": "See {IERC1155-balanceOf}. Requirements: - `account` cannot be the zero address."
      },
      "balanceOfBatch(address[],uint256[])": {
        "details": "See {IERC1155-balanceOfBatch}. Requirements: - `accounts` and `ids` must have the same length."
      },
      "isApprovedForAll(address,address)": {
        "details": "See {IERC1155-isApprovedForAll}."
      },
      "owner()": {
        "details": "Returns the address of the current owner."
      },
      "renounceOwnership()": {
        "details": "Leaves the contract without owner. It will not be possible to call `onlyOwner` functions. Can only be called by the current owner. NOTE: Renouncing ownership will leave the contract without an owner, thereby disabling any functionality that is only available to the owner."
      },
      "safeBatchTransferFrom(address,address,uint256[],uint256[],bytes)": {
        "details": "See {IERC1155-safeBatchTransferFrom}."
      },
      "safeTransferFrom(address,address,uint256,uint256,bytes)": {
        "details": "See {IERC1155-safeTransferFrom}."
      },
      "setApprovalForAll(address,bool)": {
        "details": "See {IERC1155-setApprovalForAll}."
      },
      "supportsInterface(bytes4)": {
        "details": "See {IERC165-supportsInterface}."
      },
      "transferOwnership(address)": {
        "details": "Transfers ownership of the contract to a new account (`newOwner`). Can only be called by the current owner."
      },
      "uri(uint256)": {
        "details": "See {IERC1155MetadataURI-uri}. This implementation returns the same URI for *all* token types. It relies on the token type ID substitution mechanism https://eips.ethereum.org/EIPS/eip-1155#metadata[defined in the EIP]. Clients calling this function must replace the `\\{id\\}` substring with the actual token type ID."
      }
    },
    "version": 1
  },
  "userdoc": {
    "kind": "user",
    "methods": {},
    "version": 1
  }
}