{
  "contractName": "CopyrightImplementation",
  "abi": [
    {
      "inputs": [
        {
          "internalType": "address",
          "name": "sender",
          "type": "address"
        },
        {
          "internalType": "uint256",
          "name": "tokenId",
          "type": "uint256"
        },
        {
          "internalType": "address",
          "name": "owner",
          "type": "address"
        }
      ],
      "name": "ERC721IncorrectOwner",
      "type": "error"
    },
    {
      "inputs": [
        {
          "internalType": "address",
          "name": "operator",
          "type": "address"
        },
        {
          "internalType": "uint256",
          "name": "tokenId",
          "type": "uint256"
        }
      ],
      "name": "ERC721InsufficientApproval",
      "type": "error"
    },
    {
      "inputs": [
        {
          "internalType": "address",
          "name": "approver",
          "type": "address"
        }
      ],
      "name": "ERC721InvalidApprover",
      "type": "error"
    },
    {
      "inputs": [
        {
          "internalType": "address",
          "name": "operator",
          "type": "address"
        }
      ],
      "name": "ERC721InvalidOperator",
      "type": "error"
    },
    {
      "inputs": [
        {
          "internalType": "address",
          "name": "owner",
          "type": "address"
        }
      ],
      "name": "ERC721InvalidOwner",
      "type": "error"
    },
    {
      "inputs": [
        {
          "internalType": "address",
          "name": "receiver",
          "type": "address"
        }
      ],
      "name": "ERC721InvalidReceiver",
      "type": "error"
    },
    {
      "inputs": [
        {
          "internalType": "address",
          "name": "sender",
          "type": "address"
        }
      ],
      "name": "ERC721InvalidSender",
      "type": "error"
    },
    {
      "inputs": [
        {
          "internalType": "uint256",
          "name": "tokenId",
          "type": "uint256"
        }
      ],
      "name": "ERC721NonexistentToken",
      "type": "error"
    },
    {
      "inputs": [],
      "name": "InvalidInitialization",
      "type": "error"
    },
    {
      "inputs": [],
      "name": "NotInitializing",
      "type": "error"
    },
    {
      "anonymous": false,
      "inputs": [
        {
          "indexed": true,
          "internalType": "address",
          "name": "owner",
          "type": "address"
        },
        {
          "indexed": true,
          "internalType": "address",
          "name": "approved",
          "type": "address"
        },
        {
          "indexed": true,
          "internalType": "uint256",
          "name": "tokenId",
          "type": "uint256"
        }
      ],
      "name": "Approval",
      "type": "event"
    },
    {
      "anonymous": false,
      "inputs": [
        {
          "indexed": true,
          "internalType": "address",
          "name": "owner",
          "type": "address"
        },
        {
          "indexed": true,
          "internalType": "address",
          "name": "operator",
          "type": "address"
        },
        {
          "indexed": false,
          "internalType": "bool",
          "name": "approved",
          "type": "bool"
        }
      ],
      "name": "ApprovalForAll",
      "type": "event"
    },
    {
      "anonymous": false,
      "inputs": [
        {
          "indexed": false,
          "internalType": "uint64",
          "name": "version",
          "type": "uint64"
        }
      ],
      "name": "Initialized",
      "type": "event"
    },
    {
      "anonymous": false,
      "inputs": [
        {
          "indexed": true,
          "internalType": "address",
          "name": "from",
          "type": "address"
        },
        {
          "indexed": true,
          "internalType": "address",
          "name": "to",
          "type": "address"
        },
        {
          "indexed": true,
          "internalType": "uint256",
          "name": "tokenId",
          "type": "uint256"
        }
      ],
      "name": "Transfer",
      "type": "event"
    },
    {
      "inputs": [
        {
          "internalType": "address",
          "name": "to",
          "type": "address"
        },
        {
          "internalType": "uint256",
          "name": "tokenId",
          "type": "uint256"
        }
      ],
      "name": "approve",
      "outputs": [],
      "stateMutability": "nonpayable",
      "type": "function"
    },
    {
      "inputs": [
        {
          "internalType": "address",
          "name": "owner",
          "type": "address"
        }
      ],
      "name": "balanceOf",
      "outputs": [
        {
          "internalType": "uint256",
          "name": "",
          "type": "uint256"
        }
      ],
      "stateMutability": "view",
      "type": "function"
    },
    {
      "inputs": [
        {
          "internalType": "uint256",
          "name": "tokenId",
          "type": "uint256"
        }
      ],
      "name": "getApproved",
      "outputs": [
        {
          "internalType": "address",
          "name": "",
          "type": "address"
        }
      ],
      "stateMutability": "view",
      "type": "function"
    },
    {
      "inputs": [
        {
          "internalType": "address",
          "name": "owner",
          "type": "address"
        },
        {
          "internalType": "address",
          "name": "operator",
          "type": "address"
        }
      ],
      "name": "isApprovedForAll",
      "outputs": [
        {
          "internalType": "bool",
          "name": "",
          "type": "bool"
        }
      ],
      "stateMutability": "view",
      "type": "function"
    },
    {
      "inputs": [],
      "name": "name",
      "outputs": [
        {
          "internalType": "string",
          "name": "",
          "type": "string"
        }
      ],
      "stateMutability": "view",
      "type": "function"
    },
    {
      "inputs": [
        {
          "internalType": "uint256",
          "name": "tokenId",
          "type": "uint256"
        }
      ],
      "name": "ownerOf",
      "outputs": [
        {
          "internalType": "address",
          "name": "",
          "type": "address"
        }
      ],
      "stateMutability": "view",
      "type": "function"
    },
    {
      "inputs": [
        {
          "internalType": "address",
          "name": "from",
          "type": "address"
        },
        {
          "internalType": "address",
          "name": "to",
          "type": "address"
        },
        {
          "internalType": "uint256",
          "name": "tokenId",
          "type": "uint256"
        }
      ],
      "name": "safeTransferFrom",
      "outputs": [],
      "stateMutability": "nonpayable",
      "type": "function"
    },
    {
      "inputs": [
        {
          "internalType": "address",
          "name": "from",
          "type": "address"
        },
        {
          "internalType": "address",
          "name": "to",
          "type": "address"
        },
        {
          "internalType": "uint256",
          "name": "tokenId",
          "type": "uint256"
        },
        {
          "internalType": "bytes",
          "name": "data",
          "type": "bytes"
        }
      ],
      "name": "safeTransferFrom",
      "outputs": [],
      "stateMutability": "nonpayable",
      "type": "function"
    },
    {
      "inputs": [
        {
          "internalType": "address",
          "name": "operator",
          "type": "address"
        },
        {
          "internalType": "bool",
          "name": "approved",
          "type": "bool"
        }
      ],
      "name": "setApprovalForAll",
      "outputs": [],
      "stateMutability": "nonpayable",
      "type": "function"
    },
    {
      "inputs": [
        {
          "internalType": "bytes4",
          "name": "interfaceId",
          "type": "bytes4"
        }
      ],
      "name": "supportsInterface",
      "outputs": [
        {
          "internalType": "bool",
          "name": "",
          "type": "bool"
        }
      ],
      "stateMutability": "view",
      "type": "function"
    },
    {
      "inputs": [],
      "name": "symbol",
      "outputs": [
        {
          "internalType": "string",
          "name": "",
          "type": "string"
        }
      ],
      "stateMutability": "view",
      "type": "function"
    },
    {
      "inputs": [
        {
          "internalType": "address",
          "name": "from",
          "type": "address"
        },
        {
          "internalType": "address",
          "name": "to",
          "type": "address"
        },
        {
          "internalType": "uint256",
          "name": "tokenId",
          "type": "uint256"
        }
      ],
      "name": "transferFrom",
      "outputs": [],
      "stateMutability": "nonpayable",
      "type": "function"
    },
    {
      "inputs": [],
      "name": "initialize",
      "outputs": [],
      "stateMutability": "nonpayable",
      "type": "function"
    },
    {
      "inputs": [
        {
          "internalType": "uint256",
          "name": "copyrightId",
          "type": "uint256"
        }
      ],
      "name": "getUsageInfo",
      "outputs": [
        {
          "components": [
            {
              "internalType": "uint256",
              "name": "buyCnt",
              "type": "uint256"
            },
            {
              "internalType": "uint256",
              "name": "mintCnt",
              "type": "uint256"
            },
            {
              "internalType": "uint256",
              "name": "downloadCnt",
              "type": "uint256"
            },
            {
              "internalType": "bool",
              "name": "sellYn",
              "type": "bool"
            }
          ],
          "internalType": "struct CopyrightImplementation.UsageInfo",
          "name": "",
          "type": "tuple"
        }
      ],
      "stateMutability": "view",
      "type": "function"
    },
    {
      "inputs": [
        {
          "internalType": "uint256",
          "name": "copyrightId",
          "type": "uint256"
        }
      ],
      "name": "tokenURI",
      "outputs": [
        {
          "internalType": "string",
          "name": "",
          "type": "string"
        }
      ],
      "stateMutability": "view",
      "type": "function"
    },
    {
      "inputs": [
        {
          "internalType": "uint256",
          "name": "copyrightId",
          "type": "uint256"
        },
        {
          "internalType": "bool",
          "name": "sellYn",
          "type": "bool"
        }
      ],
      "name": "modifySellYn",
      "outputs": [],
      "stateMutability": "nonpayable",
      "type": "function"
    },
    {
      "inputs": [
        {
          "internalType": "uint256",
          "name": "copyrightId",
          "type": "uint256"
        },
        {
          "internalType": "string",
          "name": "tokenUri",
          "type": "string"
        }
      ],
      "name": "modifyTokenUri",
      "outputs": [],
      "stateMutability": "nonpayable",
      "type": "function"
    },
    {
      "inputs": [
        {
          "internalType": "address",
          "name": "downloadContractAddress",
          "type": "address"
        }
      ],
      "name": "setDtAddress",
      "outputs": [],
      "stateMutability": "nonpayable",
      "type": "function"
    },
    {
      "inputs": [
        {
          "internalType": "uint256",
          "name": "copyrightId",
          "type": "uint256"
        },
        {
          "internalType": "string",
          "name": "tokenUri",
          "type": "string"
        },
        {
          "internalType": "bool",
          "name": "sellYn",
          "type": "bool"
        }
      ],
      "name": "mintCopyright",
      "outputs": [],
      "stateMutability": "nonpayable",
      "type": "function"
    },
    {
      "inputs": [
        {
          "internalType": "uint256",
          "name": "copyrightId",
          "type": "uint256"
        },
        {
          "internalType": "uint256",
          "name": "counter",
          "type": "uint256"
        },
        {
          "internalType": "uint256",
          "name": "price",
          "type": "uint256"
        },
        {
          "internalType": "string",
          "name": "tokenUri",
          "type": "string"
        }
      ],
      "name": "buyDownloadTicket",
      "outputs": [],
      "stateMutability": "nonpayable",
      "type": "function"
    },
    {
      "inputs": [
        {
          "internalType": "uint256",
          "name": "copyrightId",
          "type": "uint256"
        }
      ],
      "name": "useDownload",
      "outputs": [],
      "stateMutability": "nonpayable",
      "type": "function"
    },
    {
      "inputs": [
        {
          "internalType": "uint256",
          "name": "downloadId",
          "type": "uint256"
        },
        {
          "internalType": "string",
          "name": "tokenUri",
          "type": "string"
        }
      ],
      "name": "modifyDownloadTokenUri",
      "outputs": [],
      "stateMutability": "nonpayable",
      "type": "function"
    },
    {
      "inputs": [
        {
          "internalType": "uint256",
          "name": "downloadId",
          "type": "uint256"
        },
        {
          "internalType": "uint256",
          "name": "totalCnt",
          "type": "uint256"
        }
      ],
      "name": "modifyDownloadTotalCnt",
      "outputs": [],
      "stateMutability": "nonpayable",
      "type": "function"
    }
  ],
  "bytecode": "0x608060405234801561000f575f80fd5b50612f398061001d5f395ff3fe608060405234801561000f575f80fd5b506004361061014b575f3560e01c80638d2110c2116100c1578063c4dafd4d1161007a578063c4dafd4d1461036d578063c87b56dd14610389578063cbdfe9fd146103b9578063d253bf94146103e9578063d4356bf414610405578063e985e9c5146104215761014b565b80638d2110c2146102c357806395d89b41146102df5780639aad418c146102fd578063a22cb46514610319578063aba9520d14610335578063b88d4fde146103515761014b565b806323b872dd1161011357806323b872dd146102055780633e6c4b211461022157806342842e0e1461023d5780636352211e1461025957806370a08231146102895780638129fc1c146102b95761014b565b806301ffc9a71461014f57806306fdde031461017f578063081812fc1461019d578063095ea7b3146101cd5780630bb43724146101e9575b5f80fd5b61016960048036038101906101649190611f11565b610451565b6040516101769190611f56565b60405180910390f35b610187610532565b6040516101949190611ff9565b60405180910390f35b6101b760048036038101906101b2919061204c565b6105c1565b6040516101c491906120b6565b60405180910390f35b6101e760048036038101906101e291906120f9565b6105dc565b005b61020360048036038101906101fe9190612263565b6105f2565b005b61021f600480360381019061021a91906122bd565b61068d565b005b61023b6004803603810190610236919061230d565b61078c565b005b610257600480360381019061025291906122bd565b6107cf565b005b610273600480360381019061026e919061204c565b6107ee565b60405161028091906120b6565b60405180910390f35b6102a3600480360381019061029e919061230d565b6107ff565b6040516102b09190612347565b60405180910390f35b6102c16108b5565b005b6102dd60048036038101906102d89190612360565b610a6c565b005b6102e7610bd3565b6040516102f49190611ff9565b60405180910390f35b6103176004803603810190610312919061239e565b610c63565b005b610333600480360381019061032e9190612448565b610ddd565b005b61034f600480360381019061034a9190612263565b610df3565b005b61036b60048036038101906103669190612524565b610f5a565b005b610387600480360381019061038291906125a4565b610f77565b005b6103a3600480360381019061039e919061204c565b61101e565b6040516103b09190611ff9565b60405180910390f35b6103d360048036038101906103ce919061204c565b6110c8565b6040516103e09190612653565b60405180910390f35b61040360048036038101906103fe919061204c565b61112a565b005b61041f600480360381019061041a919061266c565b6111df565b005b61043b600480360381019061043691906126d8565b611238565b6040516104489190611f56565b60405180910390f35b5f7f80ac58cd000000000000000000000000000000000000000000000000000000007bffffffffffffffffffffffffffffffffffffffffffffffffffffffff1916827bffffffffffffffffffffffffffffffffffffffffffffffffffffffff1916148061051b57507f5b5e139f000000000000000000000000000000000000000000000000000000007bffffffffffffffffffffffffffffffffffffffffffffffffffffffff1916827bffffffffffffffffffffffffffffffffffffffffffffffffffffffff1916145b8061052b575061052a826112c6565b5b9050919050565b60605f805461054090612743565b80601f016020809104026020016040519081016040528092919081815260200182805461056c90612743565b80156105b75780601f1061058e576101008083540402835291602001916105b7565b820191905f5260205f20905b81548152906001019060200180831161059a57829003601f168201915b5050505050905090565b5f6105cb8261132f565b506105d5826113b5565b9050919050565b6105ee82826105e96113ee565b6113f5565b5050565b816105fc816107ee565b73ffffffffffffffffffffffffffffffffffffffff163373ffffffffffffffffffffffffffffffffffffffff1614610669576040517f08c379a0000000000000000000000000000000000000000000000000000000008152600401610660906127e3565b60405180910390fd5b8160085f8581526020019081526020015f209081610687919061299e565b50505050565b5f73ffffffffffffffffffffffffffffffffffffffff168273ffffffffffffffffffffffffffffffffffffffff16036106fd575f6040517f64a0ae920000000000000000000000000000000000000000000000000000000081526004016106f491906120b6565b60405180910390fd5b5f610710838361070b6113ee565b611407565b90508373ffffffffffffffffffffffffffffffffffffffff168173ffffffffffffffffffffffffffffffffffffffff1614610786578382826040517f64283d7b00000000000000000000000000000000000000000000000000000000815260040161077d93929190612a6d565b60405180910390fd5b50505050565b8060065f6101000a81548173ffffffffffffffffffffffffffffffffffffffff021916908373ffffffffffffffffffffffffffffffffffffffff16021790555050565b6107e983838360405180602001604052805f815250610f5a565b505050565b5f6107f88261132f565b9050919050565b5f8073ffffffffffffffffffffffffffffffffffffffff168273ffffffffffffffffffffffffffffffffffffffff1603610870575f6040517f89c62b6400000000000000000000000000000000000000000000000000000000815260040161086791906120b6565b60405180910390fd5b60035f8373ffffffffffffffffffffffffffffffffffffffff1673ffffffffffffffffffffffffffffffffffffffff1681526020019081526020015f20549050919050565b5f6108be611612565b90505f815f0160089054906101000a900460ff161590505f825f015f9054906101000a900467ffffffffffffffff1690505f808267ffffffffffffffff161480156109065750825b90505f60018367ffffffffffffffff1614801561093957505f3073ffffffffffffffffffffffffffffffffffffffff163b145b905081158015610947575080155b1561097e576040517ff92ee8a900000000000000000000000000000000000000000000000000000000815260040160405180910390fd5b6001855f015f6101000a81548167ffffffffffffffff021916908367ffffffffffffffff16021790555083156109cb576001855f0160086101000a81548160ff0219169083151502179055505b3360075f6101000a81548173ffffffffffffffffffffffffffffffffffffffff021916908373ffffffffffffffffffffffffffffffffffffffff1602179055508315610a65575f855f0160086101000a81548160ff0219169083151502179055507fc7f505b2f371ae2175ee4913f4499e1f2633a7b5936321eed1cdaeb6115181d26001604051610a5c9190612aee565b60405180910390a15b5050505050565b610b1060065f9054906101000a900473ffffffffffffffffffffffffffffffffffffffff1673ffffffffffffffffffffffffffffffffffffffff16638167ac53846040518263ffffffff1660e01b8152600401610ac99190612347565b606060405180830381865afa158015610ae4573d5f803e3d5ffd5b505050506040513d601f19601f82011682018060405250810190610b089190612b80565b5f01516107ee565b73ffffffffffffffffffffffffffffffffffffffff163373ffffffffffffffffffffffffffffffffffffffff1614610b46575f80fd5b60065f9054906101000a900473ffffffffffffffffffffffffffffffffffffffff1673ffffffffffffffffffffffffffffffffffffffff16638d2110c283836040518363ffffffff1660e01b8152600401610ba2929190612bab565b5f604051808303815f87803b158015610bb9575f80fd5b505af1158015610bcb573d5f803e3d5ffd5b505050505050565b606060018054610be290612743565b80601f0160208091040260200160405190810160405280929190818152602001828054610c0e90612743565b8015610c595780601f10610c3057610100808354040283529160200191610c59565b820191905f5260205f20905b815481529060010190602001808311610c3c57829003601f168201915b5050505050905090565b610c6c846107ee565b73ffffffffffffffffffffffffffffffffffffffff163373ffffffffffffffffffffffffffffffffffffffff1614610cd9576040517f08c379a0000000000000000000000000000000000000000000000000000000008152600401610cd090612c42565b60405180910390fd5b5f60065f9054906101000a900473ffffffffffffffffffffffffffffffffffffffff1673ffffffffffffffffffffffffffffffffffffffff1663830f11bf33878787876040518663ffffffff1660e01b8152600401610d3c959493929190612c60565b6020604051808303815f875af1158015610d58573d5f803e3d5ffd5b505050506040513d601f19601f82011682018060405250810190610d7c9190612ccc565b90508015610dae5760095f8681526020019081526020015f206001015f815480929190610da890612d24565b91905055505b60095f8681526020019081526020015f205f015f815480929190610dd190612d24565b91905055505050505050565b610def610de86113ee565b8383611639565b5050565b610e9760065f9054906101000a900473ffffffffffffffffffffffffffffffffffffffff1673ffffffffffffffffffffffffffffffffffffffff16638167ac53846040518263ffffffff1660e01b8152600401610e509190612347565b606060405180830381865afa158015610e6b573d5f803e3d5ffd5b505050506040513d601f19601f82011682018060405250810190610e8f9190612b80565b5f01516107ee565b73ffffffffffffffffffffffffffffffffffffffff163373ffffffffffffffffffffffffffffffffffffffff1614610ecd575f80fd5b60065f9054906101000a900473ffffffffffffffffffffffffffffffffffffffff1673ffffffffffffffffffffffffffffffffffffffff16630bb4372483836040518363ffffffff1660e01b8152600401610f29929190612d6b565b5f604051808303815f87803b158015610f40575f80fd5b505af1158015610f52573d5f803e3d5ffd5b505050505050565b610f6584848461068d565b610f71848484846117a2565b50505050565b81610f81816107ee565b73ffffffffffffffffffffffffffffffffffffffff163373ffffffffffffffffffffffffffffffffffffffff1614610fee576040517f08c379a0000000000000000000000000000000000000000000000000000000008152600401610fe5906127e3565b60405180910390fd5b8160095f8581526020019081526020015f206003015f6101000a81548160ff021916908315150217905550505050565b606061102982611954565b60085f8381526020019081526020015f20805461104590612743565b80601f016020809104026020016040519081016040528092919081815260200182805461107190612743565b80156110bc5780601f10611093576101008083540402835291602001916110bc565b820191905f5260205f20905b81548152906001019060200180831161109f57829003601f168201915b50505050509050919050565b6110d0611e85565b60095f8381526020019081526020015f206040518060800160405290815f82015481526020016001820154815260200160028201548152602001600382015f9054906101000a900460ff1615151515815250509050919050565b60065f9054906101000a900473ffffffffffffffffffffffffffffffffffffffff1673ffffffffffffffffffffffffffffffffffffffff1663bfcfb52c33836040518363ffffffff1660e01b8152600401611186929190612d99565b5f604051808303815f87803b15801561119d575f80fd5b505af11580156111af573d5f803e3d5ffd5b5050505060095f8281526020019081526020015f206002015f8154809291906111d790612d24565b919050555050565b6111e9338461199f565b8060095f8581526020019081526020015f206003015f6101000a81548160ff0219169083151502179055508160085f8581526020019081526020015f209081611232919061299e565b50505050565b5f60055f8473ffffffffffffffffffffffffffffffffffffffff1673ffffffffffffffffffffffffffffffffffffffff1681526020019081526020015f205f8373ffffffffffffffffffffffffffffffffffffffff1673ffffffffffffffffffffffffffffffffffffffff1681526020019081526020015f205f9054906101000a900460ff16905092915050565b5f7f01ffc9a7000000000000000000000000000000000000000000000000000000007bffffffffffffffffffffffffffffffffffffffffffffffffffffffff1916827bffffffffffffffffffffffffffffffffffffffffffffffffffffffff1916149050919050565b5f8061133a836119bc565b90505f73ffffffffffffffffffffffffffffffffffffffff168173ffffffffffffffffffffffffffffffffffffffff16036113ac57826040517f7e2732890000000000000000000000000000000000000000000000000000000081526004016113a39190612347565b60405180910390fd5b80915050919050565b5f60045f8381526020019081526020015f205f9054906101000a900473ffffffffffffffffffffffffffffffffffffffff169050919050565b5f33905090565b61140283838360016119f5565b505050565b5f80611412846119bc565b90505f73ffffffffffffffffffffffffffffffffffffffff168373ffffffffffffffffffffffffffffffffffffffff161461145357611452818486611bb4565b5b5f73ffffffffffffffffffffffffffffffffffffffff168173ffffffffffffffffffffffffffffffffffffffff16146114de576114925f855f806119f5565b600160035f8373ffffffffffffffffffffffffffffffffffffffff1673ffffffffffffffffffffffffffffffffffffffff1681526020019081526020015f205f82825403925050819055505b5f73ffffffffffffffffffffffffffffffffffffffff168573ffffffffffffffffffffffffffffffffffffffff161461155d57600160035f8773ffffffffffffffffffffffffffffffffffffffff1673ffffffffffffffffffffffffffffffffffffffff1681526020019081526020015f205f82825401925050819055505b8460025f8681526020019081526020015f205f6101000a81548173ffffffffffffffffffffffffffffffffffffffff021916908373ffffffffffffffffffffffffffffffffffffffff160217905550838573ffffffffffffffffffffffffffffffffffffffff168273ffffffffffffffffffffffffffffffffffffffff167fddf252ad1be2c89b69c2b068fc378daa952ba7f163c4a11628f55a4df523b3ef60405160405180910390a4809150509392505050565b5f7ff0c57e16840df040f15088dc2f81fe391c3923bec73e23a9662efc9c229c6a00905090565b5f73ffffffffffffffffffffffffffffffffffffffff168273ffffffffffffffffffffffffffffffffffffffff16036116a957816040517f5b08ba180000000000000000000000000000000000000000000000000000000081526004016116a091906120b6565b60405180910390fd5b8060055f8573ffffffffffffffffffffffffffffffffffffffff1673ffffffffffffffffffffffffffffffffffffffff1681526020019081526020015f205f8473ffffffffffffffffffffffffffffffffffffffff1673ffffffffffffffffffffffffffffffffffffffff1681526020019081526020015f205f6101000a81548160ff0219169083151502179055508173ffffffffffffffffffffffffffffffffffffffff168373ffffffffffffffffffffffffffffffffffffffff167f17307eab39ab6107e8899845ad3d59bd9653f200f220920489ca2b5937696c31836040516117959190611f56565b60405180910390a3505050565b5f8373ffffffffffffffffffffffffffffffffffffffff163b111561194e578273ffffffffffffffffffffffffffffffffffffffff1663150b7a026117e56113ee565b8685856040518563ffffffff1660e01b81526004016118079493929190612e12565b6020604051808303815f875af192505050801561184257506040513d601f19601f8201168201806040525081019061183f9190612e70565b60015b6118c3573d805f8114611870576040519150601f19603f3d011682016040523d82523d5f602084013e611875565b606091505b505f8151036118bb57836040517f64a0ae920000000000000000000000000000000000000000000000000000000081526004016118b291906120b6565b60405180910390fd5b805181602001fd5b63150b7a0260e01b7bffffffffffffffffffffffffffffffffffffffffffffffffffffffff1916817bffffffffffffffffffffffffffffffffffffffffffffffffffffffff19161461194c57836040517f64a0ae9200000000000000000000000000000000000000000000000000000000815260040161194391906120b6565b60405180910390fd5b505b50505050565b61195d81611c77565b61199c576040517f08c379a000000000000000000000000000000000000000000000000000000000815260040161199390612ee5565b60405180910390fd5b50565b6119b8828260405180602001604052805f815250611cb7565b5050565b5f60025f8381526020019081526020015f205f9054906101000a900473ffffffffffffffffffffffffffffffffffffffff169050919050565b8080611a2d57505f73ffffffffffffffffffffffffffffffffffffffff168273ffffffffffffffffffffffffffffffffffffffff1614155b15611b5f575f611a3c8461132f565b90505f73ffffffffffffffffffffffffffffffffffffffff168373ffffffffffffffffffffffffffffffffffffffff1614158015611aa657508273ffffffffffffffffffffffffffffffffffffffff168173ffffffffffffffffffffffffffffffffffffffff1614155b8015611ab95750611ab78184611238565b155b15611afb57826040517fa9fbf51f000000000000000000000000000000000000000000000000000000008152600401611af291906120b6565b60405180910390fd5b8115611b5d57838573ffffffffffffffffffffffffffffffffffffffff168273ffffffffffffffffffffffffffffffffffffffff167f8c5be1e5ebec7d5bd14f71427d1e84f3dd0314c0f7b2291e5b200ac8c7c3b92560405160405180910390a45b505b8360045f8581526020019081526020015f205f6101000a81548173ffffffffffffffffffffffffffffffffffffffff021916908373ffffffffffffffffffffffffffffffffffffffff16021790555050505050565b611bbf838383611cd2565b611c72575f73ffffffffffffffffffffffffffffffffffffffff168373ffffffffffffffffffffffffffffffffffffffff1603611c3357806040517f7e273289000000000000000000000000000000000000000000000000000000008152600401611c2a9190612347565b60405180910390fd5b81816040517f177e802f000000000000000000000000000000000000000000000000000000008152600401611c69929190612d99565b60405180910390fd5b505050565b5f8073ffffffffffffffffffffffffffffffffffffffff16611c98836119bc565b73ffffffffffffffffffffffffffffffffffffffff1614159050919050565b611cc18383611d92565b611ccd5f8484846117a2565b505050565b5f8073ffffffffffffffffffffffffffffffffffffffff168373ffffffffffffffffffffffffffffffffffffffff1614158015611d8957508273ffffffffffffffffffffffffffffffffffffffff168473ffffffffffffffffffffffffffffffffffffffff161480611d4a5750611d498484611238565b5b80611d8857508273ffffffffffffffffffffffffffffffffffffffff16611d70836113b5565b73ffffffffffffffffffffffffffffffffffffffff16145b5b90509392505050565b5f73ffffffffffffffffffffffffffffffffffffffff168273ffffffffffffffffffffffffffffffffffffffff1603611e02575f6040517f64a0ae92000000000000000000000000000000000000000000000000000000008152600401611df991906120b6565b60405180910390fd5b5f611e0e83835f611407565b90505f73ffffffffffffffffffffffffffffffffffffffff168173ffffffffffffffffffffffffffffffffffffffff1614611e80575f6040517f73c6ac6e000000000000000000000000000000000000000000000000000000008152600401611e7791906120b6565b60405180910390fd5b505050565b60405180608001604052805f81526020015f81526020015f81526020015f151581525090565b5f604051905090565b5f80fd5b5f80fd5b5f7fffffffff0000000000000000000000000000000000000000000000000000000082169050919050565b611ef081611ebc565b8114611efa575f80fd5b50565b5f81359050611f0b81611ee7565b92915050565b5f60208284031215611f2657611f25611eb4565b5b5f611f3384828501611efd565b91505092915050565b5f8115159050919050565b611f5081611f3c565b82525050565b5f602082019050611f695f830184611f47565b92915050565b5f81519050919050565b5f82825260208201905092915050565b5f5b83811015611fa6578082015181840152602081019050611f8b565b5f8484015250505050565b5f601f19601f8301169050919050565b5f611fcb82611f6f565b611fd58185611f79565b9350611fe5818560208601611f89565b611fee81611fb1565b840191505092915050565b5f6020820190508181035f8301526120118184611fc1565b905092915050565b5f819050919050565b61202b81612019565b8114612035575f80fd5b50565b5f8135905061204681612022565b92915050565b5f6020828403121561206157612060611eb4565b5b5f61206e84828501612038565b91505092915050565b5f73ffffffffffffffffffffffffffffffffffffffff82169050919050565b5f6120a082612077565b9050919050565b6120b081612096565b82525050565b5f6020820190506120c95f8301846120a7565b92915050565b6120d881612096565b81146120e2575f80fd5b50565b5f813590506120f3816120cf565b92915050565b5f806040838503121561210f5761210e611eb4565b5b5f61211c858286016120e5565b925050602061212d85828601612038565b9150509250929050565b5f80fd5b5f80fd5b7f4e487b71000000000000000000000000000000000000000000000000000000005f52604160045260245ffd5b61217582611fb1565b810181811067ffffffffffffffff821117156121945761219361213f565b5b80604052505050565b5f6121a6611eab565b90506121b2828261216c565b919050565b5f67ffffffffffffffff8211156121d1576121d061213f565b5b6121da82611fb1565b9050602081019050919050565b828183375f83830152505050565b5f612207612202846121b7565b61219d565b9050828152602081018484840111156122235761222261213b565b5b61222e8482856121e7565b509392505050565b5f82601f83011261224a57612249612137565b5b813561225a8482602086016121f5565b91505092915050565b5f806040838503121561227957612278611eb4565b5b5f61228685828601612038565b925050602083013567ffffffffffffffff8111156122a7576122a6611eb8565b5b6122b385828601612236565b9150509250929050565b5f805f606084860312156122d4576122d3611eb4565b5b5f6122e1868287016120e5565b93505060206122f2868287016120e5565b925050604061230386828701612038565b9150509250925092565b5f6020828403121561232257612321611eb4565b5b5f61232f848285016120e5565b91505092915050565b61234181612019565b82525050565b5f60208201905061235a5f830184612338565b92915050565b5f806040838503121561237657612375611eb4565b5b5f61238385828601612038565b925050602061239485828601612038565b9150509250929050565b5f805f80608085870312156123b6576123b5611eb4565b5b5f6123c387828801612038565b94505060206123d487828801612038565b93505060406123e587828801612038565b925050606085013567ffffffffffffffff81111561240657612405611eb8565b5b61241287828801612236565b91505092959194509250565b61242781611f3c565b8114612431575f80fd5b50565b5f813590506124428161241e565b92915050565b5f806040838503121561245e5761245d611eb4565b5b5f61246b858286016120e5565b925050602061247c85828601612434565b9150509250929050565b5f67ffffffffffffffff8211156124a05761249f61213f565b5b6124a982611fb1565b9050602081019050919050565b5f6124c86124c384612486565b61219d565b9050828152602081018484840111156124e4576124e361213b565b5b6124ef8482856121e7565b509392505050565b5f82601f83011261250b5761250a612137565b5b813561251b8482602086016124b6565b91505092915050565b5f805f806080858703121561253c5761253b611eb4565b5b5f612549878288016120e5565b945050602061255a878288016120e5565b935050604061256b87828801612038565b925050606085013567ffffffffffffffff81111561258c5761258b611eb8565b5b612598878288016124f7565b91505092959194509250565b5f80604083850312156125ba576125b9611eb4565b5b5f6125c785828601612038565b92505060206125d885828601612434565b9150509250929050565b6125eb81612019565b82525050565b6125fa81611f3c565b82525050565b608082015f8201516126145f8501826125e2565b50602082015161262760208501826125e2565b50604082015161263a60408501826125e2565b50606082015161264d60608501826125f1565b50505050565b5f6080820190506126665f830184612600565b92915050565b5f805f6060848603121561268357612682611eb4565b5b5f61269086828701612038565b935050602084013567ffffffffffffffff8111156126b1576126b0611eb8565b5b6126bd86828701612236565b92505060406126ce86828701612434565b9150509250925092565b5f80604083850312156126ee576126ed611eb4565b5b5f6126fb858286016120e5565b925050602061270c858286016120e5565b9150509250929050565b7f4e487b71000000000000000000000000000000000000000000000000000000005f52602260045260245ffd5b5f600282049050600182168061275a57607f821691505b60208210810361276d5761276c612716565b5b50919050565b7f4f6e6c7920746865206e6674206f776e65722063616e2063616c6c20746869735f8201527f2066756e6374696f6e0000000000000000000000000000000000000000000000602082015250565b5f6127cd602983611f79565b91506127d882612773565b604082019050919050565b5f6020820190508181035f8301526127fa816127c1565b9050919050565b5f819050815f5260205f209050919050565b5f6020601f8301049050919050565b5f82821b905092915050565b5f6008830261285d7fffffffffffffffffffffffffffffffffffffffffffffffffffffffffffffffff82612822565b6128678683612822565b95508019841693508086168417925050509392505050565b5f819050919050565b5f6128a261289d61289884612019565b61287f565b612019565b9050919050565b5f819050919050565b6128bb83612888565b6128cf6128c7826128a9565b84845461282e565b825550505050565b5f90565b6128e36128d7565b6128ee8184846128b2565b505050565b5b81811015612911576129065f826128db565b6001810190506128f4565b5050565b601f8211156129565761292781612801565b61293084612813565b8101602085101561293f578190505b61295361294b85612813565b8301826128f3565b50505b505050565b5f82821c905092915050565b5f6129765f198460080261295b565b1980831691505092915050565b5f61298e8383612967565b9150826002028217905092915050565b6129a782611f6f565b67ffffffffffffffff8111156129c0576129bf61213f565b5b6129ca8254612743565b6129d5828285612915565b5f60209050601f831160018114612a06575f84156129f4578287015190505b6129fe8582612983565b865550612a65565b601f198416612a1486612801565b5f5b82811015612a3b57848901518255600182019150602085019450602081019050612a16565b86831015612a585784890151612a54601f891682612967565b8355505b6001600288020188555050505b505050505050565b5f606082019050612a805f8301866120a7565b612a8d6020830185612338565b612a9a60408301846120a7565b949350505050565b5f819050919050565b5f67ffffffffffffffff82169050919050565b5f612ad8612ad3612ace84612aa2565b61287f565b612aab565b9050919050565b612ae881612abe565b82525050565b5f602082019050612b015f830184612adf565b92915050565b5f80fd5b5f81519050612b1981612022565b92915050565b5f60608284031215612b3457612b33612b07565b5b612b3e606061219d565b90505f612b4d84828501612b0b565b5f830152506020612b6084828501612b0b565b6020830152506040612b7484828501612b0b565b60408301525092915050565b5f60608284031215612b9557612b94611eb4565b5b5f612ba284828501612b1f565b91505092915050565b5f604082019050612bbe5f830185612338565b612bcb6020830184612338565b9392505050565b7f4f6e6c7920436f70797269676874206f776e65722063616e206d696e742074685f8201527f65207469636b6574732100000000000000000000000000000000000000000000602082015250565b5f612c2c602a83611f79565b9150612c3782612bd2565b604082019050919050565b5f6020820190508181035f830152612c5981612c20565b9050919050565b5f60a082019050612c735f8301886120a7565b612c806020830187612338565b612c8d6040830186612338565b612c9a6060830185612338565b8181036080830152612cac8184611fc1565b90509695505050505050565b5f81519050612cc68161241e565b92915050565b5f60208284031215612ce157612ce0611eb4565b5b5f612cee84828501612cb8565b91505092915050565b7f4e487b71000000000000000000000000000000000000000000000000000000005f52601160045260245ffd5b5f612d2e82612019565b91507fffffffffffffffffffffffffffffffffffffffffffffffffffffffffffffffff8203612d6057612d5f612cf7565b5b600182019050919050565b5f604082019050612d7e5f830185612338565b8181036020830152612d908184611fc1565b90509392505050565b5f604082019050612dac5f8301856120a7565b612db96020830184612338565b9392505050565b5f81519050919050565b5f82825260208201905092915050565b5f612de482612dc0565b612dee8185612dca565b9350612dfe818560208601611f89565b612e0781611fb1565b840191505092915050565b5f608082019050612e255f8301876120a7565b612e3260208301866120a7565b612e3f6040830185612338565b8181036060830152612e518184612dda565b905095945050505050565b5f81519050612e6a81611ee7565b92915050565b5f60208284031215612e8557612e84611eb4565b5b5f612e9284828501612e5c565b91505092915050565b7f546f6b656e206e6f74206578697374732e0000000000000000000000000000005f82015250565b5f612ecf601183611f79565b9150612eda82612e9b565b602082019050919050565b5f6020820190508181035f830152612efc81612ec3565b905091905056fea2646970667358221220dd2a2d1e98ad65e779e9aaeb73ec41dbf539773273eb7f0caf42083fdbd322dd64736f6c63430008140033",
  "immutableReferences": {},
  "source": "// SPDX-License-Identifier: MIT\npragma solidity ^0.8.0;\n\nimport \"../node_modules/@openzeppelin/contracts/proxy/utils/Initializable.sol\";\nimport \"../node_modules/@openzeppelin/contracts/token/ERC721/ERC721.sol\";\nimport \"../node_modules/@openzeppelin/contracts/token/ERC721/extensions/ERC721URIStorage.sol\";\nimport \"./Download.sol\";\n\ncontract CopyrightImplementation is Initializable, ERC721 {\n    Download private download;\n    address private owner;\n    mapping(uint256 => string) private _tokenUris;\n\n    mapping(uint => UsageInfo) internal copyrightInfoMap;\n\n    struct UsageInfo {\n        uint buyCnt;\n        uint mintCnt;\n        uint downloadCnt;\n        bool sellYn;\n    }\n\n    modifier onlyOwner() {\n        require(msg.sender == owner, \"Only the contract owner can call this function\");\n        _;\n    }\n\n    modifier onlyNftOwner(uint copyrightId) {\n        require(msg.sender == ownerOf(copyrightId), \"Only the nft owner can call this function\");\n        _;\n    }\n\n    function initialize() public initializer {\n        owner = msg.sender; // Set the contract deployer as the owner\n    }\n\n    function getUsageInfo(uint copyrightId) public view returns (UsageInfo memory) {\n        return copyrightInfoMap[copyrightId];\n    }\n\n    function tokenURI(uint256 copyrightId) public view virtual override returns (string memory) {\n        _checkExistsToken(copyrightId);\n        return _tokenUris[copyrightId];\n    }\n\n    // Change copyright available. You can stop or start the sale.\n    function modifySellYn(uint copyrightId, bool sellYn) public onlyNftOwner(copyrightId) {\n        copyrightInfoMap[copyrightId].sellYn = sellYn;\n    }\n\n    function modifyTokenUri(uint copyrightId, string memory tokenUri) public onlyNftOwner(copyrightId) {\n        _tokenUris[copyrightId] = tokenUri;\n    }\n\n    /**\n     * @dev After deploy, you need to call this function and set the DownloadTicket.sol address.\n     */\n    function setDtAddress(address downloadContractAddress) public {\n        download = Download(downloadContractAddress);\n    }\n\n    // Copyright NFT minting.\n    function mintCopyright(uint copyrightId, string memory tokenUri, bool sellYn) public {\n        _safeMint(msg.sender, copyrightId);\n        copyrightInfoMap[copyrightId].sellYn = sellYn;\n        _tokenUris[copyrightId] = tokenUri;\n    }\n\n    // Download ticket minting.\n    function buyDownloadTicket(uint copyrightId, uint counter, uint price, string memory tokenUri) public {\n        require(msg.sender == ownerOf(copyrightId), \"Only Copyright owner can mint the tickets!\");\n\n        bool isMint = download.buyDownload(msg.sender, copyrightId, counter, price, tokenUri);\n        if (isMint) {\n            copyrightInfoMap[copyrightId].mintCnt++;\n        }\n        copyrightInfoMap[copyrightId].buyCnt++;\n    }\n\n    // Use the download ticket.\n    function useDownload(uint copyrightId) public {\n        download.useDownload(msg.sender, copyrightId);\n        copyrightInfoMap[copyrightId].downloadCnt++;\n    }\n\n    function modifyDownloadTokenUri(uint downloadId, string memory tokenUri) public {\n        require(msg.sender == ownerOf(download.getDownloadInfo(downloadId).copyrightId));\n        download.modifyTokenUri(downloadId, tokenUri);\n    }\n\n    function modifyDownloadTotalCnt(uint downloadId, uint totalCnt) public {\n        require(msg.sender == ownerOf(download.getDownloadInfo(downloadId).copyrightId));\n        download.modifyDownloadTotalCnt(downloadId, totalCnt);\n    }\n\n    // private function\n    function _checkExistsToken(uint256 tokenId) private view {\n        require(_exists(tokenId), \"Token not exists.\");\n    }\n\n    function _exists(uint256 tokenId) internal view virtual returns (bool) {\n        return _ownerOf(tokenId) != address(0);\n    }\n}",
  "sourcePath": "/Users/guarantable/bitbucket/5w_proxy/contracts/Copyright.sol",
  "compiler": {
    "name": "solc",
    "version": "0.8.20+commit.a1b79de6.Emscripten.clang"
  },
  "schemaVersion": "3.4.14",
  "updatedAt": "2023-10-12T05:02:45.860Z",
  "devdoc": {
    "errors": {
      "ERC721IncorrectOwner(address,uint256,address)": [
        {
          "details": "Indicates an error related to the ownership over a particular token. Used in transfers.",
          "params": {
            "owner": "Address of the current owner of a token.",
            "sender": "Address whose tokens are being transferred.",
            "tokenId": "Identifier number of a token."
          }
        }
      ],
      "ERC721InsufficientApproval(address,uint256)": [
        {
          "details": "Indicates a failure with the `operator`s approval. Used in transfers.",
          "params": {
            "operator": "Address that may be allowed to operate on tokens without being their owner.",
            "tokenId": "Identifier number of a token."
          }
        }
      ],
      "ERC721InvalidApprover(address)": [
        {
          "details": "Indicates a failure with the `approver` of a token to be approved. Used in approvals.",
          "params": {
            "approver": "Address initiating an approval operation."
          }
        }
      ],
      "ERC721InvalidOperator(address)": [
        {
          "details": "Indicates a failure with the `operator` to be approved. Used in approvals.",
          "params": {
            "operator": "Address that may be allowed to operate on tokens without being their owner."
          }
        }
      ],
      "ERC721InvalidOwner(address)": [
        {
          "details": "Indicates that an address can't be an owner. For example, `address(0)` is a forbidden owner in EIP-20. Used in balance queries.",
          "params": {
            "owner": "Address of the current owner of a token."
          }
        }
      ],
      "ERC721InvalidReceiver(address)": [
        {
          "details": "Indicates a failure with the token `receiver`. Used in transfers.",
          "params": {
            "receiver": "Address to which tokens are being transferred."
          }
        }
      ],
      "ERC721InvalidSender(address)": [
        {
          "details": "Indicates a failure with the token `sender`. Used in transfers.",
          "params": {
            "sender": "Address whose tokens are being transferred."
          }
        }
      ],
      "ERC721NonexistentToken(uint256)": [
        {
          "details": "Indicates a `tokenId` whose `owner` is the zero address.",
          "params": {
            "tokenId": "Identifier number of a token."
          }
        }
      ],
      "InvalidInitialization()": [
        {
          "details": "The contract is already initialized."
        }
      ],
      "NotInitializing()": [
        {
          "details": "The contract is not initializing."
        }
      ]
    },
    "events": {
      "Approval(address,address,uint256)": {
        "details": "Emitted when `owner` enables `approved` to manage the `tokenId` token."
      },
      "ApprovalForAll(address,address,bool)": {
        "details": "Emitted when `owner` enables or disables (`approved`) `operator` to manage all of its assets."
      },
      "Initialized(uint64)": {
        "details": "Triggered when the contract has been initialized or reinitialized."
      },
      "Transfer(address,address,uint256)": {
        "details": "Emitted when `tokenId` token is transferred from `from` to `to`."
      }
    },
    "kind": "dev",
    "methods": {
      "approve(address,uint256)": {
        "details": "See {IERC721-approve}."
      },
      "balanceOf(address)": {
        "details": "See {IERC721-balanceOf}."
      },
      "getApproved(uint256)": {
        "details": "See {IERC721-getApproved}."
      },
      "isApprovedForAll(address,address)": {
        "details": "See {IERC721-isApprovedForAll}."
      },
      "name()": {
        "details": "See {IERC721Metadata-name}."
      },
      "ownerOf(uint256)": {
        "details": "See {IERC721-ownerOf}."
      },
      "safeTransferFrom(address,address,uint256)": {
        "details": "See {IERC721-safeTransferFrom}."
      },
      "safeTransferFrom(address,address,uint256,bytes)": {
        "details": "See {IERC721-safeTransferFrom}."
      },
      "setApprovalForAll(address,bool)": {
        "details": "See {IERC721-setApprovalForAll}."
      },
      "setDtAddress(address)": {
        "details": "After deploy, you need to call this function and set the DownloadTicket.sol address."
      },
      "supportsInterface(bytes4)": {
        "details": "See {IERC165-supportsInterface}."
      },
      "symbol()": {
        "details": "See {IERC721Metadata-symbol}."
      },
      "transferFrom(address,address,uint256)": {
        "details": "See {IERC721-transferFrom}."
      }
    },
    "version": 1
  },
  "userdoc": {
    "kind": "user",
    "methods": {},
    "version": 1
  }
}