{
  "contractName": "cusminting",
  "abi": [
    {
      "inputs": [
        {
          "internalType": "string",
          "name": "_name",
          "type": "string"
        },
        {
          "internalType": "string",
          "name": "_symbol",
          "type": "string"
        },
        {
          "internalType": "string",
          "name": "_metadataURI",
          "type": "string"
        }
      ],
      "stateMutability": "nonpayable",
      "type": "constructor"
    },
    {
      "anonymous": false,
      "inputs": [
        {
          "indexed": true,
          "internalType": "address",
          "name": "owner",
          "type": "address"
        },
        {
          "indexed": true,
          "internalType": "address",
          "name": "approved",
          "type": "address"
        },
        {
          "indexed": true,
          "internalType": "uint256",
          "name": "tokenId",
          "type": "uint256"
        }
      ],
      "name": "Approval",
      "type": "event"
    },
    {
      "anonymous": false,
      "inputs": [
        {
          "indexed": true,
          "internalType": "address",
          "name": "owner",
          "type": "address"
        },
        {
          "indexed": true,
          "internalType": "address",
          "name": "operator",
          "type": "address"
        },
        {
          "indexed": false,
          "internalType": "bool",
          "name": "approved",
          "type": "bool"
        }
      ],
      "name": "ApprovalForAll",
      "type": "event"
    },
    {
      "anonymous": false,
      "inputs": [
        {
          "indexed": true,
          "internalType": "address",
          "name": "previousOwner",
          "type": "address"
        },
        {
          "indexed": true,
          "internalType": "address",
          "name": "newOwner",
          "type": "address"
        }
      ],
      "name": "OwnershipTransferred",
      "type": "event"
    },
    {
      "anonymous": false,
      "inputs": [
        {
          "indexed": true,
          "internalType": "address",
          "name": "from",
          "type": "address"
        },
        {
          "indexed": true,
          "internalType": "address",
          "name": "to",
          "type": "address"
        },
        {
          "indexed": true,
          "internalType": "uint256",
          "name": "tokenId",
          "type": "uint256"
        }
      ],
      "name": "Transfer",
      "type": "event"
    },
    {
      "inputs": [],
      "name": "MAX_TOKEN_COUNT",
      "outputs": [
        {
          "internalType": "uint256",
          "name": "",
          "type": "uint256"
        }
      ],
      "stateMutability": "view",
      "type": "function"
    },
    {
      "inputs": [
        {
          "internalType": "uint256",
          "name": "",
          "type": "uint256"
        }
      ],
      "name": "TokenDatas",
      "outputs": [
        {
          "internalType": "uint256",
          "name": "Rank",
          "type": "uint256"
        },
        {
          "internalType": "uint256",
          "name": "Type",
          "type": "uint256"
        }
      ],
      "stateMutability": "view",
      "type": "function"
    },
    {
      "inputs": [
        {
          "internalType": "address",
          "name": "to",
          "type": "address"
        },
        {
          "internalType": "uint256",
          "name": "tokenId",
          "type": "uint256"
        }
      ],
      "name": "approve",
      "outputs": [],
      "stateMutability": "nonpayable",
      "type": "function"
    },
    {
      "inputs": [
        {
          "internalType": "address",
          "name": "owner",
          "type": "address"
        }
      ],
      "name": "balanceOf",
      "outputs": [
        {
          "internalType": "uint256",
          "name": "",
          "type": "uint256"
        }
      ],
      "stateMutability": "view",
      "type": "function"
    },
    {
      "inputs": [
        {
          "internalType": "uint256",
          "name": "tokenId",
          "type": "uint256"
        }
      ],
      "name": "getApproved",
      "outputs": [
        {
          "internalType": "address",
          "name": "",
          "type": "address"
        }
      ],
      "stateMutability": "view",
      "type": "function"
    },
    {
      "inputs": [
        {
          "internalType": "address",
          "name": "owner",
          "type": "address"
        },
        {
          "internalType": "address",
          "name": "operator",
          "type": "address"
        }
      ],
      "name": "isApprovedForAll",
      "outputs": [
        {
          "internalType": "bool",
          "name": "",
          "type": "bool"
        }
      ],
      "stateMutability": "view",
      "type": "function"
    },
    {
      "inputs": [],
      "name": "metadataURI",
      "outputs": [
        {
          "internalType": "string",
          "name": "",
          "type": "string"
        }
      ],
      "stateMutability": "view",
      "type": "function"
    },
    {
      "inputs": [],
      "name": "name",
      "outputs": [
        {
          "internalType": "string",
          "name": "",
          "type": "string"
        }
      ],
      "stateMutability": "view",
      "type": "function"
    },
    {
      "inputs": [],
      "name": "owner",
      "outputs": [
        {
          "internalType": "address",
          "name": "",
          "type": "address"
        }
      ],
      "stateMutability": "view",
      "type": "function"
    },
    {
      "inputs": [
        {
          "internalType": "uint256",
          "name": "tokenId",
          "type": "uint256"
        }
      ],
      "name": "ownerOf",
      "outputs": [
        {
          "internalType": "address",
          "name": "",
          "type": "address"
        }
      ],
      "stateMutability": "view",
      "type": "function"
    },
    {
      "inputs": [],
      "name": "renounceOwnership",
      "outputs": [],
      "stateMutability": "nonpayable",
      "type": "function"
    },
    {
      "inputs": [
        {
          "internalType": "address",
          "name": "from",
          "type": "address"
        },
        {
          "internalType": "address",
          "name": "to",
          "type": "address"
        },
        {
          "internalType": "uint256",
          "name": "tokenId",
          "type": "uint256"
        }
      ],
      "name": "safeTransferFrom",
      "outputs": [],
      "stateMutability": "nonpayable",
      "type": "function"
    },
    {
      "inputs": [
        {
          "internalType": "address",
          "name": "from",
          "type": "address"
        },
        {
          "internalType": "address",
          "name": "to",
          "type": "address"
        },
        {
          "internalType": "uint256",
          "name": "tokenId",
          "type": "uint256"
        },
        {
          "internalType": "bytes",
          "name": "data",
          "type": "bytes"
        }
      ],
      "name": "safeTransferFrom",
      "outputs": [],
      "stateMutability": "nonpayable",
      "type": "function"
    },
    {
      "inputs": [
        {
          "internalType": "address",
          "name": "operator",
          "type": "address"
        },
        {
          "internalType": "bool",
          "name": "approved",
          "type": "bool"
        }
      ],
      "name": "setApprovalForAll",
      "outputs": [],
      "stateMutability": "nonpayable",
      "type": "function"
    },
    {
      "inputs": [
        {
          "internalType": "bytes4",
          "name": "interfaceId",
          "type": "bytes4"
        }
      ],
      "name": "supportsInterface",
      "outputs": [
        {
          "internalType": "bool",
          "name": "",
          "type": "bool"
        }
      ],
      "stateMutability": "view",
      "type": "function"
    },
    {
      "inputs": [],
      "name": "symbol",
      "outputs": [
        {
          "internalType": "string",
          "name": "",
          "type": "string"
        }
      ],
      "stateMutability": "view",
      "type": "function"
    },
    {
      "inputs": [
        {
          "internalType": "uint256",
          "name": "index",
          "type": "uint256"
        }
      ],
      "name": "tokenByIndex",
      "outputs": [
        {
          "internalType": "uint256",
          "name": "",
          "type": "uint256"
        }
      ],
      "stateMutability": "view",
      "type": "function"
    },
    {
      "inputs": [
        {
          "internalType": "uint256",
          "name": "",
          "type": "uint256"
        },
        {
          "internalType": "uint256",
          "name": "",
          "type": "uint256"
        }
      ],
      "name": "tokenCount",
      "outputs": [
        {
          "internalType": "uint256",
          "name": "",
          "type": "uint256"
        }
      ],
      "stateMutability": "view",
      "type": "function"
    },
    {
      "inputs": [
        {
          "internalType": "address",
          "name": "owner",
          "type": "address"
        },
        {
          "internalType": "uint256",
          "name": "index",
          "type": "uint256"
        }
      ],
      "name": "tokenOfOwnerByIndex",
      "outputs": [
        {
          "internalType": "uint256",
          "name": "",
          "type": "uint256"
        }
      ],
      "stateMutability": "view",
      "type": "function"
    },
    {
      "inputs": [],
      "name": "totalSupply",
      "outputs": [
        {
          "internalType": "uint256",
          "name": "",
          "type": "uint256"
        }
      ],
      "stateMutability": "view",
      "type": "function"
    },
    {
      "inputs": [
        {
          "internalType": "address",
          "name": "from",
          "type": "address"
        },
        {
          "internalType": "address",
          "name": "to",
          "type": "address"
        },
        {
          "internalType": "uint256",
          "name": "tokenId",
          "type": "uint256"
        }
      ],
      "name": "transferFrom",
      "outputs": [],
      "stateMutability": "nonpayable",
      "type": "function"
    },
    {
      "inputs": [
        {
          "internalType": "address",
          "name": "newOwner",
          "type": "address"
        }
      ],
      "name": "transferOwnership",
      "outputs": [],
      "stateMutability": "nonpayable",
      "type": "function"
    },
    {
      "inputs": [],
      "name": "mintToken",
      "outputs": [],
      "stateMutability": "nonpayable",
      "type": "function"
    },
    {
      "inputs": [
        {
          "internalType": "uint256",
          "name": "_tokenId",
          "type": "uint256"
        }
      ],
      "name": "tokenURI",
      "outputs": [
        {
          "internalType": "string",
          "name": "",
          "type": "string"
        }
      ],
      "stateMutability": "view",
      "type": "function"
    },
    {
      "inputs": [
        {
          "internalType": "string",
          "name": "_uri",
          "type": "string"
        }
      ],
      "name": "setMetadataURI",
      "outputs": [],
      "stateMutability": "nonpayable",
      "type": "function"
    },
    {
      "inputs": [
        {
          "internalType": "uint256",
          "name": "_tokenId",
          "type": "uint256"
        }
      ],
      "name": "getTokenRank",
      "outputs": [
        {
          "internalType": "uint256",
          "name": "",
          "type": "uint256"
        }
      ],
      "stateMutability": "view",
      "type": "function"
    },
    {
      "inputs": [
        {
          "internalType": "uint256",
          "name": "_tokenId",
          "type": "uint256"
        }
      ],
      "name": "getTokenType",
      "outputs": [
        {
          "internalType": "uint256",
          "name": "",
          "type": "uint256"
        }
      ],
      "stateMutability": "view",
      "type": "function"
    },
    {
      "inputs": [],
      "name": "getTokenCount",
      "outputs": [
        {
          "internalType": "uint256[4][4]",
          "name": "",
          "type": "uint256[4][4]"
        }
      ],
      "stateMutability": "view",
      "type": "function"
    }
  ],
  "bytecode": "0x608060405234801562000010575f80fd5b50604051620044d0380380620044d08339818101604052810190620000369190620002e7565b8282815f9081620000489190620005d4565b5080600190816200005a9190620005d4565b5050506200007d620000716200009860201b60201c565b6200009f60201b60201c565b80600b90816200008e9190620005d4565b50505050620006b8565b5f33905090565b5f600a5f9054906101000a900473ffffffffffffffffffffffffffffffffffffffff16905081600a5f6101000a81548173ffffffffffffffffffffffffffffffffffffffff021916908373ffffffffffffffffffffffffffffffffffffffff1602179055508173ffffffffffffffffffffffffffffffffffffffff168173ffffffffffffffffffffffffffffffffffffffff167f8be0079c531659141344cd1fd0a4f28419497f9722a3daafe3b4186f6b6457e060405160405180910390a35050565b5f604051905090565b5f80fd5b5f80fd5b5f80fd5b5f80fd5b5f601f19601f8301169050919050565b7f4e487b71000000000000000000000000000000000000000000000000000000005f52604160045260245ffd5b620001c3826200017b565b810181811067ffffffffffffffff82111715620001e557620001e46200018b565b5b80604052505050565b5f620001f962000162565b9050620002078282620001b8565b919050565b5f67ffffffffffffffff8211156200022957620002286200018b565b5b62000234826200017b565b9050602081019050919050565b5f5b838110156200026057808201518184015260208101905062000243565b5f8484015250505050565b5f620002816200027b846200020c565b620001ee565b905082815260208101848484011115620002a0576200029f62000177565b5b620002ad84828562000241565b509392505050565b5f82601f830112620002cc57620002cb62000173565b5b8151620002de8482602086016200026b565b91505092915050565b5f805f606084860312156200030157620003006200016b565b5b5f84015167ffffffffffffffff8111156200032157620003206200016f565b5b6200032f86828701620002b5565b935050602084015167ffffffffffffffff8111156200035357620003526200016f565b5b6200036186828701620002b5565b925050604084015167ffffffffffffffff8111156200038557620003846200016f565b5b6200039386828701620002b5565b9150509250925092565b5f81519050919050565b7f4e487b71000000000000000000000000000000000000000000000000000000005f52602260045260245ffd5b5f6002820490506001821680620003ec57607f821691505b602082108103620004025762000401620003a7565b5b50919050565b5f819050815f5260205f209050919050565b5f6020601f8301049050919050565b5f82821b905092915050565b5f60088302620004667fffffffffffffffffffffffffffffffffffffffffffffffffffffffffffffffff8262000429565b62000472868362000429565b95508019841693508086168417925050509392505050565b5f819050919050565b5f819050919050565b5f620004bc620004b6620004b0846200048a565b62000493565b6200048a565b9050919050565b5f819050919050565b620004d7836200049c565b620004ef620004e682620004c3565b84845462000435565b825550505050565b5f90565b62000505620004f7565b62000512818484620004cc565b505050565b5b8181101562000539576200052d5f82620004fb565b60018101905062000518565b5050565b601f8211156200058857620005528162000408565b6200055d846200041a565b810160208510156200056d578190505b620005856200057c856200041a565b83018262000517565b50505b505050565b5f82821c905092915050565b5f620005aa5f19846008026200058d565b1980831691505092915050565b5f620005c4838362000599565b9150826002028217905092915050565b620005df826200039d565b67ffffffffffffffff811115620005fb57620005fa6200018b565b5b620006078254620003d4565b620006148282856200053d565b5f60209050601f8311600181146200064a575f841562000635578287015190505b620006418582620005b7565b865550620006b0565b601f1984166200065a8662000408565b5f5b8281101562000683578489015182556001820191506020850194506020810190506200065c565b86831015620006a357848901516200069f601f89168262000599565b8355505b6001600288020188555050505b505050505050565b613e0a80620006c65f395ff3fe608060405234801561000f575f80fd5b50600436106101c2575f3560e01c8063715018a6116100f7578063b88d4fde11610095578063d9f33c141161006f578063d9f33c1414610505578063e985e9c514610535578063ea3b04ba14610565578063f2fde38b14610595576101c2565b8063b88d4fde1461049b578063c87b56dd146104b7578063d0bbb0d7146104e7576101c2565b806378a89567116100d157806378a89567146104255780638da5cb5b1461044357806395d89b4114610461578063a22cb4651461047f576101c2565b8063715018a6146103cf578063750521f5146103d957806376aed2e1146103f5576101c2565b80632004ffd91161016457806342842e0e1161013e57806342842e0e146103235780634f6ccce71461033f5780636352211e1461036f57806370a082311461039f576101c2565b80632004ffd9146102cd57806323b872dd146102d75780632f745c59146102f3576101c2565b8063081812fc116101a0578063081812fc14610232578063095ea7b31461026257806318160ddd1461027e5780631b8151ae1461029c576101c2565b806301ffc9a7146101c657806303ee438c146101f657806306fdde0314610214575b5f80fd5b6101e060048036038101906101db91906126db565b6105b1565b6040516101ed9190612720565b60405180910390f35b6101fe61062a565b60405161020b91906127c3565b60405180910390f35b61021c6106b6565b60405161022991906127c3565b60405180910390f35b61024c60048036038101906102479190612816565b610745565b6040516102599190612880565b60405180910390f35b61027c600480360381019061027791906128c3565b610787565b005b61028661089d565b6040516102939190612910565b60405180910390f35b6102b660048036038101906102b19190612816565b6108a9565b6040516102c4929190612929565b60405180910390f35b6102d56108c9565b005b6102f160048036038101906102ec9190612950565b6109a3565b005b61030d600480360381019061030891906128c3565b610a03565b60405161031a9190612910565b60405180910390f35b61033d60048036038101906103389190612950565b610aa3565b005b61035960048036038101906103549190612816565b610ac2565b6040516103669190612910565b60405180910390f35b61038960048036038101906103849190612816565b610b30565b6040516103969190612880565b60405180910390f35b6103b960048036038101906103b491906129a0565b610bb4565b6040516103c69190612910565b60405180910390f35b6103d7610c68565b005b6103f360048036038101906103ee9190612af7565b610c7b565b005b61040f600480360381019061040a9190612816565b610c96565b60405161041c9190612910565b60405180910390f35b61042d610cb3565b60405161043a9190612c79565b60405180910390f35b61044b610d35565b6040516104589190612880565b60405180910390f35b610469610d5d565b60405161047691906127c3565b60405180910390f35b61049960048036038101906104949190612cbd565b610ded565b005b6104b560048036038101906104b09190612d99565b610e03565b005b6104d160048036038101906104cc9190612816565b610e65565b6040516104de91906127c3565b60405180910390f35b6104ef610ed4565b6040516104fc9190612910565b60405180910390f35b61051f600480360381019061051a9190612816565b610eda565b60405161052c9190612910565b60405180910390f35b61054f600480360381019061054a9190612e19565b610ef6565b60405161055c9190612720565b60405180910390f35b61057f600480360381019061057a9190612e57565b610f84565b60405161058c9190612910565b60405180910390f35b6105af60048036038101906105aa91906129a0565b610faf565b005b5f7f780e9d63000000000000000000000000000000000000000000000000000000007bffffffffffffffffffffffffffffffffffffffffffffffffffffffff1916827bffffffffffffffffffffffffffffffffffffffffffffffffffffffff19161480610623575061062282611031565b5b9050919050565b600b805461063790612ec2565b80601f016020809104026020016040519081016040528092919081815260200182805461066390612ec2565b80156106ae5780601f10610685576101008083540402835291602001916106ae565b820191905f5260205f20905b81548152906001019060200180831161069157829003601f168201915b505050505081565b60605f80546106c490612ec2565b80601f01602080910402602001604051908101604052809291908181526020018280546106f090612ec2565b801561073b5780601f106107125761010080835404028352916020019161073b565b820191905f5260205f20905b81548152906001019060200180831161071e57829003601f168201915b5050505050905090565b5f61074f82611112565b60045f8381526020019081526020015f205f9054906101000a900473ffffffffffffffffffffffffffffffffffffffff169050919050565b5f61079182610b30565b90508073ffffffffffffffffffffffffffffffffffffffff168373ffffffffffffffffffffffffffffffffffffffff1603610801576040517f08c379a00000000000000000000000000000000000000000000000000000000081526004016107f890612f62565b60405180910390fd5b8073ffffffffffffffffffffffffffffffffffffffff1661082061115d565b73ffffffffffffffffffffffffffffffffffffffff16148061084f575061084e8161084961115d565b610ef6565b5b61088e576040517f08c379a000000000000000000000000000000000000000000000000000000000815260040161088590612ff0565b60405180910390fd5b6108988383611164565b505050565b5f600880549050905090565b600c602052805f5260405f205f91509050805f0154908060010154905082565b5f60016108d461089d565b6108de919061303b565b90505f6108eb338361121a565b905080600c5f8481526020019081526020015f205f820151815f0155602082015181600101559050506001600d6001600c5f8681526020019081526020015f205f0154610938919061306e565b60048110610949576109486130a1565b5b600402016001600c5f8681526020019081526020015f206001015461096e919061306e565b6004811061097f5761097e6130a1565b5b015f82825461098e919061303b565b9250508190555061099f338361149d565b5050565b6109b46109ae61115d565b826116b0565b6109f3576040517f08c379a00000000000000000000000000000000000000000000000000000000081526004016109ea9061313e565b60405180910390fd5b6109fe838383611744565b505050565b5f610a0d83610bb4565b8210610a4e576040517f08c379a0000000000000000000000000000000000000000000000000000000008152600401610a45906131cc565b60405180910390fd5b60065f8473ffffffffffffffffffffffffffffffffffffffff1673ffffffffffffffffffffffffffffffffffffffff1681526020019081526020015f205f8381526020019081526020015f2054905092915050565b610abd83838360405180602001604052805f815250610e03565b505050565b5f610acb61089d565b8210610b0c576040517f08c379a0000000000000000000000000000000000000000000000000000000008152600401610b039061325a565b60405180910390fd5b60088281548110610b2057610b1f6130a1565b5b905f5260205f2001549050919050565b5f80610b3b83611a30565b90505f73ffffffffffffffffffffffffffffffffffffffff168173ffffffffffffffffffffffffffffffffffffffff1603610bab576040517f08c379a0000000000000000000000000000000000000000000000000000000008152600401610ba2906132c2565b60405180910390fd5b80915050919050565b5f8073ffffffffffffffffffffffffffffffffffffffff168273ffffffffffffffffffffffffffffffffffffffff1603610c23576040517f08c379a0000000000000000000000000000000000000000000000000000000008152600401610c1a90613350565b60405180910390fd5b60035f8373ffffffffffffffffffffffffffffffffffffffff1673ffffffffffffffffffffffffffffffffffffffff1681526020019081526020015f20549050919050565b610c70611a69565b610c795f611ae7565b565b610c83611a69565b80600b9081610c92919061350b565b5050565b5f600c5f8381526020019081526020015f20600101549050919050565b610cbb61260e565b600d600480602002604051908101604052809291905f905b82821015610d2c57838260040201600480602002604051908101604052809291908260048015610d18576020028201915b815481526020019060010190808311610d04575b505050505081526020019060010190610cd3565b50505050905090565b5f600a5f9054906101000a900473ffffffffffffffffffffffffffffffffffffffff16905090565b606060018054610d6c90612ec2565b80601f0160208091040260200160405190810160405280929190818152602001828054610d9890612ec2565b8015610de35780601f10610dba57610100808354040283529160200191610de3565b820191905f5260205f20905b815481529060010190602001808311610dc657829003601f168201915b5050505050905090565b610dff610df861115d565b8383611baa565b5050565b610e14610e0e61115d565b836116b0565b610e53576040517f08c379a0000000000000000000000000000000000000000000000000000000008152600401610e4a9061313e565b60405180910390fd5b610e5f84848484611d11565b50505050565b60605f610e84600c5f8581526020019081526020015f205f0154611d6d565b90505f610ea4600c5f8681526020019081526020015f2060010154611d6d565b9050600b8282604051602001610ebc93929190613728565b60405160208183030381529060405292505050919050565b6103e881565b5f600c5f8381526020019081526020015f205f01549050919050565b5f60055f8473ffffffffffffffffffffffffffffffffffffffff1673ffffffffffffffffffffffffffffffffffffffff1681526020019081526020015f205f8373ffffffffffffffffffffffffffffffffffffffff1673ffffffffffffffffffffffffffffffffffffffff1681526020019081526020015f205f9054906101000a900460ff16905092915050565b600d8260048110610f93575f80fd5b600402018160048110610fa4575f80fd5b015f91509150505481565b610fb7611a69565b5f73ffffffffffffffffffffffffffffffffffffffff168173ffffffffffffffffffffffffffffffffffffffff1603611025576040517f08c379a000000000000000000000000000000000000000000000000000000000815260040161101c906137e9565b60405180910390fd5b61102e81611ae7565b50565b5f7f80ac58cd000000000000000000000000000000000000000000000000000000007bffffffffffffffffffffffffffffffffffffffffffffffffffffffff1916827bffffffffffffffffffffffffffffffffffffffffffffffffffffffff191614806110fb57507f5b5e139f000000000000000000000000000000000000000000000000000000007bffffffffffffffffffffffffffffffffffffffffffffffffffffffff1916827bffffffffffffffffffffffffffffffffffffffffffffffffffffffff1916145b8061110b575061110a82611e37565b5b9050919050565b61111b81611ea0565b61115a576040517f08c379a0000000000000000000000000000000000000000000000000000000008152600401611151906132c2565b60405180910390fd5b50565b5f33905090565b8160045f8381526020019081526020015f205f6101000a81548173ffffffffffffffffffffffffffffffffffffffff021916908373ffffffffffffffffffffffffffffffffffffffff160217905550808273ffffffffffffffffffffffffffffffffffffffff166111d483610b30565b73ffffffffffffffffffffffffffffffffffffffff167f8c5be1e5ebec7d5bd14f71427d1e84f3dd0314c0f7b2291e5b200ac8c7c3b92560405160405180910390a45050565b61122261263b565b5f6064848460405160200161123892919061386c565b604051602081830303815290604052805190602001205f1c61125a91906138c4565b905061126461263b565b60058210156112f0576001820361128f576004815f01818152505060018160200181815250506112eb565b600282036112b1576004815f01818152505060028160200181815250506112ea565b600382036112d3576004815f01818152505060038160200181815250506112e9565b6004815f01818152505060048160200181815250505b5b5b611492565b600d82101561137f57600782101561131c576003815f018181525050600181602001818152505061137a565b600982101561133f576003815f0181815250506002816020018181525050611379565b600b821015611362576003815f0181815250506003816020018181525050611378565b6003815f01818152505060048160200181815250505b5b5b611491565b602582101561140e5760138210156113ab576002815f0181815250506001816020018181525050611409565b60198210156113ce576002815f0181815250506002816020018181525050611408565b601f8210156113f1576002815f0181815250506003816020018181525050611407565b6002815f01818152505060048160200181815250505b5b5b611490565b6034821015611431576001815f018181525050600181602001818152505061148f565b6044821015611454576001815f018181525050600281602001818152505061148e565b6054821015611477576001815f018181525050600381602001818152505061148d565b6001815f01818152505060048160200181815250505b5b5b5b5b5b809250505092915050565b5f73ffffffffffffffffffffffffffffffffffffffff168273ffffffffffffffffffffffffffffffffffffffff160361150b576040517f08c379a00000000000000000000000000000000000000000000000000000000081526004016115029061393e565b60405180910390fd5b61151481611ea0565b15611554576040517f08c379a000000000000000000000000000000000000000000000000000000000815260040161154b906139a6565b60405180910390fd5b6115615f83836001611ee0565b61156a81611ea0565b156115aa576040517f08c379a00000000000000000000000000000000000000000000000000000000081526004016115a1906139a6565b60405180910390fd5b600160035f8473ffffffffffffffffffffffffffffffffffffffff1673ffffffffffffffffffffffffffffffffffffffff1681526020019081526020015f205f82825401925050819055508160025f8381526020019081526020015f205f6101000a81548173ffffffffffffffffffffffffffffffffffffffff021916908373ffffffffffffffffffffffffffffffffffffffff160217905550808273ffffffffffffffffffffffffffffffffffffffff165f73ffffffffffffffffffffffffffffffffffffffff167fddf252ad1be2c89b69c2b068fc378daa952ba7f163c4a11628f55a4df523b3ef60405160405180910390a46116ac5f8383600161203b565b5050565b5f806116bb83610b30565b90508073ffffffffffffffffffffffffffffffffffffffff168473ffffffffffffffffffffffffffffffffffffffff1614806116fd57506116fc8185610ef6565b5b8061173b57508373ffffffffffffffffffffffffffffffffffffffff1661172384610745565b73ffffffffffffffffffffffffffffffffffffffff16145b91505092915050565b8273ffffffffffffffffffffffffffffffffffffffff1661176482610b30565b73ffffffffffffffffffffffffffffffffffffffff16146117ba576040517f08c379a00000000000000000000000000000000000000000000000000000000081526004016117b190613a34565b60405180910390fd5b5f73ffffffffffffffffffffffffffffffffffffffff168273ffffffffffffffffffffffffffffffffffffffff1603611828576040517f08c379a000000000000000000000000000000000000000000000000000000000815260040161181f90613ac2565b60405180910390fd5b6118358383836001611ee0565b8273ffffffffffffffffffffffffffffffffffffffff1661185582610b30565b73ffffffffffffffffffffffffffffffffffffffff16146118ab576040517f08c379a00000000000000000000000000000000000000000000000000000000081526004016118a290613a34565b60405180910390fd5b60045f8281526020019081526020015f205f6101000a81549073ffffffffffffffffffffffffffffffffffffffff0219169055600160035f8573ffffffffffffffffffffffffffffffffffffffff1673ffffffffffffffffffffffffffffffffffffffff1681526020019081526020015f205f8282540392505081905550600160035f8473ffffffffffffffffffffffffffffffffffffffff1673ffffffffffffffffffffffffffffffffffffffff1681526020019081526020015f205f82825401925050819055508160025f8381526020019081526020015f205f6101000a81548173ffffffffffffffffffffffffffffffffffffffff021916908373ffffffffffffffffffffffffffffffffffffffff160217905550808273ffffffffffffffffffffffffffffffffffffffff168473ffffffffffffffffffffffffffffffffffffffff167fddf252ad1be2c89b69c2b068fc378daa952ba7f163c4a11628f55a4df523b3ef60405160405180910390a4611a2b838383600161203b565b505050565b5f60025f8381526020019081526020015f205f9054906101000a900473ffffffffffffffffffffffffffffffffffffffff169050919050565b611a7161115d565b73ffffffffffffffffffffffffffffffffffffffff16611a8f610d35565b73ffffffffffffffffffffffffffffffffffffffff1614611ae5576040517f08c379a0000000000000000000000000000000000000000000000000000000008152600401611adc90613b2a565b60405180910390fd5b565b5f600a5f9054906101000a900473ffffffffffffffffffffffffffffffffffffffff16905081600a5f6101000a81548173ffffffffffffffffffffffffffffffffffffffff021916908373ffffffffffffffffffffffffffffffffffffffff1602179055508173ffffffffffffffffffffffffffffffffffffffff168173ffffffffffffffffffffffffffffffffffffffff167f8be0079c531659141344cd1fd0a4f28419497f9722a3daafe3b4186f6b6457e060405160405180910390a35050565b8173ffffffffffffffffffffffffffffffffffffffff168373ffffffffffffffffffffffffffffffffffffffff1603611c18576040517f08c379a0000000000000000000000000000000000000000000000000000000008152600401611c0f90613b92565b60405180910390fd5b8060055f8573ffffffffffffffffffffffffffffffffffffffff1673ffffffffffffffffffffffffffffffffffffffff1681526020019081526020015f205f8473ffffffffffffffffffffffffffffffffffffffff1673ffffffffffffffffffffffffffffffffffffffff1681526020019081526020015f205f6101000a81548160ff0219169083151502179055508173ffffffffffffffffffffffffffffffffffffffff168373ffffffffffffffffffffffffffffffffffffffff167f17307eab39ab6107e8899845ad3d59bd9653f200f220920489ca2b5937696c3183604051611d049190612720565b60405180910390a3505050565b611d1c848484611744565b611d2884848484612041565b611d67576040517f08c379a0000000000000000000000000000000000000000000000000000000008152600401611d5e90613c20565b60405180910390fd5b50505050565b60605f6001611d7b846121c3565b0190505f8167ffffffffffffffff811115611d9957611d986129d3565b5b6040519080825280601f01601f191660200182016040528015611dcb5781602001600182028036833780820191505090505b5090505f82602001820190505b600115611e2c578080600190039150507f3031323334353637383961626364656600000000000000000000000000000000600a86061a8153600a8581611e2157611e20613897565b5b0494505f8503611dd8575b819350505050919050565b5f7f01ffc9a7000000000000000000000000000000000000000000000000000000007bffffffffffffffffffffffffffffffffffffffffffffffffffffffff1916827bffffffffffffffffffffffffffffffffffffffffffffffffffffffff1916149050919050565b5f8073ffffffffffffffffffffffffffffffffffffffff16611ec183611a30565b73ffffffffffffffffffffffffffffffffffffffff1614159050919050565b611eec84848484612314565b6001811115611f30576040517f08c379a0000000000000000000000000000000000000000000000000000000008152600401611f2790613cae565b60405180910390fd5b5f8290505f73ffffffffffffffffffffffffffffffffffffffff168573ffffffffffffffffffffffffffffffffffffffff1603611f7557611f708161231a565b611fb4565b8373ffffffffffffffffffffffffffffffffffffffff168573ffffffffffffffffffffffffffffffffffffffff1614611fb357611fb2858261235e565b5b5b5f73ffffffffffffffffffffffffffffffffffffffff168473ffffffffffffffffffffffffffffffffffffffff1603611ff557611ff0816124b4565b612034565b8473ffffffffffffffffffffffffffffffffffffffff168473ffffffffffffffffffffffffffffffffffffffff1614612033576120328482612574565b5b5b5050505050565b50505050565b5f6120618473ffffffffffffffffffffffffffffffffffffffff166125ec565b156121b6578373ffffffffffffffffffffffffffffffffffffffff1663150b7a0261208a61115d565b8786866040518563ffffffff1660e01b81526004016120ac9493929190613d1e565b6020604051808303815f875af19250505080156120e757506040513d601f19601f820116820180604052508101906120e49190613d7c565b60015b612166573d805f8114612115576040519150601f19603f3d011682016040523d82523d5f602084013e61211a565b606091505b505f81510361215e576040517f08c379a000000000000000000000000000000000000000000000000000000000815260040161215590613c20565b60405180910390fd5b805181602001fd5b63150b7a0260e01b7bffffffffffffffffffffffffffffffffffffffffffffffffffffffff1916817bffffffffffffffffffffffffffffffffffffffffffffffffffffffff1916149150506121bb565b600190505b949350505050565b5f805f90507a184f03e93ff9f4daa797ed6e38ed64bf6a1f010000000000000000831061221f577a184f03e93ff9f4daa797ed6e38ed64bf6a1f010000000000000000838161221557612214613897565b5b0492506040810190505b6d04ee2d6d415b85acef8100000000831061225c576d04ee2d6d415b85acef8100000000838161225257612251613897565b5b0492506020810190505b662386f26fc10000831061228b57662386f26fc10000838161228157612280613897565b5b0492506010810190505b6305f5e10083106122b4576305f5e10083816122aa576122a9613897565b5b0492506008810190505b61271083106122d95761271083816122cf576122ce613897565b5b0492506004810190505b606483106122fc57606483816122f2576122f1613897565b5b0492506002810190505b600a831061230b576001810190505b80915050919050565b50505050565b60088054905060095f8381526020019081526020015f2081905550600881908060018154018082558091505060019003905f5260205f20015f909190919091505550565b5f600161236a84610bb4565b612374919061306e565b90505f60075f8481526020019081526020015f2054905081811461244b575f60065f8673ffffffffffffffffffffffffffffffffffffffff1673ffffffffffffffffffffffffffffffffffffffff1681526020019081526020015f205f8481526020019081526020015f205490508060065f8773ffffffffffffffffffffffffffffffffffffffff1673ffffffffffffffffffffffffffffffffffffffff1681526020019081526020015f205f8481526020019081526020015f20819055508160075f8381526020019081526020015f2081905550505b60075f8481526020019081526020015f205f905560065f8573ffffffffffffffffffffffffffffffffffffffff1673ffffffffffffffffffffffffffffffffffffffff1681526020019081526020015f205f8381526020019081526020015f205f905550505050565b5f60016008805490506124c7919061306e565b90505f60095f8481526020019081526020015f205490505f600883815481106124f3576124f26130a1565b5b905f5260205f20015490508060088381548110612513576125126130a1565b5b905f5260205f2001819055508160095f8381526020019081526020015f208190555060095f8581526020019081526020015f205f9055600880548061255b5761255a613da7565b5b600190038181905f5260205f20015f9055905550505050565b5f61257e83610bb4565b90508160065f8573ffffffffffffffffffffffffffffffffffffffff1673ffffffffffffffffffffffffffffffffffffffff1681526020019081526020015f205f8381526020019081526020015f20819055508060075f8481526020019081526020015f2081905550505050565b5f808273ffffffffffffffffffffffffffffffffffffffff163b119050919050565b60405180608001604052806004905b612625612653565b81526020019060019003908161261d5790505090565b60405180604001604052805f81526020015f81525090565b6040518060800160405280600490602082028036833780820191505090505090565b5f604051905090565b5f80fd5b5f80fd5b5f7fffffffff0000000000000000000000000000000000000000000000000000000082169050919050565b6126ba81612686565b81146126c4575f80fd5b50565b5f813590506126d5816126b1565b92915050565b5f602082840312156126f0576126ef61267e565b5b5f6126fd848285016126c7565b91505092915050565b5f8115159050919050565b61271a81612706565b82525050565b5f6020820190506127335f830184612711565b92915050565b5f81519050919050565b5f82825260208201905092915050565b5f5b83811015612770578082015181840152602081019050612755565b5f8484015250505050565b5f601f19601f8301169050919050565b5f61279582612739565b61279f8185612743565b93506127af818560208601612753565b6127b88161277b565b840191505092915050565b5f6020820190508181035f8301526127db818461278b565b905092915050565b5f819050919050565b6127f5816127e3565b81146127ff575f80fd5b50565b5f81359050612810816127ec565b92915050565b5f6020828403121561282b5761282a61267e565b5b5f61283884828501612802565b91505092915050565b5f73ffffffffffffffffffffffffffffffffffffffff82169050919050565b5f61286a82612841565b9050919050565b61287a81612860565b82525050565b5f6020820190506128935f830184612871565b92915050565b6128a281612860565b81146128ac575f80fd5b50565b5f813590506128bd81612899565b92915050565b5f80604083850312156128d9576128d861267e565b5b5f6128e6858286016128af565b92505060206128f785828601612802565b9150509250929050565b61290a816127e3565b82525050565b5f6020820190506129235f830184612901565b92915050565b5f60408201905061293c5f830185612901565b6129496020830184612901565b9392505050565b5f805f606084860312156129675761296661267e565b5b5f612974868287016128af565b9350506020612985868287016128af565b925050604061299686828701612802565b9150509250925092565b5f602082840312156129b5576129b461267e565b5b5f6129c2848285016128af565b91505092915050565b5f80fd5b5f80fd5b7f4e487b71000000000000000000000000000000000000000000000000000000005f52604160045260245ffd5b612a098261277b565b810181811067ffffffffffffffff82111715612a2857612a276129d3565b5b80604052505050565b5f612a3a612675565b9050612a468282612a00565b919050565b5f67ffffffffffffffff821115612a6557612a646129d3565b5b612a6e8261277b565b9050602081019050919050565b828183375f83830152505050565b5f612a9b612a9684612a4b565b612a31565b905082815260208101848484011115612ab757612ab66129cf565b5b612ac2848285612a7b565b509392505050565b5f82601f830112612ade57612add6129cb565b5b8135612aee848260208601612a89565b91505092915050565b5f60208284031215612b0c57612b0b61267e565b5b5f82013567ffffffffffffffff811115612b2957612b28612682565b5b612b3584828501612aca565b91505092915050565b5f60049050919050565b5f81905092915050565b5f819050919050565b5f60049050919050565b5f81905092915050565b5f819050919050565b612b81816127e3565b82525050565b5f612b928383612b78565b60208301905092915050565b5f602082019050919050565b612bb381612b5b565b612bbd8184612b65565b9250612bc882612b6f565b805f5b83811015612bf8578151612bdf8782612b87565b9650612bea83612b9e565b925050600181019050612bcb565b505050505050565b5f612c0b8383612baa565b60808301905092915050565b5f602082019050919050565b612c2c81612b3e565b612c368184612b48565b9250612c4182612b52565b805f5b83811015612c71578151612c588782612c00565b9650612c6383612c17565b925050600181019050612c44565b505050505050565b5f61020082019050612c8d5f830184612c23565b92915050565b612c9c81612706565b8114612ca6575f80fd5b50565b5f81359050612cb781612c93565b92915050565b5f8060408385031215612cd357612cd261267e565b5b5f612ce0858286016128af565b9250506020612cf185828601612ca9565b9150509250929050565b5f67ffffffffffffffff821115612d1557612d146129d3565b5b612d1e8261277b565b9050602081019050919050565b5f612d3d612d3884612cfb565b612a31565b905082815260208101848484011115612d5957612d586129cf565b5b612d64848285612a7b565b509392505050565b5f82601f830112612d8057612d7f6129cb565b5b8135612d90848260208601612d2b565b91505092915050565b5f805f8060808587031215612db157612db061267e565b5b5f612dbe878288016128af565b9450506020612dcf878288016128af565b9350506040612de087828801612802565b925050606085013567ffffffffffffffff811115612e0157612e00612682565b5b612e0d87828801612d6c565b91505092959194509250565b5f8060408385031215612e2f57612e2e61267e565b5b5f612e3c858286016128af565b9250506020612e4d858286016128af565b9150509250929050565b5f8060408385031215612e6d57612e6c61267e565b5b5f612e7a85828601612802565b9250506020612e8b85828601612802565b9150509250929050565b7f4e487b71000000000000000000000000000000000000000000000000000000005f52602260045260245ffd5b5f6002820490506001821680612ed957607f821691505b602082108103612eec57612eeb612e95565b5b50919050565b7f4552433732313a20617070726f76616c20746f2063757272656e74206f776e655f8201527f7200000000000000000000000000000000000000000000000000000000000000602082015250565b5f612f4c602183612743565b9150612f5782612ef2565b604082019050919050565b5f6020820190508181035f830152612f7981612f40565b9050919050565b7f4552433732313a20617070726f76652063616c6c6572206973206e6f7420746f5f8201527f6b656e206f776e6572206f7220617070726f76656420666f7220616c6c000000602082015250565b5f612fda603d83612743565b9150612fe582612f80565b604082019050919050565b5f6020820190508181035f83015261300781612fce565b9050919050565b7f4e487b71000000000000000000000000000000000000000000000000000000005f52601160045260245ffd5b5f613045826127e3565b9150613050836127e3565b92508282019050808211156130685761306761300e565b5b92915050565b5f613078826127e3565b9150613083836127e3565b925082820390508181111561309b5761309a61300e565b5b92915050565b7f4e487b71000000000000000000000000000000000000000000000000000000005f52603260045260245ffd5b7f4552433732313a2063616c6c6572206973206e6f7420746f6b656e206f776e655f8201527f72206f7220617070726f76656400000000000000000000000000000000000000602082015250565b5f613128602d83612743565b9150613133826130ce565b604082019050919050565b5f6020820190508181035f8301526131558161311c565b9050919050565b7f455243373231456e756d657261626c653a206f776e657220696e646578206f755f8201527f74206f6620626f756e6473000000000000000000000000000000000000000000602082015250565b5f6131b6602b83612743565b91506131c18261315c565b604082019050919050565b5f6020820190508181035f8301526131e3816131aa565b9050919050565b7f455243373231456e756d657261626c653a20676c6f62616c20696e646578206f5f8201527f7574206f6620626f756e64730000000000000000000000000000000000000000602082015250565b5f613244602c83612743565b915061324f826131ea565b604082019050919050565b5f6020820190508181035f83015261327181613238565b9050919050565b7f4552433732313a20696e76616c696420746f6b656e20494400000000000000005f82015250565b5f6132ac601883612743565b91506132b782613278565b602082019050919050565b5f6020820190508181035f8301526132d9816132a0565b9050919050565b7f4552433732313a2061646472657373207a65726f206973206e6f7420612076615f8201527f6c6964206f776e65720000000000000000000000000000000000000000000000602082015250565b5f61333a602983612743565b9150613345826132e0565b604082019050919050565b5f6020820190508181035f8301526133678161332e565b9050919050565b5f819050815f5260205f209050919050565b5f6020601f8301049050919050565b5f82821b905092915050565b5f600883026133ca7fffffffffffffffffffffffffffffffffffffffffffffffffffffffffffffffff8261338f565b6133d4868361338f565b95508019841693508086168417925050509392505050565b5f819050919050565b5f61340f61340a613405846127e3565b6133ec565b6127e3565b9050919050565b5f819050919050565b613428836133f5565b61343c61343482613416565b84845461339b565b825550505050565b5f90565b613450613444565b61345b81848461341f565b505050565b5b8181101561347e576134735f82613448565b600181019050613461565b5050565b601f8211156134c3576134948161336e565b61349d84613380565b810160208510156134ac578190505b6134c06134b885613380565b830182613460565b50505b505050565b5f82821c905092915050565b5f6134e35f19846008026134c8565b1980831691505092915050565b5f6134fb83836134d4565b9150826002028217905092915050565b61351482612739565b67ffffffffffffffff81111561352d5761352c6129d3565b5b6135378254612ec2565b613542828285613482565b5f60209050601f831160018114613573575f8415613561578287015190505b61356b85826134f0565b8655506135d2565b601f1984166135818661336e565b5f5b828110156135a857848901518255600182019150602085019450602081019050613583565b868310156135c557848901516135c1601f8916826134d4565b8355505b6001600288020188555050505b505050505050565b5f81905092915050565b5f81546135f081612ec2565b6135fa81866135da565b9450600182165f811461361457600181146136295761365b565b60ff198316865281151582028601935061365b565b6136328561336e565b5f5b8381101561365357815481890152600182019150602081019050613634565b838801955050505b50505092915050565b7f2f000000000000000000000000000000000000000000000000000000000000005f82015250565b5f6136986001836135da565b91506136a382613664565b600182019050919050565b5f6136b882612739565b6136c281856135da565b93506136d2818560208601612753565b80840191505092915050565b7f2e6a736f6e0000000000000000000000000000000000000000000000000000005f82015250565b5f6137126005836135da565b915061371d826136de565b600582019050919050565b5f61373382866135e4565b915061373e8261368c565b915061374a82856136ae565b91506137558261368c565b915061376182846136ae565b915061376c82613706565b9150819050949350505050565b7f4f776e61626c653a206e6577206f776e657220697320746865207a65726f20615f8201527f6464726573730000000000000000000000000000000000000000000000000000602082015250565b5f6137d3602683612743565b91506137de82613779565b604082019050919050565b5f6020820190508181035f830152613800816137c7565b9050919050565b5f8160601b9050919050565b5f61381d82613807565b9050919050565b5f61382e82613813565b9050919050565b61384661384182612860565b613824565b82525050565b5f819050919050565b613866613861826127e3565b61384c565b82525050565b5f6138778285613835565b6014820191506138878284613855565b6020820191508190509392505050565b7f4e487b71000000000000000000000000000000000000000000000000000000005f52601260045260245ffd5b5f6138ce826127e3565b91506138d9836127e3565b9250826138e9576138e8613897565b5b828206905092915050565b7f4552433732313a206d696e7420746f20746865207a65726f20616464726573735f82015250565b5f613928602083612743565b9150613933826138f4565b602082019050919050565b5f6020820190508181035f8301526139558161391c565b9050919050565b7f4552433732313a20746f6b656e20616c7265616479206d696e746564000000005f82015250565b5f613990601c83612743565b915061399b8261395c565b602082019050919050565b5f6020820190508181035f8301526139bd81613984565b9050919050565b7f4552433732313a207472616e736665722066726f6d20696e636f7272656374205f8201527f6f776e6572000000000000000000000000000000000000000000000000000000602082015250565b5f613a1e602583612743565b9150613a29826139c4565b604082019050919050565b5f6020820190508181035f830152613a4b81613a12565b9050919050565b7f4552433732313a207472616e7366657220746f20746865207a65726f206164645f8201527f7265737300000000000000000000000000000000000000000000000000000000602082015250565b5f613aac602483612743565b9150613ab782613a52565b604082019050919050565b5f6020820190508181035f830152613ad981613aa0565b9050919050565b7f4f776e61626c653a2063616c6c6572206973206e6f7420746865206f776e65725f82015250565b5f613b14602083612743565b9150613b1f82613ae0565b602082019050919050565b5f6020820190508181035f830152613b4181613b08565b9050919050565b7f4552433732313a20617070726f766520746f2063616c6c6572000000000000005f82015250565b5f613b7c601983612743565b9150613b8782613b48565b602082019050919050565b5f6020820190508181035f830152613ba981613b70565b9050919050565b7f4552433732313a207472616e7366657220746f206e6f6e2045524337323152655f8201527f63656976657220696d706c656d656e7465720000000000000000000000000000602082015250565b5f613c0a603283612743565b9150613c1582613bb0565b604082019050919050565b5f6020820190508181035f830152613c3781613bfe565b9050919050565b7f455243373231456e756d657261626c653a20636f6e73656375746976652074725f8201527f616e7366657273206e6f7420737570706f727465640000000000000000000000602082015250565b5f613c98603583612743565b9150613ca382613c3e565b604082019050919050565b5f6020820190508181035f830152613cc581613c8c565b9050919050565b5f81519050919050565b5f82825260208201905092915050565b5f613cf082613ccc565b613cfa8185613cd6565b9350613d0a818560208601612753565b613d138161277b565b840191505092915050565b5f608082019050613d315f830187612871565b613d3e6020830186612871565b613d4b6040830185612901565b8181036060830152613d5d8184613ce6565b905095945050505050565b5f81519050613d76816126b1565b92915050565b5f60208284031215613d9157613d9061267e565b5b5f613d9e84828501613d68565b91505092915050565b7f4e487b71000000000000000000000000000000000000000000000000000000005f52603160045260245ffdfea2646970667358221220a3c5ba56f56340b73598428d35bf7588d888cd83cf4fdd06bbbad81e29705e5f64736f6c63430008140033",
  "immutableReferences": {},
  "source": "// SPDX-License-Identifier: MIT\npragma solidity ^0.8.15;\n\nimport \"../node_modules/@openzeppelin/contracts/token/ERC721/extensions/ERC721Enumerable.sol\";\n\nimport \"../node_modules/@openzeppelin/contracts/access/Ownable.sol\";\n\nimport \"../node_modules/@openzeppelin/contracts/utils/Strings.sol\";\n\n\ncontract cusminting is ERC721Enumerable, Ownable{\n\n    uint constant public MAX_TOKEN_COUNT = 1000;\n    // NFT    \n    // Solidity   constant\n\n    // uint public mint_price = 1 ;\n    //       \n    // Solidity  1 ether    10**18  \n\n    string public metadataURI;\n\n    constructor(string memory _name, string memory _symbol, string memory _metadataURI) ERC721(_name, _symbol) {\n        metadataURI = _metadataURI;\n    }\n\n    // tokenId    Rank, Type   \n    struct TokenData {\n        uint Rank;\n        uint Type;\n    }\n\n    mapping(uint => TokenData) public TokenDatas;\n    // tokenId => TokenData\n\n    uint[4][4] public tokenCount;\n    //  NFT      \n\n    function mintToken() public {\n        // mintToken()      . CA   NFT  .\n\n        // require(msg.value >= mint_price);\n        // require(MAX_TOKEN_COUNT > ERC721Enumerable.totalSupply());\n\n        uint tokenId = ERC721Enumerable.totalSupply() + 1;\n        //   + 1  tokenId  \n\n        // _tokenId   metadata Rank Type   TokenDatas  \n        TokenData memory random = getRandomTokenData(msg.sender, tokenId);  //      \n        TokenDatas[tokenId] = random;\n\n        tokenCount[TokenDatas[tokenId].Rank - 1][TokenDatas[tokenId].Type - 1] += 1;\n\n        // CA ->      \n        // payable(Ownable.owner()).transfer(msg.value);\n\n        // mintToken()    NFT \n        _mint(msg.sender, tokenId);\n\n    }\n\n    function tokenURI(uint _tokenId) public override view returns (string memory) {\n\n        // if metadataURI : http://localhost:3000/metadata\n        // return : http://localhost:3000/metadata/1/4.json\n\n        // uint -> string    \n        // uint -> bytes -> string  \n        // utils    Strings.sol  \n        string memory Rank = Strings.toString(TokenDatas[_tokenId].Rank);\n        string memory Type = Strings.toString(TokenDatas[_tokenId].Type);\n\n        // abi.encodePacked(\"http://localhost:3000/metadata\", \"/\", Rank, \"/\", Type, \".json\")\n        return string(abi.encodePacked(metadataURI, \"/\", Rank, \"/\", Type, \".json\"));\n\n    }\n\n    // TokenData   \n    function getRandomTokenData(address _owner, uint _tokenId) private pure returns (TokenData memory) {\n        // Solidity random  \n        //          \n\n        // abi.encodePacked(_owner, _tokenId);  //    \n        uint randomNum = uint(keccak256(abi.encodePacked(_owner, _tokenId)))%100;   // Solidity     \n        // keccak256 -> 32 byte\n        //  : keccak256()   string   X\n\n        //          .\n        TokenData memory data;\n        //   data    \n\n        if (randomNum < 5) {\n            if (randomNum == 1) {\n                data.Rank = 4;\n                data.Type = 1;\n            } else if (randomNum == 2) {\n                data.Rank = 4;\n                data.Type = 2;\n            } else if (randomNum == 3) {\n                data.Rank = 4;\n                data.Type = 3;\n            } else {\n                data.Rank = 4;\n                data.Type = 4;\n            }\n        } else if (randomNum < 13) {\n            if (randomNum < 7) {\n                data.Rank = 3;\n                data.Type = 1;\n            } else if (randomNum < 9) {\n                data.Rank = 3;\n                data.Type = 2;\n            } else if (randomNum < 11) {\n                data.Rank = 3;\n                data.Type = 3;\n            } else {\n                data.Rank = 3;\n                data.Type = 4;\n            }\n        } else if (randomNum < 37) {\n            if (randomNum < 19) {\n                data.Rank = 2;\n                data.Type = 1;\n            } else if (randomNum < 25) {\n                data.Rank = 2;\n                data.Type = 2;\n            } else if (randomNum < 31) {\n                data.Rank = 2;\n                data.Type = 3;\n            } else {\n                data.Rank = 2;\n                data.Type = 4;\n            }\n        } else {\n            if (randomNum < 52) {\n                data.Rank = 1;\n                data.Type = 1;\n            } else if (randomNum < 68) {\n                data.Rank = 1;\n                data.Type = 2;\n            } else if (randomNum < 84) {\n                data.Rank = 1;\n                data.Type = 3;\n            } else {\n                data.Rank = 1;\n                data.Type = 4;\n            }\n        }\n\n        return data;\n    }\n    \n    // metadataURI    \n    // onlyOwner : owner( )     \n    function setMetadataURI(string memory _uri) public onlyOwner {\n        metadataURI = _uri;\n    }\n\n    // TokenData Rank \n    function getTokenRank(uint _tokenId) public view returns (uint) {\n        return TokenDatas[_tokenId].Rank;\n    }\n\n    // TokenData Type \n    function getTokenType(uint _tokenId) public view returns (uint) {\n        return TokenDatas[_tokenId].Type;\n    }\n\n    //   return   view \n    // getter      .\n    // getter    return     return view   .\n    function getTokenCount() public view returns (uint[4][4] memory) {\n        return tokenCount;\n    }\n    \n}",
  "sourcePath": "/Users/guarantable/bitbucket/truffle/contracts/cusminting.sol",
  "compiler": {
    "name": "solc",
    "version": "0.8.20+commit.a1b79de6.Emscripten.clang"
  },
  "schemaVersion": "3.4.14",
  "updatedAt": "2023-07-14T05:57:46.780Z",
  "devdoc": {
    "events": {
      "Approval(address,address,uint256)": {
        "details": "Emitted when `owner` enables `approved` to manage the `tokenId` token."
      },
      "ApprovalForAll(address,address,bool)": {
        "details": "Emitted when `owner` enables or disables (`approved`) `operator` to manage all of its assets."
      },
      "Transfer(address,address,uint256)": {
        "details": "Emitted when `tokenId` token is transferred from `from` to `to`."
      }
    },
    "kind": "dev",
    "methods": {
      "approve(address,uint256)": {
        "details": "See {IERC721-approve}."
      },
      "balanceOf(address)": {
        "details": "See {IERC721-balanceOf}."
      },
      "getApproved(uint256)": {
        "details": "See {IERC721-getApproved}."
      },
      "isApprovedForAll(address,address)": {
        "details": "See {IERC721-isApprovedForAll}."
      },
      "name()": {
        "details": "See {IERC721Metadata-name}."
      },
      "owner()": {
        "details": "Returns the address of the current owner."
      },
      "ownerOf(uint256)": {
        "details": "See {IERC721-ownerOf}."
      },
      "renounceOwnership()": {
        "details": "Leaves the contract without owner. It will not be possible to call `onlyOwner` functions. Can only be called by the current owner. NOTE: Renouncing ownership will leave the contract without an owner, thereby disabling any functionality that is only available to the owner."
      },
      "safeTransferFrom(address,address,uint256)": {
        "details": "See {IERC721-safeTransferFrom}."
      },
      "safeTransferFrom(address,address,uint256,bytes)": {
        "details": "See {IERC721-safeTransferFrom}."
      },
      "setApprovalForAll(address,bool)": {
        "details": "See {IERC721-setApprovalForAll}."
      },
      "supportsInterface(bytes4)": {
        "details": "See {IERC165-supportsInterface}."
      },
      "symbol()": {
        "details": "See {IERC721Metadata-symbol}."
      },
      "tokenByIndex(uint256)": {
        "details": "See {IERC721Enumerable-tokenByIndex}."
      },
      "tokenOfOwnerByIndex(address,uint256)": {
        "details": "See {IERC721Enumerable-tokenOfOwnerByIndex}."
      },
      "totalSupply()": {
        "details": "See {IERC721Enumerable-totalSupply}."
      },
      "transferFrom(address,address,uint256)": {
        "details": "See {IERC721-transferFrom}."
      },
      "transferOwnership(address)": {
        "details": "Transfers ownership of the contract to a new account (`newOwner`). Can only be called by the current owner."
      }
    },
    "version": 1
  },
  "userdoc": {
    "kind": "user",
    "methods": {},
    "version": 1
  }
}