{
  "contractName": "Minting",
  "abi": [
    {
      "inputs": [
        {
          "internalType": "string",
          "name": "_name",
          "type": "string"
        },
        {
          "internalType": "string",
          "name": "_symbol",
          "type": "string"
        }
      ],
      "stateMutability": "nonpayable",
      "type": "constructor"
    },
    {
      "anonymous": false,
      "inputs": [
        {
          "indexed": true,
          "internalType": "address",
          "name": "owner",
          "type": "address"
        },
        {
          "indexed": true,
          "internalType": "address",
          "name": "approved",
          "type": "address"
        },
        {
          "indexed": true,
          "internalType": "uint256",
          "name": "tokenId",
          "type": "uint256"
        }
      ],
      "name": "Approval",
      "type": "event"
    },
    {
      "anonymous": false,
      "inputs": [
        {
          "indexed": true,
          "internalType": "address",
          "name": "owner",
          "type": "address"
        },
        {
          "indexed": true,
          "internalType": "address",
          "name": "operator",
          "type": "address"
        },
        {
          "indexed": false,
          "internalType": "bool",
          "name": "approved",
          "type": "bool"
        }
      ],
      "name": "ApprovalForAll",
      "type": "event"
    },
    {
      "anonymous": false,
      "inputs": [
        {
          "indexed": true,
          "internalType": "address",
          "name": "from",
          "type": "address"
        },
        {
          "indexed": true,
          "internalType": "address",
          "name": "to",
          "type": "address"
        },
        {
          "indexed": true,
          "internalType": "uint256",
          "name": "tokenId",
          "type": "uint256"
        }
      ],
      "name": "Transfer",
      "type": "event"
    },
    {
      "inputs": [
        {
          "internalType": "address",
          "name": "to",
          "type": "address"
        },
        {
          "internalType": "uint256",
          "name": "tokenId",
          "type": "uint256"
        }
      ],
      "name": "approve",
      "outputs": [],
      "stateMutability": "nonpayable",
      "type": "function"
    },
    {
      "inputs": [
        {
          "internalType": "address",
          "name": "owner",
          "type": "address"
        }
      ],
      "name": "balanceOf",
      "outputs": [
        {
          "internalType": "uint256",
          "name": "",
          "type": "uint256"
        }
      ],
      "stateMutability": "view",
      "type": "function"
    },
    {
      "inputs": [
        {
          "internalType": "uint256",
          "name": "tokenId",
          "type": "uint256"
        }
      ],
      "name": "getApproved",
      "outputs": [
        {
          "internalType": "address",
          "name": "",
          "type": "address"
        }
      ],
      "stateMutability": "view",
      "type": "function"
    },
    {
      "inputs": [
        {
          "internalType": "address",
          "name": "owner",
          "type": "address"
        },
        {
          "internalType": "address",
          "name": "operator",
          "type": "address"
        }
      ],
      "name": "isApprovedForAll",
      "outputs": [
        {
          "internalType": "bool",
          "name": "",
          "type": "bool"
        }
      ],
      "stateMutability": "view",
      "type": "function"
    },
    {
      "inputs": [],
      "name": "name",
      "outputs": [
        {
          "internalType": "string",
          "name": "",
          "type": "string"
        }
      ],
      "stateMutability": "view",
      "type": "function"
    },
    {
      "inputs": [
        {
          "internalType": "uint256",
          "name": "tokenId",
          "type": "uint256"
        }
      ],
      "name": "ownerOf",
      "outputs": [
        {
          "internalType": "address",
          "name": "",
          "type": "address"
        }
      ],
      "stateMutability": "view",
      "type": "function"
    },
    {
      "inputs": [
        {
          "internalType": "address",
          "name": "from",
          "type": "address"
        },
        {
          "internalType": "address",
          "name": "to",
          "type": "address"
        },
        {
          "internalType": "uint256",
          "name": "tokenId",
          "type": "uint256"
        }
      ],
      "name": "safeTransferFrom",
      "outputs": [],
      "stateMutability": "nonpayable",
      "type": "function"
    },
    {
      "inputs": [
        {
          "internalType": "address",
          "name": "from",
          "type": "address"
        },
        {
          "internalType": "address",
          "name": "to",
          "type": "address"
        },
        {
          "internalType": "uint256",
          "name": "tokenId",
          "type": "uint256"
        },
        {
          "internalType": "bytes",
          "name": "data",
          "type": "bytes"
        }
      ],
      "name": "safeTransferFrom",
      "outputs": [],
      "stateMutability": "nonpayable",
      "type": "function"
    },
    {
      "inputs": [
        {
          "internalType": "address",
          "name": "operator",
          "type": "address"
        },
        {
          "internalType": "bool",
          "name": "approved",
          "type": "bool"
        }
      ],
      "name": "setApprovalForAll",
      "outputs": [],
      "stateMutability": "nonpayable",
      "type": "function"
    },
    {
      "inputs": [
        {
          "internalType": "bytes4",
          "name": "interfaceId",
          "type": "bytes4"
        }
      ],
      "name": "supportsInterface",
      "outputs": [
        {
          "internalType": "bool",
          "name": "",
          "type": "bool"
        }
      ],
      "stateMutability": "view",
      "type": "function"
    },
    {
      "inputs": [],
      "name": "symbol",
      "outputs": [
        {
          "internalType": "string",
          "name": "",
          "type": "string"
        }
      ],
      "stateMutability": "view",
      "type": "function"
    },
    {
      "inputs": [
        {
          "internalType": "address",
          "name": "from",
          "type": "address"
        },
        {
          "internalType": "address",
          "name": "to",
          "type": "address"
        },
        {
          "internalType": "uint256",
          "name": "tokenId",
          "type": "uint256"
        }
      ],
      "name": "transferFrom",
      "outputs": [],
      "stateMutability": "nonpayable",
      "type": "function"
    },
    {
      "inputs": [
        {
          "internalType": "uint256",
          "name": "_tokenId",
          "type": "uint256"
        }
      ],
      "name": "_minting",
      "outputs": [],
      "stateMutability": "nonpayable",
      "type": "function"
    },
    {
      "inputs": [
        {
          "internalType": "uint256",
          "name": "_tokenId",
          "type": "uint256"
        }
      ],
      "name": "tokenURI",
      "outputs": [
        {
          "internalType": "string",
          "name": "",
          "type": "string"
        }
      ],
      "stateMutability": "pure",
      "type": "function"
    },
    {
      "inputs": [
        {
          "internalType": "uint256",
          "name": "_tokenId",
          "type": "uint256"
        }
      ],
      "name": "burn",
      "outputs": [],
      "stateMutability": "nonpayable",
      "type": "function"
    },
    {
      "inputs": [
        {
          "internalType": "uint256",
          "name": "_tokenId",
          "type": "uint256"
        }
      ],
      "name": "burningsea",
      "outputs": [],
      "stateMutability": "nonpayable",
      "type": "function"
    }
  ],
  "bytecode": "0x608060405234801562000010575f80fd5b5060405162002870380380620028708339818101604052810190620000369190620001ea565b8181815f9081620000489190620004a4565b5080600190816200005a9190620004a4565b505050505062000588565b5f604051905090565b5f80fd5b5f80fd5b5f80fd5b5f80fd5b5f601f19601f8301169050919050565b7f4e487b71000000000000000000000000000000000000000000000000000000005f52604160045260245ffd5b620000c6826200007e565b810181811067ffffffffffffffff82111715620000e857620000e76200008e565b5b80604052505050565b5f620000fc62000065565b90506200010a8282620000bb565b919050565b5f67ffffffffffffffff8211156200012c576200012b6200008e565b5b62000137826200007e565b9050602081019050919050565b5f5b838110156200016357808201518184015260208101905062000146565b5f8484015250505050565b5f620001846200017e846200010f565b620000f1565b905082815260208101848484011115620001a357620001a26200007a565b5b620001b084828562000144565b509392505050565b5f82601f830112620001cf57620001ce62000076565b5b8151620001e18482602086016200016e565b91505092915050565b5f80604083850312156200020357620002026200006e565b5b5f83015167ffffffffffffffff81111562000223576200022262000072565b5b6200023185828601620001b8565b925050602083015167ffffffffffffffff81111562000255576200025462000072565b5b6200026385828601620001b8565b9150509250929050565b5f81519050919050565b7f4e487b71000000000000000000000000000000000000000000000000000000005f52602260045260245ffd5b5f6002820490506001821680620002bc57607f821691505b602082108103620002d257620002d162000277565b5b50919050565b5f819050815f5260205f209050919050565b5f6020601f8301049050919050565b5f82821b905092915050565b5f60088302620003367fffffffffffffffffffffffffffffffffffffffffffffffffffffffffffffffff82620002f9565b620003428683620002f9565b95508019841693508086168417925050509392505050565b5f819050919050565b5f819050919050565b5f6200038c6200038662000380846200035a565b62000363565b6200035a565b9050919050565b5f819050919050565b620003a7836200036c565b620003bf620003b68262000393565b84845462000305565b825550505050565b5f90565b620003d5620003c7565b620003e28184846200039c565b505050565b5b818110156200040957620003fd5f82620003cb565b600181019050620003e8565b5050565b601f82111562000458576200042281620002d8565b6200042d84620002ea565b810160208510156200043d578190505b620004556200044c85620002ea565b830182620003e7565b50505b505050565b5f82821c905092915050565b5f6200047a5f19846008026200045d565b1980831691505092915050565b5f62000494838362000469565b9150826002028217905092915050565b620004af826200026d565b67ffffffffffffffff811115620004cb57620004ca6200008e565b5b620004d78254620002a4565b620004e48282856200040d565b5f60209050601f8311600181146200051a575f841562000505578287015190505b62000511858262000487565b86555062000580565b601f1984166200052a86620002d8565b5f5b8281101562000553578489015182556001820191506020850194506020810190506200052c565b868310156200057357848901516200056f601f89168262000469565b8355505b6001600288020188555050505b505050505050565b6122da80620005965f395ff3fe608060405234801561000f575f80fd5b50600436106100fe575f3560e01c80636352211e11610095578063a22cb46511610064578063a22cb465146102a6578063b88d4fde146102c2578063c87b56dd146102de578063e985e9c51461030e576100fe565b80636352211e1461020c57806370a082311461023c57806395d89b411461026c578063998c9b881461028a576100fe565b806323b872dd116100d157806323b872dd1461019c57806342842e0e146101b857806342966c68146101d4578063562793c7146101f0576100fe565b806301ffc9a71461010257806306fdde0314610132578063081812fc14610150578063095ea7b314610180575b5f80fd5b61011c6004803603810190610117919061168d565b61033e565b60405161012991906116d2565b60405180910390f35b61013a61041f565b6040516101479190611775565b60405180910390f35b61016a600480360381019061016591906117c8565b6104ae565b6040516101779190611832565b60405180910390f35b61019a60048036038101906101959190611875565b6104f0565b005b6101b660048036038101906101b191906118b3565b610606565b005b6101d260048036038101906101cd91906118b3565b610666565b005b6101ee60048036038101906101e991906117c8565b610685565b005b61020a600480360381019061020591906117c8565b6106e1565b005b610226600480360381019061022191906117c8565b6106f9565b6040516102339190611832565b60405180910390f35b61025660048036038101906102519190611903565b61077d565b604051610263919061193d565b60405180910390f35b610274610831565b6040516102819190611775565b60405180910390f35b6102a4600480360381019061029f91906117c8565b6108c1565b005b6102c060048036038101906102bb9190611980565b6108ce565b005b6102dc60048036038101906102d79190611aea565b6108e4565b005b6102f860048036038101906102f391906117c8565b610946565b6040516103059190611775565b60405180910390f35b61032860048036038101906103239190611b6a565b610968565b60405161033591906116d2565b60405180910390f35b5f7f80ac58cd000000000000000000000000000000000000000000000000000000007bffffffffffffffffffffffffffffffffffffffffffffffffffffffff1916827bffffffffffffffffffffffffffffffffffffffffffffffffffffffff1916148061040857507f5b5e139f000000000000000000000000000000000000000000000000000000007bffffffffffffffffffffffffffffffffffffffffffffffffffffffff1916827bffffffffffffffffffffffffffffffffffffffffffffffffffffffff1916145b806104185750610417826109f6565b5b9050919050565b60605f805461042d90611bd5565b80601f016020809104026020016040519081016040528092919081815260200182805461045990611bd5565b80156104a45780601f1061047b576101008083540402835291602001916104a4565b820191905f5260205f20905b81548152906001019060200180831161048757829003601f168201915b5050505050905090565b5f6104b882610a5f565b60045f8381526020019081526020015f205f9054906101000a900473ffffffffffffffffffffffffffffffffffffffff169050919050565b5f6104fa826106f9565b90508073ffffffffffffffffffffffffffffffffffffffff168373ffffffffffffffffffffffffffffffffffffffff160361056a576040517f08c379a000000000000000000000000000000000000000000000000000000000815260040161056190611c75565b60405180910390fd5b8073ffffffffffffffffffffffffffffffffffffffff16610589610aaa565b73ffffffffffffffffffffffffffffffffffffffff1614806105b857506105b7816105b2610aaa565b610968565b5b6105f7576040517f08c379a00000000000000000000000000000000000000000000000000000000081526004016105ee90611d03565b60405180910390fd5b6106018383610ab1565b505050565b610617610611610aaa565b82610b67565b610656576040517f08c379a000000000000000000000000000000000000000000000000000000000815260040161064d90611d91565b60405180910390fd5b610661838383610bfb565b505050565b61068083838360405180602001604052805f8152506108e4565b505050565b610696610690610aaa565b82610b67565b6106d5576040517f08c379a00000000000000000000000000000000000000000000000000000000081526004016106cc90611d91565b60405180910390fd5b6106de81610ee7565b50565b6106f66106ed826106f9565b61dead83610bfb565b50565b5f8061070483611028565b90505f73ffffffffffffffffffffffffffffffffffffffff168173ffffffffffffffffffffffffffffffffffffffff1603610774576040517f08c379a000000000000000000000000000000000000000000000000000000000815260040161076b90611df9565b60405180910390fd5b80915050919050565b5f8073ffffffffffffffffffffffffffffffffffffffff168273ffffffffffffffffffffffffffffffffffffffff16036107ec576040517f08c379a00000000000000000000000000000000000000000000000000000000081526004016107e390611e87565b60405180910390fd5b60035f8373ffffffffffffffffffffffffffffffffffffffff1673ffffffffffffffffffffffffffffffffffffffff1681526020019081526020015f20549050919050565b60606001805461084090611bd5565b80601f016020809104026020016040519081016040528092919081815260200182805461086c90611bd5565b80156108b75780601f1061088e576101008083540402835291602001916108b7565b820191905f5260205f20905b81548152906001019060200180831161089a57829003601f168201915b5050505050905090565b6108cb3382611061565b50565b6108e06108d9610aaa565b8383611274565b5050565b6108f56108ef610aaa565b83610b67565b610934576040517f08c379a000000000000000000000000000000000000000000000000000000000815260040161092b90611d91565b60405180910390fd5b610940848484846113db565b50505050565b6060604051806080016040528060428152602001612263604291399050919050565b5f60055f8473ffffffffffffffffffffffffffffffffffffffff1673ffffffffffffffffffffffffffffffffffffffff1681526020019081526020015f205f8373ffffffffffffffffffffffffffffffffffffffff1673ffffffffffffffffffffffffffffffffffffffff1681526020019081526020015f205f9054906101000a900460ff16905092915050565b5f7f01ffc9a7000000000000000000000000000000000000000000000000000000007bffffffffffffffffffffffffffffffffffffffffffffffffffffffff1916827bffffffffffffffffffffffffffffffffffffffffffffffffffffffff1916149050919050565b610a6881611437565b610aa7576040517f08c379a0000000000000000000000000000000000000000000000000000000008152600401610a9e90611df9565b60405180910390fd5b50565b5f33905090565b8160045f8381526020019081526020015f205f6101000a81548173ffffffffffffffffffffffffffffffffffffffff021916908373ffffffffffffffffffffffffffffffffffffffff160217905550808273ffffffffffffffffffffffffffffffffffffffff16610b21836106f9565b73ffffffffffffffffffffffffffffffffffffffff167f8c5be1e5ebec7d5bd14f71427d1e84f3dd0314c0f7b2291e5b200ac8c7c3b92560405160405180910390a45050565b5f80610b72836106f9565b90508073ffffffffffffffffffffffffffffffffffffffff168473ffffffffffffffffffffffffffffffffffffffff161480610bb45750610bb38185610968565b5b80610bf257508373ffffffffffffffffffffffffffffffffffffffff16610bda846104ae565b73ffffffffffffffffffffffffffffffffffffffff16145b91505092915050565b8273ffffffffffffffffffffffffffffffffffffffff16610c1b826106f9565b73ffffffffffffffffffffffffffffffffffffffff1614610c71576040517f08c379a0000000000000000000000000000000000000000000000000000000008152600401610c6890611f15565b60405180910390fd5b5f73ffffffffffffffffffffffffffffffffffffffff168273ffffffffffffffffffffffffffffffffffffffff1603610cdf576040517f08c379a0000000000000000000000000000000000000000000000000000000008152600401610cd690611fa3565b60405180910390fd5b610cec8383836001611477565b8273ffffffffffffffffffffffffffffffffffffffff16610d0c826106f9565b73ffffffffffffffffffffffffffffffffffffffff1614610d62576040517f08c379a0000000000000000000000000000000000000000000000000000000008152600401610d5990611f15565b60405180910390fd5b60045f8281526020019081526020015f205f6101000a81549073ffffffffffffffffffffffffffffffffffffffff0219169055600160035f8573ffffffffffffffffffffffffffffffffffffffff1673ffffffffffffffffffffffffffffffffffffffff1681526020019081526020015f205f8282540392505081905550600160035f8473ffffffffffffffffffffffffffffffffffffffff1673ffffffffffffffffffffffffffffffffffffffff1681526020019081526020015f205f82825401925050819055508160025f8381526020019081526020015f205f6101000a81548173ffffffffffffffffffffffffffffffffffffffff021916908373ffffffffffffffffffffffffffffffffffffffff160217905550808273ffffffffffffffffffffffffffffffffffffffff168473ffffffffffffffffffffffffffffffffffffffff167fddf252ad1be2c89b69c2b068fc378daa952ba7f163c4a11628f55a4df523b3ef60405160405180910390a4610ee2838383600161147d565b505050565b5f610ef1826106f9565b9050610f00815f846001611477565b610f09826106f9565b905060045f8381526020019081526020015f205f6101000a81549073ffffffffffffffffffffffffffffffffffffffff0219169055600160035f8373ffffffffffffffffffffffffffffffffffffffff1673ffffffffffffffffffffffffffffffffffffffff1681526020019081526020015f205f828254039250508190555060025f8381526020019081526020015f205f6101000a81549073ffffffffffffffffffffffffffffffffffffffff0219169055815f73ffffffffffffffffffffffffffffffffffffffff168273ffffffffffffffffffffffffffffffffffffffff167fddf252ad1be2c89b69c2b068fc378daa952ba7f163c4a11628f55a4df523b3ef60405160405180910390a4611024815f84600161147d565b5050565b5f60025f8381526020019081526020015f205f9054906101000a900473ffffffffffffffffffffffffffffffffffffffff169050919050565b5f73ffffffffffffffffffffffffffffffffffffffff168273ffffffffffffffffffffffffffffffffffffffff16036110cf576040517f08c379a00000000000000000000000000000000000000000000000000000000081526004016110c69061200b565b60405180910390fd5b6110d881611437565b15611118576040517f08c379a000000000000000000000000000000000000000000000000000000000815260040161110f90612073565b60405180910390fd5b6111255f83836001611477565b61112e81611437565b1561116e576040517f08c379a000000000000000000000000000000000000000000000000000000000815260040161116590612073565b60405180910390fd5b600160035f8473ffffffffffffffffffffffffffffffffffffffff1673ffffffffffffffffffffffffffffffffffffffff1681526020019081526020015f205f82825401925050819055508160025f8381526020019081526020015f205f6101000a81548173ffffffffffffffffffffffffffffffffffffffff021916908373ffffffffffffffffffffffffffffffffffffffff160217905550808273ffffffffffffffffffffffffffffffffffffffff165f73ffffffffffffffffffffffffffffffffffffffff167fddf252ad1be2c89b69c2b068fc378daa952ba7f163c4a11628f55a4df523b3ef60405160405180910390a46112705f8383600161147d565b5050565b8173ffffffffffffffffffffffffffffffffffffffff168373ffffffffffffffffffffffffffffffffffffffff16036112e2576040517f08c379a00000000000000000000000000000000000000000000000000000000081526004016112d9906120db565b60405180910390fd5b8060055f8573ffffffffffffffffffffffffffffffffffffffff1673ffffffffffffffffffffffffffffffffffffffff1681526020019081526020015f205f8473ffffffffffffffffffffffffffffffffffffffff1673ffffffffffffffffffffffffffffffffffffffff1681526020019081526020015f205f6101000a81548160ff0219169083151502179055508173ffffffffffffffffffffffffffffffffffffffff168373ffffffffffffffffffffffffffffffffffffffff167f17307eab39ab6107e8899845ad3d59bd9653f200f220920489ca2b5937696c31836040516113ce91906116d2565b60405180910390a3505050565b6113e6848484610bfb565b6113f284848484611483565b611431576040517f08c379a000000000000000000000000000000000000000000000000000000000815260040161142890612169565b60405180910390fd5b50505050565b5f8073ffffffffffffffffffffffffffffffffffffffff1661145883611028565b73ffffffffffffffffffffffffffffffffffffffff1614159050919050565b50505050565b50505050565b5f6114a38473ffffffffffffffffffffffffffffffffffffffff16611605565b156115f8578373ffffffffffffffffffffffffffffffffffffffff1663150b7a026114cc610aaa565b8786866040518563ffffffff1660e01b81526004016114ee94939291906121d9565b6020604051808303815f875af192505050801561152957506040513d601f19601f820116820180604052508101906115269190612237565b60015b6115a8573d805f8114611557576040519150601f19603f3d011682016040523d82523d5f602084013e61155c565b606091505b505f8151036115a0576040517f08c379a000000000000000000000000000000000000000000000000000000000815260040161159790612169565b60405180910390fd5b805181602001fd5b63150b7a0260e01b7bffffffffffffffffffffffffffffffffffffffffffffffffffffffff1916817bffffffffffffffffffffffffffffffffffffffffffffffffffffffff1916149150506115fd565b600190505b949350505050565b5f808273ffffffffffffffffffffffffffffffffffffffff163b119050919050565b5f604051905090565b5f80fd5b5f80fd5b5f7fffffffff0000000000000000000000000000000000000000000000000000000082169050919050565b61166c81611638565b8114611676575f80fd5b50565b5f8135905061168781611663565b92915050565b5f602082840312156116a2576116a1611630565b5b5f6116af84828501611679565b91505092915050565b5f8115159050919050565b6116cc816116b8565b82525050565b5f6020820190506116e55f8301846116c3565b92915050565b5f81519050919050565b5f82825260208201905092915050565b5f5b83811015611722578082015181840152602081019050611707565b5f8484015250505050565b5f601f19601f8301169050919050565b5f611747826116eb565b61175181856116f5565b9350611761818560208601611705565b61176a8161172d565b840191505092915050565b5f6020820190508181035f83015261178d818461173d565b905092915050565b5f819050919050565b6117a781611795565b81146117b1575f80fd5b50565b5f813590506117c28161179e565b92915050565b5f602082840312156117dd576117dc611630565b5b5f6117ea848285016117b4565b91505092915050565b5f73ffffffffffffffffffffffffffffffffffffffff82169050919050565b5f61181c826117f3565b9050919050565b61182c81611812565b82525050565b5f6020820190506118455f830184611823565b92915050565b61185481611812565b811461185e575f80fd5b50565b5f8135905061186f8161184b565b92915050565b5f806040838503121561188b5761188a611630565b5b5f61189885828601611861565b92505060206118a9858286016117b4565b9150509250929050565b5f805f606084860312156118ca576118c9611630565b5b5f6118d786828701611861565b93505060206118e886828701611861565b92505060406118f9868287016117b4565b9150509250925092565b5f6020828403121561191857611917611630565b5b5f61192584828501611861565b91505092915050565b61193781611795565b82525050565b5f6020820190506119505f83018461192e565b92915050565b61195f816116b8565b8114611969575f80fd5b50565b5f8135905061197a81611956565b92915050565b5f806040838503121561199657611995611630565b5b5f6119a385828601611861565b92505060206119b48582860161196c565b9150509250929050565b5f80fd5b5f80fd5b7f4e487b71000000000000000000000000000000000000000000000000000000005f52604160045260245ffd5b6119fc8261172d565b810181811067ffffffffffffffff82111715611a1b57611a1a6119c6565b5b80604052505050565b5f611a2d611627565b9050611a3982826119f3565b919050565b5f67ffffffffffffffff821115611a5857611a576119c6565b5b611a618261172d565b9050602081019050919050565b828183375f83830152505050565b5f611a8e611a8984611a3e565b611a24565b905082815260208101848484011115611aaa57611aa96119c2565b5b611ab5848285611a6e565b509392505050565b5f82601f830112611ad157611ad06119be565b5b8135611ae1848260208601611a7c565b91505092915050565b5f805f8060808587031215611b0257611b01611630565b5b5f611b0f87828801611861565b9450506020611b2087828801611861565b9350506040611b31878288016117b4565b925050606085013567ffffffffffffffff811115611b5257611b51611634565b5b611b5e87828801611abd565b91505092959194509250565b5f8060408385031215611b8057611b7f611630565b5b5f611b8d85828601611861565b9250506020611b9e85828601611861565b9150509250929050565b7f4e487b71000000000000000000000000000000000000000000000000000000005f52602260045260245ffd5b5f6002820490506001821680611bec57607f821691505b602082108103611bff57611bfe611ba8565b5b50919050565b7f4552433732313a20617070726f76616c20746f2063757272656e74206f776e655f8201527f7200000000000000000000000000000000000000000000000000000000000000602082015250565b5f611c5f6021836116f5565b9150611c6a82611c05565b604082019050919050565b5f6020820190508181035f830152611c8c81611c53565b9050919050565b7f4552433732313a20617070726f76652063616c6c6572206973206e6f7420746f5f8201527f6b656e206f776e6572206f7220617070726f76656420666f7220616c6c000000602082015250565b5f611ced603d836116f5565b9150611cf882611c93565b604082019050919050565b5f6020820190508181035f830152611d1a81611ce1565b9050919050565b7f4552433732313a2063616c6c6572206973206e6f7420746f6b656e206f776e655f8201527f72206f7220617070726f76656400000000000000000000000000000000000000602082015250565b5f611d7b602d836116f5565b9150611d8682611d21565b604082019050919050565b5f6020820190508181035f830152611da881611d6f565b9050919050565b7f4552433732313a20696e76616c696420746f6b656e20494400000000000000005f82015250565b5f611de36018836116f5565b9150611dee82611daf565b602082019050919050565b5f6020820190508181035f830152611e1081611dd7565b9050919050565b7f4552433732313a2061646472657373207a65726f206973206e6f7420612076615f8201527f6c6964206f776e65720000000000000000000000000000000000000000000000602082015250565b5f611e716029836116f5565b9150611e7c82611e17565b604082019050919050565b5f6020820190508181035f830152611e9e81611e65565b9050919050565b7f4552433732313a207472616e736665722066726f6d20696e636f7272656374205f8201527f6f776e6572000000000000000000000000000000000000000000000000000000602082015250565b5f611eff6025836116f5565b9150611f0a82611ea5565b604082019050919050565b5f6020820190508181035f830152611f2c81611ef3565b9050919050565b7f4552433732313a207472616e7366657220746f20746865207a65726f206164645f8201527f7265737300000000000000000000000000000000000000000000000000000000602082015250565b5f611f8d6024836116f5565b9150611f9882611f33565b604082019050919050565b5f6020820190508181035f830152611fba81611f81565b9050919050565b7f4552433732313a206d696e7420746f20746865207a65726f20616464726573735f82015250565b5f611ff56020836116f5565b915061200082611fc1565b602082019050919050565b5f6020820190508181035f83015261202281611fe9565b9050919050565b7f4552433732313a20746f6b656e20616c7265616479206d696e746564000000005f82015250565b5f61205d601c836116f5565b915061206882612029565b602082019050919050565b5f6020820190508181035f83015261208a81612051565b9050919050565b7f4552433732313a20617070726f766520746f2063616c6c6572000000000000005f82015250565b5f6120c56019836116f5565b91506120d082612091565b602082019050919050565b5f6020820190508181035f8301526120f2816120b9565b9050919050565b7f4552433732313a207472616e7366657220746f206e6f6e2045524337323152655f8201527f63656976657220696d706c656d656e7465720000000000000000000000000000602082015250565b5f6121536032836116f5565b915061215e826120f9565b604082019050919050565b5f6020820190508181035f83015261218081612147565b9050919050565b5f81519050919050565b5f82825260208201905092915050565b5f6121ab82612187565b6121b58185612191565b93506121c5818560208601611705565b6121ce8161172d565b840191505092915050565b5f6080820190506121ec5f830187611823565b6121f96020830186611823565b612206604083018561192e565b818103606083015261221881846121a1565b905095945050505050565b5f8151905061223181611663565b92915050565b5f6020828403121561224c5761224b611630565b5b5f61225984828501612223565b9150509291505056fe697066733a2f2f6261666b72656961756b676e3662726c7a6b77697565647a346b32337661323267776d79647778326e68766c6f6d706e7279716f36366d65676f34a2646970667358221220c4e642670815ad78db657b4db4194335cb4003d024a64e823f8016e544d1f21a64736f6c63430008140033",
  "immutableReferences": {},
  "source": "// SPDX-License-Identifier: MIT\npragma solidity ^0.8.0;\n\nimport '../node_modules/@openzeppelin/contracts/token/ERC721/extensions/ERC721Enumerable.sol';\n\nimport '../node_modules/@openzeppelin/contracts/token/ERC721/ERC721.sol';\n\ncontract Minting is ERC721 {\n    //ERC 721    ERC721(_name, _symbol)\n    constructor(string memory _name, string memory _symbol) ERC721(_name, _symbol) {\n\n    }\n\n    function _minting(uint _tokenId) public {\n        _mint(msg.sender, _tokenId);\n        // _tokenId :   , msg.sender :   \n    }\n\n    function tokenURI(uint _tokenId) public override pure returns (string memory) {\n        return 'ipfs://bafkreiaukgn6brlzkwiuedz4k23va22gwmydwx2nhvlompnryqo66mego4';\n    }\n    // NFT   JSON  \n    function burn(uint _tokenId) public {\n        require(_isApprovedOrOwner(_msgSender(), _tokenId), \"ERC721: caller is not token owner or approved\");\n        _burn(_tokenId);\n    }\n\n    function burningsea(uint _tokenId) public {\n        _transfer(ownerOf(_tokenId), 0x000000000000000000000000000000000000dEaD, _tokenId);\n    }\n\n    function _Transfer(address from, address to, uint256 tokenId, bytes memory data) internal virtual {\n        _safeTransfer(from, to, tokenId, data);\n    }\n\n}\n\n\n",
  "sourcePath": "/Users/guarantable/bitbucket/truffle/contracts/Minting.sol",
  "compiler": {
    "name": "solc",
    "version": "0.8.20+commit.a1b79de6.Emscripten.clang"
  },
  "schemaVersion": "3.4.14",
  "updatedAt": "2023-07-14T05:57:46.771Z",
  "devdoc": {
    "events": {
      "Approval(address,address,uint256)": {
        "details": "Emitted when `owner` enables `approved` to manage the `tokenId` token."
      },
      "ApprovalForAll(address,address,bool)": {
        "details": "Emitted when `owner` enables or disables (`approved`) `operator` to manage all of its assets."
      },
      "Transfer(address,address,uint256)": {
        "details": "Emitted when `tokenId` token is transferred from `from` to `to`."
      }
    },
    "kind": "dev",
    "methods": {
      "approve(address,uint256)": {
        "details": "See {IERC721-approve}."
      },
      "balanceOf(address)": {
        "details": "See {IERC721-balanceOf}."
      },
      "getApproved(uint256)": {
        "details": "See {IERC721-getApproved}."
      },
      "isApprovedForAll(address,address)": {
        "details": "See {IERC721-isApprovedForAll}."
      },
      "name()": {
        "details": "See {IERC721Metadata-name}."
      },
      "ownerOf(uint256)": {
        "details": "See {IERC721-ownerOf}."
      },
      "safeTransferFrom(address,address,uint256)": {
        "details": "See {IERC721-safeTransferFrom}."
      },
      "safeTransferFrom(address,address,uint256,bytes)": {
        "details": "See {IERC721-safeTransferFrom}."
      },
      "setApprovalForAll(address,bool)": {
        "details": "See {IERC721-setApprovalForAll}."
      },
      "supportsInterface(bytes4)": {
        "details": "See {IERC165-supportsInterface}."
      },
      "symbol()": {
        "details": "See {IERC721Metadata-symbol}."
      },
      "transferFrom(address,address,uint256)": {
        "details": "See {IERC721-transferFrom}."
      }
    },
    "version": 1
  },
  "userdoc": {
    "kind": "user",
    "methods": {},
    "version": 1
  }
}