{
  "contractName": "Copyright",
  "abi": [
    {
      "inputs": [
        {
          "internalType": "address",
          "name": "sender",
          "type": "address"
        },
        {
          "internalType": "uint256",
          "name": "tokenId",
          "type": "uint256"
        },
        {
          "internalType": "address",
          "name": "owner",
          "type": "address"
        }
      ],
      "name": "ERC721IncorrectOwner",
      "type": "error"
    },
    {
      "inputs": [
        {
          "internalType": "address",
          "name": "operator",
          "type": "address"
        },
        {
          "internalType": "uint256",
          "name": "tokenId",
          "type": "uint256"
        }
      ],
      "name": "ERC721InsufficientApproval",
      "type": "error"
    },
    {
      "inputs": [
        {
          "internalType": "address",
          "name": "approver",
          "type": "address"
        }
      ],
      "name": "ERC721InvalidApprover",
      "type": "error"
    },
    {
      "inputs": [
        {
          "internalType": "address",
          "name": "operator",
          "type": "address"
        }
      ],
      "name": "ERC721InvalidOperator",
      "type": "error"
    },
    {
      "inputs": [
        {
          "internalType": "address",
          "name": "owner",
          "type": "address"
        }
      ],
      "name": "ERC721InvalidOwner",
      "type": "error"
    },
    {
      "inputs": [
        {
          "internalType": "address",
          "name": "receiver",
          "type": "address"
        }
      ],
      "name": "ERC721InvalidReceiver",
      "type": "error"
    },
    {
      "inputs": [
        {
          "internalType": "address",
          "name": "sender",
          "type": "address"
        }
      ],
      "name": "ERC721InvalidSender",
      "type": "error"
    },
    {
      "inputs": [
        {
          "internalType": "uint256",
          "name": "tokenId",
          "type": "uint256"
        }
      ],
      "name": "ERC721NonexistentToken",
      "type": "error"
    },
    {
      "inputs": [],
      "name": "InvalidInitialization",
      "type": "error"
    },
    {
      "inputs": [],
      "name": "NotInitializing",
      "type": "error"
    },
    {
      "anonymous": false,
      "inputs": [
        {
          "indexed": true,
          "internalType": "address",
          "name": "owner",
          "type": "address"
        },
        {
          "indexed": true,
          "internalType": "address",
          "name": "approved",
          "type": "address"
        },
        {
          "indexed": true,
          "internalType": "uint256",
          "name": "tokenId",
          "type": "uint256"
        }
      ],
      "name": "Approval",
      "type": "event"
    },
    {
      "anonymous": false,
      "inputs": [
        {
          "indexed": true,
          "internalType": "address",
          "name": "owner",
          "type": "address"
        },
        {
          "indexed": true,
          "internalType": "address",
          "name": "operator",
          "type": "address"
        },
        {
          "indexed": false,
          "internalType": "bool",
          "name": "approved",
          "type": "bool"
        }
      ],
      "name": "ApprovalForAll",
      "type": "event"
    },
    {
      "anonymous": false,
      "inputs": [
        {
          "indexed": false,
          "internalType": "uint64",
          "name": "version",
          "type": "uint64"
        }
      ],
      "name": "Initialized",
      "type": "event"
    },
    {
      "anonymous": false,
      "inputs": [
        {
          "indexed": true,
          "internalType": "address",
          "name": "from",
          "type": "address"
        },
        {
          "indexed": true,
          "internalType": "address",
          "name": "to",
          "type": "address"
        },
        {
          "indexed": true,
          "internalType": "uint256",
          "name": "tokenId",
          "type": "uint256"
        }
      ],
      "name": "Transfer",
      "type": "event"
    },
    {
      "inputs": [
        {
          "internalType": "address",
          "name": "to",
          "type": "address"
        },
        {
          "internalType": "uint256",
          "name": "tokenId",
          "type": "uint256"
        }
      ],
      "name": "approve",
      "outputs": [],
      "stateMutability": "nonpayable",
      "type": "function"
    },
    {
      "inputs": [
        {
          "internalType": "address",
          "name": "owner",
          "type": "address"
        }
      ],
      "name": "balanceOf",
      "outputs": [
        {
          "internalType": "uint256",
          "name": "",
          "type": "uint256"
        }
      ],
      "stateMutability": "view",
      "type": "function",
      "constant": true
    },
    {
      "inputs": [
        {
          "internalType": "uint256",
          "name": "tokenId",
          "type": "uint256"
        }
      ],
      "name": "getApproved",
      "outputs": [
        {
          "internalType": "address",
          "name": "",
          "type": "address"
        }
      ],
      "stateMutability": "view",
      "type": "function",
      "constant": true
    },
    {
      "inputs": [
        {
          "internalType": "address",
          "name": "owner",
          "type": "address"
        },
        {
          "internalType": "address",
          "name": "operator",
          "type": "address"
        }
      ],
      "name": "isApprovedForAll",
      "outputs": [
        {
          "internalType": "bool",
          "name": "",
          "type": "bool"
        }
      ],
      "stateMutability": "view",
      "type": "function",
      "constant": true
    },
    {
      "inputs": [],
      "name": "name",
      "outputs": [
        {
          "internalType": "string",
          "name": "",
          "type": "string"
        }
      ],
      "stateMutability": "view",
      "type": "function",
      "constant": true
    },
    {
      "inputs": [
        {
          "internalType": "uint256",
          "name": "tokenId",
          "type": "uint256"
        }
      ],
      "name": "ownerOf",
      "outputs": [
        {
          "internalType": "address",
          "name": "",
          "type": "address"
        }
      ],
      "stateMutability": "view",
      "type": "function",
      "constant": true
    },
    {
      "inputs": [
        {
          "internalType": "address",
          "name": "from",
          "type": "address"
        },
        {
          "internalType": "address",
          "name": "to",
          "type": "address"
        },
        {
          "internalType": "uint256",
          "name": "tokenId",
          "type": "uint256"
        }
      ],
      "name": "safeTransferFrom",
      "outputs": [],
      "stateMutability": "nonpayable",
      "type": "function"
    },
    {
      "inputs": [
        {
          "internalType": "address",
          "name": "from",
          "type": "address"
        },
        {
          "internalType": "address",
          "name": "to",
          "type": "address"
        },
        {
          "internalType": "uint256",
          "name": "tokenId",
          "type": "uint256"
        },
        {
          "internalType": "bytes",
          "name": "data",
          "type": "bytes"
        }
      ],
      "name": "safeTransferFrom",
      "outputs": [],
      "stateMutability": "nonpayable",
      "type": "function"
    },
    {
      "inputs": [
        {
          "internalType": "address",
          "name": "operator",
          "type": "address"
        },
        {
          "internalType": "bool",
          "name": "approved",
          "type": "bool"
        }
      ],
      "name": "setApprovalForAll",
      "outputs": [],
      "stateMutability": "nonpayable",
      "type": "function"
    },
    {
      "inputs": [
        {
          "internalType": "bytes4",
          "name": "interfaceId",
          "type": "bytes4"
        }
      ],
      "name": "supportsInterface",
      "outputs": [
        {
          "internalType": "bool",
          "name": "",
          "type": "bool"
        }
      ],
      "stateMutability": "view",
      "type": "function",
      "constant": true
    },
    {
      "inputs": [],
      "name": "symbol",
      "outputs": [
        {
          "internalType": "string",
          "name": "",
          "type": "string"
        }
      ],
      "stateMutability": "view",
      "type": "function",
      "constant": true
    },
    {
      "inputs": [
        {
          "internalType": "uint256",
          "name": "tokenId",
          "type": "uint256"
        }
      ],
      "name": "tokenURI",
      "outputs": [
        {
          "internalType": "string",
          "name": "",
          "type": "string"
        }
      ],
      "stateMutability": "view",
      "type": "function",
      "constant": true
    },
    {
      "inputs": [
        {
          "internalType": "address",
          "name": "from",
          "type": "address"
        },
        {
          "internalType": "address",
          "name": "to",
          "type": "address"
        },
        {
          "internalType": "uint256",
          "name": "tokenId",
          "type": "uint256"
        }
      ],
      "name": "transferFrom",
      "outputs": [],
      "stateMutability": "nonpayable",
      "type": "function"
    },
    {
      "inputs": [],
      "name": "initialize",
      "outputs": [],
      "stateMutability": "nonpayable",
      "type": "function"
    },
    {
      "inputs": [
        {
          "internalType": "uint256",
          "name": "copyrightId",
          "type": "uint256"
        },
        {
          "internalType": "bool",
          "name": "sellYn",
          "type": "bool"
        }
      ],
      "name": "modifySellYn",
      "outputs": [],
      "stateMutability": "nonpayable",
      "type": "function"
    },
    {
      "inputs": [
        {
          "internalType": "uint256",
          "name": "copyrightId",
          "type": "uint256"
        },
        {
          "internalType": "string",
          "name": "tokenUri",
          "type": "string"
        }
      ],
      "name": "modifyTokenUri",
      "outputs": [],
      "stateMutability": "nonpayable",
      "type": "function"
    },
    {
      "inputs": [
        {
          "internalType": "address",
          "name": "downloadContractAddress",
          "type": "address"
        }
      ],
      "name": "setDtAddress",
      "outputs": [],
      "stateMutability": "nonpayable",
      "type": "function"
    },
    {
      "inputs": [
        {
          "internalType": "uint256",
          "name": "copyrightId",
          "type": "uint256"
        },
        {
          "internalType": "string",
          "name": "tokenUri",
          "type": "string"
        },
        {
          "internalType": "bool",
          "name": "sellYn",
          "type": "bool"
        }
      ],
      "name": "mintCopyright",
      "outputs": [],
      "stateMutability": "nonpayable",
      "type": "function"
    },
    {
      "inputs": [
        {
          "internalType": "uint256",
          "name": "copyrightId",
          "type": "uint256"
        },
        {
          "internalType": "uint256",
          "name": "counter",
          "type": "uint256"
        },
        {
          "internalType": "uint256",
          "name": "price",
          "type": "uint256"
        },
        {
          "internalType": "string",
          "name": "tokenUri",
          "type": "string"
        }
      ],
      "name": "buyDownloadTicket",
      "outputs": [],
      "stateMutability": "nonpayable",
      "type": "function"
    },
    {
      "inputs": [
        {
          "internalType": "uint256",
          "name": "copyrightId",
          "type": "uint256"
        }
      ],
      "name": "useDownload",
      "outputs": [],
      "stateMutability": "nonpayable",
      "type": "function"
    },
    {
      "inputs": [
        {
          "internalType": "uint256",
          "name": "downloadId",
          "type": "uint256"
        },
        {
          "internalType": "string",
          "name": "tokenUri",
          "type": "string"
        }
      ],
      "name": "modifyDownloadTokenUri",
      "outputs": [],
      "stateMutability": "nonpayable",
      "type": "function"
    },
    {
      "inputs": [
        {
          "internalType": "uint256",
          "name": "downloadId",
          "type": "uint256"
        },
        {
          "internalType": "uint256",
          "name": "totalCnt",
          "type": "uint256"
        }
      ],
      "name": "modifyDownloadTotalCnt",
      "outputs": [],
      "stateMutability": "nonpayable",
      "type": "function"
    }
  ],
  "bytecode": "0x608060405234801561000f575f80fd5b50612f708061001d5f395ff3fe608060405234801561000f575f80fd5b5060043610610140575f3560e01c80638d2110c2116100b6578063b88d4fde1161007a578063b88d4fde14610346578063c4dafd4d14610362578063c87b56dd1461037e578063d253bf94146103ae578063d4356bf4146103ca578063e985e9c5146103e657610140565b80638d2110c2146102b857806395d89b41146102d45780639aad418c146102f2578063a22cb4651461030e578063aba9520d1461032a57610140565b806323b872dd1161010857806323b872dd146101fa5780633e6c4b211461021657806342842e0e146102325780636352211e1461024e57806370a082311461027e5780638129fc1c146102ae57610140565b806301ffc9a71461014457806306fdde0314610174578063081812fc14610192578063095ea7b3146101c25780630bb43724146101de575b5f80fd5b61015e60048036038101906101599190611fb0565b610416565b60405161016b9190611ff5565b60405180910390f35b61017c6104f7565b6040516101899190612098565b60405180910390f35b6101ac60048036038101906101a791906120eb565b610586565b6040516101b99190612155565b60405180910390f35b6101dc60048036038101906101d79190612198565b6105a1565b005b6101f860048036038101906101f39190612302565b6105b7565b005b610214600480360381019061020f919061235c565b610652565b005b610230600480360381019061022b91906123ac565b610751565b005b61024c6004803603810190610247919061235c565b610794565b005b610268600480360381019061026391906120eb565b6107b3565b6040516102759190612155565b60405180910390f35b610298600480360381019061029391906123ac565b6107c4565b6040516102a591906123e6565b60405180910390f35b6102b661087a565b005b6102d260048036038101906102cd91906123ff565b610a31565b005b6102dc610b98565b6040516102e99190612098565b60405180910390f35b61030c6004803603810190610307919061243d565b610c28565b005b610328600480360381019061032391906124e7565b610da2565b005b610344600480360381019061033f9190612302565b610db8565b005b610360600480360381019061035b91906125c3565b610f1f565b005b61037c60048036038101906103779190612643565b610f3c565b005b610398600480360381019061039391906120eb565b610fe3565b6040516103a59190612098565b60405180910390f35b6103c860048036038101906103c391906120eb565b611049565b005b6103e460048036038101906103df9190612681565b6110fe565b005b61040060048036038101906103fb91906126ed565b611157565b60405161040d9190611ff5565b60405180910390f35b5f7f80ac58cd000000000000000000000000000000000000000000000000000000007bffffffffffffffffffffffffffffffffffffffffffffffffffffffff1916827bffffffffffffffffffffffffffffffffffffffffffffffffffffffff191614806104e057507f5b5e139f000000000000000000000000000000000000000000000000000000007bffffffffffffffffffffffffffffffffffffffffffffffffffffffff1916827bffffffffffffffffffffffffffffffffffffffffffffffffffffffff1916145b806104f057506104ef826111e5565b5b9050919050565b60605f805461050590612758565b80601f016020809104026020016040519081016040528092919081815260200182805461053190612758565b801561057c5780601f106105535761010080835404028352916020019161057c565b820191905f5260205f20905b81548152906001019060200180831161055f57829003601f168201915b5050505050905090565b5f6105908261124e565b5061059a826112d4565b9050919050565b6105b382826105ae61130d565b611314565b5050565b816105c1816107b3565b73ffffffffffffffffffffffffffffffffffffffff163373ffffffffffffffffffffffffffffffffffffffff161461062e576040517f08c379a0000000000000000000000000000000000000000000000000000000008152600401610625906127f8565b60405180910390fd5b8160085f8581526020019081526020015f20908161064c91906129b3565b50505050565b5f73ffffffffffffffffffffffffffffffffffffffff168273ffffffffffffffffffffffffffffffffffffffff16036106c2575f6040517f64a0ae920000000000000000000000000000000000000000000000000000000081526004016106b99190612155565b60405180910390fd5b5f6106d583836106d061130d565b611326565b90508373ffffffffffffffffffffffffffffffffffffffff168173ffffffffffffffffffffffffffffffffffffffff161461074b578382826040517f64283d7b00000000000000000000000000000000000000000000000000000000815260040161074293929190612a82565b60405180910390fd5b50505050565b8060065f6101000a81548173ffffffffffffffffffffffffffffffffffffffff021916908373ffffffffffffffffffffffffffffffffffffffff16021790555050565b6107ae83838360405180602001604052805f815250610f1f565b505050565b5f6107bd8261124e565b9050919050565b5f8073ffffffffffffffffffffffffffffffffffffffff168273ffffffffffffffffffffffffffffffffffffffff1603610835575f6040517f89c62b6400000000000000000000000000000000000000000000000000000000815260040161082c9190612155565b60405180910390fd5b60035f8373ffffffffffffffffffffffffffffffffffffffff1673ffffffffffffffffffffffffffffffffffffffff1681526020019081526020015f20549050919050565b5f610883611531565b90505f815f0160089054906101000a900460ff161590505f825f015f9054906101000a900467ffffffffffffffff1690505f808267ffffffffffffffff161480156108cb5750825b90505f60018367ffffffffffffffff161480156108fe57505f3073ffffffffffffffffffffffffffffffffffffffff163b145b90508115801561090c575080155b15610943576040517ff92ee8a900000000000000000000000000000000000000000000000000000000815260040160405180910390fd5b6001855f015f6101000a81548167ffffffffffffffff021916908367ffffffffffffffff1602179055508315610990576001855f0160086101000a81548160ff0219169083151502179055505b3360075f6101000a81548173ffffffffffffffffffffffffffffffffffffffff021916908373ffffffffffffffffffffffffffffffffffffffff1602179055508315610a2a575f855f0160086101000a81548160ff0219169083151502179055507fc7f505b2f371ae2175ee4913f4499e1f2633a7b5936321eed1cdaeb6115181d26001604051610a219190612b03565b60405180910390a15b5050505050565b610ad560065f9054906101000a900473ffffffffffffffffffffffffffffffffffffffff1673ffffffffffffffffffffffffffffffffffffffff16638167ac53846040518263ffffffff1660e01b8152600401610a8e91906123e6565b606060405180830381865afa158015610aa9573d5f803e3d5ffd5b505050506040513d601f19601f82011682018060405250810190610acd9190612b95565b5f01516107b3565b73ffffffffffffffffffffffffffffffffffffffff163373ffffffffffffffffffffffffffffffffffffffff1614610b0b575f80fd5b60065f9054906101000a900473ffffffffffffffffffffffffffffffffffffffff1673ffffffffffffffffffffffffffffffffffffffff16638d2110c283836040518363ffffffff1660e01b8152600401610b67929190612bc0565b5f604051808303815f87803b158015610b7e575f80fd5b505af1158015610b90573d5f803e3d5ffd5b505050505050565b606060018054610ba790612758565b80601f0160208091040260200160405190810160405280929190818152602001828054610bd390612758565b8015610c1e5780601f10610bf557610100808354040283529160200191610c1e565b820191905f5260205f20905b815481529060010190602001808311610c0157829003601f168201915b5050505050905090565b610c31846107b3565b73ffffffffffffffffffffffffffffffffffffffff163373ffffffffffffffffffffffffffffffffffffffff1614610c9e576040517f08c379a0000000000000000000000000000000000000000000000000000000008152600401610c9590612c57565b60405180910390fd5b5f60065f9054906101000a900473ffffffffffffffffffffffffffffffffffffffff1673ffffffffffffffffffffffffffffffffffffffff1663830f11bf33878787876040518663ffffffff1660e01b8152600401610d01959493929190612c75565b6020604051808303815f875af1158015610d1d573d5f803e3d5ffd5b505050506040513d601f19601f82011682018060405250810190610d419190612ce1565b90508015610d735760095f8681526020019081526020015f206001015f815480929190610d6d90612d39565b91905055505b60095f8681526020019081526020015f205f015f815480929190610d9690612d39565b91905055505050505050565b610db4610dad61130d565b8383611558565b5050565b610e5c60065f9054906101000a900473ffffffffffffffffffffffffffffffffffffffff1673ffffffffffffffffffffffffffffffffffffffff16638167ac53846040518263ffffffff1660e01b8152600401610e1591906123e6565b606060405180830381865afa158015610e30573d5f803e3d5ffd5b505050506040513d601f19601f82011682018060405250810190610e549190612b95565b5f01516107b3565b73ffffffffffffffffffffffffffffffffffffffff163373ffffffffffffffffffffffffffffffffffffffff1614610e92575f80fd5b60065f9054906101000a900473ffffffffffffffffffffffffffffffffffffffff1673ffffffffffffffffffffffffffffffffffffffff16630bb4372483836040518363ffffffff1660e01b8152600401610eee929190612d80565b5f604051808303815f87803b158015610f05575f80fd5b505af1158015610f17573d5f803e3d5ffd5b505050505050565b610f2a848484610652565b610f36848484846116c1565b50505050565b81610f46816107b3565b73ffffffffffffffffffffffffffffffffffffffff163373ffffffffffffffffffffffffffffffffffffffff1614610fb3576040517f08c379a0000000000000000000000000000000000000000000000000000000008152600401610faa906127f8565b60405180910390fd5b8160095f8581526020019081526020015f206003015f6101000a81548160ff021916908315150217905550505050565b6060610fee8261124e565b505f610ff8611873565b90505f8151116110165760405180602001604052805f815250611041565b8061102084611889565b604051602001611031929190612de8565b6040516020818303038152906040525b915050919050565b60065f9054906101000a900473ffffffffffffffffffffffffffffffffffffffff1673ffffffffffffffffffffffffffffffffffffffff1663bfcfb52c33836040518363ffffffff1660e01b81526004016110a5929190612e0b565b5f604051808303815f87803b1580156110bc575f80fd5b505af11580156110ce573d5f803e3d5ffd5b5050505060095f8281526020019081526020015f206002015f8154809291906110f690612d39565b919050555050565b6111083384611953565b8060095f8581526020019081526020015f206003015f6101000a81548160ff0219169083151502179055508160085f8581526020019081526020015f20908161115191906129b3565b50505050565b5f60055f8473ffffffffffffffffffffffffffffffffffffffff1673ffffffffffffffffffffffffffffffffffffffff1681526020019081526020015f205f8373ffffffffffffffffffffffffffffffffffffffff1673ffffffffffffffffffffffffffffffffffffffff1681526020019081526020015f205f9054906101000a900460ff16905092915050565b5f7f01ffc9a7000000000000000000000000000000000000000000000000000000007bffffffffffffffffffffffffffffffffffffffffffffffffffffffff1916827bffffffffffffffffffffffffffffffffffffffffffffffffffffffff1916149050919050565b5f8061125983611970565b90505f73ffffffffffffffffffffffffffffffffffffffff168173ffffffffffffffffffffffffffffffffffffffff16036112cb57826040517f7e2732890000000000000000000000000000000000000000000000000000000081526004016112c291906123e6565b60405180910390fd5b80915050919050565b5f60045f8381526020019081526020015f205f9054906101000a900473ffffffffffffffffffffffffffffffffffffffff169050919050565b5f33905090565b61132183838360016119a9565b505050565b5f8061133184611970565b90505f73ffffffffffffffffffffffffffffffffffffffff168373ffffffffffffffffffffffffffffffffffffffff161461137257611371818486611b68565b5b5f73ffffffffffffffffffffffffffffffffffffffff168173ffffffffffffffffffffffffffffffffffffffff16146113fd576113b15f855f806119a9565b600160035f8373ffffffffffffffffffffffffffffffffffffffff1673ffffffffffffffffffffffffffffffffffffffff1681526020019081526020015f205f82825403925050819055505b5f73ffffffffffffffffffffffffffffffffffffffff168573ffffffffffffffffffffffffffffffffffffffff161461147c57600160035f8773ffffffffffffffffffffffffffffffffffffffff1673ffffffffffffffffffffffffffffffffffffffff1681526020019081526020015f205f82825401925050819055505b8460025f8681526020019081526020015f205f6101000a81548173ffffffffffffffffffffffffffffffffffffffff021916908373ffffffffffffffffffffffffffffffffffffffff160217905550838573ffffffffffffffffffffffffffffffffffffffff168273ffffffffffffffffffffffffffffffffffffffff167fddf252ad1be2c89b69c2b068fc378daa952ba7f163c4a11628f55a4df523b3ef60405160405180910390a4809150509392505050565b5f7ff0c57e16840df040f15088dc2f81fe391c3923bec73e23a9662efc9c229c6a00905090565b5f73ffffffffffffffffffffffffffffffffffffffff168273ffffffffffffffffffffffffffffffffffffffff16036115c857816040517f5b08ba180000000000000000000000000000000000000000000000000000000081526004016115bf9190612155565b60405180910390fd5b8060055f8573ffffffffffffffffffffffffffffffffffffffff1673ffffffffffffffffffffffffffffffffffffffff1681526020019081526020015f205f8473ffffffffffffffffffffffffffffffffffffffff1673ffffffffffffffffffffffffffffffffffffffff1681526020019081526020015f205f6101000a81548160ff0219169083151502179055508173ffffffffffffffffffffffffffffffffffffffff168373ffffffffffffffffffffffffffffffffffffffff167f17307eab39ab6107e8899845ad3d59bd9653f200f220920489ca2b5937696c31836040516116b49190611ff5565b60405180910390a3505050565b5f8373ffffffffffffffffffffffffffffffffffffffff163b111561186d578273ffffffffffffffffffffffffffffffffffffffff1663150b7a0261170461130d565b8685856040518563ffffffff1660e01b81526004016117269493929190612e84565b6020604051808303815f875af192505050801561176157506040513d601f19601f8201168201806040525081019061175e9190612ee2565b60015b6117e2573d805f811461178f576040519150601f19603f3d011682016040523d82523d5f602084013e611794565b606091505b505f8151036117da57836040517f64a0ae920000000000000000000000000000000000000000000000000000000081526004016117d19190612155565b60405180910390fd5b805181602001fd5b63150b7a0260e01b7bffffffffffffffffffffffffffffffffffffffffffffffffffffffff1916817bffffffffffffffffffffffffffffffffffffffffffffffffffffffff19161461186b57836040517f64a0ae920000000000000000000000000000000000000000000000000000000081526004016118629190612155565b60405180910390fd5b505b50505050565b606060405180602001604052805f815250905090565b60605f600161189784611c2b565b0190505f8167ffffffffffffffff8111156118b5576118b46121de565b5b6040519080825280601f01601f1916602001820160405280156118e75781602001600182028036833780820191505090505b5090505f82602001820190505b600115611948578080600190039150507f3031323334353637383961626364656600000000000000000000000000000000600a86061a8153600a858161193d5761193c612f0d565b5b0494505f85036118f4575b819350505050919050565b61196c828260405180602001604052805f815250611d7c565b5050565b5f60025f8381526020019081526020015f205f9054906101000a900473ffffffffffffffffffffffffffffffffffffffff169050919050565b80806119e157505f73ffffffffffffffffffffffffffffffffffffffff168273ffffffffffffffffffffffffffffffffffffffff1614155b15611b13575f6119f08461124e565b90505f73ffffffffffffffffffffffffffffffffffffffff168373ffffffffffffffffffffffffffffffffffffffff1614158015611a5a57508273ffffffffffffffffffffffffffffffffffffffff168173ffffffffffffffffffffffffffffffffffffffff1614155b8015611a6d5750611a6b8184611157565b155b15611aaf57826040517fa9fbf51f000000000000000000000000000000000000000000000000000000008152600401611aa69190612155565b60405180910390fd5b8115611b1157838573ffffffffffffffffffffffffffffffffffffffff168273ffffffffffffffffffffffffffffffffffffffff167f8c5be1e5ebec7d5bd14f71427d1e84f3dd0314c0f7b2291e5b200ac8c7c3b92560405160405180910390a45b505b8360045f8581526020019081526020015f205f6101000a81548173ffffffffffffffffffffffffffffffffffffffff021916908373ffffffffffffffffffffffffffffffffffffffff16021790555050505050565b611b73838383611d97565b611c26575f73ffffffffffffffffffffffffffffffffffffffff168373ffffffffffffffffffffffffffffffffffffffff1603611be757806040517f7e273289000000000000000000000000000000000000000000000000000000008152600401611bde91906123e6565b60405180910390fd5b81816040517f177e802f000000000000000000000000000000000000000000000000000000008152600401611c1d929190612e0b565b60405180910390fd5b505050565b5f805f90507a184f03e93ff9f4daa797ed6e38ed64bf6a1f0100000000000000008310611c87577a184f03e93ff9f4daa797ed6e38ed64bf6a1f0100000000000000008381611c7d57611c7c612f0d565b5b0492506040810190505b6d04ee2d6d415b85acef81000000008310611cc4576d04ee2d6d415b85acef81000000008381611cba57611cb9612f0d565b5b0492506020810190505b662386f26fc100008310611cf357662386f26fc100008381611ce957611ce8612f0d565b5b0492506010810190505b6305f5e1008310611d1c576305f5e1008381611d1257611d11612f0d565b5b0492506008810190505b6127108310611d41576127108381611d3757611d36612f0d565b5b0492506004810190505b60648310611d645760648381611d5a57611d59612f0d565b5b0492506002810190505b600a8310611d73576001810190505b80915050919050565b611d868383611e57565b611d925f8484846116c1565b505050565b5f8073ffffffffffffffffffffffffffffffffffffffff168373ffffffffffffffffffffffffffffffffffffffff1614158015611e4e57508273ffffffffffffffffffffffffffffffffffffffff168473ffffffffffffffffffffffffffffffffffffffff161480611e0f5750611e0e8484611157565b5b80611e4d57508273ffffffffffffffffffffffffffffffffffffffff16611e35836112d4565b73ffffffffffffffffffffffffffffffffffffffff16145b5b90509392505050565b5f73ffffffffffffffffffffffffffffffffffffffff168273ffffffffffffffffffffffffffffffffffffffff1603611ec7575f6040517f64a0ae92000000000000000000000000000000000000000000000000000000008152600401611ebe9190612155565b60405180910390fd5b5f611ed383835f611326565b90505f73ffffffffffffffffffffffffffffffffffffffff168173ffffffffffffffffffffffffffffffffffffffff1614611f45575f6040517f73c6ac6e000000000000000000000000000000000000000000000000000000008152600401611f3c9190612155565b60405180910390fd5b505050565b5f604051905090565b5f80fd5b5f80fd5b5f7fffffffff0000000000000000000000000000000000000000000000000000000082169050919050565b611f8f81611f5b565b8114611f99575f80fd5b50565b5f81359050611faa81611f86565b92915050565b5f60208284031215611fc557611fc4611f53565b5b5f611fd284828501611f9c565b91505092915050565b5f8115159050919050565b611fef81611fdb565b82525050565b5f6020820190506120085f830184611fe6565b92915050565b5f81519050919050565b5f82825260208201905092915050565b5f5b8381101561204557808201518184015260208101905061202a565b5f8484015250505050565b5f601f19601f8301169050919050565b5f61206a8261200e565b6120748185612018565b9350612084818560208601612028565b61208d81612050565b840191505092915050565b5f6020820190508181035f8301526120b08184612060565b905092915050565b5f819050919050565b6120ca816120b8565b81146120d4575f80fd5b50565b5f813590506120e5816120c1565b92915050565b5f60208284031215612100576120ff611f53565b5b5f61210d848285016120d7565b91505092915050565b5f73ffffffffffffffffffffffffffffffffffffffff82169050919050565b5f61213f82612116565b9050919050565b61214f81612135565b82525050565b5f6020820190506121685f830184612146565b92915050565b61217781612135565b8114612181575f80fd5b50565b5f813590506121928161216e565b92915050565b5f80604083850312156121ae576121ad611f53565b5b5f6121bb85828601612184565b92505060206121cc858286016120d7565b9150509250929050565b5f80fd5b5f80fd5b7f4e487b71000000000000000000000000000000000000000000000000000000005f52604160045260245ffd5b61221482612050565b810181811067ffffffffffffffff82111715612233576122326121de565b5b80604052505050565b5f612245611f4a565b9050612251828261220b565b919050565b5f67ffffffffffffffff8211156122705761226f6121de565b5b61227982612050565b9050602081019050919050565b828183375f83830152505050565b5f6122a66122a184612256565b61223c565b9050828152602081018484840111156122c2576122c16121da565b5b6122cd848285612286565b509392505050565b5f82601f8301126122e9576122e86121d6565b5b81356122f9848260208601612294565b91505092915050565b5f806040838503121561231857612317611f53565b5b5f612325858286016120d7565b925050602083013567ffffffffffffffff81111561234657612345611f57565b5b612352858286016122d5565b9150509250929050565b5f805f6060848603121561237357612372611f53565b5b5f61238086828701612184565b935050602061239186828701612184565b92505060406123a2868287016120d7565b9150509250925092565b5f602082840312156123c1576123c0611f53565b5b5f6123ce84828501612184565b91505092915050565b6123e0816120b8565b82525050565b5f6020820190506123f95f8301846123d7565b92915050565b5f806040838503121561241557612414611f53565b5b5f612422858286016120d7565b9250506020612433858286016120d7565b9150509250929050565b5f805f806080858703121561245557612454611f53565b5b5f612462878288016120d7565b9450506020612473878288016120d7565b9350506040612484878288016120d7565b925050606085013567ffffffffffffffff8111156124a5576124a4611f57565b5b6124b1878288016122d5565b91505092959194509250565b6124c681611fdb565b81146124d0575f80fd5b50565b5f813590506124e1816124bd565b92915050565b5f80604083850312156124fd576124fc611f53565b5b5f61250a85828601612184565b925050602061251b858286016124d3565b9150509250929050565b5f67ffffffffffffffff82111561253f5761253e6121de565b5b61254882612050565b9050602081019050919050565b5f61256761256284612525565b61223c565b905082815260208101848484011115612583576125826121da565b5b61258e848285612286565b509392505050565b5f82601f8301126125aa576125a96121d6565b5b81356125ba848260208601612555565b91505092915050565b5f805f80608085870312156125db576125da611f53565b5b5f6125e887828801612184565b94505060206125f987828801612184565b935050604061260a878288016120d7565b925050606085013567ffffffffffffffff81111561262b5761262a611f57565b5b61263787828801612596565b91505092959194509250565b5f806040838503121561265957612658611f53565b5b5f612666858286016120d7565b9250506020612677858286016124d3565b9150509250929050565b5f805f6060848603121561269857612697611f53565b5b5f6126a5868287016120d7565b935050602084013567ffffffffffffffff8111156126c6576126c5611f57565b5b6126d2868287016122d5565b92505060406126e3868287016124d3565b9150509250925092565b5f806040838503121561270357612702611f53565b5b5f61271085828601612184565b925050602061272185828601612184565b9150509250929050565b7f4e487b71000000000000000000000000000000000000000000000000000000005f52602260045260245ffd5b5f600282049050600182168061276f57607f821691505b6020821081036127825761278161272b565b5b50919050565b7f4f6e6c7920746865206e6674206f776e65722063616e2063616c6c20746869735f8201527f2066756e6374696f6e0000000000000000000000000000000000000000000000602082015250565b5f6127e2602983612018565b91506127ed82612788565b604082019050919050565b5f6020820190508181035f83015261280f816127d6565b9050919050565b5f819050815f5260205f209050919050565b5f6020601f8301049050919050565b5f82821b905092915050565b5f600883026128727fffffffffffffffffffffffffffffffffffffffffffffffffffffffffffffffff82612837565b61287c8683612837565b95508019841693508086168417925050509392505050565b5f819050919050565b5f6128b76128b26128ad846120b8565b612894565b6120b8565b9050919050565b5f819050919050565b6128d08361289d565b6128e46128dc826128be565b848454612843565b825550505050565b5f90565b6128f86128ec565b6129038184846128c7565b505050565b5b818110156129265761291b5f826128f0565b600181019050612909565b5050565b601f82111561296b5761293c81612816565b61294584612828565b81016020851015612954578190505b61296861296085612828565b830182612908565b50505b505050565b5f82821c905092915050565b5f61298b5f1984600802612970565b1980831691505092915050565b5f6129a3838361297c565b9150826002028217905092915050565b6129bc8261200e565b67ffffffffffffffff8111156129d5576129d46121de565b5b6129df8254612758565b6129ea82828561292a565b5f60209050601f831160018114612a1b575f8415612a09578287015190505b612a138582612998565b865550612a7a565b601f198416612a2986612816565b5f5b82811015612a5057848901518255600182019150602085019450602081019050612a2b565b86831015612a6d5784890151612a69601f89168261297c565b8355505b6001600288020188555050505b505050505050565b5f606082019050612a955f830186612146565b612aa260208301856123d7565b612aaf6040830184612146565b949350505050565b5f819050919050565b5f67ffffffffffffffff82169050919050565b5f612aed612ae8612ae384612ab7565b612894565b612ac0565b9050919050565b612afd81612ad3565b82525050565b5f602082019050612b165f830184612af4565b92915050565b5f80fd5b5f81519050612b2e816120c1565b92915050565b5f60608284031215612b4957612b48612b1c565b5b612b53606061223c565b90505f612b6284828501612b20565b5f830152506020612b7584828501612b20565b6020830152506040612b8984828501612b20565b60408301525092915050565b5f60608284031215612baa57612ba9611f53565b5b5f612bb784828501612b34565b91505092915050565b5f604082019050612bd35f8301856123d7565b612be060208301846123d7565b9392505050565b7f4f6e6c7920436f70797269676874206f776e65722063616e206d696e742074685f8201527f65207469636b6574732100000000000000000000000000000000000000000000602082015250565b5f612c41602a83612018565b9150612c4c82612be7565b604082019050919050565b5f6020820190508181035f830152612c6e81612c35565b9050919050565b5f60a082019050612c885f830188612146565b612c9560208301876123d7565b612ca260408301866123d7565b612caf60608301856123d7565b8181036080830152612cc18184612060565b90509695505050505050565b5f81519050612cdb816124bd565b92915050565b5f60208284031215612cf657612cf5611f53565b5b5f612d0384828501612ccd565b91505092915050565b7f4e487b71000000000000000000000000000000000000000000000000000000005f52601160045260245ffd5b5f612d43826120b8565b91507fffffffffffffffffffffffffffffffffffffffffffffffffffffffffffffffff8203612d7557612d74612d0c565b5b600182019050919050565b5f604082019050612d935f8301856123d7565b8181036020830152612da58184612060565b90509392505050565b5f81905092915050565b5f612dc28261200e565b612dcc8185612dae565b9350612ddc818560208601612028565b80840191505092915050565b5f612df38285612db8565b9150612dff8284612db8565b91508190509392505050565b5f604082019050612e1e5f830185612146565b612e2b60208301846123d7565b9392505050565b5f81519050919050565b5f82825260208201905092915050565b5f612e5682612e32565b612e608185612e3c565b9350612e70818560208601612028565b612e7981612050565b840191505092915050565b5f608082019050612e975f830187612146565b612ea46020830186612146565b612eb160408301856123d7565b8181036060830152612ec38184612e4c565b905095945050505050565b5f81519050612edc81611f86565b92915050565b5f60208284031215612ef757612ef6611f53565b5b5f612f0484828501612ece565b91505092915050565b7f4e487b71000000000000000000000000000000000000000000000000000000005f52601260045260245ffdfea26469706673582212206e53d594085fe3f6ed9c664808f78905f777bd3ba7e7dee828d9be9366b0bd8964736f6c63430008140033",
  "immutableReferences": {},
  "source": "// SPDX-License-Identifier: MIT\npragma solidity ^0.8.0;\n\nimport \"../node_modules/@openzeppelin/contracts/proxy/utils/Initializable.sol\";\nimport \"../node_modules/@openzeppelin/contracts/token/ERC721/ERC721.sol\";\nimport \"../node_modules/@openzeppelin/contracts/token/ERC721/extensions/ERC721URIStorage.sol\";\nimport \"./Download.sol\";\n\ncontract Copyright is Initializable, ERC721 {\n    Download private download;\n    address private owner;\n    mapping(uint256 => string) private _tokenUris;\n\n    mapping(uint => UsageInfo) internal copyrightInfoMap;\n\n    struct UsageInfo {\n        uint buyCnt;\n        uint mintCnt;\n        uint downloadCnt;\n        bool sellYn;\n    }\n\n    modifier onlyOwner() {\n        require(msg.sender == owner, \"Only the contract owner can call this function\");\n        _;\n    }\n\n    modifier onlyNftOwner(uint copyrightId) {\n        require(msg.sender == ownerOf(copyrightId), \"Only the nft owner can call this function\");\n        _;\n    }\n\n    function initialize() public initializer {\n        owner = msg.sender; // Set the contract deployer as the owner\n    }\n\n    // Change copyright available. You can stop or start the sale.\n    function modifySellYn(uint copyrightId, bool sellYn) public onlyNftOwner(copyrightId) {\n        copyrightInfoMap[copyrightId].sellYn = sellYn;\n    }\n\n    function modifyTokenUri(uint copyrightId, string memory tokenUri) public onlyNftOwner(copyrightId) {\n        _tokenUris[copyrightId] = tokenUri;\n    }\n\n    /**\n     * @dev After deploy, you need to call this function and set the DownloadTicket.sol address.\n     */\n    function setDtAddress(address downloadContractAddress) public {\n        download = Download(downloadContractAddress);\n    }\n\n    // Copyright NFT minting.\n    function mintCopyright(uint copyrightId, string memory tokenUri, bool sellYn) public {\n        _safeMint(msg.sender, copyrightId);\n        copyrightInfoMap[copyrightId].sellYn = sellYn;\n        _tokenUris[copyrightId] = tokenUri;\n    }\n\n    // Download ticket minting.\n    function buyDownloadTicket(uint copyrightId, uint counter, uint price, string memory tokenUri) public {\n        require(msg.sender == ownerOf(copyrightId), \"Only Copyright owner can mint the tickets!\");\n\n        bool isMint = download.buyDownload(msg.sender, copyrightId, counter, price, tokenUri);\n        if (isMint) {\n            copyrightInfoMap[copyrightId].mintCnt++;\n        }\n        copyrightInfoMap[copyrightId].buyCnt++;\n    }\n\n    // Use the download ticket.\n    function useDownload(uint copyrightId) public {\n        download.useDownload(msg.sender, copyrightId);\n        copyrightInfoMap[copyrightId].downloadCnt++;\n    }\n\n    function modifyDownloadTokenUri(uint downloadId, string memory tokenUri) public {\n        require(msg.sender == ownerOf(download.getDownloadInfo(downloadId).copyrightId));\n        download.modifyTokenUri(downloadId, tokenUri);\n    }\n\n    function modifyDownloadTotalCnt(uint downloadId, uint totalCnt) public {\n        require(msg.sender == ownerOf(download.getDownloadInfo(downloadId).copyrightId));\n        download.modifyDownloadTotalCnt(downloadId, totalCnt);\n    }\n\n    // private function\n    function _checkExistsToken(uint256 tokenId) private view {\n        require(_exists(tokenId), \"Token not exists.\");\n    }\n\n    function _exists(uint256 tokenId) internal view virtual returns (bool) {\n        return _ownerOf(tokenId) != address(0);\n    }\n}",
  "sourcePath": "/Users/guarantable/bitbucket/5w_proxy/contracts/Copyright.sol",
  "compiler": {
    "name": "solc",
    "version": "0.8.20+commit.a1b79de6.Emscripten.clang"
  },
  "schemaVersion": "3.4.14",
  "updatedAt": "2023-10-12T07:51:10.957Z",
  "networkType": "ethereum",
  "devdoc": {
    "errors": {
      "ERC721IncorrectOwner(address,uint256,address)": [
        {
          "details": "Indicates an error related to the ownership over a particular token. Used in transfers.",
          "params": {
            "owner": "Address of the current owner of a token.",
            "sender": "Address whose tokens are being transferred.",
            "tokenId": "Identifier number of a token."
          }
        }
      ],
      "ERC721InsufficientApproval(address,uint256)": [
        {
          "details": "Indicates a failure with the `operator`s approval. Used in transfers.",
          "params": {
            "operator": "Address that may be allowed to operate on tokens without being their owner.",
            "tokenId": "Identifier number of a token."
          }
        }
      ],
      "ERC721InvalidApprover(address)": [
        {
          "details": "Indicates a failure with the `approver` of a token to be approved. Used in approvals.",
          "params": {
            "approver": "Address initiating an approval operation."
          }
        }
      ],
      "ERC721InvalidOperator(address)": [
        {
          "details": "Indicates a failure with the `operator` to be approved. Used in approvals.",
          "params": {
            "operator": "Address that may be allowed to operate on tokens without being their owner."
          }
        }
      ],
      "ERC721InvalidOwner(address)": [
        {
          "details": "Indicates that an address can't be an owner. For example, `address(0)` is a forbidden owner in EIP-20. Used in balance queries.",
          "params": {
            "owner": "Address of the current owner of a token."
          }
        }
      ],
      "ERC721InvalidReceiver(address)": [
        {
          "details": "Indicates a failure with the token `receiver`. Used in transfers.",
          "params": {
            "receiver": "Address to which tokens are being transferred."
          }
        }
      ],
      "ERC721InvalidSender(address)": [
        {
          "details": "Indicates a failure with the token `sender`. Used in transfers.",
          "params": {
            "sender": "Address whose tokens are being transferred."
          }
        }
      ],
      "ERC721NonexistentToken(uint256)": [
        {
          "details": "Indicates a `tokenId` whose `owner` is the zero address.",
          "params": {
            "tokenId": "Identifier number of a token."
          }
        }
      ],
      "InvalidInitialization()": [
        {
          "details": "The contract is already initialized."
        }
      ],
      "NotInitializing()": [
        {
          "details": "The contract is not initializing."
        }
      ]
    },
    "events": {
      "Approval(address,address,uint256)": {
        "details": "Emitted when `owner` enables `approved` to manage the `tokenId` token."
      },
      "ApprovalForAll(address,address,bool)": {
        "details": "Emitted when `owner` enables or disables (`approved`) `operator` to manage all of its assets."
      },
      "Initialized(uint64)": {
        "details": "Triggered when the contract has been initialized or reinitialized."
      },
      "Transfer(address,address,uint256)": {
        "details": "Emitted when `tokenId` token is transferred from `from` to `to`."
      }
    },
    "kind": "dev",
    "methods": {
      "approve(address,uint256)": {
        "details": "See {IERC721-approve}."
      },
      "balanceOf(address)": {
        "details": "See {IERC721-balanceOf}."
      },
      "getApproved(uint256)": {
        "details": "See {IERC721-getApproved}."
      },
      "isApprovedForAll(address,address)": {
        "details": "See {IERC721-isApprovedForAll}."
      },
      "name()": {
        "details": "See {IERC721Metadata-name}."
      },
      "ownerOf(uint256)": {
        "details": "See {IERC721-ownerOf}."
      },
      "safeTransferFrom(address,address,uint256)": {
        "details": "See {IERC721-safeTransferFrom}."
      },
      "safeTransferFrom(address,address,uint256,bytes)": {
        "details": "See {IERC721-safeTransferFrom}."
      },
      "setApprovalForAll(address,bool)": {
        "details": "See {IERC721-setApprovalForAll}."
      },
      "setDtAddress(address)": {
        "details": "After deploy, you need to call this function and set the DownloadTicket.sol address."
      },
      "supportsInterface(bytes4)": {
        "details": "See {IERC165-supportsInterface}."
      },
      "symbol()": {
        "details": "See {IERC721Metadata-symbol}."
      },
      "tokenURI(uint256)": {
        "details": "See {IERC721Metadata-tokenURI}."
      },
      "transferFrom(address,address,uint256)": {
        "details": "See {IERC721-transferFrom}."
      }
    },
    "version": 1
  },
  "userdoc": {
    "kind": "user",
    "methods": {},
    "version": 1
  }
}