{
  "contractName": "Download",
  "abi": [
    {
      "inputs": [
        {
          "internalType": "address",
          "name": "copyrightAddress",
          "type": "address"
        }
      ],
      "stateMutability": "nonpayable",
      "type": "constructor"
    },
    {
      "inputs": [],
      "name": "ERC721EnumerableForbiddenBatchMint",
      "type": "error"
    },
    {
      "inputs": [
        {
          "internalType": "address",
          "name": "sender",
          "type": "address"
        },
        {
          "internalType": "uint256",
          "name": "tokenId",
          "type": "uint256"
        },
        {
          "internalType": "address",
          "name": "owner",
          "type": "address"
        }
      ],
      "name": "ERC721IncorrectOwner",
      "type": "error"
    },
    {
      "inputs": [
        {
          "internalType": "address",
          "name": "operator",
          "type": "address"
        },
        {
          "internalType": "uint256",
          "name": "tokenId",
          "type": "uint256"
        }
      ],
      "name": "ERC721InsufficientApproval",
      "type": "error"
    },
    {
      "inputs": [
        {
          "internalType": "address",
          "name": "approver",
          "type": "address"
        }
      ],
      "name": "ERC721InvalidApprover",
      "type": "error"
    },
    {
      "inputs": [
        {
          "internalType": "address",
          "name": "operator",
          "type": "address"
        }
      ],
      "name": "ERC721InvalidOperator",
      "type": "error"
    },
    {
      "inputs": [
        {
          "internalType": "address",
          "name": "owner",
          "type": "address"
        }
      ],
      "name": "ERC721InvalidOwner",
      "type": "error"
    },
    {
      "inputs": [
        {
          "internalType": "address",
          "name": "receiver",
          "type": "address"
        }
      ],
      "name": "ERC721InvalidReceiver",
      "type": "error"
    },
    {
      "inputs": [
        {
          "internalType": "address",
          "name": "sender",
          "type": "address"
        }
      ],
      "name": "ERC721InvalidSender",
      "type": "error"
    },
    {
      "inputs": [
        {
          "internalType": "uint256",
          "name": "tokenId",
          "type": "uint256"
        }
      ],
      "name": "ERC721NonexistentToken",
      "type": "error"
    },
    {
      "inputs": [
        {
          "internalType": "address",
          "name": "owner",
          "type": "address"
        },
        {
          "internalType": "uint256",
          "name": "index",
          "type": "uint256"
        }
      ],
      "name": "ERC721OutOfBoundsIndex",
      "type": "error"
    },
    {
      "anonymous": false,
      "inputs": [
        {
          "indexed": true,
          "internalType": "address",
          "name": "owner",
          "type": "address"
        },
        {
          "indexed": true,
          "internalType": "address",
          "name": "approved",
          "type": "address"
        },
        {
          "indexed": true,
          "internalType": "uint256",
          "name": "tokenId",
          "type": "uint256"
        }
      ],
      "name": "Approval",
      "type": "event"
    },
    {
      "anonymous": false,
      "inputs": [
        {
          "indexed": true,
          "internalType": "address",
          "name": "owner",
          "type": "address"
        },
        {
          "indexed": true,
          "internalType": "address",
          "name": "operator",
          "type": "address"
        },
        {
          "indexed": false,
          "internalType": "bool",
          "name": "approved",
          "type": "bool"
        }
      ],
      "name": "ApprovalForAll",
      "type": "event"
    },
    {
      "anonymous": false,
      "inputs": [
        {
          "indexed": true,
          "internalType": "address",
          "name": "from",
          "type": "address"
        },
        {
          "indexed": true,
          "internalType": "address",
          "name": "to",
          "type": "address"
        },
        {
          "indexed": true,
          "internalType": "uint256",
          "name": "tokenId",
          "type": "uint256"
        }
      ],
      "name": "Transfer",
      "type": "event"
    },
    {
      "inputs": [
        {
          "internalType": "address",
          "name": "to",
          "type": "address"
        },
        {
          "internalType": "uint256",
          "name": "tokenId",
          "type": "uint256"
        }
      ],
      "name": "approve",
      "outputs": [],
      "stateMutability": "nonpayable",
      "type": "function"
    },
    {
      "inputs": [
        {
          "internalType": "address",
          "name": "owner",
          "type": "address"
        }
      ],
      "name": "balanceOf",
      "outputs": [
        {
          "internalType": "uint256",
          "name": "",
          "type": "uint256"
        }
      ],
      "stateMutability": "view",
      "type": "function"
    },
    {
      "inputs": [
        {
          "internalType": "uint256",
          "name": "",
          "type": "uint256"
        }
      ],
      "name": "downloadInfo",
      "outputs": [
        {
          "internalType": "uint256",
          "name": "copyrightId",
          "type": "uint256"
        },
        {
          "internalType": "uint256",
          "name": "usableTotalCnt",
          "type": "uint256"
        },
        {
          "internalType": "uint256",
          "name": "useCnt",
          "type": "uint256"
        }
      ],
      "stateMutability": "view",
      "type": "function"
    },
    {
      "inputs": [
        {
          "internalType": "uint256",
          "name": "tokenId",
          "type": "uint256"
        }
      ],
      "name": "getApproved",
      "outputs": [
        {
          "internalType": "address",
          "name": "",
          "type": "address"
        }
      ],
      "stateMutability": "view",
      "type": "function"
    },
    {
      "inputs": [
        {
          "internalType": "address",
          "name": "owner",
          "type": "address"
        },
        {
          "internalType": "address",
          "name": "operator",
          "type": "address"
        }
      ],
      "name": "isApprovedForAll",
      "outputs": [
        {
          "internalType": "bool",
          "name": "",
          "type": "bool"
        }
      ],
      "stateMutability": "view",
      "type": "function"
    },
    {
      "inputs": [],
      "name": "name",
      "outputs": [
        {
          "internalType": "string",
          "name": "",
          "type": "string"
        }
      ],
      "stateMutability": "view",
      "type": "function"
    },
    {
      "inputs": [
        {
          "internalType": "uint256",
          "name": "tokenId",
          "type": "uint256"
        }
      ],
      "name": "ownerOf",
      "outputs": [
        {
          "internalType": "address",
          "name": "",
          "type": "address"
        }
      ],
      "stateMutability": "view",
      "type": "function"
    },
    {
      "inputs": [
        {
          "internalType": "address",
          "name": "from",
          "type": "address"
        },
        {
          "internalType": "address",
          "name": "to",
          "type": "address"
        },
        {
          "internalType": "uint256",
          "name": "tokenId",
          "type": "uint256"
        }
      ],
      "name": "safeTransferFrom",
      "outputs": [],
      "stateMutability": "nonpayable",
      "type": "function"
    },
    {
      "inputs": [
        {
          "internalType": "address",
          "name": "from",
          "type": "address"
        },
        {
          "internalType": "address",
          "name": "to",
          "type": "address"
        },
        {
          "internalType": "uint256",
          "name": "tokenId",
          "type": "uint256"
        },
        {
          "internalType": "bytes",
          "name": "data",
          "type": "bytes"
        }
      ],
      "name": "safeTransferFrom",
      "outputs": [],
      "stateMutability": "nonpayable",
      "type": "function"
    },
    {
      "inputs": [
        {
          "internalType": "address",
          "name": "operator",
          "type": "address"
        },
        {
          "internalType": "bool",
          "name": "approved",
          "type": "bool"
        }
      ],
      "name": "setApprovalForAll",
      "outputs": [],
      "stateMutability": "nonpayable",
      "type": "function"
    },
    {
      "inputs": [
        {
          "internalType": "bytes4",
          "name": "interfaceId",
          "type": "bytes4"
        }
      ],
      "name": "supportsInterface",
      "outputs": [
        {
          "internalType": "bool",
          "name": "",
          "type": "bool"
        }
      ],
      "stateMutability": "view",
      "type": "function"
    },
    {
      "inputs": [],
      "name": "symbol",
      "outputs": [
        {
          "internalType": "string",
          "name": "",
          "type": "string"
        }
      ],
      "stateMutability": "view",
      "type": "function"
    },
    {
      "inputs": [
        {
          "internalType": "uint256",
          "name": "index",
          "type": "uint256"
        }
      ],
      "name": "tokenByIndex",
      "outputs": [
        {
          "internalType": "uint256",
          "name": "",
          "type": "uint256"
        }
      ],
      "stateMutability": "view",
      "type": "function"
    },
    {
      "inputs": [
        {
          "internalType": "address",
          "name": "owner",
          "type": "address"
        },
        {
          "internalType": "uint256",
          "name": "index",
          "type": "uint256"
        }
      ],
      "name": "tokenOfOwnerByIndex",
      "outputs": [
        {
          "internalType": "uint256",
          "name": "",
          "type": "uint256"
        }
      ],
      "stateMutability": "view",
      "type": "function"
    },
    {
      "inputs": [],
      "name": "totalSupply",
      "outputs": [
        {
          "internalType": "uint256",
          "name": "",
          "type": "uint256"
        }
      ],
      "stateMutability": "view",
      "type": "function"
    },
    {
      "inputs": [
        {
          "internalType": "address",
          "name": "from",
          "type": "address"
        },
        {
          "internalType": "address",
          "name": "to",
          "type": "address"
        },
        {
          "internalType": "uint256",
          "name": "tokenId",
          "type": "uint256"
        }
      ],
      "name": "transferFrom",
      "outputs": [],
      "stateMutability": "nonpayable",
      "type": "function"
    },
    {
      "inputs": [
        {
          "internalType": "uint256",
          "name": "downloadId",
          "type": "uint256"
        },
        {
          "internalType": "string",
          "name": "tokenUri",
          "type": "string"
        }
      ],
      "name": "modifyTokenUri",
      "outputs": [],
      "stateMutability": "nonpayable",
      "type": "function"
    },
    {
      "inputs": [
        {
          "internalType": "uint256",
          "name": "downloadId",
          "type": "uint256"
        },
        {
          "internalType": "uint256",
          "name": "totalCnt",
          "type": "uint256"
        }
      ],
      "name": "modifyDownloadTotalCnt",
      "outputs": [],
      "stateMutability": "nonpayable",
      "type": "function"
    },
    {
      "inputs": [
        {
          "internalType": "uint256",
          "name": "downloadId",
          "type": "uint256"
        }
      ],
      "name": "tokenURI",
      "outputs": [
        {
          "internalType": "string",
          "name": "",
          "type": "string"
        }
      ],
      "stateMutability": "view",
      "type": "function"
    },
    {
      "inputs": [
        {
          "internalType": "uint256",
          "name": "downloadId",
          "type": "uint256"
        }
      ],
      "name": "getDownloadInfo",
      "outputs": [
        {
          "components": [
            {
              "internalType": "uint256",
              "name": "copyrightId",
              "type": "uint256"
            },
            {
              "internalType": "uint256",
              "name": "usableTotalCnt",
              "type": "uint256"
            },
            {
              "internalType": "uint256",
              "name": "useCnt",
              "type": "uint256"
            }
          ],
          "internalType": "struct Download.DownloadInfo",
          "name": "",
          "type": "tuple"
        }
      ],
      "stateMutability": "view",
      "type": "function"
    },
    {
      "inputs": [
        {
          "internalType": "address",
          "name": "from",
          "type": "address"
        },
        {
          "internalType": "address",
          "name": "to",
          "type": "address"
        },
        {
          "internalType": "uint256",
          "name": "downloadId",
          "type": "uint256"
        }
      ],
      "name": "transferTicket",
      "outputs": [],
      "stateMutability": "nonpayable",
      "type": "function"
    },
    {
      "inputs": [
        {
          "internalType": "address",
          "name": "to",
          "type": "address"
        },
        {
          "internalType": "uint256",
          "name": "copyrightId",
          "type": "uint256"
        },
        {
          "internalType": "uint256",
          "name": "downloadId",
          "type": "uint256"
        },
        {
          "internalType": "uint256",
          "name": "count",
          "type": "uint256"
        },
        {
          "internalType": "string",
          "name": "tokenUri",
          "type": "string"
        }
      ],
      "name": "buyDownload",
      "outputs": [
        {
          "internalType": "bool",
          "name": "",
          "type": "bool"
        }
      ],
      "stateMutability": "nonpayable",
      "type": "function"
    },
    {
      "inputs": [
        {
          "internalType": "address",
          "name": "downloadOwner",
          "type": "address"
        },
        {
          "internalType": "uint256",
          "name": "downloadId",
          "type": "uint256"
        }
      ],
      "name": "useDownload",
      "outputs": [],
      "stateMutability": "nonpayable",
      "type": "function"
    }
  ],
  "bytecode": "0x608060405234801562000010575f80fd5b5060405162003180380380620031808339818101604052810190620000369190620000e2565b80600a5f6101000a81548173ffffffffffffffffffffffffffffffffffffffff021916908373ffffffffffffffffffffffffffffffffffffffff1602179055505062000112565b5f80fd5b5f73ffffffffffffffffffffffffffffffffffffffff82169050919050565b5f620000ac8262000081565b9050919050565b620000be81620000a0565b8114620000c9575f80fd5b50565b5f81519050620000dc81620000b3565b92915050565b5f60208284031215620000fa57620000f96200007d565b5b5f6200010984828501620000cc565b91505092915050565b61306080620001205f395ff3fe608060405234801561000f575f80fd5b506004361061014b575f3560e01c80636352211e116100c1578063a22cb4651161007a578063a22cb465146103d1578063b88d4fde146103ed578063bfcfb52c14610409578063c87b56dd14610425578063e985e9c514610455578063f2ce37cc146104855761014b565b80636352211e146102d757806370a08231146103075780638167ac5314610337578063830f11bf146103675780638d2110c21461039757806395d89b41146103b35761014b565b80630bb43724116101135780630bb437241461020557806318160ddd1461022157806323b872dd1461023f5780632f745c591461025b57806342842e0e1461028b5780634f6ccce7146102a75761014b565b806301367e6a1461014f57806301ffc9a71461016b57806306fdde031461019b578063081812fc146101b9578063095ea7b3146101e9575b5f80fd5b610169600480360381019061016491906120cb565b6104b7565b005b61018560048036038101906101809190612170565b610556565b60405161019291906121b5565b60405180910390f35b6101a36105cf565b6040516101b09190612258565b60405180910390f35b6101d360048036038101906101ce9190612278565b61065e565b6040516101e091906122b2565b60405180910390f35b61020360048036038101906101fe91906122cb565b610679565b005b61021f600480360381019061021a9190612435565b61068f565b005b6102296106bb565b604051610236919061249e565b60405180910390f35b610259600480360381019061025491906120cb565b6106c7565b005b610275600480360381019061027091906122cb565b6107c6565b604051610282919061249e565b60405180910390f35b6102a560048036038101906102a091906120cb565b61086a565b005b6102c160048036038101906102bc9190612278565b610889565b6040516102ce919061249e565b60405180910390f35b6102f160048036038101906102ec9190612278565b6108fb565b6040516102fe91906122b2565b60405180910390f35b610321600480360381019061031c91906124b7565b61090c565b60405161032e919061249e565b60405180910390f35b610351600480360381019061034c9190612278565b6109c2565b60405161035e9190612531565b60405180910390f35b610381600480360381019061037c919061254a565b610a13565b60405161038e91906121b5565b60405180910390f35b6103b160048036038101906103ac91906125dd565b610c2e565b005b6103bb610cab565b6040516103c89190612258565b60405180910390f35b6103eb60048036038101906103e69190612645565b610d3b565b005b61040760048036038101906104029190612721565b610d51565b005b610423600480360381019061041e91906122cb565b610d6e565b005b61043f600480360381019061043a9190612278565b610e84565b60405161044c9190612258565b60405180910390f35b61046f600480360381019061046a91906127a1565b610f2e565b60405161047c91906121b5565b60405180910390f35b61049f600480360381019061049a9190612278565b610fbc565b6040516104ae939291906127df565b60405180910390f35b600a5f9054906101000a900473ffffffffffffffffffffffffffffffffffffffff1673ffffffffffffffffffffffffffffffffffffffff163373ffffffffffffffffffffffffffffffffffffffff1614610546576040517f08c379a000000000000000000000000000000000000000000000000000000000815260040161053d90612884565b60405180910390fd5b61055183838361086a565b505050565b5f7f780e9d63000000000000000000000000000000000000000000000000000000007bffffffffffffffffffffffffffffffffffffffffffffffffffffffff1916827bffffffffffffffffffffffffffffffffffffffffffffffffffffffff191614806105c857506105c782610fe2565b5b9050919050565b60605f80546105dd906128cf565b80601f0160208091040260200160405190810160405280929190818152602001828054610609906128cf565b80156106545780601f1061062b57610100808354040283529160200191610654565b820191905f5260205f20905b81548152906001019060200180831161063757829003601f168201915b5050505050905090565b5f610668826110c3565b5061067282611149565b9050919050565b61068b8282610686611182565b611189565b5050565b6106988261119b565b80600b5f8481526020019081526020015f2090816106b69190612a9c565b505050565b5f600880549050905090565b5f73ffffffffffffffffffffffffffffffffffffffff168273ffffffffffffffffffffffffffffffffffffffff1603610737575f6040517f64a0ae9200000000000000000000000000000000000000000000000000000000815260040161072e91906122b2565b60405180910390fd5b5f61074a8383610745611182565b6111e6565b90508373ffffffffffffffffffffffffffffffffffffffff168173ffffffffffffffffffffffffffffffffffffffff16146107c0578382826040517f64283d7b0000000000000000000000000000000000000000000000000000000081526004016107b793929190612b6b565b60405180910390fd5b50505050565b5f6107d08361090c565b82106108155782826040517fa57d13dc00000000000000000000000000000000000000000000000000000000815260040161080c929190612ba0565b60405180910390fd5b60065f8473ffffffffffffffffffffffffffffffffffffffff1673ffffffffffffffffffffffffffffffffffffffff1681526020019081526020015f205f8381526020019081526020015f2054905092915050565b61088483838360405180602001604052805f815250610d51565b505050565b5f6108926106bb565b82106108d7575f826040517fa57d13dc0000000000000000000000000000000000000000000000000000000081526004016108ce929190612ba0565b60405180910390fd5b600882815481106108eb576108ea612bc7565b5b905f5260205f2001549050919050565b5f610905826110c3565b9050919050565b5f8073ffffffffffffffffffffffffffffffffffffffff168273ffffffffffffffffffffffffffffffffffffffff160361097d575f6040517f89c62b6400000000000000000000000000000000000000000000000000000000815260040161097491906122b2565b60405180910390fd5b60035f8373ffffffffffffffffffffffffffffffffffffffff1673ffffffffffffffffffffffffffffffffffffffff1681526020019081526020015f20549050919050565b6109ca61200f565b6109d38261119b565b600c5f8381526020019081526020015f206040518060600160405290815f8201548152602001600182015481526020016002820154815250509050919050565b5f600a5f9054906101000a900473ffffffffffffffffffffffffffffffffffffffff1673ffffffffffffffffffffffffffffffffffffffff163373ffffffffffffffffffffffffffffffffffffffff1614610aa3576040517f08c379a0000000000000000000000000000000000000000000000000000000008152600401610a9a90612884565b60405180910390fd5b84600c5f8681526020019081526020015f205f0181905550610ac484611300565b15610afb5782600c5f8681526020019081526020015f206001015f828254610aec9190612c21565b925050819055505f9050610c25565b600d5f8681526020019081526020015f205f8773ffffffffffffffffffffffffffffffffffffffff1673ffffffffffffffffffffffffffffffffffffffff1681526020019081526020015f205f9054906101000a900460ff16610b93576040517f08c379a0000000000000000000000000000000000000000000000000000000008152600401610b8a90612c9e565b60405180910390fd5b610b9d8685611340565b81600b5f8681526020019081526020015f209081610bbb9190612a9c565b506001600d5f8781526020019081526020015f205f8873ffffffffffffffffffffffffffffffffffffffff1673ffffffffffffffffffffffffffffffffffffffff1681526020019081526020015f205f6101000a81548160ff021916908315150217905550600190505b95945050505050565b610c378261119b565b80600c5f8481526020019081526020015f20600201541115610c8e576040517f08c379a0000000000000000000000000000000000000000000000000000000008152600401610c8590612d2c565b60405180910390fd5b80600c5f8481526020019081526020015f20600101819055505050565b606060018054610cba906128cf565b80601f0160208091040260200160405190810160405280929190818152602001828054610ce6906128cf565b8015610d315780601f10610d0857610100808354040283529160200191610d31565b820191905f5260205f20905b815481529060010190602001808311610d1457829003601f168201915b5050505050905090565b610d4d610d46611182565b8383611433565b5050565b610d5c8484846106c7565b610d688484848461159c565b50505050565b610d778161119b565b610d80816108fb565b73ffffffffffffffffffffffffffffffffffffffff168273ffffffffffffffffffffffffffffffffffffffff1614610ded576040517f08c379a0000000000000000000000000000000000000000000000000000000008152600401610de490612dba565b60405180910390fd5b600c5f8281526020019081526020015f2060020154600c5f8381526020019081526020015f206001015411610e57576040517f08c379a0000000000000000000000000000000000000000000000000000000008152600401610e4e90612e22565b60405180910390fd5b600c5f8281526020019081526020015f206002015f815480929190610e7b90612e40565b91905055505050565b6060610e8f8261119b565b600b5f8381526020019081526020015f208054610eab906128cf565b80601f0160208091040260200160405190810160405280929190818152602001828054610ed7906128cf565b8015610f225780601f10610ef957610100808354040283529160200191610f22565b820191905f5260205f20905b815481529060010190602001808311610f0557829003601f168201915b50505050509050919050565b5f60055f8473ffffffffffffffffffffffffffffffffffffffff1673ffffffffffffffffffffffffffffffffffffffff1681526020019081526020015f205f8373ffffffffffffffffffffffffffffffffffffffff1673ffffffffffffffffffffffffffffffffffffffff1681526020019081526020015f205f9054906101000a900460ff16905092915050565b600c602052805f5260405f205f91509050805f0154908060010154908060020154905083565b5f7f80ac58cd000000000000000000000000000000000000000000000000000000007bffffffffffffffffffffffffffffffffffffffffffffffffffffffff1916827bffffffffffffffffffffffffffffffffffffffffffffffffffffffff191614806110ac57507f5b5e139f000000000000000000000000000000000000000000000000000000007bffffffffffffffffffffffffffffffffffffffffffffffffffffffff1916827bffffffffffffffffffffffffffffffffffffffffffffffffffffffff1916145b806110bc57506110bb8261174e565b5b9050919050565b5f806110ce836117b7565b90505f73ffffffffffffffffffffffffffffffffffffffff168173ffffffffffffffffffffffffffffffffffffffff160361114057826040517f7e273289000000000000000000000000000000000000000000000000000000008152600401611137919061249e565b60405180910390fd5b80915050919050565b5f60045f8381526020019081526020015f205f9054906101000a900473ffffffffffffffffffffffffffffffffffffffff169050919050565b5f33905090565b61119683838360016117f0565b505050565b6111a481611300565b6111e3576040517f08c379a00000000000000000000000000000000000000000000000000000000081526004016111da90612ed1565b60405180910390fd5b50565b5f806111f38585856119af565b90505f73ffffffffffffffffffffffffffffffffffffffff168173ffffffffffffffffffffffffffffffffffffffff16036112365761123184611bba565b611275565b8473ffffffffffffffffffffffffffffffffffffffff168173ffffffffffffffffffffffffffffffffffffffff1614611274576112738185611bfe565b5b5b5f73ffffffffffffffffffffffffffffffffffffffff168573ffffffffffffffffffffffffffffffffffffffff16036112b6576112b184611d48565b6112f5565b8473ffffffffffffffffffffffffffffffffffffffff168173ffffffffffffffffffffffffffffffffffffffff16146112f4576112f38585611e08565b5b5b809150509392505050565b5f8073ffffffffffffffffffffffffffffffffffffffff16611321836117b7565b73ffffffffffffffffffffffffffffffffffffffff1614159050919050565b5f73ffffffffffffffffffffffffffffffffffffffff168273ffffffffffffffffffffffffffffffffffffffff16036113b0575f6040517f64a0ae920000000000000000000000000000000000000000000000000000000081526004016113a791906122b2565b60405180910390fd5b5f6113bc83835f6111e6565b90505f73ffffffffffffffffffffffffffffffffffffffff168173ffffffffffffffffffffffffffffffffffffffff161461142e575f6040517f73c6ac6e00000000000000000000000000000000000000000000000000000000815260040161142591906122b2565b60405180910390fd5b505050565b5f73ffffffffffffffffffffffffffffffffffffffff168273ffffffffffffffffffffffffffffffffffffffff16036114a357816040517f5b08ba1800000000000000000000000000000000000000000000000000000000815260040161149a91906122b2565b60405180910390fd5b8060055f8573ffffffffffffffffffffffffffffffffffffffff1673ffffffffffffffffffffffffffffffffffffffff1681526020019081526020015f205f8473ffffffffffffffffffffffffffffffffffffffff1673ffffffffffffffffffffffffffffffffffffffff1681526020019081526020015f205f6101000a81548160ff0219169083151502179055508173ffffffffffffffffffffffffffffffffffffffff168373ffffffffffffffffffffffffffffffffffffffff167f17307eab39ab6107e8899845ad3d59bd9653f200f220920489ca2b5937696c318360405161158f91906121b5565b60405180910390a3505050565b5f8373ffffffffffffffffffffffffffffffffffffffff163b1115611748578273ffffffffffffffffffffffffffffffffffffffff1663150b7a026115df611182565b8685856040518563ffffffff1660e01b81526004016116019493929190612f41565b6020604051808303815f875af192505050801561163c57506040513d601f19601f820116820180604052508101906116399190612f9f565b60015b6116bd573d805f811461166a576040519150601f19603f3d011682016040523d82523d5f602084013e61166f565b606091505b505f8151036116b557836040517f64a0ae920000000000000000000000000000000000000000000000000000000081526004016116ac91906122b2565b60405180910390fd5b805181602001fd5b63150b7a0260e01b7bffffffffffffffffffffffffffffffffffffffffffffffffffffffff1916817bffffffffffffffffffffffffffffffffffffffffffffffffffffffff19161461174657836040517f64a0ae9200000000000000000000000000000000000000000000000000000000815260040161173d91906122b2565b60405180910390fd5b505b50505050565b5f7f01ffc9a7000000000000000000000000000000000000000000000000000000007bffffffffffffffffffffffffffffffffffffffffffffffffffffffff1916827bffffffffffffffffffffffffffffffffffffffffffffffffffffffff1916149050919050565b5f60025f8381526020019081526020015f205f9054906101000a900473ffffffffffffffffffffffffffffffffffffffff169050919050565b808061182857505f73ffffffffffffffffffffffffffffffffffffffff168273ffffffffffffffffffffffffffffffffffffffff1614155b1561195a575f611837846110c3565b90505f73ffffffffffffffffffffffffffffffffffffffff168373ffffffffffffffffffffffffffffffffffffffff16141580156118a157508273ffffffffffffffffffffffffffffffffffffffff168173ffffffffffffffffffffffffffffffffffffffff1614155b80156118b457506118b28184610f2e565b155b156118f657826040517fa9fbf51f0000000000000000000000000000000000000000000000000000000081526004016118ed91906122b2565b60405180910390fd5b811561195857838573ffffffffffffffffffffffffffffffffffffffff168273ffffffffffffffffffffffffffffffffffffffff167f8c5be1e5ebec7d5bd14f71427d1e84f3dd0314c0f7b2291e5b200ac8c7c3b92560405160405180910390a45b505b8360045f8581526020019081526020015f205f6101000a81548173ffffffffffffffffffffffffffffffffffffffff021916908373ffffffffffffffffffffffffffffffffffffffff16021790555050505050565b5f806119ba846117b7565b90505f73ffffffffffffffffffffffffffffffffffffffff168373ffffffffffffffffffffffffffffffffffffffff16146119fb576119fa818486611e8c565b5b5f73ffffffffffffffffffffffffffffffffffffffff168173ffffffffffffffffffffffffffffffffffffffff1614611a8657611a3a5f855f806117f0565b600160035f8373ffffffffffffffffffffffffffffffffffffffff1673ffffffffffffffffffffffffffffffffffffffff1681526020019081526020015f205f82825403925050819055505b5f73ffffffffffffffffffffffffffffffffffffffff168573ffffffffffffffffffffffffffffffffffffffff1614611b0557600160035f8773ffffffffffffffffffffffffffffffffffffffff1673ffffffffffffffffffffffffffffffffffffffff1681526020019081526020015f205f82825401925050819055505b8460025f8681526020019081526020015f205f6101000a81548173ffffffffffffffffffffffffffffffffffffffff021916908373ffffffffffffffffffffffffffffffffffffffff160217905550838573ffffffffffffffffffffffffffffffffffffffff168273ffffffffffffffffffffffffffffffffffffffff167fddf252ad1be2c89b69c2b068fc378daa952ba7f163c4a11628f55a4df523b3ef60405160405180910390a4809150509392505050565b60088054905060095f8381526020019081526020015f2081905550600881908060018154018082558091505060019003905f5260205f20015f909190919091505550565b5f611c088361090c565b90505f60075f8481526020019081526020015f20549050818114611cdf575f60065f8673ffffffffffffffffffffffffffffffffffffffff1673ffffffffffffffffffffffffffffffffffffffff1681526020019081526020015f205f8481526020019081526020015f205490508060065f8773ffffffffffffffffffffffffffffffffffffffff1673ffffffffffffffffffffffffffffffffffffffff1681526020019081526020015f205f8481526020019081526020015f20819055508160075f8381526020019081526020015f2081905550505b60075f8481526020019081526020015f205f905560065f8573ffffffffffffffffffffffffffffffffffffffff1673ffffffffffffffffffffffffffffffffffffffff1681526020019081526020015f205f8381526020019081526020015f205f905550505050565b5f6001600880549050611d5b9190612fca565b90505f60095f8481526020019081526020015f205490505f60088381548110611d8757611d86612bc7565b5b905f5260205f20015490508060088381548110611da757611da6612bc7565b5b905f5260205f2001819055508160095f8381526020019081526020015f208190555060095f8581526020019081526020015f205f90556008805480611def57611dee612ffd565b5b600190038181905f5260205f20015f9055905550505050565b5f6001611e148461090c565b611e1e9190612fca565b90508160065f8573ffffffffffffffffffffffffffffffffffffffff1673ffffffffffffffffffffffffffffffffffffffff1681526020019081526020015f205f8381526020019081526020015f20819055508060075f8481526020019081526020015f2081905550505050565b611e97838383611f4f565b611f4a575f73ffffffffffffffffffffffffffffffffffffffff168373ffffffffffffffffffffffffffffffffffffffff1603611f0b57806040517f7e273289000000000000000000000000000000000000000000000000000000008152600401611f02919061249e565b60405180910390fd5b81816040517f177e802f000000000000000000000000000000000000000000000000000000008152600401611f41929190612ba0565b60405180910390fd5b505050565b5f8073ffffffffffffffffffffffffffffffffffffffff168373ffffffffffffffffffffffffffffffffffffffff161415801561200657508273ffffffffffffffffffffffffffffffffffffffff168473ffffffffffffffffffffffffffffffffffffffff161480611fc75750611fc68484610f2e565b5b8061200557508273ffffffffffffffffffffffffffffffffffffffff16611fed83611149565b73ffffffffffffffffffffffffffffffffffffffff16145b5b90509392505050565b60405180606001604052805f81526020015f81526020015f81525090565b5f604051905090565b5f80fd5b5f80fd5b5f73ffffffffffffffffffffffffffffffffffffffff82169050919050565b5f6120678261203e565b9050919050565b6120778161205d565b8114612081575f80fd5b50565b5f813590506120928161206e565b92915050565b5f819050919050565b6120aa81612098565b81146120b4575f80fd5b50565b5f813590506120c5816120a1565b92915050565b5f805f606084860312156120e2576120e1612036565b5b5f6120ef86828701612084565b935050602061210086828701612084565b9250506040612111868287016120b7565b9150509250925092565b5f7fffffffff0000000000000000000000000000000000000000000000000000000082169050919050565b61214f8161211b565b8114612159575f80fd5b50565b5f8135905061216a81612146565b92915050565b5f6020828403121561218557612184612036565b5b5f6121928482850161215c565b91505092915050565b5f8115159050919050565b6121af8161219b565b82525050565b5f6020820190506121c85f8301846121a6565b92915050565b5f81519050919050565b5f82825260208201905092915050565b5f5b838110156122055780820151818401526020810190506121ea565b5f8484015250505050565b5f601f19601f8301169050919050565b5f61222a826121ce565b61223481856121d8565b93506122448185602086016121e8565b61224d81612210565b840191505092915050565b5f6020820190508181035f8301526122708184612220565b905092915050565b5f6020828403121561228d5761228c612036565b5b5f61229a848285016120b7565b91505092915050565b6122ac8161205d565b82525050565b5f6020820190506122c55f8301846122a3565b92915050565b5f80604083850312156122e1576122e0612036565b5b5f6122ee85828601612084565b92505060206122ff858286016120b7565b9150509250929050565b5f80fd5b5f80fd5b7f4e487b71000000000000000000000000000000000000000000000000000000005f52604160045260245ffd5b61234782612210565b810181811067ffffffffffffffff8211171561236657612365612311565b5b80604052505050565b5f61237861202d565b9050612384828261233e565b919050565b5f67ffffffffffffffff8211156123a3576123a2612311565b5b6123ac82612210565b9050602081019050919050565b828183375f83830152505050565b5f6123d96123d484612389565b61236f565b9050828152602081018484840111156123f5576123f461230d565b5b6124008482856123b9565b509392505050565b5f82601f83011261241c5761241b612309565b5b813561242c8482602086016123c7565b91505092915050565b5f806040838503121561244b5761244a612036565b5b5f612458858286016120b7565b925050602083013567ffffffffffffffff8111156124795761247861203a565b5b61248585828601612408565b9150509250929050565b61249881612098565b82525050565b5f6020820190506124b15f83018461248f565b92915050565b5f602082840312156124cc576124cb612036565b5b5f6124d984828501612084565b91505092915050565b6124eb81612098565b82525050565b606082015f8201516125055f8501826124e2565b50602082015161251860208501826124e2565b50604082015161252b60408501826124e2565b50505050565b5f6060820190506125445f8301846124f1565b92915050565b5f805f805f60a0868803121561256357612562612036565b5b5f61257088828901612084565b9550506020612581888289016120b7565b9450506040612592888289016120b7565b93505060606125a3888289016120b7565b925050608086013567ffffffffffffffff8111156125c4576125c361203a565b5b6125d088828901612408565b9150509295509295909350565b5f80604083850312156125f3576125f2612036565b5b5f612600858286016120b7565b9250506020612611858286016120b7565b9150509250929050565b6126248161219b565b811461262e575f80fd5b50565b5f8135905061263f8161261b565b92915050565b5f806040838503121561265b5761265a612036565b5b5f61266885828601612084565b925050602061267985828601612631565b9150509250929050565b5f67ffffffffffffffff82111561269d5761269c612311565b5b6126a682612210565b9050602081019050919050565b5f6126c56126c084612683565b61236f565b9050828152602081018484840111156126e1576126e061230d565b5b6126ec8482856123b9565b509392505050565b5f82601f83011261270857612707612309565b5b81356127188482602086016126b3565b91505092915050565b5f805f806080858703121561273957612738612036565b5b5f61274687828801612084565b945050602061275787828801612084565b9350506040612768878288016120b7565b925050606085013567ffffffffffffffff8111156127895761278861203a565b5b612795878288016126f4565b91505092959194509250565b5f80604083850312156127b7576127b6612036565b5b5f6127c485828601612084565b92505060206127d585828601612084565b9150509250929050565b5f6060820190506127f25f83018661248f565b6127ff602083018561248f565b61280c604083018461248f565b949350505050565b7f4f6e6c7920746865204d7573696320636f6e74726163742063616e2063616c6c5f8201527f20746869732066756e6374696f6e210000000000000000000000000000000000602082015250565b5f61286e602f836121d8565b915061287982612814565b604082019050919050565b5f6020820190508181035f83015261289b81612862565b9050919050565b7f4e487b71000000000000000000000000000000000000000000000000000000005f52602260045260245ffd5b5f60028204905060018216806128e657607f821691505b6020821081036128f9576128f86128a2565b5b50919050565b5f819050815f5260205f209050919050565b5f6020601f8301049050919050565b5f82821b905092915050565b5f6008830261295b7fffffffffffffffffffffffffffffffffffffffffffffffffffffffffffffffff82612920565b6129658683612920565b95508019841693508086168417925050509392505050565b5f819050919050565b5f6129a061299b61299684612098565b61297d565b612098565b9050919050565b5f819050919050565b6129b983612986565b6129cd6129c5826129a7565b84845461292c565b825550505050565b5f90565b6129e16129d5565b6129ec8184846129b0565b505050565b5b81811015612a0f57612a045f826129d9565b6001810190506129f2565b5050565b601f821115612a5457612a25816128ff565b612a2e84612911565b81016020851015612a3d578190505b612a51612a4985612911565b8301826129f1565b50505b505050565b5f82821c905092915050565b5f612a745f1984600802612a59565b1980831691505092915050565b5f612a8c8383612a65565b9150826002028217905092915050565b612aa5826121ce565b67ffffffffffffffff811115612abe57612abd612311565b5b612ac882546128cf565b612ad3828285612a13565b5f60209050601f831160018114612b04575f8415612af2578287015190505b612afc8582612a81565b865550612b63565b601f198416612b12866128ff565b5f5b82811015612b3957848901518255600182019150602085019450602081019050612b14565b86831015612b565784890151612b52601f891682612a65565b8355505b6001600288020188555050505b505050505050565b5f606082019050612b7e5f8301866122a3565b612b8b602083018561248f565b612b9860408301846122a3565b949350505050565b5f604082019050612bb35f8301856122a3565b612bc0602083018461248f565b9392505050565b7f4e487b71000000000000000000000000000000000000000000000000000000005f52603260045260245ffd5b7f4e487b71000000000000000000000000000000000000000000000000000000005f52601160045260245ffd5b5f612c2b82612098565b9150612c3683612098565b9250828201905080821115612c4e57612c4d612bf4565b5b92915050565b7f5468697320646f776e6c6f616420616c726561647920657869737473000000005f82015250565b5f612c88601c836121d8565b9150612c9382612c54565b602082019050919050565b5f6020820190508181035f830152612cb581612c7c565b9050919050565b7f757365436e74206d757374206265206c657373207468616e206f7220657175615f8201527f6c20746f20746f74616c436e7400000000000000000000000000000000000000602082015250565b5f612d16602d836121d8565b9150612d2182612cbc565b604082019050919050565b5f6020820190508181035f830152612d4381612d0a565b9050919050565b7f4f6e6c7920746865206e6674206f776e65722063616e2063616c6c20746869735f8201527f2066756e6374696f6e0000000000000000000000000000000000000000000000602082015250565b5f612da46029836121d8565b9150612daf82612d4a565b604082019050919050565b5f6020820190508181035f830152612dd181612d98565b9050919050565b7f546865726520617265206e6f2072656d61696e696e6720636f756e74730000005f82015250565b5f612e0c601d836121d8565b9150612e1782612dd8565b602082019050919050565b5f6020820190508181035f830152612e3981612e00565b9050919050565b5f612e4a82612098565b91507fffffffffffffffffffffffffffffffffffffffffffffffffffffffffffffffff8203612e7c57612e7b612bf4565b5b600182019050919050565b7f546f6b656e206e6f74206578697374732e0000000000000000000000000000005f82015250565b5f612ebb6011836121d8565b9150612ec682612e87565b602082019050919050565b5f6020820190508181035f830152612ee881612eaf565b9050919050565b5f81519050919050565b5f82825260208201905092915050565b5f612f1382612eef565b612f1d8185612ef9565b9350612f2d8185602086016121e8565b612f3681612210565b840191505092915050565b5f608082019050612f545f8301876122a3565b612f6160208301866122a3565b612f6e604083018561248f565b8181036060830152612f808184612f09565b905095945050505050565b5f81519050612f9981612146565b92915050565b5f60208284031215612fb457612fb3612036565b5b5f612fc184828501612f8b565b91505092915050565b5f612fd482612098565b9150612fdf83612098565b9250828203905081811115612ff757612ff6612bf4565b5b92915050565b7f4e487b71000000000000000000000000000000000000000000000000000000005f52603160045260245ffdfea2646970667358221220c9b74011915cc5e96968ae71634aacf9ec42458a6d676188d8f2db83936a943564736f6c63430008140033",
  "immutableReferences": {},
  "source": "// SPDX-License-Identifier: MIT\npragma solidity ^0.8.0;\n\nimport \"./Copyright.sol\";\nimport \"../node_modules/@openzeppelin/contracts/token/ERC721/ERC721.sol\";\nimport \"../node_modules/@openzeppelin/contracts/token/ERC721/extensions/ERC721Enumerable.sol\";\nimport \"../node_modules/@openzeppelin/contracts/token/ERC721/extensions/ERC721URIStorage.sol\";\n\ncontract Download is ERC721Enumerable {\n    CopyrightImplementation private Cp;\n    mapping(uint256 => string) private _tokenUris;\n\n    mapping(uint => DownloadInfo) public downloadInfo;\n    mapping(uint => mapping(address => bool)) private existsDownloadInfoMap;\n\n    struct DownloadInfo {\n        uint copyrightId;\n        uint usableTotalCnt;\n        uint useCnt;\n    }\n\n    // Only Copyright.sol can call some functions.\n    modifier onlyCopyrightContract() {\n        require(msg.sender == address(Cp), \"Only the Music contract can call this function!\");\n        _;\n    }\n\n    /**\n     * @dev You must deploy the copyright contract first.\n     */\n    constructor(address copyrightAddress) ERC721() {\n        Cp = CopyrightImplementation(copyrightAddress);\n    }\n\n    function modifyTokenUri(uint downloadId, string memory tokenUri) public {\n        _checkExistsToken(downloadId);\n        _tokenUris[downloadId] = tokenUri;\n    }\n\n    function modifyDownloadTotalCnt(uint downloadId, uint totalCnt) public {\n        _checkExistsToken(downloadId);\n        require(downloadInfo[downloadId].useCnt <= totalCnt, \"useCnt must be less than or equal to totalCnt\");\n        downloadInfo[downloadId].usableTotalCnt = totalCnt;\n    }\n\n    function tokenURI(uint256 downloadId) public view virtual override returns (string memory) {\n        _checkExistsToken(downloadId);\n        return _tokenUris[downloadId];\n    }\n\n    // Get the information that copyright's ticket.\n    function getDownloadInfo(uint downloadId) public view returns (DownloadInfo memory) {\n        _checkExistsToken(downloadId);\n        return downloadInfo[downloadId];\n    }\n\n    // Transfer ticket to customer. This function can only be called by a copyright contract.\n    function transferTicket(address from, address to, uint downloadId) public onlyCopyrightContract {\n        safeTransferFrom(from, to, downloadId);\n    }\n\n    // Download ticket minting. This function can only be called by a copyright contract.\n    function buyDownload(\n        address to,\n        uint copyrightId,\n        uint downloadId,\n        uint count,\n        string memory tokenUri\n    ) public onlyCopyrightContract returns (bool) {\n        downloadInfo[downloadId].copyrightId = copyrightId;\n        if (_exists(downloadId)) {\n            downloadInfo[downloadId].usableTotalCnt += count;\n            return false;\n        } else {\n            require(existsDownloadInfoMap[copyrightId][to], \"This download already exists\");\n            _mint(to, downloadId);\n            _tokenUris[downloadId] = tokenUri;\n            existsDownloadInfoMap[copyrightId][to] = true;\n            return true;\n        }\n    }\n\n    // Ticket use.\n    function useDownload(address downloadOwner, uint downloadId) public {\n        _checkExistsToken(downloadId);\n        require(downloadOwner == ownerOf(downloadId), \"Only the nft owner can call this function\");\n        require(\n            downloadInfo[downloadId].usableTotalCnt > downloadInfo[downloadId].useCnt,\n            \"There are no remaining counts\"\n        );\n        downloadInfo[downloadId].useCnt++;\n    }\n\n    // private function\n    function _checkExistsToken(uint256 tokenId) private view {\n        require(_exists(tokenId), \"Token not exists.\");\n    }\n\n    function _exists(uint256 tokenId) internal view virtual returns (bool) {\n        return _ownerOf(tokenId) != address(0);\n    }\n}",
  "sourcePath": "/Users/guarantable/bitbucket/5w_proxy/contracts/Download.sol",
  "compiler": {
    "name": "solc",
    "version": "0.8.20+commit.a1b79de6.Emscripten.clang"
  },
  "schemaVersion": "3.4.14",
  "updatedAt": "2023-10-11T09:39:09.887Z",
  "devdoc": {
    "errors": {
      "ERC721EnumerableForbiddenBatchMint()": [
        {
          "details": "Batch mint is not allowed."
        }
      ],
      "ERC721IncorrectOwner(address,uint256,address)": [
        {
          "details": "Indicates an error related to the ownership over a particular token. Used in transfers.",
          "params": {
            "owner": "Address of the current owner of a token.",
            "sender": "Address whose tokens are being transferred.",
            "tokenId": "Identifier number of a token."
          }
        }
      ],
      "ERC721InsufficientApproval(address,uint256)": [
        {
          "details": "Indicates a failure with the `operator`s approval. Used in transfers.",
          "params": {
            "operator": "Address that may be allowed to operate on tokens without being their owner.",
            "tokenId": "Identifier number of a token."
          }
        }
      ],
      "ERC721InvalidApprover(address)": [
        {
          "details": "Indicates a failure with the `approver` of a token to be approved. Used in approvals.",
          "params": {
            "approver": "Address initiating an approval operation."
          }
        }
      ],
      "ERC721InvalidOperator(address)": [
        {
          "details": "Indicates a failure with the `operator` to be approved. Used in approvals.",
          "params": {
            "operator": "Address that may be allowed to operate on tokens without being their owner."
          }
        }
      ],
      "ERC721InvalidOwner(address)": [
        {
          "details": "Indicates that an address can't be an owner. For example, `address(0)` is a forbidden owner in EIP-20. Used in balance queries.",
          "params": {
            "owner": "Address of the current owner of a token."
          }
        }
      ],
      "ERC721InvalidReceiver(address)": [
        {
          "details": "Indicates a failure with the token `receiver`. Used in transfers.",
          "params": {
            "receiver": "Address to which tokens are being transferred."
          }
        }
      ],
      "ERC721InvalidSender(address)": [
        {
          "details": "Indicates a failure with the token `sender`. Used in transfers.",
          "params": {
            "sender": "Address whose tokens are being transferred."
          }
        }
      ],
      "ERC721NonexistentToken(uint256)": [
        {
          "details": "Indicates a `tokenId` whose `owner` is the zero address.",
          "params": {
            "tokenId": "Identifier number of a token."
          }
        }
      ],
      "ERC721OutOfBoundsIndex(address,uint256)": [
        {
          "details": "An `owner`'s token query was out of bounds for `index`. NOTE: The owner being `address(0)` indicates a global out of bounds index."
        }
      ]
    },
    "events": {
      "Approval(address,address,uint256)": {
        "details": "Emitted when `owner` enables `approved` to manage the `tokenId` token."
      },
      "ApprovalForAll(address,address,bool)": {
        "details": "Emitted when `owner` enables or disables (`approved`) `operator` to manage all of its assets."
      },
      "Transfer(address,address,uint256)": {
        "details": "Emitted when `tokenId` token is transferred from `from` to `to`."
      }
    },
    "kind": "dev",
    "methods": {
      "approve(address,uint256)": {
        "details": "See {IERC721-approve}."
      },
      "balanceOf(address)": {
        "details": "See {IERC721-balanceOf}."
      },
      "constructor": {
        "details": "You must deploy the copyright contract first."
      },
      "getApproved(uint256)": {
        "details": "See {IERC721-getApproved}."
      },
      "isApprovedForAll(address,address)": {
        "details": "See {IERC721-isApprovedForAll}."
      },
      "name()": {
        "details": "See {IERC721Metadata-name}."
      },
      "ownerOf(uint256)": {
        "details": "See {IERC721-ownerOf}."
      },
      "safeTransferFrom(address,address,uint256)": {
        "details": "See {IERC721-safeTransferFrom}."
      },
      "safeTransferFrom(address,address,uint256,bytes)": {
        "details": "See {IERC721-safeTransferFrom}."
      },
      "setApprovalForAll(address,bool)": {
        "details": "See {IERC721-setApprovalForAll}."
      },
      "supportsInterface(bytes4)": {
        "details": "See {IERC165-supportsInterface}."
      },
      "symbol()": {
        "details": "See {IERC721Metadata-symbol}."
      },
      "tokenByIndex(uint256)": {
        "details": "See {IERC721Enumerable-tokenByIndex}."
      },
      "tokenOfOwnerByIndex(address,uint256)": {
        "details": "See {IERC721Enumerable-tokenOfOwnerByIndex}."
      },
      "totalSupply()": {
        "details": "See {IERC721Enumerable-totalSupply}."
      },
      "transferFrom(address,address,uint256)": {
        "details": "See {IERC721-transferFrom}."
      }
    },
    "version": 1
  },
  "userdoc": {
    "kind": "user",
    "methods": {},
    "version": 1
  }
}