{
  "contractName": "ProxyCopyright",
  "abi": [
    {
      "inputs": [
        {
          "internalType": "address",
          "name": "_newCopyright",
          "type": "address"
        }
      ],
      "stateMutability": "nonpayable",
      "type": "constructor"
    },
    {
      "inputs": [
        {
          "internalType": "address",
          "name": "sender",
          "type": "address"
        },
        {
          "internalType": "uint256",
          "name": "tokenId",
          "type": "uint256"
        },
        {
          "internalType": "address",
          "name": "owner",
          "type": "address"
        }
      ],
      "name": "ERC721IncorrectOwner",
      "type": "error"
    },
    {
      "inputs": [
        {
          "internalType": "address",
          "name": "operator",
          "type": "address"
        },
        {
          "internalType": "uint256",
          "name": "tokenId",
          "type": "uint256"
        }
      ],
      "name": "ERC721InsufficientApproval",
      "type": "error"
    },
    {
      "inputs": [
        {
          "internalType": "address",
          "name": "approver",
          "type": "address"
        }
      ],
      "name": "ERC721InvalidApprover",
      "type": "error"
    },
    {
      "inputs": [
        {
          "internalType": "address",
          "name": "operator",
          "type": "address"
        }
      ],
      "name": "ERC721InvalidOperator",
      "type": "error"
    },
    {
      "inputs": [
        {
          "internalType": "address",
          "name": "owner",
          "type": "address"
        }
      ],
      "name": "ERC721InvalidOwner",
      "type": "error"
    },
    {
      "inputs": [
        {
          "internalType": "address",
          "name": "receiver",
          "type": "address"
        }
      ],
      "name": "ERC721InvalidReceiver",
      "type": "error"
    },
    {
      "inputs": [
        {
          "internalType": "address",
          "name": "sender",
          "type": "address"
        }
      ],
      "name": "ERC721InvalidSender",
      "type": "error"
    },
    {
      "inputs": [
        {
          "internalType": "uint256",
          "name": "tokenId",
          "type": "uint256"
        }
      ],
      "name": "ERC721NonexistentToken",
      "type": "error"
    },
    {
      "anonymous": false,
      "inputs": [
        {
          "indexed": true,
          "internalType": "address",
          "name": "owner",
          "type": "address"
        },
        {
          "indexed": true,
          "internalType": "address",
          "name": "approved",
          "type": "address"
        },
        {
          "indexed": true,
          "internalType": "uint256",
          "name": "tokenId",
          "type": "uint256"
        }
      ],
      "name": "Approval",
      "type": "event"
    },
    {
      "anonymous": false,
      "inputs": [
        {
          "indexed": true,
          "internalType": "address",
          "name": "owner",
          "type": "address"
        },
        {
          "indexed": true,
          "internalType": "address",
          "name": "operator",
          "type": "address"
        },
        {
          "indexed": false,
          "internalType": "bool",
          "name": "approved",
          "type": "bool"
        }
      ],
      "name": "ApprovalForAll",
      "type": "event"
    },
    {
      "anonymous": false,
      "inputs": [
        {
          "indexed": true,
          "internalType": "address",
          "name": "from",
          "type": "address"
        },
        {
          "indexed": true,
          "internalType": "address",
          "name": "to",
          "type": "address"
        },
        {
          "indexed": true,
          "internalType": "uint256",
          "name": "tokenId",
          "type": "uint256"
        }
      ],
      "name": "Transfer",
      "type": "event"
    },
    {
      "inputs": [],
      "name": "Copyright",
      "outputs": [
        {
          "internalType": "address",
          "name": "",
          "type": "address"
        }
      ],
      "stateMutability": "view",
      "type": "function",
      "constant": true
    },
    {
      "inputs": [
        {
          "internalType": "address",
          "name": "to",
          "type": "address"
        },
        {
          "internalType": "uint256",
          "name": "tokenId",
          "type": "uint256"
        }
      ],
      "name": "approve",
      "outputs": [],
      "stateMutability": "nonpayable",
      "type": "function"
    },
    {
      "inputs": [
        {
          "internalType": "address",
          "name": "owner",
          "type": "address"
        }
      ],
      "name": "balanceOf",
      "outputs": [
        {
          "internalType": "uint256",
          "name": "",
          "type": "uint256"
        }
      ],
      "stateMutability": "view",
      "type": "function",
      "constant": true
    },
    {
      "inputs": [
        {
          "internalType": "uint256",
          "name": "tokenId",
          "type": "uint256"
        }
      ],
      "name": "getApproved",
      "outputs": [
        {
          "internalType": "address",
          "name": "",
          "type": "address"
        }
      ],
      "stateMutability": "view",
      "type": "function",
      "constant": true
    },
    {
      "inputs": [
        {
          "internalType": "address",
          "name": "owner",
          "type": "address"
        },
        {
          "internalType": "address",
          "name": "operator",
          "type": "address"
        }
      ],
      "name": "isApprovedForAll",
      "outputs": [
        {
          "internalType": "bool",
          "name": "",
          "type": "bool"
        }
      ],
      "stateMutability": "view",
      "type": "function",
      "constant": true
    },
    {
      "inputs": [],
      "name": "name",
      "outputs": [
        {
          "internalType": "string",
          "name": "",
          "type": "string"
        }
      ],
      "stateMutability": "view",
      "type": "function",
      "constant": true
    },
    {
      "inputs": [
        {
          "internalType": "uint256",
          "name": "tokenId",
          "type": "uint256"
        }
      ],
      "name": "ownerOf",
      "outputs": [
        {
          "internalType": "address",
          "name": "",
          "type": "address"
        }
      ],
      "stateMutability": "view",
      "type": "function",
      "constant": true
    },
    {
      "inputs": [
        {
          "internalType": "address",
          "name": "from",
          "type": "address"
        },
        {
          "internalType": "address",
          "name": "to",
          "type": "address"
        },
        {
          "internalType": "uint256",
          "name": "tokenId",
          "type": "uint256"
        }
      ],
      "name": "safeTransferFrom",
      "outputs": [],
      "stateMutability": "nonpayable",
      "type": "function"
    },
    {
      "inputs": [
        {
          "internalType": "address",
          "name": "from",
          "type": "address"
        },
        {
          "internalType": "address",
          "name": "to",
          "type": "address"
        },
        {
          "internalType": "uint256",
          "name": "tokenId",
          "type": "uint256"
        },
        {
          "internalType": "bytes",
          "name": "data",
          "type": "bytes"
        }
      ],
      "name": "safeTransferFrom",
      "outputs": [],
      "stateMutability": "nonpayable",
      "type": "function"
    },
    {
      "inputs": [
        {
          "internalType": "address",
          "name": "operator",
          "type": "address"
        },
        {
          "internalType": "bool",
          "name": "approved",
          "type": "bool"
        }
      ],
      "name": "setApprovalForAll",
      "outputs": [],
      "stateMutability": "nonpayable",
      "type": "function"
    },
    {
      "inputs": [
        {
          "internalType": "bytes4",
          "name": "interfaceId",
          "type": "bytes4"
        }
      ],
      "name": "supportsInterface",
      "outputs": [
        {
          "internalType": "bool",
          "name": "",
          "type": "bool"
        }
      ],
      "stateMutability": "view",
      "type": "function",
      "constant": true
    },
    {
      "inputs": [],
      "name": "symbol",
      "outputs": [
        {
          "internalType": "string",
          "name": "",
          "type": "string"
        }
      ],
      "stateMutability": "view",
      "type": "function",
      "constant": true
    },
    {
      "inputs": [
        {
          "internalType": "address",
          "name": "from",
          "type": "address"
        },
        {
          "internalType": "address",
          "name": "to",
          "type": "address"
        },
        {
          "internalType": "uint256",
          "name": "tokenId",
          "type": "uint256"
        }
      ],
      "name": "transferFrom",
      "outputs": [],
      "stateMutability": "nonpayable",
      "type": "function"
    },
    {
      "inputs": [
        {
          "internalType": "address",
          "name": "_newCopyright",
          "type": "address"
        }
      ],
      "name": "setImplementation",
      "outputs": [],
      "stateMutability": "nonpayable",
      "type": "function"
    },
    {
      "inputs": [
        {
          "internalType": "uint256",
          "name": "copyrightId",
          "type": "uint256"
        }
      ],
      "name": "getUsageInfo",
      "outputs": [
        {
          "components": [
            {
              "internalType": "uint256",
              "name": "buyCnt",
              "type": "uint256"
            },
            {
              "internalType": "uint256",
              "name": "mintCnt",
              "type": "uint256"
            },
            {
              "internalType": "uint256",
              "name": "downloadCnt",
              "type": "uint256"
            },
            {
              "internalType": "bool",
              "name": "sellYn",
              "type": "bool"
            }
          ],
          "internalType": "struct ProxyCopyright.UsageInfo",
          "name": "",
          "type": "tuple"
        }
      ],
      "stateMutability": "view",
      "type": "function",
      "constant": true
    },
    {
      "inputs": [
        {
          "internalType": "uint256",
          "name": "copyrightId",
          "type": "uint256"
        }
      ],
      "name": "tokenURI",
      "outputs": [
        {
          "internalType": "string",
          "name": "",
          "type": "string"
        }
      ],
      "stateMutability": "view",
      "type": "function",
      "constant": true
    },
    {
      "inputs": [
        {
          "internalType": "uint256",
          "name": "copyrightId",
          "type": "uint256"
        },
        {
          "internalType": "bool",
          "name": "sellYn",
          "type": "bool"
        }
      ],
      "name": "modifySellYnDelegateCall",
      "outputs": [],
      "stateMutability": "nonpayable",
      "type": "function"
    },
    {
      "inputs": [
        {
          "internalType": "uint256",
          "name": "copyrightId",
          "type": "uint256"
        },
        {
          "internalType": "string",
          "name": "tokenUri",
          "type": "string"
        }
      ],
      "name": "modifyTokenUriDelegateCall",
      "outputs": [],
      "stateMutability": "nonpayable",
      "type": "function"
    },
    {
      "inputs": [
        {
          "internalType": "address",
          "name": "downloadContractAddress",
          "type": "address"
        }
      ],
      "name": "setDtAddressDelegateCall",
      "outputs": [],
      "stateMutability": "nonpayable",
      "type": "function"
    },
    {
      "inputs": [
        {
          "internalType": "uint256",
          "name": "copyrightId",
          "type": "uint256"
        },
        {
          "internalType": "string",
          "name": "tokenUri",
          "type": "string"
        },
        {
          "internalType": "bool",
          "name": "sellYn",
          "type": "bool"
        }
      ],
      "name": "mintCopyrightDelegateCall",
      "outputs": [],
      "stateMutability": "nonpayable",
      "type": "function"
    },
    {
      "inputs": [
        {
          "internalType": "uint256",
          "name": "copyrightId",
          "type": "uint256"
        },
        {
          "internalType": "uint256",
          "name": "counter",
          "type": "uint256"
        },
        {
          "internalType": "uint256",
          "name": "price",
          "type": "uint256"
        },
        {
          "internalType": "string",
          "name": "tokenUri",
          "type": "string"
        }
      ],
      "name": "buyDownloadTicketDelegateCall",
      "outputs": [],
      "stateMutability": "nonpayable",
      "type": "function"
    },
    {
      "inputs": [
        {
          "internalType": "uint256",
          "name": "copyrightId",
          "type": "uint256"
        }
      ],
      "name": "useDownloadDelegateCall",
      "outputs": [],
      "stateMutability": "nonpayable",
      "type": "function"
    },
    {
      "inputs": [
        {
          "internalType": "uint256",
          "name": "downloadId",
          "type": "uint256"
        },
        {
          "internalType": "string",
          "name": "tokenUri",
          "type": "string"
        }
      ],
      "name": "modifyDownloadTokenUriDelegateCall",
      "outputs": [],
      "stateMutability": "nonpayable",
      "type": "function"
    },
    {
      "inputs": [
        {
          "internalType": "uint256",
          "name": "downloadId",
          "type": "uint256"
        },
        {
          "internalType": "uint256",
          "name": "totalCnt",
          "type": "uint256"
        }
      ],
      "name": "modifyDownloadTotalCntDelegateCall",
      "outputs": [],
      "stateMutability": "nonpayable",
      "type": "function"
    }
  ],
  "bytecode": "0x608060405234801562000010575f80fd5b5060405162002f6338038062002f638339818101604052810190620000369190620000e2565b8060065f6101000a81548173ffffffffffffffffffffffffffffffffffffffff021916908373ffffffffffffffffffffffffffffffffffffffff1602179055505062000112565b5f80fd5b5f73ffffffffffffffffffffffffffffffffffffffff82169050919050565b5f620000ac8262000081565b9050919050565b620000be81620000a0565b8114620000c9575f80fd5b50565b5f81519050620000dc81620000b3565b92915050565b5f60208284031215620000fa57620000f96200007d565b5b5f6200010984828501620000cc565b91505092915050565b612e4380620001205f395ff3fe608060405234801561000f575f80fd5b5060043610610156575f3560e01c80636352211e116100c1578063cbdfe9fd1161007a578063cbdfe9fd146103ba578063d431c991146103ea578063d784d42614610406578063def63b9714610422578063e985e9c51461043e578063f3d838a01461046e57610156565b80636352211e146102d457806370a082311461030457806395d89b4114610334578063a22cb46514610352578063b88d4fde1461036e578063c87b56dd1461038a57610156565b806323b872dd1161011357806323b872dd1461022c57806340ef49ff1461024857806342842e0e14610264578063526a89fa146102805780635a9b25681461029c5780636297559d146102b857610156565b806301ffc9a71461015a57806306fdde031461018a578063081812fc146101a8578063095ea7b3146101d85780630bf4ad5a146101f457806310c96d4814610210575b5f80fd5b610174600480360381019061016f91906121d9565b61048c565b604051610181919061221e565b60405180910390f35b61019261056d565b60405161019f91906122c1565b60405180910390f35b6101c260048036038101906101bd9190612314565b6105fc565b6040516101cf919061237e565b60405180910390f35b6101f260048036038101906101ed91906123c1565b610617565b005b61020e60048036038101906102099190612555565b61062d565b005b61022a600480360381019061022591906125c1565b610793565b005b610246600480360381019061024191906125ff565b6108f6565b005b610262600480360381019061025d919061264f565b6109f5565b005b61027e600480360381019061027991906125ff565b610b55565b005b61029a6004803603810190610295919061267a565b610b74565b005b6102b660048036038101906102b191906126fa565b610cdb565b005b6102d260048036038101906102cd9190612314565b610eb6565b005b6102ee60048036038101906102e99190612314565b611016565b6040516102fb919061237e565b60405180910390f35b61031e6004803603810190610319919061264f565b611027565b60405161032b9190612763565b60405180910390f35b61033c6110dd565b60405161034991906122c1565b60405180910390f35b61036c6004803603810190610367919061277c565b61116d565b005b61038860048036038101906103839190612858565b611183565b005b6103a4600480360381019061039f9190612314565b6111a0565b6040516103b191906122c1565b60405180910390f35b6103d460048036038101906103cf9190612314565b61124a565b6040516103e19190612949565b60405180910390f35b61040460048036038101906103ff91906126fa565b6112ac565b005b610420600480360381019061041b919061264f565b61140f565b005b61043c60048036038101906104379190612962565b611452565b005b610458600480360381019061045391906129a0565b61162d565b604051610465919061221e565b60405180910390f35b6104766116bb565b604051610483919061237e565b60405180910390f35b5f7f80ac58cd000000000000000000000000000000000000000000000000000000007bffffffffffffffffffffffffffffffffffffffffffffffffffffffff1916827bffffffffffffffffffffffffffffffffffffffffffffffffffffffff1916148061055657507f5b5e139f000000000000000000000000000000000000000000000000000000007bffffffffffffffffffffffffffffffffffffffffffffffffffffffff1916827bffffffffffffffffffffffffffffffffffffffffffffffffffffffff1916145b806105665750610565826116e0565b5b9050919050565b60605f805461057b90612a0b565b80601f01602080910402602001604051908101604052809291908181526020018280546105a790612a0b565b80156105f25780601f106105c9576101008083540402835291602001916105f2565b820191905f5260205f20905b8154815290600101906020018083116105d557829003601f168201915b5050505050905090565b5f61060682611749565b50610610826117cf565b9050919050565b6106298282610624611808565b61180f565b5050565b5f8060065f9054906101000a900473ffffffffffffffffffffffffffffffffffffffff1673ffffffffffffffffffffffffffffffffffffffff1685858560405160240161067c93929190612a3b565b6040516020818303038152906040527fe2ee3b2c000000000000000000000000000000000000000000000000000000007bffffffffffffffffffffffffffffffffffffffffffffffffffffffff19166020820180517bffffffffffffffffffffffffffffffffffffffffffffffffffffffff83818316178352505050506040516107069190612abb565b5f60405180830381855af49150503d805f811461073e576040519150601f19603f3d011682016040523d82523d5f602084013e610743565b606091505b5091509150600191508161078c576040517f08c379a000000000000000000000000000000000000000000000000000000000815260040161078390612b1b565b60405180910390fd5b5050505050565b5f8060065f9054906101000a900473ffffffffffffffffffffffffffffffffffffffff1673ffffffffffffffffffffffffffffffffffffffff1684846040516024016107e0929190612b39565b6040516020818303038152906040527fbe85002c000000000000000000000000000000000000000000000000000000007bffffffffffffffffffffffffffffffffffffffffffffffffffffffff19166020820180517bffffffffffffffffffffffffffffffffffffffffffffffffffffffff838183161783525050505060405161086a9190612abb565b5f60405180830381855af49150503d805f81146108a2576040519150601f19603f3d011682016040523d82523d5f602084013e6108a7565b606091505b509150915060019150816108f0576040517f08c379a00000000000000000000000000000000000000000000000000000000081526004016108e790612b1b565b60405180910390fd5b50505050565b5f73ffffffffffffffffffffffffffffffffffffffff168273ffffffffffffffffffffffffffffffffffffffff1603610966575f6040517f64a0ae9200000000000000000000000000000000000000000000000000000000815260040161095d919061237e565b60405180910390fd5b5f6109798383610974611808565b611821565b90508373ffffffffffffffffffffffffffffffffffffffff168173ffffffffffffffffffffffffffffffffffffffff16146109ef578382826040517f64283d7b0000000000000000000000000000000000000000000000000000000081526004016109e693929190612b60565b60405180910390fd5b50505050565b5f8060065f9054906101000a900473ffffffffffffffffffffffffffffffffffffffff1673ffffffffffffffffffffffffffffffffffffffff1683604051602401610a40919061237e565b6040516020818303038152906040527f3e6c4b21000000000000000000000000000000000000000000000000000000007bffffffffffffffffffffffffffffffffffffffffffffffffffffffff19166020820180517bffffffffffffffffffffffffffffffffffffffffffffffffffffffff8381831617835250505050604051610aca9190612abb565b5f60405180830381855af49150503d805f8114610b02576040519150601f19603f3d011682016040523d82523d5f602084013e610b07565b606091505b50915091506001915081610b50576040517f08c379a0000000000000000000000000000000000000000000000000000000008152600401610b4790612b1b565b60405180910390fd5b505050565b610b6f83838360405180602001604052805f815250611183565b505050565b5f8060065f9054906101000a900473ffffffffffffffffffffffffffffffffffffffff1673ffffffffffffffffffffffffffffffffffffffff16868686604051602401610bc393929190612b95565b6040516020818303038152906040527f5cd0e356000000000000000000000000000000000000000000000000000000007bffffffffffffffffffffffffffffffffffffffffffffffffffffffff19166020820180517bffffffffffffffffffffffffffffffffffffffffffffffffffffffff8381831617835250505050604051610c4d9190612abb565b5f60405180830381855af49150503d805f8114610c85576040519150601f19603f3d011682016040523d82523d5f602084013e610c8a565b606091505b50915091506001915081610cd3576040517f08c379a0000000000000000000000000000000000000000000000000000000008152600401610cca90612b1b565b60405180910390fd5b505050505050565b81610ce581611016565b73ffffffffffffffffffffffffffffffffffffffff163373ffffffffffffffffffffffffffffffffffffffff1614610d52576040517f08c379a0000000000000000000000000000000000000000000000000000000008152600401610d4990612c3a565b60405180910390fd5b5f8060065f9054906101000a900473ffffffffffffffffffffffffffffffffffffffff1673ffffffffffffffffffffffffffffffffffffffff168585604051602401610d9f929190612c58565b6040516020818303038152906040527fc0e69a6b000000000000000000000000000000000000000000000000000000007bffffffffffffffffffffffffffffffffffffffffffffffffffffffff19166020820180517bffffffffffffffffffffffffffffffffffffffffffffffffffffffff8381831617835250505050604051610e299190612abb565b5f60405180830381855af49150503d805f8114610e61576040519150601f19603f3d011682016040523d82523d5f602084013e610e66565b606091505b50915091506001915081610eaf576040517f08c379a0000000000000000000000000000000000000000000000000000000008152600401610ea690612b1b565b60405180910390fd5b5050505050565b5f8060065f9054906101000a900473ffffffffffffffffffffffffffffffffffffffff1673ffffffffffffffffffffffffffffffffffffffff1683604051602401610f019190612763565b6040516020818303038152906040527fd253bf94000000000000000000000000000000000000000000000000000000007bffffffffffffffffffffffffffffffffffffffffffffffffffffffff19166020820180517bffffffffffffffffffffffffffffffffffffffffffffffffffffffff8381831617835250505050604051610f8b9190612abb565b5f60405180830381855af49150503d805f8114610fc3576040519150601f19603f3d011682016040523d82523d5f602084013e610fc8565b606091505b50915091506001915081611011576040517f08c379a000000000000000000000000000000000000000000000000000000000815260040161100890612b1b565b60405180910390fd5b505050565b5f61102082611749565b9050919050565b5f8073ffffffffffffffffffffffffffffffffffffffff168273ffffffffffffffffffffffffffffffffffffffff1603611098575f6040517f89c62b6400000000000000000000000000000000000000000000000000000000815260040161108f919061237e565b60405180910390fd5b60035f8373ffffffffffffffffffffffffffffffffffffffff1673ffffffffffffffffffffffffffffffffffffffff1681526020019081526020015f20549050919050565b6060600180546110ec90612a0b565b80601f016020809104026020016040519081016040528092919081815260200182805461111890612a0b565b80156111635780601f1061113a57610100808354040283529160200191611163565b820191905f5260205f20905b81548152906001019060200180831161114657829003601f168201915b5050505050905090565b61117f611178611808565b8383611a2c565b5050565b61118e8484846108f6565b61119a84848484611b95565b50505050565b60606111ab82611d47565b60085f8381526020019081526020015f2080546111c790612a0b565b80601f01602080910402602001604051908101604052809291908181526020018280546111f390612a0b565b801561123e5780601f106112155761010080835404028352916020019161123e565b820191905f5260205f20905b81548152906001019060200180831161122157829003601f168201915b50505050509050919050565b61125261214d565b60095f8381526020019081526020015f206040518060800160405290815f82015481526020016001820154815260200160028201548152602001600382015f9054906101000a900460ff1615151515815250509050919050565b5f8060065f9054906101000a900473ffffffffffffffffffffffffffffffffffffffff1673ffffffffffffffffffffffffffffffffffffffff1684846040516024016112f9929190612c58565b6040516020818303038152906040527f61950744000000000000000000000000000000000000000000000000000000007bffffffffffffffffffffffffffffffffffffffffffffffffffffffff19166020820180517bffffffffffffffffffffffffffffffffffffffffffffffffffffffff83818316178352505050506040516113839190612abb565b5f60405180830381855af49150503d805f81146113bb576040519150601f19603f3d011682016040523d82523d5f602084013e6113c0565b606091505b50915091506001915081611409576040517f08c379a000000000000000000000000000000000000000000000000000000000815260040161140090612b1b565b60405180910390fd5b50505050565b8060065f6101000a81548173ffffffffffffffffffffffffffffffffffffffff021916908373ffffffffffffffffffffffffffffffffffffffff16021790555050565b8161145c81611016565b73ffffffffffffffffffffffffffffffffffffffff163373ffffffffffffffffffffffffffffffffffffffff16146114c9576040517f08c379a00000000000000000000000000000000000000000000000000000000081526004016114c090612c3a565b60405180910390fd5b5f8060065f9054906101000a900473ffffffffffffffffffffffffffffffffffffffff1673ffffffffffffffffffffffffffffffffffffffff168585604051602401611516929190612c86565b6040516020818303038152906040527f07fd1f32000000000000000000000000000000000000000000000000000000007bffffffffffffffffffffffffffffffffffffffffffffffffffffffff19166020820180517bffffffffffffffffffffffffffffffffffffffffffffffffffffffff83818316178352505050506040516115a09190612abb565b5f60405180830381855af49150503d805f81146115d8576040519150601f19603f3d011682016040523d82523d5f602084013e6115dd565b606091505b50915091506001915081611626576040517f08c379a000000000000000000000000000000000000000000000000000000000815260040161161d90612b1b565b60405180910390fd5b5050505050565b5f60055f8473ffffffffffffffffffffffffffffffffffffffff1673ffffffffffffffffffffffffffffffffffffffff1681526020019081526020015f205f8373ffffffffffffffffffffffffffffffffffffffff1673ffffffffffffffffffffffffffffffffffffffff1681526020019081526020015f205f9054906101000a900460ff16905092915050565b60065f9054906101000a900473ffffffffffffffffffffffffffffffffffffffff1681565b5f7f01ffc9a7000000000000000000000000000000000000000000000000000000007bffffffffffffffffffffffffffffffffffffffffffffffffffffffff1916827bffffffffffffffffffffffffffffffffffffffffffffffffffffffff1916149050919050565b5f8061175483611d92565b90505f73ffffffffffffffffffffffffffffffffffffffff168173ffffffffffffffffffffffffffffffffffffffff16036117c657826040517f7e2732890000000000000000000000000000000000000000000000000000000081526004016117bd9190612763565b60405180910390fd5b80915050919050565b5f60045f8381526020019081526020015f205f9054906101000a900473ffffffffffffffffffffffffffffffffffffffff169050919050565b5f33905090565b61181c8383836001611dcb565b505050565b5f8061182c84611d92565b90505f73ffffffffffffffffffffffffffffffffffffffff168373ffffffffffffffffffffffffffffffffffffffff161461186d5761186c818486611f8a565b5b5f73ffffffffffffffffffffffffffffffffffffffff168173ffffffffffffffffffffffffffffffffffffffff16146118f8576118ac5f855f80611dcb565b600160035f8373ffffffffffffffffffffffffffffffffffffffff1673ffffffffffffffffffffffffffffffffffffffff1681526020019081526020015f205f82825403925050819055505b5f73ffffffffffffffffffffffffffffffffffffffff168573ffffffffffffffffffffffffffffffffffffffff161461197757600160035f8773ffffffffffffffffffffffffffffffffffffffff1673ffffffffffffffffffffffffffffffffffffffff1681526020019081526020015f205f82825401925050819055505b8460025f8681526020019081526020015f205f6101000a81548173ffffffffffffffffffffffffffffffffffffffff021916908373ffffffffffffffffffffffffffffffffffffffff160217905550838573ffffffffffffffffffffffffffffffffffffffff168273ffffffffffffffffffffffffffffffffffffffff167fddf252ad1be2c89b69c2b068fc378daa952ba7f163c4a11628f55a4df523b3ef60405160405180910390a4809150509392505050565b5f73ffffffffffffffffffffffffffffffffffffffff168273ffffffffffffffffffffffffffffffffffffffff1603611a9c57816040517f5b08ba18000000000000000000000000000000000000000000000000000000008152600401611a93919061237e565b60405180910390fd5b8060055f8573ffffffffffffffffffffffffffffffffffffffff1673ffffffffffffffffffffffffffffffffffffffff1681526020019081526020015f205f8473ffffffffffffffffffffffffffffffffffffffff1673ffffffffffffffffffffffffffffffffffffffff1681526020019081526020015f205f6101000a81548160ff0219169083151502179055508173ffffffffffffffffffffffffffffffffffffffff168373ffffffffffffffffffffffffffffffffffffffff167f17307eab39ab6107e8899845ad3d59bd9653f200f220920489ca2b5937696c3183604051611b88919061221e565b60405180910390a3505050565b5f8373ffffffffffffffffffffffffffffffffffffffff163b1115611d41578273ffffffffffffffffffffffffffffffffffffffff1663150b7a02611bd8611808565b8685856040518563ffffffff1660e01b8152600401611bfa9493929190612cf5565b6020604051808303815f875af1925050508015611c3557506040513d601f19601f82011682018060405250810190611c329190612d53565b60015b611cb6573d805f8114611c63576040519150601f19603f3d011682016040523d82523d5f602084013e611c68565b606091505b505f815103611cae57836040517f64a0ae92000000000000000000000000000000000000000000000000000000008152600401611ca5919061237e565b60405180910390fd5b805181602001fd5b63150b7a0260e01b7bffffffffffffffffffffffffffffffffffffffffffffffffffffffff1916817bffffffffffffffffffffffffffffffffffffffffffffffffffffffff191614611d3f57836040517f64a0ae92000000000000000000000000000000000000000000000000000000008152600401611d36919061237e565b60405180910390fd5b505b50505050565b611d508161204d565b611d8f576040517f08c379a0000000000000000000000000000000000000000000000000000000008152600401611d8690612dc8565b60405180910390fd5b50565b5f60025f8381526020019081526020015f205f9054906101000a900473ffffffffffffffffffffffffffffffffffffffff169050919050565b8080611e0357505f73ffffffffffffffffffffffffffffffffffffffff168273ffffffffffffffffffffffffffffffffffffffff1614155b15611f35575f611e1284611749565b90505f73ffffffffffffffffffffffffffffffffffffffff168373ffffffffffffffffffffffffffffffffffffffff1614158015611e7c57508273ffffffffffffffffffffffffffffffffffffffff168173ffffffffffffffffffffffffffffffffffffffff1614155b8015611e8f5750611e8d818461162d565b155b15611ed157826040517fa9fbf51f000000000000000000000000000000000000000000000000000000008152600401611ec8919061237e565b60405180910390fd5b8115611f3357838573ffffffffffffffffffffffffffffffffffffffff168273ffffffffffffffffffffffffffffffffffffffff167f8c5be1e5ebec7d5bd14f71427d1e84f3dd0314c0f7b2291e5b200ac8c7c3b92560405160405180910390a45b505b8360045f8581526020019081526020015f205f6101000a81548173ffffffffffffffffffffffffffffffffffffffff021916908373ffffffffffffffffffffffffffffffffffffffff16021790555050505050565b611f9583838361208d565b612048575f73ffffffffffffffffffffffffffffffffffffffff168373ffffffffffffffffffffffffffffffffffffffff160361200957806040517f7e2732890000000000000000000000000000000000000000000000000000000081526004016120009190612763565b60405180910390fd5b81816040517f177e802f00000000000000000000000000000000000000000000000000000000815260040161203f929190612de6565b60405180910390fd5b505050565b5f8073ffffffffffffffffffffffffffffffffffffffff1661206e83611d92565b73ffffffffffffffffffffffffffffffffffffffff1614159050919050565b5f8073ffffffffffffffffffffffffffffffffffffffff168373ffffffffffffffffffffffffffffffffffffffff161415801561214457508273ffffffffffffffffffffffffffffffffffffffff168473ffffffffffffffffffffffffffffffffffffffff1614806121055750612104848461162d565b5b8061214357508273ffffffffffffffffffffffffffffffffffffffff1661212b836117cf565b73ffffffffffffffffffffffffffffffffffffffff16145b5b90509392505050565b60405180608001604052805f81526020015f81526020015f81526020015f151581525090565b5f604051905090565b5f80fd5b5f80fd5b5f7fffffffff0000000000000000000000000000000000000000000000000000000082169050919050565b6121b881612184565b81146121c2575f80fd5b50565b5f813590506121d3816121af565b92915050565b5f602082840312156121ee576121ed61217c565b5b5f6121fb848285016121c5565b91505092915050565b5f8115159050919050565b61221881612204565b82525050565b5f6020820190506122315f83018461220f565b92915050565b5f81519050919050565b5f82825260208201905092915050565b5f5b8381101561226e578082015181840152602081019050612253565b5f8484015250505050565b5f601f19601f8301169050919050565b5f61229382612237565b61229d8185612241565b93506122ad818560208601612251565b6122b681612279565b840191505092915050565b5f6020820190508181035f8301526122d98184612289565b905092915050565b5f819050919050565b6122f3816122e1565b81146122fd575f80fd5b50565b5f8135905061230e816122ea565b92915050565b5f602082840312156123295761232861217c565b5b5f61233684828501612300565b91505092915050565b5f73ffffffffffffffffffffffffffffffffffffffff82169050919050565b5f6123688261233f565b9050919050565b6123788161235e565b82525050565b5f6020820190506123915f83018461236f565b92915050565b6123a08161235e565b81146123aa575f80fd5b50565b5f813590506123bb81612397565b92915050565b5f80604083850312156123d7576123d661217c565b5b5f6123e4858286016123ad565b92505060206123f585828601612300565b9150509250929050565b5f80fd5b5f80fd5b7f4e487b71000000000000000000000000000000000000000000000000000000005f52604160045260245ffd5b61243d82612279565b810181811067ffffffffffffffff8211171561245c5761245b612407565b5b80604052505050565b5f61246e612173565b905061247a8282612434565b919050565b5f67ffffffffffffffff82111561249957612498612407565b5b6124a282612279565b9050602081019050919050565b828183375f83830152505050565b5f6124cf6124ca8461247f565b612465565b9050828152602081018484840111156124eb576124ea612403565b5b6124f68482856124af565b509392505050565b5f82601f830112612512576125116123ff565b5b81356125228482602086016124bd565b91505092915050565b61253481612204565b811461253e575f80fd5b50565b5f8135905061254f8161252b565b92915050565b5f805f6060848603121561256c5761256b61217c565b5b5f61257986828701612300565b935050602084013567ffffffffffffffff81111561259a57612599612180565b5b6125a6868287016124fe565b92505060406125b786828701612541565b9150509250925092565b5f80604083850312156125d7576125d661217c565b5b5f6125e485828601612300565b92505060206125f585828601612300565b9150509250929050565b5f805f606084860312156126165761261561217c565b5b5f612623868287016123ad565b9350506020612634868287016123ad565b925050604061264586828701612300565b9150509250925092565b5f602082840312156126645761266361217c565b5b5f612671848285016123ad565b91505092915050565b5f805f80608085870312156126925761269161217c565b5b5f61269f87828801612300565b94505060206126b087828801612300565b93505060406126c187828801612300565b925050606085013567ffffffffffffffff8111156126e2576126e1612180565b5b6126ee878288016124fe565b91505092959194509250565b5f80604083850312156127105761270f61217c565b5b5f61271d85828601612300565b925050602083013567ffffffffffffffff81111561273e5761273d612180565b5b61274a858286016124fe565b9150509250929050565b61275d816122e1565b82525050565b5f6020820190506127765f830184612754565b92915050565b5f80604083850312156127925761279161217c565b5b5f61279f858286016123ad565b92505060206127b085828601612541565b9150509250929050565b5f67ffffffffffffffff8211156127d4576127d3612407565b5b6127dd82612279565b9050602081019050919050565b5f6127fc6127f7846127ba565b612465565b90508281526020810184848401111561281857612817612403565b5b6128238482856124af565b509392505050565b5f82601f83011261283f5761283e6123ff565b5b813561284f8482602086016127ea565b91505092915050565b5f805f80608085870312156128705761286f61217c565b5b5f61287d878288016123ad565b945050602061288e878288016123ad565b935050604061289f87828801612300565b925050606085013567ffffffffffffffff8111156128c0576128bf612180565b5b6128cc8782880161282b565b91505092959194509250565b6128e1816122e1565b82525050565b6128f081612204565b82525050565b608082015f82015161290a5f8501826128d8565b50602082015161291d60208501826128d8565b50604082015161293060408501826128d8565b50606082015161294360608501826128e7565b50505050565b5f60808201905061295c5f8301846128f6565b92915050565b5f80604083850312156129785761297761217c565b5b5f61298585828601612300565b925050602061299685828601612541565b9150509250929050565b5f80604083850312156129b6576129b561217c565b5b5f6129c3858286016123ad565b92505060206129d4858286016123ad565b9150509250929050565b7f4e487b71000000000000000000000000000000000000000000000000000000005f52602260045260245ffd5b5f6002820490506001821680612a2257607f821691505b602082108103612a3557612a346129de565b5b50919050565b5f606082019050612a4e5f830186612754565b8181036020830152612a608185612289565b9050612a6f604083018461220f565b949350505050565b5f81519050919050565b5f81905092915050565b5f612a9582612a77565b612a9f8185612a81565b9350612aaf818560208601612251565b80840191505092915050565b5f612ac68284612a8b565b915081905092915050565b7f4661696c65642064656c656761746563616c6c2e2e2e000000000000000000005f82015250565b5f612b05601683612241565b9150612b1082612ad1565b602082019050919050565b5f6020820190508181035f830152612b3281612af9565b9050919050565b5f604082019050612b4c5f830185612754565b612b596020830184612754565b9392505050565b5f606082019050612b735f83018661236f565b612b806020830185612754565b612b8d604083018461236f565b949350505050565b5f606082019050612ba85f830186612754565b612bb56020830185612754565b612bc26040830184612754565b949350505050565b7f4f6e6c7920746865206e6674206f776e65722063616e2063616c6c20746869735f8201527f2066756e6374696f6e0000000000000000000000000000000000000000000000602082015250565b5f612c24602983612241565b9150612c2f82612bca565b604082019050919050565b5f6020820190508181035f830152612c5181612c18565b9050919050565b5f604082019050612c6b5f830185612754565b8181036020830152612c7d8184612289565b90509392505050565b5f604082019050612c995f830185612754565b612ca6602083018461220f565b9392505050565b5f82825260208201905092915050565b5f612cc782612a77565b612cd18185612cad565b9350612ce1818560208601612251565b612cea81612279565b840191505092915050565b5f608082019050612d085f83018761236f565b612d15602083018661236f565b612d226040830185612754565b8181036060830152612d348184612cbd565b905095945050505050565b5f81519050612d4d816121af565b92915050565b5f60208284031215612d6857612d6761217c565b5b5f612d7584828501612d3f565b91505092915050565b7f546f6b656e206e6f74206578697374732e0000000000000000000000000000005f82015250565b5f612db2601183612241565b9150612dbd82612d7e565b602082019050919050565b5f6020820190508181035f830152612ddf81612da6565b9050919050565b5f604082019050612df95f83018561236f565b612e066020830184612754565b939250505056fea2646970667358221220ff824fe7946fc43ed7086c1d9ba97d70dd132eed4ddc31d8f913a72cbc1c31cb64736f6c63430008140033",
  "immutableReferences": {},
  "source": "// SPDX-License-Identifier: MIT\npragma solidity ^0.8.0;\n\nimport \"../node_modules/@openzeppelin/contracts/token/ERC721/ERC721.sol\";\nimport \"../node_modules/@openzeppelin/contracts/token/ERC721/extensions/ERC721URIStorage.sol\";\n\ncontract ProxyCopyright is ERC721 {\n    address public Copyright;\n    address private owner;\n\n    mapping(uint256 => string) private _tokenUris;\n\n    mapping(uint => UsageInfo) internal copyrightInfoMap;\n\n    struct UsageInfo {\n        uint buyCnt;\n        uint mintCnt;\n        uint downloadCnt;\n        bool sellYn;\n    }\n\n    modifier onlyOwner() {\n        require(msg.sender == owner, \"Only the contract owner can call this function\");\n        _;\n    }\n\n    modifier onlyNftOwner(uint copyrightId) {\n        require(msg.sender == ownerOf(copyrightId), \"Only the nft owner can call this function\");\n        _;\n    }\n\n    constructor(address _newCopyright) {\n        Copyright = _newCopyright;\n    }\n\n    function setImplementation(address _newCopyright) public {\n        // Add proper access controls in production\n        Copyright = _newCopyright;\n    }\n// (bool success, bytes memory result) = Copyright.delegatecall(abi.encodeWithSignature(\"getUsageInfo(uint 256)\", copyrightId)); \n//  return abi.decode(result, (UsageInfo));\n    function getUsageInfo(uint copyrightId) public view returns (UsageInfo memory) {\n        return copyrightInfoMap[copyrightId];\n    }\n\n    function tokenURI(uint256 copyrightId) public view virtual override returns (string memory) {\n        _checkExistsToken(copyrightId);\n        return _tokenUris[copyrightId];\n    }\n\n    // Change copyright available. You can stop or start the sale.\n    function modifySellYnDelegateCall(uint copyrightId, bool sellYn) public onlyNftOwner(copyrightId) {\n        (bool success, bytes memory result) = Copyright.delegatecall(abi.encodeWithSignature(\"modifySellYn(uint256, bool)\", copyrightId, sellYn));\n        require(success = true, \"Failed delegatecall...\");\n    }\n\n    function modifyTokenUriDelegateCall(uint copyrightId, string memory tokenUri) public onlyNftOwner(copyrightId) {\n        (bool success, bytes memory result) = Copyright.delegatecall(abi.encodeWithSignature(\"modifyTokenUri(uint256, string)\", copyrightId, tokenUri));\n        require(success = true, \"Failed delegatecall...\");\n    }\n\n    /**\n     * @dev After deploy, you need to call this function and set the DownloadTicket.sol address.\n     */\n    function setDtAddressDelegateCall(address downloadContractAddress) public {\n        (bool success, bytes memory result) = Copyright.delegatecall(abi.encodeWithSignature(\"setDtAddress(address)\", downloadContractAddress));\n        require(success = true, \"Failed delegatecall...\");\n    }\n\n    // Copyright NFT minting.\n    function mintCopyrightDelegateCall(uint copyrightId, string memory tokenUri, bool sellYn) public {\n        (bool success, bytes memory result) = Copyright.delegatecall(abi.encodeWithSignature(\"mintCopyright(uint256, string, bool)\", copyrightId, tokenUri, sellYn));\n        require(success = true, \"Failed delegatecall...\");\n    }\n\n    // Download ticket minting.\n    function buyDownloadTicketDelegateCall(uint copyrightId, uint counter, uint price, string memory tokenUri) public {\n        //require(msg.sender == ownerOf(copyrightId), \"Only Copyright owner can mint the tickets!\");\n        (bool success, bytes memory result) = Copyright.delegatecall(abi.encodeWithSignature(\"buyDownloadTicket(uint256, uint256, uint256, string)\", copyrightId, counter, price));\n        require(success = true, \"Failed delegatecall...\");\n    }\n\n    // Use the download ticket.\n    function useDownloadDelegateCall(uint copyrightId) public {\n        (bool success, bytes memory result) = Copyright.delegatecall(abi.encodeWithSignature(\"useDownload(uint256)\", copyrightId));\n        require(success = true, \"Failed delegatecall...\");\n    }\n\n    function modifyDownloadTokenUriDelegateCall(uint downloadId, string memory tokenUri) public {\n        //require(msg.sender == ownerOf(download.getDownloadInfo(downloadId).copyrightId));\n        (bool success, bytes memory result) = Copyright.delegatecall(abi.encodeWithSignature(\"modifyDownloadTokenUri(uint256, string)\", downloadId, tokenUri));\n        require(success = true, \"Failed delegatecall...\");\n    }\n\n    function modifyDownloadTotalCntDelegateCall(uint downloadId, uint totalCnt) public {\n        //require(msg.sender == ownerOf(download.getDownloadInfo(downloadId).copyrightId));\n        (bool success, bytes memory result) = Copyright.delegatecall(abi.encodeWithSignature(\"modifyDownloadTokenCnt(uint256, uint256)\", downloadId, totalCnt));\n        require(success = true, \"Failed delegatecall...\");\n    }\n\n    // private function\n    function _checkExistsToken(uint256 tokenId) private view {\n        require(_exists(tokenId), \"Token not exists.\");\n    }\n\n    function _exists(uint256 tokenId) internal view virtual returns (bool) {\n        return _ownerOf(tokenId) != address(0);\n    }\n}",
  "sourcePath": "/Users/guarantable/bitbucket/5w_proxy/contracts/ProxyCopyright.sol",
  "compiler": {
    "name": "solc",
    "version": "0.8.20+commit.a1b79de6.Emscripten.clang"
  },
  "schemaVersion": "3.4.14",
  "updatedAt": "2023-10-12T07:51:10.948Z",
  "networkType": "ethereum",
  "devdoc": {
    "errors": {
      "ERC721IncorrectOwner(address,uint256,address)": [
        {
          "details": "Indicates an error related to the ownership over a particular token. Used in transfers.",
          "params": {
            "owner": "Address of the current owner of a token.",
            "sender": "Address whose tokens are being transferred.",
            "tokenId": "Identifier number of a token."
          }
        }
      ],
      "ERC721InsufficientApproval(address,uint256)": [
        {
          "details": "Indicates a failure with the `operator`s approval. Used in transfers.",
          "params": {
            "operator": "Address that may be allowed to operate on tokens without being their owner.",
            "tokenId": "Identifier number of a token."
          }
        }
      ],
      "ERC721InvalidApprover(address)": [
        {
          "details": "Indicates a failure with the `approver` of a token to be approved. Used in approvals.",
          "params": {
            "approver": "Address initiating an approval operation."
          }
        }
      ],
      "ERC721InvalidOperator(address)": [
        {
          "details": "Indicates a failure with the `operator` to be approved. Used in approvals.",
          "params": {
            "operator": "Address that may be allowed to operate on tokens without being their owner."
          }
        }
      ],
      "ERC721InvalidOwner(address)": [
        {
          "details": "Indicates that an address can't be an owner. For example, `address(0)` is a forbidden owner in EIP-20. Used in balance queries.",
          "params": {
            "owner": "Address of the current owner of a token."
          }
        }
      ],
      "ERC721InvalidReceiver(address)": [
        {
          "details": "Indicates a failure with the token `receiver`. Used in transfers.",
          "params": {
            "receiver": "Address to which tokens are being transferred."
          }
        }
      ],
      "ERC721InvalidSender(address)": [
        {
          "details": "Indicates a failure with the token `sender`. Used in transfers.",
          "params": {
            "sender": "Address whose tokens are being transferred."
          }
        }
      ],
      "ERC721NonexistentToken(uint256)": [
        {
          "details": "Indicates a `tokenId` whose `owner` is the zero address.",
          "params": {
            "tokenId": "Identifier number of a token."
          }
        }
      ]
    },
    "events": {
      "Approval(address,address,uint256)": {
        "details": "Emitted when `owner` enables `approved` to manage the `tokenId` token."
      },
      "ApprovalForAll(address,address,bool)": {
        "details": "Emitted when `owner` enables or disables (`approved`) `operator` to manage all of its assets."
      },
      "Transfer(address,address,uint256)": {
        "details": "Emitted when `tokenId` token is transferred from `from` to `to`."
      }
    },
    "kind": "dev",
    "methods": {
      "approve(address,uint256)": {
        "details": "See {IERC721-approve}."
      },
      "balanceOf(address)": {
        "details": "See {IERC721-balanceOf}."
      },
      "getApproved(uint256)": {
        "details": "See {IERC721-getApproved}."
      },
      "isApprovedForAll(address,address)": {
        "details": "See {IERC721-isApprovedForAll}."
      },
      "name()": {
        "details": "See {IERC721Metadata-name}."
      },
      "ownerOf(uint256)": {
        "details": "See {IERC721-ownerOf}."
      },
      "safeTransferFrom(address,address,uint256)": {
        "details": "See {IERC721-safeTransferFrom}."
      },
      "safeTransferFrom(address,address,uint256,bytes)": {
        "details": "See {IERC721-safeTransferFrom}."
      },
      "setApprovalForAll(address,bool)": {
        "details": "See {IERC721-setApprovalForAll}."
      },
      "setDtAddressDelegateCall(address)": {
        "details": "After deploy, you need to call this function and set the DownloadTicket.sol address."
      },
      "supportsInterface(bytes4)": {
        "details": "See {IERC165-supportsInterface}."
      },
      "symbol()": {
        "details": "See {IERC721Metadata-symbol}."
      },
      "transferFrom(address,address,uint256)": {
        "details": "See {IERC721-transferFrom}."
      }
    },
    "version": 1
  },
  "userdoc": {
    "kind": "user",
    "methods": {},
    "version": 1
  }
}