{
  "contractName": "ProxyCopyright",
  "abi": [
    {
      "inputs": [
        {
          "internalType": "address",
          "name": "_newCopyright",
          "type": "address"
        }
      ],
      "stateMutability": "nonpayable",
      "type": "constructor"
    },
    {
      "stateMutability": "payable",
      "type": "fallback"
    },
    {
      "inputs": [],
      "name": "Copyright",
      "outputs": [
        {
          "internalType": "address",
          "name": "",
          "type": "address"
        }
      ],
      "stateMutability": "view",
      "type": "function"
    },
    {
      "stateMutability": "payable",
      "type": "receive"
    },
    {
      "inputs": [
        {
          "internalType": "address",
          "name": "_newCopyright",
          "type": "address"
        }
      ],
      "name": "setImplementation",
      "outputs": [],
      "stateMutability": "nonpayable",
      "type": "function"
    }
  ],
  "bytecode": "0x608060405234801561000f575f80fd5b50604051610324380380610324833981810160405281019061003191906100d4565b805f806101000a81548173ffffffffffffffffffffffffffffffffffffffff021916908373ffffffffffffffffffffffffffffffffffffffff160217905550506100ff565b5f80fd5b5f73ffffffffffffffffffffffffffffffffffffffff82169050919050565b5f6100a38261007a565b9050919050565b6100b381610099565b81146100bd575f80fd5b50565b5f815190506100ce816100aa565b92915050565b5f602082840312156100e9576100e8610076565b5b5f6100f6848285016100c0565b91505092915050565b6102188061010c5f395ff3fe60806040526004361061002c575f3560e01c8063d784d4261461007a578063f3d838a0146100a257610033565b3661003357005b5f805f9054906101000a900473ffffffffffffffffffffffffffffffffffffffff169050604051365f82375f803683855af43d805f843e815f8114610076578184f35b8184fd5b348015610085575f80fd5b506100a0600480360381019061009b919061018f565b6100cc565b005b3480156100ad575f80fd5b506100b661010e565b6040516100c391906101c9565b60405180910390f35b805f806101000a81548173ffffffffffffffffffffffffffffffffffffffff021916908373ffffffffffffffffffffffffffffffffffffffff16021790555050565b5f8054906101000a900473ffffffffffffffffffffffffffffffffffffffff1681565b5f80fd5b5f73ffffffffffffffffffffffffffffffffffffffff82169050919050565b5f61015e82610135565b9050919050565b61016e81610154565b8114610178575f80fd5b50565b5f8135905061018981610165565b92915050565b5f602082840312156101a4576101a3610131565b5b5f6101b18482850161017b565b91505092915050565b6101c381610154565b82525050565b5f6020820190506101dc5f8301846101ba565b9291505056fea26469706673582212208bfea6290df548d7ab8df75ed1c61fbca0c579bd235a4671dcd4cdbcee0dd07e64736f6c63430008140033",
  "immutableReferences": {},
  "source": "// SPDX-License-Identifier: MIT\npragma solidity ^0.8.0;\n\ncontract ProxyCopyright {\n    address public Copyright;\n\n    constructor(address _newCopyright) {\n        Copyright = _newCopyright;\n    }\n\n    function setImplementation(address _newCopyright) public {\n        // Add proper access controls in production\n        Copyright = _newCopyright;\n    }\n\n    fallback() external payable {\n        address copyrightAddr = Copyright;\n        assembly {\n            let ptr := mload(0x40)\n            calldatacopy(ptr, 0, calldatasize())\n            let result := delegatecall(gas(), copyrightAddr, ptr, calldatasize(), 0, 0)\n            let size := returndatasize()\n            returndatacopy(ptr, 0, size)\n\n            switch result\n            case 0 { revert(ptr, size) }\n            default { return(ptr, size) }\n        }\n    }\n\n    receive() external payable {\n        // React to receiving ether\n    }\n}\n",
  "sourcePath": "/Users/guarantable/bitbucket/5w_proxy/contracts/ProxyCopyright.sol",
  "compiler": {
    "name": "solc",
    "version": "0.8.20+commit.a1b79de6.Emscripten.clang"
  },
  "schemaVersion": "3.4.14",
  "updatedAt": "2023-10-11T09:39:09.892Z",
  "devdoc": {
    "kind": "dev",
    "methods": {},
    "version": 1
  },
  "userdoc": {
    "kind": "user",
    "methods": {},
    "version": 1
  }
}