{
	"data": {
		"bytecode": {
			"linkReferences": {},
			"object": "608060405260016006553480156200001657600080fd5b5060405180608001604052806046815260200162004e00604691396200004281620000d760201b60201c565b506040518060400160405280600981526020017f474e55204d5553494300000000000000000000000000000000000000000000008152506004908162000089919062000366565b506040518060400160405280600b81526020017f47756172616e7461626c6500000000000000000000000000000000000000000081525060059081620000d0919062000366565b506200044d565b8060029081620000e8919062000366565b5050565b600081519050919050565b7f4e487b7100000000000000000000000000000000000000000000000000000000600052604160045260246000fd5b7f4e487b7100000000000000000000000000000000000000000000000000000000600052602260045260246000fd5b600060028204905060018216806200016e57607f821691505b60208210810362000184576200018362000126565b5b50919050565b60008190508160005260206000209050919050565b60006020601f8301049050919050565b600082821b905092915050565b600060088302620001ee7fffffffffffffffffffffffffffffffffffffffffffffffffffffffffffffffff82620001af565b620001fa8683620001af565b95508019841693508086168417925050509392505050565b6000819050919050565b6000819050919050565b600062000247620002416200023b8462000212565b6200021c565b62000212565b9050919050565b6000819050919050565b620002638362000226565b6200027b62000272826200024e565b848454620001bc565b825550505050565b600090565b6200029262000283565b6200029f81848462000258565b505050565b5b81811015620002c757620002bb60008262000288565b600181019050620002a5565b5050565b601f8211156200031657620002e0816200018a565b620002eb846200019f565b81016020851015620002fb578190505b620003136200030a856200019f565b830182620002a4565b50505b505050565b600082821c905092915050565b60006200033b600019846008026200031b565b1980831691505092915050565b600062000356838362000328565b9150826002028217905092915050565b6200037182620000ec565b67ffffffffffffffff8111156200038d576200038c620000f7565b5b62000399825462000155565b620003a6828285620002cb565b600060209050601f831160018114620003de5760008415620003c9578287015190505b620003d5858262000348565b86555062000445565b601f198416620003ee866200018a565b60005b828110156200041857848901518255600182019150602085019450602081019050620003f1565b8683101562000438578489015162000434601f89168262000328565b8355505b6001600288020188555050505b505050505050565b6149a3806200045d6000396000f3fe60806040526004361061014a5760003560e01c806395d89b41116100b6578063e985e9c51161006f578063e985e9c5146104b6578063f23a6e61146104f3578063f242432a14610530578063fcdb24a814610559578063fdcad5eb14610582578063ff99a063146105ab5761014a565b806395d89b41146103aa5780639663a0c9146103d5578063a22cb465146103fe578063b87b731914610427578063bc197c8114610450578063e2fdc9891461048d5761014a565b80634e1273f4116101085780634e1273f41461028357806350248853146102c05780635c300eba146102dc5780636352211e146103055780637826ac791461034257806385c987941461036d5761014a565b8062fdd58e1461014f57806301ffc9a71461018c57806306fdde03146101c95780630e89341c146101f45780632a6c4c14146102315780632eb2c2d61461025a575b600080fd5b34801561015b57600080fd5b506101766004803603810190610171919061294d565b6105e8565b604051610183919061299c565b60405180910390f35b34801561019857600080fd5b506101b360048036038101906101ae9190612a0f565b6106b0565b6040516101c09190612a57565b60405180910390f35b3480156101d557600080fd5b506101de6106c2565b6040516101eb9190612b02565b60405180910390f35b34801561020057600080fd5b5061021b60048036038101906102169190612b24565b610750565b6040516102289190612b02565b60405180910390f35b34801561023d57600080fd5b5061025860048036038101906102539190612b51565b6107e4565b005b34801561026657600080fd5b50610281600480360381019061027c9190612d8e565b610982565b005b34801561028f57600080fd5b506102aa60048036038101906102a59190612f20565b610a23565b6040516102b79190613056565b60405180910390f35b6102da60048036038101906102d59190612b24565b610b3c565b005b3480156102e857600080fd5b5061030360048036038101906102fe9190612b51565b610f7d565b005b34801561031157600080fd5b5061032c60048036038101906103279190612b24565b6110f7565b6040516103399190613087565b60405180910390f35b34801561034e57600080fd5b50610357611134565b6040516103649190613101565b60405180910390f35b34801561037957600080fd5b50610394600480360381019061038f9190612b24565b61115a565b6040516103a191906131ea565b60405180910390f35b3480156103b657600080fd5b506103bf611351565b6040516103cc9190612b02565b60405180910390f35b3480156103e157600080fd5b506103fc60048036038101906103f791906132ad565b6113df565b005b34801561040a57600080fd5b5061042560048036038101906104209190613394565b611502565b005b34801561043357600080fd5b5061044e600480360381019061044991906133d4565b611518565b005b34801561045c57600080fd5b50610477600480360381019061047291906134b2565b61155c565b604051610484919061359d565b60405180910390f35b34801561049957600080fd5b506104b460048036038101906104af9190612b24565b611574565b005b3480156104c257600080fd5b506104dd60048036038101906104d891906135b8565b611606565b6040516104ea9190612a57565b60405180910390f35b3480156104ff57600080fd5b5061051a600480360381019061051591906135f8565b61169a565b604051610527919061359d565b60405180910390f35b34801561053c57600080fd5b5061055760048036038101906105529190613692565b6116b0565b005b34801561056557600080fd5b50610580600480360381019061057b9190613729565b611751565b005b34801561058e57600080fd5b506105a960048036038101906105a49190612b24565b611809565b005b3480156105b757600080fd5b506105d260048036038101906105cd9190612b24565b61189b565b6040516105df9190613860565b60405180910390f35b60008073ffffffffffffffffffffffffffffffffffffffff168373ffffffffffffffffffffffffffffffffffffffff1603610658576040517f08c379a000000000000000000000000000000000000000000000000000000000815260040161064f906138ed565b60405180910390fd5b60008083815260200190815260200160002060008473ffffffffffffffffffffffffffffffffffffffff1673ffffffffffffffffffffffffffffffffffffffff16815260200190815260200160002054905092915050565b60006106bb82611946565b9050919050565b600480546106cf9061393c565b80601f01602080910402602001604051908101604052809291908181526020018280546106fb9061393c565b80156107485780601f1061071d57610100808354040283529160200191610748565b820191906000526020600020905b81548152906001019060200180831161072b57829003601f168201915b505050505081565b60606002805461075f9061393c565b80601f016020809104026020016040519081016040528092919081815260200182805461078b9061393c565b80156107d85780601f106107ad576101008083540402835291602001916107d8565b820191906000526020600020905b8154815290600101906020018083116107bb57829003601f168201915b50505050509050919050565b3373ffffffffffffffffffffffffffffffffffffffff16600360009054906101000a900473ffffffffffffffffffffffffffffffffffffffff1673ffffffffffffffffffffffffffffffffffffffff16636352211e846040518263ffffffff1660e01b8152600401610856919061299c565b602060405180830381865afa158015610873573d6000803e3d6000fd5b505050506040513d601f19601f820116820180604052508101906108979190613982565b73ffffffffffffffffffffffffffffffffffffffff16146108ed576040517f08c379a00000000000000000000000000000000000000000000000000000000081526004016108e4906139fb565b60405180910390fd5b600360009054906101000a900473ffffffffffffffffffffffffffffffffffffffff1673ffffffffffffffffffffffffffffffffffffffff16631fe6db2d8383336040518463ffffffff1660e01b815260040161094c93929190613a1b565b600060405180830381600087803b15801561096657600080fd5b505af115801561097a573d6000803e3d6000fd5b505050505050565b61098a6119c0565b73ffffffffffffffffffffffffffffffffffffffff168573ffffffffffffffffffffffffffffffffffffffff1614806109d057506109cf856109ca6119c0565b611606565b5b610a0f576040517f08c379a0000000000000000000000000000000000000000000000000000000008152600401610a0690613ac4565b60405180910390fd5b610a1c85858585856119c8565b5050505050565b60608151835114610a69576040517f08c379a0000000000000000000000000000000000000000000000000000000008152600401610a6090613b56565b60405180910390fd5b6000835167ffffffffffffffff811115610a8657610a85612b96565b5b604051908082528060200260200182016040528015610ab45781602001602082028036833780820191505090505b50905060005b8451811015610b3157610b01858281518110610ad957610ad8613b76565b5b6020026020010151858381518110610af457610af3613b76565b5b60200260200101516105e8565b828281518110610b1457610b13613b76565b5b60200260200101818152505080610b2a90613bd4565b9050610aba565b508091505092915050565b6000600360009054906101000a900473ffffffffffffffffffffffffffffffffffffffff1673ffffffffffffffffffffffffffffffffffffffff1663f06fc961836040518263ffffffff1660e01b8152600401610b99919061299c565b602060405180830381865afa158015610bb6573d6000803e3d6000fd5b505050506040513d601f19601f82011682018060405250810190610bda9190613c31565b905060008111610c1f576040517f08c379a0000000000000000000000000000000000000000000000000000000008152600401610c1690613caa565b60405180910390fd5b80341015610c62576040517f08c379a0000000000000000000000000000000000000000000000000000000008152600401610c5990613d16565b60405180910390fd5b610c6b826110f7565b73ffffffffffffffffffffffffffffffffffffffff16600360009054906101000a900473ffffffffffffffffffffffffffffffffffffffff1673ffffffffffffffffffffffffffffffffffffffff1663081812fc846040518263ffffffff1660e01b8152600401610cdc919061299c565b602060405180830381865afa158015610cf9573d6000803e3d6000fd5b505050506040513d601f19601f82011682018060405250810190610d1d9190613982565b73ffffffffffffffffffffffffffffffffffffffff1614610d73576040517f08c379a0000000000000000000000000000000000000000000000000000000008152600401610d6a90613da8565b60405180910390fd5b6000600360009054906101000a900473ffffffffffffffffffffffffffffffffffffffff1673ffffffffffffffffffffffffffffffffffffffff16636352211e846040518263ffffffff1660e01b8152600401610dd0919061299c565b602060405180830381865afa158015610ded573d6000803e3d6000fd5b505050506040513d601f19601f82011682018060405250810190610e119190613982565b90508073ffffffffffffffffffffffffffffffffffffffff166108fc839081150290604051600060405180830381858888f19350505050158015610e59573d6000803e3d6000fd5b50600360009054906101000a900473ffffffffffffffffffffffffffffffffffffffff1673ffffffffffffffffffffffffffffffffffffffff166301367e6a8233866040518463ffffffff1660e01b8152600401610eb993929190613dc8565b600060405180830381600087803b158015610ed357600080fd5b505af1158015610ee7573d6000803e3d6000fd5b50505050600360009054906101000a900473ffffffffffffffffffffffffffffffffffffffff1673ffffffffffffffffffffffffffffffffffffffff1663b2529b32846040518263ffffffff1660e01b8152600401610f46919061299c565b600060405180830381600087803b158015610f6057600080fd5b505af1158015610f74573d6000803e3d6000fd5b50505050505050565b6006548210610fc1576040517f08c379a0000000000000000000000000000000000000000000000000000000008152600401610fb890613e4b565b60405180910390fd5b3373ffffffffffffffffffffffffffffffffffffffff166008600084815260200190815260200160002060009054906101000a900473ffffffffffffffffffffffffffffffffffffffff1673ffffffffffffffffffffffffffffffffffffffff1614611062576040517f08c379a000000000000000000000000000000000000000000000000000000000815260040161105990613edd565b60405180910390fd5b600360009054906101000a900473ffffffffffffffffffffffffffffffffffffffff1673ffffffffffffffffffffffffffffffffffffffff1663e870cb663384846040518463ffffffff1660e01b81526004016110c193929190613efd565b600060405180830381600087803b1580156110db57600080fd5b505af11580156110ef573d6000803e3d6000fd5b505050505050565b60006008600083815260200190815260200160002060009054906101000a900473ffffffffffffffffffffffffffffffffffffffff169050919050565b600360009054906101000a900473ffffffffffffffffffffffffffffffffffffffff1681565b611162612847565b600760008381526020019081526020016000206040518060a00160405290816000820154815260200160018201805461119a9061393c565b80601f01602080910402602001604051908101604052809291908181526020018280546111c69061393c565b80156112135780601f106111e857610100808354040283529160200191611213565b820191906000526020600020905b8154815290600101906020018083116111f657829003601f168201915b5050505050815260200160028201805461122c9061393c565b80601f01602080910402602001604051908101604052809291908181526020018280546112589061393c565b80156112a55780601f1061127a576101008083540402835291602001916112a5565b820191906000526020600020905b81548152906001019060200180831161128857829003601f168201915b505050505081526020016003820180546112be9061393c565b80601f01602080910402602001604051908101604052809291908181526020018280546112ea9061393c565b80156113375780601f1061130c57610100808354040283529160200191611337565b820191906000526020600020905b81548152906001019060200180831161131a57829003601f168201915b505050505081526020016004820154815250509050919050565b6005805461135e9061393c565b80601f016020809104026020016040519081016040528092919081815260200182805461138a9061393c565b80156113d75780601f106113ac576101008083540402835291602001916113d7565b820191906000526020600020905b8154815290600101906020018083116113ba57829003601f168201915b505050505081565b6000600660008154809291906113f490613bd4565b9190505590506040518060a00160405280828152602001868152602001858152602001848152602001838152506007600083815260200190815260200160002060008201518160000155602082015181600101908161145391906140d6565b50604082015181600201908161146991906140d6565b50606082015181600301908161147f91906140d6565b5060808201518160040155905050336008600083815260200190815260200160002060006101000a81548173ffffffffffffffffffffffffffffffffffffffff021916908373ffffffffffffffffffffffffffffffffffffffff1602179055506114fb3382600160405180602001604052806000815250611ce9565b5050505050565b61151461150d6119c0565b8383611e99565b5050565b80600360006101000a81548173ffffffffffffffffffffffffffffffffffffffff021916908373ffffffffffffffffffffffffffffffffffffffff16021790555050565b600063bc197c8160e01b905098975050505050505050565b600360009054906101000a900473ffffffffffffffffffffffffffffffffffffffff1673ffffffffffffffffffffffffffffffffffffffff1663010198df33836040518363ffffffff1660e01b81526004016115d19291906141a8565b600060405180830381600087803b1580156115eb57600080fd5b505af11580156115ff573d6000803e3d6000fd5b5050505050565b6000600160008473ffffffffffffffffffffffffffffffffffffffff1673ffffffffffffffffffffffffffffffffffffffff16815260200190815260200160002060008373ffffffffffffffffffffffffffffffffffffffff1673ffffffffffffffffffffffffffffffffffffffff16815260200190815260200160002060009054906101000a900460ff16905092915050565b600063f23a6e6160e01b90509695505050505050565b6116b86119c0565b73ffffffffffffffffffffffffffffffffffffffff168573ffffffffffffffffffffffffffffffffffffffff1614806116fe57506116fd856116f86119c0565b611606565b5b61173d576040517f08c379a000000000000000000000000000000000000000000000000000000000815260040161173490613ac4565b60405180910390fd5b61174a8585858585612005565b5050505050565b61175d858585856113df565b6000600160065461176e91906141d1565b9050600360009054906101000a900473ffffffffffffffffffffffffffffffffffffffff1673ffffffffffffffffffffffffffffffffffffffff1663e870cb663383856040518463ffffffff1660e01b81526004016117cf93929190613efd565b600060405180830381600087803b1580156117e957600080fd5b505af11580156117fd573d6000803e3d6000fd5b50505050505050505050565b600360009054906101000a900473ffffffffffffffffffffffffffffffffffffffff1673ffffffffffffffffffffffffffffffffffffffff1663bdbdeeef33836040518363ffffffff1660e01b81526004016118669291906141a8565b600060405180830381600087803b15801561188057600080fd5b505af1158015611894573d6000803e3d6000fd5b5050505050565b6118a3612876565b600360009054906101000a900473ffffffffffffffffffffffffffffffffffffffff1673ffffffffffffffffffffffffffffffffffffffff1663ff99a063836040518263ffffffff1660e01b81526004016118fe919061299c565b60a060405180830381865afa15801561191b573d6000803e3d6000fd5b505050506040513d601f19601f8201168201806040525081019061193f9190614296565b9050919050565b60007f4e2312e0000000000000000000000000000000000000000000000000000000007bffffffffffffffffffffffffffffffffffffffffffffffffffffffff1916827bffffffffffffffffffffffffffffffffffffffffffffffffffffffff191614806119b957506119b8826122a0565b5b9050919050565b600033905090565b8151835114611a0c576040517f08c379a0000000000000000000000000000000000000000000000000000000008152600401611a0390614335565b60405180910390fd5b600073ffffffffffffffffffffffffffffffffffffffff168473ffffffffffffffffffffffffffffffffffffffff1603611a7b576040517f08c379a0000000000000000000000000000000000000000000000000000000008152600401611a72906143c7565b60405180910390fd5b6000611a856119c0565b9050611a95818787878787612382565b60005b8451811015611c46576000858281518110611ab657611ab5613b76565b5b602002602001015190506000858381518110611ad557611ad4613b76565b5b60200260200101519050600080600084815260200190815260200160002060008b73ffffffffffffffffffffffffffffffffffffffff1673ffffffffffffffffffffffffffffffffffffffff16815260200190815260200160002054905081811015611b76576040517f08c379a0000000000000000000000000000000000000000000000000000000008152600401611b6d90614459565b60405180910390fd5b81810360008085815260200190815260200160002060008c73ffffffffffffffffffffffffffffffffffffffff1673ffffffffffffffffffffffffffffffffffffffff168152602001908152602001600020819055508160008085815260200190815260200160002060008b73ffffffffffffffffffffffffffffffffffffffff1673ffffffffffffffffffffffffffffffffffffffff1681526020019081526020016000206000828254611c2b9190614479565b9250508190555050505080611c3f90613bd4565b9050611a98565b508473ffffffffffffffffffffffffffffffffffffffff168673ffffffffffffffffffffffffffffffffffffffff168273ffffffffffffffffffffffffffffffffffffffff167f4a39dc06d4c0dbc64b70af90fd698a233a518aa5d07e595d983b8c0526c8f7fb8787604051611cbd9291906144ad565b60405180910390a4611cd381878787878761238a565b611ce1818787878787612392565b505050505050565b600073ffffffffffffffffffffffffffffffffffffffff168473ffffffffffffffffffffffffffffffffffffffff1603611d58576040517f08c379a0000000000000000000000000000000000000000000000000000000008152600401611d4f90614556565b60405180910390fd5b6000611d626119c0565b90506000611d6f85612569565b90506000611d7c85612569565b9050611d8d83600089858589612382565b8460008088815260200190815260200160002060008973ffffffffffffffffffffffffffffffffffffffff1673ffffffffffffffffffffffffffffffffffffffff1681526020019081526020016000206000828254611dec9190614479565b925050819055508673ffffffffffffffffffffffffffffffffffffffff16600073ffffffffffffffffffffffffffffffffffffffff168473ffffffffffffffffffffffffffffffffffffffff167fc3d58168c5ae7397731d063d5bbf3d657854427343f4c083240f7aacaa2d0f628989604051611e6a929190614576565b60405180910390a4611e818360008985858961238a565b611e90836000898989896125e3565b50505050505050565b8173ffffffffffffffffffffffffffffffffffffffff168373ffffffffffffffffffffffffffffffffffffffff1603611f07576040517f08c379a0000000000000000000000000000000000000000000000000000000008152600401611efe90614611565b60405180910390fd5b80600160008573ffffffffffffffffffffffffffffffffffffffff1673ffffffffffffffffffffffffffffffffffffffff16815260200190815260200160002060008473ffffffffffffffffffffffffffffffffffffffff1673ffffffffffffffffffffffffffffffffffffffff16815260200190815260200160002060006101000a81548160ff0219169083151502179055508173ffffffffffffffffffffffffffffffffffffffff168373ffffffffffffffffffffffffffffffffffffffff167f17307eab39ab6107e8899845ad3d59bd9653f200f220920489ca2b5937696c3183604051611ff89190612a57565b60405180910390a3505050565b600073ffffffffffffffffffffffffffffffffffffffff168473ffffffffffffffffffffffffffffffffffffffff1603612074576040517f08c379a000000000000000000000000000000000000000000000000000000000815260040161206b906143c7565b60405180910390fd5b600061207e6119c0565b9050600061208b85612569565b9050600061209885612569565b90506120a8838989858589612382565b600080600088815260200190815260200160002060008a73ffffffffffffffffffffffffffffffffffffffff1673ffffffffffffffffffffffffffffffffffffffff1681526020019081526020016000205490508581101561213f576040517f08c379a000000000000000000000000000000000000000000000000000000000815260040161213690614459565b60405180910390fd5b85810360008089815260200190815260200160002060008b73ffffffffffffffffffffffffffffffffffffffff1673ffffffffffffffffffffffffffffffffffffffff168152602001908152602001600020819055508560008089815260200190815260200160002060008a73ffffffffffffffffffffffffffffffffffffffff1673ffffffffffffffffffffffffffffffffffffffff16815260200190815260200160002060008282546121f49190614479565b925050819055508773ffffffffffffffffffffffffffffffffffffffff168973ffffffffffffffffffffffffffffffffffffffff168573ffffffffffffffffffffffffffffffffffffffff167fc3d58168c5ae7397731d063d5bbf3d657854427343f4c083240f7aacaa2d0f628a8a604051612271929190614576565b60405180910390a4612287848a8a86868a61238a565b612295848a8a8a8a8a6125e3565b505050505050505050565b60007fd9b67a26000000000000000000000000000000000000000000000000000000007bffffffffffffffffffffffffffffffffffffffffffffffffffffffff1916827bffffffffffffffffffffffffffffffffffffffffffffffffffffffff1916148061236b57507f0e89341c000000000000000000000000000000000000000000000000000000007bffffffffffffffffffffffffffffffffffffffffffffffffffffffff1916827bffffffffffffffffffffffffffffffffffffffffffffffffffffffff1916145b8061237b575061237a826127ba565b5b9050919050565b505050505050565b505050505050565b6123b18473ffffffffffffffffffffffffffffffffffffffff16612824565b15612561578373ffffffffffffffffffffffffffffffffffffffff1663bc197c8187878686866040518663ffffffff1660e01b81526004016123f7959493929190614686565b6020604051808303816000875af192505050801561243357506040513d601f19601f820116820180604052508101906124309190614703565b60015b6124d85761243f61473d565b806308c379a00361249b575061245361475f565b8061245e575061249d565b806040517f08c379a00000000000000000000000000000000000000000000000000000000081526004016124929190612b02565b60405180910390fd5b505b6040517f08c379a00000000000000000000000000000000000000000000000000000000081526004016124cf90614861565b60405180910390fd5b63bc197c8160e01b7bffffffffffffffffffffffffffffffffffffffffffffffffffffffff1916817bffffffffffffffffffffffffffffffffffffffffffffffffffffffff19161461255f576040517f08c379a0000000000000000000000000000000000000000000000000000000008152600401612556906148f3565b60405180910390fd5b505b505050505050565b60606000600167ffffffffffffffff81111561258857612587612b96565b5b6040519080825280602002602001820160405280156125b65781602001602082028036833780820191505090505b50905082816000815181106125ce576125cd613b76565b5b60200260200101818152505080915050919050565b6126028473ffffffffffffffffffffffffffffffffffffffff16612824565b156127b2578373ffffffffffffffffffffffffffffffffffffffff1663f23a6e6187878686866040518663ffffffff1660e01b8152600401612648959493929190614913565b6020604051808303816000875af192505050801561268457506040513d601f19601f820116820180604052508101906126819190614703565b60015b6127295761269061473d565b806308c379a0036126ec57506126a461475f565b806126af57506126ee565b806040517f08c379a00000000000000000000000000000000000000000000000000000000081526004016126e39190612b02565b60405180910390fd5b505b6040517f08c379a000000000000000000000000000000000000000000000000000000000815260040161272090614861565b60405180910390fd5b63f23a6e6160e01b7bffffffffffffffffffffffffffffffffffffffffffffffffffffffff1916817bffffffffffffffffffffffffffffffffffffffffffffffffffffffff1916146127b0576040517f08c379a00000000000000000000000000000000000000000000000000000000081526004016127a7906148f3565b60405180910390fd5b505b505050505050565b60007f01ffc9a7000000000000000000000000000000000000000000000000000000007bffffffffffffffffffffffffffffffffffffffffffffffffffffffff1916827bffffffffffffffffffffffffffffffffffffffffffffffffffffffff1916149050919050565b6000808273ffffffffffffffffffffffffffffffffffffffff163b119050919050565b6040518060a0016040528060008152602001606081526020016060815260200160608152602001600081525090565b6040518060a0016040528060008152602001600081526020016000815260200160008152602001600081525090565b6000604051905090565b600080fd5b600080fd5b600073ffffffffffffffffffffffffffffffffffffffff82169050919050565b60006128e4826128b9565b9050919050565b6128f4816128d9565b81146128ff57600080fd5b50565b600081359050612911816128eb565b92915050565b6000819050919050565b61292a81612917565b811461293557600080fd5b50565b60008135905061294781612921565b92915050565b60008060408385031215612964576129636128af565b5b600061297285828601612902565b925050602061298385828601612938565b9150509250929050565b61299681612917565b82525050565b60006020820190506129b1600083018461298d565b92915050565b60007fffffffff0000000000000000000000000000000000000000000000000000000082169050919050565b6129ec816129b7565b81146129f757600080fd5b50565b600081359050612a09816129e3565b92915050565b600060208284031215612a2557612a246128af565b5b6000612a33848285016129fa565b91505092915050565b60008115159050919050565b612a5181612a3c565b82525050565b6000602082019050612a6c6000830184612a48565b92915050565b600081519050919050565b600082825260208201905092915050565b60005b83811015612aac578082015181840152602081019050612a91565b60008484015250505050565b6000601f19601f8301169050919050565b6000612ad482612a72565b612ade8185612a7d565b9350612aee818560208601612a8e565b612af781612ab8565b840191505092915050565b60006020820190508181036000830152612b1c8184612ac9565b905092915050565b600060208284031215612b3a57612b396128af565b5b6000612b4884828501612938565b91505092915050565b60008060408385031215612b6857612b676128af565b5b6000612b7685828601612938565b9250506020612b8785828601612938565b9150509250929050565b600080fd5b7f4e487b7100000000000000000000000000000000000000000000000000000000600052604160045260246000fd5b612bce82612ab8565b810181811067ffffffffffffffff82111715612bed57612bec612b96565b5b80604052505050565b6000612c006128a5565b9050612c0c8282612bc5565b919050565b600067ffffffffffffffff821115612c2c57612c2b612b96565b5b602082029050602081019050919050565b600080fd5b6000612c55612c5084612c11565b612bf6565b90508083825260208201905060208402830185811115612c7857612c77612c3d565b5b835b81811015612ca15780612c8d8882612938565b845260208401935050602081019050612c7a565b5050509392505050565b600082601f830112612cc057612cbf612b91565b5b8135612cd0848260208601612c42565b91505092915050565b600080fd5b600067ffffffffffffffff821115612cf957612cf8612b96565b5b612d0282612ab8565b9050602081019050919050565b82818337600083830152505050565b6000612d31612d2c84612cde565b612bf6565b905082815260208101848484011115612d4d57612d4c612cd9565b5b612d58848285612d0f565b509392505050565b600082601f830112612d7557612d74612b91565b5b8135612d85848260208601612d1e565b91505092915050565b600080600080600060a08688031215612daa57612da96128af565b5b6000612db888828901612902565b9550506020612dc988828901612902565b945050604086013567ffffffffffffffff811115612dea57612de96128b4565b5b612df688828901612cab565b935050606086013567ffffffffffffffff811115612e1757612e166128b4565b5b612e2388828901612cab565b925050608086013567ffffffffffffffff811115612e4457612e436128b4565b5b612e5088828901612d60565b9150509295509295909350565b600067ffffffffffffffff821115612e7857612e77612b96565b5b602082029050602081019050919050565b6000612e9c612e9784612e5d565b612bf6565b90508083825260208201905060208402830185811115612ebf57612ebe612c3d565b5b835b81811015612ee85780612ed48882612902565b845260208401935050602081019050612ec1565b5050509392505050565b600082601f830112612f0757612f06612b91565b5b8135612f17848260208601612e89565b91505092915050565b60008060408385031215612f3757612f366128af565b5b600083013567ffffffffffffffff811115612f5557612f546128b4565b5b612f6185828601612ef2565b925050602083013567ffffffffffffffff811115612f8257612f816128b4565b5b612f8e85828601612cab565b9150509250929050565b600081519050919050565b600082825260208201905092915050565b6000819050602082019050919050565b612fcd81612917565b82525050565b6000612fdf8383612fc4565b60208301905092915050565b6000602082019050919050565b600061300382612f98565b61300d8185612fa3565b935061301883612fb4565b8060005b838110156130495781516130308882612fd3565b975061303b83612feb565b92505060018101905061301c565b5085935050505092915050565b600060208201905081810360008301526130708184612ff8565b905092915050565b613081816128d9565b82525050565b600060208201905061309c6000830184613078565b92915050565b6000819050919050565b60006130c76130c26130bd846128b9565b6130a2565b6128b9565b9050919050565b60006130d9826130ac565b9050919050565b60006130eb826130ce565b9050919050565b6130fb816130e0565b82525050565b600060208201905061311660008301846130f2565b92915050565b600082825260208201905092915050565b600061313882612a72565b613142818561311c565b9350613152818560208601612a8e565b61315b81612ab8565b840191505092915050565b600060a08301600083015161317e6000860182612fc4565b5060208301518482036020860152613196828261312d565b915050604083015184820360408601526131b0828261312d565b915050606083015184820360608601526131ca828261312d565b91505060808301516131df6080860182612fc4565b508091505092915050565b600060208201905081810360008301526132048184613166565b905092915050565b600067ffffffffffffffff82111561322757613226612b96565b5b61323082612ab8565b9050602081019050919050565b600061325061324b8461320c565b612bf6565b90508281526020810184848401111561326c5761326b612cd9565b5b613277848285612d0f565b509392505050565b600082601f83011261329457613293612b91565b5b81356132a484826020860161323d565b91505092915050565b600080600080608085870312156132c7576132c66128af565b5b600085013567ffffffffffffffff8111156132e5576132e46128b4565b5b6132f18782880161327f565b945050602085013567ffffffffffffffff811115613312576133116128b4565b5b61331e8782880161327f565b935050604085013567ffffffffffffffff81111561333f5761333e6128b4565b5b61334b8782880161327f565b925050606061335c87828801612938565b91505092959194509250565b61337181612a3c565b811461337c57600080fd5b50565b60008135905061338e81613368565b92915050565b600080604083850312156133ab576133aa6128af565b5b60006133b985828601612902565b92505060206133ca8582860161337f565b9150509250929050565b6000602082840312156133ea576133e96128af565b5b60006133f884828501612902565b91505092915050565b600080fd5b60008083601f84011261341c5761341b612b91565b5b8235905067ffffffffffffffff81111561343957613438613401565b5b60208301915083602082028301111561345557613454612c3d565b5b9250929050565b60008083601f84011261347257613471612b91565b5b8235905067ffffffffffffffff81111561348f5761348e613401565b5b6020830191508360018202830111156134ab576134aa612c3d565b5b9250929050565b60008060008060008060008060a0898b0312156134d2576134d16128af565b5b60006134e08b828c01612902565b98505060206134f18b828c01612902565b975050604089013567ffffffffffffffff811115613512576135116128b4565b5b61351e8b828c01613406565b9650965050606089013567ffffffffffffffff811115613541576135406128b4565b5b61354d8b828c01613406565b9450945050608089013567ffffffffffffffff8111156135705761356f6128b4565b5b61357c8b828c0161345c565b92509250509295985092959890939650565b613597816129b7565b82525050565b60006020820190506135b2600083018461358e565b92915050565b600080604083850312156135cf576135ce6128af565b5b60006135dd85828601612902565b92505060206135ee85828601612902565b9150509250929050565b60008060008060008060a08789031215613615576136146128af565b5b600061362389828a01612902565b965050602061363489828a01612902565b955050604061364589828a01612938565b945050606061365689828a01612938565b935050608087013567ffffffffffffffff811115613677576136766128b4565b5b61368389828a0161345c565b92509250509295509295509295565b600080600080600060a086880312156136ae576136ad6128af565b5b60006136bc88828901612902565b95505060206136cd88828901612902565b94505060406136de88828901612938565b93505060606136ef88828901612938565b925050608086013567ffffffffffffffff8111156137105761370f6128b4565b5b61371c88828901612d60565b9150509295509295909350565b600080600080600060a08688031215613745576137446128af565b5b600086013567ffffffffffffffff811115613763576137626128b4565b5b61376f8882890161327f565b955050602086013567ffffffffffffffff8111156137905761378f6128b4565b5b61379c8882890161327f565b945050604086013567ffffffffffffffff8111156137bd576137bc6128b4565b5b6137c98882890161327f565b93505060606137da88828901612938565b92505060806137eb88828901612938565b9150509295509295909350565b60a08201600082015161380e6000850182612fc4565b5060208201516138216020850182612fc4565b5060408201516138346040850182612fc4565b5060608201516138476060850182612fc4565b50608082015161385a6080850182612fc4565b50505050565b600060a08201905061387560008301846137f8565b92915050565b7f455243313135353a2061646472657373207a65726f206973206e6f742061207660008201527f616c6964206f776e657200000000000000000000000000000000000000000000602082015250565b60006138d7602a83612a7d565b91506138e28261387b565b604082019050919050565b60006020820190508181036000830152613906816138ca565b9050919050565b7f4e487b7100000000000000000000000000000000000000000000000000000000600052602260045260246000fd5b6000600282049050600182168061395457607f821691505b6020821081036139675761396661390d565b5b50919050565b60008151905061397c816128eb565b92915050565b600060208284031215613998576139976128af565b5b60006139a68482850161396d565b91505092915050565b7f596f7520646f206e6f74206f776e2074686973207469636b6574000000000000600082015250565b60006139e5601a83612a7d565b91506139f0826139af565b602082019050919050565b60006020820190508181036000830152613a14816139d8565b9050919050565b6000606082019050613a30600083018661298d565b613a3d602083018561298d565b613a4a6040830184613078565b949350505050565b7f455243313135353a2063616c6c6572206973206e6f7420746f6b656e206f776e60008201527f6572206f7220617070726f766564000000000000000000000000000000000000602082015250565b6000613aae602e83612a7d565b9150613ab982613a52565b604082019050919050565b60006020820190508181036000830152613add81613aa1565b9050919050565b7f455243313135353a206163636f756e747320616e6420696473206c656e67746860008201527f206d69736d617463680000000000000000000000000000000000000000000000602082015250565b6000613b40602983612a7d565b9150613b4b82613ae4565b604082019050919050565b60006020820190508181036000830152613b6f81613b33565b9050919050565b7f4e487b7100000000000000000000000000000000000000000000000000000000600052603260045260246000fd5b7f4e487b7100000000000000000000000000000000000000000000000000000000600052601160045260246000fd5b6000613bdf82612917565b91507fffffffffffffffffffffffffffffffffffffffffffffffffffffffffffffffff8203613c1157613c10613ba5565b5b600182019050919050565b600081519050613c2b81612921565b92915050565b600060208284031215613c4757613c466128af565b5b6000613c5584828501613c1c565b91505092915050565b7f5469636b657420646f6573206e6f742065786973740000000000000000000000600082015250565b6000613c94601583612a7d565b9150613c9f82613c5e565b602082019050919050565b60006020820190508181036000830152613cc381613c87565b9050919050565b7f4e6f7420656e6f7567682065746865722073656e740000000000000000000000600082015250565b6000613d00601583612a7d565b9150613d0b82613cca565b602082019050919050565b60006020820190508181036000830152613d2f81613cf3565b9050919050565b7f4e6f7420617070726f76656420746f207472616e73666572207468697320746960008201527f636b657400000000000000000000000000000000000000000000000000000000602082015250565b6000613d92602483612a7d565b9150613d9d82613d36565b604082019050919050565b60006020820190508181036000830152613dc181613d85565b9050919050565b6000606082019050613ddd6000830186613078565b613dea6020830185613078565b613df7604083018461298d565b949350505050565b7f4d7573696320646f6573206e6f74206578697374000000000000000000000000600082015250565b6000613e35601483612a7d565b9150613e4082613dff565b602082019050919050565b60006020820190508181036000830152613e6481613e28565b9050919050565b7f4f6e6c7920746865206d75736963206f776e65722063616e206d696e7420746960008201527f636b657473000000000000000000000000000000000000000000000000000000602082015250565b6000613ec7602583612a7d565b9150613ed282613e6b565b604082019050919050565b60006020820190508181036000830152613ef681613eba565b9050919050565b6000606082019050613f126000830186613078565b613f1f602083018561298d565b613f2c604083018461298d565b949350505050565b60008190508160005260206000209050919050565b60006020601f8301049050919050565b600082821b905092915050565b600060088302613f967fffffffffffffffffffffffffffffffffffffffffffffffffffffffffffffffff82613f59565b613fa08683613f59565b95508019841693508086168417925050509392505050565b6000613fd3613fce613fc984612917565b6130a2565b612917565b9050919050565b6000819050919050565b613fed83613fb8565b614001613ff982613fda565b848454613f66565b825550505050565b600090565b614016614009565b614021818484613fe4565b505050565b5b818110156140455761403a60008261400e565b600181019050614027565b5050565b601f82111561408a5761405b81613f34565b61406484613f49565b81016020851015614073578190505b61408761407f85613f49565b830182614026565b50505b505050565b600082821c905092915050565b60006140ad6000198460080261408f565b1980831691505092915050565b60006140c6838361409c565b9150826002028217905092915050565b6140df82612a72565b67ffffffffffffffff8111156140f8576140f7612b96565b5b614102825461393c565b61410d828285614049565b600060209050601f831160018114614140576000841561412e578287015190505b61413885826140ba565b8655506141a0565b601f19841661414e86613f34565b60005b8281101561417657848901518255600182019150602085019450602081019050614151565b86831015614193578489015161418f601f89168261409c565b8355505b6001600288020188555050505b505050505050565b60006040820190506141bd6000830185613078565b6141ca602083018461298d565b9392505050565b60006141dc82612917565b91506141e783612917565b92508282039050818111156141ff576141fe613ba5565b5b92915050565b600080fd5b600060a082840312156142205761421f614205565b5b61422a60a0612bf6565b9050600061423a84828501613c1c565b600083015250602061424e84828501613c1c565b602083015250604061426284828501613c1c565b604083015250606061427684828501613c1c565b606083015250608061428a84828501613c1c565b60808301525092915050565b600060a082840312156142ac576142ab6128af565b5b60006142ba8482850161420a565b91505092915050565b7f455243313135353a2069647320616e6420616d6f756e7473206c656e6774682060008201527f6d69736d61746368000000000000000000000000000000000000000000000000602082015250565b600061431f602883612a7d565b915061432a826142c3565b604082019050919050565b6000602082019050818103600083015261434e81614312565b9050919050565b7f455243313135353a207472616e7366657220746f20746865207a65726f20616460008201527f6472657373000000000000000000000000000000000000000000000000000000602082015250565b60006143b1602583612a7d565b91506143bc82614355565b604082019050919050565b600060208201905081810360008301526143e0816143a4565b9050919050565b7f455243313135353a20696e73756666696369656e742062616c616e636520666f60008201527f72207472616e7366657200000000000000000000000000000000000000000000602082015250565b6000614443602a83612a7d565b915061444e826143e7565b604082019050919050565b6000602082019050818103600083015261447281614436565b9050919050565b600061448482612917565b915061448f83612917565b92508282019050808211156144a7576144a6613ba5565b5b92915050565b600060408201905081810360008301526144c78185612ff8565b905081810360208301526144db8184612ff8565b90509392505050565b7f455243313135353a206d696e7420746f20746865207a65726f2061646472657360008201527f7300000000000000000000000000000000000000000000000000000000000000602082015250565b6000614540602183612a7d565b915061454b826144e4565b604082019050919050565b6000602082019050818103600083015261456f81614533565b9050919050565b600060408201905061458b600083018561298d565b614598602083018461298d565b9392505050565b7f455243313135353a2073657474696e6720617070726f76616c2073746174757360008201527f20666f722073656c660000000000000000000000000000000000000000000000602082015250565b60006145fb602983612a7d565b91506146068261459f565b604082019050919050565b6000602082019050818103600083015261462a816145ee565b9050919050565b600081519050919050565b600082825260208201905092915050565b600061465882614631565b614662818561463c565b9350614672818560208601612a8e565b61467b81612ab8565b840191505092915050565b600060a08201905061469b6000830188613078565b6146a86020830187613078565b81810360408301526146ba8186612ff8565b905081810360608301526146ce8185612ff8565b905081810360808301526146e2818461464d565b90509695505050505050565b6000815190506146fd816129e3565b92915050565b600060208284031215614719576147186128af565b5b6000614727848285016146ee565b91505092915050565b60008160e01c9050919050565b600060033d111561475c5760046000803e614759600051614730565b90505b90565b600060443d106147ec576147716128a5565b60043d036004823e80513d602482011167ffffffffffffffff821117156147995750506147ec565b808201805167ffffffffffffffff8111156147b757505050506147ec565b80602083010160043d0385018111156147d45750505050506147ec565b6147e382602001850186612bc5565b82955050505050505b90565b7f455243313135353a207472616e7366657220746f206e6f6e2d4552433131353560008201527f526563656976657220696d706c656d656e746572000000000000000000000000602082015250565b600061484b603483612a7d565b9150614856826147ef565b604082019050919050565b6000602082019050818103600083015261487a8161483e565b9050919050565b7f455243313135353a204552433131353552656365697665722072656a6563746560008201527f6420746f6b656e73000000000000000000000000000000000000000000000000602082015250565b60006148dd602883612a7d565b91506148e882614881565b604082019050919050565b6000602082019050818103600083015261490c816148d0565b9050919050565b600060a0820190506149286000830188613078565b6149356020830187613078565b614942604083018661298d565b61494f606083018561298d565b8181036080830152614961818461464d565b9050969550505050505056fea2646970667358221220b7b4c896e078ed2fe4c42a2579f9b9093241fc21a6adb699de763774a7b9bc0064736f6c6343000814003368747470733a2f2f6465762d696e7465726e736869702e73332e61702d6e6f727468656173742d322e616d617a6f6e6177732e636f6d2f4d757369632f7b69647d2e6a736f6e",
			"opcodes": "PUSH1 0x80 PUSH1 0x40 MSTORE PUSH1 0x1 PUSH1 0x6 SSTORE CALLVALUE DUP1 ISZERO PUSH3 0x16 JUMPI PUSH1 0x0 DUP1 REVERT JUMPDEST POP PUSH1 0x40 MLOAD DUP1 PUSH1 0x80 ADD PUSH1 0x40 MSTORE DUP1 PUSH1 0x46 DUP2 MSTORE PUSH1 0x20 ADD PUSH3 0x4E00 PUSH1 0x46 SWAP2 CODECOPY PUSH3 0x42 DUP2 PUSH3 0xD7 PUSH1 0x20 SHL PUSH1 0x20 SHR JUMP JUMPDEST POP PUSH1 0x40 MLOAD DUP1 PUSH1 0x40 ADD PUSH1 0x40 MSTORE DUP1 PUSH1 0x9 DUP2 MSTORE PUSH1 0x20 ADD PUSH32 0x474E55204D555349430000000000000000000000000000000000000000000000 DUP2 MSTORE POP PUSH1 0x4 SWAP1 DUP2 PUSH3 0x89 SWAP2 SWAP1 PUSH3 0x366 JUMP JUMPDEST POP PUSH1 0x40 MLOAD DUP1 PUSH1 0x40 ADD PUSH1 0x40 MSTORE DUP1 PUSH1 0xB DUP2 MSTORE PUSH1 0x20 ADD PUSH32 0x47756172616E7461626C65000000000000000000000000000000000000000000 DUP2 MSTORE POP PUSH1 0x5 SWAP1 DUP2 PUSH3 0xD0 SWAP2 SWAP1 PUSH3 0x366 JUMP JUMPDEST POP PUSH3 0x44D JUMP JUMPDEST DUP1 PUSH1 0x2 SWAP1 DUP2 PUSH3 0xE8 SWAP2 SWAP1 PUSH3 0x366 JUMP JUMPDEST POP POP JUMP JUMPDEST PUSH1 0x0 DUP2 MLOAD SWAP1 POP SWAP2 SWAP1 POP JUMP JUMPDEST PUSH32 0x4E487B7100000000000000000000000000000000000000000000000000000000 PUSH1 0x0 MSTORE PUSH1 0x41 PUSH1 0x4 MSTORE PUSH1 0x24 PUSH1 0x0 REVERT JUMPDEST PUSH32 0x4E487B7100000000000000000000000000000000000000000000000000000000 PUSH1 0x0 MSTORE PUSH1 0x22 PUSH1 0x4 MSTORE PUSH1 0x24 PUSH1 0x0 REVERT JUMPDEST PUSH1 0x0 PUSH1 0x2 DUP3 DIV SWAP1 POP PUSH1 0x1 DUP3 AND DUP1 PUSH3 0x16E JUMPI PUSH1 0x7F DUP3 AND SWAP2 POP JUMPDEST PUSH1 0x20 DUP3 LT DUP2 SUB PUSH3 0x184 JUMPI PUSH3 0x183 PUSH3 0x126 JUMP JUMPDEST JUMPDEST POP SWAP2 SWAP1 POP JUMP JUMPDEST PUSH1 0x0 DUP2 SWAP1 POP DUP2 PUSH1 0x0 MSTORE PUSH1 0x20 PUSH1 0x0 KECCAK256 SWAP1 POP SWAP2 SWAP1 POP JUMP JUMPDEST PUSH1 0x0 PUSH1 0x20 PUSH1 0x1F DUP4 ADD DIV SWAP1 POP SWAP2 SWAP1 POP JUMP JUMPDEST PUSH1 0x0 DUP3 DUP3 SHL SWAP1 POP SWAP3 SWAP2 POP POP JUMP JUMPDEST PUSH1 0x0 PUSH1 0x8 DUP4 MUL PUSH3 0x1EE PUSH32 0xFFFFFFFFFFFFFFFFFFFFFFFFFFFFFFFFFFFFFFFFFFFFFFFFFFFFFFFFFFFFFFFF DUP3 PUSH3 0x1AF JUMP JUMPDEST PUSH3 0x1FA DUP7 DUP4 PUSH3 0x1AF JUMP JUMPDEST SWAP6 POP DUP1 NOT DUP5 AND SWAP4 POP DUP1 DUP7 AND DUP5 OR SWAP3 POP POP POP SWAP4 SWAP3 POP POP POP JUMP JUMPDEST PUSH1 0x0 DUP2 SWAP1 POP SWAP2 SWAP1 POP JUMP JUMPDEST PUSH1 0x0 DUP2 SWAP1 POP SWAP2 SWAP1 POP JUMP JUMPDEST PUSH1 0x0 PUSH3 0x247 PUSH3 0x241 PUSH3 0x23B DUP5 PUSH3 0x212 JUMP JUMPDEST PUSH3 0x21C JUMP JUMPDEST PUSH3 0x212 JUMP JUMPDEST SWAP1 POP SWAP2 SWAP1 POP JUMP JUMPDEST PUSH1 0x0 DUP2 SWAP1 POP SWAP2 SWAP1 POP JUMP JUMPDEST PUSH3 0x263 DUP4 PUSH3 0x226 JUMP JUMPDEST PUSH3 0x27B PUSH3 0x272 DUP3 PUSH3 0x24E JUMP JUMPDEST DUP5 DUP5 SLOAD PUSH3 0x1BC JUMP JUMPDEST DUP3 SSTORE POP POP POP POP JUMP JUMPDEST PUSH1 0x0 SWAP1 JUMP JUMPDEST PUSH3 0x292 PUSH3 0x283 JUMP JUMPDEST PUSH3 0x29F DUP2 DUP5 DUP5 PUSH3 0x258 JUMP JUMPDEST POP POP POP JUMP JUMPDEST JUMPDEST DUP2 DUP2 LT ISZERO PUSH3 0x2C7 JUMPI PUSH3 0x2BB PUSH1 0x0 DUP3 PUSH3 0x288 JUMP JUMPDEST PUSH1 0x1 DUP2 ADD SWAP1 POP PUSH3 0x2A5 JUMP JUMPDEST POP POP JUMP JUMPDEST PUSH1 0x1F DUP3 GT ISZERO PUSH3 0x316 JUMPI PUSH3 0x2E0 DUP2 PUSH3 0x18A JUMP JUMPDEST PUSH3 0x2EB DUP5 PUSH3 0x19F JUMP JUMPDEST DUP2 ADD PUSH1 0x20 DUP6 LT ISZERO PUSH3 0x2FB JUMPI DUP2 SWAP1 POP JUMPDEST PUSH3 0x313 PUSH3 0x30A DUP6 PUSH3 0x19F JUMP JUMPDEST DUP4 ADD DUP3 PUSH3 0x2A4 JUMP JUMPDEST POP POP JUMPDEST POP POP POP JUMP JUMPDEST PUSH1 0x0 DUP3 DUP3 SHR SWAP1 POP SWAP3 SWAP2 POP POP JUMP JUMPDEST PUSH1 0x0 PUSH3 0x33B PUSH1 0x0 NOT DUP5 PUSH1 0x8 MUL PUSH3 0x31B JUMP JUMPDEST NOT DUP1 DUP4 AND SWAP2 POP POP SWAP3 SWAP2 POP POP JUMP JUMPDEST PUSH1 0x0 PUSH3 0x356 DUP4 DUP4 PUSH3 0x328 JUMP JUMPDEST SWAP2 POP DUP3 PUSH1 0x2 MUL DUP3 OR SWAP1 POP SWAP3 SWAP2 POP POP JUMP JUMPDEST PUSH3 0x371 DUP3 PUSH3 0xEC JUMP JUMPDEST PUSH8 0xFFFFFFFFFFFFFFFF DUP2 GT ISZERO PUSH3 0x38D JUMPI PUSH3 0x38C PUSH3 0xF7 JUMP JUMPDEST JUMPDEST PUSH3 0x399 DUP3 SLOAD PUSH3 0x155 JUMP JUMPDEST PUSH3 0x3A6 DUP3 DUP3 DUP6 PUSH3 0x2CB JUMP JUMPDEST PUSH1 0x0 PUSH1 0x20 SWAP1 POP PUSH1 0x1F DUP4 GT PUSH1 0x1 DUP2 EQ PUSH3 0x3DE JUMPI PUSH1 0x0 DUP5 ISZERO PUSH3 0x3C9 JUMPI DUP3 DUP8 ADD MLOAD SWAP1 POP JUMPDEST PUSH3 0x3D5 DUP6 DUP3 PUSH3 0x348 JUMP JUMPDEST DUP7 SSTORE POP PUSH3 0x445 JUMP JUMPDEST PUSH1 0x1F NOT DUP5 AND PUSH3 0x3EE DUP7 PUSH3 0x18A JUMP JUMPDEST PUSH1 0x0 JUMPDEST DUP3 DUP2 LT ISZERO PUSH3 0x418 JUMPI DUP5 DUP10 ADD MLOAD DUP3 SSTORE PUSH1 0x1 DUP3 ADD SWAP2 POP PUSH1 0x20 DUP6 ADD SWAP5 POP PUSH1 0x20 DUP2 ADD SWAP1 POP PUSH3 0x3F1 JUMP JUMPDEST DUP7 DUP4 LT ISZERO PUSH3 0x438 JUMPI DUP5 DUP10 ADD MLOAD PUSH3 0x434 PUSH1 0x1F DUP10 AND DUP3 PUSH3 0x328 JUMP JUMPDEST DUP4 SSTORE POP JUMPDEST PUSH1 0x1 PUSH1 0x2 DUP9 MUL ADD DUP9 SSTORE POP POP POP JUMPDEST POP POP POP POP POP POP JUMP JUMPDEST PUSH2 0x49A3 DUP1 PUSH3 0x45D PUSH1 0x0 CODECOPY PUSH1 0x0 RETURN INVALID PUSH1 0x80 PUSH1 0x40 MSTORE PUSH1 0x4 CALLDATASIZE LT PUSH2 0x14A JUMPI PUSH1 0x0 CALLDATALOAD PUSH1 0xE0 SHR DUP1 PUSH4 0x95D89B41 GT PUSH2 0xB6 JUMPI DUP1 PUSH4 0xE985E9C5 GT PUSH2 0x6F JUMPI DUP1 PUSH4 0xE985E9C5 EQ PUSH2 0x4B6 JUMPI DUP1 PUSH4 0xF23A6E61 EQ PUSH2 0x4F3 JUMPI DUP1 PUSH4 0xF242432A EQ PUSH2 0x530 JUMPI DUP1 PUSH4 0xFCDB24A8 EQ PUSH2 0x559 JUMPI DUP1 PUSH4 0xFDCAD5EB EQ PUSH2 0x582 JUMPI DUP1 PUSH4 0xFF99A063 EQ PUSH2 0x5AB JUMPI PUSH2 0x14A JUMP JUMPDEST DUP1 PUSH4 0x95D89B41 EQ PUSH2 0x3AA JUMPI DUP1 PUSH4 0x9663A0C9 EQ PUSH2 0x3D5 JUMPI DUP1 PUSH4 0xA22CB465 EQ PUSH2 0x3FE JUMPI DUP1 PUSH4 0xB87B7319 EQ PUSH2 0x427 JUMPI DUP1 PUSH4 0xBC197C81 EQ PUSH2 0x450 JUMPI DUP1 PUSH4 0xE2FDC989 EQ PUSH2 0x48D JUMPI PUSH2 0x14A JUMP JUMPDEST DUP1 PUSH4 0x4E1273F4 GT PUSH2 0x108 JUMPI DUP1 PUSH4 0x4E1273F4 EQ PUSH2 0x283 JUMPI DUP1 PUSH4 0x50248853 EQ PUSH2 0x2C0 JUMPI DUP1 PUSH4 0x5C300EBA EQ PUSH2 0x2DC JUMPI DUP1 PUSH4 0x6352211E EQ PUSH2 0x305 JUMPI DUP1 PUSH4 0x7826AC79 EQ PUSH2 0x342 JUMPI DUP1 PUSH4 0x85C98794 EQ PUSH2 0x36D JUMPI PUSH2 0x14A JUMP JUMPDEST DUP1 PUSH3 0xFDD58E EQ PUSH2 0x14F JUMPI DUP1 PUSH4 0x1FFC9A7 EQ PUSH2 0x18C JUMPI DUP1 PUSH4 0x6FDDE03 EQ PUSH2 0x1C9 JUMPI DUP1 PUSH4 0xE89341C EQ PUSH2 0x1F4 JUMPI DUP1 PUSH4 0x2A6C4C14 EQ PUSH2 0x231 JUMPI DUP1 PUSH4 0x2EB2C2D6 EQ PUSH2 0x25A JUMPI JUMPDEST PUSH1 0x0 DUP1 REVERT JUMPDEST CALLVALUE DUP1 ISZERO PUSH2 0x15B JUMPI PUSH1 0x0 DUP1 REVERT JUMPDEST POP PUSH2 0x176 PUSH1 0x4 DUP1 CALLDATASIZE SUB DUP2 ADD SWAP1 PUSH2 0x171 SWAP2 SWAP1 PUSH2 0x294D JUMP JUMPDEST PUSH2 0x5E8 JUMP JUMPDEST PUSH1 0x40 MLOAD PUSH2 0x183 SWAP2 SWAP1 PUSH2 0x299C JUMP JUMPDEST PUSH1 0x40 MLOAD DUP1 SWAP2 SUB SWAP1 RETURN JUMPDEST CALLVALUE DUP1 ISZERO PUSH2 0x198 JUMPI PUSH1 0x0 DUP1 REVERT JUMPDEST POP PUSH2 0x1B3 PUSH1 0x4 DUP1 CALLDATASIZE SUB DUP2 ADD SWAP1 PUSH2 0x1AE SWAP2 SWAP1 PUSH2 0x2A0F JUMP JUMPDEST PUSH2 0x6B0 JUMP JUMPDEST PUSH1 0x40 MLOAD PUSH2 0x1C0 SWAP2 SWAP1 PUSH2 0x2A57 JUMP JUMPDEST PUSH1 0x40 MLOAD DUP1 SWAP2 SUB SWAP1 RETURN JUMPDEST CALLVALUE DUP1 ISZERO PUSH2 0x1D5 JUMPI PUSH1 0x0 DUP1 REVERT JUMPDEST POP PUSH2 0x1DE PUSH2 0x6C2 JUMP JUMPDEST PUSH1 0x40 MLOAD PUSH2 0x1EB SWAP2 SWAP1 PUSH2 0x2B02 JUMP JUMPDEST PUSH1 0x40 MLOAD DUP1 SWAP2 SUB SWAP1 RETURN JUMPDEST CALLVALUE DUP1 ISZERO PUSH2 0x200 JUMPI PUSH1 0x0 DUP1 REVERT JUMPDEST POP PUSH2 0x21B PUSH1 0x4 DUP1 CALLDATASIZE SUB DUP2 ADD SWAP1 PUSH2 0x216 SWAP2 SWAP1 PUSH2 0x2B24 JUMP JUMPDEST PUSH2 0x750 JUMP JUMPDEST PUSH1 0x40 MLOAD PUSH2 0x228 SWAP2 SWAP1 PUSH2 0x2B02 JUMP JUMPDEST PUSH1 0x40 MLOAD DUP1 SWAP2 SUB SWAP1 RETURN JUMPDEST CALLVALUE DUP1 ISZERO PUSH2 0x23D JUMPI PUSH1 0x0 DUP1 REVERT JUMPDEST POP PUSH2 0x258 PUSH1 0x4 DUP1 CALLDATASIZE SUB DUP2 ADD SWAP1 PUSH2 0x253 SWAP2 SWAP1 PUSH2 0x2B51 JUMP JUMPDEST PUSH2 0x7E4 JUMP JUMPDEST STOP JUMPDEST CALLVALUE DUP1 ISZERO PUSH2 0x266 JUMPI PUSH1 0x0 DUP1 REVERT JUMPDEST POP PUSH2 0x281 PUSH1 0x4 DUP1 CALLDATASIZE SUB DUP2 ADD SWAP1 PUSH2 0x27C SWAP2 SWAP1 PUSH2 0x2D8E JUMP JUMPDEST PUSH2 0x982 JUMP JUMPDEST STOP JUMPDEST CALLVALUE DUP1 ISZERO PUSH2 0x28F JUMPI PUSH1 0x0 DUP1 REVERT JUMPDEST POP PUSH2 0x2AA PUSH1 0x4 DUP1 CALLDATASIZE SUB DUP2 ADD SWAP1 PUSH2 0x2A5 SWAP2 SWAP1 PUSH2 0x2F20 JUMP JUMPDEST PUSH2 0xA23 JUMP JUMPDEST PUSH1 0x40 MLOAD PUSH2 0x2B7 SWAP2 SWAP1 PUSH2 0x3056 JUMP JUMPDEST PUSH1 0x40 MLOAD DUP1 SWAP2 SUB SWAP1 RETURN JUMPDEST PUSH2 0x2DA PUSH1 0x4 DUP1 CALLDATASIZE SUB DUP2 ADD SWAP1 PUSH2 0x2D5 SWAP2 SWAP1 PUSH2 0x2B24 JUMP JUMPDEST PUSH2 0xB3C JUMP JUMPDEST STOP JUMPDEST CALLVALUE DUP1 ISZERO PUSH2 0x2E8 JUMPI PUSH1 0x0 DUP1 REVERT JUMPDEST POP PUSH2 0x303 PUSH1 0x4 DUP1 CALLDATASIZE SUB DUP2 ADD SWAP1 PUSH2 0x2FE SWAP2 SWAP1 PUSH2 0x2B51 JUMP JUMPDEST PUSH2 0xF7D JUMP JUMPDEST STOP JUMPDEST CALLVALUE DUP1 ISZERO PUSH2 0x311 JUMPI PUSH1 0x0 DUP1 REVERT JUMPDEST POP PUSH2 0x32C PUSH1 0x4 DUP1 CALLDATASIZE SUB DUP2 ADD SWAP1 PUSH2 0x327 SWAP2 SWAP1 PUSH2 0x2B24 JUMP JUMPDEST PUSH2 0x10F7 JUMP JUMPDEST PUSH1 0x40 MLOAD PUSH2 0x339 SWAP2 SWAP1 PUSH2 0x3087 JUMP JUMPDEST PUSH1 0x40 MLOAD DUP1 SWAP2 SUB SWAP1 RETURN JUMPDEST CALLVALUE DUP1 ISZERO PUSH2 0x34E JUMPI PUSH1 0x0 DUP1 REVERT JUMPDEST POP PUSH2 0x357 PUSH2 0x1134 JUMP JUMPDEST PUSH1 0x40 MLOAD PUSH2 0x364 SWAP2 SWAP1 PUSH2 0x3101 JUMP JUMPDEST PUSH1 0x40 MLOAD DUP1 SWAP2 SUB SWAP1 RETURN JUMPDEST CALLVALUE DUP1 ISZERO PUSH2 0x379 JUMPI PUSH1 0x0 DUP1 REVERT JUMPDEST POP PUSH2 0x394 PUSH1 0x4 DUP1 CALLDATASIZE SUB DUP2 ADD SWAP1 PUSH2 0x38F SWAP2 SWAP1 PUSH2 0x2B24 JUMP JUMPDEST PUSH2 0x115A JUMP JUMPDEST PUSH1 0x40 MLOAD PUSH2 0x3A1 SWAP2 SWAP1 PUSH2 0x31EA JUMP JUMPDEST PUSH1 0x40 MLOAD DUP1 SWAP2 SUB SWAP1 RETURN JUMPDEST CALLVALUE DUP1 ISZERO PUSH2 0x3B6 JUMPI PUSH1 0x0 DUP1 REVERT JUMPDEST POP PUSH2 0x3BF PUSH2 0x1351 JUMP JUMPDEST PUSH1 0x40 MLOAD PUSH2 0x3CC SWAP2 SWAP1 PUSH2 0x2B02 JUMP JUMPDEST PUSH1 0x40 MLOAD DUP1 SWAP2 SUB SWAP1 RETURN JUMPDEST CALLVALUE DUP1 ISZERO PUSH2 0x3E1 JUMPI PUSH1 0x0 DUP1 REVERT JUMPDEST POP PUSH2 0x3FC PUSH1 0x4 DUP1 CALLDATASIZE SUB DUP2 ADD SWAP1 PUSH2 0x3F7 SWAP2 SWAP1 PUSH2 0x32AD JUMP JUMPDEST PUSH2 0x13DF JUMP JUMPDEST STOP JUMPDEST CALLVALUE DUP1 ISZERO PUSH2 0x40A JUMPI PUSH1 0x0 DUP1 REVERT JUMPDEST POP PUSH2 0x425 PUSH1 0x4 DUP1 CALLDATASIZE SUB DUP2 ADD SWAP1 PUSH2 0x420 SWAP2 SWAP1 PUSH2 0x3394 JUMP JUMPDEST PUSH2 0x1502 JUMP JUMPDEST STOP JUMPDEST CALLVALUE DUP1 ISZERO PUSH2 0x433 JUMPI PUSH1 0x0 DUP1 REVERT JUMPDEST POP PUSH2 0x44E PUSH1 0x4 DUP1 CALLDATASIZE SUB DUP2 ADD SWAP1 PUSH2 0x449 SWAP2 SWAP1 PUSH2 0x33D4 JUMP JUMPDEST PUSH2 0x1518 JUMP JUMPDEST STOP JUMPDEST CALLVALUE DUP1 ISZERO PUSH2 0x45C JUMPI PUSH1 0x0 DUP1 REVERT JUMPDEST POP PUSH2 0x477 PUSH1 0x4 DUP1 CALLDATASIZE SUB DUP2 ADD SWAP1 PUSH2 0x472 SWAP2 SWAP1 PUSH2 0x34B2 JUMP JUMPDEST PUSH2 0x155C JUMP JUMPDEST PUSH1 0x40 MLOAD PUSH2 0x484 SWAP2 SWAP1 PUSH2 0x359D JUMP JUMPDEST PUSH1 0x40 MLOAD DUP1 SWAP2 SUB SWAP1 RETURN JUMPDEST CALLVALUE DUP1 ISZERO PUSH2 0x499 JUMPI PUSH1 0x0 DUP1 REVERT JUMPDEST POP PUSH2 0x4B4 PUSH1 0x4 DUP1 CALLDATASIZE SUB DUP2 ADD SWAP1 PUSH2 0x4AF SWAP2 SWAP1 PUSH2 0x2B24 JUMP JUMPDEST PUSH2 0x1574 JUMP JUMPDEST STOP JUMPDEST CALLVALUE DUP1 ISZERO PUSH2 0x4C2 JUMPI PUSH1 0x0 DUP1 REVERT JUMPDEST POP PUSH2 0x4DD PUSH1 0x4 DUP1 CALLDATASIZE SUB DUP2 ADD SWAP1 PUSH2 0x4D8 SWAP2 SWAP1 PUSH2 0x35B8 JUMP JUMPDEST PUSH2 0x1606 JUMP JUMPDEST PUSH1 0x40 MLOAD PUSH2 0x4EA SWAP2 SWAP1 PUSH2 0x2A57 JUMP JUMPDEST PUSH1 0x40 MLOAD DUP1 SWAP2 SUB SWAP1 RETURN JUMPDEST CALLVALUE DUP1 ISZERO PUSH2 0x4FF JUMPI PUSH1 0x0 DUP1 REVERT JUMPDEST POP PUSH2 0x51A PUSH1 0x4 DUP1 CALLDATASIZE SUB DUP2 ADD SWAP1 PUSH2 0x515 SWAP2 SWAP1 PUSH2 0x35F8 JUMP JUMPDEST PUSH2 0x169A JUMP JUMPDEST PUSH1 0x40 MLOAD PUSH2 0x527 SWAP2 SWAP1 PUSH2 0x359D JUMP JUMPDEST PUSH1 0x40 MLOAD DUP1 SWAP2 SUB SWAP1 RETURN JUMPDEST CALLVALUE DUP1 ISZERO PUSH2 0x53C JUMPI PUSH1 0x0 DUP1 REVERT JUMPDEST POP PUSH2 0x557 PUSH1 0x4 DUP1 CALLDATASIZE SUB DUP2 ADD SWAP1 PUSH2 0x552 SWAP2 SWAP1 PUSH2 0x3692 JUMP JUMPDEST PUSH2 0x16B0 JUMP JUMPDEST STOP JUMPDEST CALLVALUE DUP1 ISZERO PUSH2 0x565 JUMPI PUSH1 0x0 DUP1 REVERT JUMPDEST POP PUSH2 0x580 PUSH1 0x4 DUP1 CALLDATASIZE SUB DUP2 ADD SWAP1 PUSH2 0x57B SWAP2 SWAP1 PUSH2 0x3729 JUMP JUMPDEST PUSH2 0x1751 JUMP JUMPDEST STOP JUMPDEST CALLVALUE DUP1 ISZERO PUSH2 0x58E JUMPI PUSH1 0x0 DUP1 REVERT JUMPDEST POP PUSH2 0x5A9 PUSH1 0x4 DUP1 CALLDATASIZE SUB DUP2 ADD SWAP1 PUSH2 0x5A4 SWAP2 SWAP1 PUSH2 0x2B24 JUMP JUMPDEST PUSH2 0x1809 JUMP JUMPDEST STOP JUMPDEST CALLVALUE DUP1 ISZERO PUSH2 0x5B7 JUMPI PUSH1 0x0 DUP1 REVERT JUMPDEST POP PUSH2 0x5D2 PUSH1 0x4 DUP1 CALLDATASIZE SUB DUP2 ADD SWAP1 PUSH2 0x5CD SWAP2 SWAP1 PUSH2 0x2B24 JUMP JUMPDEST PUSH2 0x189B JUMP JUMPDEST PUSH1 0x40 MLOAD PUSH2 0x5DF SWAP2 SWAP1 PUSH2 0x3860 JUMP JUMPDEST PUSH1 0x40 MLOAD DUP1 SWAP2 SUB SWAP1 RETURN JUMPDEST PUSH1 0x0 DUP1 PUSH20 0xFFFFFFFFFFFFFFFFFFFFFFFFFFFFFFFFFFFFFFFF AND DUP4 PUSH20 0xFFFFFFFFFFFFFFFFFFFFFFFFFFFFFFFFFFFFFFFF AND SUB PUSH2 0x658 JUMPI PUSH1 0x40 MLOAD PUSH32 0x8C379A000000000000000000000000000000000000000000000000000000000 DUP2 MSTORE PUSH1 0x4 ADD PUSH2 0x64F SWAP1 PUSH2 0x38ED JUMP JUMPDEST PUSH1 0x40 MLOAD DUP1 SWAP2 SUB SWAP1 REVERT JUMPDEST PUSH1 0x0 DUP1 DUP4 DUP2 MSTORE PUSH1 0x20 ADD SWAP1 DUP2 MSTORE PUSH1 0x20 ADD PUSH1 0x0 KECCAK256 PUSH1 0x0 DUP5 PUSH20 0xFFFFFFFFFFFFFFFFFFFFFFFFFFFFFFFFFFFFFFFF AND PUSH20 0xFFFFFFFFFFFFFFFFFFFFFFFFFFFFFFFFFFFFFFFF AND DUP2 MSTORE PUSH1 0x20 ADD SWAP1 DUP2 MSTORE PUSH1 0x20 ADD PUSH1 0x0 KECCAK256 SLOAD SWAP1 POP SWAP3 SWAP2 POP POP JUMP JUMPDEST PUSH1 0x0 PUSH2 0x6BB DUP3 PUSH2 0x1946 JUMP JUMPDEST SWAP1 POP SWAP2 SWAP1 POP JUMP JUMPDEST PUSH1 0x4 DUP1 SLOAD PUSH2 0x6CF SWAP1 PUSH2 0x393C JUMP JUMPDEST DUP1 PUSH1 0x1F ADD PUSH1 0x20 DUP1 SWAP2 DIV MUL PUSH1 0x20 ADD PUSH1 0x40 MLOAD SWAP1 DUP2 ADD PUSH1 0x40 MSTORE DUP1 SWAP3 SWAP2 SWAP1 DUP2 DUP2 MSTORE PUSH1 0x20 ADD DUP3 DUP1 SLOAD PUSH2 0x6FB SWAP1 PUSH2 0x393C JUMP JUMPDEST DUP1 ISZERO PUSH2 0x748 JUMPI DUP1 PUSH1 0x1F LT PUSH2 0x71D JUMPI PUSH2 0x100 DUP1 DUP4 SLOAD DIV MUL DUP4 MSTORE SWAP2 PUSH1 0x20 ADD SWAP2 PUSH2 0x748 JUMP JUMPDEST DUP3 ADD SWAP2 SWAP1 PUSH1 0x0 MSTORE PUSH1 0x20 PUSH1 0x0 KECCAK256 SWAP1 JUMPDEST DUP2 SLOAD DUP2 MSTORE SWAP1 PUSH1 0x1 ADD SWAP1 PUSH1 0x20 ADD DUP1 DUP4 GT PUSH2 0x72B JUMPI DUP3 SWAP1 SUB PUSH1 0x1F AND DUP3 ADD SWAP2 JUMPDEST POP POP POP POP POP DUP2 JUMP JUMPDEST PUSH1 0x60 PUSH1 0x2 DUP1 SLOAD PUSH2 0x75F SWAP1 PUSH2 0x393C JUMP JUMPDEST DUP1 PUSH1 0x1F ADD PUSH1 0x20 DUP1 SWAP2 DIV MUL PUSH1 0x20 ADD PUSH1 0x40 MLOAD SWAP1 DUP2 ADD PUSH1 0x40 MSTORE DUP1 SWAP3 SWAP2 SWAP1 DUP2 DUP2 MSTORE PUSH1 0x20 ADD DUP3 DUP1 SLOAD PUSH2 0x78B SWAP1 PUSH2 0x393C JUMP JUMPDEST DUP1 ISZERO PUSH2 0x7D8 JUMPI DUP1 PUSH1 0x1F LT PUSH2 0x7AD JUMPI PUSH2 0x100 DUP1 DUP4 SLOAD DIV MUL DUP4 MSTORE SWAP2 PUSH1 0x20 ADD SWAP2 PUSH2 0x7D8 JUMP JUMPDEST DUP3 ADD SWAP2 SWAP1 PUSH1 0x0 MSTORE PUSH1 0x20 PUSH1 0x0 KECCAK256 SWAP1 JUMPDEST DUP2 SLOAD DUP2 MSTORE SWAP1 PUSH1 0x1 ADD SWAP1 PUSH1 0x20 ADD DUP1 DUP4 GT PUSH2 0x7BB JUMPI DUP3 SWAP1 SUB PUSH1 0x1F AND DUP3 ADD SWAP2 JUMPDEST POP POP POP POP POP SWAP1 POP SWAP2 SWAP1 POP JUMP JUMPDEST CALLER PUSH20 0xFFFFFFFFFFFFFFFFFFFFFFFFFFFFFFFFFFFFFFFF AND PUSH1 0x3 PUSH1 0x0 SWAP1 SLOAD SWAP1 PUSH2 0x100 EXP SWAP1 DIV PUSH20 0xFFFFFFFFFFFFFFFFFFFFFFFFFFFFFFFFFFFFFFFF AND PUSH20 0xFFFFFFFFFFFFFFFFFFFFFFFFFFFFFFFFFFFFFFFF AND PUSH4 0x6352211E DUP5 PUSH1 0x40 MLOAD DUP3 PUSH4 0xFFFFFFFF AND PUSH1 0xE0 SHL DUP2 MSTORE PUSH1 0x4 ADD PUSH2 0x856 SWAP2 SWAP1 PUSH2 0x299C JUMP JUMPDEST PUSH1 0x20 PUSH1 0x40 MLOAD DUP1 DUP4 SUB DUP2 DUP7 GAS STATICCALL ISZERO DUP1 ISZERO PUSH2 0x873 JUMPI RETURNDATASIZE PUSH1 0x0 DUP1 RETURNDATACOPY RETURNDATASIZE PUSH1 0x0 REVERT JUMPDEST POP POP POP POP PUSH1 0x40 MLOAD RETURNDATASIZE PUSH1 0x1F NOT PUSH1 0x1F DUP3 ADD AND DUP3 ADD DUP1 PUSH1 0x40 MSTORE POP DUP2 ADD SWAP1 PUSH2 0x897 SWAP2 SWAP1 PUSH2 0x3982 JUMP JUMPDEST PUSH20 0xFFFFFFFFFFFFFFFFFFFFFFFFFFFFFFFFFFFFFFFF AND EQ PUSH2 0x8ED JUMPI PUSH1 0x40 MLOAD PUSH32 0x8C379A000000000000000000000000000000000000000000000000000000000 DUP2 MSTORE PUSH1 0x4 ADD PUSH2 0x8E4 SWAP1 PUSH2 0x39FB JUMP JUMPDEST PUSH1 0x40 MLOAD DUP1 SWAP2 SUB SWAP1 REVERT JUMPDEST PUSH1 0x3 PUSH1 0x0 SWAP1 SLOAD SWAP1 PUSH2 0x100 EXP SWAP1 DIV PUSH20 0xFFFFFFFFFFFFFFFFFFFFFFFFFFFFFFFFFFFFFFFF AND PUSH20 0xFFFFFFFFFFFFFFFFFFFFFFFFFFFFFFFFFFFFFFFF AND PUSH4 0x1FE6DB2D DUP4 DUP4 CALLER PUSH1 0x40 MLOAD DUP5 PUSH4 0xFFFFFFFF AND PUSH1 0xE0 SHL DUP2 MSTORE PUSH1 0x4 ADD PUSH2 0x94C SWAP4 SWAP3 SWAP2 SWAP1 PUSH2 0x3A1B JUMP JUMPDEST PUSH1 0x0 PUSH1 0x40 MLOAD DUP1 DUP4 SUB DUP2 PUSH1 0x0 DUP8 DUP1 EXTCODESIZE ISZERO DUP1 ISZERO PUSH2 0x966 JUMPI PUSH1 0x0 DUP1 REVERT JUMPDEST POP GAS CALL ISZERO DUP1 ISZERO PUSH2 0x97A JUMPI RETURNDATASIZE PUSH1 0x0 DUP1 RETURNDATACOPY RETURNDATASIZE PUSH1 0x0 REVERT JUMPDEST POP POP POP POP POP POP JUMP JUMPDEST PUSH2 0x98A PUSH2 0x19C0 JUMP JUMPDEST PUSH20 0xFFFFFFFFFFFFFFFFFFFFFFFFFFFFFFFFFFFFFFFF AND DUP6 PUSH20 0xFFFFFFFFFFFFFFFFFFFFFFFFFFFFFFFFFFFFFFFF AND EQ DUP1 PUSH2 0x9D0 JUMPI POP PUSH2 0x9CF DUP6 PUSH2 0x9CA PUSH2 0x19C0 JUMP JUMPDEST PUSH2 0x1606 JUMP JUMPDEST JUMPDEST PUSH2 0xA0F JUMPI PUSH1 0x40 MLOAD PUSH32 0x8C379A000000000000000000000000000000000000000000000000000000000 DUP2 MSTORE PUSH1 0x4 ADD PUSH2 0xA06 SWAP1 PUSH2 0x3AC4 JUMP JUMPDEST PUSH1 0x40 MLOAD DUP1 SWAP2 SUB SWAP1 REVERT JUMPDEST PUSH2 0xA1C DUP6 DUP6 DUP6 DUP6 DUP6 PUSH2 0x19C8 JUMP JUMPDEST POP POP POP POP POP JUMP JUMPDEST PUSH1 0x60 DUP2 MLOAD DUP4 MLOAD EQ PUSH2 0xA69 JUMPI PUSH1 0x40 MLOAD PUSH32 0x8C379A000000000000000000000000000000000000000000000000000000000 DUP2 MSTORE PUSH1 0x4 ADD PUSH2 0xA60 SWAP1 PUSH2 0x3B56 JUMP JUMPDEST PUSH1 0x40 MLOAD DUP1 SWAP2 SUB SWAP1 REVERT JUMPDEST PUSH1 0x0 DUP4 MLOAD PUSH8 0xFFFFFFFFFFFFFFFF DUP2 GT ISZERO PUSH2 0xA86 JUMPI PUSH2 0xA85 PUSH2 0x2B96 JUMP JUMPDEST JUMPDEST PUSH1 0x40 MLOAD SWAP1 DUP1 DUP3 MSTORE DUP1 PUSH1 0x20 MUL PUSH1 0x20 ADD DUP3 ADD PUSH1 0x40 MSTORE DUP1 ISZERO PUSH2 0xAB4 JUMPI DUP2 PUSH1 0x20 ADD PUSH1 0x20 DUP3 MUL DUP1 CALLDATASIZE DUP4 CALLDATACOPY DUP1 DUP3 ADD SWAP2 POP POP SWAP1 POP JUMPDEST POP SWAP1 POP PUSH1 0x0 JUMPDEST DUP5 MLOAD DUP2 LT ISZERO PUSH2 0xB31 JUMPI PUSH2 0xB01 DUP6 DUP3 DUP2 MLOAD DUP2 LT PUSH2 0xAD9 JUMPI PUSH2 0xAD8 PUSH2 0x3B76 JUMP JUMPDEST JUMPDEST PUSH1 0x20 MUL PUSH1 0x20 ADD ADD MLOAD DUP6 DUP4 DUP2 MLOAD DUP2 LT PUSH2 0xAF4 JUMPI PUSH2 0xAF3 PUSH2 0x3B76 JUMP JUMPDEST JUMPDEST PUSH1 0x20 MUL PUSH1 0x20 ADD ADD MLOAD PUSH2 0x5E8 JUMP JUMPDEST DUP3 DUP3 DUP2 MLOAD DUP2 LT PUSH2 0xB14 JUMPI PUSH2 0xB13 PUSH2 0x3B76 JUMP JUMPDEST JUMPDEST PUSH1 0x20 MUL PUSH1 0x20 ADD ADD DUP2 DUP2 MSTORE POP POP DUP1 PUSH2 0xB2A SWAP1 PUSH2 0x3BD4 JUMP JUMPDEST SWAP1 POP PUSH2 0xABA JUMP JUMPDEST POP DUP1 SWAP2 POP POP SWAP3 SWAP2 POP POP JUMP JUMPDEST PUSH1 0x0 PUSH1 0x3 PUSH1 0x0 SWAP1 SLOAD SWAP1 PUSH2 0x100 EXP SWAP1 DIV PUSH20 0xFFFFFFFFFFFFFFFFFFFFFFFFFFFFFFFFFFFFFFFF AND PUSH20 0xFFFFFFFFFFFFFFFFFFFFFFFFFFFFFFFFFFFFFFFF AND PUSH4 0xF06FC961 DUP4 PUSH1 0x40 MLOAD DUP3 PUSH4 0xFFFFFFFF AND PUSH1 0xE0 SHL DUP2 MSTORE PUSH1 0x4 ADD PUSH2 0xB99 SWAP2 SWAP1 PUSH2 0x299C JUMP JUMPDEST PUSH1 0x20 PUSH1 0x40 MLOAD DUP1 DUP4 SUB DUP2 DUP7 GAS STATICCALL ISZERO DUP1 ISZERO PUSH2 0xBB6 JUMPI RETURNDATASIZE PUSH1 0x0 DUP1 RETURNDATACOPY RETURNDATASIZE PUSH1 0x0 REVERT JUMPDEST POP POP POP POP PUSH1 0x40 MLOAD RETURNDATASIZE PUSH1 0x1F NOT PUSH1 0x1F DUP3 ADD AND DUP3 ADD DUP1 PUSH1 0x40 MSTORE POP DUP2 ADD SWAP1 PUSH2 0xBDA SWAP2 SWAP1 PUSH2 0x3C31 JUMP JUMPDEST SWAP1 POP PUSH1 0x0 DUP2 GT PUSH2 0xC1F JUMPI PUSH1 0x40 MLOAD PUSH32 0x8C379A000000000000000000000000000000000000000000000000000000000 DUP2 MSTORE PUSH1 0x4 ADD PUSH2 0xC16 SWAP1 PUSH2 0x3CAA JUMP JUMPDEST PUSH1 0x40 MLOAD DUP1 SWAP2 SUB SWAP1 REVERT JUMPDEST DUP1 CALLVALUE LT ISZERO PUSH2 0xC62 JUMPI PUSH1 0x40 MLOAD PUSH32 0x8C379A000000000000000000000000000000000000000000000000000000000 DUP2 MSTORE PUSH1 0x4 ADD PUSH2 0xC59 SWAP1 PUSH2 0x3D16 JUMP JUMPDEST PUSH1 0x40 MLOAD DUP1 SWAP2 SUB SWAP1 REVERT JUMPDEST PUSH2 0xC6B DUP3 PUSH2 0x10F7 JUMP JUMPDEST PUSH20 0xFFFFFFFFFFFFFFFFFFFFFFFFFFFFFFFFFFFFFFFF AND PUSH1 0x3 PUSH1 0x0 SWAP1 SLOAD SWAP1 PUSH2 0x100 EXP SWAP1 DIV PUSH20 0xFFFFFFFFFFFFFFFFFFFFFFFFFFFFFFFFFFFFFFFF AND PUSH20 0xFFFFFFFFFFFFFFFFFFFFFFFFFFFFFFFFFFFFFFFF AND PUSH4 0x81812FC DUP5 PUSH1 0x40 MLOAD DUP3 PUSH4 0xFFFFFFFF AND PUSH1 0xE0 SHL DUP2 MSTORE PUSH1 0x4 ADD PUSH2 0xCDC SWAP2 SWAP1 PUSH2 0x299C JUMP JUMPDEST PUSH1 0x20 PUSH1 0x40 MLOAD DUP1 DUP4 SUB DUP2 DUP7 GAS STATICCALL ISZERO DUP1 ISZERO PUSH2 0xCF9 JUMPI RETURNDATASIZE PUSH1 0x0 DUP1 RETURNDATACOPY RETURNDATASIZE PUSH1 0x0 REVERT JUMPDEST POP POP POP POP PUSH1 0x40 MLOAD RETURNDATASIZE PUSH1 0x1F NOT PUSH1 0x1F DUP3 ADD AND DUP3 ADD DUP1 PUSH1 0x40 MSTORE POP DUP2 ADD SWAP1 PUSH2 0xD1D SWAP2 SWAP1 PUSH2 0x3982 JUMP JUMPDEST PUSH20 0xFFFFFFFFFFFFFFFFFFFFFFFFFFFFFFFFFFFFFFFF AND EQ PUSH2 0xD73 JUMPI PUSH1 0x40 MLOAD PUSH32 0x8C379A000000000000000000000000000000000000000000000000000000000 DUP2 MSTORE PUSH1 0x4 ADD PUSH2 0xD6A SWAP1 PUSH2 0x3DA8 JUMP JUMPDEST PUSH1 0x40 MLOAD DUP1 SWAP2 SUB SWAP1 REVERT JUMPDEST PUSH1 0x0 PUSH1 0x3 PUSH1 0x0 SWAP1 SLOAD SWAP1 PUSH2 0x100 EXP SWAP1 DIV PUSH20 0xFFFFFFFFFFFFFFFFFFFFFFFFFFFFFFFFFFFFFFFF AND PUSH20 0xFFFFFFFFFFFFFFFFFFFFFFFFFFFFFFFFFFFFFFFF AND PUSH4 0x6352211E DUP5 PUSH1 0x40 MLOAD DUP3 PUSH4 0xFFFFFFFF AND PUSH1 0xE0 SHL DUP2 MSTORE PUSH1 0x4 ADD PUSH2 0xDD0 SWAP2 SWAP1 PUSH2 0x299C JUMP JUMPDEST PUSH1 0x20 PUSH1 0x40 MLOAD DUP1 DUP4 SUB DUP2 DUP7 GAS STATICCALL ISZERO DUP1 ISZERO PUSH2 0xDED JUMPI RETURNDATASIZE PUSH1 0x0 DUP1 RETURNDATACOPY RETURNDATASIZE PUSH1 0x0 REVERT JUMPDEST POP POP POP POP PUSH1 0x40 MLOAD RETURNDATASIZE PUSH1 0x1F NOT PUSH1 0x1F DUP3 ADD AND DUP3 ADD DUP1 PUSH1 0x40 MSTORE POP DUP2 ADD SWAP1 PUSH2 0xE11 SWAP2 SWAP1 PUSH2 0x3982 JUMP JUMPDEST SWAP1 POP DUP1 PUSH20 0xFFFFFFFFFFFFFFFFFFFFFFFFFFFFFFFFFFFFFFFF AND PUSH2 0x8FC DUP4 SWAP1 DUP2 ISZERO MUL SWAP1 PUSH1 0x40 MLOAD PUSH1 0x0 PUSH1 0x40 MLOAD DUP1 DUP4 SUB DUP2 DUP6 DUP9 DUP9 CALL SWAP4 POP POP POP POP ISZERO DUP1 ISZERO PUSH2 0xE59 JUMPI RETURNDATASIZE PUSH1 0x0 DUP1 RETURNDATACOPY RETURNDATASIZE PUSH1 0x0 REVERT JUMPDEST POP PUSH1 0x3 PUSH1 0x0 SWAP1 SLOAD SWAP1 PUSH2 0x100 EXP SWAP1 DIV PUSH20 0xFFFFFFFFFFFFFFFFFFFFFFFFFFFFFFFFFFFFFFFF AND PUSH20 0xFFFFFFFFFFFFFFFFFFFFFFFFFFFFFFFFFFFFFFFF AND PUSH4 0x1367E6A DUP3 CALLER DUP7 PUSH1 0x40 MLOAD DUP5 PUSH4 0xFFFFFFFF AND PUSH1 0xE0 SHL DUP2 MSTORE PUSH1 0x4 ADD PUSH2 0xEB9 SWAP4 SWAP3 SWAP2 SWAP1 PUSH2 0x3DC8 JUMP JUMPDEST PUSH1 0x0 PUSH1 0x40 MLOAD DUP1 DUP4 SUB DUP2 PUSH1 0x0 DUP8 DUP1 EXTCODESIZE ISZERO DUP1 ISZERO PUSH2 0xED3 JUMPI PUSH1 0x0 DUP1 REVERT JUMPDEST POP GAS CALL ISZERO DUP1 ISZERO PUSH2 0xEE7 JUMPI RETURNDATASIZE PUSH1 0x0 DUP1 RETURNDATACOPY RETURNDATASIZE PUSH1 0x0 REVERT JUMPDEST POP POP POP POP PUSH1 0x3 PUSH1 0x0 SWAP1 SLOAD SWAP1 PUSH2 0x100 EXP SWAP1 DIV PUSH20 0xFFFFFFFFFFFFFFFFFFFFFFFFFFFFFFFFFFFFFFFF AND PUSH20 0xFFFFFFFFFFFFFFFFFFFFFFFFFFFFFFFFFFFFFFFF AND PUSH4 0xB2529B32 DUP5 PUSH1 0x40 MLOAD DUP3 PUSH4 0xFFFFFFFF AND PUSH1 0xE0 SHL DUP2 MSTORE PUSH1 0x4 ADD PUSH2 0xF46 SWAP2 SWAP1 PUSH2 0x299C JUMP JUMPDEST PUSH1 0x0 PUSH1 0x40 MLOAD DUP1 DUP4 SUB DUP2 PUSH1 0x0 DUP8 DUP1 EXTCODESIZE ISZERO DUP1 ISZERO PUSH2 0xF60 JUMPI PUSH1 0x0 DUP1 REVERT JUMPDEST POP GAS CALL ISZERO DUP1 ISZERO PUSH2 0xF74 JUMPI RETURNDATASIZE PUSH1 0x0 DUP1 RETURNDATACOPY RETURNDATASIZE PUSH1 0x0 REVERT JUMPDEST POP POP POP POP POP POP POP JUMP JUMPDEST PUSH1 0x6 SLOAD DUP3 LT PUSH2 0xFC1 JUMPI PUSH1 0x40 MLOAD PUSH32 0x8C379A000000000000000000000000000000000000000000000000000000000 DUP2 MSTORE PUSH1 0x4 ADD PUSH2 0xFB8 SWAP1 PUSH2 0x3E4B JUMP JUMPDEST PUSH1 0x40 MLOAD DUP1 SWAP2 SUB SWAP1 REVERT JUMPDEST CALLER PUSH20 0xFFFFFFFFFFFFFFFFFFFFFFFFFFFFFFFFFFFFFFFF AND PUSH1 0x8 PUSH1 0x0 DUP5 DUP2 MSTORE PUSH1 0x20 ADD SWAP1 DUP2 MSTORE PUSH1 0x20 ADD PUSH1 0x0 KECCAK256 PUSH1 0x0 SWAP1 SLOAD SWAP1 PUSH2 0x100 EXP SWAP1 DIV PUSH20 0xFFFFFFFFFFFFFFFFFFFFFFFFFFFFFFFFFFFFFFFF AND PUSH20 0xFFFFFFFFFFFFFFFFFFFFFFFFFFFFFFFFFFFFFFFF AND EQ PUSH2 0x1062 JUMPI PUSH1 0x40 MLOAD PUSH32 0x8C379A000000000000000000000000000000000000000000000000000000000 DUP2 MSTORE PUSH1 0x4 ADD PUSH2 0x1059 SWAP1 PUSH2 0x3EDD JUMP JUMPDEST PUSH1 0x40 MLOAD DUP1 SWAP2 SUB SWAP1 REVERT JUMPDEST PUSH1 0x3 PUSH1 0x0 SWAP1 SLOAD SWAP1 PUSH2 0x100 EXP SWAP1 DIV PUSH20 0xFFFFFFFFFFFFFFFFFFFFFFFFFFFFFFFFFFFFFFFF AND PUSH20 0xFFFFFFFFFFFFFFFFFFFFFFFFFFFFFFFFFFFFFFFF AND PUSH4 0xE870CB66 CALLER DUP5 DUP5 PUSH1 0x40 MLOAD DUP5 PUSH4 0xFFFFFFFF AND PUSH1 0xE0 SHL DUP2 MSTORE PUSH1 0x4 ADD PUSH2 0x10C1 SWAP4 SWAP3 SWAP2 SWAP1 PUSH2 0x3EFD JUMP JUMPDEST PUSH1 0x0 PUSH1 0x40 MLOAD DUP1 DUP4 SUB DUP2 PUSH1 0x0 DUP8 DUP1 EXTCODESIZE ISZERO DUP1 ISZERO PUSH2 0x10DB JUMPI PUSH1 0x0 DUP1 REVERT JUMPDEST POP GAS CALL ISZERO DUP1 ISZERO PUSH2 0x10EF JUMPI RETURNDATASIZE PUSH1 0x0 DUP1 RETURNDATACOPY RETURNDATASIZE PUSH1 0x0 REVERT JUMPDEST POP POP POP POP POP POP JUMP JUMPDEST PUSH1 0x0 PUSH1 0x8 PUSH1 0x0 DUP4 DUP2 MSTORE PUSH1 0x20 ADD SWAP1 DUP2 MSTORE PUSH1 0x20 ADD PUSH1 0x0 KECCAK256 PUSH1 0x0 SWAP1 SLOAD SWAP1 PUSH2 0x100 EXP SWAP1 DIV PUSH20 0xFFFFFFFFFFFFFFFFFFFFFFFFFFFFFFFFFFFFFFFF AND SWAP1 POP SWAP2 SWAP1 POP JUMP JUMPDEST PUSH1 0x3 PUSH1 0x0 SWAP1 SLOAD SWAP1 PUSH2 0x100 EXP SWAP1 DIV PUSH20 0xFFFFFFFFFFFFFFFFFFFFFFFFFFFFFFFFFFFFFFFF AND DUP2 JUMP JUMPDEST PUSH2 0x1162 PUSH2 0x2847 JUMP JUMPDEST PUSH1 0x7 PUSH1 0x0 DUP4 DUP2 MSTORE PUSH1 0x20 ADD SWAP1 DUP2 MSTORE PUSH1 0x20 ADD PUSH1 0x0 KECCAK256 PUSH1 0x40 MLOAD DUP1 PUSH1 0xA0 ADD PUSH1 0x40 MSTORE SWAP1 DUP2 PUSH1 0x0 DUP3 ADD SLOAD DUP2 MSTORE PUSH1 0x20 ADD PUSH1 0x1 DUP3 ADD DUP1 SLOAD PUSH2 0x119A SWAP1 PUSH2 0x393C JUMP JUMPDEST DUP1 PUSH1 0x1F ADD PUSH1 0x20 DUP1 SWAP2 DIV MUL PUSH1 0x20 ADD PUSH1 0x40 MLOAD SWAP1 DUP2 ADD PUSH1 0x40 MSTORE DUP1 SWAP3 SWAP2 SWAP1 DUP2 DUP2 MSTORE PUSH1 0x20 ADD DUP3 DUP1 SLOAD PUSH2 0x11C6 SWAP1 PUSH2 0x393C JUMP JUMPDEST DUP1 ISZERO PUSH2 0x1213 JUMPI DUP1 PUSH1 0x1F LT PUSH2 0x11E8 JUMPI PUSH2 0x100 DUP1 DUP4 SLOAD DIV MUL DUP4 MSTORE SWAP2 PUSH1 0x20 ADD SWAP2 PUSH2 0x1213 JUMP JUMPDEST DUP3 ADD SWAP2 SWAP1 PUSH1 0x0 MSTORE PUSH1 0x20 PUSH1 0x0 KECCAK256 SWAP1 JUMPDEST DUP2 SLOAD DUP2 MSTORE SWAP1 PUSH1 0x1 ADD SWAP1 PUSH1 0x20 ADD DUP1 DUP4 GT PUSH2 0x11F6 JUMPI DUP3 SWAP1 SUB PUSH1 0x1F AND DUP3 ADD SWAP2 JUMPDEST POP POP POP POP POP DUP2 MSTORE PUSH1 0x20 ADD PUSH1 0x2 DUP3 ADD DUP1 SLOAD PUSH2 0x122C SWAP1 PUSH2 0x393C JUMP JUMPDEST DUP1 PUSH1 0x1F ADD PUSH1 0x20 DUP1 SWAP2 DIV MUL PUSH1 0x20 ADD PUSH1 0x40 MLOAD SWAP1 DUP2 ADD PUSH1 0x40 MSTORE DUP1 SWAP3 SWAP2 SWAP1 DUP2 DUP2 MSTORE PUSH1 0x20 ADD DUP3 DUP1 SLOAD PUSH2 0x1258 SWAP1 PUSH2 0x393C JUMP JUMPDEST DUP1 ISZERO PUSH2 0x12A5 JUMPI DUP1 PUSH1 0x1F LT PUSH2 0x127A JUMPI PUSH2 0x100 DUP1 DUP4 SLOAD DIV MUL DUP4 MSTORE SWAP2 PUSH1 0x20 ADD SWAP2 PUSH2 0x12A5 JUMP JUMPDEST DUP3 ADD SWAP2 SWAP1 PUSH1 0x0 MSTORE PUSH1 0x20 PUSH1 0x0 KECCAK256 SWAP1 JUMPDEST DUP2 SLOAD DUP2 MSTORE SWAP1 PUSH1 0x1 ADD SWAP1 PUSH1 0x20 ADD DUP1 DUP4 GT PUSH2 0x1288 JUMPI DUP3 SWAP1 SUB PUSH1 0x1F AND DUP3 ADD SWAP2 JUMPDEST POP POP POP POP POP DUP2 MSTORE PUSH1 0x20 ADD PUSH1 0x3 DUP3 ADD DUP1 SLOAD PUSH2 0x12BE SWAP1 PUSH2 0x393C JUMP JUMPDEST DUP1 PUSH1 0x1F ADD PUSH1 0x20 DUP1 SWAP2 DIV MUL PUSH1 0x20 ADD PUSH1 0x40 MLOAD SWAP1 DUP2 ADD PUSH1 0x40 MSTORE DUP1 SWAP3 SWAP2 SWAP1 DUP2 DUP2 MSTORE PUSH1 0x20 ADD DUP3 DUP1 SLOAD PUSH2 0x12EA SWAP1 PUSH2 0x393C JUMP JUMPDEST DUP1 ISZERO PUSH2 0x1337 JUMPI DUP1 PUSH1 0x1F LT PUSH2 0x130C JUMPI PUSH2 0x100 DUP1 DUP4 SLOAD DIV MUL DUP4 MSTORE SWAP2 PUSH1 0x20 ADD SWAP2 PUSH2 0x1337 JUMP JUMPDEST DUP3 ADD SWAP2 SWAP1 PUSH1 0x0 MSTORE PUSH1 0x20 PUSH1 0x0 KECCAK256 SWAP1 JUMPDEST DUP2 SLOAD DUP2 MSTORE SWAP1 PUSH1 0x1 ADD SWAP1 PUSH1 0x20 ADD DUP1 DUP4 GT PUSH2 0x131A JUMPI DUP3 SWAP1 SUB PUSH1 0x1F AND DUP3 ADD SWAP2 JUMPDEST POP POP POP POP POP DUP2 MSTORE PUSH1 0x20 ADD PUSH1 0x4 DUP3 ADD SLOAD DUP2 MSTORE POP POP SWAP1 POP SWAP2 SWAP1 POP JUMP JUMPDEST PUSH1 0x5 DUP1 SLOAD PUSH2 0x135E SWAP1 PUSH2 0x393C JUMP JUMPDEST DUP1 PUSH1 0x1F ADD PUSH1 0x20 DUP1 SWAP2 DIV MUL PUSH1 0x20 ADD PUSH1 0x40 MLOAD SWAP1 DUP2 ADD PUSH1 0x40 MSTORE DUP1 SWAP3 SWAP2 SWAP1 DUP2 DUP2 MSTORE PUSH1 0x20 ADD DUP3 DUP1 SLOAD PUSH2 0x138A SWAP1 PUSH2 0x393C JUMP JUMPDEST DUP1 ISZERO PUSH2 0x13D7 JUMPI DUP1 PUSH1 0x1F LT PUSH2 0x13AC JUMPI PUSH2 0x100 DUP1 DUP4 SLOAD DIV MUL DUP4 MSTORE SWAP2 PUSH1 0x20 ADD SWAP2 PUSH2 0x13D7 JUMP JUMPDEST DUP3 ADD SWAP2 SWAP1 PUSH1 0x0 MSTORE PUSH1 0x20 PUSH1 0x0 KECCAK256 SWAP1 JUMPDEST DUP2 SLOAD DUP2 MSTORE SWAP1 PUSH1 0x1 ADD SWAP1 PUSH1 0x20 ADD DUP1 DUP4 GT PUSH2 0x13BA JUMPI DUP3 SWAP1 SUB PUSH1 0x1F AND DUP3 ADD SWAP2 JUMPDEST POP POP POP POP POP DUP2 JUMP JUMPDEST PUSH1 0x0 PUSH1 0x6 PUSH1 0x0 DUP2 SLOAD DUP1 SWAP3 SWAP2 SWAP1 PUSH2 0x13F4 SWAP1 PUSH2 0x3BD4 JUMP JUMPDEST SWAP2 SWAP1 POP SSTORE SWAP1 POP PUSH1 0x40 MLOAD DUP1 PUSH1 0xA0 ADD PUSH1 0x40 MSTORE DUP1 DUP3 DUP2 MSTORE PUSH1 0x20 ADD DUP7 DUP2 MSTORE PUSH1 0x20 ADD DUP6 DUP2 MSTORE PUSH1 0x20 ADD DUP5 DUP2 MSTORE PUSH1 0x20 ADD DUP4 DUP2 MSTORE POP PUSH1 0x7 PUSH1 0x0 DUP4 DUP2 MSTORE PUSH1 0x20 ADD SWAP1 DUP2 MSTORE PUSH1 0x20 ADD PUSH1 0x0 KECCAK256 PUSH1 0x0 DUP3 ADD MLOAD DUP2 PUSH1 0x0 ADD SSTORE PUSH1 0x20 DUP3 ADD MLOAD DUP2 PUSH1 0x1 ADD SWAP1 DUP2 PUSH2 0x1453 SWAP2 SWAP1 PUSH2 0x40D6 JUMP JUMPDEST POP PUSH1 0x40 DUP3 ADD MLOAD DUP2 PUSH1 0x2 ADD SWAP1 DUP2 PUSH2 0x1469 SWAP2 SWAP1 PUSH2 0x40D6 JUMP JUMPDEST POP PUSH1 0x60 DUP3 ADD MLOAD DUP2 PUSH1 0x3 ADD SWAP1 DUP2 PUSH2 0x147F SWAP2 SWAP1 PUSH2 0x40D6 JUMP JUMPDEST POP PUSH1 0x80 DUP3 ADD MLOAD DUP2 PUSH1 0x4 ADD SSTORE SWAP1 POP POP CALLER PUSH1 0x8 PUSH1 0x0 DUP4 DUP2 MSTORE PUSH1 0x20 ADD SWAP1 DUP2 MSTORE PUSH1 0x20 ADD PUSH1 0x0 KECCAK256 PUSH1 0x0 PUSH2 0x100 EXP DUP2 SLOAD DUP2 PUSH20 0xFFFFFFFFFFFFFFFFFFFFFFFFFFFFFFFFFFFFFFFF MUL NOT AND SWAP1 DUP4 PUSH20 0xFFFFFFFFFFFFFFFFFFFFFFFFFFFFFFFFFFFFFFFF AND MUL OR SWAP1 SSTORE POP PUSH2 0x14FB CALLER DUP3 PUSH1 0x1 PUSH1 0x40 MLOAD DUP1 PUSH1 0x20 ADD PUSH1 0x40 MSTORE DUP1 PUSH1 0x0 DUP2 MSTORE POP PUSH2 0x1CE9 JUMP JUMPDEST POP POP POP POP POP JUMP JUMPDEST PUSH2 0x1514 PUSH2 0x150D PUSH2 0x19C0 JUMP JUMPDEST DUP4 DUP4 PUSH2 0x1E99 JUMP JUMPDEST POP POP JUMP JUMPDEST DUP1 PUSH1 0x3 PUSH1 0x0 PUSH2 0x100 EXP DUP2 SLOAD DUP2 PUSH20 0xFFFFFFFFFFFFFFFFFFFFFFFFFFFFFFFFFFFFFFFF MUL NOT AND SWAP1 DUP4 PUSH20 0xFFFFFFFFFFFFFFFFFFFFFFFFFFFFFFFFFFFFFFFF AND MUL OR SWAP1 SSTORE POP POP JUMP JUMPDEST PUSH1 0x0 PUSH4 0xBC197C81 PUSH1 0xE0 SHL SWAP1 POP SWAP9 SWAP8 POP POP POP POP POP POP POP POP JUMP JUMPDEST PUSH1 0x3 PUSH1 0x0 SWAP1 SLOAD SWAP1 PUSH2 0x100 EXP SWAP1 DIV PUSH20 0xFFFFFFFFFFFFFFFFFFFFFFFFFFFFFFFFFFFFFFFF AND PUSH20 0xFFFFFFFFFFFFFFFFFFFFFFFFFFFFFFFFFFFFFFFF AND PUSH4 0x10198DF CALLER DUP4 PUSH1 0x40 MLOAD DUP4 PUSH4 0xFFFFFFFF AND PUSH1 0xE0 SHL DUP2 MSTORE PUSH1 0x4 ADD PUSH2 0x15D1 SWAP3 SWAP2 SWAP1 PUSH2 0x41A8 JUMP JUMPDEST PUSH1 0x0 PUSH1 0x40 MLOAD DUP1 DUP4 SUB DUP2 PUSH1 0x0 DUP8 DUP1 EXTCODESIZE ISZERO DUP1 ISZERO PUSH2 0x15EB JUMPI PUSH1 0x0 DUP1 REVERT JUMPDEST POP GAS CALL ISZERO DUP1 ISZERO PUSH2 0x15FF JUMPI RETURNDATASIZE PUSH1 0x0 DUP1 RETURNDATACOPY RETURNDATASIZE PUSH1 0x0 REVERT JUMPDEST POP POP POP POP POP JUMP JUMPDEST PUSH1 0x0 PUSH1 0x1 PUSH1 0x0 DUP5 PUSH20 0xFFFFFFFFFFFFFFFFFFFFFFFFFFFFFFFFFFFFFFFF AND PUSH20 0xFFFFFFFFFFFFFFFFFFFFFFFFFFFFFFFFFFFFFFFF AND DUP2 MSTORE PUSH1 0x20 ADD SWAP1 DUP2 MSTORE PUSH1 0x20 ADD PUSH1 0x0 KECCAK256 PUSH1 0x0 DUP4 PUSH20 0xFFFFFFFFFFFFFFFFFFFFFFFFFFFFFFFFFFFFFFFF AND PUSH20 0xFFFFFFFFFFFFFFFFFFFFFFFFFFFFFFFFFFFFFFFF AND DUP2 MSTORE PUSH1 0x20 ADD SWAP1 DUP2 MSTORE PUSH1 0x20 ADD PUSH1 0x0 KECCAK256 PUSH1 0x0 SWAP1 SLOAD SWAP1 PUSH2 0x100 EXP SWAP1 DIV PUSH1 0xFF AND SWAP1 POP SWAP3 SWAP2 POP POP JUMP JUMPDEST PUSH1 0x0 PUSH4 0xF23A6E61 PUSH1 0xE0 SHL SWAP1 POP SWAP7 SWAP6 POP POP POP POP POP POP JUMP JUMPDEST PUSH2 0x16B8 PUSH2 0x19C0 JUMP JUMPDEST PUSH20 0xFFFFFFFFFFFFFFFFFFFFFFFFFFFFFFFFFFFFFFFF AND DUP6 PUSH20 0xFFFFFFFFFFFFFFFFFFFFFFFFFFFFFFFFFFFFFFFF AND EQ DUP1 PUSH2 0x16FE JUMPI POP PUSH2 0x16FD DUP6 PUSH2 0x16F8 PUSH2 0x19C0 JUMP JUMPDEST PUSH2 0x1606 JUMP JUMPDEST JUMPDEST PUSH2 0x173D JUMPI PUSH1 0x40 MLOAD PUSH32 0x8C379A000000000000000000000000000000000000000000000000000000000 DUP2 MSTORE PUSH1 0x4 ADD PUSH2 0x1734 SWAP1 PUSH2 0x3AC4 JUMP JUMPDEST PUSH1 0x40 MLOAD DUP1 SWAP2 SUB SWAP1 REVERT JUMPDEST PUSH2 0x174A DUP6 DUP6 DUP6 DUP6 DUP6 PUSH2 0x2005 JUMP JUMPDEST POP POP POP POP POP JUMP JUMPDEST PUSH2 0x175D DUP6 DUP6 DUP6 DUP6 PUSH2 0x13DF JUMP JUMPDEST PUSH1 0x0 PUSH1 0x1 PUSH1 0x6 SLOAD PUSH2 0x176E SWAP2 SWAP1 PUSH2 0x41D1 JUMP JUMPDEST SWAP1 POP PUSH1 0x3 PUSH1 0x0 SWAP1 SLOAD SWAP1 PUSH2 0x100 EXP SWAP1 DIV PUSH20 0xFFFFFFFFFFFFFFFFFFFFFFFFFFFFFFFFFFFFFFFF AND PUSH20 0xFFFFFFFFFFFFFFFFFFFFFFFFFFFFFFFFFFFFFFFF AND PUSH4 0xE870CB66 CALLER DUP4 DUP6 PUSH1 0x40 MLOAD DUP5 PUSH4 0xFFFFFFFF AND PUSH1 0xE0 SHL DUP2 MSTORE PUSH1 0x4 ADD PUSH2 0x17CF SWAP4 SWAP3 SWAP2 SWAP1 PUSH2 0x3EFD JUMP JUMPDEST PUSH1 0x0 PUSH1 0x40 MLOAD DUP1 DUP4 SUB DUP2 PUSH1 0x0 DUP8 DUP1 EXTCODESIZE ISZERO DUP1 ISZERO PUSH2 0x17E9 JUMPI PUSH1 0x0 DUP1 REVERT JUMPDEST POP GAS CALL ISZERO DUP1 ISZERO PUSH2 0x17FD JUMPI RETURNDATASIZE PUSH1 0x0 DUP1 RETURNDATACOPY RETURNDATASIZE PUSH1 0x0 REVERT JUMPDEST POP POP POP POP POP POP POP POP POP POP JUMP JUMPDEST PUSH1 0x3 PUSH1 0x0 SWAP1 SLOAD SWAP1 PUSH2 0x100 EXP SWAP1 DIV PUSH20 0xFFFFFFFFFFFFFFFFFFFFFFFFFFFFFFFFFFFFFFFF AND PUSH20 0xFFFFFFFFFFFFFFFFFFFFFFFFFFFFFFFFFFFFFFFF AND PUSH4 0xBDBDEEEF CALLER DUP4 PUSH1 0x40 MLOAD DUP4 PUSH4 0xFFFFFFFF AND PUSH1 0xE0 SHL DUP2 MSTORE PUSH1 0x4 ADD PUSH2 0x1866 SWAP3 SWAP2 SWAP1 PUSH2 0x41A8 JUMP JUMPDEST PUSH1 0x0 PUSH1 0x40 MLOAD DUP1 DUP4 SUB DUP2 PUSH1 0x0 DUP8 DUP1 EXTCODESIZE ISZERO DUP1 ISZERO PUSH2 0x1880 JUMPI PUSH1 0x0 DUP1 REVERT JUMPDEST POP GAS CALL ISZERO DUP1 ISZERO PUSH2 0x1894 JUMPI RETURNDATASIZE PUSH1 0x0 DUP1 RETURNDATACOPY RETURNDATASIZE PUSH1 0x0 REVERT JUMPDEST POP POP POP POP POP JUMP JUMPDEST PUSH2 0x18A3 PUSH2 0x2876 JUMP JUMPDEST PUSH1 0x3 PUSH1 0x0 SWAP1 SLOAD SWAP1 PUSH2 0x100 EXP SWAP1 DIV PUSH20 0xFFFFFFFFFFFFFFFFFFFFFFFFFFFFFFFFFFFFFFFF AND PUSH20 0xFFFFFFFFFFFFFFFFFFFFFFFFFFFFFFFFFFFFFFFF AND PUSH4 0xFF99A063 DUP4 PUSH1 0x40 MLOAD DUP3 PUSH4 0xFFFFFFFF AND PUSH1 0xE0 SHL DUP2 MSTORE PUSH1 0x4 ADD PUSH2 0x18FE SWAP2 SWAP1 PUSH2 0x299C JUMP JUMPDEST PUSH1 0xA0 PUSH1 0x40 MLOAD DUP1 DUP4 SUB DUP2 DUP7 GAS STATICCALL ISZERO DUP1 ISZERO PUSH2 0x191B JUMPI RETURNDATASIZE PUSH1 0x0 DUP1 RETURNDATACOPY RETURNDATASIZE PUSH1 0x0 REVERT JUMPDEST POP POP POP POP PUSH1 0x40 MLOAD RETURNDATASIZE PUSH1 0x1F NOT PUSH1 0x1F DUP3 ADD AND DUP3 ADD DUP1 PUSH1 0x40 MSTORE POP DUP2 ADD SWAP1 PUSH2 0x193F SWAP2 SWAP1 PUSH2 0x4296 JUMP JUMPDEST SWAP1 POP SWAP2 SWAP1 POP JUMP JUMPDEST PUSH1 0x0 PUSH32 0x4E2312E000000000000000000000000000000000000000000000000000000000 PUSH28 0xFFFFFFFFFFFFFFFFFFFFFFFFFFFFFFFFFFFFFFFFFFFFFFFFFFFFFFFF NOT AND DUP3 PUSH28 0xFFFFFFFFFFFFFFFFFFFFFFFFFFFFFFFFFFFFFFFFFFFFFFFFFFFFFFFF NOT AND EQ DUP1 PUSH2 0x19B9 JUMPI POP PUSH2 0x19B8 DUP3 PUSH2 0x22A0 JUMP JUMPDEST JUMPDEST SWAP1 POP SWAP2 SWAP1 POP JUMP JUMPDEST PUSH1 0x0 CALLER SWAP1 POP SWAP1 JUMP JUMPDEST DUP2 MLOAD DUP4 MLOAD EQ PUSH2 0x1A0C JUMPI PUSH1 0x40 MLOAD PUSH32 0x8C379A000000000000000000000000000000000000000000000000000000000 DUP2 MSTORE PUSH1 0x4 ADD PUSH2 0x1A03 SWAP1 PUSH2 0x4335 JUMP JUMPDEST PUSH1 0x40 MLOAD DUP1 SWAP2 SUB SWAP1 REVERT JUMPDEST PUSH1 0x0 PUSH20 0xFFFFFFFFFFFFFFFFFFFFFFFFFFFFFFFFFFFFFFFF AND DUP5 PUSH20 0xFFFFFFFFFFFFFFFFFFFFFFFFFFFFFFFFFFFFFFFF AND SUB PUSH2 0x1A7B JUMPI PUSH1 0x40 MLOAD PUSH32 0x8C379A000000000000000000000000000000000000000000000000000000000 DUP2 MSTORE PUSH1 0x4 ADD PUSH2 0x1A72 SWAP1 PUSH2 0x43C7 JUMP JUMPDEST PUSH1 0x40 MLOAD DUP1 SWAP2 SUB SWAP1 REVERT JUMPDEST PUSH1 0x0 PUSH2 0x1A85 PUSH2 0x19C0 JUMP JUMPDEST SWAP1 POP PUSH2 0x1A95 DUP2 DUP8 DUP8 DUP8 DUP8 DUP8 PUSH2 0x2382 JUMP JUMPDEST PUSH1 0x0 JUMPDEST DUP5 MLOAD DUP2 LT ISZERO PUSH2 0x1C46 JUMPI PUSH1 0x0 DUP6 DUP3 DUP2 MLOAD DUP2 LT PUSH2 0x1AB6 JUMPI PUSH2 0x1AB5 PUSH2 0x3B76 JUMP JUMPDEST JUMPDEST PUSH1 0x20 MUL PUSH1 0x20 ADD ADD MLOAD SWAP1 POP PUSH1 0x0 DUP6 DUP4 DUP2 MLOAD DUP2 LT PUSH2 0x1AD5 JUMPI PUSH2 0x1AD4 PUSH2 0x3B76 JUMP JUMPDEST JUMPDEST PUSH1 0x20 MUL PUSH1 0x20 ADD ADD MLOAD SWAP1 POP PUSH1 0x0 DUP1 PUSH1 0x0 DUP5 DUP2 MSTORE PUSH1 0x20 ADD SWAP1 DUP2 MSTORE PUSH1 0x20 ADD PUSH1 0x0 KECCAK256 PUSH1 0x0 DUP12 PUSH20 0xFFFFFFFFFFFFFFFFFFFFFFFFFFFFFFFFFFFFFFFF AND PUSH20 0xFFFFFFFFFFFFFFFFFFFFFFFFFFFFFFFFFFFFFFFF AND DUP2 MSTORE PUSH1 0x20 ADD SWAP1 DUP2 MSTORE PUSH1 0x20 ADD PUSH1 0x0 KECCAK256 SLOAD SWAP1 POP DUP2 DUP2 LT ISZERO PUSH2 0x1B76 JUMPI PUSH1 0x40 MLOAD PUSH32 0x8C379A000000000000000000000000000000000000000000000000000000000 DUP2 MSTORE PUSH1 0x4 ADD PUSH2 0x1B6D SWAP1 PUSH2 0x4459 JUMP JUMPDEST PUSH1 0x40 MLOAD DUP1 SWAP2 SUB SWAP1 REVERT JUMPDEST DUP2 DUP2 SUB PUSH1 0x0 DUP1 DUP6 DUP2 MSTORE PUSH1 0x20 ADD SWAP1 DUP2 MSTORE PUSH1 0x20 ADD PUSH1 0x0 KECCAK256 PUSH1 0x0 DUP13 PUSH20 0xFFFFFFFFFFFFFFFFFFFFFFFFFFFFFFFFFFFFFFFF AND PUSH20 0xFFFFFFFFFFFFFFFFFFFFFFFFFFFFFFFFFFFFFFFF AND DUP2 MSTORE PUSH1 0x20 ADD SWAP1 DUP2 MSTORE PUSH1 0x20 ADD PUSH1 0x0 KECCAK256 DUP2 SWAP1 SSTORE POP DUP2 PUSH1 0x0 DUP1 DUP6 DUP2 MSTORE PUSH1 0x20 ADD SWAP1 DUP2 MSTORE PUSH1 0x20 ADD PUSH1 0x0 KECCAK256 PUSH1 0x0 DUP12 PUSH20 0xFFFFFFFFFFFFFFFFFFFFFFFFFFFFFFFFFFFFFFFF AND PUSH20 0xFFFFFFFFFFFFFFFFFFFFFFFFFFFFFFFFFFFFFFFF AND DUP2 MSTORE PUSH1 0x20 ADD SWAP1 DUP2 MSTORE PUSH1 0x20 ADD PUSH1 0x0 KECCAK256 PUSH1 0x0 DUP3 DUP3 SLOAD PUSH2 0x1C2B SWAP2 SWAP1 PUSH2 0x4479 JUMP JUMPDEST SWAP3 POP POP DUP2 SWAP1 SSTORE POP POP POP POP DUP1 PUSH2 0x1C3F SWAP1 PUSH2 0x3BD4 JUMP JUMPDEST SWAP1 POP PUSH2 0x1A98 JUMP JUMPDEST POP DUP5 PUSH20 0xFFFFFFFFFFFFFFFFFFFFFFFFFFFFFFFFFFFFFFFF AND DUP7 PUSH20 0xFFFFFFFFFFFFFFFFFFFFFFFFFFFFFFFFFFFFFFFF AND DUP3 PUSH20 0xFFFFFFFFFFFFFFFFFFFFFFFFFFFFFFFFFFFFFFFF AND PUSH32 0x4A39DC06D4C0DBC64B70AF90FD698A233A518AA5D07E595D983B8C0526C8F7FB DUP8 DUP8 PUSH1 0x40 MLOAD PUSH2 0x1CBD SWAP3 SWAP2 SWAP1 PUSH2 0x44AD JUMP JUMPDEST PUSH1 0x40 MLOAD DUP1 SWAP2 SUB SWAP1 LOG4 PUSH2 0x1CD3 DUP2 DUP8 DUP8 DUP8 DUP8 DUP8 PUSH2 0x238A JUMP JUMPDEST PUSH2 0x1CE1 DUP2 DUP8 DUP8 DUP8 DUP8 DUP8 PUSH2 0x2392 JUMP JUMPDEST POP POP POP POP POP POP JUMP JUMPDEST PUSH1 0x0 PUSH20 0xFFFFFFFFFFFFFFFFFFFFFFFFFFFFFFFFFFFFFFFF AND DUP5 PUSH20 0xFFFFFFFFFFFFFFFFFFFFFFFFFFFFFFFFFFFFFFFF AND SUB PUSH2 0x1D58 JUMPI PUSH1 0x40 MLOAD PUSH32 0x8C379A000000000000000000000000000000000000000000000000000000000 DUP2 MSTORE PUSH1 0x4 ADD PUSH2 0x1D4F SWAP1 PUSH2 0x4556 JUMP JUMPDEST PUSH1 0x40 MLOAD DUP1 SWAP2 SUB SWAP1 REVERT JUMPDEST PUSH1 0x0 PUSH2 0x1D62 PUSH2 0x19C0 JUMP JUMPDEST SWAP1 POP PUSH1 0x0 PUSH2 0x1D6F DUP6 PUSH2 0x2569 JUMP JUMPDEST SWAP1 POP PUSH1 0x0 PUSH2 0x1D7C DUP6 PUSH2 0x2569 JUMP JUMPDEST SWAP1 POP PUSH2 0x1D8D DUP4 PUSH1 0x0 DUP10 DUP6 DUP6 DUP10 PUSH2 0x2382 JUMP JUMPDEST DUP5 PUSH1 0x0 DUP1 DUP9 DUP2 MSTORE PUSH1 0x20 ADD SWAP1 DUP2 MSTORE PUSH1 0x20 ADD PUSH1 0x0 KECCAK256 PUSH1 0x0 DUP10 PUSH20 0xFFFFFFFFFFFFFFFFFFFFFFFFFFFFFFFFFFFFFFFF AND PUSH20 0xFFFFFFFFFFFFFFFFFFFFFFFFFFFFFFFFFFFFFFFF AND DUP2 MSTORE PUSH1 0x20 ADD SWAP1 DUP2 MSTORE PUSH1 0x20 ADD PUSH1 0x0 KECCAK256 PUSH1 0x0 DUP3 DUP3 SLOAD PUSH2 0x1DEC SWAP2 SWAP1 PUSH2 0x4479 JUMP JUMPDEST SWAP3 POP POP DUP2 SWAP1 SSTORE POP DUP7 PUSH20 0xFFFFFFFFFFFFFFFFFFFFFFFFFFFFFFFFFFFFFFFF AND PUSH1 0x0 PUSH20 0xFFFFFFFFFFFFFFFFFFFFFFFFFFFFFFFFFFFFFFFF AND DUP5 PUSH20 0xFFFFFFFFFFFFFFFFFFFFFFFFFFFFFFFFFFFFFFFF AND PUSH32 0xC3D58168C5AE7397731D063D5BBF3D657854427343F4C083240F7AACAA2D0F62 DUP10 DUP10 PUSH1 0x40 MLOAD PUSH2 0x1E6A SWAP3 SWAP2 SWAP1 PUSH2 0x4576 JUMP JUMPDEST PUSH1 0x40 MLOAD DUP1 SWAP2 SUB SWAP1 LOG4 PUSH2 0x1E81 DUP4 PUSH1 0x0 DUP10 DUP6 DUP6 DUP10 PUSH2 0x238A JUMP JUMPDEST PUSH2 0x1E90 DUP4 PUSH1 0x0 DUP10 DUP10 DUP10 DUP10 PUSH2 0x25E3 JUMP JUMPDEST POP POP POP POP POP POP POP JUMP JUMPDEST DUP2 PUSH20 0xFFFFFFFFFFFFFFFFFFFFFFFFFFFFFFFFFFFFFFFF AND DUP4 PUSH20 0xFFFFFFFFFFFFFFFFFFFFFFFFFFFFFFFFFFFFFFFF AND SUB PUSH2 0x1F07 JUMPI PUSH1 0x40 MLOAD PUSH32 0x8C379A000000000000000000000000000000000000000000000000000000000 DUP2 MSTORE PUSH1 0x4 ADD PUSH2 0x1EFE SWAP1 PUSH2 0x4611 JUMP JUMPDEST PUSH1 0x40 MLOAD DUP1 SWAP2 SUB SWAP1 REVERT JUMPDEST DUP1 PUSH1 0x1 PUSH1 0x0 DUP6 PUSH20 0xFFFFFFFFFFFFFFFFFFFFFFFFFFFFFFFFFFFFFFFF AND PUSH20 0xFFFFFFFFFFFFFFFFFFFFFFFFFFFFFFFFFFFFFFFF AND DUP2 MSTORE PUSH1 0x20 ADD SWAP1 DUP2 MSTORE PUSH1 0x20 ADD PUSH1 0x0 KECCAK256 PUSH1 0x0 DUP5 PUSH20 0xFFFFFFFFFFFFFFFFFFFFFFFFFFFFFFFFFFFFFFFF AND PUSH20 0xFFFFFFFFFFFFFFFFFFFFFFFFFFFFFFFFFFFFFFFF AND DUP2 MSTORE PUSH1 0x20 ADD SWAP1 DUP2 MSTORE PUSH1 0x20 ADD PUSH1 0x0 KECCAK256 PUSH1 0x0 PUSH2 0x100 EXP DUP2 SLOAD DUP2 PUSH1 0xFF MUL NOT AND SWAP1 DUP4 ISZERO ISZERO MUL OR SWAP1 SSTORE POP DUP2 PUSH20 0xFFFFFFFFFFFFFFFFFFFFFFFFFFFFFFFFFFFFFFFF AND DUP4 PUSH20 0xFFFFFFFFFFFFFFFFFFFFFFFFFFFFFFFFFFFFFFFF AND PUSH32 0x17307EAB39AB6107E8899845AD3D59BD9653F200F220920489CA2B5937696C31 DUP4 PUSH1 0x40 MLOAD PUSH2 0x1FF8 SWAP2 SWAP1 PUSH2 0x2A57 JUMP JUMPDEST PUSH1 0x40 MLOAD DUP1 SWAP2 SUB SWAP1 LOG3 POP POP POP JUMP JUMPDEST PUSH1 0x0 PUSH20 0xFFFFFFFFFFFFFFFFFFFFFFFFFFFFFFFFFFFFFFFF AND DUP5 PUSH20 0xFFFFFFFFFFFFFFFFFFFFFFFFFFFFFFFFFFFFFFFF AND SUB PUSH2 0x2074 JUMPI PUSH1 0x40 MLOAD PUSH32 0x8C379A000000000000000000000000000000000000000000000000000000000 DUP2 MSTORE PUSH1 0x4 ADD PUSH2 0x206B SWAP1 PUSH2 0x43C7 JUMP JUMPDEST PUSH1 0x40 MLOAD DUP1 SWAP2 SUB SWAP1 REVERT JUMPDEST PUSH1 0x0 PUSH2 0x207E PUSH2 0x19C0 JUMP JUMPDEST SWAP1 POP PUSH1 0x0 PUSH2 0x208B DUP6 PUSH2 0x2569 JUMP JUMPDEST SWAP1 POP PUSH1 0x0 PUSH2 0x2098 DUP6 PUSH2 0x2569 JUMP JUMPDEST SWAP1 POP PUSH2 0x20A8 DUP4 DUP10 DUP10 DUP6 DUP6 DUP10 PUSH2 0x2382 JUMP JUMPDEST PUSH1 0x0 DUP1 PUSH1 0x0 DUP9 DUP2 MSTORE PUSH1 0x20 ADD SWAP1 DUP2 MSTORE PUSH1 0x20 ADD PUSH1 0x0 KECCAK256 PUSH1 0x0 DUP11 PUSH20 0xFFFFFFFFFFFFFFFFFFFFFFFFFFFFFFFFFFFFFFFF AND PUSH20 0xFFFFFFFFFFFFFFFFFFFFFFFFFFFFFFFFFFFFFFFF AND DUP2 MSTORE PUSH1 0x20 ADD SWAP1 DUP2 MSTORE PUSH1 0x20 ADD PUSH1 0x0 KECCAK256 SLOAD SWAP1 POP DUP6 DUP2 LT ISZERO PUSH2 0x213F JUMPI PUSH1 0x40 MLOAD PUSH32 0x8C379A000000000000000000000000000000000000000000000000000000000 DUP2 MSTORE PUSH1 0x4 ADD PUSH2 0x2136 SWAP1 PUSH2 0x4459 JUMP JUMPDEST PUSH1 0x40 MLOAD DUP1 SWAP2 SUB SWAP1 REVERT JUMPDEST DUP6 DUP2 SUB PUSH1 0x0 DUP1 DUP10 DUP2 MSTORE PUSH1 0x20 ADD SWAP1 DUP2 MSTORE PUSH1 0x20 ADD PUSH1 0x0 KECCAK256 PUSH1 0x0 DUP12 PUSH20 0xFFFFFFFFFFFFFFFFFFFFFFFFFFFFFFFFFFFFFFFF AND PUSH20 0xFFFFFFFFFFFFFFFFFFFFFFFFFFFFFFFFFFFFFFFF AND DUP2 MSTORE PUSH1 0x20 ADD SWAP1 DUP2 MSTORE PUSH1 0x20 ADD PUSH1 0x0 KECCAK256 DUP2 SWAP1 SSTORE POP DUP6 PUSH1 0x0 DUP1 DUP10 DUP2 MSTORE PUSH1 0x20 ADD SWAP1 DUP2 MSTORE PUSH1 0x20 ADD PUSH1 0x0 KECCAK256 PUSH1 0x0 DUP11 PUSH20 0xFFFFFFFFFFFFFFFFFFFFFFFFFFFFFFFFFFFFFFFF AND PUSH20 0xFFFFFFFFFFFFFFFFFFFFFFFFFFFFFFFFFFFFFFFF AND DUP2 MSTORE PUSH1 0x20 ADD SWAP1 DUP2 MSTORE PUSH1 0x20 ADD PUSH1 0x0 KECCAK256 PUSH1 0x0 DUP3 DUP3 SLOAD PUSH2 0x21F4 SWAP2 SWAP1 PUSH2 0x4479 JUMP JUMPDEST SWAP3 POP POP DUP2 SWAP1 SSTORE POP DUP8 PUSH20 0xFFFFFFFFFFFFFFFFFFFFFFFFFFFFFFFFFFFFFFFF AND DUP10 PUSH20 0xFFFFFFFFFFFFFFFFFFFFFFFFFFFFFFFFFFFFFFFF AND DUP6 PUSH20 0xFFFFFFFFFFFFFFFFFFFFFFFFFFFFFFFFFFFFFFFF AND PUSH32 0xC3D58168C5AE7397731D063D5BBF3D657854427343F4C083240F7AACAA2D0F62 DUP11 DUP11 PUSH1 0x40 MLOAD PUSH2 0x2271 SWAP3 SWAP2 SWAP1 PUSH2 0x4576 JUMP JUMPDEST PUSH1 0x40 MLOAD DUP1 SWAP2 SUB SWAP1 LOG4 PUSH2 0x2287 DUP5 DUP11 DUP11 DUP7 DUP7 DUP11 PUSH2 0x238A JUMP JUMPDEST PUSH2 0x2295 DUP5 DUP11 DUP11 DUP11 DUP11 DUP11 PUSH2 0x25E3 JUMP JUMPDEST POP POP POP POP POP POP POP POP POP JUMP JUMPDEST PUSH1 0x0 PUSH32 0xD9B67A2600000000000000000000000000000000000000000000000000000000 PUSH28 0xFFFFFFFFFFFFFFFFFFFFFFFFFFFFFFFFFFFFFFFFFFFFFFFFFFFFFFFF NOT AND DUP3 PUSH28 0xFFFFFFFFFFFFFFFFFFFFFFFFFFFFFFFFFFFFFFFFFFFFFFFFFFFFFFFF NOT AND EQ DUP1 PUSH2 0x236B JUMPI POP PUSH32 0xE89341C00000000000000000000000000000000000000000000000000000000 PUSH28 0xFFFFFFFFFFFFFFFFFFFFFFFFFFFFFFFFFFFFFFFFFFFFFFFFFFFFFFFF NOT AND DUP3 PUSH28 0xFFFFFFFFFFFFFFFFFFFFFFFFFFFFFFFFFFFFFFFFFFFFFFFFFFFFFFFF NOT AND EQ JUMPDEST DUP1 PUSH2 0x237B JUMPI POP PUSH2 0x237A DUP3 PUSH2 0x27BA JUMP JUMPDEST JUMPDEST SWAP1 POP SWAP2 SWAP1 POP JUMP JUMPDEST POP POP POP POP POP POP JUMP JUMPDEST POP POP POP POP POP POP JUMP JUMPDEST PUSH2 0x23B1 DUP5 PUSH20 0xFFFFFFFFFFFFFFFFFFFFFFFFFFFFFFFFFFFFFFFF AND PUSH2 0x2824 JUMP JUMPDEST ISZERO PUSH2 0x2561 JUMPI DUP4 PUSH20 0xFFFFFFFFFFFFFFFFFFFFFFFFFFFFFFFFFFFFFFFF AND PUSH4 0xBC197C81 DUP8 DUP8 DUP7 DUP7 DUP7 PUSH1 0x40 MLOAD DUP7 PUSH4 0xFFFFFFFF AND PUSH1 0xE0 SHL DUP2 MSTORE PUSH1 0x4 ADD PUSH2 0x23F7 SWAP6 SWAP5 SWAP4 SWAP3 SWAP2 SWAP1 PUSH2 0x4686 JUMP JUMPDEST PUSH1 0x20 PUSH1 0x40 MLOAD DUP1 DUP4 SUB DUP2 PUSH1 0x0 DUP8 GAS CALL SWAP3 POP POP POP DUP1 ISZERO PUSH2 0x2433 JUMPI POP PUSH1 0x40 MLOAD RETURNDATASIZE PUSH1 0x1F NOT PUSH1 0x1F DUP3 ADD AND DUP3 ADD DUP1 PUSH1 0x40 MSTORE POP DUP2 ADD SWAP1 PUSH2 0x2430 SWAP2 SWAP1 PUSH2 0x4703 JUMP JUMPDEST PUSH1 0x1 JUMPDEST PUSH2 0x24D8 JUMPI PUSH2 0x243F PUSH2 0x473D JUMP JUMPDEST DUP1 PUSH4 0x8C379A0 SUB PUSH2 0x249B JUMPI POP PUSH2 0x2453 PUSH2 0x475F JUMP JUMPDEST DUP1 PUSH2 0x245E JUMPI POP PUSH2 0x249D JUMP JUMPDEST DUP1 PUSH1 0x40 MLOAD PUSH32 0x8C379A000000000000000000000000000000000000000000000000000000000 DUP2 MSTORE PUSH1 0x4 ADD PUSH2 0x2492 SWAP2 SWAP1 PUSH2 0x2B02 JUMP JUMPDEST PUSH1 0x40 MLOAD DUP1 SWAP2 SUB SWAP1 REVERT JUMPDEST POP JUMPDEST PUSH1 0x40 MLOAD PUSH32 0x8C379A000000000000000000000000000000000000000000000000000000000 DUP2 MSTORE PUSH1 0x4 ADD PUSH2 0x24CF SWAP1 PUSH2 0x4861 JUMP JUMPDEST PUSH1 0x40 MLOAD DUP1 SWAP2 SUB SWAP1 REVERT JUMPDEST PUSH4 0xBC197C81 PUSH1 0xE0 SHL PUSH28 0xFFFFFFFFFFFFFFFFFFFFFFFFFFFFFFFFFFFFFFFFFFFFFFFFFFFFFFFF NOT AND DUP2 PUSH28 0xFFFFFFFFFFFFFFFFFFFFFFFFFFFFFFFFFFFFFFFFFFFFFFFFFFFFFFFF NOT AND EQ PUSH2 0x255F JUMPI PUSH1 0x40 MLOAD PUSH32 0x8C379A000000000000000000000000000000000000000000000000000000000 DUP2 MSTORE PUSH1 0x4 ADD PUSH2 0x2556 SWAP1 PUSH2 0x48F3 JUMP JUMPDEST PUSH1 0x40 MLOAD DUP1 SWAP2 SUB SWAP1 REVERT JUMPDEST POP JUMPDEST POP POP POP POP POP POP JUMP JUMPDEST PUSH1 0x60 PUSH1 0x0 PUSH1 0x1 PUSH8 0xFFFFFFFFFFFFFFFF DUP2 GT ISZERO PUSH2 0x2588 JUMPI PUSH2 0x2587 PUSH2 0x2B96 JUMP JUMPDEST JUMPDEST PUSH1 0x40 MLOAD SWAP1 DUP1 DUP3 MSTORE DUP1 PUSH1 0x20 MUL PUSH1 0x20 ADD DUP3 ADD PUSH1 0x40 MSTORE DUP1 ISZERO PUSH2 0x25B6 JUMPI DUP2 PUSH1 0x20 ADD PUSH1 0x20 DUP3 MUL DUP1 CALLDATASIZE DUP4 CALLDATACOPY DUP1 DUP3 ADD SWAP2 POP POP SWAP1 POP JUMPDEST POP SWAP1 POP DUP3 DUP2 PUSH1 0x0 DUP2 MLOAD DUP2 LT PUSH2 0x25CE JUMPI PUSH2 0x25CD PUSH2 0x3B76 JUMP JUMPDEST JUMPDEST PUSH1 0x20 MUL PUSH1 0x20 ADD ADD DUP2 DUP2 MSTORE POP POP DUP1 SWAP2 POP POP SWAP2 SWAP1 POP JUMP JUMPDEST PUSH2 0x2602 DUP5 PUSH20 0xFFFFFFFFFFFFFFFFFFFFFFFFFFFFFFFFFFFFFFFF AND PUSH2 0x2824 JUMP JUMPDEST ISZERO PUSH2 0x27B2 JUMPI DUP4 PUSH20 0xFFFFFFFFFFFFFFFFFFFFFFFFFFFFFFFFFFFFFFFF AND PUSH4 0xF23A6E61 DUP8 DUP8 DUP7 DUP7 DUP7 PUSH1 0x40 MLOAD DUP7 PUSH4 0xFFFFFFFF AND PUSH1 0xE0 SHL DUP2 MSTORE PUSH1 0x4 ADD PUSH2 0x2648 SWAP6 SWAP5 SWAP4 SWAP3 SWAP2 SWAP1 PUSH2 0x4913 JUMP JUMPDEST PUSH1 0x20 PUSH1 0x40 MLOAD DUP1 DUP4 SUB DUP2 PUSH1 0x0 DUP8 GAS CALL SWAP3 POP POP POP DUP1 ISZERO PUSH2 0x2684 JUMPI POP PUSH1 0x40 MLOAD RETURNDATASIZE PUSH1 0x1F NOT PUSH1 0x1F DUP3 ADD AND DUP3 ADD DUP1 PUSH1 0x40 MSTORE POP DUP2 ADD SWAP1 PUSH2 0x2681 SWAP2 SWAP1 PUSH2 0x4703 JUMP JUMPDEST PUSH1 0x1 JUMPDEST PUSH2 0x2729 JUMPI PUSH2 0x2690 PUSH2 0x473D JUMP JUMPDEST DUP1 PUSH4 0x8C379A0 SUB PUSH2 0x26EC JUMPI POP PUSH2 0x26A4 PUSH2 0x475F JUMP JUMPDEST DUP1 PUSH2 0x26AF JUMPI POP PUSH2 0x26EE JUMP JUMPDEST DUP1 PUSH1 0x40 MLOAD PUSH32 0x8C379A000000000000000000000000000000000000000000000000000000000 DUP2 MSTORE PUSH1 0x4 ADD PUSH2 0x26E3 SWAP2 SWAP1 PUSH2 0x2B02 JUMP JUMPDEST PUSH1 0x40 MLOAD DUP1 SWAP2 SUB SWAP1 REVERT JUMPDEST POP JUMPDEST PUSH1 0x40 MLOAD PUSH32 0x8C379A000000000000000000000000000000000000000000000000000000000 DUP2 MSTORE PUSH1 0x4 ADD PUSH2 0x2720 SWAP1 PUSH2 0x4861 JUMP JUMPDEST PUSH1 0x40 MLOAD DUP1 SWAP2 SUB SWAP1 REVERT JUMPDEST PUSH4 0xF23A6E61 PUSH1 0xE0 SHL PUSH28 0xFFFFFFFFFFFFFFFFFFFFFFFFFFFFFFFFFFFFFFFFFFFFFFFFFFFFFFFF NOT AND DUP2 PUSH28 0xFFFFFFFFFFFFFFFFFFFFFFFFFFFFFFFFFFFFFFFFFFFFFFFFFFFFFFFF NOT AND EQ PUSH2 0x27B0 JUMPI PUSH1 0x40 MLOAD PUSH32 0x8C379A000000000000000000000000000000000000000000000000000000000 DUP2 MSTORE PUSH1 0x4 ADD PUSH2 0x27A7 SWAP1 PUSH2 0x48F3 JUMP JUMPDEST PUSH1 0x40 MLOAD DUP1 SWAP2 SUB SWAP1 REVERT JUMPDEST POP JUMPDEST POP POP POP POP POP POP JUMP JUMPDEST PUSH1 0x0 PUSH32 0x1FFC9A700000000000000000000000000000000000000000000000000000000 PUSH28 0xFFFFFFFFFFFFFFFFFFFFFFFFFFFFFFFFFFFFFFFFFFFFFFFFFFFFFFFF NOT AND DUP3 PUSH28 0xFFFFFFFFFFFFFFFFFFFFFFFFFFFFFFFFFFFFFFFFFFFFFFFFFFFFFFFF NOT AND EQ SWAP1 POP SWAP2 SWAP1 POP JUMP JUMPDEST PUSH1 0x0 DUP1 DUP3 PUSH20 0xFFFFFFFFFFFFFFFFFFFFFFFFFFFFFFFFFFFFFFFF AND EXTCODESIZE GT SWAP1 POP SWAP2 SWAP1 POP JUMP JUMPDEST PUSH1 0x40 MLOAD DUP1 PUSH1 0xA0 ADD PUSH1 0x40 MSTORE DUP1 PUSH1 0x0 DUP2 MSTORE PUSH1 0x20 ADD PUSH1 0x60 DUP2 MSTORE PUSH1 0x20 ADD PUSH1 0x60 DUP2 MSTORE PUSH1 0x20 ADD PUSH1 0x60 DUP2 MSTORE PUSH1 0x20 ADD PUSH1 0x0 DUP2 MSTORE POP SWAP1 JUMP JUMPDEST PUSH1 0x40 MLOAD DUP1 PUSH1 0xA0 ADD PUSH1 0x40 MSTORE DUP1 PUSH1 0x0 DUP2 MSTORE PUSH1 0x20 ADD PUSH1 0x0 DUP2 MSTORE PUSH1 0x20 ADD PUSH1 0x0 DUP2 MSTORE PUSH1 0x20 ADD PUSH1 0x0 DUP2 MSTORE PUSH1 0x20 ADD PUSH1 0x0 DUP2 MSTORE POP SWAP1 JUMP JUMPDEST PUSH1 0x0 PUSH1 0x40 MLOAD SWAP1 POP SWAP1 JUMP JUMPDEST PUSH1 0x0 DUP1 REVERT JUMPDEST PUSH1 0x0 DUP1 REVERT JUMPDEST PUSH1 0x0 PUSH20 0xFFFFFFFFFFFFFFFFFFFFFFFFFFFFFFFFFFFFFFFF DUP3 AND SWAP1 POP SWAP2 SWAP1 POP JUMP JUMPDEST PUSH1 0x0 PUSH2 0x28E4 DUP3 PUSH2 0x28B9 JUMP JUMPDEST SWAP1 POP SWAP2 SWAP1 POP JUMP JUMPDEST PUSH2 0x28F4 DUP2 PUSH2 0x28D9 JUMP JUMPDEST DUP2 EQ PUSH2 0x28FF JUMPI PUSH1 0x0 DUP1 REVERT JUMPDEST POP JUMP JUMPDEST PUSH1 0x0 DUP2 CALLDATALOAD SWAP1 POP PUSH2 0x2911 DUP2 PUSH2 0x28EB JUMP JUMPDEST SWAP3 SWAP2 POP POP JUMP JUMPDEST PUSH1 0x0 DUP2 SWAP1 POP SWAP2 SWAP1 POP JUMP JUMPDEST PUSH2 0x292A DUP2 PUSH2 0x2917 JUMP JUMPDEST DUP2 EQ PUSH2 0x2935 JUMPI PUSH1 0x0 DUP1 REVERT JUMPDEST POP JUMP JUMPDEST PUSH1 0x0 DUP2 CALLDATALOAD SWAP1 POP PUSH2 0x2947 DUP2 PUSH2 0x2921 JUMP JUMPDEST SWAP3 SWAP2 POP POP JUMP JUMPDEST PUSH1 0x0 DUP1 PUSH1 0x40 DUP4 DUP6 SUB SLT ISZERO PUSH2 0x2964 JUMPI PUSH2 0x2963 PUSH2 0x28AF JUMP JUMPDEST JUMPDEST PUSH1 0x0 PUSH2 0x2972 DUP6 DUP3 DUP7 ADD PUSH2 0x2902 JUMP JUMPDEST SWAP3 POP POP PUSH1 0x20 PUSH2 0x2983 DUP6 DUP3 DUP7 ADD PUSH2 0x2938 JUMP JUMPDEST SWAP2 POP POP SWAP3 POP SWAP3 SWAP1 POP JUMP JUMPDEST PUSH2 0x2996 DUP2 PUSH2 0x2917 JUMP JUMPDEST DUP3 MSTORE POP POP JUMP JUMPDEST PUSH1 0x0 PUSH1 0x20 DUP3 ADD SWAP1 POP PUSH2 0x29B1 PUSH1 0x0 DUP4 ADD DUP5 PUSH2 0x298D JUMP JUMPDEST SWAP3 SWAP2 POP POP JUMP JUMPDEST PUSH1 0x0 PUSH32 0xFFFFFFFF00000000000000000000000000000000000000000000000000000000 DUP3 AND SWAP1 POP SWAP2 SWAP1 POP JUMP JUMPDEST PUSH2 0x29EC DUP2 PUSH2 0x29B7 JUMP JUMPDEST DUP2 EQ PUSH2 0x29F7 JUMPI PUSH1 0x0 DUP1 REVERT JUMPDEST POP JUMP JUMPDEST PUSH1 0x0 DUP2 CALLDATALOAD SWAP1 POP PUSH2 0x2A09 DUP2 PUSH2 0x29E3 JUMP JUMPDEST SWAP3 SWAP2 POP POP JUMP JUMPDEST PUSH1 0x0 PUSH1 0x20 DUP3 DUP5 SUB SLT ISZERO PUSH2 0x2A25 JUMPI PUSH2 0x2A24 PUSH2 0x28AF JUMP JUMPDEST JUMPDEST PUSH1 0x0 PUSH2 0x2A33 DUP5 DUP3 DUP6 ADD PUSH2 0x29FA JUMP JUMPDEST SWAP2 POP POP SWAP3 SWAP2 POP POP JUMP JUMPDEST PUSH1 0x0 DUP2 ISZERO ISZERO SWAP1 POP SWAP2 SWAP1 POP JUMP JUMPDEST PUSH2 0x2A51 DUP2 PUSH2 0x2A3C JUMP JUMPDEST DUP3 MSTORE POP POP JUMP JUMPDEST PUSH1 0x0 PUSH1 0x20 DUP3 ADD SWAP1 POP PUSH2 0x2A6C PUSH1 0x0 DUP4 ADD DUP5 PUSH2 0x2A48 JUMP JUMPDEST SWAP3 SWAP2 POP POP JUMP JUMPDEST PUSH1 0x0 DUP2 MLOAD SWAP1 POP SWAP2 SWAP1 POP JUMP JUMPDEST PUSH1 0x0 DUP3 DUP3 MSTORE PUSH1 0x20 DUP3 ADD SWAP1 POP SWAP3 SWAP2 POP POP JUMP JUMPDEST PUSH1 0x0 JUMPDEST DUP4 DUP2 LT ISZERO PUSH2 0x2AAC JUMPI DUP1 DUP3 ADD MLOAD DUP2 DUP5 ADD MSTORE PUSH1 0x20 DUP2 ADD SWAP1 POP PUSH2 0x2A91 JUMP JUMPDEST PUSH1 0x0 DUP5 DUP5 ADD MSTORE POP POP POP POP JUMP JUMPDEST PUSH1 0x0 PUSH1 0x1F NOT PUSH1 0x1F DUP4 ADD AND SWAP1 POP SWAP2 SWAP1 POP JUMP JUMPDEST PUSH1 0x0 PUSH2 0x2AD4 DUP3 PUSH2 0x2A72 JUMP JUMPDEST PUSH2 0x2ADE DUP2 DUP6 PUSH2 0x2A7D JUMP JUMPDEST SWAP4 POP PUSH2 0x2AEE DUP2 DUP6 PUSH1 0x20 DUP7 ADD PUSH2 0x2A8E JUMP JUMPDEST PUSH2 0x2AF7 DUP2 PUSH2 0x2AB8 JUMP JUMPDEST DUP5 ADD SWAP2 POP POP SWAP3 SWAP2 POP POP JUMP JUMPDEST PUSH1 0x0 PUSH1 0x20 DUP3 ADD SWAP1 POP DUP2 DUP2 SUB PUSH1 0x0 DUP4 ADD MSTORE PUSH2 0x2B1C DUP2 DUP5 PUSH2 0x2AC9 JUMP JUMPDEST SWAP1 POP SWAP3 SWAP2 POP POP JUMP JUMPDEST PUSH1 0x0 PUSH1 0x20 DUP3 DUP5 SUB SLT ISZERO PUSH2 0x2B3A JUMPI PUSH2 0x2B39 PUSH2 0x28AF JUMP JUMPDEST JUMPDEST PUSH1 0x0 PUSH2 0x2B48 DUP5 DUP3 DUP6 ADD PUSH2 0x2938 JUMP JUMPDEST SWAP2 POP POP SWAP3 SWAP2 POP POP JUMP JUMPDEST PUSH1 0x0 DUP1 PUSH1 0x40 DUP4 DUP6 SUB SLT ISZERO PUSH2 0x2B68 JUMPI PUSH2 0x2B67 PUSH2 0x28AF JUMP JUMPDEST JUMPDEST PUSH1 0x0 PUSH2 0x2B76 DUP6 DUP3 DUP7 ADD PUSH2 0x2938 JUMP JUMPDEST SWAP3 POP POP PUSH1 0x20 PUSH2 0x2B87 DUP6 DUP3 DUP7 ADD PUSH2 0x2938 JUMP JUMPDEST SWAP2 POP POP SWAP3 POP SWAP3 SWAP1 POP JUMP JUMPDEST PUSH1 0x0 DUP1 REVERT JUMPDEST PUSH32 0x4E487B7100000000000000000000000000000000000000000000000000000000 PUSH1 0x0 MSTORE PUSH1 0x41 PUSH1 0x4 MSTORE PUSH1 0x24 PUSH1 0x0 REVERT JUMPDEST PUSH2 0x2BCE DUP3 PUSH2 0x2AB8 JUMP JUMPDEST DUP2 ADD DUP2 DUP2 LT PUSH8 0xFFFFFFFFFFFFFFFF DUP3 GT OR ISZERO PUSH2 0x2BED JUMPI PUSH2 0x2BEC PUSH2 0x2B96 JUMP JUMPDEST JUMPDEST DUP1 PUSH1 0x40 MSTORE POP POP POP JUMP JUMPDEST PUSH1 0x0 PUSH2 0x2C00 PUSH2 0x28A5 JUMP JUMPDEST SWAP1 POP PUSH2 0x2C0C DUP3 DUP3 PUSH2 0x2BC5 JUMP JUMPDEST SWAP2 SWAP1 POP JUMP JUMPDEST PUSH1 0x0 PUSH8 0xFFFFFFFFFFFFFFFF DUP3 GT ISZERO PUSH2 0x2C2C JUMPI PUSH2 0x2C2B PUSH2 0x2B96 JUMP JUMPDEST JUMPDEST PUSH1 0x20 DUP3 MUL SWAP1 POP PUSH1 0x20 DUP2 ADD SWAP1 POP SWAP2 SWAP1 POP JUMP JUMPDEST PUSH1 0x0 DUP1 REVERT JUMPDEST PUSH1 0x0 PUSH2 0x2C55 PUSH2 0x2C50 DUP5 PUSH2 0x2C11 JUMP JUMPDEST PUSH2 0x2BF6 JUMP JUMPDEST SWAP1 POP DUP1 DUP4 DUP3 MSTORE PUSH1 0x20 DUP3 ADD SWAP1 POP PUSH1 0x20 DUP5 MUL DUP4 ADD DUP6 DUP2 GT ISZERO PUSH2 0x2C78 JUMPI PUSH2 0x2C77 PUSH2 0x2C3D JUMP JUMPDEST JUMPDEST DUP4 JUMPDEST DUP2 DUP2 LT ISZERO PUSH2 0x2CA1 JUMPI DUP1 PUSH2 0x2C8D DUP9 DUP3 PUSH2 0x2938 JUMP JUMPDEST DUP5 MSTORE PUSH1 0x20 DUP5 ADD SWAP4 POP POP PUSH1 0x20 DUP2 ADD SWAP1 POP PUSH2 0x2C7A JUMP JUMPDEST POP POP POP SWAP4 SWAP3 POP POP POP JUMP JUMPDEST PUSH1 0x0 DUP3 PUSH1 0x1F DUP4 ADD SLT PUSH2 0x2CC0 JUMPI PUSH2 0x2CBF PUSH2 0x2B91 JUMP JUMPDEST JUMPDEST DUP2 CALLDATALOAD PUSH2 0x2CD0 DUP5 DUP3 PUSH1 0x20 DUP7 ADD PUSH2 0x2C42 JUMP JUMPDEST SWAP2 POP POP SWAP3 SWAP2 POP POP JUMP JUMPDEST PUSH1 0x0 DUP1 REVERT JUMPDEST PUSH1 0x0 PUSH8 0xFFFFFFFFFFFFFFFF DUP3 GT ISZERO PUSH2 0x2CF9 JUMPI PUSH2 0x2CF8 PUSH2 0x2B96 JUMP JUMPDEST JUMPDEST PUSH2 0x2D02 DUP3 PUSH2 0x2AB8 JUMP JUMPDEST SWAP1 POP PUSH1 0x20 DUP2 ADD SWAP1 POP SWAP2 SWAP1 POP JUMP JUMPDEST DUP3 DUP2 DUP4 CALLDATACOPY PUSH1 0x0 DUP4 DUP4 ADD MSTORE POP POP POP JUMP JUMPDEST PUSH1 0x0 PUSH2 0x2D31 PUSH2 0x2D2C DUP5 PUSH2 0x2CDE JUMP JUMPDEST PUSH2 0x2BF6 JUMP JUMPDEST SWAP1 POP DUP3 DUP2 MSTORE PUSH1 0x20 DUP2 ADD DUP5 DUP5 DUP5 ADD GT ISZERO PUSH2 0x2D4D JUMPI PUSH2 0x2D4C PUSH2 0x2CD9 JUMP JUMPDEST JUMPDEST PUSH2 0x2D58 DUP5 DUP3 DUP6 PUSH2 0x2D0F JUMP JUMPDEST POP SWAP4 SWAP3 POP POP POP JUMP JUMPDEST PUSH1 0x0 DUP3 PUSH1 0x1F DUP4 ADD SLT PUSH2 0x2D75 JUMPI PUSH2 0x2D74 PUSH2 0x2B91 JUMP JUMPDEST JUMPDEST DUP2 CALLDATALOAD PUSH2 0x2D85 DUP5 DUP3 PUSH1 0x20 DUP7 ADD PUSH2 0x2D1E JUMP JUMPDEST SWAP2 POP POP SWAP3 SWAP2 POP POP JUMP JUMPDEST PUSH1 0x0 DUP1 PUSH1 0x0 DUP1 PUSH1 0x0 PUSH1 0xA0 DUP7 DUP9 SUB SLT ISZERO PUSH2 0x2DAA JUMPI PUSH2 0x2DA9 PUSH2 0x28AF JUMP JUMPDEST JUMPDEST PUSH1 0x0 PUSH2 0x2DB8 DUP9 DUP3 DUP10 ADD PUSH2 0x2902 JUMP JUMPDEST SWAP6 POP POP PUSH1 0x20 PUSH2 0x2DC9 DUP9 DUP3 DUP10 ADD PUSH2 0x2902 JUMP JUMPDEST SWAP5 POP POP PUSH1 0x40 DUP7 ADD CALLDATALOAD PUSH8 0xFFFFFFFFFFFFFFFF DUP2 GT ISZERO PUSH2 0x2DEA JUMPI PUSH2 0x2DE9 PUSH2 0x28B4 JUMP JUMPDEST JUMPDEST PUSH2 0x2DF6 DUP9 DUP3 DUP10 ADD PUSH2 0x2CAB JUMP JUMPDEST SWAP4 POP POP PUSH1 0x60 DUP7 ADD CALLDATALOAD PUSH8 0xFFFFFFFFFFFFFFFF DUP2 GT ISZERO PUSH2 0x2E17 JUMPI PUSH2 0x2E16 PUSH2 0x28B4 JUMP JUMPDEST JUMPDEST PUSH2 0x2E23 DUP9 DUP3 DUP10 ADD PUSH2 0x2CAB JUMP JUMPDEST SWAP3 POP POP PUSH1 0x80 DUP7 ADD CALLDATALOAD PUSH8 0xFFFFFFFFFFFFFFFF DUP2 GT ISZERO PUSH2 0x2E44 JUMPI PUSH2 0x2E43 PUSH2 0x28B4 JUMP JUMPDEST JUMPDEST PUSH2 0x2E50 DUP9 DUP3 DUP10 ADD PUSH2 0x2D60 JUMP JUMPDEST SWAP2 POP POP SWAP3 SWAP6 POP SWAP3 SWAP6 SWAP1 SWAP4 POP JUMP JUMPDEST PUSH1 0x0 PUSH8 0xFFFFFFFFFFFFFFFF DUP3 GT ISZERO PUSH2 0x2E78 JUMPI PUSH2 0x2E77 PUSH2 0x2B96 JUMP JUMPDEST JUMPDEST PUSH1 0x20 DUP3 MUL SWAP1 POP PUSH1 0x20 DUP2 ADD SWAP1 POP SWAP2 SWAP1 POP JUMP JUMPDEST PUSH1 0x0 PUSH2 0x2E9C PUSH2 0x2E97 DUP5 PUSH2 0x2E5D JUMP JUMPDEST PUSH2 0x2BF6 JUMP JUMPDEST SWAP1 POP DUP1 DUP4 DUP3 MSTORE PUSH1 0x20 DUP3 ADD SWAP1 POP PUSH1 0x20 DUP5 MUL DUP4 ADD DUP6 DUP2 GT ISZERO PUSH2 0x2EBF JUMPI PUSH2 0x2EBE PUSH2 0x2C3D JUMP JUMPDEST JUMPDEST DUP4 JUMPDEST DUP2 DUP2 LT ISZERO PUSH2 0x2EE8 JUMPI DUP1 PUSH2 0x2ED4 DUP9 DUP3 PUSH2 0x2902 JUMP JUMPDEST DUP5 MSTORE PUSH1 0x20 DUP5 ADD SWAP4 POP POP PUSH1 0x20 DUP2 ADD SWAP1 POP PUSH2 0x2EC1 JUMP JUMPDEST POP POP POP SWAP4 SWAP3 POP POP POP JUMP JUMPDEST PUSH1 0x0 DUP3 PUSH1 0x1F DUP4 ADD SLT PUSH2 0x2F07 JUMPI PUSH2 0x2F06 PUSH2 0x2B91 JUMP JUMPDEST JUMPDEST DUP2 CALLDATALOAD PUSH2 0x2F17 DUP5 DUP3 PUSH1 0x20 DUP7 ADD PUSH2 0x2E89 JUMP JUMPDEST SWAP2 POP POP SWAP3 SWAP2 POP POP JUMP JUMPDEST PUSH1 0x0 DUP1 PUSH1 0x40 DUP4 DUP6 SUB SLT ISZERO PUSH2 0x2F37 JUMPI PUSH2 0x2F36 PUSH2 0x28AF JUMP JUMPDEST JUMPDEST PUSH1 0x0 DUP4 ADD CALLDATALOAD PUSH8 0xFFFFFFFFFFFFFFFF DUP2 GT ISZERO PUSH2 0x2F55 JUMPI PUSH2 0x2F54 PUSH2 0x28B4 JUMP JUMPDEST JUMPDEST PUSH2 0x2F61 DUP6 DUP3 DUP7 ADD PUSH2 0x2EF2 JUMP JUMPDEST SWAP3 POP POP PUSH1 0x20 DUP4 ADD CALLDATALOAD PUSH8 0xFFFFFFFFFFFFFFFF DUP2 GT ISZERO PUSH2 0x2F82 JUMPI PUSH2 0x2F81 PUSH2 0x28B4 JUMP JUMPDEST JUMPDEST PUSH2 0x2F8E DUP6 DUP3 DUP7 ADD PUSH2 0x2CAB JUMP JUMPDEST SWAP2 POP POP SWAP3 POP SWAP3 SWAP1 POP JUMP JUMPDEST PUSH1 0x0 DUP2 MLOAD SWAP1 POP SWAP2 SWAP1 POP JUMP JUMPDEST PUSH1 0x0 DUP3 DUP3 MSTORE PUSH1 0x20 DUP3 ADD SWAP1 POP SWAP3 SWAP2 POP POP JUMP JUMPDEST PUSH1 0x0 DUP2 SWAP1 POP PUSH1 0x20 DUP3 ADD SWAP1 POP SWAP2 SWAP1 POP JUMP JUMPDEST PUSH2 0x2FCD DUP2 PUSH2 0x2917 JUMP JUMPDEST DUP3 MSTORE POP POP JUMP JUMPDEST PUSH1 0x0 PUSH2 0x2FDF DUP4 DUP4 PUSH2 0x2FC4 JUMP JUMPDEST PUSH1 0x20 DUP4 ADD SWAP1 POP SWAP3 SWAP2 POP POP JUMP JUMPDEST PUSH1 0x0 PUSH1 0x20 DUP3 ADD SWAP1 POP SWAP2 SWAP1 POP JUMP JUMPDEST PUSH1 0x0 PUSH2 0x3003 DUP3 PUSH2 0x2F98 JUMP JUMPDEST PUSH2 0x300D DUP2 DUP6 PUSH2 0x2FA3 JUMP JUMPDEST SWAP4 POP PUSH2 0x3018 DUP4 PUSH2 0x2FB4 JUMP JUMPDEST DUP1 PUSH1 0x0 JUMPDEST DUP4 DUP2 LT ISZERO PUSH2 0x3049 JUMPI DUP2 MLOAD PUSH2 0x3030 DUP9 DUP3 PUSH2 0x2FD3 JUMP JUMPDEST SWAP8 POP PUSH2 0x303B DUP4 PUSH2 0x2FEB JUMP JUMPDEST SWAP3 POP POP PUSH1 0x1 DUP2 ADD SWAP1 POP PUSH2 0x301C JUMP JUMPDEST POP DUP6 SWAP4 POP POP POP POP SWAP3 SWAP2 POP POP JUMP JUMPDEST PUSH1 0x0 PUSH1 0x20 DUP3 ADD SWAP1 POP DUP2 DUP2 SUB PUSH1 0x0 DUP4 ADD MSTORE PUSH2 0x3070 DUP2 DUP5 PUSH2 0x2FF8 JUMP JUMPDEST SWAP1 POP SWAP3 SWAP2 POP POP JUMP JUMPDEST PUSH2 0x3081 DUP2 PUSH2 0x28D9 JUMP JUMPDEST DUP3 MSTORE POP POP JUMP JUMPDEST PUSH1 0x0 PUSH1 0x20 DUP3 ADD SWAP1 POP PUSH2 0x309C PUSH1 0x0 DUP4 ADD DUP5 PUSH2 0x3078 JUMP JUMPDEST SWAP3 SWAP2 POP POP JUMP JUMPDEST PUSH1 0x0 DUP2 SWAP1 POP SWAP2 SWAP1 POP JUMP JUMPDEST PUSH1 0x0 PUSH2 0x30C7 PUSH2 0x30C2 PUSH2 0x30BD DUP5 PUSH2 0x28B9 JUMP JUMPDEST PUSH2 0x30A2 JUMP JUMPDEST PUSH2 0x28B9 JUMP JUMPDEST SWAP1 POP SWAP2 SWAP1 POP JUMP JUMPDEST PUSH1 0x0 PUSH2 0x30D9 DUP3 PUSH2 0x30AC JUMP JUMPDEST SWAP1 POP SWAP2 SWAP1 POP JUMP JUMPDEST PUSH1 0x0 PUSH2 0x30EB DUP3 PUSH2 0x30CE JUMP JUMPDEST SWAP1 POP SWAP2 SWAP1 POP JUMP JUMPDEST PUSH2 0x30FB DUP2 PUSH2 0x30E0 JUMP JUMPDEST DUP3 MSTORE POP POP JUMP JUMPDEST PUSH1 0x0 PUSH1 0x20 DUP3 ADD SWAP1 POP PUSH2 0x3116 PUSH1 0x0 DUP4 ADD DUP5 PUSH2 0x30F2 JUMP JUMPDEST SWAP3 SWAP2 POP POP JUMP JUMPDEST PUSH1 0x0 DUP3 DUP3 MSTORE PUSH1 0x20 DUP3 ADD SWAP1 POP SWAP3 SWAP2 POP POP JUMP JUMPDEST PUSH1 0x0 PUSH2 0x3138 DUP3 PUSH2 0x2A72 JUMP JUMPDEST PUSH2 0x3142 DUP2 DUP6 PUSH2 0x311C JUMP JUMPDEST SWAP4 POP PUSH2 0x3152 DUP2 DUP6 PUSH1 0x20 DUP7 ADD PUSH2 0x2A8E JUMP JUMPDEST PUSH2 0x315B DUP2 PUSH2 0x2AB8 JUMP JUMPDEST DUP5 ADD SWAP2 POP POP SWAP3 SWAP2 POP POP JUMP JUMPDEST PUSH1 0x0 PUSH1 0xA0 DUP4 ADD PUSH1 0x0 DUP4 ADD MLOAD PUSH2 0x317E PUSH1 0x0 DUP7 ADD DUP3 PUSH2 0x2FC4 JUMP JUMPDEST POP PUSH1 0x20 DUP4 ADD MLOAD DUP5 DUP3 SUB PUSH1 0x20 DUP7 ADD MSTORE PUSH2 0x3196 DUP3 DUP3 PUSH2 0x312D JUMP JUMPDEST SWAP2 POP POP PUSH1 0x40 DUP4 ADD MLOAD DUP5 DUP3 SUB PUSH1 0x40 DUP7 ADD MSTORE PUSH2 0x31B0 DUP3 DUP3 PUSH2 0x312D JUMP JUMPDEST SWAP2 POP POP PUSH1 0x60 DUP4 ADD MLOAD DUP5 DUP3 SUB PUSH1 0x60 DUP7 ADD MSTORE PUSH2 0x31CA DUP3 DUP3 PUSH2 0x312D JUMP JUMPDEST SWAP2 POP POP PUSH1 0x80 DUP4 ADD MLOAD PUSH2 0x31DF PUSH1 0x80 DUP7 ADD DUP3 PUSH2 0x2FC4 JUMP JUMPDEST POP DUP1 SWAP2 POP POP SWAP3 SWAP2 POP POP JUMP JUMPDEST PUSH1 0x0 PUSH1 0x20 DUP3 ADD SWAP1 POP DUP2 DUP2 SUB PUSH1 0x0 DUP4 ADD MSTORE PUSH2 0x3204 DUP2 DUP5 PUSH2 0x3166 JUMP JUMPDEST SWAP1 POP SWAP3 SWAP2 POP POP JUMP JUMPDEST PUSH1 0x0 PUSH8 0xFFFFFFFFFFFFFFFF DUP3 GT ISZERO PUSH2 0x3227 JUMPI PUSH2 0x3226 PUSH2 0x2B96 JUMP JUMPDEST JUMPDEST PUSH2 0x3230 DUP3 PUSH2 0x2AB8 JUMP JUMPDEST SWAP1 POP PUSH1 0x20 DUP2 ADD SWAP1 POP SWAP2 SWAP1 POP JUMP JUMPDEST PUSH1 0x0 PUSH2 0x3250 PUSH2 0x324B DUP5 PUSH2 0x320C JUMP JUMPDEST PUSH2 0x2BF6 JUMP JUMPDEST SWAP1 POP DUP3 DUP2 MSTORE PUSH1 0x20 DUP2 ADD DUP5 DUP5 DUP5 ADD GT ISZERO PUSH2 0x326C JUMPI PUSH2 0x326B PUSH2 0x2CD9 JUMP JUMPDEST JUMPDEST PUSH2 0x3277 DUP5 DUP3 DUP6 PUSH2 0x2D0F JUMP JUMPDEST POP SWAP4 SWAP3 POP POP POP JUMP JUMPDEST PUSH1 0x0 DUP3 PUSH1 0x1F DUP4 ADD SLT PUSH2 0x3294 JUMPI PUSH2 0x3293 PUSH2 0x2B91 JUMP JUMPDEST JUMPDEST DUP2 CALLDATALOAD PUSH2 0x32A4 DUP5 DUP3 PUSH1 0x20 DUP7 ADD PUSH2 0x323D JUMP JUMPDEST SWAP2 POP POP SWAP3 SWAP2 POP POP JUMP JUMPDEST PUSH1 0x0 DUP1 PUSH1 0x0 DUP1 PUSH1 0x80 DUP6 DUP8 SUB SLT ISZERO PUSH2 0x32C7 JUMPI PUSH2 0x32C6 PUSH2 0x28AF JUMP JUMPDEST JUMPDEST PUSH1 0x0 DUP6 ADD CALLDATALOAD PUSH8 0xFFFFFFFFFFFFFFFF DUP2 GT ISZERO PUSH2 0x32E5 JUMPI PUSH2 0x32E4 PUSH2 0x28B4 JUMP JUMPDEST JUMPDEST PUSH2 0x32F1 DUP8 DUP3 DUP9 ADD PUSH2 0x327F JUMP JUMPDEST SWAP5 POP POP PUSH1 0x20 DUP6 ADD CALLDATALOAD PUSH8 0xFFFFFFFFFFFFFFFF DUP2 GT ISZERO PUSH2 0x3312 JUMPI PUSH2 0x3311 PUSH2 0x28B4 JUMP JUMPDEST JUMPDEST PUSH2 0x331E DUP8 DUP3 DUP9 ADD PUSH2 0x327F JUMP JUMPDEST SWAP4 POP POP PUSH1 0x40 DUP6 ADD CALLDATALOAD PUSH8 0xFFFFFFFFFFFFFFFF DUP2 GT ISZERO PUSH2 0x333F JUMPI PUSH2 0x333E PUSH2 0x28B4 JUMP JUMPDEST JUMPDEST PUSH2 0x334B DUP8 DUP3 DUP9 ADD PUSH2 0x327F JUMP JUMPDEST SWAP3 POP POP PUSH1 0x60 PUSH2 0x335C DUP8 DUP3 DUP9 ADD PUSH2 0x2938 JUMP JUMPDEST SWAP2 POP POP SWAP3 SWAP6 SWAP2 SWAP5 POP SWAP3 POP JUMP JUMPDEST PUSH2 0x3371 DUP2 PUSH2 0x2A3C JUMP JUMPDEST DUP2 EQ PUSH2 0x337C JUMPI PUSH1 0x0 DUP1 REVERT JUMPDEST POP JUMP JUMPDEST PUSH1 0x0 DUP2 CALLDATALOAD SWAP1 POP PUSH2 0x338E DUP2 PUSH2 0x3368 JUMP JUMPDEST SWAP3 SWAP2 POP POP JUMP JUMPDEST PUSH1 0x0 DUP1 PUSH1 0x40 DUP4 DUP6 SUB SLT ISZERO PUSH2 0x33AB JUMPI PUSH2 0x33AA PUSH2 0x28AF JUMP JUMPDEST JUMPDEST PUSH1 0x0 PUSH2 0x33B9 DUP6 DUP3 DUP7 ADD PUSH2 0x2902 JUMP JUMPDEST SWAP3 POP POP PUSH1 0x20 PUSH2 0x33CA DUP6 DUP3 DUP7 ADD PUSH2 0x337F JUMP JUMPDEST SWAP2 POP POP SWAP3 POP SWAP3 SWAP1 POP JUMP JUMPDEST PUSH1 0x0 PUSH1 0x20 DUP3 DUP5 SUB SLT ISZERO PUSH2 0x33EA JUMPI PUSH2 0x33E9 PUSH2 0x28AF JUMP JUMPDEST JUMPDEST PUSH1 0x0 PUSH2 0x33F8 DUP5 DUP3 DUP6 ADD PUSH2 0x2902 JUMP JUMPDEST SWAP2 POP POP SWAP3 SWAP2 POP POP JUMP JUMPDEST PUSH1 0x0 DUP1 REVERT JUMPDEST PUSH1 0x0 DUP1 DUP4 PUSH1 0x1F DUP5 ADD SLT PUSH2 0x341C JUMPI PUSH2 0x341B PUSH2 0x2B91 JUMP JUMPDEST JUMPDEST DUP3 CALLDATALOAD SWAP1 POP PUSH8 0xFFFFFFFFFFFFFFFF DUP2 GT ISZERO PUSH2 0x3439 JUMPI PUSH2 0x3438 PUSH2 0x3401 JUMP JUMPDEST JUMPDEST PUSH1 0x20 DUP4 ADD SWAP2 POP DUP4 PUSH1 0x20 DUP3 MUL DUP4 ADD GT ISZERO PUSH2 0x3455 JUMPI PUSH2 0x3454 PUSH2 0x2C3D JUMP JUMPDEST JUMPDEST SWAP3 POP SWAP3 SWAP1 POP JUMP JUMPDEST PUSH1 0x0 DUP1 DUP4 PUSH1 0x1F DUP5 ADD SLT PUSH2 0x3472 JUMPI PUSH2 0x3471 PUSH2 0x2B91 JUMP JUMPDEST JUMPDEST DUP3 CALLDATALOAD SWAP1 POP PUSH8 0xFFFFFFFFFFFFFFFF DUP2 GT ISZERO PUSH2 0x348F JUMPI PUSH2 0x348E PUSH2 0x3401 JUMP JUMPDEST JUMPDEST PUSH1 0x20 DUP4 ADD SWAP2 POP DUP4 PUSH1 0x1 DUP3 MUL DUP4 ADD GT ISZERO PUSH2 0x34AB JUMPI PUSH2 0x34AA PUSH2 0x2C3D JUMP JUMPDEST JUMPDEST SWAP3 POP SWAP3 SWAP1 POP JUMP JUMPDEST PUSH1 0x0 DUP1 PUSH1 0x0 DUP1 PUSH1 0x0 DUP1 PUSH1 0x0 DUP1 PUSH1 0xA0 DUP10 DUP12 SUB SLT ISZERO PUSH2 0x34D2 JUMPI PUSH2 0x34D1 PUSH2 0x28AF JUMP JUMPDEST JUMPDEST PUSH1 0x0 PUSH2 0x34E0 DUP12 DUP3 DUP13 ADD PUSH2 0x2902 JUMP JUMPDEST SWAP9 POP POP PUSH1 0x20 PUSH2 0x34F1 DUP12 DUP3 DUP13 ADD PUSH2 0x2902 JUMP JUMPDEST SWAP8 POP POP PUSH1 0x40 DUP10 ADD CALLDATALOAD PUSH8 0xFFFFFFFFFFFFFFFF DUP2 GT ISZERO PUSH2 0x3512 JUMPI PUSH2 0x3511 PUSH2 0x28B4 JUMP JUMPDEST JUMPDEST PUSH2 0x351E DUP12 DUP3 DUP13 ADD PUSH2 0x3406 JUMP JUMPDEST SWAP7 POP SWAP7 POP POP PUSH1 0x60 DUP10 ADD CALLDATALOAD PUSH8 0xFFFFFFFFFFFFFFFF DUP2 GT ISZERO PUSH2 0x3541 JUMPI PUSH2 0x3540 PUSH2 0x28B4 JUMP JUMPDEST JUMPDEST PUSH2 0x354D DUP12 DUP3 DUP13 ADD PUSH2 0x3406 JUMP JUMPDEST SWAP5 POP SWAP5 POP POP PUSH1 0x80 DUP10 ADD CALLDATALOAD PUSH8 0xFFFFFFFFFFFFFFFF DUP2 GT ISZERO PUSH2 0x3570 JUMPI PUSH2 0x356F PUSH2 0x28B4 JUMP JUMPDEST JUMPDEST PUSH2 0x357C DUP12 DUP3 DUP13 ADD PUSH2 0x345C JUMP JUMPDEST SWAP3 POP SWAP3 POP POP SWAP3 SWAP6 SWAP9 POP SWAP3 SWAP6 SWAP9 SWAP1 SWAP4 SWAP7 POP JUMP JUMPDEST PUSH2 0x3597 DUP2 PUSH2 0x29B7 JUMP JUMPDEST DUP3 MSTORE POP POP JUMP JUMPDEST PUSH1 0x0 PUSH1 0x20 DUP3 ADD SWAP1 POP PUSH2 0x35B2 PUSH1 0x0 DUP4 ADD DUP5 PUSH2 0x358E JUMP JUMPDEST SWAP3 SWAP2 POP POP JUMP JUMPDEST PUSH1 0x0 DUP1 PUSH1 0x40 DUP4 DUP6 SUB SLT ISZERO PUSH2 0x35CF JUMPI PUSH2 0x35CE PUSH2 0x28AF JUMP JUMPDEST JUMPDEST PUSH1 0x0 PUSH2 0x35DD DUP6 DUP3 DUP7 ADD PUSH2 0x2902 JUMP JUMPDEST SWAP3 POP POP PUSH1 0x20 PUSH2 0x35EE DUP6 DUP3 DUP7 ADD PUSH2 0x2902 JUMP JUMPDEST SWAP2 POP POP SWAP3 POP SWAP3 SWAP1 POP JUMP JUMPDEST PUSH1 0x0 DUP1 PUSH1 0x0 DUP1 PUSH1 0x0 DUP1 PUSH1 0xA0 DUP8 DUP10 SUB SLT ISZERO PUSH2 0x3615 JUMPI PUSH2 0x3614 PUSH2 0x28AF JUMP JUMPDEST JUMPDEST PUSH1 0x0 PUSH2 0x3623 DUP10 DUP3 DUP11 ADD PUSH2 0x2902 JUMP JUMPDEST SWAP7 POP POP PUSH1 0x20 PUSH2 0x3634 DUP10 DUP3 DUP11 ADD PUSH2 0x2902 JUMP JUMPDEST SWAP6 POP POP PUSH1 0x40 PUSH2 0x3645 DUP10 DUP3 DUP11 ADD PUSH2 0x2938 JUMP JUMPDEST SWAP5 POP POP PUSH1 0x60 PUSH2 0x3656 DUP10 DUP3 DUP11 ADD PUSH2 0x2938 JUMP JUMPDEST SWAP4 POP POP PUSH1 0x80 DUP8 ADD CALLDATALOAD PUSH8 0xFFFFFFFFFFFFFFFF DUP2 GT ISZERO PUSH2 0x3677 JUMPI PUSH2 0x3676 PUSH2 0x28B4 JUMP JUMPDEST JUMPDEST PUSH2 0x3683 DUP10 DUP3 DUP11 ADD PUSH2 0x345C JUMP JUMPDEST SWAP3 POP SWAP3 POP POP SWAP3 SWAP6 POP SWAP3 SWAP6 POP SWAP3 SWAP6 JUMP JUMPDEST PUSH1 0x0 DUP1 PUSH1 0x0 DUP1 PUSH1 0x0 PUSH1 0xA0 DUP7 DUP9 SUB SLT ISZERO PUSH2 0x36AE JUMPI PUSH2 0x36AD PUSH2 0x28AF JUMP JUMPDEST JUMPDEST PUSH1 0x0 PUSH2 0x36BC DUP9 DUP3 DUP10 ADD PUSH2 0x2902 JUMP JUMPDEST SWAP6 POP POP PUSH1 0x20 PUSH2 0x36CD DUP9 DUP3 DUP10 ADD PUSH2 0x2902 JUMP JUMPDEST SWAP5 POP POP PUSH1 0x40 PUSH2 0x36DE DUP9 DUP3 DUP10 ADD PUSH2 0x2938 JUMP JUMPDEST SWAP4 POP POP PUSH1 0x60 PUSH2 0x36EF DUP9 DUP3 DUP10 ADD PUSH2 0x2938 JUMP JUMPDEST SWAP3 POP POP PUSH1 0x80 DUP7 ADD CALLDATALOAD PUSH8 0xFFFFFFFFFFFFFFFF DUP2 GT ISZERO PUSH2 0x3710 JUMPI PUSH2 0x370F PUSH2 0x28B4 JUMP JUMPDEST JUMPDEST PUSH2 0x371C DUP9 DUP3 DUP10 ADD PUSH2 0x2D60 JUMP JUMPDEST SWAP2 POP POP SWAP3 SWAP6 POP SWAP3 SWAP6 SWAP1 SWAP4 POP JUMP JUMPDEST PUSH1 0x0 DUP1 PUSH1 0x0 DUP1 PUSH1 0x0 PUSH1 0xA0 DUP7 DUP9 SUB SLT ISZERO PUSH2 0x3745 JUMPI PUSH2 0x3744 PUSH2 0x28AF JUMP JUMPDEST JUMPDEST PUSH1 0x0 DUP7 ADD CALLDATALOAD PUSH8 0xFFFFFFFFFFFFFFFF DUP2 GT ISZERO PUSH2 0x3763 JUMPI PUSH2 0x3762 PUSH2 0x28B4 JUMP JUMPDEST JUMPDEST PUSH2 0x376F DUP9 DUP3 DUP10 ADD PUSH2 0x327F JUMP JUMPDEST SWAP6 POP POP PUSH1 0x20 DUP7 ADD CALLDATALOAD PUSH8 0xFFFFFFFFFFFFFFFF DUP2 GT ISZERO PUSH2 0x3790 JUMPI PUSH2 0x378F PUSH2 0x28B4 JUMP JUMPDEST JUMPDEST PUSH2 0x379C DUP9 DUP3 DUP10 ADD PUSH2 0x327F JUMP JUMPDEST SWAP5 POP POP PUSH1 0x40 DUP7 ADD CALLDATALOAD PUSH8 0xFFFFFFFFFFFFFFFF DUP2 GT ISZERO PUSH2 0x37BD JUMPI PUSH2 0x37BC PUSH2 0x28B4 JUMP JUMPDEST JUMPDEST PUSH2 0x37C9 DUP9 DUP3 DUP10 ADD PUSH2 0x327F JUMP JUMPDEST SWAP4 POP POP PUSH1 0x60 PUSH2 0x37DA DUP9 DUP3 DUP10 ADD PUSH2 0x2938 JUMP JUMPDEST SWAP3 POP POP PUSH1 0x80 PUSH2 0x37EB DUP9 DUP3 DUP10 ADD PUSH2 0x2938 JUMP JUMPDEST SWAP2 POP POP SWAP3 SWAP6 POP SWAP3 SWAP6 SWAP1 SWAP4 POP JUMP JUMPDEST PUSH1 0xA0 DUP3 ADD PUSH1 0x0 DUP3 ADD MLOAD PUSH2 0x380E PUSH1 0x0 DUP6 ADD DUP3 PUSH2 0x2FC4 JUMP JUMPDEST POP PUSH1 0x20 DUP3 ADD MLOAD PUSH2 0x3821 PUSH1 0x20 DUP6 ADD DUP3 PUSH2 0x2FC4 JUMP JUMPDEST POP PUSH1 0x40 DUP3 ADD MLOAD PUSH2 0x3834 PUSH1 0x40 DUP6 ADD DUP3 PUSH2 0x2FC4 JUMP JUMPDEST POP PUSH1 0x60 DUP3 ADD MLOAD PUSH2 0x3847 PUSH1 0x60 DUP6 ADD DUP3 PUSH2 0x2FC4 JUMP JUMPDEST POP PUSH1 0x80 DUP3 ADD MLOAD PUSH2 0x385A PUSH1 0x80 DUP6 ADD DUP3 PUSH2 0x2FC4 JUMP JUMPDEST POP POP POP POP JUMP JUMPDEST PUSH1 0x0 PUSH1 0xA0 DUP3 ADD SWAP1 POP PUSH2 0x3875 PUSH1 0x0 DUP4 ADD DUP5 PUSH2 0x37F8 JUMP JUMPDEST SWAP3 SWAP2 POP POP JUMP JUMPDEST PUSH32 0x455243313135353A2061646472657373207A65726F206973206E6F7420612076 PUSH1 0x0 DUP3 ADD MSTORE PUSH32 0x616C6964206F776E657200000000000000000000000000000000000000000000 PUSH1 0x20 DUP3 ADD MSTORE POP JUMP JUMPDEST PUSH1 0x0 PUSH2 0x38D7 PUSH1 0x2A DUP4 PUSH2 0x2A7D JUMP JUMPDEST SWAP2 POP PUSH2 0x38E2 DUP3 PUSH2 0x387B JUMP JUMPDEST PUSH1 0x40 DUP3 ADD SWAP1 POP SWAP2 SWAP1 POP JUMP JUMPDEST PUSH1 0x0 PUSH1 0x20 DUP3 ADD SWAP1 POP DUP2 DUP2 SUB PUSH1 0x0 DUP4 ADD MSTORE PUSH2 0x3906 DUP2 PUSH2 0x38CA JUMP JUMPDEST SWAP1 POP SWAP2 SWAP1 POP JUMP JUMPDEST PUSH32 0x4E487B7100000000000000000000000000000000000000000000000000000000 PUSH1 0x0 MSTORE PUSH1 0x22 PUSH1 0x4 MSTORE PUSH1 0x24 PUSH1 0x0 REVERT JUMPDEST PUSH1 0x0 PUSH1 0x2 DUP3 DIV SWAP1 POP PUSH1 0x1 DUP3 AND DUP1 PUSH2 0x3954 JUMPI PUSH1 0x7F DUP3 AND SWAP2 POP JUMPDEST PUSH1 0x20 DUP3 LT DUP2 SUB PUSH2 0x3967 JUMPI PUSH2 0x3966 PUSH2 0x390D JUMP JUMPDEST JUMPDEST POP SWAP2 SWAP1 POP JUMP JUMPDEST PUSH1 0x0 DUP2 MLOAD SWAP1 POP PUSH2 0x397C DUP2 PUSH2 0x28EB JUMP JUMPDEST SWAP3 SWAP2 POP POP JUMP JUMPDEST PUSH1 0x0 PUSH1 0x20 DUP3 DUP5 SUB SLT ISZERO PUSH2 0x3998 JUMPI PUSH2 0x3997 PUSH2 0x28AF JUMP JUMPDEST JUMPDEST PUSH1 0x0 PUSH2 0x39A6 DUP5 DUP3 DUP6 ADD PUSH2 0x396D JUMP JUMPDEST SWAP2 POP POP SWAP3 SWAP2 POP POP JUMP JUMPDEST PUSH32 0x596F7520646F206E6F74206F776E2074686973207469636B6574000000000000 PUSH1 0x0 DUP3 ADD MSTORE POP JUMP JUMPDEST PUSH1 0x0 PUSH2 0x39E5 PUSH1 0x1A DUP4 PUSH2 0x2A7D JUMP JUMPDEST SWAP2 POP PUSH2 0x39F0 DUP3 PUSH2 0x39AF JUMP JUMPDEST PUSH1 0x20 DUP3 ADD SWAP1 POP SWAP2 SWAP1 POP JUMP JUMPDEST PUSH1 0x0 PUSH1 0x20 DUP3 ADD SWAP1 POP DUP2 DUP2 SUB PUSH1 0x0 DUP4 ADD MSTORE PUSH2 0x3A14 DUP2 PUSH2 0x39D8 JUMP JUMPDEST SWAP1 POP SWAP2 SWAP1 POP JUMP JUMPDEST PUSH1 0x0 PUSH1 0x60 DUP3 ADD SWAP1 POP PUSH2 0x3A30 PUSH1 0x0 DUP4 ADD DUP7 PUSH2 0x298D JUMP JUMPDEST PUSH2 0x3A3D PUSH1 0x20 DUP4 ADD DUP6 PUSH2 0x298D JUMP JUMPDEST PUSH2 0x3A4A PUSH1 0x40 DUP4 ADD DUP5 PUSH2 0x3078 JUMP JUMPDEST SWAP5 SWAP4 POP POP POP POP JUMP JUMPDEST PUSH32 0x455243313135353A2063616C6C6572206973206E6F7420746F6B656E206F776E PUSH1 0x0 DUP3 ADD MSTORE PUSH32 0x6572206F7220617070726F766564000000000000000000000000000000000000 PUSH1 0x20 DUP3 ADD MSTORE POP JUMP JUMPDEST PUSH1 0x0 PUSH2 0x3AAE PUSH1 0x2E DUP4 PUSH2 0x2A7D JUMP JUMPDEST SWAP2 POP PUSH2 0x3AB9 DUP3 PUSH2 0x3A52 JUMP JUMPDEST PUSH1 0x40 DUP3 ADD SWAP1 POP SWAP2 SWAP1 POP JUMP JUMPDEST PUSH1 0x0 PUSH1 0x20 DUP3 ADD SWAP1 POP DUP2 DUP2 SUB PUSH1 0x0 DUP4 ADD MSTORE PUSH2 0x3ADD DUP2 PUSH2 0x3AA1 JUMP JUMPDEST SWAP1 POP SWAP2 SWAP1 POP JUMP JUMPDEST PUSH32 0x455243313135353A206163636F756E747320616E6420696473206C656E677468 PUSH1 0x0 DUP3 ADD MSTORE PUSH32 0x206D69736D617463680000000000000000000000000000000000000000000000 PUSH1 0x20 DUP3 ADD MSTORE POP JUMP JUMPDEST PUSH1 0x0 PUSH2 0x3B40 PUSH1 0x29 DUP4 PUSH2 0x2A7D JUMP JUMPDEST SWAP2 POP PUSH2 0x3B4B DUP3 PUSH2 0x3AE4 JUMP JUMPDEST PUSH1 0x40 DUP3 ADD SWAP1 POP SWAP2 SWAP1 POP JUMP JUMPDEST PUSH1 0x0 PUSH1 0x20 DUP3 ADD SWAP1 POP DUP2 DUP2 SUB PUSH1 0x0 DUP4 ADD MSTORE PUSH2 0x3B6F DUP2 PUSH2 0x3B33 JUMP JUMPDEST SWAP1 POP SWAP2 SWAP1 POP JUMP JUMPDEST PUSH32 0x4E487B7100000000000000000000000000000000000000000000000000000000 PUSH1 0x0 MSTORE PUSH1 0x32 PUSH1 0x4 MSTORE PUSH1 0x24 PUSH1 0x0 REVERT JUMPDEST PUSH32 0x4E487B7100000000000000000000000000000000000000000000000000000000 PUSH1 0x0 MSTORE PUSH1 0x11 PUSH1 0x4 MSTORE PUSH1 0x24 PUSH1 0x0 REVERT JUMPDEST PUSH1 0x0 PUSH2 0x3BDF DUP3 PUSH2 0x2917 JUMP JUMPDEST SWAP2 POP PUSH32 0xFFFFFFFFFFFFFFFFFFFFFFFFFFFFFFFFFFFFFFFFFFFFFFFFFFFFFFFFFFFFFFFF DUP3 SUB PUSH2 0x3C11 JUMPI PUSH2 0x3C10 PUSH2 0x3BA5 JUMP JUMPDEST JUMPDEST PUSH1 0x1 DUP3 ADD SWAP1 POP SWAP2 SWAP1 POP JUMP JUMPDEST PUSH1 0x0 DUP2 MLOAD SWAP1 POP PUSH2 0x3C2B DUP2 PUSH2 0x2921 JUMP JUMPDEST SWAP3 SWAP2 POP POP JUMP JUMPDEST PUSH1 0x0 PUSH1 0x20 DUP3 DUP5 SUB SLT ISZERO PUSH2 0x3C47 JUMPI PUSH2 0x3C46 PUSH2 0x28AF JUMP JUMPDEST JUMPDEST PUSH1 0x0 PUSH2 0x3C55 DUP5 DUP3 DUP6 ADD PUSH2 0x3C1C JUMP JUMPDEST SWAP2 POP POP SWAP3 SWAP2 POP POP JUMP JUMPDEST PUSH32 0x5469636B657420646F6573206E6F742065786973740000000000000000000000 PUSH1 0x0 DUP3 ADD MSTORE POP JUMP JUMPDEST PUSH1 0x0 PUSH2 0x3C94 PUSH1 0x15 DUP4 PUSH2 0x2A7D JUMP JUMPDEST SWAP2 POP PUSH2 0x3C9F DUP3 PUSH2 0x3C5E JUMP JUMPDEST PUSH1 0x20 DUP3 ADD SWAP1 POP SWAP2 SWAP1 POP JUMP JUMPDEST PUSH1 0x0 PUSH1 0x20 DUP3 ADD SWAP1 POP DUP2 DUP2 SUB PUSH1 0x0 DUP4 ADD MSTORE PUSH2 0x3CC3 DUP2 PUSH2 0x3C87 JUMP JUMPDEST SWAP1 POP SWAP2 SWAP1 POP JUMP JUMPDEST PUSH32 0x4E6F7420656E6F7567682065746865722073656E740000000000000000000000 PUSH1 0x0 DUP3 ADD MSTORE POP JUMP JUMPDEST PUSH1 0x0 PUSH2 0x3D00 PUSH1 0x15 DUP4 PUSH2 0x2A7D JUMP JUMPDEST SWAP2 POP PUSH2 0x3D0B DUP3 PUSH2 0x3CCA JUMP JUMPDEST PUSH1 0x20 DUP3 ADD SWAP1 POP SWAP2 SWAP1 POP JUMP JUMPDEST PUSH1 0x0 PUSH1 0x20 DUP3 ADD SWAP1 POP DUP2 DUP2 SUB PUSH1 0x0 DUP4 ADD MSTORE PUSH2 0x3D2F DUP2 PUSH2 0x3CF3 JUMP JUMPDEST SWAP1 POP SWAP2 SWAP1 POP JUMP JUMPDEST PUSH32 0x4E6F7420617070726F76656420746F207472616E736665722074686973207469 PUSH1 0x0 DUP3 ADD MSTORE PUSH32 0x636B657400000000000000000000000000000000000000000000000000000000 PUSH1 0x20 DUP3 ADD MSTORE POP JUMP JUMPDEST PUSH1 0x0 PUSH2 0x3D92 PUSH1 0x24 DUP4 PUSH2 0x2A7D JUMP JUMPDEST SWAP2 POP PUSH2 0x3D9D DUP3 PUSH2 0x3D36 JUMP JUMPDEST PUSH1 0x40 DUP3 ADD SWAP1 POP SWAP2 SWAP1 POP JUMP JUMPDEST PUSH1 0x0 PUSH1 0x20 DUP3 ADD SWAP1 POP DUP2 DUP2 SUB PUSH1 0x0 DUP4 ADD MSTORE PUSH2 0x3DC1 DUP2 PUSH2 0x3D85 JUMP JUMPDEST SWAP1 POP SWAP2 SWAP1 POP JUMP JUMPDEST PUSH1 0x0 PUSH1 0x60 DUP3 ADD SWAP1 POP PUSH2 0x3DDD PUSH1 0x0 DUP4 ADD DUP7 PUSH2 0x3078 JUMP JUMPDEST PUSH2 0x3DEA PUSH1 0x20 DUP4 ADD DUP6 PUSH2 0x3078 JUMP JUMPDEST PUSH2 0x3DF7 PUSH1 0x40 DUP4 ADD DUP5 PUSH2 0x298D JUMP JUMPDEST SWAP5 SWAP4 POP POP POP POP JUMP JUMPDEST PUSH32 0x4D7573696320646F6573206E6F74206578697374000000000000000000000000 PUSH1 0x0 DUP3 ADD MSTORE POP JUMP JUMPDEST PUSH1 0x0 PUSH2 0x3E35 PUSH1 0x14 DUP4 PUSH2 0x2A7D JUMP JUMPDEST SWAP2 POP PUSH2 0x3E40 DUP3 PUSH2 0x3DFF JUMP JUMPDEST PUSH1 0x20 DUP3 ADD SWAP1 POP SWAP2 SWAP1 POP JUMP JUMPDEST PUSH1 0x0 PUSH1 0x20 DUP3 ADD SWAP1 POP DUP2 DUP2 SUB PUSH1 0x0 DUP4 ADD MSTORE PUSH2 0x3E64 DUP2 PUSH2 0x3E28 JUMP JUMPDEST SWAP1 POP SWAP2 SWAP1 POP JUMP JUMPDEST PUSH32 0x4F6E6C7920746865206D75736963206F776E65722063616E206D696E74207469 PUSH1 0x0 DUP3 ADD MSTORE PUSH32 0x636B657473000000000000000000000000000000000000000000000000000000 PUSH1 0x20 DUP3 ADD MSTORE POP JUMP JUMPDEST PUSH1 0x0 PUSH2 0x3EC7 PUSH1 0x25 DUP4 PUSH2 0x2A7D JUMP JUMPDEST SWAP2 POP PUSH2 0x3ED2 DUP3 PUSH2 0x3E6B JUMP JUMPDEST PUSH1 0x40 DUP3 ADD SWAP1 POP SWAP2 SWAP1 POP JUMP JUMPDEST PUSH1 0x0 PUSH1 0x20 DUP3 ADD SWAP1 POP DUP2 DUP2 SUB PUSH1 0x0 DUP4 ADD MSTORE PUSH2 0x3EF6 DUP2 PUSH2 0x3EBA JUMP JUMPDEST SWAP1 POP SWAP2 SWAP1 POP JUMP JUMPDEST PUSH1 0x0 PUSH1 0x60 DUP3 ADD SWAP1 POP PUSH2 0x3F12 PUSH1 0x0 DUP4 ADD DUP7 PUSH2 0x3078 JUMP JUMPDEST PUSH2 0x3F1F PUSH1 0x20 DUP4 ADD DUP6 PUSH2 0x298D JUMP JUMPDEST PUSH2 0x3F2C PUSH1 0x40 DUP4 ADD DUP5 PUSH2 0x298D JUMP JUMPDEST SWAP5 SWAP4 POP POP POP POP JUMP JUMPDEST PUSH1 0x0 DUP2 SWAP1 POP DUP2 PUSH1 0x0 MSTORE PUSH1 0x20 PUSH1 0x0 KECCAK256 SWAP1 POP SWAP2 SWAP1 POP JUMP JUMPDEST PUSH1 0x0 PUSH1 0x20 PUSH1 0x1F DUP4 ADD DIV SWAP1 POP SWAP2 SWAP1 POP JUMP JUMPDEST PUSH1 0x0 DUP3 DUP3 SHL SWAP1 POP SWAP3 SWAP2 POP POP JUMP JUMPDEST PUSH1 0x0 PUSH1 0x8 DUP4 MUL PUSH2 0x3F96 PUSH32 0xFFFFFFFFFFFFFFFFFFFFFFFFFFFFFFFFFFFFFFFFFFFFFFFFFFFFFFFFFFFFFFFF DUP3 PUSH2 0x3F59 JUMP JUMPDEST PUSH2 0x3FA0 DUP7 DUP4 PUSH2 0x3F59 JUMP JUMPDEST SWAP6 POP DUP1 NOT DUP5 AND SWAP4 POP DUP1 DUP7 AND DUP5 OR SWAP3 POP POP POP SWAP4 SWAP3 POP POP POP JUMP JUMPDEST PUSH1 0x0 PUSH2 0x3FD3 PUSH2 0x3FCE PUSH2 0x3FC9 DUP5 PUSH2 0x2917 JUMP JUMPDEST PUSH2 0x30A2 JUMP JUMPDEST PUSH2 0x2917 JUMP JUMPDEST SWAP1 POP SWAP2 SWAP1 POP JUMP JUMPDEST PUSH1 0x0 DUP2 SWAP1 POP SWAP2 SWAP1 POP JUMP JUMPDEST PUSH2 0x3FED DUP4 PUSH2 0x3FB8 JUMP JUMPDEST PUSH2 0x4001 PUSH2 0x3FF9 DUP3 PUSH2 0x3FDA JUMP JUMPDEST DUP5 DUP5 SLOAD PUSH2 0x3F66 JUMP JUMPDEST DUP3 SSTORE POP POP POP POP JUMP JUMPDEST PUSH1 0x0 SWAP1 JUMP JUMPDEST PUSH2 0x4016 PUSH2 0x4009 JUMP JUMPDEST PUSH2 0x4021 DUP2 DUP5 DUP5 PUSH2 0x3FE4 JUMP JUMPDEST POP POP POP JUMP JUMPDEST JUMPDEST DUP2 DUP2 LT ISZERO PUSH2 0x4045 JUMPI PUSH2 0x403A PUSH1 0x0 DUP3 PUSH2 0x400E JUMP JUMPDEST PUSH1 0x1 DUP2 ADD SWAP1 POP PUSH2 0x4027 JUMP JUMPDEST POP POP JUMP JUMPDEST PUSH1 0x1F DUP3 GT ISZERO PUSH2 0x408A JUMPI PUSH2 0x405B DUP2 PUSH2 0x3F34 JUMP JUMPDEST PUSH2 0x4064 DUP5 PUSH2 0x3F49 JUMP JUMPDEST DUP2 ADD PUSH1 0x20 DUP6 LT ISZERO PUSH2 0x4073 JUMPI DUP2 SWAP1 POP JUMPDEST PUSH2 0x4087 PUSH2 0x407F DUP6 PUSH2 0x3F49 JUMP JUMPDEST DUP4 ADD DUP3 PUSH2 0x4026 JUMP JUMPDEST POP POP JUMPDEST POP POP POP JUMP JUMPDEST PUSH1 0x0 DUP3 DUP3 SHR SWAP1 POP SWAP3 SWAP2 POP POP JUMP JUMPDEST PUSH1 0x0 PUSH2 0x40AD PUSH1 0x0 NOT DUP5 PUSH1 0x8 MUL PUSH2 0x408F JUMP JUMPDEST NOT DUP1 DUP4 AND SWAP2 POP POP SWAP3 SWAP2 POP POP JUMP JUMPDEST PUSH1 0x0 PUSH2 0x40C6 DUP4 DUP4 PUSH2 0x409C JUMP JUMPDEST SWAP2 POP DUP3 PUSH1 0x2 MUL DUP3 OR SWAP1 POP SWAP3 SWAP2 POP POP JUMP JUMPDEST PUSH2 0x40DF DUP3 PUSH2 0x2A72 JUMP JUMPDEST PUSH8 0xFFFFFFFFFFFFFFFF DUP2 GT ISZERO PUSH2 0x40F8 JUMPI PUSH2 0x40F7 PUSH2 0x2B96 JUMP JUMPDEST JUMPDEST PUSH2 0x4102 DUP3 SLOAD PUSH2 0x393C JUMP JUMPDEST PUSH2 0x410D DUP3 DUP3 DUP6 PUSH2 0x4049 JUMP JUMPDEST PUSH1 0x0 PUSH1 0x20 SWAP1 POP PUSH1 0x1F DUP4 GT PUSH1 0x1 DUP2 EQ PUSH2 0x4140 JUMPI PUSH1 0x0 DUP5 ISZERO PUSH2 0x412E JUMPI DUP3 DUP8 ADD MLOAD SWAP1 POP JUMPDEST PUSH2 0x4138 DUP6 DUP3 PUSH2 0x40BA JUMP JUMPDEST DUP7 SSTORE POP PUSH2 0x41A0 JUMP JUMPDEST PUSH1 0x1F NOT DUP5 AND PUSH2 0x414E DUP7 PUSH2 0x3F34 JUMP JUMPDEST PUSH1 0x0 JUMPDEST DUP3 DUP2 LT ISZERO PUSH2 0x4176 JUMPI DUP5 DUP10 ADD MLOAD DUP3 SSTORE PUSH1 0x1 DUP3 ADD SWAP2 POP PUSH1 0x20 DUP6 ADD SWAP5 POP PUSH1 0x20 DUP2 ADD SWAP1 POP PUSH2 0x4151 JUMP JUMPDEST DUP7 DUP4 LT ISZERO PUSH2 0x4193 JUMPI DUP5 DUP10 ADD MLOAD PUSH2 0x418F PUSH1 0x1F DUP10 AND DUP3 PUSH2 0x409C JUMP JUMPDEST DUP4 SSTORE POP JUMPDEST PUSH1 0x1 PUSH1 0x2 DUP9 MUL ADD DUP9 SSTORE POP POP POP JUMPDEST POP POP POP POP POP POP JUMP JUMPDEST PUSH1 0x0 PUSH1 0x40 DUP3 ADD SWAP1 POP PUSH2 0x41BD PUSH1 0x0 DUP4 ADD DUP6 PUSH2 0x3078 JUMP JUMPDEST PUSH2 0x41CA PUSH1 0x20 DUP4 ADD DUP5 PUSH2 0x298D JUMP JUMPDEST SWAP4 SWAP3 POP POP POP JUMP JUMPDEST PUSH1 0x0 PUSH2 0x41DC DUP3 PUSH2 0x2917 JUMP JUMPDEST SWAP2 POP PUSH2 0x41E7 DUP4 PUSH2 0x2917 JUMP JUMPDEST SWAP3 POP DUP3 DUP3 SUB SWAP1 POP DUP2 DUP2 GT ISZERO PUSH2 0x41FF JUMPI PUSH2 0x41FE PUSH2 0x3BA5 JUMP JUMPDEST JUMPDEST SWAP3 SWAP2 POP POP JUMP JUMPDEST PUSH1 0x0 DUP1 REVERT JUMPDEST PUSH1 0x0 PUSH1 0xA0 DUP3 DUP5 SUB SLT ISZERO PUSH2 0x4220 JUMPI PUSH2 0x421F PUSH2 0x4205 JUMP JUMPDEST JUMPDEST PUSH2 0x422A PUSH1 0xA0 PUSH2 0x2BF6 JUMP JUMPDEST SWAP1 POP PUSH1 0x0 PUSH2 0x423A DUP5 DUP3 DUP6 ADD PUSH2 0x3C1C JUMP JUMPDEST PUSH1 0x0 DUP4 ADD MSTORE POP PUSH1 0x20 PUSH2 0x424E DUP5 DUP3 DUP6 ADD PUSH2 0x3C1C JUMP JUMPDEST PUSH1 0x20 DUP4 ADD MSTORE POP PUSH1 0x40 PUSH2 0x4262 DUP5 DUP3 DUP6 ADD PUSH2 0x3C1C JUMP JUMPDEST PUSH1 0x40 DUP4 ADD MSTORE POP PUSH1 0x60 PUSH2 0x4276 DUP5 DUP3 DUP6 ADD PUSH2 0x3C1C JUMP JUMPDEST PUSH1 0x60 DUP4 ADD MSTORE POP PUSH1 0x80 PUSH2 0x428A DUP5 DUP3 DUP6 ADD PUSH2 0x3C1C JUMP JUMPDEST PUSH1 0x80 DUP4 ADD MSTORE POP SWAP3 SWAP2 POP POP JUMP JUMPDEST PUSH1 0x0 PUSH1 0xA0 DUP3 DUP5 SUB SLT ISZERO PUSH2 0x42AC JUMPI PUSH2 0x42AB PUSH2 0x28AF JUMP JUMPDEST JUMPDEST PUSH1 0x0 PUSH2 0x42BA DUP5 DUP3 DUP6 ADD PUSH2 0x420A JUMP JUMPDEST SWAP2 POP POP SWAP3 SWAP2 POP POP JUMP JUMPDEST PUSH32 0x455243313135353A2069647320616E6420616D6F756E7473206C656E67746820 PUSH1 0x0 DUP3 ADD MSTORE PUSH32 0x6D69736D61746368000000000000000000000000000000000000000000000000 PUSH1 0x20 DUP3 ADD MSTORE POP JUMP JUMPDEST PUSH1 0x0 PUSH2 0x431F PUSH1 0x28 DUP4 PUSH2 0x2A7D JUMP JUMPDEST SWAP2 POP PUSH2 0x432A DUP3 PUSH2 0x42C3 JUMP JUMPDEST PUSH1 0x40 DUP3 ADD SWAP1 POP SWAP2 SWAP1 POP JUMP JUMPDEST PUSH1 0x0 PUSH1 0x20 DUP3 ADD SWAP1 POP DUP2 DUP2 SUB PUSH1 0x0 DUP4 ADD MSTORE PUSH2 0x434E DUP2 PUSH2 0x4312 JUMP JUMPDEST SWAP1 POP SWAP2 SWAP1 POP JUMP JUMPDEST PUSH32 0x455243313135353A207472616E7366657220746F20746865207A65726F206164 PUSH1 0x0 DUP3 ADD MSTORE PUSH32 0x6472657373000000000000000000000000000000000000000000000000000000 PUSH1 0x20 DUP3 ADD MSTORE POP JUMP JUMPDEST PUSH1 0x0 PUSH2 0x43B1 PUSH1 0x25 DUP4 PUSH2 0x2A7D JUMP JUMPDEST SWAP2 POP PUSH2 0x43BC DUP3 PUSH2 0x4355 JUMP JUMPDEST PUSH1 0x40 DUP3 ADD SWAP1 POP SWAP2 SWAP1 POP JUMP JUMPDEST PUSH1 0x0 PUSH1 0x20 DUP3 ADD SWAP1 POP DUP2 DUP2 SUB PUSH1 0x0 DUP4 ADD MSTORE PUSH2 0x43E0 DUP2 PUSH2 0x43A4 JUMP JUMPDEST SWAP1 POP SWAP2 SWAP1 POP JUMP JUMPDEST PUSH32 0x455243313135353A20696E73756666696369656E742062616C616E636520666F PUSH1 0x0 DUP3 ADD MSTORE PUSH32 0x72207472616E7366657200000000000000000000000000000000000000000000 PUSH1 0x20 DUP3 ADD MSTORE POP JUMP JUMPDEST PUSH1 0x0 PUSH2 0x4443 PUSH1 0x2A DUP4 PUSH2 0x2A7D JUMP JUMPDEST SWAP2 POP PUSH2 0x444E DUP3 PUSH2 0x43E7 JUMP JUMPDEST PUSH1 0x40 DUP3 ADD SWAP1 POP SWAP2 SWAP1 POP JUMP JUMPDEST PUSH1 0x0 PUSH1 0x20 DUP3 ADD SWAP1 POP DUP2 DUP2 SUB PUSH1 0x0 DUP4 ADD MSTORE PUSH2 0x4472 DUP2 PUSH2 0x4436 JUMP JUMPDEST SWAP1 POP SWAP2 SWAP1 POP JUMP JUMPDEST PUSH1 0x0 PUSH2 0x4484 DUP3 PUSH2 0x2917 JUMP JUMPDEST SWAP2 POP PUSH2 0x448F DUP4 PUSH2 0x2917 JUMP JUMPDEST SWAP3 POP DUP3 DUP3 ADD SWAP1 POP DUP1 DUP3 GT ISZERO PUSH2 0x44A7 JUMPI PUSH2 0x44A6 PUSH2 0x3BA5 JUMP JUMPDEST JUMPDEST SWAP3 SWAP2 POP POP JUMP JUMPDEST PUSH1 0x0 PUSH1 0x40 DUP3 ADD SWAP1 POP DUP2 DUP2 SUB PUSH1 0x0 DUP4 ADD MSTORE PUSH2 0x44C7 DUP2 DUP6 PUSH2 0x2FF8 JUMP JUMPDEST SWAP1 POP DUP2 DUP2 SUB PUSH1 0x20 DUP4 ADD MSTORE PUSH2 0x44DB DUP2 DUP5 PUSH2 0x2FF8 JUMP JUMPDEST SWAP1 POP SWAP4 SWAP3 POP POP POP JUMP JUMPDEST PUSH32 0x455243313135353A206D696E7420746F20746865207A65726F20616464726573 PUSH1 0x0 DUP3 ADD MSTORE PUSH32 0x7300000000000000000000000000000000000000000000000000000000000000 PUSH1 0x20 DUP3 ADD MSTORE POP JUMP JUMPDEST PUSH1 0x0 PUSH2 0x4540 PUSH1 0x21 DUP4 PUSH2 0x2A7D JUMP JUMPDEST SWAP2 POP PUSH2 0x454B DUP3 PUSH2 0x44E4 JUMP JUMPDEST PUSH1 0x40 DUP3 ADD SWAP1 POP SWAP2 SWAP1 POP JUMP JUMPDEST PUSH1 0x0 PUSH1 0x20 DUP3 ADD SWAP1 POP DUP2 DUP2 SUB PUSH1 0x0 DUP4 ADD MSTORE PUSH2 0x456F DUP2 PUSH2 0x4533 JUMP JUMPDEST SWAP1 POP SWAP2 SWAP1 POP JUMP JUMPDEST PUSH1 0x0 PUSH1 0x40 DUP3 ADD SWAP1 POP PUSH2 0x458B PUSH1 0x0 DUP4 ADD DUP6 PUSH2 0x298D JUMP JUMPDEST PUSH2 0x4598 PUSH1 0x20 DUP4 ADD DUP5 PUSH2 0x298D JUMP JUMPDEST SWAP4 SWAP3 POP POP POP JUMP JUMPDEST PUSH32 0x455243313135353A2073657474696E6720617070726F76616C20737461747573 PUSH1 0x0 DUP3 ADD MSTORE PUSH32 0x20666F722073656C660000000000000000000000000000000000000000000000 PUSH1 0x20 DUP3 ADD MSTORE POP JUMP JUMPDEST PUSH1 0x0 PUSH2 0x45FB PUSH1 0x29 DUP4 PUSH2 0x2A7D JUMP JUMPDEST SWAP2 POP PUSH2 0x4606 DUP3 PUSH2 0x459F JUMP JUMPDEST PUSH1 0x40 DUP3 ADD SWAP1 POP SWAP2 SWAP1 POP JUMP JUMPDEST PUSH1 0x0 PUSH1 0x20 DUP3 ADD SWAP1 POP DUP2 DUP2 SUB PUSH1 0x0 DUP4 ADD MSTORE PUSH2 0x462A DUP2 PUSH2 0x45EE JUMP JUMPDEST SWAP1 POP SWAP2 SWAP1 POP JUMP JUMPDEST PUSH1 0x0 DUP2 MLOAD SWAP1 POP SWAP2 SWAP1 POP JUMP JUMPDEST PUSH1 0x0 DUP3 DUP3 MSTORE PUSH1 0x20 DUP3 ADD SWAP1 POP SWAP3 SWAP2 POP POP JUMP JUMPDEST PUSH1 0x0 PUSH2 0x4658 DUP3 PUSH2 0x4631 JUMP JUMPDEST PUSH2 0x4662 DUP2 DUP6 PUSH2 0x463C JUMP JUMPDEST SWAP4 POP PUSH2 0x4672 DUP2 DUP6 PUSH1 0x20 DUP7 ADD PUSH2 0x2A8E JUMP JUMPDEST PUSH2 0x467B DUP2 PUSH2 0x2AB8 JUMP JUMPDEST DUP5 ADD SWAP2 POP POP SWAP3 SWAP2 POP POP JUMP JUMPDEST PUSH1 0x0 PUSH1 0xA0 DUP3 ADD SWAP1 POP PUSH2 0x469B PUSH1 0x0 DUP4 ADD DUP9 PUSH2 0x3078 JUMP JUMPDEST PUSH2 0x46A8 PUSH1 0x20 DUP4 ADD DUP8 PUSH2 0x3078 JUMP JUMPDEST DUP2 DUP2 SUB PUSH1 0x40 DUP4 ADD MSTORE PUSH2 0x46BA DUP2 DUP7 PUSH2 0x2FF8 JUMP JUMPDEST SWAP1 POP DUP2 DUP2 SUB PUSH1 0x60 DUP4 ADD MSTORE PUSH2 0x46CE DUP2 DUP6 PUSH2 0x2FF8 JUMP JUMPDEST SWAP1 POP DUP2 DUP2 SUB PUSH1 0x80 DUP4 ADD MSTORE PUSH2 0x46E2 DUP2 DUP5 PUSH2 0x464D JUMP JUMPDEST SWAP1 POP SWAP7 SWAP6 POP POP POP POP POP POP JUMP JUMPDEST PUSH1 0x0 DUP2 MLOAD SWAP1 POP PUSH2 0x46FD DUP2 PUSH2 0x29E3 JUMP JUMPDEST SWAP3 SWAP2 POP POP JUMP JUMPDEST PUSH1 0x0 PUSH1 0x20 DUP3 DUP5 SUB SLT ISZERO PUSH2 0x4719 JUMPI PUSH2 0x4718 PUSH2 0x28AF JUMP JUMPDEST JUMPDEST PUSH1 0x0 PUSH2 0x4727 DUP5 DUP3 DUP6 ADD PUSH2 0x46EE JUMP JUMPDEST SWAP2 POP POP SWAP3 SWAP2 POP POP JUMP JUMPDEST PUSH1 0x0 DUP2 PUSH1 0xE0 SHR SWAP1 POP SWAP2 SWAP1 POP JUMP JUMPDEST PUSH1 0x0 PUSH1 0x3 RETURNDATASIZE GT ISZERO PUSH2 0x475C JUMPI PUSH1 0x4 PUSH1 0x0 DUP1 RETURNDATACOPY PUSH2 0x4759 PUSH1 0x0 MLOAD PUSH2 0x4730 JUMP JUMPDEST SWAP1 POP JUMPDEST SWAP1 JUMP JUMPDEST PUSH1 0x0 PUSH1 0x44 RETURNDATASIZE LT PUSH2 0x47EC JUMPI PUSH2 0x4771 PUSH2 0x28A5 JUMP JUMPDEST PUSH1 0x4 RETURNDATASIZE SUB PUSH1 0x4 DUP3 RETURNDATACOPY DUP1 MLOAD RETURNDATASIZE PUSH1 0x24 DUP3 ADD GT PUSH8 0xFFFFFFFFFFFFFFFF DUP3 GT OR ISZERO PUSH2 0x4799 JUMPI POP POP PUSH2 0x47EC JUMP JUMPDEST DUP1 DUP3 ADD DUP1 MLOAD PUSH8 0xFFFFFFFFFFFFFFFF DUP2 GT ISZERO PUSH2 0x47B7 JUMPI POP POP POP POP PUSH2 0x47EC JUMP JUMPDEST DUP1 PUSH1 0x20 DUP4 ADD ADD PUSH1 0x4 RETURNDATASIZE SUB DUP6 ADD DUP2 GT ISZERO PUSH2 0x47D4 JUMPI POP POP POP POP POP PUSH2 0x47EC JUMP JUMPDEST PUSH2 0x47E3 DUP3 PUSH1 0x20 ADD DUP6 ADD DUP7 PUSH2 0x2BC5 JUMP JUMPDEST DUP3 SWAP6 POP POP POP POP POP POP JUMPDEST SWAP1 JUMP JUMPDEST PUSH32 0x455243313135353A207472616E7366657220746F206E6F6E2D45524331313535 PUSH1 0x0 DUP3 ADD MSTORE PUSH32 0x526563656976657220696D706C656D656E746572000000000000000000000000 PUSH1 0x20 DUP3 ADD MSTORE POP JUMP JUMPDEST PUSH1 0x0 PUSH2 0x484B PUSH1 0x34 DUP4 PUSH2 0x2A7D JUMP JUMPDEST SWAP2 POP PUSH2 0x4856 DUP3 PUSH2 0x47EF JUMP JUMPDEST PUSH1 0x40 DUP3 ADD SWAP1 POP SWAP2 SWAP1 POP JUMP JUMPDEST PUSH1 0x0 PUSH1 0x20 DUP3 ADD SWAP1 POP DUP2 DUP2 SUB PUSH1 0x0 DUP4 ADD MSTORE PUSH2 0x487A DUP2 PUSH2 0x483E JUMP JUMPDEST SWAP1 POP SWAP2 SWAP1 POP JUMP JUMPDEST PUSH32 0x455243313135353A204552433131353552656365697665722072656A65637465 PUSH1 0x0 DUP3 ADD MSTORE PUSH32 0x6420746F6B656E73000000000000000000000000000000000000000000000000 PUSH1 0x20 DUP3 ADD MSTORE POP JUMP JUMPDEST PUSH1 0x0 PUSH2 0x48DD PUSH1 0x28 DUP4 PUSH2 0x2A7D JUMP JUMPDEST SWAP2 POP PUSH2 0x48E8 DUP3 PUSH2 0x4881 JUMP JUMPDEST PUSH1 0x40 DUP3 ADD SWAP1 POP SWAP2 SWAP1 POP JUMP JUMPDEST PUSH1 0x0 PUSH1 0x20 DUP3 ADD SWAP1 POP DUP2 DUP2 SUB PUSH1 0x0 DUP4 ADD MSTORE PUSH2 0x490C DUP2 PUSH2 0x48D0 JUMP JUMPDEST SWAP1 POP SWAP2 SWAP1 POP JUMP JUMPDEST PUSH1 0x0 PUSH1 0xA0 DUP3 ADD SWAP1 POP PUSH2 0x4928 PUSH1 0x0 DUP4 ADD DUP9 PUSH2 0x3078 JUMP JUMPDEST PUSH2 0x4935 PUSH1 0x20 DUP4 ADD DUP8 PUSH2 0x3078 JUMP JUMPDEST PUSH2 0x4942 PUSH1 0x40 DUP4 ADD DUP7 PUSH2 0x298D JUMP JUMPDEST PUSH2 0x494F PUSH1 0x60 DUP4 ADD DUP6 PUSH2 0x298D JUMP JUMPDEST DUP2 DUP2 SUB PUSH1 0x80 DUP4 ADD MSTORE PUSH2 0x4961 DUP2 DUP5 PUSH2 0x464D JUMP JUMPDEST SWAP1 POP SWAP7 SWAP6 POP POP POP POP POP POP JUMP INVALID LOG2 PUSH5 0x6970667358 0x22 SLT KECCAK256 0xB7 0xB4 0xC8 SWAP7 0xE0 PUSH25 0xED2FE4C42A2579F9B9093241FC21A6ADB699DE763774A7B9BC STOP PUSH5 0x736F6C6343 STOP ADDMOD EQ STOP CALLER PUSH9 0x747470733A2F2F6465 PUSH23 0x2D696E7465726E736869702E73332E61702D6E6F727468 PUSH6 0x6173742D322E PUSH2 0x6D61 PUSH27 0x6F6E6177732E636F6D2F4D757369632F7B69647D2E6A736F6E0000 "
		},
		"gasEstimates": {
			"creation": {
				"codeDepositCost": "3770200",
				"executionCost": "infinite",
				"totalCost": "infinite"
			},
			"external": {
				"balanceOf(address,uint256)": "infinite",
				"balanceOfBatch(address[],uint256[])": "infinite",
				"buyListedTicket(uint256)": "infinite",
				"downloadMusic(uint256)": "infinite",
				"getMusicInfo(uint256)": "infinite",
				"getTicketInfo(uint256)": "infinite",
				"isApprovedForAll(address,address)": "infinite",
				"mintMusic(string,string,string,uint256)": "infinite",
				"mintMusicAndTickets(string,string,string,uint256,uint256)": "infinite",
				"mintTicket(uint256,uint256)": "infinite",
				"musicTicketContract()": "infinite",
				"name()": "infinite",
				"onERC1155BatchReceived(address,address,uint256[],uint256[],bytes)": "infinite",
				"onERC1155Received(address,address,uint256,uint256,bytes)": "infinite",
				"ownerOf(uint256)": "2954",
				"safeBatchTransferFrom(address,address,uint256[],uint256[],bytes)": "infinite",
				"safeTransferFrom(address,address,uint256,uint256,bytes)": "infinite",
				"sellTicket(uint256,uint256)": "infinite",
				"setApprovalForAll(address,bool)": "infinite",
				"setMusicTicketContract(address)": "24811",
				"streamMusic(uint256)": "infinite",
				"supportsInterface(bytes4)": "951",
				"symbol()": "infinite",
				"uri(uint256)": "infinite"
			}
		},
		"methodIdentifiers": {
			"balanceOf(address,uint256)": "00fdd58e",
			"balanceOfBatch(address[],uint256[])": "4e1273f4",
			"buyListedTicket(uint256)": "50248853",
			"downloadMusic(uint256)": "fdcad5eb",
			"getMusicInfo(uint256)": "85c98794",
			"getTicketInfo(uint256)": "ff99a063",
			"isApprovedForAll(address,address)": "e985e9c5",
			"mintMusic(string,string,string,uint256)": "9663a0c9",
			"mintMusicAndTickets(string,string,string,uint256,uint256)": "fcdb24a8",
			"mintTicket(uint256,uint256)": "5c300eba",
			"musicTicketContract()": "7826ac79",
			"name()": "06fdde03",
			"onERC1155BatchReceived(address,address,uint256[],uint256[],bytes)": "bc197c81",
			"onERC1155Received(address,address,uint256,uint256,bytes)": "f23a6e61",
			"ownerOf(uint256)": "6352211e",
			"safeBatchTransferFrom(address,address,uint256[],uint256[],bytes)": "2eb2c2d6",
			"safeTransferFrom(address,address,uint256,uint256,bytes)": "f242432a",
			"sellTicket(uint256,uint256)": "2a6c4c14",
			"setApprovalForAll(address,bool)": "a22cb465",
			"setMusicTicketContract(address)": "b87b7319",
			"streamMusic(uint256)": "e2fdc989",
			"supportsInterface(bytes4)": "01ffc9a7",
			"symbol()": "95d89b41",
			"uri(uint256)": "0e89341c"
		}
	},
	"abi": [
		{
			"inputs": [],
			"stateMutability": "nonpayable",
			"type": "constructor"
		},
		{
			"anonymous": false,
			"inputs": [
				{
					"indexed": true,
					"internalType": "address",
					"name": "account",
					"type": "address"
				},
				{
					"indexed": true,
					"internalType": "address",
					"name": "operator",
					"type": "address"
				},
				{
					"indexed": false,
					"internalType": "bool",
					"name": "approved",
					"type": "bool"
				}
			],
			"name": "ApprovalForAll",
			"type": "event"
		},
		{
			"anonymous": false,
			"inputs": [
				{
					"indexed": true,
					"internalType": "address",
					"name": "operator",
					"type": "address"
				},
				{
					"indexed": true,
					"internalType": "address",
					"name": "from",
					"type": "address"
				},
				{
					"indexed": true,
					"internalType": "address",
					"name": "to",
					"type": "address"
				},
				{
					"indexed": false,
					"internalType": "uint256[]",
					"name": "ids",
					"type": "uint256[]"
				},
				{
					"indexed": false,
					"internalType": "uint256[]",
					"name": "values",
					"type": "uint256[]"
				}
			],
			"name": "TransferBatch",
			"type": "event"
		},
		{
			"anonymous": false,
			"inputs": [
				{
					"indexed": true,
					"internalType": "address",
					"name": "operator",
					"type": "address"
				},
				{
					"indexed": true,
					"internalType": "address",
					"name": "from",
					"type": "address"
				},
				{
					"indexed": true,
					"internalType": "address",
					"name": "to",
					"type": "address"
				},
				{
					"indexed": false,
					"internalType": "uint256",
					"name": "id",
					"type": "uint256"
				},
				{
					"indexed": false,
					"internalType": "uint256",
					"name": "value",
					"type": "uint256"
				}
			],
			"name": "TransferSingle",
			"type": "event"
		},
		{
			"anonymous": false,
			"inputs": [
				{
					"indexed": false,
					"internalType": "string",
					"name": "value",
					"type": "string"
				},
				{
					"indexed": true,
					"internalType": "uint256",
					"name": "id",
					"type": "uint256"
				}
			],
			"name": "URI",
			"type": "event"
		},
		{
			"inputs": [
				{
					"internalType": "address",
					"name": "account",
					"type": "address"
				},
				{
					"internalType": "uint256",
					"name": "id",
					"type": "uint256"
				}
			],
			"name": "balanceOf",
			"outputs": [
				{
					"internalType": "uint256",
					"name": "",
					"type": "uint256"
				}
			],
			"stateMutability": "view",
			"type": "function"
		},
		{
			"inputs": [
				{
					"internalType": "address[]",
					"name": "accounts",
					"type": "address[]"
				},
				{
					"internalType": "uint256[]",
					"name": "ids",
					"type": "uint256[]"
				}
			],
			"name": "balanceOfBatch",
			"outputs": [
				{
					"internalType": "uint256[]",
					"name": "",
					"type": "uint256[]"
				}
			],
			"stateMutability": "view",
			"type": "function"
		},
		{
			"inputs": [
				{
					"internalType": "uint256",
					"name": "ticketId",
					"type": "uint256"
				}
			],
			"name": "buyListedTicket",
			"outputs": [],
			"stateMutability": "payable",
			"type": "function"
		},
		{
			"inputs": [
				{
					"internalType": "uint256",
					"name": "ticketId",
					"type": "uint256"
				}
			],
			"name": "downloadMusic",
			"outputs": [],
			"stateMutability": "nonpayable",
			"type": "function"
		},
		{
			"inputs": [
				{
					"internalType": "uint256",
					"name": "id",
					"type": "uint256"
				}
			],
			"name": "getMusicInfo",
			"outputs": [
				{
					"components": [
						{
							"internalType": "uint256",
							"name": "id",
							"type": "uint256"
						},
						{
							"internalType": "string",
							"name": "singerName",
							"type": "string"
						},
						{
							"internalType": "string",
							"name": "composer",
							"type": "string"
						},
						{
							"internalType": "string",
							"name": "lyricist",
							"type": "string"
						},
						{
							"internalType": "uint256",
							"name": "releaseDate",
							"type": "uint256"
						}
					],
					"internalType": "struct Music.MusicInfo",
					"name": "",
					"type": "tuple"
				}
			],
			"stateMutability": "view",
			"type": "function"
		},
		{
			"inputs": [
				{
					"internalType": "uint256",
					"name": "ticketId",
					"type": "uint256"
				}
			],
			"name": "getTicketInfo",
			"outputs": [
				{
					"components": [
						{
							"internalType": "uint256",
							"name": "musicId",
							"type": "uint256"
						},
						{
							"internalType": "uint256",
							"name": "expiryDate",
							"type": "uint256"
						},
						{
							"internalType": "uint256",
							"name": "downloadLimit",
							"type": "uint256"
						},
						{
							"internalType": "uint256",
							"name": "streamLimit",
							"type": "uint256"
						},
						{
							"internalType": "uint256",
							"name": "price",
							"type": "uint256"
						}
					],
					"internalType": "struct MusicTicket.TicketInfo",
					"name": "",
					"type": "tuple"
				}
			],
			"stateMutability": "view",
			"type": "function"
		},
		{
			"inputs": [
				{
					"internalType": "address",
					"name": "account",
					"type": "address"
				},
				{
					"internalType": "address",
					"name": "operator",
					"type": "address"
				}
			],
			"name": "isApprovedForAll",
			"outputs": [
				{
					"internalType": "bool",
					"name": "",
					"type": "bool"
				}
			],
			"stateMutability": "view",
			"type": "function"
		},
		{
			"inputs": [
				{
					"internalType": "string",
					"name": "singerName",
					"type": "string"
				},
				{
					"internalType": "string",
					"name": "composer",
					"type": "string"
				},
				{
					"internalType": "string",
					"name": "lyricist",
					"type": "string"
				},
				{
					"internalType": "uint256",
					"name": "releaseDate",
					"type": "uint256"
				}
			],
			"name": "mintMusic",
			"outputs": [],
			"stateMutability": "nonpayable",
			"type": "function"
		},
		{
			"inputs": [
				{
					"internalType": "string",
					"name": "singerName",
					"type": "string"
				},
				{
					"internalType": "string",
					"name": "composer",
					"type": "string"
				},
				{
					"internalType": "string",
					"name": "lyricist",
					"type": "string"
				},
				{
					"internalType": "uint256",
					"name": "releaseDate",
					"type": "uint256"
				},
				{
					"internalType": "uint256",
					"name": "price",
					"type": "uint256"
				}
			],
			"name": "mintMusicAndTickets",
			"outputs": [],
			"stateMutability": "nonpayable",
			"type": "function"
		},
		{
			"inputs": [
				{
					"internalType": "uint256",
					"name": "musicId",
					"type": "uint256"
				},
				{
					"internalType": "uint256",
					"name": "price",
					"type": "uint256"
				}
			],
			"name": "mintTicket",
			"outputs": [],
			"stateMutability": "nonpayable",
			"type": "function"
		},
		{
			"inputs": [],
			"name": "musicTicketContract",
			"outputs": [
				{
					"internalType": "contract MusicTicket",
					"name": "",
					"type": "address"
				}
			],
			"stateMutability": "view",
			"type": "function"
		},
		{
			"inputs": [],
			"name": "name",
			"outputs": [
				{
					"internalType": "string",
					"name": "",
					"type": "string"
				}
			],
			"stateMutability": "view",
			"type": "function"
		},
		{
			"inputs": [
				{
					"internalType": "address",
					"name": "operator",
					"type": "address"
				},
				{
					"internalType": "address",
					"name": "from",
					"type": "address"
				},
				{
					"internalType": "uint256[]",
					"name": "ids",
					"type": "uint256[]"
				},
				{
					"internalType": "uint256[]",
					"name": "values",
					"type": "uint256[]"
				},
				{
					"internalType": "bytes",
					"name": "data",
					"type": "bytes"
				}
			],
			"name": "onERC1155BatchReceived",
			"outputs": [
				{
					"internalType": "bytes4",
					"name": "",
					"type": "bytes4"
				}
			],
			"stateMutability": "pure",
			"type": "function"
		},
		{
			"inputs": [
				{
					"internalType": "address",
					"name": "operator",
					"type": "address"
				},
				{
					"internalType": "address",
					"name": "from",
					"type": "address"
				},
				{
					"internalType": "uint256",
					"name": "id",
					"type": "uint256"
				},
				{
					"internalType": "uint256",
					"name": "value",
					"type": "uint256"
				},
				{
					"internalType": "bytes",
					"name": "data",
					"type": "bytes"
				}
			],
			"name": "onERC1155Received",
			"outputs": [
				{
					"internalType": "bytes4",
					"name": "",
					"type": "bytes4"
				}
			],
			"stateMutability": "pure",
			"type": "function"
		},
		{
			"inputs": [
				{
					"internalType": "uint256",
					"name": "id",
					"type": "uint256"
				}
			],
			"name": "ownerOf",
			"outputs": [
				{
					"internalType": "address",
					"name": "",
					"type": "address"
				}
			],
			"stateMutability": "view",
			"type": "function"
		},
		{
			"inputs": [
				{
					"internalType": "address",
					"name": "from",
					"type": "address"
				},
				{
					"internalType": "address",
					"name": "to",
					"type": "address"
				},
				{
					"internalType": "uint256[]",
					"name": "ids",
					"type": "uint256[]"
				},
				{
					"internalType": "uint256[]",
					"name": "amounts",
					"type": "uint256[]"
				},
				{
					"internalType": "bytes",
					"name": "data",
					"type": "bytes"
				}
			],
			"name": "safeBatchTransferFrom",
			"outputs": [],
			"stateMutability": "nonpayable",
			"type": "function"
		},
		{
			"inputs": [
				{
					"internalType": "address",
					"name": "from",
					"type": "address"
				},
				{
					"internalType": "address",
					"name": "to",
					"type": "address"
				},
				{
					"internalType": "uint256",
					"name": "id",
					"type": "uint256"
				},
				{
					"internalType": "uint256",
					"name": "amount",
					"type": "uint256"
				},
				{
					"internalType": "bytes",
					"name": "data",
					"type": "bytes"
				}
			],
			"name": "safeTransferFrom",
			"outputs": [],
			"stateMutability": "nonpayable",
			"type": "function"
		},
		{
			"inputs": [
				{
					"internalType": "uint256",
					"name": "ticketId",
					"type": "uint256"
				},
				{
					"internalType": "uint256",
					"name": "price",
					"type": "uint256"
				}
			],
			"name": "sellTicket",
			"outputs": [],
			"stateMutability": "nonpayable",
			"type": "function"
		},
		{
			"inputs": [
				{
					"internalType": "address",
					"name": "operator",
					"type": "address"
				},
				{
					"internalType": "bool",
					"name": "approved",
					"type": "bool"
				}
			],
			"name": "setApprovalForAll",
			"outputs": [],
			"stateMutability": "nonpayable",
			"type": "function"
		},
		{
			"inputs": [
				{
					"internalType": "address",
					"name": "_musicTicketContract",
					"type": "address"
				}
			],
			"name": "setMusicTicketContract",
			"outputs": [],
			"stateMutability": "nonpayable",
			"type": "function"
		},
		{
			"inputs": [
				{
					"internalType": "uint256",
					"name": "ticketId",
					"type": "uint256"
				}
			],
			"name": "streamMusic",
			"outputs": [],
			"stateMutability": "nonpayable",
			"type": "function"
		},
		{
			"inputs": [
				{
					"internalType": "bytes4",
					"name": "interfaceId",
					"type": "bytes4"
				}
			],
			"name": "supportsInterface",
			"outputs": [
				{
					"internalType": "bool",
					"name": "",
					"type": "bool"
				}
			],
			"stateMutability": "view",
			"type": "function"
		},
		{
			"inputs": [],
			"name": "symbol",
			"outputs": [
				{
					"internalType": "string",
					"name": "",
					"type": "string"
				}
			],
			"stateMutability": "view",
			"type": "function"
		},
		{
			"inputs": [
				{
					"internalType": "uint256",
					"name": "",
					"type": "uint256"
				}
			],
			"name": "uri",
			"outputs": [
				{
					"internalType": "string",
					"name": "",
					"type": "string"
				}
			],
			"stateMutability": "view",
			"type": "function"
		}
	]
}