{
  "contractName": "ProxyERC721",
  "abi": [
    {
      "inputs": [
        {
          "internalType": "address",
          "name": "_ERC721Address",
          "type": "address"
        },
        {
          "internalType": "string",
          "name": "name_",
          "type": "string"
        },
        {
          "internalType": "string",
          "name": "symbol_",
          "type": "string"
        }
      ],
      "stateMutability": "nonpayable",
      "type": "constructor"
    },
    {
      "inputs": [
        {
          "internalType": "address",
          "name": "_ERC721Address",
          "type": "address"
        }
      ],
      "name": "setERC721Address",
      "outputs": [],
      "stateMutability": "nonpayable",
      "type": "function"
    },
    {
      "inputs": [
        {
          "internalType": "address",
          "name": "owner",
          "type": "address"
        }
      ],
      "name": "balanceOf",
      "outputs": [
        {
          "internalType": "uint256",
          "name": "",
          "type": "uint256"
        }
      ],
      "stateMutability": "view",
      "type": "function",
      "constant": true
    },
    {
      "inputs": [
        {
          "internalType": "uint256",
          "name": "tokenId",
          "type": "uint256"
        }
      ],
      "name": "ownerOf",
      "outputs": [
        {
          "internalType": "address",
          "name": "",
          "type": "address"
        }
      ],
      "stateMutability": "view",
      "type": "function",
      "constant": true
    },
    {
      "inputs": [],
      "name": "name",
      "outputs": [
        {
          "internalType": "string",
          "name": "",
          "type": "string"
        }
      ],
      "stateMutability": "view",
      "type": "function",
      "constant": true
    },
    {
      "inputs": [],
      "name": "symbol",
      "outputs": [
        {
          "internalType": "string",
          "name": "",
          "type": "string"
        }
      ],
      "stateMutability": "view",
      "type": "function",
      "constant": true
    },
    {
      "inputs": [
        {
          "internalType": "uint256",
          "name": "tokenId",
          "type": "uint256"
        }
      ],
      "name": "tokenURI",
      "outputs": [
        {
          "internalType": "string",
          "name": "",
          "type": "string"
        }
      ],
      "stateMutability": "nonpayable",
      "type": "function"
    },
    {
      "inputs": [
        {
          "internalType": "address",
          "name": "to",
          "type": "address"
        },
        {
          "internalType": "uint256",
          "name": "tokenId",
          "type": "uint256"
        }
      ],
      "name": "approve",
      "outputs": [],
      "stateMutability": "nonpayable",
      "type": "function"
    },
    {
      "inputs": [
        {
          "internalType": "uint256",
          "name": "tokenId",
          "type": "uint256"
        }
      ],
      "name": "getApproved",
      "outputs": [
        {
          "internalType": "address",
          "name": "",
          "type": "address"
        }
      ],
      "stateMutability": "view",
      "type": "function",
      "constant": true
    },
    {
      "inputs": [
        {
          "internalType": "address",
          "name": "operator",
          "type": "address"
        },
        {
          "internalType": "bool",
          "name": "approved",
          "type": "bool"
        }
      ],
      "name": "setApprovalForAll",
      "outputs": [],
      "stateMutability": "nonpayable",
      "type": "function"
    },
    {
      "inputs": [
        {
          "internalType": "address",
          "name": "owner",
          "type": "address"
        },
        {
          "internalType": "address",
          "name": "operator",
          "type": "address"
        }
      ],
      "name": "isApprovedForAll",
      "outputs": [
        {
          "internalType": "bool",
          "name": "",
          "type": "bool"
        }
      ],
      "stateMutability": "view",
      "type": "function",
      "constant": true
    },
    {
      "inputs": [
        {
          "internalType": "address",
          "name": "from",
          "type": "address"
        },
        {
          "internalType": "address",
          "name": "to",
          "type": "address"
        },
        {
          "internalType": "uint256",
          "name": "tokenId",
          "type": "uint256"
        }
      ],
      "name": "transferFrom",
      "outputs": [],
      "stateMutability": "nonpayable",
      "type": "function"
    },
    {
      "inputs": [
        {
          "internalType": "address",
          "name": "from",
          "type": "address"
        },
        {
          "internalType": "address",
          "name": "to",
          "type": "address"
        },
        {
          "internalType": "uint256",
          "name": "tokenId",
          "type": "uint256"
        }
      ],
      "name": "safeTransferFrom",
      "outputs": [],
      "stateMutability": "nonpayable",
      "type": "function"
    },
    {
      "inputs": [
        {
          "internalType": "address",
          "name": "from",
          "type": "address"
        },
        {
          "internalType": "address",
          "name": "to",
          "type": "address"
        },
        {
          "internalType": "uint256",
          "name": "tokenId",
          "type": "uint256"
        },
        {
          "internalType": "bytes",
          "name": "data",
          "type": "bytes"
        }
      ],
      "name": "safeTransferFrom",
      "outputs": [],
      "stateMutability": "nonpayable",
      "type": "function"
    },
    {
      "inputs": [
        {
          "internalType": "address",
          "name": "to",
          "type": "address"
        },
        {
          "internalType": "uint256",
          "name": "tokenId",
          "type": "uint256"
        }
      ],
      "name": "safeMint",
      "outputs": [],
      "stateMutability": "nonpayable",
      "type": "function"
    }
  ],
  "bytecode": "0x608060405234801562000010575f80fd5b506040516200242e3803806200242e8339818101604052810190620000369190620003a9565b8260065f6101000a81548173ffffffffffffffffffffffffffffffffffffffff021916908373ffffffffffffffffffffffffffffffffffffffff160217905550815f908162000086919062000677565b50806001908162000098919062000677565b505f8060065f9054906101000a900473ffffffffffffffffffffffffffffffffffffffff1673ffffffffffffffffffffffffffffffffffffffff168484604051602401620000e8929190620007ab565b6040516020818303038152906040527ff1bd332d000000000000000000000000000000000000000000000000000000007bffffffffffffffffffffffffffffffffffffffffffffffffffffffff19166020820180517bffffffffffffffffffffffffffffffffffffffffffffffffffffffff83818316178352505050506040516200017491906200082e565b5f60405180830381855af49150503d805f8114620001ae576040519150601f19603f3d011682016040523d82523d5f602084013e620001b3565b606091505b5091509150505050505062000846565b5f604051905090565b5f80fd5b5f80fd5b5f73ffffffffffffffffffffffffffffffffffffffff82169050919050565b5f620001ff82620001d4565b9050919050565b6200021181620001f3565b81146200021c575f80fd5b50565b5f815190506200022f8162000206565b92915050565b5f80fd5b5f80fd5b5f601f19601f8301169050919050565b7f4e487b71000000000000000000000000000000000000000000000000000000005f52604160045260245ffd5b62000285826200023d565b810181811067ffffffffffffffff82111715620002a757620002a66200024d565b5b80604052505050565b5f620002bb620001c3565b9050620002c982826200027a565b919050565b5f67ffffffffffffffff821115620002eb57620002ea6200024d565b5b620002f6826200023d565b9050602081019050919050565b5f5b838110156200032257808201518184015260208101905062000305565b5f8484015250505050565b5f620003436200033d84620002ce565b620002b0565b90508281526020810184848401111562000362576200036162000239565b5b6200036f84828562000303565b509392505050565b5f82601f8301126200038e576200038d62000235565b5b8151620003a08482602086016200032d565b91505092915050565b5f805f60608486031215620003c357620003c2620001cc565b5b5f620003d2868287016200021f565b935050602084015167ffffffffffffffff811115620003f657620003f5620001d0565b5b620004048682870162000377565b925050604084015167ffffffffffffffff811115620004285762000427620001d0565b5b620004368682870162000377565b9150509250925092565b5f81519050919050565b7f4e487b71000000000000000000000000000000000000000000000000000000005f52602260045260245ffd5b5f60028204905060018216806200048f57607f821691505b602082108103620004a557620004a46200044a565b5b50919050565b5f819050815f5260205f209050919050565b5f6020601f8301049050919050565b5f82821b905092915050565b5f60088302620005097fffffffffffffffffffffffffffffffffffffffffffffffffffffffffffffffff82620004cc565b620005158683620004cc565b95508019841693508086168417925050509392505050565b5f819050919050565b5f819050919050565b5f6200055f6200055962000553846200052d565b62000536565b6200052d565b9050919050565b5f819050919050565b6200057a836200053f565b62000592620005898262000566565b848454620004d8565b825550505050565b5f90565b620005a86200059a565b620005b58184846200056f565b505050565b5b81811015620005dc57620005d05f826200059e565b600181019050620005bb565b5050565b601f8211156200062b57620005f581620004ab565b6200060084620004bd565b8101602085101562000610578190505b620006286200061f85620004bd565b830182620005ba565b50505b505050565b5f82821c905092915050565b5f6200064d5f198460080262000630565b1980831691505092915050565b5f6200066783836200063c565b9150826002028217905092915050565b620006828262000440565b67ffffffffffffffff8111156200069e576200069d6200024d565b5b620006aa825462000477565b620006b7828285620005e0565b5f60209050601f831160018114620006ed575f8415620006d8578287015190505b620006e485826200065a565b86555062000753565b601f198416620006fd86620004ab565b5f5b828110156200072657848901518255600182019150602085019450602081019050620006ff565b8683101562000746578489015162000742601f8916826200063c565b8355505b6001600288020188555050505b505050505050565b5f82825260208201905092915050565b5f620007778262000440565b6200078381856200075b565b93506200079581856020860162000303565b620007a0816200023d565b840191505092915050565b5f6040820190508181035f830152620007c581856200076b565b90508181036020830152620007db81846200076b565b90509392505050565b5f81519050919050565b5f81905092915050565b5f6200080482620007e4565b620008108185620007ee565b93506200082281856020860162000303565b80840191505092915050565b5f6200083b8284620007f8565b915081905092915050565b611bda80620008545f395ff3fe608060405234801561000f575f80fd5b50600436106100e8575f3560e01c806395d89b411161008a578063a22cb46511610064578063a22cb46514610244578063b88d4fde14610260578063c87b56dd1461027c578063e985e9c5146102ac576100e8565b806395d89b41146101ee5780639a03d9a31461020c578063a144819414610228576100e8565b806323b872dd116100c657806323b872dd1461015657806342842e0e146101725780636352211e1461018e57806370a08231146101be576100e8565b806306fdde03146100ec578063081812fc1461010a578063095ea7b31461013a575b5f80fd5b6100f46102dc565b60405161010191906111dc565b60405180910390f35b610124600480360381019061011f9190611240565b61036b565b60405161013191906112aa565b60405180910390f35b610154600480360381019061014f91906112ed565b6103ad565b005b610170600480360381019061016b919061132b565b6105d4565b005b61018c6004803603810190610187919061132b565b610746565b005b6101a860048036038101906101a39190611240565b610868565b6040516101b591906112aa565b60405180910390f35b6101d860048036038101906101d3919061137b565b6108ec565b6040516101e591906113b5565b60405180910390f35b6101f66109a0565b60405161020391906111dc565b60405180910390f35b6102266004803603810190610221919061137b565b610a30565b005b610242600480360381019061023d91906112ed565b610a73565b005b61025e60048036038101906102599190611403565b610b92565b005b61027a6004803603810190610275919061156d565b610cb1565b005b61029660048036038101906102919190611240565b610e26565b6040516102a391906111dc565b60405180910390f35b6102c660048036038101906102c191906115ed565b610f65565b6040516102d3919061163a565b60405180910390f35b60605f80546102ea90611680565b80601f016020809104026020016040519081016040528092919081815260200182805461031690611680565b80156103615780601f1061033857610100808354040283529160200191610361565b820191905f5260205f20905b81548152906001019060200180831161034457829003601f168201915b5050505050905090565b5f61037582610ff3565b60045f8381526020019081526020015f205f9054906101000a900473ffffffffffffffffffffffffffffffffffffffff169050919050565b5f6103b782610868565b90508073ffffffffffffffffffffffffffffffffffffffff168373ffffffffffffffffffffffffffffffffffffffff1603610427576040517f08c379a000000000000000000000000000000000000000000000000000000000815260040161041e90611720565b60405180910390fd5b8073ffffffffffffffffffffffffffffffffffffffff1661044661103e565b73ffffffffffffffffffffffffffffffffffffffff16148061047557506104748161046f61103e565b610f65565b5b6104b4576040517f08c379a00000000000000000000000000000000000000000000000000000000081526004016104ab906117ae565b60405180910390fd5b5f8060065f9054906101000a900473ffffffffffffffffffffffffffffffffffffffff1673ffffffffffffffffffffffffffffffffffffffff1685856040516024016105019291906117cc565b6040516020818303038152906040527f8b069f2a000000000000000000000000000000000000000000000000000000007bffffffffffffffffffffffffffffffffffffffffffffffffffffffff19166020820180517bffffffffffffffffffffffffffffffffffffffffffffffffffffffff838183161783525050505060405161058b9190611837565b5f60405180830381855af49150503d805f81146105c3576040519150601f19603f3d011682016040523d82523d5f602084013e6105c8565b606091505b50915091505050505050565b6105e56105df61103e565b82611045565b610624576040517f08c379a000000000000000000000000000000000000000000000000000000000815260040161061b906118bd565b60405180910390fd5b5f8060065f9054906101000a900473ffffffffffffffffffffffffffffffffffffffff1673ffffffffffffffffffffffffffffffffffffffff16858585604051602401610673939291906118db565b6040516020818303038152906040527fb642fe57000000000000000000000000000000000000000000000000000000007bffffffffffffffffffffffffffffffffffffffffffffffffffffffff19166020820180517bffffffffffffffffffffffffffffffffffffffffffffffffffffffff83818316178352505050506040516106fd9190611837565b5f60405180830381855af49150503d805f8114610735576040519150601f19603f3d011682016040523d82523d5f602084013e61073a565b606091505b50915091505050505050565b5f8060065f9054906101000a900473ffffffffffffffffffffffffffffffffffffffff1673ffffffffffffffffffffffffffffffffffffffff16858585604051602401610795939291906118db565b6040516020818303038152906040527f5e69309e000000000000000000000000000000000000000000000000000000007bffffffffffffffffffffffffffffffffffffffffffffffffffffffff19166020820180517bffffffffffffffffffffffffffffffffffffffffffffffffffffffff838183161783525050505060405161081f9190611837565b5f60405180830381855af49150503d805f8114610857576040519150601f19603f3d011682016040523d82523d5f602084013e61085c565b606091505b50915091505050505050565b5f80610873836110d9565b90505f73ffffffffffffffffffffffffffffffffffffffff168173ffffffffffffffffffffffffffffffffffffffff16036108e3576040517f08c379a00000000000000000000000000000000000000000000000000000000081526004016108da9061195a565b60405180910390fd5b80915050919050565b5f8073ffffffffffffffffffffffffffffffffffffffff168273ffffffffffffffffffffffffffffffffffffffff160361095b576040517f08c379a0000000000000000000000000000000000000000000000000000000008152600401610952906119e8565b60405180910390fd5b60035f8373ffffffffffffffffffffffffffffffffffffffff1673ffffffffffffffffffffffffffffffffffffffff1681526020019081526020015f20549050919050565b6060600180546109af90611680565b80601f01602080910402602001604051908101604052809291908181526020018280546109db90611680565b8015610a265780601f106109fd57610100808354040283529160200191610a26565b820191905f5260205f20905b815481529060010190602001808311610a0957829003601f168201915b5050505050905090565b8060065f6101000a81548173ffffffffffffffffffffffffffffffffffffffff021916908373ffffffffffffffffffffffffffffffffffffffff16021790555050565b5f8060065f9054906101000a900473ffffffffffffffffffffffffffffffffffffffff1673ffffffffffffffffffffffffffffffffffffffff168484604051602401610ac09291906117cc565b6040516020818303038152906040527fdf7f3eab000000000000000000000000000000000000000000000000000000007bffffffffffffffffffffffffffffffffffffffffffffffffffffffff19166020820180517bffffffffffffffffffffffffffffffffffffffffffffffffffffffff8381831617835250505050604051610b4a9190611837565b5f60405180830381855af49150503d805f8114610b82576040519150601f19603f3d011682016040523d82523d5f602084013e610b87565b606091505b509150915050505050565b5f8060065f9054906101000a900473ffffffffffffffffffffffffffffffffffffffff1673ffffffffffffffffffffffffffffffffffffffff168484604051602401610bdf929190611a06565b6040516020818303038152906040527f989579aa000000000000000000000000000000000000000000000000000000007bffffffffffffffffffffffffffffffffffffffffffffffffffffffff19166020820180517bffffffffffffffffffffffffffffffffffffffffffffffffffffffff8381831617835250505050604051610c699190611837565b5f60405180830381855af49150503d805f8114610ca1576040519150601f19603f3d011682016040523d82523d5f602084013e610ca6565b606091505b509150915050505050565b610cc2610cbc61103e565b83611045565b610d01576040517f08c379a0000000000000000000000000000000000000000000000000000000008152600401610cf8906118bd565b60405180910390fd5b5f8060065f9054906101000a900473ffffffffffffffffffffffffffffffffffffffff1673ffffffffffffffffffffffffffffffffffffffff1686868686604051602401610d529493929190611a75565b6040516020818303038152906040527fa2077142000000000000000000000000000000000000000000000000000000007bffffffffffffffffffffffffffffffffffffffffffffffffffffffff19166020820180517bffffffffffffffffffffffffffffffffffffffffffffffffffffffff8381831617835250505050604051610ddc9190611837565b5f60405180830381855af49150503d805f8114610e14576040519150601f19603f3d011682016040523d82523d5f602084013e610e19565b606091505b5091509150505050505050565b60605f8060065f9054906101000a900473ffffffffffffffffffffffffffffffffffffffff1673ffffffffffffffffffffffffffffffffffffffff1684604051602401610e7391906113b5565b6040516020818303038152906040527fc87b56dd000000000000000000000000000000000000000000000000000000007bffffffffffffffffffffffffffffffffffffffffffffffffffffffff19166020820180517bffffffffffffffffffffffffffffffffffffffffffffffffffffffff8381831617835250505050604051610efd9190611837565b5f60405180830381855af49150503d805f8114610f35576040519150601f19603f3d011682016040523d82523d5f602084013e610f3a565b606091505b509150915081610f48575f80fd5b80806020019051810190610f5c9190611b5d565b92505050919050565b5f60055f8473ffffffffffffffffffffffffffffffffffffffff1673ffffffffffffffffffffffffffffffffffffffff1681526020019081526020015f205f8373ffffffffffffffffffffffffffffffffffffffff1673ffffffffffffffffffffffffffffffffffffffff1681526020019081526020015f205f9054906101000a900460ff16905092915050565b610ffc81611112565b61103b576040517f08c379a00000000000000000000000000000000000000000000000000000000081526004016110329061195a565b60405180910390fd5b50565b5f33905090565b5f8061105083610868565b90508073ffffffffffffffffffffffffffffffffffffffff168473ffffffffffffffffffffffffffffffffffffffff16148061109257506110918185610f65565b5b806110d057508373ffffffffffffffffffffffffffffffffffffffff166110b88461036b565b73ffffffffffffffffffffffffffffffffffffffff16145b91505092915050565b5f60025f8381526020019081526020015f205f9054906101000a900473ffffffffffffffffffffffffffffffffffffffff169050919050565b5f8073ffffffffffffffffffffffffffffffffffffffff16611133836110d9565b73ffffffffffffffffffffffffffffffffffffffff1614159050919050565b5f81519050919050565b5f82825260208201905092915050565b5f5b8381101561118957808201518184015260208101905061116e565b5f8484015250505050565b5f601f19601f8301169050919050565b5f6111ae82611152565b6111b8818561115c565b93506111c881856020860161116c565b6111d181611194565b840191505092915050565b5f6020820190508181035f8301526111f481846111a4565b905092915050565b5f604051905090565b5f80fd5b5f80fd5b5f819050919050565b61121f8161120d565b8114611229575f80fd5b50565b5f8135905061123a81611216565b92915050565b5f6020828403121561125557611254611205565b5b5f6112628482850161122c565b91505092915050565b5f73ffffffffffffffffffffffffffffffffffffffff82169050919050565b5f6112948261126b565b9050919050565b6112a48161128a565b82525050565b5f6020820190506112bd5f83018461129b565b92915050565b6112cc8161128a565b81146112d6575f80fd5b50565b5f813590506112e7816112c3565b92915050565b5f806040838503121561130357611302611205565b5b5f611310858286016112d9565b92505060206113218582860161122c565b9150509250929050565b5f805f6060848603121561134257611341611205565b5b5f61134f868287016112d9565b9350506020611360868287016112d9565b92505060406113718682870161122c565b9150509250925092565b5f602082840312156113905761138f611205565b5b5f61139d848285016112d9565b91505092915050565b6113af8161120d565b82525050565b5f6020820190506113c85f8301846113a6565b92915050565b5f8115159050919050565b6113e2816113ce565b81146113ec575f80fd5b50565b5f813590506113fd816113d9565b92915050565b5f806040838503121561141957611418611205565b5b5f611426858286016112d9565b9250506020611437858286016113ef565b9150509250929050565b5f80fd5b5f80fd5b7f4e487b71000000000000000000000000000000000000000000000000000000005f52604160045260245ffd5b61147f82611194565b810181811067ffffffffffffffff8211171561149e5761149d611449565b5b80604052505050565b5f6114b06111fc565b90506114bc8282611476565b919050565b5f67ffffffffffffffff8211156114db576114da611449565b5b6114e482611194565b9050602081019050919050565b828183375f83830152505050565b5f61151161150c846114c1565b6114a7565b90508281526020810184848401111561152d5761152c611445565b5b6115388482856114f1565b509392505050565b5f82601f83011261155457611553611441565b5b81356115648482602086016114ff565b91505092915050565b5f805f806080858703121561158557611584611205565b5b5f611592878288016112d9565b94505060206115a3878288016112d9565b93505060406115b48782880161122c565b925050606085013567ffffffffffffffff8111156115d5576115d4611209565b5b6115e187828801611540565b91505092959194509250565b5f806040838503121561160357611602611205565b5b5f611610858286016112d9565b9250506020611621858286016112d9565b9150509250929050565b611634816113ce565b82525050565b5f60208201905061164d5f83018461162b565b92915050565b7f4e487b71000000000000000000000000000000000000000000000000000000005f52602260045260245ffd5b5f600282049050600182168061169757607f821691505b6020821081036116aa576116a9611653565b5b50919050565b7f4552433732313a20617070726f76616c20746f2063757272656e74206f776e655f8201527f7200000000000000000000000000000000000000000000000000000000000000602082015250565b5f61170a60218361115c565b9150611715826116b0565b604082019050919050565b5f6020820190508181035f830152611737816116fe565b9050919050565b7f4552433732313a20617070726f76652063616c6c6572206973206e6f7420746f5f8201527f6b656e206f776e6572206f7220617070726f76656420666f7220616c6c000000602082015250565b5f611798603d8361115c565b91506117a38261173e565b604082019050919050565b5f6020820190508181035f8301526117c58161178c565b9050919050565b5f6040820190506117df5f83018561129b565b6117ec60208301846113a6565b9392505050565b5f81519050919050565b5f81905092915050565b5f611811826117f3565b61181b81856117fd565b935061182b81856020860161116c565b80840191505092915050565b5f6118428284611807565b915081905092915050565b7f4552433732313a2063616c6c6572206973206e6f7420746f6b656e206f776e655f8201527f72206f7220617070726f76656400000000000000000000000000000000000000602082015250565b5f6118a7602d8361115c565b91506118b28261184d565b604082019050919050565b5f6020820190508181035f8301526118d48161189b565b9050919050565b5f6060820190506118ee5f83018661129b565b6118fb602083018561129b565b61190860408301846113a6565b949350505050565b7f4552433732313a20696e76616c696420746f6b656e20494400000000000000005f82015250565b5f61194460188361115c565b915061194f82611910565b602082019050919050565b5f6020820190508181035f83015261197181611938565b9050919050565b7f4552433732313a2061646472657373207a65726f206973206e6f7420612076615f8201527f6c6964206f776e65720000000000000000000000000000000000000000000000602082015250565b5f6119d260298361115c565b91506119dd82611978565b604082019050919050565b5f6020820190508181035f8301526119ff816119c6565b9050919050565b5f604082019050611a195f83018561129b565b611a26602083018461162b565b9392505050565b5f82825260208201905092915050565b5f611a47826117f3565b611a518185611a2d565b9350611a6181856020860161116c565b611a6a81611194565b840191505092915050565b5f608082019050611a885f83018761129b565b611a95602083018661129b565b611aa260408301856113a6565b8181036060830152611ab48184611a3d565b905095945050505050565b5f67ffffffffffffffff821115611ad957611ad8611449565b5b611ae282611194565b9050602081019050919050565b5f611b01611afc84611abf565b6114a7565b905082815260208101848484011115611b1d57611b1c611445565b5b611b2884828561116c565b509392505050565b5f82601f830112611b4457611b43611441565b5b8151611b54848260208601611aef565b91505092915050565b5f60208284031215611b7257611b71611205565b5b5f82015167ffffffffffffffff811115611b8f57611b8e611209565b5b611b9b84828501611b30565b9150509291505056fea264697066735822122072d62ecda9c98a60c049b28e443af5e39688d3424cbe1fbce3b82c10bdce386964736f6c63430008140033",
  "immutableReferences": {},
  "source": "// SPDX-License-Identifier: MIT\n// OpenZeppelin Contracts (last updated v4.6.0) (proxy/Proxy.sol)\n\npragma solidity ^0.8.0;\n\nimport \"../node_modules/@openzeppelin/contracts/utils/Address.sol\";\nimport \"../node_modules/@openzeppelin/contracts/utils/Context.sol\";\nimport \"../node_modules/@openzeppelin/contracts/utils/Strings.sol\";\n\n/**\n * @dev This abstract contract provides a fallback function that delegates all calls to another contract using the EVM\n * instruction `delegatecall`. We refer to the second contract as the _implementation_ behind the proxy, and it has to\n * be specified by overriding the  {_implementation} function.\n *\n * Additionally, delegation to the implementation can be triggered manually through the {_fallback} function, or to a\n * different contract through the {_delegate} function.\n *\n * The success and return data of the delegated call will be returned back to the caller of the proxy.\n */\n/*\n * @zio \n */\n\ncontract ProxyERC721 is Context {\n\n    using Address for address;\n    using Strings for uint256;\n\n    // Token name\n    string private _name;\n\n    // Token symbol\n    string private _symbol;\n\n    // Mapping from token ID to owner address\n    mapping(uint256 => address) private _owners;\n\n    // Mapping owner address to token count\n    mapping(address => uint256) private _balances;\n\n    // Mapping from token ID to approved address\n    mapping(uint256 => address) private _tokenApprovals;\n\n    // Mapping from owner to operator approvals\n    mapping(address => mapping(address => bool)) private _operatorApprovals;\n\n    address _contract;\n\n    /**\n     * @dev Initializes the contract by setting a `name` and a `symbol` to the token collection.\n     */\n    constructor(address _ERC721Address, string memory name_, string memory symbol_) {\n        _contract = _ERC721Address;\n        _name = name_;\n        _symbol = symbol_;\n        (bool success, bytes memory dataReturn) = _contract.delegatecall(\n            abi.encodeWithSignature(\"__ERC721_init(string, string)\", name_, symbol_)\n        );\n    }\n\n    /**\n     * @dev You must use this function first, when you after deploy.\n     */\n    function setERC721Address (address _ERC721Address) public {\n        _contract = _ERC721Address;\n    }\n\n    /**\n     * @dev See {IERC165-supportsInterface}.\n     */\n     /*\n     *\n     * @zio This is not using interface!!\n     *\n    function supportsInterface(bytes4 interfaceId) public view virtual returns (bool) {\n        (bool success, bytes memory dataReturn) = _contract.delegatecall(\n            abi.encodeWithSignature(\"supportsInterface(bytes4)\", interfaceId)\n        );\n        require(success);\n        return abi.decode(dataReturn, (bool));\n    }\n    */\n\n    /**\n     * @dev See {IERC721-balanceOf}.\n     */\n    function balanceOf(address owner) public view virtual returns (uint256) {\n        require(owner != address(0), \"ERC721: address zero is not a valid owner\");\n        return _balances[owner];\n    }\n\n    /**\n     * @dev See {IERC721-ownerOf}.\n     */\n    function ownerOf(uint256 tokenId) public view virtual returns (address) {\n        address owner = _ownerOf(tokenId);\n        require(owner != address(0), \"ERC721: invalid token ID\");\n        return owner;\n    }\n\n    /**\n     * @dev See {IERC721Metadata-name}.\n     */\n    function name() public view virtual returns (string memory) {\n        return _name;\n    }\n\n    /**\n     * @dev See {IERC721Metadata-symbol}.\n     */\n    function symbol() public view virtual returns (string memory) {\n        return _symbol;\n    }\n\n    /**\n     * @dev See {IERC721Metadata-tokenURI}.\n     */\n    function tokenURI(uint256 tokenId) public returns (string memory) {\n        (bool success, bytes memory dataReturn) = _contract.delegatecall(\n            abi.encodeWithSignature(\"tokenURI(uint256)\", tokenId)\n        );\n        require(success);\n        return abi.decode(dataReturn, (string));\n    }\n\n    /**\n     * @dev See {IERC721-approve}.\n     */\n    function approve(address to, uint256 tokenId) public {\n        address owner = ProxyERC721.ownerOf(tokenId);\n        require(to != owner, \"ERC721: approval to current owner\");\n\n        require(\n            _msgSender() == owner || isApprovedForAll(owner, _msgSender()),\n            \"ERC721: approve caller is not token owner or approved for all\"\n        );\n        \n        (bool success, bytes memory dataReturn) = _contract.delegatecall(\n            abi.encodeWithSignature(\"approve(address, uint256)\", to, tokenId)\n        );\n    }\n\n    /**\n     * @dev See {IERC721-getApproved}.\n     */\n    function getApproved(uint256 tokenId) public view virtual returns (address) {\n        _requireMinted(tokenId);\n\n        return _tokenApprovals[tokenId];\n    }\n\n    /**\n     * @dev See {IERC721-setApprovalForAll}.\n     */\n    function setApprovalForAll(address operator, bool approved) public {\n        (bool success, bytes memory dataReturn) = _contract.delegatecall(\n            abi.encodeWithSignature(\"setApprovalForAll(address, bool)\", operator, approved)\n        );\n    }\n\n    /**\n     * @dev See {IERC721-isApprovedForAll}.\n     */\n    function isApprovedForAll(address owner, address operator) public view virtual returns (bool) {\n        return _operatorApprovals[owner][operator];\n    }\n\n    /**\n     * @dev See {IERC721-transferFrom}.\n     */\n    function transferFrom(address from, address to, uint256 tokenId) public {\n        //solhint-disable-next-line max-line-length\n        require(_isApprovedOrOwner(_msgSender(), tokenId), \"ERC721: caller is not token owner or approved\");\n\n        (bool success, bytes memory dataReturn) = _contract.delegatecall(\n            abi.encodeWithSignature(\"transferFrom(address, address, uint256)\", from, to, tokenId)\n        );\n    }\n\n    /**\n     * @dev See {IERC721-safeTransferFrom}.\n     */\n    function safeTransferFrom(address from, address to, uint256 tokenId) public {\n        (bool success, bytes memory dataReturn) = _contract.delegatecall(\n            abi.encodeWithSignature(\"safeTransferFrom(address, address, uint256\", from, to, tokenId)\n        );\n    }\n\n    /**\n     * @dev See {IERC721-safeTransferFrom}.\n     */\n    function safeTransferFrom(address from, address to, uint256 tokenId, bytes memory data) public {\n        require(_isApprovedOrOwner(_msgSender(), tokenId), \"ERC721: caller is not token owner or approved\");\n        (bool success, bytes memory dataReturn) = _contract.delegatecall(\n            abi.encodeWithSignature(\"safeTransferFrom(address, address, uint256, bytes)\", from, to, tokenId, data)\n        );\n    }\n\n    function safeMint(address to, uint256 tokenId) public virtual {\n        (bool success, bytes memory dataReturn) = _contract.delegatecall(\n            abi.encodeWithSignature(\"_safeMint(address, uint256)\", to, tokenId)\n        );\n    }\n\n    /**\n     * @dev Safely transfers `tokenId` token from `from` to `to`, checking first that contract recipients\n     * are aware of the ERC721 protocol to prevent tokens from being forever locked.\n     *\n     * `data` is additional data, it has no specified format and it is sent in call to `to`.\n     *\n     * This internal function is equivalent to {safeTransferFrom}, and can be used to e.g.\n     * implement alternative mechanisms to perform token transfer, such as signature-based.\n     *\n     * Requirements:\n     *\n     * - `from` cannot be the zero address.\n     * - `to` cannot be the zero address.\n     * - `tokenId` token must exist and be owned by `from`.\n     * - If `to` refers to a smart contract, it must implement {IERC721Receiver-onERC721Received}, which is called upon a safe transfer.\n     \n     /*\n     * @zio Declared only the necessary internal functions!! \n     */\n    \n    /**\n     * @dev Returns the owner of the `tokenId`. Does NOT revert if token doesn't exist\n     */\n    function _ownerOf(uint256 tokenId) internal view virtual returns (address) {\n        return _owners[tokenId];\n    }\n\n    /**\n     * @dev Returns whether `tokenId` exists.\n     *\n     * Tokens can be managed by their owner or approved accounts via {approve} or {setApprovalForAll}.\n     *\n     * Tokens start existing when they are minted (`_mint`),\n     * and stop existing when they are burned (`_burn`).\n     */\n    function _exists(uint256 tokenId) internal view virtual returns (bool) {\n        return _ownerOf(tokenId) != address(0);\n    }\n\n    /**\n     * @dev Returns whether `spender` is allowed to manage `tokenId`.\n     *\n     * Requirements:\n     *\n     * - `tokenId` must exist.\n     */\n    function _isApprovedOrOwner(address spender, uint256 tokenId) internal view virtual returns (bool) {\n        address owner = ProxyERC721.ownerOf(tokenId);\n        return (spender == owner || isApprovedForAll(owner, spender) || getApproved(tokenId) == spender);\n    }\n\n        /**\n     * @dev Reverts if the `tokenId` has not been minted yet.\n     */\n    function _requireMinted(uint256 tokenId) internal view virtual {\n        require(_exists(tokenId), \"ERC721: invalid token ID\");\n    }\n}",
  "sourcePath": "/Users/guarantable/bitbucket/ERC721Proxy/contracts/ProxyERC721.sol",
  "compiler": {
    "name": "solc",
    "version": "0.8.20+commit.a1b79de6.Emscripten.clang"
  },
  "schemaVersion": "3.4.14",
  "updatedAt": "2023-11-01T08:19:37.180Z",
  "networkType": "ethereum",
  "devdoc": {
    "details": "This abstract contract provides a fallback function that delegates all calls to another contract using the EVM instruction `delegatecall`. We refer to the second contract as the _implementation_ behind the proxy, and it has to be specified by overriding the  {_implementation} function. Additionally, delegation to the implementation can be triggered manually through the {_fallback} function, or to a different contract through the {_delegate} function. The success and return data of the delegated call will be returned back to the caller of the proxy.",
    "kind": "dev",
    "methods": {
      "approve(address,uint256)": {
        "details": "See {IERC721-approve}."
      },
      "balanceOf(address)": {
        "details": "See {IERC721-balanceOf}."
      },
      "constructor": {
        "details": "Initializes the contract by setting a `name` and a `symbol` to the token collection."
      },
      "getApproved(uint256)": {
        "details": "See {IERC721-getApproved}."
      },
      "isApprovedForAll(address,address)": {
        "details": "See {IERC721-isApprovedForAll}."
      },
      "name()": {
        "details": "See {IERC721Metadata-name}."
      },
      "ownerOf(uint256)": {
        "details": "See {IERC721-ownerOf}."
      },
      "safeTransferFrom(address,address,uint256)": {
        "details": "See {IERC721-safeTransferFrom}."
      },
      "safeTransferFrom(address,address,uint256,bytes)": {
        "details": "See {IERC721-safeTransferFrom}."
      },
      "setApprovalForAll(address,bool)": {
        "details": "See {IERC721-setApprovalForAll}."
      },
      "setERC721Address(address)": {
        "details": "You must use this function first, when you after deploy."
      },
      "symbol()": {
        "details": "See {IERC721Metadata-symbol}."
      },
      "tokenURI(uint256)": {
        "details": "See {IERC721Metadata-tokenURI}."
      },
      "transferFrom(address,address,uint256)": {
        "details": "See {IERC721-transferFrom}."
      }
    },
    "version": 1
  },
  "userdoc": {
    "kind": "user",
    "methods": {},
    "version": 1
  }
}