{
	"contracts/ERC721.sol": {
		"ERC721": {
			"abi": [
				{
					"anonymous": false,
					"inputs": [
						{
							"indexed": true,
							"internalType": "address",
							"name": "owner",
							"type": "address"
						},
						{
							"indexed": true,
							"internalType": "address",
							"name": "approved",
							"type": "address"
						},
						{
							"indexed": true,
							"internalType": "uint256",
							"name": "tokenId",
							"type": "uint256"
						}
					],
					"name": "Approval",
					"type": "event"
				},
				{
					"anonymous": false,
					"inputs": [
						{
							"indexed": true,
							"internalType": "address",
							"name": "owner",
							"type": "address"
						},
						{
							"indexed": true,
							"internalType": "address",
							"name": "operator",
							"type": "address"
						},
						{
							"indexed": false,
							"internalType": "bool",
							"name": "approved",
							"type": "bool"
						}
					],
					"name": "ApprovalForAll",
					"type": "event"
				},
				{
					"anonymous": false,
					"inputs": [
						{
							"indexed": false,
							"internalType": "uint8",
							"name": "version",
							"type": "uint8"
						}
					],
					"name": "Initialized",
					"type": "event"
				},
				{
					"anonymous": false,
					"inputs": [
						{
							"indexed": true,
							"internalType": "address",
							"name": "from",
							"type": "address"
						},
						{
							"indexed": true,
							"internalType": "address",
							"name": "to",
							"type": "address"
						},
						{
							"indexed": true,
							"internalType": "uint256",
							"name": "tokenId",
							"type": "uint256"
						}
					],
					"name": "Transfer",
					"type": "event"
				},
				{
					"inputs": [
						{
							"internalType": "address",
							"name": "to",
							"type": "address"
						},
						{
							"internalType": "uint256",
							"name": "tokenId",
							"type": "uint256"
						}
					],
					"name": "approve",
					"outputs": [],
					"stateMutability": "nonpayable",
					"type": "function"
				},
				{
					"inputs": [
						{
							"internalType": "address",
							"name": "owner",
							"type": "address"
						}
					],
					"name": "balanceOf",
					"outputs": [
						{
							"internalType": "uint256",
							"name": "",
							"type": "uint256"
						}
					],
					"stateMutability": "view",
					"type": "function"
				},
				{
					"inputs": [
						{
							"internalType": "uint256",
							"name": "tokenId",
							"type": "uint256"
						}
					],
					"name": "getApproved",
					"outputs": [
						{
							"internalType": "address",
							"name": "",
							"type": "address"
						}
					],
					"stateMutability": "view",
					"type": "function"
				},
				{
					"inputs": [
						{
							"internalType": "address",
							"name": "owner",
							"type": "address"
						},
						{
							"internalType": "address",
							"name": "operator",
							"type": "address"
						}
					],
					"name": "isApprovedForAll",
					"outputs": [
						{
							"internalType": "bool",
							"name": "",
							"type": "bool"
						}
					],
					"stateMutability": "view",
					"type": "function"
				},
				{
					"inputs": [],
					"name": "name",
					"outputs": [
						{
							"internalType": "string",
							"name": "",
							"type": "string"
						}
					],
					"stateMutability": "view",
					"type": "function"
				},
				{
					"inputs": [
						{
							"internalType": "uint256",
							"name": "tokenId",
							"type": "uint256"
						}
					],
					"name": "ownerOf",
					"outputs": [
						{
							"internalType": "address",
							"name": "",
							"type": "address"
						}
					],
					"stateMutability": "view",
					"type": "function"
				},
				{
					"inputs": [
						{
							"internalType": "address",
							"name": "to",
							"type": "address"
						},
						{
							"internalType": "uint256",
							"name": "tokenId",
							"type": "uint256"
						}
					],
					"name": "safeMint",
					"outputs": [],
					"stateMutability": "nonpayable",
					"type": "function"
				},
				{
					"inputs": [
						{
							"internalType": "address",
							"name": "from",
							"type": "address"
						},
						{
							"internalType": "address",
							"name": "to",
							"type": "address"
						},
						{
							"internalType": "uint256",
							"name": "tokenId",
							"type": "uint256"
						}
					],
					"name": "safeTransferFrom",
					"outputs": [],
					"stateMutability": "nonpayable",
					"type": "function"
				},
				{
					"inputs": [
						{
							"internalType": "address",
							"name": "from",
							"type": "address"
						},
						{
							"internalType": "address",
							"name": "to",
							"type": "address"
						},
						{
							"internalType": "uint256",
							"name": "tokenId",
							"type": "uint256"
						},
						{
							"internalType": "bytes",
							"name": "data",
							"type": "bytes"
						}
					],
					"name": "safeTransferFrom",
					"outputs": [],
					"stateMutability": "nonpayable",
					"type": "function"
				},
				{
					"inputs": [
						{
							"internalType": "address",
							"name": "operator",
							"type": "address"
						},
						{
							"internalType": "bool",
							"name": "approved",
							"type": "bool"
						}
					],
					"name": "setApprovalForAll",
					"outputs": [],
					"stateMutability": "nonpayable",
					"type": "function"
				},
				{
					"inputs": [
						{
							"internalType": "bytes4",
							"name": "interfaceId",
							"type": "bytes4"
						}
					],
					"name": "supportsInterface",
					"outputs": [
						{
							"internalType": "bool",
							"name": "",
							"type": "bool"
						}
					],
					"stateMutability": "view",
					"type": "function"
				},
				{
					"inputs": [],
					"name": "symbol",
					"outputs": [
						{
							"internalType": "string",
							"name": "",
							"type": "string"
						}
					],
					"stateMutability": "view",
					"type": "function"
				},
				{
					"inputs": [
						{
							"internalType": "uint256",
							"name": "tokenId",
							"type": "uint256"
						}
					],
					"name": "tokenURI",
					"outputs": [
						{
							"internalType": "string",
							"name": "",
							"type": "string"
						}
					],
					"stateMutability": "view",
					"type": "function"
				},
				{
					"inputs": [
						{
							"internalType": "address",
							"name": "from",
							"type": "address"
						},
						{
							"internalType": "address",
							"name": "to",
							"type": "address"
						},
						{
							"internalType": "uint256",
							"name": "tokenId",
							"type": "uint256"
						}
					],
					"name": "transferFrom",
					"outputs": [],
					"stateMutability": "nonpayable",
					"type": "function"
				}
			],
			"devdoc": {
				"details": "Implementation of https://eips.ethereum.org/EIPS/eip-721[ERC721] Non-Fungible Token Standard, including the Metadata extension, but not including the Enumerable extension, which is available separately as {ERC721Enumerable}.",
				"events": {
					"Approval(address,address,uint256)": {
						"details": "Emitted when `owner` enables `approved` to manage the `tokenId` token."
					},
					"ApprovalForAll(address,address,bool)": {
						"details": "Emitted when `owner` enables or disables (`approved`) `operator` to manage all of its assets."
					},
					"Initialized(uint8)": {
						"details": "Triggered when the contract has been initialized or reinitialized."
					},
					"Transfer(address,address,uint256)": {
						"details": "Emitted when `tokenId` token is transferred from `from` to `to`."
					}
				},
				"kind": "dev",
				"methods": {
					"approve(address,uint256)": {
						"details": "See {IERC721-approve}."
					},
					"balanceOf(address)": {
						"details": "See {IERC721-balanceOf}."
					},
					"getApproved(uint256)": {
						"details": "See {IERC721-getApproved}."
					},
					"isApprovedForAll(address,address)": {
						"details": "See {IERC721-isApprovedForAll}."
					},
					"name()": {
						"details": "See {IERC721Metadata-name}."
					},
					"ownerOf(uint256)": {
						"details": "See {IERC721-ownerOf}."
					},
					"safeTransferFrom(address,address,uint256)": {
						"details": "See {IERC721-safeTransferFrom}."
					},
					"safeTransferFrom(address,address,uint256,bytes)": {
						"details": "See {IERC721-safeTransferFrom}."
					},
					"setApprovalForAll(address,bool)": {
						"details": "See {IERC721-setApprovalForAll}."
					},
					"supportsInterface(bytes4)": {
						"details": "See {IERC165-supportsInterface}."
					},
					"symbol()": {
						"details": "See {IERC721Metadata-symbol}."
					},
					"tokenURI(uint256)": {
						"details": "See {IERC721Metadata-tokenURI}."
					},
					"transferFrom(address,address,uint256)": {
						"details": "See {IERC721-transferFrom}."
					}
				},
				"version": 1
			},
			"evm": {
				"assembly": "    /* \"contracts/ERC721.sol\":1009:17145  contract ERC721 is Initializable, Context, ERC165, IERC721, IERC721Metadata {... */\n  mstore(0x40, 0x80)\n  callvalue\n  dup1\n  iszero\n  tag_1\n  jumpi\n  0x00\n  dup1\n  revert\ntag_1:\n  pop\n  dataSize(sub_0)\n  dup1\n  dataOffset(sub_0)\n  0x00\n  codecopy\n  0x00\n  return\nstop\n\nsub_0: assembly {\n        /* \"contracts/ERC721.sol\":1009:17145  contract ERC721 is Initializable, Context, ERC165, IERC721, IERC721Metadata {... */\n      mstore(0x40, 0x80)\n      callvalue\n      dup1\n      iszero\n      tag_1\n      jumpi\n      0x00\n      dup1\n      revert\n    tag_1:\n      pop\n      jumpi(tag_2, lt(calldatasize, 0x04))\n      shr(0xe0, calldataload(0x00))\n      dup1\n      0x70a08231\n      gt\n      tag_17\n      jumpi\n      dup1\n      0xa22cb465\n      gt\n      tag_18\n      jumpi\n      dup1\n      0xa22cb465\n      eq\n      tag_13\n      jumpi\n      dup1\n      0xb88d4fde\n      eq\n      tag_14\n      jumpi\n      dup1\n      0xc87b56dd\n      eq\n      tag_15\n      jumpi\n      dup1\n      0xe985e9c5\n      eq\n      tag_16\n      jumpi\n      jump(tag_2)\n    tag_18:\n      dup1\n      0x70a08231\n      eq\n      tag_10\n      jumpi\n      dup1\n      0x95d89b41\n      eq\n      tag_11\n      jumpi\n      dup1\n      0xa1448194\n      eq\n      tag_12\n      jumpi\n      jump(tag_2)\n    tag_17:\n      dup1\n      0x095ea7b3\n      gt\n      tag_19\n      jumpi\n      dup1\n      0x095ea7b3\n      eq\n      tag_6\n      jumpi\n      dup1\n      0x23b872dd\n      eq\n      tag_7\n      jumpi\n      dup1\n      0x42842e0e\n      eq\n      tag_8\n      jumpi\n      dup1\n      0x6352211e\n      eq\n      tag_9\n      jumpi\n      jump(tag_2)\n    tag_19:\n      dup1\n      0x01ffc9a7\n      eq\n      tag_3\n      jumpi\n      dup1\n      0x06fdde03\n      eq\n      tag_4\n      jumpi\n      dup1\n      0x081812fc\n      eq\n      tag_5\n      jumpi\n    tag_2:\n      0x00\n      dup1\n      revert\n        /* \"contracts/ERC721.sol\":2168:2468  function supportsInterface(bytes4 interfaceId) public view virtual override(ERC165, IERC165) returns (bool) {... */\n    tag_3:\n      tag_20\n      0x04\n      dup1\n      calldatasize\n      sub\n      dup2\n      add\n      swap1\n      tag_21\n      swap2\n      swap1\n      tag_22\n      jump\t// in\n    tag_21:\n      tag_23\n      jump\t// in\n    tag_20:\n      mload(0x40)\n      tag_24\n      swap2\n      swap1\n      tag_25\n      jump\t// in\n    tag_24:\n      mload(0x40)\n      dup1\n      swap2\n      sub\n      swap1\n      return\n        /* \"contracts/ERC721.sol\":3069:3167  function name() public view virtual override returns (string memory) {... */\n    tag_4:\n      tag_26\n      tag_27\n      jump\t// in\n    tag_26:\n      mload(0x40)\n      tag_28\n      swap2\n      swap1\n      tag_29\n      jump\t// in\n    tag_28:\n      mload(0x40)\n      dup1\n      swap2\n      sub\n      swap1\n      return\n        /* \"contracts/ERC721.sol\":4235:4402  function getApproved(uint256 tokenId) public view virtual override returns (address) {... */\n    tag_5:\n      tag_30\n      0x04\n      dup1\n      calldatasize\n      sub\n      dup2\n      add\n      swap1\n      tag_31\n      swap2\n      swap1\n      tag_32\n      jump\t// in\n    tag_31:\n      tag_33\n      jump\t// in\n    tag_30:\n      mload(0x40)\n      tag_34\n      swap2\n      swap1\n      tag_35\n      jump\t// in\n    tag_34:\n      mload(0x40)\n      dup1\n      swap2\n      sub\n      swap1\n      return\n        /* \"contracts/ERC721.sol\":4066:4174  function approve(address to, uint256 tokenId) public virtual override {... */\n    tag_6:\n      tag_36\n      0x04\n      dup1\n      calldatasize\n      sub\n      dup2\n      add\n      swap1\n      tag_37\n      swap2\n      swap1\n      tag_38\n      jump\t// in\n    tag_37:\n      tag_39\n      jump\t// in\n    tag_36:\n      stop\n        /* \"contracts/ERC721.sol\":4912:5046  function transferFrom(address from, address to, uint256 tokenId) public virtual override {... */\n    tag_7:\n      tag_40\n      0x04\n      dup1\n      calldatasize\n      sub\n      dup2\n      add\n      swap1\n      tag_41\n      swap2\n      swap1\n      tag_42\n      jump\t// in\n    tag_41:\n      tag_43\n      jump\t// in\n    tag_40:\n      stop\n        /* \"contracts/ERC721.sol\":5112:5261  function safeTransferFrom(address from, address to, uint256 tokenId) public virtual override {... */\n    tag_8:\n      tag_44\n      0x04\n      dup1\n      calldatasize\n      sub\n      dup2\n      add\n      swap1\n      tag_45\n      swap2\n      swap1\n      tag_42\n      jump\t// in\n    tag_45:\n      tag_46\n      jump\t// in\n    tag_44:\n      stop\n        /* \"contracts/ERC721.sol\":2788:3007  function ownerOf(uint256 tokenId) public view virtual override returns (address) {... */\n    tag_9:\n      tag_47\n      0x04\n      dup1\n      calldatasize\n      sub\n      dup2\n      add\n      swap1\n      tag_48\n      swap2\n      swap1\n      tag_32\n      jump\t// in\n    tag_48:\n      tag_49\n      jump\t// in\n    tag_47:\n      mload(0x40)\n      tag_50\n      swap2\n      swap1\n      tag_35\n      jump\t// in\n    tag_50:\n      mload(0x40)\n      dup1\n      swap2\n      sub\n      swap1\n      return\n        /* \"contracts/ERC721.sol\":2527:2731  function balanceOf(address owner) public view virtual override returns (uint256) {... */\n    tag_10:\n      tag_51\n      0x04\n      dup1\n      calldatasize\n      sub\n      dup2\n      add\n      swap1\n      tag_52\n      swap2\n      swap1\n      tag_53\n      jump\t// in\n    tag_52:\n      tag_54\n      jump\t// in\n    tag_51:\n      mload(0x40)\n      tag_55\n      swap2\n      swap1\n      tag_56\n      jump\t// in\n    tag_55:\n      mload(0x40)\n      dup1\n      swap2\n      sub\n      swap1\n      return\n        /* \"contracts/ERC721.sol\":3231:3333  function symbol() public view virtual override returns (string memory) {... */\n    tag_11:\n      tag_57\n      tag_58\n      jump\t// in\n    tag_57:\n      mload(0x40)\n      tag_59\n      swap2\n      swap1\n      tag_29\n      jump\t// in\n    tag_59:\n      mload(0x40)\n      dup1\n      swap2\n      sub\n      swap1\n      return\n        /* \"contracts/ERC721.sol\":5500:5605  function safeMint(address to, uint256 tokenId) public virtual {... */\n    tag_12:\n      tag_60\n      0x04\n      dup1\n      calldatasize\n      sub\n      dup2\n      add\n      swap1\n      tag_61\n      swap2\n      swap1\n      tag_38\n      jump\t// in\n    tag_61:\n      tag_62\n      jump\t// in\n    tag_60:\n      stop\n        /* \"contracts/ERC721.sol\":4469:4622  function setApprovalForAll(address operator, bool approved) public virtual override {... */\n    tag_13:\n      tag_63\n      0x04\n      dup1\n      calldatasize\n      sub\n      dup2\n      add\n      swap1\n      tag_64\n      swap2\n      swap1\n      tag_65\n      jump\t// in\n    tag_64:\n      tag_66\n      jump\t// in\n    tag_63:\n      stop\n        /* \"contracts/ERC721.sol\":5327:5494  function safeTransferFrom(address from, address to, uint256 tokenId, bytes memory data) public virtual override {... */\n    tag_14:\n      tag_67\n      0x04\n      dup1\n      calldatasize\n      sub\n      dup2\n      add\n      swap1\n      tag_68\n      swap2\n      swap1\n      tag_69\n      jump\t// in\n    tag_68:\n      tag_70\n      jump\t// in\n    tag_67:\n      stop\n        /* \"contracts/ERC721.sol\":3399:3675  function tokenURI(uint256 tokenId) public view virtual override returns (string memory) {... */\n    tag_15:\n      tag_71\n      0x04\n      dup1\n      calldatasize\n      sub\n      dup2\n      add\n      swap1\n      tag_72\n      swap2\n      swap1\n      tag_32\n      jump\t// in\n    tag_72:\n      tag_73\n      jump\t// in\n    tag_71:\n      mload(0x40)\n      tag_74\n      swap2\n      swap1\n      tag_29\n      jump\t// in\n    tag_74:\n      mload(0x40)\n      dup1\n      swap2\n      sub\n      swap1\n      return\n        /* \"contracts/ERC721.sol\":4688:4850  function isApprovedForAll(address owner, address operator) public view virtual override returns (bool) {... */\n    tag_16:\n      tag_75\n      0x04\n      dup1\n      calldatasize\n      sub\n      dup2\n      add\n      swap1\n      tag_76\n      swap2\n      swap1\n      tag_77\n      jump\t// in\n    tag_76:\n      tag_78\n      jump\t// in\n    tag_75:\n      mload(0x40)\n      tag_79\n      swap2\n      swap1\n      tag_25\n      jump\t// in\n    tag_79:\n      mload(0x40)\n      dup1\n      swap2\n      sub\n      swap1\n      return\n        /* \"contracts/ERC721.sol\":2168:2468  function supportsInterface(bytes4 interfaceId) public view virtual override(ERC165, IERC165) returns (bool) {... */\n    tag_23:\n        /* \"contracts/ERC721.sol\":2270:2274  bool */\n      0x00\n        /* \"contracts/ERC721.sol\":2320:2345  type(IERC721).interfaceId */\n      0x80ac58cd00000000000000000000000000000000000000000000000000000000\n        /* \"contracts/ERC721.sol\":2305:2345  interfaceId == type(IERC721).interfaceId */\n      not(0xffffffffffffffffffffffffffffffffffffffffffffffffffffffff)\n      and\n        /* \"contracts/ERC721.sol\":2305:2316  interfaceId */\n      dup3\n        /* \"contracts/ERC721.sol\":2305:2345  interfaceId == type(IERC721).interfaceId */\n      not(0xffffffffffffffffffffffffffffffffffffffffffffffffffffffff)\n      and\n      eq\n        /* \"contracts/ERC721.sol\":2305:2409  interfaceId == type(IERC721).interfaceId ||... */\n      dup1\n      tag_81\n      jumpi\n      pop\n        /* \"contracts/ERC721.sol\":2376:2409  type(IERC721Metadata).interfaceId */\n      0x5b5e139f00000000000000000000000000000000000000000000000000000000\n        /* \"contracts/ERC721.sol\":2361:2409  interfaceId == type(IERC721Metadata).interfaceId */\n      not(0xffffffffffffffffffffffffffffffffffffffffffffffffffffffff)\n      and\n        /* \"contracts/ERC721.sol\":2361:2372  interfaceId */\n      dup3\n        /* \"contracts/ERC721.sol\":2361:2409  interfaceId == type(IERC721Metadata).interfaceId */\n      not(0xffffffffffffffffffffffffffffffffffffffffffffffffffffffff)\n      and\n      eq\n        /* \"contracts/ERC721.sol\":2305:2409  interfaceId == type(IERC721).interfaceId ||... */\n    tag_81:\n        /* \"contracts/ERC721.sol\":2305:2461  interfaceId == type(IERC721).interfaceId ||... */\n      dup1\n      tag_82\n      jumpi\n      pop\n        /* \"contracts/ERC721.sol\":2425:2461  super.supportsInterface(interfaceId) */\n      tag_83\n        /* \"contracts/ERC721.sol\":2449:2460  interfaceId */\n      dup3\n        /* \"contracts/ERC721.sol\":2425:2448  super.supportsInterface */\n      tag_84\n        /* \"contracts/ERC721.sol\":2425:2461  super.supportsInterface(interfaceId) */\n      jump\t// in\n    tag_83:\n        /* \"contracts/ERC721.sol\":2305:2461  interfaceId == type(IERC721).interfaceId ||... */\n    tag_82:\n        /* \"contracts/ERC721.sol\":2286:2461  return... */\n      swap1\n      pop\n        /* \"contracts/ERC721.sol\":2168:2468  function supportsInterface(bytes4 interfaceId) public view virtual override(ERC165, IERC165) returns (bool) {... */\n      swap2\n      swap1\n      pop\n      jump\t// out\n        /* \"contracts/ERC721.sol\":3069:3167  function name() public view virtual override returns (string memory) {... */\n    tag_27:\n        /* \"contracts/ERC721.sol\":3123:3136  string memory */\n      0x60\n        /* \"contracts/ERC721.sol\":3155:3160  _name */\n      0x01\n        /* \"contracts/ERC721.sol\":3148:3160  return _name */\n      dup1\n      sload\n      tag_86\n      swap1\n      tag_87\n      jump\t// in\n    tag_86:\n      dup1\n      0x1f\n      add\n      0x20\n      dup1\n      swap2\n      div\n      mul\n      0x20\n      add\n      mload(0x40)\n      swap1\n      dup2\n      add\n      0x40\n      mstore\n      dup1\n      swap3\n      swap2\n      swap1\n      dup2\n      dup2\n      mstore\n      0x20\n      add\n      dup3\n      dup1\n      sload\n      tag_88\n      swap1\n      tag_87\n      jump\t// in\n    tag_88:\n      dup1\n      iszero\n      tag_89\n      jumpi\n      dup1\n      0x1f\n      lt\n      tag_90\n      jumpi\n      0x0100\n      dup1\n      dup4\n      sload\n      div\n      mul\n      dup4\n      mstore\n      swap2\n      0x20\n      add\n      swap2\n      jump(tag_89)\n    tag_90:\n      dup3\n      add\n      swap2\n      swap1\n      0x00\n      mstore\n      keccak256(0x00, 0x20)\n      swap1\n    tag_91:\n      dup2\n      sload\n      dup2\n      mstore\n      swap1\n      0x01\n      add\n      swap1\n      0x20\n      add\n      dup1\n      dup4\n      gt\n      tag_91\n      jumpi\n      dup3\n      swap1\n      sub\n      0x1f\n      and\n      dup3\n      add\n      swap2\n    tag_89:\n      pop\n      pop\n      pop\n      pop\n      pop\n      swap1\n      pop\n        /* \"contracts/ERC721.sol\":3069:3167  function name() public view virtual override returns (string memory) {... */\n      swap1\n      jump\t// out\n        /* \"contracts/ERC721.sol\":4235:4402  function getApproved(uint256 tokenId) public view virtual override returns (address) {... */\n    tag_33:\n        /* \"contracts/ERC721.sol\":4311:4318  address */\n      0x00\n        /* \"contracts/ERC721.sol\":4330:4353  _requireMinted(tokenId) */\n      tag_93\n        /* \"contracts/ERC721.sol\":4345:4352  tokenId */\n      dup3\n        /* \"contracts/ERC721.sol\":4330:4344  _requireMinted */\n      tag_94\n        /* \"contracts/ERC721.sol\":4330:4353  _requireMinted(tokenId) */\n      jump\t// in\n    tag_93:\n        /* \"contracts/ERC721.sol\":4371:4386  _tokenApprovals */\n      0x05\n        /* \"contracts/ERC721.sol\":4371:4395  _tokenApprovals[tokenId] */\n      0x00\n        /* \"contracts/ERC721.sol\":4387:4394  tokenId */\n      dup4\n        /* \"contracts/ERC721.sol\":4371:4395  _tokenApprovals[tokenId] */\n      dup2\n      mstore\n      0x20\n      add\n      swap1\n      dup2\n      mstore\n      0x20\n      add\n      0x00\n      keccak256\n      0x00\n      swap1\n      sload\n      swap1\n      0x0100\n      exp\n      swap1\n      div\n      0xffffffffffffffffffffffffffffffffffffffff\n      and\n        /* \"contracts/ERC721.sol\":4364:4395  return _tokenApprovals[tokenId] */\n      swap1\n      pop\n        /* \"contracts/ERC721.sol\":4235:4402  function getApproved(uint256 tokenId) public view virtual override returns (address) {... */\n      swap2\n      swap1\n      pop\n      jump\t// out\n        /* \"contracts/ERC721.sol\":4066:4174  function approve(address to, uint256 tokenId) public virtual override {... */\n    tag_39:\n        /* \"contracts/ERC721.sol\":4146:4167  _approve(to, tokenId) */\n      tag_96\n        /* \"contracts/ERC721.sol\":4155:4157  to */\n      dup3\n        /* \"contracts/ERC721.sol\":4159:4166  tokenId */\n      dup3\n        /* \"contracts/ERC721.sol\":4146:4154  _approve */\n      tag_97\n        /* \"contracts/ERC721.sol\":4146:4167  _approve(to, tokenId) */\n      jump\t// in\n    tag_96:\n        /* \"contracts/ERC721.sol\":4066:4174  function approve(address to, uint256 tokenId) public virtual override {... */\n      pop\n      pop\n      jump\t// out\n        /* \"contracts/ERC721.sol\":4912:5046  function transferFrom(address from, address to, uint256 tokenId) public virtual override {... */\n    tag_43:\n        /* \"contracts/ERC721.sol\":5011:5039  _transfer(from, to, tokenId) */\n      tag_99\n        /* \"contracts/ERC721.sol\":5021:5025  from */\n      dup4\n        /* \"contracts/ERC721.sol\":5027:5029  to */\n      dup4\n        /* \"contracts/ERC721.sol\":5031:5038  tokenId */\n      dup4\n        /* \"contracts/ERC721.sol\":5011:5020  _transfer */\n      tag_100\n        /* \"contracts/ERC721.sol\":5011:5039  _transfer(from, to, tokenId) */\n      jump\t// in\n    tag_99:\n        /* \"contracts/ERC721.sol\":4912:5046  function transferFrom(address from, address to, uint256 tokenId) public virtual override {... */\n      pop\n      pop\n      pop\n      jump\t// out\n        /* \"contracts/ERC721.sol\":5112:5261  function safeTransferFrom(address from, address to, uint256 tokenId) public virtual override {... */\n    tag_46:\n        /* \"contracts/ERC721.sol\":5215:5254  safeTransferFrom(from, to, tokenId, \"\") */\n      tag_102\n        /* \"contracts/ERC721.sol\":5232:5236  from */\n      dup4\n        /* \"contracts/ERC721.sol\":5238:5240  to */\n      dup4\n        /* \"contracts/ERC721.sol\":5242:5249  tokenId */\n      dup4\n        /* \"contracts/ERC721.sol\":5215:5254  safeTransferFrom(from, to, tokenId, \"\") */\n      mload(0x40)\n      dup1\n      0x20\n      add\n      0x40\n      mstore\n      dup1\n      0x00\n      dup2\n      mstore\n      pop\n        /* \"contracts/ERC721.sol\":5215:5231  safeTransferFrom */\n      tag_70\n        /* \"contracts/ERC721.sol\":5215:5254  safeTransferFrom(from, to, tokenId, \"\") */\n      jump\t// in\n    tag_102:\n        /* \"contracts/ERC721.sol\":5112:5261  function safeTransferFrom(address from, address to, uint256 tokenId) public virtual override {... */\n      pop\n      pop\n      pop\n      jump\t// out\n        /* \"contracts/ERC721.sol\":2788:3007  function ownerOf(uint256 tokenId) public view virtual override returns (address) {... */\n    tag_49:\n        /* \"contracts/ERC721.sol\":2860:2867  address */\n      0x00\n        /* \"contracts/ERC721.sol\":2879:2892  address owner */\n      dup1\n        /* \"contracts/ERC721.sol\":2895:2912  _ownerOf(tokenId) */\n      tag_104\n        /* \"contracts/ERC721.sol\":2904:2911  tokenId */\n      dup4\n        /* \"contracts/ERC721.sol\":2895:2903  _ownerOf */\n      tag_105\n        /* \"contracts/ERC721.sol\":2895:2912  _ownerOf(tokenId) */\n      jump\t// in\n    tag_104:\n        /* \"contracts/ERC721.sol\":2879:2912  address owner = _ownerOf(tokenId) */\n      swap1\n      pop\n        /* \"contracts/ERC721.sol\":2947:2948  0 */\n      0x00\n        /* \"contracts/ERC721.sol\":2930:2949  owner != address(0) */\n      0xffffffffffffffffffffffffffffffffffffffff\n      and\n        /* \"contracts/ERC721.sol\":2930:2935  owner */\n      dup2\n        /* \"contracts/ERC721.sol\":2930:2949  owner != address(0) */\n      0xffffffffffffffffffffffffffffffffffffffff\n      and\n      sub\n        /* \"contracts/ERC721.sol\":2922:2978  require(owner != address(0), \"ERC721: invalid token ID\") */\n      tag_106\n      jumpi\n      mload(0x40)\n      0x08c379a000000000000000000000000000000000000000000000000000000000\n      dup2\n      mstore\n      0x04\n      add\n      tag_107\n      swap1\n      tag_108\n      jump\t// in\n    tag_107:\n      mload(0x40)\n      dup1\n      swap2\n      sub\n      swap1\n      revert\n    tag_106:\n        /* \"contracts/ERC721.sol\":2995:3000  owner */\n      dup1\n        /* \"contracts/ERC721.sol\":2988:3000  return owner */\n      swap2\n      pop\n      pop\n        /* \"contracts/ERC721.sol\":2788:3007  function ownerOf(uint256 tokenId) public view virtual override returns (address) {... */\n      swap2\n      swap1\n      pop\n      jump\t// out\n        /* \"contracts/ERC721.sol\":2527:2731  function balanceOf(address owner) public view virtual override returns (uint256) {... */\n    tag_54:\n        /* \"contracts/ERC721.sol\":2599:2606  uint256 */\n      0x00\n        /* \"contracts/ERC721.sol\":2643:2644  0 */\n      dup1\n        /* \"contracts/ERC721.sol\":2626:2645  owner != address(0) */\n      0xffffffffffffffffffffffffffffffffffffffff\n      and\n        /* \"contracts/ERC721.sol\":2626:2631  owner */\n      dup3\n        /* \"contracts/ERC721.sol\":2626:2645  owner != address(0) */\n      0xffffffffffffffffffffffffffffffffffffffff\n      and\n      sub\n        /* \"contracts/ERC721.sol\":2618:2691  require(owner != address(0), \"ERC721: address zero is not a valid owner\") */\n      tag_110\n      jumpi\n      mload(0x40)\n      0x08c379a000000000000000000000000000000000000000000000000000000000\n      dup2\n      mstore\n      0x04\n      add\n      tag_111\n      swap1\n      tag_112\n      jump\t// in\n    tag_111:\n      mload(0x40)\n      dup1\n      swap2\n      sub\n      swap1\n      revert\n    tag_110:\n        /* \"contracts/ERC721.sol\":2708:2717  _balances */\n      0x04\n        /* \"contracts/ERC721.sol\":2708:2724  _balances[owner] */\n      0x00\n        /* \"contracts/ERC721.sol\":2718:2723  owner */\n      dup4\n        /* \"contracts/ERC721.sol\":2708:2724  _balances[owner] */\n      0xffffffffffffffffffffffffffffffffffffffff\n      and\n      0xffffffffffffffffffffffffffffffffffffffff\n      and\n      dup2\n      mstore\n      0x20\n      add\n      swap1\n      dup2\n      mstore\n      0x20\n      add\n      0x00\n      keccak256\n      sload\n        /* \"contracts/ERC721.sol\":2701:2724  return _balances[owner] */\n      swap1\n      pop\n        /* \"contracts/ERC721.sol\":2527:2731  function balanceOf(address owner) public view virtual override returns (uint256) {... */\n      swap2\n      swap1\n      pop\n      jump\t// out\n        /* \"contracts/ERC721.sol\":3231:3333  function symbol() public view virtual override returns (string memory) {... */\n    tag_58:\n        /* \"contracts/ERC721.sol\":3287:3300  string memory */\n      0x60\n        /* \"contracts/ERC721.sol\":3319:3326  _symbol */\n      0x02\n        /* \"contracts/ERC721.sol\":3312:3326  return _symbol */\n      dup1\n      sload\n      tag_114\n      swap1\n      tag_87\n      jump\t// in\n    tag_114:\n      dup1\n      0x1f\n      add\n      0x20\n      dup1\n      swap2\n      div\n      mul\n      0x20\n      add\n      mload(0x40)\n      swap1\n      dup2\n      add\n      0x40\n      mstore\n      dup1\n      swap3\n      swap2\n      swap1\n      dup2\n      dup2\n      mstore\n      0x20\n      add\n      dup3\n      dup1\n      sload\n      tag_115\n      swap1\n      tag_87\n      jump\t// in\n    tag_115:\n      dup1\n      iszero\n      tag_116\n      jumpi\n      dup1\n      0x1f\n      lt\n      tag_117\n      jumpi\n      0x0100\n      dup1\n      dup4\n      sload\n      div\n      mul\n      dup4\n      mstore\n      swap2\n      0x20\n      add\n      swap2\n      jump(tag_116)\n    tag_117:\n      dup3\n      add\n      swap2\n      swap1\n      0x00\n      mstore\n      keccak256(0x00, 0x20)\n      swap1\n    tag_118:\n      dup2\n      sload\n      dup2\n      mstore\n      swap1\n      0x01\n      add\n      swap1\n      0x20\n      add\n      dup1\n      dup4\n      gt\n      tag_118\n      jumpi\n      dup3\n      swap1\n      sub\n      0x1f\n      and\n      dup3\n      add\n      swap2\n    tag_116:\n      pop\n      pop\n      pop\n      pop\n      pop\n      swap1\n      pop\n        /* \"contracts/ERC721.sol\":3231:3333  function symbol() public view virtual override returns (string memory) {... */\n      swap1\n      jump\t// out\n        /* \"contracts/ERC721.sol\":5500:5605  function safeMint(address to, uint256 tokenId) public virtual {... */\n    tag_62:\n        /* \"contracts/ERC721.sol\":5572:5598  _safeMint(to, tokenId, \"\") */\n      tag_120\n        /* \"contracts/ERC721.sol\":5582:5584  to */\n      dup3\n        /* \"contracts/ERC721.sol\":5586:5593  tokenId */\n      dup3\n        /* \"contracts/ERC721.sol\":5572:5598  _safeMint(to, tokenId, \"\") */\n      mload(0x40)\n      dup1\n      0x20\n      add\n      0x40\n      mstore\n      dup1\n      0x00\n      dup2\n      mstore\n      pop\n        /* \"contracts/ERC721.sol\":5572:5581  _safeMint */\n      tag_121\n        /* \"contracts/ERC721.sol\":5572:5598  _safeMint(to, tokenId, \"\") */\n      jump\t// in\n    tag_120:\n        /* \"contracts/ERC721.sol\":5500:5605  function safeMint(address to, uint256 tokenId) public virtual {... */\n      pop\n      pop\n      jump\t// out\n        /* \"contracts/ERC721.sol\":4469:4622  function setApprovalForAll(address operator, bool approved) public virtual override {... */\n    tag_66:\n        /* \"contracts/ERC721.sol\":4563:4615  _setApprovalForAll(_msgSender(), operator, approved) */\n      tag_123\n        /* \"contracts/ERC721.sol\":4582:4594  _msgSender() */\n      tag_124\n        /* \"contracts/ERC721.sol\":4582:4592  _msgSender */\n      tag_125\n        /* \"contracts/ERC721.sol\":4582:4594  _msgSender() */\n      jump\t// in\n    tag_124:\n        /* \"contracts/ERC721.sol\":4596:4604  operator */\n      dup4\n        /* \"contracts/ERC721.sol\":4606:4614  approved */\n      dup4\n        /* \"contracts/ERC721.sol\":4563:4581  _setApprovalForAll */\n      tag_126\n        /* \"contracts/ERC721.sol\":4563:4615  _setApprovalForAll(_msgSender(), operator, approved) */\n      jump\t// in\n    tag_123:\n        /* \"contracts/ERC721.sol\":4469:4622  function setApprovalForAll(address operator, bool approved) public virtual override {... */\n      pop\n      pop\n      jump\t// out\n        /* \"contracts/ERC721.sol\":5327:5494  function safeTransferFrom(address from, address to, uint256 tokenId, bytes memory data) public virtual override {... */\n    tag_70:\n        /* \"contracts/ERC721.sol\":5449:5487  _safeTransfer(from, to, tokenId, data) */\n      tag_128\n        /* \"contracts/ERC721.sol\":5463:5467  from */\n      dup5\n        /* \"contracts/ERC721.sol\":5469:5471  to */\n      dup5\n        /* \"contracts/ERC721.sol\":5473:5480  tokenId */\n      dup5\n        /* \"contracts/ERC721.sol\":5482:5486  data */\n      dup5\n        /* \"contracts/ERC721.sol\":5449:5462  _safeTransfer */\n      tag_129\n        /* \"contracts/ERC721.sol\":5449:5487  _safeTransfer(from, to, tokenId, data) */\n      jump\t// in\n    tag_128:\n        /* \"contracts/ERC721.sol\":5327:5494  function safeTransferFrom(address from, address to, uint256 tokenId, bytes memory data) public virtual override {... */\n      pop\n      pop\n      pop\n      pop\n      jump\t// out\n        /* \"contracts/ERC721.sol\":3399:3675  function tokenURI(uint256 tokenId) public view virtual override returns (string memory) {... */\n    tag_73:\n        /* \"contracts/ERC721.sol\":3472:3485  string memory */\n      0x60\n        /* \"contracts/ERC721.sol\":3497:3520  _requireMinted(tokenId) */\n      tag_131\n        /* \"contracts/ERC721.sol\":3512:3519  tokenId */\n      dup3\n        /* \"contracts/ERC721.sol\":3497:3511  _requireMinted */\n      tag_94\n        /* \"contracts/ERC721.sol\":3497:3520  _requireMinted(tokenId) */\n      jump\t// in\n    tag_131:\n        /* \"contracts/ERC721.sol\":3531:3552  string memory baseURI */\n      0x00\n        /* \"contracts/ERC721.sol\":3555:3565  _baseURI() */\n      tag_132\n        /* \"contracts/ERC721.sol\":3555:3563  _baseURI */\n      tag_133\n        /* \"contracts/ERC721.sol\":3555:3565  _baseURI() */\n      jump\t// in\n    tag_132:\n        /* \"contracts/ERC721.sol\":3531:3565  string memory baseURI = _baseURI() */\n      swap1\n      pop\n        /* \"contracts/ERC721.sol\":3606:3607  0 */\n      0x00\n        /* \"contracts/ERC721.sol\":3588:3595  baseURI */\n      dup2\n        /* \"contracts/ERC721.sol\":3582:3603  bytes(baseURI).length */\n      mload\n        /* \"contracts/ERC721.sol\":3582:3607  bytes(baseURI).length > 0 */\n      gt\n        /* \"contracts/ERC721.sol\":3582:3668  bytes(baseURI).length > 0 ? string(abi.encodePacked(baseURI, tokenId.toString())) : \"\" */\n      tag_134\n      jumpi\n      mload(0x40)\n      dup1\n      0x20\n      add\n      0x40\n      mstore\n      dup1\n      0x00\n      dup2\n      mstore\n      pop\n      jump(tag_135)\n    tag_134:\n        /* \"contracts/ERC721.sol\":3634:3641  baseURI */\n      dup1\n        /* \"contracts/ERC721.sol\":3643:3661  tokenId.toString() */\n      tag_136\n        /* \"contracts/ERC721.sol\":3643:3650  tokenId */\n      dup5\n        /* \"contracts/ERC721.sol\":3643:3659  tokenId.toString */\n      tag_137\n        /* \"contracts/ERC721.sol\":3643:3661  tokenId.toString() */\n      jump\t// in\n    tag_136:\n        /* \"contracts/ERC721.sol\":3617:3662  abi.encodePacked(baseURI, tokenId.toString()) */\n      add(0x20, mload(0x40))\n      tag_138\n      swap3\n      swap2\n      swap1\n      tag_139\n      jump\t// in\n    tag_138:\n      mload(0x40)\n      0x20\n      dup2\n      dup4\n      sub\n      sub\n      dup2\n      mstore\n      swap1\n      0x40\n      mstore\n        /* \"contracts/ERC721.sol\":3582:3668  bytes(baseURI).length > 0 ? string(abi.encodePacked(baseURI, tokenId.toString())) : \"\" */\n    tag_135:\n        /* \"contracts/ERC721.sol\":3575:3668  return bytes(baseURI).length > 0 ? string(abi.encodePacked(baseURI, tokenId.toString())) : \"\" */\n      swap2\n      pop\n      pop\n        /* \"contracts/ERC721.sol\":3399:3675  function tokenURI(uint256 tokenId) public view virtual override returns (string memory) {... */\n      swap2\n      swap1\n      pop\n      jump\t// out\n        /* \"contracts/ERC721.sol\":4688:4850  function isApprovedForAll(address owner, address operator) public view virtual override returns (bool) {... */\n    tag_78:\n        /* \"contracts/ERC721.sol\":4785:4789  bool */\n      0x00\n        /* \"contracts/ERC721.sol\":4808:4826  _operatorApprovals */\n      0x06\n        /* \"contracts/ERC721.sol\":4808:4833  _operatorApprovals[owner] */\n      0x00\n        /* \"contracts/ERC721.sol\":4827:4832  owner */\n      dup5\n        /* \"contracts/ERC721.sol\":4808:4833  _operatorApprovals[owner] */\n      0xffffffffffffffffffffffffffffffffffffffff\n      and\n      0xffffffffffffffffffffffffffffffffffffffff\n      and\n      dup2\n      mstore\n      0x20\n      add\n      swap1\n      dup2\n      mstore\n      0x20\n      add\n      0x00\n      keccak256\n        /* \"contracts/ERC721.sol\":4808:4843  _operatorApprovals[owner][operator] */\n      0x00\n        /* \"contracts/ERC721.sol\":4834:4842  operator */\n      dup4\n        /* \"contracts/ERC721.sol\":4808:4843  _operatorApprovals[owner][operator] */\n      0xffffffffffffffffffffffffffffffffffffffff\n      and\n      0xffffffffffffffffffffffffffffffffffffffff\n      and\n      dup2\n      mstore\n      0x20\n      add\n      swap1\n      dup2\n      mstore\n      0x20\n      add\n      0x00\n      keccak256\n      0x00\n      swap1\n      sload\n      swap1\n      0x0100\n      exp\n      swap1\n      div\n      0xff\n      and\n        /* \"contracts/ERC721.sol\":4801:4843  return _operatorApprovals[owner][operator] */\n      swap1\n      pop\n        /* \"contracts/ERC721.sol\":4688:4850  function isApprovedForAll(address owner, address operator) public view virtual override returns (bool) {... */\n      swap3\n      swap2\n      pop\n      pop\n      jump\t// out\n        /* \"node_modules/@openzeppelin/contracts/utils/introspection/ERC165.sol\":829:984  function supportsInterface(bytes4 interfaceId) public view virtual override returns (bool) {... */\n    tag_84:\n        /* \"node_modules/@openzeppelin/contracts/utils/introspection/ERC165.sol\":914:918  bool */\n      0x00\n        /* \"node_modules/@openzeppelin/contracts/utils/introspection/ERC165.sol\":952:977  type(IERC165).interfaceId */\n      0x01ffc9a700000000000000000000000000000000000000000000000000000000\n        /* \"node_modules/@openzeppelin/contracts/utils/introspection/ERC165.sol\":937:977  interfaceId == type(IERC165).interfaceId */\n      not(0xffffffffffffffffffffffffffffffffffffffffffffffffffffffff)\n      and\n        /* \"node_modules/@openzeppelin/contracts/utils/introspection/ERC165.sol\":937:948  interfaceId */\n      dup3\n        /* \"node_modules/@openzeppelin/contracts/utils/introspection/ERC165.sol\":937:977  interfaceId == type(IERC165).interfaceId */\n      not(0xffffffffffffffffffffffffffffffffffffffffffffffffffffffff)\n      and\n      eq\n        /* \"node_modules/@openzeppelin/contracts/utils/introspection/ERC165.sol\":930:977  return interfaceId == type(IERC165).interfaceId */\n      swap1\n      pop\n        /* \"node_modules/@openzeppelin/contracts/utils/introspection/ERC165.sol\":829:984  function supportsInterface(bytes4 interfaceId) public view virtual override returns (bool) {... */\n      swap2\n      swap1\n      pop\n      jump\t// out\n        /* \"contracts/ERC721.sol\":13380:13513  function _requireMinted(uint256 tokenId) internal view virtual {... */\n    tag_94:\n        /* \"contracts/ERC721.sol\":13461:13477  _exists(tokenId) */\n      tag_143\n        /* \"contracts/ERC721.sol\":13469:13476  tokenId */\n      dup2\n        /* \"contracts/ERC721.sol\":13461:13468  _exists */\n      tag_144\n        /* \"contracts/ERC721.sol\":13461:13477  _exists(tokenId) */\n      jump\t// in\n    tag_143:\n        /* \"contracts/ERC721.sol\":13453:13506  require(_exists(tokenId), \"ERC721: invalid token ID\") */\n      tag_145\n      jumpi\n      mload(0x40)\n      0x08c379a000000000000000000000000000000000000000000000000000000000\n      dup2\n      mstore\n      0x04\n      add\n      tag_146\n      swap1\n      tag_108\n      jump\t// in\n    tag_146:\n      mload(0x40)\n      dup1\n      swap2\n      sub\n      swap1\n      revert\n    tag_145:\n        /* \"contracts/ERC721.sol\":13380:13513  function _requireMinted(uint256 tokenId) internal view virtual {... */\n      pop\n      jump\t// out\n        /* \"contracts/ERC721.sol\":12712:12883  function _approve(address to, uint256 tokenId) internal virtual {... */\n    tag_97:\n        /* \"contracts/ERC721.sol\":12813:12815  to */\n      dup2\n        /* \"contracts/ERC721.sol\":12786:12801  _tokenApprovals */\n      0x05\n        /* \"contracts/ERC721.sol\":12786:12810  _tokenApprovals[tokenId] */\n      0x00\n        /* \"contracts/ERC721.sol\":12802:12809  tokenId */\n      dup4\n        /* \"contracts/ERC721.sol\":12786:12810  _tokenApprovals[tokenId] */\n      dup2\n      mstore\n      0x20\n      add\n      swap1\n      dup2\n      mstore\n      0x20\n      add\n      0x00\n      keccak256\n      0x00\n        /* \"contracts/ERC721.sol\":12786:12815  _tokenApprovals[tokenId] = to */\n      0x0100\n      exp\n      dup2\n      sload\n      dup2\n      0xffffffffffffffffffffffffffffffffffffffff\n      mul\n      not\n      and\n      swap1\n      dup4\n      0xffffffffffffffffffffffffffffffffffffffff\n      and\n      mul\n      or\n      swap1\n      sstore\n      pop\n        /* \"contracts/ERC721.sol\":12868:12875  tokenId */\n      dup1\n        /* \"contracts/ERC721.sol\":12864:12866  to */\n      dup3\n        /* \"contracts/ERC721.sol\":12830:12876  Approval(ERC721.ownerOf(tokenId), to, tokenId) */\n      0xffffffffffffffffffffffffffffffffffffffff\n      and\n        /* \"contracts/ERC721.sol\":12839:12862  ERC721.ownerOf(tokenId) */\n      tag_148\n        /* \"contracts/ERC721.sol\":12854:12861  tokenId */\n      dup4\n        /* \"contracts/ERC721.sol\":12839:12853  ERC721.ownerOf */\n      tag_49\n        /* \"contracts/ERC721.sol\":12839:12862  ERC721.ownerOf(tokenId) */\n      jump\t// in\n    tag_148:\n        /* \"contracts/ERC721.sol\":12830:12876  Approval(ERC721.ownerOf(tokenId), to, tokenId) */\n      0xffffffffffffffffffffffffffffffffffffffff\n      and\n      0x8c5be1e5ebec7d5bd14f71427d1e84f3dd0314c0f7b2291e5b200ac8c7c3b925\n      mload(0x40)\n      mload(0x40)\n      dup1\n      swap2\n      sub\n      swap1\n      log4\n        /* \"contracts/ERC721.sol\":12712:12883  function _approve(address to, uint256 tokenId) internal virtual {... */\n      pop\n      pop\n      jump\t// out\n        /* \"contracts/ERC721.sol\":11397:12600  function _transfer(address from, address to, uint256 tokenId) internal virtual {... */\n    tag_100:\n        /* \"contracts/ERC721.sol\":11521:11525  from */\n      dup3\n        /* \"contracts/ERC721.sol\":11494:11525  ERC721.ownerOf(tokenId) == from */\n      0xffffffffffffffffffffffffffffffffffffffff\n      and\n        /* \"contracts/ERC721.sol\":11494:11517  ERC721.ownerOf(tokenId) */\n      tag_150\n        /* \"contracts/ERC721.sol\":11509:11516  tokenId */\n      dup3\n        /* \"contracts/ERC721.sol\":11494:11508  ERC721.ownerOf */\n      tag_49\n        /* \"contracts/ERC721.sol\":11494:11517  ERC721.ownerOf(tokenId) */\n      jump\t// in\n    tag_150:\n        /* \"contracts/ERC721.sol\":11494:11525  ERC721.ownerOf(tokenId) == from */\n      0xffffffffffffffffffffffffffffffffffffffff\n      and\n      eq\n        /* \"contracts/ERC721.sol\":11486:11567  require(ERC721.ownerOf(tokenId) == from, \"ERC721: transfer from incorrect owner\") */\n      tag_151\n      jumpi\n      mload(0x40)\n      0x08c379a000000000000000000000000000000000000000000000000000000000\n      dup2\n      mstore\n      0x04\n      add\n      tag_152\n      swap1\n      tag_153\n      jump\t// in\n    tag_152:\n      mload(0x40)\n      dup1\n      swap2\n      sub\n      swap1\n      revert\n    tag_151:\n        /* \"contracts/ERC721.sol\":11599:11600  0 */\n      0x00\n        /* \"contracts/ERC721.sol\":11585:11601  to != address(0) */\n      0xffffffffffffffffffffffffffffffffffffffff\n      and\n        /* \"contracts/ERC721.sol\":11585:11587  to */\n      dup3\n        /* \"contracts/ERC721.sol\":11585:11601  to != address(0) */\n      0xffffffffffffffffffffffffffffffffffffffff\n      and\n      sub\n        /* \"contracts/ERC721.sol\":11577:11642  require(to != address(0), \"ERC721: transfer to the zero address\") */\n      tag_154\n      jumpi\n      mload(0x40)\n      0x08c379a000000000000000000000000000000000000000000000000000000000\n      dup2\n      mstore\n      0x04\n      add\n      tag_155\n      swap1\n      tag_156\n      jump\t// in\n    tag_155:\n      mload(0x40)\n      dup1\n      swap2\n      sub\n      swap1\n      revert\n    tag_154:\n        /* \"contracts/ERC721.sol\":11653:11695  _beforeTokenTransfer(from, to, tokenId, 1) */\n      tag_157\n        /* \"contracts/ERC721.sol\":11674:11678  from */\n      dup4\n        /* \"contracts/ERC721.sol\":11680:11682  to */\n      dup4\n        /* \"contracts/ERC721.sol\":11684:11691  tokenId */\n      dup4\n        /* \"contracts/ERC721.sol\":11693:11694  1 */\n      0x01\n        /* \"contracts/ERC721.sol\":11653:11673  _beforeTokenTransfer */\n      tag_158\n        /* \"contracts/ERC721.sol\":11653:11695  _beforeTokenTransfer(from, to, tokenId, 1) */\n      jump\t// in\n    tag_157:\n        /* \"contracts/ERC721.sol\":11822:11826  from */\n      dup3\n        /* \"contracts/ERC721.sol\":11795:11826  ERC721.ownerOf(tokenId) == from */\n      0xffffffffffffffffffffffffffffffffffffffff\n      and\n        /* \"contracts/ERC721.sol\":11795:11818  ERC721.ownerOf(tokenId) */\n      tag_159\n        /* \"contracts/ERC721.sol\":11810:11817  tokenId */\n      dup3\n        /* \"contracts/ERC721.sol\":11795:11809  ERC721.ownerOf */\n      tag_49\n        /* \"contracts/ERC721.sol\":11795:11818  ERC721.ownerOf(tokenId) */\n      jump\t// in\n    tag_159:\n        /* \"contracts/ERC721.sol\":11795:11826  ERC721.ownerOf(tokenId) == from */\n      0xffffffffffffffffffffffffffffffffffffffff\n      and\n      eq\n        /* \"contracts/ERC721.sol\":11787:11868  require(ERC721.ownerOf(tokenId) == from, \"ERC721: transfer from incorrect owner\") */\n      tag_160\n      jumpi\n      mload(0x40)\n      0x08c379a000000000000000000000000000000000000000000000000000000000\n      dup2\n      mstore\n      0x04\n      add\n      tag_161\n      swap1\n      tag_153\n      jump\t// in\n    tag_161:\n      mload(0x40)\n      dup1\n      swap2\n      sub\n      swap1\n      revert\n    tag_160:\n        /* \"contracts/ERC721.sol\":11937:11952  _tokenApprovals */\n      0x05\n        /* \"contracts/ERC721.sol\":11937:11961  _tokenApprovals[tokenId] */\n      0x00\n        /* \"contracts/ERC721.sol\":11953:11960  tokenId */\n      dup3\n        /* \"contracts/ERC721.sol\":11937:11961  _tokenApprovals[tokenId] */\n      dup2\n      mstore\n      0x20\n      add\n      swap1\n      dup2\n      mstore\n      0x20\n      add\n      0x00\n      keccak256\n      0x00\n        /* \"contracts/ERC721.sol\":11930:11961  delete _tokenApprovals[tokenId] */\n      0x0100\n      exp\n      dup2\n      sload\n      swap1\n      0xffffffffffffffffffffffffffffffffffffffff\n      mul\n      not\n      and\n      swap1\n      sstore\n        /* \"contracts/ERC721.sol\":12424:12425  1 */\n      0x01\n        /* \"contracts/ERC721.sol\":12405:12414  _balances */\n      0x04\n        /* \"contracts/ERC721.sol\":12405:12420  _balances[from] */\n      0x00\n        /* \"contracts/ERC721.sol\":12415:12419  from */\n      dup6\n        /* \"contracts/ERC721.sol\":12405:12420  _balances[from] */\n      0xffffffffffffffffffffffffffffffffffffffff\n      and\n      0xffffffffffffffffffffffffffffffffffffffff\n      and\n      dup2\n      mstore\n      0x20\n      add\n      swap1\n      dup2\n      mstore\n      0x20\n      add\n      0x00\n      keccak256\n      0x00\n        /* \"contracts/ERC721.sol\":12405:12425  _balances[from] -= 1 */\n      dup3\n      dup3\n      sload\n      sub\n      swap3\n      pop\n      pop\n      dup2\n      swap1\n      sstore\n      pop\n        /* \"contracts/ERC721.sol\":12456:12457  1 */\n      0x01\n        /* \"contracts/ERC721.sol\":12439:12448  _balances */\n      0x04\n        /* \"contracts/ERC721.sol\":12439:12452  _balances[to] */\n      0x00\n        /* \"contracts/ERC721.sol\":12449:12451  to */\n      dup5\n        /* \"contracts/ERC721.sol\":12439:12452  _balances[to] */\n      0xffffffffffffffffffffffffffffffffffffffff\n      and\n      0xffffffffffffffffffffffffffffffffffffffff\n      and\n      dup2\n      mstore\n      0x20\n      add\n      swap1\n      dup2\n      mstore\n      0x20\n      add\n      0x00\n      keccak256\n      0x00\n        /* \"contracts/ERC721.sol\":12439:12457  _balances[to] += 1 */\n      dup3\n      dup3\n      sload\n      add\n      swap3\n      pop\n      pop\n      dup2\n      swap1\n      sstore\n      pop\n        /* \"contracts/ERC721.sol\":12496:12498  to */\n      dup2\n        /* \"contracts/ERC721.sol\":12477:12484  _owners */\n      0x03\n        /* \"contracts/ERC721.sol\":12477:12493  _owners[tokenId] */\n      0x00\n        /* \"contracts/ERC721.sol\":12485:12492  tokenId */\n      dup4\n        /* \"contracts/ERC721.sol\":12477:12493  _owners[tokenId] */\n      dup2\n      mstore\n      0x20\n      add\n      swap1\n      dup2\n      mstore\n      0x20\n      add\n      0x00\n      keccak256\n      0x00\n        /* \"contracts/ERC721.sol\":12477:12498  _owners[tokenId] = to */\n      0x0100\n      exp\n      dup2\n      sload\n      dup2\n      0xffffffffffffffffffffffffffffffffffffffff\n      mul\n      not\n      and\n      swap1\n      dup4\n      0xffffffffffffffffffffffffffffffffffffffff\n      and\n      mul\n      or\n      swap1\n      sstore\n      pop\n        /* \"contracts/ERC721.sol\":12533:12540  tokenId */\n      dup1\n        /* \"contracts/ERC721.sol\":12529:12531  to */\n      dup3\n        /* \"contracts/ERC721.sol\":12514:12541  Transfer(from, to, tokenId) */\n      0xffffffffffffffffffffffffffffffffffffffff\n      and\n        /* \"contracts/ERC721.sol\":12523:12527  from */\n      dup5\n        /* \"contracts/ERC721.sol\":12514:12541  Transfer(from, to, tokenId) */\n      0xffffffffffffffffffffffffffffffffffffffff\n      and\n      0xddf252ad1be2c89b69c2b068fc378daa952ba7f163c4a11628f55a4df523b3ef\n      mload(0x40)\n      mload(0x40)\n      dup1\n      swap2\n      sub\n      swap1\n      log4\n        /* \"contracts/ERC721.sol\":12552:12593  _afterTokenTransfer(from, to, tokenId, 1) */\n      tag_162\n        /* \"contracts/ERC721.sol\":12572:12576  from */\n      dup4\n        /* \"contracts/ERC721.sol\":12578:12580  to */\n      dup4\n        /* \"contracts/ERC721.sol\":12582:12589  tokenId */\n      dup4\n        /* \"contracts/ERC721.sol\":12591:12592  1 */\n      0x01\n        /* \"contracts/ERC721.sol\":12552:12571  _afterTokenTransfer */\n      tag_163\n        /* \"contracts/ERC721.sol\":12552:12593  _afterTokenTransfer(from, to, tokenId, 1) */\n      jump\t// in\n    tag_162:\n        /* \"contracts/ERC721.sol\":11397:12600  function _transfer(address from, address to, uint256 tokenId) internal virtual {... */\n      pop\n      pop\n      pop\n      jump\t// out\n        /* \"contracts/ERC721.sol\":6842:6957  function _ownerOf(uint256 tokenId) internal view virtual returns (address) {... */\n    tag_105:\n        /* \"contracts/ERC721.sol\":6908:6915  address */\n      0x00\n        /* \"contracts/ERC721.sol\":6934:6941  _owners */\n      0x03\n        /* \"contracts/ERC721.sol\":6934:6950  _owners[tokenId] */\n      0x00\n        /* \"contracts/ERC721.sol\":6942:6949  tokenId */\n      dup4\n        /* \"contracts/ERC721.sol\":6934:6950  _owners[tokenId] */\n      dup2\n      mstore\n      0x20\n      add\n      swap1\n      dup2\n      mstore\n      0x20\n      add\n      0x00\n      keccak256\n      0x00\n      swap1\n      sload\n      swap1\n      0x0100\n      exp\n      swap1\n      div\n      0xffffffffffffffffffffffffffffffffffffffff\n      and\n        /* \"contracts/ERC721.sol\":6927:6950  return _owners[tokenId] */\n      swap1\n      pop\n        /* \"contracts/ERC721.sol\":6842:6957  function _ownerOf(uint256 tokenId) internal view virtual returns (address) {... */\n      swap2\n      swap1\n      pop\n      jump\t// out\n        /* \"contracts/ERC721.sol\":8464:8743  function _safeMint(address to, uint256 tokenId, bytes memory data) internal virtual {... */\n    tag_121:\n        /* \"contracts/ERC721.sol\":8558:8576  _mint(to, tokenId) */\n      tag_166\n        /* \"contracts/ERC721.sol\":8564:8566  to */\n      dup4\n        /* \"contracts/ERC721.sol\":8568:8575  tokenId */\n      dup4\n        /* \"contracts/ERC721.sol\":8558:8563  _mint */\n      tag_167\n        /* \"contracts/ERC721.sol\":8558:8576  _mint(to, tokenId) */\n      jump\t// in\n    tag_166:\n        /* \"contracts/ERC721.sol\":8607:8660  _checkOnERC721Received(address(0), to, tokenId, data) */\n      tag_168\n        /* \"contracts/ERC721.sol\":8638:8639  0 */\n      0x00\n        /* \"contracts/ERC721.sol\":8642:8644  to */\n      dup5\n        /* \"contracts/ERC721.sol\":8646:8653  tokenId */\n      dup5\n        /* \"contracts/ERC721.sol\":8655:8659  data */\n      dup5\n        /* \"contracts/ERC721.sol\":8607:8629  _checkOnERC721Received */\n      tag_169\n        /* \"contracts/ERC721.sol\":8607:8660  _checkOnERC721Received(address(0), to, tokenId, data) */\n      jump\t// in\n    tag_168:\n        /* \"contracts/ERC721.sol\":8586:8736  require(... */\n      tag_170\n      jumpi\n      mload(0x40)\n      0x08c379a000000000000000000000000000000000000000000000000000000000\n      dup2\n      mstore\n      0x04\n      add\n      tag_171\n      swap1\n      tag_172\n      jump\t// in\n    tag_171:\n      mload(0x40)\n      dup1\n      swap2\n      sub\n      swap1\n      revert\n    tag_170:\n        /* \"contracts/ERC721.sol\":8464:8743  function _safeMint(address to, uint256 tokenId, bytes memory data) internal virtual {... */\n      pop\n      pop\n      pop\n      jump\t// out\n        /* \"node_modules/@openzeppelin/contracts/utils/Context.sol\":640:736  function _msgSender() internal view virtual returns (address) {... */\n    tag_125:\n        /* \"node_modules/@openzeppelin/contracts/utils/Context.sol\":693:700  address */\n      0x00\n        /* \"node_modules/@openzeppelin/contracts/utils/Context.sol\":719:729  msg.sender */\n      caller\n        /* \"node_modules/@openzeppelin/contracts/utils/Context.sol\":712:729  return msg.sender */\n      swap1\n      pop\n        /* \"node_modules/@openzeppelin/contracts/utils/Context.sol\":640:736  function _msgSender() internal view virtual returns (address) {... */\n      swap1\n      jump\t// out\n        /* \"contracts/ERC721.sol\":13019:13296  function _setApprovalForAll(address owner, address operator, bool approved) internal virtual {... */\n    tag_126:\n        /* \"contracts/ERC721.sol\":13139:13147  operator */\n      dup2\n        /* \"contracts/ERC721.sol\":13130:13147  owner != operator */\n      0xffffffffffffffffffffffffffffffffffffffff\n      and\n        /* \"contracts/ERC721.sol\":13130:13135  owner */\n      dup4\n        /* \"contracts/ERC721.sol\":13130:13147  owner != operator */\n      0xffffffffffffffffffffffffffffffffffffffff\n      and\n      sub\n        /* \"contracts/ERC721.sol\":13122:13177  require(owner != operator, \"ERC721: approve to caller\") */\n      tag_175\n      jumpi\n      mload(0x40)\n      0x08c379a000000000000000000000000000000000000000000000000000000000\n      dup2\n      mstore\n      0x04\n      add\n      tag_176\n      swap1\n      tag_177\n      jump\t// in\n    tag_176:\n      mload(0x40)\n      dup1\n      swap2\n      sub\n      swap1\n      revert\n    tag_175:\n        /* \"contracts/ERC721.sol\":13225:13233  approved */\n      dup1\n        /* \"contracts/ERC721.sol\":13187:13205  _operatorApprovals */\n      0x06\n        /* \"contracts/ERC721.sol\":13187:13212  _operatorApprovals[owner] */\n      0x00\n        /* \"contracts/ERC721.sol\":13206:13211  owner */\n      dup6\n        /* \"contracts/ERC721.sol\":13187:13212  _operatorApprovals[owner] */\n      0xffffffffffffffffffffffffffffffffffffffff\n      and\n      0xffffffffffffffffffffffffffffffffffffffff\n      and\n      dup2\n      mstore\n      0x20\n      add\n      swap1\n      dup2\n      mstore\n      0x20\n      add\n      0x00\n      keccak256\n        /* \"contracts/ERC721.sol\":13187:13222  _operatorApprovals[owner][operator] */\n      0x00\n        /* \"contracts/ERC721.sol\":13213:13221  operator */\n      dup5\n        /* \"contracts/ERC721.sol\":13187:13222  _operatorApprovals[owner][operator] */\n      0xffffffffffffffffffffffffffffffffffffffff\n      and\n      0xffffffffffffffffffffffffffffffffffffffff\n      and\n      dup2\n      mstore\n      0x20\n      add\n      swap1\n      dup2\n      mstore\n      0x20\n      add\n      0x00\n      keccak256\n      0x00\n        /* \"contracts/ERC721.sol\":13187:13233  _operatorApprovals[owner][operator] = approved */\n      0x0100\n      exp\n      dup2\n      sload\n      dup2\n      0xff\n      mul\n      not\n      and\n      swap1\n      dup4\n      iszero\n      iszero\n      mul\n      or\n      swap1\n      sstore\n      pop\n        /* \"contracts/ERC721.sol\":13270:13278  operator */\n      dup2\n        /* \"contracts/ERC721.sol\":13248:13289  ApprovalForAll(owner, operator, approved) */\n      0xffffffffffffffffffffffffffffffffffffffff\n      and\n        /* \"contracts/ERC721.sol\":13263:13268  owner */\n      dup4\n        /* \"contracts/ERC721.sol\":13248:13289  ApprovalForAll(owner, operator, approved) */\n      0xffffffffffffffffffffffffffffffffffffffff\n      and\n      0x17307eab39ab6107e8899845ad3d59bd9653f200f220920489ca2b5937696c31\n        /* \"contracts/ERC721.sol\":13280:13288  approved */\n      dup4\n        /* \"contracts/ERC721.sol\":13248:13289  ApprovalForAll(owner, operator, approved) */\n      mload(0x40)\n      tag_178\n      swap2\n      swap1\n      tag_25\n      jump\t// in\n    tag_178:\n      mload(0x40)\n      dup1\n      swap2\n      sub\n      swap1\n      log3\n        /* \"contracts/ERC721.sol\":13019:13296  function _setApprovalForAll(address owner, address operator, bool approved) internal virtual {... */\n      pop\n      pop\n      pop\n      jump\t// out\n        /* \"contracts/ERC721.sol\":6466:6733  function _safeTransfer(address from, address to, uint256 tokenId, bytes memory data) internal virtual {... */\n    tag_129:\n        /* \"contracts/ERC721.sol\":6578:6606  _transfer(from, to, tokenId) */\n      tag_180\n        /* \"contracts/ERC721.sol\":6588:6592  from */\n      dup5\n        /* \"contracts/ERC721.sol\":6594:6596  to */\n      dup5\n        /* \"contracts/ERC721.sol\":6598:6605  tokenId */\n      dup5\n        /* \"contracts/ERC721.sol\":6578:6587  _transfer */\n      tag_100\n        /* \"contracts/ERC721.sol\":6578:6606  _transfer(from, to, tokenId) */\n      jump\t// in\n    tag_180:\n        /* \"contracts/ERC721.sol\":6624:6671  _checkOnERC721Received(from, to, tokenId, data) */\n      tag_181\n        /* \"contracts/ERC721.sol\":6647:6651  from */\n      dup5\n        /* \"contracts/ERC721.sol\":6653:6655  to */\n      dup5\n        /* \"contracts/ERC721.sol\":6657:6664  tokenId */\n      dup5\n        /* \"contracts/ERC721.sol\":6666:6670  data */\n      dup5\n        /* \"contracts/ERC721.sol\":6624:6646  _checkOnERC721Received */\n      tag_169\n        /* \"contracts/ERC721.sol\":6624:6671  _checkOnERC721Received(from, to, tokenId, data) */\n      jump\t// in\n    tag_181:\n        /* \"contracts/ERC721.sol\":6616:6726  require(_checkOnERC721Received(from, to, tokenId, data), \"ERC721: transfer to non ERC721Receiver implementer\") */\n      tag_182\n      jumpi\n      mload(0x40)\n      0x08c379a000000000000000000000000000000000000000000000000000000000\n      dup2\n      mstore\n      0x04\n      add\n      tag_183\n      swap1\n      tag_172\n      jump\t// in\n    tag_183:\n      mload(0x40)\n      dup1\n      swap2\n      sub\n      swap1\n      revert\n    tag_182:\n        /* \"contracts/ERC721.sol\":6466:6733  function _safeTransfer(address from, address to, uint256 tokenId, bytes memory data) internal virtual {... */\n      pop\n      pop\n      pop\n      pop\n      jump\t// out\n        /* \"contracts/ERC721.sol\":3917:4009  function _baseURI() internal view virtual returns (string memory) {... */\n    tag_133:\n        /* \"contracts/ERC721.sol\":3968:3981  string memory */\n      0x60\n        /* \"contracts/ERC721.sol\":3993:4002  return \"\" */\n      mload(0x40)\n      dup1\n      0x20\n      add\n      0x40\n      mstore\n      dup1\n      0x00\n      dup2\n      mstore\n      pop\n      swap1\n      pop\n        /* \"contracts/ERC721.sol\":3917:4009  function _baseURI() internal view virtual returns (string memory) {... */\n      swap1\n      jump\t// out\n        /* \"node_modules/@openzeppelin/contracts/utils/Strings.sol\":447:1143  function toString(uint256 value) internal pure returns (string memory) {... */\n    tag_137:\n        /* \"node_modules/@openzeppelin/contracts/utils/Strings.sol\":503:516  string memory */\n      0x60\n        /* \"node_modules/@openzeppelin/contracts/utils/Strings.sol\":552:566  uint256 length */\n      0x00\n        /* \"node_modules/@openzeppelin/contracts/utils/Strings.sol\":589:590  1 */\n      0x01\n        /* \"node_modules/@openzeppelin/contracts/utils/Strings.sol\":569:586  Math.log10(value) */\n      tag_186\n        /* \"node_modules/@openzeppelin/contracts/utils/Strings.sol\":580:585  value */\n      dup5\n        /* \"node_modules/@openzeppelin/contracts/utils/Strings.sol\":569:579  Math.log10 */\n      tag_187\n        /* \"node_modules/@openzeppelin/contracts/utils/Strings.sol\":569:586  Math.log10(value) */\n      jump\t// in\n    tag_186:\n        /* \"node_modules/@openzeppelin/contracts/utils/Strings.sol\":569:590  Math.log10(value) + 1 */\n      add\n        /* \"node_modules/@openzeppelin/contracts/utils/Strings.sol\":552:590  uint256 length = Math.log10(value) + 1 */\n      swap1\n      pop\n        /* \"node_modules/@openzeppelin/contracts/utils/Strings.sol\":604:624  string memory buffer */\n      0x00\n        /* \"node_modules/@openzeppelin/contracts/utils/Strings.sol\":638:644  length */\n      dup2\n        /* \"node_modules/@openzeppelin/contracts/utils/Strings.sol\":627:645  new string(length) */\n      0xffffffffffffffff\n      dup2\n      gt\n      iszero\n      tag_188\n      jumpi\n      tag_189\n      tag_190\n      jump\t// in\n    tag_189:\n    tag_188:\n      mload(0x40)\n      swap1\n      dup1\n      dup3\n      mstore\n      dup1\n      0x1f\n      add\n      not(0x1f)\n      and\n      0x20\n      add\n      dup3\n      add\n      0x40\n      mstore\n      dup1\n      iszero\n      tag_191\n      jumpi\n      dup2\n      0x20\n      add\n      0x01\n      dup3\n      mul\n      dup1\n      calldatasize\n      dup4\n      calldatacopy\n      dup1\n      dup3\n      add\n      swap2\n      pop\n      pop\n      swap1\n      pop\n    tag_191:\n      pop\n        /* \"node_modules/@openzeppelin/contracts/utils/Strings.sol\":604:645  string memory buffer = new string(length) */\n      swap1\n      pop\n        /* \"node_modules/@openzeppelin/contracts/utils/Strings.sol\":659:670  uint256 ptr */\n      0x00\n        /* \"node_modules/@openzeppelin/contracts/utils/Strings.sol\":785:791  length */\n      dup3\n        /* \"node_modules/@openzeppelin/contracts/utils/Strings.sol\":781:783  32 */\n      0x20\n        /* \"node_modules/@openzeppelin/contracts/utils/Strings.sol\":777:792  add(32, length) */\n      add\n        /* \"node_modules/@openzeppelin/contracts/utils/Strings.sol\":769:775  buffer */\n      dup3\n        /* \"node_modules/@openzeppelin/contracts/utils/Strings.sol\":765:793  add(buffer, add(32, length)) */\n      add\n        /* \"node_modules/@openzeppelin/contracts/utils/Strings.sol\":758:793  ptr := add(buffer, add(32, length)) */\n      swap1\n      pop\n        /* \"node_modules/@openzeppelin/contracts/utils/Strings.sol\":820:1100  while (true) {... */\n    tag_192:\n        /* \"node_modules/@openzeppelin/contracts/utils/Strings.sol\":827:831  true */\n      0x01\n        /* \"node_modules/@openzeppelin/contracts/utils/Strings.sol\":820:1100  while (true) {... */\n      iszero\n      tag_193\n      jumpi\n        /* \"node_modules/@openzeppelin/contracts/utils/Strings.sol\":851:856  ptr-- */\n      dup1\n      dup1\n      0x01\n      swap1\n      sub\n      swap2\n      pop\n      pop\n        /* \"node_modules/@openzeppelin/contracts/utils/Strings.sol\":990:998  _SYMBOLS */\n      0x3031323334353637383961626364656600000000000000000000000000000000\n        /* \"node_modules/@openzeppelin/contracts/utils/Strings.sol\":985:987  10 */\n      0x0a\n        /* \"node_modules/@openzeppelin/contracts/utils/Strings.sol\":978:983  value */\n      dup7\n        /* \"node_modules/@openzeppelin/contracts/utils/Strings.sol\":974:988  mod(value, 10) */\n      mod\n        /* \"node_modules/@openzeppelin/contracts/utils/Strings.sol\":969:999  byte(mod(value, 10), _SYMBOLS) */\n      byte\n        /* \"node_modules/@openzeppelin/contracts/utils/Strings.sol\":964:967  ptr */\n      dup2\n        /* \"node_modules/@openzeppelin/contracts/utils/Strings.sol\":956:1000  mstore8(ptr, byte(mod(value, 10), _SYMBOLS)) */\n      mstore8\n        /* \"node_modules/@openzeppelin/contracts/utils/Strings.sol\":1044:1046  10 */\n      0x0a\n        /* \"node_modules/@openzeppelin/contracts/utils/Strings.sol\":1035:1046  value /= 10 */\n      dup6\n      dup2\n      tag_194\n      jumpi\n      tag_195\n      tag_196\n      jump\t// in\n    tag_195:\n    tag_194:\n      div\n      swap5\n      pop\n        /* \"node_modules/@openzeppelin/contracts/utils/Strings.sol\":1077:1078  0 */\n      0x00\n        /* \"node_modules/@openzeppelin/contracts/utils/Strings.sol\":1068:1073  value */\n      dup6\n        /* \"node_modules/@openzeppelin/contracts/utils/Strings.sol\":1068:1078  value == 0 */\n      sub\n        /* \"node_modules/@openzeppelin/contracts/utils/Strings.sol\":820:1100  while (true) {... */\n      tag_192\n        /* \"node_modules/@openzeppelin/contracts/utils/Strings.sol\":1064:1085  if (value == 0) break */\n      jumpi\n        /* \"node_modules/@openzeppelin/contracts/utils/Strings.sol\":820:1100  while (true) {... */\n    tag_193:\n        /* \"node_modules/@openzeppelin/contracts/utils/Strings.sol\":1120:1126  buffer */\n      dup2\n        /* \"node_modules/@openzeppelin/contracts/utils/Strings.sol\":1113:1126  return buffer */\n      swap4\n      pop\n      pop\n      pop\n      pop\n        /* \"node_modules/@openzeppelin/contracts/utils/Strings.sol\":447:1143  function toString(uint256 value) internal pure returns (string memory) {... */\n      swap2\n      swap1\n      pop\n      jump\t// out\n        /* \"contracts/ERC721.sol\":7260:7386  function _exists(uint256 tokenId) internal view virtual returns (bool) {... */\n    tag_144:\n        /* \"contracts/ERC721.sol\":7325:7329  bool */\n      0x00\n        /* \"contracts/ERC721.sol\":7377:7378  0 */\n      dup1\n        /* \"contracts/ERC721.sol\":7348:7379  _ownerOf(tokenId) != address(0) */\n      0xffffffffffffffffffffffffffffffffffffffff\n      and\n        /* \"contracts/ERC721.sol\":7348:7365  _ownerOf(tokenId) */\n      tag_199\n        /* \"contracts/ERC721.sol\":7357:7364  tokenId */\n      dup4\n        /* \"contracts/ERC721.sol\":7348:7356  _ownerOf */\n      tag_105\n        /* \"contracts/ERC721.sol\":7348:7365  _ownerOf(tokenId) */\n      jump\t// in\n    tag_199:\n        /* \"contracts/ERC721.sol\":7348:7379  _ownerOf(tokenId) != address(0) */\n      0xffffffffffffffffffffffffffffffffffffffff\n      and\n      eq\n      iszero\n        /* \"contracts/ERC721.sol\":7341:7379  return _ownerOf(tokenId) != address(0) */\n      swap1\n      pop\n        /* \"contracts/ERC721.sol\":7260:7386  function _exists(uint256 tokenId) internal view virtual returns (bool) {... */\n      swap2\n      swap1\n      pop\n      jump\t// out\n        /* \"contracts/ERC721.sol\":15612:15728  function _beforeTokenTransfer(address from, address to, uint256 firstTokenId, uint256 batchSize) internal virtual {} */\n    tag_158:\n      pop\n      pop\n      pop\n      pop\n      jump\t// out\n        /* \"contracts/ERC721.sol\":16434:16549  function _afterTokenTransfer(address from, address to, uint256 firstTokenId, uint256 batchSize) internal virtual {} */\n    tag_163:\n      pop\n      pop\n      pop\n      pop\n      jump\t// out\n        /* \"contracts/ERC721.sol\":9065:9985  function _mint(address to, uint256 tokenId) internal virtual {... */\n    tag_167:\n        /* \"contracts/ERC721.sol\":9158:9159  0 */\n      0x00\n        /* \"contracts/ERC721.sol\":9144:9160  to != address(0) */\n      0xffffffffffffffffffffffffffffffffffffffff\n      and\n        /* \"contracts/ERC721.sol\":9144:9146  to */\n      dup3\n        /* \"contracts/ERC721.sol\":9144:9160  to != address(0) */\n      0xffffffffffffffffffffffffffffffffffffffff\n      and\n      sub\n        /* \"contracts/ERC721.sol\":9136:9197  require(to != address(0), \"ERC721: mint to the zero address\") */\n      tag_203\n      jumpi\n      mload(0x40)\n      0x08c379a000000000000000000000000000000000000000000000000000000000\n      dup2\n      mstore\n      0x04\n      add\n      tag_204\n      swap1\n      tag_205\n      jump\t// in\n    tag_204:\n      mload(0x40)\n      dup1\n      swap2\n      sub\n      swap1\n      revert\n    tag_203:\n        /* \"contracts/ERC721.sol\":9216:9232  _exists(tokenId) */\n      tag_206\n        /* \"contracts/ERC721.sol\":9224:9231  tokenId */\n      dup2\n        /* \"contracts/ERC721.sol\":9216:9223  _exists */\n      tag_144\n        /* \"contracts/ERC721.sol\":9216:9232  _exists(tokenId) */\n      jump\t// in\n    tag_206:\n        /* \"contracts/ERC721.sol\":9215:9232  !_exists(tokenId) */\n      iszero\n        /* \"contracts/ERC721.sol\":9207:9265  require(!_exists(tokenId), \"ERC721: token already minted\") */\n      tag_207\n      jumpi\n      mload(0x40)\n      0x08c379a000000000000000000000000000000000000000000000000000000000\n      dup2\n      mstore\n      0x04\n      add\n      tag_208\n      swap1\n      tag_209\n      jump\t// in\n    tag_208:\n      mload(0x40)\n      dup1\n      swap2\n      sub\n      swap1\n      revert\n    tag_207:\n        /* \"contracts/ERC721.sol\":9276:9324  _beforeTokenTransfer(address(0), to, tokenId, 1) */\n      tag_210\n        /* \"contracts/ERC721.sol\":9305:9306  0 */\n      0x00\n        /* \"contracts/ERC721.sol\":9309:9311  to */\n      dup4\n        /* \"contracts/ERC721.sol\":9313:9320  tokenId */\n      dup4\n        /* \"contracts/ERC721.sol\":9322:9323  1 */\n      0x01\n        /* \"contracts/ERC721.sol\":9276:9296  _beforeTokenTransfer */\n      tag_158\n        /* \"contracts/ERC721.sol\":9276:9324  _beforeTokenTransfer(address(0), to, tokenId, 1) */\n      jump\t// in\n    tag_210:\n        /* \"contracts/ERC721.sol\":9420:9436  _exists(tokenId) */\n      tag_211\n        /* \"contracts/ERC721.sol\":9428:9435  tokenId */\n      dup2\n        /* \"contracts/ERC721.sol\":9420:9427  _exists */\n      tag_144\n        /* \"contracts/ERC721.sol\":9420:9436  _exists(tokenId) */\n      jump\t// in\n    tag_211:\n        /* \"contracts/ERC721.sol\":9419:9436  !_exists(tokenId) */\n      iszero\n        /* \"contracts/ERC721.sol\":9411:9469  require(!_exists(tokenId), \"ERC721: token already minted\") */\n      tag_212\n      jumpi\n      mload(0x40)\n      0x08c379a000000000000000000000000000000000000000000000000000000000\n      dup2\n      mstore\n      0x04\n      add\n      tag_213\n      swap1\n      tag_209\n      jump\t// in\n    tag_213:\n      mload(0x40)\n      dup1\n      swap2\n      sub\n      swap1\n      revert\n    tag_212:\n        /* \"contracts/ERC721.sol\":9828:9829  1 */\n      0x01\n        /* \"contracts/ERC721.sol\":9811:9820  _balances */\n      0x04\n        /* \"contracts/ERC721.sol\":9811:9824  _balances[to] */\n      0x00\n        /* \"contracts/ERC721.sol\":9821:9823  to */\n      dup5\n        /* \"contracts/ERC721.sol\":9811:9824  _balances[to] */\n      0xffffffffffffffffffffffffffffffffffffffff\n      and\n      0xffffffffffffffffffffffffffffffffffffffff\n      and\n      dup2\n      mstore\n      0x20\n      add\n      swap1\n      dup2\n      mstore\n      0x20\n      add\n      0x00\n      keccak256\n      0x00\n        /* \"contracts/ERC721.sol\":9811:9829  _balances[to] += 1 */\n      dup3\n      dup3\n      sload\n      add\n      swap3\n      pop\n      pop\n      dup2\n      swap1\n      sstore\n      pop\n        /* \"contracts/ERC721.sol\":9869:9871  to */\n      dup2\n        /* \"contracts/ERC721.sol\":9850:9857  _owners */\n      0x03\n        /* \"contracts/ERC721.sol\":9850:9866  _owners[tokenId] */\n      0x00\n        /* \"contracts/ERC721.sol\":9858:9865  tokenId */\n      dup4\n        /* \"contracts/ERC721.sol\":9850:9866  _owners[tokenId] */\n      dup2\n      mstore\n      0x20\n      add\n      swap1\n      dup2\n      mstore\n      0x20\n      add\n      0x00\n      keccak256\n      0x00\n        /* \"contracts/ERC721.sol\":9850:9871  _owners[tokenId] = to */\n      0x0100\n      exp\n      dup2\n      sload\n      dup2\n      0xffffffffffffffffffffffffffffffffffffffff\n      mul\n      not\n      and\n      swap1\n      dup4\n      0xffffffffffffffffffffffffffffffffffffffff\n      and\n      mul\n      or\n      swap1\n      sstore\n      pop\n        /* \"contracts/ERC721.sol\":9912:9919  tokenId */\n      dup1\n        /* \"contracts/ERC721.sol\":9908:9910  to */\n      dup3\n        /* \"contracts/ERC721.sol\":9887:9920  Transfer(address(0), to, tokenId) */\n      0xffffffffffffffffffffffffffffffffffffffff\n      and\n        /* \"contracts/ERC721.sol\":9904:9905  0 */\n      0x00\n        /* \"contracts/ERC721.sol\":9887:9920  Transfer(address(0), to, tokenId) */\n      0xffffffffffffffffffffffffffffffffffffffff\n      and\n      0xddf252ad1be2c89b69c2b068fc378daa952ba7f163c4a11628f55a4df523b3ef\n      mload(0x40)\n      mload(0x40)\n      dup1\n      swap2\n      sub\n      swap1\n      log4\n        /* \"contracts/ERC721.sol\":9931:9978  _afterTokenTransfer(address(0), to, tokenId, 1) */\n      tag_214\n        /* \"contracts/ERC721.sol\":9959:9960  0 */\n      0x00\n        /* \"contracts/ERC721.sol\":9963:9965  to */\n      dup4\n        /* \"contracts/ERC721.sol\":9967:9974  tokenId */\n      dup4\n        /* \"contracts/ERC721.sol\":9976:9977  1 */\n      0x01\n        /* \"contracts/ERC721.sol\":9931:9950  _afterTokenTransfer */\n      tag_163\n        /* \"contracts/ERC721.sol\":9931:9978  _afterTokenTransfer(address(0), to, tokenId, 1) */\n      jump\t// in\n    tag_214:\n        /* \"contracts/ERC721.sol\":9065:9985  function _mint(address to, uint256 tokenId) internal virtual {... */\n      pop\n      pop\n      jump\t// out\n        /* \"contracts/ERC721.sol\":14065:14896  function _checkOnERC721Received(... */\n    tag_169:\n        /* \"contracts/ERC721.sol\":14214:14218  bool */\n      0x00\n        /* \"contracts/ERC721.sol\":14234:14249  to.isContract() */\n      tag_216\n        /* \"contracts/ERC721.sol\":14234:14236  to */\n      dup5\n        /* \"contracts/ERC721.sol\":14234:14247  to.isContract */\n      0xffffffffffffffffffffffffffffffffffffffff\n      and\n      tag_217\n        /* \"contracts/ERC721.sol\":14234:14249  to.isContract() */\n      jump\t// in\n    tag_216:\n        /* \"contracts/ERC721.sol\":14230:14890  if (to.isContract()) {... */\n      iszero\n      tag_218\n      jumpi\n        /* \"contracts/ERC721.sol\":14285:14287  to */\n      dup4\n        /* \"contracts/ERC721.sol\":14269:14305  IERC721Receiver(to).onERC721Received */\n      0xffffffffffffffffffffffffffffffffffffffff\n      and\n      0x150b7a02\n        /* \"contracts/ERC721.sol\":14306:14318  _msgSender() */\n      tag_219\n        /* \"contracts/ERC721.sol\":14306:14316  _msgSender */\n      tag_125\n        /* \"contracts/ERC721.sol\":14306:14318  _msgSender() */\n      jump\t// in\n    tag_219:\n        /* \"contracts/ERC721.sol\":14320:14324  from */\n      dup8\n        /* \"contracts/ERC721.sol\":14326:14333  tokenId */\n      dup7\n        /* \"contracts/ERC721.sol\":14335:14339  data */\n      dup7\n        /* \"contracts/ERC721.sol\":14269:14340  IERC721Receiver(to).onERC721Received(_msgSender(), from, tokenId, data) */\n      mload(0x40)\n      dup6\n      0xffffffff\n      and\n      0xe0\n      shl\n      dup2\n      mstore\n      0x04\n      add\n      tag_220\n      swap5\n      swap4\n      swap3\n      swap2\n      swap1\n      tag_221\n      jump\t// in\n    tag_220:\n      0x20\n      mload(0x40)\n      dup1\n      dup4\n      sub\n      dup2\n      0x00\n      dup8\n      gas\n      call\n      swap3\n      pop\n      pop\n      pop\n      dup1\n      iszero\n      tag_222\n      jumpi\n      pop\n      mload(0x40)\n      returndatasize\n      not(0x1f)\n      0x1f\n      dup3\n      add\n      and\n      dup3\n      add\n      dup1\n      0x40\n      mstore\n      pop\n      dup2\n      add\n      swap1\n      tag_223\n      swap2\n      swap1\n      tag_224\n      jump\t// in\n    tag_223:\n      0x01\n    tag_222:\n        /* \"contracts/ERC721.sol\":14265:14838  try IERC721Receiver(to).onERC721Received(_msgSender(), from, tokenId, data) returns (bytes4 retval) {... */\n      tag_225\n      jumpi\n      returndatasize\n      dup1\n      0x00\n      dup2\n      eq\n      tag_230\n      jumpi\n      mload(0x40)\n      swap2\n      pop\n      and(add(returndatasize, 0x3f), not(0x1f))\n      dup3\n      add\n      0x40\n      mstore\n      returndatasize\n      dup3\n      mstore\n      returndatasize\n      0x00\n      0x20\n      dup5\n      add\n      returndatacopy\n      jump(tag_229)\n    tag_230:\n      0x60\n      swap2\n      pop\n    tag_229:\n      pop\n        /* \"contracts/ERC721.sol\":14524:14525  0 */\n      0x00\n        /* \"contracts/ERC721.sol\":14507:14513  reason */\n      dup2\n        /* \"contracts/ERC721.sol\":14507:14520  reason.length */\n      mload\n        /* \"contracts/ERC721.sol\":14507:14525  reason.length == 0 */\n      sub\n        /* \"contracts/ERC721.sol\":14503:14824  if (reason.length == 0) {... */\n      tag_231\n      jumpi\n        /* \"contracts/ERC721.sol\":14549:14609  revert(\"ERC721: transfer to non ERC721Receiver implementer\") */\n      mload(0x40)\n      0x08c379a000000000000000000000000000000000000000000000000000000000\n      dup2\n      mstore\n      0x04\n      add\n      tag_232\n      swap1\n      tag_172\n      jump\t// in\n    tag_232:\n      mload(0x40)\n      dup1\n      swap2\n      sub\n      swap1\n      revert\n        /* \"contracts/ERC721.sol\":14503:14824  if (reason.length == 0) {... */\n    tag_231:\n        /* \"contracts/ERC721.sol\":14776:14782  reason */\n      dup1\n        /* \"contracts/ERC721.sol\":14770:14783  mload(reason) */\n      mload\n        /* \"contracts/ERC721.sol\":14761:14767  reason */\n      dup2\n        /* \"contracts/ERC721.sol\":14757:14759  32 */\n      0x20\n        /* \"contracts/ERC721.sol\":14753:14768  add(32, reason) */\n      add\n        /* \"contracts/ERC721.sol\":14746:14784  revert(add(32, reason), mload(reason)) */\n      revert\n        /* \"contracts/ERC721.sol\":14265:14838  try IERC721Receiver(to).onERC721Received(_msgSender(), from, tokenId, data) returns (bytes4 retval) {... */\n    tag_225:\n        /* \"contracts/ERC721.sol\":14400:14441  IERC721Receiver.onERC721Received.selector */\n      shl(0xe0, 0x150b7a02)\n        /* \"contracts/ERC721.sol\":14390:14441  retval == IERC721Receiver.onERC721Received.selector */\n      not(0xffffffffffffffffffffffffffffffffffffffffffffffffffffffff)\n      and\n        /* \"contracts/ERC721.sol\":14390:14396  retval */\n      dup2\n        /* \"contracts/ERC721.sol\":14390:14441  retval == IERC721Receiver.onERC721Received.selector */\n      not(0xffffffffffffffffffffffffffffffffffffffffffffffffffffffff)\n      and\n      eq\n        /* \"contracts/ERC721.sol\":14383:14441  return retval == IERC721Receiver.onERC721Received.selector */\n      swap2\n      pop\n      pop\n      jump(tag_215)\n        /* \"contracts/ERC721.sol\":14230:14890  if (to.isContract()) {... */\n    tag_218:\n        /* \"contracts/ERC721.sol\":14875:14879  true */\n      0x01\n        /* \"contracts/ERC721.sol\":14868:14879  return true */\n      swap1\n      pop\n        /* \"contracts/ERC721.sol\":14065:14896  function _checkOnERC721Received(... */\n    tag_215:\n      swap5\n      swap4\n      pop\n      pop\n      pop\n      pop\n      jump\t// out\n        /* \"node_modules/@openzeppelin/contracts/utils/math/Math.sol\":10139:11055  function log10(uint256 value) internal pure returns (uint256) {... */\n    tag_187:\n        /* \"node_modules/@openzeppelin/contracts/utils/math/Math.sol\":10192:10199  uint256 */\n      0x00\n        /* \"node_modules/@openzeppelin/contracts/utils/math/Math.sol\":10211:10225  uint256 result */\n      dup1\n        /* \"node_modules/@openzeppelin/contracts/utils/math/Math.sol\":10228:10229  0 */\n      0x00\n        /* \"node_modules/@openzeppelin/contracts/utils/math/Math.sol\":10211:10229  uint256 result = 0 */\n      swap1\n      pop\n        /* \"node_modules/@openzeppelin/contracts/utils/math/Math.sol\":10276:10284  10 ** 64 */\n      0x184f03e93ff9f4daa797ed6e38ed64bf6a1f010000000000000000\n        /* \"node_modules/@openzeppelin/contracts/utils/math/Math.sol\":10267:10272  value */\n      dup4\n        /* \"node_modules/@openzeppelin/contracts/utils/math/Math.sol\":10267:10284  value >= 10 ** 64 */\n      lt\n        /* \"node_modules/@openzeppelin/contracts/utils/math/Math.sol\":10263:10366  if (value >= 10 ** 64) {... */\n      tag_237\n      jumpi\n        /* \"node_modules/@openzeppelin/contracts/utils/math/Math.sol\":10313:10321  10 ** 64 */\n      0x184f03e93ff9f4daa797ed6e38ed64bf6a1f010000000000000000\n        /* \"node_modules/@openzeppelin/contracts/utils/math/Math.sol\":10304:10321  value /= 10 ** 64 */\n      dup4\n      dup2\n      tag_238\n      jumpi\n      tag_239\n      tag_196\n      jump\t// in\n    tag_239:\n    tag_238:\n      div\n      swap3\n      pop\n        /* \"node_modules/@openzeppelin/contracts/utils/math/Math.sol\":10349:10351  64 */\n      0x40\n        /* \"node_modules/@openzeppelin/contracts/utils/math/Math.sol\":10339:10351  result += 64 */\n      dup2\n      add\n      swap1\n      pop\n        /* \"node_modules/@openzeppelin/contracts/utils/math/Math.sol\":10263:10366  if (value >= 10 ** 64) {... */\n    tag_237:\n        /* \"node_modules/@openzeppelin/contracts/utils/math/Math.sol\":10392:10400  10 ** 32 */\n      0x04ee2d6d415b85acef8100000000\n        /* \"node_modules/@openzeppelin/contracts/utils/math/Math.sol\":10383:10388  value */\n      dup4\n        /* \"node_modules/@openzeppelin/contracts/utils/math/Math.sol\":10383:10400  value >= 10 ** 32 */\n      lt\n        /* \"node_modules/@openzeppelin/contracts/utils/math/Math.sol\":10379:10482  if (value >= 10 ** 32) {... */\n      tag_240\n      jumpi\n        /* \"node_modules/@openzeppelin/contracts/utils/math/Math.sol\":10429:10437  10 ** 32 */\n      0x04ee2d6d415b85acef8100000000\n        /* \"node_modules/@openzeppelin/contracts/utils/math/Math.sol\":10420:10437  value /= 10 ** 32 */\n      dup4\n      dup2\n      tag_241\n      jumpi\n      tag_242\n      tag_196\n      jump\t// in\n    tag_242:\n    tag_241:\n      div\n      swap3\n      pop\n        /* \"node_modules/@openzeppelin/contracts/utils/math/Math.sol\":10465:10467  32 */\n      0x20\n        /* \"node_modules/@openzeppelin/contracts/utils/math/Math.sol\":10455:10467  result += 32 */\n      dup2\n      add\n      swap1\n      pop\n        /* \"node_modules/@openzeppelin/contracts/utils/math/Math.sol\":10379:10482  if (value >= 10 ** 32) {... */\n    tag_240:\n        /* \"node_modules/@openzeppelin/contracts/utils/math/Math.sol\":10508:10516  10 ** 16 */\n      0x2386f26fc10000\n        /* \"node_modules/@openzeppelin/contracts/utils/math/Math.sol\":10499:10504  value */\n      dup4\n        /* \"node_modules/@openzeppelin/contracts/utils/math/Math.sol\":10499:10516  value >= 10 ** 16 */\n      lt\n        /* \"node_modules/@openzeppelin/contracts/utils/math/Math.sol\":10495:10598  if (value >= 10 ** 16) {... */\n      tag_243\n      jumpi\n        /* \"node_modules/@openzeppelin/contracts/utils/math/Math.sol\":10545:10553  10 ** 16 */\n      0x2386f26fc10000\n        /* \"node_modules/@openzeppelin/contracts/utils/math/Math.sol\":10536:10553  value /= 10 ** 16 */\n      dup4\n      dup2\n      tag_244\n      jumpi\n      tag_245\n      tag_196\n      jump\t// in\n    tag_245:\n    tag_244:\n      div\n      swap3\n      pop\n        /* \"node_modules/@openzeppelin/contracts/utils/math/Math.sol\":10581:10583  16 */\n      0x10\n        /* \"node_modules/@openzeppelin/contracts/utils/math/Math.sol\":10571:10583  result += 16 */\n      dup2\n      add\n      swap1\n      pop\n        /* \"node_modules/@openzeppelin/contracts/utils/math/Math.sol\":10495:10598  if (value >= 10 ** 16) {... */\n    tag_243:\n        /* \"node_modules/@openzeppelin/contracts/utils/math/Math.sol\":10624:10631  10 ** 8 */\n      0x05f5e100\n        /* \"node_modules/@openzeppelin/contracts/utils/math/Math.sol\":10615:10620  value */\n      dup4\n        /* \"node_modules/@openzeppelin/contracts/utils/math/Math.sol\":10615:10631  value >= 10 ** 8 */\n      lt\n        /* \"node_modules/@openzeppelin/contracts/utils/math/Math.sol\":10611:10711  if (value >= 10 ** 8) {... */\n      tag_246\n      jumpi\n        /* \"node_modules/@openzeppelin/contracts/utils/math/Math.sol\":10660:10667  10 ** 8 */\n      0x05f5e100\n        /* \"node_modules/@openzeppelin/contracts/utils/math/Math.sol\":10651:10667  value /= 10 ** 8 */\n      dup4\n      dup2\n      tag_247\n      jumpi\n      tag_248\n      tag_196\n      jump\t// in\n    tag_248:\n    tag_247:\n      div\n      swap3\n      pop\n        /* \"node_modules/@openzeppelin/contracts/utils/math/Math.sol\":10695:10696  8 */\n      0x08\n        /* \"node_modules/@openzeppelin/contracts/utils/math/Math.sol\":10685:10696  result += 8 */\n      dup2\n      add\n      swap1\n      pop\n        /* \"node_modules/@openzeppelin/contracts/utils/math/Math.sol\":10611:10711  if (value >= 10 ** 8) {... */\n    tag_246:\n        /* \"node_modules/@openzeppelin/contracts/utils/math/Math.sol\":10737:10744  10 ** 4 */\n      0x2710\n        /* \"node_modules/@openzeppelin/contracts/utils/math/Math.sol\":10728:10733  value */\n      dup4\n        /* \"node_modules/@openzeppelin/contracts/utils/math/Math.sol\":10728:10744  value >= 10 ** 4 */\n      lt\n        /* \"node_modules/@openzeppelin/contracts/utils/math/Math.sol\":10724:10824  if (value >= 10 ** 4) {... */\n      tag_249\n      jumpi\n        /* \"node_modules/@openzeppelin/contracts/utils/math/Math.sol\":10773:10780  10 ** 4 */\n      0x2710\n        /* \"node_modules/@openzeppelin/contracts/utils/math/Math.sol\":10764:10780  value /= 10 ** 4 */\n      dup4\n      dup2\n      tag_250\n      jumpi\n      tag_251\n      tag_196\n      jump\t// in\n    tag_251:\n    tag_250:\n      div\n      swap3\n      pop\n        /* \"node_modules/@openzeppelin/contracts/utils/math/Math.sol\":10808:10809  4 */\n      0x04\n        /* \"node_modules/@openzeppelin/contracts/utils/math/Math.sol\":10798:10809  result += 4 */\n      dup2\n      add\n      swap1\n      pop\n        /* \"node_modules/@openzeppelin/contracts/utils/math/Math.sol\":10724:10824  if (value >= 10 ** 4) {... */\n    tag_249:\n        /* \"node_modules/@openzeppelin/contracts/utils/math/Math.sol\":10850:10857  10 ** 2 */\n      0x64\n        /* \"node_modules/@openzeppelin/contracts/utils/math/Math.sol\":10841:10846  value */\n      dup4\n        /* \"node_modules/@openzeppelin/contracts/utils/math/Math.sol\":10841:10857  value >= 10 ** 2 */\n      lt\n        /* \"node_modules/@openzeppelin/contracts/utils/math/Math.sol\":10837:10937  if (value >= 10 ** 2) {... */\n      tag_252\n      jumpi\n        /* \"node_modules/@openzeppelin/contracts/utils/math/Math.sol\":10886:10893  10 ** 2 */\n      0x64\n        /* \"node_modules/@openzeppelin/contracts/utils/math/Math.sol\":10877:10893  value /= 10 ** 2 */\n      dup4\n      dup2\n      tag_253\n      jumpi\n      tag_254\n      tag_196\n      jump\t// in\n    tag_254:\n    tag_253:\n      div\n      swap3\n      pop\n        /* \"node_modules/@openzeppelin/contracts/utils/math/Math.sol\":10921:10922  2 */\n      0x02\n        /* \"node_modules/@openzeppelin/contracts/utils/math/Math.sol\":10911:10922  result += 2 */\n      dup2\n      add\n      swap1\n      pop\n        /* \"node_modules/@openzeppelin/contracts/utils/math/Math.sol\":10837:10937  if (value >= 10 ** 2) {... */\n    tag_252:\n        /* \"node_modules/@openzeppelin/contracts/utils/math/Math.sol\":10963:10970  10 ** 1 */\n      0x0a\n        /* \"node_modules/@openzeppelin/contracts/utils/math/Math.sol\":10954:10959  value */\n      dup4\n        /* \"node_modules/@openzeppelin/contracts/utils/math/Math.sol\":10954:10970  value >= 10 ** 1 */\n      lt\n        /* \"node_modules/@openzeppelin/contracts/utils/math/Math.sol\":10950:11016  if (value >= 10 ** 1) {... */\n      tag_255\n      jumpi\n        /* \"node_modules/@openzeppelin/contracts/utils/math/Math.sol\":11000:11001  1 */\n      0x01\n        /* \"node_modules/@openzeppelin/contracts/utils/math/Math.sol\":10990:11001  result += 1 */\n      dup2\n      add\n      swap1\n      pop\n        /* \"node_modules/@openzeppelin/contracts/utils/math/Math.sol\":10950:11016  if (value >= 10 ** 1) {... */\n    tag_255:\n        /* \"node_modules/@openzeppelin/contracts/utils/math/Math.sol\":11042:11048  result */\n      dup1\n        /* \"node_modules/@openzeppelin/contracts/utils/math/Math.sol\":11035:11048  return result */\n      swap2\n      pop\n      pop\n        /* \"node_modules/@openzeppelin/contracts/utils/math/Math.sol\":10139:11055  function log10(uint256 value) internal pure returns (uint256) {... */\n      swap2\n      swap1\n      pop\n      jump\t// out\n        /* \"node_modules/@openzeppelin/contracts/utils/Address.sol\":1412:1732  function isContract(address account) internal view returns (bool) {... */\n    tag_217:\n        /* \"node_modules/@openzeppelin/contracts/utils/Address.sol\":1472:1476  bool */\n      0x00\n        /* \"node_modules/@openzeppelin/contracts/utils/Address.sol\":1724:1725  0 */\n      dup1\n        /* \"node_modules/@openzeppelin/contracts/utils/Address.sol\":1702:1709  account */\n      dup3\n        /* \"node_modules/@openzeppelin/contracts/utils/Address.sol\":1702:1721  account.code.length */\n      0xffffffffffffffffffffffffffffffffffffffff\n      and\n      extcodesize\n        /* \"node_modules/@openzeppelin/contracts/utils/Address.sol\":1702:1725  account.code.length > 0 */\n      gt\n        /* \"node_modules/@openzeppelin/contracts/utils/Address.sol\":1695:1725  return account.code.length > 0 */\n      swap1\n      pop\n        /* \"node_modules/@openzeppelin/contracts/utils/Address.sol\":1412:1732  function isContract(address account) internal view returns (bool) {... */\n      swap2\n      swap1\n      pop\n      jump\t// out\n        /* \"#utility.yul\":7:82   */\n    tag_257:\n        /* \"#utility.yul\":40:46   */\n      0x00\n        /* \"#utility.yul\":73:75   */\n      0x40\n        /* \"#utility.yul\":67:76   */\n      mload\n        /* \"#utility.yul\":57:76   */\n      swap1\n      pop\n        /* \"#utility.yul\":7:82   */\n      swap1\n      jump\t// out\n        /* \"#utility.yul\":88:205   */\n    tag_258:\n        /* \"#utility.yul\":197:198   */\n      0x00\n        /* \"#utility.yul\":194:195   */\n      dup1\n        /* \"#utility.yul\":187:199   */\n      revert\n        /* \"#utility.yul\":211:328   */\n    tag_259:\n        /* \"#utility.yul\":320:321   */\n      0x00\n        /* \"#utility.yul\":317:318   */\n      dup1\n        /* \"#utility.yul\":310:322   */\n      revert\n        /* \"#utility.yul\":334:483   */\n    tag_260:\n        /* \"#utility.yul\":370:377   */\n      0x00\n        /* \"#utility.yul\":410:476   */\n      0xffffffff00000000000000000000000000000000000000000000000000000000\n        /* \"#utility.yul\":403:408   */\n      dup3\n        /* \"#utility.yul\":399:477   */\n      and\n        /* \"#utility.yul\":388:477   */\n      swap1\n      pop\n        /* \"#utility.yul\":334:483   */\n      swap2\n      swap1\n      pop\n      jump\t// out\n        /* \"#utility.yul\":489:609   */\n    tag_261:\n        /* \"#utility.yul\":561:584   */\n      tag_318\n        /* \"#utility.yul\":578:583   */\n      dup2\n        /* \"#utility.yul\":561:584   */\n      tag_260\n      jump\t// in\n    tag_318:\n        /* \"#utility.yul\":554:559   */\n      dup2\n        /* \"#utility.yul\":551:585   */\n      eq\n        /* \"#utility.yul\":541:603   */\n      tag_319\n      jumpi\n        /* \"#utility.yul\":599:600   */\n      0x00\n        /* \"#utility.yul\":596:597   */\n      dup1\n        /* \"#utility.yul\":589:601   */\n      revert\n        /* \"#utility.yul\":541:603   */\n    tag_319:\n        /* \"#utility.yul\":489:609   */\n      pop\n      jump\t// out\n        /* \"#utility.yul\":615:752   */\n    tag_262:\n        /* \"#utility.yul\":660:665   */\n      0x00\n        /* \"#utility.yul\":698:704   */\n      dup2\n        /* \"#utility.yul\":685:705   */\n      calldataload\n        /* \"#utility.yul\":676:705   */\n      swap1\n      pop\n        /* \"#utility.yul\":714:746   */\n      tag_321\n        /* \"#utility.yul\":740:745   */\n      dup2\n        /* \"#utility.yul\":714:746   */\n      tag_261\n      jump\t// in\n    tag_321:\n        /* \"#utility.yul\":615:752   */\n      swap3\n      swap2\n      pop\n      pop\n      jump\t// out\n        /* \"#utility.yul\":758:1085   */\n    tag_22:\n        /* \"#utility.yul\":816:822   */\n      0x00\n        /* \"#utility.yul\":865:867   */\n      0x20\n        /* \"#utility.yul\":853:862   */\n      dup3\n        /* \"#utility.yul\":844:851   */\n      dup5\n        /* \"#utility.yul\":840:863   */\n      sub\n        /* \"#utility.yul\":836:868   */\n      slt\n        /* \"#utility.yul\":833:952   */\n      iszero\n      tag_323\n      jumpi\n        /* \"#utility.yul\":871:950   */\n      tag_324\n      tag_258\n      jump\t// in\n    tag_324:\n        /* \"#utility.yul\":833:952   */\n    tag_323:\n        /* \"#utility.yul\":991:992   */\n      0x00\n        /* \"#utility.yul\":1016:1068   */\n      tag_325\n        /* \"#utility.yul\":1060:1067   */\n      dup5\n        /* \"#utility.yul\":1051:1057   */\n      dup3\n        /* \"#utility.yul\":1040:1049   */\n      dup6\n        /* \"#utility.yul\":1036:1058   */\n      add\n        /* \"#utility.yul\":1016:1068   */\n      tag_262\n      jump\t// in\n    tag_325:\n        /* \"#utility.yul\":1006:1068   */\n      swap2\n      pop\n        /* \"#utility.yul\":962:1078   */\n      pop\n        /* \"#utility.yul\":758:1085   */\n      swap3\n      swap2\n      pop\n      pop\n      jump\t// out\n        /* \"#utility.yul\":1091:1181   */\n    tag_263:\n        /* \"#utility.yul\":1125:1132   */\n      0x00\n        /* \"#utility.yul\":1168:1173   */\n      dup2\n        /* \"#utility.yul\":1161:1174   */\n      iszero\n        /* \"#utility.yul\":1154:1175   */\n      iszero\n        /* \"#utility.yul\":1143:1175   */\n      swap1\n      pop\n        /* \"#utility.yul\":1091:1181   */\n      swap2\n      swap1\n      pop\n      jump\t// out\n        /* \"#utility.yul\":1187:1296   */\n    tag_264:\n        /* \"#utility.yul\":1268:1289   */\n      tag_328\n        /* \"#utility.yul\":1283:1288   */\n      dup2\n        /* \"#utility.yul\":1268:1289   */\n      tag_263\n      jump\t// in\n    tag_328:\n        /* \"#utility.yul\":1263:1266   */\n      dup3\n        /* \"#utility.yul\":1256:1290   */\n      mstore\n        /* \"#utility.yul\":1187:1296   */\n      pop\n      pop\n      jump\t// out\n        /* \"#utility.yul\":1302:1512   */\n    tag_25:\n        /* \"#utility.yul\":1389:1393   */\n      0x00\n        /* \"#utility.yul\":1427:1429   */\n      0x20\n        /* \"#utility.yul\":1416:1425   */\n      dup3\n        /* \"#utility.yul\":1412:1430   */\n      add\n        /* \"#utility.yul\":1404:1430   */\n      swap1\n      pop\n        /* \"#utility.yul\":1440:1505   */\n      tag_330\n        /* \"#utility.yul\":1502:1503   */\n      0x00\n        /* \"#utility.yul\":1491:1500   */\n      dup4\n        /* \"#utility.yul\":1487:1504   */\n      add\n        /* \"#utility.yul\":1478:1484   */\n      dup5\n        /* \"#utility.yul\":1440:1505   */\n      tag_264\n      jump\t// in\n    tag_330:\n        /* \"#utility.yul\":1302:1512   */\n      swap3\n      swap2\n      pop\n      pop\n      jump\t// out\n        /* \"#utility.yul\":1518:1617   */\n    tag_265:\n        /* \"#utility.yul\":1570:1576   */\n      0x00\n        /* \"#utility.yul\":1604:1609   */\n      dup2\n        /* \"#utility.yul\":1598:1610   */\n      mload\n        /* \"#utility.yul\":1588:1610   */\n      swap1\n      pop\n        /* \"#utility.yul\":1518:1617   */\n      swap2\n      swap1\n      pop\n      jump\t// out\n        /* \"#utility.yul\":1623:1792   */\n    tag_266:\n        /* \"#utility.yul\":1707:1718   */\n      0x00\n        /* \"#utility.yul\":1741:1747   */\n      dup3\n        /* \"#utility.yul\":1736:1739   */\n      dup3\n        /* \"#utility.yul\":1729:1748   */\n      mstore\n        /* \"#utility.yul\":1781:1785   */\n      0x20\n        /* \"#utility.yul\":1776:1779   */\n      dup3\n        /* \"#utility.yul\":1772:1786   */\n      add\n        /* \"#utility.yul\":1757:1786   */\n      swap1\n      pop\n        /* \"#utility.yul\":1623:1792   */\n      swap3\n      swap2\n      pop\n      pop\n      jump\t// out\n        /* \"#utility.yul\":1798:2044   */\n    tag_267:\n        /* \"#utility.yul\":1879:1880   */\n      0x00\n        /* \"#utility.yul\":1889:2002   */\n    tag_334:\n        /* \"#utility.yul\":1903:1909   */\n      dup4\n        /* \"#utility.yul\":1900:1901   */\n      dup2\n        /* \"#utility.yul\":1897:1910   */\n      lt\n        /* \"#utility.yul\":1889:2002   */\n      iszero\n      tag_336\n      jumpi\n        /* \"#utility.yul\":1988:1989   */\n      dup1\n        /* \"#utility.yul\":1983:1986   */\n      dup3\n        /* \"#utility.yul\":1979:1990   */\n      add\n        /* \"#utility.yul\":1973:1991   */\n      mload\n        /* \"#utility.yul\":1969:1970   */\n      dup2\n        /* \"#utility.yul\":1964:1967   */\n      dup5\n        /* \"#utility.yul\":1960:1971   */\n      add\n        /* \"#utility.yul\":1953:1992   */\n      mstore\n        /* \"#utility.yul\":1925:1927   */\n      0x20\n        /* \"#utility.yul\":1922:1923   */\n      dup2\n        /* \"#utility.yul\":1918:1928   */\n      add\n        /* \"#utility.yul\":1913:1928   */\n      swap1\n      pop\n        /* \"#utility.yul\":1889:2002   */\n      jump(tag_334)\n    tag_336:\n        /* \"#utility.yul\":2036:2037   */\n      0x00\n        /* \"#utility.yul\":2027:2033   */\n      dup5\n        /* \"#utility.yul\":2022:2025   */\n      dup5\n        /* \"#utility.yul\":2018:2034   */\n      add\n        /* \"#utility.yul\":2011:2038   */\n      mstore\n        /* \"#utility.yul\":1860:2044   */\n      pop\n        /* \"#utility.yul\":1798:2044   */\n      pop\n      pop\n      pop\n      jump\t// out\n        /* \"#utility.yul\":2050:2152   */\n    tag_268:\n        /* \"#utility.yul\":2091:2097   */\n      0x00\n        /* \"#utility.yul\":2142:2144   */\n      0x1f\n        /* \"#utility.yul\":2138:2145   */\n      not\n        /* \"#utility.yul\":2133:2135   */\n      0x1f\n        /* \"#utility.yul\":2126:2131   */\n      dup4\n        /* \"#utility.yul\":2122:2136   */\n      add\n        /* \"#utility.yul\":2118:2146   */\n      and\n        /* \"#utility.yul\":2108:2146   */\n      swap1\n      pop\n        /* \"#utility.yul\":2050:2152   */\n      swap2\n      swap1\n      pop\n      jump\t// out\n        /* \"#utility.yul\":2158:2535   */\n    tag_269:\n        /* \"#utility.yul\":2246:2249   */\n      0x00\n        /* \"#utility.yul\":2274:2313   */\n      tag_339\n        /* \"#utility.yul\":2307:2312   */\n      dup3\n        /* \"#utility.yul\":2274:2313   */\n      tag_265\n      jump\t// in\n    tag_339:\n        /* \"#utility.yul\":2329:2400   */\n      tag_340\n        /* \"#utility.yul\":2393:2399   */\n      dup2\n        /* \"#utility.yul\":2388:2391   */\n      dup6\n        /* \"#utility.yul\":2329:2400   */\n      tag_266\n      jump\t// in\n    tag_340:\n        /* \"#utility.yul\":2322:2400   */\n      swap4\n      pop\n        /* \"#utility.yul\":2409:2474   */\n      tag_341\n        /* \"#utility.yul\":2467:2473   */\n      dup2\n        /* \"#utility.yul\":2462:2465   */\n      dup6\n        /* \"#utility.yul\":2455:2459   */\n      0x20\n        /* \"#utility.yul\":2448:2453   */\n      dup7\n        /* \"#utility.yul\":2444:2460   */\n      add\n        /* \"#utility.yul\":2409:2474   */\n      tag_267\n      jump\t// in\n    tag_341:\n        /* \"#utility.yul\":2499:2528   */\n      tag_342\n        /* \"#utility.yul\":2521:2527   */\n      dup2\n        /* \"#utility.yul\":2499:2528   */\n      tag_268\n      jump\t// in\n    tag_342:\n        /* \"#utility.yul\":2494:2497   */\n      dup5\n        /* \"#utility.yul\":2490:2529   */\n      add\n        /* \"#utility.yul\":2483:2529   */\n      swap2\n      pop\n        /* \"#utility.yul\":2250:2535   */\n      pop\n        /* \"#utility.yul\":2158:2535   */\n      swap3\n      swap2\n      pop\n      pop\n      jump\t// out\n        /* \"#utility.yul\":2541:2854   */\n    tag_29:\n        /* \"#utility.yul\":2654:2658   */\n      0x00\n        /* \"#utility.yul\":2692:2694   */\n      0x20\n        /* \"#utility.yul\":2681:2690   */\n      dup3\n        /* \"#utility.yul\":2677:2695   */\n      add\n        /* \"#utility.yul\":2669:2695   */\n      swap1\n      pop\n        /* \"#utility.yul\":2741:2750   */\n      dup2\n        /* \"#utility.yul\":2735:2739   */\n      dup2\n        /* \"#utility.yul\":2731:2751   */\n      sub\n        /* \"#utility.yul\":2727:2728   */\n      0x00\n        /* \"#utility.yul\":2716:2725   */\n      dup4\n        /* \"#utility.yul\":2712:2729   */\n      add\n        /* \"#utility.yul\":2705:2752   */\n      mstore\n        /* \"#utility.yul\":2769:2847   */\n      tag_344\n        /* \"#utility.yul\":2842:2846   */\n      dup2\n        /* \"#utility.yul\":2833:2839   */\n      dup5\n        /* \"#utility.yul\":2769:2847   */\n      tag_269\n      jump\t// in\n    tag_344:\n        /* \"#utility.yul\":2761:2847   */\n      swap1\n      pop\n        /* \"#utility.yul\":2541:2854   */\n      swap3\n      swap2\n      pop\n      pop\n      jump\t// out\n        /* \"#utility.yul\":2860:2937   */\n    tag_270:\n        /* \"#utility.yul\":2897:2904   */\n      0x00\n        /* \"#utility.yul\":2926:2931   */\n      dup2\n        /* \"#utility.yul\":2915:2931   */\n      swap1\n      pop\n        /* \"#utility.yul\":2860:2937   */\n      swap2\n      swap1\n      pop\n      jump\t// out\n        /* \"#utility.yul\":2943:3065   */\n    tag_271:\n        /* \"#utility.yul\":3016:3040   */\n      tag_347\n        /* \"#utility.yul\":3034:3039   */\n      dup2\n        /* \"#utility.yul\":3016:3040   */\n      tag_270\n      jump\t// in\n    tag_347:\n        /* \"#utility.yul\":3009:3014   */\n      dup2\n        /* \"#utility.yul\":3006:3041   */\n      eq\n        /* \"#utility.yul\":2996:3059   */\n      tag_348\n      jumpi\n        /* \"#utility.yul\":3055:3056   */\n      0x00\n        /* \"#utility.yul\":3052:3053   */\n      dup1\n        /* \"#utility.yul\":3045:3057   */\n      revert\n        /* \"#utility.yul\":2996:3059   */\n    tag_348:\n        /* \"#utility.yul\":2943:3065   */\n      pop\n      jump\t// out\n        /* \"#utility.yul\":3071:3210   */\n    tag_272:\n        /* \"#utility.yul\":3117:3122   */\n      0x00\n        /* \"#utility.yul\":3155:3161   */\n      dup2\n        /* \"#utility.yul\":3142:3162   */\n      calldataload\n        /* \"#utility.yul\":3133:3162   */\n      swap1\n      pop\n        /* \"#utility.yul\":3171:3204   */\n      tag_350\n        /* \"#utility.yul\":3198:3203   */\n      dup2\n        /* \"#utility.yul\":3171:3204   */\n      tag_271\n      jump\t// in\n    tag_350:\n        /* \"#utility.yul\":3071:3210   */\n      swap3\n      swap2\n      pop\n      pop\n      jump\t// out\n        /* \"#utility.yul\":3216:3545   */\n    tag_32:\n        /* \"#utility.yul\":3275:3281   */\n      0x00\n        /* \"#utility.yul\":3324:3326   */\n      0x20\n        /* \"#utility.yul\":3312:3321   */\n      dup3\n        /* \"#utility.yul\":3303:3310   */\n      dup5\n        /* \"#utility.yul\":3299:3322   */\n      sub\n        /* \"#utility.yul\":3295:3327   */\n      slt\n        /* \"#utility.yul\":3292:3411   */\n      iszero\n      tag_352\n      jumpi\n        /* \"#utility.yul\":3330:3409   */\n      tag_353\n      tag_258\n      jump\t// in\n    tag_353:\n        /* \"#utility.yul\":3292:3411   */\n    tag_352:\n        /* \"#utility.yul\":3450:3451   */\n      0x00\n        /* \"#utility.yul\":3475:3528   */\n      tag_354\n        /* \"#utility.yul\":3520:3527   */\n      dup5\n        /* \"#utility.yul\":3511:3517   */\n      dup3\n        /* \"#utility.yul\":3500:3509   */\n      dup6\n        /* \"#utility.yul\":3496:3518   */\n      add\n        /* \"#utility.yul\":3475:3528   */\n      tag_272\n      jump\t// in\n    tag_354:\n        /* \"#utility.yul\":3465:3528   */\n      swap2\n      pop\n        /* \"#utility.yul\":3421:3538   */\n      pop\n        /* \"#utility.yul\":3216:3545   */\n      swap3\n      swap2\n      pop\n      pop\n      jump\t// out\n        /* \"#utility.yul\":3551:3677   */\n    tag_273:\n        /* \"#utility.yul\":3588:3595   */\n      0x00\n        /* \"#utility.yul\":3628:3670   */\n      0xffffffffffffffffffffffffffffffffffffffff\n        /* \"#utility.yul\":3621:3626   */\n      dup3\n        /* \"#utility.yul\":3617:3671   */\n      and\n        /* \"#utility.yul\":3606:3671   */\n      swap1\n      pop\n        /* \"#utility.yul\":3551:3677   */\n      swap2\n      swap1\n      pop\n      jump\t// out\n        /* \"#utility.yul\":3683:3779   */\n    tag_274:\n        /* \"#utility.yul\":3720:3727   */\n      0x00\n        /* \"#utility.yul\":3749:3773   */\n      tag_357\n        /* \"#utility.yul\":3767:3772   */\n      dup3\n        /* \"#utility.yul\":3749:3773   */\n      tag_273\n      jump\t// in\n    tag_357:\n        /* \"#utility.yul\":3738:3773   */\n      swap1\n      pop\n        /* \"#utility.yul\":3683:3779   */\n      swap2\n      swap1\n      pop\n      jump\t// out\n        /* \"#utility.yul\":3785:3903   */\n    tag_275:\n        /* \"#utility.yul\":3872:3896   */\n      tag_359\n        /* \"#utility.yul\":3890:3895   */\n      dup2\n        /* \"#utility.yul\":3872:3896   */\n      tag_274\n      jump\t// in\n    tag_359:\n        /* \"#utility.yul\":3867:3870   */\n      dup3\n        /* \"#utility.yul\":3860:3897   */\n      mstore\n        /* \"#utility.yul\":3785:3903   */\n      pop\n      pop\n      jump\t// out\n        /* \"#utility.yul\":3909:4131   */\n    tag_35:\n        /* \"#utility.yul\":4002:4006   */\n      0x00\n        /* \"#utility.yul\":4040:4042   */\n      0x20\n        /* \"#utility.yul\":4029:4038   */\n      dup3\n        /* \"#utility.yul\":4025:4043   */\n      add\n        /* \"#utility.yul\":4017:4043   */\n      swap1\n      pop\n        /* \"#utility.yul\":4053:4124   */\n      tag_361\n        /* \"#utility.yul\":4121:4122   */\n      0x00\n        /* \"#utility.yul\":4110:4119   */\n      dup4\n        /* \"#utility.yul\":4106:4123   */\n      add\n        /* \"#utility.yul\":4097:4103   */\n      dup5\n        /* \"#utility.yul\":4053:4124   */\n      tag_275\n      jump\t// in\n    tag_361:\n        /* \"#utility.yul\":3909:4131   */\n      swap3\n      swap2\n      pop\n      pop\n      jump\t// out\n        /* \"#utility.yul\":4137:4259   */\n    tag_276:\n        /* \"#utility.yul\":4210:4234   */\n      tag_363\n        /* \"#utility.yul\":4228:4233   */\n      dup2\n        /* \"#utility.yul\":4210:4234   */\n      tag_274\n      jump\t// in\n    tag_363:\n        /* \"#utility.yul\":4203:4208   */\n      dup2\n        /* \"#utility.yul\":4200:4235   */\n      eq\n        /* \"#utility.yul\":4190:4253   */\n      tag_364\n      jumpi\n        /* \"#utility.yul\":4249:4250   */\n      0x00\n        /* \"#utility.yul\":4246:4247   */\n      dup1\n        /* \"#utility.yul\":4239:4251   */\n      revert\n        /* \"#utility.yul\":4190:4253   */\n    tag_364:\n        /* \"#utility.yul\":4137:4259   */\n      pop\n      jump\t// out\n        /* \"#utility.yul\":4265:4404   */\n    tag_277:\n        /* \"#utility.yul\":4311:4316   */\n      0x00\n        /* \"#utility.yul\":4349:4355   */\n      dup2\n        /* \"#utility.yul\":4336:4356   */\n      calldataload\n        /* \"#utility.yul\":4327:4356   */\n      swap1\n      pop\n        /* \"#utility.yul\":4365:4398   */\n      tag_366\n        /* \"#utility.yul\":4392:4397   */\n      dup2\n        /* \"#utility.yul\":4365:4398   */\n      tag_276\n      jump\t// in\n    tag_366:\n        /* \"#utility.yul\":4265:4404   */\n      swap3\n      swap2\n      pop\n      pop\n      jump\t// out\n        /* \"#utility.yul\":4410:4884   */\n    tag_38:\n        /* \"#utility.yul\":4478:4484   */\n      0x00\n        /* \"#utility.yul\":4486:4492   */\n      dup1\n        /* \"#utility.yul\":4535:4537   */\n      0x40\n        /* \"#utility.yul\":4523:4532   */\n      dup4\n        /* \"#utility.yul\":4514:4521   */\n      dup6\n        /* \"#utility.yul\":4510:4533   */\n      sub\n        /* \"#utility.yul\":4506:4538   */\n      slt\n        /* \"#utility.yul\":4503:4622   */\n      iszero\n      tag_368\n      jumpi\n        /* \"#utility.yul\":4541:4620   */\n      tag_369\n      tag_258\n      jump\t// in\n    tag_369:\n        /* \"#utility.yul\":4503:4622   */\n    tag_368:\n        /* \"#utility.yul\":4661:4662   */\n      0x00\n        /* \"#utility.yul\":4686:4739   */\n      tag_370\n        /* \"#utility.yul\":4731:4738   */\n      dup6\n        /* \"#utility.yul\":4722:4728   */\n      dup3\n        /* \"#utility.yul\":4711:4720   */\n      dup7\n        /* \"#utility.yul\":4707:4729   */\n      add\n        /* \"#utility.yul\":4686:4739   */\n      tag_277\n      jump\t// in\n    tag_370:\n        /* \"#utility.yul\":4676:4739   */\n      swap3\n      pop\n        /* \"#utility.yul\":4632:4749   */\n      pop\n        /* \"#utility.yul\":4788:4790   */\n      0x20\n        /* \"#utility.yul\":4814:4867   */\n      tag_371\n        /* \"#utility.yul\":4859:4866   */\n      dup6\n        /* \"#utility.yul\":4850:4856   */\n      dup3\n        /* \"#utility.yul\":4839:4848   */\n      dup7\n        /* \"#utility.yul\":4835:4857   */\n      add\n        /* \"#utility.yul\":4814:4867   */\n      tag_272\n      jump\t// in\n    tag_371:\n        /* \"#utility.yul\":4804:4867   */\n      swap2\n      pop\n        /* \"#utility.yul\":4759:4877   */\n      pop\n        /* \"#utility.yul\":4410:4884   */\n      swap3\n      pop\n      swap3\n      swap1\n      pop\n      jump\t// out\n        /* \"#utility.yul\":4890:5509   */\n    tag_42:\n        /* \"#utility.yul\":4967:4973   */\n      0x00\n        /* \"#utility.yul\":4975:4981   */\n      dup1\n        /* \"#utility.yul\":4983:4989   */\n      0x00\n        /* \"#utility.yul\":5032:5034   */\n      0x60\n        /* \"#utility.yul\":5020:5029   */\n      dup5\n        /* \"#utility.yul\":5011:5018   */\n      dup7\n        /* \"#utility.yul\":5007:5030   */\n      sub\n        /* \"#utility.yul\":5003:5035   */\n      slt\n        /* \"#utility.yul\":5000:5119   */\n      iszero\n      tag_373\n      jumpi\n        /* \"#utility.yul\":5038:5117   */\n      tag_374\n      tag_258\n      jump\t// in\n    tag_374:\n        /* \"#utility.yul\":5000:5119   */\n    tag_373:\n        /* \"#utility.yul\":5158:5159   */\n      0x00\n        /* \"#utility.yul\":5183:5236   */\n      tag_375\n        /* \"#utility.yul\":5228:5235   */\n      dup7\n        /* \"#utility.yul\":5219:5225   */\n      dup3\n        /* \"#utility.yul\":5208:5217   */\n      dup8\n        /* \"#utility.yul\":5204:5226   */\n      add\n        /* \"#utility.yul\":5183:5236   */\n      tag_277\n      jump\t// in\n    tag_375:\n        /* \"#utility.yul\":5173:5236   */\n      swap4\n      pop\n        /* \"#utility.yul\":5129:5246   */\n      pop\n        /* \"#utility.yul\":5285:5287   */\n      0x20\n        /* \"#utility.yul\":5311:5364   */\n      tag_376\n        /* \"#utility.yul\":5356:5363   */\n      dup7\n        /* \"#utility.yul\":5347:5353   */\n      dup3\n        /* \"#utility.yul\":5336:5345   */\n      dup8\n        /* \"#utility.yul\":5332:5354   */\n      add\n        /* \"#utility.yul\":5311:5364   */\n      tag_277\n      jump\t// in\n    tag_376:\n        /* \"#utility.yul\":5301:5364   */\n      swap3\n      pop\n        /* \"#utility.yul\":5256:5374   */\n      pop\n        /* \"#utility.yul\":5413:5415   */\n      0x40\n        /* \"#utility.yul\":5439:5492   */\n      tag_377\n        /* \"#utility.yul\":5484:5491   */\n      dup7\n        /* \"#utility.yul\":5475:5481   */\n      dup3\n        /* \"#utility.yul\":5464:5473   */\n      dup8\n        /* \"#utility.yul\":5460:5482   */\n      add\n        /* \"#utility.yul\":5439:5492   */\n      tag_272\n      jump\t// in\n    tag_377:\n        /* \"#utility.yul\":5429:5492   */\n      swap2\n      pop\n        /* \"#utility.yul\":5384:5502   */\n      pop\n        /* \"#utility.yul\":4890:5509   */\n      swap3\n      pop\n      swap3\n      pop\n      swap3\n      jump\t// out\n        /* \"#utility.yul\":5515:5844   */\n    tag_53:\n        /* \"#utility.yul\":5574:5580   */\n      0x00\n        /* \"#utility.yul\":5623:5625   */\n      0x20\n        /* \"#utility.yul\":5611:5620   */\n      dup3\n        /* \"#utility.yul\":5602:5609   */\n      dup5\n        /* \"#utility.yul\":5598:5621   */\n      sub\n        /* \"#utility.yul\":5594:5626   */\n      slt\n        /* \"#utility.yul\":5591:5710   */\n      iszero\n      tag_379\n      jumpi\n        /* \"#utility.yul\":5629:5708   */\n      tag_380\n      tag_258\n      jump\t// in\n    tag_380:\n        /* \"#utility.yul\":5591:5710   */\n    tag_379:\n        /* \"#utility.yul\":5749:5750   */\n      0x00\n        /* \"#utility.yul\":5774:5827   */\n      tag_381\n        /* \"#utility.yul\":5819:5826   */\n      dup5\n        /* \"#utility.yul\":5810:5816   */\n      dup3\n        /* \"#utility.yul\":5799:5808   */\n      dup6\n        /* \"#utility.yul\":5795:5817   */\n      add\n        /* \"#utility.yul\":5774:5827   */\n      tag_277\n      jump\t// in\n    tag_381:\n        /* \"#utility.yul\":5764:5827   */\n      swap2\n      pop\n        /* \"#utility.yul\":5720:5837   */\n      pop\n        /* \"#utility.yul\":5515:5844   */\n      swap3\n      swap2\n      pop\n      pop\n      jump\t// out\n        /* \"#utility.yul\":5850:5968   */\n    tag_278:\n        /* \"#utility.yul\":5937:5961   */\n      tag_383\n        /* \"#utility.yul\":5955:5960   */\n      dup2\n        /* \"#utility.yul\":5937:5961   */\n      tag_270\n      jump\t// in\n    tag_383:\n        /* \"#utility.yul\":5932:5935   */\n      dup3\n        /* \"#utility.yul\":5925:5962   */\n      mstore\n        /* \"#utility.yul\":5850:5968   */\n      pop\n      pop\n      jump\t// out\n        /* \"#utility.yul\":5974:6196   */\n    tag_56:\n        /* \"#utility.yul\":6067:6071   */\n      0x00\n        /* \"#utility.yul\":6105:6107   */\n      0x20\n        /* \"#utility.yul\":6094:6103   */\n      dup3\n        /* \"#utility.yul\":6090:6108   */\n      add\n        /* \"#utility.yul\":6082:6108   */\n      swap1\n      pop\n        /* \"#utility.yul\":6118:6189   */\n      tag_385\n        /* \"#utility.yul\":6186:6187   */\n      0x00\n        /* \"#utility.yul\":6175:6184   */\n      dup4\n        /* \"#utility.yul\":6171:6188   */\n      add\n        /* \"#utility.yul\":6162:6168   */\n      dup5\n        /* \"#utility.yul\":6118:6189   */\n      tag_278\n      jump\t// in\n    tag_385:\n        /* \"#utility.yul\":5974:6196   */\n      swap3\n      swap2\n      pop\n      pop\n      jump\t// out\n        /* \"#utility.yul\":6202:6318   */\n    tag_279:\n        /* \"#utility.yul\":6272:6293   */\n      tag_387\n        /* \"#utility.yul\":6287:6292   */\n      dup2\n        /* \"#utility.yul\":6272:6293   */\n      tag_263\n      jump\t// in\n    tag_387:\n        /* \"#utility.yul\":6265:6270   */\n      dup2\n        /* \"#utility.yul\":6262:6294   */\n      eq\n        /* \"#utility.yul\":6252:6312   */\n      tag_388\n      jumpi\n        /* \"#utility.yul\":6308:6309   */\n      0x00\n        /* \"#utility.yul\":6305:6306   */\n      dup1\n        /* \"#utility.yul\":6298:6310   */\n      revert\n        /* \"#utility.yul\":6252:6312   */\n    tag_388:\n        /* \"#utility.yul\":6202:6318   */\n      pop\n      jump\t// out\n        /* \"#utility.yul\":6324:6457   */\n    tag_280:\n        /* \"#utility.yul\":6367:6372   */\n      0x00\n        /* \"#utility.yul\":6405:6411   */\n      dup2\n        /* \"#utility.yul\":6392:6412   */\n      calldataload\n        /* \"#utility.yul\":6383:6412   */\n      swap1\n      pop\n        /* \"#utility.yul\":6421:6451   */\n      tag_390\n        /* \"#utility.yul\":6445:6450   */\n      dup2\n        /* \"#utility.yul\":6421:6451   */\n      tag_279\n      jump\t// in\n    tag_390:\n        /* \"#utility.yul\":6324:6457   */\n      swap3\n      swap2\n      pop\n      pop\n      jump\t// out\n        /* \"#utility.yul\":6463:6931   */\n    tag_65:\n        /* \"#utility.yul\":6528:6534   */\n      0x00\n        /* \"#utility.yul\":6536:6542   */\n      dup1\n        /* \"#utility.yul\":6585:6587   */\n      0x40\n        /* \"#utility.yul\":6573:6582   */\n      dup4\n        /* \"#utility.yul\":6564:6571   */\n      dup6\n        /* \"#utility.yul\":6560:6583   */\n      sub\n        /* \"#utility.yul\":6556:6588   */\n      slt\n        /* \"#utility.yul\":6553:6672   */\n      iszero\n      tag_392\n      jumpi\n        /* \"#utility.yul\":6591:6670   */\n      tag_393\n      tag_258\n      jump\t// in\n    tag_393:\n        /* \"#utility.yul\":6553:6672   */\n    tag_392:\n        /* \"#utility.yul\":6711:6712   */\n      0x00\n        /* \"#utility.yul\":6736:6789   */\n      tag_394\n        /* \"#utility.yul\":6781:6788   */\n      dup6\n        /* \"#utility.yul\":6772:6778   */\n      dup3\n        /* \"#utility.yul\":6761:6770   */\n      dup7\n        /* \"#utility.yul\":6757:6779   */\n      add\n        /* \"#utility.yul\":6736:6789   */\n      tag_277\n      jump\t// in\n    tag_394:\n        /* \"#utility.yul\":6726:6789   */\n      swap3\n      pop\n        /* \"#utility.yul\":6682:6799   */\n      pop\n        /* \"#utility.yul\":6838:6840   */\n      0x20\n        /* \"#utility.yul\":6864:6914   */\n      tag_395\n        /* \"#utility.yul\":6906:6913   */\n      dup6\n        /* \"#utility.yul\":6897:6903   */\n      dup3\n        /* \"#utility.yul\":6886:6895   */\n      dup7\n        /* \"#utility.yul\":6882:6904   */\n      add\n        /* \"#utility.yul\":6864:6914   */\n      tag_280\n      jump\t// in\n    tag_395:\n        /* \"#utility.yul\":6854:6914   */\n      swap2\n      pop\n        /* \"#utility.yul\":6809:6924   */\n      pop\n        /* \"#utility.yul\":6463:6931   */\n      swap3\n      pop\n      swap3\n      swap1\n      pop\n      jump\t// out\n        /* \"#utility.yul\":6937:7054   */\n    tag_281:\n        /* \"#utility.yul\":7046:7047   */\n      0x00\n        /* \"#utility.yul\":7043:7044   */\n      dup1\n        /* \"#utility.yul\":7036:7048   */\n      revert\n        /* \"#utility.yul\":7060:7177   */\n    tag_282:\n        /* \"#utility.yul\":7169:7170   */\n      0x00\n        /* \"#utility.yul\":7166:7167   */\n      dup1\n        /* \"#utility.yul\":7159:7171   */\n      revert\n        /* \"#utility.yul\":7183:7363   */\n    tag_190:\n        /* \"#utility.yul\":7231:7308   */\n      0x4e487b7100000000000000000000000000000000000000000000000000000000\n        /* \"#utility.yul\":7228:7229   */\n      0x00\n        /* \"#utility.yul\":7221:7309   */\n      mstore\n        /* \"#utility.yul\":7328:7332   */\n      0x41\n        /* \"#utility.yul\":7325:7326   */\n      0x04\n        /* \"#utility.yul\":7318:7333   */\n      mstore\n        /* \"#utility.yul\":7352:7356   */\n      0x24\n        /* \"#utility.yul\":7349:7350   */\n      0x00\n        /* \"#utility.yul\":7342:7357   */\n      revert\n        /* \"#utility.yul\":7369:7650   */\n    tag_283:\n        /* \"#utility.yul\":7452:7479   */\n      tag_400\n        /* \"#utility.yul\":7474:7478   */\n      dup3\n        /* \"#utility.yul\":7452:7479   */\n      tag_268\n      jump\t// in\n    tag_400:\n        /* \"#utility.yul\":7444:7450   */\n      dup2\n        /* \"#utility.yul\":7440:7480   */\n      add\n        /* \"#utility.yul\":7582:7588   */\n      dup2\n        /* \"#utility.yul\":7570:7580   */\n      dup2\n        /* \"#utility.yul\":7567:7589   */\n      lt\n        /* \"#utility.yul\":7546:7564   */\n      0xffffffffffffffff\n        /* \"#utility.yul\":7534:7544   */\n      dup3\n        /* \"#utility.yul\":7531:7565   */\n      gt\n        /* \"#utility.yul\":7528:7590   */\n      or\n        /* \"#utility.yul\":7525:7613   */\n      iszero\n      tag_401\n      jumpi\n        /* \"#utility.yul\":7593:7611   */\n      tag_402\n      tag_190\n      jump\t// in\n    tag_402:\n        /* \"#utility.yul\":7525:7613   */\n    tag_401:\n        /* \"#utility.yul\":7633:7643   */\n      dup1\n        /* \"#utility.yul\":7629:7631   */\n      0x40\n        /* \"#utility.yul\":7622:7644   */\n      mstore\n        /* \"#utility.yul\":7412:7650   */\n      pop\n        /* \"#utility.yul\":7369:7650   */\n      pop\n      pop\n      jump\t// out\n        /* \"#utility.yul\":7656:7785   */\n    tag_284:\n        /* \"#utility.yul\":7690:7696   */\n      0x00\n        /* \"#utility.yul\":7717:7737   */\n      tag_404\n      tag_257\n      jump\t// in\n    tag_404:\n        /* \"#utility.yul\":7707:7737   */\n      swap1\n      pop\n        /* \"#utility.yul\":7746:7779   */\n      tag_405\n        /* \"#utility.yul\":7774:7778   */\n      dup3\n        /* \"#utility.yul\":7766:7772   */\n      dup3\n        /* \"#utility.yul\":7746:7779   */\n      tag_283\n      jump\t// in\n    tag_405:\n        /* \"#utility.yul\":7656:7785   */\n      swap2\n      swap1\n      pop\n      jump\t// out\n        /* \"#utility.yul\":7791:8098   */\n    tag_285:\n        /* \"#utility.yul\":7852:7856   */\n      0x00\n        /* \"#utility.yul\":7942:7960   */\n      0xffffffffffffffff\n        /* \"#utility.yul\":7934:7940   */\n      dup3\n        /* \"#utility.yul\":7931:7961   */\n      gt\n        /* \"#utility.yul\":7928:7984   */\n      iszero\n      tag_407\n      jumpi\n        /* \"#utility.yul\":7964:7982   */\n      tag_408\n      tag_190\n      jump\t// in\n    tag_408:\n        /* \"#utility.yul\":7928:7984   */\n    tag_407:\n        /* \"#utility.yul\":8002:8031   */\n      tag_409\n        /* \"#utility.yul\":8024:8030   */\n      dup3\n        /* \"#utility.yul\":8002:8031   */\n      tag_268\n      jump\t// in\n    tag_409:\n        /* \"#utility.yul\":7994:8031   */\n      swap1\n      pop\n        /* \"#utility.yul\":8086:8090   */\n      0x20\n        /* \"#utility.yul\":8080:8084   */\n      dup2\n        /* \"#utility.yul\":8076:8091   */\n      add\n        /* \"#utility.yul\":8068:8091   */\n      swap1\n      pop\n        /* \"#utility.yul\":7791:8098   */\n      swap2\n      swap1\n      pop\n      jump\t// out\n        /* \"#utility.yul\":8104:8250   */\n    tag_286:\n        /* \"#utility.yul\":8201:8207   */\n      dup3\n        /* \"#utility.yul\":8196:8199   */\n      dup2\n        /* \"#utility.yul\":8191:8194   */\n      dup4\n        /* \"#utility.yul\":8178:8208   */\n      calldatacopy\n        /* \"#utility.yul\":8242:8243   */\n      0x00\n        /* \"#utility.yul\":8233:8239   */\n      dup4\n        /* \"#utility.yul\":8228:8231   */\n      dup4\n        /* \"#utility.yul\":8224:8240   */\n      add\n        /* \"#utility.yul\":8217:8244   */\n      mstore\n        /* \"#utility.yul\":8104:8250   */\n      pop\n      pop\n      pop\n      jump\t// out\n        /* \"#utility.yul\":8256:8679   */\n    tag_287:\n        /* \"#utility.yul\":8333:8338   */\n      0x00\n        /* \"#utility.yul\":8358:8423   */\n      tag_412\n        /* \"#utility.yul\":8374:8422   */\n      tag_413\n        /* \"#utility.yul\":8415:8421   */\n      dup5\n        /* \"#utility.yul\":8374:8422   */\n      tag_285\n      jump\t// in\n    tag_413:\n        /* \"#utility.yul\":8358:8423   */\n      tag_284\n      jump\t// in\n    tag_412:\n        /* \"#utility.yul\":8349:8423   */\n      swap1\n      pop\n        /* \"#utility.yul\":8446:8452   */\n      dup3\n        /* \"#utility.yul\":8439:8444   */\n      dup2\n        /* \"#utility.yul\":8432:8453   */\n      mstore\n        /* \"#utility.yul\":8484:8488   */\n      0x20\n        /* \"#utility.yul\":8477:8482   */\n      dup2\n        /* \"#utility.yul\":8473:8489   */\n      add\n        /* \"#utility.yul\":8522:8525   */\n      dup5\n        /* \"#utility.yul\":8513:8519   */\n      dup5\n        /* \"#utility.yul\":8508:8511   */\n      dup5\n        /* \"#utility.yul\":8504:8520   */\n      add\n        /* \"#utility.yul\":8501:8526   */\n      gt\n        /* \"#utility.yul\":8498:8610   */\n      iszero\n      tag_414\n      jumpi\n        /* \"#utility.yul\":8529:8608   */\n      tag_415\n      tag_282\n      jump\t// in\n    tag_415:\n        /* \"#utility.yul\":8498:8610   */\n    tag_414:\n        /* \"#utility.yul\":8619:8673   */\n      tag_416\n        /* \"#utility.yul\":8666:8672   */\n      dup5\n        /* \"#utility.yul\":8661:8664   */\n      dup3\n        /* \"#utility.yul\":8656:8659   */\n      dup6\n        /* \"#utility.yul\":8619:8673   */\n      tag_286\n      jump\t// in\n    tag_416:\n        /* \"#utility.yul\":8339:8679   */\n      pop\n        /* \"#utility.yul\":8256:8679   */\n      swap4\n      swap3\n      pop\n      pop\n      pop\n      jump\t// out\n        /* \"#utility.yul\":8698:9036   */\n    tag_288:\n        /* \"#utility.yul\":8753:8758   */\n      0x00\n        /* \"#utility.yul\":8802:8805   */\n      dup3\n        /* \"#utility.yul\":8795:8799   */\n      0x1f\n        /* \"#utility.yul\":8787:8793   */\n      dup4\n        /* \"#utility.yul\":8783:8800   */\n      add\n        /* \"#utility.yul\":8779:8806   */\n      slt\n        /* \"#utility.yul\":8769:8891   */\n      tag_418\n      jumpi\n        /* \"#utility.yul\":8810:8889   */\n      tag_419\n      tag_281\n      jump\t// in\n    tag_419:\n        /* \"#utility.yul\":8769:8891   */\n    tag_418:\n        /* \"#utility.yul\":8927:8933   */\n      dup2\n        /* \"#utility.yul\":8914:8934   */\n      calldataload\n        /* \"#utility.yul\":8952:9030   */\n      tag_420\n        /* \"#utility.yul\":9026:9029   */\n      dup5\n        /* \"#utility.yul\":9018:9024   */\n      dup3\n        /* \"#utility.yul\":9011:9015   */\n      0x20\n        /* \"#utility.yul\":9003:9009   */\n      dup7\n        /* \"#utility.yul\":8999:9016   */\n      add\n        /* \"#utility.yul\":8952:9030   */\n      tag_287\n      jump\t// in\n    tag_420:\n        /* \"#utility.yul\":8943:9030   */\n      swap2\n      pop\n        /* \"#utility.yul\":8759:9036   */\n      pop\n        /* \"#utility.yul\":8698:9036   */\n      swap3\n      swap2\n      pop\n      pop\n      jump\t// out\n        /* \"#utility.yul\":9042:9985   */\n    tag_69:\n        /* \"#utility.yul\":9137:9143   */\n      0x00\n        /* \"#utility.yul\":9145:9151   */\n      dup1\n        /* \"#utility.yul\":9153:9159   */\n      0x00\n        /* \"#utility.yul\":9161:9167   */\n      dup1\n        /* \"#utility.yul\":9210:9213   */\n      0x80\n        /* \"#utility.yul\":9198:9207   */\n      dup6\n        /* \"#utility.yul\":9189:9196   */\n      dup8\n        /* \"#utility.yul\":9185:9208   */\n      sub\n        /* \"#utility.yul\":9181:9214   */\n      slt\n        /* \"#utility.yul\":9178:9298   */\n      iszero\n      tag_422\n      jumpi\n        /* \"#utility.yul\":9217:9296   */\n      tag_423\n      tag_258\n      jump\t// in\n    tag_423:\n        /* \"#utility.yul\":9178:9298   */\n    tag_422:\n        /* \"#utility.yul\":9337:9338   */\n      0x00\n        /* \"#utility.yul\":9362:9415   */\n      tag_424\n        /* \"#utility.yul\":9407:9414   */\n      dup8\n        /* \"#utility.yul\":9398:9404   */\n      dup3\n        /* \"#utility.yul\":9387:9396   */\n      dup9\n        /* \"#utility.yul\":9383:9405   */\n      add\n        /* \"#utility.yul\":9362:9415   */\n      tag_277\n      jump\t// in\n    tag_424:\n        /* \"#utility.yul\":9352:9415   */\n      swap5\n      pop\n        /* \"#utility.yul\":9308:9425   */\n      pop\n        /* \"#utility.yul\":9464:9466   */\n      0x20\n        /* \"#utility.yul\":9490:9543   */\n      tag_425\n        /* \"#utility.yul\":9535:9542   */\n      dup8\n        /* \"#utility.yul\":9526:9532   */\n      dup3\n        /* \"#utility.yul\":9515:9524   */\n      dup9\n        /* \"#utility.yul\":9511:9533   */\n      add\n        /* \"#utility.yul\":9490:9543   */\n      tag_277\n      jump\t// in\n    tag_425:\n        /* \"#utility.yul\":9480:9543   */\n      swap4\n      pop\n        /* \"#utility.yul\":9435:9553   */\n      pop\n        /* \"#utility.yul\":9592:9594   */\n      0x40\n        /* \"#utility.yul\":9618:9671   */\n      tag_426\n        /* \"#utility.yul\":9663:9670   */\n      dup8\n        /* \"#utility.yul\":9654:9660   */\n      dup3\n        /* \"#utility.yul\":9643:9652   */\n      dup9\n        /* \"#utility.yul\":9639:9661   */\n      add\n        /* \"#utility.yul\":9618:9671   */\n      tag_272\n      jump\t// in\n    tag_426:\n        /* \"#utility.yul\":9608:9671   */\n      swap3\n      pop\n        /* \"#utility.yul\":9563:9681   */\n      pop\n        /* \"#utility.yul\":9748:9750   */\n      0x60\n        /* \"#utility.yul\":9737:9746   */\n      dup6\n        /* \"#utility.yul\":9733:9751   */\n      add\n        /* \"#utility.yul\":9720:9752   */\n      calldataload\n        /* \"#utility.yul\":9779:9797   */\n      0xffffffffffffffff\n        /* \"#utility.yul\":9771:9777   */\n      dup2\n        /* \"#utility.yul\":9768:9798   */\n      gt\n        /* \"#utility.yul\":9765:9882   */\n      iszero\n      tag_427\n      jumpi\n        /* \"#utility.yul\":9801:9880   */\n      tag_428\n      tag_259\n      jump\t// in\n    tag_428:\n        /* \"#utility.yul\":9765:9882   */\n    tag_427:\n        /* \"#utility.yul\":9906:9968   */\n      tag_429\n        /* \"#utility.yul\":9960:9967   */\n      dup8\n        /* \"#utility.yul\":9951:9957   */\n      dup3\n        /* \"#utility.yul\":9940:9949   */\n      dup9\n        /* \"#utility.yul\":9936:9958   */\n      add\n        /* \"#utility.yul\":9906:9968   */\n      tag_288\n      jump\t// in\n    tag_429:\n        /* \"#utility.yul\":9896:9968   */\n      swap2\n      pop\n        /* \"#utility.yul\":9691:9978   */\n      pop\n        /* \"#utility.yul\":9042:9985   */\n      swap3\n      swap6\n      swap2\n      swap5\n      pop\n      swap3\n      pop\n      jump\t// out\n        /* \"#utility.yul\":9991:10465   */\n    tag_77:\n        /* \"#utility.yul\":10059:10065   */\n      0x00\n        /* \"#utility.yul\":10067:10073   */\n      dup1\n        /* \"#utility.yul\":10116:10118   */\n      0x40\n        /* \"#utility.yul\":10104:10113   */\n      dup4\n        /* \"#utility.yul\":10095:10102   */\n      dup6\n        /* \"#utility.yul\":10091:10114   */\n      sub\n        /* \"#utility.yul\":10087:10119   */\n      slt\n        /* \"#utility.yul\":10084:10203   */\n      iszero\n      tag_431\n      jumpi\n        /* \"#utility.yul\":10122:10201   */\n      tag_432\n      tag_258\n      jump\t// in\n    tag_432:\n        /* \"#utility.yul\":10084:10203   */\n    tag_431:\n        /* \"#utility.yul\":10242:10243   */\n      0x00\n        /* \"#utility.yul\":10267:10320   */\n      tag_433\n        /* \"#utility.yul\":10312:10319   */\n      dup6\n        /* \"#utility.yul\":10303:10309   */\n      dup3\n        /* \"#utility.yul\":10292:10301   */\n      dup7\n        /* \"#utility.yul\":10288:10310   */\n      add\n        /* \"#utility.yul\":10267:10320   */\n      tag_277\n      jump\t// in\n    tag_433:\n        /* \"#utility.yul\":10257:10320   */\n      swap3\n      pop\n        /* \"#utility.yul\":10213:10330   */\n      pop\n        /* \"#utility.yul\":10369:10371   */\n      0x20\n        /* \"#utility.yul\":10395:10448   */\n      tag_434\n        /* \"#utility.yul\":10440:10447   */\n      dup6\n        /* \"#utility.yul\":10431:10437   */\n      dup3\n        /* \"#utility.yul\":10420:10429   */\n      dup7\n        /* \"#utility.yul\":10416:10438   */\n      add\n        /* \"#utility.yul\":10395:10448   */\n      tag_277\n      jump\t// in\n    tag_434:\n        /* \"#utility.yul\":10385:10448   */\n      swap2\n      pop\n        /* \"#utility.yul\":10340:10458   */\n      pop\n        /* \"#utility.yul\":9991:10465   */\n      swap3\n      pop\n      swap3\n      swap1\n      pop\n      jump\t// out\n        /* \"#utility.yul\":10471:10651   */\n    tag_289:\n        /* \"#utility.yul\":10519:10596   */\n      0x4e487b7100000000000000000000000000000000000000000000000000000000\n        /* \"#utility.yul\":10516:10517   */\n      0x00\n        /* \"#utility.yul\":10509:10597   */\n      mstore\n        /* \"#utility.yul\":10616:10620   */\n      0x22\n        /* \"#utility.yul\":10613:10614   */\n      0x04\n        /* \"#utility.yul\":10606:10621   */\n      mstore\n        /* \"#utility.yul\":10640:10644   */\n      0x24\n        /* \"#utility.yul\":10637:10638   */\n      0x00\n        /* \"#utility.yul\":10630:10645   */\n      revert\n        /* \"#utility.yul\":10657:10977   */\n    tag_87:\n        /* \"#utility.yul\":10701:10707   */\n      0x00\n        /* \"#utility.yul\":10738:10739   */\n      0x02\n        /* \"#utility.yul\":10732:10736   */\n      dup3\n        /* \"#utility.yul\":10728:10740   */\n      div\n        /* \"#utility.yul\":10718:10740   */\n      swap1\n      pop\n        /* \"#utility.yul\":10785:10786   */\n      0x01\n        /* \"#utility.yul\":10779:10783   */\n      dup3\n        /* \"#utility.yul\":10775:10787   */\n      and\n        /* \"#utility.yul\":10806:10824   */\n      dup1\n        /* \"#utility.yul\":10796:10877   */\n      tag_437\n      jumpi\n        /* \"#utility.yul\":10862:10866   */\n      0x7f\n        /* \"#utility.yul\":10854:10860   */\n      dup3\n        /* \"#utility.yul\":10850:10867   */\n      and\n        /* \"#utility.yul\":10840:10867   */\n      swap2\n      pop\n        /* \"#utility.yul\":10796:10877   */\n    tag_437:\n        /* \"#utility.yul\":10924:10926   */\n      0x20\n        /* \"#utility.yul\":10916:10922   */\n      dup3\n        /* \"#utility.yul\":10913:10927   */\n      lt\n        /* \"#utility.yul\":10893:10911   */\n      dup2\n        /* \"#utility.yul\":10890:10928   */\n      sub\n        /* \"#utility.yul\":10887:10971   */\n      tag_438\n      jumpi\n        /* \"#utility.yul\":10943:10961   */\n      tag_439\n      tag_289\n      jump\t// in\n    tag_439:\n        /* \"#utility.yul\":10887:10971   */\n    tag_438:\n        /* \"#utility.yul\":10708:10977   */\n      pop\n        /* \"#utility.yul\":10657:10977   */\n      swap2\n      swap1\n      pop\n      jump\t// out\n        /* \"#utility.yul\":10983:11157   */\n    tag_290:\n        /* \"#utility.yul\":11123:11149   */\n      0x4552433732313a20696e76616c696420746f6b656e2049440000000000000000\n        /* \"#utility.yul\":11119:11120   */\n      0x00\n        /* \"#utility.yul\":11111:11117   */\n      dup3\n        /* \"#utility.yul\":11107:11121   */\n      add\n        /* \"#utility.yul\":11100:11150   */\n      mstore\n        /* \"#utility.yul\":10983:11157   */\n      pop\n      jump\t// out\n        /* \"#utility.yul\":11163:11529   */\n    tag_291:\n        /* \"#utility.yul\":11305:11308   */\n      0x00\n        /* \"#utility.yul\":11326:11393   */\n      tag_442\n        /* \"#utility.yul\":11390:11392   */\n      0x18\n        /* \"#utility.yul\":11385:11388   */\n      dup4\n        /* \"#utility.yul\":11326:11393   */\n      tag_266\n      jump\t// in\n    tag_442:\n        /* \"#utility.yul\":11319:11393   */\n      swap2\n      pop\n        /* \"#utility.yul\":11402:11495   */\n      tag_443\n        /* \"#utility.yul\":11491:11494   */\n      dup3\n        /* \"#utility.yul\":11402:11495   */\n      tag_290\n      jump\t// in\n    tag_443:\n        /* \"#utility.yul\":11520:11522   */\n      0x20\n        /* \"#utility.yul\":11515:11518   */\n      dup3\n        /* \"#utility.yul\":11511:11523   */\n      add\n        /* \"#utility.yul\":11504:11523   */\n      swap1\n      pop\n        /* \"#utility.yul\":11163:11529   */\n      swap2\n      swap1\n      pop\n      jump\t// out\n        /* \"#utility.yul\":11535:11954   */\n    tag_108:\n        /* \"#utility.yul\":11701:11705   */\n      0x00\n        /* \"#utility.yul\":11739:11741   */\n      0x20\n        /* \"#utility.yul\":11728:11737   */\n      dup3\n        /* \"#utility.yul\":11724:11742   */\n      add\n        /* \"#utility.yul\":11716:11742   */\n      swap1\n      pop\n        /* \"#utility.yul\":11788:11797   */\n      dup2\n        /* \"#utility.yul\":11782:11786   */\n      dup2\n        /* \"#utility.yul\":11778:11798   */\n      sub\n        /* \"#utility.yul\":11774:11775   */\n      0x00\n        /* \"#utility.yul\":11763:11772   */\n      dup4\n        /* \"#utility.yul\":11759:11776   */\n      add\n        /* \"#utility.yul\":11752:11799   */\n      mstore\n        /* \"#utility.yul\":11816:11947   */\n      tag_445\n        /* \"#utility.yul\":11942:11946   */\n      dup2\n        /* \"#utility.yul\":11816:11947   */\n      tag_291\n      jump\t// in\n    tag_445:\n        /* \"#utility.yul\":11808:11947   */\n      swap1\n      pop\n        /* \"#utility.yul\":11535:11954   */\n      swap2\n      swap1\n      pop\n      jump\t// out\n        /* \"#utility.yul\":11960:12188   */\n    tag_292:\n        /* \"#utility.yul\":12100:12134   */\n      0x4552433732313a2061646472657373207a65726f206973206e6f742061207661\n        /* \"#utility.yul\":12096:12097   */\n      0x00\n        /* \"#utility.yul\":12088:12094   */\n      dup3\n        /* \"#utility.yul\":12084:12098   */\n      add\n        /* \"#utility.yul\":12077:12135   */\n      mstore\n        /* \"#utility.yul\":12169:12180   */\n      0x6c6964206f776e65720000000000000000000000000000000000000000000000\n        /* \"#utility.yul\":12164:12166   */\n      0x20\n        /* \"#utility.yul\":12156:12162   */\n      dup3\n        /* \"#utility.yul\":12152:12167   */\n      add\n        /* \"#utility.yul\":12145:12181   */\n      mstore\n        /* \"#utility.yul\":11960:12188   */\n      pop\n      jump\t// out\n        /* \"#utility.yul\":12194:12560   */\n    tag_293:\n        /* \"#utility.yul\":12336:12339   */\n      0x00\n        /* \"#utility.yul\":12357:12424   */\n      tag_448\n        /* \"#utility.yul\":12421:12423   */\n      0x29\n        /* \"#utility.yul\":12416:12419   */\n      dup4\n        /* \"#utility.yul\":12357:12424   */\n      tag_266\n      jump\t// in\n    tag_448:\n        /* \"#utility.yul\":12350:12424   */\n      swap2\n      pop\n        /* \"#utility.yul\":12433:12526   */\n      tag_449\n        /* \"#utility.yul\":12522:12525   */\n      dup3\n        /* \"#utility.yul\":12433:12526   */\n      tag_292\n      jump\t// in\n    tag_449:\n        /* \"#utility.yul\":12551:12553   */\n      0x40\n        /* \"#utility.yul\":12546:12549   */\n      dup3\n        /* \"#utility.yul\":12542:12554   */\n      add\n        /* \"#utility.yul\":12535:12554   */\n      swap1\n      pop\n        /* \"#utility.yul\":12194:12560   */\n      swap2\n      swap1\n      pop\n      jump\t// out\n        /* \"#utility.yul\":12566:12985   */\n    tag_112:\n        /* \"#utility.yul\":12732:12736   */\n      0x00\n        /* \"#utility.yul\":12770:12772   */\n      0x20\n        /* \"#utility.yul\":12759:12768   */\n      dup3\n        /* \"#utility.yul\":12755:12773   */\n      add\n        /* \"#utility.yul\":12747:12773   */\n      swap1\n      pop\n        /* \"#utility.yul\":12819:12828   */\n      dup2\n        /* \"#utility.yul\":12813:12817   */\n      dup2\n        /* \"#utility.yul\":12809:12829   */\n      sub\n        /* \"#utility.yul\":12805:12806   */\n      0x00\n        /* \"#utility.yul\":12794:12803   */\n      dup4\n        /* \"#utility.yul\":12790:12807   */\n      add\n        /* \"#utility.yul\":12783:12830   */\n      mstore\n        /* \"#utility.yul\":12847:12978   */\n      tag_451\n        /* \"#utility.yul\":12973:12977   */\n      dup2\n        /* \"#utility.yul\":12847:12978   */\n      tag_293\n      jump\t// in\n    tag_451:\n        /* \"#utility.yul\":12839:12978   */\n      swap1\n      pop\n        /* \"#utility.yul\":12566:12985   */\n      swap2\n      swap1\n      pop\n      jump\t// out\n        /* \"#utility.yul\":12991:13139   */\n    tag_294:\n        /* \"#utility.yul\":13093:13104   */\n      0x00\n        /* \"#utility.yul\":13130:13133   */\n      dup2\n        /* \"#utility.yul\":13115:13133   */\n      swap1\n      pop\n        /* \"#utility.yul\":12991:13139   */\n      swap3\n      swap2\n      pop\n      pop\n      jump\t// out\n        /* \"#utility.yul\":13145:13535   */\n    tag_295:\n        /* \"#utility.yul\":13251:13254   */\n      0x00\n        /* \"#utility.yul\":13279:13318   */\n      tag_454\n        /* \"#utility.yul\":13312:13317   */\n      dup3\n        /* \"#utility.yul\":13279:13318   */\n      tag_265\n      jump\t// in\n    tag_454:\n        /* \"#utility.yul\":13334:13423   */\n      tag_455\n        /* \"#utility.yul\":13416:13422   */\n      dup2\n        /* \"#utility.yul\":13411:13414   */\n      dup6\n        /* \"#utility.yul\":13334:13423   */\n      tag_294\n      jump\t// in\n    tag_455:\n        /* \"#utility.yul\":13327:13423   */\n      swap4\n      pop\n        /* \"#utility.yul\":13432:13497   */\n      tag_456\n        /* \"#utility.yul\":13490:13496   */\n      dup2\n        /* \"#utility.yul\":13485:13488   */\n      dup6\n        /* \"#utility.yul\":13478:13482   */\n      0x20\n        /* \"#utility.yul\":13471:13476   */\n      dup7\n        /* \"#utility.yul\":13467:13483   */\n      add\n        /* \"#utility.yul\":13432:13497   */\n      tag_267\n      jump\t// in\n    tag_456:\n        /* \"#utility.yul\":13522:13528   */\n      dup1\n        /* \"#utility.yul\":13517:13520   */\n      dup5\n        /* \"#utility.yul\":13513:13529   */\n      add\n        /* \"#utility.yul\":13506:13529   */\n      swap2\n      pop\n        /* \"#utility.yul\":13255:13535   */\n      pop\n        /* \"#utility.yul\":13145:13535   */\n      swap3\n      swap2\n      pop\n      pop\n      jump\t// out\n        /* \"#utility.yul\":13541:13976   */\n    tag_139:\n        /* \"#utility.yul\":13721:13724   */\n      0x00\n        /* \"#utility.yul\":13743:13838   */\n      tag_458\n        /* \"#utility.yul\":13834:13837   */\n      dup3\n        /* \"#utility.yul\":13825:13831   */\n      dup6\n        /* \"#utility.yul\":13743:13838   */\n      tag_295\n      jump\t// in\n    tag_458:\n        /* \"#utility.yul\":13736:13838   */\n      swap2\n      pop\n        /* \"#utility.yul\":13855:13950   */\n      tag_459\n        /* \"#utility.yul\":13946:13949   */\n      dup3\n        /* \"#utility.yul\":13937:13943   */\n      dup5\n        /* \"#utility.yul\":13855:13950   */\n      tag_295\n      jump\t// in\n    tag_459:\n        /* \"#utility.yul\":13848:13950   */\n      swap2\n      pop\n        /* \"#utility.yul\":13967:13970   */\n      dup2\n        /* \"#utility.yul\":13960:13970   */\n      swap1\n      pop\n        /* \"#utility.yul\":13541:13976   */\n      swap4\n      swap3\n      pop\n      pop\n      pop\n      jump\t// out\n        /* \"#utility.yul\":13982:14206   */\n    tag_296:\n        /* \"#utility.yul\":14122:14156   */\n      0x4552433732313a207472616e736665722066726f6d20696e636f727265637420\n        /* \"#utility.yul\":14118:14119   */\n      0x00\n        /* \"#utility.yul\":14110:14116   */\n      dup3\n        /* \"#utility.yul\":14106:14120   */\n      add\n        /* \"#utility.yul\":14099:14157   */\n      mstore\n        /* \"#utility.yul\":14191:14198   */\n      0x6f776e6572000000000000000000000000000000000000000000000000000000\n        /* \"#utility.yul\":14186:14188   */\n      0x20\n        /* \"#utility.yul\":14178:14184   */\n      dup3\n        /* \"#utility.yul\":14174:14189   */\n      add\n        /* \"#utility.yul\":14167:14199   */\n      mstore\n        /* \"#utility.yul\":13982:14206   */\n      pop\n      jump\t// out\n        /* \"#utility.yul\":14212:14578   */\n    tag_297:\n        /* \"#utility.yul\":14354:14357   */\n      0x00\n        /* \"#utility.yul\":14375:14442   */\n      tag_462\n        /* \"#utility.yul\":14439:14441   */\n      0x25\n        /* \"#utility.yul\":14434:14437   */\n      dup4\n        /* \"#utility.yul\":14375:14442   */\n      tag_266\n      jump\t// in\n    tag_462:\n        /* \"#utility.yul\":14368:14442   */\n      swap2\n      pop\n        /* \"#utility.yul\":14451:14544   */\n      tag_463\n        /* \"#utility.yul\":14540:14543   */\n      dup3\n        /* \"#utility.yul\":14451:14544   */\n      tag_296\n      jump\t// in\n    tag_463:\n        /* \"#utility.yul\":14569:14571   */\n      0x40\n        /* \"#utility.yul\":14564:14567   */\n      dup3\n        /* \"#utility.yul\":14560:14572   */\n      add\n        /* \"#utility.yul\":14553:14572   */\n      swap1\n      pop\n        /* \"#utility.yul\":14212:14578   */\n      swap2\n      swap1\n      pop\n      jump\t// out\n        /* \"#utility.yul\":14584:15003   */\n    tag_153:\n        /* \"#utility.yul\":14750:14754   */\n      0x00\n        /* \"#utility.yul\":14788:14790   */\n      0x20\n        /* \"#utility.yul\":14777:14786   */\n      dup3\n        /* \"#utility.yul\":14773:14791   */\n      add\n        /* \"#utility.yul\":14765:14791   */\n      swap1\n      pop\n        /* \"#utility.yul\":14837:14846   */\n      dup2\n        /* \"#utility.yul\":14831:14835   */\n      dup2\n        /* \"#utility.yul\":14827:14847   */\n      sub\n        /* \"#utility.yul\":14823:14824   */\n      0x00\n        /* \"#utility.yul\":14812:14821   */\n      dup4\n        /* \"#utility.yul\":14808:14825   */\n      add\n        /* \"#utility.yul\":14801:14848   */\n      mstore\n        /* \"#utility.yul\":14865:14996   */\n      tag_465\n        /* \"#utility.yul\":14991:14995   */\n      dup2\n        /* \"#utility.yul\":14865:14996   */\n      tag_297\n      jump\t// in\n    tag_465:\n        /* \"#utility.yul\":14857:14996   */\n      swap1\n      pop\n        /* \"#utility.yul\":14584:15003   */\n      swap2\n      swap1\n      pop\n      jump\t// out\n        /* \"#utility.yul\":15009:15232   */\n    tag_298:\n        /* \"#utility.yul\":15149:15183   */\n      0x4552433732313a207472616e7366657220746f20746865207a65726f20616464\n        /* \"#utility.yul\":15145:15146   */\n      0x00\n        /* \"#utility.yul\":15137:15143   */\n      dup3\n        /* \"#utility.yul\":15133:15147   */\n      add\n        /* \"#utility.yul\":15126:15184   */\n      mstore\n        /* \"#utility.yul\":15218:15224   */\n      0x7265737300000000000000000000000000000000000000000000000000000000\n        /* \"#utility.yul\":15213:15215   */\n      0x20\n        /* \"#utility.yul\":15205:15211   */\n      dup3\n        /* \"#utility.yul\":15201:15216   */\n      add\n        /* \"#utility.yul\":15194:15225   */\n      mstore\n        /* \"#utility.yul\":15009:15232   */\n      pop\n      jump\t// out\n        /* \"#utility.yul\":15238:15604   */\n    tag_299:\n        /* \"#utility.yul\":15380:15383   */\n      0x00\n        /* \"#utility.yul\":15401:15468   */\n      tag_468\n        /* \"#utility.yul\":15465:15467   */\n      0x24\n        /* \"#utility.yul\":15460:15463   */\n      dup4\n        /* \"#utility.yul\":15401:15468   */\n      tag_266\n      jump\t// in\n    tag_468:\n        /* \"#utility.yul\":15394:15468   */\n      swap2\n      pop\n        /* \"#utility.yul\":15477:15570   */\n      tag_469\n        /* \"#utility.yul\":15566:15569   */\n      dup3\n        /* \"#utility.yul\":15477:15570   */\n      tag_298\n      jump\t// in\n    tag_469:\n        /* \"#utility.yul\":15595:15597   */\n      0x40\n        /* \"#utility.yul\":15590:15593   */\n      dup3\n        /* \"#utility.yul\":15586:15598   */\n      add\n        /* \"#utility.yul\":15579:15598   */\n      swap1\n      pop\n        /* \"#utility.yul\":15238:15604   */\n      swap2\n      swap1\n      pop\n      jump\t// out\n        /* \"#utility.yul\":15610:16029   */\n    tag_156:\n        /* \"#utility.yul\":15776:15780   */\n      0x00\n        /* \"#utility.yul\":15814:15816   */\n      0x20\n        /* \"#utility.yul\":15803:15812   */\n      dup3\n        /* \"#utility.yul\":15799:15817   */\n      add\n        /* \"#utility.yul\":15791:15817   */\n      swap1\n      pop\n        /* \"#utility.yul\":15863:15872   */\n      dup2\n        /* \"#utility.yul\":15857:15861   */\n      dup2\n        /* \"#utility.yul\":15853:15873   */\n      sub\n        /* \"#utility.yul\":15849:15850   */\n      0x00\n        /* \"#utility.yul\":15838:15847   */\n      dup4\n        /* \"#utility.yul\":15834:15851   */\n      add\n        /* \"#utility.yul\":15827:15874   */\n      mstore\n        /* \"#utility.yul\":15891:16022   */\n      tag_471\n        /* \"#utility.yul\":16017:16021   */\n      dup2\n        /* \"#utility.yul\":15891:16022   */\n      tag_299\n      jump\t// in\n    tag_471:\n        /* \"#utility.yul\":15883:16022   */\n      swap1\n      pop\n        /* \"#utility.yul\":15610:16029   */\n      swap2\n      swap1\n      pop\n      jump\t// out\n        /* \"#utility.yul\":16035:16272   */\n    tag_300:\n        /* \"#utility.yul\":16175:16209   */\n      0x4552433732313a207472616e7366657220746f206e6f6e204552433732315265\n        /* \"#utility.yul\":16171:16172   */\n      0x00\n        /* \"#utility.yul\":16163:16169   */\n      dup3\n        /* \"#utility.yul\":16159:16173   */\n      add\n        /* \"#utility.yul\":16152:16210   */\n      mstore\n        /* \"#utility.yul\":16244:16264   */\n      0x63656976657220696d706c656d656e7465720000000000000000000000000000\n        /* \"#utility.yul\":16239:16241   */\n      0x20\n        /* \"#utility.yul\":16231:16237   */\n      dup3\n        /* \"#utility.yul\":16227:16242   */\n      add\n        /* \"#utility.yul\":16220:16265   */\n      mstore\n        /* \"#utility.yul\":16035:16272   */\n      pop\n      jump\t// out\n        /* \"#utility.yul\":16278:16644   */\n    tag_301:\n        /* \"#utility.yul\":16420:16423   */\n      0x00\n        /* \"#utility.yul\":16441:16508   */\n      tag_474\n        /* \"#utility.yul\":16505:16507   */\n      0x32\n        /* \"#utility.yul\":16500:16503   */\n      dup4\n        /* \"#utility.yul\":16441:16508   */\n      tag_266\n      jump\t// in\n    tag_474:\n        /* \"#utility.yul\":16434:16508   */\n      swap2\n      pop\n        /* \"#utility.yul\":16517:16610   */\n      tag_475\n        /* \"#utility.yul\":16606:16609   */\n      dup3\n        /* \"#utility.yul\":16517:16610   */\n      tag_300\n      jump\t// in\n    tag_475:\n        /* \"#utility.yul\":16635:16637   */\n      0x40\n        /* \"#utility.yul\":16630:16633   */\n      dup3\n        /* \"#utility.yul\":16626:16638   */\n      add\n        /* \"#utility.yul\":16619:16638   */\n      swap1\n      pop\n        /* \"#utility.yul\":16278:16644   */\n      swap2\n      swap1\n      pop\n      jump\t// out\n        /* \"#utility.yul\":16650:17069   */\n    tag_172:\n        /* \"#utility.yul\":16816:16820   */\n      0x00\n        /* \"#utility.yul\":16854:16856   */\n      0x20\n        /* \"#utility.yul\":16843:16852   */\n      dup3\n        /* \"#utility.yul\":16839:16857   */\n      add\n        /* \"#utility.yul\":16831:16857   */\n      swap1\n      pop\n        /* \"#utility.yul\":16903:16912   */\n      dup2\n        /* \"#utility.yul\":16897:16901   */\n      dup2\n        /* \"#utility.yul\":16893:16913   */\n      sub\n        /* \"#utility.yul\":16889:16890   */\n      0x00\n        /* \"#utility.yul\":16878:16887   */\n      dup4\n        /* \"#utility.yul\":16874:16891   */\n      add\n        /* \"#utility.yul\":16867:16914   */\n      mstore\n        /* \"#utility.yul\":16931:17062   */\n      tag_477\n        /* \"#utility.yul\":17057:17061   */\n      dup2\n        /* \"#utility.yul\":16931:17062   */\n      tag_301\n      jump\t// in\n    tag_477:\n        /* \"#utility.yul\":16923:17062   */\n      swap1\n      pop\n        /* \"#utility.yul\":16650:17069   */\n      swap2\n      swap1\n      pop\n      jump\t// out\n        /* \"#utility.yul\":17075:17250   */\n    tag_302:\n        /* \"#utility.yul\":17215:17242   */\n      0x4552433732313a20617070726f766520746f2063616c6c657200000000000000\n        /* \"#utility.yul\":17211:17212   */\n      0x00\n        /* \"#utility.yul\":17203:17209   */\n      dup3\n        /* \"#utility.yul\":17199:17213   */\n      add\n        /* \"#utility.yul\":17192:17243   */\n      mstore\n        /* \"#utility.yul\":17075:17250   */\n      pop\n      jump\t// out\n        /* \"#utility.yul\":17256:17622   */\n    tag_303:\n        /* \"#utility.yul\":17398:17401   */\n      0x00\n        /* \"#utility.yul\":17419:17486   */\n      tag_480\n        /* \"#utility.yul\":17483:17485   */\n      0x19\n        /* \"#utility.yul\":17478:17481   */\n      dup4\n        /* \"#utility.yul\":17419:17486   */\n      tag_266\n      jump\t// in\n    tag_480:\n        /* \"#utility.yul\":17412:17486   */\n      swap2\n      pop\n        /* \"#utility.yul\":17495:17588   */\n      tag_481\n        /* \"#utility.yul\":17584:17587   */\n      dup3\n        /* \"#utility.yul\":17495:17588   */\n      tag_302\n      jump\t// in\n    tag_481:\n        /* \"#utility.yul\":17613:17615   */\n      0x20\n        /* \"#utility.yul\":17608:17611   */\n      dup3\n        /* \"#utility.yul\":17604:17616   */\n      add\n        /* \"#utility.yul\":17597:17616   */\n      swap1\n      pop\n        /* \"#utility.yul\":17256:17622   */\n      swap2\n      swap1\n      pop\n      jump\t// out\n        /* \"#utility.yul\":17628:18047   */\n    tag_177:\n        /* \"#utility.yul\":17794:17798   */\n      0x00\n        /* \"#utility.yul\":17832:17834   */\n      0x20\n        /* \"#utility.yul\":17821:17830   */\n      dup3\n        /* \"#utility.yul\":17817:17835   */\n      add\n        /* \"#utility.yul\":17809:17835   */\n      swap1\n      pop\n        /* \"#utility.yul\":17881:17890   */\n      dup2\n        /* \"#utility.yul\":17875:17879   */\n      dup2\n        /* \"#utility.yul\":17871:17891   */\n      sub\n        /* \"#utility.yul\":17867:17868   */\n      0x00\n        /* \"#utility.yul\":17856:17865   */\n      dup4\n        /* \"#utility.yul\":17852:17869   */\n      add\n        /* \"#utility.yul\":17845:17892   */\n      mstore\n        /* \"#utility.yul\":17909:18040   */\n      tag_483\n        /* \"#utility.yul\":18035:18039   */\n      dup2\n        /* \"#utility.yul\":17909:18040   */\n      tag_303\n      jump\t// in\n    tag_483:\n        /* \"#utility.yul\":17901:18040   */\n      swap1\n      pop\n        /* \"#utility.yul\":17628:18047   */\n      swap2\n      swap1\n      pop\n      jump\t// out\n        /* \"#utility.yul\":18053:18233   */\n    tag_196:\n        /* \"#utility.yul\":18101:18178   */\n      0x4e487b7100000000000000000000000000000000000000000000000000000000\n        /* \"#utility.yul\":18098:18099   */\n      0x00\n        /* \"#utility.yul\":18091:18179   */\n      mstore\n        /* \"#utility.yul\":18198:18202   */\n      0x12\n        /* \"#utility.yul\":18195:18196   */\n      0x04\n        /* \"#utility.yul\":18188:18203   */\n      mstore\n        /* \"#utility.yul\":18222:18226   */\n      0x24\n        /* \"#utility.yul\":18219:18220   */\n      0x00\n        /* \"#utility.yul\":18212:18227   */\n      revert\n        /* \"#utility.yul\":18239:18421   */\n    tag_304:\n        /* \"#utility.yul\":18379:18413   */\n      0x4552433732313a206d696e7420746f20746865207a65726f2061646472657373\n        /* \"#utility.yul\":18375:18376   */\n      0x00\n        /* \"#utility.yul\":18367:18373   */\n      dup3\n        /* \"#utility.yul\":18363:18377   */\n      add\n        /* \"#utility.yul\":18356:18414   */\n      mstore\n        /* \"#utility.yul\":18239:18421   */\n      pop\n      jump\t// out\n        /* \"#utility.yul\":18427:18793   */\n    tag_305:\n        /* \"#utility.yul\":18569:18572   */\n      0x00\n        /* \"#utility.yul\":18590:18657   */\n      tag_487\n        /* \"#utility.yul\":18654:18656   */\n      0x20\n        /* \"#utility.yul\":18649:18652   */\n      dup4\n        /* \"#utility.yul\":18590:18657   */\n      tag_266\n      jump\t// in\n    tag_487:\n        /* \"#utility.yul\":18583:18657   */\n      swap2\n      pop\n        /* \"#utility.yul\":18666:18759   */\n      tag_488\n        /* \"#utility.yul\":18755:18758   */\n      dup3\n        /* \"#utility.yul\":18666:18759   */\n      tag_304\n      jump\t// in\n    tag_488:\n        /* \"#utility.yul\":18784:18786   */\n      0x20\n        /* \"#utility.yul\":18779:18782   */\n      dup3\n        /* \"#utility.yul\":18775:18787   */\n      add\n        /* \"#utility.yul\":18768:18787   */\n      swap1\n      pop\n        /* \"#utility.yul\":18427:18793   */\n      swap2\n      swap1\n      pop\n      jump\t// out\n        /* \"#utility.yul\":18799:19218   */\n    tag_205:\n        /* \"#utility.yul\":18965:18969   */\n      0x00\n        /* \"#utility.yul\":19003:19005   */\n      0x20\n        /* \"#utility.yul\":18992:19001   */\n      dup3\n        /* \"#utility.yul\":18988:19006   */\n      add\n        /* \"#utility.yul\":18980:19006   */\n      swap1\n      pop\n        /* \"#utility.yul\":19052:19061   */\n      dup2\n        /* \"#utility.yul\":19046:19050   */\n      dup2\n        /* \"#utility.yul\":19042:19062   */\n      sub\n        /* \"#utility.yul\":19038:19039   */\n      0x00\n        /* \"#utility.yul\":19027:19036   */\n      dup4\n        /* \"#utility.yul\":19023:19040   */\n      add\n        /* \"#utility.yul\":19016:19063   */\n      mstore\n        /* \"#utility.yul\":19080:19211   */\n      tag_490\n        /* \"#utility.yul\":19206:19210   */\n      dup2\n        /* \"#utility.yul\":19080:19211   */\n      tag_305\n      jump\t// in\n    tag_490:\n        /* \"#utility.yul\":19072:19211   */\n      swap1\n      pop\n        /* \"#utility.yul\":18799:19218   */\n      swap2\n      swap1\n      pop\n      jump\t// out\n        /* \"#utility.yul\":19224:19402   */\n    tag_306:\n        /* \"#utility.yul\":19364:19394   */\n      0x4552433732313a20746f6b656e20616c7265616479206d696e74656400000000\n        /* \"#utility.yul\":19360:19361   */\n      0x00\n        /* \"#utility.yul\":19352:19358   */\n      dup3\n        /* \"#utility.yul\":19348:19362   */\n      add\n        /* \"#utility.yul\":19341:19395   */\n      mstore\n        /* \"#utility.yul\":19224:19402   */\n      pop\n      jump\t// out\n        /* \"#utility.yul\":19408:19774   */\n    tag_307:\n        /* \"#utility.yul\":19550:19553   */\n      0x00\n        /* \"#utility.yul\":19571:19638   */\n      tag_493\n        /* \"#utility.yul\":19635:19637   */\n      0x1c\n        /* \"#utility.yul\":19630:19633   */\n      dup4\n        /* \"#utility.yul\":19571:19638   */\n      tag_266\n      jump\t// in\n    tag_493:\n        /* \"#utility.yul\":19564:19638   */\n      swap2\n      pop\n        /* \"#utility.yul\":19647:19740   */\n      tag_494\n        /* \"#utility.yul\":19736:19739   */\n      dup3\n        /* \"#utility.yul\":19647:19740   */\n      tag_306\n      jump\t// in\n    tag_494:\n        /* \"#utility.yul\":19765:19767   */\n      0x20\n        /* \"#utility.yul\":19760:19763   */\n      dup3\n        /* \"#utility.yul\":19756:19768   */\n      add\n        /* \"#utility.yul\":19749:19768   */\n      swap1\n      pop\n        /* \"#utility.yul\":19408:19774   */\n      swap2\n      swap1\n      pop\n      jump\t// out\n        /* \"#utility.yul\":19780:20199   */\n    tag_209:\n        /* \"#utility.yul\":19946:19950   */\n      0x00\n        /* \"#utility.yul\":19984:19986   */\n      0x20\n        /* \"#utility.yul\":19973:19982   */\n      dup3\n        /* \"#utility.yul\":19969:19987   */\n      add\n        /* \"#utility.yul\":19961:19987   */\n      swap1\n      pop\n        /* \"#utility.yul\":20033:20042   */\n      dup2\n        /* \"#utility.yul\":20027:20031   */\n      dup2\n        /* \"#utility.yul\":20023:20043   */\n      sub\n        /* \"#utility.yul\":20019:20020   */\n      0x00\n        /* \"#utility.yul\":20008:20017   */\n      dup4\n        /* \"#utility.yul\":20004:20021   */\n      add\n        /* \"#utility.yul\":19997:20044   */\n      mstore\n        /* \"#utility.yul\":20061:20192   */\n      tag_496\n        /* \"#utility.yul\":20187:20191   */\n      dup2\n        /* \"#utility.yul\":20061:20192   */\n      tag_307\n      jump\t// in\n    tag_496:\n        /* \"#utility.yul\":20053:20192   */\n      swap1\n      pop\n        /* \"#utility.yul\":19780:20199   */\n      swap2\n      swap1\n      pop\n      jump\t// out\n        /* \"#utility.yul\":20205:20303   */\n    tag_308:\n        /* \"#utility.yul\":20256:20262   */\n      0x00\n        /* \"#utility.yul\":20290:20295   */\n      dup2\n        /* \"#utility.yul\":20284:20296   */\n      mload\n        /* \"#utility.yul\":20274:20296   */\n      swap1\n      pop\n        /* \"#utility.yul\":20205:20303   */\n      swap2\n      swap1\n      pop\n      jump\t// out\n        /* \"#utility.yul\":20309:20477   */\n    tag_309:\n        /* \"#utility.yul\":20392:20403   */\n      0x00\n        /* \"#utility.yul\":20426:20432   */\n      dup3\n        /* \"#utility.yul\":20421:20424   */\n      dup3\n        /* \"#utility.yul\":20414:20433   */\n      mstore\n        /* \"#utility.yul\":20466:20470   */\n      0x20\n        /* \"#utility.yul\":20461:20464   */\n      dup3\n        /* \"#utility.yul\":20457:20471   */\n      add\n        /* \"#utility.yul\":20442:20471   */\n      swap1\n      pop\n        /* \"#utility.yul\":20309:20477   */\n      swap3\n      swap2\n      pop\n      pop\n      jump\t// out\n        /* \"#utility.yul\":20483:20856   */\n    tag_310:\n        /* \"#utility.yul\":20569:20572   */\n      0x00\n        /* \"#utility.yul\":20597:20635   */\n      tag_500\n        /* \"#utility.yul\":20629:20634   */\n      dup3\n        /* \"#utility.yul\":20597:20635   */\n      tag_308\n      jump\t// in\n    tag_500:\n        /* \"#utility.yul\":20651:20721   */\n      tag_501\n        /* \"#utility.yul\":20714:20720   */\n      dup2\n        /* \"#utility.yul\":20709:20712   */\n      dup6\n        /* \"#utility.yul\":20651:20721   */\n      tag_309\n      jump\t// in\n    tag_501:\n        /* \"#utility.yul\":20644:20721   */\n      swap4\n      pop\n        /* \"#utility.yul\":20730:20795   */\n      tag_502\n        /* \"#utility.yul\":20788:20794   */\n      dup2\n        /* \"#utility.yul\":20783:20786   */\n      dup6\n        /* \"#utility.yul\":20776:20780   */\n      0x20\n        /* \"#utility.yul\":20769:20774   */\n      dup7\n        /* \"#utility.yul\":20765:20781   */\n      add\n        /* \"#utility.yul\":20730:20795   */\n      tag_267\n      jump\t// in\n    tag_502:\n        /* \"#utility.yul\":20820:20849   */\n      tag_503\n        /* \"#utility.yul\":20842:20848   */\n      dup2\n        /* \"#utility.yul\":20820:20849   */\n      tag_268\n      jump\t// in\n    tag_503:\n        /* \"#utility.yul\":20815:20818   */\n      dup5\n        /* \"#utility.yul\":20811:20850   */\n      add\n        /* \"#utility.yul\":20804:20850   */\n      swap2\n      pop\n        /* \"#utility.yul\":20573:20856   */\n      pop\n        /* \"#utility.yul\":20483:20856   */\n      swap3\n      swap2\n      pop\n      pop\n      jump\t// out\n        /* \"#utility.yul\":20862:21502   */\n    tag_221:\n        /* \"#utility.yul\":21057:21061   */\n      0x00\n        /* \"#utility.yul\":21095:21098   */\n      0x80\n        /* \"#utility.yul\":21084:21093   */\n      dup3\n        /* \"#utility.yul\":21080:21099   */\n      add\n        /* \"#utility.yul\":21072:21099   */\n      swap1\n      pop\n        /* \"#utility.yul\":21109:21180   */\n      tag_505\n        /* \"#utility.yul\":21177:21178   */\n      0x00\n        /* \"#utility.yul\":21166:21175   */\n      dup4\n        /* \"#utility.yul\":21162:21179   */\n      add\n        /* \"#utility.yul\":21153:21159   */\n      dup8\n        /* \"#utility.yul\":21109:21180   */\n      tag_275\n      jump\t// in\n    tag_505:\n        /* \"#utility.yul\":21190:21262   */\n      tag_506\n        /* \"#utility.yul\":21258:21260   */\n      0x20\n        /* \"#utility.yul\":21247:21256   */\n      dup4\n        /* \"#utility.yul\":21243:21261   */\n      add\n        /* \"#utility.yul\":21234:21240   */\n      dup7\n        /* \"#utility.yul\":21190:21262   */\n      tag_275\n      jump\t// in\n    tag_506:\n        /* \"#utility.yul\":21272:21344   */\n      tag_507\n        /* \"#utility.yul\":21340:21342   */\n      0x40\n        /* \"#utility.yul\":21329:21338   */\n      dup4\n        /* \"#utility.yul\":21325:21343   */\n      add\n        /* \"#utility.yul\":21316:21322   */\n      dup6\n        /* \"#utility.yul\":21272:21344   */\n      tag_278\n      jump\t// in\n    tag_507:\n        /* \"#utility.yul\":21391:21400   */\n      dup2\n        /* \"#utility.yul\":21385:21389   */\n      dup2\n        /* \"#utility.yul\":21381:21401   */\n      sub\n        /* \"#utility.yul\":21376:21378   */\n      0x60\n        /* \"#utility.yul\":21365:21374   */\n      dup4\n        /* \"#utility.yul\":21361:21379   */\n      add\n        /* \"#utility.yul\":21354:21402   */\n      mstore\n        /* \"#utility.yul\":21419:21495   */\n      tag_508\n        /* \"#utility.yul\":21490:21494   */\n      dup2\n        /* \"#utility.yul\":21481:21487   */\n      dup5\n        /* \"#utility.yul\":21419:21495   */\n      tag_310\n      jump\t// in\n    tag_508:\n        /* \"#utility.yul\":21411:21495   */\n      swap1\n      pop\n        /* \"#utility.yul\":20862:21502   */\n      swap6\n      swap5\n      pop\n      pop\n      pop\n      pop\n      pop\n      jump\t// out\n        /* \"#utility.yul\":21508:21649   */\n    tag_311:\n        /* \"#utility.yul\":21564:21569   */\n      0x00\n        /* \"#utility.yul\":21595:21601   */\n      dup2\n        /* \"#utility.yul\":21589:21602   */\n      mload\n        /* \"#utility.yul\":21580:21602   */\n      swap1\n      pop\n        /* \"#utility.yul\":21611:21643   */\n      tag_510\n        /* \"#utility.yul\":21637:21642   */\n      dup2\n        /* \"#utility.yul\":21611:21643   */\n      tag_261\n      jump\t// in\n    tag_510:\n        /* \"#utility.yul\":21508:21649   */\n      swap3\n      swap2\n      pop\n      pop\n      jump\t// out\n        /* \"#utility.yul\":21655:22004   */\n    tag_224:\n        /* \"#utility.yul\":21724:21730   */\n      0x00\n        /* \"#utility.yul\":21773:21775   */\n      0x20\n        /* \"#utility.yul\":21761:21770   */\n      dup3\n        /* \"#utility.yul\":21752:21759   */\n      dup5\n        /* \"#utility.yul\":21748:21771   */\n      sub\n        /* \"#utility.yul\":21744:21776   */\n      slt\n        /* \"#utility.yul\":21741:21860   */\n      iszero\n      tag_512\n      jumpi\n        /* \"#utility.yul\":21779:21858   */\n      tag_513\n      tag_258\n      jump\t// in\n    tag_513:\n        /* \"#utility.yul\":21741:21860   */\n    tag_512:\n        /* \"#utility.yul\":21899:21900   */\n      0x00\n        /* \"#utility.yul\":21924:21987   */\n      tag_514\n        /* \"#utility.yul\":21979:21986   */\n      dup5\n        /* \"#utility.yul\":21970:21976   */\n      dup3\n        /* \"#utility.yul\":21959:21968   */\n      dup6\n        /* \"#utility.yul\":21955:21977   */\n      add\n        /* \"#utility.yul\":21924:21987   */\n      tag_311\n      jump\t// in\n    tag_514:\n        /* \"#utility.yul\":21914:21987   */\n      swap2\n      pop\n        /* \"#utility.yul\":21870:21997   */\n      pop\n        /* \"#utility.yul\":21655:22004   */\n      swap3\n      swap2\n      pop\n      pop\n      jump\t// out\n\n    auxdata: 0xa264697066735822122060d00636234ba48a069a51d204a91c5a600420cbe35b2739bb990bbe53bc748064736f6c63430008140033\n}\n",
				"bytecode": {
					"linkReferences": {},
					"object": "608060405234801561000f575f80fd5b506120188061001d5f395ff3fe608060405234801561000f575f80fd5b50600436106100e8575f3560e01c806370a082311161008a578063a22cb46511610064578063a22cb46514610258578063b88d4fde14610274578063c87b56dd14610290578063e985e9c5146102c0576100e8565b806370a08231146101ee57806395d89b411461021e578063a14481941461023c576100e8565b8063095ea7b3116100c6578063095ea7b31461016a57806323b872dd1461018657806342842e0e146101a25780636352211e146101be576100e8565b806301ffc9a7146100ec57806306fdde031461011c578063081812fc1461013a575b5f80fd5b6101066004803603810190610101919061152d565b6102f0565b6040516101139190611572565b60405180910390f35b6101246103d1565b6040516101319190611615565b60405180910390f35b610154600480360381019061014f9190611668565b610461565b60405161016191906116d2565b60405180910390f35b610184600480360381019061017f9190611715565b6104a3565b005b6101a0600480360381019061019b9190611753565b6104b1565b005b6101bc60048036038101906101b79190611753565b6104c1565b005b6101d860048036038101906101d39190611668565b6104e0565b6040516101e591906116d2565b60405180910390f35b610208600480360381019061020391906117a3565b610564565b60405161021591906117dd565b60405180910390f35b610226610618565b6040516102339190611615565b60405180910390f35b61025660048036038101906102519190611715565b6106a8565b005b610272600480360381019061026d9190611820565b6106c5565b005b61028e6004803603810190610289919061198a565b6106db565b005b6102aa60048036038101906102a59190611668565b6106ed565b6040516102b79190611615565b60405180910390f35b6102da60048036038101906102d59190611a0a565b610752565b6040516102e79190611572565b60405180910390f35b5f7f80ac58cd000000000000000000000000000000000000000000000000000000007bffffffffffffffffffffffffffffffffffffffffffffffffffffffff1916827bffffffffffffffffffffffffffffffffffffffffffffffffffffffff191614806103ba57507f5b5e139f000000000000000000000000000000000000000000000000000000007bffffffffffffffffffffffffffffffffffffffffffffffffffffffff1916827bffffffffffffffffffffffffffffffffffffffffffffffffffffffff1916145b806103ca57506103c9826107e0565b5b9050919050565b6060600180546103e090611a75565b80601f016020809104026020016040519081016040528092919081815260200182805461040c90611a75565b80156104575780601f1061042e57610100808354040283529160200191610457565b820191905f5260205f20905b81548152906001019060200180831161043a57829003601f168201915b5050505050905090565b5f61046b82610849565b60055f8381526020019081526020015f205f9054906101000a900473ffffffffffffffffffffffffffffffffffffffff169050919050565b6104ad8282610894565b5050565b6104bc83838361094a565b505050565b6104db83838360405180602001604052805f8152506106db565b505050565b5f806104eb83610c36565b90505f73ffffffffffffffffffffffffffffffffffffffff168173ffffffffffffffffffffffffffffffffffffffff160361055b576040517f08c379a000000000000000000000000000000000000000000000000000000000815260040161055290611aef565b60405180910390fd5b80915050919050565b5f8073ffffffffffffffffffffffffffffffffffffffff168273ffffffffffffffffffffffffffffffffffffffff16036105d3576040517f08c379a00000000000000000000000000000000000000000000000000000000081526004016105ca90611b7d565b60405180910390fd5b60045f8373ffffffffffffffffffffffffffffffffffffffff1673ffffffffffffffffffffffffffffffffffffffff1681526020019081526020015f20549050919050565b60606002805461062790611a75565b80601f016020809104026020016040519081016040528092919081815260200182805461065390611a75565b801561069e5780601f106106755761010080835404028352916020019161069e565b820191905f5260205f20905b81548152906001019060200180831161068157829003601f168201915b5050505050905090565b6106c1828260405180602001604052805f815250610c6f565b5050565b6106d76106d0610cc9565b8383610cd0565b5050565b6106e784848484610e37565b50505050565b60606106f882610849565b5f610701610e93565b90505f81511161071f5760405180602001604052805f81525061074a565b8061072984610ea9565b60405160200161073a929190611bd5565b6040516020818303038152906040525b915050919050565b5f60065f8473ffffffffffffffffffffffffffffffffffffffff1673ffffffffffffffffffffffffffffffffffffffff1681526020019081526020015f205f8373ffffffffffffffffffffffffffffffffffffffff1673ffffffffffffffffffffffffffffffffffffffff1681526020019081526020015f205f9054906101000a900460ff16905092915050565b5f7f01ffc9a7000000000000000000000000000000000000000000000000000000007bffffffffffffffffffffffffffffffffffffffffffffffffffffffff1916827bffffffffffffffffffffffffffffffffffffffffffffffffffffffff1916149050919050565b61085281610f73565b610891576040517f08c379a000000000000000000000000000000000000000000000000000000000815260040161088890611aef565b60405180910390fd5b50565b8160055f8381526020019081526020015f205f6101000a81548173ffffffffffffffffffffffffffffffffffffffff021916908373ffffffffffffffffffffffffffffffffffffffff160217905550808273ffffffffffffffffffffffffffffffffffffffff16610904836104e0565b73ffffffffffffffffffffffffffffffffffffffff167f8c5be1e5ebec7d5bd14f71427d1e84f3dd0314c0f7b2291e5b200ac8c7c3b92560405160405180910390a45050565b8273ffffffffffffffffffffffffffffffffffffffff1661096a826104e0565b73ffffffffffffffffffffffffffffffffffffffff16146109c0576040517f08c379a00000000000000000000000000000000000000000000000000000000081526004016109b790611c68565b60405180910390fd5b5f73ffffffffffffffffffffffffffffffffffffffff168273ffffffffffffffffffffffffffffffffffffffff1603610a2e576040517f08c379a0000000000000000000000000000000000000000000000000000000008152600401610a2590611cf6565b60405180910390fd5b610a3b8383836001610fb3565b8273ffffffffffffffffffffffffffffffffffffffff16610a5b826104e0565b73ffffffffffffffffffffffffffffffffffffffff1614610ab1576040517f08c379a0000000000000000000000000000000000000000000000000000000008152600401610aa890611c68565b60405180910390fd5b60055f8281526020019081526020015f205f6101000a81549073ffffffffffffffffffffffffffffffffffffffff0219169055600160045f8573ffffffffffffffffffffffffffffffffffffffff1673ffffffffffffffffffffffffffffffffffffffff1681526020019081526020015f205f8282540392505081905550600160045f8473ffffffffffffffffffffffffffffffffffffffff1673ffffffffffffffffffffffffffffffffffffffff1681526020019081526020015f205f82825401925050819055508160035f8381526020019081526020015f205f6101000a81548173ffffffffffffffffffffffffffffffffffffffff021916908373ffffffffffffffffffffffffffffffffffffffff160217905550808273ffffffffffffffffffffffffffffffffffffffff168473ffffffffffffffffffffffffffffffffffffffff167fddf252ad1be2c89b69c2b068fc378daa952ba7f163c4a11628f55a4df523b3ef60405160405180910390a4610c318383836001610fb9565b505050565b5f60035f8381526020019081526020015f205f9054906101000a900473ffffffffffffffffffffffffffffffffffffffff169050919050565b610c798383610fbf565b610c855f8484846111d2565b610cc4576040517f08c379a0000000000000000000000000000000000000000000000000000000008152600401610cbb90611d84565b60405180910390fd5b505050565b5f33905090565b8173ffffffffffffffffffffffffffffffffffffffff168373ffffffffffffffffffffffffffffffffffffffff1603610d3e576040517f08c379a0000000000000000000000000000000000000000000000000000000008152600401610d3590611dec565b60405180910390fd5b8060065f8573ffffffffffffffffffffffffffffffffffffffff1673ffffffffffffffffffffffffffffffffffffffff1681526020019081526020015f205f8473ffffffffffffffffffffffffffffffffffffffff1673ffffffffffffffffffffffffffffffffffffffff1681526020019081526020015f205f6101000a81548160ff0219169083151502179055508173ffffffffffffffffffffffffffffffffffffffff168373ffffffffffffffffffffffffffffffffffffffff167f17307eab39ab6107e8899845ad3d59bd9653f200f220920489ca2b5937696c3183604051610e2a9190611572565b60405180910390a3505050565b610e4284848461094a565b610e4e848484846111d2565b610e8d576040517f08c379a0000000000000000000000000000000000000000000000000000000008152600401610e8490611d84565b60405180910390fd5b50505050565b606060405180602001604052805f815250905090565b60605f6001610eb784611354565b0190505f8167ffffffffffffffff811115610ed557610ed4611866565b5b6040519080825280601f01601f191660200182016040528015610f075781602001600182028036833780820191505090505b5090505f82602001820190505b600115610f68578080600190039150507f3031323334353637383961626364656600000000000000000000000000000000600a86061a8153600a8581610f5d57610f5c611e0a565b5b0494505f8503610f14575b819350505050919050565b5f8073ffffffffffffffffffffffffffffffffffffffff16610f9483610c36565b73ffffffffffffffffffffffffffffffffffffffff1614159050919050565b50505050565b50505050565b5f73ffffffffffffffffffffffffffffffffffffffff168273ffffffffffffffffffffffffffffffffffffffff160361102d576040517f08c379a000000000000000000000000000000000000000000000000000000000815260040161102490611e81565b60405180910390fd5b61103681610f73565b15611076576040517f08c379a000000000000000000000000000000000000000000000000000000000815260040161106d90611ee9565b60405180910390fd5b6110835f83836001610fb3565b61108c81610f73565b156110cc576040517f08c379a00000000000000000000000000000000000000000000000000000000081526004016110c390611ee9565b60405180910390fd5b600160045f8473ffffffffffffffffffffffffffffffffffffffff1673ffffffffffffffffffffffffffffffffffffffff1681526020019081526020015f205f82825401925050819055508160035f8381526020019081526020015f205f6101000a81548173ffffffffffffffffffffffffffffffffffffffff021916908373ffffffffffffffffffffffffffffffffffffffff160217905550808273ffffffffffffffffffffffffffffffffffffffff165f73ffffffffffffffffffffffffffffffffffffffff167fddf252ad1be2c89b69c2b068fc378daa952ba7f163c4a11628f55a4df523b3ef60405160405180910390a46111ce5f83836001610fb9565b5050565b5f6111f28473ffffffffffffffffffffffffffffffffffffffff166114a5565b15611347578373ffffffffffffffffffffffffffffffffffffffff1663150b7a0261121b610cc9565b8786866040518563ffffffff1660e01b815260040161123d9493929190611f59565b6020604051808303815f875af192505050801561127857506040513d601f19601f820116820180604052508101906112759190611fb7565b60015b6112f7573d805f81146112a6576040519150601f19603f3d011682016040523d82523d5f602084013e6112ab565b606091505b505f8151036112ef576040517f08c379a00000000000000000000000000000000000000000000000000000000081526004016112e690611d84565b60405180910390fd5b805181602001fd5b63150b7a0260e01b7bffffffffffffffffffffffffffffffffffffffffffffffffffffffff1916817bffffffffffffffffffffffffffffffffffffffffffffffffffffffff19161491505061134c565b600190505b949350505050565b5f805f90507a184f03e93ff9f4daa797ed6e38ed64bf6a1f01000000000000000083106113b0577a184f03e93ff9f4daa797ed6e38ed64bf6a1f01000000000000000083816113a6576113a5611e0a565b5b0492506040810190505b6d04ee2d6d415b85acef810000000083106113ed576d04ee2d6d415b85acef810000000083816113e3576113e2611e0a565b5b0492506020810190505b662386f26fc10000831061141c57662386f26fc10000838161141257611411611e0a565b5b0492506010810190505b6305f5e1008310611445576305f5e100838161143b5761143a611e0a565b5b0492506008810190505b612710831061146a5761271083816114605761145f611e0a565b5b0492506004810190505b6064831061148d576064838161148357611482611e0a565b5b0492506002810190505b600a831061149c576001810190505b80915050919050565b5f808273ffffffffffffffffffffffffffffffffffffffff163b119050919050565b5f604051905090565b5f80fd5b5f80fd5b5f7fffffffff0000000000000000000000000000000000000000000000000000000082169050919050565b61150c816114d8565b8114611516575f80fd5b50565b5f8135905061152781611503565b92915050565b5f60208284031215611542576115416114d0565b5b5f61154f84828501611519565b91505092915050565b5f8115159050919050565b61156c81611558565b82525050565b5f6020820190506115855f830184611563565b92915050565b5f81519050919050565b5f82825260208201905092915050565b5f5b838110156115c25780820151818401526020810190506115a7565b5f8484015250505050565b5f601f19601f8301169050919050565b5f6115e78261158b565b6115f18185611595565b93506116018185602086016115a5565b61160a816115cd565b840191505092915050565b5f6020820190508181035f83015261162d81846115dd565b905092915050565b5f819050919050565b61164781611635565b8114611651575f80fd5b50565b5f813590506116628161163e565b92915050565b5f6020828403121561167d5761167c6114d0565b5b5f61168a84828501611654565b91505092915050565b5f73ffffffffffffffffffffffffffffffffffffffff82169050919050565b5f6116bc82611693565b9050919050565b6116cc816116b2565b82525050565b5f6020820190506116e55f8301846116c3565b92915050565b6116f4816116b2565b81146116fe575f80fd5b50565b5f8135905061170f816116eb565b92915050565b5f806040838503121561172b5761172a6114d0565b5b5f61173885828601611701565b925050602061174985828601611654565b9150509250929050565b5f805f6060848603121561176a576117696114d0565b5b5f61177786828701611701565b935050602061178886828701611701565b925050604061179986828701611654565b9150509250925092565b5f602082840312156117b8576117b76114d0565b5b5f6117c584828501611701565b91505092915050565b6117d781611635565b82525050565b5f6020820190506117f05f8301846117ce565b92915050565b6117ff81611558565b8114611809575f80fd5b50565b5f8135905061181a816117f6565b92915050565b5f8060408385031215611836576118356114d0565b5b5f61184385828601611701565b92505060206118548582860161180c565b9150509250929050565b5f80fd5b5f80fd5b7f4e487b71000000000000000000000000000000000000000000000000000000005f52604160045260245ffd5b61189c826115cd565b810181811067ffffffffffffffff821117156118bb576118ba611866565b5b80604052505050565b5f6118cd6114c7565b90506118d98282611893565b919050565b5f67ffffffffffffffff8211156118f8576118f7611866565b5b611901826115cd565b9050602081019050919050565b828183375f83830152505050565b5f61192e611929846118de565b6118c4565b90508281526020810184848401111561194a57611949611862565b5b61195584828561190e565b509392505050565b5f82601f8301126119715761197061185e565b5b813561198184826020860161191c565b91505092915050565b5f805f80608085870312156119a2576119a16114d0565b5b5f6119af87828801611701565b94505060206119c087828801611701565b93505060406119d187828801611654565b925050606085013567ffffffffffffffff8111156119f2576119f16114d4565b5b6119fe8782880161195d565b91505092959194509250565b5f8060408385031215611a2057611a1f6114d0565b5b5f611a2d85828601611701565b9250506020611a3e85828601611701565b9150509250929050565b7f4e487b71000000000000000000000000000000000000000000000000000000005f52602260045260245ffd5b5f6002820490506001821680611a8c57607f821691505b602082108103611a9f57611a9e611a48565b5b50919050565b7f4552433732313a20696e76616c696420746f6b656e20494400000000000000005f82015250565b5f611ad9601883611595565b9150611ae482611aa5565b602082019050919050565b5f6020820190508181035f830152611b0681611acd565b9050919050565b7f4552433732313a2061646472657373207a65726f206973206e6f7420612076615f8201527f6c6964206f776e65720000000000000000000000000000000000000000000000602082015250565b5f611b67602983611595565b9150611b7282611b0d565b604082019050919050565b5f6020820190508181035f830152611b9481611b5b565b9050919050565b5f81905092915050565b5f611baf8261158b565b611bb98185611b9b565b9350611bc98185602086016115a5565b80840191505092915050565b5f611be08285611ba5565b9150611bec8284611ba5565b91508190509392505050565b7f4552433732313a207472616e736665722066726f6d20696e636f7272656374205f8201527f6f776e6572000000000000000000000000000000000000000000000000000000602082015250565b5f611c52602583611595565b9150611c5d82611bf8565b604082019050919050565b5f6020820190508181035f830152611c7f81611c46565b9050919050565b7f4552433732313a207472616e7366657220746f20746865207a65726f206164645f8201527f7265737300000000000000000000000000000000000000000000000000000000602082015250565b5f611ce0602483611595565b9150611ceb82611c86565b604082019050919050565b5f6020820190508181035f830152611d0d81611cd4565b9050919050565b7f4552433732313a207472616e7366657220746f206e6f6e2045524337323152655f8201527f63656976657220696d706c656d656e7465720000000000000000000000000000602082015250565b5f611d6e603283611595565b9150611d7982611d14565b604082019050919050565b5f6020820190508181035f830152611d9b81611d62565b9050919050565b7f4552433732313a20617070726f766520746f2063616c6c6572000000000000005f82015250565b5f611dd6601983611595565b9150611de182611da2565b602082019050919050565b5f6020820190508181035f830152611e0381611dca565b9050919050565b7f4e487b71000000000000000000000000000000000000000000000000000000005f52601260045260245ffd5b7f4552433732313a206d696e7420746f20746865207a65726f20616464726573735f82015250565b5f611e6b602083611595565b9150611e7682611e37565b602082019050919050565b5f6020820190508181035f830152611e9881611e5f565b9050919050565b7f4552433732313a20746f6b656e20616c7265616479206d696e746564000000005f82015250565b5f611ed3601c83611595565b9150611ede82611e9f565b602082019050919050565b5f6020820190508181035f830152611f0081611ec7565b9050919050565b5f81519050919050565b5f82825260208201905092915050565b5f611f2b82611f07565b611f358185611f11565b9350611f458185602086016115a5565b611f4e816115cd565b840191505092915050565b5f608082019050611f6c5f8301876116c3565b611f7960208301866116c3565b611f8660408301856117ce565b8181036060830152611f988184611f21565b905095945050505050565b5f81519050611fb181611503565b92915050565b5f60208284031215611fcc57611fcb6114d0565b5b5f611fd984828501611fa3565b9150509291505056fea264697066735822122060d00636234ba48a069a51d204a91c5a600420cbe35b2739bb990bbe53bc748064736f6c63430008140033",
					"opcodes": "PUSH1 0x80 PUSH1 0x40 MSTORE CALLVALUE DUP1 ISZERO PUSH2 0xF JUMPI PUSH0 DUP1 REVERT JUMPDEST POP PUSH2 0x2018 DUP1 PUSH2 0x1D PUSH0 CODECOPY PUSH0 RETURN INVALID PUSH1 0x80 PUSH1 0x40 MSTORE CALLVALUE DUP1 ISZERO PUSH2 0xF JUMPI PUSH0 DUP1 REVERT JUMPDEST POP PUSH1 0x4 CALLDATASIZE LT PUSH2 0xE8 JUMPI PUSH0 CALLDATALOAD PUSH1 0xE0 SHR DUP1 PUSH4 0x70A08231 GT PUSH2 0x8A JUMPI DUP1 PUSH4 0xA22CB465 GT PUSH2 0x64 JUMPI DUP1 PUSH4 0xA22CB465 EQ PUSH2 0x258 JUMPI DUP1 PUSH4 0xB88D4FDE EQ PUSH2 0x274 JUMPI DUP1 PUSH4 0xC87B56DD EQ PUSH2 0x290 JUMPI DUP1 PUSH4 0xE985E9C5 EQ PUSH2 0x2C0 JUMPI PUSH2 0xE8 JUMP JUMPDEST DUP1 PUSH4 0x70A08231 EQ PUSH2 0x1EE JUMPI DUP1 PUSH4 0x95D89B41 EQ PUSH2 0x21E JUMPI DUP1 PUSH4 0xA1448194 EQ PUSH2 0x23C JUMPI PUSH2 0xE8 JUMP JUMPDEST DUP1 PUSH4 0x95EA7B3 GT PUSH2 0xC6 JUMPI DUP1 PUSH4 0x95EA7B3 EQ PUSH2 0x16A JUMPI DUP1 PUSH4 0x23B872DD EQ PUSH2 0x186 JUMPI DUP1 PUSH4 0x42842E0E EQ PUSH2 0x1A2 JUMPI DUP1 PUSH4 0x6352211E EQ PUSH2 0x1BE JUMPI PUSH2 0xE8 JUMP JUMPDEST DUP1 PUSH4 0x1FFC9A7 EQ PUSH2 0xEC JUMPI DUP1 PUSH4 0x6FDDE03 EQ PUSH2 0x11C JUMPI DUP1 PUSH4 0x81812FC EQ PUSH2 0x13A JUMPI JUMPDEST PUSH0 DUP1 REVERT JUMPDEST PUSH2 0x106 PUSH1 0x4 DUP1 CALLDATASIZE SUB DUP2 ADD SWAP1 PUSH2 0x101 SWAP2 SWAP1 PUSH2 0x152D JUMP JUMPDEST PUSH2 0x2F0 JUMP JUMPDEST PUSH1 0x40 MLOAD PUSH2 0x113 SWAP2 SWAP1 PUSH2 0x1572 JUMP JUMPDEST PUSH1 0x40 MLOAD DUP1 SWAP2 SUB SWAP1 RETURN JUMPDEST PUSH2 0x124 PUSH2 0x3D1 JUMP JUMPDEST PUSH1 0x40 MLOAD PUSH2 0x131 SWAP2 SWAP1 PUSH2 0x1615 JUMP JUMPDEST PUSH1 0x40 MLOAD DUP1 SWAP2 SUB SWAP1 RETURN JUMPDEST PUSH2 0x154 PUSH1 0x4 DUP1 CALLDATASIZE SUB DUP2 ADD SWAP1 PUSH2 0x14F SWAP2 SWAP1 PUSH2 0x1668 JUMP JUMPDEST PUSH2 0x461 JUMP JUMPDEST PUSH1 0x40 MLOAD PUSH2 0x161 SWAP2 SWAP1 PUSH2 0x16D2 JUMP JUMPDEST PUSH1 0x40 MLOAD DUP1 SWAP2 SUB SWAP1 RETURN JUMPDEST PUSH2 0x184 PUSH1 0x4 DUP1 CALLDATASIZE SUB DUP2 ADD SWAP1 PUSH2 0x17F SWAP2 SWAP1 PUSH2 0x1715 JUMP JUMPDEST PUSH2 0x4A3 JUMP JUMPDEST STOP JUMPDEST PUSH2 0x1A0 PUSH1 0x4 DUP1 CALLDATASIZE SUB DUP2 ADD SWAP1 PUSH2 0x19B SWAP2 SWAP1 PUSH2 0x1753 JUMP JUMPDEST PUSH2 0x4B1 JUMP JUMPDEST STOP JUMPDEST PUSH2 0x1BC PUSH1 0x4 DUP1 CALLDATASIZE SUB DUP2 ADD SWAP1 PUSH2 0x1B7 SWAP2 SWAP1 PUSH2 0x1753 JUMP JUMPDEST PUSH2 0x4C1 JUMP JUMPDEST STOP JUMPDEST PUSH2 0x1D8 PUSH1 0x4 DUP1 CALLDATASIZE SUB DUP2 ADD SWAP1 PUSH2 0x1D3 SWAP2 SWAP1 PUSH2 0x1668 JUMP JUMPDEST PUSH2 0x4E0 JUMP JUMPDEST PUSH1 0x40 MLOAD PUSH2 0x1E5 SWAP2 SWAP1 PUSH2 0x16D2 JUMP JUMPDEST PUSH1 0x40 MLOAD DUP1 SWAP2 SUB SWAP1 RETURN JUMPDEST PUSH2 0x208 PUSH1 0x4 DUP1 CALLDATASIZE SUB DUP2 ADD SWAP1 PUSH2 0x203 SWAP2 SWAP1 PUSH2 0x17A3 JUMP JUMPDEST PUSH2 0x564 JUMP JUMPDEST PUSH1 0x40 MLOAD PUSH2 0x215 SWAP2 SWAP1 PUSH2 0x17DD JUMP JUMPDEST PUSH1 0x40 MLOAD DUP1 SWAP2 SUB SWAP1 RETURN JUMPDEST PUSH2 0x226 PUSH2 0x618 JUMP JUMPDEST PUSH1 0x40 MLOAD PUSH2 0x233 SWAP2 SWAP1 PUSH2 0x1615 JUMP JUMPDEST PUSH1 0x40 MLOAD DUP1 SWAP2 SUB SWAP1 RETURN JUMPDEST PUSH2 0x256 PUSH1 0x4 DUP1 CALLDATASIZE SUB DUP2 ADD SWAP1 PUSH2 0x251 SWAP2 SWAP1 PUSH2 0x1715 JUMP JUMPDEST PUSH2 0x6A8 JUMP JUMPDEST STOP JUMPDEST PUSH2 0x272 PUSH1 0x4 DUP1 CALLDATASIZE SUB DUP2 ADD SWAP1 PUSH2 0x26D SWAP2 SWAP1 PUSH2 0x1820 JUMP JUMPDEST PUSH2 0x6C5 JUMP JUMPDEST STOP JUMPDEST PUSH2 0x28E PUSH1 0x4 DUP1 CALLDATASIZE SUB DUP2 ADD SWAP1 PUSH2 0x289 SWAP2 SWAP1 PUSH2 0x198A JUMP JUMPDEST PUSH2 0x6DB JUMP JUMPDEST STOP JUMPDEST PUSH2 0x2AA PUSH1 0x4 DUP1 CALLDATASIZE SUB DUP2 ADD SWAP1 PUSH2 0x2A5 SWAP2 SWAP1 PUSH2 0x1668 JUMP JUMPDEST PUSH2 0x6ED JUMP JUMPDEST PUSH1 0x40 MLOAD PUSH2 0x2B7 SWAP2 SWAP1 PUSH2 0x1615 JUMP JUMPDEST PUSH1 0x40 MLOAD DUP1 SWAP2 SUB SWAP1 RETURN JUMPDEST PUSH2 0x2DA PUSH1 0x4 DUP1 CALLDATASIZE SUB DUP2 ADD SWAP1 PUSH2 0x2D5 SWAP2 SWAP1 PUSH2 0x1A0A JUMP JUMPDEST PUSH2 0x752 JUMP JUMPDEST PUSH1 0x40 MLOAD PUSH2 0x2E7 SWAP2 SWAP1 PUSH2 0x1572 JUMP JUMPDEST PUSH1 0x40 MLOAD DUP1 SWAP2 SUB SWAP1 RETURN JUMPDEST PUSH0 PUSH32 0x80AC58CD00000000000000000000000000000000000000000000000000000000 PUSH28 0xFFFFFFFFFFFFFFFFFFFFFFFFFFFFFFFFFFFFFFFFFFFFFFFFFFFFFFFF NOT AND DUP3 PUSH28 0xFFFFFFFFFFFFFFFFFFFFFFFFFFFFFFFFFFFFFFFFFFFFFFFFFFFFFFFF NOT AND EQ DUP1 PUSH2 0x3BA JUMPI POP PUSH32 0x5B5E139F00000000000000000000000000000000000000000000000000000000 PUSH28 0xFFFFFFFFFFFFFFFFFFFFFFFFFFFFFFFFFFFFFFFFFFFFFFFFFFFFFFFF NOT AND DUP3 PUSH28 0xFFFFFFFFFFFFFFFFFFFFFFFFFFFFFFFFFFFFFFFFFFFFFFFFFFFFFFFF NOT AND EQ JUMPDEST DUP1 PUSH2 0x3CA JUMPI POP PUSH2 0x3C9 DUP3 PUSH2 0x7E0 JUMP JUMPDEST JUMPDEST SWAP1 POP SWAP2 SWAP1 POP JUMP JUMPDEST PUSH1 0x60 PUSH1 0x1 DUP1 SLOAD PUSH2 0x3E0 SWAP1 PUSH2 0x1A75 JUMP JUMPDEST DUP1 PUSH1 0x1F ADD PUSH1 0x20 DUP1 SWAP2 DIV MUL PUSH1 0x20 ADD PUSH1 0x40 MLOAD SWAP1 DUP2 ADD PUSH1 0x40 MSTORE DUP1 SWAP3 SWAP2 SWAP1 DUP2 DUP2 MSTORE PUSH1 0x20 ADD DUP3 DUP1 SLOAD PUSH2 0x40C SWAP1 PUSH2 0x1A75 JUMP JUMPDEST DUP1 ISZERO PUSH2 0x457 JUMPI DUP1 PUSH1 0x1F LT PUSH2 0x42E JUMPI PUSH2 0x100 DUP1 DUP4 SLOAD DIV MUL DUP4 MSTORE SWAP2 PUSH1 0x20 ADD SWAP2 PUSH2 0x457 JUMP JUMPDEST DUP3 ADD SWAP2 SWAP1 PUSH0 MSTORE PUSH1 0x20 PUSH0 KECCAK256 SWAP1 JUMPDEST DUP2 SLOAD DUP2 MSTORE SWAP1 PUSH1 0x1 ADD SWAP1 PUSH1 0x20 ADD DUP1 DUP4 GT PUSH2 0x43A JUMPI DUP3 SWAP1 SUB PUSH1 0x1F AND DUP3 ADD SWAP2 JUMPDEST POP POP POP POP POP SWAP1 POP SWAP1 JUMP JUMPDEST PUSH0 PUSH2 0x46B DUP3 PUSH2 0x849 JUMP JUMPDEST PUSH1 0x5 PUSH0 DUP4 DUP2 MSTORE PUSH1 0x20 ADD SWAP1 DUP2 MSTORE PUSH1 0x20 ADD PUSH0 KECCAK256 PUSH0 SWAP1 SLOAD SWAP1 PUSH2 0x100 EXP SWAP1 DIV PUSH20 0xFFFFFFFFFFFFFFFFFFFFFFFFFFFFFFFFFFFFFFFF AND SWAP1 POP SWAP2 SWAP1 POP JUMP JUMPDEST PUSH2 0x4AD DUP3 DUP3 PUSH2 0x894 JUMP JUMPDEST POP POP JUMP JUMPDEST PUSH2 0x4BC DUP4 DUP4 DUP4 PUSH2 0x94A JUMP JUMPDEST POP POP POP JUMP JUMPDEST PUSH2 0x4DB DUP4 DUP4 DUP4 PUSH1 0x40 MLOAD DUP1 PUSH1 0x20 ADD PUSH1 0x40 MSTORE DUP1 PUSH0 DUP2 MSTORE POP PUSH2 0x6DB JUMP JUMPDEST POP POP POP JUMP JUMPDEST PUSH0 DUP1 PUSH2 0x4EB DUP4 PUSH2 0xC36 JUMP JUMPDEST SWAP1 POP PUSH0 PUSH20 0xFFFFFFFFFFFFFFFFFFFFFFFFFFFFFFFFFFFFFFFF AND DUP2 PUSH20 0xFFFFFFFFFFFFFFFFFFFFFFFFFFFFFFFFFFFFFFFF AND SUB PUSH2 0x55B JUMPI PUSH1 0x40 MLOAD PUSH32 0x8C379A000000000000000000000000000000000000000000000000000000000 DUP2 MSTORE PUSH1 0x4 ADD PUSH2 0x552 SWAP1 PUSH2 0x1AEF JUMP JUMPDEST PUSH1 0x40 MLOAD DUP1 SWAP2 SUB SWAP1 REVERT JUMPDEST DUP1 SWAP2 POP POP SWAP2 SWAP1 POP JUMP JUMPDEST PUSH0 DUP1 PUSH20 0xFFFFFFFFFFFFFFFFFFFFFFFFFFFFFFFFFFFFFFFF AND DUP3 PUSH20 0xFFFFFFFFFFFFFFFFFFFFFFFFFFFFFFFFFFFFFFFF AND SUB PUSH2 0x5D3 JUMPI PUSH1 0x40 MLOAD PUSH32 0x8C379A000000000000000000000000000000000000000000000000000000000 DUP2 MSTORE PUSH1 0x4 ADD PUSH2 0x5CA SWAP1 PUSH2 0x1B7D JUMP JUMPDEST PUSH1 0x40 MLOAD DUP1 SWAP2 SUB SWAP1 REVERT JUMPDEST PUSH1 0x4 PUSH0 DUP4 PUSH20 0xFFFFFFFFFFFFFFFFFFFFFFFFFFFFFFFFFFFFFFFF AND PUSH20 0xFFFFFFFFFFFFFFFFFFFFFFFFFFFFFFFFFFFFFFFF AND DUP2 MSTORE PUSH1 0x20 ADD SWAP1 DUP2 MSTORE PUSH1 0x20 ADD PUSH0 KECCAK256 SLOAD SWAP1 POP SWAP2 SWAP1 POP JUMP JUMPDEST PUSH1 0x60 PUSH1 0x2 DUP1 SLOAD PUSH2 0x627 SWAP1 PUSH2 0x1A75 JUMP JUMPDEST DUP1 PUSH1 0x1F ADD PUSH1 0x20 DUP1 SWAP2 DIV MUL PUSH1 0x20 ADD PUSH1 0x40 MLOAD SWAP1 DUP2 ADD PUSH1 0x40 MSTORE DUP1 SWAP3 SWAP2 SWAP1 DUP2 DUP2 MSTORE PUSH1 0x20 ADD DUP3 DUP1 SLOAD PUSH2 0x653 SWAP1 PUSH2 0x1A75 JUMP JUMPDEST DUP1 ISZERO PUSH2 0x69E JUMPI DUP1 PUSH1 0x1F LT PUSH2 0x675 JUMPI PUSH2 0x100 DUP1 DUP4 SLOAD DIV MUL DUP4 MSTORE SWAP2 PUSH1 0x20 ADD SWAP2 PUSH2 0x69E JUMP JUMPDEST DUP3 ADD SWAP2 SWAP1 PUSH0 MSTORE PUSH1 0x20 PUSH0 KECCAK256 SWAP1 JUMPDEST DUP2 SLOAD DUP2 MSTORE SWAP1 PUSH1 0x1 ADD SWAP1 PUSH1 0x20 ADD DUP1 DUP4 GT PUSH2 0x681 JUMPI DUP3 SWAP1 SUB PUSH1 0x1F AND DUP3 ADD SWAP2 JUMPDEST POP POP POP POP POP SWAP1 POP SWAP1 JUMP JUMPDEST PUSH2 0x6C1 DUP3 DUP3 PUSH1 0x40 MLOAD DUP1 PUSH1 0x20 ADD PUSH1 0x40 MSTORE DUP1 PUSH0 DUP2 MSTORE POP PUSH2 0xC6F JUMP JUMPDEST POP POP JUMP JUMPDEST PUSH2 0x6D7 PUSH2 0x6D0 PUSH2 0xCC9 JUMP JUMPDEST DUP4 DUP4 PUSH2 0xCD0 JUMP JUMPDEST POP POP JUMP JUMPDEST PUSH2 0x6E7 DUP5 DUP5 DUP5 DUP5 PUSH2 0xE37 JUMP JUMPDEST POP POP POP POP JUMP JUMPDEST PUSH1 0x60 PUSH2 0x6F8 DUP3 PUSH2 0x849 JUMP JUMPDEST PUSH0 PUSH2 0x701 PUSH2 0xE93 JUMP JUMPDEST SWAP1 POP PUSH0 DUP2 MLOAD GT PUSH2 0x71F JUMPI PUSH1 0x40 MLOAD DUP1 PUSH1 0x20 ADD PUSH1 0x40 MSTORE DUP1 PUSH0 DUP2 MSTORE POP PUSH2 0x74A JUMP JUMPDEST DUP1 PUSH2 0x729 DUP5 PUSH2 0xEA9 JUMP JUMPDEST PUSH1 0x40 MLOAD PUSH1 0x20 ADD PUSH2 0x73A SWAP3 SWAP2 SWAP1 PUSH2 0x1BD5 JUMP JUMPDEST PUSH1 0x40 MLOAD PUSH1 0x20 DUP2 DUP4 SUB SUB DUP2 MSTORE SWAP1 PUSH1 0x40 MSTORE JUMPDEST SWAP2 POP POP SWAP2 SWAP1 POP JUMP JUMPDEST PUSH0 PUSH1 0x6 PUSH0 DUP5 PUSH20 0xFFFFFFFFFFFFFFFFFFFFFFFFFFFFFFFFFFFFFFFF AND PUSH20 0xFFFFFFFFFFFFFFFFFFFFFFFFFFFFFFFFFFFFFFFF AND DUP2 MSTORE PUSH1 0x20 ADD SWAP1 DUP2 MSTORE PUSH1 0x20 ADD PUSH0 KECCAK256 PUSH0 DUP4 PUSH20 0xFFFFFFFFFFFFFFFFFFFFFFFFFFFFFFFFFFFFFFFF AND PUSH20 0xFFFFFFFFFFFFFFFFFFFFFFFFFFFFFFFFFFFFFFFF AND DUP2 MSTORE PUSH1 0x20 ADD SWAP1 DUP2 MSTORE PUSH1 0x20 ADD PUSH0 KECCAK256 PUSH0 SWAP1 SLOAD SWAP1 PUSH2 0x100 EXP SWAP1 DIV PUSH1 0xFF AND SWAP1 POP SWAP3 SWAP2 POP POP JUMP JUMPDEST PUSH0 PUSH32 0x1FFC9A700000000000000000000000000000000000000000000000000000000 PUSH28 0xFFFFFFFFFFFFFFFFFFFFFFFFFFFFFFFFFFFFFFFFFFFFFFFFFFFFFFFF NOT AND DUP3 PUSH28 0xFFFFFFFFFFFFFFFFFFFFFFFFFFFFFFFFFFFFFFFFFFFFFFFFFFFFFFFF NOT AND EQ SWAP1 POP SWAP2 SWAP1 POP JUMP JUMPDEST PUSH2 0x852 DUP2 PUSH2 0xF73 JUMP JUMPDEST PUSH2 0x891 JUMPI PUSH1 0x40 MLOAD PUSH32 0x8C379A000000000000000000000000000000000000000000000000000000000 DUP2 MSTORE PUSH1 0x4 ADD PUSH2 0x888 SWAP1 PUSH2 0x1AEF JUMP JUMPDEST PUSH1 0x40 MLOAD DUP1 SWAP2 SUB SWAP1 REVERT JUMPDEST POP JUMP JUMPDEST DUP2 PUSH1 0x5 PUSH0 DUP4 DUP2 MSTORE PUSH1 0x20 ADD SWAP1 DUP2 MSTORE PUSH1 0x20 ADD PUSH0 KECCAK256 PUSH0 PUSH2 0x100 EXP DUP2 SLOAD DUP2 PUSH20 0xFFFFFFFFFFFFFFFFFFFFFFFFFFFFFFFFFFFFFFFF MUL NOT AND SWAP1 DUP4 PUSH20 0xFFFFFFFFFFFFFFFFFFFFFFFFFFFFFFFFFFFFFFFF AND MUL OR SWAP1 SSTORE POP DUP1 DUP3 PUSH20 0xFFFFFFFFFFFFFFFFFFFFFFFFFFFFFFFFFFFFFFFF AND PUSH2 0x904 DUP4 PUSH2 0x4E0 JUMP JUMPDEST PUSH20 0xFFFFFFFFFFFFFFFFFFFFFFFFFFFFFFFFFFFFFFFF AND PUSH32 0x8C5BE1E5EBEC7D5BD14F71427D1E84F3DD0314C0F7B2291E5B200AC8C7C3B925 PUSH1 0x40 MLOAD PUSH1 0x40 MLOAD DUP1 SWAP2 SUB SWAP1 LOG4 POP POP JUMP JUMPDEST DUP3 PUSH20 0xFFFFFFFFFFFFFFFFFFFFFFFFFFFFFFFFFFFFFFFF AND PUSH2 0x96A DUP3 PUSH2 0x4E0 JUMP JUMPDEST PUSH20 0xFFFFFFFFFFFFFFFFFFFFFFFFFFFFFFFFFFFFFFFF AND EQ PUSH2 0x9C0 JUMPI PUSH1 0x40 MLOAD PUSH32 0x8C379A000000000000000000000000000000000000000000000000000000000 DUP2 MSTORE PUSH1 0x4 ADD PUSH2 0x9B7 SWAP1 PUSH2 0x1C68 JUMP JUMPDEST PUSH1 0x40 MLOAD DUP1 SWAP2 SUB SWAP1 REVERT JUMPDEST PUSH0 PUSH20 0xFFFFFFFFFFFFFFFFFFFFFFFFFFFFFFFFFFFFFFFF AND DUP3 PUSH20 0xFFFFFFFFFFFFFFFFFFFFFFFFFFFFFFFFFFFFFFFF AND SUB PUSH2 0xA2E JUMPI PUSH1 0x40 MLOAD PUSH32 0x8C379A000000000000000000000000000000000000000000000000000000000 DUP2 MSTORE PUSH1 0x4 ADD PUSH2 0xA25 SWAP1 PUSH2 0x1CF6 JUMP JUMPDEST PUSH1 0x40 MLOAD DUP1 SWAP2 SUB SWAP1 REVERT JUMPDEST PUSH2 0xA3B DUP4 DUP4 DUP4 PUSH1 0x1 PUSH2 0xFB3 JUMP JUMPDEST DUP3 PUSH20 0xFFFFFFFFFFFFFFFFFFFFFFFFFFFFFFFFFFFFFFFF AND PUSH2 0xA5B DUP3 PUSH2 0x4E0 JUMP JUMPDEST PUSH20 0xFFFFFFFFFFFFFFFFFFFFFFFFFFFFFFFFFFFFFFFF AND EQ PUSH2 0xAB1 JUMPI PUSH1 0x40 MLOAD PUSH32 0x8C379A000000000000000000000000000000000000000000000000000000000 DUP2 MSTORE PUSH1 0x4 ADD PUSH2 0xAA8 SWAP1 PUSH2 0x1C68 JUMP JUMPDEST PUSH1 0x40 MLOAD DUP1 SWAP2 SUB SWAP1 REVERT JUMPDEST PUSH1 0x5 PUSH0 DUP3 DUP2 MSTORE PUSH1 0x20 ADD SWAP1 DUP2 MSTORE PUSH1 0x20 ADD PUSH0 KECCAK256 PUSH0 PUSH2 0x100 EXP DUP2 SLOAD SWAP1 PUSH20 0xFFFFFFFFFFFFFFFFFFFFFFFFFFFFFFFFFFFFFFFF MUL NOT AND SWAP1 SSTORE PUSH1 0x1 PUSH1 0x4 PUSH0 DUP6 PUSH20 0xFFFFFFFFFFFFFFFFFFFFFFFFFFFFFFFFFFFFFFFF AND PUSH20 0xFFFFFFFFFFFFFFFFFFFFFFFFFFFFFFFFFFFFFFFF AND DUP2 MSTORE PUSH1 0x20 ADD SWAP1 DUP2 MSTORE PUSH1 0x20 ADD PUSH0 KECCAK256 PUSH0 DUP3 DUP3 SLOAD SUB SWAP3 POP POP DUP2 SWAP1 SSTORE POP PUSH1 0x1 PUSH1 0x4 PUSH0 DUP5 PUSH20 0xFFFFFFFFFFFFFFFFFFFFFFFFFFFFFFFFFFFFFFFF AND PUSH20 0xFFFFFFFFFFFFFFFFFFFFFFFFFFFFFFFFFFFFFFFF AND DUP2 MSTORE PUSH1 0x20 ADD SWAP1 DUP2 MSTORE PUSH1 0x20 ADD PUSH0 KECCAK256 PUSH0 DUP3 DUP3 SLOAD ADD SWAP3 POP POP DUP2 SWAP1 SSTORE POP DUP2 PUSH1 0x3 PUSH0 DUP4 DUP2 MSTORE PUSH1 0x20 ADD SWAP1 DUP2 MSTORE PUSH1 0x20 ADD PUSH0 KECCAK256 PUSH0 PUSH2 0x100 EXP DUP2 SLOAD DUP2 PUSH20 0xFFFFFFFFFFFFFFFFFFFFFFFFFFFFFFFFFFFFFFFF MUL NOT AND SWAP1 DUP4 PUSH20 0xFFFFFFFFFFFFFFFFFFFFFFFFFFFFFFFFFFFFFFFF AND MUL OR SWAP1 SSTORE POP DUP1 DUP3 PUSH20 0xFFFFFFFFFFFFFFFFFFFFFFFFFFFFFFFFFFFFFFFF AND DUP5 PUSH20 0xFFFFFFFFFFFFFFFFFFFFFFFFFFFFFFFFFFFFFFFF AND PUSH32 0xDDF252AD1BE2C89B69C2B068FC378DAA952BA7F163C4A11628F55A4DF523B3EF PUSH1 0x40 MLOAD PUSH1 0x40 MLOAD DUP1 SWAP2 SUB SWAP1 LOG4 PUSH2 0xC31 DUP4 DUP4 DUP4 PUSH1 0x1 PUSH2 0xFB9 JUMP JUMPDEST POP POP POP JUMP JUMPDEST PUSH0 PUSH1 0x3 PUSH0 DUP4 DUP2 MSTORE PUSH1 0x20 ADD SWAP1 DUP2 MSTORE PUSH1 0x20 ADD PUSH0 KECCAK256 PUSH0 SWAP1 SLOAD SWAP1 PUSH2 0x100 EXP SWAP1 DIV PUSH20 0xFFFFFFFFFFFFFFFFFFFFFFFFFFFFFFFFFFFFFFFF AND SWAP1 POP SWAP2 SWAP1 POP JUMP JUMPDEST PUSH2 0xC79 DUP4 DUP4 PUSH2 0xFBF JUMP JUMPDEST PUSH2 0xC85 PUSH0 DUP5 DUP5 DUP5 PUSH2 0x11D2 JUMP JUMPDEST PUSH2 0xCC4 JUMPI PUSH1 0x40 MLOAD PUSH32 0x8C379A000000000000000000000000000000000000000000000000000000000 DUP2 MSTORE PUSH1 0x4 ADD PUSH2 0xCBB SWAP1 PUSH2 0x1D84 JUMP JUMPDEST PUSH1 0x40 MLOAD DUP1 SWAP2 SUB SWAP1 REVERT JUMPDEST POP POP POP JUMP JUMPDEST PUSH0 CALLER SWAP1 POP SWAP1 JUMP JUMPDEST DUP2 PUSH20 0xFFFFFFFFFFFFFFFFFFFFFFFFFFFFFFFFFFFFFFFF AND DUP4 PUSH20 0xFFFFFFFFFFFFFFFFFFFFFFFFFFFFFFFFFFFFFFFF AND SUB PUSH2 0xD3E JUMPI PUSH1 0x40 MLOAD PUSH32 0x8C379A000000000000000000000000000000000000000000000000000000000 DUP2 MSTORE PUSH1 0x4 ADD PUSH2 0xD35 SWAP1 PUSH2 0x1DEC JUMP JUMPDEST PUSH1 0x40 MLOAD DUP1 SWAP2 SUB SWAP1 REVERT JUMPDEST DUP1 PUSH1 0x6 PUSH0 DUP6 PUSH20 0xFFFFFFFFFFFFFFFFFFFFFFFFFFFFFFFFFFFFFFFF AND PUSH20 0xFFFFFFFFFFFFFFFFFFFFFFFFFFFFFFFFFFFFFFFF AND DUP2 MSTORE PUSH1 0x20 ADD SWAP1 DUP2 MSTORE PUSH1 0x20 ADD PUSH0 KECCAK256 PUSH0 DUP5 PUSH20 0xFFFFFFFFFFFFFFFFFFFFFFFFFFFFFFFFFFFFFFFF AND PUSH20 0xFFFFFFFFFFFFFFFFFFFFFFFFFFFFFFFFFFFFFFFF AND DUP2 MSTORE PUSH1 0x20 ADD SWAP1 DUP2 MSTORE PUSH1 0x20 ADD PUSH0 KECCAK256 PUSH0 PUSH2 0x100 EXP DUP2 SLOAD DUP2 PUSH1 0xFF MUL NOT AND SWAP1 DUP4 ISZERO ISZERO MUL OR SWAP1 SSTORE POP DUP2 PUSH20 0xFFFFFFFFFFFFFFFFFFFFFFFFFFFFFFFFFFFFFFFF AND DUP4 PUSH20 0xFFFFFFFFFFFFFFFFFFFFFFFFFFFFFFFFFFFFFFFF AND PUSH32 0x17307EAB39AB6107E8899845AD3D59BD9653F200F220920489CA2B5937696C31 DUP4 PUSH1 0x40 MLOAD PUSH2 0xE2A SWAP2 SWAP1 PUSH2 0x1572 JUMP JUMPDEST PUSH1 0x40 MLOAD DUP1 SWAP2 SUB SWAP1 LOG3 POP POP POP JUMP JUMPDEST PUSH2 0xE42 DUP5 DUP5 DUP5 PUSH2 0x94A JUMP JUMPDEST PUSH2 0xE4E DUP5 DUP5 DUP5 DUP5 PUSH2 0x11D2 JUMP JUMPDEST PUSH2 0xE8D JUMPI PUSH1 0x40 MLOAD PUSH32 0x8C379A000000000000000000000000000000000000000000000000000000000 DUP2 MSTORE PUSH1 0x4 ADD PUSH2 0xE84 SWAP1 PUSH2 0x1D84 JUMP JUMPDEST PUSH1 0x40 MLOAD DUP1 SWAP2 SUB SWAP1 REVERT JUMPDEST POP POP POP POP JUMP JUMPDEST PUSH1 0x60 PUSH1 0x40 MLOAD DUP1 PUSH1 0x20 ADD PUSH1 0x40 MSTORE DUP1 PUSH0 DUP2 MSTORE POP SWAP1 POP SWAP1 JUMP JUMPDEST PUSH1 0x60 PUSH0 PUSH1 0x1 PUSH2 0xEB7 DUP5 PUSH2 0x1354 JUMP JUMPDEST ADD SWAP1 POP PUSH0 DUP2 PUSH8 0xFFFFFFFFFFFFFFFF DUP2 GT ISZERO PUSH2 0xED5 JUMPI PUSH2 0xED4 PUSH2 0x1866 JUMP JUMPDEST JUMPDEST PUSH1 0x40 MLOAD SWAP1 DUP1 DUP3 MSTORE DUP1 PUSH1 0x1F ADD PUSH1 0x1F NOT AND PUSH1 0x20 ADD DUP3 ADD PUSH1 0x40 MSTORE DUP1 ISZERO PUSH2 0xF07 JUMPI DUP2 PUSH1 0x20 ADD PUSH1 0x1 DUP3 MUL DUP1 CALLDATASIZE DUP4 CALLDATACOPY DUP1 DUP3 ADD SWAP2 POP POP SWAP1 POP JUMPDEST POP SWAP1 POP PUSH0 DUP3 PUSH1 0x20 ADD DUP3 ADD SWAP1 POP JUMPDEST PUSH1 0x1 ISZERO PUSH2 0xF68 JUMPI DUP1 DUP1 PUSH1 0x1 SWAP1 SUB SWAP2 POP POP PUSH32 0x3031323334353637383961626364656600000000000000000000000000000000 PUSH1 0xA DUP7 MOD BYTE DUP2 MSTORE8 PUSH1 0xA DUP6 DUP2 PUSH2 0xF5D JUMPI PUSH2 0xF5C PUSH2 0x1E0A JUMP JUMPDEST JUMPDEST DIV SWAP5 POP PUSH0 DUP6 SUB PUSH2 0xF14 JUMPI JUMPDEST DUP2 SWAP4 POP POP POP POP SWAP2 SWAP1 POP JUMP JUMPDEST PUSH0 DUP1 PUSH20 0xFFFFFFFFFFFFFFFFFFFFFFFFFFFFFFFFFFFFFFFF AND PUSH2 0xF94 DUP4 PUSH2 0xC36 JUMP JUMPDEST PUSH20 0xFFFFFFFFFFFFFFFFFFFFFFFFFFFFFFFFFFFFFFFF AND EQ ISZERO SWAP1 POP SWAP2 SWAP1 POP JUMP JUMPDEST POP POP POP POP JUMP JUMPDEST POP POP POP POP JUMP JUMPDEST PUSH0 PUSH20 0xFFFFFFFFFFFFFFFFFFFFFFFFFFFFFFFFFFFFFFFF AND DUP3 PUSH20 0xFFFFFFFFFFFFFFFFFFFFFFFFFFFFFFFFFFFFFFFF AND SUB PUSH2 0x102D JUMPI PUSH1 0x40 MLOAD PUSH32 0x8C379A000000000000000000000000000000000000000000000000000000000 DUP2 MSTORE PUSH1 0x4 ADD PUSH2 0x1024 SWAP1 PUSH2 0x1E81 JUMP JUMPDEST PUSH1 0x40 MLOAD DUP1 SWAP2 SUB SWAP1 REVERT JUMPDEST PUSH2 0x1036 DUP2 PUSH2 0xF73 JUMP JUMPDEST ISZERO PUSH2 0x1076 JUMPI PUSH1 0x40 MLOAD PUSH32 0x8C379A000000000000000000000000000000000000000000000000000000000 DUP2 MSTORE PUSH1 0x4 ADD PUSH2 0x106D SWAP1 PUSH2 0x1EE9 JUMP JUMPDEST PUSH1 0x40 MLOAD DUP1 SWAP2 SUB SWAP1 REVERT JUMPDEST PUSH2 0x1083 PUSH0 DUP4 DUP4 PUSH1 0x1 PUSH2 0xFB3 JUMP JUMPDEST PUSH2 0x108C DUP2 PUSH2 0xF73 JUMP JUMPDEST ISZERO PUSH2 0x10CC JUMPI PUSH1 0x40 MLOAD PUSH32 0x8C379A000000000000000000000000000000000000000000000000000000000 DUP2 MSTORE PUSH1 0x4 ADD PUSH2 0x10C3 SWAP1 PUSH2 0x1EE9 JUMP JUMPDEST PUSH1 0x40 MLOAD DUP1 SWAP2 SUB SWAP1 REVERT JUMPDEST PUSH1 0x1 PUSH1 0x4 PUSH0 DUP5 PUSH20 0xFFFFFFFFFFFFFFFFFFFFFFFFFFFFFFFFFFFFFFFF AND PUSH20 0xFFFFFFFFFFFFFFFFFFFFFFFFFFFFFFFFFFFFFFFF AND DUP2 MSTORE PUSH1 0x20 ADD SWAP1 DUP2 MSTORE PUSH1 0x20 ADD PUSH0 KECCAK256 PUSH0 DUP3 DUP3 SLOAD ADD SWAP3 POP POP DUP2 SWAP1 SSTORE POP DUP2 PUSH1 0x3 PUSH0 DUP4 DUP2 MSTORE PUSH1 0x20 ADD SWAP1 DUP2 MSTORE PUSH1 0x20 ADD PUSH0 KECCAK256 PUSH0 PUSH2 0x100 EXP DUP2 SLOAD DUP2 PUSH20 0xFFFFFFFFFFFFFFFFFFFFFFFFFFFFFFFFFFFFFFFF MUL NOT AND SWAP1 DUP4 PUSH20 0xFFFFFFFFFFFFFFFFFFFFFFFFFFFFFFFFFFFFFFFF AND MUL OR SWAP1 SSTORE POP DUP1 DUP3 PUSH20 0xFFFFFFFFFFFFFFFFFFFFFFFFFFFFFFFFFFFFFFFF AND PUSH0 PUSH20 0xFFFFFFFFFFFFFFFFFFFFFFFFFFFFFFFFFFFFFFFF AND PUSH32 0xDDF252AD1BE2C89B69C2B068FC378DAA952BA7F163C4A11628F55A4DF523B3EF PUSH1 0x40 MLOAD PUSH1 0x40 MLOAD DUP1 SWAP2 SUB SWAP1 LOG4 PUSH2 0x11CE PUSH0 DUP4 DUP4 PUSH1 0x1 PUSH2 0xFB9 JUMP JUMPDEST POP POP JUMP JUMPDEST PUSH0 PUSH2 0x11F2 DUP5 PUSH20 0xFFFFFFFFFFFFFFFFFFFFFFFFFFFFFFFFFFFFFFFF AND PUSH2 0x14A5 JUMP JUMPDEST ISZERO PUSH2 0x1347 JUMPI DUP4 PUSH20 0xFFFFFFFFFFFFFFFFFFFFFFFFFFFFFFFFFFFFFFFF AND PUSH4 0x150B7A02 PUSH2 0x121B PUSH2 0xCC9 JUMP JUMPDEST DUP8 DUP7 DUP7 PUSH1 0x40 MLOAD DUP6 PUSH4 0xFFFFFFFF AND PUSH1 0xE0 SHL DUP2 MSTORE PUSH1 0x4 ADD PUSH2 0x123D SWAP5 SWAP4 SWAP3 SWAP2 SWAP1 PUSH2 0x1F59 JUMP JUMPDEST PUSH1 0x20 PUSH1 0x40 MLOAD DUP1 DUP4 SUB DUP2 PUSH0 DUP8 GAS CALL SWAP3 POP POP POP DUP1 ISZERO PUSH2 0x1278 JUMPI POP PUSH1 0x40 MLOAD RETURNDATASIZE PUSH1 0x1F NOT PUSH1 0x1F DUP3 ADD AND DUP3 ADD DUP1 PUSH1 0x40 MSTORE POP DUP2 ADD SWAP1 PUSH2 0x1275 SWAP2 SWAP1 PUSH2 0x1FB7 JUMP JUMPDEST PUSH1 0x1 JUMPDEST PUSH2 0x12F7 JUMPI RETURNDATASIZE DUP1 PUSH0 DUP2 EQ PUSH2 0x12A6 JUMPI PUSH1 0x40 MLOAD SWAP2 POP PUSH1 0x1F NOT PUSH1 0x3F RETURNDATASIZE ADD AND DUP3 ADD PUSH1 0x40 MSTORE RETURNDATASIZE DUP3 MSTORE RETURNDATASIZE PUSH0 PUSH1 0x20 DUP5 ADD RETURNDATACOPY PUSH2 0x12AB JUMP JUMPDEST PUSH1 0x60 SWAP2 POP JUMPDEST POP PUSH0 DUP2 MLOAD SUB PUSH2 0x12EF JUMPI PUSH1 0x40 MLOAD PUSH32 0x8C379A000000000000000000000000000000000000000000000000000000000 DUP2 MSTORE PUSH1 0x4 ADD PUSH2 0x12E6 SWAP1 PUSH2 0x1D84 JUMP JUMPDEST PUSH1 0x40 MLOAD DUP1 SWAP2 SUB SWAP1 REVERT JUMPDEST DUP1 MLOAD DUP2 PUSH1 0x20 ADD REVERT JUMPDEST PUSH4 0x150B7A02 PUSH1 0xE0 SHL PUSH28 0xFFFFFFFFFFFFFFFFFFFFFFFFFFFFFFFFFFFFFFFFFFFFFFFFFFFFFFFF NOT AND DUP2 PUSH28 0xFFFFFFFFFFFFFFFFFFFFFFFFFFFFFFFFFFFFFFFFFFFFFFFFFFFFFFFF NOT AND EQ SWAP2 POP POP PUSH2 0x134C JUMP JUMPDEST PUSH1 0x1 SWAP1 POP JUMPDEST SWAP5 SWAP4 POP POP POP POP JUMP JUMPDEST PUSH0 DUP1 PUSH0 SWAP1 POP PUSH27 0x184F03E93FF9F4DAA797ED6E38ED64BF6A1F010000000000000000 DUP4 LT PUSH2 0x13B0 JUMPI PUSH27 0x184F03E93FF9F4DAA797ED6E38ED64BF6A1F010000000000000000 DUP4 DUP2 PUSH2 0x13A6 JUMPI PUSH2 0x13A5 PUSH2 0x1E0A JUMP JUMPDEST JUMPDEST DIV SWAP3 POP PUSH1 0x40 DUP2 ADD SWAP1 POP JUMPDEST PUSH14 0x4EE2D6D415B85ACEF8100000000 DUP4 LT PUSH2 0x13ED JUMPI PUSH14 0x4EE2D6D415B85ACEF8100000000 DUP4 DUP2 PUSH2 0x13E3 JUMPI PUSH2 0x13E2 PUSH2 0x1E0A JUMP JUMPDEST JUMPDEST DIV SWAP3 POP PUSH1 0x20 DUP2 ADD SWAP1 POP JUMPDEST PUSH7 0x2386F26FC10000 DUP4 LT PUSH2 0x141C JUMPI PUSH7 0x2386F26FC10000 DUP4 DUP2 PUSH2 0x1412 JUMPI PUSH2 0x1411 PUSH2 0x1E0A JUMP JUMPDEST JUMPDEST DIV SWAP3 POP PUSH1 0x10 DUP2 ADD SWAP1 POP JUMPDEST PUSH4 0x5F5E100 DUP4 LT PUSH2 0x1445 JUMPI PUSH4 0x5F5E100 DUP4 DUP2 PUSH2 0x143B JUMPI PUSH2 0x143A PUSH2 0x1E0A JUMP JUMPDEST JUMPDEST DIV SWAP3 POP PUSH1 0x8 DUP2 ADD SWAP1 POP JUMPDEST PUSH2 0x2710 DUP4 LT PUSH2 0x146A JUMPI PUSH2 0x2710 DUP4 DUP2 PUSH2 0x1460 JUMPI PUSH2 0x145F PUSH2 0x1E0A JUMP JUMPDEST JUMPDEST DIV SWAP3 POP PUSH1 0x4 DUP2 ADD SWAP1 POP JUMPDEST PUSH1 0x64 DUP4 LT PUSH2 0x148D JUMPI PUSH1 0x64 DUP4 DUP2 PUSH2 0x1483 JUMPI PUSH2 0x1482 PUSH2 0x1E0A JUMP JUMPDEST JUMPDEST DIV SWAP3 POP PUSH1 0x2 DUP2 ADD SWAP1 POP JUMPDEST PUSH1 0xA DUP4 LT PUSH2 0x149C JUMPI PUSH1 0x1 DUP2 ADD SWAP1 POP JUMPDEST DUP1 SWAP2 POP POP SWAP2 SWAP1 POP JUMP JUMPDEST PUSH0 DUP1 DUP3 PUSH20 0xFFFFFFFFFFFFFFFFFFFFFFFFFFFFFFFFFFFFFFFF AND EXTCODESIZE GT SWAP1 POP SWAP2 SWAP1 POP JUMP JUMPDEST PUSH0 PUSH1 0x40 MLOAD SWAP1 POP SWAP1 JUMP JUMPDEST PUSH0 DUP1 REVERT JUMPDEST PUSH0 DUP1 REVERT JUMPDEST PUSH0 PUSH32 0xFFFFFFFF00000000000000000000000000000000000000000000000000000000 DUP3 AND SWAP1 POP SWAP2 SWAP1 POP JUMP JUMPDEST PUSH2 0x150C DUP2 PUSH2 0x14D8 JUMP JUMPDEST DUP2 EQ PUSH2 0x1516 JUMPI PUSH0 DUP1 REVERT JUMPDEST POP JUMP JUMPDEST PUSH0 DUP2 CALLDATALOAD SWAP1 POP PUSH2 0x1527 DUP2 PUSH2 0x1503 JUMP JUMPDEST SWAP3 SWAP2 POP POP JUMP JUMPDEST PUSH0 PUSH1 0x20 DUP3 DUP5 SUB SLT ISZERO PUSH2 0x1542 JUMPI PUSH2 0x1541 PUSH2 0x14D0 JUMP JUMPDEST JUMPDEST PUSH0 PUSH2 0x154F DUP5 DUP3 DUP6 ADD PUSH2 0x1519 JUMP JUMPDEST SWAP2 POP POP SWAP3 SWAP2 POP POP JUMP JUMPDEST PUSH0 DUP2 ISZERO ISZERO SWAP1 POP SWAP2 SWAP1 POP JUMP JUMPDEST PUSH2 0x156C DUP2 PUSH2 0x1558 JUMP JUMPDEST DUP3 MSTORE POP POP JUMP JUMPDEST PUSH0 PUSH1 0x20 DUP3 ADD SWAP1 POP PUSH2 0x1585 PUSH0 DUP4 ADD DUP5 PUSH2 0x1563 JUMP JUMPDEST SWAP3 SWAP2 POP POP JUMP JUMPDEST PUSH0 DUP2 MLOAD SWAP1 POP SWAP2 SWAP1 POP JUMP JUMPDEST PUSH0 DUP3 DUP3 MSTORE PUSH1 0x20 DUP3 ADD SWAP1 POP SWAP3 SWAP2 POP POP JUMP JUMPDEST PUSH0 JUMPDEST DUP4 DUP2 LT ISZERO PUSH2 0x15C2 JUMPI DUP1 DUP3 ADD MLOAD DUP2 DUP5 ADD MSTORE PUSH1 0x20 DUP2 ADD SWAP1 POP PUSH2 0x15A7 JUMP JUMPDEST PUSH0 DUP5 DUP5 ADD MSTORE POP POP POP POP JUMP JUMPDEST PUSH0 PUSH1 0x1F NOT PUSH1 0x1F DUP4 ADD AND SWAP1 POP SWAP2 SWAP1 POP JUMP JUMPDEST PUSH0 PUSH2 0x15E7 DUP3 PUSH2 0x158B JUMP JUMPDEST PUSH2 0x15F1 DUP2 DUP6 PUSH2 0x1595 JUMP JUMPDEST SWAP4 POP PUSH2 0x1601 DUP2 DUP6 PUSH1 0x20 DUP7 ADD PUSH2 0x15A5 JUMP JUMPDEST PUSH2 0x160A DUP2 PUSH2 0x15CD JUMP JUMPDEST DUP5 ADD SWAP2 POP POP SWAP3 SWAP2 POP POP JUMP JUMPDEST PUSH0 PUSH1 0x20 DUP3 ADD SWAP1 POP DUP2 DUP2 SUB PUSH0 DUP4 ADD MSTORE PUSH2 0x162D DUP2 DUP5 PUSH2 0x15DD JUMP JUMPDEST SWAP1 POP SWAP3 SWAP2 POP POP JUMP JUMPDEST PUSH0 DUP2 SWAP1 POP SWAP2 SWAP1 POP JUMP JUMPDEST PUSH2 0x1647 DUP2 PUSH2 0x1635 JUMP JUMPDEST DUP2 EQ PUSH2 0x1651 JUMPI PUSH0 DUP1 REVERT JUMPDEST POP JUMP JUMPDEST PUSH0 DUP2 CALLDATALOAD SWAP1 POP PUSH2 0x1662 DUP2 PUSH2 0x163E JUMP JUMPDEST SWAP3 SWAP2 POP POP JUMP JUMPDEST PUSH0 PUSH1 0x20 DUP3 DUP5 SUB SLT ISZERO PUSH2 0x167D JUMPI PUSH2 0x167C PUSH2 0x14D0 JUMP JUMPDEST JUMPDEST PUSH0 PUSH2 0x168A DUP5 DUP3 DUP6 ADD PUSH2 0x1654 JUMP JUMPDEST SWAP2 POP POP SWAP3 SWAP2 POP POP JUMP JUMPDEST PUSH0 PUSH20 0xFFFFFFFFFFFFFFFFFFFFFFFFFFFFFFFFFFFFFFFF DUP3 AND SWAP1 POP SWAP2 SWAP1 POP JUMP JUMPDEST PUSH0 PUSH2 0x16BC DUP3 PUSH2 0x1693 JUMP JUMPDEST SWAP1 POP SWAP2 SWAP1 POP JUMP JUMPDEST PUSH2 0x16CC DUP2 PUSH2 0x16B2 JUMP JUMPDEST DUP3 MSTORE POP POP JUMP JUMPDEST PUSH0 PUSH1 0x20 DUP3 ADD SWAP1 POP PUSH2 0x16E5 PUSH0 DUP4 ADD DUP5 PUSH2 0x16C3 JUMP JUMPDEST SWAP3 SWAP2 POP POP JUMP JUMPDEST PUSH2 0x16F4 DUP2 PUSH2 0x16B2 JUMP JUMPDEST DUP2 EQ PUSH2 0x16FE JUMPI PUSH0 DUP1 REVERT JUMPDEST POP JUMP JUMPDEST PUSH0 DUP2 CALLDATALOAD SWAP1 POP PUSH2 0x170F DUP2 PUSH2 0x16EB JUMP JUMPDEST SWAP3 SWAP2 POP POP JUMP JUMPDEST PUSH0 DUP1 PUSH1 0x40 DUP4 DUP6 SUB SLT ISZERO PUSH2 0x172B JUMPI PUSH2 0x172A PUSH2 0x14D0 JUMP JUMPDEST JUMPDEST PUSH0 PUSH2 0x1738 DUP6 DUP3 DUP7 ADD PUSH2 0x1701 JUMP JUMPDEST SWAP3 POP POP PUSH1 0x20 PUSH2 0x1749 DUP6 DUP3 DUP7 ADD PUSH2 0x1654 JUMP JUMPDEST SWAP2 POP POP SWAP3 POP SWAP3 SWAP1 POP JUMP JUMPDEST PUSH0 DUP1 PUSH0 PUSH1 0x60 DUP5 DUP7 SUB SLT ISZERO PUSH2 0x176A JUMPI PUSH2 0x1769 PUSH2 0x14D0 JUMP JUMPDEST JUMPDEST PUSH0 PUSH2 0x1777 DUP7 DUP3 DUP8 ADD PUSH2 0x1701 JUMP JUMPDEST SWAP4 POP POP PUSH1 0x20 PUSH2 0x1788 DUP7 DUP3 DUP8 ADD PUSH2 0x1701 JUMP JUMPDEST SWAP3 POP POP PUSH1 0x40 PUSH2 0x1799 DUP7 DUP3 DUP8 ADD PUSH2 0x1654 JUMP JUMPDEST SWAP2 POP POP SWAP3 POP SWAP3 POP SWAP3 JUMP JUMPDEST PUSH0 PUSH1 0x20 DUP3 DUP5 SUB SLT ISZERO PUSH2 0x17B8 JUMPI PUSH2 0x17B7 PUSH2 0x14D0 JUMP JUMPDEST JUMPDEST PUSH0 PUSH2 0x17C5 DUP5 DUP3 DUP6 ADD PUSH2 0x1701 JUMP JUMPDEST SWAP2 POP POP SWAP3 SWAP2 POP POP JUMP JUMPDEST PUSH2 0x17D7 DUP2 PUSH2 0x1635 JUMP JUMPDEST DUP3 MSTORE POP POP JUMP JUMPDEST PUSH0 PUSH1 0x20 DUP3 ADD SWAP1 POP PUSH2 0x17F0 PUSH0 DUP4 ADD DUP5 PUSH2 0x17CE JUMP JUMPDEST SWAP3 SWAP2 POP POP JUMP JUMPDEST PUSH2 0x17FF DUP2 PUSH2 0x1558 JUMP JUMPDEST DUP2 EQ PUSH2 0x1809 JUMPI PUSH0 DUP1 REVERT JUMPDEST POP JUMP JUMPDEST PUSH0 DUP2 CALLDATALOAD SWAP1 POP PUSH2 0x181A DUP2 PUSH2 0x17F6 JUMP JUMPDEST SWAP3 SWAP2 POP POP JUMP JUMPDEST PUSH0 DUP1 PUSH1 0x40 DUP4 DUP6 SUB SLT ISZERO PUSH2 0x1836 JUMPI PUSH2 0x1835 PUSH2 0x14D0 JUMP JUMPDEST JUMPDEST PUSH0 PUSH2 0x1843 DUP6 DUP3 DUP7 ADD PUSH2 0x1701 JUMP JUMPDEST SWAP3 POP POP PUSH1 0x20 PUSH2 0x1854 DUP6 DUP3 DUP7 ADD PUSH2 0x180C JUMP JUMPDEST SWAP2 POP POP SWAP3 POP SWAP3 SWAP1 POP JUMP JUMPDEST PUSH0 DUP1 REVERT JUMPDEST PUSH0 DUP1 REVERT JUMPDEST PUSH32 0x4E487B7100000000000000000000000000000000000000000000000000000000 PUSH0 MSTORE PUSH1 0x41 PUSH1 0x4 MSTORE PUSH1 0x24 PUSH0 REVERT JUMPDEST PUSH2 0x189C DUP3 PUSH2 0x15CD JUMP JUMPDEST DUP2 ADD DUP2 DUP2 LT PUSH8 0xFFFFFFFFFFFFFFFF DUP3 GT OR ISZERO PUSH2 0x18BB JUMPI PUSH2 0x18BA PUSH2 0x1866 JUMP JUMPDEST JUMPDEST DUP1 PUSH1 0x40 MSTORE POP POP POP JUMP JUMPDEST PUSH0 PUSH2 0x18CD PUSH2 0x14C7 JUMP JUMPDEST SWAP1 POP PUSH2 0x18D9 DUP3 DUP3 PUSH2 0x1893 JUMP JUMPDEST SWAP2 SWAP1 POP JUMP JUMPDEST PUSH0 PUSH8 0xFFFFFFFFFFFFFFFF DUP3 GT ISZERO PUSH2 0x18F8 JUMPI PUSH2 0x18F7 PUSH2 0x1866 JUMP JUMPDEST JUMPDEST PUSH2 0x1901 DUP3 PUSH2 0x15CD JUMP JUMPDEST SWAP1 POP PUSH1 0x20 DUP2 ADD SWAP1 POP SWAP2 SWAP1 POP JUMP JUMPDEST DUP3 DUP2 DUP4 CALLDATACOPY PUSH0 DUP4 DUP4 ADD MSTORE POP POP POP JUMP JUMPDEST PUSH0 PUSH2 0x192E PUSH2 0x1929 DUP5 PUSH2 0x18DE JUMP JUMPDEST PUSH2 0x18C4 JUMP JUMPDEST SWAP1 POP DUP3 DUP2 MSTORE PUSH1 0x20 DUP2 ADD DUP5 DUP5 DUP5 ADD GT ISZERO PUSH2 0x194A JUMPI PUSH2 0x1949 PUSH2 0x1862 JUMP JUMPDEST JUMPDEST PUSH2 0x1955 DUP5 DUP3 DUP6 PUSH2 0x190E JUMP JUMPDEST POP SWAP4 SWAP3 POP POP POP JUMP JUMPDEST PUSH0 DUP3 PUSH1 0x1F DUP4 ADD SLT PUSH2 0x1971 JUMPI PUSH2 0x1970 PUSH2 0x185E JUMP JUMPDEST JUMPDEST DUP2 CALLDATALOAD PUSH2 0x1981 DUP5 DUP3 PUSH1 0x20 DUP7 ADD PUSH2 0x191C JUMP JUMPDEST SWAP2 POP POP SWAP3 SWAP2 POP POP JUMP JUMPDEST PUSH0 DUP1 PUSH0 DUP1 PUSH1 0x80 DUP6 DUP8 SUB SLT ISZERO PUSH2 0x19A2 JUMPI PUSH2 0x19A1 PUSH2 0x14D0 JUMP JUMPDEST JUMPDEST PUSH0 PUSH2 0x19AF DUP8 DUP3 DUP9 ADD PUSH2 0x1701 JUMP JUMPDEST SWAP5 POP POP PUSH1 0x20 PUSH2 0x19C0 DUP8 DUP3 DUP9 ADD PUSH2 0x1701 JUMP JUMPDEST SWAP4 POP POP PUSH1 0x40 PUSH2 0x19D1 DUP8 DUP3 DUP9 ADD PUSH2 0x1654 JUMP JUMPDEST SWAP3 POP POP PUSH1 0x60 DUP6 ADD CALLDATALOAD PUSH8 0xFFFFFFFFFFFFFFFF DUP2 GT ISZERO PUSH2 0x19F2 JUMPI PUSH2 0x19F1 PUSH2 0x14D4 JUMP JUMPDEST JUMPDEST PUSH2 0x19FE DUP8 DUP3 DUP9 ADD PUSH2 0x195D JUMP JUMPDEST SWAP2 POP POP SWAP3 SWAP6 SWAP2 SWAP5 POP SWAP3 POP JUMP JUMPDEST PUSH0 DUP1 PUSH1 0x40 DUP4 DUP6 SUB SLT ISZERO PUSH2 0x1A20 JUMPI PUSH2 0x1A1F PUSH2 0x14D0 JUMP JUMPDEST JUMPDEST PUSH0 PUSH2 0x1A2D DUP6 DUP3 DUP7 ADD PUSH2 0x1701 JUMP JUMPDEST SWAP3 POP POP PUSH1 0x20 PUSH2 0x1A3E DUP6 DUP3 DUP7 ADD PUSH2 0x1701 JUMP JUMPDEST SWAP2 POP POP SWAP3 POP SWAP3 SWAP1 POP JUMP JUMPDEST PUSH32 0x4E487B7100000000000000000000000000000000000000000000000000000000 PUSH0 MSTORE PUSH1 0x22 PUSH1 0x4 MSTORE PUSH1 0x24 PUSH0 REVERT JUMPDEST PUSH0 PUSH1 0x2 DUP3 DIV SWAP1 POP PUSH1 0x1 DUP3 AND DUP1 PUSH2 0x1A8C JUMPI PUSH1 0x7F DUP3 AND SWAP2 POP JUMPDEST PUSH1 0x20 DUP3 LT DUP2 SUB PUSH2 0x1A9F JUMPI PUSH2 0x1A9E PUSH2 0x1A48 JUMP JUMPDEST JUMPDEST POP SWAP2 SWAP1 POP JUMP JUMPDEST PUSH32 0x4552433732313A20696E76616C696420746F6B656E2049440000000000000000 PUSH0 DUP3 ADD MSTORE POP JUMP JUMPDEST PUSH0 PUSH2 0x1AD9 PUSH1 0x18 DUP4 PUSH2 0x1595 JUMP JUMPDEST SWAP2 POP PUSH2 0x1AE4 DUP3 PUSH2 0x1AA5 JUMP JUMPDEST PUSH1 0x20 DUP3 ADD SWAP1 POP SWAP2 SWAP1 POP JUMP JUMPDEST PUSH0 PUSH1 0x20 DUP3 ADD SWAP1 POP DUP2 DUP2 SUB PUSH0 DUP4 ADD MSTORE PUSH2 0x1B06 DUP2 PUSH2 0x1ACD JUMP JUMPDEST SWAP1 POP SWAP2 SWAP1 POP JUMP JUMPDEST PUSH32 0x4552433732313A2061646472657373207A65726F206973206E6F742061207661 PUSH0 DUP3 ADD MSTORE PUSH32 0x6C6964206F776E65720000000000000000000000000000000000000000000000 PUSH1 0x20 DUP3 ADD MSTORE POP JUMP JUMPDEST PUSH0 PUSH2 0x1B67 PUSH1 0x29 DUP4 PUSH2 0x1595 JUMP JUMPDEST SWAP2 POP PUSH2 0x1B72 DUP3 PUSH2 0x1B0D JUMP JUMPDEST PUSH1 0x40 DUP3 ADD SWAP1 POP SWAP2 SWAP1 POP JUMP JUMPDEST PUSH0 PUSH1 0x20 DUP3 ADD SWAP1 POP DUP2 DUP2 SUB PUSH0 DUP4 ADD MSTORE PUSH2 0x1B94 DUP2 PUSH2 0x1B5B JUMP JUMPDEST SWAP1 POP SWAP2 SWAP1 POP JUMP JUMPDEST PUSH0 DUP2 SWAP1 POP SWAP3 SWAP2 POP POP JUMP JUMPDEST PUSH0 PUSH2 0x1BAF DUP3 PUSH2 0x158B JUMP JUMPDEST PUSH2 0x1BB9 DUP2 DUP6 PUSH2 0x1B9B JUMP JUMPDEST SWAP4 POP PUSH2 0x1BC9 DUP2 DUP6 PUSH1 0x20 DUP7 ADD PUSH2 0x15A5 JUMP JUMPDEST DUP1 DUP5 ADD SWAP2 POP POP SWAP3 SWAP2 POP POP JUMP JUMPDEST PUSH0 PUSH2 0x1BE0 DUP3 DUP6 PUSH2 0x1BA5 JUMP JUMPDEST SWAP2 POP PUSH2 0x1BEC DUP3 DUP5 PUSH2 0x1BA5 JUMP JUMPDEST SWAP2 POP DUP2 SWAP1 POP SWAP4 SWAP3 POP POP POP JUMP JUMPDEST PUSH32 0x4552433732313A207472616E736665722066726F6D20696E636F727265637420 PUSH0 DUP3 ADD MSTORE PUSH32 0x6F776E6572000000000000000000000000000000000000000000000000000000 PUSH1 0x20 DUP3 ADD MSTORE POP JUMP JUMPDEST PUSH0 PUSH2 0x1C52 PUSH1 0x25 DUP4 PUSH2 0x1595 JUMP JUMPDEST SWAP2 POP PUSH2 0x1C5D DUP3 PUSH2 0x1BF8 JUMP JUMPDEST PUSH1 0x40 DUP3 ADD SWAP1 POP SWAP2 SWAP1 POP JUMP JUMPDEST PUSH0 PUSH1 0x20 DUP3 ADD SWAP1 POP DUP2 DUP2 SUB PUSH0 DUP4 ADD MSTORE PUSH2 0x1C7F DUP2 PUSH2 0x1C46 JUMP JUMPDEST SWAP1 POP SWAP2 SWAP1 POP JUMP JUMPDEST PUSH32 0x4552433732313A207472616E7366657220746F20746865207A65726F20616464 PUSH0 DUP3 ADD MSTORE PUSH32 0x7265737300000000000000000000000000000000000000000000000000000000 PUSH1 0x20 DUP3 ADD MSTORE POP JUMP JUMPDEST PUSH0 PUSH2 0x1CE0 PUSH1 0x24 DUP4 PUSH2 0x1595 JUMP JUMPDEST SWAP2 POP PUSH2 0x1CEB DUP3 PUSH2 0x1C86 JUMP JUMPDEST PUSH1 0x40 DUP3 ADD SWAP1 POP SWAP2 SWAP1 POP JUMP JUMPDEST PUSH0 PUSH1 0x20 DUP3 ADD SWAP1 POP DUP2 DUP2 SUB PUSH0 DUP4 ADD MSTORE PUSH2 0x1D0D DUP2 PUSH2 0x1CD4 JUMP JUMPDEST SWAP1 POP SWAP2 SWAP1 POP JUMP JUMPDEST PUSH32 0x4552433732313A207472616E7366657220746F206E6F6E204552433732315265 PUSH0 DUP3 ADD MSTORE PUSH32 0x63656976657220696D706C656D656E7465720000000000000000000000000000 PUSH1 0x20 DUP3 ADD MSTORE POP JUMP JUMPDEST PUSH0 PUSH2 0x1D6E PUSH1 0x32 DUP4 PUSH2 0x1595 JUMP JUMPDEST SWAP2 POP PUSH2 0x1D79 DUP3 PUSH2 0x1D14 JUMP JUMPDEST PUSH1 0x40 DUP3 ADD SWAP1 POP SWAP2 SWAP1 POP JUMP JUMPDEST PUSH0 PUSH1 0x20 DUP3 ADD SWAP1 POP DUP2 DUP2 SUB PUSH0 DUP4 ADD MSTORE PUSH2 0x1D9B DUP2 PUSH2 0x1D62 JUMP JUMPDEST SWAP1 POP SWAP2 SWAP1 POP JUMP JUMPDEST PUSH32 0x4552433732313A20617070726F766520746F2063616C6C657200000000000000 PUSH0 DUP3 ADD MSTORE POP JUMP JUMPDEST PUSH0 PUSH2 0x1DD6 PUSH1 0x19 DUP4 PUSH2 0x1595 JUMP JUMPDEST SWAP2 POP PUSH2 0x1DE1 DUP3 PUSH2 0x1DA2 JUMP JUMPDEST PUSH1 0x20 DUP3 ADD SWAP1 POP SWAP2 SWAP1 POP JUMP JUMPDEST PUSH0 PUSH1 0x20 DUP3 ADD SWAP1 POP DUP2 DUP2 SUB PUSH0 DUP4 ADD MSTORE PUSH2 0x1E03 DUP2 PUSH2 0x1DCA JUMP JUMPDEST SWAP1 POP SWAP2 SWAP1 POP JUMP JUMPDEST PUSH32 0x4E487B7100000000000000000000000000000000000000000000000000000000 PUSH0 MSTORE PUSH1 0x12 PUSH1 0x4 MSTORE PUSH1 0x24 PUSH0 REVERT JUMPDEST PUSH32 0x4552433732313A206D696E7420746F20746865207A65726F2061646472657373 PUSH0 DUP3 ADD MSTORE POP JUMP JUMPDEST PUSH0 PUSH2 0x1E6B PUSH1 0x20 DUP4 PUSH2 0x1595 JUMP JUMPDEST SWAP2 POP PUSH2 0x1E76 DUP3 PUSH2 0x1E37 JUMP JUMPDEST PUSH1 0x20 DUP3 ADD SWAP1 POP SWAP2 SWAP1 POP JUMP JUMPDEST PUSH0 PUSH1 0x20 DUP3 ADD SWAP1 POP DUP2 DUP2 SUB PUSH0 DUP4 ADD MSTORE PUSH2 0x1E98 DUP2 PUSH2 0x1E5F JUMP JUMPDEST SWAP1 POP SWAP2 SWAP1 POP JUMP JUMPDEST PUSH32 0x4552433732313A20746F6B656E20616C7265616479206D696E74656400000000 PUSH0 DUP3 ADD MSTORE POP JUMP JUMPDEST PUSH0 PUSH2 0x1ED3 PUSH1 0x1C DUP4 PUSH2 0x1595 JUMP JUMPDEST SWAP2 POP PUSH2 0x1EDE DUP3 PUSH2 0x1E9F JUMP JUMPDEST PUSH1 0x20 DUP3 ADD SWAP1 POP SWAP2 SWAP1 POP JUMP JUMPDEST PUSH0 PUSH1 0x20 DUP3 ADD SWAP1 POP DUP2 DUP2 SUB PUSH0 DUP4 ADD MSTORE PUSH2 0x1F00 DUP2 PUSH2 0x1EC7 JUMP JUMPDEST SWAP1 POP SWAP2 SWAP1 POP JUMP JUMPDEST PUSH0 DUP2 MLOAD SWAP1 POP SWAP2 SWAP1 POP JUMP JUMPDEST PUSH0 DUP3 DUP3 MSTORE PUSH1 0x20 DUP3 ADD SWAP1 POP SWAP3 SWAP2 POP POP JUMP JUMPDEST PUSH0 PUSH2 0x1F2B DUP3 PUSH2 0x1F07 JUMP JUMPDEST PUSH2 0x1F35 DUP2 DUP6 PUSH2 0x1F11 JUMP JUMPDEST SWAP4 POP PUSH2 0x1F45 DUP2 DUP6 PUSH1 0x20 DUP7 ADD PUSH2 0x15A5 JUMP JUMPDEST PUSH2 0x1F4E DUP2 PUSH2 0x15CD JUMP JUMPDEST DUP5 ADD SWAP2 POP POP SWAP3 SWAP2 POP POP JUMP JUMPDEST PUSH0 PUSH1 0x80 DUP3 ADD SWAP1 POP PUSH2 0x1F6C PUSH0 DUP4 ADD DUP8 PUSH2 0x16C3 JUMP JUMPDEST PUSH2 0x1F79 PUSH1 0x20 DUP4 ADD DUP7 PUSH2 0x16C3 JUMP JUMPDEST PUSH2 0x1F86 PUSH1 0x40 DUP4 ADD DUP6 PUSH2 0x17CE JUMP JUMPDEST DUP2 DUP2 SUB PUSH1 0x60 DUP4 ADD MSTORE PUSH2 0x1F98 DUP2 DUP5 PUSH2 0x1F21 JUMP JUMPDEST SWAP1 POP SWAP6 SWAP5 POP POP POP POP POP JUMP JUMPDEST PUSH0 DUP2 MLOAD SWAP1 POP PUSH2 0x1FB1 DUP2 PUSH2 0x1503 JUMP JUMPDEST SWAP3 SWAP2 POP POP JUMP JUMPDEST PUSH0 PUSH1 0x20 DUP3 DUP5 SUB SLT ISZERO PUSH2 0x1FCC JUMPI PUSH2 0x1FCB PUSH2 0x14D0 JUMP JUMPDEST JUMPDEST PUSH0 PUSH2 0x1FD9 DUP5 DUP3 DUP6 ADD PUSH2 0x1FA3 JUMP JUMPDEST SWAP2 POP POP SWAP3 SWAP2 POP POP JUMP INVALID LOG2 PUSH5 0x6970667358 0x22 SLT KECCAK256 PUSH1 0xD0 MOD CALLDATASIZE 0x23 0x4B LOG4 DUP11 MOD SWAP11 MLOAD 0xD2 DIV 0xA9 SHR GAS PUSH1 0x4 KECCAK256 0xCB 0xE3 JUMPDEST 0x27 CODECOPY 0xBB SWAP10 SIGNEXTEND 0xBE MSTORE8 0xBC PUSH21 0x8064736F6C63430008140033000000000000000000 "
				},
				"gasEstimates": {
					"creation": {
						"codeDepositCost": "1643200",
						"executionCost": "1720",
						"totalCost": "1644920"
					},
					"external": {
						"approve(address,uint256)": "29284",
						"balanceOf(address)": "2887",
						"getApproved(uint256)": "5282",
						"isApprovedForAll(address,address)": "infinite",
						"name()": "infinite",
						"ownerOf(uint256)": "3072",
						"safeMint(address,uint256)": "infinite",
						"safeTransferFrom(address,address,uint256)": "infinite",
						"safeTransferFrom(address,address,uint256,bytes)": "infinite",
						"setApprovalForAll(address,bool)": "infinite",
						"supportsInterface(bytes4)": "787",
						"symbol()": "infinite",
						"tokenURI(uint256)": "3437",
						"transferFrom(address,address,uint256)": "infinite"
					},
					"internal": {
						"__ERC721_init(string memory,string memory)": "infinite",
						"__ERC721_init_unchained(string memory,string memory)": "infinite",
						"__unsafe_increaseBalance(address,uint256)": "infinite",
						"_afterTokenTransfer(address,address,uint256,uint256)": "17",
						"_approve(address,uint256)": "infinite",
						"_baseURI()": "infinite",
						"_beforeTokenTransfer(address,address,uint256,uint256)": "17",
						"_burn(uint256)": "infinite",
						"_checkOnERC721Received(address,address,uint256,bytes memory)": "infinite",
						"_exists(uint256)": "2307",
						"_isApprovedOrOwner(address,uint256)": "infinite",
						"_mint(address,uint256)": "infinite",
						"_ownerOf(uint256)": "2244",
						"_requireMinted(uint256)": "infinite",
						"_safeMint(address,uint256)": "infinite",
						"_safeMint(address,uint256,bytes memory)": "infinite",
						"_safeTransfer(address,address,uint256,bytes memory)": "infinite",
						"_setApprovalForAll(address,address,bool)": "infinite",
						"_transfer(address,address,uint256)": "infinite"
					}
				},
				"methodIdentifiers": {
					"approve(address,uint256)": "095ea7b3",
					"balanceOf(address)": "70a08231",
					"getApproved(uint256)": "081812fc",
					"isApprovedForAll(address,address)": "e985e9c5",
					"name()": "06fdde03",
					"ownerOf(uint256)": "6352211e",
					"safeMint(address,uint256)": "a1448194",
					"safeTransferFrom(address,address,uint256)": "42842e0e",
					"safeTransferFrom(address,address,uint256,bytes)": "b88d4fde",
					"setApprovalForAll(address,bool)": "a22cb465",
					"supportsInterface(bytes4)": "01ffc9a7",
					"symbol()": "95d89b41",
					"tokenURI(uint256)": "c87b56dd",
					"transferFrom(address,address,uint256)": "23b872dd"
				}
			},
			"storageLayout": {
				"storage": [
					{
						"astId": 921,
						"contract": "contracts/ERC721.sol:ERC721",
						"label": "_initialized",
						"offset": 0,
						"slot": "0",
						"type": "t_uint8"
					},
					{
						"astId": 924,
						"contract": "contracts/ERC721.sol:ERC721",
						"label": "_initializing",
						"offset": 1,
						"slot": "0",
						"type": "t_bool"
					},
					{
						"astId": 28,
						"contract": "contracts/ERC721.sol:ERC721",
						"label": "_name",
						"offset": 0,
						"slot": "1",
						"type": "t_string_storage"
					},
					{
						"astId": 30,
						"contract": "contracts/ERC721.sol:ERC721",
						"label": "_symbol",
						"offset": 0,
						"slot": "2",
						"type": "t_string_storage"
					},
					{
						"astId": 34,
						"contract": "contracts/ERC721.sol:ERC721",
						"label": "_owners",
						"offset": 0,
						"slot": "3",
						"type": "t_mapping(t_uint256,t_address)"
					},
					{
						"astId": 38,
						"contract": "contracts/ERC721.sol:ERC721",
						"label": "_balances",
						"offset": 0,
						"slot": "4",
						"type": "t_mapping(t_address,t_uint256)"
					},
					{
						"astId": 42,
						"contract": "contracts/ERC721.sol:ERC721",
						"label": "_tokenApprovals",
						"offset": 0,
						"slot": "5",
						"type": "t_mapping(t_uint256,t_address)"
					},
					{
						"astId": 48,
						"contract": "contracts/ERC721.sol:ERC721",
						"label": "_operatorApprovals",
						"offset": 0,
						"slot": "6",
						"type": "t_mapping(t_address,t_mapping(t_address,t_bool))"
					}
				],
				"types": {
					"t_address": {
						"encoding": "inplace",
						"label": "address",
						"numberOfBytes": "20"
					},
					"t_bool": {
						"encoding": "inplace",
						"label": "bool",
						"numberOfBytes": "1"
					},
					"t_mapping(t_address,t_bool)": {
						"encoding": "mapping",
						"key": "t_address",
						"label": "mapping(address => bool)",
						"numberOfBytes": "32",
						"value": "t_bool"
					},
					"t_mapping(t_address,t_mapping(t_address,t_bool))": {
						"encoding": "mapping",
						"key": "t_address",
						"label": "mapping(address => mapping(address => bool))",
						"numberOfBytes": "32",
						"value": "t_mapping(t_address,t_bool)"
					},
					"t_mapping(t_address,t_uint256)": {
						"encoding": "mapping",
						"key": "t_address",
						"label": "mapping(address => uint256)",
						"numberOfBytes": "32",
						"value": "t_uint256"
					},
					"t_mapping(t_uint256,t_address)": {
						"encoding": "mapping",
						"key": "t_uint256",
						"label": "mapping(uint256 => address)",
						"numberOfBytes": "32",
						"value": "t_address"
					},
					"t_string_storage": {
						"encoding": "bytes",
						"label": "string",
						"numberOfBytes": "32"
					},
					"t_uint256": {
						"encoding": "inplace",
						"label": "uint256",
						"numberOfBytes": "32"
					},
					"t_uint8": {
						"encoding": "inplace",
						"label": "uint8",
						"numberOfBytes": "1"
					}
				}
			},
			"userdoc": {
				"kind": "user",
				"methods": {},
				"version": 1
			}
		}
	}
}