{
	"contracts/ERC721Proxy.sol": {
		"ProxyERC721": {
			"abi": [
				{
					"inputs": [
						{
							"internalType": "address",
							"name": "_ERC721Address",
							"type": "address"
						},
						{
							"internalType": "string",
							"name": "name_",
							"type": "string"
						},
						{
							"internalType": "string",
							"name": "symbol_",
							"type": "string"
						}
					],
					"stateMutability": "nonpayable",
					"type": "constructor"
				},
				{
					"inputs": [
						{
							"internalType": "address",
							"name": "account",
							"type": "address"
						},
						{
							"internalType": "uint256",
							"name": "amount",
							"type": "uint256"
						}
					],
					"name": "__unsafe_increaseBalance",
					"outputs": [],
					"stateMutability": "nonpayable",
					"type": "function"
				},
				{
					"inputs": [
						{
							"internalType": "address",
							"name": "from",
							"type": "address"
						},
						{
							"internalType": "address",
							"name": "to",
							"type": "address"
						},
						{
							"internalType": "uint256",
							"name": "firstTokenId",
							"type": "uint256"
						},
						{
							"internalType": "uint256",
							"name": "batchSize",
							"type": "uint256"
						}
					],
					"name": "_afterTokenTransfer",
					"outputs": [],
					"stateMutability": "nonpayable",
					"type": "function"
				},
				{
					"inputs": [
						{
							"internalType": "address",
							"name": "to",
							"type": "address"
						},
						{
							"internalType": "uint256",
							"name": "tokenId",
							"type": "uint256"
						}
					],
					"name": "_approve",
					"outputs": [],
					"stateMutability": "nonpayable",
					"type": "function"
				},
				{
					"inputs": [],
					"name": "_baseURI",
					"outputs": [
						{
							"internalType": "string",
							"name": "",
							"type": "string"
						}
					],
					"stateMutability": "nonpayable",
					"type": "function"
				},
				{
					"inputs": [
						{
							"internalType": "address",
							"name": "from",
							"type": "address"
						},
						{
							"internalType": "address",
							"name": "to",
							"type": "address"
						},
						{
							"internalType": "uint256",
							"name": "firstTokenId",
							"type": "uint256"
						},
						{
							"internalType": "uint256",
							"name": "batchSize",
							"type": "uint256"
						}
					],
					"name": "_beforeTokenTransfer",
					"outputs": [],
					"stateMutability": "nonpayable",
					"type": "function"
				},
				{
					"inputs": [
						{
							"internalType": "uint256",
							"name": "tokenId",
							"type": "uint256"
						}
					],
					"name": "_burn",
					"outputs": [],
					"stateMutability": "nonpayable",
					"type": "function"
				},
				{
					"inputs": [
						{
							"internalType": "uint256",
							"name": "tokenId",
							"type": "uint256"
						}
					],
					"name": "_exists",
					"outputs": [
						{
							"internalType": "bool",
							"name": "",
							"type": "bool"
						}
					],
					"stateMutability": "nonpayable",
					"type": "function"
				},
				{
					"inputs": [
						{
							"internalType": "address",
							"name": "spender",
							"type": "address"
						},
						{
							"internalType": "uint256",
							"name": "tokenId",
							"type": "uint256"
						}
					],
					"name": "_isApprovedOrOwner",
					"outputs": [
						{
							"internalType": "bool",
							"name": "",
							"type": "bool"
						}
					],
					"stateMutability": "nonpayable",
					"type": "function"
				},
				{
					"inputs": [
						{
							"internalType": "address",
							"name": "to",
							"type": "address"
						},
						{
							"internalType": "uint256",
							"name": "tokenId",
							"type": "uint256"
						}
					],
					"name": "_mint",
					"outputs": [],
					"stateMutability": "nonpayable",
					"type": "function"
				},
				{
					"inputs": [
						{
							"internalType": "uint256",
							"name": "tokenId",
							"type": "uint256"
						}
					],
					"name": "_ownerOf",
					"outputs": [
						{
							"internalType": "address",
							"name": "",
							"type": "address"
						}
					],
					"stateMutability": "nonpayable",
					"type": "function"
				},
				{
					"inputs": [
						{
							"internalType": "uint256",
							"name": "tokenId",
							"type": "uint256"
						}
					],
					"name": "_requireMinted",
					"outputs": [],
					"stateMutability": "nonpayable",
					"type": "function"
				},
				{
					"inputs": [
						{
							"internalType": "address",
							"name": "to",
							"type": "address"
						},
						{
							"internalType": "uint256",
							"name": "tokenId",
							"type": "uint256"
						},
						{
							"internalType": "bytes",
							"name": "data",
							"type": "bytes"
						}
					],
					"name": "_safeMint",
					"outputs": [],
					"stateMutability": "nonpayable",
					"type": "function"
				},
				{
					"inputs": [
						{
							"internalType": "address",
							"name": "to",
							"type": "address"
						},
						{
							"internalType": "uint256",
							"name": "tokenId",
							"type": "uint256"
						}
					],
					"name": "_safeMint",
					"outputs": [],
					"stateMutability": "nonpayable",
					"type": "function"
				},
				{
					"inputs": [
						{
							"internalType": "address",
							"name": "from",
							"type": "address"
						},
						{
							"internalType": "address",
							"name": "to",
							"type": "address"
						},
						{
							"internalType": "uint256",
							"name": "tokenId",
							"type": "uint256"
						},
						{
							"internalType": "bytes",
							"name": "data",
							"type": "bytes"
						}
					],
					"name": "_safeTransfer",
					"outputs": [],
					"stateMutability": "nonpayable",
					"type": "function"
				},
				{
					"inputs": [
						{
							"internalType": "address",
							"name": "owner",
							"type": "address"
						},
						{
							"internalType": "address",
							"name": "operator",
							"type": "address"
						},
						{
							"internalType": "bool",
							"name": "approved",
							"type": "bool"
						}
					],
					"name": "_setApprovalForAll",
					"outputs": [],
					"stateMutability": "nonpayable",
					"type": "function"
				},
				{
					"inputs": [
						{
							"internalType": "address",
							"name": "from",
							"type": "address"
						},
						{
							"internalType": "address",
							"name": "to",
							"type": "address"
						},
						{
							"internalType": "uint256",
							"name": "tokenId",
							"type": "uint256"
						}
					],
					"name": "_transfer",
					"outputs": [],
					"stateMutability": "nonpayable",
					"type": "function"
				},
				{
					"inputs": [
						{
							"internalType": "address",
							"name": "to",
							"type": "address"
						},
						{
							"internalType": "uint256",
							"name": "tokenId",
							"type": "uint256"
						}
					],
					"name": "approve",
					"outputs": [],
					"stateMutability": "nonpayable",
					"type": "function"
				},
				{
					"inputs": [
						{
							"internalType": "address",
							"name": "owner",
							"type": "address"
						}
					],
					"name": "balanceOf",
					"outputs": [
						{
							"internalType": "uint256",
							"name": "",
							"type": "uint256"
						}
					],
					"stateMutability": "view",
					"type": "function"
				},
				{
					"inputs": [
						{
							"internalType": "uint256",
							"name": "tokenId",
							"type": "uint256"
						}
					],
					"name": "getApproved",
					"outputs": [
						{
							"internalType": "address",
							"name": "",
							"type": "address"
						}
					],
					"stateMutability": "nonpayable",
					"type": "function"
				},
				{
					"inputs": [
						{
							"internalType": "address",
							"name": "owner",
							"type": "address"
						},
						{
							"internalType": "address",
							"name": "operator",
							"type": "address"
						}
					],
					"name": "isApprovedForAll",
					"outputs": [
						{
							"internalType": "bool",
							"name": "",
							"type": "bool"
						}
					],
					"stateMutability": "nonpayable",
					"type": "function"
				},
				{
					"inputs": [],
					"name": "name",
					"outputs": [
						{
							"internalType": "string",
							"name": "",
							"type": "string"
						}
					],
					"stateMutability": "nonpayable",
					"type": "function"
				},
				{
					"inputs": [
						{
							"internalType": "uint256",
							"name": "tokenId",
							"type": "uint256"
						}
					],
					"name": "ownerOf",
					"outputs": [
						{
							"internalType": "address",
							"name": "",
							"type": "address"
						}
					],
					"stateMutability": "nonpayable",
					"type": "function"
				},
				{
					"inputs": [
						{
							"internalType": "address",
							"name": "from",
							"type": "address"
						},
						{
							"internalType": "address",
							"name": "to",
							"type": "address"
						},
						{
							"internalType": "uint256",
							"name": "tokenId",
							"type": "uint256"
						}
					],
					"name": "safeTransferFrom",
					"outputs": [],
					"stateMutability": "nonpayable",
					"type": "function"
				},
				{
					"inputs": [
						{
							"internalType": "address",
							"name": "from",
							"type": "address"
						},
						{
							"internalType": "address",
							"name": "to",
							"type": "address"
						},
						{
							"internalType": "uint256",
							"name": "tokenId",
							"type": "uint256"
						},
						{
							"internalType": "bytes",
							"name": "data",
							"type": "bytes"
						}
					],
					"name": "safeTransferFrom",
					"outputs": [],
					"stateMutability": "nonpayable",
					"type": "function"
				},
				{
					"inputs": [
						{
							"internalType": "address",
							"name": "operator",
							"type": "address"
						},
						{
							"internalType": "bool",
							"name": "approved",
							"type": "bool"
						}
					],
					"name": "setApprovalForAll",
					"outputs": [],
					"stateMutability": "nonpayable",
					"type": "function"
				},
				{
					"inputs": [
						{
							"internalType": "address",
							"name": "_ERC721Address",
							"type": "address"
						}
					],
					"name": "setERC721Address",
					"outputs": [],
					"stateMutability": "nonpayable",
					"type": "function"
				},
				{
					"inputs": [
						{
							"internalType": "bytes4",
							"name": "interfaceId",
							"type": "bytes4"
						}
					],
					"name": "supportsInterface",
					"outputs": [
						{
							"internalType": "bool",
							"name": "",
							"type": "bool"
						}
					],
					"stateMutability": "nonpayable",
					"type": "function"
				},
				{
					"inputs": [],
					"name": "symbol",
					"outputs": [
						{
							"internalType": "string",
							"name": "",
							"type": "string"
						}
					],
					"stateMutability": "nonpayable",
					"type": "function"
				},
				{
					"inputs": [
						{
							"internalType": "uint256",
							"name": "tokenId",
							"type": "uint256"
						}
					],
					"name": "tokenURI",
					"outputs": [
						{
							"internalType": "string",
							"name": "",
							"type": "string"
						}
					],
					"stateMutability": "nonpayable",
					"type": "function"
				},
				{
					"inputs": [
						{
							"internalType": "address",
							"name": "from",
							"type": "address"
						},
						{
							"internalType": "address",
							"name": "to",
							"type": "address"
						},
						{
							"internalType": "uint256",
							"name": "tokenId",
							"type": "uint256"
						}
					],
					"name": "transferFrom",
					"outputs": [],
					"stateMutability": "nonpayable",
					"type": "function"
				}
			],
			"devdoc": {
				"details": "This abstract contract provides a fallback function that delegates all calls to another contract using the EVM instruction `delegatecall`. We refer to the second contract as the _implementation_ behind the proxy, and it has to be specified by overriding the  {_implementation} function. Additionally, delegation to the implementation can be triggered manually through the {_fallback} function, or to a different contract through the {_delegate} function. The success and return data of the delegated call will be returned back to the caller of the proxy.",
				"kind": "dev",
				"methods": {
					"__unsafe_increaseBalance(address,uint256)": {
						"details": "Unsafe write access to the balances, used by extensions that \"mint\" tokens using an {ownerOf} override. WARNING: Anyone calling this MUST ensure that the balances remain consistent with the ownership. The invariant being that for any address `a` the value returned by `balanceOf(a)` must be equal to the number of tokens such that `ownerOf(tokenId)` is `a`."
					},
					"_afterTokenTransfer(address,address,uint256,uint256)": {
						"details": "Hook that is called after any token transfer. This includes minting and burning. If {ERC721Consecutive} is used, the hook may be called as part of a consecutive (batch) mint, as indicated by `batchSize` greater than 1. Calling conditions: - When `from` and `to` are both non-zero, ``from``'s tokens were transferred to `to`. - When `from` is zero, the tokens were minted for `to`. - When `to` is zero, ``from``'s tokens were burned. - `from` and `to` are never both zero. - `batchSize` is non-zero. To learn more about hooks, head to xref:ROOT:extending-contracts.adoc#using-hooks[Using Hooks]."
					},
					"_approve(address,uint256)": {
						"details": "Approve `to` to operate on `tokenId` Emits an {Approval} event."
					},
					"_baseURI()": {
						"details": "Base URI for computing {tokenURI}. If set, the resulting URI for each token will be the concatenation of the `baseURI` and the `tokenId`. Empty by default, can be overridden in child contracts."
					},
					"_beforeTokenTransfer(address,address,uint256,uint256)": {
						"details": "Hook that is called before any token transfer. This includes minting and burning. If {ERC721Consecutive} is used, the hook may be called as part of a consecutive (batch) mint, as indicated by `batchSize` greater than 1. Calling conditions: - When `from` and `to` are both non-zero, ``from``'s tokens will be transferred to `to`. - When `from` is zero, the tokens will be minted for `to`. - When `to` is zero, ``from``'s tokens will be burned. - `from` and `to` are never both zero. - `batchSize` is non-zero. To learn more about hooks, head to xref:ROOT:extending-contracts.adoc#using-hooks[Using Hooks]."
					},
					"_burn(uint256)": {
						"details": "Destroys `tokenId`. The approval is cleared when the token is burned. This is an public function that does not check if the sender is authorized to operate on the token. Requirements: - `tokenId` must exist. Emits a {Transfer} event."
					},
					"_exists(uint256)": {
						"details": "Returns whether `tokenId` exists. Tokens can be managed by their owner or approved accounts via {approve} or {setApprovalForAll}. Tokens start existing when they are minted (`_mint`), and stop existing when they are burned (`_burn`)."
					},
					"_isApprovedOrOwner(address,uint256)": {
						"details": "Returns whether `spender` is allowed to manage `tokenId`. Requirements: - `tokenId` must exist."
					},
					"_mint(address,uint256)": {
						"details": "Mints `tokenId` and transfers it to `to`. WARNING: Usage of this method is discouraged, use {_safeMint} whenever possible Requirements: - `tokenId` must not exist. - `to` cannot be the zero address. Emits a {Transfer} event."
					},
					"_ownerOf(uint256)": {
						"details": "Returns the owner of the `tokenId`. Does NOT revert if token doesn't exist"
					},
					"_requireMinted(uint256)": {
						"details": "Reverts if the `tokenId` has not been minted yet."
					},
					"_safeMint(address,uint256)": {
						"details": "Safely mints `tokenId` and transfers it to `to`. Requirements: - `tokenId` must not exist. - If `to` refers to a smart contract, it must implement {IERC721Receiver-onERC721Received}, which is called upon a safe transfer. Emits a {Transfer} event."
					},
					"_safeMint(address,uint256,bytes)": {
						"details": "Same as {xref-ERC721-_safeMint-address-uint256-}[`_safeMint`], with an additional `data` parameter which is forwarded in {IERC721Receiver-onERC721Received} to contract recipients."
					},
					"_safeTransfer(address,address,uint256,bytes)": {
						"details": "Safely transfers `tokenId` token from `from` to `to`, checking first that contract recipients are aware of the ERC721 protocol to prevent tokens from being forever locked. `data` is additional data, it has no specified format and it is sent in call to `to`. This internal function is equivalent to {safeTransferFrom}, and can be used to e.g. implement alternative mechanisms to perform token transfer, such as signature-based. Requirements: - `from` cannot be the zero address. - `to` cannot be the zero address. - `tokenId` token must exist and be owned by `from`. - If `to` refers to a smart contract, it must implement {IERC721Receiver-onERC721Received}, which is called upon a safe transfer. Emits a {Transfer} event."
					},
					"_setApprovalForAll(address,address,bool)": {
						"details": "Approve `operator` to operate on all of `owner` tokens Emits an {ApprovalForAll} event."
					},
					"_transfer(address,address,uint256)": {
						"details": "Transfers `tokenId` from `from` to `to`.  As opposed to {transferFrom}, this imposes no restrictions on msg.sender. Requirements: - `to` cannot be the zero address. - `tokenId` token must be owned by `from`. Emits a {Transfer} event."
					},
					"approve(address,uint256)": {
						"details": "See {IERC721-approve}."
					},
					"balanceOf(address)": {
						"details": "See {IERC721-balanceOf}."
					},
					"constructor": {
						"details": "Initializes the contract by setting a `name` and a `symbol` to the token collection."
					},
					"getApproved(uint256)": {
						"details": "See {IERC721-getApproved}."
					},
					"isApprovedForAll(address,address)": {
						"details": "See {IERC721-isApprovedForAll}."
					},
					"name()": {
						"details": "See {IERC721Metadata-name}."
					},
					"ownerOf(uint256)": {
						"details": "See {IERC721-ownerOf}."
					},
					"safeTransferFrom(address,address,uint256)": {
						"details": "See {IERC721-safeTransferFrom}."
					},
					"safeTransferFrom(address,address,uint256,bytes)": {
						"details": "See {IERC721-safeTransferFrom}."
					},
					"setApprovalForAll(address,bool)": {
						"details": "See {IERC721-setApprovalForAll}."
					},
					"setERC721Address(address)": {
						"details": "You must use this function first, when you after deploy."
					},
					"supportsInterface(bytes4)": {
						"details": "See {IERC165-supportsInterface}."
					},
					"symbol()": {
						"details": "See {IERC721Metadata-symbol}."
					},
					"tokenURI(uint256)": {
						"details": "See {IERC721Metadata-tokenURI}."
					},
					"transferFrom(address,address,uint256)": {
						"details": "See {IERC721-transferFrom}."
					}
				},
				"version": 1
			},
			"evm": {
				"assembly": "    /* \"contracts/ERC721Proxy.sol\":921:16831  contract ProxyERC721 {... */\n  mstore(0x40, 0x80)\n    /* \"contracts/ERC721Proxy.sol\":1667:2010  constructor(address _ERC721Address, string memory name_, string memory symbol_) {... */\n  callvalue\n  dup1\n  iszero\n  tag_1\n  jumpi\n  0x00\n  dup1\n  revert\ntag_1:\n  pop\n  mload(0x40)\n  sub(codesize, bytecodeSize)\n  dup1\n  bytecodeSize\n  dup4\n  codecopy\n  dup2\n  dup2\n  add\n  0x40\n  mstore\n  dup2\n  add\n  swap1\n  tag_2\n  swap2\n  swap1\n  tag_3\n  jump\t// in\ntag_2:\n    /* \"contracts/ERC721Proxy.sol\":1765:1770  name_ */\n  dup2\n    /* \"contracts/ERC721Proxy.sol\":1757:1762  _name */\n  0x00\n    /* \"contracts/ERC721Proxy.sol\":1757:1770  _name = name_ */\n  swap1\n  dup2\n  tag_6\n  swap2\n  swap1\n  tag_7\n  jump\t// in\ntag_6:\n  pop\n    /* \"contracts/ERC721Proxy.sol\":1790:1797  symbol_ */\n  dup1\n    /* \"contracts/ERC721Proxy.sol\":1780:1787  _symbol */\n  0x01\n    /* \"contracts/ERC721Proxy.sol\":1780:1797  _symbol = symbol_ */\n  swap1\n  dup2\n  tag_8\n  swap2\n  swap1\n  tag_7\n  jump\t// in\ntag_8:\n  pop\n    /* \"contracts/ERC721Proxy.sol\":1819:1833  _ERC721Address */\n  dup3\n    /* \"contracts/ERC721Proxy.sol\":1807:1816  _contract */\n  0x06\n  0x00\n    /* \"contracts/ERC721Proxy.sol\":1807:1833  _contract = _ERC721Address */\n  0x0100\n  exp\n  dup2\n  sload\n  dup2\n  0xffffffffffffffffffffffffffffffffffffffff\n  mul\n  not\n  and\n  swap1\n  dup4\n  0xffffffffffffffffffffffffffffffffffffffff\n  and\n  mul\n  or\n  swap1\n  sstore\n  pop\n    /* \"contracts/ERC721Proxy.sol\":1844:1856  bool success */\n  0x00\n    /* \"contracts/ERC721Proxy.sol\":1858:1881  bytes memory dataReturn */\n  dup1\n    /* \"contracts/ERC721Proxy.sol\":1885:1894  _contract */\n  0x06\n  0x00\n  swap1\n  sload\n  swap1\n  0x0100\n  exp\n  swap1\n  div\n  0xffffffffffffffffffffffffffffffffffffffff\n  and\n    /* \"contracts/ERC721Proxy.sol\":1885:1907  _contract.delegatecall */\n  0xffffffffffffffffffffffffffffffffffffffff\n  and\n    /* \"contracts/ERC721Proxy.sol\":1978:1983  name_ */\n  dup5\n    /* \"contracts/ERC721Proxy.sol\":1985:1992  symbol_ */\n  dup5\n    /* \"contracts/ERC721Proxy.sol\":1921:1993  abi.encodeWithSignature(\"__ERC721_init(string, string)\", name_, symbol_) */\n  add(0x24, mload(0x40))\n  tag_9\n  swap3\n  swap2\n  swap1\n  tag_10\n  jump\t// in\ntag_9:\n  mload(0x40)\n  0x20\n  dup2\n  dup4\n  sub\n  sub\n  dup2\n  mstore\n  swap1\n  0x40\n  mstore\n  and(not(0xffffffffffffffffffffffffffffffffffffffffffffffffffffffff), 0xf1bd332d00000000000000000000000000000000000000000000000000000000)\n  0x20\n  dup3\n  add\n  dup1\n  mload\n  0xffffffffffffffffffffffffffffffffffffffffffffffffffffffff\n  dup4\n  dup2\n  dup4\n  and\n  or\n  dup4\n  mstore\n  pop\n  pop\n  pop\n  pop\n    /* \"contracts/ERC721Proxy.sol\":1885:2003  _contract.delegatecall(... */\n  mload(0x40)\n  tag_11\n  swap2\n  swap1\n  tag_12\n  jump\t// in\ntag_11:\n  0x00\n  mload(0x40)\n  dup1\n  dup4\n  sub\n  dup2\n  dup6\n  gas\n  delegatecall\n  swap2\n  pop\n  pop\n  returndatasize\n  dup1\n  0x00\n  dup2\n  eq\n  tag_15\n  jumpi\n  mload(0x40)\n  swap2\n  pop\n  and(add(returndatasize, 0x3f), not(0x1f))\n  dup3\n  add\n  0x40\n  mstore\n  returndatasize\n  dup3\n  mstore\n  returndatasize\n  0x00\n  0x20\n  dup5\n  add\n  returndatacopy\n  jump(tag_14)\ntag_15:\n  0x60\n  swap2\n  pop\ntag_14:\n  pop\n    /* \"contracts/ERC721Proxy.sol\":1843:2003  (bool success, bytes memory dataReturn) = _contract.delegatecall(... */\n  swap2\n  pop\n  swap2\n  pop\n    /* \"contracts/ERC721Proxy.sol\":1747:2010  {... */\n  pop\n  pop\n    /* \"contracts/ERC721Proxy.sol\":1667:2010  constructor(address _ERC721Address, string memory name_, string memory symbol_) {... */\n  pop\n  pop\n  pop\n    /* \"contracts/ERC721Proxy.sol\":921:16831  contract ProxyERC721 {... */\n  jump(tag_16)\n    /* \"#utility.yul\":7:82   */\ntag_17:\n    /* \"#utility.yul\":40:46   */\n  0x00\n    /* \"#utility.yul\":73:75   */\n  0x40\n    /* \"#utility.yul\":67:76   */\n  mload\n    /* \"#utility.yul\":57:76   */\n  swap1\n  pop\n    /* \"#utility.yul\":7:82   */\n  swap1\n  jump\t// out\n    /* \"#utility.yul\":88:205   */\ntag_18:\n    /* \"#utility.yul\":197:198   */\n  0x00\n    /* \"#utility.yul\":194:195   */\n  dup1\n    /* \"#utility.yul\":187:199   */\n  revert\n    /* \"#utility.yul\":211:328   */\ntag_19:\n    /* \"#utility.yul\":320:321   */\n  0x00\n    /* \"#utility.yul\":317:318   */\n  dup1\n    /* \"#utility.yul\":310:322   */\n  revert\n    /* \"#utility.yul\":334:460   */\ntag_20:\n    /* \"#utility.yul\":371:378   */\n  0x00\n    /* \"#utility.yul\":411:453   */\n  0xffffffffffffffffffffffffffffffffffffffff\n    /* \"#utility.yul\":404:409   */\n  dup3\n    /* \"#utility.yul\":400:454   */\n  and\n    /* \"#utility.yul\":389:454   */\n  swap1\n  pop\n    /* \"#utility.yul\":334:460   */\n  swap2\n  swap1\n  pop\n  jump\t// out\n    /* \"#utility.yul\":466:562   */\ntag_21:\n    /* \"#utility.yul\":503:510   */\n  0x00\n    /* \"#utility.yul\":532:556   */\n  tag_64\n    /* \"#utility.yul\":550:555   */\n  dup3\n    /* \"#utility.yul\":532:556   */\n  tag_20\n  jump\t// in\ntag_64:\n    /* \"#utility.yul\":521:556   */\n  swap1\n  pop\n    /* \"#utility.yul\":466:562   */\n  swap2\n  swap1\n  pop\n  jump\t// out\n    /* \"#utility.yul\":568:690   */\ntag_22:\n    /* \"#utility.yul\":641:665   */\n  tag_66\n    /* \"#utility.yul\":659:664   */\n  dup2\n    /* \"#utility.yul\":641:665   */\n  tag_21\n  jump\t// in\ntag_66:\n    /* \"#utility.yul\":634:639   */\n  dup2\n    /* \"#utility.yul\":631:666   */\n  eq\n    /* \"#utility.yul\":621:684   */\n  tag_67\n  jumpi\n    /* \"#utility.yul\":680:681   */\n  0x00\n    /* \"#utility.yul\":677:678   */\n  dup1\n    /* \"#utility.yul\":670:682   */\n  revert\n    /* \"#utility.yul\":621:684   */\ntag_67:\n    /* \"#utility.yul\":568:690   */\n  pop\n  jump\t// out\n    /* \"#utility.yul\":696:839   */\ntag_23:\n    /* \"#utility.yul\":753:758   */\n  0x00\n    /* \"#utility.yul\":784:790   */\n  dup2\n    /* \"#utility.yul\":778:791   */\n  mload\n    /* \"#utility.yul\":769:791   */\n  swap1\n  pop\n    /* \"#utility.yul\":800:833   */\n  tag_69\n    /* \"#utility.yul\":827:832   */\n  dup2\n    /* \"#utility.yul\":800:833   */\n  tag_22\n  jump\t// in\ntag_69:\n    /* \"#utility.yul\":696:839   */\n  swap3\n  swap2\n  pop\n  pop\n  jump\t// out\n    /* \"#utility.yul\":845:962   */\ntag_24:\n    /* \"#utility.yul\":954:955   */\n  0x00\n    /* \"#utility.yul\":951:952   */\n  dup1\n    /* \"#utility.yul\":944:956   */\n  revert\n    /* \"#utility.yul\":968:1085   */\ntag_25:\n    /* \"#utility.yul\":1077:1078   */\n  0x00\n    /* \"#utility.yul\":1074:1075   */\n  dup1\n    /* \"#utility.yul\":1067:1079   */\n  revert\n    /* \"#utility.yul\":1091:1193   */\ntag_26:\n    /* \"#utility.yul\":1132:1138   */\n  0x00\n    /* \"#utility.yul\":1183:1185   */\n  0x1f\n    /* \"#utility.yul\":1179:1186   */\n  not\n    /* \"#utility.yul\":1174:1176   */\n  0x1f\n    /* \"#utility.yul\":1167:1172   */\n  dup4\n    /* \"#utility.yul\":1163:1177   */\n  add\n    /* \"#utility.yul\":1159:1187   */\n  and\n    /* \"#utility.yul\":1149:1187   */\n  swap1\n  pop\n    /* \"#utility.yul\":1091:1193   */\n  swap2\n  swap1\n  pop\n  jump\t// out\n    /* \"#utility.yul\":1199:1379   */\ntag_27:\n    /* \"#utility.yul\":1247:1324   */\n  0x4e487b7100000000000000000000000000000000000000000000000000000000\n    /* \"#utility.yul\":1244:1245   */\n  0x00\n    /* \"#utility.yul\":1237:1325   */\n  mstore\n    /* \"#utility.yul\":1344:1348   */\n  0x41\n    /* \"#utility.yul\":1341:1342   */\n  0x04\n    /* \"#utility.yul\":1334:1349   */\n  mstore\n    /* \"#utility.yul\":1368:1372   */\n  0x24\n    /* \"#utility.yul\":1365:1366   */\n  0x00\n    /* \"#utility.yul\":1358:1373   */\n  revert\n    /* \"#utility.yul\":1385:1666   */\ntag_28:\n    /* \"#utility.yul\":1468:1495   */\n  tag_75\n    /* \"#utility.yul\":1490:1494   */\n  dup3\n    /* \"#utility.yul\":1468:1495   */\n  tag_26\n  jump\t// in\ntag_75:\n    /* \"#utility.yul\":1460:1466   */\n  dup2\n    /* \"#utility.yul\":1456:1496   */\n  add\n    /* \"#utility.yul\":1598:1604   */\n  dup2\n    /* \"#utility.yul\":1586:1596   */\n  dup2\n    /* \"#utility.yul\":1583:1605   */\n  lt\n    /* \"#utility.yul\":1562:1580   */\n  0xffffffffffffffff\n    /* \"#utility.yul\":1550:1560   */\n  dup3\n    /* \"#utility.yul\":1547:1581   */\n  gt\n    /* \"#utility.yul\":1544:1606   */\n  or\n    /* \"#utility.yul\":1541:1629   */\n  iszero\n  tag_76\n  jumpi\n    /* \"#utility.yul\":1609:1627   */\n  tag_77\n  tag_27\n  jump\t// in\ntag_77:\n    /* \"#utility.yul\":1541:1629   */\ntag_76:\n    /* \"#utility.yul\":1649:1659   */\n  dup1\n    /* \"#utility.yul\":1645:1647   */\n  0x40\n    /* \"#utility.yul\":1638:1660   */\n  mstore\n    /* \"#utility.yul\":1428:1666   */\n  pop\n    /* \"#utility.yul\":1385:1666   */\n  pop\n  pop\n  jump\t// out\n    /* \"#utility.yul\":1672:1801   */\ntag_29:\n    /* \"#utility.yul\":1706:1712   */\n  0x00\n    /* \"#utility.yul\":1733:1753   */\n  tag_79\n  tag_17\n  jump\t// in\ntag_79:\n    /* \"#utility.yul\":1723:1753   */\n  swap1\n  pop\n    /* \"#utility.yul\":1762:1795   */\n  tag_80\n    /* \"#utility.yul\":1790:1794   */\n  dup3\n    /* \"#utility.yul\":1782:1788   */\n  dup3\n    /* \"#utility.yul\":1762:1795   */\n  tag_28\n  jump\t// in\ntag_80:\n    /* \"#utility.yul\":1672:1801   */\n  swap2\n  swap1\n  pop\n  jump\t// out\n    /* \"#utility.yul\":1807:2115   */\ntag_30:\n    /* \"#utility.yul\":1869:1873   */\n  0x00\n    /* \"#utility.yul\":1959:1977   */\n  0xffffffffffffffff\n    /* \"#utility.yul\":1951:1957   */\n  dup3\n    /* \"#utility.yul\":1948:1978   */\n  gt\n    /* \"#utility.yul\":1945:2001   */\n  iszero\n  tag_82\n  jumpi\n    /* \"#utility.yul\":1981:1999   */\n  tag_83\n  tag_27\n  jump\t// in\ntag_83:\n    /* \"#utility.yul\":1945:2001   */\ntag_82:\n    /* \"#utility.yul\":2019:2048   */\n  tag_84\n    /* \"#utility.yul\":2041:2047   */\n  dup3\n    /* \"#utility.yul\":2019:2048   */\n  tag_26\n  jump\t// in\ntag_84:\n    /* \"#utility.yul\":2011:2048   */\n  swap1\n  pop\n    /* \"#utility.yul\":2103:2107   */\n  0x20\n    /* \"#utility.yul\":2097:2101   */\n  dup2\n    /* \"#utility.yul\":2093:2108   */\n  add\n    /* \"#utility.yul\":2085:2108   */\n  swap1\n  pop\n    /* \"#utility.yul\":1807:2115   */\n  swap2\n  swap1\n  pop\n  jump\t// out\n    /* \"#utility.yul\":2121:2367   */\ntag_31:\n    /* \"#utility.yul\":2202:2203   */\n  0x00\n    /* \"#utility.yul\":2212:2325   */\ntag_86:\n    /* \"#utility.yul\":2226:2232   */\n  dup4\n    /* \"#utility.yul\":2223:2224   */\n  dup2\n    /* \"#utility.yul\":2220:2233   */\n  lt\n    /* \"#utility.yul\":2212:2325   */\n  iszero\n  tag_88\n  jumpi\n    /* \"#utility.yul\":2311:2312   */\n  dup1\n    /* \"#utility.yul\":2306:2309   */\n  dup3\n    /* \"#utility.yul\":2302:2313   */\n  add\n    /* \"#utility.yul\":2296:2314   */\n  mload\n    /* \"#utility.yul\":2292:2293   */\n  dup2\n    /* \"#utility.yul\":2287:2290   */\n  dup5\n    /* \"#utility.yul\":2283:2294   */\n  add\n    /* \"#utility.yul\":2276:2315   */\n  mstore\n    /* \"#utility.yul\":2248:2250   */\n  0x20\n    /* \"#utility.yul\":2245:2246   */\n  dup2\n    /* \"#utility.yul\":2241:2251   */\n  add\n    /* \"#utility.yul\":2236:2251   */\n  swap1\n  pop\n    /* \"#utility.yul\":2212:2325   */\n  jump(tag_86)\ntag_88:\n    /* \"#utility.yul\":2359:2360   */\n  0x00\n    /* \"#utility.yul\":2350:2356   */\n  dup5\n    /* \"#utility.yul\":2345:2348   */\n  dup5\n    /* \"#utility.yul\":2341:2357   */\n  add\n    /* \"#utility.yul\":2334:2361   */\n  mstore\n    /* \"#utility.yul\":2183:2367   */\n  pop\n    /* \"#utility.yul\":2121:2367   */\n  pop\n  pop\n  pop\n  jump\t// out\n    /* \"#utility.yul\":2373:2807   */\ntag_32:\n    /* \"#utility.yul\":2462:2467   */\n  0x00\n    /* \"#utility.yul\":2487:2553   */\n  tag_90\n    /* \"#utility.yul\":2503:2552   */\n  tag_91\n    /* \"#utility.yul\":2545:2551   */\n  dup5\n    /* \"#utility.yul\":2503:2552   */\n  tag_30\n  jump\t// in\ntag_91:\n    /* \"#utility.yul\":2487:2553   */\n  tag_29\n  jump\t// in\ntag_90:\n    /* \"#utility.yul\":2478:2553   */\n  swap1\n  pop\n    /* \"#utility.yul\":2576:2582   */\n  dup3\n    /* \"#utility.yul\":2569:2574   */\n  dup2\n    /* \"#utility.yul\":2562:2583   */\n  mstore\n    /* \"#utility.yul\":2614:2618   */\n  0x20\n    /* \"#utility.yul\":2607:2612   */\n  dup2\n    /* \"#utility.yul\":2603:2619   */\n  add\n    /* \"#utility.yul\":2652:2655   */\n  dup5\n    /* \"#utility.yul\":2643:2649   */\n  dup5\n    /* \"#utility.yul\":2638:2641   */\n  dup5\n    /* \"#utility.yul\":2634:2650   */\n  add\n    /* \"#utility.yul\":2631:2656   */\n  gt\n    /* \"#utility.yul\":2628:2740   */\n  iszero\n  tag_92\n  jumpi\n    /* \"#utility.yul\":2659:2738   */\n  tag_93\n  tag_25\n  jump\t// in\ntag_93:\n    /* \"#utility.yul\":2628:2740   */\ntag_92:\n    /* \"#utility.yul\":2749:2801   */\n  tag_94\n    /* \"#utility.yul\":2794:2800   */\n  dup5\n    /* \"#utility.yul\":2789:2792   */\n  dup3\n    /* \"#utility.yul\":2784:2787   */\n  dup6\n    /* \"#utility.yul\":2749:2801   */\n  tag_31\n  jump\t// in\ntag_94:\n    /* \"#utility.yul\":2468:2807   */\n  pop\n    /* \"#utility.yul\":2373:2807   */\n  swap4\n  swap3\n  pop\n  pop\n  pop\n  jump\t// out\n    /* \"#utility.yul\":2827:3182   */\ntag_33:\n    /* \"#utility.yul\":2894:2899   */\n  0x00\n    /* \"#utility.yul\":2943:2946   */\n  dup3\n    /* \"#utility.yul\":2936:2940   */\n  0x1f\n    /* \"#utility.yul\":2928:2934   */\n  dup4\n    /* \"#utility.yul\":2924:2941   */\n  add\n    /* \"#utility.yul\":2920:2947   */\n  slt\n    /* \"#utility.yul\":2910:3032   */\n  tag_96\n  jumpi\n    /* \"#utility.yul\":2951:3030   */\n  tag_97\n  tag_24\n  jump\t// in\ntag_97:\n    /* \"#utility.yul\":2910:3032   */\ntag_96:\n    /* \"#utility.yul\":3061:3067   */\n  dup2\n    /* \"#utility.yul\":3055:3068   */\n  mload\n    /* \"#utility.yul\":3086:3176   */\n  tag_98\n    /* \"#utility.yul\":3172:3175   */\n  dup5\n    /* \"#utility.yul\":3164:3170   */\n  dup3\n    /* \"#utility.yul\":3157:3161   */\n  0x20\n    /* \"#utility.yul\":3149:3155   */\n  dup7\n    /* \"#utility.yul\":3145:3162   */\n  add\n    /* \"#utility.yul\":3086:3176   */\n  tag_32\n  jump\t// in\ntag_98:\n    /* \"#utility.yul\":3077:3176   */\n  swap2\n  pop\n    /* \"#utility.yul\":2900:3182   */\n  pop\n    /* \"#utility.yul\":2827:3182   */\n  swap3\n  swap2\n  pop\n  pop\n  jump\t// out\n    /* \"#utility.yul\":3188:4197   */\ntag_3:\n    /* \"#utility.yul\":3296:3302   */\n  0x00\n    /* \"#utility.yul\":3304:3310   */\n  dup1\n    /* \"#utility.yul\":3312:3318   */\n  0x00\n    /* \"#utility.yul\":3361:3363   */\n  0x60\n    /* \"#utility.yul\":3349:3358   */\n  dup5\n    /* \"#utility.yul\":3340:3347   */\n  dup7\n    /* \"#utility.yul\":3336:3359   */\n  sub\n    /* \"#utility.yul\":3332:3364   */\n  slt\n    /* \"#utility.yul\":3329:3448   */\n  iszero\n  tag_100\n  jumpi\n    /* \"#utility.yul\":3367:3446   */\n  tag_101\n  tag_18\n  jump\t// in\ntag_101:\n    /* \"#utility.yul\":3329:3448   */\ntag_100:\n    /* \"#utility.yul\":3487:3488   */\n  0x00\n    /* \"#utility.yul\":3512:3576   */\n  tag_102\n    /* \"#utility.yul\":3568:3575   */\n  dup7\n    /* \"#utility.yul\":3559:3565   */\n  dup3\n    /* \"#utility.yul\":3548:3557   */\n  dup8\n    /* \"#utility.yul\":3544:3566   */\n  add\n    /* \"#utility.yul\":3512:3576   */\n  tag_23\n  jump\t// in\ntag_102:\n    /* \"#utility.yul\":3502:3576   */\n  swap4\n  pop\n    /* \"#utility.yul\":3458:3586   */\n  pop\n    /* \"#utility.yul\":3646:3648   */\n  0x20\n    /* \"#utility.yul\":3635:3644   */\n  dup5\n    /* \"#utility.yul\":3631:3649   */\n  add\n    /* \"#utility.yul\":3625:3650   */\n  mload\n    /* \"#utility.yul\":3677:3695   */\n  0xffffffffffffffff\n    /* \"#utility.yul\":3669:3675   */\n  dup2\n    /* \"#utility.yul\":3666:3696   */\n  gt\n    /* \"#utility.yul\":3663:3780   */\n  iszero\n  tag_103\n  jumpi\n    /* \"#utility.yul\":3699:3778   */\n  tag_104\n  tag_19\n  jump\t// in\ntag_104:\n    /* \"#utility.yul\":3663:3780   */\ntag_103:\n    /* \"#utility.yul\":3804:3878   */\n  tag_105\n    /* \"#utility.yul\":3870:3877   */\n  dup7\n    /* \"#utility.yul\":3861:3867   */\n  dup3\n    /* \"#utility.yul\":3850:3859   */\n  dup8\n    /* \"#utility.yul\":3846:3868   */\n  add\n    /* \"#utility.yul\":3804:3878   */\n  tag_33\n  jump\t// in\ntag_105:\n    /* \"#utility.yul\":3794:3878   */\n  swap3\n  pop\n    /* \"#utility.yul\":3596:3888   */\n  pop\n    /* \"#utility.yul\":3948:3950   */\n  0x40\n    /* \"#utility.yul\":3937:3946   */\n  dup5\n    /* \"#utility.yul\":3933:3951   */\n  add\n    /* \"#utility.yul\":3927:3952   */\n  mload\n    /* \"#utility.yul\":3979:3997   */\n  0xffffffffffffffff\n    /* \"#utility.yul\":3971:3977   */\n  dup2\n    /* \"#utility.yul\":3968:3998   */\n  gt\n    /* \"#utility.yul\":3965:4082   */\n  iszero\n  tag_106\n  jumpi\n    /* \"#utility.yul\":4001:4080   */\n  tag_107\n  tag_19\n  jump\t// in\ntag_107:\n    /* \"#utility.yul\":3965:4082   */\ntag_106:\n    /* \"#utility.yul\":4106:4180   */\n  tag_108\n    /* \"#utility.yul\":4172:4179   */\n  dup7\n    /* \"#utility.yul\":4163:4169   */\n  dup3\n    /* \"#utility.yul\":4152:4161   */\n  dup8\n    /* \"#utility.yul\":4148:4170   */\n  add\n    /* \"#utility.yul\":4106:4180   */\n  tag_33\n  jump\t// in\ntag_108:\n    /* \"#utility.yul\":4096:4180   */\n  swap2\n  pop\n    /* \"#utility.yul\":3898:4190   */\n  pop\n    /* \"#utility.yul\":3188:4197   */\n  swap3\n  pop\n  swap3\n  pop\n  swap3\n  jump\t// out\n    /* \"#utility.yul\":4203:4302   */\ntag_34:\n    /* \"#utility.yul\":4255:4261   */\n  0x00\n    /* \"#utility.yul\":4289:4294   */\n  dup2\n    /* \"#utility.yul\":4283:4295   */\n  mload\n    /* \"#utility.yul\":4273:4295   */\n  swap1\n  pop\n    /* \"#utility.yul\":4203:4302   */\n  swap2\n  swap1\n  pop\n  jump\t// out\n    /* \"#utility.yul\":4308:4488   */\ntag_35:\n    /* \"#utility.yul\":4356:4433   */\n  0x4e487b7100000000000000000000000000000000000000000000000000000000\n    /* \"#utility.yul\":4353:4354   */\n  0x00\n    /* \"#utility.yul\":4346:4434   */\n  mstore\n    /* \"#utility.yul\":4453:4457   */\n  0x22\n    /* \"#utility.yul\":4450:4451   */\n  0x04\n    /* \"#utility.yul\":4443:4458   */\n  mstore\n    /* \"#utility.yul\":4477:4481   */\n  0x24\n    /* \"#utility.yul\":4474:4475   */\n  0x00\n    /* \"#utility.yul\":4467:4482   */\n  revert\n    /* \"#utility.yul\":4494:4814   */\ntag_36:\n    /* \"#utility.yul\":4538:4544   */\n  0x00\n    /* \"#utility.yul\":4575:4576   */\n  0x02\n    /* \"#utility.yul\":4569:4573   */\n  dup3\n    /* \"#utility.yul\":4565:4577   */\n  div\n    /* \"#utility.yul\":4555:4577   */\n  swap1\n  pop\n    /* \"#utility.yul\":4622:4623   */\n  0x01\n    /* \"#utility.yul\":4616:4620   */\n  dup3\n    /* \"#utility.yul\":4612:4624   */\n  and\n    /* \"#utility.yul\":4643:4661   */\n  dup1\n    /* \"#utility.yul\":4633:4714   */\n  tag_112\n  jumpi\n    /* \"#utility.yul\":4699:4703   */\n  0x7f\n    /* \"#utility.yul\":4691:4697   */\n  dup3\n    /* \"#utility.yul\":4687:4704   */\n  and\n    /* \"#utility.yul\":4677:4704   */\n  swap2\n  pop\n    /* \"#utility.yul\":4633:4714   */\ntag_112:\n    /* \"#utility.yul\":4761:4763   */\n  0x20\n    /* \"#utility.yul\":4753:4759   */\n  dup3\n    /* \"#utility.yul\":4750:4764   */\n  lt\n    /* \"#utility.yul\":4730:4748   */\n  dup2\n    /* \"#utility.yul\":4727:4765   */\n  sub\n    /* \"#utility.yul\":4724:4808   */\n  tag_113\n  jumpi\n    /* \"#utility.yul\":4780:4798   */\n  tag_114\n  tag_35\n  jump\t// in\ntag_114:\n    /* \"#utility.yul\":4724:4808   */\ntag_113:\n    /* \"#utility.yul\":4545:4814   */\n  pop\n    /* \"#utility.yul\":4494:4814   */\n  swap2\n  swap1\n  pop\n  jump\t// out\n    /* \"#utility.yul\":4820:4961   */\ntag_37:\n    /* \"#utility.yul\":4869:4873   */\n  0x00\n    /* \"#utility.yul\":4892:4895   */\n  dup2\n    /* \"#utility.yul\":4884:4895   */\n  swap1\n  pop\n    /* \"#utility.yul\":4915:4918   */\n  dup2\n    /* \"#utility.yul\":4912:4913   */\n  0x00\n    /* \"#utility.yul\":4905:4919   */\n  mstore\n    /* \"#utility.yul\":4949:4953   */\n  0x20\n    /* \"#utility.yul\":4946:4947   */\n  0x00\n    /* \"#utility.yul\":4936:4954   */\n  keccak256\n    /* \"#utility.yul\":4928:4954   */\n  swap1\n  pop\n    /* \"#utility.yul\":4820:4961   */\n  swap2\n  swap1\n  pop\n  jump\t// out\n    /* \"#utility.yul\":4967:5060   */\ntag_38:\n    /* \"#utility.yul\":5004:5010   */\n  0x00\n    /* \"#utility.yul\":5051:5053   */\n  0x20\n    /* \"#utility.yul\":5046:5048   */\n  0x1f\n    /* \"#utility.yul\":5039:5044   */\n  dup4\n    /* \"#utility.yul\":5035:5049   */\n  add\n    /* \"#utility.yul\":5031:5054   */\n  div\n    /* \"#utility.yul\":5021:5054   */\n  swap1\n  pop\n    /* \"#utility.yul\":4967:5060   */\n  swap2\n  swap1\n  pop\n  jump\t// out\n    /* \"#utility.yul\":5066:5173   */\ntag_39:\n    /* \"#utility.yul\":5110:5118   */\n  0x00\n    /* \"#utility.yul\":5160:5165   */\n  dup3\n    /* \"#utility.yul\":5154:5158   */\n  dup3\n    /* \"#utility.yul\":5150:5166   */\n  shl\n    /* \"#utility.yul\":5129:5166   */\n  swap1\n  pop\n    /* \"#utility.yul\":5066:5173   */\n  swap3\n  swap2\n  pop\n  pop\n  jump\t// out\n    /* \"#utility.yul\":5179:5572   */\ntag_40:\n    /* \"#utility.yul\":5248:5254   */\n  0x00\n    /* \"#utility.yul\":5298:5299   */\n  0x08\n    /* \"#utility.yul\":5286:5296   */\n  dup4\n    /* \"#utility.yul\":5282:5300   */\n  mul\n    /* \"#utility.yul\":5321:5418   */\n  tag_119\n    /* \"#utility.yul\":5351:5417   */\n  0xffffffffffffffffffffffffffffffffffffffffffffffffffffffffffffffff\n    /* \"#utility.yul\":5340:5349   */\n  dup3\n    /* \"#utility.yul\":5321:5418   */\n  tag_39\n  jump\t// in\ntag_119:\n    /* \"#utility.yul\":5439:5478   */\n  tag_120\n    /* \"#utility.yul\":5469:5477   */\n  dup7\n    /* \"#utility.yul\":5458:5467   */\n  dup4\n    /* \"#utility.yul\":5439:5478   */\n  tag_39\n  jump\t// in\ntag_120:\n    /* \"#utility.yul\":5427:5478   */\n  swap6\n  pop\n    /* \"#utility.yul\":5511:5515   */\n  dup1\n    /* \"#utility.yul\":5507:5516   */\n  not\n    /* \"#utility.yul\":5500:5505   */\n  dup5\n    /* \"#utility.yul\":5496:5517   */\n  and\n    /* \"#utility.yul\":5487:5517   */\n  swap4\n  pop\n    /* \"#utility.yul\":5560:5564   */\n  dup1\n    /* \"#utility.yul\":5550:5558   */\n  dup7\n    /* \"#utility.yul\":5546:5565   */\n  and\n    /* \"#utility.yul\":5539:5544   */\n  dup5\n    /* \"#utility.yul\":5536:5566   */\n  or\n    /* \"#utility.yul\":5526:5566   */\n  swap3\n  pop\n    /* \"#utility.yul\":5255:5572   */\n  pop\n  pop\n    /* \"#utility.yul\":5179:5572   */\n  swap4\n  swap3\n  pop\n  pop\n  pop\n  jump\t// out\n    /* \"#utility.yul\":5578:5655   */\ntag_41:\n    /* \"#utility.yul\":5615:5622   */\n  0x00\n    /* \"#utility.yul\":5644:5649   */\n  dup2\n    /* \"#utility.yul\":5633:5649   */\n  swap1\n  pop\n    /* \"#utility.yul\":5578:5655   */\n  swap2\n  swap1\n  pop\n  jump\t// out\n    /* \"#utility.yul\":5661:5721   */\ntag_42:\n    /* \"#utility.yul\":5689:5692   */\n  0x00\n    /* \"#utility.yul\":5710:5715   */\n  dup2\n    /* \"#utility.yul\":5703:5715   */\n  swap1\n  pop\n    /* \"#utility.yul\":5661:5721   */\n  swap2\n  swap1\n  pop\n  jump\t// out\n    /* \"#utility.yul\":5727:5869   */\ntag_43:\n    /* \"#utility.yul\":5777:5786   */\n  0x00\n    /* \"#utility.yul\":5810:5863   */\n  tag_124\n    /* \"#utility.yul\":5828:5862   */\n  tag_125\n    /* \"#utility.yul\":5837:5861   */\n  tag_126\n    /* \"#utility.yul\":5855:5860   */\n  dup5\n    /* \"#utility.yul\":5837:5861   */\n  tag_41\n  jump\t// in\ntag_126:\n    /* \"#utility.yul\":5828:5862   */\n  tag_42\n  jump\t// in\ntag_125:\n    /* \"#utility.yul\":5810:5863   */\n  tag_41\n  jump\t// in\ntag_124:\n    /* \"#utility.yul\":5797:5863   */\n  swap1\n  pop\n    /* \"#utility.yul\":5727:5869   */\n  swap2\n  swap1\n  pop\n  jump\t// out\n    /* \"#utility.yul\":5875:5950   */\ntag_44:\n    /* \"#utility.yul\":5918:5921   */\n  0x00\n    /* \"#utility.yul\":5939:5944   */\n  dup2\n    /* \"#utility.yul\":5932:5944   */\n  swap1\n  pop\n    /* \"#utility.yul\":5875:5950   */\n  swap2\n  swap1\n  pop\n  jump\t// out\n    /* \"#utility.yul\":5956:6225   */\ntag_45:\n    /* \"#utility.yul\":6066:6105   */\n  tag_129\n    /* \"#utility.yul\":6097:6104   */\n  dup4\n    /* \"#utility.yul\":6066:6105   */\n  tag_43\n  jump\t// in\ntag_129:\n    /* \"#utility.yul\":6127:6218   */\n  tag_130\n    /* \"#utility.yul\":6176:6217   */\n  tag_131\n    /* \"#utility.yul\":6200:6216   */\n  dup3\n    /* \"#utility.yul\":6176:6217   */\n  tag_44\n  jump\t// in\ntag_131:\n    /* \"#utility.yul\":6168:6174   */\n  dup5\n    /* \"#utility.yul\":6161:6165   */\n  dup5\n    /* \"#utility.yul\":6155:6166   */\n  sload\n    /* \"#utility.yul\":6127:6218   */\n  tag_40\n  jump\t// in\ntag_130:\n    /* \"#utility.yul\":6121:6125   */\n  dup3\n    /* \"#utility.yul\":6114:6219   */\n  sstore\n    /* \"#utility.yul\":6032:6225   */\n  pop\n    /* \"#utility.yul\":5956:6225   */\n  pop\n  pop\n  pop\n  jump\t// out\n    /* \"#utility.yul\":6231:6304   */\ntag_46:\n    /* \"#utility.yul\":6276:6279   */\n  0x00\n    /* \"#utility.yul\":6231:6304   */\n  swap1\n  jump\t// out\n    /* \"#utility.yul\":6310:6499   */\ntag_47:\n    /* \"#utility.yul\":6387:6419   */\n  tag_134\n  tag_46\n  jump\t// in\ntag_134:\n    /* \"#utility.yul\":6428:6493   */\n  tag_135\n    /* \"#utility.yul\":6486:6492   */\n  dup2\n    /* \"#utility.yul\":6478:6484   */\n  dup5\n    /* \"#utility.yul\":6472:6476   */\n  dup5\n    /* \"#utility.yul\":6428:6493   */\n  tag_45\n  jump\t// in\ntag_135:\n    /* \"#utility.yul\":6363:6499   */\n  pop\n    /* \"#utility.yul\":6310:6499   */\n  pop\n  pop\n  jump\t// out\n    /* \"#utility.yul\":6505:6691   */\ntag_48:\n    /* \"#utility.yul\":6565:6685   */\ntag_137:\n    /* \"#utility.yul\":6582:6585   */\n  dup2\n    /* \"#utility.yul\":6575:6580   */\n  dup2\n    /* \"#utility.yul\":6572:6586   */\n  lt\n    /* \"#utility.yul\":6565:6685   */\n  iszero\n  tag_139\n  jumpi\n    /* \"#utility.yul\":6636:6675   */\n  tag_140\n    /* \"#utility.yul\":6673:6674   */\n  0x00\n    /* \"#utility.yul\":6666:6671   */\n  dup3\n    /* \"#utility.yul\":6636:6675   */\n  tag_47\n  jump\t// in\ntag_140:\n    /* \"#utility.yul\":6609:6610   */\n  0x01\n    /* \"#utility.yul\":6602:6607   */\n  dup2\n    /* \"#utility.yul\":6598:6611   */\n  add\n    /* \"#utility.yul\":6589:6611   */\n  swap1\n  pop\n    /* \"#utility.yul\":6565:6685   */\n  jump(tag_137)\ntag_139:\n    /* \"#utility.yul\":6505:6691   */\n  pop\n  pop\n  jump\t// out\n    /* \"#utility.yul\":6697:7240   */\ntag_49:\n    /* \"#utility.yul\":6798:6800   */\n  0x1f\n    /* \"#utility.yul\":6793:6796   */\n  dup3\n    /* \"#utility.yul\":6790:6801   */\n  gt\n    /* \"#utility.yul\":6787:7233   */\n  iszero\n  tag_142\n  jumpi\n    /* \"#utility.yul\":6832:6870   */\n  tag_143\n    /* \"#utility.yul\":6864:6869   */\n  dup2\n    /* \"#utility.yul\":6832:6870   */\n  tag_37\n  jump\t// in\ntag_143:\n    /* \"#utility.yul\":6916:6945   */\n  tag_144\n    /* \"#utility.yul\":6934:6944   */\n  dup5\n    /* \"#utility.yul\":6916:6945   */\n  tag_38\n  jump\t// in\ntag_144:\n    /* \"#utility.yul\":6906:6914   */\n  dup2\n    /* \"#utility.yul\":6902:6946   */\n  add\n    /* \"#utility.yul\":7099:7101   */\n  0x20\n    /* \"#utility.yul\":7087:7097   */\n  dup6\n    /* \"#utility.yul\":7084:7102   */\n  lt\n    /* \"#utility.yul\":7081:7130   */\n  iszero\n  tag_145\n  jumpi\n    /* \"#utility.yul\":7120:7128   */\n  dup2\n    /* \"#utility.yul\":7105:7128   */\n  swap1\n  pop\n    /* \"#utility.yul\":7081:7130   */\ntag_145:\n    /* \"#utility.yul\":7143:7223   */\n  tag_146\n    /* \"#utility.yul\":7199:7221   */\n  tag_147\n    /* \"#utility.yul\":7217:7220   */\n  dup6\n    /* \"#utility.yul\":7199:7221   */\n  tag_38\n  jump\t// in\ntag_147:\n    /* \"#utility.yul\":7189:7197   */\n  dup4\n    /* \"#utility.yul\":7185:7222   */\n  add\n    /* \"#utility.yul\":7172:7183   */\n  dup3\n    /* \"#utility.yul\":7143:7223   */\n  tag_48\n  jump\t// in\ntag_146:\n    /* \"#utility.yul\":6802:7233   */\n  pop\n  pop\n    /* \"#utility.yul\":6787:7233   */\ntag_142:\n    /* \"#utility.yul\":6697:7240   */\n  pop\n  pop\n  pop\n  jump\t// out\n    /* \"#utility.yul\":7246:7363   */\ntag_50:\n    /* \"#utility.yul\":7300:7308   */\n  0x00\n    /* \"#utility.yul\":7350:7355   */\n  dup3\n    /* \"#utility.yul\":7344:7348   */\n  dup3\n    /* \"#utility.yul\":7340:7356   */\n  shr\n    /* \"#utility.yul\":7319:7356   */\n  swap1\n  pop\n    /* \"#utility.yul\":7246:7363   */\n  swap3\n  swap2\n  pop\n  pop\n  jump\t// out\n    /* \"#utility.yul\":7369:7538   */\ntag_51:\n    /* \"#utility.yul\":7413:7419   */\n  0x00\n    /* \"#utility.yul\":7446:7497   */\n  tag_150\n    /* \"#utility.yul\":7494:7495   */\n  0x00\n    /* \"#utility.yul\":7490:7496   */\n  not\n    /* \"#utility.yul\":7482:7487   */\n  dup5\n    /* \"#utility.yul\":7479:7480   */\n  0x08\n    /* \"#utility.yul\":7475:7488   */\n  mul\n    /* \"#utility.yul\":7446:7497   */\n  tag_50\n  jump\t// in\ntag_150:\n    /* \"#utility.yul\":7442:7498   */\n  not\n    /* \"#utility.yul\":7527:7531   */\n  dup1\n    /* \"#utility.yul\":7521:7525   */\n  dup4\n    /* \"#utility.yul\":7517:7532   */\n  and\n    /* \"#utility.yul\":7507:7532   */\n  swap2\n  pop\n    /* \"#utility.yul\":7420:7538   */\n  pop\n    /* \"#utility.yul\":7369:7538   */\n  swap3\n  swap2\n  pop\n  pop\n  jump\t// out\n    /* \"#utility.yul\":7543:7838   */\ntag_52:\n    /* \"#utility.yul\":7619:7623   */\n  0x00\n    /* \"#utility.yul\":7765:7794   */\n  tag_152\n    /* \"#utility.yul\":7790:7793   */\n  dup4\n    /* \"#utility.yul\":7784:7788   */\n  dup4\n    /* \"#utility.yul\":7765:7794   */\n  tag_51\n  jump\t// in\ntag_152:\n    /* \"#utility.yul\":7757:7794   */\n  swap2\n  pop\n    /* \"#utility.yul\":7827:7830   */\n  dup3\n    /* \"#utility.yul\":7824:7825   */\n  0x02\n    /* \"#utility.yul\":7820:7831   */\n  mul\n    /* \"#utility.yul\":7814:7818   */\n  dup3\n    /* \"#utility.yul\":7811:7832   */\n  or\n    /* \"#utility.yul\":7803:7832   */\n  swap1\n  pop\n    /* \"#utility.yul\":7543:7838   */\n  swap3\n  swap2\n  pop\n  pop\n  jump\t// out\n    /* \"#utility.yul\":7843:9238   */\ntag_7:\n    /* \"#utility.yul\":7960:7997   */\n  tag_154\n    /* \"#utility.yul\":7993:7996   */\n  dup3\n    /* \"#utility.yul\":7960:7997   */\n  tag_34\n  jump\t// in\ntag_154:\n    /* \"#utility.yul\":8062:8080   */\n  0xffffffffffffffff\n    /* \"#utility.yul\":8054:8060   */\n  dup2\n    /* \"#utility.yul\":8051:8081   */\n  gt\n    /* \"#utility.yul\":8048:8104   */\n  iszero\n  tag_155\n  jumpi\n    /* \"#utility.yul\":8084:8102   */\n  tag_156\n  tag_27\n  jump\t// in\ntag_156:\n    /* \"#utility.yul\":8048:8104   */\ntag_155:\n    /* \"#utility.yul\":8128:8166   */\n  tag_157\n    /* \"#utility.yul\":8160:8164   */\n  dup3\n    /* \"#utility.yul\":8154:8165   */\n  sload\n    /* \"#utility.yul\":8128:8166   */\n  tag_36\n  jump\t// in\ntag_157:\n    /* \"#utility.yul\":8213:8280   */\n  tag_158\n    /* \"#utility.yul\":8273:8279   */\n  dup3\n    /* \"#utility.yul\":8265:8271   */\n  dup3\n    /* \"#utility.yul\":8259:8263   */\n  dup6\n    /* \"#utility.yul\":8213:8280   */\n  tag_49\n  jump\t// in\ntag_158:\n    /* \"#utility.yul\":8307:8308   */\n  0x00\n    /* \"#utility.yul\":8331:8335   */\n  0x20\n    /* \"#utility.yul\":8318:8335   */\n  swap1\n  pop\n    /* \"#utility.yul\":8363:8365   */\n  0x1f\n    /* \"#utility.yul\":8355:8361   */\n  dup4\n    /* \"#utility.yul\":8352:8366   */\n  gt\n    /* \"#utility.yul\":8380:8381   */\n  0x01\n    /* \"#utility.yul\":8375:8993   */\n  dup2\n  eq\n  tag_160\n  jumpi\n    /* \"#utility.yul\":9037:9038   */\n  0x00\n    /* \"#utility.yul\":9054:9060   */\n  dup5\n    /* \"#utility.yul\":9051:9128   */\n  iszero\n  tag_161\n  jumpi\n    /* \"#utility.yul\":9103:9112   */\n  dup3\n    /* \"#utility.yul\":9098:9101   */\n  dup8\n    /* \"#utility.yul\":9094:9113   */\n  add\n    /* \"#utility.yul\":9088:9114   */\n  mload\n    /* \"#utility.yul\":9079:9114   */\n  swap1\n  pop\n    /* \"#utility.yul\":9051:9128   */\ntag_161:\n    /* \"#utility.yul\":9154:9221   */\n  tag_162\n    /* \"#utility.yul\":9214:9220   */\n  dup6\n    /* \"#utility.yul\":9207:9212   */\n  dup3\n    /* \"#utility.yul\":9154:9221   */\n  tag_52\n  jump\t// in\ntag_162:\n    /* \"#utility.yul\":9148:9152   */\n  dup7\n    /* \"#utility.yul\":9141:9222   */\n  sstore\n    /* \"#utility.yul\":9010:9232   */\n  pop\n    /* \"#utility.yul\":8345:9232   */\n  jump(tag_159)\n    /* \"#utility.yul\":8375:8993   */\ntag_160:\n    /* \"#utility.yul\":8427:8431   */\n  0x1f\n    /* \"#utility.yul\":8423:8432   */\n  not\n    /* \"#utility.yul\":8415:8421   */\n  dup5\n    /* \"#utility.yul\":8411:8433   */\n  and\n    /* \"#utility.yul\":8461:8498   */\n  tag_163\n    /* \"#utility.yul\":8493:8497   */\n  dup7\n    /* \"#utility.yul\":8461:8498   */\n  tag_37\n  jump\t// in\ntag_163:\n    /* \"#utility.yul\":8520:8521   */\n  0x00\n    /* \"#utility.yul\":8534:8742   */\ntag_164:\n    /* \"#utility.yul\":8548:8555   */\n  dup3\n    /* \"#utility.yul\":8545:8546   */\n  dup2\n    /* \"#utility.yul\":8542:8556   */\n  lt\n    /* \"#utility.yul\":8534:8742   */\n  iszero\n  tag_166\n  jumpi\n    /* \"#utility.yul\":8627:8636   */\n  dup5\n    /* \"#utility.yul\":8622:8625   */\n  dup10\n    /* \"#utility.yul\":8618:8637   */\n  add\n    /* \"#utility.yul\":8612:8638   */\n  mload\n    /* \"#utility.yul\":8604:8610   */\n  dup3\n    /* \"#utility.yul\":8597:8639   */\n  sstore\n    /* \"#utility.yul\":8678:8679   */\n  0x01\n    /* \"#utility.yul\":8670:8676   */\n  dup3\n    /* \"#utility.yul\":8666:8680   */\n  add\n    /* \"#utility.yul\":8656:8680   */\n  swap2\n  pop\n    /* \"#utility.yul\":8725:8727   */\n  0x20\n    /* \"#utility.yul\":8714:8723   */\n  dup6\n    /* \"#utility.yul\":8710:8728   */\n  add\n    /* \"#utility.yul\":8697:8728   */\n  swap5\n  pop\n    /* \"#utility.yul\":8571:8575   */\n  0x20\n    /* \"#utility.yul\":8568:8569   */\n  dup2\n    /* \"#utility.yul\":8564:8576   */\n  add\n    /* \"#utility.yul\":8559:8576   */\n  swap1\n  pop\n    /* \"#utility.yul\":8534:8742   */\n  jump(tag_164)\ntag_166:\n    /* \"#utility.yul\":8770:8776   */\n  dup7\n    /* \"#utility.yul\":8761:8768   */\n  dup4\n    /* \"#utility.yul\":8758:8777   */\n  lt\n    /* \"#utility.yul\":8755:8934   */\n  iszero\n  tag_167\n  jumpi\n    /* \"#utility.yul\":8828:8837   */\n  dup5\n    /* \"#utility.yul\":8823:8826   */\n  dup10\n    /* \"#utility.yul\":8819:8838   */\n  add\n    /* \"#utility.yul\":8813:8839   */\n  mload\n    /* \"#utility.yul\":8871:8919   */\n  tag_168\n    /* \"#utility.yul\":8913:8917   */\n  0x1f\n    /* \"#utility.yul\":8905:8911   */\n  dup10\n    /* \"#utility.yul\":8901:8918   */\n  and\n    /* \"#utility.yul\":8890:8899   */\n  dup3\n    /* \"#utility.yul\":8871:8919   */\n  tag_51\n  jump\t// in\ntag_168:\n    /* \"#utility.yul\":8863:8869   */\n  dup4\n    /* \"#utility.yul\":8856:8920   */\n  sstore\n    /* \"#utility.yul\":8778:8934   */\n  pop\n    /* \"#utility.yul\":8755:8934   */\ntag_167:\n    /* \"#utility.yul\":8980:8981   */\n  0x01\n    /* \"#utility.yul\":8976:8977   */\n  0x02\n    /* \"#utility.yul\":8968:8974   */\n  dup9\n    /* \"#utility.yul\":8964:8978   */\n  mul\n    /* \"#utility.yul\":8960:8982   */\n  add\n    /* \"#utility.yul\":8954:8958   */\n  dup9\n    /* \"#utility.yul\":8947:8983   */\n  sstore\n    /* \"#utility.yul\":8382:8993   */\n  pop\n  pop\n  pop\n    /* \"#utility.yul\":8345:9232   */\ntag_159:\n  pop\n    /* \"#utility.yul\":7935:9238   */\n  pop\n  pop\n  pop\n    /* \"#utility.yul\":7843:9238   */\n  pop\n  pop\n  jump\t// out\n    /* \"#utility.yul\":9244:9413   */\ntag_53:\n    /* \"#utility.yul\":9328:9339   */\n  0x00\n    /* \"#utility.yul\":9362:9368   */\n  dup3\n    /* \"#utility.yul\":9357:9360   */\n  dup3\n    /* \"#utility.yul\":9350:9369   */\n  mstore\n    /* \"#utility.yul\":9402:9406   */\n  0x20\n    /* \"#utility.yul\":9397:9400   */\n  dup3\n    /* \"#utility.yul\":9393:9407   */\n  add\n    /* \"#utility.yul\":9378:9407   */\n  swap1\n  pop\n    /* \"#utility.yul\":9244:9413   */\n  swap3\n  swap2\n  pop\n  pop\n  jump\t// out\n    /* \"#utility.yul\":9419:9796   */\ntag_54:\n    /* \"#utility.yul\":9507:9510   */\n  0x00\n    /* \"#utility.yul\":9535:9574   */\n  tag_171\n    /* \"#utility.yul\":9568:9573   */\n  dup3\n    /* \"#utility.yul\":9535:9574   */\n  tag_34\n  jump\t// in\ntag_171:\n    /* \"#utility.yul\":9590:9661   */\n  tag_172\n    /* \"#utility.yul\":9654:9660   */\n  dup2\n    /* \"#utility.yul\":9649:9652   */\n  dup6\n    /* \"#utility.yul\":9590:9661   */\n  tag_53\n  jump\t// in\ntag_172:\n    /* \"#utility.yul\":9583:9661   */\n  swap4\n  pop\n    /* \"#utility.yul\":9670:9735   */\n  tag_173\n    /* \"#utility.yul\":9728:9734   */\n  dup2\n    /* \"#utility.yul\":9723:9726   */\n  dup6\n    /* \"#utility.yul\":9716:9720   */\n  0x20\n    /* \"#utility.yul\":9709:9714   */\n  dup7\n    /* \"#utility.yul\":9705:9721   */\n  add\n    /* \"#utility.yul\":9670:9735   */\n  tag_31\n  jump\t// in\ntag_173:\n    /* \"#utility.yul\":9760:9789   */\n  tag_174\n    /* \"#utility.yul\":9782:9788   */\n  dup2\n    /* \"#utility.yul\":9760:9789   */\n  tag_26\n  jump\t// in\ntag_174:\n    /* \"#utility.yul\":9755:9758   */\n  dup5\n    /* \"#utility.yul\":9751:9790   */\n  add\n    /* \"#utility.yul\":9744:9790   */\n  swap2\n  pop\n    /* \"#utility.yul\":9511:9796   */\n  pop\n    /* \"#utility.yul\":9419:9796   */\n  swap3\n  swap2\n  pop\n  pop\n  jump\t// out\n    /* \"#utility.yul\":9802:10316   */\ntag_10:\n    /* \"#utility.yul\":9963:9967   */\n  0x00\n    /* \"#utility.yul\":10001:10003   */\n  0x40\n    /* \"#utility.yul\":9990:9999   */\n  dup3\n    /* \"#utility.yul\":9986:10004   */\n  add\n    /* \"#utility.yul\":9978:10004   */\n  swap1\n  pop\n    /* \"#utility.yul\":10050:10059   */\n  dup2\n    /* \"#utility.yul\":10044:10048   */\n  dup2\n    /* \"#utility.yul\":10040:10060   */\n  sub\n    /* \"#utility.yul\":10036:10037   */\n  0x00\n    /* \"#utility.yul\":10025:10034   */\n  dup4\n    /* \"#utility.yul\":10021:10038   */\n  add\n    /* \"#utility.yul\":10014:10061   */\n  mstore\n    /* \"#utility.yul\":10078:10156   */\n  tag_176\n    /* \"#utility.yul\":10151:10155   */\n  dup2\n    /* \"#utility.yul\":10142:10148   */\n  dup6\n    /* \"#utility.yul\":10078:10156   */\n  tag_54\n  jump\t// in\ntag_176:\n    /* \"#utility.yul\":10070:10156   */\n  swap1\n  pop\n    /* \"#utility.yul\":10203:10212   */\n  dup2\n    /* \"#utility.yul\":10197:10201   */\n  dup2\n    /* \"#utility.yul\":10193:10213   */\n  sub\n    /* \"#utility.yul\":10188:10190   */\n  0x20\n    /* \"#utility.yul\":10177:10186   */\n  dup4\n    /* \"#utility.yul\":10173:10191   */\n  add\n    /* \"#utility.yul\":10166:10214   */\n  mstore\n    /* \"#utility.yul\":10231:10309   */\n  tag_177\n    /* \"#utility.yul\":10304:10308   */\n  dup2\n    /* \"#utility.yul\":10295:10301   */\n  dup5\n    /* \"#utility.yul\":10231:10309   */\n  tag_54\n  jump\t// in\ntag_177:\n    /* \"#utility.yul\":10223:10309   */\n  swap1\n  pop\n    /* \"#utility.yul\":9802:10316   */\n  swap4\n  swap3\n  pop\n  pop\n  pop\n  jump\t// out\n    /* \"#utility.yul\":10322:10420   */\ntag_55:\n    /* \"#utility.yul\":10373:10379   */\n  0x00\n    /* \"#utility.yul\":10407:10412   */\n  dup2\n    /* \"#utility.yul\":10401:10413   */\n  mload\n    /* \"#utility.yul\":10391:10413   */\n  swap1\n  pop\n    /* \"#utility.yul\":10322:10420   */\n  swap2\n  swap1\n  pop\n  jump\t// out\n    /* \"#utility.yul\":10426:10573   */\ntag_56:\n    /* \"#utility.yul\":10527:10538   */\n  0x00\n    /* \"#utility.yul\":10564:10567   */\n  dup2\n    /* \"#utility.yul\":10549:10567   */\n  swap1\n  pop\n    /* \"#utility.yul\":10426:10573   */\n  swap3\n  swap2\n  pop\n  pop\n  jump\t// out\n    /* \"#utility.yul\":10579:10965   */\ntag_57:\n    /* \"#utility.yul\":10683:10686   */\n  0x00\n    /* \"#utility.yul\":10711:10749   */\n  tag_181\n    /* \"#utility.yul\":10743:10748   */\n  dup3\n    /* \"#utility.yul\":10711:10749   */\n  tag_55\n  jump\t// in\ntag_181:\n    /* \"#utility.yul\":10765:10853   */\n  tag_182\n    /* \"#utility.yul\":10846:10852   */\n  dup2\n    /* \"#utility.yul\":10841:10844   */\n  dup6\n    /* \"#utility.yul\":10765:10853   */\n  tag_56\n  jump\t// in\ntag_182:\n    /* \"#utility.yul\":10758:10853   */\n  swap4\n  pop\n    /* \"#utility.yul\":10862:10927   */\n  tag_183\n    /* \"#utility.yul\":10920:10926   */\n  dup2\n    /* \"#utility.yul\":10915:10918   */\n  dup6\n    /* \"#utility.yul\":10908:10912   */\n  0x20\n    /* \"#utility.yul\":10901:10906   */\n  dup7\n    /* \"#utility.yul\":10897:10913   */\n  add\n    /* \"#utility.yul\":10862:10927   */\n  tag_31\n  jump\t// in\ntag_183:\n    /* \"#utility.yul\":10952:10958   */\n  dup1\n    /* \"#utility.yul\":10947:10950   */\n  dup5\n    /* \"#utility.yul\":10943:10959   */\n  add\n    /* \"#utility.yul\":10936:10959   */\n  swap2\n  pop\n    /* \"#utility.yul\":10687:10965   */\n  pop\n    /* \"#utility.yul\":10579:10965   */\n  swap3\n  swap2\n  pop\n  pop\n  jump\t// out\n    /* \"#utility.yul\":10971:11242   */\ntag_12:\n    /* \"#utility.yul\":11101:11104   */\n  0x00\n    /* \"#utility.yul\":11123:11216   */\n  tag_185\n    /* \"#utility.yul\":11212:11215   */\n  dup3\n    /* \"#utility.yul\":11203:11209   */\n  dup5\n    /* \"#utility.yul\":11123:11216   */\n  tag_57\n  jump\t// in\ntag_185:\n    /* \"#utility.yul\":11116:11216   */\n  swap2\n  pop\n    /* \"#utility.yul\":11233:11236   */\n  dup2\n    /* \"#utility.yul\":11226:11236   */\n  swap1\n  pop\n    /* \"#utility.yul\":10971:11242   */\n  swap3\n  swap2\n  pop\n  pop\n  jump\t// out\n    /* \"contracts/ERC721Proxy.sol\":921:16831  contract ProxyERC721 {... */\ntag_16:\n  dataSize(sub_0)\n  dup1\n  dataOffset(sub_0)\n  0x00\n  codecopy\n  0x00\n  return\nstop\n\nsub_0: assembly {\n        /* \"contracts/ERC721Proxy.sol\":921:16831  contract ProxyERC721 {... */\n      mstore(0x40, 0x80)\n      callvalue\n      dup1\n      iszero\n      tag_1\n      jumpi\n      0x00\n      dup1\n      revert\n    tag_1:\n      pop\n      jumpi(tag_2, lt(calldatasize, 0x04))\n      shr(0xe0, calldataload(0x00))\n      dup1\n      0x743976a0\n      gt\n      tag_33\n      jumpi\n      dup1\n      0xa0aea85d\n      gt\n      tag_34\n      jumpi\n      dup1\n      0xc87b56dd\n      gt\n      tag_35\n      jumpi\n      dup1\n      0xc87b56dd\n      eq\n      tag_29\n      jumpi\n      dup1\n      0xe985e9c5\n      eq\n      tag_30\n      jumpi\n      dup1\n      0xf661e7c9\n      eq\n      tag_31\n      jumpi\n      dup1\n      0xf8e76cc0\n      eq\n      tag_32\n      jumpi\n      jump(tag_2)\n    tag_35:\n      dup1\n      0xa0aea85d\n      eq\n      tag_25\n      jumpi\n      dup1\n      0xa22cb465\n      eq\n      tag_26\n      jumpi\n      dup1\n      0xb3e1c718\n      eq\n      tag_27\n      jumpi\n      dup1\n      0xb88d4fde\n      eq\n      tag_28\n      jumpi\n      jump(tag_2)\n    tag_34:\n      dup1\n      0x95d89b41\n      gt\n      tag_36\n      jumpi\n      dup1\n      0x95d89b41\n      eq\n      tag_21\n      jumpi\n      dup1\n      0x98d28eeb\n      eq\n      tag_22\n      jumpi\n      dup1\n      0x9a03d9a3\n      eq\n      tag_23\n      jumpi\n      dup1\n      0x9b1f9e74\n      eq\n      tag_24\n      jumpi\n      jump(tag_2)\n    tag_36:\n      dup1\n      0x743976a0\n      eq\n      tag_18\n      jumpi\n      dup1\n      0x7b7d7225\n      eq\n      tag_19\n      jumpi\n      dup1\n      0x8c4e3f32\n      eq\n      tag_20\n      jumpi\n      jump(tag_2)\n    tag_33:\n      dup1\n      0x30e0789e\n      gt\n      tag_37\n      jumpi\n      dup1\n      0x4e6ec247\n      gt\n      tag_38\n      jumpi\n      dup1\n      0x4e6ec247\n      eq\n      tag_14\n      jumpi\n      dup1\n      0x6352211e\n      eq\n      tag_15\n      jumpi\n      dup1\n      0x6a4f832b\n      eq\n      tag_16\n      jumpi\n      dup1\n      0x70a08231\n      eq\n      tag_17\n      jumpi\n      jump(tag_2)\n    tag_38:\n      dup1\n      0x30e0789e\n      eq\n      tag_10\n      jumpi\n      dup1\n      0x38350541\n      eq\n      tag_11\n      jumpi\n      dup1\n      0x42842e0e\n      eq\n      tag_12\n      jumpi\n      dup1\n      0x4cdc9549\n      eq\n      tag_13\n      jumpi\n      jump(tag_2)\n    tag_37:\n      dup1\n      0x095ea7b3\n      gt\n      tag_39\n      jumpi\n      dup1\n      0x095ea7b3\n      eq\n      tag_6\n      jumpi\n      dup1\n      0x23b872dd\n      eq\n      tag_7\n      jumpi\n      dup1\n      0x24b6b8c0\n      eq\n      tag_8\n      jumpi\n      dup1\n      0x2bd9a459\n      eq\n      tag_9\n      jumpi\n      jump(tag_2)\n    tag_39:\n      dup1\n      0x01ffc9a7\n      eq\n      tag_3\n      jumpi\n      dup1\n      0x06fdde03\n      eq\n      tag_4\n      jumpi\n      dup1\n      0x081812fc\n      eq\n      tag_5\n      jumpi\n    tag_2:\n      0x00\n      dup1\n      revert\n        /* \"contracts/ERC721Proxy.sol\":2269:2581  function supportsInterface(bytes4 interfaceId) public returns (bool) {... */\n    tag_3:\n      tag_40\n      0x04\n      dup1\n      calldatasize\n      sub\n      dup2\n      add\n      swap1\n      tag_41\n      swap2\n      swap1\n      tag_42\n      jump\t// in\n    tag_41:\n      tag_43\n      jump\t// in\n    tag_40:\n      mload(0x40)\n      tag_44\n      swap2\n      swap1\n      tag_45\n      jump\t// in\n    tag_44:\n      mload(0x40)\n      dup1\n      swap2\n      sub\n      swap1\n      return\n        /* \"contracts/ERC721Proxy.sol\":3238:3498  function name() public returns (string memory) {... */\n    tag_4:\n      tag_46\n      tag_47\n      jump\t// in\n    tag_46:\n      mload(0x40)\n      tag_48\n      swap2\n      swap1\n      tag_49\n      jump\t// in\n    tag_48:\n      mload(0x40)\n      dup1\n      swap2\n      sub\n      swap1\n      return\n        /* \"contracts/ERC721Proxy.sol\":5042:5342  function getApproved(uint256 tokenId) public returns (address) {... */\n    tag_5:\n      tag_50\n      0x04\n      dup1\n      calldatasize\n      sub\n      dup2\n      add\n      swap1\n      tag_51\n      swap2\n      swap1\n      tag_52\n      jump\t// in\n    tag_51:\n      tag_53\n      jump\t// in\n    tag_50:\n      mload(0x40)\n      tag_54\n      swap2\n      swap1\n      tag_55\n      jump\t// in\n    tag_54:\n      mload(0x40)\n      dup1\n      swap2\n      sub\n      swap1\n      return\n        /* \"contracts/ERC721Proxy.sol\":4758:4981  function approve(address to, uint256 tokenId) public {... */\n    tag_6:\n      tag_56\n      0x04\n      dup1\n      calldatasize\n      sub\n      dup2\n      add\n      swap1\n      tag_57\n      swap2\n      swap1\n      tag_58\n      jump\t// in\n    tag_57:\n      tag_59\n      jump\t// in\n    tag_56:\n      stop\n        /* \"contracts/ERC721Proxy.sol\":6125:6387  function transferFrom(address from, address to, uint256 tokenId) public {... */\n    tag_7:\n      tag_60\n      0x04\n      dup1\n      calldatasize\n      sub\n      dup2\n      add\n      swap1\n      tag_61\n      swap2\n      swap1\n      tag_62\n      jump\t// in\n    tag_61:\n      tag_63\n      jump\t// in\n    tag_60:\n      stop\n        /* \"contracts/ERC721Proxy.sol\":7951:8247  function _safeTransfer(address from, address to, uint256 tokenId, bytes memory data) public {... */\n    tag_8:\n      tag_64\n      0x04\n      dup1\n      calldatasize\n      sub\n      dup2\n      add\n      swap1\n      tag_65\n      swap2\n      swap1\n      tag_66\n      jump\t// in\n    tag_65:\n      tag_67\n      jump\t// in\n    tag_64:\n      stop\n        /* \"contracts/ERC721Proxy.sol\":15173:15279  function _beforeTokenTransfer(address from, address to, uint256 firstTokenId, uint256 batchSize) public {} */\n    tag_9:\n      tag_68\n      0x04\n      dup1\n      calldatasize\n      sub\n      dup2\n      add\n      swap1\n      tag_69\n      swap2\n      swap1\n      tag_70\n      jump\t// in\n    tag_69:\n      tag_71\n      jump\t// in\n    tag_68:\n      stop\n        /* \"contracts/ERC721Proxy.sol\":12155:12411  function _transfer(address from, address to, uint256 tokenId) public {... */\n    tag_10:\n      tag_72\n      0x04\n      dup1\n      calldatasize\n      sub\n      dup2\n      add\n      swap1\n      tag_73\n      swap2\n      swap1\n      tag_62\n      jump\t// in\n    tag_73:\n      tag_74\n      jump\t// in\n    tag_72:\n      stop\n        /* \"contracts/ERC721Proxy.sol\":8356:8650  function _ownerOf(uint256 tokenId) public returns (address) {... */\n    tag_11:\n      tag_75\n      0x04\n      dup1\n      calldatasize\n      sub\n      dup2\n      add\n      swap1\n      tag_76\n      swap2\n      swap1\n      tag_52\n      jump\t// in\n    tag_76:\n      tag_77\n      jump\t// in\n    tag_75:\n      mload(0x40)\n      tag_78\n      swap2\n      swap1\n      tag_55\n      jump\t// in\n    tag_78:\n      mload(0x40)\n      dup1\n      swap2\n      sub\n      swap1\n      return\n        /* \"contracts/ERC721Proxy.sol\":6453:6722  function safeTransferFrom(address from, address to, uint256 tokenId) public {... */\n    tag_12:\n      tag_79\n      0x04\n      dup1\n      calldatasize\n      sub\n      dup2\n      add\n      swap1\n      tag_80\n      swap2\n      swap1\n      tag_62\n      jump\t// in\n    tag_80:\n      tag_81\n      jump\t// in\n    tag_79:\n      stop\n        /* \"contracts/ERC721Proxy.sol\":9397:9740  function _isApprovedOrOwner(address spender, uint256 tokenId) public returns (bool) {... */\n    tag_13:\n      tag_82\n      0x04\n      dup1\n      calldatasize\n      sub\n      dup2\n      add\n      swap1\n      tag_83\n      swap2\n      swap1\n      tag_58\n      jump\t// in\n    tag_83:\n      tag_84\n      jump\t// in\n    tag_82:\n      mload(0x40)\n      tag_85\n      swap2\n      swap1\n      tag_45\n      jump\t// in\n    tag_85:\n      mload(0x40)\n      dup1\n      swap2\n      sub\n      swap1\n      return\n        /* \"contracts/ERC721Proxy.sol\":11094:11313  function _mint(address to, uint256 tokenId) public {... */\n    tag_14:\n      tag_86\n      0x04\n      dup1\n      calldatasize\n      sub\n      dup2\n      add\n      swap1\n      tag_87\n      swap2\n      swap1\n      tag_58\n      jump\t// in\n    tag_87:\n      tag_88\n      jump\t// in\n    tag_86:\n      stop\n        /* \"contracts/ERC721Proxy.sol\":2884:3176  function ownerOf(uint256 tokenId) public returns (address) {... */\n    tag_15:\n      tag_89\n      0x04\n      dup1\n      calldatasize\n      sub\n      dup2\n      add\n      swap1\n      tag_90\n      swap2\n      swap1\n      tag_52\n      jump\t// in\n    tag_90:\n      tag_91\n      jump\t// in\n    tag_89:\n      mload(0x40)\n      tag_92\n      swap2\n      swap1\n      tag_55\n      jump\t// in\n    tag_92:\n      mload(0x40)\n      dup1\n      swap2\n      sub\n      swap1\n      return\n        /* \"contracts/ERC721Proxy.sol\":10513:10772  function _safeMint(address to, uint256 tokenId, bytes memory data) public {... */\n    tag_16:\n      tag_93\n      0x04\n      dup1\n      calldatasize\n      sub\n      dup2\n      add\n      swap1\n      tag_94\n      swap2\n      swap1\n      tag_95\n      jump\t// in\n    tag_94:\n      tag_96\n      jump\t// in\n    tag_93:\n      stop\n        /* \"contracts/ERC721Proxy.sol\":2640:2827  function balanceOf(address owner) public view returns (uint256) {... */\n    tag_17:\n      tag_97\n      0x04\n      dup1\n      calldatasize\n      sub\n      dup2\n      add\n      swap1\n      tag_98\n      swap2\n      swap1\n      tag_99\n      jump\t// in\n    tag_98:\n      tag_100\n      jump\t// in\n    tag_97:\n      mload(0x40)\n      tag_101\n      swap2\n      swap1\n      tag_102\n      jump\t// in\n    tag_101:\n      mload(0x40)\n      dup1\n      swap2\n      sub\n      swap1\n      return\n        /* \"contracts/ERC721Proxy.sol\":4433:4701  function _baseURI() public returns (string memory) {... */\n    tag_18:\n      tag_103\n      tag_104\n      jump\t// in\n    tag_103:\n      mload(0x40)\n      tag_105\n      swap2\n      swap1\n      tag_49\n      jump\t// in\n    tag_105:\n      mload(0x40)\n      dup1\n      swap2\n      sub\n      swap1\n      return\n        /* \"contracts/ERC721Proxy.sol\":12523:12748  function _approve(address to, uint256 tokenId) public {... */\n    tag_19:\n      tag_106\n      0x04\n      dup1\n      calldatasize\n      sub\n      dup2\n      add\n      swap1\n      tag_107\n      swap2\n      swap1\n      tag_58\n      jump\t// in\n    tag_107:\n      tag_108\n      jump\t// in\n    tag_106:\n      stop\n        /* \"contracts/ERC721Proxy.sol\":12884:13168  function _setApprovalForAll(address owner, address operator, bool approved) public {... */\n    tag_20:\n      tag_109\n      0x04\n      dup1\n      calldatasize\n      sub\n      dup2\n      add\n      swap1\n      tag_110\n      swap2\n      swap1\n      tag_111\n      jump\t// in\n    tag_110:\n      tag_112\n      jump\t// in\n    tag_109:\n      stop\n        /* \"contracts/ERC721Proxy.sol\":3562:3826  function symbol() public returns (string memory) {... */\n    tag_21:\n      tag_113\n      tag_114\n      jump\t// in\n    tag_113:\n      mload(0x40)\n      tag_115\n      swap2\n      swap1\n      tag_49\n      jump\t// in\n    tag_115:\n      mload(0x40)\n      dup1\n      swap2\n      sub\n      swap1\n      return\n        /* \"contracts/ERC721Proxy.sol\":15985:16091  function _afterTokenTransfer(address from, address to, uint256 firstTokenId, uint256 batchSize) public  {} */\n    tag_22:\n      tag_116\n      0x04\n      dup1\n      calldatasize\n      sub\n      dup2\n      add\n      swap1\n      tag_117\n      swap2\n      swap1\n      tag_70\n      jump\t// in\n    tag_117:\n      tag_118\n      jump\t// in\n    tag_116:\n      stop\n        /* \"contracts/ERC721Proxy.sol\":2101:2202  function setERC721Address (address _ERC721Address) public {... */\n    tag_23:\n      tag_119\n      0x04\n      dup1\n      calldatasize\n      sub\n      dup2\n      add\n      swap1\n      tag_120\n      swap2\n      swap1\n      tag_99\n      jump\t// in\n    tag_120:\n      tag_121\n      jump\t// in\n    tag_119:\n      stop\n        /* \"contracts/ERC721Proxy.sol\":11637:11831  function _burn(uint256 tokenId) public {... */\n    tag_24:\n      tag_122\n      0x04\n      dup1\n      calldatasize\n      sub\n      dup2\n      add\n      swap1\n      tag_123\n      swap2\n      swap1\n      tag_52\n      jump\t// in\n    tag_123:\n      tag_124\n      jump\t// in\n    tag_122:\n      stop\n        /* \"contracts/ERC721Proxy.sol\":13252:13464  function _requireMinted(uint256 tokenId) public {... */\n    tag_25:\n      tag_125\n      0x04\n      dup1\n      calldatasize\n      sub\n      dup2\n      add\n      swap1\n      tag_126\n      swap2\n      swap1\n      tag_52\n      jump\t// in\n    tag_126:\n      tag_127\n      jump\t// in\n    tag_125:\n      stop\n        /* \"contracts/ERC721Proxy.sol\":5409:5660  function setApprovalForAll(address operator, bool approved) public {... */\n    tag_26:\n      tag_128\n      0x04\n      dup1\n      calldatasize\n      sub\n      dup2\n      add\n      swap1\n      tag_129\n      swap2\n      swap1\n      tag_130\n      jump\t// in\n    tag_129:\n      tag_131\n      jump\t// in\n    tag_128:\n      stop\n        /* \"contracts/ERC721Proxy.sol\":10070:10292  function _safeMint(address to, uint256 tokenId) public {... */\n    tag_27:\n      tag_132\n      0x04\n      dup1\n      calldatasize\n      sub\n      dup2\n      add\n      swap1\n      tag_133\n      swap2\n      swap1\n      tag_58\n      jump\t// in\n    tag_133:\n      tag_134\n      jump\t// in\n    tag_132:\n      stop\n        /* \"contracts/ERC721Proxy.sol\":6788:7090  function safeTransferFrom(address from, address to, uint256 tokenId, bytes memory data) public {... */\n    tag_28:\n      tag_135\n      0x04\n      dup1\n      calldatasize\n      sub\n      dup2\n      add\n      swap1\n      tag_136\n      swap2\n      swap1\n      tag_66\n      jump\t// in\n    tag_136:\n      tag_137\n      jump\t// in\n    tag_135:\n      stop\n        /* \"contracts/ERC721Proxy.sol\":3892:4191  function tokenURI(uint256 tokenId) public returns (string memory) {... */\n    tag_29:\n      tag_138\n      0x04\n      dup1\n      calldatasize\n      sub\n      dup2\n      add\n      swap1\n      tag_139\n      swap2\n      swap1\n      tag_52\n      jump\t// in\n    tag_139:\n      tag_140\n      jump\t// in\n    tag_138:\n      mload(0x40)\n      tag_141\n      swap2\n      swap1\n      tag_49\n      jump\t// in\n    tag_141:\n      mload(0x40)\n      dup1\n      swap2\n      sub\n      swap1\n      return\n        /* \"contracts/ERC721Proxy.sol\":5726:6063  function isApprovedForAll(address owner, address operator) public returns (bool) {... */\n    tag_30:\n      tag_142\n      0x04\n      dup1\n      calldatasize\n      sub\n      dup2\n      add\n      swap1\n      tag_143\n      swap2\n      swap1\n      tag_144\n      jump\t// in\n    tag_143:\n      tag_145\n      jump\t// in\n    tag_142:\n      mload(0x40)\n      tag_146\n      swap2\n      swap1\n      tag_45\n      jump\t// in\n    tag_146:\n      mload(0x40)\n      dup1\n      swap2\n      sub\n      swap1\n      return\n        /* \"contracts/ERC721Proxy.sol\":16564:16829  function __unsafe_increaseBalance(address account, uint256 amount) public {... */\n    tag_31:\n      tag_147\n      0x04\n      dup1\n      calldatasize\n      sub\n      dup2\n      add\n      swap1\n      tag_148\n      swap2\n      swap1\n      tag_58\n      jump\t// in\n    tag_148:\n      tag_149\n      jump\t// in\n    tag_147:\n      stop\n        /* \"contracts/ERC721Proxy.sol\":8953:9239  function _exists(uint256 tokenId) public returns (bool) {... */\n    tag_32:\n      tag_150\n      0x04\n      dup1\n      calldatasize\n      sub\n      dup2\n      add\n      swap1\n      tag_151\n      swap2\n      swap1\n      tag_52\n      jump\t// in\n    tag_151:\n      tag_152\n      jump\t// in\n    tag_150:\n      mload(0x40)\n      tag_153\n      swap2\n      swap1\n      tag_45\n      jump\t// in\n    tag_153:\n      mload(0x40)\n      dup1\n      swap2\n      sub\n      swap1\n      return\n        /* \"contracts/ERC721Proxy.sol\":2269:2581  function supportsInterface(bytes4 interfaceId) public returns (bool) {... */\n    tag_43:\n        /* \"contracts/ERC721Proxy.sol\":2332:2336  bool */\n      0x00\n        /* \"contracts/ERC721Proxy.sol\":2349:2361  bool success */\n      dup1\n        /* \"contracts/ERC721Proxy.sol\":2363:2386  bytes memory dataReturn */\n      0x00\n        /* \"contracts/ERC721Proxy.sol\":2390:2399  _contract */\n      0x06\n      0x00\n      swap1\n      sload\n      swap1\n      0x0100\n      exp\n      swap1\n      div\n      0xffffffffffffffffffffffffffffffffffffffff\n      and\n        /* \"contracts/ERC721Proxy.sol\":2390:2412  _contract.delegatecall */\n      0xffffffffffffffffffffffffffffffffffffffff\n      and\n        /* \"contracts/ERC721Proxy.sol\":2479:2490  interfaceId */\n      dup5\n        /* \"contracts/ERC721Proxy.sol\":2426:2491  abi.encodeWithSignature(\"supportsInterface(bytes4)\", interfaceId) */\n      add(0x24, mload(0x40))\n      tag_155\n      swap2\n      swap1\n      tag_156\n      jump\t// in\n    tag_155:\n      mload(0x40)\n      0x20\n      dup2\n      dup4\n      sub\n      sub\n      dup2\n      mstore\n      swap1\n      0x40\n      mstore\n      and(not(0xffffffffffffffffffffffffffffffffffffffffffffffffffffffff), 0x01ffc9a700000000000000000000000000000000000000000000000000000000)\n      0x20\n      dup3\n      add\n      dup1\n      mload\n      0xffffffffffffffffffffffffffffffffffffffffffffffffffffffff\n      dup4\n      dup2\n      dup4\n      and\n      or\n      dup4\n      mstore\n      pop\n      pop\n      pop\n      pop\n        /* \"contracts/ERC721Proxy.sol\":2390:2501  _contract.delegatecall(... */\n      mload(0x40)\n      tag_157\n      swap2\n      swap1\n      tag_158\n      jump\t// in\n    tag_157:\n      0x00\n      mload(0x40)\n      dup1\n      dup4\n      sub\n      dup2\n      dup6\n      gas\n      delegatecall\n      swap2\n      pop\n      pop\n      returndatasize\n      dup1\n      0x00\n      dup2\n      eq\n      tag_161\n      jumpi\n      mload(0x40)\n      swap2\n      pop\n      and(add(returndatasize, 0x3f), not(0x1f))\n      dup3\n      add\n      0x40\n      mstore\n      returndatasize\n      dup3\n      mstore\n      returndatasize\n      0x00\n      0x20\n      dup5\n      add\n      returndatacopy\n      jump(tag_160)\n    tag_161:\n      0x60\n      swap2\n      pop\n    tag_160:\n      pop\n        /* \"contracts/ERC721Proxy.sol\":2348:2501  (bool success, bytes memory dataReturn) = _contract.delegatecall(... */\n      swap2\n      pop\n      swap2\n      pop\n        /* \"contracts/ERC721Proxy.sol\":2519:2526  success */\n      dup2\n        /* \"contracts/ERC721Proxy.sol\":2511:2527  require(success) */\n      tag_162\n      jumpi\n      0x00\n      dup1\n      revert\n    tag_162:\n        /* \"contracts/ERC721Proxy.sol\":2555:2565  dataReturn */\n      dup1\n        /* \"contracts/ERC721Proxy.sol\":2544:2574  abi.decode(dataReturn, (bool)) */\n      dup1\n      0x20\n      add\n      swap1\n      mload\n      dup2\n      add\n      swap1\n      tag_163\n      swap2\n      swap1\n      tag_164\n      jump\t// in\n    tag_163:\n        /* \"contracts/ERC721Proxy.sol\":2537:2574  return abi.decode(dataReturn, (bool)) */\n      swap3\n      pop\n      pop\n      pop\n        /* \"contracts/ERC721Proxy.sol\":2269:2581  function supportsInterface(bytes4 interfaceId) public returns (bool) {... */\n      swap2\n      swap1\n      pop\n      jump\t// out\n        /* \"contracts/ERC721Proxy.sol\":3238:3498  function name() public returns (string memory) {... */\n    tag_47:\n        /* \"contracts/ERC721Proxy.sol\":3270:3283  string memory */\n      0x60\n        /* \"contracts/ERC721Proxy.sol\":3296:3308  bool success */\n      0x00\n        /* \"contracts/ERC721Proxy.sol\":3310:3333  bytes memory dataReturn */\n      dup1\n        /* \"contracts/ERC721Proxy.sol\":3337:3346  _contract */\n      0x06\n      0x00\n      swap1\n      sload\n      swap1\n      0x0100\n      exp\n      swap1\n      div\n      0xffffffffffffffffffffffffffffffffffffffff\n      and\n        /* \"contracts/ERC721Proxy.sol\":3337:3359  _contract.delegatecall */\n      0xffffffffffffffffffffffffffffffffffffffff\n      and\n        /* \"contracts/ERC721Proxy.sol\":3373:3406  abi.encodeWithSignature(\"name()\") */\n      add(0x24, mload(0x40))\n      mload(0x40)\n      0x20\n      dup2\n      dup4\n      sub\n      sub\n      dup2\n      mstore\n      swap1\n      0x40\n      mstore\n      and(not(0xffffffffffffffffffffffffffffffffffffffffffffffffffffffff), 0x06fdde0300000000000000000000000000000000000000000000000000000000)\n      0x20\n      dup3\n      add\n      dup1\n      mload\n      0xffffffffffffffffffffffffffffffffffffffffffffffffffffffff\n      dup4\n      dup2\n      dup4\n      and\n      or\n      dup4\n      mstore\n      pop\n      pop\n      pop\n      pop\n        /* \"contracts/ERC721Proxy.sol\":3337:3416  _contract.delegatecall(... */\n      mload(0x40)\n      tag_166\n      swap2\n      swap1\n      tag_158\n      jump\t// in\n    tag_166:\n      0x00\n      mload(0x40)\n      dup1\n      dup4\n      sub\n      dup2\n      dup6\n      gas\n      delegatecall\n      swap2\n      pop\n      pop\n      returndatasize\n      dup1\n      0x00\n      dup2\n      eq\n      tag_169\n      jumpi\n      mload(0x40)\n      swap2\n      pop\n      and(add(returndatasize, 0x3f), not(0x1f))\n      dup3\n      add\n      0x40\n      mstore\n      returndatasize\n      dup3\n      mstore\n      returndatasize\n      0x00\n      0x20\n      dup5\n      add\n      returndatacopy\n      jump(tag_168)\n    tag_169:\n      0x60\n      swap2\n      pop\n    tag_168:\n      pop\n        /* \"contracts/ERC721Proxy.sol\":3295:3416  (bool success, bytes memory dataReturn) = _contract.delegatecall(... */\n      swap2\n      pop\n      swap2\n      pop\n        /* \"contracts/ERC721Proxy.sol\":3434:3441  success */\n      dup2\n        /* \"contracts/ERC721Proxy.sol\":3426:3442  require(success) */\n      tag_170\n      jumpi\n      0x00\n      dup1\n      revert\n    tag_170:\n        /* \"contracts/ERC721Proxy.sol\":3470:3480  dataReturn */\n      dup1\n        /* \"contracts/ERC721Proxy.sol\":3459:3491  abi.decode(dataReturn, (string)) */\n      dup1\n      0x20\n      add\n      swap1\n      mload\n      dup2\n      add\n      swap1\n      tag_171\n      swap2\n      swap1\n      tag_172\n      jump\t// in\n    tag_171:\n        /* \"contracts/ERC721Proxy.sol\":3452:3491  return abi.decode(dataReturn, (string)) */\n      swap3\n      pop\n      pop\n      pop\n        /* \"contracts/ERC721Proxy.sol\":3238:3498  function name() public returns (string memory) {... */\n      swap1\n      jump\t// out\n        /* \"contracts/ERC721Proxy.sol\":5042:5342  function getApproved(uint256 tokenId) public returns (address) {... */\n    tag_53:\n        /* \"contracts/ERC721Proxy.sol\":5096:5103  address */\n      0x00\n        /* \"contracts/ERC721Proxy.sol\":5116:5128  bool success */\n      dup1\n        /* \"contracts/ERC721Proxy.sol\":5130:5153  bytes memory dataReturn */\n      0x00\n        /* \"contracts/ERC721Proxy.sol\":5157:5166  _contract */\n      0x06\n      0x00\n      swap1\n      sload\n      swap1\n      0x0100\n      exp\n      swap1\n      div\n      0xffffffffffffffffffffffffffffffffffffffff\n      and\n        /* \"contracts/ERC721Proxy.sol\":5157:5179  _contract.delegatecall */\n      0xffffffffffffffffffffffffffffffffffffffff\n      and\n        /* \"contracts/ERC721Proxy.sol\":5241:5248  tokenId */\n      dup5\n        /* \"contracts/ERC721Proxy.sol\":5193:5249  abi.encodeWithSignature(\"getApproved(uint256)\", tokenId) */\n      add(0x24, mload(0x40))\n      tag_174\n      swap2\n      swap1\n      tag_102\n      jump\t// in\n    tag_174:\n      mload(0x40)\n      0x20\n      dup2\n      dup4\n      sub\n      sub\n      dup2\n      mstore\n      swap1\n      0x40\n      mstore\n      and(not(0xffffffffffffffffffffffffffffffffffffffffffffffffffffffff), 0x081812fc00000000000000000000000000000000000000000000000000000000)\n      0x20\n      dup3\n      add\n      dup1\n      mload\n      0xffffffffffffffffffffffffffffffffffffffffffffffffffffffff\n      dup4\n      dup2\n      dup4\n      and\n      or\n      dup4\n      mstore\n      pop\n      pop\n      pop\n      pop\n        /* \"contracts/ERC721Proxy.sol\":5157:5259  _contract.delegatecall(... */\n      mload(0x40)\n      tag_175\n      swap2\n      swap1\n      tag_158\n      jump\t// in\n    tag_175:\n      0x00\n      mload(0x40)\n      dup1\n      dup4\n      sub\n      dup2\n      dup6\n      gas\n      delegatecall\n      swap2\n      pop\n      pop\n      returndatasize\n      dup1\n      0x00\n      dup2\n      eq\n      tag_178\n      jumpi\n      mload(0x40)\n      swap2\n      pop\n      and(add(returndatasize, 0x3f), not(0x1f))\n      dup3\n      add\n      0x40\n      mstore\n      returndatasize\n      dup3\n      mstore\n      returndatasize\n      0x00\n      0x20\n      dup5\n      add\n      returndatacopy\n      jump(tag_177)\n    tag_178:\n      0x60\n      swap2\n      pop\n    tag_177:\n      pop\n        /* \"contracts/ERC721Proxy.sol\":5115:5259  (bool success, bytes memory dataReturn) = _contract.delegatecall(... */\n      swap2\n      pop\n      swap2\n      pop\n        /* \"contracts/ERC721Proxy.sol\":5277:5284  success */\n      dup2\n        /* \"contracts/ERC721Proxy.sol\":5269:5285  require(success) */\n      tag_179\n      jumpi\n      0x00\n      dup1\n      revert\n    tag_179:\n        /* \"contracts/ERC721Proxy.sol\":5313:5323  dataReturn */\n      dup1\n        /* \"contracts/ERC721Proxy.sol\":5302:5335  abi.decode(dataReturn, (address)) */\n      dup1\n      0x20\n      add\n      swap1\n      mload\n      dup2\n      add\n      swap1\n      tag_180\n      swap2\n      swap1\n      tag_181\n      jump\t// in\n    tag_180:\n        /* \"contracts/ERC721Proxy.sol\":5295:5335  return abi.decode(dataReturn, (address)) */\n      swap3\n      pop\n      pop\n      pop\n        /* \"contracts/ERC721Proxy.sol\":5042:5342  function getApproved(uint256 tokenId) public returns (address) {... */\n      swap2\n      swap1\n      pop\n      jump\t// out\n        /* \"contracts/ERC721Proxy.sol\":4758:4981  function approve(address to, uint256 tokenId) public {... */\n    tag_59:\n        /* \"contracts/ERC721Proxy.sol\":4822:4834  bool success */\n      0x00\n        /* \"contracts/ERC721Proxy.sol\":4836:4859  bytes memory dataReturn */\n      dup1\n        /* \"contracts/ERC721Proxy.sol\":4863:4872  _contract */\n      0x06\n      0x00\n      swap1\n      sload\n      swap1\n      0x0100\n      exp\n      swap1\n      div\n      0xffffffffffffffffffffffffffffffffffffffff\n      and\n        /* \"contracts/ERC721Proxy.sol\":4863:4885  _contract.delegatecall */\n      0xffffffffffffffffffffffffffffffffffffffff\n      and\n        /* \"contracts/ERC721Proxy.sol\":4952:4954  to */\n      dup5\n        /* \"contracts/ERC721Proxy.sol\":4956:4963  tokenId */\n      dup5\n        /* \"contracts/ERC721Proxy.sol\":4899:4964  abi.encodeWithSignature(\"approve(address, uint256)\", to, tokenId) */\n      add(0x24, mload(0x40))\n      tag_183\n      swap3\n      swap2\n      swap1\n      tag_184\n      jump\t// in\n    tag_183:\n      mload(0x40)\n      0x20\n      dup2\n      dup4\n      sub\n      sub\n      dup2\n      mstore\n      swap1\n      0x40\n      mstore\n      and(not(0xffffffffffffffffffffffffffffffffffffffffffffffffffffffff), 0x8b069f2a00000000000000000000000000000000000000000000000000000000)\n      0x20\n      dup3\n      add\n      dup1\n      mload\n      0xffffffffffffffffffffffffffffffffffffffffffffffffffffffff\n      dup4\n      dup2\n      dup4\n      and\n      or\n      dup4\n      mstore\n      pop\n      pop\n      pop\n      pop\n        /* \"contracts/ERC721Proxy.sol\":4863:4974  _contract.delegatecall(... */\n      mload(0x40)\n      tag_185\n      swap2\n      swap1\n      tag_158\n      jump\t// in\n    tag_185:\n      0x00\n      mload(0x40)\n      dup1\n      dup4\n      sub\n      dup2\n      dup6\n      gas\n      delegatecall\n      swap2\n      pop\n      pop\n      returndatasize\n      dup1\n      0x00\n      dup2\n      eq\n      tag_188\n      jumpi\n      mload(0x40)\n      swap2\n      pop\n      and(add(returndatasize, 0x3f), not(0x1f))\n      dup3\n      add\n      0x40\n      mstore\n      returndatasize\n      dup3\n      mstore\n      returndatasize\n      0x00\n      0x20\n      dup5\n      add\n      returndatacopy\n      jump(tag_187)\n    tag_188:\n      0x60\n      swap2\n      pop\n    tag_187:\n      pop\n        /* \"contracts/ERC721Proxy.sol\":4821:4974  (bool success, bytes memory dataReturn) = _contract.delegatecall(... */\n      swap2\n      pop\n      swap2\n      pop\n        /* \"contracts/ERC721Proxy.sol\":4811:4981  {... */\n      pop\n      pop\n        /* \"contracts/ERC721Proxy.sol\":4758:4981  function approve(address to, uint256 tokenId) public {... */\n      pop\n      pop\n      jump\t// out\n        /* \"contracts/ERC721Proxy.sol\":6125:6387  function transferFrom(address from, address to, uint256 tokenId) public {... */\n    tag_63:\n        /* \"contracts/ERC721Proxy.sol\":6208:6220  bool success */\n      0x00\n        /* \"contracts/ERC721Proxy.sol\":6222:6245  bytes memory dataReturn */\n      dup1\n        /* \"contracts/ERC721Proxy.sol\":6249:6258  _contract */\n      0x06\n      0x00\n      swap1\n      sload\n      swap1\n      0x0100\n      exp\n      swap1\n      div\n      0xffffffffffffffffffffffffffffffffffffffff\n      and\n        /* \"contracts/ERC721Proxy.sol\":6249:6271  _contract.delegatecall */\n      0xffffffffffffffffffffffffffffffffffffffff\n      and\n        /* \"contracts/ERC721Proxy.sol\":6352:6356  from */\n      dup6\n        /* \"contracts/ERC721Proxy.sol\":6358:6360  to */\n      dup6\n        /* \"contracts/ERC721Proxy.sol\":6362:6369  tokenId */\n      dup6\n        /* \"contracts/ERC721Proxy.sol\":6285:6370  abi.encodeWithSignature(\"transferFrom(address, address, uint256)\", from, to, tokenId) */\n      add(0x24, mload(0x40))\n      tag_190\n      swap4\n      swap3\n      swap2\n      swap1\n      tag_191\n      jump\t// in\n    tag_190:\n      mload(0x40)\n      0x20\n      dup2\n      dup4\n      sub\n      sub\n      dup2\n      mstore\n      swap1\n      0x40\n      mstore\n      and(not(0xffffffffffffffffffffffffffffffffffffffffffffffffffffffff), 0xb642fe5700000000000000000000000000000000000000000000000000000000)\n      0x20\n      dup3\n      add\n      dup1\n      mload\n      0xffffffffffffffffffffffffffffffffffffffffffffffffffffffff\n      dup4\n      dup2\n      dup4\n      and\n      or\n      dup4\n      mstore\n      pop\n      pop\n      pop\n      pop\n        /* \"contracts/ERC721Proxy.sol\":6249:6380  _contract.delegatecall(... */\n      mload(0x40)\n      tag_192\n      swap2\n      swap1\n      tag_158\n      jump\t// in\n    tag_192:\n      0x00\n      mload(0x40)\n      dup1\n      dup4\n      sub\n      dup2\n      dup6\n      gas\n      delegatecall\n      swap2\n      pop\n      pop\n      returndatasize\n      dup1\n      0x00\n      dup2\n      eq\n      tag_195\n      jumpi\n      mload(0x40)\n      swap2\n      pop\n      and(add(returndatasize, 0x3f), not(0x1f))\n      dup3\n      add\n      0x40\n      mstore\n      returndatasize\n      dup3\n      mstore\n      returndatasize\n      0x00\n      0x20\n      dup5\n      add\n      returndatacopy\n      jump(tag_194)\n    tag_195:\n      0x60\n      swap2\n      pop\n    tag_194:\n      pop\n        /* \"contracts/ERC721Proxy.sol\":6207:6380  (bool success, bytes memory dataReturn) = _contract.delegatecall(... */\n      swap2\n      pop\n      swap2\n      pop\n        /* \"contracts/ERC721Proxy.sol\":6197:6387  {... */\n      pop\n      pop\n        /* \"contracts/ERC721Proxy.sol\":6125:6387  function transferFrom(address from, address to, uint256 tokenId) public {... */\n      pop\n      pop\n      pop\n      jump\t// out\n        /* \"contracts/ERC721Proxy.sol\":7951:8247  function _safeTransfer(address from, address to, uint256 tokenId, bytes memory data) public {... */\n    tag_67:\n        /* \"contracts/ERC721Proxy.sol\":8054:8066  bool success */\n      0x00\n        /* \"contracts/ERC721Proxy.sol\":8068:8091  bytes memory dataReturn */\n      dup1\n        /* \"contracts/ERC721Proxy.sol\":8095:8104  _contract */\n      0x06\n      0x00\n      swap1\n      sload\n      swap1\n      0x0100\n      exp\n      swap1\n      div\n      0xffffffffffffffffffffffffffffffffffffffff\n      and\n        /* \"contracts/ERC721Proxy.sol\":8095:8117  _contract.delegatecall */\n      0xffffffffffffffffffffffffffffffffffffffff\n      and\n        /* \"contracts/ERC721Proxy.sol\":8206:8210  from */\n      dup7\n        /* \"contracts/ERC721Proxy.sol\":8212:8214  to */\n      dup7\n        /* \"contracts/ERC721Proxy.sol\":8216:8223  tokenId */\n      dup7\n        /* \"contracts/ERC721Proxy.sol\":8225:8229  data */\n      dup7\n        /* \"contracts/ERC721Proxy.sol\":8131:8230  abi.encodeWithSignature(\"_safeTransfer(address, address, uint256, bytes)\", from, to, tokenId, data) */\n      add(0x24, mload(0x40))\n      tag_197\n      swap5\n      swap4\n      swap3\n      swap2\n      swap1\n      tag_198\n      jump\t// in\n    tag_197:\n      mload(0x40)\n      0x20\n      dup2\n      dup4\n      sub\n      sub\n      dup2\n      mstore\n      swap1\n      0x40\n      mstore\n      and(not(0xffffffffffffffffffffffffffffffffffffffffffffffffffffffff), 0xb65f2f5300000000000000000000000000000000000000000000000000000000)\n      0x20\n      dup3\n      add\n      dup1\n      mload\n      0xffffffffffffffffffffffffffffffffffffffffffffffffffffffff\n      dup4\n      dup2\n      dup4\n      and\n      or\n      dup4\n      mstore\n      pop\n      pop\n      pop\n      pop\n        /* \"contracts/ERC721Proxy.sol\":8095:8240  _contract.delegatecall(... */\n      mload(0x40)\n      tag_199\n      swap2\n      swap1\n      tag_158\n      jump\t// in\n    tag_199:\n      0x00\n      mload(0x40)\n      dup1\n      dup4\n      sub\n      dup2\n      dup6\n      gas\n      delegatecall\n      swap2\n      pop\n      pop\n      returndatasize\n      dup1\n      0x00\n      dup2\n      eq\n      tag_202\n      jumpi\n      mload(0x40)\n      swap2\n      pop\n      and(add(returndatasize, 0x3f), not(0x1f))\n      dup3\n      add\n      0x40\n      mstore\n      returndatasize\n      dup3\n      mstore\n      returndatasize\n      0x00\n      0x20\n      dup5\n      add\n      returndatacopy\n      jump(tag_201)\n    tag_202:\n      0x60\n      swap2\n      pop\n    tag_201:\n      pop\n        /* \"contracts/ERC721Proxy.sol\":8053:8240  (bool success, bytes memory dataReturn) = _contract.delegatecall(... */\n      swap2\n      pop\n      swap2\n      pop\n        /* \"contracts/ERC721Proxy.sol\":8043:8247  {... */\n      pop\n      pop\n        /* \"contracts/ERC721Proxy.sol\":7951:8247  function _safeTransfer(address from, address to, uint256 tokenId, bytes memory data) public {... */\n      pop\n      pop\n      pop\n      pop\n      jump\t// out\n        /* \"contracts/ERC721Proxy.sol\":15173:15279  function _beforeTokenTransfer(address from, address to, uint256 firstTokenId, uint256 batchSize) public {} */\n    tag_71:\n      pop\n      pop\n      pop\n      pop\n      jump\t// out\n        /* \"contracts/ERC721Proxy.sol\":12155:12411  function _transfer(address from, address to, uint256 tokenId) public {... */\n    tag_74:\n        /* \"contracts/ERC721Proxy.sol\":12235:12247  bool success */\n      0x00\n        /* \"contracts/ERC721Proxy.sol\":12249:12272  bytes memory dataReturn */\n      dup1\n        /* \"contracts/ERC721Proxy.sol\":12276:12285  _contract */\n      0x06\n      0x00\n      swap1\n      sload\n      swap1\n      0x0100\n      exp\n      swap1\n      div\n      0xffffffffffffffffffffffffffffffffffffffff\n      and\n        /* \"contracts/ERC721Proxy.sol\":12276:12298  _contract.delegatecall */\n      0xffffffffffffffffffffffffffffffffffffffff\n      and\n        /* \"contracts/ERC721Proxy.sol\":12376:12380  from */\n      dup6\n        /* \"contracts/ERC721Proxy.sol\":12382:12384  to */\n      dup6\n        /* \"contracts/ERC721Proxy.sol\":12386:12393  tokenId */\n      dup6\n        /* \"contracts/ERC721Proxy.sol\":12312:12394  abi.encodeWithSignature(\"_transfer(address, address, uint256)\", from, to, tokenId) */\n      add(0x24, mload(0x40))\n      tag_205\n      swap4\n      swap3\n      swap2\n      swap1\n      tag_191\n      jump\t// in\n    tag_205:\n      mload(0x40)\n      0x20\n      dup2\n      dup4\n      sub\n      sub\n      dup2\n      mstore\n      swap1\n      0x40\n      mstore\n      and(not(0xffffffffffffffffffffffffffffffffffffffffffffffffffffffff), 0x5dbcfdbe00000000000000000000000000000000000000000000000000000000)\n      0x20\n      dup3\n      add\n      dup1\n      mload\n      0xffffffffffffffffffffffffffffffffffffffffffffffffffffffff\n      dup4\n      dup2\n      dup4\n      and\n      or\n      dup4\n      mstore\n      pop\n      pop\n      pop\n      pop\n        /* \"contracts/ERC721Proxy.sol\":12276:12404  _contract.delegatecall(... */\n      mload(0x40)\n      tag_206\n      swap2\n      swap1\n      tag_158\n      jump\t// in\n    tag_206:\n      0x00\n      mload(0x40)\n      dup1\n      dup4\n      sub\n      dup2\n      dup6\n      gas\n      delegatecall\n      swap2\n      pop\n      pop\n      returndatasize\n      dup1\n      0x00\n      dup2\n      eq\n      tag_209\n      jumpi\n      mload(0x40)\n      swap2\n      pop\n      and(add(returndatasize, 0x3f), not(0x1f))\n      dup3\n      add\n      0x40\n      mstore\n      returndatasize\n      dup3\n      mstore\n      returndatasize\n      0x00\n      0x20\n      dup5\n      add\n      returndatacopy\n      jump(tag_208)\n    tag_209:\n      0x60\n      swap2\n      pop\n    tag_208:\n      pop\n        /* \"contracts/ERC721Proxy.sol\":12234:12404  (bool success, bytes memory dataReturn) = _contract.delegatecall(... */\n      swap2\n      pop\n      swap2\n      pop\n        /* \"contracts/ERC721Proxy.sol\":12224:12411  {... */\n      pop\n      pop\n        /* \"contracts/ERC721Proxy.sol\":12155:12411  function _transfer(address from, address to, uint256 tokenId) public {... */\n      pop\n      pop\n      pop\n      jump\t// out\n        /* \"contracts/ERC721Proxy.sol\":8356:8650  function _ownerOf(uint256 tokenId) public returns (address) {... */\n    tag_77:\n        /* \"contracts/ERC721Proxy.sol\":8407:8414  address */\n      0x00\n        /* \"contracts/ERC721Proxy.sol\":8427:8439  bool success */\n      dup1\n        /* \"contracts/ERC721Proxy.sol\":8441:8464  bytes memory dataReturn */\n      0x00\n        /* \"contracts/ERC721Proxy.sol\":8468:8477  _contract */\n      0x06\n      0x00\n      swap1\n      sload\n      swap1\n      0x0100\n      exp\n      swap1\n      div\n      0xffffffffffffffffffffffffffffffffffffffff\n      and\n        /* \"contracts/ERC721Proxy.sol\":8468:8490  _contract.delegatecall */\n      0xffffffffffffffffffffffffffffffffffffffff\n      and\n        /* \"contracts/ERC721Proxy.sol\":8549:8556  tokenId */\n      dup5\n        /* \"contracts/ERC721Proxy.sol\":8504:8557  abi.encodeWithSignature(\"_ownerOf(uint256)\", tokenId) */\n      add(0x24, mload(0x40))\n      tag_211\n      swap2\n      swap1\n      tag_102\n      jump\t// in\n    tag_211:\n      mload(0x40)\n      0x20\n      dup2\n      dup4\n      sub\n      sub\n      dup2\n      mstore\n      swap1\n      0x40\n      mstore\n      and(not(0xffffffffffffffffffffffffffffffffffffffffffffffffffffffff), 0x3835054100000000000000000000000000000000000000000000000000000000)\n      0x20\n      dup3\n      add\n      dup1\n      mload\n      0xffffffffffffffffffffffffffffffffffffffffffffffffffffffff\n      dup4\n      dup2\n      dup4\n      and\n      or\n      dup4\n      mstore\n      pop\n      pop\n      pop\n      pop\n        /* \"contracts/ERC721Proxy.sol\":8468:8567  _contract.delegatecall(... */\n      mload(0x40)\n      tag_212\n      swap2\n      swap1\n      tag_158\n      jump\t// in\n    tag_212:\n      0x00\n      mload(0x40)\n      dup1\n      dup4\n      sub\n      dup2\n      dup6\n      gas\n      delegatecall\n      swap2\n      pop\n      pop\n      returndatasize\n      dup1\n      0x00\n      dup2\n      eq\n      tag_215\n      jumpi\n      mload(0x40)\n      swap2\n      pop\n      and(add(returndatasize, 0x3f), not(0x1f))\n      dup3\n      add\n      0x40\n      mstore\n      returndatasize\n      dup3\n      mstore\n      returndatasize\n      0x00\n      0x20\n      dup5\n      add\n      returndatacopy\n      jump(tag_214)\n    tag_215:\n      0x60\n      swap2\n      pop\n    tag_214:\n      pop\n        /* \"contracts/ERC721Proxy.sol\":8426:8567  (bool success, bytes memory dataReturn) = _contract.delegatecall(... */\n      swap2\n      pop\n      swap2\n      pop\n        /* \"contracts/ERC721Proxy.sol\":8585:8592  success */\n      dup2\n        /* \"contracts/ERC721Proxy.sol\":8577:8593  require(success) */\n      tag_216\n      jumpi\n      0x00\n      dup1\n      revert\n    tag_216:\n        /* \"contracts/ERC721Proxy.sol\":8621:8631  dataReturn */\n      dup1\n        /* \"contracts/ERC721Proxy.sol\":8610:8643  abi.decode(dataReturn, (address)) */\n      dup1\n      0x20\n      add\n      swap1\n      mload\n      dup2\n      add\n      swap1\n      tag_217\n      swap2\n      swap1\n      tag_181\n      jump\t// in\n    tag_217:\n        /* \"contracts/ERC721Proxy.sol\":8603:8643  return abi.decode(dataReturn, (address)) */\n      swap3\n      pop\n      pop\n      pop\n        /* \"contracts/ERC721Proxy.sol\":8356:8650  function _ownerOf(uint256 tokenId) public returns (address) {... */\n      swap2\n      swap1\n      pop\n      jump\t// out\n        /* \"contracts/ERC721Proxy.sol\":6453:6722  function safeTransferFrom(address from, address to, uint256 tokenId) public {... */\n    tag_81:\n        /* \"contracts/ERC721Proxy.sol\":6540:6552  bool success */\n      0x00\n        /* \"contracts/ERC721Proxy.sol\":6554:6577  bytes memory dataReturn */\n      dup1\n        /* \"contracts/ERC721Proxy.sol\":6581:6590  _contract */\n      0x06\n      0x00\n      swap1\n      sload\n      swap1\n      0x0100\n      exp\n      swap1\n      div\n      0xffffffffffffffffffffffffffffffffffffffff\n      and\n        /* \"contracts/ERC721Proxy.sol\":6581:6603  _contract.delegatecall */\n      0xffffffffffffffffffffffffffffffffffffffff\n      and\n        /* \"contracts/ERC721Proxy.sol\":6687:6691  from */\n      dup6\n        /* \"contracts/ERC721Proxy.sol\":6693:6695  to */\n      dup6\n        /* \"contracts/ERC721Proxy.sol\":6697:6704  tokenId */\n      dup6\n        /* \"contracts/ERC721Proxy.sol\":6617:6705  abi.encodeWithSignature(\"safeTransferFrom(address, address, uint256\", from, to, tokenId) */\n      add(0x24, mload(0x40))\n      tag_219\n      swap4\n      swap3\n      swap2\n      swap1\n      tag_191\n      jump\t// in\n    tag_219:\n      mload(0x40)\n      0x20\n      dup2\n      dup4\n      sub\n      sub\n      dup2\n      mstore\n      swap1\n      0x40\n      mstore\n      and(not(0xffffffffffffffffffffffffffffffffffffffffffffffffffffffff), 0x5e69309e00000000000000000000000000000000000000000000000000000000)\n      0x20\n      dup3\n      add\n      dup1\n      mload\n      0xffffffffffffffffffffffffffffffffffffffffffffffffffffffff\n      dup4\n      dup2\n      dup4\n      and\n      or\n      dup4\n      mstore\n      pop\n      pop\n      pop\n      pop\n        /* \"contracts/ERC721Proxy.sol\":6581:6715  _contract.delegatecall(... */\n      mload(0x40)\n      tag_220\n      swap2\n      swap1\n      tag_158\n      jump\t// in\n    tag_220:\n      0x00\n      mload(0x40)\n      dup1\n      dup4\n      sub\n      dup2\n      dup6\n      gas\n      delegatecall\n      swap2\n      pop\n      pop\n      returndatasize\n      dup1\n      0x00\n      dup2\n      eq\n      tag_223\n      jumpi\n      mload(0x40)\n      swap2\n      pop\n      and(add(returndatasize, 0x3f), not(0x1f))\n      dup3\n      add\n      0x40\n      mstore\n      returndatasize\n      dup3\n      mstore\n      returndatasize\n      0x00\n      0x20\n      dup5\n      add\n      returndatacopy\n      jump(tag_222)\n    tag_223:\n      0x60\n      swap2\n      pop\n    tag_222:\n      pop\n        /* \"contracts/ERC721Proxy.sol\":6539:6715  (bool success, bytes memory dataReturn) = _contract.delegatecall(... */\n      swap2\n      pop\n      swap2\n      pop\n        /* \"contracts/ERC721Proxy.sol\":6529:6722  {... */\n      pop\n      pop\n        /* \"contracts/ERC721Proxy.sol\":6453:6722  function safeTransferFrom(address from, address to, uint256 tokenId) public {... */\n      pop\n      pop\n      pop\n      jump\t// out\n        /* \"contracts/ERC721Proxy.sol\":9397:9740  function _isApprovedOrOwner(address spender, uint256 tokenId) public returns (bool) {... */\n    tag_84:\n        /* \"contracts/ERC721Proxy.sol\":9475:9479  bool */\n      0x00\n        /* \"contracts/ERC721Proxy.sol\":9492:9504  bool success */\n      dup1\n        /* \"contracts/ERC721Proxy.sol\":9506:9529  bytes memory dataReturn */\n      0x00\n        /* \"contracts/ERC721Proxy.sol\":9533:9542  _contract */\n      0x06\n      0x00\n      swap1\n      sload\n      swap1\n      0x0100\n      exp\n      swap1\n      div\n      0xffffffffffffffffffffffffffffffffffffffff\n      and\n        /* \"contracts/ERC721Proxy.sol\":9533:9555  _contract.delegatecall */\n      0xffffffffffffffffffffffffffffffffffffffff\n      and\n        /* \"contracts/ERC721Proxy.sol\":9633:9640  spender */\n      dup6\n        /* \"contracts/ERC721Proxy.sol\":9642:9649  tokenId */\n      dup6\n        /* \"contracts/ERC721Proxy.sol\":9569:9650  abi.encodeWithSignature(\"_isApprovedOrOwner(address, uint256)\", spender, tokenId) */\n      add(0x24, mload(0x40))\n      tag_225\n      swap3\n      swap2\n      swap1\n      tag_184\n      jump\t// in\n    tag_225:\n      mload(0x40)\n      0x20\n      dup2\n      dup4\n      sub\n      sub\n      dup2\n      mstore\n      swap1\n      0x40\n      mstore\n      and(not(0xffffffffffffffffffffffffffffffffffffffffffffffffffffffff), 0x0fecaa1500000000000000000000000000000000000000000000000000000000)\n      0x20\n      dup3\n      add\n      dup1\n      mload\n      0xffffffffffffffffffffffffffffffffffffffffffffffffffffffff\n      dup4\n      dup2\n      dup4\n      and\n      or\n      dup4\n      mstore\n      pop\n      pop\n      pop\n      pop\n        /* \"contracts/ERC721Proxy.sol\":9533:9660  _contract.delegatecall(... */\n      mload(0x40)\n      tag_226\n      swap2\n      swap1\n      tag_158\n      jump\t// in\n    tag_226:\n      0x00\n      mload(0x40)\n      dup1\n      dup4\n      sub\n      dup2\n      dup6\n      gas\n      delegatecall\n      swap2\n      pop\n      pop\n      returndatasize\n      dup1\n      0x00\n      dup2\n      eq\n      tag_229\n      jumpi\n      mload(0x40)\n      swap2\n      pop\n      and(add(returndatasize, 0x3f), not(0x1f))\n      dup3\n      add\n      0x40\n      mstore\n      returndatasize\n      dup3\n      mstore\n      returndatasize\n      0x00\n      0x20\n      dup5\n      add\n      returndatacopy\n      jump(tag_228)\n    tag_229:\n      0x60\n      swap2\n      pop\n    tag_228:\n      pop\n        /* \"contracts/ERC721Proxy.sol\":9491:9660  (bool success, bytes memory dataReturn) = _contract.delegatecall(... */\n      swap2\n      pop\n      swap2\n      pop\n        /* \"contracts/ERC721Proxy.sol\":9678:9685  success */\n      dup2\n        /* \"contracts/ERC721Proxy.sol\":9670:9686  require(success) */\n      tag_230\n      jumpi\n      0x00\n      dup1\n      revert\n    tag_230:\n        /* \"contracts/ERC721Proxy.sol\":9714:9724  dataReturn */\n      dup1\n        /* \"contracts/ERC721Proxy.sol\":9703:9733  abi.decode(dataReturn, (bool)) */\n      dup1\n      0x20\n      add\n      swap1\n      mload\n      dup2\n      add\n      swap1\n      tag_231\n      swap2\n      swap1\n      tag_164\n      jump\t// in\n    tag_231:\n        /* \"contracts/ERC721Proxy.sol\":9696:9733  return abi.decode(dataReturn, (bool)) */\n      swap3\n      pop\n      pop\n      pop\n        /* \"contracts/ERC721Proxy.sol\":9397:9740  function _isApprovedOrOwner(address spender, uint256 tokenId) public returns (bool) {... */\n      swap3\n      swap2\n      pop\n      pop\n      jump\t// out\n        /* \"contracts/ERC721Proxy.sol\":11094:11313  function _mint(address to, uint256 tokenId) public {... */\n    tag_88:\n        /* \"contracts/ERC721Proxy.sol\":11156:11168  bool success */\n      0x00\n        /* \"contracts/ERC721Proxy.sol\":11170:11193  bytes memory dataReturn */\n      dup1\n        /* \"contracts/ERC721Proxy.sol\":11197:11206  _contract */\n      0x06\n      0x00\n      swap1\n      sload\n      swap1\n      0x0100\n      exp\n      swap1\n      div\n      0xffffffffffffffffffffffffffffffffffffffff\n      and\n        /* \"contracts/ERC721Proxy.sol\":11197:11219  _contract.delegatecall */\n      0xffffffffffffffffffffffffffffffffffffffff\n      and\n        /* \"contracts/ERC721Proxy.sol\":11284:11286  to */\n      dup5\n        /* \"contracts/ERC721Proxy.sol\":11288:11295  tokenId */\n      dup5\n        /* \"contracts/ERC721Proxy.sol\":11233:11296  abi.encodeWithSignature(\"_mint(address, uint256)\", to, tokenId) */\n      add(0x24, mload(0x40))\n      tag_233\n      swap3\n      swap2\n      swap1\n      tag_184\n      jump\t// in\n    tag_233:\n      mload(0x40)\n      0x20\n      dup2\n      dup4\n      sub\n      sub\n      dup2\n      mstore\n      swap1\n      0x40\n      mstore\n      and(not(0xffffffffffffffffffffffffffffffffffffffffffffffffffffffff), 0x7dbf8efb00000000000000000000000000000000000000000000000000000000)\n      0x20\n      dup3\n      add\n      dup1\n      mload\n      0xffffffffffffffffffffffffffffffffffffffffffffffffffffffff\n      dup4\n      dup2\n      dup4\n      and\n      or\n      dup4\n      mstore\n      pop\n      pop\n      pop\n      pop\n        /* \"contracts/ERC721Proxy.sol\":11197:11306  _contract.delegatecall(... */\n      mload(0x40)\n      tag_234\n      swap2\n      swap1\n      tag_158\n      jump\t// in\n    tag_234:\n      0x00\n      mload(0x40)\n      dup1\n      dup4\n      sub\n      dup2\n      dup6\n      gas\n      delegatecall\n      swap2\n      pop\n      pop\n      returndatasize\n      dup1\n      0x00\n      dup2\n      eq\n      tag_237\n      jumpi\n      mload(0x40)\n      swap2\n      pop\n      and(add(returndatasize, 0x3f), not(0x1f))\n      dup3\n      add\n      0x40\n      mstore\n      returndatasize\n      dup3\n      mstore\n      returndatasize\n      0x00\n      0x20\n      dup5\n      add\n      returndatacopy\n      jump(tag_236)\n    tag_237:\n      0x60\n      swap2\n      pop\n    tag_236:\n      pop\n        /* \"contracts/ERC721Proxy.sol\":11155:11306  (bool success, bytes memory dataReturn) = _contract.delegatecall(... */\n      swap2\n      pop\n      swap2\n      pop\n        /* \"contracts/ERC721Proxy.sol\":11145:11313  {... */\n      pop\n      pop\n        /* \"contracts/ERC721Proxy.sol\":11094:11313  function _mint(address to, uint256 tokenId) public {... */\n      pop\n      pop\n      jump\t// out\n        /* \"contracts/ERC721Proxy.sol\":2884:3176  function ownerOf(uint256 tokenId) public returns (address) {... */\n    tag_91:\n        /* \"contracts/ERC721Proxy.sol\":2934:2941  address */\n      0x00\n        /* \"contracts/ERC721Proxy.sol\":2954:2966  bool success */\n      dup1\n        /* \"contracts/ERC721Proxy.sol\":2968:2991  bytes memory dataReturn */\n      0x00\n        /* \"contracts/ERC721Proxy.sol\":2995:3004  _contract */\n      0x06\n      0x00\n      swap1\n      sload\n      swap1\n      0x0100\n      exp\n      swap1\n      div\n      0xffffffffffffffffffffffffffffffffffffffff\n      and\n        /* \"contracts/ERC721Proxy.sol\":2995:3017  _contract.delegatecall */\n      0xffffffffffffffffffffffffffffffffffffffff\n      and\n        /* \"contracts/ERC721Proxy.sol\":3075:3082  tokenId */\n      dup5\n        /* \"contracts/ERC721Proxy.sol\":3031:3083  abi.encodeWithSignature(\"ownerOf(uint256)\", tokenId) */\n      add(0x24, mload(0x40))\n      tag_239\n      swap2\n      swap1\n      tag_102\n      jump\t// in\n    tag_239:\n      mload(0x40)\n      0x20\n      dup2\n      dup4\n      sub\n      sub\n      dup2\n      mstore\n      swap1\n      0x40\n      mstore\n      and(not(0xffffffffffffffffffffffffffffffffffffffffffffffffffffffff), 0x6352211e00000000000000000000000000000000000000000000000000000000)\n      0x20\n      dup3\n      add\n      dup1\n      mload\n      0xffffffffffffffffffffffffffffffffffffffffffffffffffffffff\n      dup4\n      dup2\n      dup4\n      and\n      or\n      dup4\n      mstore\n      pop\n      pop\n      pop\n      pop\n        /* \"contracts/ERC721Proxy.sol\":2995:3093  _contract.delegatecall(... */\n      mload(0x40)\n      tag_240\n      swap2\n      swap1\n      tag_158\n      jump\t// in\n    tag_240:\n      0x00\n      mload(0x40)\n      dup1\n      dup4\n      sub\n      dup2\n      dup6\n      gas\n      delegatecall\n      swap2\n      pop\n      pop\n      returndatasize\n      dup1\n      0x00\n      dup2\n      eq\n      tag_243\n      jumpi\n      mload(0x40)\n      swap2\n      pop\n      and(add(returndatasize, 0x3f), not(0x1f))\n      dup3\n      add\n      0x40\n      mstore\n      returndatasize\n      dup3\n      mstore\n      returndatasize\n      0x00\n      0x20\n      dup5\n      add\n      returndatacopy\n      jump(tag_242)\n    tag_243:\n      0x60\n      swap2\n      pop\n    tag_242:\n      pop\n        /* \"contracts/ERC721Proxy.sol\":2953:3093  (bool success, bytes memory dataReturn) = _contract.delegatecall(... */\n      swap2\n      pop\n      swap2\n      pop\n        /* \"contracts/ERC721Proxy.sol\":3111:3118  success */\n      dup2\n        /* \"contracts/ERC721Proxy.sol\":3103:3119  require(success) */\n      tag_244\n      jumpi\n      0x00\n      dup1\n      revert\n    tag_244:\n        /* \"contracts/ERC721Proxy.sol\":3147:3157  dataReturn */\n      dup1\n        /* \"contracts/ERC721Proxy.sol\":3136:3169  abi.decode(dataReturn, (address)) */\n      dup1\n      0x20\n      add\n      swap1\n      mload\n      dup2\n      add\n      swap1\n      tag_245\n      swap2\n      swap1\n      tag_181\n      jump\t// in\n    tag_245:\n        /* \"contracts/ERC721Proxy.sol\":3129:3169  return abi.decode(dataReturn, (address)) */\n      swap3\n      pop\n      pop\n      pop\n        /* \"contracts/ERC721Proxy.sol\":2884:3176  function ownerOf(uint256 tokenId) public returns (address) {... */\n      swap2\n      swap1\n      pop\n      jump\t// out\n        /* \"contracts/ERC721Proxy.sol\":10513:10772  function _safeMint(address to, uint256 tokenId, bytes memory data) public {... */\n    tag_96:\n        /* \"contracts/ERC721Proxy.sol\":10598:10610  bool success */\n      0x00\n        /* \"contracts/ERC721Proxy.sol\":10612:10635  bytes memory dataReturn */\n      dup1\n        /* \"contracts/ERC721Proxy.sol\":10639:10648  _contract */\n      0x06\n      0x00\n      swap1\n      sload\n      swap1\n      0x0100\n      exp\n      swap1\n      div\n      0xffffffffffffffffffffffffffffffffffffffff\n      and\n        /* \"contracts/ERC721Proxy.sol\":10639:10661  _contract.delegatecall */\n      0xffffffffffffffffffffffffffffffffffffffff\n      and\n        /* \"contracts/ERC721Proxy.sol\":10737:10739  to */\n      dup6\n        /* \"contracts/ERC721Proxy.sol\":10741:10748  tokenId */\n      dup6\n        /* \"contracts/ERC721Proxy.sol\":10750:10754  data */\n      dup6\n        /* \"contracts/ERC721Proxy.sol\":10675:10755  abi.encodeWithSignature(\"_safeMint(address, uint256, bytes)\", to, tokenId, data) */\n      add(0x24, mload(0x40))\n      tag_247\n      swap4\n      swap3\n      swap2\n      swap1\n      tag_248\n      jump\t// in\n    tag_247:\n      mload(0x40)\n      0x20\n      dup2\n      dup4\n      sub\n      sub\n      dup2\n      mstore\n      swap1\n      0x40\n      mstore\n      and(not(0xffffffffffffffffffffffffffffffffffffffffffffffffffffffff), 0x5fa2bef500000000000000000000000000000000000000000000000000000000)\n      0x20\n      dup3\n      add\n      dup1\n      mload\n      0xffffffffffffffffffffffffffffffffffffffffffffffffffffffff\n      dup4\n      dup2\n      dup4\n      and\n      or\n      dup4\n      mstore\n      pop\n      pop\n      pop\n      pop\n        /* \"contracts/ERC721Proxy.sol\":10639:10765  _contract.delegatecall(... */\n      mload(0x40)\n      tag_249\n      swap2\n      swap1\n      tag_158\n      jump\t// in\n    tag_249:\n      0x00\n      mload(0x40)\n      dup1\n      dup4\n      sub\n      dup2\n      dup6\n      gas\n      delegatecall\n      swap2\n      pop\n      pop\n      returndatasize\n      dup1\n      0x00\n      dup2\n      eq\n      tag_252\n      jumpi\n      mload(0x40)\n      swap2\n      pop\n      and(add(returndatasize, 0x3f), not(0x1f))\n      dup3\n      add\n      0x40\n      mstore\n      returndatasize\n      dup3\n      mstore\n      returndatasize\n      0x00\n      0x20\n      dup5\n      add\n      returndatacopy\n      jump(tag_251)\n    tag_252:\n      0x60\n      swap2\n      pop\n    tag_251:\n      pop\n        /* \"contracts/ERC721Proxy.sol\":10597:10765  (bool success, bytes memory dataReturn) = _contract.delegatecall(... */\n      swap2\n      pop\n      swap2\n      pop\n        /* \"contracts/ERC721Proxy.sol\":10587:10772  {... */\n      pop\n      pop\n        /* \"contracts/ERC721Proxy.sol\":10513:10772  function _safeMint(address to, uint256 tokenId, bytes memory data) public {... */\n      pop\n      pop\n      pop\n      jump\t// out\n        /* \"contracts/ERC721Proxy.sol\":2640:2827  function balanceOf(address owner) public view returns (uint256) {... */\n    tag_100:\n        /* \"contracts/ERC721Proxy.sol\":2695:2702  uint256 */\n      0x00\n        /* \"contracts/ERC721Proxy.sol\":2739:2740  0 */\n      dup1\n        /* \"contracts/ERC721Proxy.sol\":2722:2741  owner != address(0) */\n      0xffffffffffffffffffffffffffffffffffffffff\n      and\n        /* \"contracts/ERC721Proxy.sol\":2722:2727  owner */\n      dup3\n        /* \"contracts/ERC721Proxy.sol\":2722:2741  owner != address(0) */\n      0xffffffffffffffffffffffffffffffffffffffff\n      and\n      sub\n        /* \"contracts/ERC721Proxy.sol\":2714:2787  require(owner != address(0), \"ERC721: address zero is not a valid owner\") */\n      tag_254\n      jumpi\n      mload(0x40)\n      0x08c379a000000000000000000000000000000000000000000000000000000000\n      dup2\n      mstore\n      0x04\n      add\n      tag_255\n      swap1\n      tag_256\n      jump\t// in\n    tag_255:\n      mload(0x40)\n      dup1\n      swap2\n      sub\n      swap1\n      revert\n    tag_254:\n        /* \"contracts/ERC721Proxy.sol\":2804:2813  _balances */\n      0x03\n        /* \"contracts/ERC721Proxy.sol\":2804:2820  _balances[owner] */\n      0x00\n        /* \"contracts/ERC721Proxy.sol\":2814:2819  owner */\n      dup4\n        /* \"contracts/ERC721Proxy.sol\":2804:2820  _balances[owner] */\n      0xffffffffffffffffffffffffffffffffffffffff\n      and\n      0xffffffffffffffffffffffffffffffffffffffff\n      and\n      dup2\n      mstore\n      0x20\n      add\n      swap1\n      dup2\n      mstore\n      0x20\n      add\n      0x00\n      keccak256\n      sload\n        /* \"contracts/ERC721Proxy.sol\":2797:2820  return _balances[owner] */\n      swap1\n      pop\n        /* \"contracts/ERC721Proxy.sol\":2640:2827  function balanceOf(address owner) public view returns (uint256) {... */\n      swap2\n      swap1\n      pop\n      jump\t// out\n        /* \"contracts/ERC721Proxy.sol\":4433:4701  function _baseURI() public returns (string memory) {... */\n    tag_104:\n        /* \"contracts/ERC721Proxy.sol\":4469:4482  string memory */\n      0x60\n        /* \"contracts/ERC721Proxy.sol\":4495:4507  bool success */\n      0x00\n        /* \"contracts/ERC721Proxy.sol\":4509:4532  bytes memory dataReturn */\n      dup1\n        /* \"contracts/ERC721Proxy.sol\":4536:4545  _contract */\n      0x06\n      0x00\n      swap1\n      sload\n      swap1\n      0x0100\n      exp\n      swap1\n      div\n      0xffffffffffffffffffffffffffffffffffffffff\n      and\n        /* \"contracts/ERC721Proxy.sol\":4536:4558  _contract.delegatecall */\n      0xffffffffffffffffffffffffffffffffffffffff\n      and\n        /* \"contracts/ERC721Proxy.sol\":4572:4609  abi.encodeWithSignature(\"_baseURI()\") */\n      add(0x24, mload(0x40))\n      mload(0x40)\n      0x20\n      dup2\n      dup4\n      sub\n      sub\n      dup2\n      mstore\n      swap1\n      0x40\n      mstore\n      and(not(0xffffffffffffffffffffffffffffffffffffffffffffffffffffffff), 0x743976a000000000000000000000000000000000000000000000000000000000)\n      0x20\n      dup3\n      add\n      dup1\n      mload\n      0xffffffffffffffffffffffffffffffffffffffffffffffffffffffff\n      dup4\n      dup2\n      dup4\n      and\n      or\n      dup4\n      mstore\n      pop\n      pop\n      pop\n      pop\n        /* \"contracts/ERC721Proxy.sol\":4536:4619  _contract.delegatecall(... */\n      mload(0x40)\n      tag_258\n      swap2\n      swap1\n      tag_158\n      jump\t// in\n    tag_258:\n      0x00\n      mload(0x40)\n      dup1\n      dup4\n      sub\n      dup2\n      dup6\n      gas\n      delegatecall\n      swap2\n      pop\n      pop\n      returndatasize\n      dup1\n      0x00\n      dup2\n      eq\n      tag_261\n      jumpi\n      mload(0x40)\n      swap2\n      pop\n      and(add(returndatasize, 0x3f), not(0x1f))\n      dup3\n      add\n      0x40\n      mstore\n      returndatasize\n      dup3\n      mstore\n      returndatasize\n      0x00\n      0x20\n      dup5\n      add\n      returndatacopy\n      jump(tag_260)\n    tag_261:\n      0x60\n      swap2\n      pop\n    tag_260:\n      pop\n        /* \"contracts/ERC721Proxy.sol\":4494:4619  (bool success, bytes memory dataReturn) = _contract.delegatecall(... */\n      swap2\n      pop\n      swap2\n      pop\n        /* \"contracts/ERC721Proxy.sol\":4637:4644  success */\n      dup2\n        /* \"contracts/ERC721Proxy.sol\":4629:4645  require(success) */\n      tag_262\n      jumpi\n      0x00\n      dup1\n      revert\n    tag_262:\n        /* \"contracts/ERC721Proxy.sol\":4673:4683  dataReturn */\n      dup1\n        /* \"contracts/ERC721Proxy.sol\":4662:4694  abi.decode(dataReturn, (string)) */\n      dup1\n      0x20\n      add\n      swap1\n      mload\n      dup2\n      add\n      swap1\n      tag_263\n      swap2\n      swap1\n      tag_172\n      jump\t// in\n    tag_263:\n        /* \"contracts/ERC721Proxy.sol\":4655:4694  return abi.decode(dataReturn, (string)) */\n      swap3\n      pop\n      pop\n      pop\n        /* \"contracts/ERC721Proxy.sol\":4433:4701  function _baseURI() public returns (string memory) {... */\n      swap1\n      jump\t// out\n        /* \"contracts/ERC721Proxy.sol\":12523:12748  function _approve(address to, uint256 tokenId) public {... */\n    tag_108:\n        /* \"contracts/ERC721Proxy.sol\":12588:12600  bool success */\n      0x00\n        /* \"contracts/ERC721Proxy.sol\":12602:12625  bytes memory dataReturn */\n      dup1\n        /* \"contracts/ERC721Proxy.sol\":12629:12638  _contract */\n      0x06\n      0x00\n      swap1\n      sload\n      swap1\n      0x0100\n      exp\n      swap1\n      div\n      0xffffffffffffffffffffffffffffffffffffffff\n      and\n        /* \"contracts/ERC721Proxy.sol\":12629:12651  _contract.delegatecall */\n      0xffffffffffffffffffffffffffffffffffffffff\n      and\n        /* \"contracts/ERC721Proxy.sol\":12719:12721  to */\n      dup5\n        /* \"contracts/ERC721Proxy.sol\":12723:12730  tokenId */\n      dup5\n        /* \"contracts/ERC721Proxy.sol\":12665:12731  abi.encodeWithSignature(\"_approve(address, uint256)\", to, tokenId) */\n      add(0x24, mload(0x40))\n      tag_265\n      swap3\n      swap2\n      swap1\n      tag_184\n      jump\t// in\n    tag_265:\n      mload(0x40)\n      0x20\n      dup2\n      dup4\n      sub\n      sub\n      dup2\n      mstore\n      swap1\n      0x40\n      mstore\n      and(not(0xffffffffffffffffffffffffffffffffffffffffffffffffffffffff), 0x74fb7ab400000000000000000000000000000000000000000000000000000000)\n      0x20\n      dup3\n      add\n      dup1\n      mload\n      0xffffffffffffffffffffffffffffffffffffffffffffffffffffffff\n      dup4\n      dup2\n      dup4\n      and\n      or\n      dup4\n      mstore\n      pop\n      pop\n      pop\n      pop\n        /* \"contracts/ERC721Proxy.sol\":12629:12741  _contract.delegatecall(... */\n      mload(0x40)\n      tag_266\n      swap2\n      swap1\n      tag_158\n      jump\t// in\n    tag_266:\n      0x00\n      mload(0x40)\n      dup1\n      dup4\n      sub\n      dup2\n      dup6\n      gas\n      delegatecall\n      swap2\n      pop\n      pop\n      returndatasize\n      dup1\n      0x00\n      dup2\n      eq\n      tag_269\n      jumpi\n      mload(0x40)\n      swap2\n      pop\n      and(add(returndatasize, 0x3f), not(0x1f))\n      dup3\n      add\n      0x40\n      mstore\n      returndatasize\n      dup3\n      mstore\n      returndatasize\n      0x00\n      0x20\n      dup5\n      add\n      returndatacopy\n      jump(tag_268)\n    tag_269:\n      0x60\n      swap2\n      pop\n    tag_268:\n      pop\n        /* \"contracts/ERC721Proxy.sol\":12587:12741  (bool success, bytes memory dataReturn) = _contract.delegatecall(... */\n      swap2\n      pop\n      swap2\n      pop\n        /* \"contracts/ERC721Proxy.sol\":12577:12748  {... */\n      pop\n      pop\n        /* \"contracts/ERC721Proxy.sol\":12523:12748  function _approve(address to, uint256 tokenId) public {... */\n      pop\n      pop\n      jump\t// out\n        /* \"contracts/ERC721Proxy.sol\":12884:13168  function _setApprovalForAll(address owner, address operator, bool approved) public {... */\n    tag_112:\n        /* \"contracts/ERC721Proxy.sol\":12978:12990  bool success */\n      0x00\n        /* \"contracts/ERC721Proxy.sol\":12992:13015  bytes memory dataReturn */\n      dup1\n        /* \"contracts/ERC721Proxy.sol\":13019:13028  _contract */\n      0x06\n      0x00\n      swap1\n      sload\n      swap1\n      0x0100\n      exp\n      swap1\n      div\n      0xffffffffffffffffffffffffffffffffffffffff\n      and\n        /* \"contracts/ERC721Proxy.sol\":13019:13041  _contract.delegatecall */\n      0xffffffffffffffffffffffffffffffffffffffff\n      and\n        /* \"contracts/ERC721Proxy.sol\":13125:13130  owner */\n      dup6\n        /* \"contracts/ERC721Proxy.sol\":13132:13140  operator */\n      dup6\n        /* \"contracts/ERC721Proxy.sol\":13142:13150  approved */\n      dup6\n        /* \"contracts/ERC721Proxy.sol\":13055:13151  abi.encodeWithSignature(\"_setApprovalForAll(address, address, bool)\", owner, operator, approved) */\n      add(0x24, mload(0x40))\n      tag_271\n      swap4\n      swap3\n      swap2\n      swap1\n      tag_272\n      jump\t// in\n    tag_271:\n      mload(0x40)\n      0x20\n      dup2\n      dup4\n      sub\n      sub\n      dup2\n      mstore\n      swap1\n      0x40\n      mstore\n      and(not(0xffffffffffffffffffffffffffffffffffffffffffffffffffffffff), 0x5800821300000000000000000000000000000000000000000000000000000000)\n      0x20\n      dup3\n      add\n      dup1\n      mload\n      0xffffffffffffffffffffffffffffffffffffffffffffffffffffffff\n      dup4\n      dup2\n      dup4\n      and\n      or\n      dup4\n      mstore\n      pop\n      pop\n      pop\n      pop\n        /* \"contracts/ERC721Proxy.sol\":13019:13161  _contract.delegatecall(... */\n      mload(0x40)\n      tag_273\n      swap2\n      swap1\n      tag_158\n      jump\t// in\n    tag_273:\n      0x00\n      mload(0x40)\n      dup1\n      dup4\n      sub\n      dup2\n      dup6\n      gas\n      delegatecall\n      swap2\n      pop\n      pop\n      returndatasize\n      dup1\n      0x00\n      dup2\n      eq\n      tag_276\n      jumpi\n      mload(0x40)\n      swap2\n      pop\n      and(add(returndatasize, 0x3f), not(0x1f))\n      dup3\n      add\n      0x40\n      mstore\n      returndatasize\n      dup3\n      mstore\n      returndatasize\n      0x00\n      0x20\n      dup5\n      add\n      returndatacopy\n      jump(tag_275)\n    tag_276:\n      0x60\n      swap2\n      pop\n    tag_275:\n      pop\n        /* \"contracts/ERC721Proxy.sol\":12977:13161  (bool success, bytes memory dataReturn) = _contract.delegatecall(... */\n      swap2\n      pop\n      swap2\n      pop\n        /* \"contracts/ERC721Proxy.sol\":12967:13168  {... */\n      pop\n      pop\n        /* \"contracts/ERC721Proxy.sol\":12884:13168  function _setApprovalForAll(address owner, address operator, bool approved) public {... */\n      pop\n      pop\n      pop\n      jump\t// out\n        /* \"contracts/ERC721Proxy.sol\":3562:3826  function symbol() public returns (string memory) {... */\n    tag_114:\n        /* \"contracts/ERC721Proxy.sol\":3596:3609  string memory */\n      0x60\n        /* \"contracts/ERC721Proxy.sol\":3622:3634  bool success */\n      0x00\n        /* \"contracts/ERC721Proxy.sol\":3636:3659  bytes memory dataReturn */\n      dup1\n        /* \"contracts/ERC721Proxy.sol\":3663:3672  _contract */\n      0x06\n      0x00\n      swap1\n      sload\n      swap1\n      0x0100\n      exp\n      swap1\n      div\n      0xffffffffffffffffffffffffffffffffffffffff\n      and\n        /* \"contracts/ERC721Proxy.sol\":3663:3685  _contract.delegatecall */\n      0xffffffffffffffffffffffffffffffffffffffff\n      and\n        /* \"contracts/ERC721Proxy.sol\":3699:3734  abi.encodeWithSignature(\"symbol()\") */\n      add(0x24, mload(0x40))\n      mload(0x40)\n      0x20\n      dup2\n      dup4\n      sub\n      sub\n      dup2\n      mstore\n      swap1\n      0x40\n      mstore\n      and(not(0xffffffffffffffffffffffffffffffffffffffffffffffffffffffff), 0x95d89b4100000000000000000000000000000000000000000000000000000000)\n      0x20\n      dup3\n      add\n      dup1\n      mload\n      0xffffffffffffffffffffffffffffffffffffffffffffffffffffffff\n      dup4\n      dup2\n      dup4\n      and\n      or\n      dup4\n      mstore\n      pop\n      pop\n      pop\n      pop\n        /* \"contracts/ERC721Proxy.sol\":3663:3744  _contract.delegatecall(... */\n      mload(0x40)\n      tag_278\n      swap2\n      swap1\n      tag_158\n      jump\t// in\n    tag_278:\n      0x00\n      mload(0x40)\n      dup1\n      dup4\n      sub\n      dup2\n      dup6\n      gas\n      delegatecall\n      swap2\n      pop\n      pop\n      returndatasize\n      dup1\n      0x00\n      dup2\n      eq\n      tag_281\n      jumpi\n      mload(0x40)\n      swap2\n      pop\n      and(add(returndatasize, 0x3f), not(0x1f))\n      dup3\n      add\n      0x40\n      mstore\n      returndatasize\n      dup3\n      mstore\n      returndatasize\n      0x00\n      0x20\n      dup5\n      add\n      returndatacopy\n      jump(tag_280)\n    tag_281:\n      0x60\n      swap2\n      pop\n    tag_280:\n      pop\n        /* \"contracts/ERC721Proxy.sol\":3621:3744  (bool success, bytes memory dataReturn) = _contract.delegatecall(... */\n      swap2\n      pop\n      swap2\n      pop\n        /* \"contracts/ERC721Proxy.sol\":3762:3769  success */\n      dup2\n        /* \"contracts/ERC721Proxy.sol\":3754:3770  require(success) */\n      tag_282\n      jumpi\n      0x00\n      dup1\n      revert\n    tag_282:\n        /* \"contracts/ERC721Proxy.sol\":3798:3808  dataReturn */\n      dup1\n        /* \"contracts/ERC721Proxy.sol\":3787:3819  abi.decode(dataReturn, (string)) */\n      dup1\n      0x20\n      add\n      swap1\n      mload\n      dup2\n      add\n      swap1\n      tag_283\n      swap2\n      swap1\n      tag_172\n      jump\t// in\n    tag_283:\n        /* \"contracts/ERC721Proxy.sol\":3780:3819  return abi.decode(dataReturn, (string)) */\n      swap3\n      pop\n      pop\n      pop\n        /* \"contracts/ERC721Proxy.sol\":3562:3826  function symbol() public returns (string memory) {... */\n      swap1\n      jump\t// out\n        /* \"contracts/ERC721Proxy.sol\":15985:16091  function _afterTokenTransfer(address from, address to, uint256 firstTokenId, uint256 batchSize) public  {} */\n    tag_118:\n      pop\n      pop\n      pop\n      pop\n      jump\t// out\n        /* \"contracts/ERC721Proxy.sol\":2101:2202  function setERC721Address (address _ERC721Address) public {... */\n    tag_121:\n        /* \"contracts/ERC721Proxy.sol\":2181:2195  _ERC721Address */\n      dup1\n        /* \"contracts/ERC721Proxy.sol\":2169:2178  _contract */\n      0x06\n      0x00\n        /* \"contracts/ERC721Proxy.sol\":2169:2195  _contract = _ERC721Address */\n      0x0100\n      exp\n      dup2\n      sload\n      dup2\n      0xffffffffffffffffffffffffffffffffffffffff\n      mul\n      not\n      and\n      swap1\n      dup4\n      0xffffffffffffffffffffffffffffffffffffffff\n      and\n      mul\n      or\n      swap1\n      sstore\n      pop\n        /* \"contracts/ERC721Proxy.sol\":2101:2202  function setERC721Address (address _ERC721Address) public {... */\n      pop\n      jump\t// out\n        /* \"contracts/ERC721Proxy.sol\":11637:11831  function _burn(uint256 tokenId) public {... */\n    tag_124:\n        /* \"contracts/ERC721Proxy.sol\":11687:11699  bool success */\n      0x00\n        /* \"contracts/ERC721Proxy.sol\":11701:11724  bytes memory dataReturn */\n      dup1\n        /* \"contracts/ERC721Proxy.sol\":11728:11737  _contract */\n      0x06\n      0x00\n      swap1\n      sload\n      swap1\n      0x0100\n      exp\n      swap1\n      div\n      0xffffffffffffffffffffffffffffffffffffffff\n      and\n        /* \"contracts/ERC721Proxy.sol\":11728:11750  _contract.delegatecall */\n      0xffffffffffffffffffffffffffffffffffffffff\n      and\n        /* \"contracts/ERC721Proxy.sol\":11806:11813  tokenId */\n      dup4\n        /* \"contracts/ERC721Proxy.sol\":11764:11814  abi.encodeWithSignature(\"_burn(uint256)\", tokenId) */\n      add(0x24, mload(0x40))\n      tag_287\n      swap2\n      swap1\n      tag_102\n      jump\t// in\n    tag_287:\n      mload(0x40)\n      0x20\n      dup2\n      dup4\n      sub\n      sub\n      dup2\n      mstore\n      swap1\n      0x40\n      mstore\n      and(not(0xffffffffffffffffffffffffffffffffffffffffffffffffffffffff), 0x9b1f9e7400000000000000000000000000000000000000000000000000000000)\n      0x20\n      dup3\n      add\n      dup1\n      mload\n      0xffffffffffffffffffffffffffffffffffffffffffffffffffffffff\n      dup4\n      dup2\n      dup4\n      and\n      or\n      dup4\n      mstore\n      pop\n      pop\n      pop\n      pop\n        /* \"contracts/ERC721Proxy.sol\":11728:11824  _contract.delegatecall(... */\n      mload(0x40)\n      tag_288\n      swap2\n      swap1\n      tag_158\n      jump\t// in\n    tag_288:\n      0x00\n      mload(0x40)\n      dup1\n      dup4\n      sub\n      dup2\n      dup6\n      gas\n      delegatecall\n      swap2\n      pop\n      pop\n      returndatasize\n      dup1\n      0x00\n      dup2\n      eq\n      tag_291\n      jumpi\n      mload(0x40)\n      swap2\n      pop\n      and(add(returndatasize, 0x3f), not(0x1f))\n      dup3\n      add\n      0x40\n      mstore\n      returndatasize\n      dup3\n      mstore\n      returndatasize\n      0x00\n      0x20\n      dup5\n      add\n      returndatacopy\n      jump(tag_290)\n    tag_291:\n      0x60\n      swap2\n      pop\n    tag_290:\n      pop\n        /* \"contracts/ERC721Proxy.sol\":11686:11824  (bool success, bytes memory dataReturn) = _contract.delegatecall(... */\n      swap2\n      pop\n      swap2\n      pop\n        /* \"contracts/ERC721Proxy.sol\":11676:11831  {... */\n      pop\n      pop\n        /* \"contracts/ERC721Proxy.sol\":11637:11831  function _burn(uint256 tokenId) public {... */\n      pop\n      jump\t// out\n        /* \"contracts/ERC721Proxy.sol\":13252:13464  function _requireMinted(uint256 tokenId) public {... */\n    tag_127:\n        /* \"contracts/ERC721Proxy.sol\":13311:13323  bool success */\n      0x00\n        /* \"contracts/ERC721Proxy.sol\":13325:13348  bytes memory dataReturn */\n      dup1\n        /* \"contracts/ERC721Proxy.sol\":13352:13361  _contract */\n      0x06\n      0x00\n      swap1\n      sload\n      swap1\n      0x0100\n      exp\n      swap1\n      div\n      0xffffffffffffffffffffffffffffffffffffffff\n      and\n        /* \"contracts/ERC721Proxy.sol\":13352:13374  _contract.delegatecall */\n      0xffffffffffffffffffffffffffffffffffffffff\n      and\n        /* \"contracts/ERC721Proxy.sol\":13439:13446  tokenId */\n      dup4\n        /* \"contracts/ERC721Proxy.sol\":13388:13447  abi.encodeWithSignature(\"_requireMinted(uint256)\", tokenId) */\n      add(0x24, mload(0x40))\n      tag_293\n      swap2\n      swap1\n      tag_102\n      jump\t// in\n    tag_293:\n      mload(0x40)\n      0x20\n      dup2\n      dup4\n      sub\n      sub\n      dup2\n      mstore\n      swap1\n      0x40\n      mstore\n      and(not(0xffffffffffffffffffffffffffffffffffffffffffffffffffffffff), 0xa0aea85d00000000000000000000000000000000000000000000000000000000)\n      0x20\n      dup3\n      add\n      dup1\n      mload\n      0xffffffffffffffffffffffffffffffffffffffffffffffffffffffff\n      dup4\n      dup2\n      dup4\n      and\n      or\n      dup4\n      mstore\n      pop\n      pop\n      pop\n      pop\n        /* \"contracts/ERC721Proxy.sol\":13352:13457  _contract.delegatecall(... */\n      mload(0x40)\n      tag_294\n      swap2\n      swap1\n      tag_158\n      jump\t// in\n    tag_294:\n      0x00\n      mload(0x40)\n      dup1\n      dup4\n      sub\n      dup2\n      dup6\n      gas\n      delegatecall\n      swap2\n      pop\n      pop\n      returndatasize\n      dup1\n      0x00\n      dup2\n      eq\n      tag_297\n      jumpi\n      mload(0x40)\n      swap2\n      pop\n      and(add(returndatasize, 0x3f), not(0x1f))\n      dup3\n      add\n      0x40\n      mstore\n      returndatasize\n      dup3\n      mstore\n      returndatasize\n      0x00\n      0x20\n      dup5\n      add\n      returndatacopy\n      jump(tag_296)\n    tag_297:\n      0x60\n      swap2\n      pop\n    tag_296:\n      pop\n        /* \"contracts/ERC721Proxy.sol\":13310:13457  (bool success, bytes memory dataReturn) = _contract.delegatecall(... */\n      swap2\n      pop\n      swap2\n      pop\n        /* \"contracts/ERC721Proxy.sol\":13300:13464  {... */\n      pop\n      pop\n        /* \"contracts/ERC721Proxy.sol\":13252:13464  function _requireMinted(uint256 tokenId) public {... */\n      pop\n      jump\t// out\n        /* \"contracts/ERC721Proxy.sol\":5409:5660  function setApprovalForAll(address operator, bool approved) public {... */\n    tag_131:\n        /* \"contracts/ERC721Proxy.sol\":5487:5499  bool success */\n      0x00\n        /* \"contracts/ERC721Proxy.sol\":5501:5524  bytes memory dataReturn */\n      dup1\n        /* \"contracts/ERC721Proxy.sol\":5528:5537  _contract */\n      0x06\n      0x00\n      swap1\n      sload\n      swap1\n      0x0100\n      exp\n      swap1\n      div\n      0xffffffffffffffffffffffffffffffffffffffff\n      and\n        /* \"contracts/ERC721Proxy.sol\":5528:5550  _contract.delegatecall */\n      0xffffffffffffffffffffffffffffffffffffffff\n      and\n        /* \"contracts/ERC721Proxy.sol\":5624:5632  operator */\n      dup5\n        /* \"contracts/ERC721Proxy.sol\":5634:5642  approved */\n      dup5\n        /* \"contracts/ERC721Proxy.sol\":5564:5643  abi.encodeWithSignature(\"setApprovalForAll(address, bool)\", operator, approved) */\n      add(0x24, mload(0x40))\n      tag_299\n      swap3\n      swap2\n      swap1\n      tag_300\n      jump\t// in\n    tag_299:\n      mload(0x40)\n      0x20\n      dup2\n      dup4\n      sub\n      sub\n      dup2\n      mstore\n      swap1\n      0x40\n      mstore\n      and(not(0xffffffffffffffffffffffffffffffffffffffffffffffffffffffff), 0x989579aa00000000000000000000000000000000000000000000000000000000)\n      0x20\n      dup3\n      add\n      dup1\n      mload\n      0xffffffffffffffffffffffffffffffffffffffffffffffffffffffff\n      dup4\n      dup2\n      dup4\n      and\n      or\n      dup4\n      mstore\n      pop\n      pop\n      pop\n      pop\n        /* \"contracts/ERC721Proxy.sol\":5528:5653  _contract.delegatecall(... */\n      mload(0x40)\n      tag_301\n      swap2\n      swap1\n      tag_158\n      jump\t// in\n    tag_301:\n      0x00\n      mload(0x40)\n      dup1\n      dup4\n      sub\n      dup2\n      dup6\n      gas\n      delegatecall\n      swap2\n      pop\n      pop\n      returndatasize\n      dup1\n      0x00\n      dup2\n      eq\n      tag_304\n      jumpi\n      mload(0x40)\n      swap2\n      pop\n      and(add(returndatasize, 0x3f), not(0x1f))\n      dup3\n      add\n      0x40\n      mstore\n      returndatasize\n      dup3\n      mstore\n      returndatasize\n      0x00\n      0x20\n      dup5\n      add\n      returndatacopy\n      jump(tag_303)\n    tag_304:\n      0x60\n      swap2\n      pop\n    tag_303:\n      pop\n        /* \"contracts/ERC721Proxy.sol\":5486:5653  (bool success, bytes memory dataReturn) = _contract.delegatecall(... */\n      swap2\n      pop\n      swap2\n      pop\n        /* \"contracts/ERC721Proxy.sol\":5476:5660  {... */\n      pop\n      pop\n        /* \"contracts/ERC721Proxy.sol\":5409:5660  function setApprovalForAll(address operator, bool approved) public {... */\n      pop\n      pop\n      jump\t// out\n        /* \"contracts/ERC721Proxy.sol\":10070:10292  function _safeMint(address to, uint256 tokenId) public {... */\n    tag_134:\n        /* \"contracts/ERC721Proxy.sol\":10136:10148  bool success */\n      0x00\n        /* \"contracts/ERC721Proxy.sol\":10150:10173  bytes memory dataReturn */\n      dup1\n        /* \"contracts/ERC721Proxy.sol\":10177:10186  _contract */\n      0x06\n      0x00\n      swap1\n      sload\n      swap1\n      0x0100\n      exp\n      swap1\n      div\n      0xffffffffffffffffffffffffffffffffffffffff\n      and\n        /* \"contracts/ERC721Proxy.sol\":10177:10199  _contract.delegatecall */\n      0xffffffffffffffffffffffffffffffffffffffff\n      and\n        /* \"contracts/ERC721Proxy.sol\":10267:10274  tokenId */\n      dup4\n        /* \"contracts/ERC721Proxy.sol\":10213:10275  abi.encodeWithSignature(\"_safeMint(address, uint256\", tokenId) */\n      add(0x24, mload(0x40))\n      tag_306\n      swap2\n      swap1\n      tag_102\n      jump\t// in\n    tag_306:\n      mload(0x40)\n      0x20\n      dup2\n      dup4\n      sub\n      sub\n      dup2\n      mstore\n      swap1\n      0x40\n      mstore\n      and(not(0xffffffffffffffffffffffffffffffffffffffffffffffffffffffff), 0x785404b800000000000000000000000000000000000000000000000000000000)\n      0x20\n      dup3\n      add\n      dup1\n      mload\n      0xffffffffffffffffffffffffffffffffffffffffffffffffffffffff\n      dup4\n      dup2\n      dup4\n      and\n      or\n      dup4\n      mstore\n      pop\n      pop\n      pop\n      pop\n        /* \"contracts/ERC721Proxy.sol\":10177:10285  _contract.delegatecall(... */\n      mload(0x40)\n      tag_307\n      swap2\n      swap1\n      tag_158\n      jump\t// in\n    tag_307:\n      0x00\n      mload(0x40)\n      dup1\n      dup4\n      sub\n      dup2\n      dup6\n      gas\n      delegatecall\n      swap2\n      pop\n      pop\n      returndatasize\n      dup1\n      0x00\n      dup2\n      eq\n      tag_310\n      jumpi\n      mload(0x40)\n      swap2\n      pop\n      and(add(returndatasize, 0x3f), not(0x1f))\n      dup3\n      add\n      0x40\n      mstore\n      returndatasize\n      dup3\n      mstore\n      returndatasize\n      0x00\n      0x20\n      dup5\n      add\n      returndatacopy\n      jump(tag_309)\n    tag_310:\n      0x60\n      swap2\n      pop\n    tag_309:\n      pop\n        /* \"contracts/ERC721Proxy.sol\":10135:10285  (bool success, bytes memory dataReturn) = _contract.delegatecall(... */\n      swap2\n      pop\n      swap2\n      pop\n        /* \"contracts/ERC721Proxy.sol\":10125:10292  {... */\n      pop\n      pop\n        /* \"contracts/ERC721Proxy.sol\":10070:10292  function _safeMint(address to, uint256 tokenId) public {... */\n      pop\n      pop\n      jump\t// out\n        /* \"contracts/ERC721Proxy.sol\":6788:7090  function safeTransferFrom(address from, address to, uint256 tokenId, bytes memory data) public {... */\n    tag_137:\n        /* \"contracts/ERC721Proxy.sol\":6894:6906  bool success */\n      0x00\n        /* \"contracts/ERC721Proxy.sol\":6908:6931  bytes memory dataReturn */\n      dup1\n        /* \"contracts/ERC721Proxy.sol\":6935:6944  _contract */\n      0x06\n      0x00\n      swap1\n      sload\n      swap1\n      0x0100\n      exp\n      swap1\n      div\n      0xffffffffffffffffffffffffffffffffffffffff\n      and\n        /* \"contracts/ERC721Proxy.sol\":6935:6957  _contract.delegatecall */\n      0xffffffffffffffffffffffffffffffffffffffff\n      and\n        /* \"contracts/ERC721Proxy.sol\":7049:7053  from */\n      dup7\n        /* \"contracts/ERC721Proxy.sol\":7055:7057  to */\n      dup7\n        /* \"contracts/ERC721Proxy.sol\":7059:7066  tokenId */\n      dup7\n        /* \"contracts/ERC721Proxy.sol\":7068:7072  data */\n      dup7\n        /* \"contracts/ERC721Proxy.sol\":6971:7073  abi.encodeWithSignature(\"safeTransferFrom(address, address, uint256, bytes)\", from, to, tokenId, data) */\n      add(0x24, mload(0x40))\n      tag_312\n      swap5\n      swap4\n      swap3\n      swap2\n      swap1\n      tag_198\n      jump\t// in\n    tag_312:\n      mload(0x40)\n      0x20\n      dup2\n      dup4\n      sub\n      sub\n      dup2\n      mstore\n      swap1\n      0x40\n      mstore\n      and(not(0xffffffffffffffffffffffffffffffffffffffffffffffffffffffff), 0xa207714200000000000000000000000000000000000000000000000000000000)\n      0x20\n      dup3\n      add\n      dup1\n      mload\n      0xffffffffffffffffffffffffffffffffffffffffffffffffffffffff\n      dup4\n      dup2\n      dup4\n      and\n      or\n      dup4\n      mstore\n      pop\n      pop\n      pop\n      pop\n        /* \"contracts/ERC721Proxy.sol\":6935:7083  _contract.delegatecall(... */\n      mload(0x40)\n      tag_313\n      swap2\n      swap1\n      tag_158\n      jump\t// in\n    tag_313:\n      0x00\n      mload(0x40)\n      dup1\n      dup4\n      sub\n      dup2\n      dup6\n      gas\n      delegatecall\n      swap2\n      pop\n      pop\n      returndatasize\n      dup1\n      0x00\n      dup2\n      eq\n      tag_316\n      jumpi\n      mload(0x40)\n      swap2\n      pop\n      and(add(returndatasize, 0x3f), not(0x1f))\n      dup3\n      add\n      0x40\n      mstore\n      returndatasize\n      dup3\n      mstore\n      returndatasize\n      0x00\n      0x20\n      dup5\n      add\n      returndatacopy\n      jump(tag_315)\n    tag_316:\n      0x60\n      swap2\n      pop\n    tag_315:\n      pop\n        /* \"contracts/ERC721Proxy.sol\":6893:7083  (bool success, bytes memory dataReturn) = _contract.delegatecall(... */\n      swap2\n      pop\n      swap2\n      pop\n        /* \"contracts/ERC721Proxy.sol\":6883:7090  {... */\n      pop\n      pop\n        /* \"contracts/ERC721Proxy.sol\":6788:7090  function safeTransferFrom(address from, address to, uint256 tokenId, bytes memory data) public {... */\n      pop\n      pop\n      pop\n      pop\n      jump\t// out\n        /* \"contracts/ERC721Proxy.sol\":3892:4191  function tokenURI(uint256 tokenId) public returns (string memory) {... */\n    tag_140:\n        /* \"contracts/ERC721Proxy.sol\":3943:3956  string memory */\n      0x60\n        /* \"contracts/ERC721Proxy.sol\":3969:3981  bool success */\n      0x00\n        /* \"contracts/ERC721Proxy.sol\":3983:4006  bytes memory dataReturn */\n      dup1\n        /* \"contracts/ERC721Proxy.sol\":4010:4019  _contract */\n      0x06\n      0x00\n      swap1\n      sload\n      swap1\n      0x0100\n      exp\n      swap1\n      div\n      0xffffffffffffffffffffffffffffffffffffffff\n      and\n        /* \"contracts/ERC721Proxy.sol\":4010:4032  _contract.delegatecall */\n      0xffffffffffffffffffffffffffffffffffffffff\n      and\n        /* \"contracts/ERC721Proxy.sol\":4091:4098  tokenId */\n      dup5\n        /* \"contracts/ERC721Proxy.sol\":4046:4099  abi.encodeWithSignature(\"tokenURI(uint256)\", tokenId) */\n      add(0x24, mload(0x40))\n      tag_318\n      swap2\n      swap1\n      tag_102\n      jump\t// in\n    tag_318:\n      mload(0x40)\n      0x20\n      dup2\n      dup4\n      sub\n      sub\n      dup2\n      mstore\n      swap1\n      0x40\n      mstore\n      and(not(0xffffffffffffffffffffffffffffffffffffffffffffffffffffffff), 0xc87b56dd00000000000000000000000000000000000000000000000000000000)\n      0x20\n      dup3\n      add\n      dup1\n      mload\n      0xffffffffffffffffffffffffffffffffffffffffffffffffffffffff\n      dup4\n      dup2\n      dup4\n      and\n      or\n      dup4\n      mstore\n      pop\n      pop\n      pop\n      pop\n        /* \"contracts/ERC721Proxy.sol\":4010:4109  _contract.delegatecall(... */\n      mload(0x40)\n      tag_319\n      swap2\n      swap1\n      tag_158\n      jump\t// in\n    tag_319:\n      0x00\n      mload(0x40)\n      dup1\n      dup4\n      sub\n      dup2\n      dup6\n      gas\n      delegatecall\n      swap2\n      pop\n      pop\n      returndatasize\n      dup1\n      0x00\n      dup2\n      eq\n      tag_322\n      jumpi\n      mload(0x40)\n      swap2\n      pop\n      and(add(returndatasize, 0x3f), not(0x1f))\n      dup3\n      add\n      0x40\n      mstore\n      returndatasize\n      dup3\n      mstore\n      returndatasize\n      0x00\n      0x20\n      dup5\n      add\n      returndatacopy\n      jump(tag_321)\n    tag_322:\n      0x60\n      swap2\n      pop\n    tag_321:\n      pop\n        /* \"contracts/ERC721Proxy.sol\":3968:4109  (bool success, bytes memory dataReturn) = _contract.delegatecall(... */\n      swap2\n      pop\n      swap2\n      pop\n        /* \"contracts/ERC721Proxy.sol\":4127:4134  success */\n      dup2\n        /* \"contracts/ERC721Proxy.sol\":4119:4135  require(success) */\n      tag_323\n      jumpi\n      0x00\n      dup1\n      revert\n    tag_323:\n        /* \"contracts/ERC721Proxy.sol\":4163:4173  dataReturn */\n      dup1\n        /* \"contracts/ERC721Proxy.sol\":4152:4184  abi.decode(dataReturn, (string)) */\n      dup1\n      0x20\n      add\n      swap1\n      mload\n      dup2\n      add\n      swap1\n      tag_324\n      swap2\n      swap1\n      tag_172\n      jump\t// in\n    tag_324:\n        /* \"contracts/ERC721Proxy.sol\":4145:4184  return abi.decode(dataReturn, (string)) */\n      swap3\n      pop\n      pop\n      pop\n        /* \"contracts/ERC721Proxy.sol\":3892:4191  function tokenURI(uint256 tokenId) public returns (string memory) {... */\n      swap2\n      swap1\n      pop\n      jump\t// out\n        /* \"contracts/ERC721Proxy.sol\":5726:6063  function isApprovedForAll(address owner, address operator) public returns (bool) {... */\n    tag_145:\n        /* \"contracts/ERC721Proxy.sol\":5801:5805  bool */\n      0x00\n        /* \"contracts/ERC721Proxy.sol\":5818:5830  bool success */\n      dup1\n        /* \"contracts/ERC721Proxy.sol\":5832:5855  bytes memory dataReturn */\n      0x00\n        /* \"contracts/ERC721Proxy.sol\":5859:5868  _contract */\n      0x06\n      0x00\n      swap1\n      sload\n      swap1\n      0x0100\n      exp\n      swap1\n      div\n      0xffffffffffffffffffffffffffffffffffffffff\n      and\n        /* \"contracts/ERC721Proxy.sol\":5859:5881  _contract.delegatecall */\n      0xffffffffffffffffffffffffffffffffffffffff\n      and\n        /* \"contracts/ERC721Proxy.sol\":5957:5962  owner */\n      dup6\n        /* \"contracts/ERC721Proxy.sol\":5964:5972  operator */\n      dup6\n        /* \"contracts/ERC721Proxy.sol\":5895:5973  abi.encodeWithSignature(\"isApprovedForAll(address, address)\", owner, operator) */\n      add(0x24, mload(0x40))\n      tag_326\n      swap3\n      swap2\n      swap1\n      tag_327\n      jump\t// in\n    tag_326:\n      mload(0x40)\n      0x20\n      dup2\n      dup4\n      sub\n      sub\n      dup2\n      mstore\n      swap1\n      0x40\n      mstore\n      and(not(0xffffffffffffffffffffffffffffffffffffffffffffffffffffffff), 0x3a95ab7f00000000000000000000000000000000000000000000000000000000)\n      0x20\n      dup3\n      add\n      dup1\n      mload\n      0xffffffffffffffffffffffffffffffffffffffffffffffffffffffff\n      dup4\n      dup2\n      dup4\n      and\n      or\n      dup4\n      mstore\n      pop\n      pop\n      pop\n      pop\n        /* \"contracts/ERC721Proxy.sol\":5859:5983  _contract.delegatecall(... */\n      mload(0x40)\n      tag_328\n      swap2\n      swap1\n      tag_158\n      jump\t// in\n    tag_328:\n      0x00\n      mload(0x40)\n      dup1\n      dup4\n      sub\n      dup2\n      dup6\n      gas\n      delegatecall\n      swap2\n      pop\n      pop\n      returndatasize\n      dup1\n      0x00\n      dup2\n      eq\n      tag_331\n      jumpi\n      mload(0x40)\n      swap2\n      pop\n      and(add(returndatasize, 0x3f), not(0x1f))\n      dup3\n      add\n      0x40\n      mstore\n      returndatasize\n      dup3\n      mstore\n      returndatasize\n      0x00\n      0x20\n      dup5\n      add\n      returndatacopy\n      jump(tag_330)\n    tag_331:\n      0x60\n      swap2\n      pop\n    tag_330:\n      pop\n        /* \"contracts/ERC721Proxy.sol\":5817:5983  (bool success, bytes memory dataReturn) = _contract.delegatecall(... */\n      swap2\n      pop\n      swap2\n      pop\n        /* \"contracts/ERC721Proxy.sol\":6001:6008  success */\n      dup2\n        /* \"contracts/ERC721Proxy.sol\":5993:6009  require(success) */\n      tag_332\n      jumpi\n      0x00\n      dup1\n      revert\n    tag_332:\n        /* \"contracts/ERC721Proxy.sol\":6037:6047  dataReturn */\n      dup1\n        /* \"contracts/ERC721Proxy.sol\":6026:6056  abi.decode(dataReturn, (bool)) */\n      dup1\n      0x20\n      add\n      swap1\n      mload\n      dup2\n      add\n      swap1\n      tag_333\n      swap2\n      swap1\n      tag_164\n      jump\t// in\n    tag_333:\n        /* \"contracts/ERC721Proxy.sol\":6019:6056  return abi.decode(dataReturn, (bool)) */\n      swap3\n      pop\n      pop\n      pop\n        /* \"contracts/ERC721Proxy.sol\":5726:6063  function isApprovedForAll(address owner, address operator) public returns (bool) {... */\n      swap3\n      swap2\n      pop\n      pop\n      jump\t// out\n        /* \"contracts/ERC721Proxy.sol\":16564:16829  function __unsafe_increaseBalance(address account, uint256 amount) public {... */\n    tag_149:\n        /* \"contracts/ERC721Proxy.sol\":16649:16661  bool success */\n      0x00\n        /* \"contracts/ERC721Proxy.sol\":16663:16686  bytes memory dataReturn */\n      dup1\n        /* \"contracts/ERC721Proxy.sol\":16690:16699  _contract */\n      0x06\n      0x00\n      swap1\n      sload\n      swap1\n      0x0100\n      exp\n      swap1\n      div\n      0xffffffffffffffffffffffffffffffffffffffff\n      and\n        /* \"contracts/ERC721Proxy.sol\":16690:16712  _contract.delegatecall */\n      0xffffffffffffffffffffffffffffffffffffffff\n      and\n        /* \"contracts/ERC721Proxy.sol\":16796:16803  account */\n      dup5\n        /* \"contracts/ERC721Proxy.sol\":16805:16811  amount */\n      dup5\n        /* \"contracts/ERC721Proxy.sol\":16726:16812  abi.encodeWithSignature(\"__unsafe_increaseBalance(address, uint256)\", account, amount) */\n      add(0x24, mload(0x40))\n      tag_335\n      swap3\n      swap2\n      swap1\n      tag_184\n      jump\t// in\n    tag_335:\n      mload(0x40)\n      0x20\n      dup2\n      dup4\n      sub\n      sub\n      dup2\n      mstore\n      swap1\n      0x40\n      mstore\n      and(not(0xffffffffffffffffffffffffffffffffffffffffffffffffffffffff), 0x31b1105900000000000000000000000000000000000000000000000000000000)\n      0x20\n      dup3\n      add\n      dup1\n      mload\n      0xffffffffffffffffffffffffffffffffffffffffffffffffffffffff\n      dup4\n      dup2\n      dup4\n      and\n      or\n      dup4\n      mstore\n      pop\n      pop\n      pop\n      pop\n        /* \"contracts/ERC721Proxy.sol\":16690:16822  _contract.delegatecall(... */\n      mload(0x40)\n      tag_336\n      swap2\n      swap1\n      tag_158\n      jump\t// in\n    tag_336:\n      0x00\n      mload(0x40)\n      dup1\n      dup4\n      sub\n      dup2\n      dup6\n      gas\n      delegatecall\n      swap2\n      pop\n      pop\n      returndatasize\n      dup1\n      0x00\n      dup2\n      eq\n      tag_339\n      jumpi\n      mload(0x40)\n      swap2\n      pop\n      and(add(returndatasize, 0x3f), not(0x1f))\n      dup3\n      add\n      0x40\n      mstore\n      returndatasize\n      dup3\n      mstore\n      returndatasize\n      0x00\n      0x20\n      dup5\n      add\n      returndatacopy\n      jump(tag_338)\n    tag_339:\n      0x60\n      swap2\n      pop\n    tag_338:\n      pop\n        /* \"contracts/ERC721Proxy.sol\":16648:16822  (bool success, bytes memory dataReturn) = _contract.delegatecall(... */\n      swap2\n      pop\n      swap2\n      pop\n        /* \"contracts/ERC721Proxy.sol\":16638:16829  {... */\n      pop\n      pop\n        /* \"contracts/ERC721Proxy.sol\":16564:16829  function __unsafe_increaseBalance(address account, uint256 amount) public {... */\n      pop\n      pop\n      jump\t// out\n        /* \"contracts/ERC721Proxy.sol\":8953:9239  function _exists(uint256 tokenId) public returns (bool) {... */\n    tag_152:\n        /* \"contracts/ERC721Proxy.sol\":9003:9007  bool */\n      0x00\n        /* \"contracts/ERC721Proxy.sol\":9020:9032  bool success */\n      dup1\n        /* \"contracts/ERC721Proxy.sol\":9034:9057  bytes memory dataReturn */\n      0x00\n        /* \"contracts/ERC721Proxy.sol\":9061:9070  _contract */\n      0x06\n      0x00\n      swap1\n      sload\n      swap1\n      0x0100\n      exp\n      swap1\n      div\n      0xffffffffffffffffffffffffffffffffffffffff\n      and\n        /* \"contracts/ERC721Proxy.sol\":9061:9083  _contract.delegatecall */\n      0xffffffffffffffffffffffffffffffffffffffff\n      and\n        /* \"contracts/ERC721Proxy.sol\":9141:9148  tokenId */\n      dup5\n        /* \"contracts/ERC721Proxy.sol\":9097:9149  abi.encodeWithSignature(\"_exists(uint256)\", tokenId) */\n      add(0x24, mload(0x40))\n      tag_341\n      swap2\n      swap1\n      tag_102\n      jump\t// in\n    tag_341:\n      mload(0x40)\n      0x20\n      dup2\n      dup4\n      sub\n      sub\n      dup2\n      mstore\n      swap1\n      0x40\n      mstore\n      and(not(0xffffffffffffffffffffffffffffffffffffffffffffffffffffffff), 0xf8e76cc000000000000000000000000000000000000000000000000000000000)\n      0x20\n      dup3\n      add\n      dup1\n      mload\n      0xffffffffffffffffffffffffffffffffffffffffffffffffffffffff\n      dup4\n      dup2\n      dup4\n      and\n      or\n      dup4\n      mstore\n      pop\n      pop\n      pop\n      pop\n        /* \"contracts/ERC721Proxy.sol\":9061:9159  _contract.delegatecall(... */\n      mload(0x40)\n      tag_342\n      swap2\n      swap1\n      tag_158\n      jump\t// in\n    tag_342:\n      0x00\n      mload(0x40)\n      dup1\n      dup4\n      sub\n      dup2\n      dup6\n      gas\n      delegatecall\n      swap2\n      pop\n      pop\n      returndatasize\n      dup1\n      0x00\n      dup2\n      eq\n      tag_345\n      jumpi\n      mload(0x40)\n      swap2\n      pop\n      and(add(returndatasize, 0x3f), not(0x1f))\n      dup3\n      add\n      0x40\n      mstore\n      returndatasize\n      dup3\n      mstore\n      returndatasize\n      0x00\n      0x20\n      dup5\n      add\n      returndatacopy\n      jump(tag_344)\n    tag_345:\n      0x60\n      swap2\n      pop\n    tag_344:\n      pop\n        /* \"contracts/ERC721Proxy.sol\":9019:9159  (bool success, bytes memory dataReturn) = _contract.delegatecall(... */\n      swap2\n      pop\n      swap2\n      pop\n        /* \"contracts/ERC721Proxy.sol\":9177:9184  success */\n      dup2\n        /* \"contracts/ERC721Proxy.sol\":9169:9185  require(success) */\n      tag_346\n      jumpi\n      0x00\n      dup1\n      revert\n    tag_346:\n        /* \"contracts/ERC721Proxy.sol\":9213:9223  dataReturn */\n      dup1\n        /* \"contracts/ERC721Proxy.sol\":9202:9232  abi.decode(dataReturn, (bool)) */\n      dup1\n      0x20\n      add\n      swap1\n      mload\n      dup2\n      add\n      swap1\n      tag_347\n      swap2\n      swap1\n      tag_164\n      jump\t// in\n    tag_347:\n        /* \"contracts/ERC721Proxy.sol\":9195:9232  return abi.decode(dataReturn, (bool)) */\n      swap3\n      pop\n      pop\n      pop\n        /* \"contracts/ERC721Proxy.sol\":8953:9239  function _exists(uint256 tokenId) public returns (bool) {... */\n      swap2\n      swap1\n      pop\n      jump\t// out\n        /* \"#utility.yul\":7:82   */\n    tag_348:\n        /* \"#utility.yul\":40:46   */\n      0x00\n        /* \"#utility.yul\":73:75   */\n      0x40\n        /* \"#utility.yul\":67:76   */\n      mload\n        /* \"#utility.yul\":57:76   */\n      swap1\n      pop\n        /* \"#utility.yul\":7:82   */\n      swap1\n      jump\t// out\n        /* \"#utility.yul\":88:205   */\n    tag_349:\n        /* \"#utility.yul\":197:198   */\n      0x00\n        /* \"#utility.yul\":194:195   */\n      dup1\n        /* \"#utility.yul\":187:199   */\n      revert\n        /* \"#utility.yul\":211:328   */\n    tag_350:\n        /* \"#utility.yul\":320:321   */\n      0x00\n        /* \"#utility.yul\":317:318   */\n      dup1\n        /* \"#utility.yul\":310:322   */\n      revert\n        /* \"#utility.yul\":334:483   */\n    tag_351:\n        /* \"#utility.yul\":370:377   */\n      0x00\n        /* \"#utility.yul\":410:476   */\n      0xffffffff00000000000000000000000000000000000000000000000000000000\n        /* \"#utility.yul\":403:408   */\n      dup3\n        /* \"#utility.yul\":399:477   */\n      and\n        /* \"#utility.yul\":388:477   */\n      swap1\n      pop\n        /* \"#utility.yul\":334:483   */\n      swap2\n      swap1\n      pop\n      jump\t// out\n        /* \"#utility.yul\":489:609   */\n    tag_352:\n        /* \"#utility.yul\":561:584   */\n      tag_402\n        /* \"#utility.yul\":578:583   */\n      dup2\n        /* \"#utility.yul\":561:584   */\n      tag_351\n      jump\t// in\n    tag_402:\n        /* \"#utility.yul\":554:559   */\n      dup2\n        /* \"#utility.yul\":551:585   */\n      eq\n        /* \"#utility.yul\":541:603   */\n      tag_403\n      jumpi\n        /* \"#utility.yul\":599:600   */\n      0x00\n        /* \"#utility.yul\":596:597   */\n      dup1\n        /* \"#utility.yul\":589:601   */\n      revert\n        /* \"#utility.yul\":541:603   */\n    tag_403:\n        /* \"#utility.yul\":489:609   */\n      pop\n      jump\t// out\n        /* \"#utility.yul\":615:752   */\n    tag_353:\n        /* \"#utility.yul\":660:665   */\n      0x00\n        /* \"#utility.yul\":698:704   */\n      dup2\n        /* \"#utility.yul\":685:705   */\n      calldataload\n        /* \"#utility.yul\":676:705   */\n      swap1\n      pop\n        /* \"#utility.yul\":714:746   */\n      tag_405\n        /* \"#utility.yul\":740:745   */\n      dup2\n        /* \"#utility.yul\":714:746   */\n      tag_352\n      jump\t// in\n    tag_405:\n        /* \"#utility.yul\":615:752   */\n      swap3\n      swap2\n      pop\n      pop\n      jump\t// out\n        /* \"#utility.yul\":758:1085   */\n    tag_42:\n        /* \"#utility.yul\":816:822   */\n      0x00\n        /* \"#utility.yul\":865:867   */\n      0x20\n        /* \"#utility.yul\":853:862   */\n      dup3\n        /* \"#utility.yul\":844:851   */\n      dup5\n        /* \"#utility.yul\":840:863   */\n      sub\n        /* \"#utility.yul\":836:868   */\n      slt\n        /* \"#utility.yul\":833:952   */\n      iszero\n      tag_407\n      jumpi\n        /* \"#utility.yul\":871:950   */\n      tag_408\n      tag_349\n      jump\t// in\n    tag_408:\n        /* \"#utility.yul\":833:952   */\n    tag_407:\n        /* \"#utility.yul\":991:992   */\n      0x00\n        /* \"#utility.yul\":1016:1068   */\n      tag_409\n        /* \"#utility.yul\":1060:1067   */\n      dup5\n        /* \"#utility.yul\":1051:1057   */\n      dup3\n        /* \"#utility.yul\":1040:1049   */\n      dup6\n        /* \"#utility.yul\":1036:1058   */\n      add\n        /* \"#utility.yul\":1016:1068   */\n      tag_353\n      jump\t// in\n    tag_409:\n        /* \"#utility.yul\":1006:1068   */\n      swap2\n      pop\n        /* \"#utility.yul\":962:1078   */\n      pop\n        /* \"#utility.yul\":758:1085   */\n      swap3\n      swap2\n      pop\n      pop\n      jump\t// out\n        /* \"#utility.yul\":1091:1181   */\n    tag_354:\n        /* \"#utility.yul\":1125:1132   */\n      0x00\n        /* \"#utility.yul\":1168:1173   */\n      dup2\n        /* \"#utility.yul\":1161:1174   */\n      iszero\n        /* \"#utility.yul\":1154:1175   */\n      iszero\n        /* \"#utility.yul\":1143:1175   */\n      swap1\n      pop\n        /* \"#utility.yul\":1091:1181   */\n      swap2\n      swap1\n      pop\n      jump\t// out\n        /* \"#utility.yul\":1187:1296   */\n    tag_355:\n        /* \"#utility.yul\":1268:1289   */\n      tag_412\n        /* \"#utility.yul\":1283:1288   */\n      dup2\n        /* \"#utility.yul\":1268:1289   */\n      tag_354\n      jump\t// in\n    tag_412:\n        /* \"#utility.yul\":1263:1266   */\n      dup3\n        /* \"#utility.yul\":1256:1290   */\n      mstore\n        /* \"#utility.yul\":1187:1296   */\n      pop\n      pop\n      jump\t// out\n        /* \"#utility.yul\":1302:1512   */\n    tag_45:\n        /* \"#utility.yul\":1389:1393   */\n      0x00\n        /* \"#utility.yul\":1427:1429   */\n      0x20\n        /* \"#utility.yul\":1416:1425   */\n      dup3\n        /* \"#utility.yul\":1412:1430   */\n      add\n        /* \"#utility.yul\":1404:1430   */\n      swap1\n      pop\n        /* \"#utility.yul\":1440:1505   */\n      tag_414\n        /* \"#utility.yul\":1502:1503   */\n      0x00\n        /* \"#utility.yul\":1491:1500   */\n      dup4\n        /* \"#utility.yul\":1487:1504   */\n      add\n        /* \"#utility.yul\":1478:1484   */\n      dup5\n        /* \"#utility.yul\":1440:1505   */\n      tag_355\n      jump\t// in\n    tag_414:\n        /* \"#utility.yul\":1302:1512   */\n      swap3\n      swap2\n      pop\n      pop\n      jump\t// out\n        /* \"#utility.yul\":1518:1617   */\n    tag_356:\n        /* \"#utility.yul\":1570:1576   */\n      0x00\n        /* \"#utility.yul\":1604:1609   */\n      dup2\n        /* \"#utility.yul\":1598:1610   */\n      mload\n        /* \"#utility.yul\":1588:1610   */\n      swap1\n      pop\n        /* \"#utility.yul\":1518:1617   */\n      swap2\n      swap1\n      pop\n      jump\t// out\n        /* \"#utility.yul\":1623:1792   */\n    tag_357:\n        /* \"#utility.yul\":1707:1718   */\n      0x00\n        /* \"#utility.yul\":1741:1747   */\n      dup3\n        /* \"#utility.yul\":1736:1739   */\n      dup3\n        /* \"#utility.yul\":1729:1748   */\n      mstore\n        /* \"#utility.yul\":1781:1785   */\n      0x20\n        /* \"#utility.yul\":1776:1779   */\n      dup3\n        /* \"#utility.yul\":1772:1786   */\n      add\n        /* \"#utility.yul\":1757:1786   */\n      swap1\n      pop\n        /* \"#utility.yul\":1623:1792   */\n      swap3\n      swap2\n      pop\n      pop\n      jump\t// out\n        /* \"#utility.yul\":1798:2044   */\n    tag_358:\n        /* \"#utility.yul\":1879:1880   */\n      0x00\n        /* \"#utility.yul\":1889:2002   */\n    tag_418:\n        /* \"#utility.yul\":1903:1909   */\n      dup4\n        /* \"#utility.yul\":1900:1901   */\n      dup2\n        /* \"#utility.yul\":1897:1910   */\n      lt\n        /* \"#utility.yul\":1889:2002   */\n      iszero\n      tag_420\n      jumpi\n        /* \"#utility.yul\":1988:1989   */\n      dup1\n        /* \"#utility.yul\":1983:1986   */\n      dup3\n        /* \"#utility.yul\":1979:1990   */\n      add\n        /* \"#utility.yul\":1973:1991   */\n      mload\n        /* \"#utility.yul\":1969:1970   */\n      dup2\n        /* \"#utility.yul\":1964:1967   */\n      dup5\n        /* \"#utility.yul\":1960:1971   */\n      add\n        /* \"#utility.yul\":1953:1992   */\n      mstore\n        /* \"#utility.yul\":1925:1927   */\n      0x20\n        /* \"#utility.yul\":1922:1923   */\n      dup2\n        /* \"#utility.yul\":1918:1928   */\n      add\n        /* \"#utility.yul\":1913:1928   */\n      swap1\n      pop\n        /* \"#utility.yul\":1889:2002   */\n      jump(tag_418)\n    tag_420:\n        /* \"#utility.yul\":2036:2037   */\n      0x00\n        /* \"#utility.yul\":2027:2033   */\n      dup5\n        /* \"#utility.yul\":2022:2025   */\n      dup5\n        /* \"#utility.yul\":2018:2034   */\n      add\n        /* \"#utility.yul\":2011:2038   */\n      mstore\n        /* \"#utility.yul\":1860:2044   */\n      pop\n        /* \"#utility.yul\":1798:2044   */\n      pop\n      pop\n      pop\n      jump\t// out\n        /* \"#utility.yul\":2050:2152   */\n    tag_359:\n        /* \"#utility.yul\":2091:2097   */\n      0x00\n        /* \"#utility.yul\":2142:2144   */\n      0x1f\n        /* \"#utility.yul\":2138:2145   */\n      not\n        /* \"#utility.yul\":2133:2135   */\n      0x1f\n        /* \"#utility.yul\":2126:2131   */\n      dup4\n        /* \"#utility.yul\":2122:2136   */\n      add\n        /* \"#utility.yul\":2118:2146   */\n      and\n        /* \"#utility.yul\":2108:2146   */\n      swap1\n      pop\n        /* \"#utility.yul\":2050:2152   */\n      swap2\n      swap1\n      pop\n      jump\t// out\n        /* \"#utility.yul\":2158:2535   */\n    tag_360:\n        /* \"#utility.yul\":2246:2249   */\n      0x00\n        /* \"#utility.yul\":2274:2313   */\n      tag_423\n        /* \"#utility.yul\":2307:2312   */\n      dup3\n        /* \"#utility.yul\":2274:2313   */\n      tag_356\n      jump\t// in\n    tag_423:\n        /* \"#utility.yul\":2329:2400   */\n      tag_424\n        /* \"#utility.yul\":2393:2399   */\n      dup2\n        /* \"#utility.yul\":2388:2391   */\n      dup6\n        /* \"#utility.yul\":2329:2400   */\n      tag_357\n      jump\t// in\n    tag_424:\n        /* \"#utility.yul\":2322:2400   */\n      swap4\n      pop\n        /* \"#utility.yul\":2409:2474   */\n      tag_425\n        /* \"#utility.yul\":2467:2473   */\n      dup2\n        /* \"#utility.yul\":2462:2465   */\n      dup6\n        /* \"#utility.yul\":2455:2459   */\n      0x20\n        /* \"#utility.yul\":2448:2453   */\n      dup7\n        /* \"#utility.yul\":2444:2460   */\n      add\n        /* \"#utility.yul\":2409:2474   */\n      tag_358\n      jump\t// in\n    tag_425:\n        /* \"#utility.yul\":2499:2528   */\n      tag_426\n        /* \"#utility.yul\":2521:2527   */\n      dup2\n        /* \"#utility.yul\":2499:2528   */\n      tag_359\n      jump\t// in\n    tag_426:\n        /* \"#utility.yul\":2494:2497   */\n      dup5\n        /* \"#utility.yul\":2490:2529   */\n      add\n        /* \"#utility.yul\":2483:2529   */\n      swap2\n      pop\n        /* \"#utility.yul\":2250:2535   */\n      pop\n        /* \"#utility.yul\":2158:2535   */\n      swap3\n      swap2\n      pop\n      pop\n      jump\t// out\n        /* \"#utility.yul\":2541:2854   */\n    tag_49:\n        /* \"#utility.yul\":2654:2658   */\n      0x00\n        /* \"#utility.yul\":2692:2694   */\n      0x20\n        /* \"#utility.yul\":2681:2690   */\n      dup3\n        /* \"#utility.yul\":2677:2695   */\n      add\n        /* \"#utility.yul\":2669:2695   */\n      swap1\n      pop\n        /* \"#utility.yul\":2741:2750   */\n      dup2\n        /* \"#utility.yul\":2735:2739   */\n      dup2\n        /* \"#utility.yul\":2731:2751   */\n      sub\n        /* \"#utility.yul\":2727:2728   */\n      0x00\n        /* \"#utility.yul\":2716:2725   */\n      dup4\n        /* \"#utility.yul\":2712:2729   */\n      add\n        /* \"#utility.yul\":2705:2752   */\n      mstore\n        /* \"#utility.yul\":2769:2847   */\n      tag_428\n        /* \"#utility.yul\":2842:2846   */\n      dup2\n        /* \"#utility.yul\":2833:2839   */\n      dup5\n        /* \"#utility.yul\":2769:2847   */\n      tag_360\n      jump\t// in\n    tag_428:\n        /* \"#utility.yul\":2761:2847   */\n      swap1\n      pop\n        /* \"#utility.yul\":2541:2854   */\n      swap3\n      swap2\n      pop\n      pop\n      jump\t// out\n        /* \"#utility.yul\":2860:2937   */\n    tag_361:\n        /* \"#utility.yul\":2897:2904   */\n      0x00\n        /* \"#utility.yul\":2926:2931   */\n      dup2\n        /* \"#utility.yul\":2915:2931   */\n      swap1\n      pop\n        /* \"#utility.yul\":2860:2937   */\n      swap2\n      swap1\n      pop\n      jump\t// out\n        /* \"#utility.yul\":2943:3065   */\n    tag_362:\n        /* \"#utility.yul\":3016:3040   */\n      tag_431\n        /* \"#utility.yul\":3034:3039   */\n      dup2\n        /* \"#utility.yul\":3016:3040   */\n      tag_361\n      jump\t// in\n    tag_431:\n        /* \"#utility.yul\":3009:3014   */\n      dup2\n        /* \"#utility.yul\":3006:3041   */\n      eq\n        /* \"#utility.yul\":2996:3059   */\n      tag_432\n      jumpi\n        /* \"#utility.yul\":3055:3056   */\n      0x00\n        /* \"#utility.yul\":3052:3053   */\n      dup1\n        /* \"#utility.yul\":3045:3057   */\n      revert\n        /* \"#utility.yul\":2996:3059   */\n    tag_432:\n        /* \"#utility.yul\":2943:3065   */\n      pop\n      jump\t// out\n        /* \"#utility.yul\":3071:3210   */\n    tag_363:\n        /* \"#utility.yul\":3117:3122   */\n      0x00\n        /* \"#utility.yul\":3155:3161   */\n      dup2\n        /* \"#utility.yul\":3142:3162   */\n      calldataload\n        /* \"#utility.yul\":3133:3162   */\n      swap1\n      pop\n        /* \"#utility.yul\":3171:3204   */\n      tag_434\n        /* \"#utility.yul\":3198:3203   */\n      dup2\n        /* \"#utility.yul\":3171:3204   */\n      tag_362\n      jump\t// in\n    tag_434:\n        /* \"#utility.yul\":3071:3210   */\n      swap3\n      swap2\n      pop\n      pop\n      jump\t// out\n        /* \"#utility.yul\":3216:3545   */\n    tag_52:\n        /* \"#utility.yul\":3275:3281   */\n      0x00\n        /* \"#utility.yul\":3324:3326   */\n      0x20\n        /* \"#utility.yul\":3312:3321   */\n      dup3\n        /* \"#utility.yul\":3303:3310   */\n      dup5\n        /* \"#utility.yul\":3299:3322   */\n      sub\n        /* \"#utility.yul\":3295:3327   */\n      slt\n        /* \"#utility.yul\":3292:3411   */\n      iszero\n      tag_436\n      jumpi\n        /* \"#utility.yul\":3330:3409   */\n      tag_437\n      tag_349\n      jump\t// in\n    tag_437:\n        /* \"#utility.yul\":3292:3411   */\n    tag_436:\n        /* \"#utility.yul\":3450:3451   */\n      0x00\n        /* \"#utility.yul\":3475:3528   */\n      tag_438\n        /* \"#utility.yul\":3520:3527   */\n      dup5\n        /* \"#utility.yul\":3511:3517   */\n      dup3\n        /* \"#utility.yul\":3500:3509   */\n      dup6\n        /* \"#utility.yul\":3496:3518   */\n      add\n        /* \"#utility.yul\":3475:3528   */\n      tag_363\n      jump\t// in\n    tag_438:\n        /* \"#utility.yul\":3465:3528   */\n      swap2\n      pop\n        /* \"#utility.yul\":3421:3538   */\n      pop\n        /* \"#utility.yul\":3216:3545   */\n      swap3\n      swap2\n      pop\n      pop\n      jump\t// out\n        /* \"#utility.yul\":3551:3677   */\n    tag_364:\n        /* \"#utility.yul\":3588:3595   */\n      0x00\n        /* \"#utility.yul\":3628:3670   */\n      0xffffffffffffffffffffffffffffffffffffffff\n        /* \"#utility.yul\":3621:3626   */\n      dup3\n        /* \"#utility.yul\":3617:3671   */\n      and\n        /* \"#utility.yul\":3606:3671   */\n      swap1\n      pop\n        /* \"#utility.yul\":3551:3677   */\n      swap2\n      swap1\n      pop\n      jump\t// out\n        /* \"#utility.yul\":3683:3779   */\n    tag_365:\n        /* \"#utility.yul\":3720:3727   */\n      0x00\n        /* \"#utility.yul\":3749:3773   */\n      tag_441\n        /* \"#utility.yul\":3767:3772   */\n      dup3\n        /* \"#utility.yul\":3749:3773   */\n      tag_364\n      jump\t// in\n    tag_441:\n        /* \"#utility.yul\":3738:3773   */\n      swap1\n      pop\n        /* \"#utility.yul\":3683:3779   */\n      swap2\n      swap1\n      pop\n      jump\t// out\n        /* \"#utility.yul\":3785:3903   */\n    tag_366:\n        /* \"#utility.yul\":3872:3896   */\n      tag_443\n        /* \"#utility.yul\":3890:3895   */\n      dup2\n        /* \"#utility.yul\":3872:3896   */\n      tag_365\n      jump\t// in\n    tag_443:\n        /* \"#utility.yul\":3867:3870   */\n      dup3\n        /* \"#utility.yul\":3860:3897   */\n      mstore\n        /* \"#utility.yul\":3785:3903   */\n      pop\n      pop\n      jump\t// out\n        /* \"#utility.yul\":3909:4131   */\n    tag_55:\n        /* \"#utility.yul\":4002:4006   */\n      0x00\n        /* \"#utility.yul\":4040:4042   */\n      0x20\n        /* \"#utility.yul\":4029:4038   */\n      dup3\n        /* \"#utility.yul\":4025:4043   */\n      add\n        /* \"#utility.yul\":4017:4043   */\n      swap1\n      pop\n        /* \"#utility.yul\":4053:4124   */\n      tag_445\n        /* \"#utility.yul\":4121:4122   */\n      0x00\n        /* \"#utility.yul\":4110:4119   */\n      dup4\n        /* \"#utility.yul\":4106:4123   */\n      add\n        /* \"#utility.yul\":4097:4103   */\n      dup5\n        /* \"#utility.yul\":4053:4124   */\n      tag_366\n      jump\t// in\n    tag_445:\n        /* \"#utility.yul\":3909:4131   */\n      swap3\n      swap2\n      pop\n      pop\n      jump\t// out\n        /* \"#utility.yul\":4137:4259   */\n    tag_367:\n        /* \"#utility.yul\":4210:4234   */\n      tag_447\n        /* \"#utility.yul\":4228:4233   */\n      dup2\n        /* \"#utility.yul\":4210:4234   */\n      tag_365\n      jump\t// in\n    tag_447:\n        /* \"#utility.yul\":4203:4208   */\n      dup2\n        /* \"#utility.yul\":4200:4235   */\n      eq\n        /* \"#utility.yul\":4190:4253   */\n      tag_448\n      jumpi\n        /* \"#utility.yul\":4249:4250   */\n      0x00\n        /* \"#utility.yul\":4246:4247   */\n      dup1\n        /* \"#utility.yul\":4239:4251   */\n      revert\n        /* \"#utility.yul\":4190:4253   */\n    tag_448:\n        /* \"#utility.yul\":4137:4259   */\n      pop\n      jump\t// out\n        /* \"#utility.yul\":4265:4404   */\n    tag_368:\n        /* \"#utility.yul\":4311:4316   */\n      0x00\n        /* \"#utility.yul\":4349:4355   */\n      dup2\n        /* \"#utility.yul\":4336:4356   */\n      calldataload\n        /* \"#utility.yul\":4327:4356   */\n      swap1\n      pop\n        /* \"#utility.yul\":4365:4398   */\n      tag_450\n        /* \"#utility.yul\":4392:4397   */\n      dup2\n        /* \"#utility.yul\":4365:4398   */\n      tag_367\n      jump\t// in\n    tag_450:\n        /* \"#utility.yul\":4265:4404   */\n      swap3\n      swap2\n      pop\n      pop\n      jump\t// out\n        /* \"#utility.yul\":4410:4884   */\n    tag_58:\n        /* \"#utility.yul\":4478:4484   */\n      0x00\n        /* \"#utility.yul\":4486:4492   */\n      dup1\n        /* \"#utility.yul\":4535:4537   */\n      0x40\n        /* \"#utility.yul\":4523:4532   */\n      dup4\n        /* \"#utility.yul\":4514:4521   */\n      dup6\n        /* \"#utility.yul\":4510:4533   */\n      sub\n        /* \"#utility.yul\":4506:4538   */\n      slt\n        /* \"#utility.yul\":4503:4622   */\n      iszero\n      tag_452\n      jumpi\n        /* \"#utility.yul\":4541:4620   */\n      tag_453\n      tag_349\n      jump\t// in\n    tag_453:\n        /* \"#utility.yul\":4503:4622   */\n    tag_452:\n        /* \"#utility.yul\":4661:4662   */\n      0x00\n        /* \"#utility.yul\":4686:4739   */\n      tag_454\n        /* \"#utility.yul\":4731:4738   */\n      dup6\n        /* \"#utility.yul\":4722:4728   */\n      dup3\n        /* \"#utility.yul\":4711:4720   */\n      dup7\n        /* \"#utility.yul\":4707:4729   */\n      add\n        /* \"#utility.yul\":4686:4739   */\n      tag_368\n      jump\t// in\n    tag_454:\n        /* \"#utility.yul\":4676:4739   */\n      swap3\n      pop\n        /* \"#utility.yul\":4632:4749   */\n      pop\n        /* \"#utility.yul\":4788:4790   */\n      0x20\n        /* \"#utility.yul\":4814:4867   */\n      tag_455\n        /* \"#utility.yul\":4859:4866   */\n      dup6\n        /* \"#utility.yul\":4850:4856   */\n      dup3\n        /* \"#utility.yul\":4839:4848   */\n      dup7\n        /* \"#utility.yul\":4835:4857   */\n      add\n        /* \"#utility.yul\":4814:4867   */\n      tag_363\n      jump\t// in\n    tag_455:\n        /* \"#utility.yul\":4804:4867   */\n      swap2\n      pop\n        /* \"#utility.yul\":4759:4877   */\n      pop\n        /* \"#utility.yul\":4410:4884   */\n      swap3\n      pop\n      swap3\n      swap1\n      pop\n      jump\t// out\n        /* \"#utility.yul\":4890:5509   */\n    tag_62:\n        /* \"#utility.yul\":4967:4973   */\n      0x00\n        /* \"#utility.yul\":4975:4981   */\n      dup1\n        /* \"#utility.yul\":4983:4989   */\n      0x00\n        /* \"#utility.yul\":5032:5034   */\n      0x60\n        /* \"#utility.yul\":5020:5029   */\n      dup5\n        /* \"#utility.yul\":5011:5018   */\n      dup7\n        /* \"#utility.yul\":5007:5030   */\n      sub\n        /* \"#utility.yul\":5003:5035   */\n      slt\n        /* \"#utility.yul\":5000:5119   */\n      iszero\n      tag_457\n      jumpi\n        /* \"#utility.yul\":5038:5117   */\n      tag_458\n      tag_349\n      jump\t// in\n    tag_458:\n        /* \"#utility.yul\":5000:5119   */\n    tag_457:\n        /* \"#utility.yul\":5158:5159   */\n      0x00\n        /* \"#utility.yul\":5183:5236   */\n      tag_459\n        /* \"#utility.yul\":5228:5235   */\n      dup7\n        /* \"#utility.yul\":5219:5225   */\n      dup3\n        /* \"#utility.yul\":5208:5217   */\n      dup8\n        /* \"#utility.yul\":5204:5226   */\n      add\n        /* \"#utility.yul\":5183:5236   */\n      tag_368\n      jump\t// in\n    tag_459:\n        /* \"#utility.yul\":5173:5236   */\n      swap4\n      pop\n        /* \"#utility.yul\":5129:5246   */\n      pop\n        /* \"#utility.yul\":5285:5287   */\n      0x20\n        /* \"#utility.yul\":5311:5364   */\n      tag_460\n        /* \"#utility.yul\":5356:5363   */\n      dup7\n        /* \"#utility.yul\":5347:5353   */\n      dup3\n        /* \"#utility.yul\":5336:5345   */\n      dup8\n        /* \"#utility.yul\":5332:5354   */\n      add\n        /* \"#utility.yul\":5311:5364   */\n      tag_368\n      jump\t// in\n    tag_460:\n        /* \"#utility.yul\":5301:5364   */\n      swap3\n      pop\n        /* \"#utility.yul\":5256:5374   */\n      pop\n        /* \"#utility.yul\":5413:5415   */\n      0x40\n        /* \"#utility.yul\":5439:5492   */\n      tag_461\n        /* \"#utility.yul\":5484:5491   */\n      dup7\n        /* \"#utility.yul\":5475:5481   */\n      dup3\n        /* \"#utility.yul\":5464:5473   */\n      dup8\n        /* \"#utility.yul\":5460:5482   */\n      add\n        /* \"#utility.yul\":5439:5492   */\n      tag_363\n      jump\t// in\n    tag_461:\n        /* \"#utility.yul\":5429:5492   */\n      swap2\n      pop\n        /* \"#utility.yul\":5384:5502   */\n      pop\n        /* \"#utility.yul\":4890:5509   */\n      swap3\n      pop\n      swap3\n      pop\n      swap3\n      jump\t// out\n        /* \"#utility.yul\":5515:5632   */\n    tag_369:\n        /* \"#utility.yul\":5624:5625   */\n      0x00\n        /* \"#utility.yul\":5621:5622   */\n      dup1\n        /* \"#utility.yul\":5614:5626   */\n      revert\n        /* \"#utility.yul\":5638:5755   */\n    tag_370:\n        /* \"#utility.yul\":5747:5748   */\n      0x00\n        /* \"#utility.yul\":5744:5745   */\n      dup1\n        /* \"#utility.yul\":5737:5749   */\n      revert\n        /* \"#utility.yul\":5761:5941   */\n    tag_371:\n        /* \"#utility.yul\":5809:5886   */\n      0x4e487b7100000000000000000000000000000000000000000000000000000000\n        /* \"#utility.yul\":5806:5807   */\n      0x00\n        /* \"#utility.yul\":5799:5887   */\n      mstore\n        /* \"#utility.yul\":5906:5910   */\n      0x41\n        /* \"#utility.yul\":5903:5904   */\n      0x04\n        /* \"#utility.yul\":5896:5911   */\n      mstore\n        /* \"#utility.yul\":5930:5934   */\n      0x24\n        /* \"#utility.yul\":5927:5928   */\n      0x00\n        /* \"#utility.yul\":5920:5935   */\n      revert\n        /* \"#utility.yul\":5947:6228   */\n    tag_372:\n        /* \"#utility.yul\":6030:6057   */\n      tag_466\n        /* \"#utility.yul\":6052:6056   */\n      dup3\n        /* \"#utility.yul\":6030:6057   */\n      tag_359\n      jump\t// in\n    tag_466:\n        /* \"#utility.yul\":6022:6028   */\n      dup2\n        /* \"#utility.yul\":6018:6058   */\n      add\n        /* \"#utility.yul\":6160:6166   */\n      dup2\n        /* \"#utility.yul\":6148:6158   */\n      dup2\n        /* \"#utility.yul\":6145:6167   */\n      lt\n        /* \"#utility.yul\":6124:6142   */\n      0xffffffffffffffff\n        /* \"#utility.yul\":6112:6122   */\n      dup3\n        /* \"#utility.yul\":6109:6143   */\n      gt\n        /* \"#utility.yul\":6106:6168   */\n      or\n        /* \"#utility.yul\":6103:6191   */\n      iszero\n      tag_467\n      jumpi\n        /* \"#utility.yul\":6171:6189   */\n      tag_468\n      tag_371\n      jump\t// in\n    tag_468:\n        /* \"#utility.yul\":6103:6191   */\n    tag_467:\n        /* \"#utility.yul\":6211:6221   */\n      dup1\n        /* \"#utility.yul\":6207:6209   */\n      0x40\n        /* \"#utility.yul\":6200:6222   */\n      mstore\n        /* \"#utility.yul\":5990:6228   */\n      pop\n        /* \"#utility.yul\":5947:6228   */\n      pop\n      pop\n      jump\t// out\n        /* \"#utility.yul\":6234:6363   */\n    tag_373:\n        /* \"#utility.yul\":6268:6274   */\n      0x00\n        /* \"#utility.yul\":6295:6315   */\n      tag_470\n      tag_348\n      jump\t// in\n    tag_470:\n        /* \"#utility.yul\":6285:6315   */\n      swap1\n      pop\n        /* \"#utility.yul\":6324:6357   */\n      tag_471\n        /* \"#utility.yul\":6352:6356   */\n      dup3\n        /* \"#utility.yul\":6344:6350   */\n      dup3\n        /* \"#utility.yul\":6324:6357   */\n      tag_372\n      jump\t// in\n    tag_471:\n        /* \"#utility.yul\":6234:6363   */\n      swap2\n      swap1\n      pop\n      jump\t// out\n        /* \"#utility.yul\":6369:6676   */\n    tag_374:\n        /* \"#utility.yul\":6430:6434   */\n      0x00\n        /* \"#utility.yul\":6520:6538   */\n      0xffffffffffffffff\n        /* \"#utility.yul\":6512:6518   */\n      dup3\n        /* \"#utility.yul\":6509:6539   */\n      gt\n        /* \"#utility.yul\":6506:6562   */\n      iszero\n      tag_473\n      jumpi\n        /* \"#utility.yul\":6542:6560   */\n      tag_474\n      tag_371\n      jump\t// in\n    tag_474:\n        /* \"#utility.yul\":6506:6562   */\n    tag_473:\n        /* \"#utility.yul\":6580:6609   */\n      tag_475\n        /* \"#utility.yul\":6602:6608   */\n      dup3\n        /* \"#utility.yul\":6580:6609   */\n      tag_359\n      jump\t// in\n    tag_475:\n        /* \"#utility.yul\":6572:6609   */\n      swap1\n      pop\n        /* \"#utility.yul\":6664:6668   */\n      0x20\n        /* \"#utility.yul\":6658:6662   */\n      dup2\n        /* \"#utility.yul\":6654:6669   */\n      add\n        /* \"#utility.yul\":6646:6669   */\n      swap1\n      pop\n        /* \"#utility.yul\":6369:6676   */\n      swap2\n      swap1\n      pop\n      jump\t// out\n        /* \"#utility.yul\":6682:6828   */\n    tag_375:\n        /* \"#utility.yul\":6779:6785   */\n      dup3\n        /* \"#utility.yul\":6774:6777   */\n      dup2\n        /* \"#utility.yul\":6769:6772   */\n      dup4\n        /* \"#utility.yul\":6756:6786   */\n      calldatacopy\n        /* \"#utility.yul\":6820:6821   */\n      0x00\n        /* \"#utility.yul\":6811:6817   */\n      dup4\n        /* \"#utility.yul\":6806:6809   */\n      dup4\n        /* \"#utility.yul\":6802:6818   */\n      add\n        /* \"#utility.yul\":6795:6822   */\n      mstore\n        /* \"#utility.yul\":6682:6828   */\n      pop\n      pop\n      pop\n      jump\t// out\n        /* \"#utility.yul\":6834:7257   */\n    tag_376:\n        /* \"#utility.yul\":6911:6916   */\n      0x00\n        /* \"#utility.yul\":6936:7001   */\n      tag_478\n        /* \"#utility.yul\":6952:7000   */\n      tag_479\n        /* \"#utility.yul\":6993:6999   */\n      dup5\n        /* \"#utility.yul\":6952:7000   */\n      tag_374\n      jump\t// in\n    tag_479:\n        /* \"#utility.yul\":6936:7001   */\n      tag_373\n      jump\t// in\n    tag_478:\n        /* \"#utility.yul\":6927:7001   */\n      swap1\n      pop\n        /* \"#utility.yul\":7024:7030   */\n      dup3\n        /* \"#utility.yul\":7017:7022   */\n      dup2\n        /* \"#utility.yul\":7010:7031   */\n      mstore\n        /* \"#utility.yul\":7062:7066   */\n      0x20\n        /* \"#utility.yul\":7055:7060   */\n      dup2\n        /* \"#utility.yul\":7051:7067   */\n      add\n        /* \"#utility.yul\":7100:7103   */\n      dup5\n        /* \"#utility.yul\":7091:7097   */\n      dup5\n        /* \"#utility.yul\":7086:7089   */\n      dup5\n        /* \"#utility.yul\":7082:7098   */\n      add\n        /* \"#utility.yul\":7079:7104   */\n      gt\n        /* \"#utility.yul\":7076:7188   */\n      iszero\n      tag_480\n      jumpi\n        /* \"#utility.yul\":7107:7186   */\n      tag_481\n      tag_370\n      jump\t// in\n    tag_481:\n        /* \"#utility.yul\":7076:7188   */\n    tag_480:\n        /* \"#utility.yul\":7197:7251   */\n      tag_482\n        /* \"#utility.yul\":7244:7250   */\n      dup5\n        /* \"#utility.yul\":7239:7242   */\n      dup3\n        /* \"#utility.yul\":7234:7237   */\n      dup6\n        /* \"#utility.yul\":7197:7251   */\n      tag_375\n      jump\t// in\n    tag_482:\n        /* \"#utility.yul\":6917:7257   */\n      pop\n        /* \"#utility.yul\":6834:7257   */\n      swap4\n      swap3\n      pop\n      pop\n      pop\n      jump\t// out\n        /* \"#utility.yul\":7276:7614   */\n    tag_377:\n        /* \"#utility.yul\":7331:7336   */\n      0x00\n        /* \"#utility.yul\":7380:7383   */\n      dup3\n        /* \"#utility.yul\":7373:7377   */\n      0x1f\n        /* \"#utility.yul\":7365:7371   */\n      dup4\n        /* \"#utility.yul\":7361:7378   */\n      add\n        /* \"#utility.yul\":7357:7384   */\n      slt\n        /* \"#utility.yul\":7347:7469   */\n      tag_484\n      jumpi\n        /* \"#utility.yul\":7388:7467   */\n      tag_485\n      tag_369\n      jump\t// in\n    tag_485:\n        /* \"#utility.yul\":7347:7469   */\n    tag_484:\n        /* \"#utility.yul\":7505:7511   */\n      dup2\n        /* \"#utility.yul\":7492:7512   */\n      calldataload\n        /* \"#utility.yul\":7530:7608   */\n      tag_486\n        /* \"#utility.yul\":7604:7607   */\n      dup5\n        /* \"#utility.yul\":7596:7602   */\n      dup3\n        /* \"#utility.yul\":7589:7593   */\n      0x20\n        /* \"#utility.yul\":7581:7587   */\n      dup7\n        /* \"#utility.yul\":7577:7594   */\n      add\n        /* \"#utility.yul\":7530:7608   */\n      tag_376\n      jump\t// in\n    tag_486:\n        /* \"#utility.yul\":7521:7608   */\n      swap2\n      pop\n        /* \"#utility.yul\":7337:7614   */\n      pop\n        /* \"#utility.yul\":7276:7614   */\n      swap3\n      swap2\n      pop\n      pop\n      jump\t// out\n        /* \"#utility.yul\":7620:8563   */\n    tag_66:\n        /* \"#utility.yul\":7715:7721   */\n      0x00\n        /* \"#utility.yul\":7723:7729   */\n      dup1\n        /* \"#utility.yul\":7731:7737   */\n      0x00\n        /* \"#utility.yul\":7739:7745   */\n      dup1\n        /* \"#utility.yul\":7788:7791   */\n      0x80\n        /* \"#utility.yul\":7776:7785   */\n      dup6\n        /* \"#utility.yul\":7767:7774   */\n      dup8\n        /* \"#utility.yul\":7763:7786   */\n      sub\n        /* \"#utility.yul\":7759:7792   */\n      slt\n        /* \"#utility.yul\":7756:7876   */\n      iszero\n      tag_488\n      jumpi\n        /* \"#utility.yul\":7795:7874   */\n      tag_489\n      tag_349\n      jump\t// in\n    tag_489:\n        /* \"#utility.yul\":7756:7876   */\n    tag_488:\n        /* \"#utility.yul\":7915:7916   */\n      0x00\n        /* \"#utility.yul\":7940:7993   */\n      tag_490\n        /* \"#utility.yul\":7985:7992   */\n      dup8\n        /* \"#utility.yul\":7976:7982   */\n      dup3\n        /* \"#utility.yul\":7965:7974   */\n      dup9\n        /* \"#utility.yul\":7961:7983   */\n      add\n        /* \"#utility.yul\":7940:7993   */\n      tag_368\n      jump\t// in\n    tag_490:\n        /* \"#utility.yul\":7930:7993   */\n      swap5\n      pop\n        /* \"#utility.yul\":7886:8003   */\n      pop\n        /* \"#utility.yul\":8042:8044   */\n      0x20\n        /* \"#utility.yul\":8068:8121   */\n      tag_491\n        /* \"#utility.yul\":8113:8120   */\n      dup8\n        /* \"#utility.yul\":8104:8110   */\n      dup3\n        /* \"#utility.yul\":8093:8102   */\n      dup9\n        /* \"#utility.yul\":8089:8111   */\n      add\n        /* \"#utility.yul\":8068:8121   */\n      tag_368\n      jump\t// in\n    tag_491:\n        /* \"#utility.yul\":8058:8121   */\n      swap4\n      pop\n        /* \"#utility.yul\":8013:8131   */\n      pop\n        /* \"#utility.yul\":8170:8172   */\n      0x40\n        /* \"#utility.yul\":8196:8249   */\n      tag_492\n        /* \"#utility.yul\":8241:8248   */\n      dup8\n        /* \"#utility.yul\":8232:8238   */\n      dup3\n        /* \"#utility.yul\":8221:8230   */\n      dup9\n        /* \"#utility.yul\":8217:8239   */\n      add\n        /* \"#utility.yul\":8196:8249   */\n      tag_363\n      jump\t// in\n    tag_492:\n        /* \"#utility.yul\":8186:8249   */\n      swap3\n      pop\n        /* \"#utility.yul\":8141:8259   */\n      pop\n        /* \"#utility.yul\":8326:8328   */\n      0x60\n        /* \"#utility.yul\":8315:8324   */\n      dup6\n        /* \"#utility.yul\":8311:8329   */\n      add\n        /* \"#utility.yul\":8298:8330   */\n      calldataload\n        /* \"#utility.yul\":8357:8375   */\n      0xffffffffffffffff\n        /* \"#utility.yul\":8349:8355   */\n      dup2\n        /* \"#utility.yul\":8346:8376   */\n      gt\n        /* \"#utility.yul\":8343:8460   */\n      iszero\n      tag_493\n      jumpi\n        /* \"#utility.yul\":8379:8458   */\n      tag_494\n      tag_350\n      jump\t// in\n    tag_494:\n        /* \"#utility.yul\":8343:8460   */\n    tag_493:\n        /* \"#utility.yul\":8484:8546   */\n      tag_495\n        /* \"#utility.yul\":8538:8545   */\n      dup8\n        /* \"#utility.yul\":8529:8535   */\n      dup3\n        /* \"#utility.yul\":8518:8527   */\n      dup9\n        /* \"#utility.yul\":8514:8536   */\n      add\n        /* \"#utility.yul\":8484:8546   */\n      tag_377\n      jump\t// in\n    tag_495:\n        /* \"#utility.yul\":8474:8546   */\n      swap2\n      pop\n        /* \"#utility.yul\":8269:8556   */\n      pop\n        /* \"#utility.yul\":7620:8563   */\n      swap3\n      swap6\n      swap2\n      swap5\n      pop\n      swap3\n      pop\n      jump\t// out\n        /* \"#utility.yul\":8569:9334   */\n    tag_70:\n        /* \"#utility.yul\":8655:8661   */\n      0x00\n        /* \"#utility.yul\":8663:8669   */\n      dup1\n        /* \"#utility.yul\":8671:8677   */\n      0x00\n        /* \"#utility.yul\":8679:8685   */\n      dup1\n        /* \"#utility.yul\":8728:8731   */\n      0x80\n        /* \"#utility.yul\":8716:8725   */\n      dup6\n        /* \"#utility.yul\":8707:8714   */\n      dup8\n        /* \"#utility.yul\":8703:8726   */\n      sub\n        /* \"#utility.yul\":8699:8732   */\n      slt\n        /* \"#utility.yul\":8696:8816   */\n      iszero\n      tag_497\n      jumpi\n        /* \"#utility.yul\":8735:8814   */\n      tag_498\n      tag_349\n      jump\t// in\n    tag_498:\n        /* \"#utility.yul\":8696:8816   */\n    tag_497:\n        /* \"#utility.yul\":8855:8856   */\n      0x00\n        /* \"#utility.yul\":8880:8933   */\n      tag_499\n        /* \"#utility.yul\":8925:8932   */\n      dup8\n        /* \"#utility.yul\":8916:8922   */\n      dup3\n        /* \"#utility.yul\":8905:8914   */\n      dup9\n        /* \"#utility.yul\":8901:8923   */\n      add\n        /* \"#utility.yul\":8880:8933   */\n      tag_368\n      jump\t// in\n    tag_499:\n        /* \"#utility.yul\":8870:8933   */\n      swap5\n      pop\n        /* \"#utility.yul\":8826:8943   */\n      pop\n        /* \"#utility.yul\":8982:8984   */\n      0x20\n        /* \"#utility.yul\":9008:9061   */\n      tag_500\n        /* \"#utility.yul\":9053:9060   */\n      dup8\n        /* \"#utility.yul\":9044:9050   */\n      dup3\n        /* \"#utility.yul\":9033:9042   */\n      dup9\n        /* \"#utility.yul\":9029:9051   */\n      add\n        /* \"#utility.yul\":9008:9061   */\n      tag_368\n      jump\t// in\n    tag_500:\n        /* \"#utility.yul\":8998:9061   */\n      swap4\n      pop\n        /* \"#utility.yul\":8953:9071   */\n      pop\n        /* \"#utility.yul\":9110:9112   */\n      0x40\n        /* \"#utility.yul\":9136:9189   */\n      tag_501\n        /* \"#utility.yul\":9181:9188   */\n      dup8\n        /* \"#utility.yul\":9172:9178   */\n      dup3\n        /* \"#utility.yul\":9161:9170   */\n      dup9\n        /* \"#utility.yul\":9157:9179   */\n      add\n        /* \"#utility.yul\":9136:9189   */\n      tag_363\n      jump\t// in\n    tag_501:\n        /* \"#utility.yul\":9126:9189   */\n      swap3\n      pop\n        /* \"#utility.yul\":9081:9199   */\n      pop\n        /* \"#utility.yul\":9238:9240   */\n      0x60\n        /* \"#utility.yul\":9264:9317   */\n      tag_502\n        /* \"#utility.yul\":9309:9316   */\n      dup8\n        /* \"#utility.yul\":9300:9306   */\n      dup3\n        /* \"#utility.yul\":9289:9298   */\n      dup9\n        /* \"#utility.yul\":9285:9307   */\n      add\n        /* \"#utility.yul\":9264:9317   */\n      tag_363\n      jump\t// in\n    tag_502:\n        /* \"#utility.yul\":9254:9317   */\n      swap2\n      pop\n        /* \"#utility.yul\":9209:9327   */\n      pop\n        /* \"#utility.yul\":8569:9334   */\n      swap3\n      swap6\n      swap2\n      swap5\n      pop\n      swap3\n      pop\n      jump\t// out\n        /* \"#utility.yul\":9340:10137   */\n    tag_95:\n        /* \"#utility.yul\":9426:9432   */\n      0x00\n        /* \"#utility.yul\":9434:9440   */\n      dup1\n        /* \"#utility.yul\":9442:9448   */\n      0x00\n        /* \"#utility.yul\":9491:9493   */\n      0x60\n        /* \"#utility.yul\":9479:9488   */\n      dup5\n        /* \"#utility.yul\":9470:9477   */\n      dup7\n        /* \"#utility.yul\":9466:9489   */\n      sub\n        /* \"#utility.yul\":9462:9494   */\n      slt\n        /* \"#utility.yul\":9459:9578   */\n      iszero\n      tag_504\n      jumpi\n        /* \"#utility.yul\":9497:9576   */\n      tag_505\n      tag_349\n      jump\t// in\n    tag_505:\n        /* \"#utility.yul\":9459:9578   */\n    tag_504:\n        /* \"#utility.yul\":9617:9618   */\n      0x00\n        /* \"#utility.yul\":9642:9695   */\n      tag_506\n        /* \"#utility.yul\":9687:9694   */\n      dup7\n        /* \"#utility.yul\":9678:9684   */\n      dup3\n        /* \"#utility.yul\":9667:9676   */\n      dup8\n        /* \"#utility.yul\":9663:9685   */\n      add\n        /* \"#utility.yul\":9642:9695   */\n      tag_368\n      jump\t// in\n    tag_506:\n        /* \"#utility.yul\":9632:9695   */\n      swap4\n      pop\n        /* \"#utility.yul\":9588:9705   */\n      pop\n        /* \"#utility.yul\":9744:9746   */\n      0x20\n        /* \"#utility.yul\":9770:9823   */\n      tag_507\n        /* \"#utility.yul\":9815:9822   */\n      dup7\n        /* \"#utility.yul\":9806:9812   */\n      dup3\n        /* \"#utility.yul\":9795:9804   */\n      dup8\n        /* \"#utility.yul\":9791:9813   */\n      add\n        /* \"#utility.yul\":9770:9823   */\n      tag_363\n      jump\t// in\n    tag_507:\n        /* \"#utility.yul\":9760:9823   */\n      swap3\n      pop\n        /* \"#utility.yul\":9715:9833   */\n      pop\n        /* \"#utility.yul\":9900:9902   */\n      0x40\n        /* \"#utility.yul\":9889:9898   */\n      dup5\n        /* \"#utility.yul\":9885:9903   */\n      add\n        /* \"#utility.yul\":9872:9904   */\n      calldataload\n        /* \"#utility.yul\":9931:9949   */\n      0xffffffffffffffff\n        /* \"#utility.yul\":9923:9929   */\n      dup2\n        /* \"#utility.yul\":9920:9950   */\n      gt\n        /* \"#utility.yul\":9917:10034   */\n      iszero\n      tag_508\n      jumpi\n        /* \"#utility.yul\":9953:10032   */\n      tag_509\n      tag_350\n      jump\t// in\n    tag_509:\n        /* \"#utility.yul\":9917:10034   */\n    tag_508:\n        /* \"#utility.yul\":10058:10120   */\n      tag_510\n        /* \"#utility.yul\":10112:10119   */\n      dup7\n        /* \"#utility.yul\":10103:10109   */\n      dup3\n        /* \"#utility.yul\":10092:10101   */\n      dup8\n        /* \"#utility.yul\":10088:10110   */\n      add\n        /* \"#utility.yul\":10058:10120   */\n      tag_377\n      jump\t// in\n    tag_510:\n        /* \"#utility.yul\":10048:10120   */\n      swap2\n      pop\n        /* \"#utility.yul\":9843:10130   */\n      pop\n        /* \"#utility.yul\":9340:10137   */\n      swap3\n      pop\n      swap3\n      pop\n      swap3\n      jump\t// out\n        /* \"#utility.yul\":10143:10472   */\n    tag_99:\n        /* \"#utility.yul\":10202:10208   */\n      0x00\n        /* \"#utility.yul\":10251:10253   */\n      0x20\n        /* \"#utility.yul\":10239:10248   */\n      dup3\n        /* \"#utility.yul\":10230:10237   */\n      dup5\n        /* \"#utility.yul\":10226:10249   */\n      sub\n        /* \"#utility.yul\":10222:10254   */\n      slt\n        /* \"#utility.yul\":10219:10338   */\n      iszero\n      tag_512\n      jumpi\n        /* \"#utility.yul\":10257:10336   */\n      tag_513\n      tag_349\n      jump\t// in\n    tag_513:\n        /* \"#utility.yul\":10219:10338   */\n    tag_512:\n        /* \"#utility.yul\":10377:10378   */\n      0x00\n        /* \"#utility.yul\":10402:10455   */\n      tag_514\n        /* \"#utility.yul\":10447:10454   */\n      dup5\n        /* \"#utility.yul\":10438:10444   */\n      dup3\n        /* \"#utility.yul\":10427:10436   */\n      dup6\n        /* \"#utility.yul\":10423:10445   */\n      add\n        /* \"#utility.yul\":10402:10455   */\n      tag_368\n      jump\t// in\n    tag_514:\n        /* \"#utility.yul\":10392:10455   */\n      swap2\n      pop\n        /* \"#utility.yul\":10348:10465   */\n      pop\n        /* \"#utility.yul\":10143:10472   */\n      swap3\n      swap2\n      pop\n      pop\n      jump\t// out\n        /* \"#utility.yul\":10478:10596   */\n    tag_378:\n        /* \"#utility.yul\":10565:10589   */\n      tag_516\n        /* \"#utility.yul\":10583:10588   */\n      dup2\n        /* \"#utility.yul\":10565:10589   */\n      tag_361\n      jump\t// in\n    tag_516:\n        /* \"#utility.yul\":10560:10563   */\n      dup3\n        /* \"#utility.yul\":10553:10590   */\n      mstore\n        /* \"#utility.yul\":10478:10596   */\n      pop\n      pop\n      jump\t// out\n        /* \"#utility.yul\":10602:10824   */\n    tag_102:\n        /* \"#utility.yul\":10695:10699   */\n      0x00\n        /* \"#utility.yul\":10733:10735   */\n      0x20\n        /* \"#utility.yul\":10722:10731   */\n      dup3\n        /* \"#utility.yul\":10718:10736   */\n      add\n        /* \"#utility.yul\":10710:10736   */\n      swap1\n      pop\n        /* \"#utility.yul\":10746:10817   */\n      tag_518\n        /* \"#utility.yul\":10814:10815   */\n      0x00\n        /* \"#utility.yul\":10803:10812   */\n      dup4\n        /* \"#utility.yul\":10799:10816   */\n      add\n        /* \"#utility.yul\":10790:10796   */\n      dup5\n        /* \"#utility.yul\":10746:10817   */\n      tag_378\n      jump\t// in\n    tag_518:\n        /* \"#utility.yul\":10602:10824   */\n      swap3\n      swap2\n      pop\n      pop\n      jump\t// out\n        /* \"#utility.yul\":10830:10946   */\n    tag_379:\n        /* \"#utility.yul\":10900:10921   */\n      tag_520\n        /* \"#utility.yul\":10915:10920   */\n      dup2\n        /* \"#utility.yul\":10900:10921   */\n      tag_354\n      jump\t// in\n    tag_520:\n        /* \"#utility.yul\":10893:10898   */\n      dup2\n        /* \"#utility.yul\":10890:10922   */\n      eq\n        /* \"#utility.yul\":10880:10940   */\n      tag_521\n      jumpi\n        /* \"#utility.yul\":10936:10937   */\n      0x00\n        /* \"#utility.yul\":10933:10934   */\n      dup1\n        /* \"#utility.yul\":10926:10938   */\n      revert\n        /* \"#utility.yul\":10880:10940   */\n    tag_521:\n        /* \"#utility.yul\":10830:10946   */\n      pop\n      jump\t// out\n        /* \"#utility.yul\":10952:11085   */\n    tag_380:\n        /* \"#utility.yul\":10995:11000   */\n      0x00\n        /* \"#utility.yul\":11033:11039   */\n      dup2\n        /* \"#utility.yul\":11020:11040   */\n      calldataload\n        /* \"#utility.yul\":11011:11040   */\n      swap1\n      pop\n        /* \"#utility.yul\":11049:11079   */\n      tag_523\n        /* \"#utility.yul\":11073:11078   */\n      dup2\n        /* \"#utility.yul\":11049:11079   */\n      tag_379\n      jump\t// in\n    tag_523:\n        /* \"#utility.yul\":10952:11085   */\n      swap3\n      swap2\n      pop\n      pop\n      jump\t// out\n        /* \"#utility.yul\":11091:11704   */\n    tag_111:\n        /* \"#utility.yul\":11165:11171   */\n      0x00\n        /* \"#utility.yul\":11173:11179   */\n      dup1\n        /* \"#utility.yul\":11181:11187   */\n      0x00\n        /* \"#utility.yul\":11230:11232   */\n      0x60\n        /* \"#utility.yul\":11218:11227   */\n      dup5\n        /* \"#utility.yul\":11209:11216   */\n      dup7\n        /* \"#utility.yul\":11205:11228   */\n      sub\n        /* \"#utility.yul\":11201:11233   */\n      slt\n        /* \"#utility.yul\":11198:11317   */\n      iszero\n      tag_525\n      jumpi\n        /* \"#utility.yul\":11236:11315   */\n      tag_526\n      tag_349\n      jump\t// in\n    tag_526:\n        /* \"#utility.yul\":11198:11317   */\n    tag_525:\n        /* \"#utility.yul\":11356:11357   */\n      0x00\n        /* \"#utility.yul\":11381:11434   */\n      tag_527\n        /* \"#utility.yul\":11426:11433   */\n      dup7\n        /* \"#utility.yul\":11417:11423   */\n      dup3\n        /* \"#utility.yul\":11406:11415   */\n      dup8\n        /* \"#utility.yul\":11402:11424   */\n      add\n        /* \"#utility.yul\":11381:11434   */\n      tag_368\n      jump\t// in\n    tag_527:\n        /* \"#utility.yul\":11371:11434   */\n      swap4\n      pop\n        /* \"#utility.yul\":11327:11444   */\n      pop\n        /* \"#utility.yul\":11483:11485   */\n      0x20\n        /* \"#utility.yul\":11509:11562   */\n      tag_528\n        /* \"#utility.yul\":11554:11561   */\n      dup7\n        /* \"#utility.yul\":11545:11551   */\n      dup3\n        /* \"#utility.yul\":11534:11543   */\n      dup8\n        /* \"#utility.yul\":11530:11552   */\n      add\n        /* \"#utility.yul\":11509:11562   */\n      tag_368\n      jump\t// in\n    tag_528:\n        /* \"#utility.yul\":11499:11562   */\n      swap3\n      pop\n        /* \"#utility.yul\":11454:11572   */\n      pop\n        /* \"#utility.yul\":11611:11613   */\n      0x40\n        /* \"#utility.yul\":11637:11687   */\n      tag_529\n        /* \"#utility.yul\":11679:11686   */\n      dup7\n        /* \"#utility.yul\":11670:11676   */\n      dup3\n        /* \"#utility.yul\":11659:11668   */\n      dup8\n        /* \"#utility.yul\":11655:11677   */\n      add\n        /* \"#utility.yul\":11637:11687   */\n      tag_380\n      jump\t// in\n    tag_529:\n        /* \"#utility.yul\":11627:11687   */\n      swap2\n      pop\n        /* \"#utility.yul\":11582:11697   */\n      pop\n        /* \"#utility.yul\":11091:11704   */\n      swap3\n      pop\n      swap3\n      pop\n      swap3\n      jump\t// out\n        /* \"#utility.yul\":11710:12178   */\n    tag_130:\n        /* \"#utility.yul\":11775:11781   */\n      0x00\n        /* \"#utility.yul\":11783:11789   */\n      dup1\n        /* \"#utility.yul\":11832:11834   */\n      0x40\n        /* \"#utility.yul\":11820:11829   */\n      dup4\n        /* \"#utility.yul\":11811:11818   */\n      dup6\n        /* \"#utility.yul\":11807:11830   */\n      sub\n        /* \"#utility.yul\":11803:11835   */\n      slt\n        /* \"#utility.yul\":11800:11919   */\n      iszero\n      tag_531\n      jumpi\n        /* \"#utility.yul\":11838:11917   */\n      tag_532\n      tag_349\n      jump\t// in\n    tag_532:\n        /* \"#utility.yul\":11800:11919   */\n    tag_531:\n        /* \"#utility.yul\":11958:11959   */\n      0x00\n        /* \"#utility.yul\":11983:12036   */\n      tag_533\n        /* \"#utility.yul\":12028:12035   */\n      dup6\n        /* \"#utility.yul\":12019:12025   */\n      dup3\n        /* \"#utility.yul\":12008:12017   */\n      dup7\n        /* \"#utility.yul\":12004:12026   */\n      add\n        /* \"#utility.yul\":11983:12036   */\n      tag_368\n      jump\t// in\n    tag_533:\n        /* \"#utility.yul\":11973:12036   */\n      swap3\n      pop\n        /* \"#utility.yul\":11929:12046   */\n      pop\n        /* \"#utility.yul\":12085:12087   */\n      0x20\n        /* \"#utility.yul\":12111:12161   */\n      tag_534\n        /* \"#utility.yul\":12153:12160   */\n      dup6\n        /* \"#utility.yul\":12144:12150   */\n      dup3\n        /* \"#utility.yul\":12133:12142   */\n      dup7\n        /* \"#utility.yul\":12129:12151   */\n      add\n        /* \"#utility.yul\":12111:12161   */\n      tag_380\n      jump\t// in\n    tag_534:\n        /* \"#utility.yul\":12101:12161   */\n      swap2\n      pop\n        /* \"#utility.yul\":12056:12171   */\n      pop\n        /* \"#utility.yul\":11710:12178   */\n      swap3\n      pop\n      swap3\n      swap1\n      pop\n      jump\t// out\n        /* \"#utility.yul\":12184:12658   */\n    tag_144:\n        /* \"#utility.yul\":12252:12258   */\n      0x00\n        /* \"#utility.yul\":12260:12266   */\n      dup1\n        /* \"#utility.yul\":12309:12311   */\n      0x40\n        /* \"#utility.yul\":12297:12306   */\n      dup4\n        /* \"#utility.yul\":12288:12295   */\n      dup6\n        /* \"#utility.yul\":12284:12307   */\n      sub\n        /* \"#utility.yul\":12280:12312   */\n      slt\n        /* \"#utility.yul\":12277:12396   */\n      iszero\n      tag_536\n      jumpi\n        /* \"#utility.yul\":12315:12394   */\n      tag_537\n      tag_349\n      jump\t// in\n    tag_537:\n        /* \"#utility.yul\":12277:12396   */\n    tag_536:\n        /* \"#utility.yul\":12435:12436   */\n      0x00\n        /* \"#utility.yul\":12460:12513   */\n      tag_538\n        /* \"#utility.yul\":12505:12512   */\n      dup6\n        /* \"#utility.yul\":12496:12502   */\n      dup3\n        /* \"#utility.yul\":12485:12494   */\n      dup7\n        /* \"#utility.yul\":12481:12503   */\n      add\n        /* \"#utility.yul\":12460:12513   */\n      tag_368\n      jump\t// in\n    tag_538:\n        /* \"#utility.yul\":12450:12513   */\n      swap3\n      pop\n        /* \"#utility.yul\":12406:12523   */\n      pop\n        /* \"#utility.yul\":12562:12564   */\n      0x20\n        /* \"#utility.yul\":12588:12641   */\n      tag_539\n        /* \"#utility.yul\":12633:12640   */\n      dup6\n        /* \"#utility.yul\":12624:12630   */\n      dup3\n        /* \"#utility.yul\":12613:12622   */\n      dup7\n        /* \"#utility.yul\":12609:12631   */\n      add\n        /* \"#utility.yul\":12588:12641   */\n      tag_368\n      jump\t// in\n    tag_539:\n        /* \"#utility.yul\":12578:12641   */\n      swap2\n      pop\n        /* \"#utility.yul\":12533:12651   */\n      pop\n        /* \"#utility.yul\":12184:12658   */\n      swap3\n      pop\n      swap3\n      swap1\n      pop\n      jump\t// out\n        /* \"#utility.yul\":12664:12779   */\n    tag_381:\n        /* \"#utility.yul\":12749:12772   */\n      tag_541\n        /* \"#utility.yul\":12766:12771   */\n      dup2\n        /* \"#utility.yul\":12749:12772   */\n      tag_351\n      jump\t// in\n    tag_541:\n        /* \"#utility.yul\":12744:12747   */\n      dup3\n        /* \"#utility.yul\":12737:12773   */\n      mstore\n        /* \"#utility.yul\":12664:12779   */\n      pop\n      pop\n      jump\t// out\n        /* \"#utility.yul\":12785:13003   */\n    tag_156:\n        /* \"#utility.yul\":12876:12880   */\n      0x00\n        /* \"#utility.yul\":12914:12916   */\n      0x20\n        /* \"#utility.yul\":12903:12912   */\n      dup3\n        /* \"#utility.yul\":12899:12917   */\n      add\n        /* \"#utility.yul\":12891:12917   */\n      swap1\n      pop\n        /* \"#utility.yul\":12927:12996   */\n      tag_543\n        /* \"#utility.yul\":12993:12994   */\n      0x00\n        /* \"#utility.yul\":12982:12991   */\n      dup4\n        /* \"#utility.yul\":12978:12995   */\n      add\n        /* \"#utility.yul\":12969:12975   */\n      dup5\n        /* \"#utility.yul\":12927:12996   */\n      tag_381\n      jump\t// in\n    tag_543:\n        /* \"#utility.yul\":12785:13003   */\n      swap3\n      swap2\n      pop\n      pop\n      jump\t// out\n        /* \"#utility.yul\":13009:13107   */\n    tag_382:\n        /* \"#utility.yul\":13060:13066   */\n      0x00\n        /* \"#utility.yul\":13094:13099   */\n      dup2\n        /* \"#utility.yul\":13088:13100   */\n      mload\n        /* \"#utility.yul\":13078:13100   */\n      swap1\n      pop\n        /* \"#utility.yul\":13009:13107   */\n      swap2\n      swap1\n      pop\n      jump\t// out\n        /* \"#utility.yul\":13113:13260   */\n    tag_383:\n        /* \"#utility.yul\":13214:13225   */\n      0x00\n        /* \"#utility.yul\":13251:13254   */\n      dup2\n        /* \"#utility.yul\":13236:13254   */\n      swap1\n      pop\n        /* \"#utility.yul\":13113:13260   */\n      swap3\n      swap2\n      pop\n      pop\n      jump\t// out\n        /* \"#utility.yul\":13266:13652   */\n    tag_384:\n        /* \"#utility.yul\":13370:13373   */\n      0x00\n        /* \"#utility.yul\":13398:13436   */\n      tag_547\n        /* \"#utility.yul\":13430:13435   */\n      dup3\n        /* \"#utility.yul\":13398:13436   */\n      tag_382\n      jump\t// in\n    tag_547:\n        /* \"#utility.yul\":13452:13540   */\n      tag_548\n        /* \"#utility.yul\":13533:13539   */\n      dup2\n        /* \"#utility.yul\":13528:13531   */\n      dup6\n        /* \"#utility.yul\":13452:13540   */\n      tag_383\n      jump\t// in\n    tag_548:\n        /* \"#utility.yul\":13445:13540   */\n      swap4\n      pop\n        /* \"#utility.yul\":13549:13614   */\n      tag_549\n        /* \"#utility.yul\":13607:13613   */\n      dup2\n        /* \"#utility.yul\":13602:13605   */\n      dup6\n        /* \"#utility.yul\":13595:13599   */\n      0x20\n        /* \"#utility.yul\":13588:13593   */\n      dup7\n        /* \"#utility.yul\":13584:13600   */\n      add\n        /* \"#utility.yul\":13549:13614   */\n      tag_358\n      jump\t// in\n    tag_549:\n        /* \"#utility.yul\":13639:13645   */\n      dup1\n        /* \"#utility.yul\":13634:13637   */\n      dup5\n        /* \"#utility.yul\":13630:13646   */\n      add\n        /* \"#utility.yul\":13623:13646   */\n      swap2\n      pop\n        /* \"#utility.yul\":13374:13652   */\n      pop\n        /* \"#utility.yul\":13266:13652   */\n      swap3\n      swap2\n      pop\n      pop\n      jump\t// out\n        /* \"#utility.yul\":13658:13929   */\n    tag_158:\n        /* \"#utility.yul\":13788:13791   */\n      0x00\n        /* \"#utility.yul\":13810:13903   */\n      tag_551\n        /* \"#utility.yul\":13899:13902   */\n      dup3\n        /* \"#utility.yul\":13890:13896   */\n      dup5\n        /* \"#utility.yul\":13810:13903   */\n      tag_384\n      jump\t// in\n    tag_551:\n        /* \"#utility.yul\":13803:13903   */\n      swap2\n      pop\n        /* \"#utility.yul\":13920:13923   */\n      dup2\n        /* \"#utility.yul\":13913:13923   */\n      swap1\n      pop\n        /* \"#utility.yul\":13658:13929   */\n      swap3\n      swap2\n      pop\n      pop\n      jump\t// out\n        /* \"#utility.yul\":13935:14072   */\n    tag_385:\n        /* \"#utility.yul\":13989:13994   */\n      0x00\n        /* \"#utility.yul\":14020:14026   */\n      dup2\n        /* \"#utility.yul\":14014:14027   */\n      mload\n        /* \"#utility.yul\":14005:14027   */\n      swap1\n      pop\n        /* \"#utility.yul\":14036:14066   */\n      tag_553\n        /* \"#utility.yul\":14060:14065   */\n      dup2\n        /* \"#utility.yul\":14036:14066   */\n      tag_379\n      jump\t// in\n    tag_553:\n        /* \"#utility.yul\":13935:14072   */\n      swap3\n      swap2\n      pop\n      pop\n      jump\t// out\n        /* \"#utility.yul\":14078:14423   */\n    tag_164:\n        /* \"#utility.yul\":14145:14151   */\n      0x00\n        /* \"#utility.yul\":14194:14196   */\n      0x20\n        /* \"#utility.yul\":14182:14191   */\n      dup3\n        /* \"#utility.yul\":14173:14180   */\n      dup5\n        /* \"#utility.yul\":14169:14192   */\n      sub\n        /* \"#utility.yul\":14165:14197   */\n      slt\n        /* \"#utility.yul\":14162:14281   */\n      iszero\n      tag_555\n      jumpi\n        /* \"#utility.yul\":14200:14279   */\n      tag_556\n      tag_349\n      jump\t// in\n    tag_556:\n        /* \"#utility.yul\":14162:14281   */\n    tag_555:\n        /* \"#utility.yul\":14320:14321   */\n      0x00\n        /* \"#utility.yul\":14345:14406   */\n      tag_557\n        /* \"#utility.yul\":14398:14405   */\n      dup5\n        /* \"#utility.yul\":14389:14395   */\n      dup3\n        /* \"#utility.yul\":14378:14387   */\n      dup6\n        /* \"#utility.yul\":14374:14396   */\n      add\n        /* \"#utility.yul\":14345:14406   */\n      tag_385\n      jump\t// in\n    tag_557:\n        /* \"#utility.yul\":14335:14406   */\n      swap2\n      pop\n        /* \"#utility.yul\":14291:14416   */\n      pop\n        /* \"#utility.yul\":14078:14423   */\n      swap3\n      swap2\n      pop\n      pop\n      jump\t// out\n        /* \"#utility.yul\":14429:14737   */\n    tag_386:\n        /* \"#utility.yul\":14491:14495   */\n      0x00\n        /* \"#utility.yul\":14581:14599   */\n      0xffffffffffffffff\n        /* \"#utility.yul\":14573:14579   */\n      dup3\n        /* \"#utility.yul\":14570:14600   */\n      gt\n        /* \"#utility.yul\":14567:14623   */\n      iszero\n      tag_559\n      jumpi\n        /* \"#utility.yul\":14603:14621   */\n      tag_560\n      tag_371\n      jump\t// in\n    tag_560:\n        /* \"#utility.yul\":14567:14623   */\n    tag_559:\n        /* \"#utility.yul\":14641:14670   */\n      tag_561\n        /* \"#utility.yul\":14663:14669   */\n      dup3\n        /* \"#utility.yul\":14641:14670   */\n      tag_359\n      jump\t// in\n    tag_561:\n        /* \"#utility.yul\":14633:14670   */\n      swap1\n      pop\n        /* \"#utility.yul\":14725:14729   */\n      0x20\n        /* \"#utility.yul\":14719:14723   */\n      dup2\n        /* \"#utility.yul\":14715:14730   */\n      add\n        /* \"#utility.yul\":14707:14730   */\n      swap1\n      pop\n        /* \"#utility.yul\":14429:14737   */\n      swap2\n      swap1\n      pop\n      jump\t// out\n        /* \"#utility.yul\":14743:15177   */\n    tag_387:\n        /* \"#utility.yul\":14832:14837   */\n      0x00\n        /* \"#utility.yul\":14857:14923   */\n      tag_563\n        /* \"#utility.yul\":14873:14922   */\n      tag_564\n        /* \"#utility.yul\":14915:14921   */\n      dup5\n        /* \"#utility.yul\":14873:14922   */\n      tag_386\n      jump\t// in\n    tag_564:\n        /* \"#utility.yul\":14857:14923   */\n      tag_373\n      jump\t// in\n    tag_563:\n        /* \"#utility.yul\":14848:14923   */\n      swap1\n      pop\n        /* \"#utility.yul\":14946:14952   */\n      dup3\n        /* \"#utility.yul\":14939:14944   */\n      dup2\n        /* \"#utility.yul\":14932:14953   */\n      mstore\n        /* \"#utility.yul\":14984:14988   */\n      0x20\n        /* \"#utility.yul\":14977:14982   */\n      dup2\n        /* \"#utility.yul\":14973:14989   */\n      add\n        /* \"#utility.yul\":15022:15025   */\n      dup5\n        /* \"#utility.yul\":15013:15019   */\n      dup5\n        /* \"#utility.yul\":15008:15011   */\n      dup5\n        /* \"#utility.yul\":15004:15020   */\n      add\n        /* \"#utility.yul\":15001:15026   */\n      gt\n        /* \"#utility.yul\":14998:15110   */\n      iszero\n      tag_565\n      jumpi\n        /* \"#utility.yul\":15029:15108   */\n      tag_566\n      tag_370\n      jump\t// in\n    tag_566:\n        /* \"#utility.yul\":14998:15110   */\n    tag_565:\n        /* \"#utility.yul\":15119:15171   */\n      tag_567\n        /* \"#utility.yul\":15164:15170   */\n      dup5\n        /* \"#utility.yul\":15159:15162   */\n      dup3\n        /* \"#utility.yul\":15154:15157   */\n      dup6\n        /* \"#utility.yul\":15119:15171   */\n      tag_358\n      jump\t// in\n    tag_567:\n        /* \"#utility.yul\":14838:15177   */\n      pop\n        /* \"#utility.yul\":14743:15177   */\n      swap4\n      swap3\n      pop\n      pop\n      pop\n      jump\t// out\n        /* \"#utility.yul\":15197:15552   */\n    tag_388:\n        /* \"#utility.yul\":15264:15269   */\n      0x00\n        /* \"#utility.yul\":15313:15316   */\n      dup3\n        /* \"#utility.yul\":15306:15310   */\n      0x1f\n        /* \"#utility.yul\":15298:15304   */\n      dup4\n        /* \"#utility.yul\":15294:15311   */\n      add\n        /* \"#utility.yul\":15290:15317   */\n      slt\n        /* \"#utility.yul\":15280:15402   */\n      tag_569\n      jumpi\n        /* \"#utility.yul\":15321:15400   */\n      tag_570\n      tag_369\n      jump\t// in\n    tag_570:\n        /* \"#utility.yul\":15280:15402   */\n    tag_569:\n        /* \"#utility.yul\":15431:15437   */\n      dup2\n        /* \"#utility.yul\":15425:15438   */\n      mload\n        /* \"#utility.yul\":15456:15546   */\n      tag_571\n        /* \"#utility.yul\":15542:15545   */\n      dup5\n        /* \"#utility.yul\":15534:15540   */\n      dup3\n        /* \"#utility.yul\":15527:15531   */\n      0x20\n        /* \"#utility.yul\":15519:15525   */\n      dup7\n        /* \"#utility.yul\":15515:15532   */\n      add\n        /* \"#utility.yul\":15456:15546   */\n      tag_387\n      jump\t// in\n    tag_571:\n        /* \"#utility.yul\":15447:15546   */\n      swap2\n      pop\n        /* \"#utility.yul\":15270:15552   */\n      pop\n        /* \"#utility.yul\":15197:15552   */\n      swap3\n      swap2\n      pop\n      pop\n      jump\t// out\n        /* \"#utility.yul\":15558:16082   */\n    tag_172:\n        /* \"#utility.yul\":15638:15644   */\n      0x00\n        /* \"#utility.yul\":15687:15689   */\n      0x20\n        /* \"#utility.yul\":15675:15684   */\n      dup3\n        /* \"#utility.yul\":15666:15673   */\n      dup5\n        /* \"#utility.yul\":15662:15685   */\n      sub\n        /* \"#utility.yul\":15658:15690   */\n      slt\n        /* \"#utility.yul\":15655:15774   */\n      iszero\n      tag_573\n      jumpi\n        /* \"#utility.yul\":15693:15772   */\n      tag_574\n      tag_349\n      jump\t// in\n    tag_574:\n        /* \"#utility.yul\":15655:15774   */\n    tag_573:\n        /* \"#utility.yul\":15834:15835   */\n      0x00\n        /* \"#utility.yul\":15823:15832   */\n      dup3\n        /* \"#utility.yul\":15819:15836   */\n      add\n        /* \"#utility.yul\":15813:15837   */\n      mload\n        /* \"#utility.yul\":15864:15882   */\n      0xffffffffffffffff\n        /* \"#utility.yul\":15856:15862   */\n      dup2\n        /* \"#utility.yul\":15853:15883   */\n      gt\n        /* \"#utility.yul\":15850:15967   */\n      iszero\n      tag_575\n      jumpi\n        /* \"#utility.yul\":15886:15965   */\n      tag_576\n      tag_350\n      jump\t// in\n    tag_576:\n        /* \"#utility.yul\":15850:15967   */\n    tag_575:\n        /* \"#utility.yul\":15991:16065   */\n      tag_577\n        /* \"#utility.yul\":16057:16064   */\n      dup5\n        /* \"#utility.yul\":16048:16054   */\n      dup3\n        /* \"#utility.yul\":16037:16046   */\n      dup6\n        /* \"#utility.yul\":16033:16055   */\n      add\n        /* \"#utility.yul\":15991:16065   */\n      tag_388\n      jump\t// in\n    tag_577:\n        /* \"#utility.yul\":15981:16065   */\n      swap2\n      pop\n        /* \"#utility.yul\":15784:16075   */\n      pop\n        /* \"#utility.yul\":15558:16082   */\n      swap3\n      swap2\n      pop\n      pop\n      jump\t// out\n        /* \"#utility.yul\":16088:16192   */\n    tag_389:\n        /* \"#utility.yul\":16133:16140   */\n      0x00\n        /* \"#utility.yul\":16162:16186   */\n      tag_579\n        /* \"#utility.yul\":16180:16185   */\n      dup3\n        /* \"#utility.yul\":16162:16186   */\n      tag_364\n      jump\t// in\n    tag_579:\n        /* \"#utility.yul\":16151:16186   */\n      swap1\n      pop\n        /* \"#utility.yul\":16088:16192   */\n      swap2\n      swap1\n      pop\n      jump\t// out\n        /* \"#utility.yul\":16198:16336   */\n    tag_390:\n        /* \"#utility.yul\":16279:16311   */\n      tag_581\n        /* \"#utility.yul\":16305:16310   */\n      dup2\n        /* \"#utility.yul\":16279:16311   */\n      tag_389\n      jump\t// in\n    tag_581:\n        /* \"#utility.yul\":16272:16277   */\n      dup2\n        /* \"#utility.yul\":16269:16312   */\n      eq\n        /* \"#utility.yul\":16259:16330   */\n      tag_582\n      jumpi\n        /* \"#utility.yul\":16326:16327   */\n      0x00\n        /* \"#utility.yul\":16323:16324   */\n      dup1\n        /* \"#utility.yul\":16316:16328   */\n      revert\n        /* \"#utility.yul\":16259:16330   */\n    tag_582:\n        /* \"#utility.yul\":16198:16336   */\n      pop\n      jump\t// out\n        /* \"#utility.yul\":16342:16501   */\n    tag_391:\n        /* \"#utility.yul\":16407:16412   */\n      0x00\n        /* \"#utility.yul\":16438:16444   */\n      dup2\n        /* \"#utility.yul\":16432:16445   */\n      mload\n        /* \"#utility.yul\":16423:16445   */\n      swap1\n      pop\n        /* \"#utility.yul\":16454:16495   */\n      tag_584\n        /* \"#utility.yul\":16489:16494   */\n      dup2\n        /* \"#utility.yul\":16454:16495   */\n      tag_390\n      jump\t// in\n    tag_584:\n        /* \"#utility.yul\":16342:16501   */\n      swap3\n      swap2\n      pop\n      pop\n      jump\t// out\n        /* \"#utility.yul\":16507:16874   */\n    tag_181:\n        /* \"#utility.yul\":16585:16591   */\n      0x00\n        /* \"#utility.yul\":16634:16636   */\n      0x20\n        /* \"#utility.yul\":16622:16631   */\n      dup3\n        /* \"#utility.yul\":16613:16620   */\n      dup5\n        /* \"#utility.yul\":16609:16632   */\n      sub\n        /* \"#utility.yul\":16605:16637   */\n      slt\n        /* \"#utility.yul\":16602:16721   */\n      iszero\n      tag_586\n      jumpi\n        /* \"#utility.yul\":16640:16719   */\n      tag_587\n      tag_349\n      jump\t// in\n    tag_587:\n        /* \"#utility.yul\":16602:16721   */\n    tag_586:\n        /* \"#utility.yul\":16760:16761   */\n      0x00\n        /* \"#utility.yul\":16785:16857   */\n      tag_588\n        /* \"#utility.yul\":16849:16856   */\n      dup5\n        /* \"#utility.yul\":16840:16846   */\n      dup3\n        /* \"#utility.yul\":16829:16838   */\n      dup6\n        /* \"#utility.yul\":16825:16847   */\n      add\n        /* \"#utility.yul\":16785:16857   */\n      tag_391\n      jump\t// in\n    tag_588:\n        /* \"#utility.yul\":16775:16857   */\n      swap2\n      pop\n        /* \"#utility.yul\":16731:16867   */\n      pop\n        /* \"#utility.yul\":16507:16874   */\n      swap3\n      swap2\n      pop\n      pop\n      jump\t// out\n        /* \"#utility.yul\":16880:17212   */\n    tag_184:\n        /* \"#utility.yul\":17001:17005   */\n      0x00\n        /* \"#utility.yul\":17039:17041   */\n      0x40\n        /* \"#utility.yul\":17028:17037   */\n      dup3\n        /* \"#utility.yul\":17024:17042   */\n      add\n        /* \"#utility.yul\":17016:17042   */\n      swap1\n      pop\n        /* \"#utility.yul\":17052:17123   */\n      tag_590\n        /* \"#utility.yul\":17120:17121   */\n      0x00\n        /* \"#utility.yul\":17109:17118   */\n      dup4\n        /* \"#utility.yul\":17105:17122   */\n      add\n        /* \"#utility.yul\":17096:17102   */\n      dup6\n        /* \"#utility.yul\":17052:17123   */\n      tag_366\n      jump\t// in\n    tag_590:\n        /* \"#utility.yul\":17133:17205   */\n      tag_591\n        /* \"#utility.yul\":17201:17203   */\n      0x20\n        /* \"#utility.yul\":17190:17199   */\n      dup4\n        /* \"#utility.yul\":17186:17204   */\n      add\n        /* \"#utility.yul\":17177:17183   */\n      dup5\n        /* \"#utility.yul\":17133:17205   */\n      tag_378\n      jump\t// in\n    tag_591:\n        /* \"#utility.yul\":16880:17212   */\n      swap4\n      swap3\n      pop\n      pop\n      pop\n      jump\t// out\n        /* \"#utility.yul\":17218:17660   */\n    tag_191:\n        /* \"#utility.yul\":17367:17371   */\n      0x00\n        /* \"#utility.yul\":17405:17407   */\n      0x60\n        /* \"#utility.yul\":17394:17403   */\n      dup3\n        /* \"#utility.yul\":17390:17408   */\n      add\n        /* \"#utility.yul\":17382:17408   */\n      swap1\n      pop\n        /* \"#utility.yul\":17418:17489   */\n      tag_593\n        /* \"#utility.yul\":17486:17487   */\n      0x00\n        /* \"#utility.yul\":17475:17484   */\n      dup4\n        /* \"#utility.yul\":17471:17488   */\n      add\n        /* \"#utility.yul\":17462:17468   */\n      dup7\n        /* \"#utility.yul\":17418:17489   */\n      tag_366\n      jump\t// in\n    tag_593:\n        /* \"#utility.yul\":17499:17571   */\n      tag_594\n        /* \"#utility.yul\":17567:17569   */\n      0x20\n        /* \"#utility.yul\":17556:17565   */\n      dup4\n        /* \"#utility.yul\":17552:17570   */\n      add\n        /* \"#utility.yul\":17543:17549   */\n      dup6\n        /* \"#utility.yul\":17499:17571   */\n      tag_366\n      jump\t// in\n    tag_594:\n        /* \"#utility.yul\":17581:17653   */\n      tag_595\n        /* \"#utility.yul\":17649:17651   */\n      0x40\n        /* \"#utility.yul\":17638:17647   */\n      dup4\n        /* \"#utility.yul\":17634:17652   */\n      add\n        /* \"#utility.yul\":17625:17631   */\n      dup5\n        /* \"#utility.yul\":17581:17653   */\n      tag_378\n      jump\t// in\n    tag_595:\n        /* \"#utility.yul\":17218:17660   */\n      swap5\n      swap4\n      pop\n      pop\n      pop\n      pop\n      jump\t// out\n        /* \"#utility.yul\":17666:17834   */\n    tag_392:\n        /* \"#utility.yul\":17749:17760   */\n      0x00\n        /* \"#utility.yul\":17783:17789   */\n      dup3\n        /* \"#utility.yul\":17778:17781   */\n      dup3\n        /* \"#utility.yul\":17771:17790   */\n      mstore\n        /* \"#utility.yul\":17823:17827   */\n      0x20\n        /* \"#utility.yul\":17818:17821   */\n      dup3\n        /* \"#utility.yul\":17814:17828   */\n      add\n        /* \"#utility.yul\":17799:17828   */\n      swap1\n      pop\n        /* \"#utility.yul\":17666:17834   */\n      swap3\n      swap2\n      pop\n      pop\n      jump\t// out\n        /* \"#utility.yul\":17840:18213   */\n    tag_393:\n        /* \"#utility.yul\":17926:17929   */\n      0x00\n        /* \"#utility.yul\":17954:17992   */\n      tag_598\n        /* \"#utility.yul\":17986:17991   */\n      dup3\n        /* \"#utility.yul\":17954:17992   */\n      tag_382\n      jump\t// in\n    tag_598:\n        /* \"#utility.yul\":18008:18078   */\n      tag_599\n        /* \"#utility.yul\":18071:18077   */\n      dup2\n        /* \"#utility.yul\":18066:18069   */\n      dup6\n        /* \"#utility.yul\":18008:18078   */\n      tag_392\n      jump\t// in\n    tag_599:\n        /* \"#utility.yul\":18001:18078   */\n      swap4\n      pop\n        /* \"#utility.yul\":18087:18152   */\n      tag_600\n        /* \"#utility.yul\":18145:18151   */\n      dup2\n        /* \"#utility.yul\":18140:18143   */\n      dup6\n        /* \"#utility.yul\":18133:18137   */\n      0x20\n        /* \"#utility.yul\":18126:18131   */\n      dup7\n        /* \"#utility.yul\":18122:18138   */\n      add\n        /* \"#utility.yul\":18087:18152   */\n      tag_358\n      jump\t// in\n    tag_600:\n        /* \"#utility.yul\":18177:18206   */\n      tag_601\n        /* \"#utility.yul\":18199:18205   */\n      dup2\n        /* \"#utility.yul\":18177:18206   */\n      tag_359\n      jump\t// in\n    tag_601:\n        /* \"#utility.yul\":18172:18175   */\n      dup5\n        /* \"#utility.yul\":18168:18207   */\n      add\n        /* \"#utility.yul\":18161:18207   */\n      swap2\n      pop\n        /* \"#utility.yul\":17930:18213   */\n      pop\n        /* \"#utility.yul\":17840:18213   */\n      swap3\n      swap2\n      pop\n      pop\n      jump\t// out\n        /* \"#utility.yul\":18219:18859   */\n    tag_198:\n        /* \"#utility.yul\":18414:18418   */\n      0x00\n        /* \"#utility.yul\":18452:18455   */\n      0x80\n        /* \"#utility.yul\":18441:18450   */\n      dup3\n        /* \"#utility.yul\":18437:18456   */\n      add\n        /* \"#utility.yul\":18429:18456   */\n      swap1\n      pop\n        /* \"#utility.yul\":18466:18537   */\n      tag_603\n        /* \"#utility.yul\":18534:18535   */\n      0x00\n        /* \"#utility.yul\":18523:18532   */\n      dup4\n        /* \"#utility.yul\":18519:18536   */\n      add\n        /* \"#utility.yul\":18510:18516   */\n      dup8\n        /* \"#utility.yul\":18466:18537   */\n      tag_366\n      jump\t// in\n    tag_603:\n        /* \"#utility.yul\":18547:18619   */\n      tag_604\n        /* \"#utility.yul\":18615:18617   */\n      0x20\n        /* \"#utility.yul\":18604:18613   */\n      dup4\n        /* \"#utility.yul\":18600:18618   */\n      add\n        /* \"#utility.yul\":18591:18597   */\n      dup7\n        /* \"#utility.yul\":18547:18619   */\n      tag_366\n      jump\t// in\n    tag_604:\n        /* \"#utility.yul\":18629:18701   */\n      tag_605\n        /* \"#utility.yul\":18697:18699   */\n      0x40\n        /* \"#utility.yul\":18686:18695   */\n      dup4\n        /* \"#utility.yul\":18682:18700   */\n      add\n        /* \"#utility.yul\":18673:18679   */\n      dup6\n        /* \"#utility.yul\":18629:18701   */\n      tag_378\n      jump\t// in\n    tag_605:\n        /* \"#utility.yul\":18748:18757   */\n      dup2\n        /* \"#utility.yul\":18742:18746   */\n      dup2\n        /* \"#utility.yul\":18738:18758   */\n      sub\n        /* \"#utility.yul\":18733:18735   */\n      0x60\n        /* \"#utility.yul\":18722:18731   */\n      dup4\n        /* \"#utility.yul\":18718:18736   */\n      add\n        /* \"#utility.yul\":18711:18759   */\n      mstore\n        /* \"#utility.yul\":18776:18852   */\n      tag_606\n        /* \"#utility.yul\":18847:18851   */\n      dup2\n        /* \"#utility.yul\":18838:18844   */\n      dup5\n        /* \"#utility.yul\":18776:18852   */\n      tag_393\n      jump\t// in\n    tag_606:\n        /* \"#utility.yul\":18768:18852   */\n      swap1\n      pop\n        /* \"#utility.yul\":18219:18859   */\n      swap6\n      swap5\n      pop\n      pop\n      pop\n      pop\n      pop\n      jump\t// out\n        /* \"#utility.yul\":18865:19394   */\n    tag_248:\n        /* \"#utility.yul\":19032:19036   */\n      0x00\n        /* \"#utility.yul\":19070:19072   */\n      0x60\n        /* \"#utility.yul\":19059:19068   */\n      dup3\n        /* \"#utility.yul\":19055:19073   */\n      add\n        /* \"#utility.yul\":19047:19073   */\n      swap1\n      pop\n        /* \"#utility.yul\":19083:19154   */\n      tag_608\n        /* \"#utility.yul\":19151:19152   */\n      0x00\n        /* \"#utility.yul\":19140:19149   */\n      dup4\n        /* \"#utility.yul\":19136:19153   */\n      add\n        /* \"#utility.yul\":19127:19133   */\n      dup7\n        /* \"#utility.yul\":19083:19154   */\n      tag_366\n      jump\t// in\n    tag_608:\n        /* \"#utility.yul\":19164:19236   */\n      tag_609\n        /* \"#utility.yul\":19232:19234   */\n      0x20\n        /* \"#utility.yul\":19221:19230   */\n      dup4\n        /* \"#utility.yul\":19217:19235   */\n      add\n        /* \"#utility.yul\":19208:19214   */\n      dup6\n        /* \"#utility.yul\":19164:19236   */\n      tag_378\n      jump\t// in\n    tag_609:\n        /* \"#utility.yul\":19283:19292   */\n      dup2\n        /* \"#utility.yul\":19277:19281   */\n      dup2\n        /* \"#utility.yul\":19273:19293   */\n      sub\n        /* \"#utility.yul\":19268:19270   */\n      0x40\n        /* \"#utility.yul\":19257:19266   */\n      dup4\n        /* \"#utility.yul\":19253:19271   */\n      add\n        /* \"#utility.yul\":19246:19294   */\n      mstore\n        /* \"#utility.yul\":19311:19387   */\n      tag_610\n        /* \"#utility.yul\":19382:19386   */\n      dup2\n        /* \"#utility.yul\":19373:19379   */\n      dup5\n        /* \"#utility.yul\":19311:19387   */\n      tag_393\n      jump\t// in\n    tag_610:\n        /* \"#utility.yul\":19303:19387   */\n      swap1\n      pop\n        /* \"#utility.yul\":18865:19394   */\n      swap5\n      swap4\n      pop\n      pop\n      pop\n      pop\n      jump\t// out\n        /* \"#utility.yul\":19400:19628   */\n    tag_394:\n        /* \"#utility.yul\":19540:19574   */\n      0x4552433732313a2061646472657373207a65726f206973206e6f742061207661\n        /* \"#utility.yul\":19536:19537   */\n      0x00\n        /* \"#utility.yul\":19528:19534   */\n      dup3\n        /* \"#utility.yul\":19524:19538   */\n      add\n        /* \"#utility.yul\":19517:19575   */\n      mstore\n        /* \"#utility.yul\":19609:19620   */\n      0x6c6964206f776e65720000000000000000000000000000000000000000000000\n        /* \"#utility.yul\":19604:19606   */\n      0x20\n        /* \"#utility.yul\":19596:19602   */\n      dup3\n        /* \"#utility.yul\":19592:19607   */\n      add\n        /* \"#utility.yul\":19585:19621   */\n      mstore\n        /* \"#utility.yul\":19400:19628   */\n      pop\n      jump\t// out\n        /* \"#utility.yul\":19634:20000   */\n    tag_395:\n        /* \"#utility.yul\":19776:19779   */\n      0x00\n        /* \"#utility.yul\":19797:19864   */\n      tag_613\n        /* \"#utility.yul\":19861:19863   */\n      0x29\n        /* \"#utility.yul\":19856:19859   */\n      dup4\n        /* \"#utility.yul\":19797:19864   */\n      tag_357\n      jump\t// in\n    tag_613:\n        /* \"#utility.yul\":19790:19864   */\n      swap2\n      pop\n        /* \"#utility.yul\":19873:19966   */\n      tag_614\n        /* \"#utility.yul\":19962:19965   */\n      dup3\n        /* \"#utility.yul\":19873:19966   */\n      tag_394\n      jump\t// in\n    tag_614:\n        /* \"#utility.yul\":19991:19993   */\n      0x40\n        /* \"#utility.yul\":19986:19989   */\n      dup3\n        /* \"#utility.yul\":19982:19994   */\n      add\n        /* \"#utility.yul\":19975:19994   */\n      swap1\n      pop\n        /* \"#utility.yul\":19634:20000   */\n      swap2\n      swap1\n      pop\n      jump\t// out\n        /* \"#utility.yul\":20006:20425   */\n    tag_256:\n        /* \"#utility.yul\":20172:20176   */\n      0x00\n        /* \"#utility.yul\":20210:20212   */\n      0x20\n        /* \"#utility.yul\":20199:20208   */\n      dup3\n        /* \"#utility.yul\":20195:20213   */\n      add\n        /* \"#utility.yul\":20187:20213   */\n      swap1\n      pop\n        /* \"#utility.yul\":20259:20268   */\n      dup2\n        /* \"#utility.yul\":20253:20257   */\n      dup2\n        /* \"#utility.yul\":20249:20269   */\n      sub\n        /* \"#utility.yul\":20245:20246   */\n      0x00\n        /* \"#utility.yul\":20234:20243   */\n      dup4\n        /* \"#utility.yul\":20230:20247   */\n      add\n        /* \"#utility.yul\":20223:20270   */\n      mstore\n        /* \"#utility.yul\":20287:20418   */\n      tag_616\n        /* \"#utility.yul\":20413:20417   */\n      dup2\n        /* \"#utility.yul\":20287:20418   */\n      tag_395\n      jump\t// in\n    tag_616:\n        /* \"#utility.yul\":20279:20418   */\n      swap1\n      pop\n        /* \"#utility.yul\":20006:20425   */\n      swap2\n      swap1\n      pop\n      jump\t// out\n        /* \"#utility.yul\":20431:20861   */\n    tag_272:\n        /* \"#utility.yul\":20574:20578   */\n      0x00\n        /* \"#utility.yul\":20612:20614   */\n      0x60\n        /* \"#utility.yul\":20601:20610   */\n      dup3\n        /* \"#utility.yul\":20597:20615   */\n      add\n        /* \"#utility.yul\":20589:20615   */\n      swap1\n      pop\n        /* \"#utility.yul\":20625:20696   */\n      tag_618\n        /* \"#utility.yul\":20693:20694   */\n      0x00\n        /* \"#utility.yul\":20682:20691   */\n      dup4\n        /* \"#utility.yul\":20678:20695   */\n      add\n        /* \"#utility.yul\":20669:20675   */\n      dup7\n        /* \"#utility.yul\":20625:20696   */\n      tag_366\n      jump\t// in\n    tag_618:\n        /* \"#utility.yul\":20706:20778   */\n      tag_619\n        /* \"#utility.yul\":20774:20776   */\n      0x20\n        /* \"#utility.yul\":20763:20772   */\n      dup4\n        /* \"#utility.yul\":20759:20777   */\n      add\n        /* \"#utility.yul\":20750:20756   */\n      dup6\n        /* \"#utility.yul\":20706:20778   */\n      tag_366\n      jump\t// in\n    tag_619:\n        /* \"#utility.yul\":20788:20854   */\n      tag_620\n        /* \"#utility.yul\":20850:20852   */\n      0x40\n        /* \"#utility.yul\":20839:20848   */\n      dup4\n        /* \"#utility.yul\":20835:20853   */\n      add\n        /* \"#utility.yul\":20826:20832   */\n      dup5\n        /* \"#utility.yul\":20788:20854   */\n      tag_355\n      jump\t// in\n    tag_620:\n        /* \"#utility.yul\":20431:20861   */\n      swap5\n      swap4\n      pop\n      pop\n      pop\n      pop\n      jump\t// out\n        /* \"#utility.yul\":20867:21187   */\n    tag_300:\n        /* \"#utility.yul\":20982:20986   */\n      0x00\n        /* \"#utility.yul\":21020:21022   */\n      0x40\n        /* \"#utility.yul\":21009:21018   */\n      dup3\n        /* \"#utility.yul\":21005:21023   */\n      add\n        /* \"#utility.yul\":20997:21023   */\n      swap1\n      pop\n        /* \"#utility.yul\":21033:21104   */\n      tag_622\n        /* \"#utility.yul\":21101:21102   */\n      0x00\n        /* \"#utility.yul\":21090:21099   */\n      dup4\n        /* \"#utility.yul\":21086:21103   */\n      add\n        /* \"#utility.yul\":21077:21083   */\n      dup6\n        /* \"#utility.yul\":21033:21104   */\n      tag_366\n      jump\t// in\n    tag_622:\n        /* \"#utility.yul\":21114:21180   */\n      tag_623\n        /* \"#utility.yul\":21176:21178   */\n      0x20\n        /* \"#utility.yul\":21165:21174   */\n      dup4\n        /* \"#utility.yul\":21161:21179   */\n      add\n        /* \"#utility.yul\":21152:21158   */\n      dup5\n        /* \"#utility.yul\":21114:21180   */\n      tag_355\n      jump\t// in\n    tag_623:\n        /* \"#utility.yul\":20867:21187   */\n      swap4\n      swap3\n      pop\n      pop\n      pop\n      jump\t// out\n        /* \"#utility.yul\":21193:21525   */\n    tag_327:\n        /* \"#utility.yul\":21314:21318   */\n      0x00\n        /* \"#utility.yul\":21352:21354   */\n      0x40\n        /* \"#utility.yul\":21341:21350   */\n      dup3\n        /* \"#utility.yul\":21337:21355   */\n      add\n        /* \"#utility.yul\":21329:21355   */\n      swap1\n      pop\n        /* \"#utility.yul\":21365:21436   */\n      tag_625\n        /* \"#utility.yul\":21433:21434   */\n      0x00\n        /* \"#utility.yul\":21422:21431   */\n      dup4\n        /* \"#utility.yul\":21418:21435   */\n      add\n        /* \"#utility.yul\":21409:21415   */\n      dup6\n        /* \"#utility.yul\":21365:21436   */\n      tag_366\n      jump\t// in\n    tag_625:\n        /* \"#utility.yul\":21446:21518   */\n      tag_626\n        /* \"#utility.yul\":21514:21516   */\n      0x20\n        /* \"#utility.yul\":21503:21512   */\n      dup4\n        /* \"#utility.yul\":21499:21517   */\n      add\n        /* \"#utility.yul\":21490:21496   */\n      dup5\n        /* \"#utility.yul\":21446:21518   */\n      tag_366\n      jump\t// in\n    tag_626:\n        /* \"#utility.yul\":21193:21525   */\n      swap4\n      swap3\n      pop\n      pop\n      pop\n      jump\t// out\n\n    auxdata: 0xa2646970667358221220ee315c9bde0de626f688c79200da37412a9d69599ca768e34406a850f0bb69d064736f6c63430008140033\n}\n",
				"bytecode": {
					"linkReferences": {},
					"object": "608060405234801562000010575f80fd5b50604051620038c4380380620038c48339818101604052810190620000369190620003a9565b815f908162000046919062000677565b50806001908162000058919062000677565b508260065f6101000a81548173ffffffffffffffffffffffffffffffffffffffff021916908373ffffffffffffffffffffffffffffffffffffffff1602179055505f8060065f9054906101000a900473ffffffffffffffffffffffffffffffffffffffff1673ffffffffffffffffffffffffffffffffffffffff168484604051602401620000e8929190620007ab565b6040516020818303038152906040527ff1bd332d000000000000000000000000000000000000000000000000000000007bffffffffffffffffffffffffffffffffffffffffffffffffffffffff19166020820180517bffffffffffffffffffffffffffffffffffffffffffffffffffffffff83818316178352505050506040516200017491906200082e565b5f60405180830381855af49150503d805f8114620001ae576040519150601f19603f3d011682016040523d82523d5f602084013e620001b3565b606091505b5091509150505050505062000846565b5f604051905090565b5f80fd5b5f80fd5b5f73ffffffffffffffffffffffffffffffffffffffff82169050919050565b5f620001ff82620001d4565b9050919050565b6200021181620001f3565b81146200021c575f80fd5b50565b5f815190506200022f8162000206565b92915050565b5f80fd5b5f80fd5b5f601f19601f8301169050919050565b7f4e487b71000000000000000000000000000000000000000000000000000000005f52604160045260245ffd5b62000285826200023d565b810181811067ffffffffffffffff82111715620002a757620002a66200024d565b5b80604052505050565b5f620002bb620001c3565b9050620002c982826200027a565b919050565b5f67ffffffffffffffff821115620002eb57620002ea6200024d565b5b620002f6826200023d565b9050602081019050919050565b5f5b838110156200032257808201518184015260208101905062000305565b5f8484015250505050565b5f620003436200033d84620002ce565b620002b0565b90508281526020810184848401111562000362576200036162000239565b5b6200036f84828562000303565b509392505050565b5f82601f8301126200038e576200038d62000235565b5b8151620003a08482602086016200032d565b91505092915050565b5f805f60608486031215620003c357620003c2620001cc565b5b5f620003d2868287016200021f565b935050602084015167ffffffffffffffff811115620003f657620003f5620001d0565b5b620004048682870162000377565b925050604084015167ffffffffffffffff811115620004285762000427620001d0565b5b620004368682870162000377565b9150509250925092565b5f81519050919050565b7f4e487b71000000000000000000000000000000000000000000000000000000005f52602260045260245ffd5b5f60028204905060018216806200048f57607f821691505b602082108103620004a557620004a46200044a565b5b50919050565b5f819050815f5260205f209050919050565b5f6020601f8301049050919050565b5f82821b905092915050565b5f60088302620005097fffffffffffffffffffffffffffffffffffffffffffffffffffffffffffffffff82620004cc565b620005158683620004cc565b95508019841693508086168417925050509392505050565b5f819050919050565b5f819050919050565b5f6200055f6200055962000553846200052d565b62000536565b6200052d565b9050919050565b5f819050919050565b6200057a836200053f565b62000592620005898262000566565b848454620004d8565b825550505050565b5f90565b620005a86200059a565b620005b58184846200056f565b505050565b5b81811015620005dc57620005d05f826200059e565b600181019050620005bb565b5050565b601f8211156200062b57620005f581620004ab565b6200060084620004bd565b8101602085101562000610578190505b620006286200061f85620004bd565b830182620005ba565b50505b505050565b5f82821c905092915050565b5f6200064d5f198460080262000630565b1980831691505092915050565b5f6200066783836200063c565b9150826002028217905092915050565b620006828262000440565b67ffffffffffffffff8111156200069e576200069d6200024d565b5b620006aa825462000477565b620006b7828285620005e0565b5f60209050601f831160018114620006ed575f8415620006d8578287015190505b620006e485826200065a565b86555062000753565b601f198416620006fd86620004ab565b5f5b828110156200072657848901518255600182019150602085019450602081019050620006ff565b8683101562000746578489015162000742601f8916826200063c565b8355505b6001600288020188555050505b505050505050565b5f82825260208201905092915050565b5f620007778262000440565b6200078381856200075b565b93506200079581856020860162000303565b620007a0816200023d565b840191505092915050565b5f6040820190508181035f830152620007c581856200076b565b90508181036020830152620007db81846200076b565b90509392505050565b5f81519050919050565b5f81905092915050565b5f6200080482620007e4565b620008108185620007ee565b93506200082281856020860162000303565b80840191505092915050565b5f6200083b8284620007f8565b915081905092915050565b61307080620008545f395ff3fe608060405234801561000f575f80fd5b50600436106101d8575f3560e01c8063743976a011610102578063a0aea85d116100a0578063c87b56dd1161006f578063c87b56dd14610532578063e985e9c514610562578063f661e7c914610592578063f8e76cc0146105ae576101d8565b8063a0aea85d146104c2578063a22cb465146104de578063b3e1c718146104fa578063b88d4fde14610516576101d8565b806395d89b41116100dc57806395d89b411461045057806398d28eeb1461046e5780639a03d9a31461048a5780639b1f9e74146104a6576101d8565b8063743976a0146103fa5780637b7d7225146104185780638c4e3f3214610434576101d8565b806330e0789e1161017a5780634e6ec247116101495780634e6ec247146103625780636352211e1461037e5780636a4f832b146103ae57806370a08231146103ca576101d8565b806330e0789e146102ca57806338350541146102e657806342842e0e146103165780634cdc954914610332576101d8565b8063095ea7b3116101b6578063095ea7b31461025a57806323b872dd1461027657806324b6b8c0146102925780632bd9a459146102ae576101d8565b806301ffc9a7146101dc57806306fdde031461020c578063081812fc1461022a575b5f80fd5b6101f660048036038101906101f191906125b8565b6105de565b60405161020391906125fd565b60405180910390f35b61021461071c565b60405161022191906126a0565b60405180910390f35b610244600480360381019061023f91906126f3565b61084e565b604051610251919061275d565b60405180910390f35b610274600480360381019061026f91906127a0565b61098c565b005b610290600480360381019061028b91906127de565b610aab565b005b6102ac60048036038101906102a7919061295a565b610bcd565b005b6102c860048036038101906102c391906129da565b610cf2565b005b6102e460048036038101906102df91906127de565b610cf8565b005b61030060048036038101906102fb91906126f3565b610e1a565b60405161030d919061275d565b60405180910390f35b610330600480360381019061032b91906127de565b610f58565b005b61034c600480360381019061034791906127a0565b61107a565b60405161035991906125fd565b60405180910390f35b61037c600480360381019061037791906127a0565b6111bb565b005b610398600480360381019061039391906126f3565b6112da565b6040516103a5919061275d565b60405180910390f35b6103c860048036038101906103c39190612a3e565b611418565b005b6103e460048036038101906103df9190612aaa565b61153a565b6040516103f19190612ae4565b60405180910390f35b6104026115ee565b60405161040f91906126a0565b60405180910390f35b610432600480360381019061042d91906127a0565b611720565b005b61044e60048036038101906104499190612b27565b61183f565b005b610458611961565b60405161046591906126a0565b60405180910390f35b610488600480360381019061048391906129da565b611a93565b005b6104a4600480360381019061049f9190612aaa565b611a99565b005b6104c060048036038101906104bb91906126f3565b611adc565b005b6104dc60048036038101906104d791906126f3565b611bf8565b005b6104f860048036038101906104f39190612b77565b611d14565b005b610514600480360381019061050f91906127a0565b611e33565b005b610530600480360381019061052b919061295a565b611f50565b005b61054c600480360381019061054791906126f3565b612075565b60405161055991906126a0565b60405180910390f35b61057c60048036038101906105779190612bb5565b6121b4565b60405161058991906125fd565b60405180910390f35b6105ac60048036038101906105a791906127a0565b6122f5565b005b6105c860048036038101906105c391906126f3565b612414565b6040516105d591906125fd565b60405180910390f35b5f805f60065f9054906101000a900473ffffffffffffffffffffffffffffffffffffffff1673ffffffffffffffffffffffffffffffffffffffff168460405160240161062a9190612c02565b6040516020818303038152906040527f01ffc9a7000000000000000000000000000000000000000000000000000000007bffffffffffffffffffffffffffffffffffffffffffffffffffffffff19166020820180517bffffffffffffffffffffffffffffffffffffffffffffffffffffffff83818316178352505050506040516106b49190612c5f565b5f60405180830381855af49150503d805f81146106ec576040519150601f19603f3d011682016040523d82523d5f602084013e6106f1565b606091505b5091509150816106ff575f80fd5b808060200190518101906107139190612c89565b92505050919050565b60605f8060065f9054906101000a900473ffffffffffffffffffffffffffffffffffffffff1673ffffffffffffffffffffffffffffffffffffffff166040516024016040516020818303038152906040527f06fdde03000000000000000000000000000000000000000000000000000000007bffffffffffffffffffffffffffffffffffffffffffffffffffffffff19166020820180517bffffffffffffffffffffffffffffffffffffffffffffffffffffffff83818316178352505050506040516107e89190612c5f565b5f60405180830381855af49150503d805f8114610820576040519150601f19603f3d011682016040523d82523d5f602084013e610825565b606091505b509150915081610833575f80fd5b808060200190518101906108479190612d52565b9250505090565b5f805f60065f9054906101000a900473ffffffffffffffffffffffffffffffffffffffff1673ffffffffffffffffffffffffffffffffffffffff168460405160240161089a9190612ae4565b6040516020818303038152906040527f081812fc000000000000000000000000000000000000000000000000000000007bffffffffffffffffffffffffffffffffffffffffffffffffffffffff19166020820180517bffffffffffffffffffffffffffffffffffffffffffffffffffffffff83818316178352505050506040516109249190612c5f565b5f60405180830381855af49150503d805f811461095c576040519150601f19603f3d011682016040523d82523d5f602084013e610961565b606091505b50915091508161096f575f80fd5b808060200190518101906109839190612dd4565b92505050919050565b5f8060065f9054906101000a900473ffffffffffffffffffffffffffffffffffffffff1673ffffffffffffffffffffffffffffffffffffffff1684846040516024016109d9929190612dff565b6040516020818303038152906040527f8b069f2a000000000000000000000000000000000000000000000000000000007bffffffffffffffffffffffffffffffffffffffffffffffffffffffff19166020820180517bffffffffffffffffffffffffffffffffffffffffffffffffffffffff8381831617835250505050604051610a639190612c5f565b5f60405180830381855af49150503d805f8114610a9b576040519150601f19603f3d011682016040523d82523d5f602084013e610aa0565b606091505b509150915050505050565b5f8060065f9054906101000a900473ffffffffffffffffffffffffffffffffffffffff1673ffffffffffffffffffffffffffffffffffffffff16858585604051602401610afa93929190612e26565b6040516020818303038152906040527fb642fe57000000000000000000000000000000000000000000000000000000007bffffffffffffffffffffffffffffffffffffffffffffffffffffffff19166020820180517bffffffffffffffffffffffffffffffffffffffffffffffffffffffff8381831617835250505050604051610b849190612c5f565b5f60405180830381855af49150503d805f8114610bbc576040519150601f19603f3d011682016040523d82523d5f602084013e610bc1565b606091505b50915091505050505050565b5f8060065f9054906101000a900473ffffffffffffffffffffffffffffffffffffffff1673ffffffffffffffffffffffffffffffffffffffff1686868686604051602401610c1e9493929190612ea3565b6040516020818303038152906040527fb65f2f53000000000000000000000000000000000000000000000000000000007bffffffffffffffffffffffffffffffffffffffffffffffffffffffff19166020820180517bffffffffffffffffffffffffffffffffffffffffffffffffffffffff8381831617835250505050604051610ca89190612c5f565b5f60405180830381855af49150503d805f8114610ce0576040519150601f19603f3d011682016040523d82523d5f602084013e610ce5565b606091505b5091509150505050505050565b50505050565b5f8060065f9054906101000a900473ffffffffffffffffffffffffffffffffffffffff1673ffffffffffffffffffffffffffffffffffffffff16858585604051602401610d4793929190612e26565b6040516020818303038152906040527f5dbcfdbe000000000000000000000000000000000000000000000000000000007bffffffffffffffffffffffffffffffffffffffffffffffffffffffff19166020820180517bffffffffffffffffffffffffffffffffffffffffffffffffffffffff8381831617835250505050604051610dd19190612c5f565b5f60405180830381855af49150503d805f8114610e09576040519150601f19603f3d011682016040523d82523d5f602084013e610e0e565b606091505b50915091505050505050565b5f805f60065f9054906101000a900473ffffffffffffffffffffffffffffffffffffffff1673ffffffffffffffffffffffffffffffffffffffff1684604051602401610e669190612ae4565b6040516020818303038152906040527f38350541000000000000000000000000000000000000000000000000000000007bffffffffffffffffffffffffffffffffffffffffffffffffffffffff19166020820180517bffffffffffffffffffffffffffffffffffffffffffffffffffffffff8381831617835250505050604051610ef09190612c5f565b5f60405180830381855af49150503d805f8114610f28576040519150601f19603f3d011682016040523d82523d5f602084013e610f2d565b606091505b509150915081610f3b575f80fd5b80806020019051810190610f4f9190612dd4565b92505050919050565b5f8060065f9054906101000a900473ffffffffffffffffffffffffffffffffffffffff1673ffffffffffffffffffffffffffffffffffffffff16858585604051602401610fa793929190612e26565b6040516020818303038152906040527f5e69309e000000000000000000000000000000000000000000000000000000007bffffffffffffffffffffffffffffffffffffffffffffffffffffffff19166020820180517bffffffffffffffffffffffffffffffffffffffffffffffffffffffff83818316178352505050506040516110319190612c5f565b5f60405180830381855af49150503d805f8114611069576040519150601f19603f3d011682016040523d82523d5f602084013e61106e565b606091505b50915091505050505050565b5f805f60065f9054906101000a900473ffffffffffffffffffffffffffffffffffffffff1673ffffffffffffffffffffffffffffffffffffffff1685856040516024016110c8929190612dff565b6040516020818303038152906040527f0fecaa15000000000000000000000000000000000000000000000000000000007bffffffffffffffffffffffffffffffffffffffffffffffffffffffff19166020820180517bffffffffffffffffffffffffffffffffffffffffffffffffffffffff83818316178352505050506040516111529190612c5f565b5f60405180830381855af49150503d805f811461118a576040519150601f19603f3d011682016040523d82523d5f602084013e61118f565b606091505b50915091508161119d575f80fd5b808060200190518101906111b19190612c89565b9250505092915050565b5f8060065f9054906101000a900473ffffffffffffffffffffffffffffffffffffffff1673ffffffffffffffffffffffffffffffffffffffff168484604051602401611208929190612dff565b6040516020818303038152906040527f7dbf8efb000000000000000000000000000000000000000000000000000000007bffffffffffffffffffffffffffffffffffffffffffffffffffffffff19166020820180517bffffffffffffffffffffffffffffffffffffffffffffffffffffffff83818316178352505050506040516112929190612c5f565b5f60405180830381855af49150503d805f81146112ca576040519150601f19603f3d011682016040523d82523d5f602084013e6112cf565b606091505b509150915050505050565b5f805f60065f9054906101000a900473ffffffffffffffffffffffffffffffffffffffff1673ffffffffffffffffffffffffffffffffffffffff16846040516024016113269190612ae4565b6040516020818303038152906040527f6352211e000000000000000000000000000000000000000000000000000000007bffffffffffffffffffffffffffffffffffffffffffffffffffffffff19166020820180517bffffffffffffffffffffffffffffffffffffffffffffffffffffffff83818316178352505050506040516113b09190612c5f565b5f60405180830381855af49150503d805f81146113e8576040519150601f19603f3d011682016040523d82523d5f602084013e6113ed565b606091505b5091509150816113fb575f80fd5b8080602001905181019061140f9190612dd4565b92505050919050565b5f8060065f9054906101000a900473ffffffffffffffffffffffffffffffffffffffff1673ffffffffffffffffffffffffffffffffffffffff1685858560405160240161146793929190612eed565b6040516020818303038152906040527f5fa2bef5000000000000000000000000000000000000000000000000000000007bffffffffffffffffffffffffffffffffffffffffffffffffffffffff19166020820180517bffffffffffffffffffffffffffffffffffffffffffffffffffffffff83818316178352505050506040516114f19190612c5f565b5f60405180830381855af49150503d805f8114611529576040519150601f19603f3d011682016040523d82523d5f602084013e61152e565b606091505b50915091505050505050565b5f8073ffffffffffffffffffffffffffffffffffffffff168273ffffffffffffffffffffffffffffffffffffffff16036115a9576040517f08c379a00000000000000000000000000000000000000000000000000000000081526004016115a090612f99565b60405180910390fd5b60035f8373ffffffffffffffffffffffffffffffffffffffff1673ffffffffffffffffffffffffffffffffffffffff1681526020019081526020015f20549050919050565b60605f8060065f9054906101000a900473ffffffffffffffffffffffffffffffffffffffff1673ffffffffffffffffffffffffffffffffffffffff166040516024016040516020818303038152906040527f743976a0000000000000000000000000000000000000000000000000000000007bffffffffffffffffffffffffffffffffffffffffffffffffffffffff19166020820180517bffffffffffffffffffffffffffffffffffffffffffffffffffffffff83818316178352505050506040516116ba9190612c5f565b5f60405180830381855af49150503d805f81146116f2576040519150601f19603f3d011682016040523d82523d5f602084013e6116f7565b606091505b509150915081611705575f80fd5b808060200190518101906117199190612d52565b9250505090565b5f8060065f9054906101000a900473ffffffffffffffffffffffffffffffffffffffff1673ffffffffffffffffffffffffffffffffffffffff16848460405160240161176d929190612dff565b6040516020818303038152906040527f74fb7ab4000000000000000000000000000000000000000000000000000000007bffffffffffffffffffffffffffffffffffffffffffffffffffffffff19166020820180517bffffffffffffffffffffffffffffffffffffffffffffffffffffffff83818316178352505050506040516117f79190612c5f565b5f60405180830381855af49150503d805f811461182f576040519150601f19603f3d011682016040523d82523d5f602084013e611834565b606091505b509150915050505050565b5f8060065f9054906101000a900473ffffffffffffffffffffffffffffffffffffffff1673ffffffffffffffffffffffffffffffffffffffff1685858560405160240161188e93929190612fb7565b6040516020818303038152906040527f58008213000000000000000000000000000000000000000000000000000000007bffffffffffffffffffffffffffffffffffffffffffffffffffffffff19166020820180517bffffffffffffffffffffffffffffffffffffffffffffffffffffffff83818316178352505050506040516119189190612c5f565b5f60405180830381855af49150503d805f8114611950576040519150601f19603f3d011682016040523d82523d5f602084013e611955565b606091505b50915091505050505050565b60605f8060065f9054906101000a900473ffffffffffffffffffffffffffffffffffffffff1673ffffffffffffffffffffffffffffffffffffffff166040516024016040516020818303038152906040527f95d89b41000000000000000000000000000000000000000000000000000000007bffffffffffffffffffffffffffffffffffffffffffffffffffffffff19166020820180517bffffffffffffffffffffffffffffffffffffffffffffffffffffffff8381831617835250505050604051611a2d9190612c5f565b5f60405180830381855af49150503d805f8114611a65576040519150601f19603f3d011682016040523d82523d5f602084013e611a6a565b606091505b509150915081611a78575f80fd5b80806020019051810190611a8c9190612d52565b9250505090565b50505050565b8060065f6101000a81548173ffffffffffffffffffffffffffffffffffffffff021916908373ffffffffffffffffffffffffffffffffffffffff16021790555050565b5f8060065f9054906101000a900473ffffffffffffffffffffffffffffffffffffffff1673ffffffffffffffffffffffffffffffffffffffff1683604051602401611b279190612ae4565b6040516020818303038152906040527f9b1f9e74000000000000000000000000000000000000000000000000000000007bffffffffffffffffffffffffffffffffffffffffffffffffffffffff19166020820180517bffffffffffffffffffffffffffffffffffffffffffffffffffffffff8381831617835250505050604051611bb19190612c5f565b5f60405180830381855af49150503d805f8114611be9576040519150601f19603f3d011682016040523d82523d5f602084013e611bee565b606091505b5091509150505050565b5f8060065f9054906101000a900473ffffffffffffffffffffffffffffffffffffffff1673ffffffffffffffffffffffffffffffffffffffff1683604051602401611c439190612ae4565b6040516020818303038152906040527fa0aea85d000000000000000000000000000000000000000000000000000000007bffffffffffffffffffffffffffffffffffffffffffffffffffffffff19166020820180517bffffffffffffffffffffffffffffffffffffffffffffffffffffffff8381831617835250505050604051611ccd9190612c5f565b5f60405180830381855af49150503d805f8114611d05576040519150601f19603f3d011682016040523d82523d5f602084013e611d0a565b606091505b5091509150505050565b5f8060065f9054906101000a900473ffffffffffffffffffffffffffffffffffffffff1673ffffffffffffffffffffffffffffffffffffffff168484604051602401611d61929190612fec565b6040516020818303038152906040527f989579aa000000000000000000000000000000000000000000000000000000007bffffffffffffffffffffffffffffffffffffffffffffffffffffffff19166020820180517bffffffffffffffffffffffffffffffffffffffffffffffffffffffff8381831617835250505050604051611deb9190612c5f565b5f60405180830381855af49150503d805f8114611e23576040519150601f19603f3d011682016040523d82523d5f602084013e611e28565b606091505b509150915050505050565b5f8060065f9054906101000a900473ffffffffffffffffffffffffffffffffffffffff1673ffffffffffffffffffffffffffffffffffffffff1683604051602401611e7e9190612ae4565b6040516020818303038152906040527f785404b8000000000000000000000000000000000000000000000000000000007bffffffffffffffffffffffffffffffffffffffffffffffffffffffff19166020820180517bffffffffffffffffffffffffffffffffffffffffffffffffffffffff8381831617835250505050604051611f089190612c5f565b5f60405180830381855af49150503d805f8114611f40576040519150601f19603f3d011682016040523d82523d5f602084013e611f45565b606091505b509150915050505050565b5f8060065f9054906101000a900473ffffffffffffffffffffffffffffffffffffffff1673ffffffffffffffffffffffffffffffffffffffff1686868686604051602401611fa19493929190612ea3565b6040516020818303038152906040527fa2077142000000000000000000000000000000000000000000000000000000007bffffffffffffffffffffffffffffffffffffffffffffffffffffffff19166020820180517bffffffffffffffffffffffffffffffffffffffffffffffffffffffff838183161783525050505060405161202b9190612c5f565b5f60405180830381855af49150503d805f8114612063576040519150601f19603f3d011682016040523d82523d5f602084013e612068565b606091505b5091509150505050505050565b60605f8060065f9054906101000a900473ffffffffffffffffffffffffffffffffffffffff1673ffffffffffffffffffffffffffffffffffffffff16846040516024016120c29190612ae4565b6040516020818303038152906040527fc87b56dd000000000000000000000000000000000000000000000000000000007bffffffffffffffffffffffffffffffffffffffffffffffffffffffff19166020820180517bffffffffffffffffffffffffffffffffffffffffffffffffffffffff838183161783525050505060405161214c9190612c5f565b5f60405180830381855af49150503d805f8114612184576040519150601f19603f3d011682016040523d82523d5f602084013e612189565b606091505b509150915081612197575f80fd5b808060200190518101906121ab9190612d52565b92505050919050565b5f805f60065f9054906101000a900473ffffffffffffffffffffffffffffffffffffffff1673ffffffffffffffffffffffffffffffffffffffff168585604051602401612202929190613013565b6040516020818303038152906040527f3a95ab7f000000000000000000000000000000000000000000000000000000007bffffffffffffffffffffffffffffffffffffffffffffffffffffffff19166020820180517bffffffffffffffffffffffffffffffffffffffffffffffffffffffff838183161783525050505060405161228c9190612c5f565b5f60405180830381855af49150503d805f81146122c4576040519150601f19603f3d011682016040523d82523d5f602084013e6122c9565b606091505b5091509150816122d7575f80fd5b808060200190518101906122eb9190612c89565b9250505092915050565b5f8060065f9054906101000a900473ffffffffffffffffffffffffffffffffffffffff1673ffffffffffffffffffffffffffffffffffffffff168484604051602401612342929190612dff565b6040516020818303038152906040527f31b11059000000000000000000000000000000000000000000000000000000007bffffffffffffffffffffffffffffffffffffffffffffffffffffffff19166020820180517bffffffffffffffffffffffffffffffffffffffffffffffffffffffff83818316178352505050506040516123cc9190612c5f565b5f60405180830381855af49150503d805f8114612404576040519150601f19603f3d011682016040523d82523d5f602084013e612409565b606091505b509150915050505050565b5f805f60065f9054906101000a900473ffffffffffffffffffffffffffffffffffffffff1673ffffffffffffffffffffffffffffffffffffffff16846040516024016124609190612ae4565b6040516020818303038152906040527ff8e76cc0000000000000000000000000000000000000000000000000000000007bffffffffffffffffffffffffffffffffffffffffffffffffffffffff19166020820180517bffffffffffffffffffffffffffffffffffffffffffffffffffffffff83818316178352505050506040516124ea9190612c5f565b5f60405180830381855af49150503d805f8114612522576040519150601f19603f3d011682016040523d82523d5f602084013e612527565b606091505b509150915081612535575f80fd5b808060200190518101906125499190612c89565b92505050919050565b5f604051905090565b5f80fd5b5f80fd5b5f7fffffffff0000000000000000000000000000000000000000000000000000000082169050919050565b61259781612563565b81146125a1575f80fd5b50565b5f813590506125b28161258e565b92915050565b5f602082840312156125cd576125cc61255b565b5b5f6125da848285016125a4565b91505092915050565b5f8115159050919050565b6125f7816125e3565b82525050565b5f6020820190506126105f8301846125ee565b92915050565b5f81519050919050565b5f82825260208201905092915050565b5f5b8381101561264d578082015181840152602081019050612632565b5f8484015250505050565b5f601f19601f8301169050919050565b5f61267282612616565b61267c8185612620565b935061268c818560208601612630565b61269581612658565b840191505092915050565b5f6020820190508181035f8301526126b88184612668565b905092915050565b5f819050919050565b6126d2816126c0565b81146126dc575f80fd5b50565b5f813590506126ed816126c9565b92915050565b5f602082840312156127085761270761255b565b5b5f612715848285016126df565b91505092915050565b5f73ffffffffffffffffffffffffffffffffffffffff82169050919050565b5f6127478261271e565b9050919050565b6127578161273d565b82525050565b5f6020820190506127705f83018461274e565b92915050565b61277f8161273d565b8114612789575f80fd5b50565b5f8135905061279a81612776565b92915050565b5f80604083850312156127b6576127b561255b565b5b5f6127c38582860161278c565b92505060206127d4858286016126df565b9150509250929050565b5f805f606084860312156127f5576127f461255b565b5b5f6128028682870161278c565b93505060206128138682870161278c565b9250506040612824868287016126df565b9150509250925092565b5f80fd5b5f80fd5b7f4e487b71000000000000000000000000000000000000000000000000000000005f52604160045260245ffd5b61286c82612658565b810181811067ffffffffffffffff8211171561288b5761288a612836565b5b80604052505050565b5f61289d612552565b90506128a98282612863565b919050565b5f67ffffffffffffffff8211156128c8576128c7612836565b5b6128d182612658565b9050602081019050919050565b828183375f83830152505050565b5f6128fe6128f9846128ae565b612894565b90508281526020810184848401111561291a57612919612832565b5b6129258482856128de565b509392505050565b5f82601f8301126129415761294061282e565b5b81356129518482602086016128ec565b91505092915050565b5f805f80608085870312156129725761297161255b565b5b5f61297f8782880161278c565b94505060206129908782880161278c565b93505060406129a1878288016126df565b925050606085013567ffffffffffffffff8111156129c2576129c161255f565b5b6129ce8782880161292d565b91505092959194509250565b5f805f80608085870312156129f2576129f161255b565b5b5f6129ff8782880161278c565b9450506020612a108782880161278c565b9350506040612a21878288016126df565b9250506060612a32878288016126df565b91505092959194509250565b5f805f60608486031215612a5557612a5461255b565b5b5f612a628682870161278c565b9350506020612a73868287016126df565b925050604084013567ffffffffffffffff811115612a9457612a9361255f565b5b612aa08682870161292d565b9150509250925092565b5f60208284031215612abf57612abe61255b565b5b5f612acc8482850161278c565b91505092915050565b612ade816126c0565b82525050565b5f602082019050612af75f830184612ad5565b92915050565b612b06816125e3565b8114612b10575f80fd5b50565b5f81359050612b2181612afd565b92915050565b5f805f60608486031215612b3e57612b3d61255b565b5b5f612b4b8682870161278c565b9350506020612b5c8682870161278c565b9250506040612b6d86828701612b13565b9150509250925092565b5f8060408385031215612b8d57612b8c61255b565b5b5f612b9a8582860161278c565b9250506020612bab85828601612b13565b9150509250929050565b5f8060408385031215612bcb57612bca61255b565b5b5f612bd88582860161278c565b9250506020612be98582860161278c565b9150509250929050565b612bfc81612563565b82525050565b5f602082019050612c155f830184612bf3565b92915050565b5f81519050919050565b5f81905092915050565b5f612c3982612c1b565b612c438185612c25565b9350612c53818560208601612630565b80840191505092915050565b5f612c6a8284612c2f565b915081905092915050565b5f81519050612c8381612afd565b92915050565b5f60208284031215612c9e57612c9d61255b565b5b5f612cab84828501612c75565b91505092915050565b5f67ffffffffffffffff821115612cce57612ccd612836565b5b612cd782612658565b9050602081019050919050565b5f612cf6612cf184612cb4565b612894565b905082815260208101848484011115612d1257612d11612832565b5b612d1d848285612630565b509392505050565b5f82601f830112612d3957612d3861282e565b5b8151612d49848260208601612ce4565b91505092915050565b5f60208284031215612d6757612d6661255b565b5b5f82015167ffffffffffffffff811115612d8457612d8361255f565b5b612d9084828501612d25565b91505092915050565b5f612da38261271e565b9050919050565b612db381612d99565b8114612dbd575f80fd5b50565b5f81519050612dce81612daa565b92915050565b5f60208284031215612de957612de861255b565b5b5f612df684828501612dc0565b91505092915050565b5f604082019050612e125f83018561274e565b612e1f6020830184612ad5565b9392505050565b5f606082019050612e395f83018661274e565b612e46602083018561274e565b612e536040830184612ad5565b949350505050565b5f82825260208201905092915050565b5f612e7582612c1b565b612e7f8185612e5b565b9350612e8f818560208601612630565b612e9881612658565b840191505092915050565b5f608082019050612eb65f83018761274e565b612ec3602083018661274e565b612ed06040830185612ad5565b8181036060830152612ee28184612e6b565b905095945050505050565b5f606082019050612f005f83018661274e565b612f0d6020830185612ad5565b8181036040830152612f1f8184612e6b565b9050949350505050565b7f4552433732313a2061646472657373207a65726f206973206e6f7420612076615f8201527f6c6964206f776e65720000000000000000000000000000000000000000000000602082015250565b5f612f83602983612620565b9150612f8e82612f29565b604082019050919050565b5f6020820190508181035f830152612fb081612f77565b9050919050565b5f606082019050612fca5f83018661274e565b612fd7602083018561274e565b612fe460408301846125ee565b949350505050565b5f604082019050612fff5f83018561274e565b61300c60208301846125ee565b9392505050565b5f6040820190506130265f83018561274e565b613033602083018461274e565b939250505056fea2646970667358221220ee315c9bde0de626f688c79200da37412a9d69599ca768e34406a850f0bb69d064736f6c63430008140033",
					"opcodes": "PUSH1 0x80 PUSH1 0x40 MSTORE CALLVALUE DUP1 ISZERO PUSH3 0x10 JUMPI PUSH0 DUP1 REVERT JUMPDEST POP PUSH1 0x40 MLOAD PUSH3 0x38C4 CODESIZE SUB DUP1 PUSH3 0x38C4 DUP4 CODECOPY DUP2 DUP2 ADD PUSH1 0x40 MSTORE DUP2 ADD SWAP1 PUSH3 0x36 SWAP2 SWAP1 PUSH3 0x3A9 JUMP JUMPDEST DUP2 PUSH0 SWAP1 DUP2 PUSH3 0x46 SWAP2 SWAP1 PUSH3 0x677 JUMP JUMPDEST POP DUP1 PUSH1 0x1 SWAP1 DUP2 PUSH3 0x58 SWAP2 SWAP1 PUSH3 0x677 JUMP JUMPDEST POP DUP3 PUSH1 0x6 PUSH0 PUSH2 0x100 EXP DUP2 SLOAD DUP2 PUSH20 0xFFFFFFFFFFFFFFFFFFFFFFFFFFFFFFFFFFFFFFFF MUL NOT AND SWAP1 DUP4 PUSH20 0xFFFFFFFFFFFFFFFFFFFFFFFFFFFFFFFFFFFFFFFF AND MUL OR SWAP1 SSTORE POP PUSH0 DUP1 PUSH1 0x6 PUSH0 SWAP1 SLOAD SWAP1 PUSH2 0x100 EXP SWAP1 DIV PUSH20 0xFFFFFFFFFFFFFFFFFFFFFFFFFFFFFFFFFFFFFFFF AND PUSH20 0xFFFFFFFFFFFFFFFFFFFFFFFFFFFFFFFFFFFFFFFF AND DUP5 DUP5 PUSH1 0x40 MLOAD PUSH1 0x24 ADD PUSH3 0xE8 SWAP3 SWAP2 SWAP1 PUSH3 0x7AB JUMP JUMPDEST PUSH1 0x40 MLOAD PUSH1 0x20 DUP2 DUP4 SUB SUB DUP2 MSTORE SWAP1 PUSH1 0x40 MSTORE PUSH32 0xF1BD332D00000000000000000000000000000000000000000000000000000000 PUSH28 0xFFFFFFFFFFFFFFFFFFFFFFFFFFFFFFFFFFFFFFFFFFFFFFFFFFFFFFFF NOT AND PUSH1 0x20 DUP3 ADD DUP1 MLOAD PUSH28 0xFFFFFFFFFFFFFFFFFFFFFFFFFFFFFFFFFFFFFFFFFFFFFFFFFFFFFFFF DUP4 DUP2 DUP4 AND OR DUP4 MSTORE POP POP POP POP PUSH1 0x40 MLOAD PUSH3 0x174 SWAP2 SWAP1 PUSH3 0x82E JUMP JUMPDEST PUSH0 PUSH1 0x40 MLOAD DUP1 DUP4 SUB DUP2 DUP6 GAS DELEGATECALL SWAP2 POP POP RETURNDATASIZE DUP1 PUSH0 DUP2 EQ PUSH3 0x1AE JUMPI PUSH1 0x40 MLOAD SWAP2 POP PUSH1 0x1F NOT PUSH1 0x3F RETURNDATASIZE ADD AND DUP3 ADD PUSH1 0x40 MSTORE RETURNDATASIZE DUP3 MSTORE RETURNDATASIZE PUSH0 PUSH1 0x20 DUP5 ADD RETURNDATACOPY PUSH3 0x1B3 JUMP JUMPDEST PUSH1 0x60 SWAP2 POP JUMPDEST POP SWAP2 POP SWAP2 POP POP POP POP POP POP PUSH3 0x846 JUMP JUMPDEST PUSH0 PUSH1 0x40 MLOAD SWAP1 POP SWAP1 JUMP JUMPDEST PUSH0 DUP1 REVERT JUMPDEST PUSH0 DUP1 REVERT JUMPDEST PUSH0 PUSH20 0xFFFFFFFFFFFFFFFFFFFFFFFFFFFFFFFFFFFFFFFF DUP3 AND SWAP1 POP SWAP2 SWAP1 POP JUMP JUMPDEST PUSH0 PUSH3 0x1FF DUP3 PUSH3 0x1D4 JUMP JUMPDEST SWAP1 POP SWAP2 SWAP1 POP JUMP JUMPDEST PUSH3 0x211 DUP2 PUSH3 0x1F3 JUMP JUMPDEST DUP2 EQ PUSH3 0x21C JUMPI PUSH0 DUP1 REVERT JUMPDEST POP JUMP JUMPDEST PUSH0 DUP2 MLOAD SWAP1 POP PUSH3 0x22F DUP2 PUSH3 0x206 JUMP JUMPDEST SWAP3 SWAP2 POP POP JUMP JUMPDEST PUSH0 DUP1 REVERT JUMPDEST PUSH0 DUP1 REVERT JUMPDEST PUSH0 PUSH1 0x1F NOT PUSH1 0x1F DUP4 ADD AND SWAP1 POP SWAP2 SWAP1 POP JUMP JUMPDEST PUSH32 0x4E487B7100000000000000000000000000000000000000000000000000000000 PUSH0 MSTORE PUSH1 0x41 PUSH1 0x4 MSTORE PUSH1 0x24 PUSH0 REVERT JUMPDEST PUSH3 0x285 DUP3 PUSH3 0x23D JUMP JUMPDEST DUP2 ADD DUP2 DUP2 LT PUSH8 0xFFFFFFFFFFFFFFFF DUP3 GT OR ISZERO PUSH3 0x2A7 JUMPI PUSH3 0x2A6 PUSH3 0x24D JUMP JUMPDEST JUMPDEST DUP1 PUSH1 0x40 MSTORE POP POP POP JUMP JUMPDEST PUSH0 PUSH3 0x2BB PUSH3 0x1C3 JUMP JUMPDEST SWAP1 POP PUSH3 0x2C9 DUP3 DUP3 PUSH3 0x27A JUMP JUMPDEST SWAP2 SWAP1 POP JUMP JUMPDEST PUSH0 PUSH8 0xFFFFFFFFFFFFFFFF DUP3 GT ISZERO PUSH3 0x2EB JUMPI PUSH3 0x2EA PUSH3 0x24D JUMP JUMPDEST JUMPDEST PUSH3 0x2F6 DUP3 PUSH3 0x23D JUMP JUMPDEST SWAP1 POP PUSH1 0x20 DUP2 ADD SWAP1 POP SWAP2 SWAP1 POP JUMP JUMPDEST PUSH0 JUMPDEST DUP4 DUP2 LT ISZERO PUSH3 0x322 JUMPI DUP1 DUP3 ADD MLOAD DUP2 DUP5 ADD MSTORE PUSH1 0x20 DUP2 ADD SWAP1 POP PUSH3 0x305 JUMP JUMPDEST PUSH0 DUP5 DUP5 ADD MSTORE POP POP POP POP JUMP JUMPDEST PUSH0 PUSH3 0x343 PUSH3 0x33D DUP5 PUSH3 0x2CE JUMP JUMPDEST PUSH3 0x2B0 JUMP JUMPDEST SWAP1 POP DUP3 DUP2 MSTORE PUSH1 0x20 DUP2 ADD DUP5 DUP5 DUP5 ADD GT ISZERO PUSH3 0x362 JUMPI PUSH3 0x361 PUSH3 0x239 JUMP JUMPDEST JUMPDEST PUSH3 0x36F DUP5 DUP3 DUP6 PUSH3 0x303 JUMP JUMPDEST POP SWAP4 SWAP3 POP POP POP JUMP JUMPDEST PUSH0 DUP3 PUSH1 0x1F DUP4 ADD SLT PUSH3 0x38E JUMPI PUSH3 0x38D PUSH3 0x235 JUMP JUMPDEST JUMPDEST DUP2 MLOAD PUSH3 0x3A0 DUP5 DUP3 PUSH1 0x20 DUP7 ADD PUSH3 0x32D JUMP JUMPDEST SWAP2 POP POP SWAP3 SWAP2 POP POP JUMP JUMPDEST PUSH0 DUP1 PUSH0 PUSH1 0x60 DUP5 DUP7 SUB SLT ISZERO PUSH3 0x3C3 JUMPI PUSH3 0x3C2 PUSH3 0x1CC JUMP JUMPDEST JUMPDEST PUSH0 PUSH3 0x3D2 DUP7 DUP3 DUP8 ADD PUSH3 0x21F JUMP JUMPDEST SWAP4 POP POP PUSH1 0x20 DUP5 ADD MLOAD PUSH8 0xFFFFFFFFFFFFFFFF DUP2 GT ISZERO PUSH3 0x3F6 JUMPI PUSH3 0x3F5 PUSH3 0x1D0 JUMP JUMPDEST JUMPDEST PUSH3 0x404 DUP7 DUP3 DUP8 ADD PUSH3 0x377 JUMP JUMPDEST SWAP3 POP POP PUSH1 0x40 DUP5 ADD MLOAD PUSH8 0xFFFFFFFFFFFFFFFF DUP2 GT ISZERO PUSH3 0x428 JUMPI PUSH3 0x427 PUSH3 0x1D0 JUMP JUMPDEST JUMPDEST PUSH3 0x436 DUP7 DUP3 DUP8 ADD PUSH3 0x377 JUMP JUMPDEST SWAP2 POP POP SWAP3 POP SWAP3 POP SWAP3 JUMP JUMPDEST PUSH0 DUP2 MLOAD SWAP1 POP SWAP2 SWAP1 POP JUMP JUMPDEST PUSH32 0x4E487B7100000000000000000000000000000000000000000000000000000000 PUSH0 MSTORE PUSH1 0x22 PUSH1 0x4 MSTORE PUSH1 0x24 PUSH0 REVERT JUMPDEST PUSH0 PUSH1 0x2 DUP3 DIV SWAP1 POP PUSH1 0x1 DUP3 AND DUP1 PUSH3 0x48F JUMPI PUSH1 0x7F DUP3 AND SWAP2 POP JUMPDEST PUSH1 0x20 DUP3 LT DUP2 SUB PUSH3 0x4A5 JUMPI PUSH3 0x4A4 PUSH3 0x44A JUMP JUMPDEST JUMPDEST POP SWAP2 SWAP1 POP JUMP JUMPDEST PUSH0 DUP2 SWAP1 POP DUP2 PUSH0 MSTORE PUSH1 0x20 PUSH0 KECCAK256 SWAP1 POP SWAP2 SWAP1 POP JUMP JUMPDEST PUSH0 PUSH1 0x20 PUSH1 0x1F DUP4 ADD DIV SWAP1 POP SWAP2 SWAP1 POP JUMP JUMPDEST PUSH0 DUP3 DUP3 SHL SWAP1 POP SWAP3 SWAP2 POP POP JUMP JUMPDEST PUSH0 PUSH1 0x8 DUP4 MUL PUSH3 0x509 PUSH32 0xFFFFFFFFFFFFFFFFFFFFFFFFFFFFFFFFFFFFFFFFFFFFFFFFFFFFFFFFFFFFFFFF DUP3 PUSH3 0x4CC JUMP JUMPDEST PUSH3 0x515 DUP7 DUP4 PUSH3 0x4CC JUMP JUMPDEST SWAP6 POP DUP1 NOT DUP5 AND SWAP4 POP DUP1 DUP7 AND DUP5 OR SWAP3 POP POP POP SWAP4 SWAP3 POP POP POP JUMP JUMPDEST PUSH0 DUP2 SWAP1 POP SWAP2 SWAP1 POP JUMP JUMPDEST PUSH0 DUP2 SWAP1 POP SWAP2 SWAP1 POP JUMP JUMPDEST PUSH0 PUSH3 0x55F PUSH3 0x559 PUSH3 0x553 DUP5 PUSH3 0x52D JUMP JUMPDEST PUSH3 0x536 JUMP JUMPDEST PUSH3 0x52D JUMP JUMPDEST SWAP1 POP SWAP2 SWAP1 POP JUMP JUMPDEST PUSH0 DUP2 SWAP1 POP SWAP2 SWAP1 POP JUMP JUMPDEST PUSH3 0x57A DUP4 PUSH3 0x53F JUMP JUMPDEST PUSH3 0x592 PUSH3 0x589 DUP3 PUSH3 0x566 JUMP JUMPDEST DUP5 DUP5 SLOAD PUSH3 0x4D8 JUMP JUMPDEST DUP3 SSTORE POP POP POP POP JUMP JUMPDEST PUSH0 SWAP1 JUMP JUMPDEST PUSH3 0x5A8 PUSH3 0x59A JUMP JUMPDEST PUSH3 0x5B5 DUP2 DUP5 DUP5 PUSH3 0x56F JUMP JUMPDEST POP POP POP JUMP JUMPDEST JUMPDEST DUP2 DUP2 LT ISZERO PUSH3 0x5DC JUMPI PUSH3 0x5D0 PUSH0 DUP3 PUSH3 0x59E JUMP JUMPDEST PUSH1 0x1 DUP2 ADD SWAP1 POP PUSH3 0x5BB JUMP JUMPDEST POP POP JUMP JUMPDEST PUSH1 0x1F DUP3 GT ISZERO PUSH3 0x62B JUMPI PUSH3 0x5F5 DUP2 PUSH3 0x4AB JUMP JUMPDEST PUSH3 0x600 DUP5 PUSH3 0x4BD JUMP JUMPDEST DUP2 ADD PUSH1 0x20 DUP6 LT ISZERO PUSH3 0x610 JUMPI DUP2 SWAP1 POP JUMPDEST PUSH3 0x628 PUSH3 0x61F DUP6 PUSH3 0x4BD JUMP JUMPDEST DUP4 ADD DUP3 PUSH3 0x5BA JUMP JUMPDEST POP POP JUMPDEST POP POP POP JUMP JUMPDEST PUSH0 DUP3 DUP3 SHR SWAP1 POP SWAP3 SWAP2 POP POP JUMP JUMPDEST PUSH0 PUSH3 0x64D PUSH0 NOT DUP5 PUSH1 0x8 MUL PUSH3 0x630 JUMP JUMPDEST NOT DUP1 DUP4 AND SWAP2 POP POP SWAP3 SWAP2 POP POP JUMP JUMPDEST PUSH0 PUSH3 0x667 DUP4 DUP4 PUSH3 0x63C JUMP JUMPDEST SWAP2 POP DUP3 PUSH1 0x2 MUL DUP3 OR SWAP1 POP SWAP3 SWAP2 POP POP JUMP JUMPDEST PUSH3 0x682 DUP3 PUSH3 0x440 JUMP JUMPDEST PUSH8 0xFFFFFFFFFFFFFFFF DUP2 GT ISZERO PUSH3 0x69E JUMPI PUSH3 0x69D PUSH3 0x24D JUMP JUMPDEST JUMPDEST PUSH3 0x6AA DUP3 SLOAD PUSH3 0x477 JUMP JUMPDEST PUSH3 0x6B7 DUP3 DUP3 DUP6 PUSH3 0x5E0 JUMP JUMPDEST PUSH0 PUSH1 0x20 SWAP1 POP PUSH1 0x1F DUP4 GT PUSH1 0x1 DUP2 EQ PUSH3 0x6ED JUMPI PUSH0 DUP5 ISZERO PUSH3 0x6D8 JUMPI DUP3 DUP8 ADD MLOAD SWAP1 POP JUMPDEST PUSH3 0x6E4 DUP6 DUP3 PUSH3 0x65A JUMP JUMPDEST DUP7 SSTORE POP PUSH3 0x753 JUMP JUMPDEST PUSH1 0x1F NOT DUP5 AND PUSH3 0x6FD DUP7 PUSH3 0x4AB JUMP JUMPDEST PUSH0 JUMPDEST DUP3 DUP2 LT ISZERO PUSH3 0x726 JUMPI DUP5 DUP10 ADD MLOAD DUP3 SSTORE PUSH1 0x1 DUP3 ADD SWAP2 POP PUSH1 0x20 DUP6 ADD SWAP5 POP PUSH1 0x20 DUP2 ADD SWAP1 POP PUSH3 0x6FF JUMP JUMPDEST DUP7 DUP4 LT ISZERO PUSH3 0x746 JUMPI DUP5 DUP10 ADD MLOAD PUSH3 0x742 PUSH1 0x1F DUP10 AND DUP3 PUSH3 0x63C JUMP JUMPDEST DUP4 SSTORE POP JUMPDEST PUSH1 0x1 PUSH1 0x2 DUP9 MUL ADD DUP9 SSTORE POP POP POP JUMPDEST POP POP POP POP POP POP JUMP JUMPDEST PUSH0 DUP3 DUP3 MSTORE PUSH1 0x20 DUP3 ADD SWAP1 POP SWAP3 SWAP2 POP POP JUMP JUMPDEST PUSH0 PUSH3 0x777 DUP3 PUSH3 0x440 JUMP JUMPDEST PUSH3 0x783 DUP2 DUP6 PUSH3 0x75B JUMP JUMPDEST SWAP4 POP PUSH3 0x795 DUP2 DUP6 PUSH1 0x20 DUP7 ADD PUSH3 0x303 JUMP JUMPDEST PUSH3 0x7A0 DUP2 PUSH3 0x23D JUMP JUMPDEST DUP5 ADD SWAP2 POP POP SWAP3 SWAP2 POP POP JUMP JUMPDEST PUSH0 PUSH1 0x40 DUP3 ADD SWAP1 POP DUP2 DUP2 SUB PUSH0 DUP4 ADD MSTORE PUSH3 0x7C5 DUP2 DUP6 PUSH3 0x76B JUMP JUMPDEST SWAP1 POP DUP2 DUP2 SUB PUSH1 0x20 DUP4 ADD MSTORE PUSH3 0x7DB DUP2 DUP5 PUSH3 0x76B JUMP JUMPDEST SWAP1 POP SWAP4 SWAP3 POP POP POP JUMP JUMPDEST PUSH0 DUP2 MLOAD SWAP1 POP SWAP2 SWAP1 POP JUMP JUMPDEST PUSH0 DUP2 SWAP1 POP SWAP3 SWAP2 POP POP JUMP JUMPDEST PUSH0 PUSH3 0x804 DUP3 PUSH3 0x7E4 JUMP JUMPDEST PUSH3 0x810 DUP2 DUP6 PUSH3 0x7EE JUMP JUMPDEST SWAP4 POP PUSH3 0x822 DUP2 DUP6 PUSH1 0x20 DUP7 ADD PUSH3 0x303 JUMP JUMPDEST DUP1 DUP5 ADD SWAP2 POP POP SWAP3 SWAP2 POP POP JUMP JUMPDEST PUSH0 PUSH3 0x83B DUP3 DUP5 PUSH3 0x7F8 JUMP JUMPDEST SWAP2 POP DUP2 SWAP1 POP SWAP3 SWAP2 POP POP JUMP JUMPDEST PUSH2 0x3070 DUP1 PUSH3 0x854 PUSH0 CODECOPY PUSH0 RETURN INVALID PUSH1 0x80 PUSH1 0x40 MSTORE CALLVALUE DUP1 ISZERO PUSH2 0xF JUMPI PUSH0 DUP1 REVERT JUMPDEST POP PUSH1 0x4 CALLDATASIZE LT PUSH2 0x1D8 JUMPI PUSH0 CALLDATALOAD PUSH1 0xE0 SHR DUP1 PUSH4 0x743976A0 GT PUSH2 0x102 JUMPI DUP1 PUSH4 0xA0AEA85D GT PUSH2 0xA0 JUMPI DUP1 PUSH4 0xC87B56DD GT PUSH2 0x6F JUMPI DUP1 PUSH4 0xC87B56DD EQ PUSH2 0x532 JUMPI DUP1 PUSH4 0xE985E9C5 EQ PUSH2 0x562 JUMPI DUP1 PUSH4 0xF661E7C9 EQ PUSH2 0x592 JUMPI DUP1 PUSH4 0xF8E76CC0 EQ PUSH2 0x5AE JUMPI PUSH2 0x1D8 JUMP JUMPDEST DUP1 PUSH4 0xA0AEA85D EQ PUSH2 0x4C2 JUMPI DUP1 PUSH4 0xA22CB465 EQ PUSH2 0x4DE JUMPI DUP1 PUSH4 0xB3E1C718 EQ PUSH2 0x4FA JUMPI DUP1 PUSH4 0xB88D4FDE EQ PUSH2 0x516 JUMPI PUSH2 0x1D8 JUMP JUMPDEST DUP1 PUSH4 0x95D89B41 GT PUSH2 0xDC JUMPI DUP1 PUSH4 0x95D89B41 EQ PUSH2 0x450 JUMPI DUP1 PUSH4 0x98D28EEB EQ PUSH2 0x46E JUMPI DUP1 PUSH4 0x9A03D9A3 EQ PUSH2 0x48A JUMPI DUP1 PUSH4 0x9B1F9E74 EQ PUSH2 0x4A6 JUMPI PUSH2 0x1D8 JUMP JUMPDEST DUP1 PUSH4 0x743976A0 EQ PUSH2 0x3FA JUMPI DUP1 PUSH4 0x7B7D7225 EQ PUSH2 0x418 JUMPI DUP1 PUSH4 0x8C4E3F32 EQ PUSH2 0x434 JUMPI PUSH2 0x1D8 JUMP JUMPDEST DUP1 PUSH4 0x30E0789E GT PUSH2 0x17A JUMPI DUP1 PUSH4 0x4E6EC247 GT PUSH2 0x149 JUMPI DUP1 PUSH4 0x4E6EC247 EQ PUSH2 0x362 JUMPI DUP1 PUSH4 0x6352211E EQ PUSH2 0x37E JUMPI DUP1 PUSH4 0x6A4F832B EQ PUSH2 0x3AE JUMPI DUP1 PUSH4 0x70A08231 EQ PUSH2 0x3CA JUMPI PUSH2 0x1D8 JUMP JUMPDEST DUP1 PUSH4 0x30E0789E EQ PUSH2 0x2CA JUMPI DUP1 PUSH4 0x38350541 EQ PUSH2 0x2E6 JUMPI DUP1 PUSH4 0x42842E0E EQ PUSH2 0x316 JUMPI DUP1 PUSH4 0x4CDC9549 EQ PUSH2 0x332 JUMPI PUSH2 0x1D8 JUMP JUMPDEST DUP1 PUSH4 0x95EA7B3 GT PUSH2 0x1B6 JUMPI DUP1 PUSH4 0x95EA7B3 EQ PUSH2 0x25A JUMPI DUP1 PUSH4 0x23B872DD EQ PUSH2 0x276 JUMPI DUP1 PUSH4 0x24B6B8C0 EQ PUSH2 0x292 JUMPI DUP1 PUSH4 0x2BD9A459 EQ PUSH2 0x2AE JUMPI PUSH2 0x1D8 JUMP JUMPDEST DUP1 PUSH4 0x1FFC9A7 EQ PUSH2 0x1DC JUMPI DUP1 PUSH4 0x6FDDE03 EQ PUSH2 0x20C JUMPI DUP1 PUSH4 0x81812FC EQ PUSH2 0x22A JUMPI JUMPDEST PUSH0 DUP1 REVERT JUMPDEST PUSH2 0x1F6 PUSH1 0x4 DUP1 CALLDATASIZE SUB DUP2 ADD SWAP1 PUSH2 0x1F1 SWAP2 SWAP1 PUSH2 0x25B8 JUMP JUMPDEST PUSH2 0x5DE JUMP JUMPDEST PUSH1 0x40 MLOAD PUSH2 0x203 SWAP2 SWAP1 PUSH2 0x25FD JUMP JUMPDEST PUSH1 0x40 MLOAD DUP1 SWAP2 SUB SWAP1 RETURN JUMPDEST PUSH2 0x214 PUSH2 0x71C JUMP JUMPDEST PUSH1 0x40 MLOAD PUSH2 0x221 SWAP2 SWAP1 PUSH2 0x26A0 JUMP JUMPDEST PUSH1 0x40 MLOAD DUP1 SWAP2 SUB SWAP1 RETURN JUMPDEST PUSH2 0x244 PUSH1 0x4 DUP1 CALLDATASIZE SUB DUP2 ADD SWAP1 PUSH2 0x23F SWAP2 SWAP1 PUSH2 0x26F3 JUMP JUMPDEST PUSH2 0x84E JUMP JUMPDEST PUSH1 0x40 MLOAD PUSH2 0x251 SWAP2 SWAP1 PUSH2 0x275D JUMP JUMPDEST PUSH1 0x40 MLOAD DUP1 SWAP2 SUB SWAP1 RETURN JUMPDEST PUSH2 0x274 PUSH1 0x4 DUP1 CALLDATASIZE SUB DUP2 ADD SWAP1 PUSH2 0x26F SWAP2 SWAP1 PUSH2 0x27A0 JUMP JUMPDEST PUSH2 0x98C JUMP JUMPDEST STOP JUMPDEST PUSH2 0x290 PUSH1 0x4 DUP1 CALLDATASIZE SUB DUP2 ADD SWAP1 PUSH2 0x28B SWAP2 SWAP1 PUSH2 0x27DE JUMP JUMPDEST PUSH2 0xAAB JUMP JUMPDEST STOP JUMPDEST PUSH2 0x2AC PUSH1 0x4 DUP1 CALLDATASIZE SUB DUP2 ADD SWAP1 PUSH2 0x2A7 SWAP2 SWAP1 PUSH2 0x295A JUMP JUMPDEST PUSH2 0xBCD JUMP JUMPDEST STOP JUMPDEST PUSH2 0x2C8 PUSH1 0x4 DUP1 CALLDATASIZE SUB DUP2 ADD SWAP1 PUSH2 0x2C3 SWAP2 SWAP1 PUSH2 0x29DA JUMP JUMPDEST PUSH2 0xCF2 JUMP JUMPDEST STOP JUMPDEST PUSH2 0x2E4 PUSH1 0x4 DUP1 CALLDATASIZE SUB DUP2 ADD SWAP1 PUSH2 0x2DF SWAP2 SWAP1 PUSH2 0x27DE JUMP JUMPDEST PUSH2 0xCF8 JUMP JUMPDEST STOP JUMPDEST PUSH2 0x300 PUSH1 0x4 DUP1 CALLDATASIZE SUB DUP2 ADD SWAP1 PUSH2 0x2FB SWAP2 SWAP1 PUSH2 0x26F3 JUMP JUMPDEST PUSH2 0xE1A JUMP JUMPDEST PUSH1 0x40 MLOAD PUSH2 0x30D SWAP2 SWAP1 PUSH2 0x275D JUMP JUMPDEST PUSH1 0x40 MLOAD DUP1 SWAP2 SUB SWAP1 RETURN JUMPDEST PUSH2 0x330 PUSH1 0x4 DUP1 CALLDATASIZE SUB DUP2 ADD SWAP1 PUSH2 0x32B SWAP2 SWAP1 PUSH2 0x27DE JUMP JUMPDEST PUSH2 0xF58 JUMP JUMPDEST STOP JUMPDEST PUSH2 0x34C PUSH1 0x4 DUP1 CALLDATASIZE SUB DUP2 ADD SWAP1 PUSH2 0x347 SWAP2 SWAP1 PUSH2 0x27A0 JUMP JUMPDEST PUSH2 0x107A JUMP JUMPDEST PUSH1 0x40 MLOAD PUSH2 0x359 SWAP2 SWAP1 PUSH2 0x25FD JUMP JUMPDEST PUSH1 0x40 MLOAD DUP1 SWAP2 SUB SWAP1 RETURN JUMPDEST PUSH2 0x37C PUSH1 0x4 DUP1 CALLDATASIZE SUB DUP2 ADD SWAP1 PUSH2 0x377 SWAP2 SWAP1 PUSH2 0x27A0 JUMP JUMPDEST PUSH2 0x11BB JUMP JUMPDEST STOP JUMPDEST PUSH2 0x398 PUSH1 0x4 DUP1 CALLDATASIZE SUB DUP2 ADD SWAP1 PUSH2 0x393 SWAP2 SWAP1 PUSH2 0x26F3 JUMP JUMPDEST PUSH2 0x12DA JUMP JUMPDEST PUSH1 0x40 MLOAD PUSH2 0x3A5 SWAP2 SWAP1 PUSH2 0x275D JUMP JUMPDEST PUSH1 0x40 MLOAD DUP1 SWAP2 SUB SWAP1 RETURN JUMPDEST PUSH2 0x3C8 PUSH1 0x4 DUP1 CALLDATASIZE SUB DUP2 ADD SWAP1 PUSH2 0x3C3 SWAP2 SWAP1 PUSH2 0x2A3E JUMP JUMPDEST PUSH2 0x1418 JUMP JUMPDEST STOP JUMPDEST PUSH2 0x3E4 PUSH1 0x4 DUP1 CALLDATASIZE SUB DUP2 ADD SWAP1 PUSH2 0x3DF SWAP2 SWAP1 PUSH2 0x2AAA JUMP JUMPDEST PUSH2 0x153A JUMP JUMPDEST PUSH1 0x40 MLOAD PUSH2 0x3F1 SWAP2 SWAP1 PUSH2 0x2AE4 JUMP JUMPDEST PUSH1 0x40 MLOAD DUP1 SWAP2 SUB SWAP1 RETURN JUMPDEST PUSH2 0x402 PUSH2 0x15EE JUMP JUMPDEST PUSH1 0x40 MLOAD PUSH2 0x40F SWAP2 SWAP1 PUSH2 0x26A0 JUMP JUMPDEST PUSH1 0x40 MLOAD DUP1 SWAP2 SUB SWAP1 RETURN JUMPDEST PUSH2 0x432 PUSH1 0x4 DUP1 CALLDATASIZE SUB DUP2 ADD SWAP1 PUSH2 0x42D SWAP2 SWAP1 PUSH2 0x27A0 JUMP JUMPDEST PUSH2 0x1720 JUMP JUMPDEST STOP JUMPDEST PUSH2 0x44E PUSH1 0x4 DUP1 CALLDATASIZE SUB DUP2 ADD SWAP1 PUSH2 0x449 SWAP2 SWAP1 PUSH2 0x2B27 JUMP JUMPDEST PUSH2 0x183F JUMP JUMPDEST STOP JUMPDEST PUSH2 0x458 PUSH2 0x1961 JUMP JUMPDEST PUSH1 0x40 MLOAD PUSH2 0x465 SWAP2 SWAP1 PUSH2 0x26A0 JUMP JUMPDEST PUSH1 0x40 MLOAD DUP1 SWAP2 SUB SWAP1 RETURN JUMPDEST PUSH2 0x488 PUSH1 0x4 DUP1 CALLDATASIZE SUB DUP2 ADD SWAP1 PUSH2 0x483 SWAP2 SWAP1 PUSH2 0x29DA JUMP JUMPDEST PUSH2 0x1A93 JUMP JUMPDEST STOP JUMPDEST PUSH2 0x4A4 PUSH1 0x4 DUP1 CALLDATASIZE SUB DUP2 ADD SWAP1 PUSH2 0x49F SWAP2 SWAP1 PUSH2 0x2AAA JUMP JUMPDEST PUSH2 0x1A99 JUMP JUMPDEST STOP JUMPDEST PUSH2 0x4C0 PUSH1 0x4 DUP1 CALLDATASIZE SUB DUP2 ADD SWAP1 PUSH2 0x4BB SWAP2 SWAP1 PUSH2 0x26F3 JUMP JUMPDEST PUSH2 0x1ADC JUMP JUMPDEST STOP JUMPDEST PUSH2 0x4DC PUSH1 0x4 DUP1 CALLDATASIZE SUB DUP2 ADD SWAP1 PUSH2 0x4D7 SWAP2 SWAP1 PUSH2 0x26F3 JUMP JUMPDEST PUSH2 0x1BF8 JUMP JUMPDEST STOP JUMPDEST PUSH2 0x4F8 PUSH1 0x4 DUP1 CALLDATASIZE SUB DUP2 ADD SWAP1 PUSH2 0x4F3 SWAP2 SWAP1 PUSH2 0x2B77 JUMP JUMPDEST PUSH2 0x1D14 JUMP JUMPDEST STOP JUMPDEST PUSH2 0x514 PUSH1 0x4 DUP1 CALLDATASIZE SUB DUP2 ADD SWAP1 PUSH2 0x50F SWAP2 SWAP1 PUSH2 0x27A0 JUMP JUMPDEST PUSH2 0x1E33 JUMP JUMPDEST STOP JUMPDEST PUSH2 0x530 PUSH1 0x4 DUP1 CALLDATASIZE SUB DUP2 ADD SWAP1 PUSH2 0x52B SWAP2 SWAP1 PUSH2 0x295A JUMP JUMPDEST PUSH2 0x1F50 JUMP JUMPDEST STOP JUMPDEST PUSH2 0x54C PUSH1 0x4 DUP1 CALLDATASIZE SUB DUP2 ADD SWAP1 PUSH2 0x547 SWAP2 SWAP1 PUSH2 0x26F3 JUMP JUMPDEST PUSH2 0x2075 JUMP JUMPDEST PUSH1 0x40 MLOAD PUSH2 0x559 SWAP2 SWAP1 PUSH2 0x26A0 JUMP JUMPDEST PUSH1 0x40 MLOAD DUP1 SWAP2 SUB SWAP1 RETURN JUMPDEST PUSH2 0x57C PUSH1 0x4 DUP1 CALLDATASIZE SUB DUP2 ADD SWAP1 PUSH2 0x577 SWAP2 SWAP1 PUSH2 0x2BB5 JUMP JUMPDEST PUSH2 0x21B4 JUMP JUMPDEST PUSH1 0x40 MLOAD PUSH2 0x589 SWAP2 SWAP1 PUSH2 0x25FD JUMP JUMPDEST PUSH1 0x40 MLOAD DUP1 SWAP2 SUB SWAP1 RETURN JUMPDEST PUSH2 0x5AC PUSH1 0x4 DUP1 CALLDATASIZE SUB DUP2 ADD SWAP1 PUSH2 0x5A7 SWAP2 SWAP1 PUSH2 0x27A0 JUMP JUMPDEST PUSH2 0x22F5 JUMP JUMPDEST STOP JUMPDEST PUSH2 0x5C8 PUSH1 0x4 DUP1 CALLDATASIZE SUB DUP2 ADD SWAP1 PUSH2 0x5C3 SWAP2 SWAP1 PUSH2 0x26F3 JUMP JUMPDEST PUSH2 0x2414 JUMP JUMPDEST PUSH1 0x40 MLOAD PUSH2 0x5D5 SWAP2 SWAP1 PUSH2 0x25FD JUMP JUMPDEST PUSH1 0x40 MLOAD DUP1 SWAP2 SUB SWAP1 RETURN JUMPDEST PUSH0 DUP1 PUSH0 PUSH1 0x6 PUSH0 SWAP1 SLOAD SWAP1 PUSH2 0x100 EXP SWAP1 DIV PUSH20 0xFFFFFFFFFFFFFFFFFFFFFFFFFFFFFFFFFFFFFFFF AND PUSH20 0xFFFFFFFFFFFFFFFFFFFFFFFFFFFFFFFFFFFFFFFF AND DUP5 PUSH1 0x40 MLOAD PUSH1 0x24 ADD PUSH2 0x62A SWAP2 SWAP1 PUSH2 0x2C02 JUMP JUMPDEST PUSH1 0x40 MLOAD PUSH1 0x20 DUP2 DUP4 SUB SUB DUP2 MSTORE SWAP1 PUSH1 0x40 MSTORE PUSH32 0x1FFC9A700000000000000000000000000000000000000000000000000000000 PUSH28 0xFFFFFFFFFFFFFFFFFFFFFFFFFFFFFFFFFFFFFFFFFFFFFFFFFFFFFFFF NOT AND PUSH1 0x20 DUP3 ADD DUP1 MLOAD PUSH28 0xFFFFFFFFFFFFFFFFFFFFFFFFFFFFFFFFFFFFFFFFFFFFFFFFFFFFFFFF DUP4 DUP2 DUP4 AND OR DUP4 MSTORE POP POP POP POP PUSH1 0x40 MLOAD PUSH2 0x6B4 SWAP2 SWAP1 PUSH2 0x2C5F JUMP JUMPDEST PUSH0 PUSH1 0x40 MLOAD DUP1 DUP4 SUB DUP2 DUP6 GAS DELEGATECALL SWAP2 POP POP RETURNDATASIZE DUP1 PUSH0 DUP2 EQ PUSH2 0x6EC JUMPI PUSH1 0x40 MLOAD SWAP2 POP PUSH1 0x1F NOT PUSH1 0x3F RETURNDATASIZE ADD AND DUP3 ADD PUSH1 0x40 MSTORE RETURNDATASIZE DUP3 MSTORE RETURNDATASIZE PUSH0 PUSH1 0x20 DUP5 ADD RETURNDATACOPY PUSH2 0x6F1 JUMP JUMPDEST PUSH1 0x60 SWAP2 POP JUMPDEST POP SWAP2 POP SWAP2 POP DUP2 PUSH2 0x6FF JUMPI PUSH0 DUP1 REVERT JUMPDEST DUP1 DUP1 PUSH1 0x20 ADD SWAP1 MLOAD DUP2 ADD SWAP1 PUSH2 0x713 SWAP2 SWAP1 PUSH2 0x2C89 JUMP JUMPDEST SWAP3 POP POP POP SWAP2 SWAP1 POP JUMP JUMPDEST PUSH1 0x60 PUSH0 DUP1 PUSH1 0x6 PUSH0 SWAP1 SLOAD SWAP1 PUSH2 0x100 EXP SWAP1 DIV PUSH20 0xFFFFFFFFFFFFFFFFFFFFFFFFFFFFFFFFFFFFFFFF AND PUSH20 0xFFFFFFFFFFFFFFFFFFFFFFFFFFFFFFFFFFFFFFFF AND PUSH1 0x40 MLOAD PUSH1 0x24 ADD PUSH1 0x40 MLOAD PUSH1 0x20 DUP2 DUP4 SUB SUB DUP2 MSTORE SWAP1 PUSH1 0x40 MSTORE PUSH32 0x6FDDE0300000000000000000000000000000000000000000000000000000000 PUSH28 0xFFFFFFFFFFFFFFFFFFFFFFFFFFFFFFFFFFFFFFFFFFFFFFFFFFFFFFFF NOT AND PUSH1 0x20 DUP3 ADD DUP1 MLOAD PUSH28 0xFFFFFFFFFFFFFFFFFFFFFFFFFFFFFFFFFFFFFFFFFFFFFFFFFFFFFFFF DUP4 DUP2 DUP4 AND OR DUP4 MSTORE POP POP POP POP PUSH1 0x40 MLOAD PUSH2 0x7E8 SWAP2 SWAP1 PUSH2 0x2C5F JUMP JUMPDEST PUSH0 PUSH1 0x40 MLOAD DUP1 DUP4 SUB DUP2 DUP6 GAS DELEGATECALL SWAP2 POP POP RETURNDATASIZE DUP1 PUSH0 DUP2 EQ PUSH2 0x820 JUMPI PUSH1 0x40 MLOAD SWAP2 POP PUSH1 0x1F NOT PUSH1 0x3F RETURNDATASIZE ADD AND DUP3 ADD PUSH1 0x40 MSTORE RETURNDATASIZE DUP3 MSTORE RETURNDATASIZE PUSH0 PUSH1 0x20 DUP5 ADD RETURNDATACOPY PUSH2 0x825 JUMP JUMPDEST PUSH1 0x60 SWAP2 POP JUMPDEST POP SWAP2 POP SWAP2 POP DUP2 PUSH2 0x833 JUMPI PUSH0 DUP1 REVERT JUMPDEST DUP1 DUP1 PUSH1 0x20 ADD SWAP1 MLOAD DUP2 ADD SWAP1 PUSH2 0x847 SWAP2 SWAP1 PUSH2 0x2D52 JUMP JUMPDEST SWAP3 POP POP POP SWAP1 JUMP JUMPDEST PUSH0 DUP1 PUSH0 PUSH1 0x6 PUSH0 SWAP1 SLOAD SWAP1 PUSH2 0x100 EXP SWAP1 DIV PUSH20 0xFFFFFFFFFFFFFFFFFFFFFFFFFFFFFFFFFFFFFFFF AND PUSH20 0xFFFFFFFFFFFFFFFFFFFFFFFFFFFFFFFFFFFFFFFF AND DUP5 PUSH1 0x40 MLOAD PUSH1 0x24 ADD PUSH2 0x89A SWAP2 SWAP1 PUSH2 0x2AE4 JUMP JUMPDEST PUSH1 0x40 MLOAD PUSH1 0x20 DUP2 DUP4 SUB SUB DUP2 MSTORE SWAP1 PUSH1 0x40 MSTORE PUSH32 0x81812FC00000000000000000000000000000000000000000000000000000000 PUSH28 0xFFFFFFFFFFFFFFFFFFFFFFFFFFFFFFFFFFFFFFFFFFFFFFFFFFFFFFFF NOT AND PUSH1 0x20 DUP3 ADD DUP1 MLOAD PUSH28 0xFFFFFFFFFFFFFFFFFFFFFFFFFFFFFFFFFFFFFFFFFFFFFFFFFFFFFFFF DUP4 DUP2 DUP4 AND OR DUP4 MSTORE POP POP POP POP PUSH1 0x40 MLOAD PUSH2 0x924 SWAP2 SWAP1 PUSH2 0x2C5F JUMP JUMPDEST PUSH0 PUSH1 0x40 MLOAD DUP1 DUP4 SUB DUP2 DUP6 GAS DELEGATECALL SWAP2 POP POP RETURNDATASIZE DUP1 PUSH0 DUP2 EQ PUSH2 0x95C JUMPI PUSH1 0x40 MLOAD SWAP2 POP PUSH1 0x1F NOT PUSH1 0x3F RETURNDATASIZE ADD AND DUP3 ADD PUSH1 0x40 MSTORE RETURNDATASIZE DUP3 MSTORE RETURNDATASIZE PUSH0 PUSH1 0x20 DUP5 ADD RETURNDATACOPY PUSH2 0x961 JUMP JUMPDEST PUSH1 0x60 SWAP2 POP JUMPDEST POP SWAP2 POP SWAP2 POP DUP2 PUSH2 0x96F JUMPI PUSH0 DUP1 REVERT JUMPDEST DUP1 DUP1 PUSH1 0x20 ADD SWAP1 MLOAD DUP2 ADD SWAP1 PUSH2 0x983 SWAP2 SWAP1 PUSH2 0x2DD4 JUMP JUMPDEST SWAP3 POP POP POP SWAP2 SWAP1 POP JUMP JUMPDEST PUSH0 DUP1 PUSH1 0x6 PUSH0 SWAP1 SLOAD SWAP1 PUSH2 0x100 EXP SWAP1 DIV PUSH20 0xFFFFFFFFFFFFFFFFFFFFFFFFFFFFFFFFFFFFFFFF AND PUSH20 0xFFFFFFFFFFFFFFFFFFFFFFFFFFFFFFFFFFFFFFFF AND DUP5 DUP5 PUSH1 0x40 MLOAD PUSH1 0x24 ADD PUSH2 0x9D9 SWAP3 SWAP2 SWAP1 PUSH2 0x2DFF JUMP JUMPDEST PUSH1 0x40 MLOAD PUSH1 0x20 DUP2 DUP4 SUB SUB DUP2 MSTORE SWAP1 PUSH1 0x40 MSTORE PUSH32 0x8B069F2A00000000000000000000000000000000000000000000000000000000 PUSH28 0xFFFFFFFFFFFFFFFFFFFFFFFFFFFFFFFFFFFFFFFFFFFFFFFFFFFFFFFF NOT AND PUSH1 0x20 DUP3 ADD DUP1 MLOAD PUSH28 0xFFFFFFFFFFFFFFFFFFFFFFFFFFFFFFFFFFFFFFFFFFFFFFFFFFFFFFFF DUP4 DUP2 DUP4 AND OR DUP4 MSTORE POP POP POP POP PUSH1 0x40 MLOAD PUSH2 0xA63 SWAP2 SWAP1 PUSH2 0x2C5F JUMP JUMPDEST PUSH0 PUSH1 0x40 MLOAD DUP1 DUP4 SUB DUP2 DUP6 GAS DELEGATECALL SWAP2 POP POP RETURNDATASIZE DUP1 PUSH0 DUP2 EQ PUSH2 0xA9B JUMPI PUSH1 0x40 MLOAD SWAP2 POP PUSH1 0x1F NOT PUSH1 0x3F RETURNDATASIZE ADD AND DUP3 ADD PUSH1 0x40 MSTORE RETURNDATASIZE DUP3 MSTORE RETURNDATASIZE PUSH0 PUSH1 0x20 DUP5 ADD RETURNDATACOPY PUSH2 0xAA0 JUMP JUMPDEST PUSH1 0x60 SWAP2 POP JUMPDEST POP SWAP2 POP SWAP2 POP POP POP POP POP JUMP JUMPDEST PUSH0 DUP1 PUSH1 0x6 PUSH0 SWAP1 SLOAD SWAP1 PUSH2 0x100 EXP SWAP1 DIV PUSH20 0xFFFFFFFFFFFFFFFFFFFFFFFFFFFFFFFFFFFFFFFF AND PUSH20 0xFFFFFFFFFFFFFFFFFFFFFFFFFFFFFFFFFFFFFFFF AND DUP6 DUP6 DUP6 PUSH1 0x40 MLOAD PUSH1 0x24 ADD PUSH2 0xAFA SWAP4 SWAP3 SWAP2 SWAP1 PUSH2 0x2E26 JUMP JUMPDEST PUSH1 0x40 MLOAD PUSH1 0x20 DUP2 DUP4 SUB SUB DUP2 MSTORE SWAP1 PUSH1 0x40 MSTORE PUSH32 0xB642FE5700000000000000000000000000000000000000000000000000000000 PUSH28 0xFFFFFFFFFFFFFFFFFFFFFFFFFFFFFFFFFFFFFFFFFFFFFFFFFFFFFFFF NOT AND PUSH1 0x20 DUP3 ADD DUP1 MLOAD PUSH28 0xFFFFFFFFFFFFFFFFFFFFFFFFFFFFFFFFFFFFFFFFFFFFFFFFFFFFFFFF DUP4 DUP2 DUP4 AND OR DUP4 MSTORE POP POP POP POP PUSH1 0x40 MLOAD PUSH2 0xB84 SWAP2 SWAP1 PUSH2 0x2C5F JUMP JUMPDEST PUSH0 PUSH1 0x40 MLOAD DUP1 DUP4 SUB DUP2 DUP6 GAS DELEGATECALL SWAP2 POP POP RETURNDATASIZE DUP1 PUSH0 DUP2 EQ PUSH2 0xBBC JUMPI PUSH1 0x40 MLOAD SWAP2 POP PUSH1 0x1F NOT PUSH1 0x3F RETURNDATASIZE ADD AND DUP3 ADD PUSH1 0x40 MSTORE RETURNDATASIZE DUP3 MSTORE RETURNDATASIZE PUSH0 PUSH1 0x20 DUP5 ADD RETURNDATACOPY PUSH2 0xBC1 JUMP JUMPDEST PUSH1 0x60 SWAP2 POP JUMPDEST POP SWAP2 POP SWAP2 POP POP POP POP POP POP JUMP JUMPDEST PUSH0 DUP1 PUSH1 0x6 PUSH0 SWAP1 SLOAD SWAP1 PUSH2 0x100 EXP SWAP1 DIV PUSH20 0xFFFFFFFFFFFFFFFFFFFFFFFFFFFFFFFFFFFFFFFF AND PUSH20 0xFFFFFFFFFFFFFFFFFFFFFFFFFFFFFFFFFFFFFFFF AND DUP7 DUP7 DUP7 DUP7 PUSH1 0x40 MLOAD PUSH1 0x24 ADD PUSH2 0xC1E SWAP5 SWAP4 SWAP3 SWAP2 SWAP1 PUSH2 0x2EA3 JUMP JUMPDEST PUSH1 0x40 MLOAD PUSH1 0x20 DUP2 DUP4 SUB SUB DUP2 MSTORE SWAP1 PUSH1 0x40 MSTORE PUSH32 0xB65F2F5300000000000000000000000000000000000000000000000000000000 PUSH28 0xFFFFFFFFFFFFFFFFFFFFFFFFFFFFFFFFFFFFFFFFFFFFFFFFFFFFFFFF NOT AND PUSH1 0x20 DUP3 ADD DUP1 MLOAD PUSH28 0xFFFFFFFFFFFFFFFFFFFFFFFFFFFFFFFFFFFFFFFFFFFFFFFFFFFFFFFF DUP4 DUP2 DUP4 AND OR DUP4 MSTORE POP POP POP POP PUSH1 0x40 MLOAD PUSH2 0xCA8 SWAP2 SWAP1 PUSH2 0x2C5F JUMP JUMPDEST PUSH0 PUSH1 0x40 MLOAD DUP1 DUP4 SUB DUP2 DUP6 GAS DELEGATECALL SWAP2 POP POP RETURNDATASIZE DUP1 PUSH0 DUP2 EQ PUSH2 0xCE0 JUMPI PUSH1 0x40 MLOAD SWAP2 POP PUSH1 0x1F NOT PUSH1 0x3F RETURNDATASIZE ADD AND DUP3 ADD PUSH1 0x40 MSTORE RETURNDATASIZE DUP3 MSTORE RETURNDATASIZE PUSH0 PUSH1 0x20 DUP5 ADD RETURNDATACOPY PUSH2 0xCE5 JUMP JUMPDEST PUSH1 0x60 SWAP2 POP JUMPDEST POP SWAP2 POP SWAP2 POP POP POP POP POP POP POP JUMP JUMPDEST POP POP POP POP JUMP JUMPDEST PUSH0 DUP1 PUSH1 0x6 PUSH0 SWAP1 SLOAD SWAP1 PUSH2 0x100 EXP SWAP1 DIV PUSH20 0xFFFFFFFFFFFFFFFFFFFFFFFFFFFFFFFFFFFFFFFF AND PUSH20 0xFFFFFFFFFFFFFFFFFFFFFFFFFFFFFFFFFFFFFFFF AND DUP6 DUP6 DUP6 PUSH1 0x40 MLOAD PUSH1 0x24 ADD PUSH2 0xD47 SWAP4 SWAP3 SWAP2 SWAP1 PUSH2 0x2E26 JUMP JUMPDEST PUSH1 0x40 MLOAD PUSH1 0x20 DUP2 DUP4 SUB SUB DUP2 MSTORE SWAP1 PUSH1 0x40 MSTORE PUSH32 0x5DBCFDBE00000000000000000000000000000000000000000000000000000000 PUSH28 0xFFFFFFFFFFFFFFFFFFFFFFFFFFFFFFFFFFFFFFFFFFFFFFFFFFFFFFFF NOT AND PUSH1 0x20 DUP3 ADD DUP1 MLOAD PUSH28 0xFFFFFFFFFFFFFFFFFFFFFFFFFFFFFFFFFFFFFFFFFFFFFFFFFFFFFFFF DUP4 DUP2 DUP4 AND OR DUP4 MSTORE POP POP POP POP PUSH1 0x40 MLOAD PUSH2 0xDD1 SWAP2 SWAP1 PUSH2 0x2C5F JUMP JUMPDEST PUSH0 PUSH1 0x40 MLOAD DUP1 DUP4 SUB DUP2 DUP6 GAS DELEGATECALL SWAP2 POP POP RETURNDATASIZE DUP1 PUSH0 DUP2 EQ PUSH2 0xE09 JUMPI PUSH1 0x40 MLOAD SWAP2 POP PUSH1 0x1F NOT PUSH1 0x3F RETURNDATASIZE ADD AND DUP3 ADD PUSH1 0x40 MSTORE RETURNDATASIZE DUP3 MSTORE RETURNDATASIZE PUSH0 PUSH1 0x20 DUP5 ADD RETURNDATACOPY PUSH2 0xE0E JUMP JUMPDEST PUSH1 0x60 SWAP2 POP JUMPDEST POP SWAP2 POP SWAP2 POP POP POP POP POP POP JUMP JUMPDEST PUSH0 DUP1 PUSH0 PUSH1 0x6 PUSH0 SWAP1 SLOAD SWAP1 PUSH2 0x100 EXP SWAP1 DIV PUSH20 0xFFFFFFFFFFFFFFFFFFFFFFFFFFFFFFFFFFFFFFFF AND PUSH20 0xFFFFFFFFFFFFFFFFFFFFFFFFFFFFFFFFFFFFFFFF AND DUP5 PUSH1 0x40 MLOAD PUSH1 0x24 ADD PUSH2 0xE66 SWAP2 SWAP1 PUSH2 0x2AE4 JUMP JUMPDEST PUSH1 0x40 MLOAD PUSH1 0x20 DUP2 DUP4 SUB SUB DUP2 MSTORE SWAP1 PUSH1 0x40 MSTORE PUSH32 0x3835054100000000000000000000000000000000000000000000000000000000 PUSH28 0xFFFFFFFFFFFFFFFFFFFFFFFFFFFFFFFFFFFFFFFFFFFFFFFFFFFFFFFF NOT AND PUSH1 0x20 DUP3 ADD DUP1 MLOAD PUSH28 0xFFFFFFFFFFFFFFFFFFFFFFFFFFFFFFFFFFFFFFFFFFFFFFFFFFFFFFFF DUP4 DUP2 DUP4 AND OR DUP4 MSTORE POP POP POP POP PUSH1 0x40 MLOAD PUSH2 0xEF0 SWAP2 SWAP1 PUSH2 0x2C5F JUMP JUMPDEST PUSH0 PUSH1 0x40 MLOAD DUP1 DUP4 SUB DUP2 DUP6 GAS DELEGATECALL SWAP2 POP POP RETURNDATASIZE DUP1 PUSH0 DUP2 EQ PUSH2 0xF28 JUMPI PUSH1 0x40 MLOAD SWAP2 POP PUSH1 0x1F NOT PUSH1 0x3F RETURNDATASIZE ADD AND DUP3 ADD PUSH1 0x40 MSTORE RETURNDATASIZE DUP3 MSTORE RETURNDATASIZE PUSH0 PUSH1 0x20 DUP5 ADD RETURNDATACOPY PUSH2 0xF2D JUMP JUMPDEST PUSH1 0x60 SWAP2 POP JUMPDEST POP SWAP2 POP SWAP2 POP DUP2 PUSH2 0xF3B JUMPI PUSH0 DUP1 REVERT JUMPDEST DUP1 DUP1 PUSH1 0x20 ADD SWAP1 MLOAD DUP2 ADD SWAP1 PUSH2 0xF4F SWAP2 SWAP1 PUSH2 0x2DD4 JUMP JUMPDEST SWAP3 POP POP POP SWAP2 SWAP1 POP JUMP JUMPDEST PUSH0 DUP1 PUSH1 0x6 PUSH0 SWAP1 SLOAD SWAP1 PUSH2 0x100 EXP SWAP1 DIV PUSH20 0xFFFFFFFFFFFFFFFFFFFFFFFFFFFFFFFFFFFFFFFF AND PUSH20 0xFFFFFFFFFFFFFFFFFFFFFFFFFFFFFFFFFFFFFFFF AND DUP6 DUP6 DUP6 PUSH1 0x40 MLOAD PUSH1 0x24 ADD PUSH2 0xFA7 SWAP4 SWAP3 SWAP2 SWAP1 PUSH2 0x2E26 JUMP JUMPDEST PUSH1 0x40 MLOAD PUSH1 0x20 DUP2 DUP4 SUB SUB DUP2 MSTORE SWAP1 PUSH1 0x40 MSTORE PUSH32 0x5E69309E00000000000000000000000000000000000000000000000000000000 PUSH28 0xFFFFFFFFFFFFFFFFFFFFFFFFFFFFFFFFFFFFFFFFFFFFFFFFFFFFFFFF NOT AND PUSH1 0x20 DUP3 ADD DUP1 MLOAD PUSH28 0xFFFFFFFFFFFFFFFFFFFFFFFFFFFFFFFFFFFFFFFFFFFFFFFFFFFFFFFF DUP4 DUP2 DUP4 AND OR DUP4 MSTORE POP POP POP POP PUSH1 0x40 MLOAD PUSH2 0x1031 SWAP2 SWAP1 PUSH2 0x2C5F JUMP JUMPDEST PUSH0 PUSH1 0x40 MLOAD DUP1 DUP4 SUB DUP2 DUP6 GAS DELEGATECALL SWAP2 POP POP RETURNDATASIZE DUP1 PUSH0 DUP2 EQ PUSH2 0x1069 JUMPI PUSH1 0x40 MLOAD SWAP2 POP PUSH1 0x1F NOT PUSH1 0x3F RETURNDATASIZE ADD AND DUP3 ADD PUSH1 0x40 MSTORE RETURNDATASIZE DUP3 MSTORE RETURNDATASIZE PUSH0 PUSH1 0x20 DUP5 ADD RETURNDATACOPY PUSH2 0x106E JUMP JUMPDEST PUSH1 0x60 SWAP2 POP JUMPDEST POP SWAP2 POP SWAP2 POP POP POP POP POP POP JUMP JUMPDEST PUSH0 DUP1 PUSH0 PUSH1 0x6 PUSH0 SWAP1 SLOAD SWAP1 PUSH2 0x100 EXP SWAP1 DIV PUSH20 0xFFFFFFFFFFFFFFFFFFFFFFFFFFFFFFFFFFFFFFFF AND PUSH20 0xFFFFFFFFFFFFFFFFFFFFFFFFFFFFFFFFFFFFFFFF AND DUP6 DUP6 PUSH1 0x40 MLOAD PUSH1 0x24 ADD PUSH2 0x10C8 SWAP3 SWAP2 SWAP1 PUSH2 0x2DFF JUMP JUMPDEST PUSH1 0x40 MLOAD PUSH1 0x20 DUP2 DUP4 SUB SUB DUP2 MSTORE SWAP1 PUSH1 0x40 MSTORE PUSH32 0xFECAA1500000000000000000000000000000000000000000000000000000000 PUSH28 0xFFFFFFFFFFFFFFFFFFFFFFFFFFFFFFFFFFFFFFFFFFFFFFFFFFFFFFFF NOT AND PUSH1 0x20 DUP3 ADD DUP1 MLOAD PUSH28 0xFFFFFFFFFFFFFFFFFFFFFFFFFFFFFFFFFFFFFFFFFFFFFFFFFFFFFFFF DUP4 DUP2 DUP4 AND OR DUP4 MSTORE POP POP POP POP PUSH1 0x40 MLOAD PUSH2 0x1152 SWAP2 SWAP1 PUSH2 0x2C5F JUMP JUMPDEST PUSH0 PUSH1 0x40 MLOAD DUP1 DUP4 SUB DUP2 DUP6 GAS DELEGATECALL SWAP2 POP POP RETURNDATASIZE DUP1 PUSH0 DUP2 EQ PUSH2 0x118A JUMPI PUSH1 0x40 MLOAD SWAP2 POP PUSH1 0x1F NOT PUSH1 0x3F RETURNDATASIZE ADD AND DUP3 ADD PUSH1 0x40 MSTORE RETURNDATASIZE DUP3 MSTORE RETURNDATASIZE PUSH0 PUSH1 0x20 DUP5 ADD RETURNDATACOPY PUSH2 0x118F JUMP JUMPDEST PUSH1 0x60 SWAP2 POP JUMPDEST POP SWAP2 POP SWAP2 POP DUP2 PUSH2 0x119D JUMPI PUSH0 DUP1 REVERT JUMPDEST DUP1 DUP1 PUSH1 0x20 ADD SWAP1 MLOAD DUP2 ADD SWAP1 PUSH2 0x11B1 SWAP2 SWAP1 PUSH2 0x2C89 JUMP JUMPDEST SWAP3 POP POP POP SWAP3 SWAP2 POP POP JUMP JUMPDEST PUSH0 DUP1 PUSH1 0x6 PUSH0 SWAP1 SLOAD SWAP1 PUSH2 0x100 EXP SWAP1 DIV PUSH20 0xFFFFFFFFFFFFFFFFFFFFFFFFFFFFFFFFFFFFFFFF AND PUSH20 0xFFFFFFFFFFFFFFFFFFFFFFFFFFFFFFFFFFFFFFFF AND DUP5 DUP5 PUSH1 0x40 MLOAD PUSH1 0x24 ADD PUSH2 0x1208 SWAP3 SWAP2 SWAP1 PUSH2 0x2DFF JUMP JUMPDEST PUSH1 0x40 MLOAD PUSH1 0x20 DUP2 DUP4 SUB SUB DUP2 MSTORE SWAP1 PUSH1 0x40 MSTORE PUSH32 0x7DBF8EFB00000000000000000000000000000000000000000000000000000000 PUSH28 0xFFFFFFFFFFFFFFFFFFFFFFFFFFFFFFFFFFFFFFFFFFFFFFFFFFFFFFFF NOT AND PUSH1 0x20 DUP3 ADD DUP1 MLOAD PUSH28 0xFFFFFFFFFFFFFFFFFFFFFFFFFFFFFFFFFFFFFFFFFFFFFFFFFFFFFFFF DUP4 DUP2 DUP4 AND OR DUP4 MSTORE POP POP POP POP PUSH1 0x40 MLOAD PUSH2 0x1292 SWAP2 SWAP1 PUSH2 0x2C5F JUMP JUMPDEST PUSH0 PUSH1 0x40 MLOAD DUP1 DUP4 SUB DUP2 DUP6 GAS DELEGATECALL SWAP2 POP POP RETURNDATASIZE DUP1 PUSH0 DUP2 EQ PUSH2 0x12CA JUMPI PUSH1 0x40 MLOAD SWAP2 POP PUSH1 0x1F NOT PUSH1 0x3F RETURNDATASIZE ADD AND DUP3 ADD PUSH1 0x40 MSTORE RETURNDATASIZE DUP3 MSTORE RETURNDATASIZE PUSH0 PUSH1 0x20 DUP5 ADD RETURNDATACOPY PUSH2 0x12CF JUMP JUMPDEST PUSH1 0x60 SWAP2 POP JUMPDEST POP SWAP2 POP SWAP2 POP POP POP POP POP JUMP JUMPDEST PUSH0 DUP1 PUSH0 PUSH1 0x6 PUSH0 SWAP1 SLOAD SWAP1 PUSH2 0x100 EXP SWAP1 DIV PUSH20 0xFFFFFFFFFFFFFFFFFFFFFFFFFFFFFFFFFFFFFFFF AND PUSH20 0xFFFFFFFFFFFFFFFFFFFFFFFFFFFFFFFFFFFFFFFF AND DUP5 PUSH1 0x40 MLOAD PUSH1 0x24 ADD PUSH2 0x1326 SWAP2 SWAP1 PUSH2 0x2AE4 JUMP JUMPDEST PUSH1 0x40 MLOAD PUSH1 0x20 DUP2 DUP4 SUB SUB DUP2 MSTORE SWAP1 PUSH1 0x40 MSTORE PUSH32 0x6352211E00000000000000000000000000000000000000000000000000000000 PUSH28 0xFFFFFFFFFFFFFFFFFFFFFFFFFFFFFFFFFFFFFFFFFFFFFFFFFFFFFFFF NOT AND PUSH1 0x20 DUP3 ADD DUP1 MLOAD PUSH28 0xFFFFFFFFFFFFFFFFFFFFFFFFFFFFFFFFFFFFFFFFFFFFFFFFFFFFFFFF DUP4 DUP2 DUP4 AND OR DUP4 MSTORE POP POP POP POP PUSH1 0x40 MLOAD PUSH2 0x13B0 SWAP2 SWAP1 PUSH2 0x2C5F JUMP JUMPDEST PUSH0 PUSH1 0x40 MLOAD DUP1 DUP4 SUB DUP2 DUP6 GAS DELEGATECALL SWAP2 POP POP RETURNDATASIZE DUP1 PUSH0 DUP2 EQ PUSH2 0x13E8 JUMPI PUSH1 0x40 MLOAD SWAP2 POP PUSH1 0x1F NOT PUSH1 0x3F RETURNDATASIZE ADD AND DUP3 ADD PUSH1 0x40 MSTORE RETURNDATASIZE DUP3 MSTORE RETURNDATASIZE PUSH0 PUSH1 0x20 DUP5 ADD RETURNDATACOPY PUSH2 0x13ED JUMP JUMPDEST PUSH1 0x60 SWAP2 POP JUMPDEST POP SWAP2 POP SWAP2 POP DUP2 PUSH2 0x13FB JUMPI PUSH0 DUP1 REVERT JUMPDEST DUP1 DUP1 PUSH1 0x20 ADD SWAP1 MLOAD DUP2 ADD SWAP1 PUSH2 0x140F SWAP2 SWAP1 PUSH2 0x2DD4 JUMP JUMPDEST SWAP3 POP POP POP SWAP2 SWAP1 POP JUMP JUMPDEST PUSH0 DUP1 PUSH1 0x6 PUSH0 SWAP1 SLOAD SWAP1 PUSH2 0x100 EXP SWAP1 DIV PUSH20 0xFFFFFFFFFFFFFFFFFFFFFFFFFFFFFFFFFFFFFFFF AND PUSH20 0xFFFFFFFFFFFFFFFFFFFFFFFFFFFFFFFFFFFFFFFF AND DUP6 DUP6 DUP6 PUSH1 0x40 MLOAD PUSH1 0x24 ADD PUSH2 0x1467 SWAP4 SWAP3 SWAP2 SWAP1 PUSH2 0x2EED JUMP JUMPDEST PUSH1 0x40 MLOAD PUSH1 0x20 DUP2 DUP4 SUB SUB DUP2 MSTORE SWAP1 PUSH1 0x40 MSTORE PUSH32 0x5FA2BEF500000000000000000000000000000000000000000000000000000000 PUSH28 0xFFFFFFFFFFFFFFFFFFFFFFFFFFFFFFFFFFFFFFFFFFFFFFFFFFFFFFFF NOT AND PUSH1 0x20 DUP3 ADD DUP1 MLOAD PUSH28 0xFFFFFFFFFFFFFFFFFFFFFFFFFFFFFFFFFFFFFFFFFFFFFFFFFFFFFFFF DUP4 DUP2 DUP4 AND OR DUP4 MSTORE POP POP POP POP PUSH1 0x40 MLOAD PUSH2 0x14F1 SWAP2 SWAP1 PUSH2 0x2C5F JUMP JUMPDEST PUSH0 PUSH1 0x40 MLOAD DUP1 DUP4 SUB DUP2 DUP6 GAS DELEGATECALL SWAP2 POP POP RETURNDATASIZE DUP1 PUSH0 DUP2 EQ PUSH2 0x1529 JUMPI PUSH1 0x40 MLOAD SWAP2 POP PUSH1 0x1F NOT PUSH1 0x3F RETURNDATASIZE ADD AND DUP3 ADD PUSH1 0x40 MSTORE RETURNDATASIZE DUP3 MSTORE RETURNDATASIZE PUSH0 PUSH1 0x20 DUP5 ADD RETURNDATACOPY PUSH2 0x152E JUMP JUMPDEST PUSH1 0x60 SWAP2 POP JUMPDEST POP SWAP2 POP SWAP2 POP POP POP POP POP POP JUMP JUMPDEST PUSH0 DUP1 PUSH20 0xFFFFFFFFFFFFFFFFFFFFFFFFFFFFFFFFFFFFFFFF AND DUP3 PUSH20 0xFFFFFFFFFFFFFFFFFFFFFFFFFFFFFFFFFFFFFFFF AND SUB PUSH2 0x15A9 JUMPI PUSH1 0x40 MLOAD PUSH32 0x8C379A000000000000000000000000000000000000000000000000000000000 DUP2 MSTORE PUSH1 0x4 ADD PUSH2 0x15A0 SWAP1 PUSH2 0x2F99 JUMP JUMPDEST PUSH1 0x40 MLOAD DUP1 SWAP2 SUB SWAP1 REVERT JUMPDEST PUSH1 0x3 PUSH0 DUP4 PUSH20 0xFFFFFFFFFFFFFFFFFFFFFFFFFFFFFFFFFFFFFFFF AND PUSH20 0xFFFFFFFFFFFFFFFFFFFFFFFFFFFFFFFFFFFFFFFF AND DUP2 MSTORE PUSH1 0x20 ADD SWAP1 DUP2 MSTORE PUSH1 0x20 ADD PUSH0 KECCAK256 SLOAD SWAP1 POP SWAP2 SWAP1 POP JUMP JUMPDEST PUSH1 0x60 PUSH0 DUP1 PUSH1 0x6 PUSH0 SWAP1 SLOAD SWAP1 PUSH2 0x100 EXP SWAP1 DIV PUSH20 0xFFFFFFFFFFFFFFFFFFFFFFFFFFFFFFFFFFFFFFFF AND PUSH20 0xFFFFFFFFFFFFFFFFFFFFFFFFFFFFFFFFFFFFFFFF AND PUSH1 0x40 MLOAD PUSH1 0x24 ADD PUSH1 0x40 MLOAD PUSH1 0x20 DUP2 DUP4 SUB SUB DUP2 MSTORE SWAP1 PUSH1 0x40 MSTORE PUSH32 0x743976A000000000000000000000000000000000000000000000000000000000 PUSH28 0xFFFFFFFFFFFFFFFFFFFFFFFFFFFFFFFFFFFFFFFFFFFFFFFFFFFFFFFF NOT AND PUSH1 0x20 DUP3 ADD DUP1 MLOAD PUSH28 0xFFFFFFFFFFFFFFFFFFFFFFFFFFFFFFFFFFFFFFFFFFFFFFFFFFFFFFFF DUP4 DUP2 DUP4 AND OR DUP4 MSTORE POP POP POP POP PUSH1 0x40 MLOAD PUSH2 0x16BA SWAP2 SWAP1 PUSH2 0x2C5F JUMP JUMPDEST PUSH0 PUSH1 0x40 MLOAD DUP1 DUP4 SUB DUP2 DUP6 GAS DELEGATECALL SWAP2 POP POP RETURNDATASIZE DUP1 PUSH0 DUP2 EQ PUSH2 0x16F2 JUMPI PUSH1 0x40 MLOAD SWAP2 POP PUSH1 0x1F NOT PUSH1 0x3F RETURNDATASIZE ADD AND DUP3 ADD PUSH1 0x40 MSTORE RETURNDATASIZE DUP3 MSTORE RETURNDATASIZE PUSH0 PUSH1 0x20 DUP5 ADD RETURNDATACOPY PUSH2 0x16F7 JUMP JUMPDEST PUSH1 0x60 SWAP2 POP JUMPDEST POP SWAP2 POP SWAP2 POP DUP2 PUSH2 0x1705 JUMPI PUSH0 DUP1 REVERT JUMPDEST DUP1 DUP1 PUSH1 0x20 ADD SWAP1 MLOAD DUP2 ADD SWAP1 PUSH2 0x1719 SWAP2 SWAP1 PUSH2 0x2D52 JUMP JUMPDEST SWAP3 POP POP POP SWAP1 JUMP JUMPDEST PUSH0 DUP1 PUSH1 0x6 PUSH0 SWAP1 SLOAD SWAP1 PUSH2 0x100 EXP SWAP1 DIV PUSH20 0xFFFFFFFFFFFFFFFFFFFFFFFFFFFFFFFFFFFFFFFF AND PUSH20 0xFFFFFFFFFFFFFFFFFFFFFFFFFFFFFFFFFFFFFFFF AND DUP5 DUP5 PUSH1 0x40 MLOAD PUSH1 0x24 ADD PUSH2 0x176D SWAP3 SWAP2 SWAP1 PUSH2 0x2DFF JUMP JUMPDEST PUSH1 0x40 MLOAD PUSH1 0x20 DUP2 DUP4 SUB SUB DUP2 MSTORE SWAP1 PUSH1 0x40 MSTORE PUSH32 0x74FB7AB400000000000000000000000000000000000000000000000000000000 PUSH28 0xFFFFFFFFFFFFFFFFFFFFFFFFFFFFFFFFFFFFFFFFFFFFFFFFFFFFFFFF NOT AND PUSH1 0x20 DUP3 ADD DUP1 MLOAD PUSH28 0xFFFFFFFFFFFFFFFFFFFFFFFFFFFFFFFFFFFFFFFFFFFFFFFFFFFFFFFF DUP4 DUP2 DUP4 AND OR DUP4 MSTORE POP POP POP POP PUSH1 0x40 MLOAD PUSH2 0x17F7 SWAP2 SWAP1 PUSH2 0x2C5F JUMP JUMPDEST PUSH0 PUSH1 0x40 MLOAD DUP1 DUP4 SUB DUP2 DUP6 GAS DELEGATECALL SWAP2 POP POP RETURNDATASIZE DUP1 PUSH0 DUP2 EQ PUSH2 0x182F JUMPI PUSH1 0x40 MLOAD SWAP2 POP PUSH1 0x1F NOT PUSH1 0x3F RETURNDATASIZE ADD AND DUP3 ADD PUSH1 0x40 MSTORE RETURNDATASIZE DUP3 MSTORE RETURNDATASIZE PUSH0 PUSH1 0x20 DUP5 ADD RETURNDATACOPY PUSH2 0x1834 JUMP JUMPDEST PUSH1 0x60 SWAP2 POP JUMPDEST POP SWAP2 POP SWAP2 POP POP POP POP POP JUMP JUMPDEST PUSH0 DUP1 PUSH1 0x6 PUSH0 SWAP1 SLOAD SWAP1 PUSH2 0x100 EXP SWAP1 DIV PUSH20 0xFFFFFFFFFFFFFFFFFFFFFFFFFFFFFFFFFFFFFFFF AND PUSH20 0xFFFFFFFFFFFFFFFFFFFFFFFFFFFFFFFFFFFFFFFF AND DUP6 DUP6 DUP6 PUSH1 0x40 MLOAD PUSH1 0x24 ADD PUSH2 0x188E SWAP4 SWAP3 SWAP2 SWAP1 PUSH2 0x2FB7 JUMP JUMPDEST PUSH1 0x40 MLOAD PUSH1 0x20 DUP2 DUP4 SUB SUB DUP2 MSTORE SWAP1 PUSH1 0x40 MSTORE PUSH32 0x5800821300000000000000000000000000000000000000000000000000000000 PUSH28 0xFFFFFFFFFFFFFFFFFFFFFFFFFFFFFFFFFFFFFFFFFFFFFFFFFFFFFFFF NOT AND PUSH1 0x20 DUP3 ADD DUP1 MLOAD PUSH28 0xFFFFFFFFFFFFFFFFFFFFFFFFFFFFFFFFFFFFFFFFFFFFFFFFFFFFFFFF DUP4 DUP2 DUP4 AND OR DUP4 MSTORE POP POP POP POP PUSH1 0x40 MLOAD PUSH2 0x1918 SWAP2 SWAP1 PUSH2 0x2C5F JUMP JUMPDEST PUSH0 PUSH1 0x40 MLOAD DUP1 DUP4 SUB DUP2 DUP6 GAS DELEGATECALL SWAP2 POP POP RETURNDATASIZE DUP1 PUSH0 DUP2 EQ PUSH2 0x1950 JUMPI PUSH1 0x40 MLOAD SWAP2 POP PUSH1 0x1F NOT PUSH1 0x3F RETURNDATASIZE ADD AND DUP3 ADD PUSH1 0x40 MSTORE RETURNDATASIZE DUP3 MSTORE RETURNDATASIZE PUSH0 PUSH1 0x20 DUP5 ADD RETURNDATACOPY PUSH2 0x1955 JUMP JUMPDEST PUSH1 0x60 SWAP2 POP JUMPDEST POP SWAP2 POP SWAP2 POP POP POP POP POP POP JUMP JUMPDEST PUSH1 0x60 PUSH0 DUP1 PUSH1 0x6 PUSH0 SWAP1 SLOAD SWAP1 PUSH2 0x100 EXP SWAP1 DIV PUSH20 0xFFFFFFFFFFFFFFFFFFFFFFFFFFFFFFFFFFFFFFFF AND PUSH20 0xFFFFFFFFFFFFFFFFFFFFFFFFFFFFFFFFFFFFFFFF AND PUSH1 0x40 MLOAD PUSH1 0x24 ADD PUSH1 0x40 MLOAD PUSH1 0x20 DUP2 DUP4 SUB SUB DUP2 MSTORE SWAP1 PUSH1 0x40 MSTORE PUSH32 0x95D89B4100000000000000000000000000000000000000000000000000000000 PUSH28 0xFFFFFFFFFFFFFFFFFFFFFFFFFFFFFFFFFFFFFFFFFFFFFFFFFFFFFFFF NOT AND PUSH1 0x20 DUP3 ADD DUP1 MLOAD PUSH28 0xFFFFFFFFFFFFFFFFFFFFFFFFFFFFFFFFFFFFFFFFFFFFFFFFFFFFFFFF DUP4 DUP2 DUP4 AND OR DUP4 MSTORE POP POP POP POP PUSH1 0x40 MLOAD PUSH2 0x1A2D SWAP2 SWAP1 PUSH2 0x2C5F JUMP JUMPDEST PUSH0 PUSH1 0x40 MLOAD DUP1 DUP4 SUB DUP2 DUP6 GAS DELEGATECALL SWAP2 POP POP RETURNDATASIZE DUP1 PUSH0 DUP2 EQ PUSH2 0x1A65 JUMPI PUSH1 0x40 MLOAD SWAP2 POP PUSH1 0x1F NOT PUSH1 0x3F RETURNDATASIZE ADD AND DUP3 ADD PUSH1 0x40 MSTORE RETURNDATASIZE DUP3 MSTORE RETURNDATASIZE PUSH0 PUSH1 0x20 DUP5 ADD RETURNDATACOPY PUSH2 0x1A6A JUMP JUMPDEST PUSH1 0x60 SWAP2 POP JUMPDEST POP SWAP2 POP SWAP2 POP DUP2 PUSH2 0x1A78 JUMPI PUSH0 DUP1 REVERT JUMPDEST DUP1 DUP1 PUSH1 0x20 ADD SWAP1 MLOAD DUP2 ADD SWAP1 PUSH2 0x1A8C SWAP2 SWAP1 PUSH2 0x2D52 JUMP JUMPDEST SWAP3 POP POP POP SWAP1 JUMP JUMPDEST POP POP POP POP JUMP JUMPDEST DUP1 PUSH1 0x6 PUSH0 PUSH2 0x100 EXP DUP2 SLOAD DUP2 PUSH20 0xFFFFFFFFFFFFFFFFFFFFFFFFFFFFFFFFFFFFFFFF MUL NOT AND SWAP1 DUP4 PUSH20 0xFFFFFFFFFFFFFFFFFFFFFFFFFFFFFFFFFFFFFFFF AND MUL OR SWAP1 SSTORE POP POP JUMP JUMPDEST PUSH0 DUP1 PUSH1 0x6 PUSH0 SWAP1 SLOAD SWAP1 PUSH2 0x100 EXP SWAP1 DIV PUSH20 0xFFFFFFFFFFFFFFFFFFFFFFFFFFFFFFFFFFFFFFFF AND PUSH20 0xFFFFFFFFFFFFFFFFFFFFFFFFFFFFFFFFFFFFFFFF AND DUP4 PUSH1 0x40 MLOAD PUSH1 0x24 ADD PUSH2 0x1B27 SWAP2 SWAP1 PUSH2 0x2AE4 JUMP JUMPDEST PUSH1 0x40 MLOAD PUSH1 0x20 DUP2 DUP4 SUB SUB DUP2 MSTORE SWAP1 PUSH1 0x40 MSTORE PUSH32 0x9B1F9E7400000000000000000000000000000000000000000000000000000000 PUSH28 0xFFFFFFFFFFFFFFFFFFFFFFFFFFFFFFFFFFFFFFFFFFFFFFFFFFFFFFFF NOT AND PUSH1 0x20 DUP3 ADD DUP1 MLOAD PUSH28 0xFFFFFFFFFFFFFFFFFFFFFFFFFFFFFFFFFFFFFFFFFFFFFFFFFFFFFFFF DUP4 DUP2 DUP4 AND OR DUP4 MSTORE POP POP POP POP PUSH1 0x40 MLOAD PUSH2 0x1BB1 SWAP2 SWAP1 PUSH2 0x2C5F JUMP JUMPDEST PUSH0 PUSH1 0x40 MLOAD DUP1 DUP4 SUB DUP2 DUP6 GAS DELEGATECALL SWAP2 POP POP RETURNDATASIZE DUP1 PUSH0 DUP2 EQ PUSH2 0x1BE9 JUMPI PUSH1 0x40 MLOAD SWAP2 POP PUSH1 0x1F NOT PUSH1 0x3F RETURNDATASIZE ADD AND DUP3 ADD PUSH1 0x40 MSTORE RETURNDATASIZE DUP3 MSTORE RETURNDATASIZE PUSH0 PUSH1 0x20 DUP5 ADD RETURNDATACOPY PUSH2 0x1BEE JUMP JUMPDEST PUSH1 0x60 SWAP2 POP JUMPDEST POP SWAP2 POP SWAP2 POP POP POP POP JUMP JUMPDEST PUSH0 DUP1 PUSH1 0x6 PUSH0 SWAP1 SLOAD SWAP1 PUSH2 0x100 EXP SWAP1 DIV PUSH20 0xFFFFFFFFFFFFFFFFFFFFFFFFFFFFFFFFFFFFFFFF AND PUSH20 0xFFFFFFFFFFFFFFFFFFFFFFFFFFFFFFFFFFFFFFFF AND DUP4 PUSH1 0x40 MLOAD PUSH1 0x24 ADD PUSH2 0x1C43 SWAP2 SWAP1 PUSH2 0x2AE4 JUMP JUMPDEST PUSH1 0x40 MLOAD PUSH1 0x20 DUP2 DUP4 SUB SUB DUP2 MSTORE SWAP1 PUSH1 0x40 MSTORE PUSH32 0xA0AEA85D00000000000000000000000000000000000000000000000000000000 PUSH28 0xFFFFFFFFFFFFFFFFFFFFFFFFFFFFFFFFFFFFFFFFFFFFFFFFFFFFFFFF NOT AND PUSH1 0x20 DUP3 ADD DUP1 MLOAD PUSH28 0xFFFFFFFFFFFFFFFFFFFFFFFFFFFFFFFFFFFFFFFFFFFFFFFFFFFFFFFF DUP4 DUP2 DUP4 AND OR DUP4 MSTORE POP POP POP POP PUSH1 0x40 MLOAD PUSH2 0x1CCD SWAP2 SWAP1 PUSH2 0x2C5F JUMP JUMPDEST PUSH0 PUSH1 0x40 MLOAD DUP1 DUP4 SUB DUP2 DUP6 GAS DELEGATECALL SWAP2 POP POP RETURNDATASIZE DUP1 PUSH0 DUP2 EQ PUSH2 0x1D05 JUMPI PUSH1 0x40 MLOAD SWAP2 POP PUSH1 0x1F NOT PUSH1 0x3F RETURNDATASIZE ADD AND DUP3 ADD PUSH1 0x40 MSTORE RETURNDATASIZE DUP3 MSTORE RETURNDATASIZE PUSH0 PUSH1 0x20 DUP5 ADD RETURNDATACOPY PUSH2 0x1D0A JUMP JUMPDEST PUSH1 0x60 SWAP2 POP JUMPDEST POP SWAP2 POP SWAP2 POP POP POP POP JUMP JUMPDEST PUSH0 DUP1 PUSH1 0x6 PUSH0 SWAP1 SLOAD SWAP1 PUSH2 0x100 EXP SWAP1 DIV PUSH20 0xFFFFFFFFFFFFFFFFFFFFFFFFFFFFFFFFFFFFFFFF AND PUSH20 0xFFFFFFFFFFFFFFFFFFFFFFFFFFFFFFFFFFFFFFFF AND DUP5 DUP5 PUSH1 0x40 MLOAD PUSH1 0x24 ADD PUSH2 0x1D61 SWAP3 SWAP2 SWAP1 PUSH2 0x2FEC JUMP JUMPDEST PUSH1 0x40 MLOAD PUSH1 0x20 DUP2 DUP4 SUB SUB DUP2 MSTORE SWAP1 PUSH1 0x40 MSTORE PUSH32 0x989579AA00000000000000000000000000000000000000000000000000000000 PUSH28 0xFFFFFFFFFFFFFFFFFFFFFFFFFFFFFFFFFFFFFFFFFFFFFFFFFFFFFFFF NOT AND PUSH1 0x20 DUP3 ADD DUP1 MLOAD PUSH28 0xFFFFFFFFFFFFFFFFFFFFFFFFFFFFFFFFFFFFFFFFFFFFFFFFFFFFFFFF DUP4 DUP2 DUP4 AND OR DUP4 MSTORE POP POP POP POP PUSH1 0x40 MLOAD PUSH2 0x1DEB SWAP2 SWAP1 PUSH2 0x2C5F JUMP JUMPDEST PUSH0 PUSH1 0x40 MLOAD DUP1 DUP4 SUB DUP2 DUP6 GAS DELEGATECALL SWAP2 POP POP RETURNDATASIZE DUP1 PUSH0 DUP2 EQ PUSH2 0x1E23 JUMPI PUSH1 0x40 MLOAD SWAP2 POP PUSH1 0x1F NOT PUSH1 0x3F RETURNDATASIZE ADD AND DUP3 ADD PUSH1 0x40 MSTORE RETURNDATASIZE DUP3 MSTORE RETURNDATASIZE PUSH0 PUSH1 0x20 DUP5 ADD RETURNDATACOPY PUSH2 0x1E28 JUMP JUMPDEST PUSH1 0x60 SWAP2 POP JUMPDEST POP SWAP2 POP SWAP2 POP POP POP POP POP JUMP JUMPDEST PUSH0 DUP1 PUSH1 0x6 PUSH0 SWAP1 SLOAD SWAP1 PUSH2 0x100 EXP SWAP1 DIV PUSH20 0xFFFFFFFFFFFFFFFFFFFFFFFFFFFFFFFFFFFFFFFF AND PUSH20 0xFFFFFFFFFFFFFFFFFFFFFFFFFFFFFFFFFFFFFFFF AND DUP4 PUSH1 0x40 MLOAD PUSH1 0x24 ADD PUSH2 0x1E7E SWAP2 SWAP1 PUSH2 0x2AE4 JUMP JUMPDEST PUSH1 0x40 MLOAD PUSH1 0x20 DUP2 DUP4 SUB SUB DUP2 MSTORE SWAP1 PUSH1 0x40 MSTORE PUSH32 0x785404B800000000000000000000000000000000000000000000000000000000 PUSH28 0xFFFFFFFFFFFFFFFFFFFFFFFFFFFFFFFFFFFFFFFFFFFFFFFFFFFFFFFF NOT AND PUSH1 0x20 DUP3 ADD DUP1 MLOAD PUSH28 0xFFFFFFFFFFFFFFFFFFFFFFFFFFFFFFFFFFFFFFFFFFFFFFFFFFFFFFFF DUP4 DUP2 DUP4 AND OR DUP4 MSTORE POP POP POP POP PUSH1 0x40 MLOAD PUSH2 0x1F08 SWAP2 SWAP1 PUSH2 0x2C5F JUMP JUMPDEST PUSH0 PUSH1 0x40 MLOAD DUP1 DUP4 SUB DUP2 DUP6 GAS DELEGATECALL SWAP2 POP POP RETURNDATASIZE DUP1 PUSH0 DUP2 EQ PUSH2 0x1F40 JUMPI PUSH1 0x40 MLOAD SWAP2 POP PUSH1 0x1F NOT PUSH1 0x3F RETURNDATASIZE ADD AND DUP3 ADD PUSH1 0x40 MSTORE RETURNDATASIZE DUP3 MSTORE RETURNDATASIZE PUSH0 PUSH1 0x20 DUP5 ADD RETURNDATACOPY PUSH2 0x1F45 JUMP JUMPDEST PUSH1 0x60 SWAP2 POP JUMPDEST POP SWAP2 POP SWAP2 POP POP POP POP POP JUMP JUMPDEST PUSH0 DUP1 PUSH1 0x6 PUSH0 SWAP1 SLOAD SWAP1 PUSH2 0x100 EXP SWAP1 DIV PUSH20 0xFFFFFFFFFFFFFFFFFFFFFFFFFFFFFFFFFFFFFFFF AND PUSH20 0xFFFFFFFFFFFFFFFFFFFFFFFFFFFFFFFFFFFFFFFF AND DUP7 DUP7 DUP7 DUP7 PUSH1 0x40 MLOAD PUSH1 0x24 ADD PUSH2 0x1FA1 SWAP5 SWAP4 SWAP3 SWAP2 SWAP1 PUSH2 0x2EA3 JUMP JUMPDEST PUSH1 0x40 MLOAD PUSH1 0x20 DUP2 DUP4 SUB SUB DUP2 MSTORE SWAP1 PUSH1 0x40 MSTORE PUSH32 0xA207714200000000000000000000000000000000000000000000000000000000 PUSH28 0xFFFFFFFFFFFFFFFFFFFFFFFFFFFFFFFFFFFFFFFFFFFFFFFFFFFFFFFF NOT AND PUSH1 0x20 DUP3 ADD DUP1 MLOAD PUSH28 0xFFFFFFFFFFFFFFFFFFFFFFFFFFFFFFFFFFFFFFFFFFFFFFFFFFFFFFFF DUP4 DUP2 DUP4 AND OR DUP4 MSTORE POP POP POP POP PUSH1 0x40 MLOAD PUSH2 0x202B SWAP2 SWAP1 PUSH2 0x2C5F JUMP JUMPDEST PUSH0 PUSH1 0x40 MLOAD DUP1 DUP4 SUB DUP2 DUP6 GAS DELEGATECALL SWAP2 POP POP RETURNDATASIZE DUP1 PUSH0 DUP2 EQ PUSH2 0x2063 JUMPI PUSH1 0x40 MLOAD SWAP2 POP PUSH1 0x1F NOT PUSH1 0x3F RETURNDATASIZE ADD AND DUP3 ADD PUSH1 0x40 MSTORE RETURNDATASIZE DUP3 MSTORE RETURNDATASIZE PUSH0 PUSH1 0x20 DUP5 ADD RETURNDATACOPY PUSH2 0x2068 JUMP JUMPDEST PUSH1 0x60 SWAP2 POP JUMPDEST POP SWAP2 POP SWAP2 POP POP POP POP POP POP POP JUMP JUMPDEST PUSH1 0x60 PUSH0 DUP1 PUSH1 0x6 PUSH0 SWAP1 SLOAD SWAP1 PUSH2 0x100 EXP SWAP1 DIV PUSH20 0xFFFFFFFFFFFFFFFFFFFFFFFFFFFFFFFFFFFFFFFF AND PUSH20 0xFFFFFFFFFFFFFFFFFFFFFFFFFFFFFFFFFFFFFFFF AND DUP5 PUSH1 0x40 MLOAD PUSH1 0x24 ADD PUSH2 0x20C2 SWAP2 SWAP1 PUSH2 0x2AE4 JUMP JUMPDEST PUSH1 0x40 MLOAD PUSH1 0x20 DUP2 DUP4 SUB SUB DUP2 MSTORE SWAP1 PUSH1 0x40 MSTORE PUSH32 0xC87B56DD00000000000000000000000000000000000000000000000000000000 PUSH28 0xFFFFFFFFFFFFFFFFFFFFFFFFFFFFFFFFFFFFFFFFFFFFFFFFFFFFFFFF NOT AND PUSH1 0x20 DUP3 ADD DUP1 MLOAD PUSH28 0xFFFFFFFFFFFFFFFFFFFFFFFFFFFFFFFFFFFFFFFFFFFFFFFFFFFFFFFF DUP4 DUP2 DUP4 AND OR DUP4 MSTORE POP POP POP POP PUSH1 0x40 MLOAD PUSH2 0x214C SWAP2 SWAP1 PUSH2 0x2C5F JUMP JUMPDEST PUSH0 PUSH1 0x40 MLOAD DUP1 DUP4 SUB DUP2 DUP6 GAS DELEGATECALL SWAP2 POP POP RETURNDATASIZE DUP1 PUSH0 DUP2 EQ PUSH2 0x2184 JUMPI PUSH1 0x40 MLOAD SWAP2 POP PUSH1 0x1F NOT PUSH1 0x3F RETURNDATASIZE ADD AND DUP3 ADD PUSH1 0x40 MSTORE RETURNDATASIZE DUP3 MSTORE RETURNDATASIZE PUSH0 PUSH1 0x20 DUP5 ADD RETURNDATACOPY PUSH2 0x2189 JUMP JUMPDEST PUSH1 0x60 SWAP2 POP JUMPDEST POP SWAP2 POP SWAP2 POP DUP2 PUSH2 0x2197 JUMPI PUSH0 DUP1 REVERT JUMPDEST DUP1 DUP1 PUSH1 0x20 ADD SWAP1 MLOAD DUP2 ADD SWAP1 PUSH2 0x21AB SWAP2 SWAP1 PUSH2 0x2D52 JUMP JUMPDEST SWAP3 POP POP POP SWAP2 SWAP1 POP JUMP JUMPDEST PUSH0 DUP1 PUSH0 PUSH1 0x6 PUSH0 SWAP1 SLOAD SWAP1 PUSH2 0x100 EXP SWAP1 DIV PUSH20 0xFFFFFFFFFFFFFFFFFFFFFFFFFFFFFFFFFFFFFFFF AND PUSH20 0xFFFFFFFFFFFFFFFFFFFFFFFFFFFFFFFFFFFFFFFF AND DUP6 DUP6 PUSH1 0x40 MLOAD PUSH1 0x24 ADD PUSH2 0x2202 SWAP3 SWAP2 SWAP1 PUSH2 0x3013 JUMP JUMPDEST PUSH1 0x40 MLOAD PUSH1 0x20 DUP2 DUP4 SUB SUB DUP2 MSTORE SWAP1 PUSH1 0x40 MSTORE PUSH32 0x3A95AB7F00000000000000000000000000000000000000000000000000000000 PUSH28 0xFFFFFFFFFFFFFFFFFFFFFFFFFFFFFFFFFFFFFFFFFFFFFFFFFFFFFFFF NOT AND PUSH1 0x20 DUP3 ADD DUP1 MLOAD PUSH28 0xFFFFFFFFFFFFFFFFFFFFFFFFFFFFFFFFFFFFFFFFFFFFFFFFFFFFFFFF DUP4 DUP2 DUP4 AND OR DUP4 MSTORE POP POP POP POP PUSH1 0x40 MLOAD PUSH2 0x228C SWAP2 SWAP1 PUSH2 0x2C5F JUMP JUMPDEST PUSH0 PUSH1 0x40 MLOAD DUP1 DUP4 SUB DUP2 DUP6 GAS DELEGATECALL SWAP2 POP POP RETURNDATASIZE DUP1 PUSH0 DUP2 EQ PUSH2 0x22C4 JUMPI PUSH1 0x40 MLOAD SWAP2 POP PUSH1 0x1F NOT PUSH1 0x3F RETURNDATASIZE ADD AND DUP3 ADD PUSH1 0x40 MSTORE RETURNDATASIZE DUP3 MSTORE RETURNDATASIZE PUSH0 PUSH1 0x20 DUP5 ADD RETURNDATACOPY PUSH2 0x22C9 JUMP JUMPDEST PUSH1 0x60 SWAP2 POP JUMPDEST POP SWAP2 POP SWAP2 POP DUP2 PUSH2 0x22D7 JUMPI PUSH0 DUP1 REVERT JUMPDEST DUP1 DUP1 PUSH1 0x20 ADD SWAP1 MLOAD DUP2 ADD SWAP1 PUSH2 0x22EB SWAP2 SWAP1 PUSH2 0x2C89 JUMP JUMPDEST SWAP3 POP POP POP SWAP3 SWAP2 POP POP JUMP JUMPDEST PUSH0 DUP1 PUSH1 0x6 PUSH0 SWAP1 SLOAD SWAP1 PUSH2 0x100 EXP SWAP1 DIV PUSH20 0xFFFFFFFFFFFFFFFFFFFFFFFFFFFFFFFFFFFFFFFF AND PUSH20 0xFFFFFFFFFFFFFFFFFFFFFFFFFFFFFFFFFFFFFFFF AND DUP5 DUP5 PUSH1 0x40 MLOAD PUSH1 0x24 ADD PUSH2 0x2342 SWAP3 SWAP2 SWAP1 PUSH2 0x2DFF JUMP JUMPDEST PUSH1 0x40 MLOAD PUSH1 0x20 DUP2 DUP4 SUB SUB DUP2 MSTORE SWAP1 PUSH1 0x40 MSTORE PUSH32 0x31B1105900000000000000000000000000000000000000000000000000000000 PUSH28 0xFFFFFFFFFFFFFFFFFFFFFFFFFFFFFFFFFFFFFFFFFFFFFFFFFFFFFFFF NOT AND PUSH1 0x20 DUP3 ADD DUP1 MLOAD PUSH28 0xFFFFFFFFFFFFFFFFFFFFFFFFFFFFFFFFFFFFFFFFFFFFFFFFFFFFFFFF DUP4 DUP2 DUP4 AND OR DUP4 MSTORE POP POP POP POP PUSH1 0x40 MLOAD PUSH2 0x23CC SWAP2 SWAP1 PUSH2 0x2C5F JUMP JUMPDEST PUSH0 PUSH1 0x40 MLOAD DUP1 DUP4 SUB DUP2 DUP6 GAS DELEGATECALL SWAP2 POP POP RETURNDATASIZE DUP1 PUSH0 DUP2 EQ PUSH2 0x2404 JUMPI PUSH1 0x40 MLOAD SWAP2 POP PUSH1 0x1F NOT PUSH1 0x3F RETURNDATASIZE ADD AND DUP3 ADD PUSH1 0x40 MSTORE RETURNDATASIZE DUP3 MSTORE RETURNDATASIZE PUSH0 PUSH1 0x20 DUP5 ADD RETURNDATACOPY PUSH2 0x2409 JUMP JUMPDEST PUSH1 0x60 SWAP2 POP JUMPDEST POP SWAP2 POP SWAP2 POP POP POP POP POP JUMP JUMPDEST PUSH0 DUP1 PUSH0 PUSH1 0x6 PUSH0 SWAP1 SLOAD SWAP1 PUSH2 0x100 EXP SWAP1 DIV PUSH20 0xFFFFFFFFFFFFFFFFFFFFFFFFFFFFFFFFFFFFFFFF AND PUSH20 0xFFFFFFFFFFFFFFFFFFFFFFFFFFFFFFFFFFFFFFFF AND DUP5 PUSH1 0x40 MLOAD PUSH1 0x24 ADD PUSH2 0x2460 SWAP2 SWAP1 PUSH2 0x2AE4 JUMP JUMPDEST PUSH1 0x40 MLOAD PUSH1 0x20 DUP2 DUP4 SUB SUB DUP2 MSTORE SWAP1 PUSH1 0x40 MSTORE PUSH32 0xF8E76CC000000000000000000000000000000000000000000000000000000000 PUSH28 0xFFFFFFFFFFFFFFFFFFFFFFFFFFFFFFFFFFFFFFFFFFFFFFFFFFFFFFFF NOT AND PUSH1 0x20 DUP3 ADD DUP1 MLOAD PUSH28 0xFFFFFFFFFFFFFFFFFFFFFFFFFFFFFFFFFFFFFFFFFFFFFFFFFFFFFFFF DUP4 DUP2 DUP4 AND OR DUP4 MSTORE POP POP POP POP PUSH1 0x40 MLOAD PUSH2 0x24EA SWAP2 SWAP1 PUSH2 0x2C5F JUMP JUMPDEST PUSH0 PUSH1 0x40 MLOAD DUP1 DUP4 SUB DUP2 DUP6 GAS DELEGATECALL SWAP2 POP POP RETURNDATASIZE DUP1 PUSH0 DUP2 EQ PUSH2 0x2522 JUMPI PUSH1 0x40 MLOAD SWAP2 POP PUSH1 0x1F NOT PUSH1 0x3F RETURNDATASIZE ADD AND DUP3 ADD PUSH1 0x40 MSTORE RETURNDATASIZE DUP3 MSTORE RETURNDATASIZE PUSH0 PUSH1 0x20 DUP5 ADD RETURNDATACOPY PUSH2 0x2527 JUMP JUMPDEST PUSH1 0x60 SWAP2 POP JUMPDEST POP SWAP2 POP SWAP2 POP DUP2 PUSH2 0x2535 JUMPI PUSH0 DUP1 REVERT JUMPDEST DUP1 DUP1 PUSH1 0x20 ADD SWAP1 MLOAD DUP2 ADD SWAP1 PUSH2 0x2549 SWAP2 SWAP1 PUSH2 0x2C89 JUMP JUMPDEST SWAP3 POP POP POP SWAP2 SWAP1 POP JUMP JUMPDEST PUSH0 PUSH1 0x40 MLOAD SWAP1 POP SWAP1 JUMP JUMPDEST PUSH0 DUP1 REVERT JUMPDEST PUSH0 DUP1 REVERT JUMPDEST PUSH0 PUSH32 0xFFFFFFFF00000000000000000000000000000000000000000000000000000000 DUP3 AND SWAP1 POP SWAP2 SWAP1 POP JUMP JUMPDEST PUSH2 0x2597 DUP2 PUSH2 0x2563 JUMP JUMPDEST DUP2 EQ PUSH2 0x25A1 JUMPI PUSH0 DUP1 REVERT JUMPDEST POP JUMP JUMPDEST PUSH0 DUP2 CALLDATALOAD SWAP1 POP PUSH2 0x25B2 DUP2 PUSH2 0x258E JUMP JUMPDEST SWAP3 SWAP2 POP POP JUMP JUMPDEST PUSH0 PUSH1 0x20 DUP3 DUP5 SUB SLT ISZERO PUSH2 0x25CD JUMPI PUSH2 0x25CC PUSH2 0x255B JUMP JUMPDEST JUMPDEST PUSH0 PUSH2 0x25DA DUP5 DUP3 DUP6 ADD PUSH2 0x25A4 JUMP JUMPDEST SWAP2 POP POP SWAP3 SWAP2 POP POP JUMP JUMPDEST PUSH0 DUP2 ISZERO ISZERO SWAP1 POP SWAP2 SWAP1 POP JUMP JUMPDEST PUSH2 0x25F7 DUP2 PUSH2 0x25E3 JUMP JUMPDEST DUP3 MSTORE POP POP JUMP JUMPDEST PUSH0 PUSH1 0x20 DUP3 ADD SWAP1 POP PUSH2 0x2610 PUSH0 DUP4 ADD DUP5 PUSH2 0x25EE JUMP JUMPDEST SWAP3 SWAP2 POP POP JUMP JUMPDEST PUSH0 DUP2 MLOAD SWAP1 POP SWAP2 SWAP1 POP JUMP JUMPDEST PUSH0 DUP3 DUP3 MSTORE PUSH1 0x20 DUP3 ADD SWAP1 POP SWAP3 SWAP2 POP POP JUMP JUMPDEST PUSH0 JUMPDEST DUP4 DUP2 LT ISZERO PUSH2 0x264D JUMPI DUP1 DUP3 ADD MLOAD DUP2 DUP5 ADD MSTORE PUSH1 0x20 DUP2 ADD SWAP1 POP PUSH2 0x2632 JUMP JUMPDEST PUSH0 DUP5 DUP5 ADD MSTORE POP POP POP POP JUMP JUMPDEST PUSH0 PUSH1 0x1F NOT PUSH1 0x1F DUP4 ADD AND SWAP1 POP SWAP2 SWAP1 POP JUMP JUMPDEST PUSH0 PUSH2 0x2672 DUP3 PUSH2 0x2616 JUMP JUMPDEST PUSH2 0x267C DUP2 DUP6 PUSH2 0x2620 JUMP JUMPDEST SWAP4 POP PUSH2 0x268C DUP2 DUP6 PUSH1 0x20 DUP7 ADD PUSH2 0x2630 JUMP JUMPDEST PUSH2 0x2695 DUP2 PUSH2 0x2658 JUMP JUMPDEST DUP5 ADD SWAP2 POP POP SWAP3 SWAP2 POP POP JUMP JUMPDEST PUSH0 PUSH1 0x20 DUP3 ADD SWAP1 POP DUP2 DUP2 SUB PUSH0 DUP4 ADD MSTORE PUSH2 0x26B8 DUP2 DUP5 PUSH2 0x2668 JUMP JUMPDEST SWAP1 POP SWAP3 SWAP2 POP POP JUMP JUMPDEST PUSH0 DUP2 SWAP1 POP SWAP2 SWAP1 POP JUMP JUMPDEST PUSH2 0x26D2 DUP2 PUSH2 0x26C0 JUMP JUMPDEST DUP2 EQ PUSH2 0x26DC JUMPI PUSH0 DUP1 REVERT JUMPDEST POP JUMP JUMPDEST PUSH0 DUP2 CALLDATALOAD SWAP1 POP PUSH2 0x26ED DUP2 PUSH2 0x26C9 JUMP JUMPDEST SWAP3 SWAP2 POP POP JUMP JUMPDEST PUSH0 PUSH1 0x20 DUP3 DUP5 SUB SLT ISZERO PUSH2 0x2708 JUMPI PUSH2 0x2707 PUSH2 0x255B JUMP JUMPDEST JUMPDEST PUSH0 PUSH2 0x2715 DUP5 DUP3 DUP6 ADD PUSH2 0x26DF JUMP JUMPDEST SWAP2 POP POP SWAP3 SWAP2 POP POP JUMP JUMPDEST PUSH0 PUSH20 0xFFFFFFFFFFFFFFFFFFFFFFFFFFFFFFFFFFFFFFFF DUP3 AND SWAP1 POP SWAP2 SWAP1 POP JUMP JUMPDEST PUSH0 PUSH2 0x2747 DUP3 PUSH2 0x271E JUMP JUMPDEST SWAP1 POP SWAP2 SWAP1 POP JUMP JUMPDEST PUSH2 0x2757 DUP2 PUSH2 0x273D JUMP JUMPDEST DUP3 MSTORE POP POP JUMP JUMPDEST PUSH0 PUSH1 0x20 DUP3 ADD SWAP1 POP PUSH2 0x2770 PUSH0 DUP4 ADD DUP5 PUSH2 0x274E JUMP JUMPDEST SWAP3 SWAP2 POP POP JUMP JUMPDEST PUSH2 0x277F DUP2 PUSH2 0x273D JUMP JUMPDEST DUP2 EQ PUSH2 0x2789 JUMPI PUSH0 DUP1 REVERT JUMPDEST POP JUMP JUMPDEST PUSH0 DUP2 CALLDATALOAD SWAP1 POP PUSH2 0x279A DUP2 PUSH2 0x2776 JUMP JUMPDEST SWAP3 SWAP2 POP POP JUMP JUMPDEST PUSH0 DUP1 PUSH1 0x40 DUP4 DUP6 SUB SLT ISZERO PUSH2 0x27B6 JUMPI PUSH2 0x27B5 PUSH2 0x255B JUMP JUMPDEST JUMPDEST PUSH0 PUSH2 0x27C3 DUP6 DUP3 DUP7 ADD PUSH2 0x278C JUMP JUMPDEST SWAP3 POP POP PUSH1 0x20 PUSH2 0x27D4 DUP6 DUP3 DUP7 ADD PUSH2 0x26DF JUMP JUMPDEST SWAP2 POP POP SWAP3 POP SWAP3 SWAP1 POP JUMP JUMPDEST PUSH0 DUP1 PUSH0 PUSH1 0x60 DUP5 DUP7 SUB SLT ISZERO PUSH2 0x27F5 JUMPI PUSH2 0x27F4 PUSH2 0x255B JUMP JUMPDEST JUMPDEST PUSH0 PUSH2 0x2802 DUP7 DUP3 DUP8 ADD PUSH2 0x278C JUMP JUMPDEST SWAP4 POP POP PUSH1 0x20 PUSH2 0x2813 DUP7 DUP3 DUP8 ADD PUSH2 0x278C JUMP JUMPDEST SWAP3 POP POP PUSH1 0x40 PUSH2 0x2824 DUP7 DUP3 DUP8 ADD PUSH2 0x26DF JUMP JUMPDEST SWAP2 POP POP SWAP3 POP SWAP3 POP SWAP3 JUMP JUMPDEST PUSH0 DUP1 REVERT JUMPDEST PUSH0 DUP1 REVERT JUMPDEST PUSH32 0x4E487B7100000000000000000000000000000000000000000000000000000000 PUSH0 MSTORE PUSH1 0x41 PUSH1 0x4 MSTORE PUSH1 0x24 PUSH0 REVERT JUMPDEST PUSH2 0x286C DUP3 PUSH2 0x2658 JUMP JUMPDEST DUP2 ADD DUP2 DUP2 LT PUSH8 0xFFFFFFFFFFFFFFFF DUP3 GT OR ISZERO PUSH2 0x288B JUMPI PUSH2 0x288A PUSH2 0x2836 JUMP JUMPDEST JUMPDEST DUP1 PUSH1 0x40 MSTORE POP POP POP JUMP JUMPDEST PUSH0 PUSH2 0x289D PUSH2 0x2552 JUMP JUMPDEST SWAP1 POP PUSH2 0x28A9 DUP3 DUP3 PUSH2 0x2863 JUMP JUMPDEST SWAP2 SWAP1 POP JUMP JUMPDEST PUSH0 PUSH8 0xFFFFFFFFFFFFFFFF DUP3 GT ISZERO PUSH2 0x28C8 JUMPI PUSH2 0x28C7 PUSH2 0x2836 JUMP JUMPDEST JUMPDEST PUSH2 0x28D1 DUP3 PUSH2 0x2658 JUMP JUMPDEST SWAP1 POP PUSH1 0x20 DUP2 ADD SWAP1 POP SWAP2 SWAP1 POP JUMP JUMPDEST DUP3 DUP2 DUP4 CALLDATACOPY PUSH0 DUP4 DUP4 ADD MSTORE POP POP POP JUMP JUMPDEST PUSH0 PUSH2 0x28FE PUSH2 0x28F9 DUP5 PUSH2 0x28AE JUMP JUMPDEST PUSH2 0x2894 JUMP JUMPDEST SWAP1 POP DUP3 DUP2 MSTORE PUSH1 0x20 DUP2 ADD DUP5 DUP5 DUP5 ADD GT ISZERO PUSH2 0x291A JUMPI PUSH2 0x2919 PUSH2 0x2832 JUMP JUMPDEST JUMPDEST PUSH2 0x2925 DUP5 DUP3 DUP6 PUSH2 0x28DE JUMP JUMPDEST POP SWAP4 SWAP3 POP POP POP JUMP JUMPDEST PUSH0 DUP3 PUSH1 0x1F DUP4 ADD SLT PUSH2 0x2941 JUMPI PUSH2 0x2940 PUSH2 0x282E JUMP JUMPDEST JUMPDEST DUP2 CALLDATALOAD PUSH2 0x2951 DUP5 DUP3 PUSH1 0x20 DUP7 ADD PUSH2 0x28EC JUMP JUMPDEST SWAP2 POP POP SWAP3 SWAP2 POP POP JUMP JUMPDEST PUSH0 DUP1 PUSH0 DUP1 PUSH1 0x80 DUP6 DUP8 SUB SLT ISZERO PUSH2 0x2972 JUMPI PUSH2 0x2971 PUSH2 0x255B JUMP JUMPDEST JUMPDEST PUSH0 PUSH2 0x297F DUP8 DUP3 DUP9 ADD PUSH2 0x278C JUMP JUMPDEST SWAP5 POP POP PUSH1 0x20 PUSH2 0x2990 DUP8 DUP3 DUP9 ADD PUSH2 0x278C JUMP JUMPDEST SWAP4 POP POP PUSH1 0x40 PUSH2 0x29A1 DUP8 DUP3 DUP9 ADD PUSH2 0x26DF JUMP JUMPDEST SWAP3 POP POP PUSH1 0x60 DUP6 ADD CALLDATALOAD PUSH8 0xFFFFFFFFFFFFFFFF DUP2 GT ISZERO PUSH2 0x29C2 JUMPI PUSH2 0x29C1 PUSH2 0x255F JUMP JUMPDEST JUMPDEST PUSH2 0x29CE DUP8 DUP3 DUP9 ADD PUSH2 0x292D JUMP JUMPDEST SWAP2 POP POP SWAP3 SWAP6 SWAP2 SWAP5 POP SWAP3 POP JUMP JUMPDEST PUSH0 DUP1 PUSH0 DUP1 PUSH1 0x80 DUP6 DUP8 SUB SLT ISZERO PUSH2 0x29F2 JUMPI PUSH2 0x29F1 PUSH2 0x255B JUMP JUMPDEST JUMPDEST PUSH0 PUSH2 0x29FF DUP8 DUP3 DUP9 ADD PUSH2 0x278C JUMP JUMPDEST SWAP5 POP POP PUSH1 0x20 PUSH2 0x2A10 DUP8 DUP3 DUP9 ADD PUSH2 0x278C JUMP JUMPDEST SWAP4 POP POP PUSH1 0x40 PUSH2 0x2A21 DUP8 DUP3 DUP9 ADD PUSH2 0x26DF JUMP JUMPDEST SWAP3 POP POP PUSH1 0x60 PUSH2 0x2A32 DUP8 DUP3 DUP9 ADD PUSH2 0x26DF JUMP JUMPDEST SWAP2 POP POP SWAP3 SWAP6 SWAP2 SWAP5 POP SWAP3 POP JUMP JUMPDEST PUSH0 DUP1 PUSH0 PUSH1 0x60 DUP5 DUP7 SUB SLT ISZERO PUSH2 0x2A55 JUMPI PUSH2 0x2A54 PUSH2 0x255B JUMP JUMPDEST JUMPDEST PUSH0 PUSH2 0x2A62 DUP7 DUP3 DUP8 ADD PUSH2 0x278C JUMP JUMPDEST SWAP4 POP POP PUSH1 0x20 PUSH2 0x2A73 DUP7 DUP3 DUP8 ADD PUSH2 0x26DF JUMP JUMPDEST SWAP3 POP POP PUSH1 0x40 DUP5 ADD CALLDATALOAD PUSH8 0xFFFFFFFFFFFFFFFF DUP2 GT ISZERO PUSH2 0x2A94 JUMPI PUSH2 0x2A93 PUSH2 0x255F JUMP JUMPDEST JUMPDEST PUSH2 0x2AA0 DUP7 DUP3 DUP8 ADD PUSH2 0x292D JUMP JUMPDEST SWAP2 POP POP SWAP3 POP SWAP3 POP SWAP3 JUMP JUMPDEST PUSH0 PUSH1 0x20 DUP3 DUP5 SUB SLT ISZERO PUSH2 0x2ABF JUMPI PUSH2 0x2ABE PUSH2 0x255B JUMP JUMPDEST JUMPDEST PUSH0 PUSH2 0x2ACC DUP5 DUP3 DUP6 ADD PUSH2 0x278C JUMP JUMPDEST SWAP2 POP POP SWAP3 SWAP2 POP POP JUMP JUMPDEST PUSH2 0x2ADE DUP2 PUSH2 0x26C0 JUMP JUMPDEST DUP3 MSTORE POP POP JUMP JUMPDEST PUSH0 PUSH1 0x20 DUP3 ADD SWAP1 POP PUSH2 0x2AF7 PUSH0 DUP4 ADD DUP5 PUSH2 0x2AD5 JUMP JUMPDEST SWAP3 SWAP2 POP POP JUMP JUMPDEST PUSH2 0x2B06 DUP2 PUSH2 0x25E3 JUMP JUMPDEST DUP2 EQ PUSH2 0x2B10 JUMPI PUSH0 DUP1 REVERT JUMPDEST POP JUMP JUMPDEST PUSH0 DUP2 CALLDATALOAD SWAP1 POP PUSH2 0x2B21 DUP2 PUSH2 0x2AFD JUMP JUMPDEST SWAP3 SWAP2 POP POP JUMP JUMPDEST PUSH0 DUP1 PUSH0 PUSH1 0x60 DUP5 DUP7 SUB SLT ISZERO PUSH2 0x2B3E JUMPI PUSH2 0x2B3D PUSH2 0x255B JUMP JUMPDEST JUMPDEST PUSH0 PUSH2 0x2B4B DUP7 DUP3 DUP8 ADD PUSH2 0x278C JUMP JUMPDEST SWAP4 POP POP PUSH1 0x20 PUSH2 0x2B5C DUP7 DUP3 DUP8 ADD PUSH2 0x278C JUMP JUMPDEST SWAP3 POP POP PUSH1 0x40 PUSH2 0x2B6D DUP7 DUP3 DUP8 ADD PUSH2 0x2B13 JUMP JUMPDEST SWAP2 POP POP SWAP3 POP SWAP3 POP SWAP3 JUMP JUMPDEST PUSH0 DUP1 PUSH1 0x40 DUP4 DUP6 SUB SLT ISZERO PUSH2 0x2B8D JUMPI PUSH2 0x2B8C PUSH2 0x255B JUMP JUMPDEST JUMPDEST PUSH0 PUSH2 0x2B9A DUP6 DUP3 DUP7 ADD PUSH2 0x278C JUMP JUMPDEST SWAP3 POP POP PUSH1 0x20 PUSH2 0x2BAB DUP6 DUP3 DUP7 ADD PUSH2 0x2B13 JUMP JUMPDEST SWAP2 POP POP SWAP3 POP SWAP3 SWAP1 POP JUMP JUMPDEST PUSH0 DUP1 PUSH1 0x40 DUP4 DUP6 SUB SLT ISZERO PUSH2 0x2BCB JUMPI PUSH2 0x2BCA PUSH2 0x255B JUMP JUMPDEST JUMPDEST PUSH0 PUSH2 0x2BD8 DUP6 DUP3 DUP7 ADD PUSH2 0x278C JUMP JUMPDEST SWAP3 POP POP PUSH1 0x20 PUSH2 0x2BE9 DUP6 DUP3 DUP7 ADD PUSH2 0x278C JUMP JUMPDEST SWAP2 POP POP SWAP3 POP SWAP3 SWAP1 POP JUMP JUMPDEST PUSH2 0x2BFC DUP2 PUSH2 0x2563 JUMP JUMPDEST DUP3 MSTORE POP POP JUMP JUMPDEST PUSH0 PUSH1 0x20 DUP3 ADD SWAP1 POP PUSH2 0x2C15 PUSH0 DUP4 ADD DUP5 PUSH2 0x2BF3 JUMP JUMPDEST SWAP3 SWAP2 POP POP JUMP JUMPDEST PUSH0 DUP2 MLOAD SWAP1 POP SWAP2 SWAP1 POP JUMP JUMPDEST PUSH0 DUP2 SWAP1 POP SWAP3 SWAP2 POP POP JUMP JUMPDEST PUSH0 PUSH2 0x2C39 DUP3 PUSH2 0x2C1B JUMP JUMPDEST PUSH2 0x2C43 DUP2 DUP6 PUSH2 0x2C25 JUMP JUMPDEST SWAP4 POP PUSH2 0x2C53 DUP2 DUP6 PUSH1 0x20 DUP7 ADD PUSH2 0x2630 JUMP JUMPDEST DUP1 DUP5 ADD SWAP2 POP POP SWAP3 SWAP2 POP POP JUMP JUMPDEST PUSH0 PUSH2 0x2C6A DUP3 DUP5 PUSH2 0x2C2F JUMP JUMPDEST SWAP2 POP DUP2 SWAP1 POP SWAP3 SWAP2 POP POP JUMP JUMPDEST PUSH0 DUP2 MLOAD SWAP1 POP PUSH2 0x2C83 DUP2 PUSH2 0x2AFD JUMP JUMPDEST SWAP3 SWAP2 POP POP JUMP JUMPDEST PUSH0 PUSH1 0x20 DUP3 DUP5 SUB SLT ISZERO PUSH2 0x2C9E JUMPI PUSH2 0x2C9D PUSH2 0x255B JUMP JUMPDEST JUMPDEST PUSH0 PUSH2 0x2CAB DUP5 DUP3 DUP6 ADD PUSH2 0x2C75 JUMP JUMPDEST SWAP2 POP POP SWAP3 SWAP2 POP POP JUMP JUMPDEST PUSH0 PUSH8 0xFFFFFFFFFFFFFFFF DUP3 GT ISZERO PUSH2 0x2CCE JUMPI PUSH2 0x2CCD PUSH2 0x2836 JUMP JUMPDEST JUMPDEST PUSH2 0x2CD7 DUP3 PUSH2 0x2658 JUMP JUMPDEST SWAP1 POP PUSH1 0x20 DUP2 ADD SWAP1 POP SWAP2 SWAP1 POP JUMP JUMPDEST PUSH0 PUSH2 0x2CF6 PUSH2 0x2CF1 DUP5 PUSH2 0x2CB4 JUMP JUMPDEST PUSH2 0x2894 JUMP JUMPDEST SWAP1 POP DUP3 DUP2 MSTORE PUSH1 0x20 DUP2 ADD DUP5 DUP5 DUP5 ADD GT ISZERO PUSH2 0x2D12 JUMPI PUSH2 0x2D11 PUSH2 0x2832 JUMP JUMPDEST JUMPDEST PUSH2 0x2D1D DUP5 DUP3 DUP6 PUSH2 0x2630 JUMP JUMPDEST POP SWAP4 SWAP3 POP POP POP JUMP JUMPDEST PUSH0 DUP3 PUSH1 0x1F DUP4 ADD SLT PUSH2 0x2D39 JUMPI PUSH2 0x2D38 PUSH2 0x282E JUMP JUMPDEST JUMPDEST DUP2 MLOAD PUSH2 0x2D49 DUP5 DUP3 PUSH1 0x20 DUP7 ADD PUSH2 0x2CE4 JUMP JUMPDEST SWAP2 POP POP SWAP3 SWAP2 POP POP JUMP JUMPDEST PUSH0 PUSH1 0x20 DUP3 DUP5 SUB SLT ISZERO PUSH2 0x2D67 JUMPI PUSH2 0x2D66 PUSH2 0x255B JUMP JUMPDEST JUMPDEST PUSH0 DUP3 ADD MLOAD PUSH8 0xFFFFFFFFFFFFFFFF DUP2 GT ISZERO PUSH2 0x2D84 JUMPI PUSH2 0x2D83 PUSH2 0x255F JUMP JUMPDEST JUMPDEST PUSH2 0x2D90 DUP5 DUP3 DUP6 ADD PUSH2 0x2D25 JUMP JUMPDEST SWAP2 POP POP SWAP3 SWAP2 POP POP JUMP JUMPDEST PUSH0 PUSH2 0x2DA3 DUP3 PUSH2 0x271E JUMP JUMPDEST SWAP1 POP SWAP2 SWAP1 POP JUMP JUMPDEST PUSH2 0x2DB3 DUP2 PUSH2 0x2D99 JUMP JUMPDEST DUP2 EQ PUSH2 0x2DBD JUMPI PUSH0 DUP1 REVERT JUMPDEST POP JUMP JUMPDEST PUSH0 DUP2 MLOAD SWAP1 POP PUSH2 0x2DCE DUP2 PUSH2 0x2DAA JUMP JUMPDEST SWAP3 SWAP2 POP POP JUMP JUMPDEST PUSH0 PUSH1 0x20 DUP3 DUP5 SUB SLT ISZERO PUSH2 0x2DE9 JUMPI PUSH2 0x2DE8 PUSH2 0x255B JUMP JUMPDEST JUMPDEST PUSH0 PUSH2 0x2DF6 DUP5 DUP3 DUP6 ADD PUSH2 0x2DC0 JUMP JUMPDEST SWAP2 POP POP SWAP3 SWAP2 POP POP JUMP JUMPDEST PUSH0 PUSH1 0x40 DUP3 ADD SWAP1 POP PUSH2 0x2E12 PUSH0 DUP4 ADD DUP6 PUSH2 0x274E JUMP JUMPDEST PUSH2 0x2E1F PUSH1 0x20 DUP4 ADD DUP5 PUSH2 0x2AD5 JUMP JUMPDEST SWAP4 SWAP3 POP POP POP JUMP JUMPDEST PUSH0 PUSH1 0x60 DUP3 ADD SWAP1 POP PUSH2 0x2E39 PUSH0 DUP4 ADD DUP7 PUSH2 0x274E JUMP JUMPDEST PUSH2 0x2E46 PUSH1 0x20 DUP4 ADD DUP6 PUSH2 0x274E JUMP JUMPDEST PUSH2 0x2E53 PUSH1 0x40 DUP4 ADD DUP5 PUSH2 0x2AD5 JUMP JUMPDEST SWAP5 SWAP4 POP POP POP POP JUMP JUMPDEST PUSH0 DUP3 DUP3 MSTORE PUSH1 0x20 DUP3 ADD SWAP1 POP SWAP3 SWAP2 POP POP JUMP JUMPDEST PUSH0 PUSH2 0x2E75 DUP3 PUSH2 0x2C1B JUMP JUMPDEST PUSH2 0x2E7F DUP2 DUP6 PUSH2 0x2E5B JUMP JUMPDEST SWAP4 POP PUSH2 0x2E8F DUP2 DUP6 PUSH1 0x20 DUP7 ADD PUSH2 0x2630 JUMP JUMPDEST PUSH2 0x2E98 DUP2 PUSH2 0x2658 JUMP JUMPDEST DUP5 ADD SWAP2 POP POP SWAP3 SWAP2 POP POP JUMP JUMPDEST PUSH0 PUSH1 0x80 DUP3 ADD SWAP1 POP PUSH2 0x2EB6 PUSH0 DUP4 ADD DUP8 PUSH2 0x274E JUMP JUMPDEST PUSH2 0x2EC3 PUSH1 0x20 DUP4 ADD DUP7 PUSH2 0x274E JUMP JUMPDEST PUSH2 0x2ED0 PUSH1 0x40 DUP4 ADD DUP6 PUSH2 0x2AD5 JUMP JUMPDEST DUP2 DUP2 SUB PUSH1 0x60 DUP4 ADD MSTORE PUSH2 0x2EE2 DUP2 DUP5 PUSH2 0x2E6B JUMP JUMPDEST SWAP1 POP SWAP6 SWAP5 POP POP POP POP POP JUMP JUMPDEST PUSH0 PUSH1 0x60 DUP3 ADD SWAP1 POP PUSH2 0x2F00 PUSH0 DUP4 ADD DUP7 PUSH2 0x274E JUMP JUMPDEST PUSH2 0x2F0D PUSH1 0x20 DUP4 ADD DUP6 PUSH2 0x2AD5 JUMP JUMPDEST DUP2 DUP2 SUB PUSH1 0x40 DUP4 ADD MSTORE PUSH2 0x2F1F DUP2 DUP5 PUSH2 0x2E6B JUMP JUMPDEST SWAP1 POP SWAP5 SWAP4 POP POP POP POP JUMP JUMPDEST PUSH32 0x4552433732313A2061646472657373207A65726F206973206E6F742061207661 PUSH0 DUP3 ADD MSTORE PUSH32 0x6C6964206F776E65720000000000000000000000000000000000000000000000 PUSH1 0x20 DUP3 ADD MSTORE POP JUMP JUMPDEST PUSH0 PUSH2 0x2F83 PUSH1 0x29 DUP4 PUSH2 0x2620 JUMP JUMPDEST SWAP2 POP PUSH2 0x2F8E DUP3 PUSH2 0x2F29 JUMP JUMPDEST PUSH1 0x40 DUP3 ADD SWAP1 POP SWAP2 SWAP1 POP JUMP JUMPDEST PUSH0 PUSH1 0x20 DUP3 ADD SWAP1 POP DUP2 DUP2 SUB PUSH0 DUP4 ADD MSTORE PUSH2 0x2FB0 DUP2 PUSH2 0x2F77 JUMP JUMPDEST SWAP1 POP SWAP2 SWAP1 POP JUMP JUMPDEST PUSH0 PUSH1 0x60 DUP3 ADD SWAP1 POP PUSH2 0x2FCA PUSH0 DUP4 ADD DUP7 PUSH2 0x274E JUMP JUMPDEST PUSH2 0x2FD7 PUSH1 0x20 DUP4 ADD DUP6 PUSH2 0x274E JUMP JUMPDEST PUSH2 0x2FE4 PUSH1 0x40 DUP4 ADD DUP5 PUSH2 0x25EE JUMP JUMPDEST SWAP5 SWAP4 POP POP POP POP JUMP JUMPDEST PUSH0 PUSH1 0x40 DUP3 ADD SWAP1 POP PUSH2 0x2FFF PUSH0 DUP4 ADD DUP6 PUSH2 0x274E JUMP JUMPDEST PUSH2 0x300C PUSH1 0x20 DUP4 ADD DUP5 PUSH2 0x25EE JUMP JUMPDEST SWAP4 SWAP3 POP POP POP JUMP JUMPDEST PUSH0 PUSH1 0x40 DUP3 ADD SWAP1 POP PUSH2 0x3026 PUSH0 DUP4 ADD DUP6 PUSH2 0x274E JUMP JUMPDEST PUSH2 0x3033 PUSH1 0x20 DUP4 ADD DUP5 PUSH2 0x274E JUMP JUMPDEST SWAP4 SWAP3 POP POP POP JUMP INVALID LOG2 PUSH5 0x6970667358 0x22 SLT KECCAK256 0xEE BALANCE 0x5C SWAP12 0xDE 0xD 0xE6 0x26 0xF6 DUP9 0xC7 SWAP3 STOP 0xDA CALLDATACOPY COINBASE 0x2A SWAP14 PUSH10 0x599CA768E34406A850F0 0xBB PUSH10 0xD064736F6C6343000814 STOP CALLER "
				},
				"gasEstimates": {
					"creation": {
						"codeDepositCost": "2480000",
						"executionCost": "infinite",
						"totalCost": "infinite"
					},
					"external": {
						"__unsafe_increaseBalance(address,uint256)": "infinite",
						"_afterTokenTransfer(address,address,uint256,uint256)": "infinite",
						"_approve(address,uint256)": "infinite",
						"_baseURI()": "infinite",
						"_beforeTokenTransfer(address,address,uint256,uint256)": "infinite",
						"_burn(uint256)": "infinite",
						"_exists(uint256)": "infinite",
						"_isApprovedOrOwner(address,uint256)": "infinite",
						"_mint(address,uint256)": "infinite",
						"_ownerOf(uint256)": "infinite",
						"_requireMinted(uint256)": "infinite",
						"_safeMint(address,uint256)": "infinite",
						"_safeMint(address,uint256,bytes)": "infinite",
						"_safeTransfer(address,address,uint256,bytes)": "infinite",
						"_setApprovalForAll(address,address,bool)": "infinite",
						"_transfer(address,address,uint256)": "infinite",
						"approve(address,uint256)": "infinite",
						"balanceOf(address)": "2975",
						"getApproved(uint256)": "infinite",
						"isApprovedForAll(address,address)": "infinite",
						"name()": "infinite",
						"ownerOf(uint256)": "infinite",
						"safeTransferFrom(address,address,uint256)": "infinite",
						"safeTransferFrom(address,address,uint256,bytes)": "infinite",
						"setApprovalForAll(address,bool)": "infinite",
						"setERC721Address(address)": "24804",
						"supportsInterface(bytes4)": "infinite",
						"symbol()": "infinite",
						"tokenURI(uint256)": "infinite",
						"transferFrom(address,address,uint256)": "infinite"
					},
					"internal": {
						"_checkOnERC721Received(address,address,uint256,bytes memory)": "infinite"
					}
				},
				"methodIdentifiers": {
					"__unsafe_increaseBalance(address,uint256)": "f661e7c9",
					"_afterTokenTransfer(address,address,uint256,uint256)": "98d28eeb",
					"_approve(address,uint256)": "7b7d7225",
					"_baseURI()": "743976a0",
					"_beforeTokenTransfer(address,address,uint256,uint256)": "2bd9a459",
					"_burn(uint256)": "9b1f9e74",
					"_exists(uint256)": "f8e76cc0",
					"_isApprovedOrOwner(address,uint256)": "4cdc9549",
					"_mint(address,uint256)": "4e6ec247",
					"_ownerOf(uint256)": "38350541",
					"_requireMinted(uint256)": "a0aea85d",
					"_safeMint(address,uint256)": "b3e1c718",
					"_safeMint(address,uint256,bytes)": "6a4f832b",
					"_safeTransfer(address,address,uint256,bytes)": "24b6b8c0",
					"_setApprovalForAll(address,address,bool)": "8c4e3f32",
					"_transfer(address,address,uint256)": "30e0789e",
					"approve(address,uint256)": "095ea7b3",
					"balanceOf(address)": "70a08231",
					"getApproved(uint256)": "081812fc",
					"isApprovedForAll(address,address)": "e985e9c5",
					"name()": "06fdde03",
					"ownerOf(uint256)": "6352211e",
					"safeTransferFrom(address,address,uint256)": "42842e0e",
					"safeTransferFrom(address,address,uint256,bytes)": "b88d4fde",
					"setApprovalForAll(address,bool)": "a22cb465",
					"setERC721Address(address)": "9a03d9a3",
					"supportsInterface(bytes4)": "01ffc9a7",
					"symbol()": "95d89b41",
					"tokenURI(uint256)": "c87b56dd",
					"transferFrom(address,address,uint256)": "23b872dd"
				}
			},
			"storageLayout": {
				"storage": [
					{
						"astId": 13,
						"contract": "contracts/ERC721Proxy.sol:ProxyERC721",
						"label": "_name",
						"offset": 0,
						"slot": "0",
						"type": "t_string_storage"
					},
					{
						"astId": 15,
						"contract": "contracts/ERC721Proxy.sol:ProxyERC721",
						"label": "_symbol",
						"offset": 0,
						"slot": "1",
						"type": "t_string_storage"
					},
					{
						"astId": 19,
						"contract": "contracts/ERC721Proxy.sol:ProxyERC721",
						"label": "_owners",
						"offset": 0,
						"slot": "2",
						"type": "t_mapping(t_uint256,t_address)"
					},
					{
						"astId": 23,
						"contract": "contracts/ERC721Proxy.sol:ProxyERC721",
						"label": "_balances",
						"offset": 0,
						"slot": "3",
						"type": "t_mapping(t_address,t_uint256)"
					},
					{
						"astId": 27,
						"contract": "contracts/ERC721Proxy.sol:ProxyERC721",
						"label": "_tokenApprovals",
						"offset": 0,
						"slot": "4",
						"type": "t_mapping(t_uint256,t_address)"
					},
					{
						"astId": 33,
						"contract": "contracts/ERC721Proxy.sol:ProxyERC721",
						"label": "_operatorApprovals",
						"offset": 0,
						"slot": "5",
						"type": "t_mapping(t_address,t_mapping(t_address,t_bool))"
					},
					{
						"astId": 35,
						"contract": "contracts/ERC721Proxy.sol:ProxyERC721",
						"label": "_contract",
						"offset": 0,
						"slot": "6",
						"type": "t_address"
					}
				],
				"types": {
					"t_address": {
						"encoding": "inplace",
						"label": "address",
						"numberOfBytes": "20"
					},
					"t_bool": {
						"encoding": "inplace",
						"label": "bool",
						"numberOfBytes": "1"
					},
					"t_mapping(t_address,t_bool)": {
						"encoding": "mapping",
						"key": "t_address",
						"label": "mapping(address => bool)",
						"numberOfBytes": "32",
						"value": "t_bool"
					},
					"t_mapping(t_address,t_mapping(t_address,t_bool))": {
						"encoding": "mapping",
						"key": "t_address",
						"label": "mapping(address => mapping(address => bool))",
						"numberOfBytes": "32",
						"value": "t_mapping(t_address,t_bool)"
					},
					"t_mapping(t_address,t_uint256)": {
						"encoding": "mapping",
						"key": "t_address",
						"label": "mapping(address => uint256)",
						"numberOfBytes": "32",
						"value": "t_uint256"
					},
					"t_mapping(t_uint256,t_address)": {
						"encoding": "mapping",
						"key": "t_uint256",
						"label": "mapping(uint256 => address)",
						"numberOfBytes": "32",
						"value": "t_address"
					},
					"t_string_storage": {
						"encoding": "bytes",
						"label": "string",
						"numberOfBytes": "32"
					},
					"t_uint256": {
						"encoding": "inplace",
						"label": "uint256",
						"numberOfBytes": "32"
					}
				}
			},
			"userdoc": {
				"kind": "user",
				"methods": {},
				"version": 1
			}
		}
	}
}