{
	"contracts/ERC721Proxy.sol": {
		"ProxyERC721": {
			"abi": [
				{
					"inputs": [
						{
							"internalType": "address",
							"name": "_ERC721Address",
							"type": "address"
						},
						{
							"internalType": "string",
							"name": "name_",
							"type": "string"
						},
						{
							"internalType": "string",
							"name": "symbol_",
							"type": "string"
						}
					],
					"stateMutability": "nonpayable",
					"type": "constructor"
				},
				{
					"inputs": [
						{
							"internalType": "address",
							"name": "to",
							"type": "address"
						},
						{
							"internalType": "uint256",
							"name": "tokenId",
							"type": "uint256"
						}
					],
					"name": "approve",
					"outputs": [],
					"stateMutability": "nonpayable",
					"type": "function"
				},
				{
					"inputs": [
						{
							"internalType": "address",
							"name": "owner",
							"type": "address"
						}
					],
					"name": "balanceOf",
					"outputs": [
						{
							"internalType": "uint256",
							"name": "",
							"type": "uint256"
						}
					],
					"stateMutability": "view",
					"type": "function"
				},
				{
					"inputs": [
						{
							"internalType": "uint256",
							"name": "tokenId",
							"type": "uint256"
						}
					],
					"name": "getApproved",
					"outputs": [
						{
							"internalType": "address",
							"name": "",
							"type": "address"
						}
					],
					"stateMutability": "view",
					"type": "function"
				},
				{
					"inputs": [
						{
							"internalType": "address",
							"name": "owner",
							"type": "address"
						},
						{
							"internalType": "address",
							"name": "operator",
							"type": "address"
						}
					],
					"name": "isApprovedForAll",
					"outputs": [
						{
							"internalType": "bool",
							"name": "",
							"type": "bool"
						}
					],
					"stateMutability": "view",
					"type": "function"
				},
				{
					"inputs": [],
					"name": "name",
					"outputs": [
						{
							"internalType": "string",
							"name": "",
							"type": "string"
						}
					],
					"stateMutability": "view",
					"type": "function"
				},
				{
					"inputs": [
						{
							"internalType": "uint256",
							"name": "tokenId",
							"type": "uint256"
						}
					],
					"name": "ownerOf",
					"outputs": [
						{
							"internalType": "address",
							"name": "",
							"type": "address"
						}
					],
					"stateMutability": "view",
					"type": "function"
				},
				{
					"inputs": [
						{
							"internalType": "address",
							"name": "to",
							"type": "address"
						},
						{
							"internalType": "uint256",
							"name": "tokenId",
							"type": "uint256"
						}
					],
					"name": "safeMint",
					"outputs": [],
					"stateMutability": "nonpayable",
					"type": "function"
				},
				{
					"inputs": [
						{
							"internalType": "address",
							"name": "from",
							"type": "address"
						},
						{
							"internalType": "address",
							"name": "to",
							"type": "address"
						},
						{
							"internalType": "uint256",
							"name": "tokenId",
							"type": "uint256"
						}
					],
					"name": "safeTransferFrom",
					"outputs": [],
					"stateMutability": "nonpayable",
					"type": "function"
				},
				{
					"inputs": [
						{
							"internalType": "address",
							"name": "from",
							"type": "address"
						},
						{
							"internalType": "address",
							"name": "to",
							"type": "address"
						},
						{
							"internalType": "uint256",
							"name": "tokenId",
							"type": "uint256"
						},
						{
							"internalType": "bytes",
							"name": "data",
							"type": "bytes"
						}
					],
					"name": "safeTransferFrom",
					"outputs": [],
					"stateMutability": "nonpayable",
					"type": "function"
				},
				{
					"inputs": [
						{
							"internalType": "address",
							"name": "operator",
							"type": "address"
						},
						{
							"internalType": "bool",
							"name": "approved",
							"type": "bool"
						}
					],
					"name": "setApprovalForAll",
					"outputs": [],
					"stateMutability": "nonpayable",
					"type": "function"
				},
				{
					"inputs": [
						{
							"internalType": "address",
							"name": "_ERC721Address",
							"type": "address"
						}
					],
					"name": "setERC721Address",
					"outputs": [],
					"stateMutability": "nonpayable",
					"type": "function"
				},
				{
					"inputs": [],
					"name": "symbol",
					"outputs": [
						{
							"internalType": "string",
							"name": "",
							"type": "string"
						}
					],
					"stateMutability": "view",
					"type": "function"
				},
				{
					"inputs": [
						{
							"internalType": "uint256",
							"name": "tokenId",
							"type": "uint256"
						}
					],
					"name": "tokenURI",
					"outputs": [
						{
							"internalType": "string",
							"name": "",
							"type": "string"
						}
					],
					"stateMutability": "nonpayable",
					"type": "function"
				},
				{
					"inputs": [
						{
							"internalType": "address",
							"name": "from",
							"type": "address"
						},
						{
							"internalType": "address",
							"name": "to",
							"type": "address"
						},
						{
							"internalType": "uint256",
							"name": "tokenId",
							"type": "uint256"
						}
					],
					"name": "transferFrom",
					"outputs": [],
					"stateMutability": "nonpayable",
					"type": "function"
				}
			],
			"devdoc": {
				"details": "This abstract contract provides a fallback function that delegates all calls to another contract using the EVM instruction `delegatecall`. We refer to the second contract as the _implementation_ behind the proxy, and it has to be specified by overriding the  {_implementation} function. Additionally, delegation to the implementation can be triggered manually through the {_fallback} function, or to a different contract through the {_delegate} function. The success and return data of the delegated call will be returned back to the caller of the proxy.",
				"kind": "dev",
				"methods": {
					"approve(address,uint256)": {
						"details": "See {IERC721-approve}."
					},
					"balanceOf(address)": {
						"details": "See {IERC721-balanceOf}."
					},
					"constructor": {
						"details": "Initializes the contract by setting a `name` and a `symbol` to the token collection."
					},
					"getApproved(uint256)": {
						"details": "See {IERC721-getApproved}."
					},
					"isApprovedForAll(address,address)": {
						"details": "See {IERC721-isApprovedForAll}."
					},
					"name()": {
						"details": "See {IERC721Metadata-name}."
					},
					"ownerOf(uint256)": {
						"details": "See {IERC721-ownerOf}."
					},
					"safeTransferFrom(address,address,uint256)": {
						"details": "See {IERC721-safeTransferFrom}."
					},
					"safeTransferFrom(address,address,uint256,bytes)": {
						"details": "See {IERC721-safeTransferFrom}."
					},
					"setApprovalForAll(address,bool)": {
						"details": "See {IERC721-setApprovalForAll}."
					},
					"setERC721Address(address)": {
						"details": "You must use this function first, when you after deploy."
					},
					"symbol()": {
						"details": "See {IERC721Metadata-symbol}."
					},
					"tokenURI(uint256)": {
						"details": "See {IERC721Metadata-tokenURI}."
					},
					"transferFrom(address,address,uint256)": {
						"details": "See {IERC721-transferFrom}."
					}
				},
				"version": 1
			},
			"evm": {
				"assembly": "    /* \"contracts/ERC721Proxy.sol\":938:8969  contract ProxyERC721 is Context {... */\n  mstore(0x40, 0x80)\n    /* \"contracts/ERC721Proxy.sol\":1696:2039  constructor(address _ERC721Address, string memory name_, string memory symbol_) {... */\n  callvalue\n  dup1\n  iszero\n  tag_1\n  jumpi\n  0x00\n  dup1\n  revert\ntag_1:\n  pop\n  mload(0x40)\n  sub(codesize, bytecodeSize)\n  dup1\n  bytecodeSize\n  dup4\n  codecopy\n  dup2\n  dup2\n  add\n  0x40\n  mstore\n  dup2\n  add\n  swap1\n  tag_2\n  swap2\n  swap1\n  tag_3\n  jump\t// in\ntag_2:\n    /* \"contracts/ERC721Proxy.sol\":1798:1812  _ERC721Address */\n  dup3\n    /* \"contracts/ERC721Proxy.sol\":1786:1795  _contract */\n  0x06\n  0x00\n    /* \"contracts/ERC721Proxy.sol\":1786:1812  _contract = _ERC721Address */\n  0x0100\n  exp\n  dup2\n  sload\n  dup2\n  0xffffffffffffffffffffffffffffffffffffffff\n  mul\n  not\n  and\n  swap1\n  dup4\n  0xffffffffffffffffffffffffffffffffffffffff\n  and\n  mul\n  or\n  swap1\n  sstore\n  pop\n    /* \"contracts/ERC721Proxy.sol\":1830:1835  name_ */\n  dup2\n    /* \"contracts/ERC721Proxy.sol\":1822:1827  _name */\n  0x00\n    /* \"contracts/ERC721Proxy.sol\":1822:1835  _name = name_ */\n  swap1\n  dup2\n  tag_6\n  swap2\n  swap1\n  tag_7\n  jump\t// in\ntag_6:\n  pop\n    /* \"contracts/ERC721Proxy.sol\":1855:1862  symbol_ */\n  dup1\n    /* \"contracts/ERC721Proxy.sol\":1845:1852  _symbol */\n  0x01\n    /* \"contracts/ERC721Proxy.sol\":1845:1862  _symbol = symbol_ */\n  swap1\n  dup2\n  tag_8\n  swap2\n  swap1\n  tag_7\n  jump\t// in\ntag_8:\n  pop\n    /* \"contracts/ERC721Proxy.sol\":1873:1885  bool success */\n  0x00\n    /* \"contracts/ERC721Proxy.sol\":1887:1910  bytes memory dataReturn */\n  dup1\n    /* \"contracts/ERC721Proxy.sol\":1914:1923  _contract */\n  0x06\n  0x00\n  swap1\n  sload\n  swap1\n  0x0100\n  exp\n  swap1\n  div\n  0xffffffffffffffffffffffffffffffffffffffff\n  and\n    /* \"contracts/ERC721Proxy.sol\":1914:1936  _contract.delegatecall */\n  0xffffffffffffffffffffffffffffffffffffffff\n  and\n    /* \"contracts/ERC721Proxy.sol\":2007:2012  name_ */\n  dup5\n    /* \"contracts/ERC721Proxy.sol\":2014:2021  symbol_ */\n  dup5\n    /* \"contracts/ERC721Proxy.sol\":1950:2022  abi.encodeWithSignature(\"__ERC721_init(string, string)\", name_, symbol_) */\n  add(0x24, mload(0x40))\n  tag_9\n  swap3\n  swap2\n  swap1\n  tag_10\n  jump\t// in\ntag_9:\n  mload(0x40)\n  0x20\n  dup2\n  dup4\n  sub\n  sub\n  dup2\n  mstore\n  swap1\n  0x40\n  mstore\n  and(not(0xffffffffffffffffffffffffffffffffffffffffffffffffffffffff), 0xf1bd332d00000000000000000000000000000000000000000000000000000000)\n  0x20\n  dup3\n  add\n  dup1\n  mload\n  0xffffffffffffffffffffffffffffffffffffffffffffffffffffffff\n  dup4\n  dup2\n  dup4\n  and\n  or\n  dup4\n  mstore\n  pop\n  pop\n  pop\n  pop\n    /* \"contracts/ERC721Proxy.sol\":1914:2032  _contract.delegatecall(... */\n  mload(0x40)\n  tag_11\n  swap2\n  swap1\n  tag_12\n  jump\t// in\ntag_11:\n  0x00\n  mload(0x40)\n  dup1\n  dup4\n  sub\n  dup2\n  dup6\n  gas\n  delegatecall\n  swap2\n  pop\n  pop\n  returndatasize\n  dup1\n  0x00\n  dup2\n  eq\n  tag_15\n  jumpi\n  mload(0x40)\n  swap2\n  pop\n  and(add(returndatasize, 0x3f), not(0x1f))\n  dup3\n  add\n  0x40\n  mstore\n  returndatasize\n  dup3\n  mstore\n  returndatasize\n  0x00\n  0x20\n  dup5\n  add\n  returndatacopy\n  jump(tag_14)\ntag_15:\n  0x60\n  swap2\n  pop\ntag_14:\n  pop\n    /* \"contracts/ERC721Proxy.sol\":1872:2032  (bool success, bytes memory dataReturn) = _contract.delegatecall(... */\n  swap2\n  pop\n  swap2\n  pop\n    /* \"contracts/ERC721Proxy.sol\":1776:2039  {... */\n  pop\n  pop\n    /* \"contracts/ERC721Proxy.sol\":1696:2039  constructor(address _ERC721Address, string memory name_, string memory symbol_) {... */\n  pop\n  pop\n  pop\n    /* \"contracts/ERC721Proxy.sol\":938:8969  contract ProxyERC721 is Context {... */\n  jump(tag_16)\n    /* \"#utility.yul\":7:82   */\ntag_17:\n    /* \"#utility.yul\":40:46   */\n  0x00\n    /* \"#utility.yul\":73:75   */\n  0x40\n    /* \"#utility.yul\":67:76   */\n  mload\n    /* \"#utility.yul\":57:76   */\n  swap1\n  pop\n    /* \"#utility.yul\":7:82   */\n  swap1\n  jump\t// out\n    /* \"#utility.yul\":88:205   */\ntag_18:\n    /* \"#utility.yul\":197:198   */\n  0x00\n    /* \"#utility.yul\":194:195   */\n  dup1\n    /* \"#utility.yul\":187:199   */\n  revert\n    /* \"#utility.yul\":211:328   */\ntag_19:\n    /* \"#utility.yul\":320:321   */\n  0x00\n    /* \"#utility.yul\":317:318   */\n  dup1\n    /* \"#utility.yul\":310:322   */\n  revert\n    /* \"#utility.yul\":334:460   */\ntag_20:\n    /* \"#utility.yul\":371:378   */\n  0x00\n    /* \"#utility.yul\":411:453   */\n  0xffffffffffffffffffffffffffffffffffffffff\n    /* \"#utility.yul\":404:409   */\n  dup3\n    /* \"#utility.yul\":400:454   */\n  and\n    /* \"#utility.yul\":389:454   */\n  swap1\n  pop\n    /* \"#utility.yul\":334:460   */\n  swap2\n  swap1\n  pop\n  jump\t// out\n    /* \"#utility.yul\":466:562   */\ntag_21:\n    /* \"#utility.yul\":503:510   */\n  0x00\n    /* \"#utility.yul\":532:556   */\n  tag_64\n    /* \"#utility.yul\":550:555   */\n  dup3\n    /* \"#utility.yul\":532:556   */\n  tag_20\n  jump\t// in\ntag_64:\n    /* \"#utility.yul\":521:556   */\n  swap1\n  pop\n    /* \"#utility.yul\":466:562   */\n  swap2\n  swap1\n  pop\n  jump\t// out\n    /* \"#utility.yul\":568:690   */\ntag_22:\n    /* \"#utility.yul\":641:665   */\n  tag_66\n    /* \"#utility.yul\":659:664   */\n  dup2\n    /* \"#utility.yul\":641:665   */\n  tag_21\n  jump\t// in\ntag_66:\n    /* \"#utility.yul\":634:639   */\n  dup2\n    /* \"#utility.yul\":631:666   */\n  eq\n    /* \"#utility.yul\":621:684   */\n  tag_67\n  jumpi\n    /* \"#utility.yul\":680:681   */\n  0x00\n    /* \"#utility.yul\":677:678   */\n  dup1\n    /* \"#utility.yul\":670:682   */\n  revert\n    /* \"#utility.yul\":621:684   */\ntag_67:\n    /* \"#utility.yul\":568:690   */\n  pop\n  jump\t// out\n    /* \"#utility.yul\":696:839   */\ntag_23:\n    /* \"#utility.yul\":753:758   */\n  0x00\n    /* \"#utility.yul\":784:790   */\n  dup2\n    /* \"#utility.yul\":778:791   */\n  mload\n    /* \"#utility.yul\":769:791   */\n  swap1\n  pop\n    /* \"#utility.yul\":800:833   */\n  tag_69\n    /* \"#utility.yul\":827:832   */\n  dup2\n    /* \"#utility.yul\":800:833   */\n  tag_22\n  jump\t// in\ntag_69:\n    /* \"#utility.yul\":696:839   */\n  swap3\n  swap2\n  pop\n  pop\n  jump\t// out\n    /* \"#utility.yul\":845:962   */\ntag_24:\n    /* \"#utility.yul\":954:955   */\n  0x00\n    /* \"#utility.yul\":951:952   */\n  dup1\n    /* \"#utility.yul\":944:956   */\n  revert\n    /* \"#utility.yul\":968:1085   */\ntag_25:\n    /* \"#utility.yul\":1077:1078   */\n  0x00\n    /* \"#utility.yul\":1074:1075   */\n  dup1\n    /* \"#utility.yul\":1067:1079   */\n  revert\n    /* \"#utility.yul\":1091:1193   */\ntag_26:\n    /* \"#utility.yul\":1132:1138   */\n  0x00\n    /* \"#utility.yul\":1183:1185   */\n  0x1f\n    /* \"#utility.yul\":1179:1186   */\n  not\n    /* \"#utility.yul\":1174:1176   */\n  0x1f\n    /* \"#utility.yul\":1167:1172   */\n  dup4\n    /* \"#utility.yul\":1163:1177   */\n  add\n    /* \"#utility.yul\":1159:1187   */\n  and\n    /* \"#utility.yul\":1149:1187   */\n  swap1\n  pop\n    /* \"#utility.yul\":1091:1193   */\n  swap2\n  swap1\n  pop\n  jump\t// out\n    /* \"#utility.yul\":1199:1379   */\ntag_27:\n    /* \"#utility.yul\":1247:1324   */\n  0x4e487b7100000000000000000000000000000000000000000000000000000000\n    /* \"#utility.yul\":1244:1245   */\n  0x00\n    /* \"#utility.yul\":1237:1325   */\n  mstore\n    /* \"#utility.yul\":1344:1348   */\n  0x41\n    /* \"#utility.yul\":1341:1342   */\n  0x04\n    /* \"#utility.yul\":1334:1349   */\n  mstore\n    /* \"#utility.yul\":1368:1372   */\n  0x24\n    /* \"#utility.yul\":1365:1366   */\n  0x00\n    /* \"#utility.yul\":1358:1373   */\n  revert\n    /* \"#utility.yul\":1385:1666   */\ntag_28:\n    /* \"#utility.yul\":1468:1495   */\n  tag_75\n    /* \"#utility.yul\":1490:1494   */\n  dup3\n    /* \"#utility.yul\":1468:1495   */\n  tag_26\n  jump\t// in\ntag_75:\n    /* \"#utility.yul\":1460:1466   */\n  dup2\n    /* \"#utility.yul\":1456:1496   */\n  add\n    /* \"#utility.yul\":1598:1604   */\n  dup2\n    /* \"#utility.yul\":1586:1596   */\n  dup2\n    /* \"#utility.yul\":1583:1605   */\n  lt\n    /* \"#utility.yul\":1562:1580   */\n  0xffffffffffffffff\n    /* \"#utility.yul\":1550:1560   */\n  dup3\n    /* \"#utility.yul\":1547:1581   */\n  gt\n    /* \"#utility.yul\":1544:1606   */\n  or\n    /* \"#utility.yul\":1541:1629   */\n  iszero\n  tag_76\n  jumpi\n    /* \"#utility.yul\":1609:1627   */\n  tag_77\n  tag_27\n  jump\t// in\ntag_77:\n    /* \"#utility.yul\":1541:1629   */\ntag_76:\n    /* \"#utility.yul\":1649:1659   */\n  dup1\n    /* \"#utility.yul\":1645:1647   */\n  0x40\n    /* \"#utility.yul\":1638:1660   */\n  mstore\n    /* \"#utility.yul\":1428:1666   */\n  pop\n    /* \"#utility.yul\":1385:1666   */\n  pop\n  pop\n  jump\t// out\n    /* \"#utility.yul\":1672:1801   */\ntag_29:\n    /* \"#utility.yul\":1706:1712   */\n  0x00\n    /* \"#utility.yul\":1733:1753   */\n  tag_79\n  tag_17\n  jump\t// in\ntag_79:\n    /* \"#utility.yul\":1723:1753   */\n  swap1\n  pop\n    /* \"#utility.yul\":1762:1795   */\n  tag_80\n    /* \"#utility.yul\":1790:1794   */\n  dup3\n    /* \"#utility.yul\":1782:1788   */\n  dup3\n    /* \"#utility.yul\":1762:1795   */\n  tag_28\n  jump\t// in\ntag_80:\n    /* \"#utility.yul\":1672:1801   */\n  swap2\n  swap1\n  pop\n  jump\t// out\n    /* \"#utility.yul\":1807:2115   */\ntag_30:\n    /* \"#utility.yul\":1869:1873   */\n  0x00\n    /* \"#utility.yul\":1959:1977   */\n  0xffffffffffffffff\n    /* \"#utility.yul\":1951:1957   */\n  dup3\n    /* \"#utility.yul\":1948:1978   */\n  gt\n    /* \"#utility.yul\":1945:2001   */\n  iszero\n  tag_82\n  jumpi\n    /* \"#utility.yul\":1981:1999   */\n  tag_83\n  tag_27\n  jump\t// in\ntag_83:\n    /* \"#utility.yul\":1945:2001   */\ntag_82:\n    /* \"#utility.yul\":2019:2048   */\n  tag_84\n    /* \"#utility.yul\":2041:2047   */\n  dup3\n    /* \"#utility.yul\":2019:2048   */\n  tag_26\n  jump\t// in\ntag_84:\n    /* \"#utility.yul\":2011:2048   */\n  swap1\n  pop\n    /* \"#utility.yul\":2103:2107   */\n  0x20\n    /* \"#utility.yul\":2097:2101   */\n  dup2\n    /* \"#utility.yul\":2093:2108   */\n  add\n    /* \"#utility.yul\":2085:2108   */\n  swap1\n  pop\n    /* \"#utility.yul\":1807:2115   */\n  swap2\n  swap1\n  pop\n  jump\t// out\n    /* \"#utility.yul\":2121:2367   */\ntag_31:\n    /* \"#utility.yul\":2202:2203   */\n  0x00\n    /* \"#utility.yul\":2212:2325   */\ntag_86:\n    /* \"#utility.yul\":2226:2232   */\n  dup4\n    /* \"#utility.yul\":2223:2224   */\n  dup2\n    /* \"#utility.yul\":2220:2233   */\n  lt\n    /* \"#utility.yul\":2212:2325   */\n  iszero\n  tag_88\n  jumpi\n    /* \"#utility.yul\":2311:2312   */\n  dup1\n    /* \"#utility.yul\":2306:2309   */\n  dup3\n    /* \"#utility.yul\":2302:2313   */\n  add\n    /* \"#utility.yul\":2296:2314   */\n  mload\n    /* \"#utility.yul\":2292:2293   */\n  dup2\n    /* \"#utility.yul\":2287:2290   */\n  dup5\n    /* \"#utility.yul\":2283:2294   */\n  add\n    /* \"#utility.yul\":2276:2315   */\n  mstore\n    /* \"#utility.yul\":2248:2250   */\n  0x20\n    /* \"#utility.yul\":2245:2246   */\n  dup2\n    /* \"#utility.yul\":2241:2251   */\n  add\n    /* \"#utility.yul\":2236:2251   */\n  swap1\n  pop\n    /* \"#utility.yul\":2212:2325   */\n  jump(tag_86)\ntag_88:\n    /* \"#utility.yul\":2359:2360   */\n  0x00\n    /* \"#utility.yul\":2350:2356   */\n  dup5\n    /* \"#utility.yul\":2345:2348   */\n  dup5\n    /* \"#utility.yul\":2341:2357   */\n  add\n    /* \"#utility.yul\":2334:2361   */\n  mstore\n    /* \"#utility.yul\":2183:2367   */\n  pop\n    /* \"#utility.yul\":2121:2367   */\n  pop\n  pop\n  pop\n  jump\t// out\n    /* \"#utility.yul\":2373:2807   */\ntag_32:\n    /* \"#utility.yul\":2462:2467   */\n  0x00\n    /* \"#utility.yul\":2487:2553   */\n  tag_90\n    /* \"#utility.yul\":2503:2552   */\n  tag_91\n    /* \"#utility.yul\":2545:2551   */\n  dup5\n    /* \"#utility.yul\":2503:2552   */\n  tag_30\n  jump\t// in\ntag_91:\n    /* \"#utility.yul\":2487:2553   */\n  tag_29\n  jump\t// in\ntag_90:\n    /* \"#utility.yul\":2478:2553   */\n  swap1\n  pop\n    /* \"#utility.yul\":2576:2582   */\n  dup3\n    /* \"#utility.yul\":2569:2574   */\n  dup2\n    /* \"#utility.yul\":2562:2583   */\n  mstore\n    /* \"#utility.yul\":2614:2618   */\n  0x20\n    /* \"#utility.yul\":2607:2612   */\n  dup2\n    /* \"#utility.yul\":2603:2619   */\n  add\n    /* \"#utility.yul\":2652:2655   */\n  dup5\n    /* \"#utility.yul\":2643:2649   */\n  dup5\n    /* \"#utility.yul\":2638:2641   */\n  dup5\n    /* \"#utility.yul\":2634:2650   */\n  add\n    /* \"#utility.yul\":2631:2656   */\n  gt\n    /* \"#utility.yul\":2628:2740   */\n  iszero\n  tag_92\n  jumpi\n    /* \"#utility.yul\":2659:2738   */\n  tag_93\n  tag_25\n  jump\t// in\ntag_93:\n    /* \"#utility.yul\":2628:2740   */\ntag_92:\n    /* \"#utility.yul\":2749:2801   */\n  tag_94\n    /* \"#utility.yul\":2794:2800   */\n  dup5\n    /* \"#utility.yul\":2789:2792   */\n  dup3\n    /* \"#utility.yul\":2784:2787   */\n  dup6\n    /* \"#utility.yul\":2749:2801   */\n  tag_31\n  jump\t// in\ntag_94:\n    /* \"#utility.yul\":2468:2807   */\n  pop\n    /* \"#utility.yul\":2373:2807   */\n  swap4\n  swap3\n  pop\n  pop\n  pop\n  jump\t// out\n    /* \"#utility.yul\":2827:3182   */\ntag_33:\n    /* \"#utility.yul\":2894:2899   */\n  0x00\n    /* \"#utility.yul\":2943:2946   */\n  dup3\n    /* \"#utility.yul\":2936:2940   */\n  0x1f\n    /* \"#utility.yul\":2928:2934   */\n  dup4\n    /* \"#utility.yul\":2924:2941   */\n  add\n    /* \"#utility.yul\":2920:2947   */\n  slt\n    /* \"#utility.yul\":2910:3032   */\n  tag_96\n  jumpi\n    /* \"#utility.yul\":2951:3030   */\n  tag_97\n  tag_24\n  jump\t// in\ntag_97:\n    /* \"#utility.yul\":2910:3032   */\ntag_96:\n    /* \"#utility.yul\":3061:3067   */\n  dup2\n    /* \"#utility.yul\":3055:3068   */\n  mload\n    /* \"#utility.yul\":3086:3176   */\n  tag_98\n    /* \"#utility.yul\":3172:3175   */\n  dup5\n    /* \"#utility.yul\":3164:3170   */\n  dup3\n    /* \"#utility.yul\":3157:3161   */\n  0x20\n    /* \"#utility.yul\":3149:3155   */\n  dup7\n    /* \"#utility.yul\":3145:3162   */\n  add\n    /* \"#utility.yul\":3086:3176   */\n  tag_32\n  jump\t// in\ntag_98:\n    /* \"#utility.yul\":3077:3176   */\n  swap2\n  pop\n    /* \"#utility.yul\":2900:3182   */\n  pop\n    /* \"#utility.yul\":2827:3182   */\n  swap3\n  swap2\n  pop\n  pop\n  jump\t// out\n    /* \"#utility.yul\":3188:4197   */\ntag_3:\n    /* \"#utility.yul\":3296:3302   */\n  0x00\n    /* \"#utility.yul\":3304:3310   */\n  dup1\n    /* \"#utility.yul\":3312:3318   */\n  0x00\n    /* \"#utility.yul\":3361:3363   */\n  0x60\n    /* \"#utility.yul\":3349:3358   */\n  dup5\n    /* \"#utility.yul\":3340:3347   */\n  dup7\n    /* \"#utility.yul\":3336:3359   */\n  sub\n    /* \"#utility.yul\":3332:3364   */\n  slt\n    /* \"#utility.yul\":3329:3448   */\n  iszero\n  tag_100\n  jumpi\n    /* \"#utility.yul\":3367:3446   */\n  tag_101\n  tag_18\n  jump\t// in\ntag_101:\n    /* \"#utility.yul\":3329:3448   */\ntag_100:\n    /* \"#utility.yul\":3487:3488   */\n  0x00\n    /* \"#utility.yul\":3512:3576   */\n  tag_102\n    /* \"#utility.yul\":3568:3575   */\n  dup7\n    /* \"#utility.yul\":3559:3565   */\n  dup3\n    /* \"#utility.yul\":3548:3557   */\n  dup8\n    /* \"#utility.yul\":3544:3566   */\n  add\n    /* \"#utility.yul\":3512:3576   */\n  tag_23\n  jump\t// in\ntag_102:\n    /* \"#utility.yul\":3502:3576   */\n  swap4\n  pop\n    /* \"#utility.yul\":3458:3586   */\n  pop\n    /* \"#utility.yul\":3646:3648   */\n  0x20\n    /* \"#utility.yul\":3635:3644   */\n  dup5\n    /* \"#utility.yul\":3631:3649   */\n  add\n    /* \"#utility.yul\":3625:3650   */\n  mload\n    /* \"#utility.yul\":3677:3695   */\n  0xffffffffffffffff\n    /* \"#utility.yul\":3669:3675   */\n  dup2\n    /* \"#utility.yul\":3666:3696   */\n  gt\n    /* \"#utility.yul\":3663:3780   */\n  iszero\n  tag_103\n  jumpi\n    /* \"#utility.yul\":3699:3778   */\n  tag_104\n  tag_19\n  jump\t// in\ntag_104:\n    /* \"#utility.yul\":3663:3780   */\ntag_103:\n    /* \"#utility.yul\":3804:3878   */\n  tag_105\n    /* \"#utility.yul\":3870:3877   */\n  dup7\n    /* \"#utility.yul\":3861:3867   */\n  dup3\n    /* \"#utility.yul\":3850:3859   */\n  dup8\n    /* \"#utility.yul\":3846:3868   */\n  add\n    /* \"#utility.yul\":3804:3878   */\n  tag_33\n  jump\t// in\ntag_105:\n    /* \"#utility.yul\":3794:3878   */\n  swap3\n  pop\n    /* \"#utility.yul\":3596:3888   */\n  pop\n    /* \"#utility.yul\":3948:3950   */\n  0x40\n    /* \"#utility.yul\":3937:3946   */\n  dup5\n    /* \"#utility.yul\":3933:3951   */\n  add\n    /* \"#utility.yul\":3927:3952   */\n  mload\n    /* \"#utility.yul\":3979:3997   */\n  0xffffffffffffffff\n    /* \"#utility.yul\":3971:3977   */\n  dup2\n    /* \"#utility.yul\":3968:3998   */\n  gt\n    /* \"#utility.yul\":3965:4082   */\n  iszero\n  tag_106\n  jumpi\n    /* \"#utility.yul\":4001:4080   */\n  tag_107\n  tag_19\n  jump\t// in\ntag_107:\n    /* \"#utility.yul\":3965:4082   */\ntag_106:\n    /* \"#utility.yul\":4106:4180   */\n  tag_108\n    /* \"#utility.yul\":4172:4179   */\n  dup7\n    /* \"#utility.yul\":4163:4169   */\n  dup3\n    /* \"#utility.yul\":4152:4161   */\n  dup8\n    /* \"#utility.yul\":4148:4170   */\n  add\n    /* \"#utility.yul\":4106:4180   */\n  tag_33\n  jump\t// in\ntag_108:\n    /* \"#utility.yul\":4096:4180   */\n  swap2\n  pop\n    /* \"#utility.yul\":3898:4190   */\n  pop\n    /* \"#utility.yul\":3188:4197   */\n  swap3\n  pop\n  swap3\n  pop\n  swap3\n  jump\t// out\n    /* \"#utility.yul\":4203:4302   */\ntag_34:\n    /* \"#utility.yul\":4255:4261   */\n  0x00\n    /* \"#utility.yul\":4289:4294   */\n  dup2\n    /* \"#utility.yul\":4283:4295   */\n  mload\n    /* \"#utility.yul\":4273:4295   */\n  swap1\n  pop\n    /* \"#utility.yul\":4203:4302   */\n  swap2\n  swap1\n  pop\n  jump\t// out\n    /* \"#utility.yul\":4308:4488   */\ntag_35:\n    /* \"#utility.yul\":4356:4433   */\n  0x4e487b7100000000000000000000000000000000000000000000000000000000\n    /* \"#utility.yul\":4353:4354   */\n  0x00\n    /* \"#utility.yul\":4346:4434   */\n  mstore\n    /* \"#utility.yul\":4453:4457   */\n  0x22\n    /* \"#utility.yul\":4450:4451   */\n  0x04\n    /* \"#utility.yul\":4443:4458   */\n  mstore\n    /* \"#utility.yul\":4477:4481   */\n  0x24\n    /* \"#utility.yul\":4474:4475   */\n  0x00\n    /* \"#utility.yul\":4467:4482   */\n  revert\n    /* \"#utility.yul\":4494:4814   */\ntag_36:\n    /* \"#utility.yul\":4538:4544   */\n  0x00\n    /* \"#utility.yul\":4575:4576   */\n  0x02\n    /* \"#utility.yul\":4569:4573   */\n  dup3\n    /* \"#utility.yul\":4565:4577   */\n  div\n    /* \"#utility.yul\":4555:4577   */\n  swap1\n  pop\n    /* \"#utility.yul\":4622:4623   */\n  0x01\n    /* \"#utility.yul\":4616:4620   */\n  dup3\n    /* \"#utility.yul\":4612:4624   */\n  and\n    /* \"#utility.yul\":4643:4661   */\n  dup1\n    /* \"#utility.yul\":4633:4714   */\n  tag_112\n  jumpi\n    /* \"#utility.yul\":4699:4703   */\n  0x7f\n    /* \"#utility.yul\":4691:4697   */\n  dup3\n    /* \"#utility.yul\":4687:4704   */\n  and\n    /* \"#utility.yul\":4677:4704   */\n  swap2\n  pop\n    /* \"#utility.yul\":4633:4714   */\ntag_112:\n    /* \"#utility.yul\":4761:4763   */\n  0x20\n    /* \"#utility.yul\":4753:4759   */\n  dup3\n    /* \"#utility.yul\":4750:4764   */\n  lt\n    /* \"#utility.yul\":4730:4748   */\n  dup2\n    /* \"#utility.yul\":4727:4765   */\n  sub\n    /* \"#utility.yul\":4724:4808   */\n  tag_113\n  jumpi\n    /* \"#utility.yul\":4780:4798   */\n  tag_114\n  tag_35\n  jump\t// in\ntag_114:\n    /* \"#utility.yul\":4724:4808   */\ntag_113:\n    /* \"#utility.yul\":4545:4814   */\n  pop\n    /* \"#utility.yul\":4494:4814   */\n  swap2\n  swap1\n  pop\n  jump\t// out\n    /* \"#utility.yul\":4820:4961   */\ntag_37:\n    /* \"#utility.yul\":4869:4873   */\n  0x00\n    /* \"#utility.yul\":4892:4895   */\n  dup2\n    /* \"#utility.yul\":4884:4895   */\n  swap1\n  pop\n    /* \"#utility.yul\":4915:4918   */\n  dup2\n    /* \"#utility.yul\":4912:4913   */\n  0x00\n    /* \"#utility.yul\":4905:4919   */\n  mstore\n    /* \"#utility.yul\":4949:4953   */\n  0x20\n    /* \"#utility.yul\":4946:4947   */\n  0x00\n    /* \"#utility.yul\":4936:4954   */\n  keccak256\n    /* \"#utility.yul\":4928:4954   */\n  swap1\n  pop\n    /* \"#utility.yul\":4820:4961   */\n  swap2\n  swap1\n  pop\n  jump\t// out\n    /* \"#utility.yul\":4967:5060   */\ntag_38:\n    /* \"#utility.yul\":5004:5010   */\n  0x00\n    /* \"#utility.yul\":5051:5053   */\n  0x20\n    /* \"#utility.yul\":5046:5048   */\n  0x1f\n    /* \"#utility.yul\":5039:5044   */\n  dup4\n    /* \"#utility.yul\":5035:5049   */\n  add\n    /* \"#utility.yul\":5031:5054   */\n  div\n    /* \"#utility.yul\":5021:5054   */\n  swap1\n  pop\n    /* \"#utility.yul\":4967:5060   */\n  swap2\n  swap1\n  pop\n  jump\t// out\n    /* \"#utility.yul\":5066:5173   */\ntag_39:\n    /* \"#utility.yul\":5110:5118   */\n  0x00\n    /* \"#utility.yul\":5160:5165   */\n  dup3\n    /* \"#utility.yul\":5154:5158   */\n  dup3\n    /* \"#utility.yul\":5150:5166   */\n  shl\n    /* \"#utility.yul\":5129:5166   */\n  swap1\n  pop\n    /* \"#utility.yul\":5066:5173   */\n  swap3\n  swap2\n  pop\n  pop\n  jump\t// out\n    /* \"#utility.yul\":5179:5572   */\ntag_40:\n    /* \"#utility.yul\":5248:5254   */\n  0x00\n    /* \"#utility.yul\":5298:5299   */\n  0x08\n    /* \"#utility.yul\":5286:5296   */\n  dup4\n    /* \"#utility.yul\":5282:5300   */\n  mul\n    /* \"#utility.yul\":5321:5418   */\n  tag_119\n    /* \"#utility.yul\":5351:5417   */\n  0xffffffffffffffffffffffffffffffffffffffffffffffffffffffffffffffff\n    /* \"#utility.yul\":5340:5349   */\n  dup3\n    /* \"#utility.yul\":5321:5418   */\n  tag_39\n  jump\t// in\ntag_119:\n    /* \"#utility.yul\":5439:5478   */\n  tag_120\n    /* \"#utility.yul\":5469:5477   */\n  dup7\n    /* \"#utility.yul\":5458:5467   */\n  dup4\n    /* \"#utility.yul\":5439:5478   */\n  tag_39\n  jump\t// in\ntag_120:\n    /* \"#utility.yul\":5427:5478   */\n  swap6\n  pop\n    /* \"#utility.yul\":5511:5515   */\n  dup1\n    /* \"#utility.yul\":5507:5516   */\n  not\n    /* \"#utility.yul\":5500:5505   */\n  dup5\n    /* \"#utility.yul\":5496:5517   */\n  and\n    /* \"#utility.yul\":5487:5517   */\n  swap4\n  pop\n    /* \"#utility.yul\":5560:5564   */\n  dup1\n    /* \"#utility.yul\":5550:5558   */\n  dup7\n    /* \"#utility.yul\":5546:5565   */\n  and\n    /* \"#utility.yul\":5539:5544   */\n  dup5\n    /* \"#utility.yul\":5536:5566   */\n  or\n    /* \"#utility.yul\":5526:5566   */\n  swap3\n  pop\n    /* \"#utility.yul\":5255:5572   */\n  pop\n  pop\n    /* \"#utility.yul\":5179:5572   */\n  swap4\n  swap3\n  pop\n  pop\n  pop\n  jump\t// out\n    /* \"#utility.yul\":5578:5655   */\ntag_41:\n    /* \"#utility.yul\":5615:5622   */\n  0x00\n    /* \"#utility.yul\":5644:5649   */\n  dup2\n    /* \"#utility.yul\":5633:5649   */\n  swap1\n  pop\n    /* \"#utility.yul\":5578:5655   */\n  swap2\n  swap1\n  pop\n  jump\t// out\n    /* \"#utility.yul\":5661:5721   */\ntag_42:\n    /* \"#utility.yul\":5689:5692   */\n  0x00\n    /* \"#utility.yul\":5710:5715   */\n  dup2\n    /* \"#utility.yul\":5703:5715   */\n  swap1\n  pop\n    /* \"#utility.yul\":5661:5721   */\n  swap2\n  swap1\n  pop\n  jump\t// out\n    /* \"#utility.yul\":5727:5869   */\ntag_43:\n    /* \"#utility.yul\":5777:5786   */\n  0x00\n    /* \"#utility.yul\":5810:5863   */\n  tag_124\n    /* \"#utility.yul\":5828:5862   */\n  tag_125\n    /* \"#utility.yul\":5837:5861   */\n  tag_126\n    /* \"#utility.yul\":5855:5860   */\n  dup5\n    /* \"#utility.yul\":5837:5861   */\n  tag_41\n  jump\t// in\ntag_126:\n    /* \"#utility.yul\":5828:5862   */\n  tag_42\n  jump\t// in\ntag_125:\n    /* \"#utility.yul\":5810:5863   */\n  tag_41\n  jump\t// in\ntag_124:\n    /* \"#utility.yul\":5797:5863   */\n  swap1\n  pop\n    /* \"#utility.yul\":5727:5869   */\n  swap2\n  swap1\n  pop\n  jump\t// out\n    /* \"#utility.yul\":5875:5950   */\ntag_44:\n    /* \"#utility.yul\":5918:5921   */\n  0x00\n    /* \"#utility.yul\":5939:5944   */\n  dup2\n    /* \"#utility.yul\":5932:5944   */\n  swap1\n  pop\n    /* \"#utility.yul\":5875:5950   */\n  swap2\n  swap1\n  pop\n  jump\t// out\n    /* \"#utility.yul\":5956:6225   */\ntag_45:\n    /* \"#utility.yul\":6066:6105   */\n  tag_129\n    /* \"#utility.yul\":6097:6104   */\n  dup4\n    /* \"#utility.yul\":6066:6105   */\n  tag_43\n  jump\t// in\ntag_129:\n    /* \"#utility.yul\":6127:6218   */\n  tag_130\n    /* \"#utility.yul\":6176:6217   */\n  tag_131\n    /* \"#utility.yul\":6200:6216   */\n  dup3\n    /* \"#utility.yul\":6176:6217   */\n  tag_44\n  jump\t// in\ntag_131:\n    /* \"#utility.yul\":6168:6174   */\n  dup5\n    /* \"#utility.yul\":6161:6165   */\n  dup5\n    /* \"#utility.yul\":6155:6166   */\n  sload\n    /* \"#utility.yul\":6127:6218   */\n  tag_40\n  jump\t// in\ntag_130:\n    /* \"#utility.yul\":6121:6125   */\n  dup3\n    /* \"#utility.yul\":6114:6219   */\n  sstore\n    /* \"#utility.yul\":6032:6225   */\n  pop\n    /* \"#utility.yul\":5956:6225   */\n  pop\n  pop\n  pop\n  jump\t// out\n    /* \"#utility.yul\":6231:6304   */\ntag_46:\n    /* \"#utility.yul\":6276:6279   */\n  0x00\n    /* \"#utility.yul\":6231:6304   */\n  swap1\n  jump\t// out\n    /* \"#utility.yul\":6310:6499   */\ntag_47:\n    /* \"#utility.yul\":6387:6419   */\n  tag_134\n  tag_46\n  jump\t// in\ntag_134:\n    /* \"#utility.yul\":6428:6493   */\n  tag_135\n    /* \"#utility.yul\":6486:6492   */\n  dup2\n    /* \"#utility.yul\":6478:6484   */\n  dup5\n    /* \"#utility.yul\":6472:6476   */\n  dup5\n    /* \"#utility.yul\":6428:6493   */\n  tag_45\n  jump\t// in\ntag_135:\n    /* \"#utility.yul\":6363:6499   */\n  pop\n    /* \"#utility.yul\":6310:6499   */\n  pop\n  pop\n  jump\t// out\n    /* \"#utility.yul\":6505:6691   */\ntag_48:\n    /* \"#utility.yul\":6565:6685   */\ntag_137:\n    /* \"#utility.yul\":6582:6585   */\n  dup2\n    /* \"#utility.yul\":6575:6580   */\n  dup2\n    /* \"#utility.yul\":6572:6586   */\n  lt\n    /* \"#utility.yul\":6565:6685   */\n  iszero\n  tag_139\n  jumpi\n    /* \"#utility.yul\":6636:6675   */\n  tag_140\n    /* \"#utility.yul\":6673:6674   */\n  0x00\n    /* \"#utility.yul\":6666:6671   */\n  dup3\n    /* \"#utility.yul\":6636:6675   */\n  tag_47\n  jump\t// in\ntag_140:\n    /* \"#utility.yul\":6609:6610   */\n  0x01\n    /* \"#utility.yul\":6602:6607   */\n  dup2\n    /* \"#utility.yul\":6598:6611   */\n  add\n    /* \"#utility.yul\":6589:6611   */\n  swap1\n  pop\n    /* \"#utility.yul\":6565:6685   */\n  jump(tag_137)\ntag_139:\n    /* \"#utility.yul\":6505:6691   */\n  pop\n  pop\n  jump\t// out\n    /* \"#utility.yul\":6697:7240   */\ntag_49:\n    /* \"#utility.yul\":6798:6800   */\n  0x1f\n    /* \"#utility.yul\":6793:6796   */\n  dup3\n    /* \"#utility.yul\":6790:6801   */\n  gt\n    /* \"#utility.yul\":6787:7233   */\n  iszero\n  tag_142\n  jumpi\n    /* \"#utility.yul\":6832:6870   */\n  tag_143\n    /* \"#utility.yul\":6864:6869   */\n  dup2\n    /* \"#utility.yul\":6832:6870   */\n  tag_37\n  jump\t// in\ntag_143:\n    /* \"#utility.yul\":6916:6945   */\n  tag_144\n    /* \"#utility.yul\":6934:6944   */\n  dup5\n    /* \"#utility.yul\":6916:6945   */\n  tag_38\n  jump\t// in\ntag_144:\n    /* \"#utility.yul\":6906:6914   */\n  dup2\n    /* \"#utility.yul\":6902:6946   */\n  add\n    /* \"#utility.yul\":7099:7101   */\n  0x20\n    /* \"#utility.yul\":7087:7097   */\n  dup6\n    /* \"#utility.yul\":7084:7102   */\n  lt\n    /* \"#utility.yul\":7081:7130   */\n  iszero\n  tag_145\n  jumpi\n    /* \"#utility.yul\":7120:7128   */\n  dup2\n    /* \"#utility.yul\":7105:7128   */\n  swap1\n  pop\n    /* \"#utility.yul\":7081:7130   */\ntag_145:\n    /* \"#utility.yul\":7143:7223   */\n  tag_146\n    /* \"#utility.yul\":7199:7221   */\n  tag_147\n    /* \"#utility.yul\":7217:7220   */\n  dup6\n    /* \"#utility.yul\":7199:7221   */\n  tag_38\n  jump\t// in\ntag_147:\n    /* \"#utility.yul\":7189:7197   */\n  dup4\n    /* \"#utility.yul\":7185:7222   */\n  add\n    /* \"#utility.yul\":7172:7183   */\n  dup3\n    /* \"#utility.yul\":7143:7223   */\n  tag_48\n  jump\t// in\ntag_146:\n    /* \"#utility.yul\":6802:7233   */\n  pop\n  pop\n    /* \"#utility.yul\":6787:7233   */\ntag_142:\n    /* \"#utility.yul\":6697:7240   */\n  pop\n  pop\n  pop\n  jump\t// out\n    /* \"#utility.yul\":7246:7363   */\ntag_50:\n    /* \"#utility.yul\":7300:7308   */\n  0x00\n    /* \"#utility.yul\":7350:7355   */\n  dup3\n    /* \"#utility.yul\":7344:7348   */\n  dup3\n    /* \"#utility.yul\":7340:7356   */\n  shr\n    /* \"#utility.yul\":7319:7356   */\n  swap1\n  pop\n    /* \"#utility.yul\":7246:7363   */\n  swap3\n  swap2\n  pop\n  pop\n  jump\t// out\n    /* \"#utility.yul\":7369:7538   */\ntag_51:\n    /* \"#utility.yul\":7413:7419   */\n  0x00\n    /* \"#utility.yul\":7446:7497   */\n  tag_150\n    /* \"#utility.yul\":7494:7495   */\n  0x00\n    /* \"#utility.yul\":7490:7496   */\n  not\n    /* \"#utility.yul\":7482:7487   */\n  dup5\n    /* \"#utility.yul\":7479:7480   */\n  0x08\n    /* \"#utility.yul\":7475:7488   */\n  mul\n    /* \"#utility.yul\":7446:7497   */\n  tag_50\n  jump\t// in\ntag_150:\n    /* \"#utility.yul\":7442:7498   */\n  not\n    /* \"#utility.yul\":7527:7531   */\n  dup1\n    /* \"#utility.yul\":7521:7525   */\n  dup4\n    /* \"#utility.yul\":7517:7532   */\n  and\n    /* \"#utility.yul\":7507:7532   */\n  swap2\n  pop\n    /* \"#utility.yul\":7420:7538   */\n  pop\n    /* \"#utility.yul\":7369:7538   */\n  swap3\n  swap2\n  pop\n  pop\n  jump\t// out\n    /* \"#utility.yul\":7543:7838   */\ntag_52:\n    /* \"#utility.yul\":7619:7623   */\n  0x00\n    /* \"#utility.yul\":7765:7794   */\n  tag_152\n    /* \"#utility.yul\":7790:7793   */\n  dup4\n    /* \"#utility.yul\":7784:7788   */\n  dup4\n    /* \"#utility.yul\":7765:7794   */\n  tag_51\n  jump\t// in\ntag_152:\n    /* \"#utility.yul\":7757:7794   */\n  swap2\n  pop\n    /* \"#utility.yul\":7827:7830   */\n  dup3\n    /* \"#utility.yul\":7824:7825   */\n  0x02\n    /* \"#utility.yul\":7820:7831   */\n  mul\n    /* \"#utility.yul\":7814:7818   */\n  dup3\n    /* \"#utility.yul\":7811:7832   */\n  or\n    /* \"#utility.yul\":7803:7832   */\n  swap1\n  pop\n    /* \"#utility.yul\":7543:7838   */\n  swap3\n  swap2\n  pop\n  pop\n  jump\t// out\n    /* \"#utility.yul\":7843:9238   */\ntag_7:\n    /* \"#utility.yul\":7960:7997   */\n  tag_154\n    /* \"#utility.yul\":7993:7996   */\n  dup3\n    /* \"#utility.yul\":7960:7997   */\n  tag_34\n  jump\t// in\ntag_154:\n    /* \"#utility.yul\":8062:8080   */\n  0xffffffffffffffff\n    /* \"#utility.yul\":8054:8060   */\n  dup2\n    /* \"#utility.yul\":8051:8081   */\n  gt\n    /* \"#utility.yul\":8048:8104   */\n  iszero\n  tag_155\n  jumpi\n    /* \"#utility.yul\":8084:8102   */\n  tag_156\n  tag_27\n  jump\t// in\ntag_156:\n    /* \"#utility.yul\":8048:8104   */\ntag_155:\n    /* \"#utility.yul\":8128:8166   */\n  tag_157\n    /* \"#utility.yul\":8160:8164   */\n  dup3\n    /* \"#utility.yul\":8154:8165   */\n  sload\n    /* \"#utility.yul\":8128:8166   */\n  tag_36\n  jump\t// in\ntag_157:\n    /* \"#utility.yul\":8213:8280   */\n  tag_158\n    /* \"#utility.yul\":8273:8279   */\n  dup3\n    /* \"#utility.yul\":8265:8271   */\n  dup3\n    /* \"#utility.yul\":8259:8263   */\n  dup6\n    /* \"#utility.yul\":8213:8280   */\n  tag_49\n  jump\t// in\ntag_158:\n    /* \"#utility.yul\":8307:8308   */\n  0x00\n    /* \"#utility.yul\":8331:8335   */\n  0x20\n    /* \"#utility.yul\":8318:8335   */\n  swap1\n  pop\n    /* \"#utility.yul\":8363:8365   */\n  0x1f\n    /* \"#utility.yul\":8355:8361   */\n  dup4\n    /* \"#utility.yul\":8352:8366   */\n  gt\n    /* \"#utility.yul\":8380:8381   */\n  0x01\n    /* \"#utility.yul\":8375:8993   */\n  dup2\n  eq\n  tag_160\n  jumpi\n    /* \"#utility.yul\":9037:9038   */\n  0x00\n    /* \"#utility.yul\":9054:9060   */\n  dup5\n    /* \"#utility.yul\":9051:9128   */\n  iszero\n  tag_161\n  jumpi\n    /* \"#utility.yul\":9103:9112   */\n  dup3\n    /* \"#utility.yul\":9098:9101   */\n  dup8\n    /* \"#utility.yul\":9094:9113   */\n  add\n    /* \"#utility.yul\":9088:9114   */\n  mload\n    /* \"#utility.yul\":9079:9114   */\n  swap1\n  pop\n    /* \"#utility.yul\":9051:9128   */\ntag_161:\n    /* \"#utility.yul\":9154:9221   */\n  tag_162\n    /* \"#utility.yul\":9214:9220   */\n  dup6\n    /* \"#utility.yul\":9207:9212   */\n  dup3\n    /* \"#utility.yul\":9154:9221   */\n  tag_52\n  jump\t// in\ntag_162:\n    /* \"#utility.yul\":9148:9152   */\n  dup7\n    /* \"#utility.yul\":9141:9222   */\n  sstore\n    /* \"#utility.yul\":9010:9232   */\n  pop\n    /* \"#utility.yul\":8345:9232   */\n  jump(tag_159)\n    /* \"#utility.yul\":8375:8993   */\ntag_160:\n    /* \"#utility.yul\":8427:8431   */\n  0x1f\n    /* \"#utility.yul\":8423:8432   */\n  not\n    /* \"#utility.yul\":8415:8421   */\n  dup5\n    /* \"#utility.yul\":8411:8433   */\n  and\n    /* \"#utility.yul\":8461:8498   */\n  tag_163\n    /* \"#utility.yul\":8493:8497   */\n  dup7\n    /* \"#utility.yul\":8461:8498   */\n  tag_37\n  jump\t// in\ntag_163:\n    /* \"#utility.yul\":8520:8521   */\n  0x00\n    /* \"#utility.yul\":8534:8742   */\ntag_164:\n    /* \"#utility.yul\":8548:8555   */\n  dup3\n    /* \"#utility.yul\":8545:8546   */\n  dup2\n    /* \"#utility.yul\":8542:8556   */\n  lt\n    /* \"#utility.yul\":8534:8742   */\n  iszero\n  tag_166\n  jumpi\n    /* \"#utility.yul\":8627:8636   */\n  dup5\n    /* \"#utility.yul\":8622:8625   */\n  dup10\n    /* \"#utility.yul\":8618:8637   */\n  add\n    /* \"#utility.yul\":8612:8638   */\n  mload\n    /* \"#utility.yul\":8604:8610   */\n  dup3\n    /* \"#utility.yul\":8597:8639   */\n  sstore\n    /* \"#utility.yul\":8678:8679   */\n  0x01\n    /* \"#utility.yul\":8670:8676   */\n  dup3\n    /* \"#utility.yul\":8666:8680   */\n  add\n    /* \"#utility.yul\":8656:8680   */\n  swap2\n  pop\n    /* \"#utility.yul\":8725:8727   */\n  0x20\n    /* \"#utility.yul\":8714:8723   */\n  dup6\n    /* \"#utility.yul\":8710:8728   */\n  add\n    /* \"#utility.yul\":8697:8728   */\n  swap5\n  pop\n    /* \"#utility.yul\":8571:8575   */\n  0x20\n    /* \"#utility.yul\":8568:8569   */\n  dup2\n    /* \"#utility.yul\":8564:8576   */\n  add\n    /* \"#utility.yul\":8559:8576   */\n  swap1\n  pop\n    /* \"#utility.yul\":8534:8742   */\n  jump(tag_164)\ntag_166:\n    /* \"#utility.yul\":8770:8776   */\n  dup7\n    /* \"#utility.yul\":8761:8768   */\n  dup4\n    /* \"#utility.yul\":8758:8777   */\n  lt\n    /* \"#utility.yul\":8755:8934   */\n  iszero\n  tag_167\n  jumpi\n    /* \"#utility.yul\":8828:8837   */\n  dup5\n    /* \"#utility.yul\":8823:8826   */\n  dup10\n    /* \"#utility.yul\":8819:8838   */\n  add\n    /* \"#utility.yul\":8813:8839   */\n  mload\n    /* \"#utility.yul\":8871:8919   */\n  tag_168\n    /* \"#utility.yul\":8913:8917   */\n  0x1f\n    /* \"#utility.yul\":8905:8911   */\n  dup10\n    /* \"#utility.yul\":8901:8918   */\n  and\n    /* \"#utility.yul\":8890:8899   */\n  dup3\n    /* \"#utility.yul\":8871:8919   */\n  tag_51\n  jump\t// in\ntag_168:\n    /* \"#utility.yul\":8863:8869   */\n  dup4\n    /* \"#utility.yul\":8856:8920   */\n  sstore\n    /* \"#utility.yul\":8778:8934   */\n  pop\n    /* \"#utility.yul\":8755:8934   */\ntag_167:\n    /* \"#utility.yul\":8980:8981   */\n  0x01\n    /* \"#utility.yul\":8976:8977   */\n  0x02\n    /* \"#utility.yul\":8968:8974   */\n  dup9\n    /* \"#utility.yul\":8964:8978   */\n  mul\n    /* \"#utility.yul\":8960:8982   */\n  add\n    /* \"#utility.yul\":8954:8958   */\n  dup9\n    /* \"#utility.yul\":8947:8983   */\n  sstore\n    /* \"#utility.yul\":8382:8993   */\n  pop\n  pop\n  pop\n    /* \"#utility.yul\":8345:9232   */\ntag_159:\n  pop\n    /* \"#utility.yul\":7935:9238   */\n  pop\n  pop\n  pop\n    /* \"#utility.yul\":7843:9238   */\n  pop\n  pop\n  jump\t// out\n    /* \"#utility.yul\":9244:9413   */\ntag_53:\n    /* \"#utility.yul\":9328:9339   */\n  0x00\n    /* \"#utility.yul\":9362:9368   */\n  dup3\n    /* \"#utility.yul\":9357:9360   */\n  dup3\n    /* \"#utility.yul\":9350:9369   */\n  mstore\n    /* \"#utility.yul\":9402:9406   */\n  0x20\n    /* \"#utility.yul\":9397:9400   */\n  dup3\n    /* \"#utility.yul\":9393:9407   */\n  add\n    /* \"#utility.yul\":9378:9407   */\n  swap1\n  pop\n    /* \"#utility.yul\":9244:9413   */\n  swap3\n  swap2\n  pop\n  pop\n  jump\t// out\n    /* \"#utility.yul\":9419:9796   */\ntag_54:\n    /* \"#utility.yul\":9507:9510   */\n  0x00\n    /* \"#utility.yul\":9535:9574   */\n  tag_171\n    /* \"#utility.yul\":9568:9573   */\n  dup3\n    /* \"#utility.yul\":9535:9574   */\n  tag_34\n  jump\t// in\ntag_171:\n    /* \"#utility.yul\":9590:9661   */\n  tag_172\n    /* \"#utility.yul\":9654:9660   */\n  dup2\n    /* \"#utility.yul\":9649:9652   */\n  dup6\n    /* \"#utility.yul\":9590:9661   */\n  tag_53\n  jump\t// in\ntag_172:\n    /* \"#utility.yul\":9583:9661   */\n  swap4\n  pop\n    /* \"#utility.yul\":9670:9735   */\n  tag_173\n    /* \"#utility.yul\":9728:9734   */\n  dup2\n    /* \"#utility.yul\":9723:9726   */\n  dup6\n    /* \"#utility.yul\":9716:9720   */\n  0x20\n    /* \"#utility.yul\":9709:9714   */\n  dup7\n    /* \"#utility.yul\":9705:9721   */\n  add\n    /* \"#utility.yul\":9670:9735   */\n  tag_31\n  jump\t// in\ntag_173:\n    /* \"#utility.yul\":9760:9789   */\n  tag_174\n    /* \"#utility.yul\":9782:9788   */\n  dup2\n    /* \"#utility.yul\":9760:9789   */\n  tag_26\n  jump\t// in\ntag_174:\n    /* \"#utility.yul\":9755:9758   */\n  dup5\n    /* \"#utility.yul\":9751:9790   */\n  add\n    /* \"#utility.yul\":9744:9790   */\n  swap2\n  pop\n    /* \"#utility.yul\":9511:9796   */\n  pop\n    /* \"#utility.yul\":9419:9796   */\n  swap3\n  swap2\n  pop\n  pop\n  jump\t// out\n    /* \"#utility.yul\":9802:10316   */\ntag_10:\n    /* \"#utility.yul\":9963:9967   */\n  0x00\n    /* \"#utility.yul\":10001:10003   */\n  0x40\n    /* \"#utility.yul\":9990:9999   */\n  dup3\n    /* \"#utility.yul\":9986:10004   */\n  add\n    /* \"#utility.yul\":9978:10004   */\n  swap1\n  pop\n    /* \"#utility.yul\":10050:10059   */\n  dup2\n    /* \"#utility.yul\":10044:10048   */\n  dup2\n    /* \"#utility.yul\":10040:10060   */\n  sub\n    /* \"#utility.yul\":10036:10037   */\n  0x00\n    /* \"#utility.yul\":10025:10034   */\n  dup4\n    /* \"#utility.yul\":10021:10038   */\n  add\n    /* \"#utility.yul\":10014:10061   */\n  mstore\n    /* \"#utility.yul\":10078:10156   */\n  tag_176\n    /* \"#utility.yul\":10151:10155   */\n  dup2\n    /* \"#utility.yul\":10142:10148   */\n  dup6\n    /* \"#utility.yul\":10078:10156   */\n  tag_54\n  jump\t// in\ntag_176:\n    /* \"#utility.yul\":10070:10156   */\n  swap1\n  pop\n    /* \"#utility.yul\":10203:10212   */\n  dup2\n    /* \"#utility.yul\":10197:10201   */\n  dup2\n    /* \"#utility.yul\":10193:10213   */\n  sub\n    /* \"#utility.yul\":10188:10190   */\n  0x20\n    /* \"#utility.yul\":10177:10186   */\n  dup4\n    /* \"#utility.yul\":10173:10191   */\n  add\n    /* \"#utility.yul\":10166:10214   */\n  mstore\n    /* \"#utility.yul\":10231:10309   */\n  tag_177\n    /* \"#utility.yul\":10304:10308   */\n  dup2\n    /* \"#utility.yul\":10295:10301   */\n  dup5\n    /* \"#utility.yul\":10231:10309   */\n  tag_54\n  jump\t// in\ntag_177:\n    /* \"#utility.yul\":10223:10309   */\n  swap1\n  pop\n    /* \"#utility.yul\":9802:10316   */\n  swap4\n  swap3\n  pop\n  pop\n  pop\n  jump\t// out\n    /* \"#utility.yul\":10322:10420   */\ntag_55:\n    /* \"#utility.yul\":10373:10379   */\n  0x00\n    /* \"#utility.yul\":10407:10412   */\n  dup2\n    /* \"#utility.yul\":10401:10413   */\n  mload\n    /* \"#utility.yul\":10391:10413   */\n  swap1\n  pop\n    /* \"#utility.yul\":10322:10420   */\n  swap2\n  swap1\n  pop\n  jump\t// out\n    /* \"#utility.yul\":10426:10573   */\ntag_56:\n    /* \"#utility.yul\":10527:10538   */\n  0x00\n    /* \"#utility.yul\":10564:10567   */\n  dup2\n    /* \"#utility.yul\":10549:10567   */\n  swap1\n  pop\n    /* \"#utility.yul\":10426:10573   */\n  swap3\n  swap2\n  pop\n  pop\n  jump\t// out\n    /* \"#utility.yul\":10579:10965   */\ntag_57:\n    /* \"#utility.yul\":10683:10686   */\n  0x00\n    /* \"#utility.yul\":10711:10749   */\n  tag_181\n    /* \"#utility.yul\":10743:10748   */\n  dup3\n    /* \"#utility.yul\":10711:10749   */\n  tag_55\n  jump\t// in\ntag_181:\n    /* \"#utility.yul\":10765:10853   */\n  tag_182\n    /* \"#utility.yul\":10846:10852   */\n  dup2\n    /* \"#utility.yul\":10841:10844   */\n  dup6\n    /* \"#utility.yul\":10765:10853   */\n  tag_56\n  jump\t// in\ntag_182:\n    /* \"#utility.yul\":10758:10853   */\n  swap4\n  pop\n    /* \"#utility.yul\":10862:10927   */\n  tag_183\n    /* \"#utility.yul\":10920:10926   */\n  dup2\n    /* \"#utility.yul\":10915:10918   */\n  dup6\n    /* \"#utility.yul\":10908:10912   */\n  0x20\n    /* \"#utility.yul\":10901:10906   */\n  dup7\n    /* \"#utility.yul\":10897:10913   */\n  add\n    /* \"#utility.yul\":10862:10927   */\n  tag_31\n  jump\t// in\ntag_183:\n    /* \"#utility.yul\":10952:10958   */\n  dup1\n    /* \"#utility.yul\":10947:10950   */\n  dup5\n    /* \"#utility.yul\":10943:10959   */\n  add\n    /* \"#utility.yul\":10936:10959   */\n  swap2\n  pop\n    /* \"#utility.yul\":10687:10965   */\n  pop\n    /* \"#utility.yul\":10579:10965   */\n  swap3\n  swap2\n  pop\n  pop\n  jump\t// out\n    /* \"#utility.yul\":10971:11242   */\ntag_12:\n    /* \"#utility.yul\":11101:11104   */\n  0x00\n    /* \"#utility.yul\":11123:11216   */\n  tag_185\n    /* \"#utility.yul\":11212:11215   */\n  dup3\n    /* \"#utility.yul\":11203:11209   */\n  dup5\n    /* \"#utility.yul\":11123:11216   */\n  tag_57\n  jump\t// in\ntag_185:\n    /* \"#utility.yul\":11116:11216   */\n  swap2\n  pop\n    /* \"#utility.yul\":11233:11236   */\n  dup2\n    /* \"#utility.yul\":11226:11236   */\n  swap1\n  pop\n    /* \"#utility.yul\":10971:11242   */\n  swap3\n  swap2\n  pop\n  pop\n  jump\t// out\n    /* \"contracts/ERC721Proxy.sol\":938:8969  contract ProxyERC721 is Context {... */\ntag_16:\n  dataSize(sub_0)\n  dup1\n  dataOffset(sub_0)\n  0x00\n  codecopy\n  0x00\n  return\nstop\n\nsub_0: assembly {\n        /* \"contracts/ERC721Proxy.sol\":938:8969  contract ProxyERC721 is Context {... */\n      mstore(0x40, 0x80)\n      callvalue\n      dup1\n      iszero\n      tag_1\n      jumpi\n      0x00\n      dup1\n      revert\n    tag_1:\n      pop\n      jumpi(tag_2, lt(calldatasize, 0x04))\n      shr(0xe0, calldataload(0x00))\n      dup1\n      0x95d89b41\n      gt\n      tag_17\n      jumpi\n      dup1\n      0xa22cb465\n      gt\n      tag_18\n      jumpi\n      dup1\n      0xa22cb465\n      eq\n      tag_13\n      jumpi\n      dup1\n      0xb88d4fde\n      eq\n      tag_14\n      jumpi\n      dup1\n      0xc87b56dd\n      eq\n      tag_15\n      jumpi\n      dup1\n      0xe985e9c5\n      eq\n      tag_16\n      jumpi\n      jump(tag_2)\n    tag_18:\n      dup1\n      0x95d89b41\n      eq\n      tag_10\n      jumpi\n      dup1\n      0x9a03d9a3\n      eq\n      tag_11\n      jumpi\n      dup1\n      0xa1448194\n      eq\n      tag_12\n      jumpi\n      jump(tag_2)\n    tag_17:\n      dup1\n      0x23b872dd\n      gt\n      tag_19\n      jumpi\n      dup1\n      0x23b872dd\n      eq\n      tag_6\n      jumpi\n      dup1\n      0x42842e0e\n      eq\n      tag_7\n      jumpi\n      dup1\n      0x6352211e\n      eq\n      tag_8\n      jumpi\n      dup1\n      0x70a08231\n      eq\n      tag_9\n      jumpi\n      jump(tag_2)\n    tag_19:\n      dup1\n      0x06fdde03\n      eq\n      tag_3\n      jumpi\n      dup1\n      0x081812fc\n      eq\n      tag_4\n      jumpi\n      dup1\n      0x095ea7b3\n      eq\n      tag_5\n      jumpi\n    tag_2:\n      0x00\n      dup1\n      revert\n        /* \"contracts/ERC721Proxy.sol\":3277:3366  function name() public view virtual returns (string memory) {... */\n    tag_3:\n      tag_20\n      tag_21\n      jump\t// in\n    tag_20:\n      mload(0x40)\n      tag_22\n      swap2\n      swap1\n      tag_23\n      jump\t// in\n    tag_22:\n      mload(0x40)\n      dup1\n      swap2\n      sub\n      swap1\n      return\n        /* \"contracts/ERC721Proxy.sol\":4540:4698  function getApproved(uint256 tokenId) public view virtual returns (address) {... */\n    tag_4:\n      tag_24\n      0x04\n      dup1\n      calldatasize\n      sub\n      dup2\n      add\n      swap1\n      tag_25\n      swap2\n      swap1\n      tag_26\n      jump\t// in\n    tag_25:\n      tag_27\n      jump\t// in\n    tag_24:\n      mload(0x40)\n      tag_28\n      swap2\n      swap1\n      tag_29\n      jump\t// in\n    tag_28:\n      mload(0x40)\n      dup1\n      swap2\n      sub\n      swap1\n      return\n        /* \"contracts/ERC721Proxy.sol\":3945:4479  function approve(address to, uint256 tokenId) public {... */\n    tag_5:\n      tag_30\n      0x04\n      dup1\n      calldatasize\n      sub\n      dup2\n      add\n      swap1\n      tag_31\n      swap2\n      swap1\n      tag_32\n      jump\t// in\n    tag_31:\n      tag_33\n      jump\t// in\n    tag_30:\n      stop\n        /* \"contracts/ERC721Proxy.sol\":5297:5721  function transferFrom(address from, address to, uint256 tokenId) public {... */\n    tag_6:\n      tag_34\n      0x04\n      dup1\n      calldatasize\n      sub\n      dup2\n      add\n      swap1\n      tag_35\n      swap2\n      swap1\n      tag_36\n      jump\t// in\n    tag_35:\n      tag_37\n      jump\t// in\n    tag_34:\n      stop\n        /* \"contracts/ERC721Proxy.sol\":5787:6056  function safeTransferFrom(address from, address to, uint256 tokenId) public {... */\n    tag_7:\n      tag_38\n      0x04\n      dup1\n      calldatasize\n      sub\n      dup2\n      add\n      swap1\n      tag_39\n      swap2\n      swap1\n      tag_36\n      jump\t// in\n    tag_39:\n      tag_40\n      jump\t// in\n    tag_38:\n      stop\n        /* \"contracts/ERC721Proxy.sol\":3005:3215  function ownerOf(uint256 tokenId) public view virtual returns (address) {... */\n    tag_8:\n      tag_41\n      0x04\n      dup1\n      calldatasize\n      sub\n      dup2\n      add\n      swap1\n      tag_42\n      swap2\n      swap1\n      tag_26\n      jump\t// in\n    tag_42:\n      tag_43\n      jump\t// in\n    tag_41:\n      mload(0x40)\n      tag_44\n      swap2\n      swap1\n      tag_29\n      jump\t// in\n    tag_44:\n      mload(0x40)\n      dup1\n      swap2\n      sub\n      swap1\n      return\n        /* \"contracts/ERC721Proxy.sol\":2753:2948  function balanceOf(address owner) public view virtual returns (uint256) {... */\n    tag_9:\n      tag_45\n      0x04\n      dup1\n      calldatasize\n      sub\n      dup2\n      add\n      swap1\n      tag_46\n      swap2\n      swap1\n      tag_47\n      jump\t// in\n    tag_46:\n      tag_48\n      jump\t// in\n    tag_45:\n      mload(0x40)\n      tag_49\n      swap2\n      swap1\n      tag_50\n      jump\t// in\n    tag_49:\n      mload(0x40)\n      dup1\n      swap2\n      sub\n      swap1\n      return\n        /* \"contracts/ERC721Proxy.sol\":3430:3523  function symbol() public view virtual returns (string memory) {... */\n    tag_10:\n      tag_51\n      tag_52\n      jump\t// in\n    tag_51:\n      mload(0x40)\n      tag_53\n      swap2\n      swap1\n      tag_23\n      jump\t// in\n    tag_53:\n      mload(0x40)\n      dup1\n      swap2\n      sub\n      swap1\n      return\n        /* \"contracts/ERC721Proxy.sol\":2130:2231  function setERC721Address (address _ERC721Address) public {... */\n    tag_11:\n      tag_54\n      0x04\n      dup1\n      calldatasize\n      sub\n      dup2\n      add\n      swap1\n      tag_55\n      swap2\n      swap1\n      tag_47\n      jump\t// in\n    tag_55:\n      tag_56\n      jump\t// in\n    tag_54:\n      stop\n        /* \"contracts/ERC721Proxy.sol\":6539:6773  function safeMint(address to, uint256 tokenId) public virtual {... */\n    tag_12:\n      tag_57\n      0x04\n      dup1\n      calldatasize\n      sub\n      dup2\n      add\n      swap1\n      tag_58\n      swap2\n      swap1\n      tag_32\n      jump\t// in\n    tag_58:\n      tag_59\n      jump\t// in\n    tag_57:\n      stop\n        /* \"contracts/ERC721Proxy.sol\":4765:5016  function setApprovalForAll(address operator, bool approved) public {... */\n    tag_13:\n      tag_60\n      0x04\n      dup1\n      calldatasize\n      sub\n      dup2\n      add\n      swap1\n      tag_61\n      swap2\n      swap1\n      tag_62\n      jump\t// in\n    tag_61:\n      tag_63\n      jump\t// in\n    tag_60:\n      stop\n        /* \"contracts/ERC721Proxy.sol\":6122:6533  function safeTransferFrom(address from, address to, uint256 tokenId, bytes memory data) public {... */\n    tag_14:\n      tag_64\n      0x04\n      dup1\n      calldatasize\n      sub\n      dup2\n      add\n      swap1\n      tag_65\n      swap2\n      swap1\n      tag_66\n      jump\t// in\n    tag_65:\n      tag_67\n      jump\t// in\n    tag_64:\n      stop\n        /* \"contracts/ERC721Proxy.sol\":3589:3888  function tokenURI(uint256 tokenId) public returns (string memory) {... */\n    tag_15:\n      tag_68\n      0x04\n      dup1\n      calldatasize\n      sub\n      dup2\n      add\n      swap1\n      tag_69\n      swap2\n      swap1\n      tag_26\n      jump\t// in\n    tag_69:\n      tag_70\n      jump\t// in\n    tag_68:\n      mload(0x40)\n      tag_71\n      swap2\n      swap1\n      tag_23\n      jump\t// in\n    tag_71:\n      mload(0x40)\n      dup1\n      swap2\n      sub\n      swap1\n      return\n        /* \"contracts/ERC721Proxy.sol\":5082:5235  function isApprovedForAll(address owner, address operator) public view virtual returns (bool) {... */\n    tag_16:\n      tag_72\n      0x04\n      dup1\n      calldatasize\n      sub\n      dup2\n      add\n      swap1\n      tag_73\n      swap2\n      swap1\n      tag_74\n      jump\t// in\n    tag_73:\n      tag_75\n      jump\t// in\n    tag_72:\n      mload(0x40)\n      tag_76\n      swap2\n      swap1\n      tag_77\n      jump\t// in\n    tag_76:\n      mload(0x40)\n      dup1\n      swap2\n      sub\n      swap1\n      return\n        /* \"contracts/ERC721Proxy.sol\":3277:3366  function name() public view virtual returns (string memory) {... */\n    tag_21:\n        /* \"contracts/ERC721Proxy.sol\":3322:3335  string memory */\n      0x60\n        /* \"contracts/ERC721Proxy.sol\":3354:3359  _name */\n      0x00\n        /* \"contracts/ERC721Proxy.sol\":3347:3359  return _name */\n      dup1\n      sload\n      tag_79\n      swap1\n      tag_80\n      jump\t// in\n    tag_79:\n      dup1\n      0x1f\n      add\n      0x20\n      dup1\n      swap2\n      div\n      mul\n      0x20\n      add\n      mload(0x40)\n      swap1\n      dup2\n      add\n      0x40\n      mstore\n      dup1\n      swap3\n      swap2\n      swap1\n      dup2\n      dup2\n      mstore\n      0x20\n      add\n      dup3\n      dup1\n      sload\n      tag_81\n      swap1\n      tag_80\n      jump\t// in\n    tag_81:\n      dup1\n      iszero\n      tag_82\n      jumpi\n      dup1\n      0x1f\n      lt\n      tag_83\n      jumpi\n      0x0100\n      dup1\n      dup4\n      sload\n      div\n      mul\n      dup4\n      mstore\n      swap2\n      0x20\n      add\n      swap2\n      jump(tag_82)\n    tag_83:\n      dup3\n      add\n      swap2\n      swap1\n      0x00\n      mstore\n      keccak256(0x00, 0x20)\n      swap1\n    tag_84:\n      dup2\n      sload\n      dup2\n      mstore\n      swap1\n      0x01\n      add\n      swap1\n      0x20\n      add\n      dup1\n      dup4\n      gt\n      tag_84\n      jumpi\n      dup3\n      swap1\n      sub\n      0x1f\n      and\n      dup3\n      add\n      swap2\n    tag_82:\n      pop\n      pop\n      pop\n      pop\n      pop\n      swap1\n      pop\n        /* \"contracts/ERC721Proxy.sol\":3277:3366  function name() public view virtual returns (string memory) {... */\n      swap1\n      jump\t// out\n        /* \"contracts/ERC721Proxy.sol\":4540:4698  function getApproved(uint256 tokenId) public view virtual returns (address) {... */\n    tag_27:\n        /* \"contracts/ERC721Proxy.sol\":4607:4614  address */\n      0x00\n        /* \"contracts/ERC721Proxy.sol\":4626:4649  _requireMinted(tokenId) */\n      tag_86\n        /* \"contracts/ERC721Proxy.sol\":4641:4648  tokenId */\n      dup3\n        /* \"contracts/ERC721Proxy.sol\":4626:4640  _requireMinted */\n      tag_87\n        /* \"contracts/ERC721Proxy.sol\":4626:4649  _requireMinted(tokenId) */\n      jump\t// in\n    tag_86:\n        /* \"contracts/ERC721Proxy.sol\":4667:4682  _tokenApprovals */\n      0x04\n        /* \"contracts/ERC721Proxy.sol\":4667:4691  _tokenApprovals[tokenId] */\n      0x00\n        /* \"contracts/ERC721Proxy.sol\":4683:4690  tokenId */\n      dup4\n        /* \"contracts/ERC721Proxy.sol\":4667:4691  _tokenApprovals[tokenId] */\n      dup2\n      mstore\n      0x20\n      add\n      swap1\n      dup2\n      mstore\n      0x20\n      add\n      0x00\n      keccak256\n      0x00\n      swap1\n      sload\n      swap1\n      0x0100\n      exp\n      swap1\n      div\n      0xffffffffffffffffffffffffffffffffffffffff\n      and\n        /* \"contracts/ERC721Proxy.sol\":4660:4691  return _tokenApprovals[tokenId] */\n      swap1\n      pop\n        /* \"contracts/ERC721Proxy.sol\":4540:4698  function getApproved(uint256 tokenId) public view virtual returns (address) {... */\n      swap2\n      swap1\n      pop\n      jump\t// out\n        /* \"contracts/ERC721Proxy.sol\":3945:4479  function approve(address to, uint256 tokenId) public {... */\n    tag_33:\n        /* \"contracts/ERC721Proxy.sol\":4008:4021  address owner */\n      0x00\n        /* \"contracts/ERC721Proxy.sol\":4024:4052  ProxyERC721.ownerOf(tokenId) */\n      tag_89\n        /* \"contracts/ERC721Proxy.sol\":4044:4051  tokenId */\n      dup3\n        /* \"contracts/ERC721Proxy.sol\":4024:4043  ProxyERC721.ownerOf */\n      tag_43\n        /* \"contracts/ERC721Proxy.sol\":4024:4052  ProxyERC721.ownerOf(tokenId) */\n      jump\t// in\n    tag_89:\n        /* \"contracts/ERC721Proxy.sol\":4008:4052  address owner = ProxyERC721.ownerOf(tokenId) */\n      swap1\n      pop\n        /* \"contracts/ERC721Proxy.sol\":4076:4081  owner */\n      dup1\n        /* \"contracts/ERC721Proxy.sol\":4070:4081  to != owner */\n      0xffffffffffffffffffffffffffffffffffffffff\n      and\n        /* \"contracts/ERC721Proxy.sol\":4070:4072  to */\n      dup4\n        /* \"contracts/ERC721Proxy.sol\":4070:4081  to != owner */\n      0xffffffffffffffffffffffffffffffffffffffff\n      and\n      sub\n        /* \"contracts/ERC721Proxy.sol\":4062:4119  require(to != owner, \"ERC721: approval to current owner\") */\n      tag_90\n      jumpi\n      mload(0x40)\n      0x08c379a000000000000000000000000000000000000000000000000000000000\n      dup2\n      mstore\n      0x04\n      add\n      tag_91\n      swap1\n      tag_92\n      jump\t// in\n    tag_91:\n      mload(0x40)\n      dup1\n      swap2\n      sub\n      swap1\n      revert\n    tag_90:\n        /* \"contracts/ERC721Proxy.sol\":4167:4172  owner */\n      dup1\n        /* \"contracts/ERC721Proxy.sol\":4151:4172  _msgSender() == owner */\n      0xffffffffffffffffffffffffffffffffffffffff\n      and\n        /* \"contracts/ERC721Proxy.sol\":4151:4163  _msgSender() */\n      tag_93\n        /* \"contracts/ERC721Proxy.sol\":4151:4161  _msgSender */\n      tag_94\n        /* \"contracts/ERC721Proxy.sol\":4151:4163  _msgSender() */\n      jump\t// in\n    tag_93:\n        /* \"contracts/ERC721Proxy.sol\":4151:4172  _msgSender() == owner */\n      0xffffffffffffffffffffffffffffffffffffffff\n      and\n      eq\n        /* \"contracts/ERC721Proxy.sol\":4151:4213  _msgSender() == owner || isApprovedForAll(owner, _msgSender()) */\n      dup1\n      tag_95\n      jumpi\n      pop\n        /* \"contracts/ERC721Proxy.sol\":4176:4213  isApprovedForAll(owner, _msgSender()) */\n      tag_96\n        /* \"contracts/ERC721Proxy.sol\":4193:4198  owner */\n      dup2\n        /* \"contracts/ERC721Proxy.sol\":4200:4212  _msgSender() */\n      tag_97\n        /* \"contracts/ERC721Proxy.sol\":4200:4210  _msgSender */\n      tag_94\n        /* \"contracts/ERC721Proxy.sol\":4200:4212  _msgSender() */\n      jump\t// in\n    tag_97:\n        /* \"contracts/ERC721Proxy.sol\":4176:4192  isApprovedForAll */\n      tag_75\n        /* \"contracts/ERC721Proxy.sol\":4176:4213  isApprovedForAll(owner, _msgSender()) */\n      jump\t// in\n    tag_96:\n        /* \"contracts/ERC721Proxy.sol\":4151:4213  _msgSender() == owner || isApprovedForAll(owner, _msgSender()) */\n    tag_95:\n        /* \"contracts/ERC721Proxy.sol\":4130:4300  require(... */\n      tag_98\n      jumpi\n      mload(0x40)\n      0x08c379a000000000000000000000000000000000000000000000000000000000\n      dup2\n      mstore\n      0x04\n      add\n      tag_99\n      swap1\n      tag_100\n      jump\t// in\n    tag_99:\n      mload(0x40)\n      dup1\n      swap2\n      sub\n      swap1\n      revert\n    tag_98:\n        /* \"contracts/ERC721Proxy.sol\":4320:4332  bool success */\n      0x00\n        /* \"contracts/ERC721Proxy.sol\":4334:4357  bytes memory dataReturn */\n      dup1\n        /* \"contracts/ERC721Proxy.sol\":4361:4370  _contract */\n      0x06\n      0x00\n      swap1\n      sload\n      swap1\n      0x0100\n      exp\n      swap1\n      div\n      0xffffffffffffffffffffffffffffffffffffffff\n      and\n        /* \"contracts/ERC721Proxy.sol\":4361:4383  _contract.delegatecall */\n      0xffffffffffffffffffffffffffffffffffffffff\n      and\n        /* \"contracts/ERC721Proxy.sol\":4450:4452  to */\n      dup6\n        /* \"contracts/ERC721Proxy.sol\":4454:4461  tokenId */\n      dup6\n        /* \"contracts/ERC721Proxy.sol\":4397:4462  abi.encodeWithSignature(\"approve(address, uint256)\", to, tokenId) */\n      add(0x24, mload(0x40))\n      tag_101\n      swap3\n      swap2\n      swap1\n      tag_102\n      jump\t// in\n    tag_101:\n      mload(0x40)\n      0x20\n      dup2\n      dup4\n      sub\n      sub\n      dup2\n      mstore\n      swap1\n      0x40\n      mstore\n      and(not(0xffffffffffffffffffffffffffffffffffffffffffffffffffffffff), 0x8b069f2a00000000000000000000000000000000000000000000000000000000)\n      0x20\n      dup3\n      add\n      dup1\n      mload\n      0xffffffffffffffffffffffffffffffffffffffffffffffffffffffff\n      dup4\n      dup2\n      dup4\n      and\n      or\n      dup4\n      mstore\n      pop\n      pop\n      pop\n      pop\n        /* \"contracts/ERC721Proxy.sol\":4361:4472  _contract.delegatecall(... */\n      mload(0x40)\n      tag_103\n      swap2\n      swap1\n      tag_104\n      jump\t// in\n    tag_103:\n      0x00\n      mload(0x40)\n      dup1\n      dup4\n      sub\n      dup2\n      dup6\n      gas\n      delegatecall\n      swap2\n      pop\n      pop\n      returndatasize\n      dup1\n      0x00\n      dup2\n      eq\n      tag_107\n      jumpi\n      mload(0x40)\n      swap2\n      pop\n      and(add(returndatasize, 0x3f), not(0x1f))\n      dup3\n      add\n      0x40\n      mstore\n      returndatasize\n      dup3\n      mstore\n      returndatasize\n      0x00\n      0x20\n      dup5\n      add\n      returndatacopy\n      jump(tag_106)\n    tag_107:\n      0x60\n      swap2\n      pop\n    tag_106:\n      pop\n        /* \"contracts/ERC721Proxy.sol\":4319:4472  (bool success, bytes memory dataReturn) = _contract.delegatecall(... */\n      swap2\n      pop\n      swap2\n      pop\n        /* \"contracts/ERC721Proxy.sol\":3998:4479  {... */\n      pop\n      pop\n      pop\n        /* \"contracts/ERC721Proxy.sol\":3945:4479  function approve(address to, uint256 tokenId) public {... */\n      pop\n      pop\n      jump\t// out\n        /* \"contracts/ERC721Proxy.sol\":5297:5721  function transferFrom(address from, address to, uint256 tokenId) public {... */\n    tag_37:\n        /* \"contracts/ERC721Proxy.sol\":5439:5480  _isApprovedOrOwner(_msgSender(), tokenId) */\n      tag_109\n        /* \"contracts/ERC721Proxy.sol\":5458:5470  _msgSender() */\n      tag_110\n        /* \"contracts/ERC721Proxy.sol\":5458:5468  _msgSender */\n      tag_94\n        /* \"contracts/ERC721Proxy.sol\":5458:5470  _msgSender() */\n      jump\t// in\n    tag_110:\n        /* \"contracts/ERC721Proxy.sol\":5472:5479  tokenId */\n      dup3\n        /* \"contracts/ERC721Proxy.sol\":5439:5457  _isApprovedOrOwner */\n      tag_111\n        /* \"contracts/ERC721Proxy.sol\":5439:5480  _isApprovedOrOwner(_msgSender(), tokenId) */\n      jump\t// in\n    tag_109:\n        /* \"contracts/ERC721Proxy.sol\":5431:5530  require(_isApprovedOrOwner(_msgSender(), tokenId), \"ERC721: caller is not token owner or approved\") */\n      tag_112\n      jumpi\n      mload(0x40)\n      0x08c379a000000000000000000000000000000000000000000000000000000000\n      dup2\n      mstore\n      0x04\n      add\n      tag_113\n      swap1\n      tag_114\n      jump\t// in\n    tag_113:\n      mload(0x40)\n      dup1\n      swap2\n      sub\n      swap1\n      revert\n    tag_112:\n        /* \"contracts/ERC721Proxy.sol\":5542:5554  bool success */\n      0x00\n        /* \"contracts/ERC721Proxy.sol\":5556:5579  bytes memory dataReturn */\n      dup1\n        /* \"contracts/ERC721Proxy.sol\":5583:5592  _contract */\n      0x06\n      0x00\n      swap1\n      sload\n      swap1\n      0x0100\n      exp\n      swap1\n      div\n      0xffffffffffffffffffffffffffffffffffffffff\n      and\n        /* \"contracts/ERC721Proxy.sol\":5583:5605  _contract.delegatecall */\n      0xffffffffffffffffffffffffffffffffffffffff\n      and\n        /* \"contracts/ERC721Proxy.sol\":5686:5690  from */\n      dup6\n        /* \"contracts/ERC721Proxy.sol\":5692:5694  to */\n      dup6\n        /* \"contracts/ERC721Proxy.sol\":5696:5703  tokenId */\n      dup6\n        /* \"contracts/ERC721Proxy.sol\":5619:5704  abi.encodeWithSignature(\"transferFrom(address, address, uint256)\", from, to, tokenId) */\n      add(0x24, mload(0x40))\n      tag_115\n      swap4\n      swap3\n      swap2\n      swap1\n      tag_116\n      jump\t// in\n    tag_115:\n      mload(0x40)\n      0x20\n      dup2\n      dup4\n      sub\n      sub\n      dup2\n      mstore\n      swap1\n      0x40\n      mstore\n      and(not(0xffffffffffffffffffffffffffffffffffffffffffffffffffffffff), 0xb642fe5700000000000000000000000000000000000000000000000000000000)\n      0x20\n      dup3\n      add\n      dup1\n      mload\n      0xffffffffffffffffffffffffffffffffffffffffffffffffffffffff\n      dup4\n      dup2\n      dup4\n      and\n      or\n      dup4\n      mstore\n      pop\n      pop\n      pop\n      pop\n        /* \"contracts/ERC721Proxy.sol\":5583:5714  _contract.delegatecall(... */\n      mload(0x40)\n      tag_117\n      swap2\n      swap1\n      tag_104\n      jump\t// in\n    tag_117:\n      0x00\n      mload(0x40)\n      dup1\n      dup4\n      sub\n      dup2\n      dup6\n      gas\n      delegatecall\n      swap2\n      pop\n      pop\n      returndatasize\n      dup1\n      0x00\n      dup2\n      eq\n      tag_120\n      jumpi\n      mload(0x40)\n      swap2\n      pop\n      and(add(returndatasize, 0x3f), not(0x1f))\n      dup3\n      add\n      0x40\n      mstore\n      returndatasize\n      dup3\n      mstore\n      returndatasize\n      0x00\n      0x20\n      dup5\n      add\n      returndatacopy\n      jump(tag_119)\n    tag_120:\n      0x60\n      swap2\n      pop\n    tag_119:\n      pop\n        /* \"contracts/ERC721Proxy.sol\":5541:5714  (bool success, bytes memory dataReturn) = _contract.delegatecall(... */\n      swap2\n      pop\n      swap2\n      pop\n        /* \"contracts/ERC721Proxy.sol\":5369:5721  {... */\n      pop\n      pop\n        /* \"contracts/ERC721Proxy.sol\":5297:5721  function transferFrom(address from, address to, uint256 tokenId) public {... */\n      pop\n      pop\n      pop\n      jump\t// out\n        /* \"contracts/ERC721Proxy.sol\":5787:6056  function safeTransferFrom(address from, address to, uint256 tokenId) public {... */\n    tag_40:\n        /* \"contracts/ERC721Proxy.sol\":5874:5886  bool success */\n      0x00\n        /* \"contracts/ERC721Proxy.sol\":5888:5911  bytes memory dataReturn */\n      dup1\n        /* \"contracts/ERC721Proxy.sol\":5915:5924  _contract */\n      0x06\n      0x00\n      swap1\n      sload\n      swap1\n      0x0100\n      exp\n      swap1\n      div\n      0xffffffffffffffffffffffffffffffffffffffff\n      and\n        /* \"contracts/ERC721Proxy.sol\":5915:5937  _contract.delegatecall */\n      0xffffffffffffffffffffffffffffffffffffffff\n      and\n        /* \"contracts/ERC721Proxy.sol\":6021:6025  from */\n      dup6\n        /* \"contracts/ERC721Proxy.sol\":6027:6029  to */\n      dup6\n        /* \"contracts/ERC721Proxy.sol\":6031:6038  tokenId */\n      dup6\n        /* \"contracts/ERC721Proxy.sol\":5951:6039  abi.encodeWithSignature(\"safeTransferFrom(address, address, uint256\", from, to, tokenId) */\n      add(0x24, mload(0x40))\n      tag_122\n      swap4\n      swap3\n      swap2\n      swap1\n      tag_116\n      jump\t// in\n    tag_122:\n      mload(0x40)\n      0x20\n      dup2\n      dup4\n      sub\n      sub\n      dup2\n      mstore\n      swap1\n      0x40\n      mstore\n      and(not(0xffffffffffffffffffffffffffffffffffffffffffffffffffffffff), 0x5e69309e00000000000000000000000000000000000000000000000000000000)\n      0x20\n      dup3\n      add\n      dup1\n      mload\n      0xffffffffffffffffffffffffffffffffffffffffffffffffffffffff\n      dup4\n      dup2\n      dup4\n      and\n      or\n      dup4\n      mstore\n      pop\n      pop\n      pop\n      pop\n        /* \"contracts/ERC721Proxy.sol\":5915:6049  _contract.delegatecall(... */\n      mload(0x40)\n      tag_123\n      swap2\n      swap1\n      tag_104\n      jump\t// in\n    tag_123:\n      0x00\n      mload(0x40)\n      dup1\n      dup4\n      sub\n      dup2\n      dup6\n      gas\n      delegatecall\n      swap2\n      pop\n      pop\n      returndatasize\n      dup1\n      0x00\n      dup2\n      eq\n      tag_126\n      jumpi\n      mload(0x40)\n      swap2\n      pop\n      and(add(returndatasize, 0x3f), not(0x1f))\n      dup3\n      add\n      0x40\n      mstore\n      returndatasize\n      dup3\n      mstore\n      returndatasize\n      0x00\n      0x20\n      dup5\n      add\n      returndatacopy\n      jump(tag_125)\n    tag_126:\n      0x60\n      swap2\n      pop\n    tag_125:\n      pop\n        /* \"contracts/ERC721Proxy.sol\":5873:6049  (bool success, bytes memory dataReturn) = _contract.delegatecall(... */\n      swap2\n      pop\n      swap2\n      pop\n        /* \"contracts/ERC721Proxy.sol\":5863:6056  {... */\n      pop\n      pop\n        /* \"contracts/ERC721Proxy.sol\":5787:6056  function safeTransferFrom(address from, address to, uint256 tokenId) public {... */\n      pop\n      pop\n      pop\n      jump\t// out\n        /* \"contracts/ERC721Proxy.sol\":3005:3215  function ownerOf(uint256 tokenId) public view virtual returns (address) {... */\n    tag_43:\n        /* \"contracts/ERC721Proxy.sol\":3068:3075  address */\n      0x00\n        /* \"contracts/ERC721Proxy.sol\":3087:3100  address owner */\n      dup1\n        /* \"contracts/ERC721Proxy.sol\":3103:3120  _ownerOf(tokenId) */\n      tag_128\n        /* \"contracts/ERC721Proxy.sol\":3112:3119  tokenId */\n      dup4\n        /* \"contracts/ERC721Proxy.sol\":3103:3111  _ownerOf */\n      tag_129\n        /* \"contracts/ERC721Proxy.sol\":3103:3120  _ownerOf(tokenId) */\n      jump\t// in\n    tag_128:\n        /* \"contracts/ERC721Proxy.sol\":3087:3120  address owner = _ownerOf(tokenId) */\n      swap1\n      pop\n        /* \"contracts/ERC721Proxy.sol\":3155:3156  0 */\n      0x00\n        /* \"contracts/ERC721Proxy.sol\":3138:3157  owner != address(0) */\n      0xffffffffffffffffffffffffffffffffffffffff\n      and\n        /* \"contracts/ERC721Proxy.sol\":3138:3143  owner */\n      dup2\n        /* \"contracts/ERC721Proxy.sol\":3138:3157  owner != address(0) */\n      0xffffffffffffffffffffffffffffffffffffffff\n      and\n      sub\n        /* \"contracts/ERC721Proxy.sol\":3130:3186  require(owner != address(0), \"ERC721: invalid token ID\") */\n      tag_130\n      jumpi\n      mload(0x40)\n      0x08c379a000000000000000000000000000000000000000000000000000000000\n      dup2\n      mstore\n      0x04\n      add\n      tag_131\n      swap1\n      tag_132\n      jump\t// in\n    tag_131:\n      mload(0x40)\n      dup1\n      swap2\n      sub\n      swap1\n      revert\n    tag_130:\n        /* \"contracts/ERC721Proxy.sol\":3203:3208  owner */\n      dup1\n        /* \"contracts/ERC721Proxy.sol\":3196:3208  return owner */\n      swap2\n      pop\n      pop\n        /* \"contracts/ERC721Proxy.sol\":3005:3215  function ownerOf(uint256 tokenId) public view virtual returns (address) {... */\n      swap2\n      swap1\n      pop\n      jump\t// out\n        /* \"contracts/ERC721Proxy.sol\":2753:2948  function balanceOf(address owner) public view virtual returns (uint256) {... */\n    tag_48:\n        /* \"contracts/ERC721Proxy.sol\":2816:2823  uint256 */\n      0x00\n        /* \"contracts/ERC721Proxy.sol\":2860:2861  0 */\n      dup1\n        /* \"contracts/ERC721Proxy.sol\":2843:2862  owner != address(0) */\n      0xffffffffffffffffffffffffffffffffffffffff\n      and\n        /* \"contracts/ERC721Proxy.sol\":2843:2848  owner */\n      dup3\n        /* \"contracts/ERC721Proxy.sol\":2843:2862  owner != address(0) */\n      0xffffffffffffffffffffffffffffffffffffffff\n      and\n      sub\n        /* \"contracts/ERC721Proxy.sol\":2835:2908  require(owner != address(0), \"ERC721: address zero is not a valid owner\") */\n      tag_134\n      jumpi\n      mload(0x40)\n      0x08c379a000000000000000000000000000000000000000000000000000000000\n      dup2\n      mstore\n      0x04\n      add\n      tag_135\n      swap1\n      tag_136\n      jump\t// in\n    tag_135:\n      mload(0x40)\n      dup1\n      swap2\n      sub\n      swap1\n      revert\n    tag_134:\n        /* \"contracts/ERC721Proxy.sol\":2925:2934  _balances */\n      0x03\n        /* \"contracts/ERC721Proxy.sol\":2925:2941  _balances[owner] */\n      0x00\n        /* \"contracts/ERC721Proxy.sol\":2935:2940  owner */\n      dup4\n        /* \"contracts/ERC721Proxy.sol\":2925:2941  _balances[owner] */\n      0xffffffffffffffffffffffffffffffffffffffff\n      and\n      0xffffffffffffffffffffffffffffffffffffffff\n      and\n      dup2\n      mstore\n      0x20\n      add\n      swap1\n      dup2\n      mstore\n      0x20\n      add\n      0x00\n      keccak256\n      sload\n        /* \"contracts/ERC721Proxy.sol\":2918:2941  return _balances[owner] */\n      swap1\n      pop\n        /* \"contracts/ERC721Proxy.sol\":2753:2948  function balanceOf(address owner) public view virtual returns (uint256) {... */\n      swap2\n      swap1\n      pop\n      jump\t// out\n        /* \"contracts/ERC721Proxy.sol\":3430:3523  function symbol() public view virtual returns (string memory) {... */\n    tag_52:\n        /* \"contracts/ERC721Proxy.sol\":3477:3490  string memory */\n      0x60\n        /* \"contracts/ERC721Proxy.sol\":3509:3516  _symbol */\n      0x01\n        /* \"contracts/ERC721Proxy.sol\":3502:3516  return _symbol */\n      dup1\n      sload\n      tag_138\n      swap1\n      tag_80\n      jump\t// in\n    tag_138:\n      dup1\n      0x1f\n      add\n      0x20\n      dup1\n      swap2\n      div\n      mul\n      0x20\n      add\n      mload(0x40)\n      swap1\n      dup2\n      add\n      0x40\n      mstore\n      dup1\n      swap3\n      swap2\n      swap1\n      dup2\n      dup2\n      mstore\n      0x20\n      add\n      dup3\n      dup1\n      sload\n      tag_139\n      swap1\n      tag_80\n      jump\t// in\n    tag_139:\n      dup1\n      iszero\n      tag_140\n      jumpi\n      dup1\n      0x1f\n      lt\n      tag_141\n      jumpi\n      0x0100\n      dup1\n      dup4\n      sload\n      div\n      mul\n      dup4\n      mstore\n      swap2\n      0x20\n      add\n      swap2\n      jump(tag_140)\n    tag_141:\n      dup3\n      add\n      swap2\n      swap1\n      0x00\n      mstore\n      keccak256(0x00, 0x20)\n      swap1\n    tag_142:\n      dup2\n      sload\n      dup2\n      mstore\n      swap1\n      0x01\n      add\n      swap1\n      0x20\n      add\n      dup1\n      dup4\n      gt\n      tag_142\n      jumpi\n      dup3\n      swap1\n      sub\n      0x1f\n      and\n      dup3\n      add\n      swap2\n    tag_140:\n      pop\n      pop\n      pop\n      pop\n      pop\n      swap1\n      pop\n        /* \"contracts/ERC721Proxy.sol\":3430:3523  function symbol() public view virtual returns (string memory) {... */\n      swap1\n      jump\t// out\n        /* \"contracts/ERC721Proxy.sol\":2130:2231  function setERC721Address (address _ERC721Address) public {... */\n    tag_56:\n        /* \"contracts/ERC721Proxy.sol\":2210:2224  _ERC721Address */\n      dup1\n        /* \"contracts/ERC721Proxy.sol\":2198:2207  _contract */\n      0x06\n      0x00\n        /* \"contracts/ERC721Proxy.sol\":2198:2224  _contract = _ERC721Address */\n      0x0100\n      exp\n      dup2\n      sload\n      dup2\n      0xffffffffffffffffffffffffffffffffffffffff\n      mul\n      not\n      and\n      swap1\n      dup4\n      0xffffffffffffffffffffffffffffffffffffffff\n      and\n      mul\n      or\n      swap1\n      sstore\n      pop\n        /* \"contracts/ERC721Proxy.sol\":2130:2231  function setERC721Address (address _ERC721Address) public {... */\n      pop\n      jump\t// out\n        /* \"contracts/ERC721Proxy.sol\":6539:6773  function safeMint(address to, uint256 tokenId) public virtual {... */\n    tag_59:\n        /* \"contracts/ERC721Proxy.sol\":6612:6624  bool success */\n      0x00\n        /* \"contracts/ERC721Proxy.sol\":6626:6649  bytes memory dataReturn */\n      dup1\n        /* \"contracts/ERC721Proxy.sol\":6653:6662  _contract */\n      0x06\n      0x00\n      swap1\n      sload\n      swap1\n      0x0100\n      exp\n      swap1\n      div\n      0xffffffffffffffffffffffffffffffffffffffff\n      and\n        /* \"contracts/ERC721Proxy.sol\":6653:6675  _contract.delegatecall */\n      0xffffffffffffffffffffffffffffffffffffffff\n      and\n        /* \"contracts/ERC721Proxy.sol\":6744:6746  to */\n      dup5\n        /* \"contracts/ERC721Proxy.sol\":6748:6755  tokenId */\n      dup5\n        /* \"contracts/ERC721Proxy.sol\":6689:6756  abi.encodeWithSignature(\"_safeMint(address, uint256)\", to, tokenId) */\n      add(0x24, mload(0x40))\n      tag_145\n      swap3\n      swap2\n      swap1\n      tag_102\n      jump\t// in\n    tag_145:\n      mload(0x40)\n      0x20\n      dup2\n      dup4\n      sub\n      sub\n      dup2\n      mstore\n      swap1\n      0x40\n      mstore\n      and(not(0xffffffffffffffffffffffffffffffffffffffffffffffffffffffff), 0xdf7f3eab00000000000000000000000000000000000000000000000000000000)\n      0x20\n      dup3\n      add\n      dup1\n      mload\n      0xffffffffffffffffffffffffffffffffffffffffffffffffffffffff\n      dup4\n      dup2\n      dup4\n      and\n      or\n      dup4\n      mstore\n      pop\n      pop\n      pop\n      pop\n        /* \"contracts/ERC721Proxy.sol\":6653:6766  _contract.delegatecall(... */\n      mload(0x40)\n      tag_146\n      swap2\n      swap1\n      tag_104\n      jump\t// in\n    tag_146:\n      0x00\n      mload(0x40)\n      dup1\n      dup4\n      sub\n      dup2\n      dup6\n      gas\n      delegatecall\n      swap2\n      pop\n      pop\n      returndatasize\n      dup1\n      0x00\n      dup2\n      eq\n      tag_149\n      jumpi\n      mload(0x40)\n      swap2\n      pop\n      and(add(returndatasize, 0x3f), not(0x1f))\n      dup3\n      add\n      0x40\n      mstore\n      returndatasize\n      dup3\n      mstore\n      returndatasize\n      0x00\n      0x20\n      dup5\n      add\n      returndatacopy\n      jump(tag_148)\n    tag_149:\n      0x60\n      swap2\n      pop\n    tag_148:\n      pop\n        /* \"contracts/ERC721Proxy.sol\":6611:6766  (bool success, bytes memory dataReturn) = _contract.delegatecall(... */\n      swap2\n      pop\n      swap2\n      pop\n        /* \"contracts/ERC721Proxy.sol\":6601:6773  {... */\n      pop\n      pop\n        /* \"contracts/ERC721Proxy.sol\":6539:6773  function safeMint(address to, uint256 tokenId) public virtual {... */\n      pop\n      pop\n      jump\t// out\n        /* \"contracts/ERC721Proxy.sol\":4765:5016  function setApprovalForAll(address operator, bool approved) public {... */\n    tag_63:\n        /* \"contracts/ERC721Proxy.sol\":4843:4855  bool success */\n      0x00\n        /* \"contracts/ERC721Proxy.sol\":4857:4880  bytes memory dataReturn */\n      dup1\n        /* \"contracts/ERC721Proxy.sol\":4884:4893  _contract */\n      0x06\n      0x00\n      swap1\n      sload\n      swap1\n      0x0100\n      exp\n      swap1\n      div\n      0xffffffffffffffffffffffffffffffffffffffff\n      and\n        /* \"contracts/ERC721Proxy.sol\":4884:4906  _contract.delegatecall */\n      0xffffffffffffffffffffffffffffffffffffffff\n      and\n        /* \"contracts/ERC721Proxy.sol\":4980:4988  operator */\n      dup5\n        /* \"contracts/ERC721Proxy.sol\":4990:4998  approved */\n      dup5\n        /* \"contracts/ERC721Proxy.sol\":4920:4999  abi.encodeWithSignature(\"setApprovalForAll(address, bool)\", operator, approved) */\n      add(0x24, mload(0x40))\n      tag_151\n      swap3\n      swap2\n      swap1\n      tag_152\n      jump\t// in\n    tag_151:\n      mload(0x40)\n      0x20\n      dup2\n      dup4\n      sub\n      sub\n      dup2\n      mstore\n      swap1\n      0x40\n      mstore\n      and(not(0xffffffffffffffffffffffffffffffffffffffffffffffffffffffff), 0x989579aa00000000000000000000000000000000000000000000000000000000)\n      0x20\n      dup3\n      add\n      dup1\n      mload\n      0xffffffffffffffffffffffffffffffffffffffffffffffffffffffff\n      dup4\n      dup2\n      dup4\n      and\n      or\n      dup4\n      mstore\n      pop\n      pop\n      pop\n      pop\n        /* \"contracts/ERC721Proxy.sol\":4884:5009  _contract.delegatecall(... */\n      mload(0x40)\n      tag_153\n      swap2\n      swap1\n      tag_104\n      jump\t// in\n    tag_153:\n      0x00\n      mload(0x40)\n      dup1\n      dup4\n      sub\n      dup2\n      dup6\n      gas\n      delegatecall\n      swap2\n      pop\n      pop\n      returndatasize\n      dup1\n      0x00\n      dup2\n      eq\n      tag_156\n      jumpi\n      mload(0x40)\n      swap2\n      pop\n      and(add(returndatasize, 0x3f), not(0x1f))\n      dup3\n      add\n      0x40\n      mstore\n      returndatasize\n      dup3\n      mstore\n      returndatasize\n      0x00\n      0x20\n      dup5\n      add\n      returndatacopy\n      jump(tag_155)\n    tag_156:\n      0x60\n      swap2\n      pop\n    tag_155:\n      pop\n        /* \"contracts/ERC721Proxy.sol\":4842:5009  (bool success, bytes memory dataReturn) = _contract.delegatecall(... */\n      swap2\n      pop\n      swap2\n      pop\n        /* \"contracts/ERC721Proxy.sol\":4832:5016  {... */\n      pop\n      pop\n        /* \"contracts/ERC721Proxy.sol\":4765:5016  function setApprovalForAll(address operator, bool approved) public {... */\n      pop\n      pop\n      jump\t// out\n        /* \"contracts/ERC721Proxy.sol\":6122:6533  function safeTransferFrom(address from, address to, uint256 tokenId, bytes memory data) public {... */\n    tag_67:\n        /* \"contracts/ERC721Proxy.sol\":6235:6276  _isApprovedOrOwner(_msgSender(), tokenId) */\n      tag_158\n        /* \"contracts/ERC721Proxy.sol\":6254:6266  _msgSender() */\n      tag_159\n        /* \"contracts/ERC721Proxy.sol\":6254:6264  _msgSender */\n      tag_94\n        /* \"contracts/ERC721Proxy.sol\":6254:6266  _msgSender() */\n      jump\t// in\n    tag_159:\n        /* \"contracts/ERC721Proxy.sol\":6268:6275  tokenId */\n      dup4\n        /* \"contracts/ERC721Proxy.sol\":6235:6253  _isApprovedOrOwner */\n      tag_111\n        /* \"contracts/ERC721Proxy.sol\":6235:6276  _isApprovedOrOwner(_msgSender(), tokenId) */\n      jump\t// in\n    tag_158:\n        /* \"contracts/ERC721Proxy.sol\":6227:6326  require(_isApprovedOrOwner(_msgSender(), tokenId), \"ERC721: caller is not token owner or approved\") */\n      tag_160\n      jumpi\n      mload(0x40)\n      0x08c379a000000000000000000000000000000000000000000000000000000000\n      dup2\n      mstore\n      0x04\n      add\n      tag_161\n      swap1\n      tag_114\n      jump\t// in\n    tag_161:\n      mload(0x40)\n      dup1\n      swap2\n      sub\n      swap1\n      revert\n    tag_160:\n        /* \"contracts/ERC721Proxy.sol\":6337:6349  bool success */\n      0x00\n        /* \"contracts/ERC721Proxy.sol\":6351:6374  bytes memory dataReturn */\n      dup1\n        /* \"contracts/ERC721Proxy.sol\":6378:6387  _contract */\n      0x06\n      0x00\n      swap1\n      sload\n      swap1\n      0x0100\n      exp\n      swap1\n      div\n      0xffffffffffffffffffffffffffffffffffffffff\n      and\n        /* \"contracts/ERC721Proxy.sol\":6378:6400  _contract.delegatecall */\n      0xffffffffffffffffffffffffffffffffffffffff\n      and\n        /* \"contracts/ERC721Proxy.sol\":6492:6496  from */\n      dup7\n        /* \"contracts/ERC721Proxy.sol\":6498:6500  to */\n      dup7\n        /* \"contracts/ERC721Proxy.sol\":6502:6509  tokenId */\n      dup7\n        /* \"contracts/ERC721Proxy.sol\":6511:6515  data */\n      dup7\n        /* \"contracts/ERC721Proxy.sol\":6414:6516  abi.encodeWithSignature(\"safeTransferFrom(address, address, uint256, bytes)\", from, to, tokenId, data) */\n      add(0x24, mload(0x40))\n      tag_162\n      swap5\n      swap4\n      swap3\n      swap2\n      swap1\n      tag_163\n      jump\t// in\n    tag_162:\n      mload(0x40)\n      0x20\n      dup2\n      dup4\n      sub\n      sub\n      dup2\n      mstore\n      swap1\n      0x40\n      mstore\n      and(not(0xffffffffffffffffffffffffffffffffffffffffffffffffffffffff), 0xa207714200000000000000000000000000000000000000000000000000000000)\n      0x20\n      dup3\n      add\n      dup1\n      mload\n      0xffffffffffffffffffffffffffffffffffffffffffffffffffffffff\n      dup4\n      dup2\n      dup4\n      and\n      or\n      dup4\n      mstore\n      pop\n      pop\n      pop\n      pop\n        /* \"contracts/ERC721Proxy.sol\":6378:6526  _contract.delegatecall(... */\n      mload(0x40)\n      tag_164\n      swap2\n      swap1\n      tag_104\n      jump\t// in\n    tag_164:\n      0x00\n      mload(0x40)\n      dup1\n      dup4\n      sub\n      dup2\n      dup6\n      gas\n      delegatecall\n      swap2\n      pop\n      pop\n      returndatasize\n      dup1\n      0x00\n      dup2\n      eq\n      tag_167\n      jumpi\n      mload(0x40)\n      swap2\n      pop\n      and(add(returndatasize, 0x3f), not(0x1f))\n      dup3\n      add\n      0x40\n      mstore\n      returndatasize\n      dup3\n      mstore\n      returndatasize\n      0x00\n      0x20\n      dup5\n      add\n      returndatacopy\n      jump(tag_166)\n    tag_167:\n      0x60\n      swap2\n      pop\n    tag_166:\n      pop\n        /* \"contracts/ERC721Proxy.sol\":6336:6526  (bool success, bytes memory dataReturn) = _contract.delegatecall(... */\n      swap2\n      pop\n      swap2\n      pop\n        /* \"contracts/ERC721Proxy.sol\":6217:6533  {... */\n      pop\n      pop\n        /* \"contracts/ERC721Proxy.sol\":6122:6533  function safeTransferFrom(address from, address to, uint256 tokenId, bytes memory data) public {... */\n      pop\n      pop\n      pop\n      pop\n      jump\t// out\n        /* \"contracts/ERC721Proxy.sol\":3589:3888  function tokenURI(uint256 tokenId) public returns (string memory) {... */\n    tag_70:\n        /* \"contracts/ERC721Proxy.sol\":3640:3653  string memory */\n      0x60\n        /* \"contracts/ERC721Proxy.sol\":3666:3678  bool success */\n      0x00\n        /* \"contracts/ERC721Proxy.sol\":3680:3703  bytes memory dataReturn */\n      dup1\n        /* \"contracts/ERC721Proxy.sol\":3707:3716  _contract */\n      0x06\n      0x00\n      swap1\n      sload\n      swap1\n      0x0100\n      exp\n      swap1\n      div\n      0xffffffffffffffffffffffffffffffffffffffff\n      and\n        /* \"contracts/ERC721Proxy.sol\":3707:3729  _contract.delegatecall */\n      0xffffffffffffffffffffffffffffffffffffffff\n      and\n        /* \"contracts/ERC721Proxy.sol\":3788:3795  tokenId */\n      dup5\n        /* \"contracts/ERC721Proxy.sol\":3743:3796  abi.encodeWithSignature(\"tokenURI(uint256)\", tokenId) */\n      add(0x24, mload(0x40))\n      tag_169\n      swap2\n      swap1\n      tag_50\n      jump\t// in\n    tag_169:\n      mload(0x40)\n      0x20\n      dup2\n      dup4\n      sub\n      sub\n      dup2\n      mstore\n      swap1\n      0x40\n      mstore\n      and(not(0xffffffffffffffffffffffffffffffffffffffffffffffffffffffff), 0xc87b56dd00000000000000000000000000000000000000000000000000000000)\n      0x20\n      dup3\n      add\n      dup1\n      mload\n      0xffffffffffffffffffffffffffffffffffffffffffffffffffffffff\n      dup4\n      dup2\n      dup4\n      and\n      or\n      dup4\n      mstore\n      pop\n      pop\n      pop\n      pop\n        /* \"contracts/ERC721Proxy.sol\":3707:3806  _contract.delegatecall(... */\n      mload(0x40)\n      tag_170\n      swap2\n      swap1\n      tag_104\n      jump\t// in\n    tag_170:\n      0x00\n      mload(0x40)\n      dup1\n      dup4\n      sub\n      dup2\n      dup6\n      gas\n      delegatecall\n      swap2\n      pop\n      pop\n      returndatasize\n      dup1\n      0x00\n      dup2\n      eq\n      tag_173\n      jumpi\n      mload(0x40)\n      swap2\n      pop\n      and(add(returndatasize, 0x3f), not(0x1f))\n      dup3\n      add\n      0x40\n      mstore\n      returndatasize\n      dup3\n      mstore\n      returndatasize\n      0x00\n      0x20\n      dup5\n      add\n      returndatacopy\n      jump(tag_172)\n    tag_173:\n      0x60\n      swap2\n      pop\n    tag_172:\n      pop\n        /* \"contracts/ERC721Proxy.sol\":3665:3806  (bool success, bytes memory dataReturn) = _contract.delegatecall(... */\n      swap2\n      pop\n      swap2\n      pop\n        /* \"contracts/ERC721Proxy.sol\":3824:3831  success */\n      dup2\n        /* \"contracts/ERC721Proxy.sol\":3816:3832  require(success) */\n      tag_174\n      jumpi\n      0x00\n      dup1\n      revert\n    tag_174:\n        /* \"contracts/ERC721Proxy.sol\":3860:3870  dataReturn */\n      dup1\n        /* \"contracts/ERC721Proxy.sol\":3849:3881  abi.decode(dataReturn, (string)) */\n      dup1\n      0x20\n      add\n      swap1\n      mload\n      dup2\n      add\n      swap1\n      tag_175\n      swap2\n      swap1\n      tag_176\n      jump\t// in\n    tag_175:\n        /* \"contracts/ERC721Proxy.sol\":3842:3881  return abi.decode(dataReturn, (string)) */\n      swap3\n      pop\n      pop\n      pop\n        /* \"contracts/ERC721Proxy.sol\":3589:3888  function tokenURI(uint256 tokenId) public returns (string memory) {... */\n      swap2\n      swap1\n      pop\n      jump\t// out\n        /* \"contracts/ERC721Proxy.sol\":5082:5235  function isApprovedForAll(address owner, address operator) public view virtual returns (bool) {... */\n    tag_75:\n        /* \"contracts/ERC721Proxy.sol\":5170:5174  bool */\n      0x00\n        /* \"contracts/ERC721Proxy.sol\":5193:5211  _operatorApprovals */\n      0x05\n        /* \"contracts/ERC721Proxy.sol\":5193:5218  _operatorApprovals[owner] */\n      0x00\n        /* \"contracts/ERC721Proxy.sol\":5212:5217  owner */\n      dup5\n        /* \"contracts/ERC721Proxy.sol\":5193:5218  _operatorApprovals[owner] */\n      0xffffffffffffffffffffffffffffffffffffffff\n      and\n      0xffffffffffffffffffffffffffffffffffffffff\n      and\n      dup2\n      mstore\n      0x20\n      add\n      swap1\n      dup2\n      mstore\n      0x20\n      add\n      0x00\n      keccak256\n        /* \"contracts/ERC721Proxy.sol\":5193:5228  _operatorApprovals[owner][operator] */\n      0x00\n        /* \"contracts/ERC721Proxy.sol\":5219:5227  operator */\n      dup4\n        /* \"contracts/ERC721Proxy.sol\":5193:5228  _operatorApprovals[owner][operator] */\n      0xffffffffffffffffffffffffffffffffffffffff\n      and\n      0xffffffffffffffffffffffffffffffffffffffff\n      and\n      dup2\n      mstore\n      0x20\n      add\n      swap1\n      dup2\n      mstore\n      0x20\n      add\n      0x00\n      keccak256\n      0x00\n      swap1\n      sload\n      swap1\n      0x0100\n      exp\n      swap1\n      div\n      0xff\n      and\n        /* \"contracts/ERC721Proxy.sol\":5186:5228  return _operatorApprovals[owner][operator] */\n      swap1\n      pop\n        /* \"contracts/ERC721Proxy.sol\":5082:5235  function isApprovedForAll(address owner, address operator) public view virtual returns (bool) {... */\n      swap3\n      swap2\n      pop\n      pop\n      jump\t// out\n        /* \"contracts/ERC721Proxy.sol\":8834:8967  function _requireMinted(uint256 tokenId) internal view virtual {... */\n    tag_87:\n        /* \"contracts/ERC721Proxy.sol\":8915:8931  _exists(tokenId) */\n      tag_179\n        /* \"contracts/ERC721Proxy.sol\":8923:8930  tokenId */\n      dup2\n        /* \"contracts/ERC721Proxy.sol\":8915:8922  _exists */\n      tag_180\n        /* \"contracts/ERC721Proxy.sol\":8915:8931  _exists(tokenId) */\n      jump\t// in\n    tag_179:\n        /* \"contracts/ERC721Proxy.sol\":8907:8960  require(_exists(tokenId), \"ERC721: invalid token ID\") */\n      tag_181\n      jumpi\n      mload(0x40)\n      0x08c379a000000000000000000000000000000000000000000000000000000000\n      dup2\n      mstore\n      0x04\n      add\n      tag_182\n      swap1\n      tag_132\n      jump\t// in\n    tag_182:\n      mload(0x40)\n      dup1\n      swap2\n      sub\n      swap1\n      revert\n    tag_181:\n        /* \"contracts/ERC721Proxy.sol\":8834:8967  function _requireMinted(uint256 tokenId) internal view virtual {... */\n      pop\n      jump\t// out\n        /* \"node_modules/@openzeppelin/contracts/utils/Context.sol\":640:736  function _msgSender() internal view virtual returns (address) {... */\n    tag_94:\n        /* \"node_modules/@openzeppelin/contracts/utils/Context.sol\":693:700  address */\n      0x00\n        /* \"node_modules/@openzeppelin/contracts/utils/Context.sol\":719:729  msg.sender */\n      caller\n        /* \"node_modules/@openzeppelin/contracts/utils/Context.sol\":712:729  return msg.sender */\n      swap1\n      pop\n        /* \"node_modules/@openzeppelin/contracts/utils/Context.sol\":640:736  function _msgSender() internal view virtual returns (address) {... */\n      swap1\n      jump\t// out\n        /* \"contracts/ERC721Proxy.sol\":8480:8746  function _isApprovedOrOwner(address spender, uint256 tokenId) internal view virtual returns (bool) {... */\n    tag_111:\n        /* \"contracts/ERC721Proxy.sol\":8573:8577  bool */\n      0x00\n        /* \"contracts/ERC721Proxy.sol\":8589:8602  address owner */\n      dup1\n        /* \"contracts/ERC721Proxy.sol\":8605:8633  ProxyERC721.ownerOf(tokenId) */\n      tag_185\n        /* \"contracts/ERC721Proxy.sol\":8625:8632  tokenId */\n      dup4\n        /* \"contracts/ERC721Proxy.sol\":8605:8624  ProxyERC721.ownerOf */\n      tag_43\n        /* \"contracts/ERC721Proxy.sol\":8605:8633  ProxyERC721.ownerOf(tokenId) */\n      jump\t// in\n    tag_185:\n        /* \"contracts/ERC721Proxy.sol\":8589:8633  address owner = ProxyERC721.ownerOf(tokenId) */\n      swap1\n      pop\n        /* \"contracts/ERC721Proxy.sol\":8662:8667  owner */\n      dup1\n        /* \"contracts/ERC721Proxy.sol\":8651:8667  spender == owner */\n      0xffffffffffffffffffffffffffffffffffffffff\n      and\n        /* \"contracts/ERC721Proxy.sol\":8651:8658  spender */\n      dup5\n        /* \"contracts/ERC721Proxy.sol\":8651:8667  spender == owner */\n      0xffffffffffffffffffffffffffffffffffffffff\n      and\n      eq\n        /* \"contracts/ERC721Proxy.sol\":8651:8703  spender == owner || isApprovedForAll(owner, spender) */\n      dup1\n      tag_186\n      jumpi\n      pop\n        /* \"contracts/ERC721Proxy.sol\":8671:8703  isApprovedForAll(owner, spender) */\n      tag_187\n        /* \"contracts/ERC721Proxy.sol\":8688:8693  owner */\n      dup2\n        /* \"contracts/ERC721Proxy.sol\":8695:8702  spender */\n      dup6\n        /* \"contracts/ERC721Proxy.sol\":8671:8687  isApprovedForAll */\n      tag_75\n        /* \"contracts/ERC721Proxy.sol\":8671:8703  isApprovedForAll(owner, spender) */\n      jump\t// in\n    tag_187:\n        /* \"contracts/ERC721Proxy.sol\":8651:8703  spender == owner || isApprovedForAll(owner, spender) */\n    tag_186:\n        /* \"contracts/ERC721Proxy.sol\":8651:8738  spender == owner || isApprovedForAll(owner, spender) || getApproved(tokenId) == spender */\n      dup1\n      tag_188\n      jumpi\n      pop\n        /* \"contracts/ERC721Proxy.sol\":8731:8738  spender */\n      dup4\n        /* \"contracts/ERC721Proxy.sol\":8707:8738  getApproved(tokenId) == spender */\n      0xffffffffffffffffffffffffffffffffffffffff\n      and\n        /* \"contracts/ERC721Proxy.sol\":8707:8727  getApproved(tokenId) */\n      tag_189\n        /* \"contracts/ERC721Proxy.sol\":8719:8726  tokenId */\n      dup5\n        /* \"contracts/ERC721Proxy.sol\":8707:8718  getApproved */\n      tag_27\n        /* \"contracts/ERC721Proxy.sol\":8707:8727  getApproved(tokenId) */\n      jump\t// in\n    tag_189:\n        /* \"contracts/ERC721Proxy.sol\":8707:8738  getApproved(tokenId) == spender */\n      0xffffffffffffffffffffffffffffffffffffffff\n      and\n      eq\n        /* \"contracts/ERC721Proxy.sol\":8651:8738  spender == owner || isApprovedForAll(owner, spender) || getApproved(tokenId) == spender */\n    tag_188:\n        /* \"contracts/ERC721Proxy.sol\":8643:8739  return (spender == owner || isApprovedForAll(owner, spender) || getApproved(tokenId) == spender) */\n      swap2\n      pop\n      pop\n        /* \"contracts/ERC721Proxy.sol\":8480:8746  function _isApprovedOrOwner(address spender, uint256 tokenId) internal view virtual returns (bool) {... */\n      swap3\n      swap2\n      pop\n      pop\n      jump\t// out\n        /* \"contracts/ERC721Proxy.sol\":7778:7893  function _ownerOf(uint256 tokenId) internal view virtual returns (address) {... */\n    tag_129:\n        /* \"contracts/ERC721Proxy.sol\":7844:7851  address */\n      0x00\n        /* \"contracts/ERC721Proxy.sol\":7870:7877  _owners */\n      0x02\n        /* \"contracts/ERC721Proxy.sol\":7870:7886  _owners[tokenId] */\n      0x00\n        /* \"contracts/ERC721Proxy.sol\":7878:7885  tokenId */\n      dup4\n        /* \"contracts/ERC721Proxy.sol\":7870:7886  _owners[tokenId] */\n      dup2\n      mstore\n      0x20\n      add\n      swap1\n      dup2\n      mstore\n      0x20\n      add\n      0x00\n      keccak256\n      0x00\n      swap1\n      sload\n      swap1\n      0x0100\n      exp\n      swap1\n      div\n      0xffffffffffffffffffffffffffffffffffffffff\n      and\n        /* \"contracts/ERC721Proxy.sol\":7863:7886  return _owners[tokenId] */\n      swap1\n      pop\n        /* \"contracts/ERC721Proxy.sol\":7778:7893  function _ownerOf(uint256 tokenId) internal view virtual returns (address) {... */\n      swap2\n      swap1\n      pop\n      jump\t// out\n        /* \"contracts/ERC721Proxy.sol\":8196:8322  function _exists(uint256 tokenId) internal view virtual returns (bool) {... */\n    tag_180:\n        /* \"contracts/ERC721Proxy.sol\":8261:8265  bool */\n      0x00\n        /* \"contracts/ERC721Proxy.sol\":8313:8314  0 */\n      dup1\n        /* \"contracts/ERC721Proxy.sol\":8284:8315  _ownerOf(tokenId) != address(0) */\n      0xffffffffffffffffffffffffffffffffffffffff\n      and\n        /* \"contracts/ERC721Proxy.sol\":8284:8301  _ownerOf(tokenId) */\n      tag_192\n        /* \"contracts/ERC721Proxy.sol\":8293:8300  tokenId */\n      dup4\n        /* \"contracts/ERC721Proxy.sol\":8284:8292  _ownerOf */\n      tag_129\n        /* \"contracts/ERC721Proxy.sol\":8284:8301  _ownerOf(tokenId) */\n      jump\t// in\n    tag_192:\n        /* \"contracts/ERC721Proxy.sol\":8284:8315  _ownerOf(tokenId) != address(0) */\n      0xffffffffffffffffffffffffffffffffffffffff\n      and\n      eq\n      iszero\n        /* \"contracts/ERC721Proxy.sol\":8277:8315  return _ownerOf(tokenId) != address(0) */\n      swap1\n      pop\n        /* \"contracts/ERC721Proxy.sol\":8196:8322  function _exists(uint256 tokenId) internal view virtual returns (bool) {... */\n      swap2\n      swap1\n      pop\n      jump\t// out\n        /* \"#utility.yul\":7:106   */\n    tag_193:\n        /* \"#utility.yul\":59:65   */\n      0x00\n        /* \"#utility.yul\":93:98   */\n      dup2\n        /* \"#utility.yul\":87:99   */\n      mload\n        /* \"#utility.yul\":77:99   */\n      swap1\n      pop\n        /* \"#utility.yul\":7:106   */\n      swap2\n      swap1\n      pop\n      jump\t// out\n        /* \"#utility.yul\":112:281   */\n    tag_194:\n        /* \"#utility.yul\":196:207   */\n      0x00\n        /* \"#utility.yul\":230:236   */\n      dup3\n        /* \"#utility.yul\":225:228   */\n      dup3\n        /* \"#utility.yul\":218:237   */\n      mstore\n        /* \"#utility.yul\":270:274   */\n      0x20\n        /* \"#utility.yul\":265:268   */\n      dup3\n        /* \"#utility.yul\":261:275   */\n      add\n        /* \"#utility.yul\":246:275   */\n      swap1\n      pop\n        /* \"#utility.yul\":112:281   */\n      swap3\n      swap2\n      pop\n      pop\n      jump\t// out\n        /* \"#utility.yul\":287:533   */\n    tag_195:\n        /* \"#utility.yul\":368:369   */\n      0x00\n        /* \"#utility.yul\":378:491   */\n    tag_246:\n        /* \"#utility.yul\":392:398   */\n      dup4\n        /* \"#utility.yul\":389:390   */\n      dup2\n        /* \"#utility.yul\":386:399   */\n      lt\n        /* \"#utility.yul\":378:491   */\n      iszero\n      tag_248\n      jumpi\n        /* \"#utility.yul\":477:478   */\n      dup1\n        /* \"#utility.yul\":472:475   */\n      dup3\n        /* \"#utility.yul\":468:479   */\n      add\n        /* \"#utility.yul\":462:480   */\n      mload\n        /* \"#utility.yul\":458:459   */\n      dup2\n        /* \"#utility.yul\":453:456   */\n      dup5\n        /* \"#utility.yul\":449:460   */\n      add\n        /* \"#utility.yul\":442:481   */\n      mstore\n        /* \"#utility.yul\":414:416   */\n      0x20\n        /* \"#utility.yul\":411:412   */\n      dup2\n        /* \"#utility.yul\":407:417   */\n      add\n        /* \"#utility.yul\":402:417   */\n      swap1\n      pop\n        /* \"#utility.yul\":378:491   */\n      jump(tag_246)\n    tag_248:\n        /* \"#utility.yul\":525:526   */\n      0x00\n        /* \"#utility.yul\":516:522   */\n      dup5\n        /* \"#utility.yul\":511:514   */\n      dup5\n        /* \"#utility.yul\":507:523   */\n      add\n        /* \"#utility.yul\":500:527   */\n      mstore\n        /* \"#utility.yul\":349:533   */\n      pop\n        /* \"#utility.yul\":287:533   */\n      pop\n      pop\n      pop\n      jump\t// out\n        /* \"#utility.yul\":539:641   */\n    tag_196:\n        /* \"#utility.yul\":580:586   */\n      0x00\n        /* \"#utility.yul\":631:633   */\n      0x1f\n        /* \"#utility.yul\":627:634   */\n      not\n        /* \"#utility.yul\":622:624   */\n      0x1f\n        /* \"#utility.yul\":615:620   */\n      dup4\n        /* \"#utility.yul\":611:625   */\n      add\n        /* \"#utility.yul\":607:635   */\n      and\n        /* \"#utility.yul\":597:635   */\n      swap1\n      pop\n        /* \"#utility.yul\":539:641   */\n      swap2\n      swap1\n      pop\n      jump\t// out\n        /* \"#utility.yul\":647:1024   */\n    tag_197:\n        /* \"#utility.yul\":735:738   */\n      0x00\n        /* \"#utility.yul\":763:802   */\n      tag_251\n        /* \"#utility.yul\":796:801   */\n      dup3\n        /* \"#utility.yul\":763:802   */\n      tag_193\n      jump\t// in\n    tag_251:\n        /* \"#utility.yul\":818:889   */\n      tag_252\n        /* \"#utility.yul\":882:888   */\n      dup2\n        /* \"#utility.yul\":877:880   */\n      dup6\n        /* \"#utility.yul\":818:889   */\n      tag_194\n      jump\t// in\n    tag_252:\n        /* \"#utility.yul\":811:889   */\n      swap4\n      pop\n        /* \"#utility.yul\":898:963   */\n      tag_253\n        /* \"#utility.yul\":956:962   */\n      dup2\n        /* \"#utility.yul\":951:954   */\n      dup6\n        /* \"#utility.yul\":944:948   */\n      0x20\n        /* \"#utility.yul\":937:942   */\n      dup7\n        /* \"#utility.yul\":933:949   */\n      add\n        /* \"#utility.yul\":898:963   */\n      tag_195\n      jump\t// in\n    tag_253:\n        /* \"#utility.yul\":988:1017   */\n      tag_254\n        /* \"#utility.yul\":1010:1016   */\n      dup2\n        /* \"#utility.yul\":988:1017   */\n      tag_196\n      jump\t// in\n    tag_254:\n        /* \"#utility.yul\":983:986   */\n      dup5\n        /* \"#utility.yul\":979:1018   */\n      add\n        /* \"#utility.yul\":972:1018   */\n      swap2\n      pop\n        /* \"#utility.yul\":739:1024   */\n      pop\n        /* \"#utility.yul\":647:1024   */\n      swap3\n      swap2\n      pop\n      pop\n      jump\t// out\n        /* \"#utility.yul\":1030:1343   */\n    tag_23:\n        /* \"#utility.yul\":1143:1147   */\n      0x00\n        /* \"#utility.yul\":1181:1183   */\n      0x20\n        /* \"#utility.yul\":1170:1179   */\n      dup3\n        /* \"#utility.yul\":1166:1184   */\n      add\n        /* \"#utility.yul\":1158:1184   */\n      swap1\n      pop\n        /* \"#utility.yul\":1230:1239   */\n      dup2\n        /* \"#utility.yul\":1224:1228   */\n      dup2\n        /* \"#utility.yul\":1220:1240   */\n      sub\n        /* \"#utility.yul\":1216:1217   */\n      0x00\n        /* \"#utility.yul\":1205:1214   */\n      dup4\n        /* \"#utility.yul\":1201:1218   */\n      add\n        /* \"#utility.yul\":1194:1241   */\n      mstore\n        /* \"#utility.yul\":1258:1336   */\n      tag_256\n        /* \"#utility.yul\":1331:1335   */\n      dup2\n        /* \"#utility.yul\":1322:1328   */\n      dup5\n        /* \"#utility.yul\":1258:1336   */\n      tag_197\n      jump\t// in\n    tag_256:\n        /* \"#utility.yul\":1250:1336   */\n      swap1\n      pop\n        /* \"#utility.yul\":1030:1343   */\n      swap3\n      swap2\n      pop\n      pop\n      jump\t// out\n        /* \"#utility.yul\":1349:1424   */\n    tag_198:\n        /* \"#utility.yul\":1382:1388   */\n      0x00\n        /* \"#utility.yul\":1415:1417   */\n      0x40\n        /* \"#utility.yul\":1409:1418   */\n      mload\n        /* \"#utility.yul\":1399:1418   */\n      swap1\n      pop\n        /* \"#utility.yul\":1349:1424   */\n      swap1\n      jump\t// out\n        /* \"#utility.yul\":1430:1547   */\n    tag_199:\n        /* \"#utility.yul\":1539:1540   */\n      0x00\n        /* \"#utility.yul\":1536:1537   */\n      dup1\n        /* \"#utility.yul\":1529:1541   */\n      revert\n        /* \"#utility.yul\":1553:1670   */\n    tag_200:\n        /* \"#utility.yul\":1662:1663   */\n      0x00\n        /* \"#utility.yul\":1659:1660   */\n      dup1\n        /* \"#utility.yul\":1652:1664   */\n      revert\n        /* \"#utility.yul\":1676:1753   */\n    tag_201:\n        /* \"#utility.yul\":1713:1720   */\n      0x00\n        /* \"#utility.yul\":1742:1747   */\n      dup2\n        /* \"#utility.yul\":1731:1747   */\n      swap1\n      pop\n        /* \"#utility.yul\":1676:1753   */\n      swap2\n      swap1\n      pop\n      jump\t// out\n        /* \"#utility.yul\":1759:1881   */\n    tag_202:\n        /* \"#utility.yul\":1832:1856   */\n      tag_262\n        /* \"#utility.yul\":1850:1855   */\n      dup2\n        /* \"#utility.yul\":1832:1856   */\n      tag_201\n      jump\t// in\n    tag_262:\n        /* \"#utility.yul\":1825:1830   */\n      dup2\n        /* \"#utility.yul\":1822:1857   */\n      eq\n        /* \"#utility.yul\":1812:1875   */\n      tag_263\n      jumpi\n        /* \"#utility.yul\":1871:1872   */\n      0x00\n        /* \"#utility.yul\":1868:1869   */\n      dup1\n        /* \"#utility.yul\":1861:1873   */\n      revert\n        /* \"#utility.yul\":1812:1875   */\n    tag_263:\n        /* \"#utility.yul\":1759:1881   */\n      pop\n      jump\t// out\n        /* \"#utility.yul\":1887:2026   */\n    tag_203:\n        /* \"#utility.yul\":1933:1938   */\n      0x00\n        /* \"#utility.yul\":1971:1977   */\n      dup2\n        /* \"#utility.yul\":1958:1978   */\n      calldataload\n        /* \"#utility.yul\":1949:1978   */\n      swap1\n      pop\n        /* \"#utility.yul\":1987:2020   */\n      tag_265\n        /* \"#utility.yul\":2014:2019   */\n      dup2\n        /* \"#utility.yul\":1987:2020   */\n      tag_202\n      jump\t// in\n    tag_265:\n        /* \"#utility.yul\":1887:2026   */\n      swap3\n      swap2\n      pop\n      pop\n      jump\t// out\n        /* \"#utility.yul\":2032:2361   */\n    tag_26:\n        /* \"#utility.yul\":2091:2097   */\n      0x00\n        /* \"#utility.yul\":2140:2142   */\n      0x20\n        /* \"#utility.yul\":2128:2137   */\n      dup3\n        /* \"#utility.yul\":2119:2126   */\n      dup5\n        /* \"#utility.yul\":2115:2138   */\n      sub\n        /* \"#utility.yul\":2111:2143   */\n      slt\n        /* \"#utility.yul\":2108:2227   */\n      iszero\n      tag_267\n      jumpi\n        /* \"#utility.yul\":2146:2225   */\n      tag_268\n      tag_199\n      jump\t// in\n    tag_268:\n        /* \"#utility.yul\":2108:2227   */\n    tag_267:\n        /* \"#utility.yul\":2266:2267   */\n      0x00\n        /* \"#utility.yul\":2291:2344   */\n      tag_269\n        /* \"#utility.yul\":2336:2343   */\n      dup5\n        /* \"#utility.yul\":2327:2333   */\n      dup3\n        /* \"#utility.yul\":2316:2325   */\n      dup6\n        /* \"#utility.yul\":2312:2334   */\n      add\n        /* \"#utility.yul\":2291:2344   */\n      tag_203\n      jump\t// in\n    tag_269:\n        /* \"#utility.yul\":2281:2344   */\n      swap2\n      pop\n        /* \"#utility.yul\":2237:2354   */\n      pop\n        /* \"#utility.yul\":2032:2361   */\n      swap3\n      swap2\n      pop\n      pop\n      jump\t// out\n        /* \"#utility.yul\":2367:2493   */\n    tag_204:\n        /* \"#utility.yul\":2404:2411   */\n      0x00\n        /* \"#utility.yul\":2444:2486   */\n      0xffffffffffffffffffffffffffffffffffffffff\n        /* \"#utility.yul\":2437:2442   */\n      dup3\n        /* \"#utility.yul\":2433:2487   */\n      and\n        /* \"#utility.yul\":2422:2487   */\n      swap1\n      pop\n        /* \"#utility.yul\":2367:2493   */\n      swap2\n      swap1\n      pop\n      jump\t// out\n        /* \"#utility.yul\":2499:2595   */\n    tag_205:\n        /* \"#utility.yul\":2536:2543   */\n      0x00\n        /* \"#utility.yul\":2565:2589   */\n      tag_272\n        /* \"#utility.yul\":2583:2588   */\n      dup3\n        /* \"#utility.yul\":2565:2589   */\n      tag_204\n      jump\t// in\n    tag_272:\n        /* \"#utility.yul\":2554:2589   */\n      swap1\n      pop\n        /* \"#utility.yul\":2499:2595   */\n      swap2\n      swap1\n      pop\n      jump\t// out\n        /* \"#utility.yul\":2601:2719   */\n    tag_206:\n        /* \"#utility.yul\":2688:2712   */\n      tag_274\n        /* \"#utility.yul\":2706:2711   */\n      dup2\n        /* \"#utility.yul\":2688:2712   */\n      tag_205\n      jump\t// in\n    tag_274:\n        /* \"#utility.yul\":2683:2686   */\n      dup3\n        /* \"#utility.yul\":2676:2713   */\n      mstore\n        /* \"#utility.yul\":2601:2719   */\n      pop\n      pop\n      jump\t// out\n        /* \"#utility.yul\":2725:2947   */\n    tag_29:\n        /* \"#utility.yul\":2818:2822   */\n      0x00\n        /* \"#utility.yul\":2856:2858   */\n      0x20\n        /* \"#utility.yul\":2845:2854   */\n      dup3\n        /* \"#utility.yul\":2841:2859   */\n      add\n        /* \"#utility.yul\":2833:2859   */\n      swap1\n      pop\n        /* \"#utility.yul\":2869:2940   */\n      tag_276\n        /* \"#utility.yul\":2937:2938   */\n      0x00\n        /* \"#utility.yul\":2926:2935   */\n      dup4\n        /* \"#utility.yul\":2922:2939   */\n      add\n        /* \"#utility.yul\":2913:2919   */\n      dup5\n        /* \"#utility.yul\":2869:2940   */\n      tag_206\n      jump\t// in\n    tag_276:\n        /* \"#utility.yul\":2725:2947   */\n      swap3\n      swap2\n      pop\n      pop\n      jump\t// out\n        /* \"#utility.yul\":2953:3075   */\n    tag_207:\n        /* \"#utility.yul\":3026:3050   */\n      tag_278\n        /* \"#utility.yul\":3044:3049   */\n      dup2\n        /* \"#utility.yul\":3026:3050   */\n      tag_205\n      jump\t// in\n    tag_278:\n        /* \"#utility.yul\":3019:3024   */\n      dup2\n        /* \"#utility.yul\":3016:3051   */\n      eq\n        /* \"#utility.yul\":3006:3069   */\n      tag_279\n      jumpi\n        /* \"#utility.yul\":3065:3066   */\n      0x00\n        /* \"#utility.yul\":3062:3063   */\n      dup1\n        /* \"#utility.yul\":3055:3067   */\n      revert\n        /* \"#utility.yul\":3006:3069   */\n    tag_279:\n        /* \"#utility.yul\":2953:3075   */\n      pop\n      jump\t// out\n        /* \"#utility.yul\":3081:3220   */\n    tag_208:\n        /* \"#utility.yul\":3127:3132   */\n      0x00\n        /* \"#utility.yul\":3165:3171   */\n      dup2\n        /* \"#utility.yul\":3152:3172   */\n      calldataload\n        /* \"#utility.yul\":3143:3172   */\n      swap1\n      pop\n        /* \"#utility.yul\":3181:3214   */\n      tag_281\n        /* \"#utility.yul\":3208:3213   */\n      dup2\n        /* \"#utility.yul\":3181:3214   */\n      tag_207\n      jump\t// in\n    tag_281:\n        /* \"#utility.yul\":3081:3220   */\n      swap3\n      swap2\n      pop\n      pop\n      jump\t// out\n        /* \"#utility.yul\":3226:3700   */\n    tag_32:\n        /* \"#utility.yul\":3294:3300   */\n      0x00\n        /* \"#utility.yul\":3302:3308   */\n      dup1\n        /* \"#utility.yul\":3351:3353   */\n      0x40\n        /* \"#utility.yul\":3339:3348   */\n      dup4\n        /* \"#utility.yul\":3330:3337   */\n      dup6\n        /* \"#utility.yul\":3326:3349   */\n      sub\n        /* \"#utility.yul\":3322:3354   */\n      slt\n        /* \"#utility.yul\":3319:3438   */\n      iszero\n      tag_283\n      jumpi\n        /* \"#utility.yul\":3357:3436   */\n      tag_284\n      tag_199\n      jump\t// in\n    tag_284:\n        /* \"#utility.yul\":3319:3438   */\n    tag_283:\n        /* \"#utility.yul\":3477:3478   */\n      0x00\n        /* \"#utility.yul\":3502:3555   */\n      tag_285\n        /* \"#utility.yul\":3547:3554   */\n      dup6\n        /* \"#utility.yul\":3538:3544   */\n      dup3\n        /* \"#utility.yul\":3527:3536   */\n      dup7\n        /* \"#utility.yul\":3523:3545   */\n      add\n        /* \"#utility.yul\":3502:3555   */\n      tag_208\n      jump\t// in\n    tag_285:\n        /* \"#utility.yul\":3492:3555   */\n      swap3\n      pop\n        /* \"#utility.yul\":3448:3565   */\n      pop\n        /* \"#utility.yul\":3604:3606   */\n      0x20\n        /* \"#utility.yul\":3630:3683   */\n      tag_286\n        /* \"#utility.yul\":3675:3682   */\n      dup6\n        /* \"#utility.yul\":3666:3672   */\n      dup3\n        /* \"#utility.yul\":3655:3664   */\n      dup7\n        /* \"#utility.yul\":3651:3673   */\n      add\n        /* \"#utility.yul\":3630:3683   */\n      tag_203\n      jump\t// in\n    tag_286:\n        /* \"#utility.yul\":3620:3683   */\n      swap2\n      pop\n        /* \"#utility.yul\":3575:3693   */\n      pop\n        /* \"#utility.yul\":3226:3700   */\n      swap3\n      pop\n      swap3\n      swap1\n      pop\n      jump\t// out\n        /* \"#utility.yul\":3706:4325   */\n    tag_36:\n        /* \"#utility.yul\":3783:3789   */\n      0x00\n        /* \"#utility.yul\":3791:3797   */\n      dup1\n        /* \"#utility.yul\":3799:3805   */\n      0x00\n        /* \"#utility.yul\":3848:3850   */\n      0x60\n        /* \"#utility.yul\":3836:3845   */\n      dup5\n        /* \"#utility.yul\":3827:3834   */\n      dup7\n        /* \"#utility.yul\":3823:3846   */\n      sub\n        /* \"#utility.yul\":3819:3851   */\n      slt\n        /* \"#utility.yul\":3816:3935   */\n      iszero\n      tag_288\n      jumpi\n        /* \"#utility.yul\":3854:3933   */\n      tag_289\n      tag_199\n      jump\t// in\n    tag_289:\n        /* \"#utility.yul\":3816:3935   */\n    tag_288:\n        /* \"#utility.yul\":3974:3975   */\n      0x00\n        /* \"#utility.yul\":3999:4052   */\n      tag_290\n        /* \"#utility.yul\":4044:4051   */\n      dup7\n        /* \"#utility.yul\":4035:4041   */\n      dup3\n        /* \"#utility.yul\":4024:4033   */\n      dup8\n        /* \"#utility.yul\":4020:4042   */\n      add\n        /* \"#utility.yul\":3999:4052   */\n      tag_208\n      jump\t// in\n    tag_290:\n        /* \"#utility.yul\":3989:4052   */\n      swap4\n      pop\n        /* \"#utility.yul\":3945:4062   */\n      pop\n        /* \"#utility.yul\":4101:4103   */\n      0x20\n        /* \"#utility.yul\":4127:4180   */\n      tag_291\n        /* \"#utility.yul\":4172:4179   */\n      dup7\n        /* \"#utility.yul\":4163:4169   */\n      dup3\n        /* \"#utility.yul\":4152:4161   */\n      dup8\n        /* \"#utility.yul\":4148:4170   */\n      add\n        /* \"#utility.yul\":4127:4180   */\n      tag_208\n      jump\t// in\n    tag_291:\n        /* \"#utility.yul\":4117:4180   */\n      swap3\n      pop\n        /* \"#utility.yul\":4072:4190   */\n      pop\n        /* \"#utility.yul\":4229:4231   */\n      0x40\n        /* \"#utility.yul\":4255:4308   */\n      tag_292\n        /* \"#utility.yul\":4300:4307   */\n      dup7\n        /* \"#utility.yul\":4291:4297   */\n      dup3\n        /* \"#utility.yul\":4280:4289   */\n      dup8\n        /* \"#utility.yul\":4276:4298   */\n      add\n        /* \"#utility.yul\":4255:4308   */\n      tag_203\n      jump\t// in\n    tag_292:\n        /* \"#utility.yul\":4245:4308   */\n      swap2\n      pop\n        /* \"#utility.yul\":4200:4318   */\n      pop\n        /* \"#utility.yul\":3706:4325   */\n      swap3\n      pop\n      swap3\n      pop\n      swap3\n      jump\t// out\n        /* \"#utility.yul\":4331:4660   */\n    tag_47:\n        /* \"#utility.yul\":4390:4396   */\n      0x00\n        /* \"#utility.yul\":4439:4441   */\n      0x20\n        /* \"#utility.yul\":4427:4436   */\n      dup3\n        /* \"#utility.yul\":4418:4425   */\n      dup5\n        /* \"#utility.yul\":4414:4437   */\n      sub\n        /* \"#utility.yul\":4410:4442   */\n      slt\n        /* \"#utility.yul\":4407:4526   */\n      iszero\n      tag_294\n      jumpi\n        /* \"#utility.yul\":4445:4524   */\n      tag_295\n      tag_199\n      jump\t// in\n    tag_295:\n        /* \"#utility.yul\":4407:4526   */\n    tag_294:\n        /* \"#utility.yul\":4565:4566   */\n      0x00\n        /* \"#utility.yul\":4590:4643   */\n      tag_296\n        /* \"#utility.yul\":4635:4642   */\n      dup5\n        /* \"#utility.yul\":4626:4632   */\n      dup3\n        /* \"#utility.yul\":4615:4624   */\n      dup6\n        /* \"#utility.yul\":4611:4633   */\n      add\n        /* \"#utility.yul\":4590:4643   */\n      tag_208\n      jump\t// in\n    tag_296:\n        /* \"#utility.yul\":4580:4643   */\n      swap2\n      pop\n        /* \"#utility.yul\":4536:4653   */\n      pop\n        /* \"#utility.yul\":4331:4660   */\n      swap3\n      swap2\n      pop\n      pop\n      jump\t// out\n        /* \"#utility.yul\":4666:4784   */\n    tag_209:\n        /* \"#utility.yul\":4753:4777   */\n      tag_298\n        /* \"#utility.yul\":4771:4776   */\n      dup2\n        /* \"#utility.yul\":4753:4777   */\n      tag_201\n      jump\t// in\n    tag_298:\n        /* \"#utility.yul\":4748:4751   */\n      dup3\n        /* \"#utility.yul\":4741:4778   */\n      mstore\n        /* \"#utility.yul\":4666:4784   */\n      pop\n      pop\n      jump\t// out\n        /* \"#utility.yul\":4790:5012   */\n    tag_50:\n        /* \"#utility.yul\":4883:4887   */\n      0x00\n        /* \"#utility.yul\":4921:4923   */\n      0x20\n        /* \"#utility.yul\":4910:4919   */\n      dup3\n        /* \"#utility.yul\":4906:4924   */\n      add\n        /* \"#utility.yul\":4898:4924   */\n      swap1\n      pop\n        /* \"#utility.yul\":4934:5005   */\n      tag_300\n        /* \"#utility.yul\":5002:5003   */\n      0x00\n        /* \"#utility.yul\":4991:5000   */\n      dup4\n        /* \"#utility.yul\":4987:5004   */\n      add\n        /* \"#utility.yul\":4978:4984   */\n      dup5\n        /* \"#utility.yul\":4934:5005   */\n      tag_209\n      jump\t// in\n    tag_300:\n        /* \"#utility.yul\":4790:5012   */\n      swap3\n      swap2\n      pop\n      pop\n      jump\t// out\n        /* \"#utility.yul\":5018:5108   */\n    tag_210:\n        /* \"#utility.yul\":5052:5059   */\n      0x00\n        /* \"#utility.yul\":5095:5100   */\n      dup2\n        /* \"#utility.yul\":5088:5101   */\n      iszero\n        /* \"#utility.yul\":5081:5102   */\n      iszero\n        /* \"#utility.yul\":5070:5102   */\n      swap1\n      pop\n        /* \"#utility.yul\":5018:5108   */\n      swap2\n      swap1\n      pop\n      jump\t// out\n        /* \"#utility.yul\":5114:5230   */\n    tag_211:\n        /* \"#utility.yul\":5184:5205   */\n      tag_303\n        /* \"#utility.yul\":5199:5204   */\n      dup2\n        /* \"#utility.yul\":5184:5205   */\n      tag_210\n      jump\t// in\n    tag_303:\n        /* \"#utility.yul\":5177:5182   */\n      dup2\n        /* \"#utility.yul\":5174:5206   */\n      eq\n        /* \"#utility.yul\":5164:5224   */\n      tag_304\n      jumpi\n        /* \"#utility.yul\":5220:5221   */\n      0x00\n        /* \"#utility.yul\":5217:5218   */\n      dup1\n        /* \"#utility.yul\":5210:5222   */\n      revert\n        /* \"#utility.yul\":5164:5224   */\n    tag_304:\n        /* \"#utility.yul\":5114:5230   */\n      pop\n      jump\t// out\n        /* \"#utility.yul\":5236:5369   */\n    tag_212:\n        /* \"#utility.yul\":5279:5284   */\n      0x00\n        /* \"#utility.yul\":5317:5323   */\n      dup2\n        /* \"#utility.yul\":5304:5324   */\n      calldataload\n        /* \"#utility.yul\":5295:5324   */\n      swap1\n      pop\n        /* \"#utility.yul\":5333:5363   */\n      tag_306\n        /* \"#utility.yul\":5357:5362   */\n      dup2\n        /* \"#utility.yul\":5333:5363   */\n      tag_211\n      jump\t// in\n    tag_306:\n        /* \"#utility.yul\":5236:5369   */\n      swap3\n      swap2\n      pop\n      pop\n      jump\t// out\n        /* \"#utility.yul\":5375:5843   */\n    tag_62:\n        /* \"#utility.yul\":5440:5446   */\n      0x00\n        /* \"#utility.yul\":5448:5454   */\n      dup1\n        /* \"#utility.yul\":5497:5499   */\n      0x40\n        /* \"#utility.yul\":5485:5494   */\n      dup4\n        /* \"#utility.yul\":5476:5483   */\n      dup6\n        /* \"#utility.yul\":5472:5495   */\n      sub\n        /* \"#utility.yul\":5468:5500   */\n      slt\n        /* \"#utility.yul\":5465:5584   */\n      iszero\n      tag_308\n      jumpi\n        /* \"#utility.yul\":5503:5582   */\n      tag_309\n      tag_199\n      jump\t// in\n    tag_309:\n        /* \"#utility.yul\":5465:5584   */\n    tag_308:\n        /* \"#utility.yul\":5623:5624   */\n      0x00\n        /* \"#utility.yul\":5648:5701   */\n      tag_310\n        /* \"#utility.yul\":5693:5700   */\n      dup6\n        /* \"#utility.yul\":5684:5690   */\n      dup3\n        /* \"#utility.yul\":5673:5682   */\n      dup7\n        /* \"#utility.yul\":5669:5691   */\n      add\n        /* \"#utility.yul\":5648:5701   */\n      tag_208\n      jump\t// in\n    tag_310:\n        /* \"#utility.yul\":5638:5701   */\n      swap3\n      pop\n        /* \"#utility.yul\":5594:5711   */\n      pop\n        /* \"#utility.yul\":5750:5752   */\n      0x20\n        /* \"#utility.yul\":5776:5826   */\n      tag_311\n        /* \"#utility.yul\":5818:5825   */\n      dup6\n        /* \"#utility.yul\":5809:5815   */\n      dup3\n        /* \"#utility.yul\":5798:5807   */\n      dup7\n        /* \"#utility.yul\":5794:5816   */\n      add\n        /* \"#utility.yul\":5776:5826   */\n      tag_212\n      jump\t// in\n    tag_311:\n        /* \"#utility.yul\":5766:5826   */\n      swap2\n      pop\n        /* \"#utility.yul\":5721:5836   */\n      pop\n        /* \"#utility.yul\":5375:5843   */\n      swap3\n      pop\n      swap3\n      swap1\n      pop\n      jump\t// out\n        /* \"#utility.yul\":5849:5966   */\n    tag_213:\n        /* \"#utility.yul\":5958:5959   */\n      0x00\n        /* \"#utility.yul\":5955:5956   */\n      dup1\n        /* \"#utility.yul\":5948:5960   */\n      revert\n        /* \"#utility.yul\":5972:6089   */\n    tag_214:\n        /* \"#utility.yul\":6081:6082   */\n      0x00\n        /* \"#utility.yul\":6078:6079   */\n      dup1\n        /* \"#utility.yul\":6071:6083   */\n      revert\n        /* \"#utility.yul\":6095:6275   */\n    tag_215:\n        /* \"#utility.yul\":6143:6220   */\n      0x4e487b7100000000000000000000000000000000000000000000000000000000\n        /* \"#utility.yul\":6140:6141   */\n      0x00\n        /* \"#utility.yul\":6133:6221   */\n      mstore\n        /* \"#utility.yul\":6240:6244   */\n      0x41\n        /* \"#utility.yul\":6237:6238   */\n      0x04\n        /* \"#utility.yul\":6230:6245   */\n      mstore\n        /* \"#utility.yul\":6264:6268   */\n      0x24\n        /* \"#utility.yul\":6261:6262   */\n      0x00\n        /* \"#utility.yul\":6254:6269   */\n      revert\n        /* \"#utility.yul\":6281:6562   */\n    tag_216:\n        /* \"#utility.yul\":6364:6391   */\n      tag_316\n        /* \"#utility.yul\":6386:6390   */\n      dup3\n        /* \"#utility.yul\":6364:6391   */\n      tag_196\n      jump\t// in\n    tag_316:\n        /* \"#utility.yul\":6356:6362   */\n      dup2\n        /* \"#utility.yul\":6352:6392   */\n      add\n        /* \"#utility.yul\":6494:6500   */\n      dup2\n        /* \"#utility.yul\":6482:6492   */\n      dup2\n        /* \"#utility.yul\":6479:6501   */\n      lt\n        /* \"#utility.yul\":6458:6476   */\n      0xffffffffffffffff\n        /* \"#utility.yul\":6446:6456   */\n      dup3\n        /* \"#utility.yul\":6443:6477   */\n      gt\n        /* \"#utility.yul\":6440:6502   */\n      or\n        /* \"#utility.yul\":6437:6525   */\n      iszero\n      tag_317\n      jumpi\n        /* \"#utility.yul\":6505:6523   */\n      tag_318\n      tag_215\n      jump\t// in\n    tag_318:\n        /* \"#utility.yul\":6437:6525   */\n    tag_317:\n        /* \"#utility.yul\":6545:6555   */\n      dup1\n        /* \"#utility.yul\":6541:6543   */\n      0x40\n        /* \"#utility.yul\":6534:6556   */\n      mstore\n        /* \"#utility.yul\":6324:6562   */\n      pop\n        /* \"#utility.yul\":6281:6562   */\n      pop\n      pop\n      jump\t// out\n        /* \"#utility.yul\":6568:6697   */\n    tag_217:\n        /* \"#utility.yul\":6602:6608   */\n      0x00\n        /* \"#utility.yul\":6629:6649   */\n      tag_320\n      tag_198\n      jump\t// in\n    tag_320:\n        /* \"#utility.yul\":6619:6649   */\n      swap1\n      pop\n        /* \"#utility.yul\":6658:6691   */\n      tag_321\n        /* \"#utility.yul\":6686:6690   */\n      dup3\n        /* \"#utility.yul\":6678:6684   */\n      dup3\n        /* \"#utility.yul\":6658:6691   */\n      tag_216\n      jump\t// in\n    tag_321:\n        /* \"#utility.yul\":6568:6697   */\n      swap2\n      swap1\n      pop\n      jump\t// out\n        /* \"#utility.yul\":6703:7010   */\n    tag_218:\n        /* \"#utility.yul\":6764:6768   */\n      0x00\n        /* \"#utility.yul\":6854:6872   */\n      0xffffffffffffffff\n        /* \"#utility.yul\":6846:6852   */\n      dup3\n        /* \"#utility.yul\":6843:6873   */\n      gt\n        /* \"#utility.yul\":6840:6896   */\n      iszero\n      tag_323\n      jumpi\n        /* \"#utility.yul\":6876:6894   */\n      tag_324\n      tag_215\n      jump\t// in\n    tag_324:\n        /* \"#utility.yul\":6840:6896   */\n    tag_323:\n        /* \"#utility.yul\":6914:6943   */\n      tag_325\n        /* \"#utility.yul\":6936:6942   */\n      dup3\n        /* \"#utility.yul\":6914:6943   */\n      tag_196\n      jump\t// in\n    tag_325:\n        /* \"#utility.yul\":6906:6943   */\n      swap1\n      pop\n        /* \"#utility.yul\":6998:7002   */\n      0x20\n        /* \"#utility.yul\":6992:6996   */\n      dup2\n        /* \"#utility.yul\":6988:7003   */\n      add\n        /* \"#utility.yul\":6980:7003   */\n      swap1\n      pop\n        /* \"#utility.yul\":6703:7010   */\n      swap2\n      swap1\n      pop\n      jump\t// out\n        /* \"#utility.yul\":7016:7162   */\n    tag_219:\n        /* \"#utility.yul\":7113:7119   */\n      dup3\n        /* \"#utility.yul\":7108:7111   */\n      dup2\n        /* \"#utility.yul\":7103:7106   */\n      dup4\n        /* \"#utility.yul\":7090:7120   */\n      calldatacopy\n        /* \"#utility.yul\":7154:7155   */\n      0x00\n        /* \"#utility.yul\":7145:7151   */\n      dup4\n        /* \"#utility.yul\":7140:7143   */\n      dup4\n        /* \"#utility.yul\":7136:7152   */\n      add\n        /* \"#utility.yul\":7129:7156   */\n      mstore\n        /* \"#utility.yul\":7016:7162   */\n      pop\n      pop\n      pop\n      jump\t// out\n        /* \"#utility.yul\":7168:7591   */\n    tag_220:\n        /* \"#utility.yul\":7245:7250   */\n      0x00\n        /* \"#utility.yul\":7270:7335   */\n      tag_328\n        /* \"#utility.yul\":7286:7334   */\n      tag_329\n        /* \"#utility.yul\":7327:7333   */\n      dup5\n        /* \"#utility.yul\":7286:7334   */\n      tag_218\n      jump\t// in\n    tag_329:\n        /* \"#utility.yul\":7270:7335   */\n      tag_217\n      jump\t// in\n    tag_328:\n        /* \"#utility.yul\":7261:7335   */\n      swap1\n      pop\n        /* \"#utility.yul\":7358:7364   */\n      dup3\n        /* \"#utility.yul\":7351:7356   */\n      dup2\n        /* \"#utility.yul\":7344:7365   */\n      mstore\n        /* \"#utility.yul\":7396:7400   */\n      0x20\n        /* \"#utility.yul\":7389:7394   */\n      dup2\n        /* \"#utility.yul\":7385:7401   */\n      add\n        /* \"#utility.yul\":7434:7437   */\n      dup5\n        /* \"#utility.yul\":7425:7431   */\n      dup5\n        /* \"#utility.yul\":7420:7423   */\n      dup5\n        /* \"#utility.yul\":7416:7432   */\n      add\n        /* \"#utility.yul\":7413:7438   */\n      gt\n        /* \"#utility.yul\":7410:7522   */\n      iszero\n      tag_330\n      jumpi\n        /* \"#utility.yul\":7441:7520   */\n      tag_331\n      tag_214\n      jump\t// in\n    tag_331:\n        /* \"#utility.yul\":7410:7522   */\n    tag_330:\n        /* \"#utility.yul\":7531:7585   */\n      tag_332\n        /* \"#utility.yul\":7578:7584   */\n      dup5\n        /* \"#utility.yul\":7573:7576   */\n      dup3\n        /* \"#utility.yul\":7568:7571   */\n      dup6\n        /* \"#utility.yul\":7531:7585   */\n      tag_219\n      jump\t// in\n    tag_332:\n        /* \"#utility.yul\":7251:7591   */\n      pop\n        /* \"#utility.yul\":7168:7591   */\n      swap4\n      swap3\n      pop\n      pop\n      pop\n      jump\t// out\n        /* \"#utility.yul\":7610:7948   */\n    tag_221:\n        /* \"#utility.yul\":7665:7670   */\n      0x00\n        /* \"#utility.yul\":7714:7717   */\n      dup3\n        /* \"#utility.yul\":7707:7711   */\n      0x1f\n        /* \"#utility.yul\":7699:7705   */\n      dup4\n        /* \"#utility.yul\":7695:7712   */\n      add\n        /* \"#utility.yul\":7691:7718   */\n      slt\n        /* \"#utility.yul\":7681:7803   */\n      tag_334\n      jumpi\n        /* \"#utility.yul\":7722:7801   */\n      tag_335\n      tag_213\n      jump\t// in\n    tag_335:\n        /* \"#utility.yul\":7681:7803   */\n    tag_334:\n        /* \"#utility.yul\":7839:7845   */\n      dup2\n        /* \"#utility.yul\":7826:7846   */\n      calldataload\n        /* \"#utility.yul\":7864:7942   */\n      tag_336\n        /* \"#utility.yul\":7938:7941   */\n      dup5\n        /* \"#utility.yul\":7930:7936   */\n      dup3\n        /* \"#utility.yul\":7923:7927   */\n      0x20\n        /* \"#utility.yul\":7915:7921   */\n      dup7\n        /* \"#utility.yul\":7911:7928   */\n      add\n        /* \"#utility.yul\":7864:7942   */\n      tag_220\n      jump\t// in\n    tag_336:\n        /* \"#utility.yul\":7855:7942   */\n      swap2\n      pop\n        /* \"#utility.yul\":7671:7948   */\n      pop\n        /* \"#utility.yul\":7610:7948   */\n      swap3\n      swap2\n      pop\n      pop\n      jump\t// out\n        /* \"#utility.yul\":7954:8897   */\n    tag_66:\n        /* \"#utility.yul\":8049:8055   */\n      0x00\n        /* \"#utility.yul\":8057:8063   */\n      dup1\n        /* \"#utility.yul\":8065:8071   */\n      0x00\n        /* \"#utility.yul\":8073:8079   */\n      dup1\n        /* \"#utility.yul\":8122:8125   */\n      0x80\n        /* \"#utility.yul\":8110:8119   */\n      dup6\n        /* \"#utility.yul\":8101:8108   */\n      dup8\n        /* \"#utility.yul\":8097:8120   */\n      sub\n        /* \"#utility.yul\":8093:8126   */\n      slt\n        /* \"#utility.yul\":8090:8210   */\n      iszero\n      tag_338\n      jumpi\n        /* \"#utility.yul\":8129:8208   */\n      tag_339\n      tag_199\n      jump\t// in\n    tag_339:\n        /* \"#utility.yul\":8090:8210   */\n    tag_338:\n        /* \"#utility.yul\":8249:8250   */\n      0x00\n        /* \"#utility.yul\":8274:8327   */\n      tag_340\n        /* \"#utility.yul\":8319:8326   */\n      dup8\n        /* \"#utility.yul\":8310:8316   */\n      dup3\n        /* \"#utility.yul\":8299:8308   */\n      dup9\n        /* \"#utility.yul\":8295:8317   */\n      add\n        /* \"#utility.yul\":8274:8327   */\n      tag_208\n      jump\t// in\n    tag_340:\n        /* \"#utility.yul\":8264:8327   */\n      swap5\n      pop\n        /* \"#utility.yul\":8220:8337   */\n      pop\n        /* \"#utility.yul\":8376:8378   */\n      0x20\n        /* \"#utility.yul\":8402:8455   */\n      tag_341\n        /* \"#utility.yul\":8447:8454   */\n      dup8\n        /* \"#utility.yul\":8438:8444   */\n      dup3\n        /* \"#utility.yul\":8427:8436   */\n      dup9\n        /* \"#utility.yul\":8423:8445   */\n      add\n        /* \"#utility.yul\":8402:8455   */\n      tag_208\n      jump\t// in\n    tag_341:\n        /* \"#utility.yul\":8392:8455   */\n      swap4\n      pop\n        /* \"#utility.yul\":8347:8465   */\n      pop\n        /* \"#utility.yul\":8504:8506   */\n      0x40\n        /* \"#utility.yul\":8530:8583   */\n      tag_342\n        /* \"#utility.yul\":8575:8582   */\n      dup8\n        /* \"#utility.yul\":8566:8572   */\n      dup3\n        /* \"#utility.yul\":8555:8564   */\n      dup9\n        /* \"#utility.yul\":8551:8573   */\n      add\n        /* \"#utility.yul\":8530:8583   */\n      tag_203\n      jump\t// in\n    tag_342:\n        /* \"#utility.yul\":8520:8583   */\n      swap3\n      pop\n        /* \"#utility.yul\":8475:8593   */\n      pop\n        /* \"#utility.yul\":8660:8662   */\n      0x60\n        /* \"#utility.yul\":8649:8658   */\n      dup6\n        /* \"#utility.yul\":8645:8663   */\n      add\n        /* \"#utility.yul\":8632:8664   */\n      calldataload\n        /* \"#utility.yul\":8691:8709   */\n      0xffffffffffffffff\n        /* \"#utility.yul\":8683:8689   */\n      dup2\n        /* \"#utility.yul\":8680:8710   */\n      gt\n        /* \"#utility.yul\":8677:8794   */\n      iszero\n      tag_343\n      jumpi\n        /* \"#utility.yul\":8713:8792   */\n      tag_344\n      tag_200\n      jump\t// in\n    tag_344:\n        /* \"#utility.yul\":8677:8794   */\n    tag_343:\n        /* \"#utility.yul\":8818:8880   */\n      tag_345\n        /* \"#utility.yul\":8872:8879   */\n      dup8\n        /* \"#utility.yul\":8863:8869   */\n      dup3\n        /* \"#utility.yul\":8852:8861   */\n      dup9\n        /* \"#utility.yul\":8848:8870   */\n      add\n        /* \"#utility.yul\":8818:8880   */\n      tag_221\n      jump\t// in\n    tag_345:\n        /* \"#utility.yul\":8808:8880   */\n      swap2\n      pop\n        /* \"#utility.yul\":8603:8890   */\n      pop\n        /* \"#utility.yul\":7954:8897   */\n      swap3\n      swap6\n      swap2\n      swap5\n      pop\n      swap3\n      pop\n      jump\t// out\n        /* \"#utility.yul\":8903:9377   */\n    tag_74:\n        /* \"#utility.yul\":8971:8977   */\n      0x00\n        /* \"#utility.yul\":8979:8985   */\n      dup1\n        /* \"#utility.yul\":9028:9030   */\n      0x40\n        /* \"#utility.yul\":9016:9025   */\n      dup4\n        /* \"#utility.yul\":9007:9014   */\n      dup6\n        /* \"#utility.yul\":9003:9026   */\n      sub\n        /* \"#utility.yul\":8999:9031   */\n      slt\n        /* \"#utility.yul\":8996:9115   */\n      iszero\n      tag_347\n      jumpi\n        /* \"#utility.yul\":9034:9113   */\n      tag_348\n      tag_199\n      jump\t// in\n    tag_348:\n        /* \"#utility.yul\":8996:9115   */\n    tag_347:\n        /* \"#utility.yul\":9154:9155   */\n      0x00\n        /* \"#utility.yul\":9179:9232   */\n      tag_349\n        /* \"#utility.yul\":9224:9231   */\n      dup6\n        /* \"#utility.yul\":9215:9221   */\n      dup3\n        /* \"#utility.yul\":9204:9213   */\n      dup7\n        /* \"#utility.yul\":9200:9222   */\n      add\n        /* \"#utility.yul\":9179:9232   */\n      tag_208\n      jump\t// in\n    tag_349:\n        /* \"#utility.yul\":9169:9232   */\n      swap3\n      pop\n        /* \"#utility.yul\":9125:9242   */\n      pop\n        /* \"#utility.yul\":9281:9283   */\n      0x20\n        /* \"#utility.yul\":9307:9360   */\n      tag_350\n        /* \"#utility.yul\":9352:9359   */\n      dup6\n        /* \"#utility.yul\":9343:9349   */\n      dup3\n        /* \"#utility.yul\":9332:9341   */\n      dup7\n        /* \"#utility.yul\":9328:9350   */\n      add\n        /* \"#utility.yul\":9307:9360   */\n      tag_208\n      jump\t// in\n    tag_350:\n        /* \"#utility.yul\":9297:9360   */\n      swap2\n      pop\n        /* \"#utility.yul\":9252:9370   */\n      pop\n        /* \"#utility.yul\":8903:9377   */\n      swap3\n      pop\n      swap3\n      swap1\n      pop\n      jump\t// out\n        /* \"#utility.yul\":9383:9492   */\n    tag_222:\n        /* \"#utility.yul\":9464:9485   */\n      tag_352\n        /* \"#utility.yul\":9479:9484   */\n      dup2\n        /* \"#utility.yul\":9464:9485   */\n      tag_210\n      jump\t// in\n    tag_352:\n        /* \"#utility.yul\":9459:9462   */\n      dup3\n        /* \"#utility.yul\":9452:9486   */\n      mstore\n        /* \"#utility.yul\":9383:9492   */\n      pop\n      pop\n      jump\t// out\n        /* \"#utility.yul\":9498:9708   */\n    tag_77:\n        /* \"#utility.yul\":9585:9589   */\n      0x00\n        /* \"#utility.yul\":9623:9625   */\n      0x20\n        /* \"#utility.yul\":9612:9621   */\n      dup3\n        /* \"#utility.yul\":9608:9626   */\n      add\n        /* \"#utility.yul\":9600:9626   */\n      swap1\n      pop\n        /* \"#utility.yul\":9636:9701   */\n      tag_354\n        /* \"#utility.yul\":9698:9699   */\n      0x00\n        /* \"#utility.yul\":9687:9696   */\n      dup4\n        /* \"#utility.yul\":9683:9700   */\n      add\n        /* \"#utility.yul\":9674:9680   */\n      dup5\n        /* \"#utility.yul\":9636:9701   */\n      tag_222\n      jump\t// in\n    tag_354:\n        /* \"#utility.yul\":9498:9708   */\n      swap3\n      swap2\n      pop\n      pop\n      jump\t// out\n        /* \"#utility.yul\":9714:9894   */\n    tag_223:\n        /* \"#utility.yul\":9762:9839   */\n      0x4e487b7100000000000000000000000000000000000000000000000000000000\n        /* \"#utility.yul\":9759:9760   */\n      0x00\n        /* \"#utility.yul\":9752:9840   */\n      mstore\n        /* \"#utility.yul\":9859:9863   */\n      0x22\n        /* \"#utility.yul\":9856:9857   */\n      0x04\n        /* \"#utility.yul\":9849:9864   */\n      mstore\n        /* \"#utility.yul\":9883:9887   */\n      0x24\n        /* \"#utility.yul\":9880:9881   */\n      0x00\n        /* \"#utility.yul\":9873:9888   */\n      revert\n        /* \"#utility.yul\":9900:10220   */\n    tag_80:\n        /* \"#utility.yul\":9944:9950   */\n      0x00\n        /* \"#utility.yul\":9981:9982   */\n      0x02\n        /* \"#utility.yul\":9975:9979   */\n      dup3\n        /* \"#utility.yul\":9971:9983   */\n      div\n        /* \"#utility.yul\":9961:9983   */\n      swap1\n      pop\n        /* \"#utility.yul\":10028:10029   */\n      0x01\n        /* \"#utility.yul\":10022:10026   */\n      dup3\n        /* \"#utility.yul\":10018:10030   */\n      and\n        /* \"#utility.yul\":10049:10067   */\n      dup1\n        /* \"#utility.yul\":10039:10120   */\n      tag_357\n      jumpi\n        /* \"#utility.yul\":10105:10109   */\n      0x7f\n        /* \"#utility.yul\":10097:10103   */\n      dup3\n        /* \"#utility.yul\":10093:10110   */\n      and\n        /* \"#utility.yul\":10083:10110   */\n      swap2\n      pop\n        /* \"#utility.yul\":10039:10120   */\n    tag_357:\n        /* \"#utility.yul\":10167:10169   */\n      0x20\n        /* \"#utility.yul\":10159:10165   */\n      dup3\n        /* \"#utility.yul\":10156:10170   */\n      lt\n        /* \"#utility.yul\":10136:10154   */\n      dup2\n        /* \"#utility.yul\":10133:10171   */\n      sub\n        /* \"#utility.yul\":10130:10214   */\n      tag_358\n      jumpi\n        /* \"#utility.yul\":10186:10204   */\n      tag_359\n      tag_223\n      jump\t// in\n    tag_359:\n        /* \"#utility.yul\":10130:10214   */\n    tag_358:\n        /* \"#utility.yul\":9951:10220   */\n      pop\n        /* \"#utility.yul\":9900:10220   */\n      swap2\n      swap1\n      pop\n      jump\t// out\n        /* \"#utility.yul\":10226:10446   */\n    tag_224:\n        /* \"#utility.yul\":10366:10400   */\n      0x4552433732313a20617070726f76616c20746f2063757272656e74206f776e65\n        /* \"#utility.yul\":10362:10363   */\n      0x00\n        /* \"#utility.yul\":10354:10360   */\n      dup3\n        /* \"#utility.yul\":10350:10364   */\n      add\n        /* \"#utility.yul\":10343:10401   */\n      mstore\n        /* \"#utility.yul\":10435:10438   */\n      0x7200000000000000000000000000000000000000000000000000000000000000\n        /* \"#utility.yul\":10430:10432   */\n      0x20\n        /* \"#utility.yul\":10422:10428   */\n      dup3\n        /* \"#utility.yul\":10418:10433   */\n      add\n        /* \"#utility.yul\":10411:10439   */\n      mstore\n        /* \"#utility.yul\":10226:10446   */\n      pop\n      jump\t// out\n        /* \"#utility.yul\":10452:10818   */\n    tag_225:\n        /* \"#utility.yul\":10594:10597   */\n      0x00\n        /* \"#utility.yul\":10615:10682   */\n      tag_362\n        /* \"#utility.yul\":10679:10681   */\n      0x21\n        /* \"#utility.yul\":10674:10677   */\n      dup4\n        /* \"#utility.yul\":10615:10682   */\n      tag_194\n      jump\t// in\n    tag_362:\n        /* \"#utility.yul\":10608:10682   */\n      swap2\n      pop\n        /* \"#utility.yul\":10691:10784   */\n      tag_363\n        /* \"#utility.yul\":10780:10783   */\n      dup3\n        /* \"#utility.yul\":10691:10784   */\n      tag_224\n      jump\t// in\n    tag_363:\n        /* \"#utility.yul\":10809:10811   */\n      0x40\n        /* \"#utility.yul\":10804:10807   */\n      dup3\n        /* \"#utility.yul\":10800:10812   */\n      add\n        /* \"#utility.yul\":10793:10812   */\n      swap1\n      pop\n        /* \"#utility.yul\":10452:10818   */\n      swap2\n      swap1\n      pop\n      jump\t// out\n        /* \"#utility.yul\":10824:11243   */\n    tag_92:\n        /* \"#utility.yul\":10990:10994   */\n      0x00\n        /* \"#utility.yul\":11028:11030   */\n      0x20\n        /* \"#utility.yul\":11017:11026   */\n      dup3\n        /* \"#utility.yul\":11013:11031   */\n      add\n        /* \"#utility.yul\":11005:11031   */\n      swap1\n      pop\n        /* \"#utility.yul\":11077:11086   */\n      dup2\n        /* \"#utility.yul\":11071:11075   */\n      dup2\n        /* \"#utility.yul\":11067:11087   */\n      sub\n        /* \"#utility.yul\":11063:11064   */\n      0x00\n        /* \"#utility.yul\":11052:11061   */\n      dup4\n        /* \"#utility.yul\":11048:11065   */\n      add\n        /* \"#utility.yul\":11041:11088   */\n      mstore\n        /* \"#utility.yul\":11105:11236   */\n      tag_365\n        /* \"#utility.yul\":11231:11235   */\n      dup2\n        /* \"#utility.yul\":11105:11236   */\n      tag_225\n      jump\t// in\n    tag_365:\n        /* \"#utility.yul\":11097:11236   */\n      swap1\n      pop\n        /* \"#utility.yul\":10824:11243   */\n      swap2\n      swap1\n      pop\n      jump\t// out\n        /* \"#utility.yul\":11249:11497   */\n    tag_226:\n        /* \"#utility.yul\":11389:11423   */\n      0x4552433732313a20617070726f76652063616c6c6572206973206e6f7420746f\n        /* \"#utility.yul\":11385:11386   */\n      0x00\n        /* \"#utility.yul\":11377:11383   */\n      dup3\n        /* \"#utility.yul\":11373:11387   */\n      add\n        /* \"#utility.yul\":11366:11424   */\n      mstore\n        /* \"#utility.yul\":11458:11489   */\n      0x6b656e206f776e6572206f7220617070726f76656420666f7220616c6c000000\n        /* \"#utility.yul\":11453:11455   */\n      0x20\n        /* \"#utility.yul\":11445:11451   */\n      dup3\n        /* \"#utility.yul\":11441:11456   */\n      add\n        /* \"#utility.yul\":11434:11490   */\n      mstore\n        /* \"#utility.yul\":11249:11497   */\n      pop\n      jump\t// out\n        /* \"#utility.yul\":11503:11869   */\n    tag_227:\n        /* \"#utility.yul\":11645:11648   */\n      0x00\n        /* \"#utility.yul\":11666:11733   */\n      tag_368\n        /* \"#utility.yul\":11730:11732   */\n      0x3d\n        /* \"#utility.yul\":11725:11728   */\n      dup4\n        /* \"#utility.yul\":11666:11733   */\n      tag_194\n      jump\t// in\n    tag_368:\n        /* \"#utility.yul\":11659:11733   */\n      swap2\n      pop\n        /* \"#utility.yul\":11742:11835   */\n      tag_369\n        /* \"#utility.yul\":11831:11834   */\n      dup3\n        /* \"#utility.yul\":11742:11835   */\n      tag_226\n      jump\t// in\n    tag_369:\n        /* \"#utility.yul\":11860:11862   */\n      0x40\n        /* \"#utility.yul\":11855:11858   */\n      dup3\n        /* \"#utility.yul\":11851:11863   */\n      add\n        /* \"#utility.yul\":11844:11863   */\n      swap1\n      pop\n        /* \"#utility.yul\":11503:11869   */\n      swap2\n      swap1\n      pop\n      jump\t// out\n        /* \"#utility.yul\":11875:12294   */\n    tag_100:\n        /* \"#utility.yul\":12041:12045   */\n      0x00\n        /* \"#utility.yul\":12079:12081   */\n      0x20\n        /* \"#utility.yul\":12068:12077   */\n      dup3\n        /* \"#utility.yul\":12064:12082   */\n      add\n        /* \"#utility.yul\":12056:12082   */\n      swap1\n      pop\n        /* \"#utility.yul\":12128:12137   */\n      dup2\n        /* \"#utility.yul\":12122:12126   */\n      dup2\n        /* \"#utility.yul\":12118:12138   */\n      sub\n        /* \"#utility.yul\":12114:12115   */\n      0x00\n        /* \"#utility.yul\":12103:12112   */\n      dup4\n        /* \"#utility.yul\":12099:12116   */\n      add\n        /* \"#utility.yul\":12092:12139   */\n      mstore\n        /* \"#utility.yul\":12156:12287   */\n      tag_371\n        /* \"#utility.yul\":12282:12286   */\n      dup2\n        /* \"#utility.yul\":12156:12287   */\n      tag_227\n      jump\t// in\n    tag_371:\n        /* \"#utility.yul\":12148:12287   */\n      swap1\n      pop\n        /* \"#utility.yul\":11875:12294   */\n      swap2\n      swap1\n      pop\n      jump\t// out\n        /* \"#utility.yul\":12300:12632   */\n    tag_102:\n        /* \"#utility.yul\":12421:12425   */\n      0x00\n        /* \"#utility.yul\":12459:12461   */\n      0x40\n        /* \"#utility.yul\":12448:12457   */\n      dup3\n        /* \"#utility.yul\":12444:12462   */\n      add\n        /* \"#utility.yul\":12436:12462   */\n      swap1\n      pop\n        /* \"#utility.yul\":12472:12543   */\n      tag_373\n        /* \"#utility.yul\":12540:12541   */\n      0x00\n        /* \"#utility.yul\":12529:12538   */\n      dup4\n        /* \"#utility.yul\":12525:12542   */\n      add\n        /* \"#utility.yul\":12516:12522   */\n      dup6\n        /* \"#utility.yul\":12472:12543   */\n      tag_206\n      jump\t// in\n    tag_373:\n        /* \"#utility.yul\":12553:12625   */\n      tag_374\n        /* \"#utility.yul\":12621:12623   */\n      0x20\n        /* \"#utility.yul\":12610:12619   */\n      dup4\n        /* \"#utility.yul\":12606:12624   */\n      add\n        /* \"#utility.yul\":12597:12603   */\n      dup5\n        /* \"#utility.yul\":12553:12625   */\n      tag_209\n      jump\t// in\n    tag_374:\n        /* \"#utility.yul\":12300:12632   */\n      swap4\n      swap3\n      pop\n      pop\n      pop\n      jump\t// out\n        /* \"#utility.yul\":12638:12736   */\n    tag_228:\n        /* \"#utility.yul\":12689:12695   */\n      0x00\n        /* \"#utility.yul\":12723:12728   */\n      dup2\n        /* \"#utility.yul\":12717:12729   */\n      mload\n        /* \"#utility.yul\":12707:12729   */\n      swap1\n      pop\n        /* \"#utility.yul\":12638:12736   */\n      swap2\n      swap1\n      pop\n      jump\t// out\n        /* \"#utility.yul\":12742:12889   */\n    tag_229:\n        /* \"#utility.yul\":12843:12854   */\n      0x00\n        /* \"#utility.yul\":12880:12883   */\n      dup2\n        /* \"#utility.yul\":12865:12883   */\n      swap1\n      pop\n        /* \"#utility.yul\":12742:12889   */\n      swap3\n      swap2\n      pop\n      pop\n      jump\t// out\n        /* \"#utility.yul\":12895:13281   */\n    tag_230:\n        /* \"#utility.yul\":12999:13002   */\n      0x00\n        /* \"#utility.yul\":13027:13065   */\n      tag_378\n        /* \"#utility.yul\":13059:13064   */\n      dup3\n        /* \"#utility.yul\":13027:13065   */\n      tag_228\n      jump\t// in\n    tag_378:\n        /* \"#utility.yul\":13081:13169   */\n      tag_379\n        /* \"#utility.yul\":13162:13168   */\n      dup2\n        /* \"#utility.yul\":13157:13160   */\n      dup6\n        /* \"#utility.yul\":13081:13169   */\n      tag_229\n      jump\t// in\n    tag_379:\n        /* \"#utility.yul\":13074:13169   */\n      swap4\n      pop\n        /* \"#utility.yul\":13178:13243   */\n      tag_380\n        /* \"#utility.yul\":13236:13242   */\n      dup2\n        /* \"#utility.yul\":13231:13234   */\n      dup6\n        /* \"#utility.yul\":13224:13228   */\n      0x20\n        /* \"#utility.yul\":13217:13222   */\n      dup7\n        /* \"#utility.yul\":13213:13229   */\n      add\n        /* \"#utility.yul\":13178:13243   */\n      tag_195\n      jump\t// in\n    tag_380:\n        /* \"#utility.yul\":13268:13274   */\n      dup1\n        /* \"#utility.yul\":13263:13266   */\n      dup5\n        /* \"#utility.yul\":13259:13275   */\n      add\n        /* \"#utility.yul\":13252:13275   */\n      swap2\n      pop\n        /* \"#utility.yul\":13003:13281   */\n      pop\n        /* \"#utility.yul\":12895:13281   */\n      swap3\n      swap2\n      pop\n      pop\n      jump\t// out\n        /* \"#utility.yul\":13287:13558   */\n    tag_104:\n        /* \"#utility.yul\":13417:13420   */\n      0x00\n        /* \"#utility.yul\":13439:13532   */\n      tag_382\n        /* \"#utility.yul\":13528:13531   */\n      dup3\n        /* \"#utility.yul\":13519:13525   */\n      dup5\n        /* \"#utility.yul\":13439:13532   */\n      tag_230\n      jump\t// in\n    tag_382:\n        /* \"#utility.yul\":13432:13532   */\n      swap2\n      pop\n        /* \"#utility.yul\":13549:13552   */\n      dup2\n        /* \"#utility.yul\":13542:13552   */\n      swap1\n      pop\n        /* \"#utility.yul\":13287:13558   */\n      swap3\n      swap2\n      pop\n      pop\n      jump\t// out\n        /* \"#utility.yul\":13564:13796   */\n    tag_231:\n        /* \"#utility.yul\":13704:13738   */\n      0x4552433732313a2063616c6c6572206973206e6f7420746f6b656e206f776e65\n        /* \"#utility.yul\":13700:13701   */\n      0x00\n        /* \"#utility.yul\":13692:13698   */\n      dup3\n        /* \"#utility.yul\":13688:13702   */\n      add\n        /* \"#utility.yul\":13681:13739   */\n      mstore\n        /* \"#utility.yul\":13773:13788   */\n      0x72206f7220617070726f76656400000000000000000000000000000000000000\n        /* \"#utility.yul\":13768:13770   */\n      0x20\n        /* \"#utility.yul\":13760:13766   */\n      dup3\n        /* \"#utility.yul\":13756:13771   */\n      add\n        /* \"#utility.yul\":13749:13789   */\n      mstore\n        /* \"#utility.yul\":13564:13796   */\n      pop\n      jump\t// out\n        /* \"#utility.yul\":13802:14168   */\n    tag_232:\n        /* \"#utility.yul\":13944:13947   */\n      0x00\n        /* \"#utility.yul\":13965:14032   */\n      tag_385\n        /* \"#utility.yul\":14029:14031   */\n      0x2d\n        /* \"#utility.yul\":14024:14027   */\n      dup4\n        /* \"#utility.yul\":13965:14032   */\n      tag_194\n      jump\t// in\n    tag_385:\n        /* \"#utility.yul\":13958:14032   */\n      swap2\n      pop\n        /* \"#utility.yul\":14041:14134   */\n      tag_386\n        /* \"#utility.yul\":14130:14133   */\n      dup3\n        /* \"#utility.yul\":14041:14134   */\n      tag_231\n      jump\t// in\n    tag_386:\n        /* \"#utility.yul\":14159:14161   */\n      0x40\n        /* \"#utility.yul\":14154:14157   */\n      dup3\n        /* \"#utility.yul\":14150:14162   */\n      add\n        /* \"#utility.yul\":14143:14162   */\n      swap1\n      pop\n        /* \"#utility.yul\":13802:14168   */\n      swap2\n      swap1\n      pop\n      jump\t// out\n        /* \"#utility.yul\":14174:14593   */\n    tag_114:\n        /* \"#utility.yul\":14340:14344   */\n      0x00\n        /* \"#utility.yul\":14378:14380   */\n      0x20\n        /* \"#utility.yul\":14367:14376   */\n      dup3\n        /* \"#utility.yul\":14363:14381   */\n      add\n        /* \"#utility.yul\":14355:14381   */\n      swap1\n      pop\n        /* \"#utility.yul\":14427:14436   */\n      dup2\n        /* \"#utility.yul\":14421:14425   */\n      dup2\n        /* \"#utility.yul\":14417:14437   */\n      sub\n        /* \"#utility.yul\":14413:14414   */\n      0x00\n        /* \"#utility.yul\":14402:14411   */\n      dup4\n        /* \"#utility.yul\":14398:14415   */\n      add\n        /* \"#utility.yul\":14391:14438   */\n      mstore\n        /* \"#utility.yul\":14455:14586   */\n      tag_388\n        /* \"#utility.yul\":14581:14585   */\n      dup2\n        /* \"#utility.yul\":14455:14586   */\n      tag_232\n      jump\t// in\n    tag_388:\n        /* \"#utility.yul\":14447:14586   */\n      swap1\n      pop\n        /* \"#utility.yul\":14174:14593   */\n      swap2\n      swap1\n      pop\n      jump\t// out\n        /* \"#utility.yul\":14599:15041   */\n    tag_116:\n        /* \"#utility.yul\":14748:14752   */\n      0x00\n        /* \"#utility.yul\":14786:14788   */\n      0x60\n        /* \"#utility.yul\":14775:14784   */\n      dup3\n        /* \"#utility.yul\":14771:14789   */\n      add\n        /* \"#utility.yul\":14763:14789   */\n      swap1\n      pop\n        /* \"#utility.yul\":14799:14870   */\n      tag_390\n        /* \"#utility.yul\":14867:14868   */\n      0x00\n        /* \"#utility.yul\":14856:14865   */\n      dup4\n        /* \"#utility.yul\":14852:14869   */\n      add\n        /* \"#utility.yul\":14843:14849   */\n      dup7\n        /* \"#utility.yul\":14799:14870   */\n      tag_206\n      jump\t// in\n    tag_390:\n        /* \"#utility.yul\":14880:14952   */\n      tag_391\n        /* \"#utility.yul\":14948:14950   */\n      0x20\n        /* \"#utility.yul\":14937:14946   */\n      dup4\n        /* \"#utility.yul\":14933:14951   */\n      add\n        /* \"#utility.yul\":14924:14930   */\n      dup6\n        /* \"#utility.yul\":14880:14952   */\n      tag_206\n      jump\t// in\n    tag_391:\n        /* \"#utility.yul\":14962:15034   */\n      tag_392\n        /* \"#utility.yul\":15030:15032   */\n      0x40\n        /* \"#utility.yul\":15019:15028   */\n      dup4\n        /* \"#utility.yul\":15015:15033   */\n      add\n        /* \"#utility.yul\":15006:15012   */\n      dup5\n        /* \"#utility.yul\":14962:15034   */\n      tag_209\n      jump\t// in\n    tag_392:\n        /* \"#utility.yul\":14599:15041   */\n      swap5\n      swap4\n      pop\n      pop\n      pop\n      pop\n      jump\t// out\n        /* \"#utility.yul\":15047:15221   */\n    tag_233:\n        /* \"#utility.yul\":15187:15213   */\n      0x4552433732313a20696e76616c696420746f6b656e2049440000000000000000\n        /* \"#utility.yul\":15183:15184   */\n      0x00\n        /* \"#utility.yul\":15175:15181   */\n      dup3\n        /* \"#utility.yul\":15171:15185   */\n      add\n        /* \"#utility.yul\":15164:15214   */\n      mstore\n        /* \"#utility.yul\":15047:15221   */\n      pop\n      jump\t// out\n        /* \"#utility.yul\":15227:15593   */\n    tag_234:\n        /* \"#utility.yul\":15369:15372   */\n      0x00\n        /* \"#utility.yul\":15390:15457   */\n      tag_395\n        /* \"#utility.yul\":15454:15456   */\n      0x18\n        /* \"#utility.yul\":15449:15452   */\n      dup4\n        /* \"#utility.yul\":15390:15457   */\n      tag_194\n      jump\t// in\n    tag_395:\n        /* \"#utility.yul\":15383:15457   */\n      swap2\n      pop\n        /* \"#utility.yul\":15466:15559   */\n      tag_396\n        /* \"#utility.yul\":15555:15558   */\n      dup3\n        /* \"#utility.yul\":15466:15559   */\n      tag_233\n      jump\t// in\n    tag_396:\n        /* \"#utility.yul\":15584:15586   */\n      0x20\n        /* \"#utility.yul\":15579:15582   */\n      dup3\n        /* \"#utility.yul\":15575:15587   */\n      add\n        /* \"#utility.yul\":15568:15587   */\n      swap1\n      pop\n        /* \"#utility.yul\":15227:15593   */\n      swap2\n      swap1\n      pop\n      jump\t// out\n        /* \"#utility.yul\":15599:16018   */\n    tag_132:\n        /* \"#utility.yul\":15765:15769   */\n      0x00\n        /* \"#utility.yul\":15803:15805   */\n      0x20\n        /* \"#utility.yul\":15792:15801   */\n      dup3\n        /* \"#utility.yul\":15788:15806   */\n      add\n        /* \"#utility.yul\":15780:15806   */\n      swap1\n      pop\n        /* \"#utility.yul\":15852:15861   */\n      dup2\n        /* \"#utility.yul\":15846:15850   */\n      dup2\n        /* \"#utility.yul\":15842:15862   */\n      sub\n        /* \"#utility.yul\":15838:15839   */\n      0x00\n        /* \"#utility.yul\":15827:15836   */\n      dup4\n        /* \"#utility.yul\":15823:15840   */\n      add\n        /* \"#utility.yul\":15816:15863   */\n      mstore\n        /* \"#utility.yul\":15880:16011   */\n      tag_398\n        /* \"#utility.yul\":16006:16010   */\n      dup2\n        /* \"#utility.yul\":15880:16011   */\n      tag_234\n      jump\t// in\n    tag_398:\n        /* \"#utility.yul\":15872:16011   */\n      swap1\n      pop\n        /* \"#utility.yul\":15599:16018   */\n      swap2\n      swap1\n      pop\n      jump\t// out\n        /* \"#utility.yul\":16024:16252   */\n    tag_235:\n        /* \"#utility.yul\":16164:16198   */\n      0x4552433732313a2061646472657373207a65726f206973206e6f742061207661\n        /* \"#utility.yul\":16160:16161   */\n      0x00\n        /* \"#utility.yul\":16152:16158   */\n      dup3\n        /* \"#utility.yul\":16148:16162   */\n      add\n        /* \"#utility.yul\":16141:16199   */\n      mstore\n        /* \"#utility.yul\":16233:16244   */\n      0x6c6964206f776e65720000000000000000000000000000000000000000000000\n        /* \"#utility.yul\":16228:16230   */\n      0x20\n        /* \"#utility.yul\":16220:16226   */\n      dup3\n        /* \"#utility.yul\":16216:16231   */\n      add\n        /* \"#utility.yul\":16209:16245   */\n      mstore\n        /* \"#utility.yul\":16024:16252   */\n      pop\n      jump\t// out\n        /* \"#utility.yul\":16258:16624   */\n    tag_236:\n        /* \"#utility.yul\":16400:16403   */\n      0x00\n        /* \"#utility.yul\":16421:16488   */\n      tag_401\n        /* \"#utility.yul\":16485:16487   */\n      0x29\n        /* \"#utility.yul\":16480:16483   */\n      dup4\n        /* \"#utility.yul\":16421:16488   */\n      tag_194\n      jump\t// in\n    tag_401:\n        /* \"#utility.yul\":16414:16488   */\n      swap2\n      pop\n        /* \"#utility.yul\":16497:16590   */\n      tag_402\n        /* \"#utility.yul\":16586:16589   */\n      dup3\n        /* \"#utility.yul\":16497:16590   */\n      tag_235\n      jump\t// in\n    tag_402:\n        /* \"#utility.yul\":16615:16617   */\n      0x40\n        /* \"#utility.yul\":16610:16613   */\n      dup3\n        /* \"#utility.yul\":16606:16618   */\n      add\n        /* \"#utility.yul\":16599:16618   */\n      swap1\n      pop\n        /* \"#utility.yul\":16258:16624   */\n      swap2\n      swap1\n      pop\n      jump\t// out\n        /* \"#utility.yul\":16630:17049   */\n    tag_136:\n        /* \"#utility.yul\":16796:16800   */\n      0x00\n        /* \"#utility.yul\":16834:16836   */\n      0x20\n        /* \"#utility.yul\":16823:16832   */\n      dup3\n        /* \"#utility.yul\":16819:16837   */\n      add\n        /* \"#utility.yul\":16811:16837   */\n      swap1\n      pop\n        /* \"#utility.yul\":16883:16892   */\n      dup2\n        /* \"#utility.yul\":16877:16881   */\n      dup2\n        /* \"#utility.yul\":16873:16893   */\n      sub\n        /* \"#utility.yul\":16869:16870   */\n      0x00\n        /* \"#utility.yul\":16858:16867   */\n      dup4\n        /* \"#utility.yul\":16854:16871   */\n      add\n        /* \"#utility.yul\":16847:16894   */\n      mstore\n        /* \"#utility.yul\":16911:17042   */\n      tag_404\n        /* \"#utility.yul\":17037:17041   */\n      dup2\n        /* \"#utility.yul\":16911:17042   */\n      tag_236\n      jump\t// in\n    tag_404:\n        /* \"#utility.yul\":16903:17042   */\n      swap1\n      pop\n        /* \"#utility.yul\":16630:17049   */\n      swap2\n      swap1\n      pop\n      jump\t// out\n        /* \"#utility.yul\":17055:17375   */\n    tag_152:\n        /* \"#utility.yul\":17170:17174   */\n      0x00\n        /* \"#utility.yul\":17208:17210   */\n      0x40\n        /* \"#utility.yul\":17197:17206   */\n      dup3\n        /* \"#utility.yul\":17193:17211   */\n      add\n        /* \"#utility.yul\":17185:17211   */\n      swap1\n      pop\n        /* \"#utility.yul\":17221:17292   */\n      tag_406\n        /* \"#utility.yul\":17289:17290   */\n      0x00\n        /* \"#utility.yul\":17278:17287   */\n      dup4\n        /* \"#utility.yul\":17274:17291   */\n      add\n        /* \"#utility.yul\":17265:17271   */\n      dup6\n        /* \"#utility.yul\":17221:17292   */\n      tag_206\n      jump\t// in\n    tag_406:\n        /* \"#utility.yul\":17302:17368   */\n      tag_407\n        /* \"#utility.yul\":17364:17366   */\n      0x20\n        /* \"#utility.yul\":17353:17362   */\n      dup4\n        /* \"#utility.yul\":17349:17367   */\n      add\n        /* \"#utility.yul\":17340:17346   */\n      dup5\n        /* \"#utility.yul\":17302:17368   */\n      tag_222\n      jump\t// in\n    tag_407:\n        /* \"#utility.yul\":17055:17375   */\n      swap4\n      swap3\n      pop\n      pop\n      pop\n      jump\t// out\n        /* \"#utility.yul\":17381:17549   */\n    tag_237:\n        /* \"#utility.yul\":17464:17475   */\n      0x00\n        /* \"#utility.yul\":17498:17504   */\n      dup3\n        /* \"#utility.yul\":17493:17496   */\n      dup3\n        /* \"#utility.yul\":17486:17505   */\n      mstore\n        /* \"#utility.yul\":17538:17542   */\n      0x20\n        /* \"#utility.yul\":17533:17536   */\n      dup3\n        /* \"#utility.yul\":17529:17543   */\n      add\n        /* \"#utility.yul\":17514:17543   */\n      swap1\n      pop\n        /* \"#utility.yul\":17381:17549   */\n      swap3\n      swap2\n      pop\n      pop\n      jump\t// out\n        /* \"#utility.yul\":17555:17928   */\n    tag_238:\n        /* \"#utility.yul\":17641:17644   */\n      0x00\n        /* \"#utility.yul\":17669:17707   */\n      tag_410\n        /* \"#utility.yul\":17701:17706   */\n      dup3\n        /* \"#utility.yul\":17669:17707   */\n      tag_228\n      jump\t// in\n    tag_410:\n        /* \"#utility.yul\":17723:17793   */\n      tag_411\n        /* \"#utility.yul\":17786:17792   */\n      dup2\n        /* \"#utility.yul\":17781:17784   */\n      dup6\n        /* \"#utility.yul\":17723:17793   */\n      tag_237\n      jump\t// in\n    tag_411:\n        /* \"#utility.yul\":17716:17793   */\n      swap4\n      pop\n        /* \"#utility.yul\":17802:17867   */\n      tag_412\n        /* \"#utility.yul\":17860:17866   */\n      dup2\n        /* \"#utility.yul\":17855:17858   */\n      dup6\n        /* \"#utility.yul\":17848:17852   */\n      0x20\n        /* \"#utility.yul\":17841:17846   */\n      dup7\n        /* \"#utility.yul\":17837:17853   */\n      add\n        /* \"#utility.yul\":17802:17867   */\n      tag_195\n      jump\t// in\n    tag_412:\n        /* \"#utility.yul\":17892:17921   */\n      tag_413\n        /* \"#utility.yul\":17914:17920   */\n      dup2\n        /* \"#utility.yul\":17892:17921   */\n      tag_196\n      jump\t// in\n    tag_413:\n        /* \"#utility.yul\":17887:17890   */\n      dup5\n        /* \"#utility.yul\":17883:17922   */\n      add\n        /* \"#utility.yul\":17876:17922   */\n      swap2\n      pop\n        /* \"#utility.yul\":17645:17928   */\n      pop\n        /* \"#utility.yul\":17555:17928   */\n      swap3\n      swap2\n      pop\n      pop\n      jump\t// out\n        /* \"#utility.yul\":17934:18574   */\n    tag_163:\n        /* \"#utility.yul\":18129:18133   */\n      0x00\n        /* \"#utility.yul\":18167:18170   */\n      0x80\n        /* \"#utility.yul\":18156:18165   */\n      dup3\n        /* \"#utility.yul\":18152:18171   */\n      add\n        /* \"#utility.yul\":18144:18171   */\n      swap1\n      pop\n        /* \"#utility.yul\":18181:18252   */\n      tag_415\n        /* \"#utility.yul\":18249:18250   */\n      0x00\n        /* \"#utility.yul\":18238:18247   */\n      dup4\n        /* \"#utility.yul\":18234:18251   */\n      add\n        /* \"#utility.yul\":18225:18231   */\n      dup8\n        /* \"#utility.yul\":18181:18252   */\n      tag_206\n      jump\t// in\n    tag_415:\n        /* \"#utility.yul\":18262:18334   */\n      tag_416\n        /* \"#utility.yul\":18330:18332   */\n      0x20\n        /* \"#utility.yul\":18319:18328   */\n      dup4\n        /* \"#utility.yul\":18315:18333   */\n      add\n        /* \"#utility.yul\":18306:18312   */\n      dup7\n        /* \"#utility.yul\":18262:18334   */\n      tag_206\n      jump\t// in\n    tag_416:\n        /* \"#utility.yul\":18344:18416   */\n      tag_417\n        /* \"#utility.yul\":18412:18414   */\n      0x40\n        /* \"#utility.yul\":18401:18410   */\n      dup4\n        /* \"#utility.yul\":18397:18415   */\n      add\n        /* \"#utility.yul\":18388:18394   */\n      dup6\n        /* \"#utility.yul\":18344:18416   */\n      tag_209\n      jump\t// in\n    tag_417:\n        /* \"#utility.yul\":18463:18472   */\n      dup2\n        /* \"#utility.yul\":18457:18461   */\n      dup2\n        /* \"#utility.yul\":18453:18473   */\n      sub\n        /* \"#utility.yul\":18448:18450   */\n      0x60\n        /* \"#utility.yul\":18437:18446   */\n      dup4\n        /* \"#utility.yul\":18433:18451   */\n      add\n        /* \"#utility.yul\":18426:18474   */\n      mstore\n        /* \"#utility.yul\":18491:18567   */\n      tag_418\n        /* \"#utility.yul\":18562:18566   */\n      dup2\n        /* \"#utility.yul\":18553:18559   */\n      dup5\n        /* \"#utility.yul\":18491:18567   */\n      tag_238\n      jump\t// in\n    tag_418:\n        /* \"#utility.yul\":18483:18567   */\n      swap1\n      pop\n        /* \"#utility.yul\":17934:18574   */\n      swap6\n      swap5\n      pop\n      pop\n      pop\n      pop\n      pop\n      jump\t// out\n        /* \"#utility.yul\":18580:18888   */\n    tag_239:\n        /* \"#utility.yul\":18642:18646   */\n      0x00\n        /* \"#utility.yul\":18732:18750   */\n      0xffffffffffffffff\n        /* \"#utility.yul\":18724:18730   */\n      dup3\n        /* \"#utility.yul\":18721:18751   */\n      gt\n        /* \"#utility.yul\":18718:18774   */\n      iszero\n      tag_420\n      jumpi\n        /* \"#utility.yul\":18754:18772   */\n      tag_421\n      tag_215\n      jump\t// in\n    tag_421:\n        /* \"#utility.yul\":18718:18774   */\n    tag_420:\n        /* \"#utility.yul\":18792:18821   */\n      tag_422\n        /* \"#utility.yul\":18814:18820   */\n      dup3\n        /* \"#utility.yul\":18792:18821   */\n      tag_196\n      jump\t// in\n    tag_422:\n        /* \"#utility.yul\":18784:18821   */\n      swap1\n      pop\n        /* \"#utility.yul\":18876:18880   */\n      0x20\n        /* \"#utility.yul\":18870:18874   */\n      dup2\n        /* \"#utility.yul\":18866:18881   */\n      add\n        /* \"#utility.yul\":18858:18881   */\n      swap1\n      pop\n        /* \"#utility.yul\":18580:18888   */\n      swap2\n      swap1\n      pop\n      jump\t// out\n        /* \"#utility.yul\":18894:19328   */\n    tag_240:\n        /* \"#utility.yul\":18983:18988   */\n      0x00\n        /* \"#utility.yul\":19008:19074   */\n      tag_424\n        /* \"#utility.yul\":19024:19073   */\n      tag_425\n        /* \"#utility.yul\":19066:19072   */\n      dup5\n        /* \"#utility.yul\":19024:19073   */\n      tag_239\n      jump\t// in\n    tag_425:\n        /* \"#utility.yul\":19008:19074   */\n      tag_217\n      jump\t// in\n    tag_424:\n        /* \"#utility.yul\":18999:19074   */\n      swap1\n      pop\n        /* \"#utility.yul\":19097:19103   */\n      dup3\n        /* \"#utility.yul\":19090:19095   */\n      dup2\n        /* \"#utility.yul\":19083:19104   */\n      mstore\n        /* \"#utility.yul\":19135:19139   */\n      0x20\n        /* \"#utility.yul\":19128:19133   */\n      dup2\n        /* \"#utility.yul\":19124:19140   */\n      add\n        /* \"#utility.yul\":19173:19176   */\n      dup5\n        /* \"#utility.yul\":19164:19170   */\n      dup5\n        /* \"#utility.yul\":19159:19162   */\n      dup5\n        /* \"#utility.yul\":19155:19171   */\n      add\n        /* \"#utility.yul\":19152:19177   */\n      gt\n        /* \"#utility.yul\":19149:19261   */\n      iszero\n      tag_426\n      jumpi\n        /* \"#utility.yul\":19180:19259   */\n      tag_427\n      tag_214\n      jump\t// in\n    tag_427:\n        /* \"#utility.yul\":19149:19261   */\n    tag_426:\n        /* \"#utility.yul\":19270:19322   */\n      tag_428\n        /* \"#utility.yul\":19315:19321   */\n      dup5\n        /* \"#utility.yul\":19310:19313   */\n      dup3\n        /* \"#utility.yul\":19305:19308   */\n      dup6\n        /* \"#utility.yul\":19270:19322   */\n      tag_195\n      jump\t// in\n    tag_428:\n        /* \"#utility.yul\":18989:19328   */\n      pop\n        /* \"#utility.yul\":18894:19328   */\n      swap4\n      swap3\n      pop\n      pop\n      pop\n      jump\t// out\n        /* \"#utility.yul\":19348:19703   */\n    tag_241:\n        /* \"#utility.yul\":19415:19420   */\n      0x00\n        /* \"#utility.yul\":19464:19467   */\n      dup3\n        /* \"#utility.yul\":19457:19461   */\n      0x1f\n        /* \"#utility.yul\":19449:19455   */\n      dup4\n        /* \"#utility.yul\":19445:19462   */\n      add\n        /* \"#utility.yul\":19441:19468   */\n      slt\n        /* \"#utility.yul\":19431:19553   */\n      tag_430\n      jumpi\n        /* \"#utility.yul\":19472:19551   */\n      tag_431\n      tag_213\n      jump\t// in\n    tag_431:\n        /* \"#utility.yul\":19431:19553   */\n    tag_430:\n        /* \"#utility.yul\":19582:19588   */\n      dup2\n        /* \"#utility.yul\":19576:19589   */\n      mload\n        /* \"#utility.yul\":19607:19697   */\n      tag_432\n        /* \"#utility.yul\":19693:19696   */\n      dup5\n        /* \"#utility.yul\":19685:19691   */\n      dup3\n        /* \"#utility.yul\":19678:19682   */\n      0x20\n        /* \"#utility.yul\":19670:19676   */\n      dup7\n        /* \"#utility.yul\":19666:19683   */\n      add\n        /* \"#utility.yul\":19607:19697   */\n      tag_240\n      jump\t// in\n    tag_432:\n        /* \"#utility.yul\":19598:19697   */\n      swap2\n      pop\n        /* \"#utility.yul\":19421:19703   */\n      pop\n        /* \"#utility.yul\":19348:19703   */\n      swap3\n      swap2\n      pop\n      pop\n      jump\t// out\n        /* \"#utility.yul\":19709:20233   */\n    tag_176:\n        /* \"#utility.yul\":19789:19795   */\n      0x00\n        /* \"#utility.yul\":19838:19840   */\n      0x20\n        /* \"#utility.yul\":19826:19835   */\n      dup3\n        /* \"#utility.yul\":19817:19824   */\n      dup5\n        /* \"#utility.yul\":19813:19836   */\n      sub\n        /* \"#utility.yul\":19809:19841   */\n      slt\n        /* \"#utility.yul\":19806:19925   */\n      iszero\n      tag_434\n      jumpi\n        /* \"#utility.yul\":19844:19923   */\n      tag_435\n      tag_199\n      jump\t// in\n    tag_435:\n        /* \"#utility.yul\":19806:19925   */\n    tag_434:\n        /* \"#utility.yul\":19985:19986   */\n      0x00\n        /* \"#utility.yul\":19974:19983   */\n      dup3\n        /* \"#utility.yul\":19970:19987   */\n      add\n        /* \"#utility.yul\":19964:19988   */\n      mload\n        /* \"#utility.yul\":20015:20033   */\n      0xffffffffffffffff\n        /* \"#utility.yul\":20007:20013   */\n      dup2\n        /* \"#utility.yul\":20004:20034   */\n      gt\n        /* \"#utility.yul\":20001:20118   */\n      iszero\n      tag_436\n      jumpi\n        /* \"#utility.yul\":20037:20116   */\n      tag_437\n      tag_200\n      jump\t// in\n    tag_437:\n        /* \"#utility.yul\":20001:20118   */\n    tag_436:\n        /* \"#utility.yul\":20142:20216   */\n      tag_438\n        /* \"#utility.yul\":20208:20215   */\n      dup5\n        /* \"#utility.yul\":20199:20205   */\n      dup3\n        /* \"#utility.yul\":20188:20197   */\n      dup6\n        /* \"#utility.yul\":20184:20206   */\n      add\n        /* \"#utility.yul\":20142:20216   */\n      tag_241\n      jump\t// in\n    tag_438:\n        /* \"#utility.yul\":20132:20216   */\n      swap2\n      pop\n        /* \"#utility.yul\":19935:20226   */\n      pop\n        /* \"#utility.yul\":19709:20233   */\n      swap3\n      swap2\n      pop\n      pop\n      jump\t// out\n\n    auxdata: 0xa26469706673582212205c20a6d8285b47492367001fc51645491227ce25f9e8a57c95234e452cd93a5564736f6c63430008140033\n}\n",
				"bytecode": {
					"linkReferences": {},
					"object": "608060405234801562000010575f80fd5b506040516200242e3803806200242e8339818101604052810190620000369190620003a9565b8260065f6101000a81548173ffffffffffffffffffffffffffffffffffffffff021916908373ffffffffffffffffffffffffffffffffffffffff160217905550815f908162000086919062000677565b50806001908162000098919062000677565b505f8060065f9054906101000a900473ffffffffffffffffffffffffffffffffffffffff1673ffffffffffffffffffffffffffffffffffffffff168484604051602401620000e8929190620007ab565b6040516020818303038152906040527ff1bd332d000000000000000000000000000000000000000000000000000000007bffffffffffffffffffffffffffffffffffffffffffffffffffffffff19166020820180517bffffffffffffffffffffffffffffffffffffffffffffffffffffffff83818316178352505050506040516200017491906200082e565b5f60405180830381855af49150503d805f8114620001ae576040519150601f19603f3d011682016040523d82523d5f602084013e620001b3565b606091505b5091509150505050505062000846565b5f604051905090565b5f80fd5b5f80fd5b5f73ffffffffffffffffffffffffffffffffffffffff82169050919050565b5f620001ff82620001d4565b9050919050565b6200021181620001f3565b81146200021c575f80fd5b50565b5f815190506200022f8162000206565b92915050565b5f80fd5b5f80fd5b5f601f19601f8301169050919050565b7f4e487b71000000000000000000000000000000000000000000000000000000005f52604160045260245ffd5b62000285826200023d565b810181811067ffffffffffffffff82111715620002a757620002a66200024d565b5b80604052505050565b5f620002bb620001c3565b9050620002c982826200027a565b919050565b5f67ffffffffffffffff821115620002eb57620002ea6200024d565b5b620002f6826200023d565b9050602081019050919050565b5f5b838110156200032257808201518184015260208101905062000305565b5f8484015250505050565b5f620003436200033d84620002ce565b620002b0565b90508281526020810184848401111562000362576200036162000239565b5b6200036f84828562000303565b509392505050565b5f82601f8301126200038e576200038d62000235565b5b8151620003a08482602086016200032d565b91505092915050565b5f805f60608486031215620003c357620003c2620001cc565b5b5f620003d2868287016200021f565b935050602084015167ffffffffffffffff811115620003f657620003f5620001d0565b5b620004048682870162000377565b925050604084015167ffffffffffffffff811115620004285762000427620001d0565b5b620004368682870162000377565b9150509250925092565b5f81519050919050565b7f4e487b71000000000000000000000000000000000000000000000000000000005f52602260045260245ffd5b5f60028204905060018216806200048f57607f821691505b602082108103620004a557620004a46200044a565b5b50919050565b5f819050815f5260205f209050919050565b5f6020601f8301049050919050565b5f82821b905092915050565b5f60088302620005097fffffffffffffffffffffffffffffffffffffffffffffffffffffffffffffffff82620004cc565b620005158683620004cc565b95508019841693508086168417925050509392505050565b5f819050919050565b5f819050919050565b5f6200055f6200055962000553846200052d565b62000536565b6200052d565b9050919050565b5f819050919050565b6200057a836200053f565b62000592620005898262000566565b848454620004d8565b825550505050565b5f90565b620005a86200059a565b620005b58184846200056f565b505050565b5b81811015620005dc57620005d05f826200059e565b600181019050620005bb565b5050565b601f8211156200062b57620005f581620004ab565b6200060084620004bd565b8101602085101562000610578190505b620006286200061f85620004bd565b830182620005ba565b50505b505050565b5f82821c905092915050565b5f6200064d5f198460080262000630565b1980831691505092915050565b5f6200066783836200063c565b9150826002028217905092915050565b620006828262000440565b67ffffffffffffffff8111156200069e576200069d6200024d565b5b620006aa825462000477565b620006b7828285620005e0565b5f60209050601f831160018114620006ed575f8415620006d8578287015190505b620006e485826200065a565b86555062000753565b601f198416620006fd86620004ab565b5f5b828110156200072657848901518255600182019150602085019450602081019050620006ff565b8683101562000746578489015162000742601f8916826200063c565b8355505b6001600288020188555050505b505050505050565b5f82825260208201905092915050565b5f620007778262000440565b6200078381856200075b565b93506200079581856020860162000303565b620007a0816200023d565b840191505092915050565b5f6040820190508181035f830152620007c581856200076b565b90508181036020830152620007db81846200076b565b90509392505050565b5f81519050919050565b5f81905092915050565b5f6200080482620007e4565b620008108185620007ee565b93506200082281856020860162000303565b80840191505092915050565b5f6200083b8284620007f8565b915081905092915050565b611bda80620008545f395ff3fe608060405234801561000f575f80fd5b50600436106100e8575f3560e01c806395d89b411161008a578063a22cb46511610064578063a22cb46514610244578063b88d4fde14610260578063c87b56dd1461027c578063e985e9c5146102ac576100e8565b806395d89b41146101ee5780639a03d9a31461020c578063a144819414610228576100e8565b806323b872dd116100c657806323b872dd1461015657806342842e0e146101725780636352211e1461018e57806370a08231146101be576100e8565b806306fdde03146100ec578063081812fc1461010a578063095ea7b31461013a575b5f80fd5b6100f46102dc565b60405161010191906111dc565b60405180910390f35b610124600480360381019061011f9190611240565b61036b565b60405161013191906112aa565b60405180910390f35b610154600480360381019061014f91906112ed565b6103ad565b005b610170600480360381019061016b919061132b565b6105d4565b005b61018c6004803603810190610187919061132b565b610746565b005b6101a860048036038101906101a39190611240565b610868565b6040516101b591906112aa565b60405180910390f35b6101d860048036038101906101d3919061137b565b6108ec565b6040516101e591906113b5565b60405180910390f35b6101f66109a0565b60405161020391906111dc565b60405180910390f35b6102266004803603810190610221919061137b565b610a30565b005b610242600480360381019061023d91906112ed565b610a73565b005b61025e60048036038101906102599190611403565b610b92565b005b61027a6004803603810190610275919061156d565b610cb1565b005b61029660048036038101906102919190611240565b610e26565b6040516102a391906111dc565b60405180910390f35b6102c660048036038101906102c191906115ed565b610f65565b6040516102d3919061163a565b60405180910390f35b60605f80546102ea90611680565b80601f016020809104026020016040519081016040528092919081815260200182805461031690611680565b80156103615780601f1061033857610100808354040283529160200191610361565b820191905f5260205f20905b81548152906001019060200180831161034457829003601f168201915b5050505050905090565b5f61037582610ff3565b60045f8381526020019081526020015f205f9054906101000a900473ffffffffffffffffffffffffffffffffffffffff169050919050565b5f6103b782610868565b90508073ffffffffffffffffffffffffffffffffffffffff168373ffffffffffffffffffffffffffffffffffffffff1603610427576040517f08c379a000000000000000000000000000000000000000000000000000000000815260040161041e90611720565b60405180910390fd5b8073ffffffffffffffffffffffffffffffffffffffff1661044661103e565b73ffffffffffffffffffffffffffffffffffffffff16148061047557506104748161046f61103e565b610f65565b5b6104b4576040517f08c379a00000000000000000000000000000000000000000000000000000000081526004016104ab906117ae565b60405180910390fd5b5f8060065f9054906101000a900473ffffffffffffffffffffffffffffffffffffffff1673ffffffffffffffffffffffffffffffffffffffff1685856040516024016105019291906117cc565b6040516020818303038152906040527f8b069f2a000000000000000000000000000000000000000000000000000000007bffffffffffffffffffffffffffffffffffffffffffffffffffffffff19166020820180517bffffffffffffffffffffffffffffffffffffffffffffffffffffffff838183161783525050505060405161058b9190611837565b5f60405180830381855af49150503d805f81146105c3576040519150601f19603f3d011682016040523d82523d5f602084013e6105c8565b606091505b50915091505050505050565b6105e56105df61103e565b82611045565b610624576040517f08c379a000000000000000000000000000000000000000000000000000000000815260040161061b906118bd565b60405180910390fd5b5f8060065f9054906101000a900473ffffffffffffffffffffffffffffffffffffffff1673ffffffffffffffffffffffffffffffffffffffff16858585604051602401610673939291906118db565b6040516020818303038152906040527fb642fe57000000000000000000000000000000000000000000000000000000007bffffffffffffffffffffffffffffffffffffffffffffffffffffffff19166020820180517bffffffffffffffffffffffffffffffffffffffffffffffffffffffff83818316178352505050506040516106fd9190611837565b5f60405180830381855af49150503d805f8114610735576040519150601f19603f3d011682016040523d82523d5f602084013e61073a565b606091505b50915091505050505050565b5f8060065f9054906101000a900473ffffffffffffffffffffffffffffffffffffffff1673ffffffffffffffffffffffffffffffffffffffff16858585604051602401610795939291906118db565b6040516020818303038152906040527f5e69309e000000000000000000000000000000000000000000000000000000007bffffffffffffffffffffffffffffffffffffffffffffffffffffffff19166020820180517bffffffffffffffffffffffffffffffffffffffffffffffffffffffff838183161783525050505060405161081f9190611837565b5f60405180830381855af49150503d805f8114610857576040519150601f19603f3d011682016040523d82523d5f602084013e61085c565b606091505b50915091505050505050565b5f80610873836110d9565b90505f73ffffffffffffffffffffffffffffffffffffffff168173ffffffffffffffffffffffffffffffffffffffff16036108e3576040517f08c379a00000000000000000000000000000000000000000000000000000000081526004016108da9061195a565b60405180910390fd5b80915050919050565b5f8073ffffffffffffffffffffffffffffffffffffffff168273ffffffffffffffffffffffffffffffffffffffff160361095b576040517f08c379a0000000000000000000000000000000000000000000000000000000008152600401610952906119e8565b60405180910390fd5b60035f8373ffffffffffffffffffffffffffffffffffffffff1673ffffffffffffffffffffffffffffffffffffffff1681526020019081526020015f20549050919050565b6060600180546109af90611680565b80601f01602080910402602001604051908101604052809291908181526020018280546109db90611680565b8015610a265780601f106109fd57610100808354040283529160200191610a26565b820191905f5260205f20905b815481529060010190602001808311610a0957829003601f168201915b5050505050905090565b8060065f6101000a81548173ffffffffffffffffffffffffffffffffffffffff021916908373ffffffffffffffffffffffffffffffffffffffff16021790555050565b5f8060065f9054906101000a900473ffffffffffffffffffffffffffffffffffffffff1673ffffffffffffffffffffffffffffffffffffffff168484604051602401610ac09291906117cc565b6040516020818303038152906040527fdf7f3eab000000000000000000000000000000000000000000000000000000007bffffffffffffffffffffffffffffffffffffffffffffffffffffffff19166020820180517bffffffffffffffffffffffffffffffffffffffffffffffffffffffff8381831617835250505050604051610b4a9190611837565b5f60405180830381855af49150503d805f8114610b82576040519150601f19603f3d011682016040523d82523d5f602084013e610b87565b606091505b509150915050505050565b5f8060065f9054906101000a900473ffffffffffffffffffffffffffffffffffffffff1673ffffffffffffffffffffffffffffffffffffffff168484604051602401610bdf929190611a06565b6040516020818303038152906040527f989579aa000000000000000000000000000000000000000000000000000000007bffffffffffffffffffffffffffffffffffffffffffffffffffffffff19166020820180517bffffffffffffffffffffffffffffffffffffffffffffffffffffffff8381831617835250505050604051610c699190611837565b5f60405180830381855af49150503d805f8114610ca1576040519150601f19603f3d011682016040523d82523d5f602084013e610ca6565b606091505b509150915050505050565b610cc2610cbc61103e565b83611045565b610d01576040517f08c379a0000000000000000000000000000000000000000000000000000000008152600401610cf8906118bd565b60405180910390fd5b5f8060065f9054906101000a900473ffffffffffffffffffffffffffffffffffffffff1673ffffffffffffffffffffffffffffffffffffffff1686868686604051602401610d529493929190611a75565b6040516020818303038152906040527fa2077142000000000000000000000000000000000000000000000000000000007bffffffffffffffffffffffffffffffffffffffffffffffffffffffff19166020820180517bffffffffffffffffffffffffffffffffffffffffffffffffffffffff8381831617835250505050604051610ddc9190611837565b5f60405180830381855af49150503d805f8114610e14576040519150601f19603f3d011682016040523d82523d5f602084013e610e19565b606091505b5091509150505050505050565b60605f8060065f9054906101000a900473ffffffffffffffffffffffffffffffffffffffff1673ffffffffffffffffffffffffffffffffffffffff1684604051602401610e7391906113b5565b6040516020818303038152906040527fc87b56dd000000000000000000000000000000000000000000000000000000007bffffffffffffffffffffffffffffffffffffffffffffffffffffffff19166020820180517bffffffffffffffffffffffffffffffffffffffffffffffffffffffff8381831617835250505050604051610efd9190611837565b5f60405180830381855af49150503d805f8114610f35576040519150601f19603f3d011682016040523d82523d5f602084013e610f3a565b606091505b509150915081610f48575f80fd5b80806020019051810190610f5c9190611b5d565b92505050919050565b5f60055f8473ffffffffffffffffffffffffffffffffffffffff1673ffffffffffffffffffffffffffffffffffffffff1681526020019081526020015f205f8373ffffffffffffffffffffffffffffffffffffffff1673ffffffffffffffffffffffffffffffffffffffff1681526020019081526020015f205f9054906101000a900460ff16905092915050565b610ffc81611112565b61103b576040517f08c379a00000000000000000000000000000000000000000000000000000000081526004016110329061195a565b60405180910390fd5b50565b5f33905090565b5f8061105083610868565b90508073ffffffffffffffffffffffffffffffffffffffff168473ffffffffffffffffffffffffffffffffffffffff16148061109257506110918185610f65565b5b806110d057508373ffffffffffffffffffffffffffffffffffffffff166110b88461036b565b73ffffffffffffffffffffffffffffffffffffffff16145b91505092915050565b5f60025f8381526020019081526020015f205f9054906101000a900473ffffffffffffffffffffffffffffffffffffffff169050919050565b5f8073ffffffffffffffffffffffffffffffffffffffff16611133836110d9565b73ffffffffffffffffffffffffffffffffffffffff1614159050919050565b5f81519050919050565b5f82825260208201905092915050565b5f5b8381101561118957808201518184015260208101905061116e565b5f8484015250505050565b5f601f19601f8301169050919050565b5f6111ae82611152565b6111b8818561115c565b93506111c881856020860161116c565b6111d181611194565b840191505092915050565b5f6020820190508181035f8301526111f481846111a4565b905092915050565b5f604051905090565b5f80fd5b5f80fd5b5f819050919050565b61121f8161120d565b8114611229575f80fd5b50565b5f8135905061123a81611216565b92915050565b5f6020828403121561125557611254611205565b5b5f6112628482850161122c565b91505092915050565b5f73ffffffffffffffffffffffffffffffffffffffff82169050919050565b5f6112948261126b565b9050919050565b6112a48161128a565b82525050565b5f6020820190506112bd5f83018461129b565b92915050565b6112cc8161128a565b81146112d6575f80fd5b50565b5f813590506112e7816112c3565b92915050565b5f806040838503121561130357611302611205565b5b5f611310858286016112d9565b92505060206113218582860161122c565b9150509250929050565b5f805f6060848603121561134257611341611205565b5b5f61134f868287016112d9565b9350506020611360868287016112d9565b92505060406113718682870161122c565b9150509250925092565b5f602082840312156113905761138f611205565b5b5f61139d848285016112d9565b91505092915050565b6113af8161120d565b82525050565b5f6020820190506113c85f8301846113a6565b92915050565b5f8115159050919050565b6113e2816113ce565b81146113ec575f80fd5b50565b5f813590506113fd816113d9565b92915050565b5f806040838503121561141957611418611205565b5b5f611426858286016112d9565b9250506020611437858286016113ef565b9150509250929050565b5f80fd5b5f80fd5b7f4e487b71000000000000000000000000000000000000000000000000000000005f52604160045260245ffd5b61147f82611194565b810181811067ffffffffffffffff8211171561149e5761149d611449565b5b80604052505050565b5f6114b06111fc565b90506114bc8282611476565b919050565b5f67ffffffffffffffff8211156114db576114da611449565b5b6114e482611194565b9050602081019050919050565b828183375f83830152505050565b5f61151161150c846114c1565b6114a7565b90508281526020810184848401111561152d5761152c611445565b5b6115388482856114f1565b509392505050565b5f82601f83011261155457611553611441565b5b81356115648482602086016114ff565b91505092915050565b5f805f806080858703121561158557611584611205565b5b5f611592878288016112d9565b94505060206115a3878288016112d9565b93505060406115b48782880161122c565b925050606085013567ffffffffffffffff8111156115d5576115d4611209565b5b6115e187828801611540565b91505092959194509250565b5f806040838503121561160357611602611205565b5b5f611610858286016112d9565b9250506020611621858286016112d9565b9150509250929050565b611634816113ce565b82525050565b5f60208201905061164d5f83018461162b565b92915050565b7f4e487b71000000000000000000000000000000000000000000000000000000005f52602260045260245ffd5b5f600282049050600182168061169757607f821691505b6020821081036116aa576116a9611653565b5b50919050565b7f4552433732313a20617070726f76616c20746f2063757272656e74206f776e655f8201527f7200000000000000000000000000000000000000000000000000000000000000602082015250565b5f61170a60218361115c565b9150611715826116b0565b604082019050919050565b5f6020820190508181035f830152611737816116fe565b9050919050565b7f4552433732313a20617070726f76652063616c6c6572206973206e6f7420746f5f8201527f6b656e206f776e6572206f7220617070726f76656420666f7220616c6c000000602082015250565b5f611798603d8361115c565b91506117a38261173e565b604082019050919050565b5f6020820190508181035f8301526117c58161178c565b9050919050565b5f6040820190506117df5f83018561129b565b6117ec60208301846113a6565b9392505050565b5f81519050919050565b5f81905092915050565b5f611811826117f3565b61181b81856117fd565b935061182b81856020860161116c565b80840191505092915050565b5f6118428284611807565b915081905092915050565b7f4552433732313a2063616c6c6572206973206e6f7420746f6b656e206f776e655f8201527f72206f7220617070726f76656400000000000000000000000000000000000000602082015250565b5f6118a7602d8361115c565b91506118b28261184d565b604082019050919050565b5f6020820190508181035f8301526118d48161189b565b9050919050565b5f6060820190506118ee5f83018661129b565b6118fb602083018561129b565b61190860408301846113a6565b949350505050565b7f4552433732313a20696e76616c696420746f6b656e20494400000000000000005f82015250565b5f61194460188361115c565b915061194f82611910565b602082019050919050565b5f6020820190508181035f83015261197181611938565b9050919050565b7f4552433732313a2061646472657373207a65726f206973206e6f7420612076615f8201527f6c6964206f776e65720000000000000000000000000000000000000000000000602082015250565b5f6119d260298361115c565b91506119dd82611978565b604082019050919050565b5f6020820190508181035f8301526119ff816119c6565b9050919050565b5f604082019050611a195f83018561129b565b611a26602083018461162b565b9392505050565b5f82825260208201905092915050565b5f611a47826117f3565b611a518185611a2d565b9350611a6181856020860161116c565b611a6a81611194565b840191505092915050565b5f608082019050611a885f83018761129b565b611a95602083018661129b565b611aa260408301856113a6565b8181036060830152611ab48184611a3d565b905095945050505050565b5f67ffffffffffffffff821115611ad957611ad8611449565b5b611ae282611194565b9050602081019050919050565b5f611b01611afc84611abf565b6114a7565b905082815260208101848484011115611b1d57611b1c611445565b5b611b2884828561116c565b509392505050565b5f82601f830112611b4457611b43611441565b5b8151611b54848260208601611aef565b91505092915050565b5f60208284031215611b7257611b71611205565b5b5f82015167ffffffffffffffff811115611b8f57611b8e611209565b5b611b9b84828501611b30565b9150509291505056fea26469706673582212205c20a6d8285b47492367001fc51645491227ce25f9e8a57c95234e452cd93a5564736f6c63430008140033",
					"opcodes": "PUSH1 0x80 PUSH1 0x40 MSTORE CALLVALUE DUP1 ISZERO PUSH3 0x10 JUMPI PUSH0 DUP1 REVERT JUMPDEST POP PUSH1 0x40 MLOAD PUSH3 0x242E CODESIZE SUB DUP1 PUSH3 0x242E DUP4 CODECOPY DUP2 DUP2 ADD PUSH1 0x40 MSTORE DUP2 ADD SWAP1 PUSH3 0x36 SWAP2 SWAP1 PUSH3 0x3A9 JUMP JUMPDEST DUP3 PUSH1 0x6 PUSH0 PUSH2 0x100 EXP DUP2 SLOAD DUP2 PUSH20 0xFFFFFFFFFFFFFFFFFFFFFFFFFFFFFFFFFFFFFFFF MUL NOT AND SWAP1 DUP4 PUSH20 0xFFFFFFFFFFFFFFFFFFFFFFFFFFFFFFFFFFFFFFFF AND MUL OR SWAP1 SSTORE POP DUP2 PUSH0 SWAP1 DUP2 PUSH3 0x86 SWAP2 SWAP1 PUSH3 0x677 JUMP JUMPDEST POP DUP1 PUSH1 0x1 SWAP1 DUP2 PUSH3 0x98 SWAP2 SWAP1 PUSH3 0x677 JUMP JUMPDEST POP PUSH0 DUP1 PUSH1 0x6 PUSH0 SWAP1 SLOAD SWAP1 PUSH2 0x100 EXP SWAP1 DIV PUSH20 0xFFFFFFFFFFFFFFFFFFFFFFFFFFFFFFFFFFFFFFFF AND PUSH20 0xFFFFFFFFFFFFFFFFFFFFFFFFFFFFFFFFFFFFFFFF AND DUP5 DUP5 PUSH1 0x40 MLOAD PUSH1 0x24 ADD PUSH3 0xE8 SWAP3 SWAP2 SWAP1 PUSH3 0x7AB JUMP JUMPDEST PUSH1 0x40 MLOAD PUSH1 0x20 DUP2 DUP4 SUB SUB DUP2 MSTORE SWAP1 PUSH1 0x40 MSTORE PUSH32 0xF1BD332D00000000000000000000000000000000000000000000000000000000 PUSH28 0xFFFFFFFFFFFFFFFFFFFFFFFFFFFFFFFFFFFFFFFFFFFFFFFFFFFFFFFF NOT AND PUSH1 0x20 DUP3 ADD DUP1 MLOAD PUSH28 0xFFFFFFFFFFFFFFFFFFFFFFFFFFFFFFFFFFFFFFFFFFFFFFFFFFFFFFFF DUP4 DUP2 DUP4 AND OR DUP4 MSTORE POP POP POP POP PUSH1 0x40 MLOAD PUSH3 0x174 SWAP2 SWAP1 PUSH3 0x82E JUMP JUMPDEST PUSH0 PUSH1 0x40 MLOAD DUP1 DUP4 SUB DUP2 DUP6 GAS DELEGATECALL SWAP2 POP POP RETURNDATASIZE DUP1 PUSH0 DUP2 EQ PUSH3 0x1AE JUMPI PUSH1 0x40 MLOAD SWAP2 POP PUSH1 0x1F NOT PUSH1 0x3F RETURNDATASIZE ADD AND DUP3 ADD PUSH1 0x40 MSTORE RETURNDATASIZE DUP3 MSTORE RETURNDATASIZE PUSH0 PUSH1 0x20 DUP5 ADD RETURNDATACOPY PUSH3 0x1B3 JUMP JUMPDEST PUSH1 0x60 SWAP2 POP JUMPDEST POP SWAP2 POP SWAP2 POP POP POP POP POP POP PUSH3 0x846 JUMP JUMPDEST PUSH0 PUSH1 0x40 MLOAD SWAP1 POP SWAP1 JUMP JUMPDEST PUSH0 DUP1 REVERT JUMPDEST PUSH0 DUP1 REVERT JUMPDEST PUSH0 PUSH20 0xFFFFFFFFFFFFFFFFFFFFFFFFFFFFFFFFFFFFFFFF DUP3 AND SWAP1 POP SWAP2 SWAP1 POP JUMP JUMPDEST PUSH0 PUSH3 0x1FF DUP3 PUSH3 0x1D4 JUMP JUMPDEST SWAP1 POP SWAP2 SWAP1 POP JUMP JUMPDEST PUSH3 0x211 DUP2 PUSH3 0x1F3 JUMP JUMPDEST DUP2 EQ PUSH3 0x21C JUMPI PUSH0 DUP1 REVERT JUMPDEST POP JUMP JUMPDEST PUSH0 DUP2 MLOAD SWAP1 POP PUSH3 0x22F DUP2 PUSH3 0x206 JUMP JUMPDEST SWAP3 SWAP2 POP POP JUMP JUMPDEST PUSH0 DUP1 REVERT JUMPDEST PUSH0 DUP1 REVERT JUMPDEST PUSH0 PUSH1 0x1F NOT PUSH1 0x1F DUP4 ADD AND SWAP1 POP SWAP2 SWAP1 POP JUMP JUMPDEST PUSH32 0x4E487B7100000000000000000000000000000000000000000000000000000000 PUSH0 MSTORE PUSH1 0x41 PUSH1 0x4 MSTORE PUSH1 0x24 PUSH0 REVERT JUMPDEST PUSH3 0x285 DUP3 PUSH3 0x23D JUMP JUMPDEST DUP2 ADD DUP2 DUP2 LT PUSH8 0xFFFFFFFFFFFFFFFF DUP3 GT OR ISZERO PUSH3 0x2A7 JUMPI PUSH3 0x2A6 PUSH3 0x24D JUMP JUMPDEST JUMPDEST DUP1 PUSH1 0x40 MSTORE POP POP POP JUMP JUMPDEST PUSH0 PUSH3 0x2BB PUSH3 0x1C3 JUMP JUMPDEST SWAP1 POP PUSH3 0x2C9 DUP3 DUP3 PUSH3 0x27A JUMP JUMPDEST SWAP2 SWAP1 POP JUMP JUMPDEST PUSH0 PUSH8 0xFFFFFFFFFFFFFFFF DUP3 GT ISZERO PUSH3 0x2EB JUMPI PUSH3 0x2EA PUSH3 0x24D JUMP JUMPDEST JUMPDEST PUSH3 0x2F6 DUP3 PUSH3 0x23D JUMP JUMPDEST SWAP1 POP PUSH1 0x20 DUP2 ADD SWAP1 POP SWAP2 SWAP1 POP JUMP JUMPDEST PUSH0 JUMPDEST DUP4 DUP2 LT ISZERO PUSH3 0x322 JUMPI DUP1 DUP3 ADD MLOAD DUP2 DUP5 ADD MSTORE PUSH1 0x20 DUP2 ADD SWAP1 POP PUSH3 0x305 JUMP JUMPDEST PUSH0 DUP5 DUP5 ADD MSTORE POP POP POP POP JUMP JUMPDEST PUSH0 PUSH3 0x343 PUSH3 0x33D DUP5 PUSH3 0x2CE JUMP JUMPDEST PUSH3 0x2B0 JUMP JUMPDEST SWAP1 POP DUP3 DUP2 MSTORE PUSH1 0x20 DUP2 ADD DUP5 DUP5 DUP5 ADD GT ISZERO PUSH3 0x362 JUMPI PUSH3 0x361 PUSH3 0x239 JUMP JUMPDEST JUMPDEST PUSH3 0x36F DUP5 DUP3 DUP6 PUSH3 0x303 JUMP JUMPDEST POP SWAP4 SWAP3 POP POP POP JUMP JUMPDEST PUSH0 DUP3 PUSH1 0x1F DUP4 ADD SLT PUSH3 0x38E JUMPI PUSH3 0x38D PUSH3 0x235 JUMP JUMPDEST JUMPDEST DUP2 MLOAD PUSH3 0x3A0 DUP5 DUP3 PUSH1 0x20 DUP7 ADD PUSH3 0x32D JUMP JUMPDEST SWAP2 POP POP SWAP3 SWAP2 POP POP JUMP JUMPDEST PUSH0 DUP1 PUSH0 PUSH1 0x60 DUP5 DUP7 SUB SLT ISZERO PUSH3 0x3C3 JUMPI PUSH3 0x3C2 PUSH3 0x1CC JUMP JUMPDEST JUMPDEST PUSH0 PUSH3 0x3D2 DUP7 DUP3 DUP8 ADD PUSH3 0x21F JUMP JUMPDEST SWAP4 POP POP PUSH1 0x20 DUP5 ADD MLOAD PUSH8 0xFFFFFFFFFFFFFFFF DUP2 GT ISZERO PUSH3 0x3F6 JUMPI PUSH3 0x3F5 PUSH3 0x1D0 JUMP JUMPDEST JUMPDEST PUSH3 0x404 DUP7 DUP3 DUP8 ADD PUSH3 0x377 JUMP JUMPDEST SWAP3 POP POP PUSH1 0x40 DUP5 ADD MLOAD PUSH8 0xFFFFFFFFFFFFFFFF DUP2 GT ISZERO PUSH3 0x428 JUMPI PUSH3 0x427 PUSH3 0x1D0 JUMP JUMPDEST JUMPDEST PUSH3 0x436 DUP7 DUP3 DUP8 ADD PUSH3 0x377 JUMP JUMPDEST SWAP2 POP POP SWAP3 POP SWAP3 POP SWAP3 JUMP JUMPDEST PUSH0 DUP2 MLOAD SWAP1 POP SWAP2 SWAP1 POP JUMP JUMPDEST PUSH32 0x4E487B7100000000000000000000000000000000000000000000000000000000 PUSH0 MSTORE PUSH1 0x22 PUSH1 0x4 MSTORE PUSH1 0x24 PUSH0 REVERT JUMPDEST PUSH0 PUSH1 0x2 DUP3 DIV SWAP1 POP PUSH1 0x1 DUP3 AND DUP1 PUSH3 0x48F JUMPI PUSH1 0x7F DUP3 AND SWAP2 POP JUMPDEST PUSH1 0x20 DUP3 LT DUP2 SUB PUSH3 0x4A5 JUMPI PUSH3 0x4A4 PUSH3 0x44A JUMP JUMPDEST JUMPDEST POP SWAP2 SWAP1 POP JUMP JUMPDEST PUSH0 DUP2 SWAP1 POP DUP2 PUSH0 MSTORE PUSH1 0x20 PUSH0 KECCAK256 SWAP1 POP SWAP2 SWAP1 POP JUMP JUMPDEST PUSH0 PUSH1 0x20 PUSH1 0x1F DUP4 ADD DIV SWAP1 POP SWAP2 SWAP1 POP JUMP JUMPDEST PUSH0 DUP3 DUP3 SHL SWAP1 POP SWAP3 SWAP2 POP POP JUMP JUMPDEST PUSH0 PUSH1 0x8 DUP4 MUL PUSH3 0x509 PUSH32 0xFFFFFFFFFFFFFFFFFFFFFFFFFFFFFFFFFFFFFFFFFFFFFFFFFFFFFFFFFFFFFFFF DUP3 PUSH3 0x4CC JUMP JUMPDEST PUSH3 0x515 DUP7 DUP4 PUSH3 0x4CC JUMP JUMPDEST SWAP6 POP DUP1 NOT DUP5 AND SWAP4 POP DUP1 DUP7 AND DUP5 OR SWAP3 POP POP POP SWAP4 SWAP3 POP POP POP JUMP JUMPDEST PUSH0 DUP2 SWAP1 POP SWAP2 SWAP1 POP JUMP JUMPDEST PUSH0 DUP2 SWAP1 POP SWAP2 SWAP1 POP JUMP JUMPDEST PUSH0 PUSH3 0x55F PUSH3 0x559 PUSH3 0x553 DUP5 PUSH3 0x52D JUMP JUMPDEST PUSH3 0x536 JUMP JUMPDEST PUSH3 0x52D JUMP JUMPDEST SWAP1 POP SWAP2 SWAP1 POP JUMP JUMPDEST PUSH0 DUP2 SWAP1 POP SWAP2 SWAP1 POP JUMP JUMPDEST PUSH3 0x57A DUP4 PUSH3 0x53F JUMP JUMPDEST PUSH3 0x592 PUSH3 0x589 DUP3 PUSH3 0x566 JUMP JUMPDEST DUP5 DUP5 SLOAD PUSH3 0x4D8 JUMP JUMPDEST DUP3 SSTORE POP POP POP POP JUMP JUMPDEST PUSH0 SWAP1 JUMP JUMPDEST PUSH3 0x5A8 PUSH3 0x59A JUMP JUMPDEST PUSH3 0x5B5 DUP2 DUP5 DUP5 PUSH3 0x56F JUMP JUMPDEST POP POP POP JUMP JUMPDEST JUMPDEST DUP2 DUP2 LT ISZERO PUSH3 0x5DC JUMPI PUSH3 0x5D0 PUSH0 DUP3 PUSH3 0x59E JUMP JUMPDEST PUSH1 0x1 DUP2 ADD SWAP1 POP PUSH3 0x5BB JUMP JUMPDEST POP POP JUMP JUMPDEST PUSH1 0x1F DUP3 GT ISZERO PUSH3 0x62B JUMPI PUSH3 0x5F5 DUP2 PUSH3 0x4AB JUMP JUMPDEST PUSH3 0x600 DUP5 PUSH3 0x4BD JUMP JUMPDEST DUP2 ADD PUSH1 0x20 DUP6 LT ISZERO PUSH3 0x610 JUMPI DUP2 SWAP1 POP JUMPDEST PUSH3 0x628 PUSH3 0x61F DUP6 PUSH3 0x4BD JUMP JUMPDEST DUP4 ADD DUP3 PUSH3 0x5BA JUMP JUMPDEST POP POP JUMPDEST POP POP POP JUMP JUMPDEST PUSH0 DUP3 DUP3 SHR SWAP1 POP SWAP3 SWAP2 POP POP JUMP JUMPDEST PUSH0 PUSH3 0x64D PUSH0 NOT DUP5 PUSH1 0x8 MUL PUSH3 0x630 JUMP JUMPDEST NOT DUP1 DUP4 AND SWAP2 POP POP SWAP3 SWAP2 POP POP JUMP JUMPDEST PUSH0 PUSH3 0x667 DUP4 DUP4 PUSH3 0x63C JUMP JUMPDEST SWAP2 POP DUP3 PUSH1 0x2 MUL DUP3 OR SWAP1 POP SWAP3 SWAP2 POP POP JUMP JUMPDEST PUSH3 0x682 DUP3 PUSH3 0x440 JUMP JUMPDEST PUSH8 0xFFFFFFFFFFFFFFFF DUP2 GT ISZERO PUSH3 0x69E JUMPI PUSH3 0x69D PUSH3 0x24D JUMP JUMPDEST JUMPDEST PUSH3 0x6AA DUP3 SLOAD PUSH3 0x477 JUMP JUMPDEST PUSH3 0x6B7 DUP3 DUP3 DUP6 PUSH3 0x5E0 JUMP JUMPDEST PUSH0 PUSH1 0x20 SWAP1 POP PUSH1 0x1F DUP4 GT PUSH1 0x1 DUP2 EQ PUSH3 0x6ED JUMPI PUSH0 DUP5 ISZERO PUSH3 0x6D8 JUMPI DUP3 DUP8 ADD MLOAD SWAP1 POP JUMPDEST PUSH3 0x6E4 DUP6 DUP3 PUSH3 0x65A JUMP JUMPDEST DUP7 SSTORE POP PUSH3 0x753 JUMP JUMPDEST PUSH1 0x1F NOT DUP5 AND PUSH3 0x6FD DUP7 PUSH3 0x4AB JUMP JUMPDEST PUSH0 JUMPDEST DUP3 DUP2 LT ISZERO PUSH3 0x726 JUMPI DUP5 DUP10 ADD MLOAD DUP3 SSTORE PUSH1 0x1 DUP3 ADD SWAP2 POP PUSH1 0x20 DUP6 ADD SWAP5 POP PUSH1 0x20 DUP2 ADD SWAP1 POP PUSH3 0x6FF JUMP JUMPDEST DUP7 DUP4 LT ISZERO PUSH3 0x746 JUMPI DUP5 DUP10 ADD MLOAD PUSH3 0x742 PUSH1 0x1F DUP10 AND DUP3 PUSH3 0x63C JUMP JUMPDEST DUP4 SSTORE POP JUMPDEST PUSH1 0x1 PUSH1 0x2 DUP9 MUL ADD DUP9 SSTORE POP POP POP JUMPDEST POP POP POP POP POP POP JUMP JUMPDEST PUSH0 DUP3 DUP3 MSTORE PUSH1 0x20 DUP3 ADD SWAP1 POP SWAP3 SWAP2 POP POP JUMP JUMPDEST PUSH0 PUSH3 0x777 DUP3 PUSH3 0x440 JUMP JUMPDEST PUSH3 0x783 DUP2 DUP6 PUSH3 0x75B JUMP JUMPDEST SWAP4 POP PUSH3 0x795 DUP2 DUP6 PUSH1 0x20 DUP7 ADD PUSH3 0x303 JUMP JUMPDEST PUSH3 0x7A0 DUP2 PUSH3 0x23D JUMP JUMPDEST DUP5 ADD SWAP2 POP POP SWAP3 SWAP2 POP POP JUMP JUMPDEST PUSH0 PUSH1 0x40 DUP3 ADD SWAP1 POP DUP2 DUP2 SUB PUSH0 DUP4 ADD MSTORE PUSH3 0x7C5 DUP2 DUP6 PUSH3 0x76B JUMP JUMPDEST SWAP1 POP DUP2 DUP2 SUB PUSH1 0x20 DUP4 ADD MSTORE PUSH3 0x7DB DUP2 DUP5 PUSH3 0x76B JUMP JUMPDEST SWAP1 POP SWAP4 SWAP3 POP POP POP JUMP JUMPDEST PUSH0 DUP2 MLOAD SWAP1 POP SWAP2 SWAP1 POP JUMP JUMPDEST PUSH0 DUP2 SWAP1 POP SWAP3 SWAP2 POP POP JUMP JUMPDEST PUSH0 PUSH3 0x804 DUP3 PUSH3 0x7E4 JUMP JUMPDEST PUSH3 0x810 DUP2 DUP6 PUSH3 0x7EE JUMP JUMPDEST SWAP4 POP PUSH3 0x822 DUP2 DUP6 PUSH1 0x20 DUP7 ADD PUSH3 0x303 JUMP JUMPDEST DUP1 DUP5 ADD SWAP2 POP POP SWAP3 SWAP2 POP POP JUMP JUMPDEST PUSH0 PUSH3 0x83B DUP3 DUP5 PUSH3 0x7F8 JUMP JUMPDEST SWAP2 POP DUP2 SWAP1 POP SWAP3 SWAP2 POP POP JUMP JUMPDEST PUSH2 0x1BDA DUP1 PUSH3 0x854 PUSH0 CODECOPY PUSH0 RETURN INVALID PUSH1 0x80 PUSH1 0x40 MSTORE CALLVALUE DUP1 ISZERO PUSH2 0xF JUMPI PUSH0 DUP1 REVERT JUMPDEST POP PUSH1 0x4 CALLDATASIZE LT PUSH2 0xE8 JUMPI PUSH0 CALLDATALOAD PUSH1 0xE0 SHR DUP1 PUSH4 0x95D89B41 GT PUSH2 0x8A JUMPI DUP1 PUSH4 0xA22CB465 GT PUSH2 0x64 JUMPI DUP1 PUSH4 0xA22CB465 EQ PUSH2 0x244 JUMPI DUP1 PUSH4 0xB88D4FDE EQ PUSH2 0x260 JUMPI DUP1 PUSH4 0xC87B56DD EQ PUSH2 0x27C JUMPI DUP1 PUSH4 0xE985E9C5 EQ PUSH2 0x2AC JUMPI PUSH2 0xE8 JUMP JUMPDEST DUP1 PUSH4 0x95D89B41 EQ PUSH2 0x1EE JUMPI DUP1 PUSH4 0x9A03D9A3 EQ PUSH2 0x20C JUMPI DUP1 PUSH4 0xA1448194 EQ PUSH2 0x228 JUMPI PUSH2 0xE8 JUMP JUMPDEST DUP1 PUSH4 0x23B872DD GT PUSH2 0xC6 JUMPI DUP1 PUSH4 0x23B872DD EQ PUSH2 0x156 JUMPI DUP1 PUSH4 0x42842E0E EQ PUSH2 0x172 JUMPI DUP1 PUSH4 0x6352211E EQ PUSH2 0x18E JUMPI DUP1 PUSH4 0x70A08231 EQ PUSH2 0x1BE JUMPI PUSH2 0xE8 JUMP JUMPDEST DUP1 PUSH4 0x6FDDE03 EQ PUSH2 0xEC JUMPI DUP1 PUSH4 0x81812FC EQ PUSH2 0x10A JUMPI DUP1 PUSH4 0x95EA7B3 EQ PUSH2 0x13A JUMPI JUMPDEST PUSH0 DUP1 REVERT JUMPDEST PUSH2 0xF4 PUSH2 0x2DC JUMP JUMPDEST PUSH1 0x40 MLOAD PUSH2 0x101 SWAP2 SWAP1 PUSH2 0x11DC JUMP JUMPDEST PUSH1 0x40 MLOAD DUP1 SWAP2 SUB SWAP1 RETURN JUMPDEST PUSH2 0x124 PUSH1 0x4 DUP1 CALLDATASIZE SUB DUP2 ADD SWAP1 PUSH2 0x11F SWAP2 SWAP1 PUSH2 0x1240 JUMP JUMPDEST PUSH2 0x36B JUMP JUMPDEST PUSH1 0x40 MLOAD PUSH2 0x131 SWAP2 SWAP1 PUSH2 0x12AA JUMP JUMPDEST PUSH1 0x40 MLOAD DUP1 SWAP2 SUB SWAP1 RETURN JUMPDEST PUSH2 0x154 PUSH1 0x4 DUP1 CALLDATASIZE SUB DUP2 ADD SWAP1 PUSH2 0x14F SWAP2 SWAP1 PUSH2 0x12ED JUMP JUMPDEST PUSH2 0x3AD JUMP JUMPDEST STOP JUMPDEST PUSH2 0x170 PUSH1 0x4 DUP1 CALLDATASIZE SUB DUP2 ADD SWAP1 PUSH2 0x16B SWAP2 SWAP1 PUSH2 0x132B JUMP JUMPDEST PUSH2 0x5D4 JUMP JUMPDEST STOP JUMPDEST PUSH2 0x18C PUSH1 0x4 DUP1 CALLDATASIZE SUB DUP2 ADD SWAP1 PUSH2 0x187 SWAP2 SWAP1 PUSH2 0x132B JUMP JUMPDEST PUSH2 0x746 JUMP JUMPDEST STOP JUMPDEST PUSH2 0x1A8 PUSH1 0x4 DUP1 CALLDATASIZE SUB DUP2 ADD SWAP1 PUSH2 0x1A3 SWAP2 SWAP1 PUSH2 0x1240 JUMP JUMPDEST PUSH2 0x868 JUMP JUMPDEST PUSH1 0x40 MLOAD PUSH2 0x1B5 SWAP2 SWAP1 PUSH2 0x12AA JUMP JUMPDEST PUSH1 0x40 MLOAD DUP1 SWAP2 SUB SWAP1 RETURN JUMPDEST PUSH2 0x1D8 PUSH1 0x4 DUP1 CALLDATASIZE SUB DUP2 ADD SWAP1 PUSH2 0x1D3 SWAP2 SWAP1 PUSH2 0x137B JUMP JUMPDEST PUSH2 0x8EC JUMP JUMPDEST PUSH1 0x40 MLOAD PUSH2 0x1E5 SWAP2 SWAP1 PUSH2 0x13B5 JUMP JUMPDEST PUSH1 0x40 MLOAD DUP1 SWAP2 SUB SWAP1 RETURN JUMPDEST PUSH2 0x1F6 PUSH2 0x9A0 JUMP JUMPDEST PUSH1 0x40 MLOAD PUSH2 0x203 SWAP2 SWAP1 PUSH2 0x11DC JUMP JUMPDEST PUSH1 0x40 MLOAD DUP1 SWAP2 SUB SWAP1 RETURN JUMPDEST PUSH2 0x226 PUSH1 0x4 DUP1 CALLDATASIZE SUB DUP2 ADD SWAP1 PUSH2 0x221 SWAP2 SWAP1 PUSH2 0x137B JUMP JUMPDEST PUSH2 0xA30 JUMP JUMPDEST STOP JUMPDEST PUSH2 0x242 PUSH1 0x4 DUP1 CALLDATASIZE SUB DUP2 ADD SWAP1 PUSH2 0x23D SWAP2 SWAP1 PUSH2 0x12ED JUMP JUMPDEST PUSH2 0xA73 JUMP JUMPDEST STOP JUMPDEST PUSH2 0x25E PUSH1 0x4 DUP1 CALLDATASIZE SUB DUP2 ADD SWAP1 PUSH2 0x259 SWAP2 SWAP1 PUSH2 0x1403 JUMP JUMPDEST PUSH2 0xB92 JUMP JUMPDEST STOP JUMPDEST PUSH2 0x27A PUSH1 0x4 DUP1 CALLDATASIZE SUB DUP2 ADD SWAP1 PUSH2 0x275 SWAP2 SWAP1 PUSH2 0x156D JUMP JUMPDEST PUSH2 0xCB1 JUMP JUMPDEST STOP JUMPDEST PUSH2 0x296 PUSH1 0x4 DUP1 CALLDATASIZE SUB DUP2 ADD SWAP1 PUSH2 0x291 SWAP2 SWAP1 PUSH2 0x1240 JUMP JUMPDEST PUSH2 0xE26 JUMP JUMPDEST PUSH1 0x40 MLOAD PUSH2 0x2A3 SWAP2 SWAP1 PUSH2 0x11DC JUMP JUMPDEST PUSH1 0x40 MLOAD DUP1 SWAP2 SUB SWAP1 RETURN JUMPDEST PUSH2 0x2C6 PUSH1 0x4 DUP1 CALLDATASIZE SUB DUP2 ADD SWAP1 PUSH2 0x2C1 SWAP2 SWAP1 PUSH2 0x15ED JUMP JUMPDEST PUSH2 0xF65 JUMP JUMPDEST PUSH1 0x40 MLOAD PUSH2 0x2D3 SWAP2 SWAP1 PUSH2 0x163A JUMP JUMPDEST PUSH1 0x40 MLOAD DUP1 SWAP2 SUB SWAP1 RETURN JUMPDEST PUSH1 0x60 PUSH0 DUP1 SLOAD PUSH2 0x2EA SWAP1 PUSH2 0x1680 JUMP JUMPDEST DUP1 PUSH1 0x1F ADD PUSH1 0x20 DUP1 SWAP2 DIV MUL PUSH1 0x20 ADD PUSH1 0x40 MLOAD SWAP1 DUP2 ADD PUSH1 0x40 MSTORE DUP1 SWAP3 SWAP2 SWAP1 DUP2 DUP2 MSTORE PUSH1 0x20 ADD DUP3 DUP1 SLOAD PUSH2 0x316 SWAP1 PUSH2 0x1680 JUMP JUMPDEST DUP1 ISZERO PUSH2 0x361 JUMPI DUP1 PUSH1 0x1F LT PUSH2 0x338 JUMPI PUSH2 0x100 DUP1 DUP4 SLOAD DIV MUL DUP4 MSTORE SWAP2 PUSH1 0x20 ADD SWAP2 PUSH2 0x361 JUMP JUMPDEST DUP3 ADD SWAP2 SWAP1 PUSH0 MSTORE PUSH1 0x20 PUSH0 KECCAK256 SWAP1 JUMPDEST DUP2 SLOAD DUP2 MSTORE SWAP1 PUSH1 0x1 ADD SWAP1 PUSH1 0x20 ADD DUP1 DUP4 GT PUSH2 0x344 JUMPI DUP3 SWAP1 SUB PUSH1 0x1F AND DUP3 ADD SWAP2 JUMPDEST POP POP POP POP POP SWAP1 POP SWAP1 JUMP JUMPDEST PUSH0 PUSH2 0x375 DUP3 PUSH2 0xFF3 JUMP JUMPDEST PUSH1 0x4 PUSH0 DUP4 DUP2 MSTORE PUSH1 0x20 ADD SWAP1 DUP2 MSTORE PUSH1 0x20 ADD PUSH0 KECCAK256 PUSH0 SWAP1 SLOAD SWAP1 PUSH2 0x100 EXP SWAP1 DIV PUSH20 0xFFFFFFFFFFFFFFFFFFFFFFFFFFFFFFFFFFFFFFFF AND SWAP1 POP SWAP2 SWAP1 POP JUMP JUMPDEST PUSH0 PUSH2 0x3B7 DUP3 PUSH2 0x868 JUMP JUMPDEST SWAP1 POP DUP1 PUSH20 0xFFFFFFFFFFFFFFFFFFFFFFFFFFFFFFFFFFFFFFFF AND DUP4 PUSH20 0xFFFFFFFFFFFFFFFFFFFFFFFFFFFFFFFFFFFFFFFF AND SUB PUSH2 0x427 JUMPI PUSH1 0x40 MLOAD PUSH32 0x8C379A000000000000000000000000000000000000000000000000000000000 DUP2 MSTORE PUSH1 0x4 ADD PUSH2 0x41E SWAP1 PUSH2 0x1720 JUMP JUMPDEST PUSH1 0x40 MLOAD DUP1 SWAP2 SUB SWAP1 REVERT JUMPDEST DUP1 PUSH20 0xFFFFFFFFFFFFFFFFFFFFFFFFFFFFFFFFFFFFFFFF AND PUSH2 0x446 PUSH2 0x103E JUMP JUMPDEST PUSH20 0xFFFFFFFFFFFFFFFFFFFFFFFFFFFFFFFFFFFFFFFF AND EQ DUP1 PUSH2 0x475 JUMPI POP PUSH2 0x474 DUP2 PUSH2 0x46F PUSH2 0x103E JUMP JUMPDEST PUSH2 0xF65 JUMP JUMPDEST JUMPDEST PUSH2 0x4B4 JUMPI PUSH1 0x40 MLOAD PUSH32 0x8C379A000000000000000000000000000000000000000000000000000000000 DUP2 MSTORE PUSH1 0x4 ADD PUSH2 0x4AB SWAP1 PUSH2 0x17AE JUMP JUMPDEST PUSH1 0x40 MLOAD DUP1 SWAP2 SUB SWAP1 REVERT JUMPDEST PUSH0 DUP1 PUSH1 0x6 PUSH0 SWAP1 SLOAD SWAP1 PUSH2 0x100 EXP SWAP1 DIV PUSH20 0xFFFFFFFFFFFFFFFFFFFFFFFFFFFFFFFFFFFFFFFF AND PUSH20 0xFFFFFFFFFFFFFFFFFFFFFFFFFFFFFFFFFFFFFFFF AND DUP6 DUP6 PUSH1 0x40 MLOAD PUSH1 0x24 ADD PUSH2 0x501 SWAP3 SWAP2 SWAP1 PUSH2 0x17CC JUMP JUMPDEST PUSH1 0x40 MLOAD PUSH1 0x20 DUP2 DUP4 SUB SUB DUP2 MSTORE SWAP1 PUSH1 0x40 MSTORE PUSH32 0x8B069F2A00000000000000000000000000000000000000000000000000000000 PUSH28 0xFFFFFFFFFFFFFFFFFFFFFFFFFFFFFFFFFFFFFFFFFFFFFFFFFFFFFFFF NOT AND PUSH1 0x20 DUP3 ADD DUP1 MLOAD PUSH28 0xFFFFFFFFFFFFFFFFFFFFFFFFFFFFFFFFFFFFFFFFFFFFFFFFFFFFFFFF DUP4 DUP2 DUP4 AND OR DUP4 MSTORE POP POP POP POP PUSH1 0x40 MLOAD PUSH2 0x58B SWAP2 SWAP1 PUSH2 0x1837 JUMP JUMPDEST PUSH0 PUSH1 0x40 MLOAD DUP1 DUP4 SUB DUP2 DUP6 GAS DELEGATECALL SWAP2 POP POP RETURNDATASIZE DUP1 PUSH0 DUP2 EQ PUSH2 0x5C3 JUMPI PUSH1 0x40 MLOAD SWAP2 POP PUSH1 0x1F NOT PUSH1 0x3F RETURNDATASIZE ADD AND DUP3 ADD PUSH1 0x40 MSTORE RETURNDATASIZE DUP3 MSTORE RETURNDATASIZE PUSH0 PUSH1 0x20 DUP5 ADD RETURNDATACOPY PUSH2 0x5C8 JUMP JUMPDEST PUSH1 0x60 SWAP2 POP JUMPDEST POP SWAP2 POP SWAP2 POP POP POP POP POP POP JUMP JUMPDEST PUSH2 0x5E5 PUSH2 0x5DF PUSH2 0x103E JUMP JUMPDEST DUP3 PUSH2 0x1045 JUMP JUMPDEST PUSH2 0x624 JUMPI PUSH1 0x40 MLOAD PUSH32 0x8C379A000000000000000000000000000000000000000000000000000000000 DUP2 MSTORE PUSH1 0x4 ADD PUSH2 0x61B SWAP1 PUSH2 0x18BD JUMP JUMPDEST PUSH1 0x40 MLOAD DUP1 SWAP2 SUB SWAP1 REVERT JUMPDEST PUSH0 DUP1 PUSH1 0x6 PUSH0 SWAP1 SLOAD SWAP1 PUSH2 0x100 EXP SWAP1 DIV PUSH20 0xFFFFFFFFFFFFFFFFFFFFFFFFFFFFFFFFFFFFFFFF AND PUSH20 0xFFFFFFFFFFFFFFFFFFFFFFFFFFFFFFFFFFFFFFFF AND DUP6 DUP6 DUP6 PUSH1 0x40 MLOAD PUSH1 0x24 ADD PUSH2 0x673 SWAP4 SWAP3 SWAP2 SWAP1 PUSH2 0x18DB JUMP JUMPDEST PUSH1 0x40 MLOAD PUSH1 0x20 DUP2 DUP4 SUB SUB DUP2 MSTORE SWAP1 PUSH1 0x40 MSTORE PUSH32 0xB642FE5700000000000000000000000000000000000000000000000000000000 PUSH28 0xFFFFFFFFFFFFFFFFFFFFFFFFFFFFFFFFFFFFFFFFFFFFFFFFFFFFFFFF NOT AND PUSH1 0x20 DUP3 ADD DUP1 MLOAD PUSH28 0xFFFFFFFFFFFFFFFFFFFFFFFFFFFFFFFFFFFFFFFFFFFFFFFFFFFFFFFF DUP4 DUP2 DUP4 AND OR DUP4 MSTORE POP POP POP POP PUSH1 0x40 MLOAD PUSH2 0x6FD SWAP2 SWAP1 PUSH2 0x1837 JUMP JUMPDEST PUSH0 PUSH1 0x40 MLOAD DUP1 DUP4 SUB DUP2 DUP6 GAS DELEGATECALL SWAP2 POP POP RETURNDATASIZE DUP1 PUSH0 DUP2 EQ PUSH2 0x735 JUMPI PUSH1 0x40 MLOAD SWAP2 POP PUSH1 0x1F NOT PUSH1 0x3F RETURNDATASIZE ADD AND DUP3 ADD PUSH1 0x40 MSTORE RETURNDATASIZE DUP3 MSTORE RETURNDATASIZE PUSH0 PUSH1 0x20 DUP5 ADD RETURNDATACOPY PUSH2 0x73A JUMP JUMPDEST PUSH1 0x60 SWAP2 POP JUMPDEST POP SWAP2 POP SWAP2 POP POP POP POP POP POP JUMP JUMPDEST PUSH0 DUP1 PUSH1 0x6 PUSH0 SWAP1 SLOAD SWAP1 PUSH2 0x100 EXP SWAP1 DIV PUSH20 0xFFFFFFFFFFFFFFFFFFFFFFFFFFFFFFFFFFFFFFFF AND PUSH20 0xFFFFFFFFFFFFFFFFFFFFFFFFFFFFFFFFFFFFFFFF AND DUP6 DUP6 DUP6 PUSH1 0x40 MLOAD PUSH1 0x24 ADD PUSH2 0x795 SWAP4 SWAP3 SWAP2 SWAP1 PUSH2 0x18DB JUMP JUMPDEST PUSH1 0x40 MLOAD PUSH1 0x20 DUP2 DUP4 SUB SUB DUP2 MSTORE SWAP1 PUSH1 0x40 MSTORE PUSH32 0x5E69309E00000000000000000000000000000000000000000000000000000000 PUSH28 0xFFFFFFFFFFFFFFFFFFFFFFFFFFFFFFFFFFFFFFFFFFFFFFFFFFFFFFFF NOT AND PUSH1 0x20 DUP3 ADD DUP1 MLOAD PUSH28 0xFFFFFFFFFFFFFFFFFFFFFFFFFFFFFFFFFFFFFFFFFFFFFFFFFFFFFFFF DUP4 DUP2 DUP4 AND OR DUP4 MSTORE POP POP POP POP PUSH1 0x40 MLOAD PUSH2 0x81F SWAP2 SWAP1 PUSH2 0x1837 JUMP JUMPDEST PUSH0 PUSH1 0x40 MLOAD DUP1 DUP4 SUB DUP2 DUP6 GAS DELEGATECALL SWAP2 POP POP RETURNDATASIZE DUP1 PUSH0 DUP2 EQ PUSH2 0x857 JUMPI PUSH1 0x40 MLOAD SWAP2 POP PUSH1 0x1F NOT PUSH1 0x3F RETURNDATASIZE ADD AND DUP3 ADD PUSH1 0x40 MSTORE RETURNDATASIZE DUP3 MSTORE RETURNDATASIZE PUSH0 PUSH1 0x20 DUP5 ADD RETURNDATACOPY PUSH2 0x85C JUMP JUMPDEST PUSH1 0x60 SWAP2 POP JUMPDEST POP SWAP2 POP SWAP2 POP POP POP POP POP POP JUMP JUMPDEST PUSH0 DUP1 PUSH2 0x873 DUP4 PUSH2 0x10D9 JUMP JUMPDEST SWAP1 POP PUSH0 PUSH20 0xFFFFFFFFFFFFFFFFFFFFFFFFFFFFFFFFFFFFFFFF AND DUP2 PUSH20 0xFFFFFFFFFFFFFFFFFFFFFFFFFFFFFFFFFFFFFFFF AND SUB PUSH2 0x8E3 JUMPI PUSH1 0x40 MLOAD PUSH32 0x8C379A000000000000000000000000000000000000000000000000000000000 DUP2 MSTORE PUSH1 0x4 ADD PUSH2 0x8DA SWAP1 PUSH2 0x195A JUMP JUMPDEST PUSH1 0x40 MLOAD DUP1 SWAP2 SUB SWAP1 REVERT JUMPDEST DUP1 SWAP2 POP POP SWAP2 SWAP1 POP JUMP JUMPDEST PUSH0 DUP1 PUSH20 0xFFFFFFFFFFFFFFFFFFFFFFFFFFFFFFFFFFFFFFFF AND DUP3 PUSH20 0xFFFFFFFFFFFFFFFFFFFFFFFFFFFFFFFFFFFFFFFF AND SUB PUSH2 0x95B JUMPI PUSH1 0x40 MLOAD PUSH32 0x8C379A000000000000000000000000000000000000000000000000000000000 DUP2 MSTORE PUSH1 0x4 ADD PUSH2 0x952 SWAP1 PUSH2 0x19E8 JUMP JUMPDEST PUSH1 0x40 MLOAD DUP1 SWAP2 SUB SWAP1 REVERT JUMPDEST PUSH1 0x3 PUSH0 DUP4 PUSH20 0xFFFFFFFFFFFFFFFFFFFFFFFFFFFFFFFFFFFFFFFF AND PUSH20 0xFFFFFFFFFFFFFFFFFFFFFFFFFFFFFFFFFFFFFFFF AND DUP2 MSTORE PUSH1 0x20 ADD SWAP1 DUP2 MSTORE PUSH1 0x20 ADD PUSH0 KECCAK256 SLOAD SWAP1 POP SWAP2 SWAP1 POP JUMP JUMPDEST PUSH1 0x60 PUSH1 0x1 DUP1 SLOAD PUSH2 0x9AF SWAP1 PUSH2 0x1680 JUMP JUMPDEST DUP1 PUSH1 0x1F ADD PUSH1 0x20 DUP1 SWAP2 DIV MUL PUSH1 0x20 ADD PUSH1 0x40 MLOAD SWAP1 DUP2 ADD PUSH1 0x40 MSTORE DUP1 SWAP3 SWAP2 SWAP1 DUP2 DUP2 MSTORE PUSH1 0x20 ADD DUP3 DUP1 SLOAD PUSH2 0x9DB SWAP1 PUSH2 0x1680 JUMP JUMPDEST DUP1 ISZERO PUSH2 0xA26 JUMPI DUP1 PUSH1 0x1F LT PUSH2 0x9FD JUMPI PUSH2 0x100 DUP1 DUP4 SLOAD DIV MUL DUP4 MSTORE SWAP2 PUSH1 0x20 ADD SWAP2 PUSH2 0xA26 JUMP JUMPDEST DUP3 ADD SWAP2 SWAP1 PUSH0 MSTORE PUSH1 0x20 PUSH0 KECCAK256 SWAP1 JUMPDEST DUP2 SLOAD DUP2 MSTORE SWAP1 PUSH1 0x1 ADD SWAP1 PUSH1 0x20 ADD DUP1 DUP4 GT PUSH2 0xA09 JUMPI DUP3 SWAP1 SUB PUSH1 0x1F AND DUP3 ADD SWAP2 JUMPDEST POP POP POP POP POP SWAP1 POP SWAP1 JUMP JUMPDEST DUP1 PUSH1 0x6 PUSH0 PUSH2 0x100 EXP DUP2 SLOAD DUP2 PUSH20 0xFFFFFFFFFFFFFFFFFFFFFFFFFFFFFFFFFFFFFFFF MUL NOT AND SWAP1 DUP4 PUSH20 0xFFFFFFFFFFFFFFFFFFFFFFFFFFFFFFFFFFFFFFFF AND MUL OR SWAP1 SSTORE POP POP JUMP JUMPDEST PUSH0 DUP1 PUSH1 0x6 PUSH0 SWAP1 SLOAD SWAP1 PUSH2 0x100 EXP SWAP1 DIV PUSH20 0xFFFFFFFFFFFFFFFFFFFFFFFFFFFFFFFFFFFFFFFF AND PUSH20 0xFFFFFFFFFFFFFFFFFFFFFFFFFFFFFFFFFFFFFFFF AND DUP5 DUP5 PUSH1 0x40 MLOAD PUSH1 0x24 ADD PUSH2 0xAC0 SWAP3 SWAP2 SWAP1 PUSH2 0x17CC JUMP JUMPDEST PUSH1 0x40 MLOAD PUSH1 0x20 DUP2 DUP4 SUB SUB DUP2 MSTORE SWAP1 PUSH1 0x40 MSTORE PUSH32 0xDF7F3EAB00000000000000000000000000000000000000000000000000000000 PUSH28 0xFFFFFFFFFFFFFFFFFFFFFFFFFFFFFFFFFFFFFFFFFFFFFFFFFFFFFFFF NOT AND PUSH1 0x20 DUP3 ADD DUP1 MLOAD PUSH28 0xFFFFFFFFFFFFFFFFFFFFFFFFFFFFFFFFFFFFFFFFFFFFFFFFFFFFFFFF DUP4 DUP2 DUP4 AND OR DUP4 MSTORE POP POP POP POP PUSH1 0x40 MLOAD PUSH2 0xB4A SWAP2 SWAP1 PUSH2 0x1837 JUMP JUMPDEST PUSH0 PUSH1 0x40 MLOAD DUP1 DUP4 SUB DUP2 DUP6 GAS DELEGATECALL SWAP2 POP POP RETURNDATASIZE DUP1 PUSH0 DUP2 EQ PUSH2 0xB82 JUMPI PUSH1 0x40 MLOAD SWAP2 POP PUSH1 0x1F NOT PUSH1 0x3F RETURNDATASIZE ADD AND DUP3 ADD PUSH1 0x40 MSTORE RETURNDATASIZE DUP3 MSTORE RETURNDATASIZE PUSH0 PUSH1 0x20 DUP5 ADD RETURNDATACOPY PUSH2 0xB87 JUMP JUMPDEST PUSH1 0x60 SWAP2 POP JUMPDEST POP SWAP2 POP SWAP2 POP POP POP POP POP JUMP JUMPDEST PUSH0 DUP1 PUSH1 0x6 PUSH0 SWAP1 SLOAD SWAP1 PUSH2 0x100 EXP SWAP1 DIV PUSH20 0xFFFFFFFFFFFFFFFFFFFFFFFFFFFFFFFFFFFFFFFF AND PUSH20 0xFFFFFFFFFFFFFFFFFFFFFFFFFFFFFFFFFFFFFFFF AND DUP5 DUP5 PUSH1 0x40 MLOAD PUSH1 0x24 ADD PUSH2 0xBDF SWAP3 SWAP2 SWAP1 PUSH2 0x1A06 JUMP JUMPDEST PUSH1 0x40 MLOAD PUSH1 0x20 DUP2 DUP4 SUB SUB DUP2 MSTORE SWAP1 PUSH1 0x40 MSTORE PUSH32 0x989579AA00000000000000000000000000000000000000000000000000000000 PUSH28 0xFFFFFFFFFFFFFFFFFFFFFFFFFFFFFFFFFFFFFFFFFFFFFFFFFFFFFFFF NOT AND PUSH1 0x20 DUP3 ADD DUP1 MLOAD PUSH28 0xFFFFFFFFFFFFFFFFFFFFFFFFFFFFFFFFFFFFFFFFFFFFFFFFFFFFFFFF DUP4 DUP2 DUP4 AND OR DUP4 MSTORE POP POP POP POP PUSH1 0x40 MLOAD PUSH2 0xC69 SWAP2 SWAP1 PUSH2 0x1837 JUMP JUMPDEST PUSH0 PUSH1 0x40 MLOAD DUP1 DUP4 SUB DUP2 DUP6 GAS DELEGATECALL SWAP2 POP POP RETURNDATASIZE DUP1 PUSH0 DUP2 EQ PUSH2 0xCA1 JUMPI PUSH1 0x40 MLOAD SWAP2 POP PUSH1 0x1F NOT PUSH1 0x3F RETURNDATASIZE ADD AND DUP3 ADD PUSH1 0x40 MSTORE RETURNDATASIZE DUP3 MSTORE RETURNDATASIZE PUSH0 PUSH1 0x20 DUP5 ADD RETURNDATACOPY PUSH2 0xCA6 JUMP JUMPDEST PUSH1 0x60 SWAP2 POP JUMPDEST POP SWAP2 POP SWAP2 POP POP POP POP POP JUMP JUMPDEST PUSH2 0xCC2 PUSH2 0xCBC PUSH2 0x103E JUMP JUMPDEST DUP4 PUSH2 0x1045 JUMP JUMPDEST PUSH2 0xD01 JUMPI PUSH1 0x40 MLOAD PUSH32 0x8C379A000000000000000000000000000000000000000000000000000000000 DUP2 MSTORE PUSH1 0x4 ADD PUSH2 0xCF8 SWAP1 PUSH2 0x18BD JUMP JUMPDEST PUSH1 0x40 MLOAD DUP1 SWAP2 SUB SWAP1 REVERT JUMPDEST PUSH0 DUP1 PUSH1 0x6 PUSH0 SWAP1 SLOAD SWAP1 PUSH2 0x100 EXP SWAP1 DIV PUSH20 0xFFFFFFFFFFFFFFFFFFFFFFFFFFFFFFFFFFFFFFFF AND PUSH20 0xFFFFFFFFFFFFFFFFFFFFFFFFFFFFFFFFFFFFFFFF AND DUP7 DUP7 DUP7 DUP7 PUSH1 0x40 MLOAD PUSH1 0x24 ADD PUSH2 0xD52 SWAP5 SWAP4 SWAP3 SWAP2 SWAP1 PUSH2 0x1A75 JUMP JUMPDEST PUSH1 0x40 MLOAD PUSH1 0x20 DUP2 DUP4 SUB SUB DUP2 MSTORE SWAP1 PUSH1 0x40 MSTORE PUSH32 0xA207714200000000000000000000000000000000000000000000000000000000 PUSH28 0xFFFFFFFFFFFFFFFFFFFFFFFFFFFFFFFFFFFFFFFFFFFFFFFFFFFFFFFF NOT AND PUSH1 0x20 DUP3 ADD DUP1 MLOAD PUSH28 0xFFFFFFFFFFFFFFFFFFFFFFFFFFFFFFFFFFFFFFFFFFFFFFFFFFFFFFFF DUP4 DUP2 DUP4 AND OR DUP4 MSTORE POP POP POP POP PUSH1 0x40 MLOAD PUSH2 0xDDC SWAP2 SWAP1 PUSH2 0x1837 JUMP JUMPDEST PUSH0 PUSH1 0x40 MLOAD DUP1 DUP4 SUB DUP2 DUP6 GAS DELEGATECALL SWAP2 POP POP RETURNDATASIZE DUP1 PUSH0 DUP2 EQ PUSH2 0xE14 JUMPI PUSH1 0x40 MLOAD SWAP2 POP PUSH1 0x1F NOT PUSH1 0x3F RETURNDATASIZE ADD AND DUP3 ADD PUSH1 0x40 MSTORE RETURNDATASIZE DUP3 MSTORE RETURNDATASIZE PUSH0 PUSH1 0x20 DUP5 ADD RETURNDATACOPY PUSH2 0xE19 JUMP JUMPDEST PUSH1 0x60 SWAP2 POP JUMPDEST POP SWAP2 POP SWAP2 POP POP POP POP POP POP POP JUMP JUMPDEST PUSH1 0x60 PUSH0 DUP1 PUSH1 0x6 PUSH0 SWAP1 SLOAD SWAP1 PUSH2 0x100 EXP SWAP1 DIV PUSH20 0xFFFFFFFFFFFFFFFFFFFFFFFFFFFFFFFFFFFFFFFF AND PUSH20 0xFFFFFFFFFFFFFFFFFFFFFFFFFFFFFFFFFFFFFFFF AND DUP5 PUSH1 0x40 MLOAD PUSH1 0x24 ADD PUSH2 0xE73 SWAP2 SWAP1 PUSH2 0x13B5 JUMP JUMPDEST PUSH1 0x40 MLOAD PUSH1 0x20 DUP2 DUP4 SUB SUB DUP2 MSTORE SWAP1 PUSH1 0x40 MSTORE PUSH32 0xC87B56DD00000000000000000000000000000000000000000000000000000000 PUSH28 0xFFFFFFFFFFFFFFFFFFFFFFFFFFFFFFFFFFFFFFFFFFFFFFFFFFFFFFFF NOT AND PUSH1 0x20 DUP3 ADD DUP1 MLOAD PUSH28 0xFFFFFFFFFFFFFFFFFFFFFFFFFFFFFFFFFFFFFFFFFFFFFFFFFFFFFFFF DUP4 DUP2 DUP4 AND OR DUP4 MSTORE POP POP POP POP PUSH1 0x40 MLOAD PUSH2 0xEFD SWAP2 SWAP1 PUSH2 0x1837 JUMP JUMPDEST PUSH0 PUSH1 0x40 MLOAD DUP1 DUP4 SUB DUP2 DUP6 GAS DELEGATECALL SWAP2 POP POP RETURNDATASIZE DUP1 PUSH0 DUP2 EQ PUSH2 0xF35 JUMPI PUSH1 0x40 MLOAD SWAP2 POP PUSH1 0x1F NOT PUSH1 0x3F RETURNDATASIZE ADD AND DUP3 ADD PUSH1 0x40 MSTORE RETURNDATASIZE DUP3 MSTORE RETURNDATASIZE PUSH0 PUSH1 0x20 DUP5 ADD RETURNDATACOPY PUSH2 0xF3A JUMP JUMPDEST PUSH1 0x60 SWAP2 POP JUMPDEST POP SWAP2 POP SWAP2 POP DUP2 PUSH2 0xF48 JUMPI PUSH0 DUP1 REVERT JUMPDEST DUP1 DUP1 PUSH1 0x20 ADD SWAP1 MLOAD DUP2 ADD SWAP1 PUSH2 0xF5C SWAP2 SWAP1 PUSH2 0x1B5D JUMP JUMPDEST SWAP3 POP POP POP SWAP2 SWAP1 POP JUMP JUMPDEST PUSH0 PUSH1 0x5 PUSH0 DUP5 PUSH20 0xFFFFFFFFFFFFFFFFFFFFFFFFFFFFFFFFFFFFFFFF AND PUSH20 0xFFFFFFFFFFFFFFFFFFFFFFFFFFFFFFFFFFFFFFFF AND DUP2 MSTORE PUSH1 0x20 ADD SWAP1 DUP2 MSTORE PUSH1 0x20 ADD PUSH0 KECCAK256 PUSH0 DUP4 PUSH20 0xFFFFFFFFFFFFFFFFFFFFFFFFFFFFFFFFFFFFFFFF AND PUSH20 0xFFFFFFFFFFFFFFFFFFFFFFFFFFFFFFFFFFFFFFFF AND DUP2 MSTORE PUSH1 0x20 ADD SWAP1 DUP2 MSTORE PUSH1 0x20 ADD PUSH0 KECCAK256 PUSH0 SWAP1 SLOAD SWAP1 PUSH2 0x100 EXP SWAP1 DIV PUSH1 0xFF AND SWAP1 POP SWAP3 SWAP2 POP POP JUMP JUMPDEST PUSH2 0xFFC DUP2 PUSH2 0x1112 JUMP JUMPDEST PUSH2 0x103B JUMPI PUSH1 0x40 MLOAD PUSH32 0x8C379A000000000000000000000000000000000000000000000000000000000 DUP2 MSTORE PUSH1 0x4 ADD PUSH2 0x1032 SWAP1 PUSH2 0x195A JUMP JUMPDEST PUSH1 0x40 MLOAD DUP1 SWAP2 SUB SWAP1 REVERT JUMPDEST POP JUMP JUMPDEST PUSH0 CALLER SWAP1 POP SWAP1 JUMP JUMPDEST PUSH0 DUP1 PUSH2 0x1050 DUP4 PUSH2 0x868 JUMP JUMPDEST SWAP1 POP DUP1 PUSH20 0xFFFFFFFFFFFFFFFFFFFFFFFFFFFFFFFFFFFFFFFF AND DUP5 PUSH20 0xFFFFFFFFFFFFFFFFFFFFFFFFFFFFFFFFFFFFFFFF AND EQ DUP1 PUSH2 0x1092 JUMPI POP PUSH2 0x1091 DUP2 DUP6 PUSH2 0xF65 JUMP JUMPDEST JUMPDEST DUP1 PUSH2 0x10D0 JUMPI POP DUP4 PUSH20 0xFFFFFFFFFFFFFFFFFFFFFFFFFFFFFFFFFFFFFFFF AND PUSH2 0x10B8 DUP5 PUSH2 0x36B JUMP JUMPDEST PUSH20 0xFFFFFFFFFFFFFFFFFFFFFFFFFFFFFFFFFFFFFFFF AND EQ JUMPDEST SWAP2 POP POP SWAP3 SWAP2 POP POP JUMP JUMPDEST PUSH0 PUSH1 0x2 PUSH0 DUP4 DUP2 MSTORE PUSH1 0x20 ADD SWAP1 DUP2 MSTORE PUSH1 0x20 ADD PUSH0 KECCAK256 PUSH0 SWAP1 SLOAD SWAP1 PUSH2 0x100 EXP SWAP1 DIV PUSH20 0xFFFFFFFFFFFFFFFFFFFFFFFFFFFFFFFFFFFFFFFF AND SWAP1 POP SWAP2 SWAP1 POP JUMP JUMPDEST PUSH0 DUP1 PUSH20 0xFFFFFFFFFFFFFFFFFFFFFFFFFFFFFFFFFFFFFFFF AND PUSH2 0x1133 DUP4 PUSH2 0x10D9 JUMP JUMPDEST PUSH20 0xFFFFFFFFFFFFFFFFFFFFFFFFFFFFFFFFFFFFFFFF AND EQ ISZERO SWAP1 POP SWAP2 SWAP1 POP JUMP JUMPDEST PUSH0 DUP2 MLOAD SWAP1 POP SWAP2 SWAP1 POP JUMP JUMPDEST PUSH0 DUP3 DUP3 MSTORE PUSH1 0x20 DUP3 ADD SWAP1 POP SWAP3 SWAP2 POP POP JUMP JUMPDEST PUSH0 JUMPDEST DUP4 DUP2 LT ISZERO PUSH2 0x1189 JUMPI DUP1 DUP3 ADD MLOAD DUP2 DUP5 ADD MSTORE PUSH1 0x20 DUP2 ADD SWAP1 POP PUSH2 0x116E JUMP JUMPDEST PUSH0 DUP5 DUP5 ADD MSTORE POP POP POP POP JUMP JUMPDEST PUSH0 PUSH1 0x1F NOT PUSH1 0x1F DUP4 ADD AND SWAP1 POP SWAP2 SWAP1 POP JUMP JUMPDEST PUSH0 PUSH2 0x11AE DUP3 PUSH2 0x1152 JUMP JUMPDEST PUSH2 0x11B8 DUP2 DUP6 PUSH2 0x115C JUMP JUMPDEST SWAP4 POP PUSH2 0x11C8 DUP2 DUP6 PUSH1 0x20 DUP7 ADD PUSH2 0x116C JUMP JUMPDEST PUSH2 0x11D1 DUP2 PUSH2 0x1194 JUMP JUMPDEST DUP5 ADD SWAP2 POP POP SWAP3 SWAP2 POP POP JUMP JUMPDEST PUSH0 PUSH1 0x20 DUP3 ADD SWAP1 POP DUP2 DUP2 SUB PUSH0 DUP4 ADD MSTORE PUSH2 0x11F4 DUP2 DUP5 PUSH2 0x11A4 JUMP JUMPDEST SWAP1 POP SWAP3 SWAP2 POP POP JUMP JUMPDEST PUSH0 PUSH1 0x40 MLOAD SWAP1 POP SWAP1 JUMP JUMPDEST PUSH0 DUP1 REVERT JUMPDEST PUSH0 DUP1 REVERT JUMPDEST PUSH0 DUP2 SWAP1 POP SWAP2 SWAP1 POP JUMP JUMPDEST PUSH2 0x121F DUP2 PUSH2 0x120D JUMP JUMPDEST DUP2 EQ PUSH2 0x1229 JUMPI PUSH0 DUP1 REVERT JUMPDEST POP JUMP JUMPDEST PUSH0 DUP2 CALLDATALOAD SWAP1 POP PUSH2 0x123A DUP2 PUSH2 0x1216 JUMP JUMPDEST SWAP3 SWAP2 POP POP JUMP JUMPDEST PUSH0 PUSH1 0x20 DUP3 DUP5 SUB SLT ISZERO PUSH2 0x1255 JUMPI PUSH2 0x1254 PUSH2 0x1205 JUMP JUMPDEST JUMPDEST PUSH0 PUSH2 0x1262 DUP5 DUP3 DUP6 ADD PUSH2 0x122C JUMP JUMPDEST SWAP2 POP POP SWAP3 SWAP2 POP POP JUMP JUMPDEST PUSH0 PUSH20 0xFFFFFFFFFFFFFFFFFFFFFFFFFFFFFFFFFFFFFFFF DUP3 AND SWAP1 POP SWAP2 SWAP1 POP JUMP JUMPDEST PUSH0 PUSH2 0x1294 DUP3 PUSH2 0x126B JUMP JUMPDEST SWAP1 POP SWAP2 SWAP1 POP JUMP JUMPDEST PUSH2 0x12A4 DUP2 PUSH2 0x128A JUMP JUMPDEST DUP3 MSTORE POP POP JUMP JUMPDEST PUSH0 PUSH1 0x20 DUP3 ADD SWAP1 POP PUSH2 0x12BD PUSH0 DUP4 ADD DUP5 PUSH2 0x129B JUMP JUMPDEST SWAP3 SWAP2 POP POP JUMP JUMPDEST PUSH2 0x12CC DUP2 PUSH2 0x128A JUMP JUMPDEST DUP2 EQ PUSH2 0x12D6 JUMPI PUSH0 DUP1 REVERT JUMPDEST POP JUMP JUMPDEST PUSH0 DUP2 CALLDATALOAD SWAP1 POP PUSH2 0x12E7 DUP2 PUSH2 0x12C3 JUMP JUMPDEST SWAP3 SWAP2 POP POP JUMP JUMPDEST PUSH0 DUP1 PUSH1 0x40 DUP4 DUP6 SUB SLT ISZERO PUSH2 0x1303 JUMPI PUSH2 0x1302 PUSH2 0x1205 JUMP JUMPDEST JUMPDEST PUSH0 PUSH2 0x1310 DUP6 DUP3 DUP7 ADD PUSH2 0x12D9 JUMP JUMPDEST SWAP3 POP POP PUSH1 0x20 PUSH2 0x1321 DUP6 DUP3 DUP7 ADD PUSH2 0x122C JUMP JUMPDEST SWAP2 POP POP SWAP3 POP SWAP3 SWAP1 POP JUMP JUMPDEST PUSH0 DUP1 PUSH0 PUSH1 0x60 DUP5 DUP7 SUB SLT ISZERO PUSH2 0x1342 JUMPI PUSH2 0x1341 PUSH2 0x1205 JUMP JUMPDEST JUMPDEST PUSH0 PUSH2 0x134F DUP7 DUP3 DUP8 ADD PUSH2 0x12D9 JUMP JUMPDEST SWAP4 POP POP PUSH1 0x20 PUSH2 0x1360 DUP7 DUP3 DUP8 ADD PUSH2 0x12D9 JUMP JUMPDEST SWAP3 POP POP PUSH1 0x40 PUSH2 0x1371 DUP7 DUP3 DUP8 ADD PUSH2 0x122C JUMP JUMPDEST SWAP2 POP POP SWAP3 POP SWAP3 POP SWAP3 JUMP JUMPDEST PUSH0 PUSH1 0x20 DUP3 DUP5 SUB SLT ISZERO PUSH2 0x1390 JUMPI PUSH2 0x138F PUSH2 0x1205 JUMP JUMPDEST JUMPDEST PUSH0 PUSH2 0x139D DUP5 DUP3 DUP6 ADD PUSH2 0x12D9 JUMP JUMPDEST SWAP2 POP POP SWAP3 SWAP2 POP POP JUMP JUMPDEST PUSH2 0x13AF DUP2 PUSH2 0x120D JUMP JUMPDEST DUP3 MSTORE POP POP JUMP JUMPDEST PUSH0 PUSH1 0x20 DUP3 ADD SWAP1 POP PUSH2 0x13C8 PUSH0 DUP4 ADD DUP5 PUSH2 0x13A6 JUMP JUMPDEST SWAP3 SWAP2 POP POP JUMP JUMPDEST PUSH0 DUP2 ISZERO ISZERO SWAP1 POP SWAP2 SWAP1 POP JUMP JUMPDEST PUSH2 0x13E2 DUP2 PUSH2 0x13CE JUMP JUMPDEST DUP2 EQ PUSH2 0x13EC JUMPI PUSH0 DUP1 REVERT JUMPDEST POP JUMP JUMPDEST PUSH0 DUP2 CALLDATALOAD SWAP1 POP PUSH2 0x13FD DUP2 PUSH2 0x13D9 JUMP JUMPDEST SWAP3 SWAP2 POP POP JUMP JUMPDEST PUSH0 DUP1 PUSH1 0x40 DUP4 DUP6 SUB SLT ISZERO PUSH2 0x1419 JUMPI PUSH2 0x1418 PUSH2 0x1205 JUMP JUMPDEST JUMPDEST PUSH0 PUSH2 0x1426 DUP6 DUP3 DUP7 ADD PUSH2 0x12D9 JUMP JUMPDEST SWAP3 POP POP PUSH1 0x20 PUSH2 0x1437 DUP6 DUP3 DUP7 ADD PUSH2 0x13EF JUMP JUMPDEST SWAP2 POP POP SWAP3 POP SWAP3 SWAP1 POP JUMP JUMPDEST PUSH0 DUP1 REVERT JUMPDEST PUSH0 DUP1 REVERT JUMPDEST PUSH32 0x4E487B7100000000000000000000000000000000000000000000000000000000 PUSH0 MSTORE PUSH1 0x41 PUSH1 0x4 MSTORE PUSH1 0x24 PUSH0 REVERT JUMPDEST PUSH2 0x147F DUP3 PUSH2 0x1194 JUMP JUMPDEST DUP2 ADD DUP2 DUP2 LT PUSH8 0xFFFFFFFFFFFFFFFF DUP3 GT OR ISZERO PUSH2 0x149E JUMPI PUSH2 0x149D PUSH2 0x1449 JUMP JUMPDEST JUMPDEST DUP1 PUSH1 0x40 MSTORE POP POP POP JUMP JUMPDEST PUSH0 PUSH2 0x14B0 PUSH2 0x11FC JUMP JUMPDEST SWAP1 POP PUSH2 0x14BC DUP3 DUP3 PUSH2 0x1476 JUMP JUMPDEST SWAP2 SWAP1 POP JUMP JUMPDEST PUSH0 PUSH8 0xFFFFFFFFFFFFFFFF DUP3 GT ISZERO PUSH2 0x14DB JUMPI PUSH2 0x14DA PUSH2 0x1449 JUMP JUMPDEST JUMPDEST PUSH2 0x14E4 DUP3 PUSH2 0x1194 JUMP JUMPDEST SWAP1 POP PUSH1 0x20 DUP2 ADD SWAP1 POP SWAP2 SWAP1 POP JUMP JUMPDEST DUP3 DUP2 DUP4 CALLDATACOPY PUSH0 DUP4 DUP4 ADD MSTORE POP POP POP JUMP JUMPDEST PUSH0 PUSH2 0x1511 PUSH2 0x150C DUP5 PUSH2 0x14C1 JUMP JUMPDEST PUSH2 0x14A7 JUMP JUMPDEST SWAP1 POP DUP3 DUP2 MSTORE PUSH1 0x20 DUP2 ADD DUP5 DUP5 DUP5 ADD GT ISZERO PUSH2 0x152D JUMPI PUSH2 0x152C PUSH2 0x1445 JUMP JUMPDEST JUMPDEST PUSH2 0x1538 DUP5 DUP3 DUP6 PUSH2 0x14F1 JUMP JUMPDEST POP SWAP4 SWAP3 POP POP POP JUMP JUMPDEST PUSH0 DUP3 PUSH1 0x1F DUP4 ADD SLT PUSH2 0x1554 JUMPI PUSH2 0x1553 PUSH2 0x1441 JUMP JUMPDEST JUMPDEST DUP2 CALLDATALOAD PUSH2 0x1564 DUP5 DUP3 PUSH1 0x20 DUP7 ADD PUSH2 0x14FF JUMP JUMPDEST SWAP2 POP POP SWAP3 SWAP2 POP POP JUMP JUMPDEST PUSH0 DUP1 PUSH0 DUP1 PUSH1 0x80 DUP6 DUP8 SUB SLT ISZERO PUSH2 0x1585 JUMPI PUSH2 0x1584 PUSH2 0x1205 JUMP JUMPDEST JUMPDEST PUSH0 PUSH2 0x1592 DUP8 DUP3 DUP9 ADD PUSH2 0x12D9 JUMP JUMPDEST SWAP5 POP POP PUSH1 0x20 PUSH2 0x15A3 DUP8 DUP3 DUP9 ADD PUSH2 0x12D9 JUMP JUMPDEST SWAP4 POP POP PUSH1 0x40 PUSH2 0x15B4 DUP8 DUP3 DUP9 ADD PUSH2 0x122C JUMP JUMPDEST SWAP3 POP POP PUSH1 0x60 DUP6 ADD CALLDATALOAD PUSH8 0xFFFFFFFFFFFFFFFF DUP2 GT ISZERO PUSH2 0x15D5 JUMPI PUSH2 0x15D4 PUSH2 0x1209 JUMP JUMPDEST JUMPDEST PUSH2 0x15E1 DUP8 DUP3 DUP9 ADD PUSH2 0x1540 JUMP JUMPDEST SWAP2 POP POP SWAP3 SWAP6 SWAP2 SWAP5 POP SWAP3 POP JUMP JUMPDEST PUSH0 DUP1 PUSH1 0x40 DUP4 DUP6 SUB SLT ISZERO PUSH2 0x1603 JUMPI PUSH2 0x1602 PUSH2 0x1205 JUMP JUMPDEST JUMPDEST PUSH0 PUSH2 0x1610 DUP6 DUP3 DUP7 ADD PUSH2 0x12D9 JUMP JUMPDEST SWAP3 POP POP PUSH1 0x20 PUSH2 0x1621 DUP6 DUP3 DUP7 ADD PUSH2 0x12D9 JUMP JUMPDEST SWAP2 POP POP SWAP3 POP SWAP3 SWAP1 POP JUMP JUMPDEST PUSH2 0x1634 DUP2 PUSH2 0x13CE JUMP JUMPDEST DUP3 MSTORE POP POP JUMP JUMPDEST PUSH0 PUSH1 0x20 DUP3 ADD SWAP1 POP PUSH2 0x164D PUSH0 DUP4 ADD DUP5 PUSH2 0x162B JUMP JUMPDEST SWAP3 SWAP2 POP POP JUMP JUMPDEST PUSH32 0x4E487B7100000000000000000000000000000000000000000000000000000000 PUSH0 MSTORE PUSH1 0x22 PUSH1 0x4 MSTORE PUSH1 0x24 PUSH0 REVERT JUMPDEST PUSH0 PUSH1 0x2 DUP3 DIV SWAP1 POP PUSH1 0x1 DUP3 AND DUP1 PUSH2 0x1697 JUMPI PUSH1 0x7F DUP3 AND SWAP2 POP JUMPDEST PUSH1 0x20 DUP3 LT DUP2 SUB PUSH2 0x16AA JUMPI PUSH2 0x16A9 PUSH2 0x1653 JUMP JUMPDEST JUMPDEST POP SWAP2 SWAP1 POP JUMP JUMPDEST PUSH32 0x4552433732313A20617070726F76616C20746F2063757272656E74206F776E65 PUSH0 DUP3 ADD MSTORE PUSH32 0x7200000000000000000000000000000000000000000000000000000000000000 PUSH1 0x20 DUP3 ADD MSTORE POP JUMP JUMPDEST PUSH0 PUSH2 0x170A PUSH1 0x21 DUP4 PUSH2 0x115C JUMP JUMPDEST SWAP2 POP PUSH2 0x1715 DUP3 PUSH2 0x16B0 JUMP JUMPDEST PUSH1 0x40 DUP3 ADD SWAP1 POP SWAP2 SWAP1 POP JUMP JUMPDEST PUSH0 PUSH1 0x20 DUP3 ADD SWAP1 POP DUP2 DUP2 SUB PUSH0 DUP4 ADD MSTORE PUSH2 0x1737 DUP2 PUSH2 0x16FE JUMP JUMPDEST SWAP1 POP SWAP2 SWAP1 POP JUMP JUMPDEST PUSH32 0x4552433732313A20617070726F76652063616C6C6572206973206E6F7420746F PUSH0 DUP3 ADD MSTORE PUSH32 0x6B656E206F776E6572206F7220617070726F76656420666F7220616C6C000000 PUSH1 0x20 DUP3 ADD MSTORE POP JUMP JUMPDEST PUSH0 PUSH2 0x1798 PUSH1 0x3D DUP4 PUSH2 0x115C JUMP JUMPDEST SWAP2 POP PUSH2 0x17A3 DUP3 PUSH2 0x173E JUMP JUMPDEST PUSH1 0x40 DUP3 ADD SWAP1 POP SWAP2 SWAP1 POP JUMP JUMPDEST PUSH0 PUSH1 0x20 DUP3 ADD SWAP1 POP DUP2 DUP2 SUB PUSH0 DUP4 ADD MSTORE PUSH2 0x17C5 DUP2 PUSH2 0x178C JUMP JUMPDEST SWAP1 POP SWAP2 SWAP1 POP JUMP JUMPDEST PUSH0 PUSH1 0x40 DUP3 ADD SWAP1 POP PUSH2 0x17DF PUSH0 DUP4 ADD DUP6 PUSH2 0x129B JUMP JUMPDEST PUSH2 0x17EC PUSH1 0x20 DUP4 ADD DUP5 PUSH2 0x13A6 JUMP JUMPDEST SWAP4 SWAP3 POP POP POP JUMP JUMPDEST PUSH0 DUP2 MLOAD SWAP1 POP SWAP2 SWAP1 POP JUMP JUMPDEST PUSH0 DUP2 SWAP1 POP SWAP3 SWAP2 POP POP JUMP JUMPDEST PUSH0 PUSH2 0x1811 DUP3 PUSH2 0x17F3 JUMP JUMPDEST PUSH2 0x181B DUP2 DUP6 PUSH2 0x17FD JUMP JUMPDEST SWAP4 POP PUSH2 0x182B DUP2 DUP6 PUSH1 0x20 DUP7 ADD PUSH2 0x116C JUMP JUMPDEST DUP1 DUP5 ADD SWAP2 POP POP SWAP3 SWAP2 POP POP JUMP JUMPDEST PUSH0 PUSH2 0x1842 DUP3 DUP5 PUSH2 0x1807 JUMP JUMPDEST SWAP2 POP DUP2 SWAP1 POP SWAP3 SWAP2 POP POP JUMP JUMPDEST PUSH32 0x4552433732313A2063616C6C6572206973206E6F7420746F6B656E206F776E65 PUSH0 DUP3 ADD MSTORE PUSH32 0x72206F7220617070726F76656400000000000000000000000000000000000000 PUSH1 0x20 DUP3 ADD MSTORE POP JUMP JUMPDEST PUSH0 PUSH2 0x18A7 PUSH1 0x2D DUP4 PUSH2 0x115C JUMP JUMPDEST SWAP2 POP PUSH2 0x18B2 DUP3 PUSH2 0x184D JUMP JUMPDEST PUSH1 0x40 DUP3 ADD SWAP1 POP SWAP2 SWAP1 POP JUMP JUMPDEST PUSH0 PUSH1 0x20 DUP3 ADD SWAP1 POP DUP2 DUP2 SUB PUSH0 DUP4 ADD MSTORE PUSH2 0x18D4 DUP2 PUSH2 0x189B JUMP JUMPDEST SWAP1 POP SWAP2 SWAP1 POP JUMP JUMPDEST PUSH0 PUSH1 0x60 DUP3 ADD SWAP1 POP PUSH2 0x18EE PUSH0 DUP4 ADD DUP7 PUSH2 0x129B JUMP JUMPDEST PUSH2 0x18FB PUSH1 0x20 DUP4 ADD DUP6 PUSH2 0x129B JUMP JUMPDEST PUSH2 0x1908 PUSH1 0x40 DUP4 ADD DUP5 PUSH2 0x13A6 JUMP JUMPDEST SWAP5 SWAP4 POP POP POP POP JUMP JUMPDEST PUSH32 0x4552433732313A20696E76616C696420746F6B656E2049440000000000000000 PUSH0 DUP3 ADD MSTORE POP JUMP JUMPDEST PUSH0 PUSH2 0x1944 PUSH1 0x18 DUP4 PUSH2 0x115C JUMP JUMPDEST SWAP2 POP PUSH2 0x194F DUP3 PUSH2 0x1910 JUMP JUMPDEST PUSH1 0x20 DUP3 ADD SWAP1 POP SWAP2 SWAP1 POP JUMP JUMPDEST PUSH0 PUSH1 0x20 DUP3 ADD SWAP1 POP DUP2 DUP2 SUB PUSH0 DUP4 ADD MSTORE PUSH2 0x1971 DUP2 PUSH2 0x1938 JUMP JUMPDEST SWAP1 POP SWAP2 SWAP1 POP JUMP JUMPDEST PUSH32 0x4552433732313A2061646472657373207A65726F206973206E6F742061207661 PUSH0 DUP3 ADD MSTORE PUSH32 0x6C6964206F776E65720000000000000000000000000000000000000000000000 PUSH1 0x20 DUP3 ADD MSTORE POP JUMP JUMPDEST PUSH0 PUSH2 0x19D2 PUSH1 0x29 DUP4 PUSH2 0x115C JUMP JUMPDEST SWAP2 POP PUSH2 0x19DD DUP3 PUSH2 0x1978 JUMP JUMPDEST PUSH1 0x40 DUP3 ADD SWAP1 POP SWAP2 SWAP1 POP JUMP JUMPDEST PUSH0 PUSH1 0x20 DUP3 ADD SWAP1 POP DUP2 DUP2 SUB PUSH0 DUP4 ADD MSTORE PUSH2 0x19FF DUP2 PUSH2 0x19C6 JUMP JUMPDEST SWAP1 POP SWAP2 SWAP1 POP JUMP JUMPDEST PUSH0 PUSH1 0x40 DUP3 ADD SWAP1 POP PUSH2 0x1A19 PUSH0 DUP4 ADD DUP6 PUSH2 0x129B JUMP JUMPDEST PUSH2 0x1A26 PUSH1 0x20 DUP4 ADD DUP5 PUSH2 0x162B JUMP JUMPDEST SWAP4 SWAP3 POP POP POP JUMP JUMPDEST PUSH0 DUP3 DUP3 MSTORE PUSH1 0x20 DUP3 ADD SWAP1 POP SWAP3 SWAP2 POP POP JUMP JUMPDEST PUSH0 PUSH2 0x1A47 DUP3 PUSH2 0x17F3 JUMP JUMPDEST PUSH2 0x1A51 DUP2 DUP6 PUSH2 0x1A2D JUMP JUMPDEST SWAP4 POP PUSH2 0x1A61 DUP2 DUP6 PUSH1 0x20 DUP7 ADD PUSH2 0x116C JUMP JUMPDEST PUSH2 0x1A6A DUP2 PUSH2 0x1194 JUMP JUMPDEST DUP5 ADD SWAP2 POP POP SWAP3 SWAP2 POP POP JUMP JUMPDEST PUSH0 PUSH1 0x80 DUP3 ADD SWAP1 POP PUSH2 0x1A88 PUSH0 DUP4 ADD DUP8 PUSH2 0x129B JUMP JUMPDEST PUSH2 0x1A95 PUSH1 0x20 DUP4 ADD DUP7 PUSH2 0x129B JUMP JUMPDEST PUSH2 0x1AA2 PUSH1 0x40 DUP4 ADD DUP6 PUSH2 0x13A6 JUMP JUMPDEST DUP2 DUP2 SUB PUSH1 0x60 DUP4 ADD MSTORE PUSH2 0x1AB4 DUP2 DUP5 PUSH2 0x1A3D JUMP JUMPDEST SWAP1 POP SWAP6 SWAP5 POP POP POP POP POP JUMP JUMPDEST PUSH0 PUSH8 0xFFFFFFFFFFFFFFFF DUP3 GT ISZERO PUSH2 0x1AD9 JUMPI PUSH2 0x1AD8 PUSH2 0x1449 JUMP JUMPDEST JUMPDEST PUSH2 0x1AE2 DUP3 PUSH2 0x1194 JUMP JUMPDEST SWAP1 POP PUSH1 0x20 DUP2 ADD SWAP1 POP SWAP2 SWAP1 POP JUMP JUMPDEST PUSH0 PUSH2 0x1B01 PUSH2 0x1AFC DUP5 PUSH2 0x1ABF JUMP JUMPDEST PUSH2 0x14A7 JUMP JUMPDEST SWAP1 POP DUP3 DUP2 MSTORE PUSH1 0x20 DUP2 ADD DUP5 DUP5 DUP5 ADD GT ISZERO PUSH2 0x1B1D JUMPI PUSH2 0x1B1C PUSH2 0x1445 JUMP JUMPDEST JUMPDEST PUSH2 0x1B28 DUP5 DUP3 DUP6 PUSH2 0x116C JUMP JUMPDEST POP SWAP4 SWAP3 POP POP POP JUMP JUMPDEST PUSH0 DUP3 PUSH1 0x1F DUP4 ADD SLT PUSH2 0x1B44 JUMPI PUSH2 0x1B43 PUSH2 0x1441 JUMP JUMPDEST JUMPDEST DUP2 MLOAD PUSH2 0x1B54 DUP5 DUP3 PUSH1 0x20 DUP7 ADD PUSH2 0x1AEF JUMP JUMPDEST SWAP2 POP POP SWAP3 SWAP2 POP POP JUMP JUMPDEST PUSH0 PUSH1 0x20 DUP3 DUP5 SUB SLT ISZERO PUSH2 0x1B72 JUMPI PUSH2 0x1B71 PUSH2 0x1205 JUMP JUMPDEST JUMPDEST PUSH0 DUP3 ADD MLOAD PUSH8 0xFFFFFFFFFFFFFFFF DUP2 GT ISZERO PUSH2 0x1B8F JUMPI PUSH2 0x1B8E PUSH2 0x1209 JUMP JUMPDEST JUMPDEST PUSH2 0x1B9B DUP5 DUP3 DUP6 ADD PUSH2 0x1B30 JUMP JUMPDEST SWAP2 POP POP SWAP3 SWAP2 POP POP JUMP INVALID LOG2 PUSH5 0x6970667358 0x22 SLT KECCAK256 0x5C KECCAK256 0xA6 0xD8 0x28 JUMPDEST SELFBALANCE 0x49 0x23 PUSH8 0x1FC51645491227 0xCE 0x25 0xF9 0xE8 0xA5 PUSH29 0x95234E452CD93A5564736F6C6343000814003300000000000000000000 "
				},
				"gasEstimates": {
					"creation": {
						"codeDepositCost": "1426000",
						"executionCost": "infinite",
						"totalCost": "infinite"
					},
					"external": {
						"approve(address,uint256)": "infinite",
						"balanceOf(address)": "2953",
						"getApproved(uint256)": "5260",
						"isApprovedForAll(address,address)": "infinite",
						"name()": "infinite",
						"ownerOf(uint256)": "3050",
						"safeMint(address,uint256)": "infinite",
						"safeTransferFrom(address,address,uint256)": "infinite",
						"safeTransferFrom(address,address,uint256,bytes)": "infinite",
						"setApprovalForAll(address,bool)": "infinite",
						"setERC721Address(address)": "24760",
						"symbol()": "infinite",
						"tokenURI(uint256)": "infinite",
						"transferFrom(address,address,uint256)": "infinite"
					},
					"internal": {
						"_exists(uint256)": "2307",
						"_isApprovedOrOwner(address,uint256)": "infinite",
						"_ownerOf(uint256)": "2244",
						"_requireMinted(uint256)": "infinite"
					}
				},
				"methodIdentifiers": {
					"approve(address,uint256)": "095ea7b3",
					"balanceOf(address)": "70a08231",
					"getApproved(uint256)": "081812fc",
					"isApprovedForAll(address,address)": "e985e9c5",
					"name()": "06fdde03",
					"ownerOf(uint256)": "6352211e",
					"safeMint(address,uint256)": "a1448194",
					"safeTransferFrom(address,address,uint256)": "42842e0e",
					"safeTransferFrom(address,address,uint256,bytes)": "b88d4fde",
					"setApprovalForAll(address,bool)": "a22cb465",
					"setERC721Address(address)": "9a03d9a3",
					"symbol()": "95d89b41",
					"tokenURI(uint256)": "c87b56dd",
					"transferFrom(address,address,uint256)": "23b872dd"
				}
			},
			"storageLayout": {
				"storage": [
					{
						"astId": 15,
						"contract": "contracts/ERC721Proxy.sol:ProxyERC721",
						"label": "_name",
						"offset": 0,
						"slot": "0",
						"type": "t_string_storage"
					},
					{
						"astId": 17,
						"contract": "contracts/ERC721Proxy.sol:ProxyERC721",
						"label": "_symbol",
						"offset": 0,
						"slot": "1",
						"type": "t_string_storage"
					},
					{
						"astId": 21,
						"contract": "contracts/ERC721Proxy.sol:ProxyERC721",
						"label": "_owners",
						"offset": 0,
						"slot": "2",
						"type": "t_mapping(t_uint256,t_address)"
					},
					{
						"astId": 25,
						"contract": "contracts/ERC721Proxy.sol:ProxyERC721",
						"label": "_balances",
						"offset": 0,
						"slot": "3",
						"type": "t_mapping(t_address,t_uint256)"
					},
					{
						"astId": 29,
						"contract": "contracts/ERC721Proxy.sol:ProxyERC721",
						"label": "_tokenApprovals",
						"offset": 0,
						"slot": "4",
						"type": "t_mapping(t_uint256,t_address)"
					},
					{
						"astId": 35,
						"contract": "contracts/ERC721Proxy.sol:ProxyERC721",
						"label": "_operatorApprovals",
						"offset": 0,
						"slot": "5",
						"type": "t_mapping(t_address,t_mapping(t_address,t_bool))"
					},
					{
						"astId": 37,
						"contract": "contracts/ERC721Proxy.sol:ProxyERC721",
						"label": "_contract",
						"offset": 0,
						"slot": "6",
						"type": "t_address"
					}
				],
				"types": {
					"t_address": {
						"encoding": "inplace",
						"label": "address",
						"numberOfBytes": "20"
					},
					"t_bool": {
						"encoding": "inplace",
						"label": "bool",
						"numberOfBytes": "1"
					},
					"t_mapping(t_address,t_bool)": {
						"encoding": "mapping",
						"key": "t_address",
						"label": "mapping(address => bool)",
						"numberOfBytes": "32",
						"value": "t_bool"
					},
					"t_mapping(t_address,t_mapping(t_address,t_bool))": {
						"encoding": "mapping",
						"key": "t_address",
						"label": "mapping(address => mapping(address => bool))",
						"numberOfBytes": "32",
						"value": "t_mapping(t_address,t_bool)"
					},
					"t_mapping(t_address,t_uint256)": {
						"encoding": "mapping",
						"key": "t_address",
						"label": "mapping(address => uint256)",
						"numberOfBytes": "32",
						"value": "t_uint256"
					},
					"t_mapping(t_uint256,t_address)": {
						"encoding": "mapping",
						"key": "t_uint256",
						"label": "mapping(uint256 => address)",
						"numberOfBytes": "32",
						"value": "t_address"
					},
					"t_string_storage": {
						"encoding": "bytes",
						"label": "string",
						"numberOfBytes": "32"
					},
					"t_uint256": {
						"encoding": "inplace",
						"label": "uint256",
						"numberOfBytes": "32"
					}
				}
			},
			"userdoc": {
				"kind": "user",
				"methods": {},
				"version": 1
			}
		}
	}
}