{
	"data": {
		"bytecode": {
			"linkReferences": {},
			"object": "60806040526040518060400160405280601e81526020017f68747470733a2f2f796f75725f626173655f75726c2f70726f647563742f0000815250600990816200004a919062000393565b5034801562000057575f80fd5b506040518060400160405280600781526020017f334453746f7265000000000000000000000000000000000000000000000000008152506040518060400160405280600381526020017f3344530000000000000000000000000000000000000000000000000000000000815250815f9081620000d4919062000393565b508060019081620000e6919062000393565b5050503360085f6101000a81548173ffffffffffffffffffffffffffffffffffffffff021916908373ffffffffffffffffffffffffffffffffffffffff16021790555062000477565b5f81519050919050565b7f4e487b71000000000000000000000000000000000000000000000000000000005f52604160045260245ffd5b7f4e487b71000000000000000000000000000000000000000000000000000000005f52602260045260245ffd5b5f6002820490506001821680620001ab57607f821691505b602082108103620001c157620001c062000166565b5b50919050565b5f819050815f5260205f209050919050565b5f6020601f8301049050919050565b5f82821b905092915050565b5f60088302620002257fffffffffffffffffffffffffffffffffffffffffffffffffffffffffffffffff82620001e8565b620002318683620001e8565b95508019841693508086168417925050509392505050565b5f819050919050565b5f819050919050565b5f6200027b620002756200026f8462000249565b62000252565b62000249565b9050919050565b5f819050919050565b62000296836200025b565b620002ae620002a58262000282565b848454620001f4565b825550505050565b5f90565b620002c4620002b6565b620002d18184846200028b565b505050565b5b81811015620002f857620002ec5f82620002ba565b600181019050620002d7565b5050565b601f82111562000347576200031181620001c7565b6200031c84620001d9565b810160208510156200032c578190505b620003446200033b85620001d9565b830182620002d6565b50505b505050565b5f82821c905092915050565b5f620003695f19846008026200034c565b1980831691505092915050565b5f62000383838362000358565b9150826002028217905092915050565b6200039e826200012f565b67ffffffffffffffff811115620003ba57620003b962000139565b5b620003c6825462000193565b620003d3828285620002fc565b5f60209050601f83116001811462000409575f8415620003f4578287015190505b62000400858262000376565b8655506200046f565b601f1984166200041986620001c7565b5f5b8281101562000442578489015182556001820191506020850194506020810190506200041b565b868310156200046257848901516200045e601f89168262000358565b8355505b6001600288020188555050505b505050505050565b613c7680620004855f395ff3fe608060405260043610610180575f3560e01c80638da5cb5b116100d0578063b88d4fde11610089578063dc17787111610063578063dc17787114610590578063e985e9c5146105b8578063eaad62b9146105f4578063f0ddb87c1461061c57610180565b8063b88d4fde14610504578063c87b56dd1461052c578063d4356bf41461056857610180565b80638da5cb5b146103e857806392c2bdf51461041257806395d89b411461044e578063a22cb46514610478578063b2edd796146104a0578063b3ff3958146104dc57610180565b80633a178d991161013d5780636246928911610117578063624692891461032c5780636352211e1461035457806367dd74ca1461039057806370a08231146103ac57610180565b80633a178d99146102a05780633e6c4b21146102dc57806342842e0e1461030457610180565b806301ffc9a71461018457806306fdde03146101c0578063081812fc146101ea578063095ea7b31461022657806323b872dd1461024e57806334adf63b14610276575b5f80fd5b34801561018f575f80fd5b506101aa60048036038101906101a59190612573565b610658565b6040516101b791906125b8565b60405180910390f35b3480156101cb575f80fd5b506101d46106b8565b6040516101e1919061265b565b60405180910390f35b3480156101f5575f80fd5b50610210600480360381019061020b91906126ae565b610747565b60405161021d9190612718565b60405180910390f35b348015610231575f80fd5b5061024c6004803603810190610247919061275b565b610789565b005b348015610259575f80fd5b50610274600480360381019061026f9190612799565b61089f565b005b348015610281575f80fd5b5061028a6108f8565b6040516102979190612844565b60405180910390f35b3480156102ab575f80fd5b506102c660048036038101906102c191906126ae565b61091d565b6040516102d391906125b8565b60405180910390f35b3480156102e7575f80fd5b5061030260048036038101906102fd919061285d565b610943565b005b34801561030f575f80fd5b5061032a60048036038101906103259190612799565b610986565b005b348015610337575f80fd5b50610352600480360381019061034d91906126ae565b6109a5565b005b34801561035f575f80fd5b5061037a600480360381019061037591906126ae565b610a31565b6040516103879190612718565b60405180910390f35b6103aa60048036038101906103a591906126ae565b610ab5565b005b3480156103b7575f80fd5b506103d260048036038101906103cd919061285d565b610e99565b6040516103df9190612897565b60405180910390f35b3480156103f3575f80fd5b506103fc610f4d565b6040516104099190612718565b60405180910390f35b34801561041d575f80fd5b50610438600480360381019061043391906128b0565b610f72565b6040516104459190612897565b60405180910390f35b348015610459575f80fd5b50610462610f9d565b60405161046f919061265b565b60405180910390f35b348015610483575f80fd5b5061049e60048036038101906104999190612918565b61102d565b005b3480156104ab575f80fd5b506104c660048036038101906104c191906126ae565b611043565b6040516104d3919061265b565b60405180910390f35b3480156104e7575f80fd5b5061050260048036038101906104fd9190612956565b6110e4565b005b34801561050f575f80fd5b5061052a60048036038101906105259190612ac0565b611186565b005b348015610537575f80fd5b50610552600480360381019061054d91906126ae565b6111e8565b60405161055f919061265b565b60405180910390f35b348015610573575f80fd5b5061058e60048036038101906105899190612bde565b6112f2565b005b34801561059b575f80fd5b506105b660048036038101906105b19190612c4a565b611374565b005b3480156105c3575f80fd5b506105de60048036038101906105d99190612c91565b611387565b6040516105eb91906125b8565b60405180910390f35b3480156105ff575f80fd5b5061061a60048036038101906106159190612ccf565b611415565b005b348015610627575f80fd5b50610642600480360381019061063d91906126ae565b611569565b60405161064f919061265b565b60405180910390f35b5f634906490660e01b7bffffffffffffffffffffffffffffffffffffffffffffffffffffffff1916827bffffffffffffffffffffffffffffffffffffffffffffffffffffffff191614806106b157506106b082611604565b5b9050919050565b60605f80546106c690612d4c565b80601f01602080910402602001604051908101604052809291908181526020018280546106f290612d4c565b801561073d5780601f106107145761010080835404028352916020019161073d565b820191905f5260205f20905b81548152906001019060200180831161072057829003601f168201915b5050505050905090565b5f610751826116e5565b60045f8381526020019081526020015f205f9054906101000a900473ffffffffffffffffffffffffffffffffffffffff169050919050565b5f61079382610a31565b90508073ffffffffffffffffffffffffffffffffffffffff168373ffffffffffffffffffffffffffffffffffffffff1603610803576040517f08c379a00000000000000000000000000000000000000000000000000000000081526004016107fa90612dec565b60405180910390fd5b8073ffffffffffffffffffffffffffffffffffffffff16610822611730565b73ffffffffffffffffffffffffffffffffffffffff16148061085157506108508161084b611730565b611387565b5b610890576040517f08c379a000000000000000000000000000000000000000000000000000000000815260040161088790612e7a565b60405180910390fd5b61089a8383611737565b505050565b6108a983826117ed565b6108e8576040517f08c379a00000000000000000000000000000000000000000000000000000000081526004016108df90612f08565b60405180910390fd5b6108f3838383611881565b505050565b60075f9054906101000a900473ffffffffffffffffffffffffffffffffffffffff1681565b5f600a5f8381526020019081526020015f205f9054906101000a900460ff169050919050565b8060075f6101000a81548173ffffffffffffffffffffffffffffffffffffffff021916908373ffffffffffffffffffffffffffffffffffffffff16021790555050565b6109a083838360405180602001604052805f815250611186565b505050565b60075f9054906101000a900473ffffffffffffffffffffffffffffffffffffffff1673ffffffffffffffffffffffffffffffffffffffff16639824a63433836040518363ffffffff1660e01b8152600401610a01929190612f26565b5f604051808303815f87803b158015610a18575f80fd5b505af1158015610a2a573d5f803e3d5ffd5b5050505050565b5f80610a3c83611b6d565b90505f73ffffffffffffffffffffffffffffffffffffffff168173ffffffffffffffffffffffffffffffffffffffff1603610aac576040517f08c379a0000000000000000000000000000000000000000000000000000000008152600401610aa390612f97565b60405180910390fd5b80915050919050565b5f60075f9054906101000a900473ffffffffffffffffffffffffffffffffffffffff1673ffffffffffffffffffffffffffffffffffffffff1663b8d12752836040518263ffffffff1660e01b8152600401610b109190612897565b602060405180830381865afa158015610b2b573d5f803e3d5ffd5b505050506040513d601f19601f82011682018060405250810190610b4f9190612fc9565b9050610b5a8161091d565b610b99576040517f08c379a0000000000000000000000000000000000000000000000000000000008152600401610b9090613064565b60405180910390fd5b5f60075f9054906101000a900473ffffffffffffffffffffffffffffffffffffffff1673ffffffffffffffffffffffffffffffffffffffff1663f06fc961846040518263ffffffff1660e01b8152600401610bf49190612897565b602060405180830381865afa158015610c0f573d5f803e3d5ffd5b505050506040513d601f19601f82011682018060405250810190610c339190612fc9565b90505f8111610c77576040517f08c379a0000000000000000000000000000000000000000000000000000000008152600401610c6e906130cc565b60405180910390fd5b80341015610cba576040517f08c379a0000000000000000000000000000000000000000000000000000000008152600401610cb190613134565b60405180910390fd5b5f60075f9054906101000a900473ffffffffffffffffffffffffffffffffffffffff1673ffffffffffffffffffffffffffffffffffffffff16636352211e856040518263ffffffff1660e01b8152600401610d159190612897565b602060405180830381865afa158015610d30573d5f803e3d5ffd5b505050506040513d601f19601f82011682018060405250810190610d549190613166565b90508073ffffffffffffffffffffffffffffffffffffffff163373ffffffffffffffffffffffffffffffffffffffff1603610dc4576040517f08c379a0000000000000000000000000000000000000000000000000000000008152600401610dbb90613201565b60405180910390fd5b8073ffffffffffffffffffffffffffffffffffffffff166108fc8390811502906040515f60405180830381858888f19350505050158015610e07573d5f803e3d5ffd5b5060075f9054906101000a900473ffffffffffffffffffffffffffffffffffffffff1673ffffffffffffffffffffffffffffffffffffffff166301367e6a8233876040518463ffffffff1660e01b8152600401610e669392919061321f565b5f604051808303815f87803b158015610e7d575f80fd5b505af1158015610e8f573d5f803e3d5ffd5b5050505050505050565b5f8073ffffffffffffffffffffffffffffffffffffffff168273ffffffffffffffffffffffffffffffffffffffff1603610f08576040517f08c379a0000000000000000000000000000000000000000000000000000000008152600401610eff906132c4565b60405180910390fd5b60035f8373ffffffffffffffffffffffffffffffffffffffff1673ffffffffffffffffffffffffffffffffffffffff1681526020019081526020015f20549050919050565b60085f9054906101000a900473ffffffffffffffffffffffffffffffffffffffff1681565b600c602052815f5260405f208181548110610f8b575f80fd5b905f5260205f20015f91509150505481565b606060018054610fac90612d4c565b80601f0160208091040260200160405190810160405280929190818152602001828054610fd890612d4c565b80156110235780601f10610ffa57610100808354040283529160200191611023565b820191905f5260205f20905b81548152906001019060200180831161100657829003601f168201915b5050505050905090565b61103f611038611730565b8383611ba6565b5050565b6060600b5f8381526020019081526020015f20805461106190612d4c565b80601f016020809104026020016040519081016040528092919081815260200182805461108d90612d4c565b80156110d85780601f106110af576101008083540402835291602001916110d8565b820191905f5260205f20905b8154815290600101906020018083116110bb57829003601f168201915b50505050509050919050565b6110ed82610a31565b73ffffffffffffffffffffffffffffffffffffffff163373ffffffffffffffffffffffffffffffffffffffff161461115a576040517f08c379a000000000000000000000000000000000000000000000000000000000815260040161115190613352565b60405180910390fd5b80600a5f8481526020019081526020015f205f6101000a81548160ff0219169083151502179055505050565b611197611191611730565b836117ed565b6111d6576040517f08c379a00000000000000000000000000000000000000000000000000000000081526004016111cd90612f08565b60405180910390fd5b6111e284848484611d0d565b50505050565b60606111f3826116e5565b5f60065f8481526020019081526020015f20805461121090612d4c565b80601f016020809104026020016040519081016040528092919081815260200182805461123c90612d4c565b80156112875780601f1061125e57610100808354040283529160200191611287565b820191905f5260205f20905b81548152906001019060200180831161126a57829003601f168201915b505050505090505f611297611d69565b90505f8151036112ab5781925050506112ed565b5f825111156112df5780826040516020016112c79291906133aa565b604051602081830303815290604052925050506112ed565b6112e884611d7f565b925050505b919050565b80600a5f8581526020019081526020015f205f6101000a81548160ff02191690831515021790555081600b5f8581526020019081526020015f2090816113389190613561565b506113433384611de4565b61136f8360098560405160200161135b9291906136d0565b604051602081830303815290604052611ff7565b505050565b80600990816113839190613561565b5050565b5f60055f8473ffffffffffffffffffffffffffffffffffffffff1673ffffffffffffffffffffffffffffffffffffffff1681526020019081526020015f205f8373ffffffffffffffffffffffffffffffffffffffff1673ffffffffffffffffffffffffffffffffffffffff1681526020019081526020015f205f9054906101000a900460ff16905092915050565b61141e83610a31565b73ffffffffffffffffffffffffffffffffffffffff163373ffffffffffffffffffffffffffffffffffffffff161461148b576040517f08c379a000000000000000000000000000000000000000000000000000000000815260040161148290613767565b60405180910390fd5b5f60075f9054906101000a900473ffffffffffffffffffffffffffffffffffffffff1673ffffffffffffffffffffffffffffffffffffffff16634945646e338686866040518563ffffffff1660e01b81526004016114ec9493929190613785565b6020604051808303815f875af1158015611508573d5f803e3d5ffd5b505050506040513d601f19601f8201168201806040525081019061152c9190612fc9565b9050600c5f8581526020019081526020015f2081908060018154018082558091505060019003905f5260205f20015f909190919091505550505050565b600b602052805f5260405f205f91509050805461158590612d4c565b80601f01602080910402602001604051908101604052809291908181526020018280546115b190612d4c565b80156115fc5780601f106115d3576101008083540402835291602001916115fc565b820191905f5260205f20905b8154815290600101906020018083116115df57829003601f168201915b505050505081565b5f7f80ac58cd000000000000000000000000000000000000000000000000000000007bffffffffffffffffffffffffffffffffffffffffffffffffffffffff1916827bffffffffffffffffffffffffffffffffffffffffffffffffffffffff191614806116ce57507f5b5e139f000000000000000000000000000000000000000000000000000000007bffffffffffffffffffffffffffffffffffffffffffffffffffffffff1916827bffffffffffffffffffffffffffffffffffffffffffffffffffffffff1916145b806116de57506116dd82612099565b5b9050919050565b6116ee81612102565b61172d576040517f08c379a000000000000000000000000000000000000000000000000000000000815260040161172490612f97565b60405180910390fd5b50565b5f33905090565b8160045f8381526020019081526020015f205f6101000a81548173ffffffffffffffffffffffffffffffffffffffff021916908373ffffffffffffffffffffffffffffffffffffffff160217905550808273ffffffffffffffffffffffffffffffffffffffff166117a783610a31565b73ffffffffffffffffffffffffffffffffffffffff167f8c5be1e5ebec7d5bd14f71427d1e84f3dd0314c0f7b2291e5b200ac8c7c3b92560405160405180910390a45050565b5f806117f883610a31565b90508073ffffffffffffffffffffffffffffffffffffffff168473ffffffffffffffffffffffffffffffffffffffff16148061183a57506118398185611387565b5b8061187857508373ffffffffffffffffffffffffffffffffffffffff1661186084610747565b73ffffffffffffffffffffffffffffffffffffffff16145b91505092915050565b8273ffffffffffffffffffffffffffffffffffffffff166118a182610a31565b73ffffffffffffffffffffffffffffffffffffffff16146118f7576040517f08c379a00000000000000000000000000000000000000000000000000000000081526004016118ee90613838565b60405180910390fd5b5f73ffffffffffffffffffffffffffffffffffffffff168273ffffffffffffffffffffffffffffffffffffffff1603611965576040517f08c379a000000000000000000000000000000000000000000000000000000000815260040161195c906138c6565b60405180910390fd5b6119728383836001612142565b8273ffffffffffffffffffffffffffffffffffffffff1661199282610a31565b73ffffffffffffffffffffffffffffffffffffffff16146119e8576040517f08c379a00000000000000000000000000000000000000000000000000000000081526004016119df90613838565b60405180910390fd5b60045f8281526020019081526020015f205f6101000a81549073ffffffffffffffffffffffffffffffffffffffff0219169055600160035f8573ffffffffffffffffffffffffffffffffffffffff1673ffffffffffffffffffffffffffffffffffffffff1681526020019081526020015f205f8282540392505081905550600160035f8473ffffffffffffffffffffffffffffffffffffffff1673ffffffffffffffffffffffffffffffffffffffff1681526020019081526020015f205f82825401925050819055508160025f8381526020019081526020015f205f6101000a81548173ffffffffffffffffffffffffffffffffffffffff021916908373ffffffffffffffffffffffffffffffffffffffff160217905550808273ffffffffffffffffffffffffffffffffffffffff168473ffffffffffffffffffffffffffffffffffffffff167fddf252ad1be2c89b69c2b068fc378daa952ba7f163c4a11628f55a4df523b3ef60405160405180910390a4611b688383836001612148565b505050565b5f60025f8381526020019081526020015f205f9054906101000a900473ffffffffffffffffffffffffffffffffffffffff169050919050565b8173ffffffffffffffffffffffffffffffffffffffff168373ffffffffffffffffffffffffffffffffffffffff1603611c14576040517f08c379a0000000000000000000000000000000000000000000000000000000008152600401611c0b9061392e565b60405180910390fd5b8060055f8573ffffffffffffffffffffffffffffffffffffffff1673ffffffffffffffffffffffffffffffffffffffff1681526020019081526020015f205f8473ffffffffffffffffffffffffffffffffffffffff1673ffffffffffffffffffffffffffffffffffffffff1681526020019081526020015f205f6101000a81548160ff0219169083151502179055508173ffffffffffffffffffffffffffffffffffffffff168373ffffffffffffffffffffffffffffffffffffffff167f17307eab39ab6107e8899845ad3d59bd9653f200f220920489ca2b5937696c3183604051611d0091906125b8565b60405180910390a3505050565b611d18848484611881565b611d248484848461214e565b611d63576040517f08c379a0000000000000000000000000000000000000000000000000000000008152600401611d5a906139bc565b60405180910390fd5b50505050565b606060405180602001604052805f815250905090565b6060611d8a826116e5565b5f611d93611d69565b90505f815111611db15760405180602001604052805f815250611ddc565b80611dbb846122d0565b604051602001611dcc9291906133aa565b6040516020818303038152906040525b915050919050565b5f73ffffffffffffffffffffffffffffffffffffffff168273ffffffffffffffffffffffffffffffffffffffff1603611e52576040517f08c379a0000000000000000000000000000000000000000000000000000000008152600401611e4990613a24565b60405180910390fd5b611e5b81612102565b15611e9b576040517f08c379a0000000000000000000000000000000000000000000000000000000008152600401611e9290613a8c565b60405180910390fd5b611ea85f83836001612142565b611eb181612102565b15611ef1576040517f08c379a0000000000000000000000000000000000000000000000000000000008152600401611ee890613a8c565b60405180910390fd5b600160035f8473ffffffffffffffffffffffffffffffffffffffff1673ffffffffffffffffffffffffffffffffffffffff1681526020019081526020015f205f82825401925050819055508160025f8381526020019081526020015f205f6101000a81548173ffffffffffffffffffffffffffffffffffffffff021916908373ffffffffffffffffffffffffffffffffffffffff160217905550808273ffffffffffffffffffffffffffffffffffffffff165f73ffffffffffffffffffffffffffffffffffffffff167fddf252ad1be2c89b69c2b068fc378daa952ba7f163c4a11628f55a4df523b3ef60405160405180910390a4611ff35f83836001612148565b5050565b61200082612102565b61203f576040517f08c379a000000000000000000000000000000000000000000000000000000000815260040161203690613b1a565b60405180910390fd5b8060065f8481526020019081526020015f20908161205d9190613561565b507ff8e1a15aba9398e019f0b49df1a4fde98ee17ae345cb5f6b5e2c27f5033e8ce78260405161208d9190612897565b60405180910390a15050565b5f7f01ffc9a7000000000000000000000000000000000000000000000000000000007bffffffffffffffffffffffffffffffffffffffffffffffffffffffff1916827bffffffffffffffffffffffffffffffffffffffffffffffffffffffff1916149050919050565b5f8073ffffffffffffffffffffffffffffffffffffffff1661212383611b6d565b73ffffffffffffffffffffffffffffffffffffffff1614159050919050565b50505050565b50505050565b5f61216e8473ffffffffffffffffffffffffffffffffffffffff1661239a565b156122c3578373ffffffffffffffffffffffffffffffffffffffff1663150b7a02612197611730565b8786866040518563ffffffff1660e01b81526004016121b99493929190613b8a565b6020604051808303815f875af19250505080156121f457506040513d601f19601f820116820180604052508101906121f19190613be8565b60015b612273573d805f8114612222576040519150601f19603f3d011682016040523d82523d5f602084013e612227565b606091505b505f81510361226b576040517f08c379a0000000000000000000000000000000000000000000000000000000008152600401612262906139bc565b60405180910390fd5b805181602001fd5b63150b7a0260e01b7bffffffffffffffffffffffffffffffffffffffffffffffffffffffff1916817bffffffffffffffffffffffffffffffffffffffffffffffffffffffff1916149150506122c8565b600190505b949350505050565b60605f60016122de846123bc565b0190505f8167ffffffffffffffff8111156122fc576122fb61299c565b5b6040519080825280601f01601f19166020018201604052801561232e5781602001600182028036833780820191505090505b5090505f82602001820190505b60011561238f578080600190039150507f3031323334353637383961626364656600000000000000000000000000000000600a86061a8153600a858161238457612383613c13565b5b0494505f850361233b575b819350505050919050565b5f808273ffffffffffffffffffffffffffffffffffffffff163b119050919050565b5f805f90507a184f03e93ff9f4daa797ed6e38ed64bf6a1f0100000000000000008310612418577a184f03e93ff9f4daa797ed6e38ed64bf6a1f010000000000000000838161240e5761240d613c13565b5b0492506040810190505b6d04ee2d6d415b85acef81000000008310612455576d04ee2d6d415b85acef8100000000838161244b5761244a613c13565b5b0492506020810190505b662386f26fc10000831061248457662386f26fc10000838161247a57612479613c13565b5b0492506010810190505b6305f5e10083106124ad576305f5e10083816124a3576124a2613c13565b5b0492506008810190505b61271083106124d25761271083816124c8576124c7613c13565b5b0492506004810190505b606483106124f557606483816124eb576124ea613c13565b5b0492506002810190505b600a8310612504576001810190505b80915050919050565b5f604051905090565b5f80fd5b5f80fd5b5f7fffffffff0000000000000000000000000000000000000000000000000000000082169050919050565b6125528161251e565b811461255c575f80fd5b50565b5f8135905061256d81612549565b92915050565b5f6020828403121561258857612587612516565b5b5f6125958482850161255f565b91505092915050565b5f8115159050919050565b6125b28161259e565b82525050565b5f6020820190506125cb5f8301846125a9565b92915050565b5f81519050919050565b5f82825260208201905092915050565b5f5b838110156126085780820151818401526020810190506125ed565b5f8484015250505050565b5f601f19601f8301169050919050565b5f61262d826125d1565b61263781856125db565b93506126478185602086016125eb565b61265081612613565b840191505092915050565b5f6020820190508181035f8301526126738184612623565b905092915050565b5f819050919050565b61268d8161267b565b8114612697575f80fd5b50565b5f813590506126a881612684565b92915050565b5f602082840312156126c3576126c2612516565b5b5f6126d08482850161269a565b91505092915050565b5f73ffffffffffffffffffffffffffffffffffffffff82169050919050565b5f612702826126d9565b9050919050565b612712816126f8565b82525050565b5f60208201905061272b5f830184612709565b92915050565b61273a816126f8565b8114612744575f80fd5b50565b5f8135905061275581612731565b92915050565b5f806040838503121561277157612770612516565b5b5f61277e85828601612747565b925050602061278f8582860161269a565b9150509250929050565b5f805f606084860312156127b0576127af612516565b5b5f6127bd86828701612747565b93505060206127ce86828701612747565b92505060406127df8682870161269a565b9150509250925092565b5f819050919050565b5f61280c612807612802846126d9565b6127e9565b6126d9565b9050919050565b5f61281d826127f2565b9050919050565b5f61282e82612813565b9050919050565b61283e81612824565b82525050565b5f6020820190506128575f830184612835565b92915050565b5f6020828403121561287257612871612516565b5b5f61287f84828501612747565b91505092915050565b6128918161267b565b82525050565b5f6020820190506128aa5f830184612888565b92915050565b5f80604083850312156128c6576128c5612516565b5b5f6128d38582860161269a565b92505060206128e48582860161269a565b9150509250929050565b6128f78161259e565b8114612901575f80fd5b50565b5f81359050612912816128ee565b92915050565b5f806040838503121561292e5761292d612516565b5b5f61293b85828601612747565b925050602061294c85828601612904565b9150509250929050565b5f806040838503121561296c5761296b612516565b5b5f6129798582860161269a565b925050602061298a85828601612904565b9150509250929050565b5f80fd5b5f80fd5b7f4e487b71000000000000000000000000000000000000000000000000000000005f52604160045260245ffd5b6129d282612613565b810181811067ffffffffffffffff821117156129f1576129f061299c565b5b80604052505050565b5f612a0361250d565b9050612a0f82826129c9565b919050565b5f67ffffffffffffffff821115612a2e57612a2d61299c565b5b612a3782612613565b9050602081019050919050565b828183375f83830152505050565b5f612a64612a5f84612a14565b6129fa565b905082815260208101848484011115612a8057612a7f612998565b5b612a8b848285612a44565b509392505050565b5f82601f830112612aa757612aa6612994565b5b8135612ab7848260208601612a52565b91505092915050565b5f805f8060808587031215612ad857612ad7612516565b5b5f612ae587828801612747565b9450506020612af687828801612747565b9350506040612b078782880161269a565b925050606085013567ffffffffffffffff811115612b2857612b2761251a565b5b612b3487828801612a93565b91505092959194509250565b5f67ffffffffffffffff821115612b5a57612b5961299c565b5b612b6382612613565b9050602081019050919050565b5f612b82612b7d84612b40565b6129fa565b905082815260208101848484011115612b9e57612b9d612998565b5b612ba9848285612a44565b509392505050565b5f82601f830112612bc557612bc4612994565b5b8135612bd5848260208601612b70565b91505092915050565b5f805f60608486031215612bf557612bf4612516565b5b5f612c028682870161269a565b935050602084013567ffffffffffffffff811115612c2357612c2261251a565b5b612c2f86828701612bb1565b9250506040612c4086828701612904565b9150509250925092565b5f60208284031215612c5f57612c5e612516565b5b5f82013567ffffffffffffffff811115612c7c57612c7b61251a565b5b612c8884828501612bb1565b91505092915050565b5f8060408385031215612ca757612ca6612516565b5b5f612cb485828601612747565b9250506020612cc585828601612747565b9150509250929050565b5f805f60608486031215612ce657612ce5612516565b5b5f612cf38682870161269a565b9350506020612d048682870161269a565b9250506040612d158682870161269a565b9150509250925092565b7f4e487b71000000000000000000000000000000000000000000000000000000005f52602260045260245ffd5b5f6002820490506001821680612d6357607f821691505b602082108103612d7657612d75612d1f565b5b50919050565b7f4552433732313a20617070726f76616c20746f2063757272656e74206f776e655f8201527f7200000000000000000000000000000000000000000000000000000000000000602082015250565b5f612dd66021836125db565b9150612de182612d7c565b604082019050919050565b5f6020820190508181035f830152612e0381612dca565b9050919050565b7f4552433732313a20617070726f76652063616c6c6572206973206e6f7420746f5f8201527f6b656e206f776e6572206f7220617070726f76656420666f7220616c6c000000602082015250565b5f612e64603d836125db565b9150612e6f82612e0a565b604082019050919050565b5f6020820190508181035f830152612e9181612e58565b9050919050565b7f4552433732313a2063616c6c6572206973206e6f7420746f6b656e206f776e655f8201527f72206f7220617070726f76656400000000000000000000000000000000000000602082015250565b5f612ef2602d836125db565b9150612efd82612e98565b604082019050919050565b5f6020820190508181035f830152612f1f81612ee6565b9050919050565b5f604082019050612f395f830185612709565b612f466020830184612888565b9392505050565b7f4552433732313a20696e76616c696420746f6b656e20494400000000000000005f82015250565b5f612f816018836125db565b9150612f8c82612f4d565b602082019050919050565b5f6020820190508181035f830152612fae81612f75565b9050919050565b5f81519050612fc381612684565b92915050565b5f60208284031215612fde57612fdd612516565b5b5f612feb84828501612fb5565b91505092915050565b7f54686520636f72726573706f6e64696e6720436f70797269676874204e4654205f8201527f6973206e6f7420617661696c61626c6521000000000000000000000000000000602082015250565b5f61304e6031836125db565b915061305982612ff4565b604082019050919050565b5f6020820190508181035f83015261307b81613042565b9050919050565b7f5469636b657420646f6573206e6f7420657869737421000000000000000000005f82015250565b5f6130b66016836125db565b91506130c182613082565b602082019050919050565b5f6020820190508181035f8301526130e3816130aa565b9050919050565b7f4e6f7420656e6f7567682065746865722073656e7421000000000000000000005f82015250565b5f61311e6016836125db565b9150613129826130ea565b602082019050919050565b5f6020820190508181035f83015261314b81613112565b9050919050565b5f8151905061316081612731565b92915050565b5f6020828403121561317b5761317a612516565b5b5f61318884828501613152565b91505092915050565b7f596f752061726520612073656c6c65722e20796f752063616e277420627579205f8201527f796f757273656c66210000000000000000000000000000000000000000000000602082015250565b5f6131eb6029836125db565b91506131f682613191565b604082019050919050565b5f6020820190508181035f830152613218816131df565b9050919050565b5f6060820190506132325f830186612709565b61323f6020830185612709565b61324c6040830184612888565b949350505050565b7f4552433732313a2061646472657373207a65726f206973206e6f7420612076615f8201527f6c6964206f776e65720000000000000000000000000000000000000000000000602082015250565b5f6132ae6029836125db565b91506132b982613254565b604082019050919050565b5f6020820190508181035f8301526132db816132a2565b9050919050565b7f4f6e6c792074686520436f70797269676874206f776e65722063616e207365745f8201527f20617661696c6162696c69747921000000000000000000000000000000000000602082015250565b5f61333c602e836125db565b9150613347826132e2565b604082019050919050565b5f6020820190508181035f83015261336981613330565b9050919050565b5f81905092915050565b5f613384826125d1565b61338e8185613370565b935061339e8185602086016125eb565b80840191505092915050565b5f6133b5828561337a565b91506133c1828461337a565b91508190509392505050565b5f819050815f5260205f209050919050565b5f6020601f8301049050919050565b5f82821b905092915050565b5f600883026134297fffffffffffffffffffffffffffffffffffffffffffffffffffffffffffffffff826133ee565b61343386836133ee565b95508019841693508086168417925050509392505050565b5f61346561346061345b8461267b565b6127e9565b61267b565b9050919050565b5f819050919050565b61347e8361344b565b61349261348a8261346c565b8484546133fa565b825550505050565b5f90565b6134a661349a565b6134b1818484613475565b505050565b5b818110156134d4576134c95f8261349e565b6001810190506134b7565b5050565b601f821115613519576134ea816133cd565b6134f3846133df565b81016020851015613502578190505b61351661350e856133df565b8301826134b6565b50505b505050565b5f82821c905092915050565b5f6135395f198460080261351e565b1980831691505092915050565b5f613551838361352a565b9150826002028217905092915050565b61356a826125d1565b67ffffffffffffffff8111156135835761358261299c565b5b61358d8254612d4c565b6135988282856134d8565b5f60209050601f8311600181146135c9575f84156135b7578287015190505b6135c18582613546565b865550613628565b601f1984166135d7866133cd565b5f5b828110156135fe578489015182556001820191506020850194506020810190506135d9565b8683101561361b5784890151613617601f89168261352a565b8355505b6001600288020188555050505b505050505050565b5f815461363c81612d4c565b6136468186613370565b9450600182165f81146136605760018114613675576136a7565b60ff19831686528115158202860193506136a7565b61367e856133cd565b5f5b8381101561369f57815481890152600182019150602081019050613680565b838801955050505b50505092915050565b5f819050919050565b6136ca6136c58261267b565b6136b0565b82525050565b5f6136db8285613630565b91506136e782846136b9565b6020820191508190509392505050565b7f4f6e6c7920436f70797269676874206f776e65722063616e206d696e742074685f8201527f65207469636b6574732100000000000000000000000000000000000000000000602082015250565b5f613751602a836125db565b915061375c826136f7565b604082019050919050565b5f6020820190508181035f83015261377e81613745565b9050919050565b5f6080820190506137985f830187612709565b6137a56020830186612888565b6137b26040830185612888565b6137bf6060830184612888565b95945050505050565b7f4552433732313a207472616e736665722066726f6d20696e636f7272656374205f8201527f6f776e6572000000000000000000000000000000000000000000000000000000602082015250565b5f6138226025836125db565b915061382d826137c8565b604082019050919050565b5f6020820190508181035f83015261384f81613816565b9050919050565b7f4552433732313a207472616e7366657220746f20746865207a65726f206164645f8201527f7265737300000000000000000000000000000000000000000000000000000000602082015250565b5f6138b06024836125db565b91506138bb82613856565b604082019050919050565b5f6020820190508181035f8301526138dd816138a4565b9050919050565b7f4552433732313a20617070726f766520746f2063616c6c6572000000000000005f82015250565b5f6139186019836125db565b9150613923826138e4565b602082019050919050565b5f6020820190508181035f8301526139458161390c565b9050919050565b7f4552433732313a207472616e7366657220746f206e6f6e2045524337323152655f8201527f63656976657220696d706c656d656e7465720000000000000000000000000000602082015250565b5f6139a66032836125db565b91506139b18261394c565b604082019050919050565b5f6020820190508181035f8301526139d38161399a565b9050919050565b7f4552433732313a206d696e7420746f20746865207a65726f20616464726573735f82015250565b5f613a0e6020836125db565b9150613a19826139da565b602082019050919050565b5f6020820190508181035f830152613a3b81613a02565b9050919050565b7f4552433732313a20746f6b656e20616c7265616479206d696e746564000000005f82015250565b5f613a76601c836125db565b9150613a8182613a42565b602082019050919050565b5f6020820190508181035f830152613aa381613a6a565b9050919050565b7f45524337323155524953746f726167653a2055524920736574206f66206e6f6e5f8201527f6578697374656e7420746f6b656e000000000000000000000000000000000000602082015250565b5f613b04602e836125db565b9150613b0f82613aaa565b604082019050919050565b5f6020820190508181035f830152613b3181613af8565b9050919050565b5f81519050919050565b5f82825260208201905092915050565b5f613b5c82613b38565b613b668185613b42565b9350613b768185602086016125eb565b613b7f81612613565b840191505092915050565b5f608082019050613b9d5f830187612709565b613baa6020830186612709565b613bb76040830185612888565b8181036060830152613bc98184613b52565b905095945050505050565b5f81519050613be281612549565b92915050565b5f60208284031215613bfd57613bfc612516565b5b5f613c0a84828501613bd4565b91505092915050565b7f4e487b71000000000000000000000000000000000000000000000000000000005f52601260045260245ffdfea264697066735822122060b2287fae49b97969c5d350d5d4f53a57ad30d7c91b1ece345df0dbd7f641aa64736f6c63430008140033",
			"opcodes": "PUSH1 0x80 PUSH1 0x40 MSTORE PUSH1 0x40 MLOAD DUP1 PUSH1 0x40 ADD PUSH1 0x40 MSTORE DUP1 PUSH1 0x1E DUP2 MSTORE PUSH1 0x20 ADD PUSH32 0x68747470733A2F2F796F75725F626173655F75726C2F70726F647563742F0000 DUP2 MSTORE POP PUSH1 0x9 SWAP1 DUP2 PUSH3 0x4A SWAP2 SWAP1 PUSH3 0x393 JUMP JUMPDEST POP CALLVALUE DUP1 ISZERO PUSH3 0x57 JUMPI PUSH0 DUP1 REVERT JUMPDEST POP PUSH1 0x40 MLOAD DUP1 PUSH1 0x40 ADD PUSH1 0x40 MSTORE DUP1 PUSH1 0x7 DUP2 MSTORE PUSH1 0x20 ADD PUSH32 0x334453746F726500000000000000000000000000000000000000000000000000 DUP2 MSTORE POP PUSH1 0x40 MLOAD DUP1 PUSH1 0x40 ADD PUSH1 0x40 MSTORE DUP1 PUSH1 0x3 DUP2 MSTORE PUSH1 0x20 ADD PUSH32 0x3344530000000000000000000000000000000000000000000000000000000000 DUP2 MSTORE POP DUP2 PUSH0 SWAP1 DUP2 PUSH3 0xD4 SWAP2 SWAP1 PUSH3 0x393 JUMP JUMPDEST POP DUP1 PUSH1 0x1 SWAP1 DUP2 PUSH3 0xE6 SWAP2 SWAP1 PUSH3 0x393 JUMP JUMPDEST POP POP POP CALLER PUSH1 0x8 PUSH0 PUSH2 0x100 EXP DUP2 SLOAD DUP2 PUSH20 0xFFFFFFFFFFFFFFFFFFFFFFFFFFFFFFFFFFFFFFFF MUL NOT AND SWAP1 DUP4 PUSH20 0xFFFFFFFFFFFFFFFFFFFFFFFFFFFFFFFFFFFFFFFF AND MUL OR SWAP1 SSTORE POP PUSH3 0x477 JUMP JUMPDEST PUSH0 DUP2 MLOAD SWAP1 POP SWAP2 SWAP1 POP JUMP JUMPDEST PUSH32 0x4E487B7100000000000000000000000000000000000000000000000000000000 PUSH0 MSTORE PUSH1 0x41 PUSH1 0x4 MSTORE PUSH1 0x24 PUSH0 REVERT JUMPDEST PUSH32 0x4E487B7100000000000000000000000000000000000000000000000000000000 PUSH0 MSTORE PUSH1 0x22 PUSH1 0x4 MSTORE PUSH1 0x24 PUSH0 REVERT JUMPDEST PUSH0 PUSH1 0x2 DUP3 DIV SWAP1 POP PUSH1 0x1 DUP3 AND DUP1 PUSH3 0x1AB JUMPI PUSH1 0x7F DUP3 AND SWAP2 POP JUMPDEST PUSH1 0x20 DUP3 LT DUP2 SUB PUSH3 0x1C1 JUMPI PUSH3 0x1C0 PUSH3 0x166 JUMP JUMPDEST JUMPDEST POP SWAP2 SWAP1 POP JUMP JUMPDEST PUSH0 DUP2 SWAP1 POP DUP2 PUSH0 MSTORE PUSH1 0x20 PUSH0 KECCAK256 SWAP1 POP SWAP2 SWAP1 POP JUMP JUMPDEST PUSH0 PUSH1 0x20 PUSH1 0x1F DUP4 ADD DIV SWAP1 POP SWAP2 SWAP1 POP JUMP JUMPDEST PUSH0 DUP3 DUP3 SHL SWAP1 POP SWAP3 SWAP2 POP POP JUMP JUMPDEST PUSH0 PUSH1 0x8 DUP4 MUL PUSH3 0x225 PUSH32 0xFFFFFFFFFFFFFFFFFFFFFFFFFFFFFFFFFFFFFFFFFFFFFFFFFFFFFFFFFFFFFFFF DUP3 PUSH3 0x1E8 JUMP JUMPDEST PUSH3 0x231 DUP7 DUP4 PUSH3 0x1E8 JUMP JUMPDEST SWAP6 POP DUP1 NOT DUP5 AND SWAP4 POP DUP1 DUP7 AND DUP5 OR SWAP3 POP POP POP SWAP4 SWAP3 POP POP POP JUMP JUMPDEST PUSH0 DUP2 SWAP1 POP SWAP2 SWAP1 POP JUMP JUMPDEST PUSH0 DUP2 SWAP1 POP SWAP2 SWAP1 POP JUMP JUMPDEST PUSH0 PUSH3 0x27B PUSH3 0x275 PUSH3 0x26F DUP5 PUSH3 0x249 JUMP JUMPDEST PUSH3 0x252 JUMP JUMPDEST PUSH3 0x249 JUMP JUMPDEST SWAP1 POP SWAP2 SWAP1 POP JUMP JUMPDEST PUSH0 DUP2 SWAP1 POP SWAP2 SWAP1 POP JUMP JUMPDEST PUSH3 0x296 DUP4 PUSH3 0x25B JUMP JUMPDEST PUSH3 0x2AE PUSH3 0x2A5 DUP3 PUSH3 0x282 JUMP JUMPDEST DUP5 DUP5 SLOAD PUSH3 0x1F4 JUMP JUMPDEST DUP3 SSTORE POP POP POP POP JUMP JUMPDEST PUSH0 SWAP1 JUMP JUMPDEST PUSH3 0x2C4 PUSH3 0x2B6 JUMP JUMPDEST PUSH3 0x2D1 DUP2 DUP5 DUP5 PUSH3 0x28B JUMP JUMPDEST POP POP POP JUMP JUMPDEST JUMPDEST DUP2 DUP2 LT ISZERO PUSH3 0x2F8 JUMPI PUSH3 0x2EC PUSH0 DUP3 PUSH3 0x2BA JUMP JUMPDEST PUSH1 0x1 DUP2 ADD SWAP1 POP PUSH3 0x2D7 JUMP JUMPDEST POP POP JUMP JUMPDEST PUSH1 0x1F DUP3 GT ISZERO PUSH3 0x347 JUMPI PUSH3 0x311 DUP2 PUSH3 0x1C7 JUMP JUMPDEST PUSH3 0x31C DUP5 PUSH3 0x1D9 JUMP JUMPDEST DUP2 ADD PUSH1 0x20 DUP6 LT ISZERO PUSH3 0x32C JUMPI DUP2 SWAP1 POP JUMPDEST PUSH3 0x344 PUSH3 0x33B DUP6 PUSH3 0x1D9 JUMP JUMPDEST DUP4 ADD DUP3 PUSH3 0x2D6 JUMP JUMPDEST POP POP JUMPDEST POP POP POP JUMP JUMPDEST PUSH0 DUP3 DUP3 SHR SWAP1 POP SWAP3 SWAP2 POP POP JUMP JUMPDEST PUSH0 PUSH3 0x369 PUSH0 NOT DUP5 PUSH1 0x8 MUL PUSH3 0x34C JUMP JUMPDEST NOT DUP1 DUP4 AND SWAP2 POP POP SWAP3 SWAP2 POP POP JUMP JUMPDEST PUSH0 PUSH3 0x383 DUP4 DUP4 PUSH3 0x358 JUMP JUMPDEST SWAP2 POP DUP3 PUSH1 0x2 MUL DUP3 OR SWAP1 POP SWAP3 SWAP2 POP POP JUMP JUMPDEST PUSH3 0x39E DUP3 PUSH3 0x12F JUMP JUMPDEST PUSH8 0xFFFFFFFFFFFFFFFF DUP2 GT ISZERO PUSH3 0x3BA JUMPI PUSH3 0x3B9 PUSH3 0x139 JUMP JUMPDEST JUMPDEST PUSH3 0x3C6 DUP3 SLOAD PUSH3 0x193 JUMP JUMPDEST PUSH3 0x3D3 DUP3 DUP3 DUP6 PUSH3 0x2FC JUMP JUMPDEST PUSH0 PUSH1 0x20 SWAP1 POP PUSH1 0x1F DUP4 GT PUSH1 0x1 DUP2 EQ PUSH3 0x409 JUMPI PUSH0 DUP5 ISZERO PUSH3 0x3F4 JUMPI DUP3 DUP8 ADD MLOAD SWAP1 POP JUMPDEST PUSH3 0x400 DUP6 DUP3 PUSH3 0x376 JUMP JUMPDEST DUP7 SSTORE POP PUSH3 0x46F JUMP JUMPDEST PUSH1 0x1F NOT DUP5 AND PUSH3 0x419 DUP7 PUSH3 0x1C7 JUMP JUMPDEST PUSH0 JUMPDEST DUP3 DUP2 LT ISZERO PUSH3 0x442 JUMPI DUP5 DUP10 ADD MLOAD DUP3 SSTORE PUSH1 0x1 DUP3 ADD SWAP2 POP PUSH1 0x20 DUP6 ADD SWAP5 POP PUSH1 0x20 DUP2 ADD SWAP1 POP PUSH3 0x41B JUMP JUMPDEST DUP7 DUP4 LT ISZERO PUSH3 0x462 JUMPI DUP5 DUP10 ADD MLOAD PUSH3 0x45E PUSH1 0x1F DUP10 AND DUP3 PUSH3 0x358 JUMP JUMPDEST DUP4 SSTORE POP JUMPDEST PUSH1 0x1 PUSH1 0x2 DUP9 MUL ADD DUP9 SSTORE POP POP POP JUMPDEST POP POP POP POP POP POP JUMP JUMPDEST PUSH2 0x3C76 DUP1 PUSH3 0x485 PUSH0 CODECOPY PUSH0 RETURN INVALID PUSH1 0x80 PUSH1 0x40 MSTORE PUSH1 0x4 CALLDATASIZE LT PUSH2 0x180 JUMPI PUSH0 CALLDATALOAD PUSH1 0xE0 SHR DUP1 PUSH4 0x8DA5CB5B GT PUSH2 0xD0 JUMPI DUP1 PUSH4 0xB88D4FDE GT PUSH2 0x89 JUMPI DUP1 PUSH4 0xDC177871 GT PUSH2 0x63 JUMPI DUP1 PUSH4 0xDC177871 EQ PUSH2 0x590 JUMPI DUP1 PUSH4 0xE985E9C5 EQ PUSH2 0x5B8 JUMPI DUP1 PUSH4 0xEAAD62B9 EQ PUSH2 0x5F4 JUMPI DUP1 PUSH4 0xF0DDB87C EQ PUSH2 0x61C JUMPI PUSH2 0x180 JUMP JUMPDEST DUP1 PUSH4 0xB88D4FDE EQ PUSH2 0x504 JUMPI DUP1 PUSH4 0xC87B56DD EQ PUSH2 0x52C JUMPI DUP1 PUSH4 0xD4356BF4 EQ PUSH2 0x568 JUMPI PUSH2 0x180 JUMP JUMPDEST DUP1 PUSH4 0x8DA5CB5B EQ PUSH2 0x3E8 JUMPI DUP1 PUSH4 0x92C2BDF5 EQ PUSH2 0x412 JUMPI DUP1 PUSH4 0x95D89B41 EQ PUSH2 0x44E JUMPI DUP1 PUSH4 0xA22CB465 EQ PUSH2 0x478 JUMPI DUP1 PUSH4 0xB2EDD796 EQ PUSH2 0x4A0 JUMPI DUP1 PUSH4 0xB3FF3958 EQ PUSH2 0x4DC JUMPI PUSH2 0x180 JUMP JUMPDEST DUP1 PUSH4 0x3A178D99 GT PUSH2 0x13D JUMPI DUP1 PUSH4 0x62469289 GT PUSH2 0x117 JUMPI DUP1 PUSH4 0x62469289 EQ PUSH2 0x32C JUMPI DUP1 PUSH4 0x6352211E EQ PUSH2 0x354 JUMPI DUP1 PUSH4 0x67DD74CA EQ PUSH2 0x390 JUMPI DUP1 PUSH4 0x70A08231 EQ PUSH2 0x3AC JUMPI PUSH2 0x180 JUMP JUMPDEST DUP1 PUSH4 0x3A178D99 EQ PUSH2 0x2A0 JUMPI DUP1 PUSH4 0x3E6C4B21 EQ PUSH2 0x2DC JUMPI DUP1 PUSH4 0x42842E0E EQ PUSH2 0x304 JUMPI PUSH2 0x180 JUMP JUMPDEST DUP1 PUSH4 0x1FFC9A7 EQ PUSH2 0x184 JUMPI DUP1 PUSH4 0x6FDDE03 EQ PUSH2 0x1C0 JUMPI DUP1 PUSH4 0x81812FC EQ PUSH2 0x1EA JUMPI DUP1 PUSH4 0x95EA7B3 EQ PUSH2 0x226 JUMPI DUP1 PUSH4 0x23B872DD EQ PUSH2 0x24E JUMPI DUP1 PUSH4 0x34ADF63B EQ PUSH2 0x276 JUMPI JUMPDEST PUSH0 DUP1 REVERT JUMPDEST CALLVALUE DUP1 ISZERO PUSH2 0x18F JUMPI PUSH0 DUP1 REVERT JUMPDEST POP PUSH2 0x1AA PUSH1 0x4 DUP1 CALLDATASIZE SUB DUP2 ADD SWAP1 PUSH2 0x1A5 SWAP2 SWAP1 PUSH2 0x2573 JUMP JUMPDEST PUSH2 0x658 JUMP JUMPDEST PUSH1 0x40 MLOAD PUSH2 0x1B7 SWAP2 SWAP1 PUSH2 0x25B8 JUMP JUMPDEST PUSH1 0x40 MLOAD DUP1 SWAP2 SUB SWAP1 RETURN JUMPDEST CALLVALUE DUP1 ISZERO PUSH2 0x1CB JUMPI PUSH0 DUP1 REVERT JUMPDEST POP PUSH2 0x1D4 PUSH2 0x6B8 JUMP JUMPDEST PUSH1 0x40 MLOAD PUSH2 0x1E1 SWAP2 SWAP1 PUSH2 0x265B JUMP JUMPDEST PUSH1 0x40 MLOAD DUP1 SWAP2 SUB SWAP1 RETURN JUMPDEST CALLVALUE DUP1 ISZERO PUSH2 0x1F5 JUMPI PUSH0 DUP1 REVERT JUMPDEST POP PUSH2 0x210 PUSH1 0x4 DUP1 CALLDATASIZE SUB DUP2 ADD SWAP1 PUSH2 0x20B SWAP2 SWAP1 PUSH2 0x26AE JUMP JUMPDEST PUSH2 0x747 JUMP JUMPDEST PUSH1 0x40 MLOAD PUSH2 0x21D SWAP2 SWAP1 PUSH2 0x2718 JUMP JUMPDEST PUSH1 0x40 MLOAD DUP1 SWAP2 SUB SWAP1 RETURN JUMPDEST CALLVALUE DUP1 ISZERO PUSH2 0x231 JUMPI PUSH0 DUP1 REVERT JUMPDEST POP PUSH2 0x24C PUSH1 0x4 DUP1 CALLDATASIZE SUB DUP2 ADD SWAP1 PUSH2 0x247 SWAP2 SWAP1 PUSH2 0x275B JUMP JUMPDEST PUSH2 0x789 JUMP JUMPDEST STOP JUMPDEST CALLVALUE DUP1 ISZERO PUSH2 0x259 JUMPI PUSH0 DUP1 REVERT JUMPDEST POP PUSH2 0x274 PUSH1 0x4 DUP1 CALLDATASIZE SUB DUP2 ADD SWAP1 PUSH2 0x26F SWAP2 SWAP1 PUSH2 0x2799 JUMP JUMPDEST PUSH2 0x89F JUMP JUMPDEST STOP JUMPDEST CALLVALUE DUP1 ISZERO PUSH2 0x281 JUMPI PUSH0 DUP1 REVERT JUMPDEST POP PUSH2 0x28A PUSH2 0x8F8 JUMP JUMPDEST PUSH1 0x40 MLOAD PUSH2 0x297 SWAP2 SWAP1 PUSH2 0x2844 JUMP JUMPDEST PUSH1 0x40 MLOAD DUP1 SWAP2 SUB SWAP1 RETURN JUMPDEST CALLVALUE DUP1 ISZERO PUSH2 0x2AB JUMPI PUSH0 DUP1 REVERT JUMPDEST POP PUSH2 0x2C6 PUSH1 0x4 DUP1 CALLDATASIZE SUB DUP2 ADD SWAP1 PUSH2 0x2C1 SWAP2 SWAP1 PUSH2 0x26AE JUMP JUMPDEST PUSH2 0x91D JUMP JUMPDEST PUSH1 0x40 MLOAD PUSH2 0x2D3 SWAP2 SWAP1 PUSH2 0x25B8 JUMP JUMPDEST PUSH1 0x40 MLOAD DUP1 SWAP2 SUB SWAP1 RETURN JUMPDEST CALLVALUE DUP1 ISZERO PUSH2 0x2E7 JUMPI PUSH0 DUP1 REVERT JUMPDEST POP PUSH2 0x302 PUSH1 0x4 DUP1 CALLDATASIZE SUB DUP2 ADD SWAP1 PUSH2 0x2FD SWAP2 SWAP1 PUSH2 0x285D JUMP JUMPDEST PUSH2 0x943 JUMP JUMPDEST STOP JUMPDEST CALLVALUE DUP1 ISZERO PUSH2 0x30F JUMPI PUSH0 DUP1 REVERT JUMPDEST POP PUSH2 0x32A PUSH1 0x4 DUP1 CALLDATASIZE SUB DUP2 ADD SWAP1 PUSH2 0x325 SWAP2 SWAP1 PUSH2 0x2799 JUMP JUMPDEST PUSH2 0x986 JUMP JUMPDEST STOP JUMPDEST CALLVALUE DUP1 ISZERO PUSH2 0x337 JUMPI PUSH0 DUP1 REVERT JUMPDEST POP PUSH2 0x352 PUSH1 0x4 DUP1 CALLDATASIZE SUB DUP2 ADD SWAP1 PUSH2 0x34D SWAP2 SWAP1 PUSH2 0x26AE JUMP JUMPDEST PUSH2 0x9A5 JUMP JUMPDEST STOP JUMPDEST CALLVALUE DUP1 ISZERO PUSH2 0x35F JUMPI PUSH0 DUP1 REVERT JUMPDEST POP PUSH2 0x37A PUSH1 0x4 DUP1 CALLDATASIZE SUB DUP2 ADD SWAP1 PUSH2 0x375 SWAP2 SWAP1 PUSH2 0x26AE JUMP JUMPDEST PUSH2 0xA31 JUMP JUMPDEST PUSH1 0x40 MLOAD PUSH2 0x387 SWAP2 SWAP1 PUSH2 0x2718 JUMP JUMPDEST PUSH1 0x40 MLOAD DUP1 SWAP2 SUB SWAP1 RETURN JUMPDEST PUSH2 0x3AA PUSH1 0x4 DUP1 CALLDATASIZE SUB DUP2 ADD SWAP1 PUSH2 0x3A5 SWAP2 SWAP1 PUSH2 0x26AE JUMP JUMPDEST PUSH2 0xAB5 JUMP JUMPDEST STOP JUMPDEST CALLVALUE DUP1 ISZERO PUSH2 0x3B7 JUMPI PUSH0 DUP1 REVERT JUMPDEST POP PUSH2 0x3D2 PUSH1 0x4 DUP1 CALLDATASIZE SUB DUP2 ADD SWAP1 PUSH2 0x3CD SWAP2 SWAP1 PUSH2 0x285D JUMP JUMPDEST PUSH2 0xE99 JUMP JUMPDEST PUSH1 0x40 MLOAD PUSH2 0x3DF SWAP2 SWAP1 PUSH2 0x2897 JUMP JUMPDEST PUSH1 0x40 MLOAD DUP1 SWAP2 SUB SWAP1 RETURN JUMPDEST CALLVALUE DUP1 ISZERO PUSH2 0x3F3 JUMPI PUSH0 DUP1 REVERT JUMPDEST POP PUSH2 0x3FC PUSH2 0xF4D JUMP JUMPDEST PUSH1 0x40 MLOAD PUSH2 0x409 SWAP2 SWAP1 PUSH2 0x2718 JUMP JUMPDEST PUSH1 0x40 MLOAD DUP1 SWAP2 SUB SWAP1 RETURN JUMPDEST CALLVALUE DUP1 ISZERO PUSH2 0x41D JUMPI PUSH0 DUP1 REVERT JUMPDEST POP PUSH2 0x438 PUSH1 0x4 DUP1 CALLDATASIZE SUB DUP2 ADD SWAP1 PUSH2 0x433 SWAP2 SWAP1 PUSH2 0x28B0 JUMP JUMPDEST PUSH2 0xF72 JUMP JUMPDEST PUSH1 0x40 MLOAD PUSH2 0x445 SWAP2 SWAP1 PUSH2 0x2897 JUMP JUMPDEST PUSH1 0x40 MLOAD DUP1 SWAP2 SUB SWAP1 RETURN JUMPDEST CALLVALUE DUP1 ISZERO PUSH2 0x459 JUMPI PUSH0 DUP1 REVERT JUMPDEST POP PUSH2 0x462 PUSH2 0xF9D JUMP JUMPDEST PUSH1 0x40 MLOAD PUSH2 0x46F SWAP2 SWAP1 PUSH2 0x265B JUMP JUMPDEST PUSH1 0x40 MLOAD DUP1 SWAP2 SUB SWAP1 RETURN JUMPDEST CALLVALUE DUP1 ISZERO PUSH2 0x483 JUMPI PUSH0 DUP1 REVERT JUMPDEST POP PUSH2 0x49E PUSH1 0x4 DUP1 CALLDATASIZE SUB DUP2 ADD SWAP1 PUSH2 0x499 SWAP2 SWAP1 PUSH2 0x2918 JUMP JUMPDEST PUSH2 0x102D JUMP JUMPDEST STOP JUMPDEST CALLVALUE DUP1 ISZERO PUSH2 0x4AB JUMPI PUSH0 DUP1 REVERT JUMPDEST POP PUSH2 0x4C6 PUSH1 0x4 DUP1 CALLDATASIZE SUB DUP2 ADD SWAP1 PUSH2 0x4C1 SWAP2 SWAP1 PUSH2 0x26AE JUMP JUMPDEST PUSH2 0x1043 JUMP JUMPDEST PUSH1 0x40 MLOAD PUSH2 0x4D3 SWAP2 SWAP1 PUSH2 0x265B JUMP JUMPDEST PUSH1 0x40 MLOAD DUP1 SWAP2 SUB SWAP1 RETURN JUMPDEST CALLVALUE DUP1 ISZERO PUSH2 0x4E7 JUMPI PUSH0 DUP1 REVERT JUMPDEST POP PUSH2 0x502 PUSH1 0x4 DUP1 CALLDATASIZE SUB DUP2 ADD SWAP1 PUSH2 0x4FD SWAP2 SWAP1 PUSH2 0x2956 JUMP JUMPDEST PUSH2 0x10E4 JUMP JUMPDEST STOP JUMPDEST CALLVALUE DUP1 ISZERO PUSH2 0x50F JUMPI PUSH0 DUP1 REVERT JUMPDEST POP PUSH2 0x52A PUSH1 0x4 DUP1 CALLDATASIZE SUB DUP2 ADD SWAP1 PUSH2 0x525 SWAP2 SWAP1 PUSH2 0x2AC0 JUMP JUMPDEST PUSH2 0x1186 JUMP JUMPDEST STOP JUMPDEST CALLVALUE DUP1 ISZERO PUSH2 0x537 JUMPI PUSH0 DUP1 REVERT JUMPDEST POP PUSH2 0x552 PUSH1 0x4 DUP1 CALLDATASIZE SUB DUP2 ADD SWAP1 PUSH2 0x54D SWAP2 SWAP1 PUSH2 0x26AE JUMP JUMPDEST PUSH2 0x11E8 JUMP JUMPDEST PUSH1 0x40 MLOAD PUSH2 0x55F SWAP2 SWAP1 PUSH2 0x265B JUMP JUMPDEST PUSH1 0x40 MLOAD DUP1 SWAP2 SUB SWAP1 RETURN JUMPDEST CALLVALUE DUP1 ISZERO PUSH2 0x573 JUMPI PUSH0 DUP1 REVERT JUMPDEST POP PUSH2 0x58E PUSH1 0x4 DUP1 CALLDATASIZE SUB DUP2 ADD SWAP1 PUSH2 0x589 SWAP2 SWAP1 PUSH2 0x2BDE JUMP JUMPDEST PUSH2 0x12F2 JUMP JUMPDEST STOP JUMPDEST CALLVALUE DUP1 ISZERO PUSH2 0x59B JUMPI PUSH0 DUP1 REVERT JUMPDEST POP PUSH2 0x5B6 PUSH1 0x4 DUP1 CALLDATASIZE SUB DUP2 ADD SWAP1 PUSH2 0x5B1 SWAP2 SWAP1 PUSH2 0x2C4A JUMP JUMPDEST PUSH2 0x1374 JUMP JUMPDEST STOP JUMPDEST CALLVALUE DUP1 ISZERO PUSH2 0x5C3 JUMPI PUSH0 DUP1 REVERT JUMPDEST POP PUSH2 0x5DE PUSH1 0x4 DUP1 CALLDATASIZE SUB DUP2 ADD SWAP1 PUSH2 0x5D9 SWAP2 SWAP1 PUSH2 0x2C91 JUMP JUMPDEST PUSH2 0x1387 JUMP JUMPDEST PUSH1 0x40 MLOAD PUSH2 0x5EB SWAP2 SWAP1 PUSH2 0x25B8 JUMP JUMPDEST PUSH1 0x40 MLOAD DUP1 SWAP2 SUB SWAP1 RETURN JUMPDEST CALLVALUE DUP1 ISZERO PUSH2 0x5FF JUMPI PUSH0 DUP1 REVERT JUMPDEST POP PUSH2 0x61A PUSH1 0x4 DUP1 CALLDATASIZE SUB DUP2 ADD SWAP1 PUSH2 0x615 SWAP2 SWAP1 PUSH2 0x2CCF JUMP JUMPDEST PUSH2 0x1415 JUMP JUMPDEST STOP JUMPDEST CALLVALUE DUP1 ISZERO PUSH2 0x627 JUMPI PUSH0 DUP1 REVERT JUMPDEST POP PUSH2 0x642 PUSH1 0x4 DUP1 CALLDATASIZE SUB DUP2 ADD SWAP1 PUSH2 0x63D SWAP2 SWAP1 PUSH2 0x26AE JUMP JUMPDEST PUSH2 0x1569 JUMP JUMPDEST PUSH1 0x40 MLOAD PUSH2 0x64F SWAP2 SWAP1 PUSH2 0x265B JUMP JUMPDEST PUSH1 0x40 MLOAD DUP1 SWAP2 SUB SWAP1 RETURN JUMPDEST PUSH0 PUSH4 0x49064906 PUSH1 0xE0 SHL PUSH28 0xFFFFFFFFFFFFFFFFFFFFFFFFFFFFFFFFFFFFFFFFFFFFFFFFFFFFFFFF NOT AND DUP3 PUSH28 0xFFFFFFFFFFFFFFFFFFFFFFFFFFFFFFFFFFFFFFFFFFFFFFFFFFFFFFFF NOT AND EQ DUP1 PUSH2 0x6B1 JUMPI POP PUSH2 0x6B0 DUP3 PUSH2 0x1604 JUMP JUMPDEST JUMPDEST SWAP1 POP SWAP2 SWAP1 POP JUMP JUMPDEST PUSH1 0x60 PUSH0 DUP1 SLOAD PUSH2 0x6C6 SWAP1 PUSH2 0x2D4C JUMP JUMPDEST DUP1 PUSH1 0x1F ADD PUSH1 0x20 DUP1 SWAP2 DIV MUL PUSH1 0x20 ADD PUSH1 0x40 MLOAD SWAP1 DUP2 ADD PUSH1 0x40 MSTORE DUP1 SWAP3 SWAP2 SWAP1 DUP2 DUP2 MSTORE PUSH1 0x20 ADD DUP3 DUP1 SLOAD PUSH2 0x6F2 SWAP1 PUSH2 0x2D4C JUMP JUMPDEST DUP1 ISZERO PUSH2 0x73D JUMPI DUP1 PUSH1 0x1F LT PUSH2 0x714 JUMPI PUSH2 0x100 DUP1 DUP4 SLOAD DIV MUL DUP4 MSTORE SWAP2 PUSH1 0x20 ADD SWAP2 PUSH2 0x73D JUMP JUMPDEST DUP3 ADD SWAP2 SWAP1 PUSH0 MSTORE PUSH1 0x20 PUSH0 KECCAK256 SWAP1 JUMPDEST DUP2 SLOAD DUP2 MSTORE SWAP1 PUSH1 0x1 ADD SWAP1 PUSH1 0x20 ADD DUP1 DUP4 GT PUSH2 0x720 JUMPI DUP3 SWAP1 SUB PUSH1 0x1F AND DUP3 ADD SWAP2 JUMPDEST POP POP POP POP POP SWAP1 POP SWAP1 JUMP JUMPDEST PUSH0 PUSH2 0x751 DUP3 PUSH2 0x16E5 JUMP JUMPDEST PUSH1 0x4 PUSH0 DUP4 DUP2 MSTORE PUSH1 0x20 ADD SWAP1 DUP2 MSTORE PUSH1 0x20 ADD PUSH0 KECCAK256 PUSH0 SWAP1 SLOAD SWAP1 PUSH2 0x100 EXP SWAP1 DIV PUSH20 0xFFFFFFFFFFFFFFFFFFFFFFFFFFFFFFFFFFFFFFFF AND SWAP1 POP SWAP2 SWAP1 POP JUMP JUMPDEST PUSH0 PUSH2 0x793 DUP3 PUSH2 0xA31 JUMP JUMPDEST SWAP1 POP DUP1 PUSH20 0xFFFFFFFFFFFFFFFFFFFFFFFFFFFFFFFFFFFFFFFF AND DUP4 PUSH20 0xFFFFFFFFFFFFFFFFFFFFFFFFFFFFFFFFFFFFFFFF AND SUB PUSH2 0x803 JUMPI PUSH1 0x40 MLOAD PUSH32 0x8C379A000000000000000000000000000000000000000000000000000000000 DUP2 MSTORE PUSH1 0x4 ADD PUSH2 0x7FA SWAP1 PUSH2 0x2DEC JUMP JUMPDEST PUSH1 0x40 MLOAD DUP1 SWAP2 SUB SWAP1 REVERT JUMPDEST DUP1 PUSH20 0xFFFFFFFFFFFFFFFFFFFFFFFFFFFFFFFFFFFFFFFF AND PUSH2 0x822 PUSH2 0x1730 JUMP JUMPDEST PUSH20 0xFFFFFFFFFFFFFFFFFFFFFFFFFFFFFFFFFFFFFFFF AND EQ DUP1 PUSH2 0x851 JUMPI POP PUSH2 0x850 DUP2 PUSH2 0x84B PUSH2 0x1730 JUMP JUMPDEST PUSH2 0x1387 JUMP JUMPDEST JUMPDEST PUSH2 0x890 JUMPI PUSH1 0x40 MLOAD PUSH32 0x8C379A000000000000000000000000000000000000000000000000000000000 DUP2 MSTORE PUSH1 0x4 ADD PUSH2 0x887 SWAP1 PUSH2 0x2E7A JUMP JUMPDEST PUSH1 0x40 MLOAD DUP1 SWAP2 SUB SWAP1 REVERT JUMPDEST PUSH2 0x89A DUP4 DUP4 PUSH2 0x1737 JUMP JUMPDEST POP POP POP JUMP JUMPDEST PUSH2 0x8A9 DUP4 DUP3 PUSH2 0x17ED JUMP JUMPDEST PUSH2 0x8E8 JUMPI PUSH1 0x40 MLOAD PUSH32 0x8C379A000000000000000000000000000000000000000000000000000000000 DUP2 MSTORE PUSH1 0x4 ADD PUSH2 0x8DF SWAP1 PUSH2 0x2F08 JUMP JUMPDEST PUSH1 0x40 MLOAD DUP1 SWAP2 SUB SWAP1 REVERT JUMPDEST PUSH2 0x8F3 DUP4 DUP4 DUP4 PUSH2 0x1881 JUMP JUMPDEST POP POP POP JUMP JUMPDEST PUSH1 0x7 PUSH0 SWAP1 SLOAD SWAP1 PUSH2 0x100 EXP SWAP1 DIV PUSH20 0xFFFFFFFFFFFFFFFFFFFFFFFFFFFFFFFFFFFFFFFF AND DUP2 JUMP JUMPDEST PUSH0 PUSH1 0xA PUSH0 DUP4 DUP2 MSTORE PUSH1 0x20 ADD SWAP1 DUP2 MSTORE PUSH1 0x20 ADD PUSH0 KECCAK256 PUSH0 SWAP1 SLOAD SWAP1 PUSH2 0x100 EXP SWAP1 DIV PUSH1 0xFF AND SWAP1 POP SWAP2 SWAP1 POP JUMP JUMPDEST DUP1 PUSH1 0x7 PUSH0 PUSH2 0x100 EXP DUP2 SLOAD DUP2 PUSH20 0xFFFFFFFFFFFFFFFFFFFFFFFFFFFFFFFFFFFFFFFF MUL NOT AND SWAP1 DUP4 PUSH20 0xFFFFFFFFFFFFFFFFFFFFFFFFFFFFFFFFFFFFFFFF AND MUL OR SWAP1 SSTORE POP POP JUMP JUMPDEST PUSH2 0x9A0 DUP4 DUP4 DUP4 PUSH1 0x40 MLOAD DUP1 PUSH1 0x20 ADD PUSH1 0x40 MSTORE DUP1 PUSH0 DUP2 MSTORE POP PUSH2 0x1186 JUMP JUMPDEST POP POP POP JUMP JUMPDEST PUSH1 0x7 PUSH0 SWAP1 SLOAD SWAP1 PUSH2 0x100 EXP SWAP1 DIV PUSH20 0xFFFFFFFFFFFFFFFFFFFFFFFFFFFFFFFFFFFFFFFF AND PUSH20 0xFFFFFFFFFFFFFFFFFFFFFFFFFFFFFFFFFFFFFFFF AND PUSH4 0x9824A634 CALLER DUP4 PUSH1 0x40 MLOAD DUP4 PUSH4 0xFFFFFFFF AND PUSH1 0xE0 SHL DUP2 MSTORE PUSH1 0x4 ADD PUSH2 0xA01 SWAP3 SWAP2 SWAP1 PUSH2 0x2F26 JUMP JUMPDEST PUSH0 PUSH1 0x40 MLOAD DUP1 DUP4 SUB DUP2 PUSH0 DUP8 DUP1 EXTCODESIZE ISZERO DUP1 ISZERO PUSH2 0xA18 JUMPI PUSH0 DUP1 REVERT JUMPDEST POP GAS CALL ISZERO DUP1 ISZERO PUSH2 0xA2A JUMPI RETURNDATASIZE PUSH0 DUP1 RETURNDATACOPY RETURNDATASIZE PUSH0 REVERT JUMPDEST POP POP POP POP POP JUMP JUMPDEST PUSH0 DUP1 PUSH2 0xA3C DUP4 PUSH2 0x1B6D JUMP JUMPDEST SWAP1 POP PUSH0 PUSH20 0xFFFFFFFFFFFFFFFFFFFFFFFFFFFFFFFFFFFFFFFF AND DUP2 PUSH20 0xFFFFFFFFFFFFFFFFFFFFFFFFFFFFFFFFFFFFFFFF AND SUB PUSH2 0xAAC JUMPI PUSH1 0x40 MLOAD PUSH32 0x8C379A000000000000000000000000000000000000000000000000000000000 DUP2 MSTORE PUSH1 0x4 ADD PUSH2 0xAA3 SWAP1 PUSH2 0x2F97 JUMP JUMPDEST PUSH1 0x40 MLOAD DUP1 SWAP2 SUB SWAP1 REVERT JUMPDEST DUP1 SWAP2 POP POP SWAP2 SWAP1 POP JUMP JUMPDEST PUSH0 PUSH1 0x7 PUSH0 SWAP1 SLOAD SWAP1 PUSH2 0x100 EXP SWAP1 DIV PUSH20 0xFFFFFFFFFFFFFFFFFFFFFFFFFFFFFFFFFFFFFFFF AND PUSH20 0xFFFFFFFFFFFFFFFFFFFFFFFFFFFFFFFFFFFFFFFF AND PUSH4 0xB8D12752 DUP4 PUSH1 0x40 MLOAD DUP3 PUSH4 0xFFFFFFFF AND PUSH1 0xE0 SHL DUP2 MSTORE PUSH1 0x4 ADD PUSH2 0xB10 SWAP2 SWAP1 PUSH2 0x2897 JUMP JUMPDEST PUSH1 0x20 PUSH1 0x40 MLOAD DUP1 DUP4 SUB DUP2 DUP7 GAS STATICCALL ISZERO DUP1 ISZERO PUSH2 0xB2B JUMPI RETURNDATASIZE PUSH0 DUP1 RETURNDATACOPY RETURNDATASIZE PUSH0 REVERT JUMPDEST POP POP POP POP PUSH1 0x40 MLOAD RETURNDATASIZE PUSH1 0x1F NOT PUSH1 0x1F DUP3 ADD AND DUP3 ADD DUP1 PUSH1 0x40 MSTORE POP DUP2 ADD SWAP1 PUSH2 0xB4F SWAP2 SWAP1 PUSH2 0x2FC9 JUMP JUMPDEST SWAP1 POP PUSH2 0xB5A DUP2 PUSH2 0x91D JUMP JUMPDEST PUSH2 0xB99 JUMPI PUSH1 0x40 MLOAD PUSH32 0x8C379A000000000000000000000000000000000000000000000000000000000 DUP2 MSTORE PUSH1 0x4 ADD PUSH2 0xB90 SWAP1 PUSH2 0x3064 JUMP JUMPDEST PUSH1 0x40 MLOAD DUP1 SWAP2 SUB SWAP1 REVERT JUMPDEST PUSH0 PUSH1 0x7 PUSH0 SWAP1 SLOAD SWAP1 PUSH2 0x100 EXP SWAP1 DIV PUSH20 0xFFFFFFFFFFFFFFFFFFFFFFFFFFFFFFFFFFFFFFFF AND PUSH20 0xFFFFFFFFFFFFFFFFFFFFFFFFFFFFFFFFFFFFFFFF AND PUSH4 0xF06FC961 DUP5 PUSH1 0x40 MLOAD DUP3 PUSH4 0xFFFFFFFF AND PUSH1 0xE0 SHL DUP2 MSTORE PUSH1 0x4 ADD PUSH2 0xBF4 SWAP2 SWAP1 PUSH2 0x2897 JUMP JUMPDEST PUSH1 0x20 PUSH1 0x40 MLOAD DUP1 DUP4 SUB DUP2 DUP7 GAS STATICCALL ISZERO DUP1 ISZERO PUSH2 0xC0F JUMPI RETURNDATASIZE PUSH0 DUP1 RETURNDATACOPY RETURNDATASIZE PUSH0 REVERT JUMPDEST POP POP POP POP PUSH1 0x40 MLOAD RETURNDATASIZE PUSH1 0x1F NOT PUSH1 0x1F DUP3 ADD AND DUP3 ADD DUP1 PUSH1 0x40 MSTORE POP DUP2 ADD SWAP1 PUSH2 0xC33 SWAP2 SWAP1 PUSH2 0x2FC9 JUMP JUMPDEST SWAP1 POP PUSH0 DUP2 GT PUSH2 0xC77 JUMPI PUSH1 0x40 MLOAD PUSH32 0x8C379A000000000000000000000000000000000000000000000000000000000 DUP2 MSTORE PUSH1 0x4 ADD PUSH2 0xC6E SWAP1 PUSH2 0x30CC JUMP JUMPDEST PUSH1 0x40 MLOAD DUP1 SWAP2 SUB SWAP1 REVERT JUMPDEST DUP1 CALLVALUE LT ISZERO PUSH2 0xCBA JUMPI PUSH1 0x40 MLOAD PUSH32 0x8C379A000000000000000000000000000000000000000000000000000000000 DUP2 MSTORE PUSH1 0x4 ADD PUSH2 0xCB1 SWAP1 PUSH2 0x3134 JUMP JUMPDEST PUSH1 0x40 MLOAD DUP1 SWAP2 SUB SWAP1 REVERT JUMPDEST PUSH0 PUSH1 0x7 PUSH0 SWAP1 SLOAD SWAP1 PUSH2 0x100 EXP SWAP1 DIV PUSH20 0xFFFFFFFFFFFFFFFFFFFFFFFFFFFFFFFFFFFFFFFF AND PUSH20 0xFFFFFFFFFFFFFFFFFFFFFFFFFFFFFFFFFFFFFFFF AND PUSH4 0x6352211E DUP6 PUSH1 0x40 MLOAD DUP3 PUSH4 0xFFFFFFFF AND PUSH1 0xE0 SHL DUP2 MSTORE PUSH1 0x4 ADD PUSH2 0xD15 SWAP2 SWAP1 PUSH2 0x2897 JUMP JUMPDEST PUSH1 0x20 PUSH1 0x40 MLOAD DUP1 DUP4 SUB DUP2 DUP7 GAS STATICCALL ISZERO DUP1 ISZERO PUSH2 0xD30 JUMPI RETURNDATASIZE PUSH0 DUP1 RETURNDATACOPY RETURNDATASIZE PUSH0 REVERT JUMPDEST POP POP POP POP PUSH1 0x40 MLOAD RETURNDATASIZE PUSH1 0x1F NOT PUSH1 0x1F DUP3 ADD AND DUP3 ADD DUP1 PUSH1 0x40 MSTORE POP DUP2 ADD SWAP1 PUSH2 0xD54 SWAP2 SWAP1 PUSH2 0x3166 JUMP JUMPDEST SWAP1 POP DUP1 PUSH20 0xFFFFFFFFFFFFFFFFFFFFFFFFFFFFFFFFFFFFFFFF AND CALLER PUSH20 0xFFFFFFFFFFFFFFFFFFFFFFFFFFFFFFFFFFFFFFFF AND SUB PUSH2 0xDC4 JUMPI PUSH1 0x40 MLOAD PUSH32 0x8C379A000000000000000000000000000000000000000000000000000000000 DUP2 MSTORE PUSH1 0x4 ADD PUSH2 0xDBB SWAP1 PUSH2 0x3201 JUMP JUMPDEST PUSH1 0x40 MLOAD DUP1 SWAP2 SUB SWAP1 REVERT JUMPDEST DUP1 PUSH20 0xFFFFFFFFFFFFFFFFFFFFFFFFFFFFFFFFFFFFFFFF AND PUSH2 0x8FC DUP4 SWAP1 DUP2 ISZERO MUL SWAP1 PUSH1 0x40 MLOAD PUSH0 PUSH1 0x40 MLOAD DUP1 DUP4 SUB DUP2 DUP6 DUP9 DUP9 CALL SWAP4 POP POP POP POP ISZERO DUP1 ISZERO PUSH2 0xE07 JUMPI RETURNDATASIZE PUSH0 DUP1 RETURNDATACOPY RETURNDATASIZE PUSH0 REVERT JUMPDEST POP PUSH1 0x7 PUSH0 SWAP1 SLOAD SWAP1 PUSH2 0x100 EXP SWAP1 DIV PUSH20 0xFFFFFFFFFFFFFFFFFFFFFFFFFFFFFFFFFFFFFFFF AND PUSH20 0xFFFFFFFFFFFFFFFFFFFFFFFFFFFFFFFFFFFFFFFF AND PUSH4 0x1367E6A DUP3 CALLER DUP8 PUSH1 0x40 MLOAD DUP5 PUSH4 0xFFFFFFFF AND PUSH1 0xE0 SHL DUP2 MSTORE PUSH1 0x4 ADD PUSH2 0xE66 SWAP4 SWAP3 SWAP2 SWAP1 PUSH2 0x321F JUMP JUMPDEST PUSH0 PUSH1 0x40 MLOAD DUP1 DUP4 SUB DUP2 PUSH0 DUP8 DUP1 EXTCODESIZE ISZERO DUP1 ISZERO PUSH2 0xE7D JUMPI PUSH0 DUP1 REVERT JUMPDEST POP GAS CALL ISZERO DUP1 ISZERO PUSH2 0xE8F JUMPI RETURNDATASIZE PUSH0 DUP1 RETURNDATACOPY RETURNDATASIZE PUSH0 REVERT JUMPDEST POP POP POP POP POP POP POP POP JUMP JUMPDEST PUSH0 DUP1 PUSH20 0xFFFFFFFFFFFFFFFFFFFFFFFFFFFFFFFFFFFFFFFF AND DUP3 PUSH20 0xFFFFFFFFFFFFFFFFFFFFFFFFFFFFFFFFFFFFFFFF AND SUB PUSH2 0xF08 JUMPI PUSH1 0x40 MLOAD PUSH32 0x8C379A000000000000000000000000000000000000000000000000000000000 DUP2 MSTORE PUSH1 0x4 ADD PUSH2 0xEFF SWAP1 PUSH2 0x32C4 JUMP JUMPDEST PUSH1 0x40 MLOAD DUP1 SWAP2 SUB SWAP1 REVERT JUMPDEST PUSH1 0x3 PUSH0 DUP4 PUSH20 0xFFFFFFFFFFFFFFFFFFFFFFFFFFFFFFFFFFFFFFFF AND PUSH20 0xFFFFFFFFFFFFFFFFFFFFFFFFFFFFFFFFFFFFFFFF AND DUP2 MSTORE PUSH1 0x20 ADD SWAP1 DUP2 MSTORE PUSH1 0x20 ADD PUSH0 KECCAK256 SLOAD SWAP1 POP SWAP2 SWAP1 POP JUMP JUMPDEST PUSH1 0x8 PUSH0 SWAP1 SLOAD SWAP1 PUSH2 0x100 EXP SWAP1 DIV PUSH20 0xFFFFFFFFFFFFFFFFFFFFFFFFFFFFFFFFFFFFFFFF AND DUP2 JUMP JUMPDEST PUSH1 0xC PUSH1 0x20 MSTORE DUP2 PUSH0 MSTORE PUSH1 0x40 PUSH0 KECCAK256 DUP2 DUP2 SLOAD DUP2 LT PUSH2 0xF8B JUMPI PUSH0 DUP1 REVERT JUMPDEST SWAP1 PUSH0 MSTORE PUSH1 0x20 PUSH0 KECCAK256 ADD PUSH0 SWAP2 POP SWAP2 POP POP SLOAD DUP2 JUMP JUMPDEST PUSH1 0x60 PUSH1 0x1 DUP1 SLOAD PUSH2 0xFAC SWAP1 PUSH2 0x2D4C JUMP JUMPDEST DUP1 PUSH1 0x1F ADD PUSH1 0x20 DUP1 SWAP2 DIV MUL PUSH1 0x20 ADD PUSH1 0x40 MLOAD SWAP1 DUP2 ADD PUSH1 0x40 MSTORE DUP1 SWAP3 SWAP2 SWAP1 DUP2 DUP2 MSTORE PUSH1 0x20 ADD DUP3 DUP1 SLOAD PUSH2 0xFD8 SWAP1 PUSH2 0x2D4C JUMP JUMPDEST DUP1 ISZERO PUSH2 0x1023 JUMPI DUP1 PUSH1 0x1F LT PUSH2 0xFFA JUMPI PUSH2 0x100 DUP1 DUP4 SLOAD DIV MUL DUP4 MSTORE SWAP2 PUSH1 0x20 ADD SWAP2 PUSH2 0x1023 JUMP JUMPDEST DUP3 ADD SWAP2 SWAP1 PUSH0 MSTORE PUSH1 0x20 PUSH0 KECCAK256 SWAP1 JUMPDEST DUP2 SLOAD DUP2 MSTORE SWAP1 PUSH1 0x1 ADD SWAP1 PUSH1 0x20 ADD DUP1 DUP4 GT PUSH2 0x1006 JUMPI DUP3 SWAP1 SUB PUSH1 0x1F AND DUP3 ADD SWAP2 JUMPDEST POP POP POP POP POP SWAP1 POP SWAP1 JUMP JUMPDEST PUSH2 0x103F PUSH2 0x1038 PUSH2 0x1730 JUMP JUMPDEST DUP4 DUP4 PUSH2 0x1BA6 JUMP JUMPDEST POP POP JUMP JUMPDEST PUSH1 0x60 PUSH1 0xB PUSH0 DUP4 DUP2 MSTORE PUSH1 0x20 ADD SWAP1 DUP2 MSTORE PUSH1 0x20 ADD PUSH0 KECCAK256 DUP1 SLOAD PUSH2 0x1061 SWAP1 PUSH2 0x2D4C JUMP JUMPDEST DUP1 PUSH1 0x1F ADD PUSH1 0x20 DUP1 SWAP2 DIV MUL PUSH1 0x20 ADD PUSH1 0x40 MLOAD SWAP1 DUP2 ADD PUSH1 0x40 MSTORE DUP1 SWAP3 SWAP2 SWAP1 DUP2 DUP2 MSTORE PUSH1 0x20 ADD DUP3 DUP1 SLOAD PUSH2 0x108D SWAP1 PUSH2 0x2D4C JUMP JUMPDEST DUP1 ISZERO PUSH2 0x10D8 JUMPI DUP1 PUSH1 0x1F LT PUSH2 0x10AF JUMPI PUSH2 0x100 DUP1 DUP4 SLOAD DIV MUL DUP4 MSTORE SWAP2 PUSH1 0x20 ADD SWAP2 PUSH2 0x10D8 JUMP JUMPDEST DUP3 ADD SWAP2 SWAP1 PUSH0 MSTORE PUSH1 0x20 PUSH0 KECCAK256 SWAP1 JUMPDEST DUP2 SLOAD DUP2 MSTORE SWAP1 PUSH1 0x1 ADD SWAP1 PUSH1 0x20 ADD DUP1 DUP4 GT PUSH2 0x10BB JUMPI DUP3 SWAP1 SUB PUSH1 0x1F AND DUP3 ADD SWAP2 JUMPDEST POP POP POP POP POP SWAP1 POP SWAP2 SWAP1 POP JUMP JUMPDEST PUSH2 0x10ED DUP3 PUSH2 0xA31 JUMP JUMPDEST PUSH20 0xFFFFFFFFFFFFFFFFFFFFFFFFFFFFFFFFFFFFFFFF AND CALLER PUSH20 0xFFFFFFFFFFFFFFFFFFFFFFFFFFFFFFFFFFFFFFFF AND EQ PUSH2 0x115A JUMPI PUSH1 0x40 MLOAD PUSH32 0x8C379A000000000000000000000000000000000000000000000000000000000 DUP2 MSTORE PUSH1 0x4 ADD PUSH2 0x1151 SWAP1 PUSH2 0x3352 JUMP JUMPDEST PUSH1 0x40 MLOAD DUP1 SWAP2 SUB SWAP1 REVERT JUMPDEST DUP1 PUSH1 0xA PUSH0 DUP5 DUP2 MSTORE PUSH1 0x20 ADD SWAP1 DUP2 MSTORE PUSH1 0x20 ADD PUSH0 KECCAK256 PUSH0 PUSH2 0x100 EXP DUP2 SLOAD DUP2 PUSH1 0xFF MUL NOT AND SWAP1 DUP4 ISZERO ISZERO MUL OR SWAP1 SSTORE POP POP POP JUMP JUMPDEST PUSH2 0x1197 PUSH2 0x1191 PUSH2 0x1730 JUMP JUMPDEST DUP4 PUSH2 0x17ED JUMP JUMPDEST PUSH2 0x11D6 JUMPI PUSH1 0x40 MLOAD PUSH32 0x8C379A000000000000000000000000000000000000000000000000000000000 DUP2 MSTORE PUSH1 0x4 ADD PUSH2 0x11CD SWAP1 PUSH2 0x2F08 JUMP JUMPDEST PUSH1 0x40 MLOAD DUP1 SWAP2 SUB SWAP1 REVERT JUMPDEST PUSH2 0x11E2 DUP5 DUP5 DUP5 DUP5 PUSH2 0x1D0D JUMP JUMPDEST POP POP POP POP JUMP JUMPDEST PUSH1 0x60 PUSH2 0x11F3 DUP3 PUSH2 0x16E5 JUMP JUMPDEST PUSH0 PUSH1 0x6 PUSH0 DUP5 DUP2 MSTORE PUSH1 0x20 ADD SWAP1 DUP2 MSTORE PUSH1 0x20 ADD PUSH0 KECCAK256 DUP1 SLOAD PUSH2 0x1210 SWAP1 PUSH2 0x2D4C JUMP JUMPDEST DUP1 PUSH1 0x1F ADD PUSH1 0x20 DUP1 SWAP2 DIV MUL PUSH1 0x20 ADD PUSH1 0x40 MLOAD SWAP1 DUP2 ADD PUSH1 0x40 MSTORE DUP1 SWAP3 SWAP2 SWAP1 DUP2 DUP2 MSTORE PUSH1 0x20 ADD DUP3 DUP1 SLOAD PUSH2 0x123C SWAP1 PUSH2 0x2D4C JUMP JUMPDEST DUP1 ISZERO PUSH2 0x1287 JUMPI DUP1 PUSH1 0x1F LT PUSH2 0x125E JUMPI PUSH2 0x100 DUP1 DUP4 SLOAD DIV MUL DUP4 MSTORE SWAP2 PUSH1 0x20 ADD SWAP2 PUSH2 0x1287 JUMP JUMPDEST DUP3 ADD SWAP2 SWAP1 PUSH0 MSTORE PUSH1 0x20 PUSH0 KECCAK256 SWAP1 JUMPDEST DUP2 SLOAD DUP2 MSTORE SWAP1 PUSH1 0x1 ADD SWAP1 PUSH1 0x20 ADD DUP1 DUP4 GT PUSH2 0x126A JUMPI DUP3 SWAP1 SUB PUSH1 0x1F AND DUP3 ADD SWAP2 JUMPDEST POP POP POP POP POP SWAP1 POP PUSH0 PUSH2 0x1297 PUSH2 0x1D69 JUMP JUMPDEST SWAP1 POP PUSH0 DUP2 MLOAD SUB PUSH2 0x12AB JUMPI DUP2 SWAP3 POP POP POP PUSH2 0x12ED JUMP JUMPDEST PUSH0 DUP3 MLOAD GT ISZERO PUSH2 0x12DF JUMPI DUP1 DUP3 PUSH1 0x40 MLOAD PUSH1 0x20 ADD PUSH2 0x12C7 SWAP3 SWAP2 SWAP1 PUSH2 0x33AA JUMP JUMPDEST PUSH1 0x40 MLOAD PUSH1 0x20 DUP2 DUP4 SUB SUB DUP2 MSTORE SWAP1 PUSH1 0x40 MSTORE SWAP3 POP POP POP PUSH2 0x12ED JUMP JUMPDEST PUSH2 0x12E8 DUP5 PUSH2 0x1D7F JUMP JUMPDEST SWAP3 POP POP POP JUMPDEST SWAP2 SWAP1 POP JUMP JUMPDEST DUP1 PUSH1 0xA PUSH0 DUP6 DUP2 MSTORE PUSH1 0x20 ADD SWAP1 DUP2 MSTORE PUSH1 0x20 ADD PUSH0 KECCAK256 PUSH0 PUSH2 0x100 EXP DUP2 SLOAD DUP2 PUSH1 0xFF MUL NOT AND SWAP1 DUP4 ISZERO ISZERO MUL OR SWAP1 SSTORE POP DUP2 PUSH1 0xB PUSH0 DUP6 DUP2 MSTORE PUSH1 0x20 ADD SWAP1 DUP2 MSTORE PUSH1 0x20 ADD PUSH0 KECCAK256 SWAP1 DUP2 PUSH2 0x1338 SWAP2 SWAP1 PUSH2 0x3561 JUMP JUMPDEST POP PUSH2 0x1343 CALLER DUP5 PUSH2 0x1DE4 JUMP JUMPDEST PUSH2 0x136F DUP4 PUSH1 0x9 DUP6 PUSH1 0x40 MLOAD PUSH1 0x20 ADD PUSH2 0x135B SWAP3 SWAP2 SWAP1 PUSH2 0x36D0 JUMP JUMPDEST PUSH1 0x40 MLOAD PUSH1 0x20 DUP2 DUP4 SUB SUB DUP2 MSTORE SWAP1 PUSH1 0x40 MSTORE PUSH2 0x1FF7 JUMP JUMPDEST POP POP POP JUMP JUMPDEST DUP1 PUSH1 0x9 SWAP1 DUP2 PUSH2 0x1383 SWAP2 SWAP1 PUSH2 0x3561 JUMP JUMPDEST POP POP JUMP JUMPDEST PUSH0 PUSH1 0x5 PUSH0 DUP5 PUSH20 0xFFFFFFFFFFFFFFFFFFFFFFFFFFFFFFFFFFFFFFFF AND PUSH20 0xFFFFFFFFFFFFFFFFFFFFFFFFFFFFFFFFFFFFFFFF AND DUP2 MSTORE PUSH1 0x20 ADD SWAP1 DUP2 MSTORE PUSH1 0x20 ADD PUSH0 KECCAK256 PUSH0 DUP4 PUSH20 0xFFFFFFFFFFFFFFFFFFFFFFFFFFFFFFFFFFFFFFFF AND PUSH20 0xFFFFFFFFFFFFFFFFFFFFFFFFFFFFFFFFFFFFFFFF AND DUP2 MSTORE PUSH1 0x20 ADD SWAP1 DUP2 MSTORE PUSH1 0x20 ADD PUSH0 KECCAK256 PUSH0 SWAP1 SLOAD SWAP1 PUSH2 0x100 EXP SWAP1 DIV PUSH1 0xFF AND SWAP1 POP SWAP3 SWAP2 POP POP JUMP JUMPDEST PUSH2 0x141E DUP4 PUSH2 0xA31 JUMP JUMPDEST PUSH20 0xFFFFFFFFFFFFFFFFFFFFFFFFFFFFFFFFFFFFFFFF AND CALLER PUSH20 0xFFFFFFFFFFFFFFFFFFFFFFFFFFFFFFFFFFFFFFFF AND EQ PUSH2 0x148B JUMPI PUSH1 0x40 MLOAD PUSH32 0x8C379A000000000000000000000000000000000000000000000000000000000 DUP2 MSTORE PUSH1 0x4 ADD PUSH2 0x1482 SWAP1 PUSH2 0x3767 JUMP JUMPDEST PUSH1 0x40 MLOAD DUP1 SWAP2 SUB SWAP1 REVERT JUMPDEST PUSH0 PUSH1 0x7 PUSH0 SWAP1 SLOAD SWAP1 PUSH2 0x100 EXP SWAP1 DIV PUSH20 0xFFFFFFFFFFFFFFFFFFFFFFFFFFFFFFFFFFFFFFFF AND PUSH20 0xFFFFFFFFFFFFFFFFFFFFFFFFFFFFFFFFFFFFFFFF AND PUSH4 0x4945646E CALLER DUP7 DUP7 DUP7 PUSH1 0x40 MLOAD DUP6 PUSH4 0xFFFFFFFF AND PUSH1 0xE0 SHL DUP2 MSTORE PUSH1 0x4 ADD PUSH2 0x14EC SWAP5 SWAP4 SWAP3 SWAP2 SWAP1 PUSH2 0x3785 JUMP JUMPDEST PUSH1 0x20 PUSH1 0x40 MLOAD DUP1 DUP4 SUB DUP2 PUSH0 DUP8 GAS CALL ISZERO DUP1 ISZERO PUSH2 0x1508 JUMPI RETURNDATASIZE PUSH0 DUP1 RETURNDATACOPY RETURNDATASIZE PUSH0 REVERT JUMPDEST POP POP POP POP PUSH1 0x40 MLOAD RETURNDATASIZE PUSH1 0x1F NOT PUSH1 0x1F DUP3 ADD AND DUP3 ADD DUP1 PUSH1 0x40 MSTORE POP DUP2 ADD SWAP1 PUSH2 0x152C SWAP2 SWAP1 PUSH2 0x2FC9 JUMP JUMPDEST SWAP1 POP PUSH1 0xC PUSH0 DUP6 DUP2 MSTORE PUSH1 0x20 ADD SWAP1 DUP2 MSTORE PUSH1 0x20 ADD PUSH0 KECCAK256 DUP2 SWAP1 DUP1 PUSH1 0x1 DUP2 SLOAD ADD DUP1 DUP3 SSTORE DUP1 SWAP2 POP POP PUSH1 0x1 SWAP1 SUB SWAP1 PUSH0 MSTORE PUSH1 0x20 PUSH0 KECCAK256 ADD PUSH0 SWAP1 SWAP2 SWAP1 SWAP2 SWAP1 SWAP2 POP SSTORE POP POP POP POP JUMP JUMPDEST PUSH1 0xB PUSH1 0x20 MSTORE DUP1 PUSH0 MSTORE PUSH1 0x40 PUSH0 KECCAK256 PUSH0 SWAP2 POP SWAP1 POP DUP1 SLOAD PUSH2 0x1585 SWAP1 PUSH2 0x2D4C JUMP JUMPDEST DUP1 PUSH1 0x1F ADD PUSH1 0x20 DUP1 SWAP2 DIV MUL PUSH1 0x20 ADD PUSH1 0x40 MLOAD SWAP1 DUP2 ADD PUSH1 0x40 MSTORE DUP1 SWAP3 SWAP2 SWAP1 DUP2 DUP2 MSTORE PUSH1 0x20 ADD DUP3 DUP1 SLOAD PUSH2 0x15B1 SWAP1 PUSH2 0x2D4C JUMP JUMPDEST DUP1 ISZERO PUSH2 0x15FC JUMPI DUP1 PUSH1 0x1F LT PUSH2 0x15D3 JUMPI PUSH2 0x100 DUP1 DUP4 SLOAD DIV MUL DUP4 MSTORE SWAP2 PUSH1 0x20 ADD SWAP2 PUSH2 0x15FC JUMP JUMPDEST DUP3 ADD SWAP2 SWAP1 PUSH0 MSTORE PUSH1 0x20 PUSH0 KECCAK256 SWAP1 JUMPDEST DUP2 SLOAD DUP2 MSTORE SWAP1 PUSH1 0x1 ADD SWAP1 PUSH1 0x20 ADD DUP1 DUP4 GT PUSH2 0x15DF JUMPI DUP3 SWAP1 SUB PUSH1 0x1F AND DUP3 ADD SWAP2 JUMPDEST POP POP POP POP POP DUP2 JUMP JUMPDEST PUSH0 PUSH32 0x80AC58CD00000000000000000000000000000000000000000000000000000000 PUSH28 0xFFFFFFFFFFFFFFFFFFFFFFFFFFFFFFFFFFFFFFFFFFFFFFFFFFFFFFFF NOT AND DUP3 PUSH28 0xFFFFFFFFFFFFFFFFFFFFFFFFFFFFFFFFFFFFFFFFFFFFFFFFFFFFFFFF NOT AND EQ DUP1 PUSH2 0x16CE JUMPI POP PUSH32 0x5B5E139F00000000000000000000000000000000000000000000000000000000 PUSH28 0xFFFFFFFFFFFFFFFFFFFFFFFFFFFFFFFFFFFFFFFFFFFFFFFFFFFFFFFF NOT AND DUP3 PUSH28 0xFFFFFFFFFFFFFFFFFFFFFFFFFFFFFFFFFFFFFFFFFFFFFFFFFFFFFFFF NOT AND EQ JUMPDEST DUP1 PUSH2 0x16DE JUMPI POP PUSH2 0x16DD DUP3 PUSH2 0x2099 JUMP JUMPDEST JUMPDEST SWAP1 POP SWAP2 SWAP1 POP JUMP JUMPDEST PUSH2 0x16EE DUP2 PUSH2 0x2102 JUMP JUMPDEST PUSH2 0x172D JUMPI PUSH1 0x40 MLOAD PUSH32 0x8C379A000000000000000000000000000000000000000000000000000000000 DUP2 MSTORE PUSH1 0x4 ADD PUSH2 0x1724 SWAP1 PUSH2 0x2F97 JUMP JUMPDEST PUSH1 0x40 MLOAD DUP1 SWAP2 SUB SWAP1 REVERT JUMPDEST POP JUMP JUMPDEST PUSH0 CALLER SWAP1 POP SWAP1 JUMP JUMPDEST DUP2 PUSH1 0x4 PUSH0 DUP4 DUP2 MSTORE PUSH1 0x20 ADD SWAP1 DUP2 MSTORE PUSH1 0x20 ADD PUSH0 KECCAK256 PUSH0 PUSH2 0x100 EXP DUP2 SLOAD DUP2 PUSH20 0xFFFFFFFFFFFFFFFFFFFFFFFFFFFFFFFFFFFFFFFF MUL NOT AND SWAP1 DUP4 PUSH20 0xFFFFFFFFFFFFFFFFFFFFFFFFFFFFFFFFFFFFFFFF AND MUL OR SWAP1 SSTORE POP DUP1 DUP3 PUSH20 0xFFFFFFFFFFFFFFFFFFFFFFFFFFFFFFFFFFFFFFFF AND PUSH2 0x17A7 DUP4 PUSH2 0xA31 JUMP JUMPDEST PUSH20 0xFFFFFFFFFFFFFFFFFFFFFFFFFFFFFFFFFFFFFFFF AND PUSH32 0x8C5BE1E5EBEC7D5BD14F71427D1E84F3DD0314C0F7B2291E5B200AC8C7C3B925 PUSH1 0x40 MLOAD PUSH1 0x40 MLOAD DUP1 SWAP2 SUB SWAP1 LOG4 POP POP JUMP JUMPDEST PUSH0 DUP1 PUSH2 0x17F8 DUP4 PUSH2 0xA31 JUMP JUMPDEST SWAP1 POP DUP1 PUSH20 0xFFFFFFFFFFFFFFFFFFFFFFFFFFFFFFFFFFFFFFFF AND DUP5 PUSH20 0xFFFFFFFFFFFFFFFFFFFFFFFFFFFFFFFFFFFFFFFF AND EQ DUP1 PUSH2 0x183A JUMPI POP PUSH2 0x1839 DUP2 DUP6 PUSH2 0x1387 JUMP JUMPDEST JUMPDEST DUP1 PUSH2 0x1878 JUMPI POP DUP4 PUSH20 0xFFFFFFFFFFFFFFFFFFFFFFFFFFFFFFFFFFFFFFFF AND PUSH2 0x1860 DUP5 PUSH2 0x747 JUMP JUMPDEST PUSH20 0xFFFFFFFFFFFFFFFFFFFFFFFFFFFFFFFFFFFFFFFF AND EQ JUMPDEST SWAP2 POP POP SWAP3 SWAP2 POP POP JUMP JUMPDEST DUP3 PUSH20 0xFFFFFFFFFFFFFFFFFFFFFFFFFFFFFFFFFFFFFFFF AND PUSH2 0x18A1 DUP3 PUSH2 0xA31 JUMP JUMPDEST PUSH20 0xFFFFFFFFFFFFFFFFFFFFFFFFFFFFFFFFFFFFFFFF AND EQ PUSH2 0x18F7 JUMPI PUSH1 0x40 MLOAD PUSH32 0x8C379A000000000000000000000000000000000000000000000000000000000 DUP2 MSTORE PUSH1 0x4 ADD PUSH2 0x18EE SWAP1 PUSH2 0x3838 JUMP JUMPDEST PUSH1 0x40 MLOAD DUP1 SWAP2 SUB SWAP1 REVERT JUMPDEST PUSH0 PUSH20 0xFFFFFFFFFFFFFFFFFFFFFFFFFFFFFFFFFFFFFFFF AND DUP3 PUSH20 0xFFFFFFFFFFFFFFFFFFFFFFFFFFFFFFFFFFFFFFFF AND SUB PUSH2 0x1965 JUMPI PUSH1 0x40 MLOAD PUSH32 0x8C379A000000000000000000000000000000000000000000000000000000000 DUP2 MSTORE PUSH1 0x4 ADD PUSH2 0x195C SWAP1 PUSH2 0x38C6 JUMP JUMPDEST PUSH1 0x40 MLOAD DUP1 SWAP2 SUB SWAP1 REVERT JUMPDEST PUSH2 0x1972 DUP4 DUP4 DUP4 PUSH1 0x1 PUSH2 0x2142 JUMP JUMPDEST DUP3 PUSH20 0xFFFFFFFFFFFFFFFFFFFFFFFFFFFFFFFFFFFFFFFF AND PUSH2 0x1992 DUP3 PUSH2 0xA31 JUMP JUMPDEST PUSH20 0xFFFFFFFFFFFFFFFFFFFFFFFFFFFFFFFFFFFFFFFF AND EQ PUSH2 0x19E8 JUMPI PUSH1 0x40 MLOAD PUSH32 0x8C379A000000000000000000000000000000000000000000000000000000000 DUP2 MSTORE PUSH1 0x4 ADD PUSH2 0x19DF SWAP1 PUSH2 0x3838 JUMP JUMPDEST PUSH1 0x40 MLOAD DUP1 SWAP2 SUB SWAP1 REVERT JUMPDEST PUSH1 0x4 PUSH0 DUP3 DUP2 MSTORE PUSH1 0x20 ADD SWAP1 DUP2 MSTORE PUSH1 0x20 ADD PUSH0 KECCAK256 PUSH0 PUSH2 0x100 EXP DUP2 SLOAD SWAP1 PUSH20 0xFFFFFFFFFFFFFFFFFFFFFFFFFFFFFFFFFFFFFFFF MUL NOT AND SWAP1 SSTORE PUSH1 0x1 PUSH1 0x3 PUSH0 DUP6 PUSH20 0xFFFFFFFFFFFFFFFFFFFFFFFFFFFFFFFFFFFFFFFF AND PUSH20 0xFFFFFFFFFFFFFFFFFFFFFFFFFFFFFFFFFFFFFFFF AND DUP2 MSTORE PUSH1 0x20 ADD SWAP1 DUP2 MSTORE PUSH1 0x20 ADD PUSH0 KECCAK256 PUSH0 DUP3 DUP3 SLOAD SUB SWAP3 POP POP DUP2 SWAP1 SSTORE POP PUSH1 0x1 PUSH1 0x3 PUSH0 DUP5 PUSH20 0xFFFFFFFFFFFFFFFFFFFFFFFFFFFFFFFFFFFFFFFF AND PUSH20 0xFFFFFFFFFFFFFFFFFFFFFFFFFFFFFFFFFFFFFFFF AND DUP2 MSTORE PUSH1 0x20 ADD SWAP1 DUP2 MSTORE PUSH1 0x20 ADD PUSH0 KECCAK256 PUSH0 DUP3 DUP3 SLOAD ADD SWAP3 POP POP DUP2 SWAP1 SSTORE POP DUP2 PUSH1 0x2 PUSH0 DUP4 DUP2 MSTORE PUSH1 0x20 ADD SWAP1 DUP2 MSTORE PUSH1 0x20 ADD PUSH0 KECCAK256 PUSH0 PUSH2 0x100 EXP DUP2 SLOAD DUP2 PUSH20 0xFFFFFFFFFFFFFFFFFFFFFFFFFFFFFFFFFFFFFFFF MUL NOT AND SWAP1 DUP4 PUSH20 0xFFFFFFFFFFFFFFFFFFFFFFFFFFFFFFFFFFFFFFFF AND MUL OR SWAP1 SSTORE POP DUP1 DUP3 PUSH20 0xFFFFFFFFFFFFFFFFFFFFFFFFFFFFFFFFFFFFFFFF AND DUP5 PUSH20 0xFFFFFFFFFFFFFFFFFFFFFFFFFFFFFFFFFFFFFFFF AND PUSH32 0xDDF252AD1BE2C89B69C2B068FC378DAA952BA7F163C4A11628F55A4DF523B3EF PUSH1 0x40 MLOAD PUSH1 0x40 MLOAD DUP1 SWAP2 SUB SWAP1 LOG4 PUSH2 0x1B68 DUP4 DUP4 DUP4 PUSH1 0x1 PUSH2 0x2148 JUMP JUMPDEST POP POP POP JUMP JUMPDEST PUSH0 PUSH1 0x2 PUSH0 DUP4 DUP2 MSTORE PUSH1 0x20 ADD SWAP1 DUP2 MSTORE PUSH1 0x20 ADD PUSH0 KECCAK256 PUSH0 SWAP1 SLOAD SWAP1 PUSH2 0x100 EXP SWAP1 DIV PUSH20 0xFFFFFFFFFFFFFFFFFFFFFFFFFFFFFFFFFFFFFFFF AND SWAP1 POP SWAP2 SWAP1 POP JUMP JUMPDEST DUP2 PUSH20 0xFFFFFFFFFFFFFFFFFFFFFFFFFFFFFFFFFFFFFFFF AND DUP4 PUSH20 0xFFFFFFFFFFFFFFFFFFFFFFFFFFFFFFFFFFFFFFFF AND SUB PUSH2 0x1C14 JUMPI PUSH1 0x40 MLOAD PUSH32 0x8C379A000000000000000000000000000000000000000000000000000000000 DUP2 MSTORE PUSH1 0x4 ADD PUSH2 0x1C0B SWAP1 PUSH2 0x392E JUMP JUMPDEST PUSH1 0x40 MLOAD DUP1 SWAP2 SUB SWAP1 REVERT JUMPDEST DUP1 PUSH1 0x5 PUSH0 DUP6 PUSH20 0xFFFFFFFFFFFFFFFFFFFFFFFFFFFFFFFFFFFFFFFF AND PUSH20 0xFFFFFFFFFFFFFFFFFFFFFFFFFFFFFFFFFFFFFFFF AND DUP2 MSTORE PUSH1 0x20 ADD SWAP1 DUP2 MSTORE PUSH1 0x20 ADD PUSH0 KECCAK256 PUSH0 DUP5 PUSH20 0xFFFFFFFFFFFFFFFFFFFFFFFFFFFFFFFFFFFFFFFF AND PUSH20 0xFFFFFFFFFFFFFFFFFFFFFFFFFFFFFFFFFFFFFFFF AND DUP2 MSTORE PUSH1 0x20 ADD SWAP1 DUP2 MSTORE PUSH1 0x20 ADD PUSH0 KECCAK256 PUSH0 PUSH2 0x100 EXP DUP2 SLOAD DUP2 PUSH1 0xFF MUL NOT AND SWAP1 DUP4 ISZERO ISZERO MUL OR SWAP1 SSTORE POP DUP2 PUSH20 0xFFFFFFFFFFFFFFFFFFFFFFFFFFFFFFFFFFFFFFFF AND DUP4 PUSH20 0xFFFFFFFFFFFFFFFFFFFFFFFFFFFFFFFFFFFFFFFF AND PUSH32 0x17307EAB39AB6107E8899845AD3D59BD9653F200F220920489CA2B5937696C31 DUP4 PUSH1 0x40 MLOAD PUSH2 0x1D00 SWAP2 SWAP1 PUSH2 0x25B8 JUMP JUMPDEST PUSH1 0x40 MLOAD DUP1 SWAP2 SUB SWAP1 LOG3 POP POP POP JUMP JUMPDEST PUSH2 0x1D18 DUP5 DUP5 DUP5 PUSH2 0x1881 JUMP JUMPDEST PUSH2 0x1D24 DUP5 DUP5 DUP5 DUP5 PUSH2 0x214E JUMP JUMPDEST PUSH2 0x1D63 JUMPI PUSH1 0x40 MLOAD PUSH32 0x8C379A000000000000000000000000000000000000000000000000000000000 DUP2 MSTORE PUSH1 0x4 ADD PUSH2 0x1D5A SWAP1 PUSH2 0x39BC JUMP JUMPDEST PUSH1 0x40 MLOAD DUP1 SWAP2 SUB SWAP1 REVERT JUMPDEST POP POP POP POP JUMP JUMPDEST PUSH1 0x60 PUSH1 0x40 MLOAD DUP1 PUSH1 0x20 ADD PUSH1 0x40 MSTORE DUP1 PUSH0 DUP2 MSTORE POP SWAP1 POP SWAP1 JUMP JUMPDEST PUSH1 0x60 PUSH2 0x1D8A DUP3 PUSH2 0x16E5 JUMP JUMPDEST PUSH0 PUSH2 0x1D93 PUSH2 0x1D69 JUMP JUMPDEST SWAP1 POP PUSH0 DUP2 MLOAD GT PUSH2 0x1DB1 JUMPI PUSH1 0x40 MLOAD DUP1 PUSH1 0x20 ADD PUSH1 0x40 MSTORE DUP1 PUSH0 DUP2 MSTORE POP PUSH2 0x1DDC JUMP JUMPDEST DUP1 PUSH2 0x1DBB DUP5 PUSH2 0x22D0 JUMP JUMPDEST PUSH1 0x40 MLOAD PUSH1 0x20 ADD PUSH2 0x1DCC SWAP3 SWAP2 SWAP1 PUSH2 0x33AA JUMP JUMPDEST PUSH1 0x40 MLOAD PUSH1 0x20 DUP2 DUP4 SUB SUB DUP2 MSTORE SWAP1 PUSH1 0x40 MSTORE JUMPDEST SWAP2 POP POP SWAP2 SWAP1 POP JUMP JUMPDEST PUSH0 PUSH20 0xFFFFFFFFFFFFFFFFFFFFFFFFFFFFFFFFFFFFFFFF AND DUP3 PUSH20 0xFFFFFFFFFFFFFFFFFFFFFFFFFFFFFFFFFFFFFFFF AND SUB PUSH2 0x1E52 JUMPI PUSH1 0x40 MLOAD PUSH32 0x8C379A000000000000000000000000000000000000000000000000000000000 DUP2 MSTORE PUSH1 0x4 ADD PUSH2 0x1E49 SWAP1 PUSH2 0x3A24 JUMP JUMPDEST PUSH1 0x40 MLOAD DUP1 SWAP2 SUB SWAP1 REVERT JUMPDEST PUSH2 0x1E5B DUP2 PUSH2 0x2102 JUMP JUMPDEST ISZERO PUSH2 0x1E9B JUMPI PUSH1 0x40 MLOAD PUSH32 0x8C379A000000000000000000000000000000000000000000000000000000000 DUP2 MSTORE PUSH1 0x4 ADD PUSH2 0x1E92 SWAP1 PUSH2 0x3A8C JUMP JUMPDEST PUSH1 0x40 MLOAD DUP1 SWAP2 SUB SWAP1 REVERT JUMPDEST PUSH2 0x1EA8 PUSH0 DUP4 DUP4 PUSH1 0x1 PUSH2 0x2142 JUMP JUMPDEST PUSH2 0x1EB1 DUP2 PUSH2 0x2102 JUMP JUMPDEST ISZERO PUSH2 0x1EF1 JUMPI PUSH1 0x40 MLOAD PUSH32 0x8C379A000000000000000000000000000000000000000000000000000000000 DUP2 MSTORE PUSH1 0x4 ADD PUSH2 0x1EE8 SWAP1 PUSH2 0x3A8C JUMP JUMPDEST PUSH1 0x40 MLOAD DUP1 SWAP2 SUB SWAP1 REVERT JUMPDEST PUSH1 0x1 PUSH1 0x3 PUSH0 DUP5 PUSH20 0xFFFFFFFFFFFFFFFFFFFFFFFFFFFFFFFFFFFFFFFF AND PUSH20 0xFFFFFFFFFFFFFFFFFFFFFFFFFFFFFFFFFFFFFFFF AND DUP2 MSTORE PUSH1 0x20 ADD SWAP1 DUP2 MSTORE PUSH1 0x20 ADD PUSH0 KECCAK256 PUSH0 DUP3 DUP3 SLOAD ADD SWAP3 POP POP DUP2 SWAP1 SSTORE POP DUP2 PUSH1 0x2 PUSH0 DUP4 DUP2 MSTORE PUSH1 0x20 ADD SWAP1 DUP2 MSTORE PUSH1 0x20 ADD PUSH0 KECCAK256 PUSH0 PUSH2 0x100 EXP DUP2 SLOAD DUP2 PUSH20 0xFFFFFFFFFFFFFFFFFFFFFFFFFFFFFFFFFFFFFFFF MUL NOT AND SWAP1 DUP4 PUSH20 0xFFFFFFFFFFFFFFFFFFFFFFFFFFFFFFFFFFFFFFFF AND MUL OR SWAP1 SSTORE POP DUP1 DUP3 PUSH20 0xFFFFFFFFFFFFFFFFFFFFFFFFFFFFFFFFFFFFFFFF AND PUSH0 PUSH20 0xFFFFFFFFFFFFFFFFFFFFFFFFFFFFFFFFFFFFFFFF AND PUSH32 0xDDF252AD1BE2C89B69C2B068FC378DAA952BA7F163C4A11628F55A4DF523B3EF PUSH1 0x40 MLOAD PUSH1 0x40 MLOAD DUP1 SWAP2 SUB SWAP1 LOG4 PUSH2 0x1FF3 PUSH0 DUP4 DUP4 PUSH1 0x1 PUSH2 0x2148 JUMP JUMPDEST POP POP JUMP JUMPDEST PUSH2 0x2000 DUP3 PUSH2 0x2102 JUMP JUMPDEST PUSH2 0x203F JUMPI PUSH1 0x40 MLOAD PUSH32 0x8C379A000000000000000000000000000000000000000000000000000000000 DUP2 MSTORE PUSH1 0x4 ADD PUSH2 0x2036 SWAP1 PUSH2 0x3B1A JUMP JUMPDEST PUSH1 0x40 MLOAD DUP1 SWAP2 SUB SWAP1 REVERT JUMPDEST DUP1 PUSH1 0x6 PUSH0 DUP5 DUP2 MSTORE PUSH1 0x20 ADD SWAP1 DUP2 MSTORE PUSH1 0x20 ADD PUSH0 KECCAK256 SWAP1 DUP2 PUSH2 0x205D SWAP2 SWAP1 PUSH2 0x3561 JUMP JUMPDEST POP PUSH32 0xF8E1A15ABA9398E019F0B49DF1A4FDE98EE17AE345CB5F6B5E2C27F5033E8CE7 DUP3 PUSH1 0x40 MLOAD PUSH2 0x208D SWAP2 SWAP1 PUSH2 0x2897 JUMP JUMPDEST PUSH1 0x40 MLOAD DUP1 SWAP2 SUB SWAP1 LOG1 POP POP JUMP JUMPDEST PUSH0 PUSH32 0x1FFC9A700000000000000000000000000000000000000000000000000000000 PUSH28 0xFFFFFFFFFFFFFFFFFFFFFFFFFFFFFFFFFFFFFFFFFFFFFFFFFFFFFFFF NOT AND DUP3 PUSH28 0xFFFFFFFFFFFFFFFFFFFFFFFFFFFFFFFFFFFFFFFFFFFFFFFFFFFFFFFF NOT AND EQ SWAP1 POP SWAP2 SWAP1 POP JUMP JUMPDEST PUSH0 DUP1 PUSH20 0xFFFFFFFFFFFFFFFFFFFFFFFFFFFFFFFFFFFFFFFF AND PUSH2 0x2123 DUP4 PUSH2 0x1B6D JUMP JUMPDEST PUSH20 0xFFFFFFFFFFFFFFFFFFFFFFFFFFFFFFFFFFFFFFFF AND EQ ISZERO SWAP1 POP SWAP2 SWAP1 POP JUMP JUMPDEST POP POP POP POP JUMP JUMPDEST POP POP POP POP JUMP JUMPDEST PUSH0 PUSH2 0x216E DUP5 PUSH20 0xFFFFFFFFFFFFFFFFFFFFFFFFFFFFFFFFFFFFFFFF AND PUSH2 0x239A JUMP JUMPDEST ISZERO PUSH2 0x22C3 JUMPI DUP4 PUSH20 0xFFFFFFFFFFFFFFFFFFFFFFFFFFFFFFFFFFFFFFFF AND PUSH4 0x150B7A02 PUSH2 0x2197 PUSH2 0x1730 JUMP JUMPDEST DUP8 DUP7 DUP7 PUSH1 0x40 MLOAD DUP6 PUSH4 0xFFFFFFFF AND PUSH1 0xE0 SHL DUP2 MSTORE PUSH1 0x4 ADD PUSH2 0x21B9 SWAP5 SWAP4 SWAP3 SWAP2 SWAP1 PUSH2 0x3B8A JUMP JUMPDEST PUSH1 0x20 PUSH1 0x40 MLOAD DUP1 DUP4 SUB DUP2 PUSH0 DUP8 GAS CALL SWAP3 POP POP POP DUP1 ISZERO PUSH2 0x21F4 JUMPI POP PUSH1 0x40 MLOAD RETURNDATASIZE PUSH1 0x1F NOT PUSH1 0x1F DUP3 ADD AND DUP3 ADD DUP1 PUSH1 0x40 MSTORE POP DUP2 ADD SWAP1 PUSH2 0x21F1 SWAP2 SWAP1 PUSH2 0x3BE8 JUMP JUMPDEST PUSH1 0x1 JUMPDEST PUSH2 0x2273 JUMPI RETURNDATASIZE DUP1 PUSH0 DUP2 EQ PUSH2 0x2222 JUMPI PUSH1 0x40 MLOAD SWAP2 POP PUSH1 0x1F NOT PUSH1 0x3F RETURNDATASIZE ADD AND DUP3 ADD PUSH1 0x40 MSTORE RETURNDATASIZE DUP3 MSTORE RETURNDATASIZE PUSH0 PUSH1 0x20 DUP5 ADD RETURNDATACOPY PUSH2 0x2227 JUMP JUMPDEST PUSH1 0x60 SWAP2 POP JUMPDEST POP PUSH0 DUP2 MLOAD SUB PUSH2 0x226B JUMPI PUSH1 0x40 MLOAD PUSH32 0x8C379A000000000000000000000000000000000000000000000000000000000 DUP2 MSTORE PUSH1 0x4 ADD PUSH2 0x2262 SWAP1 PUSH2 0x39BC JUMP JUMPDEST PUSH1 0x40 MLOAD DUP1 SWAP2 SUB SWAP1 REVERT JUMPDEST DUP1 MLOAD DUP2 PUSH1 0x20 ADD REVERT JUMPDEST PUSH4 0x150B7A02 PUSH1 0xE0 SHL PUSH28 0xFFFFFFFFFFFFFFFFFFFFFFFFFFFFFFFFFFFFFFFFFFFFFFFFFFFFFFFF NOT AND DUP2 PUSH28 0xFFFFFFFFFFFFFFFFFFFFFFFFFFFFFFFFFFFFFFFFFFFFFFFFFFFFFFFF NOT AND EQ SWAP2 POP POP PUSH2 0x22C8 JUMP JUMPDEST PUSH1 0x1 SWAP1 POP JUMPDEST SWAP5 SWAP4 POP POP POP POP JUMP JUMPDEST PUSH1 0x60 PUSH0 PUSH1 0x1 PUSH2 0x22DE DUP5 PUSH2 0x23BC JUMP JUMPDEST ADD SWAP1 POP PUSH0 DUP2 PUSH8 0xFFFFFFFFFFFFFFFF DUP2 GT ISZERO PUSH2 0x22FC JUMPI PUSH2 0x22FB PUSH2 0x299C JUMP JUMPDEST JUMPDEST PUSH1 0x40 MLOAD SWAP1 DUP1 DUP3 MSTORE DUP1 PUSH1 0x1F ADD PUSH1 0x1F NOT AND PUSH1 0x20 ADD DUP3 ADD PUSH1 0x40 MSTORE DUP1 ISZERO PUSH2 0x232E JUMPI DUP2 PUSH1 0x20 ADD PUSH1 0x1 DUP3 MUL DUP1 CALLDATASIZE DUP4 CALLDATACOPY DUP1 DUP3 ADD SWAP2 POP POP SWAP1 POP JUMPDEST POP SWAP1 POP PUSH0 DUP3 PUSH1 0x20 ADD DUP3 ADD SWAP1 POP JUMPDEST PUSH1 0x1 ISZERO PUSH2 0x238F JUMPI DUP1 DUP1 PUSH1 0x1 SWAP1 SUB SWAP2 POP POP PUSH32 0x3031323334353637383961626364656600000000000000000000000000000000 PUSH1 0xA DUP7 MOD BYTE DUP2 MSTORE8 PUSH1 0xA DUP6 DUP2 PUSH2 0x2384 JUMPI PUSH2 0x2383 PUSH2 0x3C13 JUMP JUMPDEST JUMPDEST DIV SWAP5 POP PUSH0 DUP6 SUB PUSH2 0x233B JUMPI JUMPDEST DUP2 SWAP4 POP POP POP POP SWAP2 SWAP1 POP JUMP JUMPDEST PUSH0 DUP1 DUP3 PUSH20 0xFFFFFFFFFFFFFFFFFFFFFFFFFFFFFFFFFFFFFFFF AND EXTCODESIZE GT SWAP1 POP SWAP2 SWAP1 POP JUMP JUMPDEST PUSH0 DUP1 PUSH0 SWAP1 POP PUSH27 0x184F03E93FF9F4DAA797ED6E38ED64BF6A1F010000000000000000 DUP4 LT PUSH2 0x2418 JUMPI PUSH27 0x184F03E93FF9F4DAA797ED6E38ED64BF6A1F010000000000000000 DUP4 DUP2 PUSH2 0x240E JUMPI PUSH2 0x240D PUSH2 0x3C13 JUMP JUMPDEST JUMPDEST DIV SWAP3 POP PUSH1 0x40 DUP2 ADD SWAP1 POP JUMPDEST PUSH14 0x4EE2D6D415B85ACEF8100000000 DUP4 LT PUSH2 0x2455 JUMPI PUSH14 0x4EE2D6D415B85ACEF8100000000 DUP4 DUP2 PUSH2 0x244B JUMPI PUSH2 0x244A PUSH2 0x3C13 JUMP JUMPDEST JUMPDEST DIV SWAP3 POP PUSH1 0x20 DUP2 ADD SWAP1 POP JUMPDEST PUSH7 0x2386F26FC10000 DUP4 LT PUSH2 0x2484 JUMPI PUSH7 0x2386F26FC10000 DUP4 DUP2 PUSH2 0x247A JUMPI PUSH2 0x2479 PUSH2 0x3C13 JUMP JUMPDEST JUMPDEST DIV SWAP3 POP PUSH1 0x10 DUP2 ADD SWAP1 POP JUMPDEST PUSH4 0x5F5E100 DUP4 LT PUSH2 0x24AD JUMPI PUSH4 0x5F5E100 DUP4 DUP2 PUSH2 0x24A3 JUMPI PUSH2 0x24A2 PUSH2 0x3C13 JUMP JUMPDEST JUMPDEST DIV SWAP3 POP PUSH1 0x8 DUP2 ADD SWAP1 POP JUMPDEST PUSH2 0x2710 DUP4 LT PUSH2 0x24D2 JUMPI PUSH2 0x2710 DUP4 DUP2 PUSH2 0x24C8 JUMPI PUSH2 0x24C7 PUSH2 0x3C13 JUMP JUMPDEST JUMPDEST DIV SWAP3 POP PUSH1 0x4 DUP2 ADD SWAP1 POP JUMPDEST PUSH1 0x64 DUP4 LT PUSH2 0x24F5 JUMPI PUSH1 0x64 DUP4 DUP2 PUSH2 0x24EB JUMPI PUSH2 0x24EA PUSH2 0x3C13 JUMP JUMPDEST JUMPDEST DIV SWAP3 POP PUSH1 0x2 DUP2 ADD SWAP1 POP JUMPDEST PUSH1 0xA DUP4 LT PUSH2 0x2504 JUMPI PUSH1 0x1 DUP2 ADD SWAP1 POP JUMPDEST DUP1 SWAP2 POP POP SWAP2 SWAP1 POP JUMP JUMPDEST PUSH0 PUSH1 0x40 MLOAD SWAP1 POP SWAP1 JUMP JUMPDEST PUSH0 DUP1 REVERT JUMPDEST PUSH0 DUP1 REVERT JUMPDEST PUSH0 PUSH32 0xFFFFFFFF00000000000000000000000000000000000000000000000000000000 DUP3 AND SWAP1 POP SWAP2 SWAP1 POP JUMP JUMPDEST PUSH2 0x2552 DUP2 PUSH2 0x251E JUMP JUMPDEST DUP2 EQ PUSH2 0x255C JUMPI PUSH0 DUP1 REVERT JUMPDEST POP JUMP JUMPDEST PUSH0 DUP2 CALLDATALOAD SWAP1 POP PUSH2 0x256D DUP2 PUSH2 0x2549 JUMP JUMPDEST SWAP3 SWAP2 POP POP JUMP JUMPDEST PUSH0 PUSH1 0x20 DUP3 DUP5 SUB SLT ISZERO PUSH2 0x2588 JUMPI PUSH2 0x2587 PUSH2 0x2516 JUMP JUMPDEST JUMPDEST PUSH0 PUSH2 0x2595 DUP5 DUP3 DUP6 ADD PUSH2 0x255F JUMP JUMPDEST SWAP2 POP POP SWAP3 SWAP2 POP POP JUMP JUMPDEST PUSH0 DUP2 ISZERO ISZERO SWAP1 POP SWAP2 SWAP1 POP JUMP JUMPDEST PUSH2 0x25B2 DUP2 PUSH2 0x259E JUMP JUMPDEST DUP3 MSTORE POP POP JUMP JUMPDEST PUSH0 PUSH1 0x20 DUP3 ADD SWAP1 POP PUSH2 0x25CB PUSH0 DUP4 ADD DUP5 PUSH2 0x25A9 JUMP JUMPDEST SWAP3 SWAP2 POP POP JUMP JUMPDEST PUSH0 DUP2 MLOAD SWAP1 POP SWAP2 SWAP1 POP JUMP JUMPDEST PUSH0 DUP3 DUP3 MSTORE PUSH1 0x20 DUP3 ADD SWAP1 POP SWAP3 SWAP2 POP POP JUMP JUMPDEST PUSH0 JUMPDEST DUP4 DUP2 LT ISZERO PUSH2 0x2608 JUMPI DUP1 DUP3 ADD MLOAD DUP2 DUP5 ADD MSTORE PUSH1 0x20 DUP2 ADD SWAP1 POP PUSH2 0x25ED JUMP JUMPDEST PUSH0 DUP5 DUP5 ADD MSTORE POP POP POP POP JUMP JUMPDEST PUSH0 PUSH1 0x1F NOT PUSH1 0x1F DUP4 ADD AND SWAP1 POP SWAP2 SWAP1 POP JUMP JUMPDEST PUSH0 PUSH2 0x262D DUP3 PUSH2 0x25D1 JUMP JUMPDEST PUSH2 0x2637 DUP2 DUP6 PUSH2 0x25DB JUMP JUMPDEST SWAP4 POP PUSH2 0x2647 DUP2 DUP6 PUSH1 0x20 DUP7 ADD PUSH2 0x25EB JUMP JUMPDEST PUSH2 0x2650 DUP2 PUSH2 0x2613 JUMP JUMPDEST DUP5 ADD SWAP2 POP POP SWAP3 SWAP2 POP POP JUMP JUMPDEST PUSH0 PUSH1 0x20 DUP3 ADD SWAP1 POP DUP2 DUP2 SUB PUSH0 DUP4 ADD MSTORE PUSH2 0x2673 DUP2 DUP5 PUSH2 0x2623 JUMP JUMPDEST SWAP1 POP SWAP3 SWAP2 POP POP JUMP JUMPDEST PUSH0 DUP2 SWAP1 POP SWAP2 SWAP1 POP JUMP JUMPDEST PUSH2 0x268D DUP2 PUSH2 0x267B JUMP JUMPDEST DUP2 EQ PUSH2 0x2697 JUMPI PUSH0 DUP1 REVERT JUMPDEST POP JUMP JUMPDEST PUSH0 DUP2 CALLDATALOAD SWAP1 POP PUSH2 0x26A8 DUP2 PUSH2 0x2684 JUMP JUMPDEST SWAP3 SWAP2 POP POP JUMP JUMPDEST PUSH0 PUSH1 0x20 DUP3 DUP5 SUB SLT ISZERO PUSH2 0x26C3 JUMPI PUSH2 0x26C2 PUSH2 0x2516 JUMP JUMPDEST JUMPDEST PUSH0 PUSH2 0x26D0 DUP5 DUP3 DUP6 ADD PUSH2 0x269A JUMP JUMPDEST SWAP2 POP POP SWAP3 SWAP2 POP POP JUMP JUMPDEST PUSH0 PUSH20 0xFFFFFFFFFFFFFFFFFFFFFFFFFFFFFFFFFFFFFFFF DUP3 AND SWAP1 POP SWAP2 SWAP1 POP JUMP JUMPDEST PUSH0 PUSH2 0x2702 DUP3 PUSH2 0x26D9 JUMP JUMPDEST SWAP1 POP SWAP2 SWAP1 POP JUMP JUMPDEST PUSH2 0x2712 DUP2 PUSH2 0x26F8 JUMP JUMPDEST DUP3 MSTORE POP POP JUMP JUMPDEST PUSH0 PUSH1 0x20 DUP3 ADD SWAP1 POP PUSH2 0x272B PUSH0 DUP4 ADD DUP5 PUSH2 0x2709 JUMP JUMPDEST SWAP3 SWAP2 POP POP JUMP JUMPDEST PUSH2 0x273A DUP2 PUSH2 0x26F8 JUMP JUMPDEST DUP2 EQ PUSH2 0x2744 JUMPI PUSH0 DUP1 REVERT JUMPDEST POP JUMP JUMPDEST PUSH0 DUP2 CALLDATALOAD SWAP1 POP PUSH2 0x2755 DUP2 PUSH2 0x2731 JUMP JUMPDEST SWAP3 SWAP2 POP POP JUMP JUMPDEST PUSH0 DUP1 PUSH1 0x40 DUP4 DUP6 SUB SLT ISZERO PUSH2 0x2771 JUMPI PUSH2 0x2770 PUSH2 0x2516 JUMP JUMPDEST JUMPDEST PUSH0 PUSH2 0x277E DUP6 DUP3 DUP7 ADD PUSH2 0x2747 JUMP JUMPDEST SWAP3 POP POP PUSH1 0x20 PUSH2 0x278F DUP6 DUP3 DUP7 ADD PUSH2 0x269A JUMP JUMPDEST SWAP2 POP POP SWAP3 POP SWAP3 SWAP1 POP JUMP JUMPDEST PUSH0 DUP1 PUSH0 PUSH1 0x60 DUP5 DUP7 SUB SLT ISZERO PUSH2 0x27B0 JUMPI PUSH2 0x27AF PUSH2 0x2516 JUMP JUMPDEST JUMPDEST PUSH0 PUSH2 0x27BD DUP7 DUP3 DUP8 ADD PUSH2 0x2747 JUMP JUMPDEST SWAP4 POP POP PUSH1 0x20 PUSH2 0x27CE DUP7 DUP3 DUP8 ADD PUSH2 0x2747 JUMP JUMPDEST SWAP3 POP POP PUSH1 0x40 PUSH2 0x27DF DUP7 DUP3 DUP8 ADD PUSH2 0x269A JUMP JUMPDEST SWAP2 POP POP SWAP3 POP SWAP3 POP SWAP3 JUMP JUMPDEST PUSH0 DUP2 SWAP1 POP SWAP2 SWAP1 POP JUMP JUMPDEST PUSH0 PUSH2 0x280C PUSH2 0x2807 PUSH2 0x2802 DUP5 PUSH2 0x26D9 JUMP JUMPDEST PUSH2 0x27E9 JUMP JUMPDEST PUSH2 0x26D9 JUMP JUMPDEST SWAP1 POP SWAP2 SWAP1 POP JUMP JUMPDEST PUSH0 PUSH2 0x281D DUP3 PUSH2 0x27F2 JUMP JUMPDEST SWAP1 POP SWAP2 SWAP1 POP JUMP JUMPDEST PUSH0 PUSH2 0x282E DUP3 PUSH2 0x2813 JUMP JUMPDEST SWAP1 POP SWAP2 SWAP1 POP JUMP JUMPDEST PUSH2 0x283E DUP2 PUSH2 0x2824 JUMP JUMPDEST DUP3 MSTORE POP POP JUMP JUMPDEST PUSH0 PUSH1 0x20 DUP3 ADD SWAP1 POP PUSH2 0x2857 PUSH0 DUP4 ADD DUP5 PUSH2 0x2835 JUMP JUMPDEST SWAP3 SWAP2 POP POP JUMP JUMPDEST PUSH0 PUSH1 0x20 DUP3 DUP5 SUB SLT ISZERO PUSH2 0x2872 JUMPI PUSH2 0x2871 PUSH2 0x2516 JUMP JUMPDEST JUMPDEST PUSH0 PUSH2 0x287F DUP5 DUP3 DUP6 ADD PUSH2 0x2747 JUMP JUMPDEST SWAP2 POP POP SWAP3 SWAP2 POP POP JUMP JUMPDEST PUSH2 0x2891 DUP2 PUSH2 0x267B JUMP JUMPDEST DUP3 MSTORE POP POP JUMP JUMPDEST PUSH0 PUSH1 0x20 DUP3 ADD SWAP1 POP PUSH2 0x28AA PUSH0 DUP4 ADD DUP5 PUSH2 0x2888 JUMP JUMPDEST SWAP3 SWAP2 POP POP JUMP JUMPDEST PUSH0 DUP1 PUSH1 0x40 DUP4 DUP6 SUB SLT ISZERO PUSH2 0x28C6 JUMPI PUSH2 0x28C5 PUSH2 0x2516 JUMP JUMPDEST JUMPDEST PUSH0 PUSH2 0x28D3 DUP6 DUP3 DUP7 ADD PUSH2 0x269A JUMP JUMPDEST SWAP3 POP POP PUSH1 0x20 PUSH2 0x28E4 DUP6 DUP3 DUP7 ADD PUSH2 0x269A JUMP JUMPDEST SWAP2 POP POP SWAP3 POP SWAP3 SWAP1 POP JUMP JUMPDEST PUSH2 0x28F7 DUP2 PUSH2 0x259E JUMP JUMPDEST DUP2 EQ PUSH2 0x2901 JUMPI PUSH0 DUP1 REVERT JUMPDEST POP JUMP JUMPDEST PUSH0 DUP2 CALLDATALOAD SWAP1 POP PUSH2 0x2912 DUP2 PUSH2 0x28EE JUMP JUMPDEST SWAP3 SWAP2 POP POP JUMP JUMPDEST PUSH0 DUP1 PUSH1 0x40 DUP4 DUP6 SUB SLT ISZERO PUSH2 0x292E JUMPI PUSH2 0x292D PUSH2 0x2516 JUMP JUMPDEST JUMPDEST PUSH0 PUSH2 0x293B DUP6 DUP3 DUP7 ADD PUSH2 0x2747 JUMP JUMPDEST SWAP3 POP POP PUSH1 0x20 PUSH2 0x294C DUP6 DUP3 DUP7 ADD PUSH2 0x2904 JUMP JUMPDEST SWAP2 POP POP SWAP3 POP SWAP3 SWAP1 POP JUMP JUMPDEST PUSH0 DUP1 PUSH1 0x40 DUP4 DUP6 SUB SLT ISZERO PUSH2 0x296C JUMPI PUSH2 0x296B PUSH2 0x2516 JUMP JUMPDEST JUMPDEST PUSH0 PUSH2 0x2979 DUP6 DUP3 DUP7 ADD PUSH2 0x269A JUMP JUMPDEST SWAP3 POP POP PUSH1 0x20 PUSH2 0x298A DUP6 DUP3 DUP7 ADD PUSH2 0x2904 JUMP JUMPDEST SWAP2 POP POP SWAP3 POP SWAP3 SWAP1 POP JUMP JUMPDEST PUSH0 DUP1 REVERT JUMPDEST PUSH0 DUP1 REVERT JUMPDEST PUSH32 0x4E487B7100000000000000000000000000000000000000000000000000000000 PUSH0 MSTORE PUSH1 0x41 PUSH1 0x4 MSTORE PUSH1 0x24 PUSH0 REVERT JUMPDEST PUSH2 0x29D2 DUP3 PUSH2 0x2613 JUMP JUMPDEST DUP2 ADD DUP2 DUP2 LT PUSH8 0xFFFFFFFFFFFFFFFF DUP3 GT OR ISZERO PUSH2 0x29F1 JUMPI PUSH2 0x29F0 PUSH2 0x299C JUMP JUMPDEST JUMPDEST DUP1 PUSH1 0x40 MSTORE POP POP POP JUMP JUMPDEST PUSH0 PUSH2 0x2A03 PUSH2 0x250D JUMP JUMPDEST SWAP1 POP PUSH2 0x2A0F DUP3 DUP3 PUSH2 0x29C9 JUMP JUMPDEST SWAP2 SWAP1 POP JUMP JUMPDEST PUSH0 PUSH8 0xFFFFFFFFFFFFFFFF DUP3 GT ISZERO PUSH2 0x2A2E JUMPI PUSH2 0x2A2D PUSH2 0x299C JUMP JUMPDEST JUMPDEST PUSH2 0x2A37 DUP3 PUSH2 0x2613 JUMP JUMPDEST SWAP1 POP PUSH1 0x20 DUP2 ADD SWAP1 POP SWAP2 SWAP1 POP JUMP JUMPDEST DUP3 DUP2 DUP4 CALLDATACOPY PUSH0 DUP4 DUP4 ADD MSTORE POP POP POP JUMP JUMPDEST PUSH0 PUSH2 0x2A64 PUSH2 0x2A5F DUP5 PUSH2 0x2A14 JUMP JUMPDEST PUSH2 0x29FA JUMP JUMPDEST SWAP1 POP DUP3 DUP2 MSTORE PUSH1 0x20 DUP2 ADD DUP5 DUP5 DUP5 ADD GT ISZERO PUSH2 0x2A80 JUMPI PUSH2 0x2A7F PUSH2 0x2998 JUMP JUMPDEST JUMPDEST PUSH2 0x2A8B DUP5 DUP3 DUP6 PUSH2 0x2A44 JUMP JUMPDEST POP SWAP4 SWAP3 POP POP POP JUMP JUMPDEST PUSH0 DUP3 PUSH1 0x1F DUP4 ADD SLT PUSH2 0x2AA7 JUMPI PUSH2 0x2AA6 PUSH2 0x2994 JUMP JUMPDEST JUMPDEST DUP2 CALLDATALOAD PUSH2 0x2AB7 DUP5 DUP3 PUSH1 0x20 DUP7 ADD PUSH2 0x2A52 JUMP JUMPDEST SWAP2 POP POP SWAP3 SWAP2 POP POP JUMP JUMPDEST PUSH0 DUP1 PUSH0 DUP1 PUSH1 0x80 DUP6 DUP8 SUB SLT ISZERO PUSH2 0x2AD8 JUMPI PUSH2 0x2AD7 PUSH2 0x2516 JUMP JUMPDEST JUMPDEST PUSH0 PUSH2 0x2AE5 DUP8 DUP3 DUP9 ADD PUSH2 0x2747 JUMP JUMPDEST SWAP5 POP POP PUSH1 0x20 PUSH2 0x2AF6 DUP8 DUP3 DUP9 ADD PUSH2 0x2747 JUMP JUMPDEST SWAP4 POP POP PUSH1 0x40 PUSH2 0x2B07 DUP8 DUP3 DUP9 ADD PUSH2 0x269A JUMP JUMPDEST SWAP3 POP POP PUSH1 0x60 DUP6 ADD CALLDATALOAD PUSH8 0xFFFFFFFFFFFFFFFF DUP2 GT ISZERO PUSH2 0x2B28 JUMPI PUSH2 0x2B27 PUSH2 0x251A JUMP JUMPDEST JUMPDEST PUSH2 0x2B34 DUP8 DUP3 DUP9 ADD PUSH2 0x2A93 JUMP JUMPDEST SWAP2 POP POP SWAP3 SWAP6 SWAP2 SWAP5 POP SWAP3 POP JUMP JUMPDEST PUSH0 PUSH8 0xFFFFFFFFFFFFFFFF DUP3 GT ISZERO PUSH2 0x2B5A JUMPI PUSH2 0x2B59 PUSH2 0x299C JUMP JUMPDEST JUMPDEST PUSH2 0x2B63 DUP3 PUSH2 0x2613 JUMP JUMPDEST SWAP1 POP PUSH1 0x20 DUP2 ADD SWAP1 POP SWAP2 SWAP1 POP JUMP JUMPDEST PUSH0 PUSH2 0x2B82 PUSH2 0x2B7D DUP5 PUSH2 0x2B40 JUMP JUMPDEST PUSH2 0x29FA JUMP JUMPDEST SWAP1 POP DUP3 DUP2 MSTORE PUSH1 0x20 DUP2 ADD DUP5 DUP5 DUP5 ADD GT ISZERO PUSH2 0x2B9E JUMPI PUSH2 0x2B9D PUSH2 0x2998 JUMP JUMPDEST JUMPDEST PUSH2 0x2BA9 DUP5 DUP3 DUP6 PUSH2 0x2A44 JUMP JUMPDEST POP SWAP4 SWAP3 POP POP POP JUMP JUMPDEST PUSH0 DUP3 PUSH1 0x1F DUP4 ADD SLT PUSH2 0x2BC5 JUMPI PUSH2 0x2BC4 PUSH2 0x2994 JUMP JUMPDEST JUMPDEST DUP2 CALLDATALOAD PUSH2 0x2BD5 DUP5 DUP3 PUSH1 0x20 DUP7 ADD PUSH2 0x2B70 JUMP JUMPDEST SWAP2 POP POP SWAP3 SWAP2 POP POP JUMP JUMPDEST PUSH0 DUP1 PUSH0 PUSH1 0x60 DUP5 DUP7 SUB SLT ISZERO PUSH2 0x2BF5 JUMPI PUSH2 0x2BF4 PUSH2 0x2516 JUMP JUMPDEST JUMPDEST PUSH0 PUSH2 0x2C02 DUP7 DUP3 DUP8 ADD PUSH2 0x269A JUMP JUMPDEST SWAP4 POP POP PUSH1 0x20 DUP5 ADD CALLDATALOAD PUSH8 0xFFFFFFFFFFFFFFFF DUP2 GT ISZERO PUSH2 0x2C23 JUMPI PUSH2 0x2C22 PUSH2 0x251A JUMP JUMPDEST JUMPDEST PUSH2 0x2C2F DUP7 DUP3 DUP8 ADD PUSH2 0x2BB1 JUMP JUMPDEST SWAP3 POP POP PUSH1 0x40 PUSH2 0x2C40 DUP7 DUP3 DUP8 ADD PUSH2 0x2904 JUMP JUMPDEST SWAP2 POP POP SWAP3 POP SWAP3 POP SWAP3 JUMP JUMPDEST PUSH0 PUSH1 0x20 DUP3 DUP5 SUB SLT ISZERO PUSH2 0x2C5F JUMPI PUSH2 0x2C5E PUSH2 0x2516 JUMP JUMPDEST JUMPDEST PUSH0 DUP3 ADD CALLDATALOAD PUSH8 0xFFFFFFFFFFFFFFFF DUP2 GT ISZERO PUSH2 0x2C7C JUMPI PUSH2 0x2C7B PUSH2 0x251A JUMP JUMPDEST JUMPDEST PUSH2 0x2C88 DUP5 DUP3 DUP6 ADD PUSH2 0x2BB1 JUMP JUMPDEST SWAP2 POP POP SWAP3 SWAP2 POP POP JUMP JUMPDEST PUSH0 DUP1 PUSH1 0x40 DUP4 DUP6 SUB SLT ISZERO PUSH2 0x2CA7 JUMPI PUSH2 0x2CA6 PUSH2 0x2516 JUMP JUMPDEST JUMPDEST PUSH0 PUSH2 0x2CB4 DUP6 DUP3 DUP7 ADD PUSH2 0x2747 JUMP JUMPDEST SWAP3 POP POP PUSH1 0x20 PUSH2 0x2CC5 DUP6 DUP3 DUP7 ADD PUSH2 0x2747 JUMP JUMPDEST SWAP2 POP POP SWAP3 POP SWAP3 SWAP1 POP JUMP JUMPDEST PUSH0 DUP1 PUSH0 PUSH1 0x60 DUP5 DUP7 SUB SLT ISZERO PUSH2 0x2CE6 JUMPI PUSH2 0x2CE5 PUSH2 0x2516 JUMP JUMPDEST JUMPDEST PUSH0 PUSH2 0x2CF3 DUP7 DUP3 DUP8 ADD PUSH2 0x269A JUMP JUMPDEST SWAP4 POP POP PUSH1 0x20 PUSH2 0x2D04 DUP7 DUP3 DUP8 ADD PUSH2 0x269A JUMP JUMPDEST SWAP3 POP POP PUSH1 0x40 PUSH2 0x2D15 DUP7 DUP3 DUP8 ADD PUSH2 0x269A JUMP JUMPDEST SWAP2 POP POP SWAP3 POP SWAP3 POP SWAP3 JUMP JUMPDEST PUSH32 0x4E487B7100000000000000000000000000000000000000000000000000000000 PUSH0 MSTORE PUSH1 0x22 PUSH1 0x4 MSTORE PUSH1 0x24 PUSH0 REVERT JUMPDEST PUSH0 PUSH1 0x2 DUP3 DIV SWAP1 POP PUSH1 0x1 DUP3 AND DUP1 PUSH2 0x2D63 JUMPI PUSH1 0x7F DUP3 AND SWAP2 POP JUMPDEST PUSH1 0x20 DUP3 LT DUP2 SUB PUSH2 0x2D76 JUMPI PUSH2 0x2D75 PUSH2 0x2D1F JUMP JUMPDEST JUMPDEST POP SWAP2 SWAP1 POP JUMP JUMPDEST PUSH32 0x4552433732313A20617070726F76616C20746F2063757272656E74206F776E65 PUSH0 DUP3 ADD MSTORE PUSH32 0x7200000000000000000000000000000000000000000000000000000000000000 PUSH1 0x20 DUP3 ADD MSTORE POP JUMP JUMPDEST PUSH0 PUSH2 0x2DD6 PUSH1 0x21 DUP4 PUSH2 0x25DB JUMP JUMPDEST SWAP2 POP PUSH2 0x2DE1 DUP3 PUSH2 0x2D7C JUMP JUMPDEST PUSH1 0x40 DUP3 ADD SWAP1 POP SWAP2 SWAP1 POP JUMP JUMPDEST PUSH0 PUSH1 0x20 DUP3 ADD SWAP1 POP DUP2 DUP2 SUB PUSH0 DUP4 ADD MSTORE PUSH2 0x2E03 DUP2 PUSH2 0x2DCA JUMP JUMPDEST SWAP1 POP SWAP2 SWAP1 POP JUMP JUMPDEST PUSH32 0x4552433732313A20617070726F76652063616C6C6572206973206E6F7420746F PUSH0 DUP3 ADD MSTORE PUSH32 0x6B656E206F776E6572206F7220617070726F76656420666F7220616C6C000000 PUSH1 0x20 DUP3 ADD MSTORE POP JUMP JUMPDEST PUSH0 PUSH2 0x2E64 PUSH1 0x3D DUP4 PUSH2 0x25DB JUMP JUMPDEST SWAP2 POP PUSH2 0x2E6F DUP3 PUSH2 0x2E0A JUMP JUMPDEST PUSH1 0x40 DUP3 ADD SWAP1 POP SWAP2 SWAP1 POP JUMP JUMPDEST PUSH0 PUSH1 0x20 DUP3 ADD SWAP1 POP DUP2 DUP2 SUB PUSH0 DUP4 ADD MSTORE PUSH2 0x2E91 DUP2 PUSH2 0x2E58 JUMP JUMPDEST SWAP1 POP SWAP2 SWAP1 POP JUMP JUMPDEST PUSH32 0x4552433732313A2063616C6C6572206973206E6F7420746F6B656E206F776E65 PUSH0 DUP3 ADD MSTORE PUSH32 0x72206F7220617070726F76656400000000000000000000000000000000000000 PUSH1 0x20 DUP3 ADD MSTORE POP JUMP JUMPDEST PUSH0 PUSH2 0x2EF2 PUSH1 0x2D DUP4 PUSH2 0x25DB JUMP JUMPDEST SWAP2 POP PUSH2 0x2EFD DUP3 PUSH2 0x2E98 JUMP JUMPDEST PUSH1 0x40 DUP3 ADD SWAP1 POP SWAP2 SWAP1 POP JUMP JUMPDEST PUSH0 PUSH1 0x20 DUP3 ADD SWAP1 POP DUP2 DUP2 SUB PUSH0 DUP4 ADD MSTORE PUSH2 0x2F1F DUP2 PUSH2 0x2EE6 JUMP JUMPDEST SWAP1 POP SWAP2 SWAP1 POP JUMP JUMPDEST PUSH0 PUSH1 0x40 DUP3 ADD SWAP1 POP PUSH2 0x2F39 PUSH0 DUP4 ADD DUP6 PUSH2 0x2709 JUMP JUMPDEST PUSH2 0x2F46 PUSH1 0x20 DUP4 ADD DUP5 PUSH2 0x2888 JUMP JUMPDEST SWAP4 SWAP3 POP POP POP JUMP JUMPDEST PUSH32 0x4552433732313A20696E76616C696420746F6B656E2049440000000000000000 PUSH0 DUP3 ADD MSTORE POP JUMP JUMPDEST PUSH0 PUSH2 0x2F81 PUSH1 0x18 DUP4 PUSH2 0x25DB JUMP JUMPDEST SWAP2 POP PUSH2 0x2F8C DUP3 PUSH2 0x2F4D JUMP JUMPDEST PUSH1 0x20 DUP3 ADD SWAP1 POP SWAP2 SWAP1 POP JUMP JUMPDEST PUSH0 PUSH1 0x20 DUP3 ADD SWAP1 POP DUP2 DUP2 SUB PUSH0 DUP4 ADD MSTORE PUSH2 0x2FAE DUP2 PUSH2 0x2F75 JUMP JUMPDEST SWAP1 POP SWAP2 SWAP1 POP JUMP JUMPDEST PUSH0 DUP2 MLOAD SWAP1 POP PUSH2 0x2FC3 DUP2 PUSH2 0x2684 JUMP JUMPDEST SWAP3 SWAP2 POP POP JUMP JUMPDEST PUSH0 PUSH1 0x20 DUP3 DUP5 SUB SLT ISZERO PUSH2 0x2FDE JUMPI PUSH2 0x2FDD PUSH2 0x2516 JUMP JUMPDEST JUMPDEST PUSH0 PUSH2 0x2FEB DUP5 DUP3 DUP6 ADD PUSH2 0x2FB5 JUMP JUMPDEST SWAP2 POP POP SWAP3 SWAP2 POP POP JUMP JUMPDEST PUSH32 0x54686520636F72726573706F6E64696E6720436F70797269676874204E465420 PUSH0 DUP3 ADD MSTORE PUSH32 0x6973206E6F7420617661696C61626C6521000000000000000000000000000000 PUSH1 0x20 DUP3 ADD MSTORE POP JUMP JUMPDEST PUSH0 PUSH2 0x304E PUSH1 0x31 DUP4 PUSH2 0x25DB JUMP JUMPDEST SWAP2 POP PUSH2 0x3059 DUP3 PUSH2 0x2FF4 JUMP JUMPDEST PUSH1 0x40 DUP3 ADD SWAP1 POP SWAP2 SWAP1 POP JUMP JUMPDEST PUSH0 PUSH1 0x20 DUP3 ADD SWAP1 POP DUP2 DUP2 SUB PUSH0 DUP4 ADD MSTORE PUSH2 0x307B DUP2 PUSH2 0x3042 JUMP JUMPDEST SWAP1 POP SWAP2 SWAP1 POP JUMP JUMPDEST PUSH32 0x5469636B657420646F6573206E6F742065786973742100000000000000000000 PUSH0 DUP3 ADD MSTORE POP JUMP JUMPDEST PUSH0 PUSH2 0x30B6 PUSH1 0x16 DUP4 PUSH2 0x25DB JUMP JUMPDEST SWAP2 POP PUSH2 0x30C1 DUP3 PUSH2 0x3082 JUMP JUMPDEST PUSH1 0x20 DUP3 ADD SWAP1 POP SWAP2 SWAP1 POP JUMP JUMPDEST PUSH0 PUSH1 0x20 DUP3 ADD SWAP1 POP DUP2 DUP2 SUB PUSH0 DUP4 ADD MSTORE PUSH2 0x30E3 DUP2 PUSH2 0x30AA JUMP JUMPDEST SWAP1 POP SWAP2 SWAP1 POP JUMP JUMPDEST PUSH32 0x4E6F7420656E6F7567682065746865722073656E742100000000000000000000 PUSH0 DUP3 ADD MSTORE POP JUMP JUMPDEST PUSH0 PUSH2 0x311E PUSH1 0x16 DUP4 PUSH2 0x25DB JUMP JUMPDEST SWAP2 POP PUSH2 0x3129 DUP3 PUSH2 0x30EA JUMP JUMPDEST PUSH1 0x20 DUP3 ADD SWAP1 POP SWAP2 SWAP1 POP JUMP JUMPDEST PUSH0 PUSH1 0x20 DUP3 ADD SWAP1 POP DUP2 DUP2 SUB PUSH0 DUP4 ADD MSTORE PUSH2 0x314B DUP2 PUSH2 0x3112 JUMP JUMPDEST SWAP1 POP SWAP2 SWAP1 POP JUMP JUMPDEST PUSH0 DUP2 MLOAD SWAP1 POP PUSH2 0x3160 DUP2 PUSH2 0x2731 JUMP JUMPDEST SWAP3 SWAP2 POP POP JUMP JUMPDEST PUSH0 PUSH1 0x20 DUP3 DUP5 SUB SLT ISZERO PUSH2 0x317B JUMPI PUSH2 0x317A PUSH2 0x2516 JUMP JUMPDEST JUMPDEST PUSH0 PUSH2 0x3188 DUP5 DUP3 DUP6 ADD PUSH2 0x3152 JUMP JUMPDEST SWAP2 POP POP SWAP3 SWAP2 POP POP JUMP JUMPDEST PUSH32 0x596F752061726520612073656C6C65722E20796F752063616E27742062757920 PUSH0 DUP3 ADD MSTORE PUSH32 0x796F757273656C66210000000000000000000000000000000000000000000000 PUSH1 0x20 DUP3 ADD MSTORE POP JUMP JUMPDEST PUSH0 PUSH2 0x31EB PUSH1 0x29 DUP4 PUSH2 0x25DB JUMP JUMPDEST SWAP2 POP PUSH2 0x31F6 DUP3 PUSH2 0x3191 JUMP JUMPDEST PUSH1 0x40 DUP3 ADD SWAP1 POP SWAP2 SWAP1 POP JUMP JUMPDEST PUSH0 PUSH1 0x20 DUP3 ADD SWAP1 POP DUP2 DUP2 SUB PUSH0 DUP4 ADD MSTORE PUSH2 0x3218 DUP2 PUSH2 0x31DF JUMP JUMPDEST SWAP1 POP SWAP2 SWAP1 POP JUMP JUMPDEST PUSH0 PUSH1 0x60 DUP3 ADD SWAP1 POP PUSH2 0x3232 PUSH0 DUP4 ADD DUP7 PUSH2 0x2709 JUMP JUMPDEST PUSH2 0x323F PUSH1 0x20 DUP4 ADD DUP6 PUSH2 0x2709 JUMP JUMPDEST PUSH2 0x324C PUSH1 0x40 DUP4 ADD DUP5 PUSH2 0x2888 JUMP JUMPDEST SWAP5 SWAP4 POP POP POP POP JUMP JUMPDEST PUSH32 0x4552433732313A2061646472657373207A65726F206973206E6F742061207661 PUSH0 DUP3 ADD MSTORE PUSH32 0x6C6964206F776E65720000000000000000000000000000000000000000000000 PUSH1 0x20 DUP3 ADD MSTORE POP JUMP JUMPDEST PUSH0 PUSH2 0x32AE PUSH1 0x29 DUP4 PUSH2 0x25DB JUMP JUMPDEST SWAP2 POP PUSH2 0x32B9 DUP3 PUSH2 0x3254 JUMP JUMPDEST PUSH1 0x40 DUP3 ADD SWAP1 POP SWAP2 SWAP1 POP JUMP JUMPDEST PUSH0 PUSH1 0x20 DUP3 ADD SWAP1 POP DUP2 DUP2 SUB PUSH0 DUP4 ADD MSTORE PUSH2 0x32DB DUP2 PUSH2 0x32A2 JUMP JUMPDEST SWAP1 POP SWAP2 SWAP1 POP JUMP JUMPDEST PUSH32 0x4F6E6C792074686520436F70797269676874206F776E65722063616E20736574 PUSH0 DUP3 ADD MSTORE PUSH32 0x20617661696C6162696C69747921000000000000000000000000000000000000 PUSH1 0x20 DUP3 ADD MSTORE POP JUMP JUMPDEST PUSH0 PUSH2 0x333C PUSH1 0x2E DUP4 PUSH2 0x25DB JUMP JUMPDEST SWAP2 POP PUSH2 0x3347 DUP3 PUSH2 0x32E2 JUMP JUMPDEST PUSH1 0x40 DUP3 ADD SWAP1 POP SWAP2 SWAP1 POP JUMP JUMPDEST PUSH0 PUSH1 0x20 DUP3 ADD SWAP1 POP DUP2 DUP2 SUB PUSH0 DUP4 ADD MSTORE PUSH2 0x3369 DUP2 PUSH2 0x3330 JUMP JUMPDEST SWAP1 POP SWAP2 SWAP1 POP JUMP JUMPDEST PUSH0 DUP2 SWAP1 POP SWAP3 SWAP2 POP POP JUMP JUMPDEST PUSH0 PUSH2 0x3384 DUP3 PUSH2 0x25D1 JUMP JUMPDEST PUSH2 0x338E DUP2 DUP6 PUSH2 0x3370 JUMP JUMPDEST SWAP4 POP PUSH2 0x339E DUP2 DUP6 PUSH1 0x20 DUP7 ADD PUSH2 0x25EB JUMP JUMPDEST DUP1 DUP5 ADD SWAP2 POP POP SWAP3 SWAP2 POP POP JUMP JUMPDEST PUSH0 PUSH2 0x33B5 DUP3 DUP6 PUSH2 0x337A JUMP JUMPDEST SWAP2 POP PUSH2 0x33C1 DUP3 DUP5 PUSH2 0x337A JUMP JUMPDEST SWAP2 POP DUP2 SWAP1 POP SWAP4 SWAP3 POP POP POP JUMP JUMPDEST PUSH0 DUP2 SWAP1 POP DUP2 PUSH0 MSTORE PUSH1 0x20 PUSH0 KECCAK256 SWAP1 POP SWAP2 SWAP1 POP JUMP JUMPDEST PUSH0 PUSH1 0x20 PUSH1 0x1F DUP4 ADD DIV SWAP1 POP SWAP2 SWAP1 POP JUMP JUMPDEST PUSH0 DUP3 DUP3 SHL SWAP1 POP SWAP3 SWAP2 POP POP JUMP JUMPDEST PUSH0 PUSH1 0x8 DUP4 MUL PUSH2 0x3429 PUSH32 0xFFFFFFFFFFFFFFFFFFFFFFFFFFFFFFFFFFFFFFFFFFFFFFFFFFFFFFFFFFFFFFFF DUP3 PUSH2 0x33EE JUMP JUMPDEST PUSH2 0x3433 DUP7 DUP4 PUSH2 0x33EE JUMP JUMPDEST SWAP6 POP DUP1 NOT DUP5 AND SWAP4 POP DUP1 DUP7 AND DUP5 OR SWAP3 POP POP POP SWAP4 SWAP3 POP POP POP JUMP JUMPDEST PUSH0 PUSH2 0x3465 PUSH2 0x3460 PUSH2 0x345B DUP5 PUSH2 0x267B JUMP JUMPDEST PUSH2 0x27E9 JUMP JUMPDEST PUSH2 0x267B JUMP JUMPDEST SWAP1 POP SWAP2 SWAP1 POP JUMP JUMPDEST PUSH0 DUP2 SWAP1 POP SWAP2 SWAP1 POP JUMP JUMPDEST PUSH2 0x347E DUP4 PUSH2 0x344B JUMP JUMPDEST PUSH2 0x3492 PUSH2 0x348A DUP3 PUSH2 0x346C JUMP JUMPDEST DUP5 DUP5 SLOAD PUSH2 0x33FA JUMP JUMPDEST DUP3 SSTORE POP POP POP POP JUMP JUMPDEST PUSH0 SWAP1 JUMP JUMPDEST PUSH2 0x34A6 PUSH2 0x349A JUMP JUMPDEST PUSH2 0x34B1 DUP2 DUP5 DUP5 PUSH2 0x3475 JUMP JUMPDEST POP POP POP JUMP JUMPDEST JUMPDEST DUP2 DUP2 LT ISZERO PUSH2 0x34D4 JUMPI PUSH2 0x34C9 PUSH0 DUP3 PUSH2 0x349E JUMP JUMPDEST PUSH1 0x1 DUP2 ADD SWAP1 POP PUSH2 0x34B7 JUMP JUMPDEST POP POP JUMP JUMPDEST PUSH1 0x1F DUP3 GT ISZERO PUSH2 0x3519 JUMPI PUSH2 0x34EA DUP2 PUSH2 0x33CD JUMP JUMPDEST PUSH2 0x34F3 DUP5 PUSH2 0x33DF JUMP JUMPDEST DUP2 ADD PUSH1 0x20 DUP6 LT ISZERO PUSH2 0x3502 JUMPI DUP2 SWAP1 POP JUMPDEST PUSH2 0x3516 PUSH2 0x350E DUP6 PUSH2 0x33DF JUMP JUMPDEST DUP4 ADD DUP3 PUSH2 0x34B6 JUMP JUMPDEST POP POP JUMPDEST POP POP POP JUMP JUMPDEST PUSH0 DUP3 DUP3 SHR SWAP1 POP SWAP3 SWAP2 POP POP JUMP JUMPDEST PUSH0 PUSH2 0x3539 PUSH0 NOT DUP5 PUSH1 0x8 MUL PUSH2 0x351E JUMP JUMPDEST NOT DUP1 DUP4 AND SWAP2 POP POP SWAP3 SWAP2 POP POP JUMP JUMPDEST PUSH0 PUSH2 0x3551 DUP4 DUP4 PUSH2 0x352A JUMP JUMPDEST SWAP2 POP DUP3 PUSH1 0x2 MUL DUP3 OR SWAP1 POP SWAP3 SWAP2 POP POP JUMP JUMPDEST PUSH2 0x356A DUP3 PUSH2 0x25D1 JUMP JUMPDEST PUSH8 0xFFFFFFFFFFFFFFFF DUP2 GT ISZERO PUSH2 0x3583 JUMPI PUSH2 0x3582 PUSH2 0x299C JUMP JUMPDEST JUMPDEST PUSH2 0x358D DUP3 SLOAD PUSH2 0x2D4C JUMP JUMPDEST PUSH2 0x3598 DUP3 DUP3 DUP6 PUSH2 0x34D8 JUMP JUMPDEST PUSH0 PUSH1 0x20 SWAP1 POP PUSH1 0x1F DUP4 GT PUSH1 0x1 DUP2 EQ PUSH2 0x35C9 JUMPI PUSH0 DUP5 ISZERO PUSH2 0x35B7 JUMPI DUP3 DUP8 ADD MLOAD SWAP1 POP JUMPDEST PUSH2 0x35C1 DUP6 DUP3 PUSH2 0x3546 JUMP JUMPDEST DUP7 SSTORE POP PUSH2 0x3628 JUMP JUMPDEST PUSH1 0x1F NOT DUP5 AND PUSH2 0x35D7 DUP7 PUSH2 0x33CD JUMP JUMPDEST PUSH0 JUMPDEST DUP3 DUP2 LT ISZERO PUSH2 0x35FE JUMPI DUP5 DUP10 ADD MLOAD DUP3 SSTORE PUSH1 0x1 DUP3 ADD SWAP2 POP PUSH1 0x20 DUP6 ADD SWAP5 POP PUSH1 0x20 DUP2 ADD SWAP1 POP PUSH2 0x35D9 JUMP JUMPDEST DUP7 DUP4 LT ISZERO PUSH2 0x361B JUMPI DUP5 DUP10 ADD MLOAD PUSH2 0x3617 PUSH1 0x1F DUP10 AND DUP3 PUSH2 0x352A JUMP JUMPDEST DUP4 SSTORE POP JUMPDEST PUSH1 0x1 PUSH1 0x2 DUP9 MUL ADD DUP9 SSTORE POP POP POP JUMPDEST POP POP POP POP POP POP JUMP JUMPDEST PUSH0 DUP2 SLOAD PUSH2 0x363C DUP2 PUSH2 0x2D4C JUMP JUMPDEST PUSH2 0x3646 DUP2 DUP7 PUSH2 0x3370 JUMP JUMPDEST SWAP5 POP PUSH1 0x1 DUP3 AND PUSH0 DUP2 EQ PUSH2 0x3660 JUMPI PUSH1 0x1 DUP2 EQ PUSH2 0x3675 JUMPI PUSH2 0x36A7 JUMP JUMPDEST PUSH1 0xFF NOT DUP4 AND DUP7 MSTORE DUP2 ISZERO ISZERO DUP3 MUL DUP7 ADD SWAP4 POP PUSH2 0x36A7 JUMP JUMPDEST PUSH2 0x367E DUP6 PUSH2 0x33CD JUMP JUMPDEST PUSH0 JUMPDEST DUP4 DUP2 LT ISZERO PUSH2 0x369F JUMPI DUP2 SLOAD DUP2 DUP10 ADD MSTORE PUSH1 0x1 DUP3 ADD SWAP2 POP PUSH1 0x20 DUP2 ADD SWAP1 POP PUSH2 0x3680 JUMP JUMPDEST DUP4 DUP9 ADD SWAP6 POP POP POP JUMPDEST POP POP POP SWAP3 SWAP2 POP POP JUMP JUMPDEST PUSH0 DUP2 SWAP1 POP SWAP2 SWAP1 POP JUMP JUMPDEST PUSH2 0x36CA PUSH2 0x36C5 DUP3 PUSH2 0x267B JUMP JUMPDEST PUSH2 0x36B0 JUMP JUMPDEST DUP3 MSTORE POP POP JUMP JUMPDEST PUSH0 PUSH2 0x36DB DUP3 DUP6 PUSH2 0x3630 JUMP JUMPDEST SWAP2 POP PUSH2 0x36E7 DUP3 DUP5 PUSH2 0x36B9 JUMP JUMPDEST PUSH1 0x20 DUP3 ADD SWAP2 POP DUP2 SWAP1 POP SWAP4 SWAP3 POP POP POP JUMP JUMPDEST PUSH32 0x4F6E6C7920436F70797269676874206F776E65722063616E206D696E74207468 PUSH0 DUP3 ADD MSTORE PUSH32 0x65207469636B6574732100000000000000000000000000000000000000000000 PUSH1 0x20 DUP3 ADD MSTORE POP JUMP JUMPDEST PUSH0 PUSH2 0x3751 PUSH1 0x2A DUP4 PUSH2 0x25DB JUMP JUMPDEST SWAP2 POP PUSH2 0x375C DUP3 PUSH2 0x36F7 JUMP JUMPDEST PUSH1 0x40 DUP3 ADD SWAP1 POP SWAP2 SWAP1 POP JUMP JUMPDEST PUSH0 PUSH1 0x20 DUP3 ADD SWAP1 POP DUP2 DUP2 SUB PUSH0 DUP4 ADD MSTORE PUSH2 0x377E DUP2 PUSH2 0x3745 JUMP JUMPDEST SWAP1 POP SWAP2 SWAP1 POP JUMP JUMPDEST PUSH0 PUSH1 0x80 DUP3 ADD SWAP1 POP PUSH2 0x3798 PUSH0 DUP4 ADD DUP8 PUSH2 0x2709 JUMP JUMPDEST PUSH2 0x37A5 PUSH1 0x20 DUP4 ADD DUP7 PUSH2 0x2888 JUMP JUMPDEST PUSH2 0x37B2 PUSH1 0x40 DUP4 ADD DUP6 PUSH2 0x2888 JUMP JUMPDEST PUSH2 0x37BF PUSH1 0x60 DUP4 ADD DUP5 PUSH2 0x2888 JUMP JUMPDEST SWAP6 SWAP5 POP POP POP POP POP JUMP JUMPDEST PUSH32 0x4552433732313A207472616E736665722066726F6D20696E636F727265637420 PUSH0 DUP3 ADD MSTORE PUSH32 0x6F776E6572000000000000000000000000000000000000000000000000000000 PUSH1 0x20 DUP3 ADD MSTORE POP JUMP JUMPDEST PUSH0 PUSH2 0x3822 PUSH1 0x25 DUP4 PUSH2 0x25DB JUMP JUMPDEST SWAP2 POP PUSH2 0x382D DUP3 PUSH2 0x37C8 JUMP JUMPDEST PUSH1 0x40 DUP3 ADD SWAP1 POP SWAP2 SWAP1 POP JUMP JUMPDEST PUSH0 PUSH1 0x20 DUP3 ADD SWAP1 POP DUP2 DUP2 SUB PUSH0 DUP4 ADD MSTORE PUSH2 0x384F DUP2 PUSH2 0x3816 JUMP JUMPDEST SWAP1 POP SWAP2 SWAP1 POP JUMP JUMPDEST PUSH32 0x4552433732313A207472616E7366657220746F20746865207A65726F20616464 PUSH0 DUP3 ADD MSTORE PUSH32 0x7265737300000000000000000000000000000000000000000000000000000000 PUSH1 0x20 DUP3 ADD MSTORE POP JUMP JUMPDEST PUSH0 PUSH2 0x38B0 PUSH1 0x24 DUP4 PUSH2 0x25DB JUMP JUMPDEST SWAP2 POP PUSH2 0x38BB DUP3 PUSH2 0x3856 JUMP JUMPDEST PUSH1 0x40 DUP3 ADD SWAP1 POP SWAP2 SWAP1 POP JUMP JUMPDEST PUSH0 PUSH1 0x20 DUP3 ADD SWAP1 POP DUP2 DUP2 SUB PUSH0 DUP4 ADD MSTORE PUSH2 0x38DD DUP2 PUSH2 0x38A4 JUMP JUMPDEST SWAP1 POP SWAP2 SWAP1 POP JUMP JUMPDEST PUSH32 0x4552433732313A20617070726F766520746F2063616C6C657200000000000000 PUSH0 DUP3 ADD MSTORE POP JUMP JUMPDEST PUSH0 PUSH2 0x3918 PUSH1 0x19 DUP4 PUSH2 0x25DB JUMP JUMPDEST SWAP2 POP PUSH2 0x3923 DUP3 PUSH2 0x38E4 JUMP JUMPDEST PUSH1 0x20 DUP3 ADD SWAP1 POP SWAP2 SWAP1 POP JUMP JUMPDEST PUSH0 PUSH1 0x20 DUP3 ADD SWAP1 POP DUP2 DUP2 SUB PUSH0 DUP4 ADD MSTORE PUSH2 0x3945 DUP2 PUSH2 0x390C JUMP JUMPDEST SWAP1 POP SWAP2 SWAP1 POP JUMP JUMPDEST PUSH32 0x4552433732313A207472616E7366657220746F206E6F6E204552433732315265 PUSH0 DUP3 ADD MSTORE PUSH32 0x63656976657220696D706C656D656E7465720000000000000000000000000000 PUSH1 0x20 DUP3 ADD MSTORE POP JUMP JUMPDEST PUSH0 PUSH2 0x39A6 PUSH1 0x32 DUP4 PUSH2 0x25DB JUMP JUMPDEST SWAP2 POP PUSH2 0x39B1 DUP3 PUSH2 0x394C JUMP JUMPDEST PUSH1 0x40 DUP3 ADD SWAP1 POP SWAP2 SWAP1 POP JUMP JUMPDEST PUSH0 PUSH1 0x20 DUP3 ADD SWAP1 POP DUP2 DUP2 SUB PUSH0 DUP4 ADD MSTORE PUSH2 0x39D3 DUP2 PUSH2 0x399A JUMP JUMPDEST SWAP1 POP SWAP2 SWAP1 POP JUMP JUMPDEST PUSH32 0x4552433732313A206D696E7420746F20746865207A65726F2061646472657373 PUSH0 DUP3 ADD MSTORE POP JUMP JUMPDEST PUSH0 PUSH2 0x3A0E PUSH1 0x20 DUP4 PUSH2 0x25DB JUMP JUMPDEST SWAP2 POP PUSH2 0x3A19 DUP3 PUSH2 0x39DA JUMP JUMPDEST PUSH1 0x20 DUP3 ADD SWAP1 POP SWAP2 SWAP1 POP JUMP JUMPDEST PUSH0 PUSH1 0x20 DUP3 ADD SWAP1 POP DUP2 DUP2 SUB PUSH0 DUP4 ADD MSTORE PUSH2 0x3A3B DUP2 PUSH2 0x3A02 JUMP JUMPDEST SWAP1 POP SWAP2 SWAP1 POP JUMP JUMPDEST PUSH32 0x4552433732313A20746F6B656E20616C7265616479206D696E74656400000000 PUSH0 DUP3 ADD MSTORE POP JUMP JUMPDEST PUSH0 PUSH2 0x3A76 PUSH1 0x1C DUP4 PUSH2 0x25DB JUMP JUMPDEST SWAP2 POP PUSH2 0x3A81 DUP3 PUSH2 0x3A42 JUMP JUMPDEST PUSH1 0x20 DUP3 ADD SWAP1 POP SWAP2 SWAP1 POP JUMP JUMPDEST PUSH0 PUSH1 0x20 DUP3 ADD SWAP1 POP DUP2 DUP2 SUB PUSH0 DUP4 ADD MSTORE PUSH2 0x3AA3 DUP2 PUSH2 0x3A6A JUMP JUMPDEST SWAP1 POP SWAP2 SWAP1 POP JUMP JUMPDEST PUSH32 0x45524337323155524953746F726167653A2055524920736574206F66206E6F6E PUSH0 DUP3 ADD MSTORE PUSH32 0x6578697374656E7420746F6B656E000000000000000000000000000000000000 PUSH1 0x20 DUP3 ADD MSTORE POP JUMP JUMPDEST PUSH0 PUSH2 0x3B04 PUSH1 0x2E DUP4 PUSH2 0x25DB JUMP JUMPDEST SWAP2 POP PUSH2 0x3B0F DUP3 PUSH2 0x3AAA JUMP JUMPDEST PUSH1 0x40 DUP3 ADD SWAP1 POP SWAP2 SWAP1 POP JUMP JUMPDEST PUSH0 PUSH1 0x20 DUP3 ADD SWAP1 POP DUP2 DUP2 SUB PUSH0 DUP4 ADD MSTORE PUSH2 0x3B31 DUP2 PUSH2 0x3AF8 JUMP JUMPDEST SWAP1 POP SWAP2 SWAP1 POP JUMP JUMPDEST PUSH0 DUP2 MLOAD SWAP1 POP SWAP2 SWAP1 POP JUMP JUMPDEST PUSH0 DUP3 DUP3 MSTORE PUSH1 0x20 DUP3 ADD SWAP1 POP SWAP3 SWAP2 POP POP JUMP JUMPDEST PUSH0 PUSH2 0x3B5C DUP3 PUSH2 0x3B38 JUMP JUMPDEST PUSH2 0x3B66 DUP2 DUP6 PUSH2 0x3B42 JUMP JUMPDEST SWAP4 POP PUSH2 0x3B76 DUP2 DUP6 PUSH1 0x20 DUP7 ADD PUSH2 0x25EB JUMP JUMPDEST PUSH2 0x3B7F DUP2 PUSH2 0x2613 JUMP JUMPDEST DUP5 ADD SWAP2 POP POP SWAP3 SWAP2 POP POP JUMP JUMPDEST PUSH0 PUSH1 0x80 DUP3 ADD SWAP1 POP PUSH2 0x3B9D PUSH0 DUP4 ADD DUP8 PUSH2 0x2709 JUMP JUMPDEST PUSH2 0x3BAA PUSH1 0x20 DUP4 ADD DUP7 PUSH2 0x2709 JUMP JUMPDEST PUSH2 0x3BB7 PUSH1 0x40 DUP4 ADD DUP6 PUSH2 0x2888 JUMP JUMPDEST DUP2 DUP2 SUB PUSH1 0x60 DUP4 ADD MSTORE PUSH2 0x3BC9 DUP2 DUP5 PUSH2 0x3B52 JUMP JUMPDEST SWAP1 POP SWAP6 SWAP5 POP POP POP POP POP JUMP JUMPDEST PUSH0 DUP2 MLOAD SWAP1 POP PUSH2 0x3BE2 DUP2 PUSH2 0x2549 JUMP JUMPDEST SWAP3 SWAP2 POP POP JUMP JUMPDEST PUSH0 PUSH1 0x20 DUP3 DUP5 SUB SLT ISZERO PUSH2 0x3BFD JUMPI PUSH2 0x3BFC PUSH2 0x2516 JUMP JUMPDEST JUMPDEST PUSH0 PUSH2 0x3C0A DUP5 DUP3 DUP6 ADD PUSH2 0x3BD4 JUMP JUMPDEST SWAP2 POP POP SWAP3 SWAP2 POP POP JUMP JUMPDEST PUSH32 0x4E487B7100000000000000000000000000000000000000000000000000000000 PUSH0 MSTORE PUSH1 0x12 PUSH1 0x4 MSTORE PUSH1 0x24 PUSH0 REVERT INVALID LOG2 PUSH5 0x6970667358 0x22 SLT KECCAK256 PUSH1 0xB2 0x28 PUSH32 0xAE49B97969C5D350D5D4F53A57AD30D7C91B1ECE345DF0DBD7F641AA64736F6C PUSH4 0x43000814 STOP CALLER "
		},
		"gasEstimates": {
			"creation": {
				"codeDepositCost": "3095600",
				"executionCost": "infinite",
				"totalCost": "infinite"
			},
			"external": {
				"Dt()": "infinite",
				"approve(address,uint256)": "infinite",
				"balanceOf(address)": "2975",
				"buyTicket(uint256)": "infinite",
				"copyrightProductNumber(uint256)": "infinite",
				"copyrightTickets(uint256,uint256)": "infinite",
				"downloadTicket(uint256)": "infinite",
				"getApproved(uint256)": "5282",
				"getCopyrightInfo(uint256)": "infinite",
				"isApprovedForAll(address,address)": "infinite",
				"isAvailable(uint256)": "2856",
				"mintCopyright(uint256,string,bool)": "infinite",
				"mintDownloadTicket(uint256,uint256,uint256)": "infinite",
				"name()": "infinite",
				"owner()": "2531",
				"ownerOf(uint256)": "3050",
				"resetURI(string)": "infinite",
				"safeTransferFrom(address,address,uint256)": "infinite",
				"safeTransferFrom(address,address,uint256,bytes)": "infinite",
				"setApprovalForAll(address,bool)": "infinite",
				"setAvailable(uint256,bool)": "27429",
				"setDtAddress(address)": "24783",
				"supportsInterface(bytes4)": "881",
				"symbol()": "infinite",
				"tokenURI(uint256)": "infinite",
				"transferFrom(address,address,uint256)": "infinite"
			}
		},
		"methodIdentifiers": {
			"Dt()": "34adf63b",
			"approve(address,uint256)": "095ea7b3",
			"balanceOf(address)": "70a08231",
			"buyTicket(uint256)": "67dd74ca",
			"copyrightProductNumber(uint256)": "f0ddb87c",
			"copyrightTickets(uint256,uint256)": "92c2bdf5",
			"downloadTicket(uint256)": "62469289",
			"getApproved(uint256)": "081812fc",
			"getCopyrightInfo(uint256)": "b2edd796",
			"isApprovedForAll(address,address)": "e985e9c5",
			"isAvailable(uint256)": "3a178d99",
			"mintCopyright(uint256,string,bool)": "d4356bf4",
			"mintDownloadTicket(uint256,uint256,uint256)": "eaad62b9",
			"name()": "06fdde03",
			"owner()": "8da5cb5b",
			"ownerOf(uint256)": "6352211e",
			"resetURI(string)": "dc177871",
			"safeTransferFrom(address,address,uint256)": "42842e0e",
			"safeTransferFrom(address,address,uint256,bytes)": "b88d4fde",
			"setApprovalForAll(address,bool)": "a22cb465",
			"setAvailable(uint256,bool)": "b3ff3958",
			"setDtAddress(address)": "3e6c4b21",
			"supportsInterface(bytes4)": "01ffc9a7",
			"symbol()": "95d89b41",
			"tokenURI(uint256)": "c87b56dd",
			"transferFrom(address,address,uint256)": "23b872dd"
		}
	},
	"abi": [
		{
			"inputs": [],
			"stateMutability": "nonpayable",
			"type": "constructor"
		},
		{
			"anonymous": false,
			"inputs": [
				{
					"indexed": true,
					"internalType": "address",
					"name": "owner",
					"type": "address"
				},
				{
					"indexed": true,
					"internalType": "address",
					"name": "approved",
					"type": "address"
				},
				{
					"indexed": true,
					"internalType": "uint256",
					"name": "tokenId",
					"type": "uint256"
				}
			],
			"name": "Approval",
			"type": "event"
		},
		{
			"anonymous": false,
			"inputs": [
				{
					"indexed": true,
					"internalType": "address",
					"name": "owner",
					"type": "address"
				},
				{
					"indexed": true,
					"internalType": "address",
					"name": "operator",
					"type": "address"
				},
				{
					"indexed": false,
					"internalType": "bool",
					"name": "approved",
					"type": "bool"
				}
			],
			"name": "ApprovalForAll",
			"type": "event"
		},
		{
			"anonymous": false,
			"inputs": [
				{
					"indexed": false,
					"internalType": "uint256",
					"name": "_fromTokenId",
					"type": "uint256"
				},
				{
					"indexed": false,
					"internalType": "uint256",
					"name": "_toTokenId",
					"type": "uint256"
				}
			],
			"name": "BatchMetadataUpdate",
			"type": "event"
		},
		{
			"anonymous": false,
			"inputs": [
				{
					"indexed": false,
					"internalType": "uint256",
					"name": "_tokenId",
					"type": "uint256"
				}
			],
			"name": "MetadataUpdate",
			"type": "event"
		},
		{
			"anonymous": false,
			"inputs": [
				{
					"indexed": true,
					"internalType": "address",
					"name": "from",
					"type": "address"
				},
				{
					"indexed": true,
					"internalType": "address",
					"name": "to",
					"type": "address"
				},
				{
					"indexed": true,
					"internalType": "uint256",
					"name": "tokenId",
					"type": "uint256"
				}
			],
			"name": "Transfer",
			"type": "event"
		},
		{
			"inputs": [],
			"name": "Dt",
			"outputs": [
				{
					"internalType": "contract DTicket",
					"name": "",
					"type": "address"
				}
			],
			"stateMutability": "view",
			"type": "function"
		},
		{
			"inputs": [
				{
					"internalType": "address",
					"name": "to",
					"type": "address"
				},
				{
					"internalType": "uint256",
					"name": "tokenId",
					"type": "uint256"
				}
			],
			"name": "approve",
			"outputs": [],
			"stateMutability": "nonpayable",
			"type": "function"
		},
		{
			"inputs": [
				{
					"internalType": "address",
					"name": "owner",
					"type": "address"
				}
			],
			"name": "balanceOf",
			"outputs": [
				{
					"internalType": "uint256",
					"name": "",
					"type": "uint256"
				}
			],
			"stateMutability": "view",
			"type": "function"
		},
		{
			"inputs": [
				{
					"internalType": "uint256",
					"name": "ticketId",
					"type": "uint256"
				}
			],
			"name": "buyTicket",
			"outputs": [],
			"stateMutability": "payable",
			"type": "function"
		},
		{
			"inputs": [
				{
					"internalType": "uint256",
					"name": "",
					"type": "uint256"
				}
			],
			"name": "copyrightProductNumber",
			"outputs": [
				{
					"internalType": "string",
					"name": "",
					"type": "string"
				}
			],
			"stateMutability": "view",
			"type": "function"
		},
		{
			"inputs": [
				{
					"internalType": "uint256",
					"name": "",
					"type": "uint256"
				},
				{
					"internalType": "uint256",
					"name": "",
					"type": "uint256"
				}
			],
			"name": "copyrightTickets",
			"outputs": [
				{
					"internalType": "uint256",
					"name": "",
					"type": "uint256"
				}
			],
			"stateMutability": "view",
			"type": "function"
		},
		{
			"inputs": [
				{
					"internalType": "uint256",
					"name": "ticketId",
					"type": "uint256"
				}
			],
			"name": "downloadTicket",
			"outputs": [],
			"stateMutability": "nonpayable",
			"type": "function"
		},
		{
			"inputs": [
				{
					"internalType": "uint256",
					"name": "tokenId",
					"type": "uint256"
				}
			],
			"name": "getApproved",
			"outputs": [
				{
					"internalType": "address",
					"name": "",
					"type": "address"
				}
			],
			"stateMutability": "view",
			"type": "function"
		},
		{
			"inputs": [
				{
					"internalType": "uint256",
					"name": "copyrightId",
					"type": "uint256"
				}
			],
			"name": "getCopyrightInfo",
			"outputs": [
				{
					"internalType": "string",
					"name": "",
					"type": "string"
				}
			],
			"stateMutability": "view",
			"type": "function"
		},
		{
			"inputs": [
				{
					"internalType": "address",
					"name": "owner",
					"type": "address"
				},
				{
					"internalType": "address",
					"name": "operator",
					"type": "address"
				}
			],
			"name": "isApprovedForAll",
			"outputs": [
				{
					"internalType": "bool",
					"name": "",
					"type": "bool"
				}
			],
			"stateMutability": "view",
			"type": "function"
		},
		{
			"inputs": [
				{
					"internalType": "uint256",
					"name": "copyrightId",
					"type": "uint256"
				}
			],
			"name": "isAvailable",
			"outputs": [
				{
					"internalType": "bool",
					"name": "",
					"type": "bool"
				}
			],
			"stateMutability": "view",
			"type": "function"
		},
		{
			"inputs": [
				{
					"internalType": "uint256",
					"name": "tokenId",
					"type": "uint256"
				},
				{
					"internalType": "string",
					"name": "productNumber",
					"type": "string"
				},
				{
					"internalType": "bool",
					"name": "available",
					"type": "bool"
				}
			],
			"name": "mintCopyright",
			"outputs": [],
			"stateMutability": "nonpayable",
			"type": "function"
		},
		{
			"inputs": [
				{
					"internalType": "uint256",
					"name": "copyrightId",
					"type": "uint256"
				},
				{
					"internalType": "uint256",
					"name": "counter",
					"type": "uint256"
				},
				{
					"internalType": "uint256",
					"name": "price",
					"type": "uint256"
				}
			],
			"name": "mintDownloadTicket",
			"outputs": [],
			"stateMutability": "nonpayable",
			"type": "function"
		},
		{
			"inputs": [],
			"name": "name",
			"outputs": [
				{
					"internalType": "string",
					"name": "",
					"type": "string"
				}
			],
			"stateMutability": "view",
			"type": "function"
		},
		{
			"inputs": [],
			"name": "owner",
			"outputs": [
				{
					"internalType": "address",
					"name": "",
					"type": "address"
				}
			],
			"stateMutability": "view",
			"type": "function"
		},
		{
			"inputs": [
				{
					"internalType": "uint256",
					"name": "tokenId",
					"type": "uint256"
				}
			],
			"name": "ownerOf",
			"outputs": [
				{
					"internalType": "address",
					"name": "",
					"type": "address"
				}
			],
			"stateMutability": "view",
			"type": "function"
		},
		{
			"inputs": [
				{
					"internalType": "string",
					"name": "_URI",
					"type": "string"
				}
			],
			"name": "resetURI",
			"outputs": [],
			"stateMutability": "nonpayable",
			"type": "function"
		},
		{
			"inputs": [
				{
					"internalType": "address",
					"name": "from",
					"type": "address"
				},
				{
					"internalType": "address",
					"name": "to",
					"type": "address"
				},
				{
					"internalType": "uint256",
					"name": "tokenId",
					"type": "uint256"
				}
			],
			"name": "safeTransferFrom",
			"outputs": [],
			"stateMutability": "nonpayable",
			"type": "function"
		},
		{
			"inputs": [
				{
					"internalType": "address",
					"name": "from",
					"type": "address"
				},
				{
					"internalType": "address",
					"name": "to",
					"type": "address"
				},
				{
					"internalType": "uint256",
					"name": "tokenId",
					"type": "uint256"
				},
				{
					"internalType": "bytes",
					"name": "data",
					"type": "bytes"
				}
			],
			"name": "safeTransferFrom",
			"outputs": [],
			"stateMutability": "nonpayable",
			"type": "function"
		},
		{
			"inputs": [
				{
					"internalType": "address",
					"name": "operator",
					"type": "address"
				},
				{
					"internalType": "bool",
					"name": "approved",
					"type": "bool"
				}
			],
			"name": "setApprovalForAll",
			"outputs": [],
			"stateMutability": "nonpayable",
			"type": "function"
		},
		{
			"inputs": [
				{
					"internalType": "uint256",
					"name": "copyrightId",
					"type": "uint256"
				},
				{
					"internalType": "bool",
					"name": "available",
					"type": "bool"
				}
			],
			"name": "setAvailable",
			"outputs": [],
			"stateMutability": "nonpayable",
			"type": "function"
		},
		{
			"inputs": [
				{
					"internalType": "address",
					"name": "_DtAddress",
					"type": "address"
				}
			],
			"name": "setDtAddress",
			"outputs": [],
			"stateMutability": "nonpayable",
			"type": "function"
		},
		{
			"inputs": [
				{
					"internalType": "bytes4",
					"name": "interfaceId",
					"type": "bytes4"
				}
			],
			"name": "supportsInterface",
			"outputs": [
				{
					"internalType": "bool",
					"name": "",
					"type": "bool"
				}
			],
			"stateMutability": "view",
			"type": "function"
		},
		{
			"inputs": [],
			"name": "symbol",
			"outputs": [
				{
					"internalType": "string",
					"name": "",
					"type": "string"
				}
			],
			"stateMutability": "view",
			"type": "function"
		},
		{
			"inputs": [
				{
					"internalType": "uint256",
					"name": "tokenId",
					"type": "uint256"
				}
			],
			"name": "tokenURI",
			"outputs": [
				{
					"internalType": "string",
					"name": "",
					"type": "string"
				}
			],
			"stateMutability": "view",
			"type": "function"
		},
		{
			"inputs": [
				{
					"internalType": "address",
					"name": "from",
					"type": "address"
				},
				{
					"internalType": "address",
					"name": "to",
					"type": "address"
				},
				{
					"internalType": "uint256",
					"name": "tokenId",
					"type": "uint256"
				}
			],
			"name": "transferFrom",
			"outputs": [],
			"stateMutability": "nonpayable",
			"type": "function"
		}
	]
}