{
  "contractName": "MyERC721Card",
  "abi": [
    {
      "inputs": [],
      "stateMutability": "nonpayable",
      "type": "constructor"
    },
    {
      "anonymous": false,
      "inputs": [
        {
          "indexed": true,
          "internalType": "address",
          "name": "owner",
          "type": "address"
        },
        {
          "indexed": true,
          "internalType": "address",
          "name": "approved",
          "type": "address"
        },
        {
          "indexed": true,
          "internalType": "uint256",
          "name": "tokenId",
          "type": "uint256"
        }
      ],
      "name": "Approval",
      "type": "event"
    },
    {
      "anonymous": false,
      "inputs": [
        {
          "indexed": true,
          "internalType": "address",
          "name": "owner",
          "type": "address"
        },
        {
          "indexed": true,
          "internalType": "address",
          "name": "operator",
          "type": "address"
        },
        {
          "indexed": false,
          "internalType": "bool",
          "name": "approved",
          "type": "bool"
        }
      ],
      "name": "ApprovalForAll",
      "type": "event"
    },
    {
      "anonymous": false,
      "inputs": [
        {
          "indexed": true,
          "internalType": "address",
          "name": "from",
          "type": "address"
        },
        {
          "indexed": true,
          "internalType": "address",
          "name": "to",
          "type": "address"
        },
        {
          "indexed": true,
          "internalType": "uint256",
          "name": "tokenId",
          "type": "uint256"
        }
      ],
      "name": "Transfer",
      "type": "event"
    },
    {
      "inputs": [
        {
          "internalType": "address",
          "name": "to",
          "type": "address"
        },
        {
          "internalType": "uint256",
          "name": "tokenId",
          "type": "uint256"
        }
      ],
      "name": "approve",
      "outputs": [],
      "stateMutability": "nonpayable",
      "type": "function"
    },
    {
      "inputs": [
        {
          "internalType": "address",
          "name": "owner",
          "type": "address"
        }
      ],
      "name": "balanceOf",
      "outputs": [
        {
          "internalType": "uint256",
          "name": "",
          "type": "uint256"
        }
      ],
      "stateMutability": "view",
      "type": "function"
    },
    {
      "inputs": [
        {
          "internalType": "uint256",
          "name": "",
          "type": "uint256"
        }
      ],
      "name": "cards",
      "outputs": [
        {
          "internalType": "string",
          "name": "name",
          "type": "string"
        },
        {
          "internalType": "uint256",
          "name": "level",
          "type": "uint256"
        }
      ],
      "stateMutability": "view",
      "type": "function"
    },
    {
      "inputs": [
        {
          "internalType": "uint256",
          "name": "tokenId",
          "type": "uint256"
        }
      ],
      "name": "getApproved",
      "outputs": [
        {
          "internalType": "address",
          "name": "",
          "type": "address"
        }
      ],
      "stateMutability": "view",
      "type": "function"
    },
    {
      "inputs": [
        {
          "internalType": "address",
          "name": "owner",
          "type": "address"
        },
        {
          "internalType": "address",
          "name": "operator",
          "type": "address"
        }
      ],
      "name": "isApprovedForAll",
      "outputs": [
        {
          "internalType": "bool",
          "name": "",
          "type": "bool"
        }
      ],
      "stateMutability": "view",
      "type": "function"
    },
    {
      "inputs": [],
      "name": "owner",
      "outputs": [
        {
          "internalType": "address",
          "name": "",
          "type": "address"
        }
      ],
      "stateMutability": "view",
      "type": "function"
    },
    {
      "inputs": [
        {
          "internalType": "uint256",
          "name": "tokenId",
          "type": "uint256"
        }
      ],
      "name": "ownerOf",
      "outputs": [
        {
          "internalType": "address",
          "name": "",
          "type": "address"
        }
      ],
      "stateMutability": "view",
      "type": "function"
    },
    {
      "inputs": [
        {
          "internalType": "address",
          "name": "from",
          "type": "address"
        },
        {
          "internalType": "address",
          "name": "to",
          "type": "address"
        },
        {
          "internalType": "uint256",
          "name": "tokenId",
          "type": "uint256"
        }
      ],
      "name": "safeTransferFrom",
      "outputs": [],
      "stateMutability": "nonpayable",
      "type": "function"
    },
    {
      "inputs": [
        {
          "internalType": "address",
          "name": "from",
          "type": "address"
        },
        {
          "internalType": "address",
          "name": "to",
          "type": "address"
        },
        {
          "internalType": "uint256",
          "name": "tokenId",
          "type": "uint256"
        },
        {
          "internalType": "bytes",
          "name": "_data",
          "type": "bytes"
        }
      ],
      "name": "safeTransferFrom",
      "outputs": [],
      "stateMutability": "nonpayable",
      "type": "function"
    },
    {
      "inputs": [
        {
          "internalType": "address",
          "name": "to",
          "type": "address"
        },
        {
          "internalType": "bool",
          "name": "approved",
          "type": "bool"
        }
      ],
      "name": "setApprovalForAll",
      "outputs": [],
      "stateMutability": "nonpayable",
      "type": "function"
    },
    {
      "inputs": [
        {
          "internalType": "bytes4",
          "name": "interfaceId",
          "type": "bytes4"
        }
      ],
      "name": "supportsInterface",
      "outputs": [
        {
          "internalType": "bool",
          "name": "",
          "type": "bool"
        }
      ],
      "stateMutability": "view",
      "type": "function"
    },
    {
      "inputs": [
        {
          "internalType": "address",
          "name": "from",
          "type": "address"
        },
        {
          "internalType": "address",
          "name": "to",
          "type": "address"
        },
        {
          "internalType": "uint256",
          "name": "tokenId",
          "type": "uint256"
        }
      ],
      "name": "transferFrom",
      "outputs": [],
      "stateMutability": "nonpayable",
      "type": "function"
    },
    {
      "inputs": [
        {
          "internalType": "string",
          "name": "name",
          "type": "string"
        },
        {
          "internalType": "address",
          "name": "account",
          "type": "address"
        }
      ],
      "name": "mintCard",
      "outputs": [],
      "stateMutability": "nonpayable",
      "type": "function"
    }
  ],
  "bytecode": "0x608060405234801562000010575f80fd5b50620000296301ffc9a760e01b6200008760201b60201c565b620000416380ac58cd60e01b6200008760201b60201c565b3360065f6101000a81548173ffffffffffffffffffffffffffffffffffffffff021916908373ffffffffffffffffffffffffffffffffffffffff160217905550620001d9565b63ffffffff60e01b817bffffffffffffffffffffffffffffffffffffffffffffffffffffffff191603620000f2576040517f08c379a0000000000000000000000000000000000000000000000000000000008152600401620000e990620001b9565b60405180910390fd5b60015f80837bffffffffffffffffffffffffffffffffffffffffffffffffffffffff19167bffffffffffffffffffffffffffffffffffffffffffffffffffffffff191681526020019081526020015f205f6101000a81548160ff02191690831515021790555050565b5f82825260208201905092915050565b7f4552433136353a20696e76616c696420696e74657266616365206964000000005f82015250565b5f620001a1601c836200015b565b9150620001ae826200016b565b602082019050919050565b5f6020820190508181035f830152620001d28162000193565b9050919050565b6124c580620001e75f395ff3fe608060405234801561000f575f80fd5b50600436106100cd575f3560e01c80636352211e1161008a5780638dc10768116100645780638dc107681461021f578063a22cb46514610250578063b88d4fde1461026c578063e985e9c514610288576100cd565b80636352211e146101a157806370a08231146101d15780638da5cb5b14610201576100cd565b806301ffc9a7146100d1578063081812fc14610101578063095ea7b31461013157806323b872dd1461014d5780633833b3a11461016957806342842e0e14610185575b5f80fd5b6100eb60048036038101906100e6919061130b565b6102b8565b6040516100f89190611350565b60405180910390f35b61011b6004803603810190610116919061139c565b61031b565b6040516101289190611406565b60405180910390f35b61014b60048036038101906101469190611449565b61039c565b005b61016760048036038101906101629190611487565b610544565b005b610183600480360381019061017e9190611613565b61059d565b005b61019f600480360381019061019a9190611487565b61066b565b005b6101bb60048036038101906101b6919061139c565b61068a565b6040516101c89190611406565b60405180910390f35b6101eb60048036038101906101e6919061166d565b610736565b6040516101f891906116a7565b60405180910390f35b6102096107f1565b6040516102169190611406565b60405180910390f35b6102396004803603810190610234919061139c565b610816565b60405161024792919061173a565b60405180910390f35b61026a60048036038101906102659190611792565b6108cb565b005b6102866004803603810190610281919061186e565b610a31565b005b6102a2600480360381019061029d91906118ee565b610a8d565b6040516102af9190611350565b60405180910390f35b5f805f837bffffffffffffffffffffffffffffffffffffffffffffffffffffffff19167bffffffffffffffffffffffffffffffffffffffffffffffffffffffff191681526020019081526020015f205f9054906101000a900460ff169050919050565b5f61032582610b1b565b610364576040517f08c379a000000000000000000000000000000000000000000000000000000000815260040161035b9061199c565b60405180910390fd5b60025f8381526020019081526020015f205f9054906101000a900473ffffffffffffffffffffffffffffffffffffffff169050919050565b5f6103a68261068a565b90508073ffffffffffffffffffffffffffffffffffffffff168373ffffffffffffffffffffffffffffffffffffffff1603610416576040517f08c379a000000000000000000000000000000000000000000000000000000000815260040161040d90611a2a565b60405180910390fd5b8073ffffffffffffffffffffffffffffffffffffffff163373ffffffffffffffffffffffffffffffffffffffff16148061045657506104558133610a8d565b5b610495576040517f08c379a000000000000000000000000000000000000000000000000000000000815260040161048c90611ab8565b60405180910390fd5b8260025f8481526020019081526020015f205f6101000a81548173ffffffffffffffffffffffffffffffffffffffff021916908373ffffffffffffffffffffffffffffffffffffffff160217905550818373ffffffffffffffffffffffffffffffffffffffff168273ffffffffffffffffffffffffffffffffffffffff167f8c5be1e5ebec7d5bd14f71427d1e84f3dd0314c0f7b2291e5b200ac8c7c3b92560405160405180910390a4505050565b61054e3382610b88565b61058d576040517f08c379a000000000000000000000000000000000000000000000000000000000815260040161058490611b46565b60405180910390fd5b610598838383610c64565b505050565b3373ffffffffffffffffffffffffffffffffffffffff1660065f9054906101000a900473ffffffffffffffffffffffffffffffffffffffff1673ffffffffffffffffffffffffffffffffffffffff16146105f5575f80fd5b5f6005805490509050600560405180604001604052808581526020016001815250908060018154018082558091505060019003905f5260205f2090600202015f909190919091505f820151815f01908161064f9190611d5e565b506020820151816001015550506106668282610e8a565b505050565b61068583838360405180602001604052805f815250610a31565b505050565b5f8060015f8481526020019081526020015f205f9054906101000a900473ffffffffffffffffffffffffffffffffffffffff1690505f73ffffffffffffffffffffffffffffffffffffffff168173ffffffffffffffffffffffffffffffffffffffff160361072d576040517f08c379a000000000000000000000000000000000000000000000000000000000815260040161072490611e9d565b60405180910390fd5b80915050919050565b5f8073ffffffffffffffffffffffffffffffffffffffff168273ffffffffffffffffffffffffffffffffffffffff16036107a5576040517f08c379a000000000000000000000000000000000000000000000000000000000815260040161079c90611f2b565b60405180910390fd5b6107ea60035f8473ffffffffffffffffffffffffffffffffffffffff1673ffffffffffffffffffffffffffffffffffffffff1681526020019081526020015f20611034565b9050919050565b60065f9054906101000a900473ffffffffffffffffffffffffffffffffffffffff1681565b60058181548110610825575f80fd5b905f5260205f2090600202015f91509050805f01805461084490611b91565b80601f016020809104026020016040519081016040528092919081815260200182805461087090611b91565b80156108bb5780601f10610892576101008083540402835291602001916108bb565b820191905f5260205f20905b81548152906001019060200180831161089e57829003601f168201915b5050505050908060010154905082565b3373ffffffffffffffffffffffffffffffffffffffff168273ffffffffffffffffffffffffffffffffffffffff1603610939576040517f08c379a000000000000000000000000000000000000000000000000000000000815260040161093090611f93565b60405180910390fd5b8060045f3373ffffffffffffffffffffffffffffffffffffffff1673ffffffffffffffffffffffffffffffffffffffff1681526020019081526020015f205f8473ffffffffffffffffffffffffffffffffffffffff1673ffffffffffffffffffffffffffffffffffffffff1681526020019081526020015f205f6101000a81548160ff0219169083151502179055508173ffffffffffffffffffffffffffffffffffffffff163373ffffffffffffffffffffffffffffffffffffffff167f17307eab39ab6107e8899845ad3d59bd9653f200f220920489ca2b5937696c3183604051610a259190611350565b60405180910390a35050565b610a3c848484610544565b610a4884848484611040565b610a87576040517f08c379a0000000000000000000000000000000000000000000000000000000008152600401610a7e90612021565b60405180910390fd5b50505050565b5f60045f8473ffffffffffffffffffffffffffffffffffffffff1673ffffffffffffffffffffffffffffffffffffffff1681526020019081526020015f205f8373ffffffffffffffffffffffffffffffffffffffff1673ffffffffffffffffffffffffffffffffffffffff1681526020019081526020015f205f9054906101000a900460ff16905092915050565b5f8060015f8481526020019081526020015f205f9054906101000a900473ffffffffffffffffffffffffffffffffffffffff1690505f73ffffffffffffffffffffffffffffffffffffffff168173ffffffffffffffffffffffffffffffffffffffff161415915050919050565b5f610b9282610b1b565b610bd1576040517f08c379a0000000000000000000000000000000000000000000000000000000008152600401610bc8906120af565b60405180910390fd5b5f610bdb8361068a565b90508073ffffffffffffffffffffffffffffffffffffffff168473ffffffffffffffffffffffffffffffffffffffff161480610c4a57508373ffffffffffffffffffffffffffffffffffffffff16610c328461031b565b73ffffffffffffffffffffffffffffffffffffffff16145b80610c5b5750610c5a8185610a8d565b5b91505092915050565b8273ffffffffffffffffffffffffffffffffffffffff16610c848261068a565b73ffffffffffffffffffffffffffffffffffffffff1614610cda576040517f08c379a0000000000000000000000000000000000000000000000000000000008152600401610cd19061213d565b60405180910390fd5b5f73ffffffffffffffffffffffffffffffffffffffff168273ffffffffffffffffffffffffffffffffffffffff1603610d48576040517f08c379a0000000000000000000000000000000000000000000000000000000008152600401610d3f906121cb565b60405180910390fd5b610d5181611143565b610d9660035f8573ffffffffffffffffffffffffffffffffffffffff1673ffffffffffffffffffffffffffffffffffffffff1681526020019081526020015f206111f9565b610ddb60035f8473ffffffffffffffffffffffffffffffffffffffff1673ffffffffffffffffffffffffffffffffffffffff1681526020019081526020015f2061121a565b8160015f8381526020019081526020015f205f6101000a81548173ffffffffffffffffffffffffffffffffffffffff021916908373ffffffffffffffffffffffffffffffffffffffff160217905550808273ffffffffffffffffffffffffffffffffffffffff168473ffffffffffffffffffffffffffffffffffffffff167fddf252ad1be2c89b69c2b068fc378daa952ba7f163c4a11628f55a4df523b3ef60405160405180910390a4505050565b5f73ffffffffffffffffffffffffffffffffffffffff168273ffffffffffffffffffffffffffffffffffffffff1603610ef8576040517f08c379a0000000000000000000000000000000000000000000000000000000008152600401610eef90612233565b60405180910390fd5b610f0181610b1b565b15610f41576040517f08c379a0000000000000000000000000000000000000000000000000000000008152600401610f389061229b565b60405180910390fd5b8160015f8381526020019081526020015f205f6101000a81548173ffffffffffffffffffffffffffffffffffffffff021916908373ffffffffffffffffffffffffffffffffffffffff160217905550610fd560035f8473ffffffffffffffffffffffffffffffffffffffff1673ffffffffffffffffffffffffffffffffffffffff1681526020019081526020015f2061121a565b808273ffffffffffffffffffffffffffffffffffffffff165f73ffffffffffffffffffffffffffffffffffffffff167fddf252ad1be2c89b69c2b068fc378daa952ba7f163c4a11628f55a4df523b3ef60405160405180910390a45050565b5f815f01549050919050565b5f6110608473ffffffffffffffffffffffffffffffffffffffff16611237565b61106d576001905061113b565b5f8473ffffffffffffffffffffffffffffffffffffffff1663150b7a02338887876040518563ffffffff1660e01b81526004016110ad949392919061230b565b6020604051808303815f875af11580156110c9573d5f803e3d5ffd5b505050506040513d601f19601f820116820180604052508101906110ed9190612369565b905063150b7a0260e01b7bffffffffffffffffffffffffffffffffffffffffffffffffffffffff1916817bffffffffffffffffffffffffffffffffffffffffffffffffffffffff1916149150505b949350505050565b5f73ffffffffffffffffffffffffffffffffffffffff1660025f8381526020019081526020015f205f9054906101000a900473ffffffffffffffffffffffffffffffffffffffff1673ffffffffffffffffffffffffffffffffffffffff16146111f6575f60025f8381526020019081526020015f205f6101000a81548173ffffffffffffffffffffffffffffffffffffffff021916908373ffffffffffffffffffffffffffffffffffffffff1602179055505b50565b6112106001825f015461124890919063ffffffff16565b815f018190555050565b6001815f015f82825461122d91906123c1565b9250508190555050565b5f80823b90505f8111915050919050565b5f8282111561128c576040517f08c379a00000000000000000000000000000000000000000000000000000000081526004016112839061243e565b60405180910390fd5b5f8284611299919061245c565b90508091505092915050565b5f604051905090565b5f80fd5b5f80fd5b5f7fffffffff0000000000000000000000000000000000000000000000000000000082169050919050565b6112ea816112b6565b81146112f4575f80fd5b50565b5f81359050611305816112e1565b92915050565b5f602082840312156113205761131f6112ae565b5b5f61132d848285016112f7565b91505092915050565b5f8115159050919050565b61134a81611336565b82525050565b5f6020820190506113635f830184611341565b92915050565b5f819050919050565b61137b81611369565b8114611385575f80fd5b50565b5f8135905061139681611372565b92915050565b5f602082840312156113b1576113b06112ae565b5b5f6113be84828501611388565b91505092915050565b5f73ffffffffffffffffffffffffffffffffffffffff82169050919050565b5f6113f0826113c7565b9050919050565b611400816113e6565b82525050565b5f6020820190506114195f8301846113f7565b92915050565b611428816113e6565b8114611432575f80fd5b50565b5f813590506114438161141f565b92915050565b5f806040838503121561145f5761145e6112ae565b5b5f61146c85828601611435565b925050602061147d85828601611388565b9150509250929050565b5f805f6060848603121561149e5761149d6112ae565b5b5f6114ab86828701611435565b93505060206114bc86828701611435565b92505060406114cd86828701611388565b9150509250925092565b5f80fd5b5f80fd5b5f601f19601f8301169050919050565b7f4e487b71000000000000000000000000000000000000000000000000000000005f52604160045260245ffd5b611525826114df565b810181811067ffffffffffffffff82111715611544576115436114ef565b5b80604052505050565b5f6115566112a5565b9050611562828261151c565b919050565b5f67ffffffffffffffff821115611581576115806114ef565b5b61158a826114df565b9050602081019050919050565b828183375f83830152505050565b5f6115b76115b284611567565b61154d565b9050828152602081018484840111156115d3576115d26114db565b5b6115de848285611597565b509392505050565b5f82601f8301126115fa576115f96114d7565b5b813561160a8482602086016115a5565b91505092915050565b5f8060408385031215611629576116286112ae565b5b5f83013567ffffffffffffffff811115611646576116456112b2565b5b611652858286016115e6565b925050602061166385828601611435565b9150509250929050565b5f60208284031215611682576116816112ae565b5b5f61168f84828501611435565b91505092915050565b6116a181611369565b82525050565b5f6020820190506116ba5f830184611698565b92915050565b5f81519050919050565b5f82825260208201905092915050565b5f5b838110156116f75780820151818401526020810190506116dc565b5f8484015250505050565b5f61170c826116c0565b61171681856116ca565b93506117268185602086016116da565b61172f816114df565b840191505092915050565b5f6040820190508181035f8301526117528185611702565b90506117616020830184611698565b9392505050565b61177181611336565b811461177b575f80fd5b50565b5f8135905061178c81611768565b92915050565b5f80604083850312156117a8576117a76112ae565b5b5f6117b585828601611435565b92505060206117c68582860161177e565b9150509250929050565b5f67ffffffffffffffff8211156117ea576117e96114ef565b5b6117f3826114df565b9050602081019050919050565b5f61181261180d846117d0565b61154d565b90508281526020810184848401111561182e5761182d6114db565b5b611839848285611597565b509392505050565b5f82601f830112611855576118546114d7565b5b8135611865848260208601611800565b91505092915050565b5f805f8060808587031215611886576118856112ae565b5b5f61189387828801611435565b94505060206118a487828801611435565b93505060406118b587828801611388565b925050606085013567ffffffffffffffff8111156118d6576118d56112b2565b5b6118e287828801611841565b91505092959194509250565b5f8060408385031215611904576119036112ae565b5b5f61191185828601611435565b925050602061192285828601611435565b9150509250929050565b7f4552433732313a20617070726f76656420717565727920666f72206e6f6e65785f8201527f697374656e7420746f6b656e0000000000000000000000000000000000000000602082015250565b5f611986602c836116ca565b91506119918261192c565b604082019050919050565b5f6020820190508181035f8301526119b38161197a565b9050919050565b7f4552433732313a20617070726f76616c20746f2063757272656e74206f776e655f8201527f7200000000000000000000000000000000000000000000000000000000000000602082015250565b5f611a146021836116ca565b9150611a1f826119ba565b604082019050919050565b5f6020820190508181035f830152611a4181611a08565b9050919050565b7f4552433732313a20617070726f76652063616c6c6572206973206e6f74206f775f8201527f6e6572206e6f7220617070726f76656420666f7220616c6c0000000000000000602082015250565b5f611aa26038836116ca565b9150611aad82611a48565b604082019050919050565b5f6020820190508181035f830152611acf81611a96565b9050919050565b7f4552433732313a207472616e736665722063616c6c6572206973206e6f74206f5f8201527f776e6572206e6f7220617070726f766564000000000000000000000000000000602082015250565b5f611b306031836116ca565b9150611b3b82611ad6565b604082019050919050565b5f6020820190508181035f830152611b5d81611b24565b9050919050565b7f4e487b71000000000000000000000000000000000000000000000000000000005f52602260045260245ffd5b5f6002820490506001821680611ba857607f821691505b602082108103611bbb57611bba611b64565b5b50919050565b5f819050815f5260205f209050919050565b5f6020601f8301049050919050565b5f82821b905092915050565b5f60088302611c1d7fffffffffffffffffffffffffffffffffffffffffffffffffffffffffffffffff82611be2565b611c278683611be2565b95508019841693508086168417925050509392505050565b5f819050919050565b5f611c62611c5d611c5884611369565b611c3f565b611369565b9050919050565b5f819050919050565b611c7b83611c48565b611c8f611c8782611c69565b848454611bee565b825550505050565b5f90565b611ca3611c97565b611cae818484611c72565b505050565b5b81811015611cd157611cc65f82611c9b565b600181019050611cb4565b5050565b601f821115611d1657611ce781611bc1565b611cf084611bd3565b81016020851015611cff578190505b611d13611d0b85611bd3565b830182611cb3565b50505b505050565b5f82821c905092915050565b5f611d365f1984600802611d1b565b1980831691505092915050565b5f611d4e8383611d27565b9150826002028217905092915050565b611d67826116c0565b67ffffffffffffffff811115611d8057611d7f6114ef565b5b611d8a8254611b91565b611d95828285611cd5565b5f60209050601f831160018114611dc6575f8415611db4578287015190505b611dbe8582611d43565b865550611e25565b601f198416611dd486611bc1565b5f5b82811015611dfb57848901518255600182019150602085019450602081019050611dd6565b86831015611e185784890151611e14601f891682611d27565b8355505b6001600288020188555050505b505050505050565b7f4552433732313a206f776e657220717565727920666f72206e6f6e65786973745f8201527f656e7420746f6b656e0000000000000000000000000000000000000000000000602082015250565b5f611e876029836116ca565b9150611e9282611e2d565b604082019050919050565b5f6020820190508181035f830152611eb481611e7b565b9050919050565b7f4552433732313a2062616c616e636520717565727920666f7220746865207a655f8201527f726f206164647265737300000000000000000000000000000000000000000000602082015250565b5f611f15602a836116ca565b9150611f2082611ebb565b604082019050919050565b5f6020820190508181035f830152611f4281611f09565b9050919050565b7f4552433732313a20617070726f766520746f2063616c6c6572000000000000005f82015250565b5f611f7d6019836116ca565b9150611f8882611f49565b602082019050919050565b5f6020820190508181035f830152611faa81611f71565b9050919050565b7f4552433732313a207472616e7366657220746f206e6f6e2045524337323152655f8201527f63656976657220696d706c656d656e7465720000000000000000000000000000602082015250565b5f61200b6032836116ca565b915061201682611fb1565b604082019050919050565b5f6020820190508181035f83015261203881611fff565b9050919050565b7f4552433732313a206f70657261746f7220717565727920666f72206e6f6e65785f8201527f697374656e7420746f6b656e0000000000000000000000000000000000000000602082015250565b5f612099602c836116ca565b91506120a48261203f565b604082019050919050565b5f6020820190508181035f8301526120c68161208d565b9050919050565b7f4552433732313a207472616e73666572206f6620746f6b656e207468617420695f8201527f73206e6f74206f776e0000000000000000000000000000000000000000000000602082015250565b5f6121276029836116ca565b9150612132826120cd565b604082019050919050565b5f6020820190508181035f8301526121548161211b565b9050919050565b7f4552433732313a207472616e7366657220746f20746865207a65726f206164645f8201527f7265737300000000000000000000000000000000000000000000000000000000602082015250565b5f6121b56024836116ca565b91506121c08261215b565b604082019050919050565b5f6020820190508181035f8301526121e2816121a9565b9050919050565b7f4552433732313a206d696e7420746f20746865207a65726f20616464726573735f82015250565b5f61221d6020836116ca565b9150612228826121e9565b602082019050919050565b5f6020820190508181035f83015261224a81612211565b9050919050565b7f4552433732313a20746f6b656e20616c7265616479206d696e746564000000005f82015250565b5f612285601c836116ca565b915061229082612251565b602082019050919050565b5f6020820190508181035f8301526122b281612279565b9050919050565b5f81519050919050565b5f82825260208201905092915050565b5f6122dd826122b9565b6122e781856122c3565b93506122f78185602086016116da565b612300816114df565b840191505092915050565b5f60808201905061231e5f8301876113f7565b61232b60208301866113f7565b6123386040830185611698565b818103606083015261234a81846122d3565b905095945050505050565b5f81519050612363816112e1565b92915050565b5f6020828403121561237e5761237d6112ae565b5b5f61238b84828501612355565b91505092915050565b7f4e487b71000000000000000000000000000000000000000000000000000000005f52601160045260245ffd5b5f6123cb82611369565b91506123d683611369565b92508282019050808211156123ee576123ed612394565b5b92915050565b7f536166654d6174683a207375627472616374696f6e206f766572666c6f7700005f82015250565b5f612428601e836116ca565b9150612433826123f4565b602082019050919050565b5f6020820190508181035f8301526124558161241c565b9050919050565b5f61246682611369565b915061247183611369565b925082820390508181111561248957612488612394565b5b9291505056fea264697066735822122040b9b2789578914ec164104ea0f0ce3f69f79e4a7e8cb4bc0b62d02786b3af0864736f6c63430008140033",
  "immutableReferences": {},
  "source": "// SPDX-License-Identifier: MIT\n\npragma solidity ^0.8.20;\n\n// https://github.com/OpenZeppelin/openzeppelin-solidity/blob/v2.3.0/contracts/utils/Address.sol\n/**\n * @dev     ,\n */\nlibrary Address {\n    /**\n     * @dev  `account`   (true) .\n     *\n     *   , false-negatives   :\n     *    ,   \n     *    .\n     *\n     * >   (false)     (EOA)\n     *       .\n     */\n    function isContract(address account) internal view returns (bool) {\n        //      ,  \n        //   0  extcodesize\n        // .\n\n        uint256 size;\n        // solhint-disable-next-line no-inline-assembly\n        assembly { size := extcodesize(account) }\n        return size > 0;\n    }\n}\n\n// https://github.com/OpenZeppelin/openzeppelin-solidity/blob/v2.3.0/contracts/math/SafeMath.sol\n/**\n * @dev       \n * .\n *\n *    .  \n *         \n *   ,     .\n * `SafeMath`     \n *  .\n *\n *        \n *  ,    .\n */\nlibrary SafeMath {\n    /**\n     * @dev        , \n     * .\n     *\n     * Counterpart to Solidity's `+` operator.\n     *\n     * Requirements:\n     * - Addition cannot overflow.\n     */\n    function add(uint256 a, uint256 b) internal pure returns (uint256) {\n        uint256 c = a + b;\n        require(c >= a, \"SafeMath: addition overflow\");\n\n        return c;\n    }\n\n    /**\n     * @dev Returns the subtraction of two unsigned integers, reverting on\n     * overflow (when the result is negative).\n     *\n     * Counterpart to Solidity's `-` operator.\n     *\n     * Requirements:\n     * - Subtraction cannot overflow.\n     */\n    function sub(uint256 a, uint256 b) internal pure returns (uint256) {\n        require(b <= a, \"SafeMath: subtraction overflow\");\n        uint256 c = a - b;\n\n        return c;\n    }\n\n    /**\n     * @dev Returns the multiplication of two unsigned integers, reverting on\n     * overflow.\n     *\n     * Counterpart to Solidity's `*` operator.\n     *\n     * Requirements:\n     * - Multiplication cannot overflow.\n     */\n    function mul(uint256 a, uint256 b) internal pure returns (uint256) {\n        // Gas optimization: this is cheaper than requiring 'a' not being zero, but the\n        // benefit is lost if 'b' is also tested.\n        // See: https://github.com/OpenZeppelin/openzeppelin-solidity/pull/522\n        if (a == 0) {\n            return 0;\n        }\n\n        uint256 c = a * b;\n        require(c / a == b, \"SafeMath: multiplication overflow\");\n\n        return c;\n    }\n\n    /**\n     * @dev Returns the integer division of two unsigned integers. Reverts on\n     * division by zero. The result is rounded towards zero.\n     *\n     * Counterpart to Solidity's `/` operator. Note: this function uses a\n     * `revert` opcode (which leaves remaining gas untouched) while Solidity\n     * uses an invalid opcode to revert (consuming all remaining gas).\n     *\n     * Requirements:\n     * - The divisor cannot be zero.\n     */\n    function div(uint256 a, uint256 b) internal pure returns (uint256) {\n        // Solidity only automatically asserts when dividing by 0\n        require(b > 0, \"SafeMath: division by zero\");\n        uint256 c = a / b;\n        // assert(a == b * c + a % b); // There is no case in which this doesn't hold\n\n        return c;\n    }\n\n    /**\n     * @dev Returns the remainder of dividing two unsigned integers. (unsigned integer modulo),\n     * Reverts when dividing by zero.\n     *\n     * Counterpart to Solidity's `%` operator. This function uses a `revert`\n     * opcode (which leaves remaining gas untouched) while Solidity uses an\n     * invalid opcode to revert (consuming all remaining gas).\n     *\n     * Requirements:\n     * - The divisor cannot be zero.\n     */\n    function mod(uint256 a, uint256 b) internal pure returns (uint256) {\n        require(b != 0, \"SafeMath: modulo by zero\");\n        return a % b;\n    }\n}\n\n// https://github.com/OpenZeppelin/openzeppelin-solidity/blob/v2.3.0/contracts/drafts/Counters.sol\n/**\n * @title Counters\n * @author Matt Condon (@shrugs)\n * @dev  1      (counter) .      ,\n * ERC721 ID ,   ID      .\n *\n * `using Counters for Counters.Counter;` .\n * 1   256 bit     , `increment` SafeMath\n *   ,    .    `_value`        .\n */\nlibrary Counters {\n    using SafeMath for uint256;\n\n    struct Counter {\n        //        :   \n        //  .  v0.5.2,      ,    :\n        // https://github.com/ethereum/solidity/issues/4637 .\n        uint256 _value; // : 0\n    }\n\n    function current(Counter storage counter) internal view returns (uint256) {\n        return counter._value;\n    }\n\n    function increment(Counter storage counter) internal {\n        counter._value += 1;\n    }\n\n    function decrement(Counter storage counter) internal {\n        counter._value = counter._value.sub(1);\n    }\n}\n\n/**\n * @dev [EIP](https://eips.ethereum.org/EIPS/eip-165) \n * ERC165  .\n *\n *       , \n *  (`ERC165Checker`)        .\n *\n *   `ERC165` .\n */\ninterface IERC165 {\n    /**\n     * @dev   `interfaceId`   ,\n     * (true) . ID      \n     * [EIP section](https://eips.ethereum.org/EIPS/eip-165#how-interfaces-are-identified)\n     *  .\n     *\n     *    30000    .\n     */\n    function supportsInterface(bytes4 interfaceId) external view returns (bool);\n}\n\n/**\n * @dev `IERC165`  .\n *\n *      `_registerInterface`   \n *   .\n */\nabstract contract ERC165 is IERC165 {\n    /*\n     * bytes4(keccak256('supportsInterface(bytes4)')) == 0x01ffc9a7\n     */\n    bytes4 private constant _INTERFACE_ID_ERC165 = 0x01ffc9a7;\n\n    /**\n     * @dev     ID \nMapping of interface ids to whether or not it's supported.\n     */\n    mapping(bytes4 => bool) private _supportedInterfaces;\n\n    constructor () internal {\n        //        .\n        // ERC165     .\n        _registerInterface(_INTERFACE_ID_ERC165);\n    }\n\n    /**\n     * @dev `IERC165.supportsInterface` .\n     *\n     *   O(1),  30000    .\n     */\n    function supportsInterface(bytes4 interfaceId) external view returns (bool) {\n        return _supportedInterfaces[interfaceId];\n    }\n\n    /**\n     * @dev  `interfaceId`   \n     * .  ERC165    \n     *   ID   .\n     *\n     * `IERC165.supportsInterface` .\n     *\n     * :\n     *\n     * - `interfaceId` ERC165   (`0xffffffff`)  .\n     */\n    function _registerInterface(bytes4 interfaceId) internal {\n        require(interfaceId != 0xffffffff, \"ERC165: invalid interface id\");\n        _supportedInterfaces[interfaceId] = true;\n    }\n}\n\n/**\n * @dev ERC721    \n */\nabstract contract IERC721 is IERC165 {\n    event Transfer(address indexed from, address indexed to, uint256 indexed tokenId);\n    event Approval(address indexed owner, address indexed approved, uint256 indexed tokenId);\n    event ApprovalForAll(address indexed owner, address indexed operator, bool approved);\n\n    /**\n     * @dev `owner`  NFT  .\n     */\n    function balanceOf(address owner) external virtual view returns (uint256 balance);\n\n    /**\n     * @dev `tokenId`   NFT  .\n     */\n    function ownerOf(uint256 tokenId) external virtual view returns (address owner);\n\n    /**\n     * @dev  NFT (`tokenId`)  (`from`)\n     *  (`to`) .\n     *\n     * \n     *\n     * :\n     * - `from`, `to` 0  .\n     * - `tokenId` `from`   .\n     * -   `from` , `approve` \n     * `setApproveForAll`   NFT   .\n     */\n    function safeTransferFrom(address from, address to, uint256 tokenId) external virtual;\n    /**\n     * @dev  NFT (`tokenId`)   (`from`)\n     *  (`to`) .\n     *\n     * :\n     * -   `from` , `approve` \n     * `setApproveForAll`   NFT   .\n     */\n    function transferFrom(address from, address to, uint256 tokenId) external virtual;\n    function approve(address to, uint256 tokenId) external virtual;\n    function getApproved(uint256 tokenId) external virtual view returns (address operator);\n\n    function setApprovalForAll(address operator, bool _approved) external virtual;\n    function isApprovedForAll(address owner, address operator) external virtual view returns (bool);\n\n\n    function safeTransferFrom(address from, address to, uint256 tokenId, bytes memory data) external virtual;\n} \n\n// https://github.com/OpenZeppelin/openzeppelin-solidity/blob/v2.3.0/contracts/token/ERC721/IERC721Receiver.sol\n/**\n * @title ERC721   \n * @dev ERC721   safeTransfers  \n *   .\n */\nabstract contract IERC721Receiver {\n    /**\n     * @notice NFT  \n     * @dev ERC721   `safeTransfer`   \n     *   .       ,\n     *       .  \n     * `this.onERC721Received.selector`   .  \n     *        .\n     * : ERC721     .\n     * @param operator `safeTransferFrom`   \n     * @param from    \n     * @param tokenId   NFT \n     * @param data     \n     * @return bytes4 `bytes4(keccak256(\"onERC721Received(address,address,uint256,bytes)\"))`\n     */\n    function onERC721Received(address operator, address from, uint256 tokenId, bytes memory data)\n    external virtual returns (bytes4);\n}\n\n// https://github.com/OpenZeppelin/openzeppelin-solidity/blob/v2.3.0/contracts/token/ERC721/ERC721.sol\nabstract contract ERC721 is ERC165, IERC721 {\n    using SafeMath for uint256;\n    using Address for address;\n    using Counters for Counters.Counter;\n\n    // `bytes4(keccak256(\"onERC721Received(address,address,uint256,bytes)\"))` \n    // `IERC721Receiver(0).onERC721Received.selector`   \n    bytes4 private constant _ERC721_RECEIVED = 0x150b7a02;\n\n    //  ID  \n    mapping (uint256 => address) private _tokenOwner;\n\n    //  ID   \n    mapping (uint256 => address) private _tokenApprovals;\n\n    //     \n    mapping (address => Counters.Counter) private _ownedTokensCount;\n\n    //  (operator)   \n    mapping (address => mapping (address => bool)) private _operatorApprovals;\n\n    /*\n     *     bytes4(keccak256('balanceOf(address)')) == 0x70a08231\n     *     bytes4(keccak256('ownerOf(uint256)')) == 0x6352211e\n     *     bytes4(keccak256('approve(address,uint256)')) == 0x095ea7b3\n     *     bytes4(keccak256('getApproved(uint256)')) == 0x081812fc\n     *     bytes4(keccak256('setApprovalForAll(address,bool)')) == 0xa22cb465\n     *     bytes4(keccak256('isApprovedForAll(address,address)')) == 0xe985e9c\n     *     bytes4(keccak256('transferFrom(address,address,uint256)')) == 0x23b872dd\n     *     bytes4(keccak256('safeTransferFrom(address,address,uint256)')) == 0x42842e0e\n     *     bytes4(keccak256('safeTransferFrom(address,address,uint256,bytes)')) == 0xb88d4fde\n     *\n     *     => 0x70a08231 ^ 0x6352211e ^ 0x095ea7b3 ^ 0x081812fc ^\n     *        0xa22cb465 ^ 0xe985e9c ^ 0x23b872dd ^ 0x42842e0e ^ 0xb88d4fde == 0x80ac58cd\n     */\n    bytes4 private constant _INTERFACE_ID_ERC721 = 0x80ac58cd;\n\n    constructor () {\n        // ERC165  ERC721    \n        _registerInterface(_INTERFACE_ID_ERC721);\n    }\n\n    /**\n     * @dev    .\n     * @param owner   \n     * @return uint256    \n     */\n    function balanceOf(address owner) external override view returns (uint256) {\n        require(owner != address(0), \"ERC721: balance query for the zero address\");\n\n        return _ownedTokensCount[owner].current();\n    }\n\n    /**\n     * @dev   ID  .\n     * @param tokenId uint256    ID\n     * @return address   ID   \n     */\n    function ownerOf(uint256 tokenId) public override view returns (address) {\n        address owner = _tokenOwner[tokenId];\n        require(owner != address(0), \"ERC721: owner query for nonexistent token\");\n\n        return owner;\n    }\n\n    /**\n     * @dev   ID    .\n     * (zero)     .\n     *        .\n     *       .\n     * @param to address   ID   \n     * @param tokenId uint256    ID\n     */\n    function approve(address to, uint256 tokenId) public override {\n        address owner = ownerOf(tokenId);\n        require(to != owner, \"ERC721: approval to current owner\");\n\n        require(msg.sender == owner || isApprovedForAll(owner, msg.sender),\n            \"ERC721: approve caller is not owner nor approved for all\"\n        );\n\n        _tokenApprovals[tokenId] = to;\n        emit Approval(owner, to, tokenId);\n    }\n\n    /**\n     * @dev  ID   ,     0 .\n     *   ID    .\n     * @param tokenId uint256     ID\n     * @return address   ID    \n     */\n    function getApproved(uint256 tokenId) public override view returns (address) {\n        require(_exists(tokenId), \"ERC721: approved query for nonexistent token\");\n\n        return _tokenApprovals[tokenId];\n    }\n\n    /**\n     * @dev      .\n     *         .\n     * @param to     \n     * @param approved     \n     */\n    function setApprovalForAll(address to, bool approved) public override {\n        require(to != msg.sender, \"ERC721: approve to caller\");\n\n        _operatorApprovals[msg.sender][to] = approved;\n        emit ApprovalForAll(msg.sender, to, approved);\n    }\n\n    /**\n     * @dev       .\n     * @param owner     \n     * @param operator     \n     * @return bool      \n     */\n    function isApprovedForAll(address owner, address operator) public override view returns (bool) {\n        return _operatorApprovals[owner][operator];\n    }\n\n    /**\n     * @dev   ID    .\n     *      .  `safeTransferFrom` .\n     * msg.sender ,  ,   .\n     * @param from   \n     * @param to   ID   \n     * @param tokenId   uint256 ID\n     */\n    function transferFrom(address from, address to, uint256 tokenId) public override{\n        //solhint-disable-next-line max-line-length\n        require(_isApprovedOrOwner(msg.sender, tokenId), \"ERC721: transfer caller is not owner nor approved\");\n\n        _transferFrom(from, to, tokenId);\n    }\n\n    /**\n     * @dev   ID     .\n     *    ,  `onERC721Received`  .\n     *      \n     * `bytes4(keccak256(\"onERC721Received(address,address,uint256,bytes)\"))` ;\n     *     .\n     * msg.sender ,  ,  \n     * @param from   \n     * @param to   ID   \n     * @param tokenId   uint256 ID\n     */\n    function safeTransferFrom(address from, address to, uint256 tokenId) public override{\n        safeTransferFrom(from, to, tokenId, \"\");\n    }\n\n    /**\n     * @dev   ID     .\n     *    ,  `onERC721Received`  .\n     *      \n     * `bytes4(keccak256(\"onERC721Received(address,address,uint256,bytes)\"))` ;\n     *     .\n     * msg.sender ,  ,  \n     * @param from   \n     * @param to   ID   \n     * @param tokenId   uint256 ID\n     * @param _data        \n     */\n    function safeTransferFrom(address from, address to, uint256 tokenId, bytes memory _data) public override{\n        transferFrom(from, to, tokenId);\n        require(_checkOnERC721Received(from, to, tokenId, _data), \"ERC721: transfer to non ERC721Receiver implementer\");\n    }\n\n    /**\n     * @dev     .\n     * @param tokenId uint256     ID\n     * @return bool   \n     */\n    function _exists(uint256 tokenId) internal view returns (bool) {\n        address owner = _tokenOwner[tokenId];\n        return owner != address(0);\n    }\n\n    /**\n     * @dev     ID     .\n     * @param spender    \n     * @param tokenId uint256    ID\n     * @return bool msg.sender   ID  ,\n     * ,    \n     */\n    function _isApprovedOrOwner(address spender, uint256 tokenId) internal view returns (bool) {\n        require(_exists(tokenId), \"ERC721: operator query for nonexistent token\");\n        address owner = ownerOf(tokenId);\n        return (spender == owner || getApproved(tokenId) == spender || isApprovedForAll(owner, spender));\n    }\n\n    /**\n     * @dev      .\n     *   ID   .\n     * @param to    \n     * @param tokenId uint256   ID\n     */\n    function _mint(address to, uint256 tokenId) internal {\n        require(to != address(0), \"ERC721: mint to the zero address\");\n        require(!_exists(tokenId), \"ERC721: token already minted\");\n\n        _tokenOwner[tokenId] = to;\n        _ownedTokensCount[to].increment();\n\n        emit Transfer(address(0), to, tokenId);\n    }\n\n    /**\n     * @dev      .\n     *    .\n     *    , _burn(uint256)  .\n     * @param owner   \n     * @param tokenId uint256   ID\n     */\n    function _burn(address owner, uint256 tokenId) internal {\n        require(ownerOf(tokenId) == owner, \"ERC721: burn of token that is not own\");\n\n        _clearApproval(tokenId);\n\n        _ownedTokensCount[owner].decrement();\n        _tokenOwner[tokenId] = address(0);\n\n        emit Transfer(owner, address(0), tokenId);\n    }\n\n    /**\n     * @dev      .\n     * Reverts if the token does not exist.\n     * @param tokenId uint256   ID\n     */\n    function _burn(uint256 tokenId) internal {\n        _burn(ownerOf(tokenId), tokenId);\n    }\n\n    /**\n     * @dev   ID       .\n     * transferFrom , msg.sender  .\n     * @param from   \n     * @param to   ID    \n     * @param tokenId uint256   ID\n     */\n    function _transferFrom(address from, address to, uint256 tokenId) internal {\n        require(ownerOf(tokenId) == from, \"ERC721: transfer of token that is not own\");\n        require(to != address(0), \"ERC721: transfer to the zero address\");\n\n        _clearApproval(tokenId);\n\n        _ownedTokensCount[from].decrement();\n        _ownedTokensCount[to].increment();\n\n        _tokenOwner[tokenId] = to;\n\n        emit Transfer(from, to, tokenId);\n    }\n\n    /**\n     * @dev   `onERC721Received`   .\n     *        .\n     *\n     *      .\n     * @param from   ID    \n     * @param to    \n     * @param tokenId uint256   ID\n     * @param _data bytes     \n     * @return bool   (magic value)  \n     */\n    function _checkOnERC721Received(address from, address to, uint256 tokenId, bytes memory _data)\n        internal returns (bool)\n    {\n        if (!to.isContract()) {\n            return true;\n        }\n\n        bytes4 retval = IERC721Receiver(to).onERC721Received(msg.sender, from, tokenId, _data);\n        return (retval == _ERC721_RECEIVED);\n    }\n\n    /**\n     * @dev   ID     .\n     * @param tokenId uint256   ID\n     */\n    function _clearApproval(uint256 tokenId) private {\n        if (_tokenApprovals[tokenId] != address(0)) {\n            _tokenApprovals[tokenId] = address(0);\n        }\n    }\n}\n\ncontract MyERC721Card is ERC721{\n\n    struct Card {\n        string  name;  //  \n        uint256 level; //  \n    }\n\n    Card[] public cards; //    0\n    address public owner;\n\n    constructor () public {\n        owner = msg.sender; //      MyERC721Card  \n    }\n\n    function mintCard(string memory name, address account) public {\n        require(owner == msg.sender); //     \n        uint256 cardId = cards.length; //   ID\n        cards.push(Card(name, 1));\n        _mint(account, cardId); //   \n    }\n\n}",
  "sourcePath": "/Users/guarantable/bitbucket/smart-contract/mig_test/contracts/MyERC721Card.sol",
  "compiler": {
    "name": "solc",
    "version": "0.8.20+commit.a1b79de6.Emscripten.clang"
  },
  "schemaVersion": "3.4.14",
  "updatedAt": "2023-07-07T03:23:43.554Z",
  "devdoc": {
    "kind": "dev",
    "methods": {
      "approve(address,uint256)": {
        "details": "  ID    . (zero)     .        .       .",
        "params": {
          "to": "address   ID   ",
          "tokenId": "uint256    ID"
        }
      },
      "balanceOf(address)": {
        "details": "   .",
        "params": {
          "owner": "  "
        },
        "returns": {
          "_0": "uint256    "
        }
      },
      "getApproved(uint256)": {
        "details": " ID   ,     0 .   ID    .",
        "params": {
          "tokenId": "uint256     ID"
        },
        "returns": {
          "_0": "address   ID    "
        }
      },
      "isApprovedForAll(address,address)": {
        "details": "      .",
        "params": {
          "operator": "    ",
          "owner": "    "
        },
        "returns": {
          "_0": "bool      "
        }
      },
      "ownerOf(uint256)": {
        "details": "  ID  .",
        "params": {
          "tokenId": "uint256    ID"
        },
        "returns": {
          "_0": "address   ID   "
        }
      },
      "safeTransferFrom(address,address,uint256)": {
        "details": "  ID     .    ,  `onERC721Received`  .       `bytes4(keccak256(\"onERC721Received(address,address,uint256,bytes)\"))` ;     . msg.sender ,  ,  ",
        "params": {
          "from": "  ",
          "to": "  ID   ",
          "tokenId": "  uint256 ID"
        }
      },
      "safeTransferFrom(address,address,uint256,bytes)": {
        "details": "  ID     .    ,  `onERC721Received`  .       `bytes4(keccak256(\"onERC721Received(address,address,uint256,bytes)\"))` ;     . msg.sender ,  ,  ",
        "params": {
          "_data": "       ",
          "from": "  ",
          "to": "  ID   ",
          "tokenId": "  uint256 ID"
        }
      },
      "setApprovalForAll(address,bool)": {
        "details": "     .         .",
        "params": {
          "approved": "    ",
          "to": "    "
        }
      },
      "supportsInterface(bytes4)": {
        "details": "`IERC165.supportsInterface` .   O(1),  30000    ."
      },
      "transferFrom(address,address,uint256)": {
        "details": "  ID    .      .  `safeTransferFrom` . msg.sender ,  ,   .",
        "params": {
          "from": "  ",
          "to": "  ID   ",
          "tokenId": "  uint256 ID"
        }
      }
    },
    "version": 1
  },
  "userdoc": {
    "kind": "user",
    "methods": {},
    "version": 1
  }
}